{
  "_format": "hh-sol-artifact-1",
  "contractName": "CONFETTI",
  "sourceName": "contracts/nft/CONFETTI.sol",
  "abi": [
    {
      "inputs": [
        {
          "internalType": "address",
          "name": "operator",
          "type": "address"
        }
      ],
      "name": "OperatorNotAllowed",
      "type": "error"
    },
    {
      "anonymous": false,
      "inputs": [
        {
          "indexed": true,
          "internalType": "address",
          "name": "owner",
          "type": "address"
        },
        {
          "indexed": true,
          "internalType": "address",
          "name": "approved",
          "type": "address"
        },
        {
          "indexed": true,
          "internalType": "uint256",
          "name": "tokenId",
          "type": "uint256"
        }
      ],
      "name": "Approval",
      "type": "event"
    },
    {
      "anonymous": false,
      "inputs": [
        {
          "indexed": true,
          "internalType": "address",
          "name": "owner",
          "type": "address"
        },
        {
          "indexed": true,
          "internalType": "address",
          "name": "operator",
          "type": "address"
        },
        {
          "indexed": false,
          "internalType": "bool",
          "name": "approved",
          "type": "bool"
        }
      ],
      "name": "ApprovalForAll",
      "type": "event"
    },
    {
      "anonymous": false,
      "inputs": [
        {
          "indexed": false,
          "internalType": "uint8",
          "name": "version",
          "type": "uint8"
        }
      ],
      "name": "Initialized",
      "type": "event"
    },
    {
      "anonymous": false,
      "inputs": [
        {
          "indexed": true,
          "internalType": "address",
          "name": "previousOwner",
          "type": "address"
        },
        {
          "indexed": true,
          "internalType": "address",
          "name": "newOwner",
          "type": "address"
        }
      ],
      "name": "OwnershipTransferred",
      "type": "event"
    },
    {
      "anonymous": false,
      "inputs": [
        {
          "indexed": false,
          "internalType": "address",
          "name": "account",
          "type": "address"
        }
      ],
      "name": "Paused",
      "type": "event"
    },
    {
      "anonymous": false,
      "inputs": [
        {
          "indexed": true,
          "internalType": "address",
          "name": "from",
          "type": "address"
        },
        {
          "indexed": true,
          "internalType": "address",
          "name": "to",
          "type": "address"
        },
        {
          "indexed": true,
          "internalType": "uint256",
          "name": "tokenId",
          "type": "uint256"
        }
      ],
      "name": "Transfer",
      "type": "event"
    },
    {
      "anonymous": false,
      "inputs": [
        {
          "indexed": false,
          "internalType": "address",
          "name": "account",
          "type": "address"
        }
      ],
      "name": "Unpaused",
      "type": "event"
    },
    {
      "inputs": [],
      "name": "_admin",
      "outputs": [
        {
          "internalType": "address",
          "name": "",
          "type": "address"
        }
      ],
      "stateMutability": "view",
      "type": "function"
    },
    {
      "inputs": [],
      "name": "_algorithm",
      "outputs": [
        {
          "internalType": "string",
          "name": "",
          "type": "string"
        }
      ],
      "stateMutability": "view",
      "type": "function"
    },
    {
      "inputs": [],
      "name": "_counter",
      "outputs": [
        {
          "internalType": "uint256",
          "name": "",
          "type": "uint256"
        }
      ],
      "stateMutability": "view",
      "type": "function"
    },
    {
      "inputs": [],
      "name": "_fee",
      "outputs": [
        {
          "internalType": "uint256",
          "name": "",
          "type": "uint256"
        }
      ],
      "stateMutability": "view",
      "type": "function"
    },
    {
      "inputs": [],
      "name": "_limit",
      "outputs": [
        {
          "internalType": "uint256",
          "name": "",
          "type": "uint256"
        }
      ],
      "stateMutability": "view",
      "type": "function"
    },
    {
      "inputs": [],
      "name": "_paramsAddress",
      "outputs": [
        {
          "internalType": "address",
          "name": "",
          "type": "address"
        }
      ],
      "stateMutability": "view",
      "type": "function"
    },
    {
      "inputs": [],
      "name": "_tokenAddrErc721",
      "outputs": [
        {
          "internalType": "address",
          "name": "",
          "type": "address"
        }
      ],
      "stateMutability": "view",
      "type": "function"
    },
    {
      "inputs": [],
      "name": "_uri",
      "outputs": [
        {
          "internalType": "string",
          "name": "",
          "type": "string"
        }
      ],
      "stateMutability": "view",
      "type": "function"
    },
    {
      "inputs": [
        {
          "internalType": "address",
          "name": "to",
          "type": "address"
        },
        {
          "internalType": "uint256",
          "name": "tokenId",
          "type": "uint256"
        }
      ],
      "name": "approve",
      "outputs": [],
      "stateMutability": "nonpayable",
      "type": "function"
    },
    {
      "inputs": [
        {
          "internalType": "address",
          "name": "owner",
          "type": "address"
        }
      ],
      "name": "balanceOf",
      "outputs": [
        {
          "internalType": "uint256",
          "name": "",
          "type": "uint256"
        }
      ],
      "stateMutability": "view",
      "type": "function"
    },
    {
      "inputs": [
        {
          "internalType": "address",
          "name": "newAdm",
          "type": "address"
        }
      ],
      "name": "changeAdmin",
      "outputs": [],
      "stateMutability": "nonpayable",
      "type": "function"
    },
    {
      "inputs": [
        {
          "internalType": "string",
          "name": "baseURI",
          "type": "string"
        }
      ],
      "name": "changeBaseURI",
      "outputs": [],
      "stateMutability": "nonpayable",
      "type": "function"
    },
    {
      "inputs": [
        {
          "internalType": "address",
          "name": "newP",
          "type": "address"
        }
      ],
      "name": "changeParam",
      "outputs": [],
      "stateMutability": "nonpayable",
      "type": "function"
    },
    {
      "inputs": [
        {
          "internalType": "address",
          "name": "sweet",
          "type": "address"
        }
      ],
      "name": "changeToken",
      "outputs": [],
      "stateMutability": "nonpayable",
      "type": "function"
    },
    {
      "inputs": [
        {
          "internalType": "uint256",
          "name": "tokenId",
          "type": "uint256"
        }
      ],
      "name": "getApproved",
      "outputs": [
        {
          "internalType": "address",
          "name": "",
          "type": "address"
        }
      ],
      "stateMutability": "view",
      "type": "function"
    },
    {
      "inputs": [
        {
          "internalType": "uint256",
          "name": "id",
          "type": "uint256"
        }
      ],
      "name": "getPaletteCanon",
      "outputs": [
        {
          "internalType": "string[4]",
          "name": "",
          "type": "string[4]"
        }
      ],
      "stateMutability": "view",
      "type": "function"
    },
    {
      "inputs": [
        {
          "internalType": "uint256",
          "name": "id",
          "type": "uint256"
        }
      ],
      "name": "getPaletteConfetti",
      "outputs": [
        {
          "internalType": "string[2]",
          "name": "",
          "type": "string[2]"
        }
      ],
      "stateMutability": "view",
      "type": "function"
    },
    {
      "inputs": [
        {
          "internalType": "uint256",
          "name": "tokenId",
          "type": "uint256"
        }
      ],
      "name": "getParamValues",
      "outputs": [
        {
          "components": [
            {
              "internalType": "string",
              "name": "shapeCanon",
              "type": "string"
            },
            {
              "internalType": "string",
              "name": "shapeConfetti",
              "type": "string"
            },
            {
              "internalType": "string[4]",
              "name": "palletteCanon",
              "type": "string[4]"
            },
            {
              "internalType": "string[2]",
              "name": "palletteConfetti",
              "type": "string[2]"
            }
          ],
          "internalType": "struct CONFETTI.Confetti",
          "name": "confetti",
          "type": "tuple"
        }
      ],
      "stateMutability": "view",
      "type": "function"
    },
    {
      "inputs": [
        {
          "internalType": "string",
          "name": "name",
          "type": "string"
        },
        {
          "internalType": "string",
          "name": "symbol",
          "type": "string"
        },
        {
          "internalType": "address",
          "name": "admin",
          "type": "address"
        },
        {
          "internalType": "address",
          "name": "paramsAddress",
          "type": "address"
        }
      ],
      "name": "initialize",
      "outputs": [],
      "stateMutability": "nonpayable",
      "type": "function"
    },
    {
      "inputs": [
        {
          "internalType": "address",
          "name": "owner",
          "type": "address"
        },
        {
          "internalType": "address",
          "name": "operator",
          "type": "address"
        }
      ],
      "name": "isApprovedForAll",
      "outputs": [
        {
          "internalType": "bool",
          "name": "",
          "type": "bool"
        }
      ],
      "stateMutability": "view",
      "type": "function"
    },
    {
      "inputs": [],
      "name": "mint",
      "outputs": [],
      "stateMutability": "payable",
      "type": "function"
    },
    {
      "inputs": [
        {
          "internalType": "uint256",
          "name": "tokenIdGated",
          "type": "uint256"
        }
      ],
      "name": "mintByToken",
      "outputs": [],
      "stateMutability": "nonpayable",
      "type": "function"
    },
    {
      "inputs": [],
      "name": "name",
      "outputs": [
        {
          "internalType": "string",
          "name": "",
          "type": "string"
        }
      ],
      "stateMutability": "view",
      "type": "function"
    },
    {
      "inputs": [],
      "name": "owner",
      "outputs": [
        {
          "internalType": "address",
          "name": "",
          "type": "address"
        }
      ],
      "stateMutability": "view",
      "type": "function"
    },
    {
      "inputs": [
        {
          "internalType": "uint256",
          "name": "id",
          "type": "uint256"
        }
      ],
      "name": "ownerMint",
      "outputs": [],
      "stateMutability": "nonpayable",
      "type": "function"
    },
    {
      "inputs": [
        {
          "internalType": "uint256",
          "name": "tokenId",
          "type": "uint256"
        }
      ],
      "name": "ownerOf",
      "outputs": [
        {
          "internalType": "address",
          "name": "",
          "type": "address"
        }
      ],
      "stateMutability": "view",
      "type": "function"
    },
    {
      "inputs": [],
      "name": "pause",
      "outputs": [],
      "stateMutability": "nonpayable",
      "type": "function"
    },
    {
      "inputs": [],
      "name": "paused",
      "outputs": [
        {
          "internalType": "bool",
          "name": "",
          "type": "bool"
        }
      ],
      "stateMutability": "view",
      "type": "function"
    },
    {
      "inputs": [],
      "name": "renounceOwnership",
      "outputs": [],
      "stateMutability": "nonpayable",
      "type": "function"
    },
    {
      "inputs": [
        {
          "internalType": "uint256",
          "name": "_tokenId",
          "type": "uint256"
        },
        {
          "internalType": "uint256",
          "name": "_salePrice",
          "type": "uint256"
        }
      ],
      "name": "royaltyInfo",
      "outputs": [
        {
          "internalType": "address",
          "name": "receiver",
          "type": "address"
        },
        {
          "internalType": "uint256",
          "name": "royaltyAmount",
          "type": "uint256"
        }
      ],
      "stateMutability": "view",
      "type": "function"
    },
    {
      "inputs": [
        {
          "internalType": "address",
          "name": "from",
          "type": "address"
        },
        {
          "internalType": "address",
          "name": "to",
          "type": "address"
        },
        {
          "internalType": "uint256",
          "name": "tokenId",
          "type": "uint256"
        }
      ],
      "name": "safeTransferFrom",
      "outputs": [],
      "stateMutability": "nonpayable",
      "type": "function"
    },
    {
      "inputs": [
        {
          "internalType": "address",
          "name": "from",
          "type": "address"
        },
        {
          "internalType": "address",
          "name": "to",
          "type": "address"
        },
        {
          "internalType": "uint256",
          "name": "tokenId",
          "type": "uint256"
        },
        {
          "internalType": "bytes",
          "name": "data",
          "type": "bytes"
        }
      ],
      "name": "safeTransferFrom",
      "outputs": [],
      "stateMutability": "nonpayable",
      "type": "function"
    },
    {
      "inputs": [
        {
          "internalType": "string",
          "name": "algo",
          "type": "string"
        }
      ],
      "name": "setAlgo",
      "outputs": [],
      "stateMutability": "nonpayable",
      "type": "function"
    },
    {
      "inputs": [
        {
          "internalType": "address",
          "name": "operator",
          "type": "address"
        },
        {
          "internalType": "bool",
          "name": "approved",
          "type": "bool"
        }
      ],
      "name": "setApprovalForAll",
      "outputs": [],
      "stateMutability": "nonpayable",
      "type": "function"
    },
    {
      "inputs": [
        {
          "internalType": "uint256",
          "name": "fee",
          "type": "uint256"
        }
      ],
      "name": "setFee",
      "outputs": [],
      "stateMutability": "nonpayable",
      "type": "function"
    },
    {
      "inputs": [
        {
          "internalType": "uint256",
          "name": "limit",
          "type": "uint256"
        }
      ],
      "name": "setLimit",
      "outputs": [],
      "stateMutability": "nonpayable",
      "type": "function"
    },
    {
      "inputs": [
        {
          "internalType": "bytes4",
          "name": "interfaceId",
          "type": "bytes4"
        }
      ],
      "name": "supportsInterface",
      "outputs": [
        {
          "internalType": "bool",
          "name": "",
          "type": "bool"
        }
      ],
      "stateMutability": "view",
      "type": "function"
    },
    {
      "inputs": [],
      "name": "symbol",
      "outputs": [
        {
          "internalType": "string",
          "name": "",
          "type": "string"
        }
      ],
      "stateMutability": "view",
      "type": "function"
    },
    {
      "inputs": [
        {
          "internalType": "uint256",
          "name": "tokenId",
          "type": "uint256"
        }
      ],
      "name": "tokenURI",
      "outputs": [
        {
          "internalType": "string",
          "name": "",
          "type": "string"
        }
      ],
      "stateMutability": "view",
      "type": "function"
    },
    {
      "inputs": [
        {
          "internalType": "address",
          "name": "from",
          "type": "address"
        },
        {
          "internalType": "address",
          "name": "to",
          "type": "address"
        },
        {
          "internalType": "uint256",
          "name": "tokenId",
          "type": "uint256"
        }
      ],
      "name": "transferFrom",
      "outputs": [],
      "stateMutability": "nonpayable",
      "type": "function"
    },
    {
      "inputs": [
        {
          "internalType": "address",
          "name": "newOwner",
          "type": "address"
        }
      ],
      "name": "transferOwnership",
      "outputs": [],
      "stateMutability": "nonpayable",
      "type": "function"
    },
    {
      "inputs": [],
      "name": "unpause",
      "outputs": [],
      "stateMutability": "nonpayable",
      "type": "function"
    },
    {
      "inputs": [
        {
          "internalType": "uint256",
          "name": "amount",
          "type": "uint256"
        }
      ],
      "name": "withdraw",
      "outputs": [],
      "stateMutability": "nonpayable",
      "type": "function"
    }
  ],
  "bytecode": "0x608060405234801561001057600080fd5b50613c56806100206000396000f3fe60806040526004361061025c5760003560e01c8063741149b111610144578063adfc7dae116100b6578063cbfb504a1161007a578063cbfb504a14610706578063df2fb92c14610733578063e653c6501461074a578063e985e9c51461076b578063f19e75d4146107b4578063f2fde38b146107d457600080fd5b8063adfc7dae14610661578063b88d4fde14610682578063c0dca239146106a2578063c5b37c22146106cf578063c87b56dd146106e657600080fd5b80638da5cb5b116101085780638da5cb5b146105b85780638f15b414146105d75780638f283970146105f757806395d89b4114610617578063a1bb1fcc1461062c578063a22cb4651461064157600080fd5b8063741149b11461051f5780637cd49fde1461053f5780637d5c01201461055657806380d953dd146105835780638456cb59146105a357600080fd5b80632a55205a116101dd5780635c975abb116101a15780635c975abb146104645780636352211e1461047c57806366829b161461049c57806369fe0e2d146104bc57806370a08231146104dc578063715018a61461050a57600080fd5b80632a55205a146103b05780632e1a7d4d146103ef57806339a0c6f91461040f5780633f4ba83a1461042f57806342842e0e1461044457600080fd5b8063095ea7b311610224578063095ea7b3146103335780630dccc9ad146103535780631249c58b1461036857806323b872dd1461037057806327ea6f2b1461039057600080fd5b806301bc45c91461026157806301ffc9a71461029f57806306fdde03146102cf5780630764da1d146102f1578063081812fc14610313575b600080fd5b34801561026d57600080fd5b5061015f54610282906001600160a01b031681565b6040516001600160a01b0390911681526020015b60405180910390f35b3480156102ab57600080fd5b506102bf6102ba366004613466565b6107f4565b6040519015158152602001610296565b3480156102db57600080fd5b506102e4610846565b60405161029691906134db565b3480156102fd57600080fd5b5061031161030c36600461359a565b6108d8565b005b34801561031f57600080fd5b5061028261032e3660046135cf565b610941565b34801561033f57600080fd5b5061031161034e3660046135fd565b610968565b34801561035f57600080fd5b506102e4610a7e565b610311610b0d565b34801561037c57600080fd5b5061031161038b366004613629565b610bb4565b34801561039c57600080fd5b506103116103ab3660046135cf565b610d0a565b3480156103bc57600080fd5b506103d06103cb36600461366a565b610d58565b604080516001600160a01b039093168352602083019190915201610296565b3480156103fb57600080fd5b5061031161040a3660046135cf565b610d89565b34801561041b57600080fd5b5061031161042a36600461359a565b610e87565b34801561043b57600080fd5b50610311610ee3565b34801561045057600080fd5b5061031161045f366004613629565b610f33565b34801561047057600080fd5b5060975460ff166102bf565b34801561048857600080fd5b506102826104973660046135cf565b61107e565b3480156104a857600080fd5b506103116104b736600461368c565b6110de565b3480156104c857600080fd5b506103116104d73660046135cf565b611149565b3480156104e857600080fd5b506104fc6104f736600461368c565b611197565b604051908152602001610296565b34801561051657600080fd5b5061031161121d565b34801561052b57600080fd5b5061031161053a36600461368c565b61122f565b34801561054b57600080fd5b506104fc6101625481565b34801561056257600080fd5b506105766105713660046135cf565b6112cb565b60405161029691906136ee565b34801561058f57600080fd5b5061031161059e3660046135cf565b61174b565b3480156105af57600080fd5b5061031161186e565b3480156105c457600080fd5b5061012d546001600160a01b0316610282565b3480156105e357600080fd5b506103116105f2366004613701565b6118be565b34801561060357600080fd5b5061031161061236600461368c565b611a89565b34801561062357600080fd5b506102e4611b25565b34801561063857600080fd5b506102e4611b34565b34801561064d57600080fd5b5061031161065c366004613798565b611b42565b34801561066d57600080fd5b5061016054610282906001600160a01b031681565b34801561068e57600080fd5b5061031161069d3660046137d1565b611b4d565b3480156106ae57600080fd5b506106c26106bd3660046135cf565b611c9f565b604051610296919061388b565b3480156106db57600080fd5b506104fc6101655481565b3480156106f257600080fd5b506102e46107013660046135cf565b611ced565b34801561071257600080fd5b506107266107213660046135cf565b611d54565b6040516102969190613909565b34801561073f57600080fd5b506104fc6101665481565b34801561075657600080fd5b5061016454610282906001600160a01b031681565b34801561077757600080fd5b506102bf61078636600461391c565b6001600160a01b039182166000908152606a6020908152604080832093909416825291909152205460ff1690565b3480156107c057600080fd5b506103116107cf3660046135cf565b612256565b3480156107e057600080fd5b506103116107ef36600461368c565b6122c7565b60006001600160e01b031982166380ac58cd60e01b148061082557506001600160e01b03198216635b5e139f60e01b145b8061084057506301ffc9a760e01b6001600160e01b03198316145b92915050565b6060606580546108559061394a565b80601f01602080910402602001604051908101604052809291908181526020018280546108819061394a565b80156108ce5780601f106108a3576101008083540402835291602001916108ce565b820191906000526020600020905b8154815290600101906020018083116108b157829003601f168201915b5050505050905090565b61015f5460408051808201909152600381526231303160e81b6020820152906001600160a01b031633146109285760405162461bcd60e51b815260040161091f91906134db565b60405180910390fd5b50805161093d90610161906020840190613344565b5050565b600061094c8261233d565b506000908152606960205260409020546001600160a01b031690565b60006109738261107e565b9050806001600160a01b0316836001600160a01b031614156109e15760405162461bcd60e51b815260206004820152602160248201527f4552433732313a20617070726f76616c20746f2063757272656e74206f776e656044820152603960f91b606482015260840161091f565b336001600160a01b03821614806109fd57506109fd8133610786565b610a6f5760405162461bcd60e51b815260206004820152603e60248201527f4552433732313a20617070726f76652063616c6c6572206973206e6f7420746f60448201527f6b656e206f776e6572206e6f7220617070726f76656420666f7220616c6c0000606482015260840161091f565b610a79838361239c565b505050565b6101638054610a8c9061394a565b80601f0160208091040260200160405190810160405280929190818152602001828054610ab89061394a565b8015610b055780601f10610ada57610100808354040283529160200191610b05565b820191906000526020600020905b815481529060010190602001808311610ae857829003601f168201915b505050505081565b600061016554118015610b235750610165543410155b8015610b325750600061016654115b6040518060400160405280600381526020016232303160e81b81525090610b6c5760405162461bcd60e51b815260040161091f91906134db565b5061038461016254108015610b8657506101665461016254105b610b8f57600080fd5b6101628054906000610ba08361399b565b9190505550610bb2336101625461240a565b565b826daaeb6d7670e522a718067333cd4e3b15610cf9576001600160a01b038116331415610beb57610be6848484612424565b610d04565b604051633185c44d60e21b81526daaeb6d7670e522a718067333cd4e9063c617113490610c1e90309033906004016139b6565b602060405180830381865afa158015610c3b573d6000803e3d6000fd5b505050506040513d601f19601f82011682018060405250810190610c5f91906139d0565b8015610cda5750604051633185c44d60e21b81526daaeb6d7670e522a718067333cd4e9063c617113490610c9990309085906004016139b6565b602060405180830381865afa158015610cb6573d6000803e3d6000fd5b505050506040513d601f19601f82011682018060405250810190610cda91906139d0565b610cf957604051633b79c77360e21b815233600482015260240161091f565b610d04848484612424565b50505050565b61015f5460408051808201909152600381526231303160e81b6020820152906001600160a01b03163314610d515760405162461bcd60e51b815260040161091f91906134db565b5061016655565b61015f546001600160a01b03166000612710610d76846101f46139ed565b610d809190613a22565b90509250929050565b600260fb541415610ddc5760405162461bcd60e51b815260206004820152601f60248201527f5265656e7472616e637947756172643a207265656e7472616e742063616c6c00604482015260640161091f565b600260fb5561015f5460408051808201909152600381526231303160e81b6020820152906001600160a01b03163314610e285760405162461bcd60e51b815260040161091f91906134db565b50604051600090339047908381818185875af1925050503d8060008114610e6b576040519150601f19603f3d011682016040523d82523d6000602084013e610e70565b606091505b5050905080610e7e57600080fd5b5050600160fb55565b61015f5460408051808201909152600381526231303160e81b6020820152906001600160a01b03163314610ece5760405162461bcd60e51b815260040161091f91906134db565b50805161093d90610163906020840190613344565b61015f5460408051808201909152600381526231303160e81b6020820152906001600160a01b03163314610f2a5760405162461bcd60e51b815260040161091f91906134db565b50610bb2612455565b826daaeb6d7670e522a718067333cd4e3b15611073576001600160a01b038116331415610f6557610be68484846124a7565b604051633185c44d60e21b81526daaeb6d7670e522a718067333cd4e9063c617113490610f9890309033906004016139b6565b602060405180830381865afa158015610fb5573d6000803e3d6000fd5b505050506040513d601f19601f82011682018060405250810190610fd991906139d0565b80156110545750604051633185c44d60e21b81526daaeb6d7670e522a718067333cd4e9063c61711349061101390309085906004016139b6565b602060405180830381865afa158015611030573d6000803e3d6000fd5b505050506040513d601f19601f8201168201806040525081019061105491906139d0565b61107357604051633b79c77360e21b815233600482015260240161091f565b610d048484846124a7565b6000818152606760205260408120546001600160a01b0316806108405760405162461bcd60e51b8152602060048201526018602482015277115490cdcc8c4e881a5b9d985b1a59081d1bdad95b88125160421b604482015260640161091f565b61015f5460408051808201909152600381526231303160e81b6020820152906001600160a01b031633146111255760405162461bcd60e51b815260040161091f91906134db565b5061016480546001600160a01b0319166001600160a01b0392909216919091179055565b61015f5460408051808201909152600381526231303160e81b6020820152906001600160a01b031633146111905760405162461bcd60e51b815260040161091f91906134db565b5061016555565b60006001600160a01b0382166112015760405162461bcd60e51b815260206004820152602960248201527f4552433732313a2061646472657373207a65726f206973206e6f7420612076616044820152683634b21037bbb732b960b91b606482015260840161091f565b506001600160a01b031660009081526068602052604090205490565b6112256124c2565b610bb2600061251d565b61015f546001600160a01b03163314801561125257506001600160a01b03811615155b801561126d5750610160546001600160a01b03828116911614155b6040518060400160405280600381526020016231303160e81b815250906112a75760405162461bcd60e51b815260040161091f91906134db565b5061016080546001600160a01b0319166001600160a01b0392909216919091179055565b6112d36133c8565b6040805161036081018252600761032082018181526611a0a12222a29b60c91b6103408401528252825180840184528181526611a1a120a0a1a160c91b6020828101919091528084019190915283518085018552828152662346464646423560c81b8183015283850152835180850185528281526611a32321a1a11b60c91b81830152606084015283518085018552828152662346334230433360c81b81830152608084015283518085018552828152662343364442444160c81b8183015260a084015283518085018552828152660468c8a8a628a760cb1b8183015260c084015283518085018552828152662346454437433360c81b8183015260e0840152835180850185528281526611a31b22a0a19960c91b8183015261010084015283518085018552828152662345434435453360c81b8183015261012084015283518085018552828152662346463936384160c81b8183015261014084015283518085018552828152662346464145413560c81b81830152610160840152835180850185528281526611a323219aa12360c91b8183015261018084015283518085018552828152662346464438424560c81b818301526101a0840152835180850185528281526611a323219c209960c91b818301526101c084015283518085018552828152660234434463046360cc1b818301526101e084015283518085018552828152662338464341434160c81b81830152610200840152835180850185528281526611a1a1a29921a160c91b81830152610220840152835180850185528281526611a11b21a3211b60c91b8183015261024084015283518085018552828152662339374331413960c81b8183015261026084015283518085018552828152662346434239414160c81b8183015261028084015283518085018552828152662346464442434360c81b818301526102a0840152835180850185528281526608d150d150514d60ca1b818301526102c0840152835180850185528281526611a0992298a22160c91b818301526102e084015283518085019094529083526608cd4d50d090d160ca1b908301526103008101919091526115ee6133c8565b81601961161a86604051806040016040528060078152602001660636f6c6f7220360cc1b815250612570565b6116249190613a36565b6019811061163457611634613a4a565b602002015181600060200201819052508160196116708660405180604001604052806007815260200166636f6c6f72203160c81b815250612570565b61167a9190613a36565b6019811061168a5761168a613a4a565b602002015181600160200201819052508160196116c6866040518060400160405280600781526020016631b7b637b9101960c91b815250612570565b6116d09190613a36565b601981106116e0576116e0613a4a565b6020020151816002602002018190525081601961171c8660405180604001604052806007815260200166636f6c6f72203360c81b815250612570565b6117269190613a36565b6019811061173657611736613a4a565b60200201518160035b60200201529392505050565b610164546001600160a01b0316158015906117695750600061016654115b6040518060400160405280600381526020016203130360ec1b815250906117a35760405162461bcd60e51b815260040161091f91906134db565b50610164546040516331a9108f60e11b8152600481018390526001600160a01b039091169033908290636352211e90602401602060405180830381865afa1580156117f2573d6000803e3d6000fd5b505050506040513d601f19601f820116820180604052508101906118169190613a60565b6001600160a01b03161461182957600080fd5b6103846101625410801561184257506101665461016254105b61184b57600080fd5b610162805490600061185c8361399b565b919050555061093d336101625461240a565b61015f5460408051808201909152600381526231303160e81b6020820152906001600160a01b031633146118b55760405162461bcd60e51b815260040161091f91906134db565b50610bb26125ac565b600054610100900460ff16158080156118de5750600054600160ff909116105b806118f85750303b1580156118f8575060005460ff166001145b61195b5760405162461bcd60e51b815260206004820152602e60248201527f496e697469616c697a61626c653a20636f6e747261637420697320616c72656160448201526d191e481a5b9a5d1a585b1a5e995960921b606482015260840161091f565b6000805460ff19166001179055801561197e576000805461ff0019166101001790555b6001600160a01b0383161580159061199e57506001600160a01b03821615155b6040518060400160405280600381526020016203130360ec1b815250906119d85760405162461bcd60e51b815260040161091f91906134db565b506119e385856125e9565b61016080546001600160a01b038085166001600160a01b03199283161790925561015f80549286169290911691909117905561038461016655611a2461261a565b611a2c612649565b611a3461268f565b611a3c6126be565b8015611a82576000805461ff0019169055604051600181527f7f26b83ff96e1f2b6a682f133852f6798a09c465da95921460cefb38474024989060200160405180910390a15b5050505050565b61015f546001600160a01b031633148015611aac57506001600160a01b03811615155b8015611ac7575061015f546001600160a01b03828116911614155b6040518060400160405280600381526020016231303160e81b81525090611b015760405162461bcd60e51b815260040161091f91906134db565b5061015f80546001600160a01b0319166001600160a01b0392909216919091179055565b6060606680546108559061394a565b6101618054610a8c9061394a565b61093d3383836126ed565b836daaeb6d7670e522a718067333cd4e3b15611c93576001600160a01b038116331415611b8557611b80858585856127bc565b611a82565b604051633185c44d60e21b81526daaeb6d7670e522a718067333cd4e9063c617113490611bb890309033906004016139b6565b602060405180830381865afa158015611bd5573d6000803e3d6000fd5b505050506040513d601f19601f82011682018060405250810190611bf991906139d0565b8015611c745750604051633185c44d60e21b81526daaeb6d7670e522a718067333cd4e9063c617113490611c3390309085906004016139b6565b602060405180830381865afa158015611c50573d6000803e3d6000fd5b505050506040513d601f19601f82011682018060405250810190611c7491906139d0565b611c9357604051633b79c77360e21b815233600482015260240161091f565b611a82858585856127bc565b611ca76133ef565b6040518060800160405280611cbb846127ee565b8152602001611cc984612901565b8152602001611cd7846112cb565b8152602001611ce584611d54565b905292915050565b6060611cf88261233d565b6000611d026129f1565b90506000815111611d225760405180602001604052806000815250611d4d565b80611d2c84612a01565b604051602001611d3d929190613a7d565b6040516020818303038152906040525b9392505050565b611d5c613422565b604080516104a08101825260076104608201818152662330304135453360c81b61048084015282528251808401845281815266119c22221ba12360c91b6020828101919091528084019190915283518085018552828152662346463936433560c81b818301528385015283518085018552828152660468c8c6a6e6c760cb1b81830152606084015283518085018552828152662346464246363560c81b81830152608084015283518085018552828152660468c866c6466760cb1b8183015260a0840152835180850185528281526611a323221c1b9960c91b8183015260c084015283518085018552828152662346324434434360c81b8183015260e084015283518085018552828152662345373735373760c81b81830152610100840152835180850185528281526608cd90ce0e10cd60ca1b8183015261012084015283518085018552828152660234330353738360cc1b81830152610140840152835180850185528281526611a3231c191c2160c91b81830152610160840152835180850185528281526611a29ba19a9c1960c91b8183015261018084015283518085018552828152662330304230424160c81b818301526101a084015283518085018552828152661198181b1aa09960c91b818301526101c084015283518085018552828152662330304344414360c81b818301526101e084015283518085018552828152660468c8c6c8c6c760cb1b8183015261020084015283518085018552828152662346464441434360c81b8183015261022084015283518085018552828152660468c8c6c6082760cb1b8183015261024084015283518085018552828152660234346463830360cc1b8183015261026084015283518085018552828152662346463543373760c81b8183015261028084015283518085018552828152662334444430393160c81b818301526102a084015283518085018552828152662346464543353960c81b818301526102c084015283518085018552828152662346464132334160c81b818301526102e084015283518085018552828152662337343733374160c81b8183015261030084015283518085018552828152660234646463130360cc1b8183015261032084015283518085018552828152660234646384330360cc1b8183015261034084015283518085018552828152662345383131323360c81b8183015261036084015283518085018552828152662345433030384360c81b8183015261038084015283518085018552828152662336383231374160c81b818301526103a08401528351808501855282815266119818189c1c2360c91b818301526103c084015283518085018552828152661198182121a31960c91b818301526103e0840152835180850185528281526608cc0c108c8e4d60ca1b8183015261040084015283518085018552828152662330303945343960c81b818301526104208401528351808501909452908352662342414438304160c81b908301526104408101919091526121ad613422565b8160236121d986604051806040016040528060078152602001660636f6c6f7220360cc1b815250612570565b6121e39190613a36565b602381106121f3576121f3613a4a565b6020020151816000602002018190525081602361222f8660405180604001604052806007815260200166636f6c6f72203160c81b815250612570565b6122399190613a36565b6023811061224957612249613a4a565b602002015181600161173f565b61015f5460408051808201909152600381526231303160e81b6020820152906001600160a01b0316331461229d5760405162461bcd60e51b815260040161091f91906134db565b50610384811180156122b157506103e88111155b6122ba57600080fd5b6122c4338261240a565b50565b6122cf6124c2565b6001600160a01b0381166123345760405162461bcd60e51b815260206004820152602660248201527f4f776e61626c653a206e6577206f776e657220697320746865207a65726f206160448201526564647265737360d01b606482015260840161091f565b6122c48161251d565b6000818152606760205260409020546001600160a01b03166122c45760405162461bcd60e51b8152602060048201526018602482015277115490cdcc8c4e881a5b9d985b1a59081d1bdad95b88125160421b604482015260640161091f565b600081815260696020526040902080546001600160a01b0319166001600160a01b03841690811790915581906123d18261107e565b6001600160a01b03167f8c5be1e5ebec7d5bd14f71427d1e84f3dd0314c0f7b2291e5b200ac8c7c3b92560405160405180910390a45050565b61093d828260405180602001604052806000815250612b07565b61242e3382612b3a565b61244a5760405162461bcd60e51b815260040161091f90613aac565b610a79838383612bb8565b61245d612d5f565b6097805460ff191690557f5db9ee0a495bf2e6ff9c91a7834c1ba4fdd244a5e8aa4e537bd38aeae4b073aa335b6040516001600160a01b03909116815260200160405180910390a1565b610a7983838360405180602001604052806000815250611b4d565b61012d546001600160a01b03163314610bb25760405162461bcd60e51b815260206004820181905260248201527f4f776e61626c653a2063616c6c6572206973206e6f7420746865206f776e6572604482015260640161091f565b61012d80546001600160a01b038381166001600160a01b0319831681179093556040519116919082907f8be0079c531659141344cd1fd0a4f28419497f9722a3daafe3b4186f6b6457e090600090a35050565b60008161257c84612a01565b60405160200161258d929190613a7d565b60408051601f1981840301815291905280516020909101209392505050565b6125b4612da8565b6097805460ff191660011790557f62e78cea01bee320cd4e420270b5ea74000d11b0c9f74754ebdbfc544b05a25861248a3390565b600054610100900460ff166126105760405162461bcd60e51b815260040161091f90613afa565b61093d8282612dee565b600054610100900460ff166126415760405162461bcd60e51b815260040161091f90613afa565b610bb2612e3c565b600054610100900460ff166126705760405162461bcd60e51b815260040161091f90613afa565b610bb2733cc6cdda760b79bafa08df41ecfa224f810dceb66001612e6c565b600054610100900460ff166126b65760405162461bcd60e51b815260040161091f90613afa565b610bb2612ffd565b600054610100900460ff166126e55760405162461bcd60e51b815260040161091f90613afa565b610bb261302b565b816001600160a01b0316836001600160a01b0316141561274f5760405162461bcd60e51b815260206004820152601960248201527f4552433732313a20617070726f766520746f2063616c6c657200000000000000604482015260640161091f565b6001600160a01b038381166000818152606a6020908152604080832094871680845294825291829020805460ff191686151590811790915591519182527f17307eab39ab6107e8899845ad3d59bd9653f200f220920489ca2b5937696c31910160405180910390a3505050565b6127c63383612b3a565b6127e25760405162461bcd60e51b815260040161091f90613aac565b610d048484848461305e565b6040805161012081018252600160e08201818152603160f81b610100840152825282518084018452818152601960f91b6020828101919091528084019190915283518085018552828152603360f81b818301528385015283518085018552828152600d60fa1b8183015260608481019190915284518086018652838152603560f81b81840152608085015284518086018652838152601b60f91b8184015260a085015284518086018652928352603760f81b8383015260c08401929092528351808501909452600a84526939b430b832a1b0b737b760b11b908401529181906007906128db908690612570565b6128e59190613a36565b600781106128f5576128f5613a4a565b60200201519392505050565b6040805161012081018252600160e08201818152603160f81b610100840152825282518084018452818152601960f91b6020828101919091528084019190915283518085018552828152603360f81b818301528385015283518085018552828152600d60fa1b8183015260608481019190915284518086018652838152603560f81b81840152608085015284518086018652838152601b60f91b8184015260a085015284518086018652928352603760f81b8383015260c08401929092528351808501909452600d84526c7368617065436f6e666574746960981b908401529181906007906128db908690612570565b606061016380546108559061394a565b606081612a255750506040805180820190915260018152600360fc1b602082015290565b8160005b8115612a4f5780612a398161399b565b9150612a489050600a83613a22565b9150612a29565b60008167ffffffffffffffff811115612a6a57612a6a6134ee565b6040519080825280601f01601f191660200182016040528015612a94576020820181803683370190505b5090505b8415612aff57612aa9600183613b45565b9150612ab6600a86613a36565b612ac1906030613b5c565b60f81b818381518110612ad657612ad6613a4a565b60200101906001600160f81b031916908160001a905350612af8600a86613a22565b9450612a98565b949350505050565b612b118383613091565b612b1e60008484846131df565b610a795760405162461bcd60e51b815260040161091f90613b74565b600080612b468361107e565b9050806001600160a01b0316846001600160a01b03161480612b8d57506001600160a01b038082166000908152606a602090815260408083209388168352929052205460ff165b80612aff5750836001600160a01b0316612ba684610941565b6001600160a01b031614949350505050565b826001600160a01b0316612bcb8261107e565b6001600160a01b031614612c2f5760405162461bcd60e51b815260206004820152602560248201527f4552433732313a207472616e736665722066726f6d20696e636f72726563742060448201526437bbb732b960d91b606482015260840161091f565b6001600160a01b038216612c915760405162461bcd60e51b8152602060048201526024808201527f4552433732313a207472616e7366657220746f20746865207a65726f206164646044820152637265737360e01b606482015260840161091f565b612c9c8383836132dd565b612ca760008261239c565b6001600160a01b0383166000908152606860205260408120805460019290612cd0908490613b45565b90915550506001600160a01b0382166000908152606860205260408120805460019290612cfe908490613b5c565b909155505060008181526067602052604080822080546001600160a01b0319166001600160a01b0386811691821790925591518493918716917fddf252ad1be2c89b69c2b068fc378daa952ba7f163c4a11628f55a4df523b3ef91a4505050565b60975460ff16610bb25760405162461bcd60e51b815260206004820152601460248201527314185d5cd8589b194e881b9bdd081c185d5cd95960621b604482015260640161091f565b60975460ff1615610bb25760405162461bcd60e51b815260206004820152601060248201526f14185d5cd8589b194e881c185d5cd95960821b604482015260640161091f565b600054610100900460ff16612e155760405162461bcd60e51b815260040161091f90613afa565b8151612e28906065906020850190613344565b508051610a79906066906020840190613344565b600054610100900460ff16612e635760405162461bcd60e51b815260040161091f90613afa565b610bb23361251d565b600054610100900460ff16612e935760405162461bcd60e51b815260040161091f90613afa565b6daaeb6d7670e522a718067333cd4e3b1561093d5760405163c3c5a54760e01b81523060048201526daaeb6d7670e522a718067333cd4e9063c3c5a547906024016020604051808303816000875af1158015612ef3573d6000803e3d6000fd5b505050506040513d601f19601f82011682018060405250810190612f1791906139d0565b61093d578015612f8a57604051633e9f1edf60e11b81526daaeb6d7670e522a718067333cd4e90637d3e3dbe90612f5490309086906004016139b6565b600060405180830381600087803b158015612f6e57600080fd5b505af1158015612f82573d6000803e3d6000fd5b505050505050565b6001600160a01b03821615612fcc5760405163a0af290360e01b81526daaeb6d7670e522a718067333cd4e9063a0af290390612f5490309086906004016139b6565b604051632210724360e11b81523060048201526daaeb6d7670e522a718067333cd4e90634420e48690602401612f54565b600054610100900460ff166130245760405162461bcd60e51b815260040161091f90613afa565b600160fb55565b600054610100900460ff166130525760405162461bcd60e51b815260040161091f90613afa565b6097805460ff19169055565b613069848484612bb8565b613075848484846131df565b610d045760405162461bcd60e51b815260040161091f90613b74565b6001600160a01b0382166130e75760405162461bcd60e51b815260206004820181905260248201527f4552433732313a206d696e7420746f20746865207a65726f2061646472657373604482015260640161091f565b6000818152606760205260409020546001600160a01b03161561314c5760405162461bcd60e51b815260206004820152601c60248201527f4552433732313a20746f6b656e20616c7265616479206d696e74656400000000604482015260640161091f565b613158600083836132dd565b6001600160a01b0382166000908152606860205260408120805460019290613181908490613b5c565b909155505060008181526067602052604080822080546001600160a01b0319166001600160a01b03861690811790915590518392907fddf252ad1be2c89b69c2b068fc378daa952ba7f163c4a11628f55a4df523b3ef908290a45050565b60006001600160a01b0384163b156132d257604051630a85bd0160e11b81526001600160a01b0385169063150b7a0290613223903390899088908890600401613bc6565b6020604051808303816000875af192505050801561325e575060408051601f3d908101601f1916820190925261325b91810190613c03565b60015b6132b8573d80801561328c576040519150601f19603f3d011682016040523d82523d6000602084013e613291565b606091505b5080516132b05760405162461bcd60e51b815260040161091f90613b74565b805181602001fd5b6001600160e01b031916630a85bd0160e11b149050612aff565b506001949350505050565b60975460ff1615610a795760405162461bcd60e51b815260206004820152602b60248201527f4552433732315061757361626c653a20746f6b656e207472616e73666572207760448201526a1a1a5b19481c185d5cd95960aa1b606482015260840161091f565b8280546133509061394a565b90600052602060002090601f01602090048101928261337257600085556133b8565b82601f1061338b57805160ff19168380011785556133b8565b828001600101855582156133b8579182015b828111156133b857825182559160200191906001019061339d565b506133c492915061343b565b5090565b60405180608001604052806004905b60608152602001906001900390816133d75790505090565b604051806080016040528060608152602001606081526020016134106133c8565b815260200161341d613422565b905290565b60408051808201909152606081526001602082016133d7565b5b808211156133c4576000815560010161343c565b6001600160e01b0319811681146122c457600080fd5b60006020828403121561347857600080fd5b8135611d4d81613450565b60005b8381101561349e578181015183820152602001613486565b83811115610d045750506000910152565b600081518084526134c7816020860160208601613483565b601f01601f19169290920160200192915050565b602081526000611d4d60208301846134af565b634e487b7160e01b600052604160045260246000fd5b600067ffffffffffffffff8084111561351f5761351f6134ee565b604051601f8501601f19908116603f01168101908282118183101715613547576135476134ee565b8160405280935085815286868601111561356057600080fd5b858560208301376000602087830101525050509392505050565b600082601f83011261358b57600080fd5b611d4d83833560208501613504565b6000602082840312156135ac57600080fd5b813567ffffffffffffffff8111156135c357600080fd5b612aff8482850161357a565b6000602082840312156135e157600080fd5b5035919050565b6001600160a01b03811681146122c457600080fd5b6000806040838503121561361057600080fd5b823561361b816135e8565b946020939093013593505050565b60008060006060848603121561363e57600080fd5b8335613649816135e8565b92506020840135613659816135e8565b929592945050506040919091013590565b6000806040838503121561367d57600080fd5b50508035926020909101359150565b60006020828403121561369e57600080fd5b8135611d4d816135e8565b600082608081018360005b60048110156136e35783830387526136cd8383516134af565b60209788019790935091909101906001016136b4565b509095945050505050565b602081526000611d4d60208301846136a9565b6000806000806080858703121561371757600080fd5b843567ffffffffffffffff8082111561372f57600080fd5b61373b8883890161357a565b9550602087013591508082111561375157600080fd5b5061375e8782880161357a565b935050604085013561376f816135e8565b9150606085013561377f816135e8565b939692955090935050565b80151581146122c457600080fd5b600080604083850312156137ab57600080fd5b82356137b6816135e8565b915060208301356137c68161378a565b809150509250929050565b600080600080608085870312156137e757600080fd5b84356137f2816135e8565b93506020850135613802816135e8565b925060408501359150606085013567ffffffffffffffff81111561382557600080fd5b8501601f8101871361383657600080fd5b61384587823560208401613504565b91505092959194509250565b600082604081018360005b60028110156136e35783830387526138758383516134af565b602097880197909350919091019060010161385c565b6020815260008251608060208401526138a760a08401826134af565b90506020840151601f19808584030160408601526138c583836134af565b925060408601519150808584030160608601526138e283836136a9565b92506060860151915080858403016080860152506139008282613851565b95945050505050565b602081526000611d4d6020830184613851565b6000806040838503121561392f57600080fd5b823561393a816135e8565b915060208301356137c6816135e8565b600181811c9082168061395e57607f821691505b6020821081141561397f57634e487b7160e01b600052602260045260246000fd5b50919050565b634e487b7160e01b600052601160045260246000fd5b60006000198214156139af576139af613985565b5060010190565b6001600160a01b0392831681529116602082015260400190565b6000602082840312156139e257600080fd5b8151611d4d8161378a565b6000816000190483118215151615613a0757613a07613985565b500290565b634e487b7160e01b600052601260045260246000fd5b600082613a3157613a31613a0c565b500490565b600082613a4557613a45613a0c565b500690565b634e487b7160e01b600052603260045260246000fd5b600060208284031215613a7257600080fd5b8151611d4d816135e8565b60008351613a8f818460208801613483565b835190830190613aa3818360208801613483565b01949350505050565b6020808252602e908201527f4552433732313a2063616c6c6572206973206e6f7420746f6b656e206f776e6560408201526d1c881b9bdc88185c1c1c9bdd995960921b606082015260800190565b6020808252602b908201527f496e697469616c697a61626c653a20636f6e7472616374206973206e6f74206960408201526a6e697469616c697a696e6760a81b606082015260800190565b600082821015613b5757613b57613985565b500390565b60008219821115613b6f57613b6f613985565b500190565b60208082526032908201527f4552433732313a207472616e7366657220746f206e6f6e20455243373231526560408201527131b2b4bb32b91034b6b83632b6b2b73a32b960711b606082015260800190565b6001600160a01b0385811682528416602082015260408101839052608060608201819052600090613bf9908301846134af565b9695505050505050565b600060208284031215613c1557600080fd5b8151611d4d8161345056fea26469706673582212205ba30265fe76a9f14621c68d74c2c711695a4ce626485c02a2e69016857c049264736f6c634300080c0033",
  "linkReferences": {},
  "deployedLinkReferences": {}
}