{
  "_format": "hh-sol-artifact-1",
  "contractName": "CONFETTI",
  "sourceName": "contracts/nft/CONFETTI.sol",
  "abi": [
    {
      "inputs": [
        {
          "internalType": "address",
          "name": "operator",
          "type": "address"
        }
      ],
      "name": "OperatorNotAllowed",
      "type": "error"
    },
    {
      "anonymous": false,
      "inputs": [
        {
          "indexed": true,
          "internalType": "address",
          "name": "owner",
          "type": "address"
        },
        {
          "indexed": true,
          "internalType": "address",
          "name": "approved",
          "type": "address"
        },
        {
          "indexed": true,
          "internalType": "uint256",
          "name": "tokenId",
          "type": "uint256"
        }
      ],
      "name": "Approval",
      "type": "event"
    },
    {
      "anonymous": false,
      "inputs": [
        {
          "indexed": true,
          "internalType": "address",
          "name": "owner",
          "type": "address"
        },
        {
          "indexed": true,
          "internalType": "address",
          "name": "operator",
          "type": "address"
        },
        {
          "indexed": false,
          "internalType": "bool",
          "name": "approved",
          "type": "bool"
        }
      ],
      "name": "ApprovalForAll",
      "type": "event"
    },
    {
      "anonymous": false,
      "inputs": [
        {
          "indexed": false,
          "internalType": "uint8",
          "name": "version",
          "type": "uint8"
        }
      ],
      "name": "Initialized",
      "type": "event"
    },
    {
      "anonymous": false,
      "inputs": [
        {
          "indexed": true,
          "internalType": "address",
          "name": "previousOwner",
          "type": "address"
        },
        {
          "indexed": true,
          "internalType": "address",
          "name": "newOwner",
          "type": "address"
        }
      ],
      "name": "OwnershipTransferred",
      "type": "event"
    },
    {
      "anonymous": false,
      "inputs": [
        {
          "indexed": false,
          "internalType": "address",
          "name": "account",
          "type": "address"
        }
      ],
      "name": "Paused",
      "type": "event"
    },
    {
      "anonymous": false,
      "inputs": [
        {
          "indexed": true,
          "internalType": "address",
          "name": "from",
          "type": "address"
        },
        {
          "indexed": true,
          "internalType": "address",
          "name": "to",
          "type": "address"
        },
        {
          "indexed": true,
          "internalType": "uint256",
          "name": "tokenId",
          "type": "uint256"
        }
      ],
      "name": "Transfer",
      "type": "event"
    },
    {
      "anonymous": false,
      "inputs": [
        {
          "indexed": false,
          "internalType": "address",
          "name": "account",
          "type": "address"
        }
      ],
      "name": "Unpaused",
      "type": "event"
    },
    {
      "inputs": [],
      "name": "_admin",
      "outputs": [
        {
          "internalType": "address",
          "name": "",
          "type": "address"
        }
      ],
      "stateMutability": "view",
      "type": "function"
    },
    {
      "inputs": [],
      "name": "_algorithm",
      "outputs": [
        {
          "internalType": "string",
          "name": "",
          "type": "string"
        }
      ],
      "stateMutability": "view",
      "type": "function"
    },
    {
      "inputs": [],
      "name": "_counter",
      "outputs": [
        {
          "internalType": "uint256",
          "name": "",
          "type": "uint256"
        }
      ],
      "stateMutability": "view",
      "type": "function"
    },
    {
      "inputs": [],
      "name": "_fee",
      "outputs": [
        {
          "internalType": "uint256",
          "name": "",
          "type": "uint256"
        }
      ],
      "stateMutability": "view",
      "type": "function"
    },
    {
      "inputs": [],
      "name": "_limit",
      "outputs": [
        {
          "internalType": "uint256",
          "name": "",
          "type": "uint256"
        }
      ],
      "stateMutability": "view",
      "type": "function"
    },
    {
      "inputs": [],
      "name": "_paramsAddress",
      "outputs": [
        {
          "internalType": "address",
          "name": "",
          "type": "address"
        }
      ],
      "stateMutability": "view",
      "type": "function"
    },
    {
      "inputs": [],
      "name": "_tokenAddrErc721",
      "outputs": [
        {
          "internalType": "address",
          "name": "",
          "type": "address"
        }
      ],
      "stateMutability": "view",
      "type": "function"
    },
    {
      "inputs": [],
      "name": "_uri",
      "outputs": [
        {
          "internalType": "string",
          "name": "",
          "type": "string"
        }
      ],
      "stateMutability": "view",
      "type": "function"
    },
    {
      "inputs": [
        {
          "internalType": "address",
          "name": "to",
          "type": "address"
        },
        {
          "internalType": "uint256",
          "name": "tokenId",
          "type": "uint256"
        }
      ],
      "name": "approve",
      "outputs": [],
      "stateMutability": "nonpayable",
      "type": "function"
    },
    {
      "inputs": [
        {
          "internalType": "address",
          "name": "owner",
          "type": "address"
        }
      ],
      "name": "balanceOf",
      "outputs": [
        {
          "internalType": "uint256",
          "name": "",
          "type": "uint256"
        }
      ],
      "stateMutability": "view",
      "type": "function"
    },
    {
      "inputs": [
        {
          "internalType": "address",
          "name": "newAdm",
          "type": "address"
        }
      ],
      "name": "changeAdmin",
      "outputs": [],
      "stateMutability": "nonpayable",
      "type": "function"
    },
    {
      "inputs": [
        {
          "internalType": "string",
          "name": "baseURI",
          "type": "string"
        }
      ],
      "name": "changeBaseURI",
      "outputs": [],
      "stateMutability": "nonpayable",
      "type": "function"
    },
    {
      "inputs": [
        {
          "internalType": "address",
          "name": "newP",
          "type": "address"
        }
      ],
      "name": "changeParam",
      "outputs": [],
      "stateMutability": "nonpayable",
      "type": "function"
    },
    {
      "inputs": [
        {
          "internalType": "address",
          "name": "sweet",
          "type": "address"
        }
      ],
      "name": "changeToken",
      "outputs": [],
      "stateMutability": "nonpayable",
      "type": "function"
    },
    {
      "inputs": [
        {
          "internalType": "uint256",
          "name": "tokenId",
          "type": "uint256"
        }
      ],
      "name": "getApproved",
      "outputs": [
        {
          "internalType": "address",
          "name": "",
          "type": "address"
        }
      ],
      "stateMutability": "view",
      "type": "function"
    },
    {
      "inputs": [
        {
          "internalType": "uint256",
          "name": "id",
          "type": "uint256"
        }
      ],
      "name": "getPaletteCanon",
      "outputs": [
        {
          "internalType": "string[4]",
          "name": "",
          "type": "string[4]"
        }
      ],
      "stateMutability": "view",
      "type": "function"
    },
    {
      "inputs": [
        {
          "internalType": "uint256",
          "name": "id",
          "type": "uint256"
        }
      ],
      "name": "getPaletteConfetti",
      "outputs": [
        {
          "internalType": "string[4]",
          "name": "",
          "type": "string[4]"
        }
      ],
      "stateMutability": "view",
      "type": "function"
    },
    {
      "inputs": [
        {
          "internalType": "uint256",
          "name": "tokenId",
          "type": "uint256"
        }
      ],
      "name": "getParamValues",
      "outputs": [
        {
          "components": [
            {
              "internalType": "string",
              "name": "shapeCanon",
              "type": "string"
            },
            {
              "internalType": "string",
              "name": "shapeConfetti",
              "type": "string"
            },
            {
              "internalType": "string[4]",
              "name": "palletteCanon",
              "type": "string[4]"
            },
            {
              "internalType": "string[4]",
              "name": "palletteConfetti",
              "type": "string[4]"
            }
          ],
          "internalType": "struct CONFETTI.Confetti",
          "name": "confetti",
          "type": "tuple"
        }
      ],
      "stateMutability": "view",
      "type": "function"
    },
    {
      "inputs": [
        {
          "internalType": "string",
          "name": "name",
          "type": "string"
        },
        {
          "internalType": "string",
          "name": "symbol",
          "type": "string"
        },
        {
          "internalType": "address",
          "name": "admin",
          "type": "address"
        },
        {
          "internalType": "address",
          "name": "paramsAddress",
          "type": "address"
        }
      ],
      "name": "initialize",
      "outputs": [],
      "stateMutability": "nonpayable",
      "type": "function"
    },
    {
      "inputs": [
        {
          "internalType": "address",
          "name": "owner",
          "type": "address"
        },
        {
          "internalType": "address",
          "name": "operator",
          "type": "address"
        }
      ],
      "name": "isApprovedForAll",
      "outputs": [
        {
          "internalType": "bool",
          "name": "",
          "type": "bool"
        }
      ],
      "stateMutability": "view",
      "type": "function"
    },
    {
      "inputs": [],
      "name": "mint",
      "outputs": [],
      "stateMutability": "payable",
      "type": "function"
    },
    {
      "inputs": [
        {
          "internalType": "uint256",
          "name": "tokenIdGated",
          "type": "uint256"
        }
      ],
      "name": "mintByToken",
      "outputs": [],
      "stateMutability": "nonpayable",
      "type": "function"
    },
    {
      "inputs": [],
      "name": "name",
      "outputs": [
        {
          "internalType": "string",
          "name": "",
          "type": "string"
        }
      ],
      "stateMutability": "view",
      "type": "function"
    },
    {
      "inputs": [],
      "name": "owner",
      "outputs": [
        {
          "internalType": "address",
          "name": "",
          "type": "address"
        }
      ],
      "stateMutability": "view",
      "type": "function"
    },
    {
      "inputs": [
        {
          "internalType": "uint256",
          "name": "id",
          "type": "uint256"
        }
      ],
      "name": "ownerMint",
      "outputs": [],
      "stateMutability": "nonpayable",
      "type": "function"
    },
    {
      "inputs": [
        {
          "internalType": "uint256",
          "name": "tokenId",
          "type": "uint256"
        }
      ],
      "name": "ownerOf",
      "outputs": [
        {
          "internalType": "address",
          "name": "",
          "type": "address"
        }
      ],
      "stateMutability": "view",
      "type": "function"
    },
    {
      "inputs": [],
      "name": "pause",
      "outputs": [],
      "stateMutability": "nonpayable",
      "type": "function"
    },
    {
      "inputs": [],
      "name": "paused",
      "outputs": [
        {
          "internalType": "bool",
          "name": "",
          "type": "bool"
        }
      ],
      "stateMutability": "view",
      "type": "function"
    },
    {
      "inputs": [],
      "name": "renounceOwnership",
      "outputs": [],
      "stateMutability": "nonpayable",
      "type": "function"
    },
    {
      "inputs": [
        {
          "internalType": "uint256",
          "name": "_tokenId",
          "type": "uint256"
        },
        {
          "internalType": "uint256",
          "name": "_salePrice",
          "type": "uint256"
        }
      ],
      "name": "royaltyInfo",
      "outputs": [
        {
          "internalType": "address",
          "name": "receiver",
          "type": "address"
        },
        {
          "internalType": "uint256",
          "name": "royaltyAmount",
          "type": "uint256"
        }
      ],
      "stateMutability": "view",
      "type": "function"
    },
    {
      "inputs": [
        {
          "internalType": "address",
          "name": "from",
          "type": "address"
        },
        {
          "internalType": "address",
          "name": "to",
          "type": "address"
        },
        {
          "internalType": "uint256",
          "name": "tokenId",
          "type": "uint256"
        }
      ],
      "name": "safeTransferFrom",
      "outputs": [],
      "stateMutability": "nonpayable",
      "type": "function"
    },
    {
      "inputs": [
        {
          "internalType": "address",
          "name": "from",
          "type": "address"
        },
        {
          "internalType": "address",
          "name": "to",
          "type": "address"
        },
        {
          "internalType": "uint256",
          "name": "tokenId",
          "type": "uint256"
        },
        {
          "internalType": "bytes",
          "name": "data",
          "type": "bytes"
        }
      ],
      "name": "safeTransferFrom",
      "outputs": [],
      "stateMutability": "nonpayable",
      "type": "function"
    },
    {
      "inputs": [
        {
          "internalType": "string",
          "name": "algo",
          "type": "string"
        }
      ],
      "name": "setAlgo",
      "outputs": [],
      "stateMutability": "nonpayable",
      "type": "function"
    },
    {
      "inputs": [
        {
          "internalType": "address",
          "name": "operator",
          "type": "address"
        },
        {
          "internalType": "bool",
          "name": "approved",
          "type": "bool"
        }
      ],
      "name": "setApprovalForAll",
      "outputs": [],
      "stateMutability": "nonpayable",
      "type": "function"
    },
    {
      "inputs": [
        {
          "internalType": "uint256",
          "name": "fee",
          "type": "uint256"
        }
      ],
      "name": "setFee",
      "outputs": [],
      "stateMutability": "nonpayable",
      "type": "function"
    },
    {
      "inputs": [
        {
          "internalType": "uint256",
          "name": "limit",
          "type": "uint256"
        }
      ],
      "name": "setLimit",
      "outputs": [],
      "stateMutability": "nonpayable",
      "type": "function"
    },
    {
      "inputs": [
        {
          "internalType": "bytes4",
          "name": "interfaceId",
          "type": "bytes4"
        }
      ],
      "name": "supportsInterface",
      "outputs": [
        {
          "internalType": "bool",
          "name": "",
          "type": "bool"
        }
      ],
      "stateMutability": "view",
      "type": "function"
    },
    {
      "inputs": [],
      "name": "symbol",
      "outputs": [
        {
          "internalType": "string",
          "name": "",
          "type": "string"
        }
      ],
      "stateMutability": "view",
      "type": "function"
    },
    {
      "inputs": [
        {
          "internalType": "uint256",
          "name": "tokenId",
          "type": "uint256"
        }
      ],
      "name": "tokenURI",
      "outputs": [
        {
          "internalType": "string",
          "name": "",
          "type": "string"
        }
      ],
      "stateMutability": "view",
      "type": "function"
    },
    {
      "inputs": [
        {
          "internalType": "address",
          "name": "from",
          "type": "address"
        },
        {
          "internalType": "address",
          "name": "to",
          "type": "address"
        },
        {
          "internalType": "uint256",
          "name": "tokenId",
          "type": "uint256"
        }
      ],
      "name": "transferFrom",
      "outputs": [],
      "stateMutability": "nonpayable",
      "type": "function"
    },
    {
      "inputs": [
        {
          "internalType": "address",
          "name": "newOwner",
          "type": "address"
        }
      ],
      "name": "transferOwnership",
      "outputs": [],
      "stateMutability": "nonpayable",
      "type": "function"
    },
    {
      "inputs": [],
      "name": "unpause",
      "outputs": [],
      "stateMutability": "nonpayable",
      "type": "function"
    },
    {
      "inputs": [
        {
          "internalType": "uint256",
          "name": "amount",
          "type": "uint256"
        }
      ],
      "name": "withdraw",
      "outputs": [],
      "stateMutability": "nonpayable",
      "type": "function"
    }
  ],
  "bytecode": "0x608060405234801561001057600080fd5b50613622806100206000396000f3fe60806040526004361061025c5760003560e01c8063741149b111610144578063adfc7dae116100b6578063cbfb504a1161007a578063cbfb504a14610556578063df2fb92c14610706578063e653c6501461071d578063e985e9c51461073e578063f19e75d414610787578063f2fde38b146107a757600080fd5b8063adfc7dae14610661578063b88d4fde14610682578063c0dca239146106a2578063c5b37c22146106cf578063c87b56dd146106e657600080fd5b80638da5cb5b116101085780638da5cb5b146105b85780638f15b414146105d75780638f283970146105f757806395d89b4114610617578063a1bb1fcc1461062c578063a22cb4651461064157600080fd5b8063741149b11461051f5780637cd49fde1461053f5780637d5c01201461055657806380d953dd146105835780638456cb59146105a357600080fd5b80632a55205a116101dd5780635c975abb116101a15780635c975abb146104645780636352211e1461047c57806366829b161461049c57806369fe0e2d146104bc57806370a08231146104dc578063715018a61461050a57600080fd5b80632a55205a146103b05780632e1a7d4d146103ef57806339a0c6f91461040f5780633f4ba83a1461042f57806342842e0e1461044457600080fd5b8063095ea7b311610224578063095ea7b3146103335780630dccc9ad146103535780631249c58b1461036857806323b872dd1461037057806327ea6f2b1461039057600080fd5b806301bc45c91461026157806301ffc9a71461029f57806306fdde03146102cf5780630764da1d146102f1578063081812fc14610313575b600080fd5b34801561026d57600080fd5b5061015f54610282906001600160a01b031681565b6040516001600160a01b0390911681526020015b60405180910390f35b3480156102ab57600080fd5b506102bf6102ba366004612e7f565b6107c7565b6040519015158152602001610296565b3480156102db57600080fd5b506102e4610819565b6040516102969190612ef4565b3480156102fd57600080fd5b5061031161030c366004612fb3565b6108ab565b005b34801561031f57600080fd5b5061028261032e366004612fe8565b610914565b34801561033f57600080fd5b5061031161034e366004613016565b61093b565b34801561035f57600080fd5b506102e4610a51565b610311610ae0565b34801561037c57600080fd5b5061031161038b366004613042565b610b87565b34801561039c57600080fd5b506103116103ab366004612fe8565b610cdd565b3480156103bc57600080fd5b506103d06103cb366004613083565b610d2b565b604080516001600160a01b039093168352602083019190915201610296565b3480156103fb57600080fd5b5061031161040a366004612fe8565b610d5c565b34801561041b57600080fd5b5061031161042a366004612fb3565b610e5a565b34801561043b57600080fd5b50610311610eb6565b34801561045057600080fd5b5061031161045f366004613042565b610f06565b34801561047057600080fd5b5060975460ff166102bf565b34801561048857600080fd5b50610282610497366004612fe8565b611051565b3480156104a857600080fd5b506103116104b73660046130a5565b6110b1565b3480156104c857600080fd5b506103116104d7366004612fe8565b61111c565b3480156104e857600080fd5b506104fc6104f73660046130a5565b61116a565b604051908152602001610296565b34801561051657600080fd5b506103116111f0565b34801561052b57600080fd5b5061031161053a3660046130a5565b611202565b34801561054b57600080fd5b506104fc6101625481565b34801561056257600080fd5b50610576610571366004612fe8565b61129e565b6040516102969190613107565b34801561058f57600080fd5b5061031161059e366004612fe8565b61167f565b3480156105af57600080fd5b506103116117a2565b3480156105c457600080fd5b5061012d546001600160a01b0316610282565b3480156105e357600080fd5b506103116105f236600461311a565b6117f2565b34801561060357600080fd5b506103116106123660046130a5565b6119bd565b34801561062357600080fd5b506102e4611a59565b34801561063857600080fd5b506102e4611a68565b34801561064d57600080fd5b5061031161065c3660046131b1565b611a76565b34801561066d57600080fd5b5061016054610282906001600160a01b031681565b34801561068e57600080fd5b5061031161069d3660046131ea565b611a81565b3480156106ae57600080fd5b506106c26106bd366004612fe8565b611bd3565b604051610296919061326a565b3480156106db57600080fd5b506104fc6101655481565b3480156106f257600080fd5b506102e4610701366004612fe8565b611c21565b34801561071257600080fd5b506104fc6101665481565b34801561072957600080fd5b5061016454610282906001600160a01b031681565b34801561074a57600080fd5b506102bf6107593660046132e8565b6001600160a01b039182166000908152606a6020908152604080832093909416825291909152205460ff1690565b34801561079357600080fd5b506103116107a2366004612fe8565b611c88565b3480156107b357600080fd5b506103116107c23660046130a5565b611cf9565b60006001600160e01b031982166380ac58cd60e01b14806107f857506001600160e01b03198216635b5e139f60e01b145b8061081357506301ffc9a760e01b6001600160e01b03198316145b92915050565b60606065805461082890613316565b80601f016020809104026020016040519081016040528092919081815260200182805461085490613316565b80156108a15780601f10610876576101008083540402835291602001916108a1565b820191906000526020600020905b81548152906001019060200180831161088457829003601f168201915b5050505050905090565b61015f5460408051808201909152600381526231303160e81b6020820152906001600160a01b031633146108fb5760405162461bcd60e51b81526004016108f29190612ef4565b60405180910390fd5b50805161091090610161906020840190612d76565b5050565b600061091f82611d6f565b506000908152606960205260409020546001600160a01b031690565b600061094682611051565b9050806001600160a01b0316836001600160a01b031614156109b45760405162461bcd60e51b815260206004820152602160248201527f4552433732313a20617070726f76616c20746f2063757272656e74206f776e656044820152603960f91b60648201526084016108f2565b336001600160a01b03821614806109d057506109d08133610759565b610a425760405162461bcd60e51b815260206004820152603e60248201527f4552433732313a20617070726f76652063616c6c6572206973206e6f7420746f60448201527f6b656e206f776e6572206e6f7220617070726f76656420666f7220616c6c000060648201526084016108f2565b610a4c8383611dce565b505050565b6101638054610a5f90613316565b80601f0160208091040260200160405190810160405280929190818152602001828054610a8b90613316565b8015610ad85780601f10610aad57610100808354040283529160200191610ad8565b820191906000526020600020905b815481529060010190602001808311610abb57829003601f168201915b505050505081565b600061016554118015610af65750610165543410155b8015610b055750600061016654115b6040518060400160405280600381526020016232303160e81b81525090610b3f5760405162461bcd60e51b81526004016108f29190612ef4565b5061232861016254108015610b5957506101665461016254105b610b6257600080fd5b6101628054906000610b7383613367565b9190505550610b853361016254611e3c565b565b826daaeb6d7670e522a718067333cd4e3b15610ccc576001600160a01b038116331415610bbe57610bb9848484611e56565b610cd7565b604051633185c44d60e21b81526daaeb6d7670e522a718067333cd4e9063c617113490610bf19030903390600401613382565b602060405180830381865afa158015610c0e573d6000803e3d6000fd5b505050506040513d601f19601f82011682018060405250810190610c32919061339c565b8015610cad5750604051633185c44d60e21b81526daaeb6d7670e522a718067333cd4e9063c617113490610c6c9030908590600401613382565b602060405180830381865afa158015610c89573d6000803e3d6000fd5b505050506040513d601f19601f82011682018060405250810190610cad919061339c565b610ccc57604051633b79c77360e21b81523360048201526024016108f2565b610cd7848484611e56565b50505050565b61015f5460408051808201909152600381526231303160e81b6020820152906001600160a01b03163314610d245760405162461bcd60e51b81526004016108f29190612ef4565b5061016655565b61015f546001600160a01b03166000612710610d49846101f46133b9565b610d5391906133ee565b90509250929050565b600260fb541415610daf5760405162461bcd60e51b815260206004820152601f60248201527f5265656e7472616e637947756172643a207265656e7472616e742063616c6c0060448201526064016108f2565b600260fb5561015f5460408051808201909152600381526231303160e81b6020820152906001600160a01b03163314610dfb5760405162461bcd60e51b81526004016108f29190612ef4565b50604051600090339047908381818185875af1925050503d8060008114610e3e576040519150601f19603f3d011682016040523d82523d6000602084013e610e43565b606091505b5050905080610e5157600080fd5b5050600160fb55565b61015f5460408051808201909152600381526231303160e81b6020820152906001600160a01b03163314610ea15760405162461bcd60e51b81526004016108f29190612ef4565b50805161091090610163906020840190612d76565b61015f5460408051808201909152600381526231303160e81b6020820152906001600160a01b03163314610efd5760405162461bcd60e51b81526004016108f29190612ef4565b50610b85611e87565b826daaeb6d7670e522a718067333cd4e3b15611046576001600160a01b038116331415610f3857610bb9848484611ed9565b604051633185c44d60e21b81526daaeb6d7670e522a718067333cd4e9063c617113490610f6b9030903390600401613382565b602060405180830381865afa158015610f88573d6000803e3d6000fd5b505050506040513d601f19601f82011682018060405250810190610fac919061339c565b80156110275750604051633185c44d60e21b81526daaeb6d7670e522a718067333cd4e9063c617113490610fe69030908590600401613382565b602060405180830381865afa158015611003573d6000803e3d6000fd5b505050506040513d601f19601f82011682018060405250810190611027919061339c565b61104657604051633b79c77360e21b81523360048201526024016108f2565b610cd7848484611ed9565b6000818152606760205260408120546001600160a01b0316806108135760405162461bcd60e51b8152602060048201526018602482015277115490cdcc8c4e881a5b9d985b1a59081d1bdad95b88125160421b60448201526064016108f2565b61015f5460408051808201909152600381526231303160e81b6020820152906001600160a01b031633146110f85760405162461bcd60e51b81526004016108f29190612ef4565b5061016480546001600160a01b0319166001600160a01b0392909216919091179055565b61015f5460408051808201909152600381526231303160e81b6020820152906001600160a01b031633146111635760405162461bcd60e51b81526004016108f29190612ef4565b5061016555565b60006001600160a01b0382166111d45760405162461bcd60e51b815260206004820152602960248201527f4552433732313a2061646472657373207a65726f206973206e6f7420612076616044820152683634b21037bbb732b960b91b60648201526084016108f2565b506001600160a01b031660009081526068602052604090205490565b6111f8611ef4565b610b856000611f4f565b61015f546001600160a01b03163314801561122557506001600160a01b03811615155b80156112405750610160546001600160a01b03828116911614155b6040518060400160405280600381526020016231303160e81b8152509061127a5760405162461bcd60e51b81526004016108f29190612ef4565b5061016080546001600160a01b0319166001600160a01b0392909216919091179055565b6112a6612dfa565b6040805161036081018252600761032082018181526611a29b9a199a2360c91b6103408401819052908352835180850185528281526608d14dce4dccd160ca1b60208281018290528086019290925285518087018752848152662345374443344560c81b81840181905286880191909152865180880188528581526608cd50d14dcd5160ca1b818501819052606088019190915287518089018952868152662332393831453760c81b81860181905260808901919091528851808a018a5287815280860187905260a08901528851808a018a5287815280860185905260c08901528851808a018a5287815280860184905260e08901528851808a018a528781528086018390526101008901528851808a018a528781528086018290526101208901528851808a018a528781528086018790526101408901528851808a018a528781528086018590526101608901528851808a018a528781528086018490526101808901528851808a018a528781528086018390526101a08901528851808a018a528781528086018290526101c08901528851808a018a528781528086018790526101e08901528851808a018a528781528086018590526102008901528851808a018a528781528086018490526102208901528851808a018a528781528086018390526102408901528851808a018a528781528086018290526102608901528851808a018a528781528086019690965261028088019590955287518089018952868152808501939093526102a087019290925286518088018852858152808401919091526102c086015285518087018752848152808301919091526102e0850152845180860190955291845290830152610300810191909152611526612dfa565b81601961155286604051806040016040528060078152602001660636f6c6f7220360cc1b815250611fa2565b61155c9190613402565b6019811061156c5761156c613416565b602002015181600060200201819052508160196115a88660405180604001604052806007815260200166636f6c6f72203160c81b815250611fa2565b6115b29190613402565b601981106115c2576115c2613416565b602002015181600160200201819052508160196115fe866040518060400160405280600781526020016631b7b637b9101960c91b815250611fa2565b6116089190613402565b6019811061161857611618613416565b602002015181600260200201819052508160196116548660405180604001604052806007815260200166636f6c6f72203360c81b815250611fa2565b61165e9190613402565b6019811061166e5761166e613416565b602002015160608201529392505050565b610164546001600160a01b03161580159061169d5750600061016654115b6040518060400160405280600381526020016203130360ec1b815250906116d75760405162461bcd60e51b81526004016108f29190612ef4565b50610164546040516331a9108f60e11b8152600481018390526001600160a01b039091169033908290636352211e90602401602060405180830381865afa158015611726573d6000803e3d6000fd5b505050506040513d601f19601f8201168201806040525081019061174a919061342c565b6001600160a01b03161461175d57600080fd5b6123286101625410801561177657506101665461016254105b61177f57600080fd5b610162805490600061179083613367565b91905055506109103361016254611e3c565b61015f5460408051808201909152600381526231303160e81b6020820152906001600160a01b031633146117e95760405162461bcd60e51b81526004016108f29190612ef4565b50610b85611fde565b600054610100900460ff16158080156118125750600054600160ff909116105b8061182c5750303b15801561182c575060005460ff166001145b61188f5760405162461bcd60e51b815260206004820152602e60248201527f496e697469616c697a61626c653a20636f6e747261637420697320616c72656160448201526d191e481a5b9a5d1a585b1a5e995960921b60648201526084016108f2565b6000805460ff1916600117905580156118b2576000805461ff0019166101001790555b6001600160a01b038316158015906118d257506001600160a01b03821615155b6040518060400160405280600381526020016203130360ec1b8152509061190c5760405162461bcd60e51b81526004016108f29190612ef4565b50611917858561201b565b61016080546001600160a01b038085166001600160a01b03199283161790925561015f8054928616929091169190911790556123286101665561195861204c565b61196061207b565b6119686120c1565b6119706120f0565b80156119b6576000805461ff0019169055604051600181527f7f26b83ff96e1f2b6a682f133852f6798a09c465da95921460cefb38474024989060200160405180910390a15b5050505050565b61015f546001600160a01b0316331480156119e057506001600160a01b03811615155b80156119fb575061015f546001600160a01b03828116911614155b6040518060400160405280600381526020016231303160e81b81525090611a355760405162461bcd60e51b81526004016108f29190612ef4565b5061015f80546001600160a01b0319166001600160a01b0392909216919091179055565b60606066805461082890613316565b6101618054610a5f90613316565b61091033838361211f565b836daaeb6d7670e522a718067333cd4e3b15611bc7576001600160a01b038116331415611ab957611ab4858585856121ee565b6119b6565b604051633185c44d60e21b81526daaeb6d7670e522a718067333cd4e9063c617113490611aec9030903390600401613382565b602060405180830381865afa158015611b09573d6000803e3d6000fd5b505050506040513d601f19601f82011682018060405250810190611b2d919061339c565b8015611ba85750604051633185c44d60e21b81526daaeb6d7670e522a718067333cd4e9063c617113490611b679030908590600401613382565b602060405180830381865afa158015611b84573d6000803e3d6000fd5b505050506040513d601f19601f82011682018060405250810190611ba8919061339c565b611bc757604051633b79c77360e21b81523360048201526024016108f2565b6119b6858585856121ee565b611bdb612e21565b6040518060800160405280611bef84612220565b8152602001611bfd84612333565b8152602001611c0b8461129e565b8152602001611c198461129e565b905292915050565b6060611c2c82611d6f565b6000611c36612423565b90506000815111611c565760405180602001604052806000815250611c81565b80611c6084612433565b604051602001611c71929190613449565b6040516020818303038152906040525b9392505050565b61015f5460408051808201909152600381526231303160e81b6020820152906001600160a01b03163314611ccf5760405162461bcd60e51b81526004016108f29190612ef4565b5061232881118015611ce357506127108111155b611cec57600080fd5b611cf63382611e3c565b50565b611d01611ef4565b6001600160a01b038116611d665760405162461bcd60e51b815260206004820152602660248201527f4f776e61626c653a206e6577206f776e657220697320746865207a65726f206160448201526564647265737360d01b60648201526084016108f2565b611cf681611f4f565b6000818152606760205260409020546001600160a01b0316611cf65760405162461bcd60e51b8152602060048201526018602482015277115490cdcc8c4e881a5b9d985b1a59081d1bdad95b88125160421b60448201526064016108f2565b600081815260696020526040902080546001600160a01b0319166001600160a01b0384169081179091558190611e0382611051565b6001600160a01b03167f8c5be1e5ebec7d5bd14f71427d1e84f3dd0314c0f7b2291e5b200ac8c7c3b92560405160405180910390a45050565b610910828260405180602001604052806000815250612539565b611e60338261256c565b611e7c5760405162461bcd60e51b81526004016108f290613478565b610a4c8383836125ea565b611e8f612791565b6097805460ff191690557f5db9ee0a495bf2e6ff9c91a7834c1ba4fdd244a5e8aa4e537bd38aeae4b073aa335b6040516001600160a01b03909116815260200160405180910390a1565b610a4c83838360405180602001604052806000815250611a81565b61012d546001600160a01b03163314610b855760405162461bcd60e51b815260206004820181905260248201527f4f776e61626c653a2063616c6c6572206973206e6f7420746865206f776e657260448201526064016108f2565b61012d80546001600160a01b038381166001600160a01b0319831681179093556040519116919082907f8be0079c531659141344cd1fd0a4f28419497f9722a3daafe3b4186f6b6457e090600090a35050565b600081611fae84612433565b604051602001611fbf929190613449565b60408051601f1981840301815291905280516020909101209392505050565b611fe66127da565b6097805460ff191660011790557f62e78cea01bee320cd4e420270b5ea74000d11b0c9f74754ebdbfc544b05a258611ebc3390565b600054610100900460ff166120425760405162461bcd60e51b81526004016108f2906134c6565b6109108282612820565b600054610100900460ff166120735760405162461bcd60e51b81526004016108f2906134c6565b610b8561286e565b600054610100900460ff166120a25760405162461bcd60e51b81526004016108f2906134c6565b610b85733cc6cdda760b79bafa08df41ecfa224f810dceb6600161289e565b600054610100900460ff166120e85760405162461bcd60e51b81526004016108f2906134c6565b610b85612a2f565b600054610100900460ff166121175760405162461bcd60e51b81526004016108f2906134c6565b610b85612a5d565b816001600160a01b0316836001600160a01b031614156121815760405162461bcd60e51b815260206004820152601960248201527f4552433732313a20617070726f766520746f2063616c6c65720000000000000060448201526064016108f2565b6001600160a01b038381166000818152606a6020908152604080832094871680845294825291829020805460ff191686151590811790915591519182527f17307eab39ab6107e8899845ad3d59bd9653f200f220920489ca2b5937696c31910160405180910390a3505050565b6121f8338361256c565b6122145760405162461bcd60e51b81526004016108f290613478565b610cd784848484612a90565b6040805161012081018252600160e08201818152603160f81b610100840152825282518084018452818152601960f91b6020828101919091528084019190915283518085018552828152603360f81b818301528385015283518085018552828152600d60fa1b8183015260608481019190915284518086018652838152603560f81b81840152608085015284518086018652838152601b60f91b8184015260a085015284518086018652928352603760f81b8383015260c08401929092528351808501909452600a84526939b430b832a1b0b737b760b11b9084015291819060079061230d908690611fa2565b6123179190613402565b6007811061232757612327613416565b60200201519392505050565b6040805161012081018252600160e08201818152603160f81b610100840152825282518084018452818152601960f91b6020828101919091528084019190915283518085018552828152603360f81b818301528385015283518085018552828152600d60fa1b8183015260608481019190915284518086018652838152603560f81b81840152608085015284518086018652838152601b60f91b8184015260a085015284518086018652928352603760f81b8383015260c08401929092528351808501909452600d84526c7368617065436f6e666574746960981b9084015291819060079061230d908690611fa2565b6060610163805461082890613316565b6060816124575750506040805180820190915260018152600360fc1b602082015290565b8160005b8115612481578061246b81613367565b915061247a9050600a836133ee565b915061245b565b60008167ffffffffffffffff81111561249c5761249c612f07565b6040519080825280601f01601f1916602001820160405280156124c6576020820181803683370190505b5090505b8415612531576124db600183613511565b91506124e8600a86613402565b6124f3906030613528565b60f81b81838151811061250857612508613416565b60200101906001600160f81b031916908160001a90535061252a600a866133ee565b94506124ca565b949350505050565b6125438383612ac3565b6125506000848484612c11565b610a4c5760405162461bcd60e51b81526004016108f290613540565b60008061257883611051565b9050806001600160a01b0316846001600160a01b031614806125bf57506001600160a01b038082166000908152606a602090815260408083209388168352929052205460ff165b806125315750836001600160a01b03166125d884610914565b6001600160a01b031614949350505050565b826001600160a01b03166125fd82611051565b6001600160a01b0316146126615760405162461bcd60e51b815260206004820152602560248201527f4552433732313a207472616e736665722066726f6d20696e636f72726563742060448201526437bbb732b960d91b60648201526084016108f2565b6001600160a01b0382166126c35760405162461bcd60e51b8152602060048201526024808201527f4552433732313a207472616e7366657220746f20746865207a65726f206164646044820152637265737360e01b60648201526084016108f2565b6126ce838383612d0f565b6126d9600082611dce565b6001600160a01b0383166000908152606860205260408120805460019290612702908490613511565b90915550506001600160a01b0382166000908152606860205260408120805460019290612730908490613528565b909155505060008181526067602052604080822080546001600160a01b0319166001600160a01b0386811691821790925591518493918716917fddf252ad1be2c89b69c2b068fc378daa952ba7f163c4a11628f55a4df523b3ef91a4505050565b60975460ff16610b855760405162461bcd60e51b815260206004820152601460248201527314185d5cd8589b194e881b9bdd081c185d5cd95960621b60448201526064016108f2565b60975460ff1615610b855760405162461bcd60e51b815260206004820152601060248201526f14185d5cd8589b194e881c185d5cd95960821b60448201526064016108f2565b600054610100900460ff166128475760405162461bcd60e51b81526004016108f2906134c6565b815161285a906065906020850190612d76565b508051610a4c906066906020840190612d76565b600054610100900460ff166128955760405162461bcd60e51b81526004016108f2906134c6565b610b8533611f4f565b600054610100900460ff166128c55760405162461bcd60e51b81526004016108f2906134c6565b6daaeb6d7670e522a718067333cd4e3b156109105760405163c3c5a54760e01b81523060048201526daaeb6d7670e522a718067333cd4e9063c3c5a547906024016020604051808303816000875af1158015612925573d6000803e3d6000fd5b505050506040513d601f19601f82011682018060405250810190612949919061339c565b6109105780156129bc57604051633e9f1edf60e11b81526daaeb6d7670e522a718067333cd4e90637d3e3dbe906129869030908690600401613382565b600060405180830381600087803b1580156129a057600080fd5b505af11580156129b4573d6000803e3d6000fd5b505050505050565b6001600160a01b038216156129fe5760405163a0af290360e01b81526daaeb6d7670e522a718067333cd4e9063a0af2903906129869030908690600401613382565b604051632210724360e11b81523060048201526daaeb6d7670e522a718067333cd4e90634420e48690602401612986565b600054610100900460ff16612a565760405162461bcd60e51b81526004016108f2906134c6565b600160fb55565b600054610100900460ff16612a845760405162461bcd60e51b81526004016108f2906134c6565b6097805460ff19169055565b612a9b8484846125ea565b612aa784848484612c11565b610cd75760405162461bcd60e51b81526004016108f290613540565b6001600160a01b038216612b195760405162461bcd60e51b815260206004820181905260248201527f4552433732313a206d696e7420746f20746865207a65726f206164647265737360448201526064016108f2565b6000818152606760205260409020546001600160a01b031615612b7e5760405162461bcd60e51b815260206004820152601c60248201527f4552433732313a20746f6b656e20616c7265616479206d696e7465640000000060448201526064016108f2565b612b8a60008383612d0f565b6001600160a01b0382166000908152606860205260408120805460019290612bb3908490613528565b909155505060008181526067602052604080822080546001600160a01b0319166001600160a01b03861690811790915590518392907fddf252ad1be2c89b69c2b068fc378daa952ba7f163c4a11628f55a4df523b3ef908290a45050565b60006001600160a01b0384163b15612d0457604051630a85bd0160e11b81526001600160a01b0385169063150b7a0290612c55903390899088908890600401613592565b6020604051808303816000875af1925050508015612c90575060408051601f3d908101601f19168201909252612c8d918101906135cf565b60015b612cea573d808015612cbe576040519150601f19603f3d011682016040523d82523d6000602084013e612cc3565b606091505b508051612ce25760405162461bcd60e51b81526004016108f290613540565b805181602001fd5b6001600160e01b031916630a85bd0160e11b149050612531565b506001949350505050565b60975460ff1615610a4c5760405162461bcd60e51b815260206004820152602b60248201527f4552433732315061757361626c653a20746f6b656e207472616e73666572207760448201526a1a1a5b19481c185d5cd95960aa1b60648201526084016108f2565b828054612d8290613316565b90600052602060002090601f016020900481019282612da45760008555612dea565b82601f10612dbd57805160ff1916838001178555612dea565b82800160010185558215612dea579182015b82811115612dea578251825591602001919060010190612dcf565b50612df6929150612e54565b5090565b60405180608001604052806004905b6060815260200190600190039081612e095790505090565b60405180608001604052806060815260200160608152602001612e42612dfa565b8152602001612e4f612dfa565b905290565b5b80821115612df65760008155600101612e55565b6001600160e01b031981168114611cf657600080fd5b600060208284031215612e9157600080fd5b8135611c8181612e69565b60005b83811015612eb7578181015183820152602001612e9f565b83811115610cd75750506000910152565b60008151808452612ee0816020860160208601612e9c565b601f01601f19169290920160200192915050565b602081526000611c816020830184612ec8565b634e487b7160e01b600052604160045260246000fd5b600067ffffffffffffffff80841115612f3857612f38612f07565b604051601f8501601f19908116603f01168101908282118183101715612f6057612f60612f07565b81604052809350858152868686011115612f7957600080fd5b858560208301376000602087830101525050509392505050565b600082601f830112612fa457600080fd5b611c8183833560208501612f1d565b600060208284031215612fc557600080fd5b813567ffffffffffffffff811115612fdc57600080fd5b61253184828501612f93565b600060208284031215612ffa57600080fd5b5035919050565b6001600160a01b0381168114611cf657600080fd5b6000806040838503121561302957600080fd5b823561303481613001565b946020939093013593505050565b60008060006060848603121561305757600080fd5b833561306281613001565b9250602084013561307281613001565b929592945050506040919091013590565b6000806040838503121561309657600080fd5b50508035926020909101359150565b6000602082840312156130b757600080fd5b8135611c8181613001565b600082608081018360005b60048110156130fc5783830387526130e6838351612ec8565b60209788019790935091909101906001016130cd565b509095945050505050565b602081526000611c8160208301846130c2565b6000806000806080858703121561313057600080fd5b843567ffffffffffffffff8082111561314857600080fd5b61315488838901612f93565b9550602087013591508082111561316a57600080fd5b5061317787828801612f93565b935050604085013561318881613001565b9150606085013561319881613001565b939692955090935050565b8015158114611cf657600080fd5b600080604083850312156131c457600080fd5b82356131cf81613001565b915060208301356131df816131a3565b809150509250929050565b6000806000806080858703121561320057600080fd5b843561320b81613001565b9350602085013561321b81613001565b925060408501359150606085013567ffffffffffffffff81111561323e57600080fd5b8501601f8101871361324f57600080fd5b61325e87823560208401612f1d565b91505092959194509250565b60208152600082516080602084015261328660a0840182612ec8565b90506020840151601f19808584030160408601526132a48383612ec8565b925060408601519150808584030160608601526132c183836130c2565b92506060860151915080858403016080860152506132df82826130c2565b95945050505050565b600080604083850312156132fb57600080fd5b823561330681613001565b915060208301356131df81613001565b600181811c9082168061332a57607f821691505b6020821081141561334b57634e487b7160e01b600052602260045260246000fd5b50919050565b634e487b7160e01b600052601160045260246000fd5b600060001982141561337b5761337b613351565b5060010190565b6001600160a01b0392831681529116602082015260400190565b6000602082840312156133ae57600080fd5b8151611c81816131a3565b60008160001904831182151516156133d3576133d3613351565b500290565b634e487b7160e01b600052601260045260246000fd5b6000826133fd576133fd6133d8565b500490565b600082613411576134116133d8565b500690565b634e487b7160e01b600052603260045260246000fd5b60006020828403121561343e57600080fd5b8151611c8181613001565b6000835161345b818460208801612e9c565b83519083019061346f818360208801612e9c565b01949350505050565b6020808252602e908201527f4552433732313a2063616c6c6572206973206e6f7420746f6b656e206f776e6560408201526d1c881b9bdc88185c1c1c9bdd995960921b606082015260800190565b6020808252602b908201527f496e697469616c697a61626c653a20636f6e7472616374206973206e6f74206960408201526a6e697469616c697a696e6760a81b606082015260800190565b60008282101561352357613523613351565b500390565b6000821982111561353b5761353b613351565b500190565b60208082526032908201527f4552433732313a207472616e7366657220746f206e6f6e20455243373231526560408201527131b2b4bb32b91034b6b83632b6b2b73a32b960711b606082015260800190565b6001600160a01b03858116825284166020820152604081018390526080606082018190526000906135c590830184612ec8565b9695505050505050565b6000602082840312156135e157600080fd5b8151611c8181612e6956fea2646970667358221220b2b2ebc4153575868df3ad8e972cd8da6bb3160ff1f7b02590352bca040c18af64736f6c634300080c0033",
  "linkReferences": {},
  "deployedLinkReferences": {}
}