{
  "_format": "hh-sol-artifact-1",
  "contractName": "CONFETTI",
  "sourceName": "contracts/nft/CONFETTI.sol",
  "abi": [
    {
      "inputs": [
        {
          "internalType": "address",
          "name": "operator",
          "type": "address"
        }
      ],
      "name": "OperatorNotAllowed",
      "type": "error"
    },
    {
      "anonymous": false,
      "inputs": [
        {
          "indexed": true,
          "internalType": "address",
          "name": "owner",
          "type": "address"
        },
        {
          "indexed": true,
          "internalType": "address",
          "name": "approved",
          "type": "address"
        },
        {
          "indexed": true,
          "internalType": "uint256",
          "name": "tokenId",
          "type": "uint256"
        }
      ],
      "name": "Approval",
      "type": "event"
    },
    {
      "anonymous": false,
      "inputs": [
        {
          "indexed": true,
          "internalType": "address",
          "name": "owner",
          "type": "address"
        },
        {
          "indexed": true,
          "internalType": "address",
          "name": "operator",
          "type": "address"
        },
        {
          "indexed": false,
          "internalType": "bool",
          "name": "approved",
          "type": "bool"
        }
      ],
      "name": "ApprovalForAll",
      "type": "event"
    },
    {
      "anonymous": false,
      "inputs": [
        {
          "indexed": false,
          "internalType": "uint8",
          "name": "version",
          "type": "uint8"
        }
      ],
      "name": "Initialized",
      "type": "event"
    },
    {
      "anonymous": false,
      "inputs": [
        {
          "indexed": true,
          "internalType": "address",
          "name": "previousOwner",
          "type": "address"
        },
        {
          "indexed": true,
          "internalType": "address",
          "name": "newOwner",
          "type": "address"
        }
      ],
      "name": "OwnershipTransferred",
      "type": "event"
    },
    {
      "anonymous": false,
      "inputs": [
        {
          "indexed": false,
          "internalType": "address",
          "name": "account",
          "type": "address"
        }
      ],
      "name": "Paused",
      "type": "event"
    },
    {
      "anonymous": false,
      "inputs": [
        {
          "indexed": true,
          "internalType": "address",
          "name": "from",
          "type": "address"
        },
        {
          "indexed": true,
          "internalType": "address",
          "name": "to",
          "type": "address"
        },
        {
          "indexed": true,
          "internalType": "uint256",
          "name": "tokenId",
          "type": "uint256"
        }
      ],
      "name": "Transfer",
      "type": "event"
    },
    {
      "anonymous": false,
      "inputs": [
        {
          "indexed": false,
          "internalType": "address",
          "name": "account",
          "type": "address"
        }
      ],
      "name": "Unpaused",
      "type": "event"
    },
    {
      "inputs": [],
      "name": "_admin",
      "outputs": [
        {
          "internalType": "address",
          "name": "",
          "type": "address"
        }
      ],
      "stateMutability": "view",
      "type": "function"
    },
    {
      "inputs": [],
      "name": "_algorithm",
      "outputs": [
        {
          "internalType": "string",
          "name": "",
          "type": "string"
        }
      ],
      "stateMutability": "view",
      "type": "function"
    },
    {
      "inputs": [],
      "name": "_counter",
      "outputs": [
        {
          "internalType": "uint256",
          "name": "",
          "type": "uint256"
        }
      ],
      "stateMutability": "view",
      "type": "function"
    },
    {
      "inputs": [],
      "name": "_fee",
      "outputs": [
        {
          "internalType": "uint256",
          "name": "",
          "type": "uint256"
        }
      ],
      "stateMutability": "view",
      "type": "function"
    },
    {
      "inputs": [],
      "name": "_limit",
      "outputs": [
        {
          "internalType": "uint256",
          "name": "",
          "type": "uint256"
        }
      ],
      "stateMutability": "view",
      "type": "function"
    },
    {
      "inputs": [],
      "name": "_paramsAddress",
      "outputs": [
        {
          "internalType": "address",
          "name": "",
          "type": "address"
        }
      ],
      "stateMutability": "view",
      "type": "function"
    },
    {
      "inputs": [],
      "name": "_tokenAddrErc721",
      "outputs": [
        {
          "internalType": "address",
          "name": "",
          "type": "address"
        }
      ],
      "stateMutability": "view",
      "type": "function"
    },
    {
      "inputs": [],
      "name": "_uri",
      "outputs": [
        {
          "internalType": "string",
          "name": "",
          "type": "string"
        }
      ],
      "stateMutability": "view",
      "type": "function"
    },
    {
      "inputs": [
        {
          "internalType": "address",
          "name": "to",
          "type": "address"
        },
        {
          "internalType": "uint256",
          "name": "tokenId",
          "type": "uint256"
        }
      ],
      "name": "approve",
      "outputs": [],
      "stateMutability": "nonpayable",
      "type": "function"
    },
    {
      "inputs": [
        {
          "internalType": "address",
          "name": "owner",
          "type": "address"
        }
      ],
      "name": "balanceOf",
      "outputs": [
        {
          "internalType": "uint256",
          "name": "",
          "type": "uint256"
        }
      ],
      "stateMutability": "view",
      "type": "function"
    },
    {
      "inputs": [
        {
          "internalType": "address",
          "name": "newAdm",
          "type": "address"
        }
      ],
      "name": "changeAdmin",
      "outputs": [],
      "stateMutability": "nonpayable",
      "type": "function"
    },
    {
      "inputs": [
        {
          "internalType": "string",
          "name": "baseURI",
          "type": "string"
        }
      ],
      "name": "changeBaseURI",
      "outputs": [],
      "stateMutability": "nonpayable",
      "type": "function"
    },
    {
      "inputs": [
        {
          "internalType": "address",
          "name": "newP",
          "type": "address"
        }
      ],
      "name": "changeParam",
      "outputs": [],
      "stateMutability": "nonpayable",
      "type": "function"
    },
    {
      "inputs": [
        {
          "internalType": "address",
          "name": "sweet",
          "type": "address"
        }
      ],
      "name": "changeToken",
      "outputs": [],
      "stateMutability": "nonpayable",
      "type": "function"
    },
    {
      "inputs": [
        {
          "internalType": "uint256",
          "name": "tokenId",
          "type": "uint256"
        }
      ],
      "name": "getApproved",
      "outputs": [
        {
          "internalType": "address",
          "name": "",
          "type": "address"
        }
      ],
      "stateMutability": "view",
      "type": "function"
    },
    {
      "inputs": [
        {
          "internalType": "uint256",
          "name": "id",
          "type": "uint256"
        }
      ],
      "name": "getPaletteCanon",
      "outputs": [
        {
          "internalType": "string[4]",
          "name": "",
          "type": "string[4]"
        }
      ],
      "stateMutability": "view",
      "type": "function"
    },
    {
      "inputs": [
        {
          "internalType": "uint256",
          "name": "id",
          "type": "uint256"
        }
      ],
      "name": "getPaletteConfetti",
      "outputs": [
        {
          "internalType": "string[2]",
          "name": "",
          "type": "string[2]"
        }
      ],
      "stateMutability": "view",
      "type": "function"
    },
    {
      "inputs": [
        {
          "internalType": "uint256",
          "name": "tokenId",
          "type": "uint256"
        }
      ],
      "name": "getParamValues",
      "outputs": [
        {
          "components": [
            {
              "internalType": "string",
              "name": "shapeCanon",
              "type": "string"
            },
            {
              "internalType": "string",
              "name": "shapeConfetti",
              "type": "string"
            },
            {
              "internalType": "string[4]",
              "name": "palletteCanon",
              "type": "string[4]"
            },
            {
              "internalType": "string[2]",
              "name": "palletteConfetti",
              "type": "string[2]"
            }
          ],
          "internalType": "struct CONFETTI.Confetti",
          "name": "confetti",
          "type": "tuple"
        }
      ],
      "stateMutability": "view",
      "type": "function"
    },
    {
      "inputs": [
        {
          "internalType": "string",
          "name": "name",
          "type": "string"
        },
        {
          "internalType": "string",
          "name": "symbol",
          "type": "string"
        },
        {
          "internalType": "address",
          "name": "admin",
          "type": "address"
        },
        {
          "internalType": "address",
          "name": "paramsAddress",
          "type": "address"
        }
      ],
      "name": "initialize",
      "outputs": [],
      "stateMutability": "nonpayable",
      "type": "function"
    },
    {
      "inputs": [
        {
          "internalType": "address",
          "name": "owner",
          "type": "address"
        },
        {
          "internalType": "address",
          "name": "operator",
          "type": "address"
        }
      ],
      "name": "isApprovedForAll",
      "outputs": [
        {
          "internalType": "bool",
          "name": "",
          "type": "bool"
        }
      ],
      "stateMutability": "view",
      "type": "function"
    },
    {
      "inputs": [],
      "name": "mint",
      "outputs": [],
      "stateMutability": "payable",
      "type": "function"
    },
    {
      "inputs": [
        {
          "internalType": "uint256",
          "name": "tokenIdGated",
          "type": "uint256"
        }
      ],
      "name": "mintByToken",
      "outputs": [],
      "stateMutability": "nonpayable",
      "type": "function"
    },
    {
      "inputs": [],
      "name": "name",
      "outputs": [
        {
          "internalType": "string",
          "name": "",
          "type": "string"
        }
      ],
      "stateMutability": "view",
      "type": "function"
    },
    {
      "inputs": [],
      "name": "owner",
      "outputs": [
        {
          "internalType": "address",
          "name": "",
          "type": "address"
        }
      ],
      "stateMutability": "view",
      "type": "function"
    },
    {
      "inputs": [
        {
          "internalType": "uint256",
          "name": "id",
          "type": "uint256"
        }
      ],
      "name": "ownerMint",
      "outputs": [],
      "stateMutability": "nonpayable",
      "type": "function"
    },
    {
      "inputs": [
        {
          "internalType": "uint256",
          "name": "tokenId",
          "type": "uint256"
        }
      ],
      "name": "ownerOf",
      "outputs": [
        {
          "internalType": "address",
          "name": "",
          "type": "address"
        }
      ],
      "stateMutability": "view",
      "type": "function"
    },
    {
      "inputs": [],
      "name": "pause",
      "outputs": [],
      "stateMutability": "nonpayable",
      "type": "function"
    },
    {
      "inputs": [],
      "name": "paused",
      "outputs": [
        {
          "internalType": "bool",
          "name": "",
          "type": "bool"
        }
      ],
      "stateMutability": "view",
      "type": "function"
    },
    {
      "inputs": [],
      "name": "renounceOwnership",
      "outputs": [],
      "stateMutability": "nonpayable",
      "type": "function"
    },
    {
      "inputs": [
        {
          "internalType": "uint256",
          "name": "_tokenId",
          "type": "uint256"
        },
        {
          "internalType": "uint256",
          "name": "_salePrice",
          "type": "uint256"
        }
      ],
      "name": "royaltyInfo",
      "outputs": [
        {
          "internalType": "address",
          "name": "receiver",
          "type": "address"
        },
        {
          "internalType": "uint256",
          "name": "royaltyAmount",
          "type": "uint256"
        }
      ],
      "stateMutability": "view",
      "type": "function"
    },
    {
      "inputs": [
        {
          "internalType": "address",
          "name": "from",
          "type": "address"
        },
        {
          "internalType": "address",
          "name": "to",
          "type": "address"
        },
        {
          "internalType": "uint256",
          "name": "tokenId",
          "type": "uint256"
        }
      ],
      "name": "safeTransferFrom",
      "outputs": [],
      "stateMutability": "nonpayable",
      "type": "function"
    },
    {
      "inputs": [
        {
          "internalType": "address",
          "name": "from",
          "type": "address"
        },
        {
          "internalType": "address",
          "name": "to",
          "type": "address"
        },
        {
          "internalType": "uint256",
          "name": "tokenId",
          "type": "uint256"
        },
        {
          "internalType": "bytes",
          "name": "data",
          "type": "bytes"
        }
      ],
      "name": "safeTransferFrom",
      "outputs": [],
      "stateMutability": "nonpayable",
      "type": "function"
    },
    {
      "inputs": [
        {
          "internalType": "string",
          "name": "algo",
          "type": "string"
        }
      ],
      "name": "setAlgo",
      "outputs": [],
      "stateMutability": "nonpayable",
      "type": "function"
    },
    {
      "inputs": [
        {
          "internalType": "address",
          "name": "operator",
          "type": "address"
        },
        {
          "internalType": "bool",
          "name": "approved",
          "type": "bool"
        }
      ],
      "name": "setApprovalForAll",
      "outputs": [],
      "stateMutability": "nonpayable",
      "type": "function"
    },
    {
      "inputs": [
        {
          "internalType": "uint256",
          "name": "fee",
          "type": "uint256"
        }
      ],
      "name": "setFee",
      "outputs": [],
      "stateMutability": "nonpayable",
      "type": "function"
    },
    {
      "inputs": [
        {
          "internalType": "uint256",
          "name": "limit",
          "type": "uint256"
        }
      ],
      "name": "setLimit",
      "outputs": [],
      "stateMutability": "nonpayable",
      "type": "function"
    },
    {
      "inputs": [
        {
          "internalType": "bytes4",
          "name": "interfaceId",
          "type": "bytes4"
        }
      ],
      "name": "supportsInterface",
      "outputs": [
        {
          "internalType": "bool",
          "name": "",
          "type": "bool"
        }
      ],
      "stateMutability": "view",
      "type": "function"
    },
    {
      "inputs": [],
      "name": "symbol",
      "outputs": [
        {
          "internalType": "string",
          "name": "",
          "type": "string"
        }
      ],
      "stateMutability": "view",
      "type": "function"
    },
    {
      "inputs": [
        {
          "internalType": "uint256",
          "name": "tokenId",
          "type": "uint256"
        }
      ],
      "name": "tokenURI",
      "outputs": [
        {
          "internalType": "string",
          "name": "",
          "type": "string"
        }
      ],
      "stateMutability": "view",
      "type": "function"
    },
    {
      "inputs": [
        {
          "internalType": "address",
          "name": "from",
          "type": "address"
        },
        {
          "internalType": "address",
          "name": "to",
          "type": "address"
        },
        {
          "internalType": "uint256",
          "name": "tokenId",
          "type": "uint256"
        }
      ],
      "name": "transferFrom",
      "outputs": [],
      "stateMutability": "nonpayable",
      "type": "function"
    },
    {
      "inputs": [
        {
          "internalType": "address",
          "name": "newOwner",
          "type": "address"
        }
      ],
      "name": "transferOwnership",
      "outputs": [],
      "stateMutability": "nonpayable",
      "type": "function"
    },
    {
      "inputs": [],
      "name": "unpause",
      "outputs": [],
      "stateMutability": "nonpayable",
      "type": "function"
    },
    {
      "inputs": [],
      "name": "withdraw",
      "outputs": [],
      "stateMutability": "nonpayable",
      "type": "function"
    }
  ],
  "bytecode": "0x608060405234801561001057600080fd5b50613c4a806100206000396000f3fe60806040526004361061025c5760003560e01c8063741149b111610144578063adfc7dae116100b6578063cbfb504a1161007a578063cbfb504a146106fb578063df2fb92c14610728578063e653c6501461073f578063e985e9c514610760578063f19e75d4146107a9578063f2fde38b146107c957600080fd5b8063adfc7dae14610656578063b88d4fde14610677578063c0dca23914610697578063c5b37c22146106c4578063c87b56dd146106db57600080fd5b80638da5cb5b116101085780638da5cb5b146105ad5780638f15b414146105cc5780638f283970146105ec57806395d89b411461060c578063a1bb1fcc14610621578063a22cb4651461063657600080fd5b8063741149b1146105145780637cd49fde146105345780637d5c01201461054b57806380d953dd146105785780638456cb591461059857600080fd5b80632a55205a116101dd5780635c975abb116101a15780635c975abb146104595780636352211e1461047157806366829b161461049157806369fe0e2d146104b157806370a08231146104d1578063715018a6146104ff57600080fd5b80632a55205a146103b057806339a0c6f9146103ef5780633ccfd60b1461040f5780633f4ba83a1461042457806342842e0e1461043957600080fd5b8063095ea7b311610224578063095ea7b3146103335780630dccc9ad146103535780631249c58b1461036857806323b872dd1461037057806327ea6f2b1461039057600080fd5b806301bc45c91461026157806301ffc9a71461029f57806306fdde03146102cf5780630764da1d146102f1578063081812fc14610313575b600080fd5b34801561026d57600080fd5b5061015f54610282906001600160a01b031681565b6040516001600160a01b0390911681526020015b60405180910390f35b3480156102ab57600080fd5b506102bf6102ba36600461345a565b6107e9565b6040519015158152602001610296565b3480156102db57600080fd5b506102e461083b565b60405161029691906134cf565b3480156102fd57600080fd5b5061031161030c36600461358e565b6108cd565b005b34801561031f57600080fd5b5061028261032e3660046135c3565b610936565b34801561033f57600080fd5b5061031161034e3660046135f1565b61095d565b34801561035f57600080fd5b506102e4610a73565b610311610b02565b34801561037c57600080fd5b5061031161038b36600461361d565b610ba9565b34801561039c57600080fd5b506103116103ab3660046135c3565b610cff565b3480156103bc57600080fd5b506103d06103cb36600461365e565b610d4d565b604080516001600160a01b039093168352602083019190915201610296565b3480156103fb57600080fd5b5061031161040a36600461358e565b610d7e565b34801561041b57600080fd5b50610311610dda565b34801561043057600080fd5b50610311610ed7565b34801561044557600080fd5b5061031161045436600461361d565b610f27565b34801561046557600080fd5b5060975460ff166102bf565b34801561047d57600080fd5b5061028261048c3660046135c3565b611072565b34801561049d57600080fd5b506103116104ac366004613680565b6110d2565b3480156104bd57600080fd5b506103116104cc3660046135c3565b61113d565b3480156104dd57600080fd5b506104f16104ec366004613680565b61118b565b604051908152602001610296565b34801561050b57600080fd5b50610311611211565b34801561052057600080fd5b5061031161052f366004613680565b611223565b34801561054057600080fd5b506104f16101625481565b34801561055757600080fd5b5061056b6105663660046135c3565b6112bf565b60405161029691906136e2565b34801561058457600080fd5b506103116105933660046135c3565b61173f565b3480156105a457600080fd5b50610311611862565b3480156105b957600080fd5b5061012d546001600160a01b0316610282565b3480156105d857600080fd5b506103116105e73660046136f5565b6118b2565b3480156105f857600080fd5b50610311610607366004613680565b611a7d565b34801561061857600080fd5b506102e4611b19565b34801561062d57600080fd5b506102e4611b28565b34801561064257600080fd5b5061031161065136600461378c565b611b36565b34801561066257600080fd5b5061016054610282906001600160a01b031681565b34801561068357600080fd5b506103116106923660046137c5565b611b41565b3480156106a357600080fd5b506106b76106b23660046135c3565b611c93565b604051610296919061387f565b3480156106d057600080fd5b506104f16101655481565b3480156106e757600080fd5b506102e46106f63660046135c3565b611ce1565b34801561070757600080fd5b5061071b6107163660046135c3565b611d48565b60405161029691906138fd565b34801561073457600080fd5b506104f16101665481565b34801561074b57600080fd5b5061016454610282906001600160a01b031681565b34801561076c57600080fd5b506102bf61077b366004613910565b6001600160a01b039182166000908152606a6020908152604080832093909416825291909152205460ff1690565b3480156107b557600080fd5b506103116107c43660046135c3565b61224a565b3480156107d557600080fd5b506103116107e4366004613680565b6122bb565b60006001600160e01b031982166380ac58cd60e01b148061081a57506001600160e01b03198216635b5e139f60e01b145b8061083557506301ffc9a760e01b6001600160e01b03198316145b92915050565b60606065805461084a9061393e565b80601f01602080910402602001604051908101604052809291908181526020018280546108769061393e565b80156108c35780601f10610898576101008083540402835291602001916108c3565b820191906000526020600020905b8154815290600101906020018083116108a657829003601f168201915b5050505050905090565b61015f5460408051808201909152600381526231303160e81b6020820152906001600160a01b0316331461091d5760405162461bcd60e51b815260040161091491906134cf565b60405180910390fd5b50805161093290610161906020840190613338565b5050565b600061094182612331565b506000908152606960205260409020546001600160a01b031690565b600061096882611072565b9050806001600160a01b0316836001600160a01b031614156109d65760405162461bcd60e51b815260206004820152602160248201527f4552433732313a20617070726f76616c20746f2063757272656e74206f776e656044820152603960f91b6064820152608401610914565b336001600160a01b03821614806109f257506109f2813361077b565b610a645760405162461bcd60e51b815260206004820152603e60248201527f4552433732313a20617070726f76652063616c6c6572206973206e6f7420746f60448201527f6b656e206f776e6572206e6f7220617070726f76656420666f7220616c6c00006064820152608401610914565b610a6e8383612390565b505050565b6101638054610a819061393e565b80601f0160208091040260200160405190810160405280929190818152602001828054610aad9061393e565b8015610afa5780601f10610acf57610100808354040283529160200191610afa565b820191906000526020600020905b815481529060010190602001808311610add57829003601f168201915b505050505081565b600061016554118015610b185750610165543410155b8015610b275750600061016654115b6040518060400160405280600381526020016232303160e81b81525090610b615760405162461bcd60e51b815260040161091491906134cf565b5061038461016254108015610b7b57506101665461016254105b610b8457600080fd5b6101628054906000610b958361398f565b9190505550610ba733610162546123fe565b565b826daaeb6d7670e522a718067333cd4e3b15610cee576001600160a01b038116331415610be057610bdb848484612418565b610cf9565b604051633185c44d60e21b81526daaeb6d7670e522a718067333cd4e9063c617113490610c1390309033906004016139aa565b602060405180830381865afa158015610c30573d6000803e3d6000fd5b505050506040513d601f19601f82011682018060405250810190610c5491906139c4565b8015610ccf5750604051633185c44d60e21b81526daaeb6d7670e522a718067333cd4e9063c617113490610c8e90309085906004016139aa565b602060405180830381865afa158015610cab573d6000803e3d6000fd5b505050506040513d601f19601f82011682018060405250810190610ccf91906139c4565b610cee57604051633b79c77360e21b8152336004820152602401610914565b610cf9848484612418565b50505050565b61015f5460408051808201909152600381526231303160e81b6020820152906001600160a01b03163314610d465760405162461bcd60e51b815260040161091491906134cf565b5061016655565b61015f546001600160a01b03166000612710610d6b846101f46139e1565b610d759190613a16565b90509250929050565b61015f5460408051808201909152600381526231303160e81b6020820152906001600160a01b03163314610dc55760405162461bcd60e51b815260040161091491906134cf565b50805161093290610163906020840190613338565b600260fb541415610e2d5760405162461bcd60e51b815260206004820152601f60248201527f5265656e7472616e637947756172643a207265656e7472616e742063616c6c006044820152606401610914565b600260fb5561015f5460408051808201909152600381526231303160e81b6020820152906001600160a01b03163314610e795760405162461bcd60e51b815260040161091491906134cf565b50604051600090339047908381818185875af1925050503d8060008114610ebc576040519150601f19603f3d011682016040523d82523d6000602084013e610ec1565b606091505b5050905080610ecf57600080fd5b50600160fb55565b61015f5460408051808201909152600381526231303160e81b6020820152906001600160a01b03163314610f1e5760405162461bcd60e51b815260040161091491906134cf565b50610ba7612449565b826daaeb6d7670e522a718067333cd4e3b15611067576001600160a01b038116331415610f5957610bdb84848461249b565b604051633185c44d60e21b81526daaeb6d7670e522a718067333cd4e9063c617113490610f8c90309033906004016139aa565b602060405180830381865afa158015610fa9573d6000803e3d6000fd5b505050506040513d601f19601f82011682018060405250810190610fcd91906139c4565b80156110485750604051633185c44d60e21b81526daaeb6d7670e522a718067333cd4e9063c61711349061100790309085906004016139aa565b602060405180830381865afa158015611024573d6000803e3d6000fd5b505050506040513d601f19601f8201168201806040525081019061104891906139c4565b61106757604051633b79c77360e21b8152336004820152602401610914565b610cf984848461249b565b6000818152606760205260408120546001600160a01b0316806108355760405162461bcd60e51b8152602060048201526018602482015277115490cdcc8c4e881a5b9d985b1a59081d1bdad95b88125160421b6044820152606401610914565b61015f5460408051808201909152600381526231303160e81b6020820152906001600160a01b031633146111195760405162461bcd60e51b815260040161091491906134cf565b5061016480546001600160a01b0319166001600160a01b0392909216919091179055565b61015f5460408051808201909152600381526231303160e81b6020820152906001600160a01b031633146111845760405162461bcd60e51b815260040161091491906134cf565b5061016555565b60006001600160a01b0382166111f55760405162461bcd60e51b815260206004820152602960248201527f4552433732313a2061646472657373207a65726f206973206e6f7420612076616044820152683634b21037bbb732b960b91b6064820152608401610914565b506001600160a01b031660009081526068602052604090205490565b6112196124b6565b610ba76000612511565b61015f546001600160a01b03163314801561124657506001600160a01b03811615155b80156112615750610160546001600160a01b03828116911614155b6040518060400160405280600381526020016231303160e81b8152509061129b5760405162461bcd60e51b815260040161091491906134cf565b5061016080546001600160a01b0319166001600160a01b0392909216919091179055565b6112c76133bc565b6040805161036081018252600761032082018181526611a0a12222a29b60c91b6103408401528252825180840184528181526611a1a120a0a1a160c91b6020828101919091528084019190915283518085018552828152662346464646423560c81b8183015283850152835180850185528281526611a32321a1a11b60c91b81830152606084015283518085018552828152662346334230433360c81b81830152608084015283518085018552828152662343364442444160c81b8183015260a084015283518085018552828152660468c8a8a628a760cb1b8183015260c084015283518085018552828152662346454437433360c81b8183015260e0840152835180850185528281526611a31b22a0a19960c91b8183015261010084015283518085018552828152662345434435453360c81b8183015261012084015283518085018552828152662346463936384160c81b8183015261014084015283518085018552828152662346464145413560c81b81830152610160840152835180850185528281526611a323219aa12360c91b8183015261018084015283518085018552828152662346464438424560c81b818301526101a0840152835180850185528281526611a323219c209960c91b818301526101c084015283518085018552828152660234434463046360cc1b818301526101e084015283518085018552828152662338464341434160c81b81830152610200840152835180850185528281526611a1a1a29921a160c91b81830152610220840152835180850185528281526611a11b21a3211b60c91b8183015261024084015283518085018552828152662339374331413960c81b8183015261026084015283518085018552828152662346434239414160c81b8183015261028084015283518085018552828152662346464442434360c81b818301526102a0840152835180850185528281526608d150d150514d60ca1b818301526102c0840152835180850185528281526611a0992298a22160c91b818301526102e084015283518085019094529083526608cd4d50d090d160ca1b908301526103008101919091526115e26133bc565b81601961160e86604051806040016040528060078152602001660636f6c6f7220360cc1b815250612564565b6116189190613a2a565b6019811061162857611628613a3e565b602002015181600060200201819052508160196116648660405180604001604052806007815260200166636f6c6f72203160c81b815250612564565b61166e9190613a2a565b6019811061167e5761167e613a3e565b602002015181600160200201819052508160196116ba866040518060400160405280600781526020016631b7b637b9101960c91b815250612564565b6116c49190613a2a565b601981106116d4576116d4613a3e565b602002015181600260200201819052508160196117108660405180604001604052806007815260200166636f6c6f72203360c81b815250612564565b61171a9190613a2a565b6019811061172a5761172a613a3e565b60200201518160035b60200201529392505050565b610164546001600160a01b03161580159061175d5750600061016654115b6040518060400160405280600381526020016203130360ec1b815250906117975760405162461bcd60e51b815260040161091491906134cf565b50610164546040516331a9108f60e11b8152600481018390526001600160a01b039091169033908290636352211e90602401602060405180830381865afa1580156117e6573d6000803e3d6000fd5b505050506040513d601f19601f8201168201806040525081019061180a9190613a54565b6001600160a01b03161461181d57600080fd5b6103846101625410801561183657506101665461016254105b61183f57600080fd5b61016280549060006118508361398f565b919050555061093233610162546123fe565b61015f5460408051808201909152600381526231303160e81b6020820152906001600160a01b031633146118a95760405162461bcd60e51b815260040161091491906134cf565b50610ba76125a0565b600054610100900460ff16158080156118d25750600054600160ff909116105b806118ec5750303b1580156118ec575060005460ff166001145b61194f5760405162461bcd60e51b815260206004820152602e60248201527f496e697469616c697a61626c653a20636f6e747261637420697320616c72656160448201526d191e481a5b9a5d1a585b1a5e995960921b6064820152608401610914565b6000805460ff191660011790558015611972576000805461ff0019166101001790555b6001600160a01b0383161580159061199257506001600160a01b03821615155b6040518060400160405280600381526020016203130360ec1b815250906119cc5760405162461bcd60e51b815260040161091491906134cf565b506119d785856125dd565b61016080546001600160a01b038085166001600160a01b03199283161790925561015f80549286169290911691909117905561038461016655611a1861260e565b611a2061263d565b611a28612683565b611a306126b2565b8015611a76576000805461ff0019169055604051600181527f7f26b83ff96e1f2b6a682f133852f6798a09c465da95921460cefb38474024989060200160405180910390a15b5050505050565b61015f546001600160a01b031633148015611aa057506001600160a01b03811615155b8015611abb575061015f546001600160a01b03828116911614155b6040518060400160405280600381526020016231303160e81b81525090611af55760405162461bcd60e51b815260040161091491906134cf565b5061015f80546001600160a01b0319166001600160a01b0392909216919091179055565b60606066805461084a9061393e565b6101618054610a819061393e565b6109323383836126e1565b836daaeb6d7670e522a718067333cd4e3b15611c87576001600160a01b038116331415611b7957611b74858585856127b0565b611a76565b604051633185c44d60e21b81526daaeb6d7670e522a718067333cd4e9063c617113490611bac90309033906004016139aa565b602060405180830381865afa158015611bc9573d6000803e3d6000fd5b505050506040513d601f19601f82011682018060405250810190611bed91906139c4565b8015611c685750604051633185c44d60e21b81526daaeb6d7670e522a718067333cd4e9063c617113490611c2790309085906004016139aa565b602060405180830381865afa158015611c44573d6000803e3d6000fd5b505050506040513d601f19601f82011682018060405250810190611c6891906139c4565b611c8757604051633b79c77360e21b8152336004820152602401610914565b611a76858585856127b0565b611c9b6133e3565b6040518060800160405280611caf846127e2565b8152602001611cbd846128f5565b8152602001611ccb846112bf565b8152602001611cd984611d48565b905292915050565b6060611cec82612331565b6000611cf66129e5565b90506000815111611d165760405180602001604052806000815250611d41565b80611d20846129f5565b604051602001611d31929190613a71565b6040516020818303038152906040525b9392505050565b611d50613416565b604080516104a08101825260076104608201818152662330304135453360c81b61048084015282528251808401845281815266119c22221ba12360c91b6020828101919091528084019190915283518085018552828152662346463936433560c81b818301528385015283518085018552828152660468c8c6a6e6c760cb1b81830152606084015283518085018552828152662346464246363560c81b81830152608084015283518085018552828152660468c866c6466760cb1b8183015260a0840152835180850185528281526611a323221c1b9960c91b8183015260c084015283518085018552828152662346324434434360c81b8183015260e084015283518085018552828152662345373735373760c81b81830152610100840152835180850185528281526608cd90ce0e10cd60ca1b8183015261012084015283518085018552828152660234330353738360cc1b81830152610140840152835180850185528281526611a3231c191c2160c91b81830152610160840152835180850185528281526611a29ba19a9c1960c91b8183015261018084015283518085018552828152662330304230424160c81b818301526101a084015283518085018552828152661198181b1aa09960c91b818301526101c084015283518085018552828152662330304344414360c81b818301526101e084015283518085018552828152660468c8c6c8c6c760cb1b8183015261020084015283518085018552828152662346464441434360c81b8183015261022084015283518085018552828152660468c8c6c6082760cb1b8183015261024084015283518085018552828152660234346463830360cc1b8183015261026084015283518085018552828152662346463543373760c81b8183015261028084015283518085018552828152662334444430393160c81b818301526102a084015283518085018552828152662346464543353960c81b818301526102c084015283518085018552828152662346464132334160c81b818301526102e084015283518085018552828152662337343733374160c81b8183015261030084015283518085018552828152660234646463130360cc1b8183015261032084015283518085018552828152660234646384330360cc1b8183015261034084015283518085018552828152662345383131323360c81b8183015261036084015283518085018552828152662345433030384360c81b8183015261038084015283518085018552828152662336383231374160c81b818301526103a08401528351808501855282815266119818189c1c2360c91b818301526103c084015283518085018552828152661198182121a31960c91b818301526103e0840152835180850185528281526608cc0c108c8e4d60ca1b8183015261040084015283518085018552828152662330303945343960c81b818301526104208401528351808501909452908352662342414438304160c81b908301526104408101919091526121a1613416565b8160236121cd86604051806040016040528060078152602001660636f6c6f7220360cc1b815250612564565b6121d79190613a2a565b602381106121e7576121e7613a3e565b602002015181600060200201819052508160236122238660405180604001604052806007815260200166636f6c6f72203160c81b815250612564565b61222d9190613a2a565b6023811061223d5761223d613a3e565b6020020151816001611733565b61015f5460408051808201909152600381526231303160e81b6020820152906001600160a01b031633146122915760405162461bcd60e51b815260040161091491906134cf565b50610384811180156122a557506103e88111155b6122ae57600080fd5b6122b833826123fe565b50565b6122c36124b6565b6001600160a01b0381166123285760405162461bcd60e51b815260206004820152602660248201527f4f776e61626c653a206e6577206f776e657220697320746865207a65726f206160448201526564647265737360d01b6064820152608401610914565b6122b881612511565b6000818152606760205260409020546001600160a01b03166122b85760405162461bcd60e51b8152602060048201526018602482015277115490cdcc8c4e881a5b9d985b1a59081d1bdad95b88125160421b6044820152606401610914565b600081815260696020526040902080546001600160a01b0319166001600160a01b03841690811790915581906123c582611072565b6001600160a01b03167f8c5be1e5ebec7d5bd14f71427d1e84f3dd0314c0f7b2291e5b200ac8c7c3b92560405160405180910390a45050565b610932828260405180602001604052806000815250612afb565b6124223382612b2e565b61243e5760405162461bcd60e51b815260040161091490613aa0565b610a6e838383612bac565b612451612d53565b6097805460ff191690557f5db9ee0a495bf2e6ff9c91a7834c1ba4fdd244a5e8aa4e537bd38aeae4b073aa335b6040516001600160a01b03909116815260200160405180910390a1565b610a6e83838360405180602001604052806000815250611b41565b61012d546001600160a01b03163314610ba75760405162461bcd60e51b815260206004820181905260248201527f4f776e61626c653a2063616c6c6572206973206e6f7420746865206f776e65726044820152606401610914565b61012d80546001600160a01b038381166001600160a01b0319831681179093556040519116919082907f8be0079c531659141344cd1fd0a4f28419497f9722a3daafe3b4186f6b6457e090600090a35050565b600081612570846129f5565b604051602001612581929190613a71565b60408051601f1981840301815291905280516020909101209392505050565b6125a8612d9c565b6097805460ff191660011790557f62e78cea01bee320cd4e420270b5ea74000d11b0c9f74754ebdbfc544b05a25861247e3390565b600054610100900460ff166126045760405162461bcd60e51b815260040161091490613aee565b6109328282612de2565b600054610100900460ff166126355760405162461bcd60e51b815260040161091490613aee565b610ba7612e30565b600054610100900460ff166126645760405162461bcd60e51b815260040161091490613aee565b610ba7733cc6cdda760b79bafa08df41ecfa224f810dceb66001612e60565b600054610100900460ff166126aa5760405162461bcd60e51b815260040161091490613aee565b610ba7612ff1565b600054610100900460ff166126d95760405162461bcd60e51b815260040161091490613aee565b610ba761301f565b816001600160a01b0316836001600160a01b031614156127435760405162461bcd60e51b815260206004820152601960248201527f4552433732313a20617070726f766520746f2063616c6c6572000000000000006044820152606401610914565b6001600160a01b038381166000818152606a6020908152604080832094871680845294825291829020805460ff191686151590811790915591519182527f17307eab39ab6107e8899845ad3d59bd9653f200f220920489ca2b5937696c31910160405180910390a3505050565b6127ba3383612b2e565b6127d65760405162461bcd60e51b815260040161091490613aa0565b610cf984848484613052565b6040805161012081018252600160e08201818152603160f81b610100840152825282518084018452818152601960f91b6020828101919091528084019190915283518085018552828152603360f81b818301528385015283518085018552828152600d60fa1b8183015260608481019190915284518086018652838152603560f81b81840152608085015284518086018652838152601b60f91b8184015260a085015284518086018652928352603760f81b8383015260c08401929092528351808501909452600a84526939b430b832a1b0b737b760b11b908401529181906007906128cf908690612564565b6128d99190613a2a565b600781106128e9576128e9613a3e565b60200201519392505050565b6040805161012081018252600160e08201818152603160f81b610100840152825282518084018452818152601960f91b6020828101919091528084019190915283518085018552828152603360f81b818301528385015283518085018552828152600d60fa1b8183015260608481019190915284518086018652838152603560f81b81840152608085015284518086018652838152601b60f91b8184015260a085015284518086018652928352603760f81b8383015260c08401929092528351808501909452600d84526c7368617065436f6e666574746960981b908401529181906007906128cf908690612564565b6060610163805461084a9061393e565b606081612a195750506040805180820190915260018152600360fc1b602082015290565b8160005b8115612a435780612a2d8161398f565b9150612a3c9050600a83613a16565b9150612a1d565b60008167ffffffffffffffff811115612a5e57612a5e6134e2565b6040519080825280601f01601f191660200182016040528015612a88576020820181803683370190505b5090505b8415612af357612a9d600183613b39565b9150612aaa600a86613a2a565b612ab5906030613b50565b60f81b818381518110612aca57612aca613a3e565b60200101906001600160f81b031916908160001a905350612aec600a86613a16565b9450612a8c565b949350505050565b612b058383613085565b612b1260008484846131d3565b610a6e5760405162461bcd60e51b815260040161091490613b68565b600080612b3a83611072565b9050806001600160a01b0316846001600160a01b03161480612b8157506001600160a01b038082166000908152606a602090815260408083209388168352929052205460ff165b80612af35750836001600160a01b0316612b9a84610936565b6001600160a01b031614949350505050565b826001600160a01b0316612bbf82611072565b6001600160a01b031614612c235760405162461bcd60e51b815260206004820152602560248201527f4552433732313a207472616e736665722066726f6d20696e636f72726563742060448201526437bbb732b960d91b6064820152608401610914565b6001600160a01b038216612c855760405162461bcd60e51b8152602060048201526024808201527f4552433732313a207472616e7366657220746f20746865207a65726f206164646044820152637265737360e01b6064820152608401610914565b612c908383836132d1565b612c9b600082612390565b6001600160a01b0383166000908152606860205260408120805460019290612cc4908490613b39565b90915550506001600160a01b0382166000908152606860205260408120805460019290612cf2908490613b50565b909155505060008181526067602052604080822080546001600160a01b0319166001600160a01b0386811691821790925591518493918716917fddf252ad1be2c89b69c2b068fc378daa952ba7f163c4a11628f55a4df523b3ef91a4505050565b60975460ff16610ba75760405162461bcd60e51b815260206004820152601460248201527314185d5cd8589b194e881b9bdd081c185d5cd95960621b6044820152606401610914565b60975460ff1615610ba75760405162461bcd60e51b815260206004820152601060248201526f14185d5cd8589b194e881c185d5cd95960821b6044820152606401610914565b600054610100900460ff16612e095760405162461bcd60e51b815260040161091490613aee565b8151612e1c906065906020850190613338565b508051610a6e906066906020840190613338565b600054610100900460ff16612e575760405162461bcd60e51b815260040161091490613aee565b610ba733612511565b600054610100900460ff16612e875760405162461bcd60e51b815260040161091490613aee565b6daaeb6d7670e522a718067333cd4e3b156109325760405163c3c5a54760e01b81523060048201526daaeb6d7670e522a718067333cd4e9063c3c5a547906024016020604051808303816000875af1158015612ee7573d6000803e3d6000fd5b505050506040513d601f19601f82011682018060405250810190612f0b91906139c4565b610932578015612f7e57604051633e9f1edf60e11b81526daaeb6d7670e522a718067333cd4e90637d3e3dbe90612f4890309086906004016139aa565b600060405180830381600087803b158015612f6257600080fd5b505af1158015612f76573d6000803e3d6000fd5b505050505050565b6001600160a01b03821615612fc05760405163a0af290360e01b81526daaeb6d7670e522a718067333cd4e9063a0af290390612f4890309086906004016139aa565b604051632210724360e11b81523060048201526daaeb6d7670e522a718067333cd4e90634420e48690602401612f48565b600054610100900460ff166130185760405162461bcd60e51b815260040161091490613aee565b600160fb55565b600054610100900460ff166130465760405162461bcd60e51b815260040161091490613aee565b6097805460ff19169055565b61305d848484612bac565b613069848484846131d3565b610cf95760405162461bcd60e51b815260040161091490613b68565b6001600160a01b0382166130db5760405162461bcd60e51b815260206004820181905260248201527f4552433732313a206d696e7420746f20746865207a65726f20616464726573736044820152606401610914565b6000818152606760205260409020546001600160a01b0316156131405760405162461bcd60e51b815260206004820152601c60248201527f4552433732313a20746f6b656e20616c7265616479206d696e746564000000006044820152606401610914565b61314c600083836132d1565b6001600160a01b0382166000908152606860205260408120805460019290613175908490613b50565b909155505060008181526067602052604080822080546001600160a01b0319166001600160a01b03861690811790915590518392907fddf252ad1be2c89b69c2b068fc378daa952ba7f163c4a11628f55a4df523b3ef908290a45050565b60006001600160a01b0384163b156132c657604051630a85bd0160e11b81526001600160a01b0385169063150b7a0290613217903390899088908890600401613bba565b6020604051808303816000875af1925050508015613252575060408051601f3d908101601f1916820190925261324f91810190613bf7565b60015b6132ac573d808015613280576040519150601f19603f3d011682016040523d82523d6000602084013e613285565b606091505b5080516132a45760405162461bcd60e51b815260040161091490613b68565b805181602001fd5b6001600160e01b031916630a85bd0160e11b149050612af3565b506001949350505050565b60975460ff1615610a6e5760405162461bcd60e51b815260206004820152602b60248201527f4552433732315061757361626c653a20746f6b656e207472616e73666572207760448201526a1a1a5b19481c185d5cd95960aa1b6064820152608401610914565b8280546133449061393e565b90600052602060002090601f01602090048101928261336657600085556133ac565b82601f1061337f57805160ff19168380011785556133ac565b828001600101855582156133ac579182015b828111156133ac578251825591602001919060010190613391565b506133b892915061342f565b5090565b60405180608001604052806004905b60608152602001906001900390816133cb5790505090565b604051806080016040528060608152602001606081526020016134046133bc565b8152602001613411613416565b905290565b60408051808201909152606081526001602082016133cb565b5b808211156133b85760008155600101613430565b6001600160e01b0319811681146122b857600080fd5b60006020828403121561346c57600080fd5b8135611d4181613444565b60005b8381101561349257818101518382015260200161347a565b83811115610cf95750506000910152565b600081518084526134bb816020860160208601613477565b601f01601f19169290920160200192915050565b602081526000611d4160208301846134a3565b634e487b7160e01b600052604160045260246000fd5b600067ffffffffffffffff80841115613513576135136134e2565b604051601f8501601f19908116603f0116810190828211818310171561353b5761353b6134e2565b8160405280935085815286868601111561355457600080fd5b858560208301376000602087830101525050509392505050565b600082601f83011261357f57600080fd5b611d41838335602085016134f8565b6000602082840312156135a057600080fd5b813567ffffffffffffffff8111156135b757600080fd5b612af38482850161356e565b6000602082840312156135d557600080fd5b5035919050565b6001600160a01b03811681146122b857600080fd5b6000806040838503121561360457600080fd5b823561360f816135dc565b946020939093013593505050565b60008060006060848603121561363257600080fd5b833561363d816135dc565b9250602084013561364d816135dc565b929592945050506040919091013590565b6000806040838503121561367157600080fd5b50508035926020909101359150565b60006020828403121561369257600080fd5b8135611d41816135dc565b600082608081018360005b60048110156136d75783830387526136c18383516134a3565b60209788019790935091909101906001016136a8565b509095945050505050565b602081526000611d41602083018461369d565b6000806000806080858703121561370b57600080fd5b843567ffffffffffffffff8082111561372357600080fd5b61372f8883890161356e565b9550602087013591508082111561374557600080fd5b506137528782880161356e565b9350506040850135613763816135dc565b91506060850135613773816135dc565b939692955090935050565b80151581146122b857600080fd5b6000806040838503121561379f57600080fd5b82356137aa816135dc565b915060208301356137ba8161377e565b809150509250929050565b600080600080608085870312156137db57600080fd5b84356137e6816135dc565b935060208501356137f6816135dc565b925060408501359150606085013567ffffffffffffffff81111561381957600080fd5b8501601f8101871361382a57600080fd5b613839878235602084016134f8565b91505092959194509250565b600082604081018360005b60028110156136d75783830387526138698383516134a3565b6020978801979093509190910190600101613850565b60208152600082516080602084015261389b60a08401826134a3565b90506020840151601f19808584030160408601526138b983836134a3565b925060408601519150808584030160608601526138d6838361369d565b92506060860151915080858403016080860152506138f48282613845565b95945050505050565b602081526000611d416020830184613845565b6000806040838503121561392357600080fd5b823561392e816135dc565b915060208301356137ba816135dc565b600181811c9082168061395257607f821691505b6020821081141561397357634e487b7160e01b600052602260045260246000fd5b50919050565b634e487b7160e01b600052601160045260246000fd5b60006000198214156139a3576139a3613979565b5060010190565b6001600160a01b0392831681529116602082015260400190565b6000602082840312156139d657600080fd5b8151611d418161377e565b60008160001904831182151516156139fb576139fb613979565b500290565b634e487b7160e01b600052601260045260246000fd5b600082613a2557613a25613a00565b500490565b600082613a3957613a39613a00565b500690565b634e487b7160e01b600052603260045260246000fd5b600060208284031215613a6657600080fd5b8151611d41816135dc565b60008351613a83818460208801613477565b835190830190613a97818360208801613477565b01949350505050565b6020808252602e908201527f4552433732313a2063616c6c6572206973206e6f7420746f6b656e206f776e6560408201526d1c881b9bdc88185c1c1c9bdd995960921b606082015260800190565b6020808252602b908201527f496e697469616c697a61626c653a20636f6e7472616374206973206e6f74206960408201526a6e697469616c697a696e6760a81b606082015260800190565b600082821015613b4b57613b4b613979565b500390565b60008219821115613b6357613b63613979565b500190565b60208082526032908201527f4552433732313a207472616e7366657220746f206e6f6e20455243373231526560408201527131b2b4bb32b91034b6b83632b6b2b73a32b960711b606082015260800190565b6001600160a01b0385811682528416602082015260408101839052608060608201819052600090613bed908301846134a3565b9695505050505050565b600060208284031215613c0957600080fd5b8151611d418161344456fea2646970667358221220b79aa82f86981aaa6ac1870d993c12c997543040c8762d1ffb10905cbf7a40e464736f6c634300080c0033",
  "linkReferences": {},
  "deployedLinkReferences": {}
}