{
  "_format": "hh-sol-artifact-1",
  "contractName": "GenerativeNFT2",
  "sourceName": "contracts/nft/GenerativeNFT2.sol",
  "abi": [
    {
      "inputs": [
        {
          "internalType": "string",
          "name": "name",
          "type": "string"
        },
        {
          "internalType": "string",
          "name": "symbol",
          "type": "string"
        },
        {
          "internalType": "address",
          "name": "admin",
          "type": "address"
        }
      ],
      "stateMutability": "nonpayable",
      "type": "constructor"
    },
    {
      "anonymous": false,
      "inputs": [
        {
          "indexed": true,
          "internalType": "address",
          "name": "owner",
          "type": "address"
        },
        {
          "indexed": true,
          "internalType": "address",
          "name": "approved",
          "type": "address"
        },
        {
          "indexed": true,
          "internalType": "uint256",
          "name": "tokenId",
          "type": "uint256"
        }
      ],
      "name": "Approval",
      "type": "event"
    },
    {
      "anonymous": false,
      "inputs": [
        {
          "indexed": true,
          "internalType": "address",
          "name": "owner",
          "type": "address"
        },
        {
          "indexed": true,
          "internalType": "address",
          "name": "operator",
          "type": "address"
        },
        {
          "indexed": false,
          "internalType": "bool",
          "name": "approved",
          "type": "bool"
        }
      ],
      "name": "ApprovalForAll",
      "type": "event"
    },
    {
      "anonymous": false,
      "inputs": [
        {
          "indexed": true,
          "internalType": "address",
          "name": "previousOwner",
          "type": "address"
        },
        {
          "indexed": true,
          "internalType": "address",
          "name": "newOwner",
          "type": "address"
        }
      ],
      "name": "OwnershipTransferred",
      "type": "event"
    },
    {
      "anonymous": false,
      "inputs": [
        {
          "indexed": false,
          "internalType": "address",
          "name": "account",
          "type": "address"
        }
      ],
      "name": "Paused",
      "type": "event"
    },
    {
      "anonymous": false,
      "inputs": [
        {
          "indexed": true,
          "internalType": "address",
          "name": "from",
          "type": "address"
        },
        {
          "indexed": true,
          "internalType": "address",
          "name": "to",
          "type": "address"
        },
        {
          "indexed": true,
          "internalType": "uint256",
          "name": "tokenId",
          "type": "uint256"
        }
      ],
      "name": "Transfer",
      "type": "event"
    },
    {
      "anonymous": false,
      "inputs": [
        {
          "indexed": false,
          "internalType": "address",
          "name": "account",
          "type": "address"
        }
      ],
      "name": "Unpaused",
      "type": "event"
    },
    {
      "inputs": [],
      "name": "_admin",
      "outputs": [
        {
          "internalType": "address",
          "name": "",
          "type": "address"
        }
      ],
      "stateMutability": "view",
      "type": "function"
    },
    {
      "inputs": [],
      "name": "_boilerplateAddr",
      "outputs": [
        {
          "internalType": "address",
          "name": "",
          "type": "address"
        }
      ],
      "stateMutability": "view",
      "type": "function"
    },
    {
      "inputs": [],
      "name": "_boilerplateId",
      "outputs": [
        {
          "internalType": "uint256",
          "name": "",
          "type": "uint256"
        }
      ],
      "stateMutability": "view",
      "type": "function"
    },
    {
      "inputs": [],
      "name": "_creator",
      "outputs": [
        {
          "internalType": "address",
          "name": "",
          "type": "address"
        }
      ],
      "stateMutability": "view",
      "type": "function"
    },
    {
      "inputs": [],
      "name": "_fee",
      "outputs": [
        {
          "internalType": "uint256",
          "name": "",
          "type": "uint256"
        }
      ],
      "stateMutability": "view",
      "type": "function"
    },
    {
      "inputs": [],
      "name": "_feeToken",
      "outputs": [
        {
          "internalType": "address",
          "name": "",
          "type": "address"
        }
      ],
      "stateMutability": "view",
      "type": "function"
    },
    {
      "inputs": [],
      "name": "_limit",
      "outputs": [
        {
          "internalType": "uint256",
          "name": "",
          "type": "uint256"
        }
      ],
      "stateMutability": "view",
      "type": "function"
    },
    {
      "inputs": [],
      "name": "_max",
      "outputs": [
        {
          "internalType": "uint256",
          "name": "",
          "type": "uint256"
        }
      ],
      "stateMutability": "view",
      "type": "function"
    },
    {
      "inputs": [],
      "name": "_paramsAddress",
      "outputs": [
        {
          "internalType": "address",
          "name": "",
          "type": "address"
        }
      ],
      "stateMutability": "view",
      "type": "function"
    },
    {
      "inputs": [
        {
          "internalType": "address",
          "name": "to",
          "type": "address"
        },
        {
          "internalType": "uint256",
          "name": "tokenId",
          "type": "uint256"
        }
      ],
      "name": "approve",
      "outputs": [],
      "stateMutability": "nonpayable",
      "type": "function"
    },
    {
      "inputs": [
        {
          "internalType": "address",
          "name": "owner",
          "type": "address"
        }
      ],
      "name": "balanceOf",
      "outputs": [
        {
          "internalType": "uint256",
          "name": "",
          "type": "uint256"
        }
      ],
      "stateMutability": "view",
      "type": "function"
    },
    {
      "inputs": [
        {
          "internalType": "address",
          "name": "_newAdmin",
          "type": "address"
        }
      ],
      "name": "changeAdmin",
      "outputs": [],
      "stateMutability": "nonpayable",
      "type": "function"
    },
    {
      "inputs": [
        {
          "internalType": "string",
          "name": "baseURI",
          "type": "string"
        }
      ],
      "name": "changeBaseURI",
      "outputs": [],
      "stateMutability": "nonpayable",
      "type": "function"
    },
    {
      "inputs": [
        {
          "internalType": "address",
          "name": "newBoilerplate",
          "type": "address"
        },
        {
          "internalType": "uint256",
          "name": "newBoilerplateId",
          "type": "uint256"
        }
      ],
      "name": "changeBoilerplate",
      "outputs": [],
      "stateMutability": "nonpayable",
      "type": "function"
    },
    {
      "inputs": [
        {
          "internalType": "uint256",
          "name": "tokenId",
          "type": "uint256"
        }
      ],
      "name": "getApproved",
      "outputs": [
        {
          "internalType": "address",
          "name": "",
          "type": "address"
        }
      ],
      "stateMutability": "view",
      "type": "function"
    },
    {
      "inputs": [
        {
          "internalType": "uint256",
          "name": "tokenId",
          "type": "uint256"
        }
      ],
      "name": "getParamValues",
      "outputs": [
        {
          "internalType": "bytes32",
          "name": "",
          "type": "bytes32"
        },
        {
          "components": [
            {
              "internalType": "uint8",
              "name": "_typeValue",
              "type": "uint8"
            },
            {
              "internalType": "uint256",
              "name": "_max",
              "type": "uint256"
            },
            {
              "internalType": "uint256",
              "name": "_min",
              "type": "uint256"
            },
            {
              "internalType": "uint8",
              "name": "_decimal",
              "type": "uint8"
            },
            {
              "internalType": "string[]",
              "name": "_availableValues",
              "type": "string[]"
            },
            {
              "internalType": "uint256",
              "name": "_value",
              "type": "uint256"
            },
            {
              "internalType": "bool",
              "name": "_editable",
              "type": "bool"
            }
          ],
          "internalType": "struct BoilerplateParam.ParamTemplate[]",
          "name": "",
          "type": "tuple[]"
        }
      ],
      "stateMutability": "view",
      "type": "function"
    },
    {
      "inputs": [
        {
          "internalType": "uint256",
          "name": "tokenId",
          "type": "uint256"
        }
      ],
      "name": "getTokenTraits",
      "outputs": [
        {
          "components": [
            {
              "internalType": "string",
              "name": "name",
              "type": "string"
            },
            {
              "internalType": "string[]",
              "name": "_availableValues",
              "type": "string[]"
            },
            {
              "internalType": "uint256",
              "name": "_value",
              "type": "uint256"
            },
            {
              "internalType": "string",
              "name": "_valueStr",
              "type": "string"
            }
          ],
          "internalType": "struct TraitInfo.Trait[]",
          "name": "",
          "type": "tuple[]"
        }
      ],
      "stateMutability": "view",
      "type": "function"
    },
    {
      "inputs": [],
      "name": "getTraits",
      "outputs": [
        {
          "components": [
            {
              "internalType": "string",
              "name": "name",
              "type": "string"
            },
            {
              "internalType": "string[]",
              "name": "_availableValues",
              "type": "string[]"
            },
            {
              "internalType": "uint256",
              "name": "_value",
              "type": "uint256"
            },
            {
              "internalType": "string",
              "name": "_valueStr",
              "type": "string"
            }
          ],
          "internalType": "struct TraitInfo.Trait[]",
          "name": "",
          "type": "tuple[]"
        }
      ],
      "stateMutability": "view",
      "type": "function"
    },
    {
      "inputs": [
        {
          "components": [
            {
              "internalType": "string",
              "name": "_name",
              "type": "string"
            },
            {
              "internalType": "string",
              "name": "_symbol",
              "type": "string"
            },
            {
              "internalType": "string",
              "name": "_uri",
              "type": "string"
            },
            {
              "internalType": "address",
              "name": "_admin",
              "type": "address"
            },
            {
              "internalType": "uint256",
              "name": "_max",
              "type": "uint256"
            },
            {
              "internalType": "uint256",
              "name": "_limit",
              "type": "uint256"
            },
            {
              "internalType": "uint256",
              "name": "_projectId",
              "type": "uint256"
            },
            {
              "internalType": "uint256",
              "name": "_fee",
              "type": "uint256"
            },
            {
              "internalType": "address",
              "name": "_feeToken",
              "type": "address"
            },
            {
              "internalType": "address",
              "name": "_creator",
              "type": "address"
            },
            {
              "internalType": "address",
              "name": "_paramsAddress",
              "type": "address"
            }
          ],
          "internalType": "struct BoilerplateParam.InitMinterNFTInfo",
          "name": "p",
          "type": "tuple"
        }
      ],
      "name": "init",
      "outputs": [],
      "stateMutability": "nonpayable",
      "type": "function"
    },
    {
      "inputs": [
        {
          "internalType": "address",
          "name": "owner",
          "type": "address"
        },
        {
          "internalType": "address",
          "name": "operator",
          "type": "address"
        }
      ],
      "name": "isApprovedForAll",
      "outputs": [
        {
          "internalType": "bool",
          "name": "",
          "type": "bool"
        }
      ],
      "stateMutability": "view",
      "type": "function"
    },
    {
      "inputs": [],
      "name": "mint",
      "outputs": [],
      "stateMutability": "nonpayable",
      "type": "function"
    },
    {
      "inputs": [],
      "name": "n",
      "outputs": [
        {
          "internalType": "uint256",
          "name": "",
          "type": "uint256"
        }
      ],
      "stateMutability": "view",
      "type": "function"
    },
    {
      "inputs": [],
      "name": "name",
      "outputs": [
        {
          "internalType": "string",
          "name": "",
          "type": "string"
        }
      ],
      "stateMutability": "view",
      "type": "function"
    },
    {
      "inputs": [],
      "name": "owner",
      "outputs": [
        {
          "internalType": "address",
          "name": "",
          "type": "address"
        }
      ],
      "stateMutability": "view",
      "type": "function"
    },
    {
      "inputs": [
        {
          "internalType": "uint256",
          "name": "tokenId",
          "type": "uint256"
        }
      ],
      "name": "ownerMint",
      "outputs": [],
      "stateMutability": "nonpayable",
      "type": "function"
    },
    {
      "inputs": [
        {
          "internalType": "uint256",
          "name": "tokenId",
          "type": "uint256"
        }
      ],
      "name": "ownerOf",
      "outputs": [
        {
          "internalType": "address",
          "name": "",
          "type": "address"
        }
      ],
      "stateMutability": "view",
      "type": "function"
    },
    {
      "inputs": [],
      "name": "pause",
      "outputs": [],
      "stateMutability": "nonpayable",
      "type": "function"
    },
    {
      "inputs": [],
      "name": "paused",
      "outputs": [
        {
          "internalType": "bool",
          "name": "",
          "type": "bool"
        }
      ],
      "stateMutability": "view",
      "type": "function"
    },
    {
      "inputs": [],
      "name": "renounceOwnership",
      "outputs": [],
      "stateMutability": "nonpayable",
      "type": "function"
    },
    {
      "inputs": [
        {
          "internalType": "uint256",
          "name": "_tokenId",
          "type": "uint256"
        },
        {
          "internalType": "uint256",
          "name": "_salePrice",
          "type": "uint256"
        }
      ],
      "name": "royaltyInfo",
      "outputs": [
        {
          "internalType": "address",
          "name": "receiver",
          "type": "address"
        },
        {
          "internalType": "uint256",
          "name": "royaltyAmount",
          "type": "uint256"
        }
      ],
      "stateMutability": "view",
      "type": "function"
    },
    {
      "inputs": [
        {
          "internalType": "address",
          "name": "from",
          "type": "address"
        },
        {
          "internalType": "address",
          "name": "to",
          "type": "address"
        },
        {
          "internalType": "uint256",
          "name": "tokenId",
          "type": "uint256"
        }
      ],
      "name": "safeTransferFrom",
      "outputs": [],
      "stateMutability": "nonpayable",
      "type": "function"
    },
    {
      "inputs": [
        {
          "internalType": "address",
          "name": "from",
          "type": "address"
        },
        {
          "internalType": "address",
          "name": "to",
          "type": "address"
        },
        {
          "internalType": "uint256",
          "name": "tokenId",
          "type": "uint256"
        },
        {
          "internalType": "bytes",
          "name": "data",
          "type": "bytes"
        }
      ],
      "name": "safeTransferFrom",
      "outputs": [],
      "stateMutability": "nonpayable",
      "type": "function"
    },
    {
      "inputs": [
        {
          "internalType": "address",
          "name": "operator",
          "type": "address"
        },
        {
          "internalType": "bool",
          "name": "approved",
          "type": "bool"
        }
      ],
      "name": "setApprovalForAll",
      "outputs": [],
      "stateMutability": "nonpayable",
      "type": "function"
    },
    {
      "inputs": [
        {
          "internalType": "bytes4",
          "name": "interfaceId",
          "type": "bytes4"
        }
      ],
      "name": "supportsInterface",
      "outputs": [
        {
          "internalType": "bool",
          "name": "",
          "type": "bool"
        }
      ],
      "stateMutability": "view",
      "type": "function"
    },
    {
      "inputs": [],
      "name": "symbol",
      "outputs": [
        {
          "internalType": "string",
          "name": "",
          "type": "string"
        }
      ],
      "stateMutability": "view",
      "type": "function"
    },
    {
      "inputs": [
        {
          "internalType": "uint256",
          "name": "_tokenId",
          "type": "uint256"
        }
      ],
      "name": "tokenURI",
      "outputs": [
        {
          "internalType": "string",
          "name": "",
          "type": "string"
        }
      ],
      "stateMutability": "view",
      "type": "function"
    },
    {
      "inputs": [
        {
          "internalType": "address",
          "name": "from",
          "type": "address"
        },
        {
          "internalType": "address",
          "name": "to",
          "type": "address"
        },
        {
          "internalType": "uint256",
          "name": "tokenId",
          "type": "uint256"
        }
      ],
      "name": "transferFrom",
      "outputs": [],
      "stateMutability": "nonpayable",
      "type": "function"
    },
    {
      "inputs": [
        {
          "internalType": "address",
          "name": "newOwner",
          "type": "address"
        }
      ],
      "name": "transferOwnership",
      "outputs": [],
      "stateMutability": "nonpayable",
      "type": "function"
    },
    {
      "inputs": [],
      "name": "unpause",
      "outputs": [],
      "stateMutability": "nonpayable",
      "type": "function"
    },
    {
      "inputs": [
        {
          "components": [
            {
              "components": [
                {
                  "internalType": "string",
                  "name": "name",
                  "type": "string"
                },
                {
                  "internalType": "string[]",
                  "name": "_availableValues",
                  "type": "string[]"
                },
                {
                  "internalType": "uint256",
                  "name": "_value",
                  "type": "uint256"
                },
                {
                  "internalType": "string",
                  "name": "_valueStr",
                  "type": "string"
                }
              ],
              "internalType": "struct TraitInfo.Trait[]",
              "name": "_traits",
              "type": "tuple[]"
            }
          ],
          "internalType": "struct TraitInfo.Traits",
          "name": "traits",
          "type": "tuple"
        }
      ],
      "name": "updateTraits",
      "outputs": [],
      "stateMutability": "nonpayable",
      "type": "function"
    }
  ],
  "bytecode": "0x60806040523480156200001157600080fd5b5060405162003c3738038062003c3783398101604081905262000034916200026e565b8251839083906200004d906000906020850190620000fb565b50805162000063906001906020840190620000fb565b50506006805460ff191690555060016007556200008033620000a9565b600980546001600160a01b0319166001600160a01b039290921691909117905550620003389050565b600880546001600160a01b038381166001600160a01b0319831681179093556040519116919082907f8be0079c531659141344cd1fd0a4f28419497f9722a3daafe3b4186f6b6457e090600090a35050565b8280546200010990620002fb565b90600052602060002090601f0160209004810192826200012d576000855562000178565b82601f106200014857805160ff191683800117855562000178565b8280016001018555821562000178579182015b82811115620001785782518255916020019190600101906200015b565b50620001869291506200018a565b5090565b5b808211156200018657600081556001016200018b565b634e487b7160e01b600052604160045260246000fd5b600082601f830112620001c957600080fd5b81516001600160401b0380821115620001e657620001e6620001a1565b604051601f8301601f19908116603f01168101908282118183101715620002115762000211620001a1565b816040528381526020925086838588010111156200022e57600080fd5b600091505b8382101562000252578582018301518183018401529082019062000233565b83821115620002645760008385830101525b9695505050505050565b6000806000606084860312156200028457600080fd5b83516001600160401b03808211156200029c57600080fd5b620002aa87838801620001b7565b94506020860151915080821115620002c157600080fd5b50620002d086828701620001b7565b604086015190935090506001600160a01b0381168114620002f057600080fd5b809150509250925092565b600181811c908216806200031057607f821691505b602082108114156200033257634e487b7160e01b600052602260045260246000fd5b50919050565b6138ef80620003486000396000f3fe608060405234801561001057600080fd5b50600436106102485760003560e01c80637f0429ef1161013b578063b88d4fde116100b8578063df2fb92c1161007c578063df2fb92c146104eb578063e985e9c5146104f4578063f19e75d414610530578063f2fde38b14610543578063f9ecc22c1461055657600080fd5b8063b88d4fde14610488578063bc8bde641461049b578063c0dca239146104ae578063c5b37c22146104cf578063c87b56dd146104d857600080fd5b806394e56847116100ff57806394e568471461043457806395d89b4114610447578063a22cb4651461044f578063ab1ca97914610462578063adfc7dae1461047557600080fd5b80637f0429ef146103e057806381d22564146103f55780638456cb59146104085780638da5cb5b146104105780638f2839701461042157600080fd5b806339a0c6f9116101c9578063531f7b531161018d578063531f7b531461039e5780635c975abb146103a75780636352211e146103b257806370a08231146103c5578063715018a6146103d857600080fd5b806339a0c6f91461034a5780633f4ba83a1461035d57806342842e0e14610365578063456c9504146103785780634828eccc1461038b57600080fd5b80631249c58b116102105780631249c58b146102dd57806314506524146102e557806323b872dd146102fc5780632a55205a1461030f5780632e52d6061461034157600080fd5b806301bc45c91461024d57806301ffc9a71461027d57806306fdde03146102a0578063081812fc146102b5578063095ea7b3146102c8575b600080fd5b600954610260906001600160a01b031681565b6040516001600160a01b0390911681526020015b60405180910390f35b61029061028b36600461287c565b610569565b6040519015158152602001610274565b6102a86105bb565b60405161027491906128f1565b6102606102c3366004612904565b61064d565b6102db6102d6366004612939565b610674565b005b6102db61078f565b6102ee60115481565b604051908152602001610274565b6102db61030a366004612963565b610883565b61032261031d36600461299f565b6108b4565b604080516001600160a01b039093168352602083019190915201610274565b6102ee60105481565b6102db610358366004612ad7565b6108e4565b6102db61092e565b6102db610373366004612963565b61097d565b6102db610386366004612939565b610998565b601454610260906001600160a01b031681565b6102ee600b5481565b60065460ff16610290565b6102606103c0366004612904565b610a33565b6102ee6103d3366004612b0b565b610a93565b6102db610b19565b6103e8610b2b565b6040516102749190612b7b565b6102db610403366004612c27565b610d94565b6102db610dff565b6009546001600160a01b0316610260565b6102db61042f366004612b0b565b610e4e565b6103e8610442366004612904565b610ee5565b6102a8611298565b6102db61045d366004612c6f565b6112a7565b6102db610470366004612ca6565b6112b2565b601654610260906001600160a01b031681565b6102db610496366004612dd2565b61140f565b601554610260906001600160a01b031681565b6104c16104bc366004612904565b611447565b604051610274929190612e4d565b6102ee60135481565b6102a86104e6366004612904565b611688565b6102ee60125481565b610290610502366004612f07565b6001600160a01b03918216600090815260056020908152604080832093909416825291909152205460ff1690565b6102db61053e366004612904565b6116e6565b6102db610551366004612b0b565b6117cc565b600a54610260906001600160a01b031681565b60006001600160e01b031982166380ac58cd60e01b148061059a57506001600160e01b03198216635b5e139f60e01b145b806105b557506301ffc9a760e01b6001600160e01b03198316145b92915050565b6060600d80546105ca90612f31565b80601f01602080910402602001604051908101604052809291908181526020018280546105f690612f31565b80156106435780601f1061061857610100808354040283529160200191610643565b820191906000526020600020905b81548152906001019060200180831161062657829003601f168201915b5050505050905090565b600061065882611842565b506000908152600460205260409020546001600160a01b031690565b600061067f82610a33565b9050806001600160a01b0316836001600160a01b031614156106f25760405162461bcd60e51b815260206004820152602160248201527f4552433732313a20617070726f76616c20746f2063757272656e74206f776e656044820152603960f91b60648201526084015b60405180910390fd5b336001600160a01b038216148061070e575061070e8133610502565b6107805760405162461bcd60e51b815260206004820152603e60248201527f4552433732313a20617070726f76652063616c6c6572206973206e6f7420746f60448201527f6b656e206f776e6572206e6f7220617070726f76656420666f7220616c6c000060648201526084016106e9565b61078a83836118a1565b505050565b600a5460408051808201909152600381526206460760eb1b6020820152906001600160a01b03166107d35760405162461bcd60e51b81526004016106e991906128f1565b506000600b54116040518060400160405280600381526020016219181960e91b815250906108145760405162461bcd60e51b81526004016106e991906128f1565b5061081d61190f565b6010805490600061082d83612f82565b919050555060125460105411156040518060400160405280600381526020016232303360e81b815250906108745760405162461bcd60e51b81526004016106e991906128f1565b5061088133601054611cd2565b565b61088d3382611cec565b6108a95760405162461bcd60e51b81526004016106e990612f9d565b61078a838383611d6b565b6009546001600160a01b031660006127106108d1846101f4612feb565b6108db9190613020565b90509250929050565b6009546001600160a01b0316336001600160a01b0316146109175760405162461bcd60e51b81526004016106e990613034565b805161092a90600f9060208401906127cd565b5050565b60095460408051808201909152600381526231303160e81b6020820152906001600160a01b031633146109745760405162461bcd60e51b81526004016106e991906128f1565b50610881611f12565b61078a8383836040518060200160405280600081525061140f565b6009546001600160a01b0316336001600160a01b0316146109cb5760405162461bcd60e51b81526004016106e990613034565b60408051808201909152600381526203130360ec1b60208201526001600160a01b038316610a0c5760405162461bcd60e51b81526004016106e991906128f1565b50600a80546001600160a01b0319166001600160a01b039390931692909217909155600b55565b6000818152600260205260408120546001600160a01b0316806105b55760405162461bcd60e51b8152602060048201526018602482015277115490cdcc8c4e881a5b9d985b1a59081d1bdad95b88125160421b60448201526064016106e9565b60006001600160a01b038216610afd5760405162461bcd60e51b815260206004820152602960248201527f4552433732313a2061646472657373207a65726f206973206e6f7420612076616044820152683634b21037bbb732b960b91b60648201526084016106e9565b506001600160a01b031660009081526003602052604090205490565b610b21611f64565b6108816000611fe2565b6060600c600001805480602002602001604051908101604052809291908181526020016000905b82821015610d8b5783829060005260206000209060040201604051806080016040529081600082018054610b8590612f31565b80601f0160208091040260200160405190810160405280929190818152602001828054610bb190612f31565b8015610bfe5780601f10610bd357610100808354040283529160200191610bfe565b820191906000526020600020905b815481529060010190602001808311610be157829003601f168201915b5050505050815260200160018201805480602002602001604051908101604052809291908181526020016000905b82821015610cd8578382906000526020600020018054610c4b90612f31565b80601f0160208091040260200160405190810160405280929190818152602001828054610c7790612f31565b8015610cc45780601f10610c9957610100808354040283529160200191610cc4565b820191906000526020600020905b815481529060010190602001808311610ca757829003601f168201915b505050505081526020019060010190610c2c565b50505050815260200160028201548152602001600382018054610cfa90612f31565b80601f0160208091040260200160405190810160405280929190818152602001828054610d2690612f31565b8015610d735780601f10610d4857610100808354040283529160200191610d73565b820191906000526020600020905b815481529060010190602001808311610d5657829003601f168201915b50505050508152505081526020019060010190610b52565b50505050905090565b6009546001600160a01b0316331480610db75750600a546001600160a01b031633145b6040518060400160405280600381526020016231303160e81b81525090610df15760405162461bcd60e51b81526004016106e991906128f1565b5080600c61078a8282613392565b60095460408051808201909152600381526231303160e81b6020820152906001600160a01b03163314610e455760405162461bcd60e51b81526004016106e991906128f1565b50610881612034565b6009546001600160a01b0316336001600160a01b031614610e815760405162461bcd60e51b81526004016106e990613034565b60408051808201909152600381526203130360ec1b60208201526001600160a01b038216610ec25760405162461bcd60e51b81526004016106e991906128f1565b50600980546001600160a01b0319166001600160a01b0392909216919091179055565b6060600080610ef384611447565b915091506000600c600001805480602002602001604051908101604052809291908181526020016000905b828210156111575783829060005260206000209060040201604051806080016040529081600082018054610f5190612f31565b80601f0160208091040260200160405190810160405280929190818152602001828054610f7d90612f31565b8015610fca5780601f10610f9f57610100808354040283529160200191610fca565b820191906000526020600020905b815481529060010190602001808311610fad57829003601f168201915b5050505050815260200160018201805480602002602001604051908101604052809291908181526020016000905b828210156110a457838290600052602060002001805461101790612f31565b80601f016020809104026020016040519081016040528092919081815260200182805461104390612f31565b80156110905780601f1061106557610100808354040283529160200191611090565b820191906000526020600020905b81548152906001019060200180831161107357829003601f168201915b505050505081526020019060010190610ff8565b505050508152602001600282015481526020016003820180546110c690612f31565b80601f01602080910402602001604051908101604052809291908181526020018280546110f290612f31565b801561113f5780601f106111145761010080835404028352916020019161113f565b820191906000526020600020905b81548152906001019060200180831161112257829003601f168201915b50505050508152505081526020019060010190610f1e565b505050509050815181511461116e57949350505050565b60005b82518160ff16101561128f576000838260ff168151811061119457611194613489565b602002602001015160a0015190506000838360ff16815181106111b9576111b9613489565b60200260200101516020015151111561125557828260ff16815181106111e1576111e1613489565b60200260200101516020015181815181106111fe576111fe613489565b6020026020010151838360ff168151811061121b5761121b613489565b60200260200101516060018190525080838360ff168151811061124057611240613489565b6020026020010151604001818152505061127c565b80838360ff168151811061126b5761126b613489565b602002602001015160400181815250505b50806112878161349f565b915050611171565b50949350505050565b6060600e80546105ca90612f31565b61092a338383612071565b60608101516001600160a01b03166112f65760405162461bcd60e51b815260206004820152600760248201526612539597d0511160ca1b60448201526064016106e9565b600b54156113305760405162461bcd60e51b815260206004820152600760248201526611561254d5115160ca1b60448201526064016106e9565b8051805161134691600d916020909101906127cd565b50602080820151805161135d92600e9201906127cd565b506040810151805161137791600f916020909101906127cd565b50600a8054336001600160a01b03199182161790915560c0820151600b55608082015160115560a082015160125560e08201516013556101008201516014805483166001600160a01b0392831617905560608301516009805484168284161790556101208401516015805485169184169190911790556101408401516016805490941692169190911790915561140c906117cc565b50565b6114193383611cec565b6114355760405162461bcd60e51b81526004016106e990612f9d565b61144184848484612140565b50505050565b600a54600b54604051631389a8ab60e21b81526000926060926001600160a01b039091169184918391634e26a2ac916114869160040190815260200190565b600060405180830381865afa1580156114a3573d6000803e3d6000fd5b505050506040513d6000823e601f3d908101601f191682016040526114cb91908101906135c4565b905060006114d886612173565b6040516020016114e891906136fc565b60408051601f19818403018152919052805160209091012090508060005b835181101561167b5783818151811061152157611521613489565b602002602001015160c001516115f25783818151811061154357611543613489565b60200260200101516080015151600014156115c7576115a08260001c85838151811061157157611571613489565b60200260200101516040015186848151811061158f5761158f613489565b602002602001015160200151612270565b8482815181106115b2576115b2613489565b602002602001015160a0018181525050611617565b6115a08260001c8583815181106115e0576115e0613489565b6020026020010151608001515161229b565b600084828151811061160657611606613489565b602002602001015160a00181815250505b8184828151811061162a5761162a613489565b602002602001015160a00151604051602001611650929190918252602082015260400190565b604051602081830303815290604052805190602001209150808061167390612f82565b915050611506565b5096919550909350505050565b60606116926122ae565b600a546116a9906001600160a01b031660146122bd565b6116b4600b54612173565b6116bd85612173565b6040516020016116d0949392919061370e565b6040516020818303038152906040529050919050565b600a5460408051808201909152600381526206460760eb1b6020820152906001600160a01b031661172a5760405162461bcd60e51b81526004016106e991906128f1565b506000600b54116040518060400160405280600381526020016219181960e91b8152509061176b5760405162461bcd60e51b81526004016106e991906128f1565b506012548111801561177f57506011548111155b6040518060400160405280600381526020016232303360e81b815250906117b95760405162461bcd60e51b81526004016106e991906128f1565b506117c261190f565b61140c3382611cd2565b6117d4611f64565b6001600160a01b0381166118395760405162461bcd60e51b815260206004820152602660248201527f4f776e61626c653a206e6577206f776e657220697320746865207a65726f206160448201526564647265737360d01b60648201526084016106e9565b61140c81611fe2565b6000818152600260205260409020546001600160a01b031661140c5760405162461bcd60e51b8152602060048201526018602482015277115490cdcc8c4e881a5b9d985b1a59081d1bdad95b88125160421b60448201526064016106e9565b600081815260046020526040902080546001600160a01b0319166001600160a01b03841690811790915581906118d682610a33565b6001600160a01b03167f8c5be1e5ebec7d5bd14f71427d1e84f3dd0314c0f7b2291e5b200ac8c7c3b92560405160405180910390a45050565b6015546001600160a01b03163314610881576016546001600160a01b03166101f481156119c657604080518082018252600c81526b4d494e545f4e46545f46454560a01b60208201529051636d12dce160e01b81526001600160a01b03841691636d12dce19161198291906004016128f1565b602060405180830381865afa15801561199f573d6000803e3d6000fd5b505050506040513d601f19601f820116820180604052508101906119c3919061377d565b90505b6014546001600160a01b0316611ae3576013543410156119e557600080fd5b6015546013546000916001600160a01b03169061271090611a07908590612feb565b611a119190613020565b601354611a1e9190613796565b604051600081818185875af1925050503d8060008114611a5a576040519150601f19603f3d011682016040523d82523d6000602084013e611a5f565b606091505b5050905080611a6d57600080fd5b600a546013546001600160a01b039091169061271090611a8e908590612feb565b611a989190613020565b604051600081818185875af1925050503d8060008114611ad4576040519150601f19603f3d011682016040523d82523d6000602084013e611ad9565b606091505b5061092a92505050565b6014546013546040516323b872dd60e01b815233600482015230602482015260448101919091526001600160a01b039091169081906323b872dd906064016020604051808303816000875af1158015611b40573d6000803e3d6000fd5b505050506040513d601f19601f82011682018060405250810190611b6491906137ad565b611b6d57600080fd5b6015546013546001600160a01b038084169263a9059cbb9291169061271090611b97908790612feb565b611ba19190613020565b601354611bae9190613796565b6040516001600160e01b031960e085901b1681526001600160a01b03909216600483015260248201526044016020604051808303816000875af1158015611bf9573d6000803e3d6000fd5b505050506040513d601f19601f82011682018060405250810190611c1d91906137ad565b611c2657600080fd5b6015546013546001600160a01b038084169263a9059cbb9291169061271090611c50908790612feb565b611c5a9190613020565b6040516001600160e01b031960e085901b1681526001600160a01b03909216600483015260248201526044016020604051808303816000875af1158015611ca5573d6000803e3d6000fd5b505050506040513d601f19601f82011682018060405250810190611cc991906137ad565b61078a57600080fd5b61092a828260405180602001604052806000815250612458565b600080611cf883610a33565b9050806001600160a01b0316846001600160a01b03161480611d3f57506001600160a01b0380821660009081526005602090815260408083209388168352929052205460ff165b80611d635750836001600160a01b0316611d588461064d565b6001600160a01b0316145b949350505050565b826001600160a01b0316611d7e82610a33565b6001600160a01b031614611de25760405162461bcd60e51b815260206004820152602560248201527f4552433732313a207472616e736665722066726f6d20696e636f72726563742060448201526437bbb732b960d91b60648201526084016106e9565b6001600160a01b038216611e445760405162461bcd60e51b8152602060048201526024808201527f4552433732313a207472616e7366657220746f20746865207a65726f206164646044820152637265737360e01b60648201526084016106e9565b611e4f83838361248b565b611e5a6000826118a1565b6001600160a01b0383166000908152600360205260408120805460019290611e83908490613796565b90915550506001600160a01b0382166000908152600360205260408120805460019290611eb19084906137ca565b909155505060008181526002602052604080822080546001600160a01b0319166001600160a01b0386811691821790925591518493918716917fddf252ad1be2c89b69c2b068fc378daa952ba7f163c4a11628f55a4df523b3ef91a4505050565b611f1a6124f2565b6006805460ff191690557f5db9ee0a495bf2e6ff9c91a7834c1ba4fdd244a5e8aa4e537bd38aeae4b073aa335b6040516001600160a01b03909116815260200160405180910390a1565b33611f776009546001600160a01b031690565b6001600160a01b03161480611f965750600a546001600160a01b031633145b6108815760405162461bcd60e51b815260206004820181905260248201527f4f776e61626c653a2063616c6c6572206973206e6f7420746865206f776e657260448201526064016106e9565b600880546001600160a01b038381166001600160a01b0319831681179093556040519116919082907f8be0079c531659141344cd1fd0a4f28419497f9722a3daafe3b4186f6b6457e090600090a35050565b61203c61253b565b6006805460ff191660011790557f62e78cea01bee320cd4e420270b5ea74000d11b0c9f74754ebdbfc544b05a258611f473390565b816001600160a01b0316836001600160a01b031614156120d35760405162461bcd60e51b815260206004820152601960248201527f4552433732313a20617070726f766520746f2063616c6c65720000000000000060448201526064016106e9565b6001600160a01b03838116600081815260056020908152604080832094871680845294825291829020805460ff191686151590811790915591519182527f17307eab39ab6107e8899845ad3d59bd9653f200f220920489ca2b5937696c31910160405180910390a3505050565b61214b848484611d6b565b61215784848484612581565b6114415760405162461bcd60e51b81526004016106e9906137e2565b6060816121975750506040805180820190915260018152600360fc1b602082015290565b8160005b81156121c157806121ab81612f82565b91506121ba9050600a83613020565b915061219b565b6000816001600160401b038111156121db576121db6129c1565b6040519080825280601f01601f191660200182016040528015612205576020820181803683370190505b5090505b8415611d635761221a600183613796565b9150612227600a86613834565b6122329060306137ca565b60f81b81838151811061224757612247613489565b60200101906001600160f81b031916908160001a905350612269600a86613020565b9450612209565b600061227c8383613796565b6122879060016137ca565b6122919085613834565b611d6390846137ca565b60006122a78284613834565b9392505050565b6060600f80546105ca90612f31565b606060006122cc836002612feb565b6122d79060026137ca565b6001600160401b038111156122ee576122ee6129c1565b6040519080825280601f01601f191660200182016040528015612318576020820181803683370190505b509050600360fc1b8160008151811061233357612333613489565b60200101906001600160f81b031916908160001a905350600f60fb1b8160018151811061236257612362613489565b60200101906001600160f81b031916908160001a9053506000612386846002612feb565b6123919060016137ca565b90505b6001811115612409576f181899199a1a9b1b9c1cb0b131b232b360811b85600f16601081106123c5576123c5613489565b1a60f81b8282815181106123db576123db613489565b60200101906001600160f81b031916908160001a90535060049490941c9361240281613848565b9050612394565b5083156122a75760405162461bcd60e51b815260206004820181905260248201527f537472696e67733a20686578206c656e67746820696e73756666696369656e7460448201526064016106e9565b612462838361267f565b61246f6000848484612581565b61078a5760405162461bcd60e51b81526004016106e9906137e2565b60065460ff161561078a5760405162461bcd60e51b815260206004820152602b60248201527f4552433732315061757361626c653a20746f6b656e207472616e73666572207760448201526a1a1a5b19481c185d5cd95960aa1b60648201526084016106e9565b60065460ff166108815760405162461bcd60e51b815260206004820152601460248201527314185d5cd8589b194e881b9bdd081c185d5cd95960621b60448201526064016106e9565b60065460ff16156108815760405162461bcd60e51b815260206004820152601060248201526f14185d5cd8589b194e881c185d5cd95960821b60448201526064016106e9565b60006001600160a01b0384163b1561267457604051630a85bd0160e11b81526001600160a01b0385169063150b7a02906125c590339089908890889060040161385f565b6020604051808303816000875af1925050508015612600575060408051601f3d908101601f191682019092526125fd9181019061389c565b60015b61265a573d80801561262e576040519150601f19603f3d011682016040523d82523d6000602084013e612633565b606091505b5080516126525760405162461bcd60e51b81526004016106e9906137e2565b805181602001fd5b6001600160e01b031916630a85bd0160e11b149050611d63565b506001949350505050565b6001600160a01b0382166126d55760405162461bcd60e51b815260206004820181905260248201527f4552433732313a206d696e7420746f20746865207a65726f206164647265737360448201526064016106e9565b6000818152600260205260409020546001600160a01b03161561273a5760405162461bcd60e51b815260206004820152601c60248201527f4552433732313a20746f6b656e20616c7265616479206d696e7465640000000060448201526064016106e9565b6127466000838361248b565b6001600160a01b038216600090815260036020526040812080546001929061276f9084906137ca565b909155505060008181526002602052604080822080546001600160a01b0319166001600160a01b03861690811790915590518392907fddf252ad1be2c89b69c2b068fc378daa952ba7f163c4a11628f55a4df523b3ef908290a45050565b8280546127d990612f31565b90600052602060002090601f0160209004810192826127fb5760008555612841565b82601f1061281457805160ff1916838001178555612841565b82800160010185558215612841579182015b82811115612841578251825591602001919060010190612826565b5061284d929150612851565b5090565b5b8082111561284d5760008155600101612852565b6001600160e01b03198116811461140c57600080fd5b60006020828403121561288e57600080fd5b81356122a781612866565b60005b838110156128b457818101518382015260200161289c565b838111156114415750506000910152565b600081518084526128dd816020860160208601612899565b601f01601f19169290920160200192915050565b6020815260006122a760208301846128c5565b60006020828403121561291657600080fd5b5035919050565b80356001600160a01b038116811461293457600080fd5b919050565b6000806040838503121561294c57600080fd5b6129558361291d565b946020939093013593505050565b60008060006060848603121561297857600080fd5b6129818461291d565b925061298f6020850161291d565b9150604084013590509250925092565b600080604083850312156129b257600080fd5b50508035926020909101359150565b634e487b7160e01b600052604160045260246000fd5b60405161016081016001600160401b03811182821017156129fa576129fa6129c1565b60405290565b60405160e081016001600160401b03811182821017156129fa576129fa6129c1565b604051601f8201601f191681016001600160401b0381118282101715612a4a57612a4a6129c1565b604052919050565b60006001600160401b03821115612a6b57612a6b6129c1565b50601f01601f191660200190565b6000612a8c612a8784612a52565b612a22565b9050828152838383011115612aa057600080fd5b828260208301376000602084830101529392505050565b600082601f830112612ac857600080fd5b6122a783833560208501612a79565b600060208284031215612ae957600080fd5b81356001600160401b03811115612aff57600080fd5b611d6384828501612ab7565b600060208284031215612b1d57600080fd5b6122a78261291d565b600081518084526020808501808196508360051b8101915082860160005b85811015612b6e578284038952612b5c8483516128c5565b98850198935090840190600101612b44565b5091979650505050505050565b60006020808301818452808551808352604092508286019150828160051b87010184880160005b83811015612c1957603f19898403018552815160808151818652612bc8828701826128c5565b915050888201518582038a870152612be08282612b26565b915050878201518886015260608083015192508582038187015250612c0581836128c5565b968901969450505090860190600101612ba2565b509098975050505050505050565b600060208284031215612c3957600080fd5b81356001600160401b03811115612c4f57600080fd5b8201602081850312156122a757600080fd5b801515811461140c57600080fd5b60008060408385031215612c8257600080fd5b612c8b8361291d565b91506020830135612c9b81612c61565b809150509250929050565b600060208284031215612cb857600080fd5b81356001600160401b0380821115612ccf57600080fd5b908301906101608286031215612ce457600080fd5b612cec6129d7565b823582811115612cfb57600080fd5b612d0787828601612ab7565b825250602083013582811115612d1c57600080fd5b612d2887828601612ab7565b602083015250604083013582811115612d4057600080fd5b612d4c87828601612ab7565b604083015250612d5e6060840161291d565b60608201526080830135608082015260a083013560a082015260c083013560c082015260e083013560e08201526101009150612d9b82840161291d565b828201526101209150612daf82840161291d565b828201526101409150612dc382840161291d565b91810191909152949350505050565b60008060008060808587031215612de857600080fd5b612df18561291d565b9350612dff6020860161291d565b92506040850135915060608501356001600160401b03811115612e2157600080fd5b8501601f81018713612e3257600080fd5b612e4187823560208401612a79565b91505092959194509250565b6000604080830185845260208281860152818651808452606093508387019150838160051b88010183890160005b83811015612ef757605f198a8403018552815160e060ff80835116865288830151898701528a8301518b870152808a840151168a870152506080808301518282880152612eca83880182612b26565b60a0858101519089015260c094850151151594909701939093525050509385019390850190600101612e7b565b50909a9950505050505050505050565b60008060408385031215612f1a57600080fd5b612f238361291d565b91506108db6020840161291d565b600181811c90821680612f4557607f821691505b60208210811415612f6657634e487b7160e01b600052602260045260246000fd5b50919050565b634e487b7160e01b600052601160045260246000fd5b6000600019821415612f9657612f96612f6c565b5060010190565b6020808252602e908201527f4552433732313a2063616c6c6572206973206e6f7420746f6b656e206f776e6560408201526d1c881b9bdc88185c1c1c9bdd995960921b606082015260800190565b600081600019048311821515161561300557613005612f6c565b500290565b634e487b7160e01b600052601260045260246000fd5b60008261302f5761302f61300a565b500490565b60208082526012908201527113d3931657d05113525397d0531313d5d15160721b604082015260600190565b6000808335601e1984360301811261307757600080fd5b8301803591506001600160401b0382111561309157600080fd5b6020019150600581901b36038213156130a957600080fd5b9250929050565b60008235607e198336030181126130c657600080fd5b9190910192915050565b5b8181101561092a57600081556001016130d1565b6130ef8154612f31565b801561092a57601f81116001811461310957505060009055565b826000526020600020613127601f840160051c8201600183016130d0565b506020600090812081855555505050565b805460008255801561092a578160005260206000208181015b8082101561144157613162826130e5565b600182019150613151565b6000808335601e1984360301811261318457600080fd5b8301803591506001600160401b0382111561319e57600080fd5b6020019150368190038213156130a957600080fd5b601f82111561078a57806000526020600020601f840160051c810160208510156131da5750805b6131ec601f850160051c8301826130d0565b5050505050565b6001600160401b0383111561320a5761320a6129c1565b61321e836132188354612f31565b836131b3565b6000601f841160018114613252576000851561323a5750838201355b600019600387901b1c1916600186901b1783556131ec565b600083815260209020601f19861690835b828110156132835786850135825560209485019460019092019101613263565b50868210156132a05760001960f88860031b161c19848701351681555b505060018560011b0183555050505050565b6132bc828361316d565b6132c78183856131f3565b5050600180820160206132dc81860186613060565b600160401b8111156132f0576132f06129c1565b8354818555808210156133295760008581528490208281019082015b808210156133265761331d826130e5565b9087019061330c565b50505b50818460005283600020945060005b828110156133665761334a828561316d565b61335581838a6131f3565b505094860194908401908601613338565b5050505050505060408201356002820155613384606083018361316d565b6114418183600386016131f3565b61339c8283613060565b600160401b8111156133b0576133b06129c1565b825481845580821015613442576001600160fe1b0360018183118116156133d9576133d9612f6c565b60028285118216156133ed576133ed612f6c565b60008781526020812090935085821b81019085831b015b8082101561343c57613415826130e5565b613420848301613138565b8483830155613431600383016130e5565b600482019150613404565b50505050505b5060008381526020812083915b838110156134805761346a61346484876130b0565b836132b2565b602092909201916004919091019060010161344f565b50505050505050565b634e487b7160e01b600052603260045260246000fd5b600060ff821660ff8114156134b6576134b6612f6c565b60010192915050565b60006001600160401b038211156134d8576134d86129c1565b5060051b60200190565b805160ff8116811461293457600080fd5b600082601f83011261350457600080fd5b81516020613514612a87836134bf565b82815260059290921b8401810191818101908684111561353357600080fd5b8286015b848110156135ae5780516001600160401b038111156135565760008081fd5b8701603f810189136135685760008081fd5b84810151604061357a612a8783612a52565b8281528b8284860101111561358f5760008081fd5b61359e83898301848701612899565b8652505050918301918301613537565b509695505050505050565b805161293481612c61565b600060208083850312156135d757600080fd5b82516001600160401b03808211156135ee57600080fd5b818501915085601f83011261360257600080fd5b8151613610612a87826134bf565b81815260059190911b8301840190848101908883111561362f57600080fd5b8585015b838110156136ef5780518581111561364a57600080fd5b860160e0818c03601f190112156136615760008081fd5b613669612a00565b6136748983016134e2565b81526040808301518a83015260608084015182840152608091506136998285016134e2565b9083015260a083810151898111156136b15760008081fd5b6136bf8f8d838801016134f3565b838501525060c091508184015181840152506136dd60e084016135b9565b90820152845250918601918601613633565b5098975050505050505050565b600082516130c6818460208701612899565b60008551613720818460208a01612899565b855190830190613734818360208a01612899565b602f60f81b91018181528551909190613754816001850160208a01612899565b6001920191820152835161376f816002840160208801612899565b016002019695505050505050565b60006020828403121561378f57600080fd5b5051919050565b6000828210156137a8576137a8612f6c565b500390565b6000602082840312156137bf57600080fd5b81516122a781612c61565b600082198211156137dd576137dd612f6c565b500190565b60208082526032908201527f4552433732313a207472616e7366657220746f206e6f6e20455243373231526560408201527131b2b4bb32b91034b6b83632b6b2b73a32b960711b606082015260800190565b6000826138435761384361300a565b500690565b60008161385757613857612f6c565b506000190190565b6001600160a01b0385811682528416602082015260408101839052608060608201819052600090613892908301846128c5565b9695505050505050565b6000602082840312156138ae57600080fd5b81516122a78161286656fea26469706673582212201098410f8c7b8b7415420b7fbcbe785e6420239e9e632e15e20d80893b2b79e964736f6c634300080c0033",
  "linkReferences": {},
  "deployedLinkReferences": {}
}