{
  "_format": "hh-sol-artifact-1",
  "contractName": "HORNS",
  "sourceName": "contracts/nft/HORNS.sol",
  "abi": [
    {
      "inputs": [
        {
          "internalType": "address",
          "name": "operator",
          "type": "address"
        }
      ],
      "name": "OperatorNotAllowed",
      "type": "error"
    },
    {
      "anonymous": false,
      "inputs": [
        {
          "indexed": true,
          "internalType": "address",
          "name": "owner",
          "type": "address"
        },
        {
          "indexed": true,
          "internalType": "address",
          "name": "approved",
          "type": "address"
        },
        {
          "indexed": true,
          "internalType": "uint256",
          "name": "tokenId",
          "type": "uint256"
        }
      ],
      "name": "Approval",
      "type": "event"
    },
    {
      "anonymous": false,
      "inputs": [
        {
          "indexed": true,
          "internalType": "address",
          "name": "owner",
          "type": "address"
        },
        {
          "indexed": true,
          "internalType": "address",
          "name": "operator",
          "type": "address"
        },
        {
          "indexed": false,
          "internalType": "bool",
          "name": "approved",
          "type": "bool"
        }
      ],
      "name": "ApprovalForAll",
      "type": "event"
    },
    {
      "anonymous": false,
      "inputs": [
        {
          "indexed": false,
          "internalType": "uint8",
          "name": "version",
          "type": "uint8"
        }
      ],
      "name": "Initialized",
      "type": "event"
    },
    {
      "anonymous": false,
      "inputs": [
        {
          "indexed": true,
          "internalType": "address",
          "name": "previousOwner",
          "type": "address"
        },
        {
          "indexed": true,
          "internalType": "address",
          "name": "newOwner",
          "type": "address"
        }
      ],
      "name": "OwnershipTransferred",
      "type": "event"
    },
    {
      "anonymous": false,
      "inputs": [
        {
          "indexed": false,
          "internalType": "address",
          "name": "account",
          "type": "address"
        }
      ],
      "name": "Paused",
      "type": "event"
    },
    {
      "anonymous": false,
      "inputs": [
        {
          "indexed": true,
          "internalType": "address",
          "name": "from",
          "type": "address"
        },
        {
          "indexed": true,
          "internalType": "address",
          "name": "to",
          "type": "address"
        },
        {
          "indexed": true,
          "internalType": "uint256",
          "name": "tokenId",
          "type": "uint256"
        }
      ],
      "name": "Transfer",
      "type": "event"
    },
    {
      "anonymous": false,
      "inputs": [
        {
          "indexed": false,
          "internalType": "address",
          "name": "account",
          "type": "address"
        }
      ],
      "name": "Unpaused",
      "type": "event"
    },
    {
      "inputs": [],
      "name": "_admin",
      "outputs": [
        {
          "internalType": "address",
          "name": "",
          "type": "address"
        }
      ],
      "stateMutability": "view",
      "type": "function"
    },
    {
      "inputs": [],
      "name": "_algorithm",
      "outputs": [
        {
          "internalType": "string",
          "name": "",
          "type": "string"
        }
      ],
      "stateMutability": "view",
      "type": "function"
    },
    {
      "inputs": [],
      "name": "_counter",
      "outputs": [
        {
          "internalType": "uint256",
          "name": "",
          "type": "uint256"
        }
      ],
      "stateMutability": "view",
      "type": "function"
    },
    {
      "inputs": [],
      "name": "_fee",
      "outputs": [
        {
          "internalType": "uint256",
          "name": "",
          "type": "uint256"
        }
      ],
      "stateMutability": "view",
      "type": "function"
    },
    {
      "inputs": [],
      "name": "_limit",
      "outputs": [
        {
          "internalType": "uint256",
          "name": "",
          "type": "uint256"
        }
      ],
      "stateMutability": "view",
      "type": "function"
    },
    {
      "inputs": [
        {
          "internalType": "string",
          "name": "",
          "type": "string"
        }
      ],
      "name": "_moods",
      "outputs": [
        {
          "internalType": "string",
          "name": "tempEmo",
          "type": "string"
        },
        {
          "internalType": "uint256",
          "name": "tempLastTime",
          "type": "uint256"
        }
      ],
      "stateMutability": "view",
      "type": "function"
    },
    {
      "inputs": [],
      "name": "_oracle",
      "outputs": [
        {
          "internalType": "address",
          "name": "",
          "type": "address"
        }
      ],
      "stateMutability": "view",
      "type": "function"
    },
    {
      "inputs": [],
      "name": "_paramsAddress",
      "outputs": [
        {
          "internalType": "address",
          "name": "",
          "type": "address"
        }
      ],
      "stateMutability": "view",
      "type": "function"
    },
    {
      "inputs": [
        {
          "internalType": "bytes32",
          "name": "",
          "type": "bytes32"
        }
      ],
      "name": "_requestIdData",
      "outputs": [
        {
          "internalType": "bytes",
          "name": "",
          "type": "bytes"
        }
      ],
      "stateMutability": "view",
      "type": "function"
    },
    {
      "inputs": [],
      "name": "_tokenAddrErc721",
      "outputs": [
        {
          "internalType": "address",
          "name": "",
          "type": "address"
        }
      ],
      "stateMutability": "view",
      "type": "function"
    },
    {
      "inputs": [],
      "name": "_uri",
      "outputs": [
        {
          "internalType": "string",
          "name": "",
          "type": "string"
        }
      ],
      "stateMutability": "view",
      "type": "function"
    },
    {
      "inputs": [
        {
          "internalType": "address",
          "name": "to",
          "type": "address"
        },
        {
          "internalType": "uint256",
          "name": "tokenId",
          "type": "uint256"
        }
      ],
      "name": "approve",
      "outputs": [],
      "stateMutability": "nonpayable",
      "type": "function"
    },
    {
      "inputs": [
        {
          "internalType": "address",
          "name": "owner",
          "type": "address"
        }
      ],
      "name": "balanceOf",
      "outputs": [
        {
          "internalType": "uint256",
          "name": "",
          "type": "uint256"
        }
      ],
      "stateMutability": "view",
      "type": "function"
    },
    {
      "inputs": [
        {
          "internalType": "address",
          "name": "newAdm",
          "type": "address"
        }
      ],
      "name": "changeAdmin",
      "outputs": [],
      "stateMutability": "nonpayable",
      "type": "function"
    },
    {
      "inputs": [
        {
          "internalType": "string",
          "name": "baseURI",
          "type": "string"
        }
      ],
      "name": "changeBaseURI",
      "outputs": [],
      "stateMutability": "nonpayable",
      "type": "function"
    },
    {
      "inputs": [
        {
          "internalType": "address",
          "name": "newP",
          "type": "address"
        }
      ],
      "name": "changeParam",
      "outputs": [],
      "stateMutability": "nonpayable",
      "type": "function"
    },
    {
      "inputs": [
        {
          "internalType": "address",
          "name": "sweet",
          "type": "address"
        }
      ],
      "name": "changeToken",
      "outputs": [],
      "stateMutability": "nonpayable",
      "type": "function"
    },
    {
      "inputs": [
        {
          "internalType": "uint256",
          "name": "tokenId",
          "type": "uint256"
        }
      ],
      "name": "getApproved",
      "outputs": [
        {
          "internalType": "address",
          "name": "",
          "type": "address"
        }
      ],
      "stateMutability": "view",
      "type": "function"
    },
    {
      "inputs": [
        {
          "internalType": "uint256",
          "name": "id",
          "type": "uint256"
        }
      ],
      "name": "getPaletteBottom",
      "outputs": [
        {
          "internalType": "string",
          "name": "",
          "type": "string"
        }
      ],
      "stateMutability": "view",
      "type": "function"
    },
    {
      "inputs": [
        {
          "internalType": "uint256",
          "name": "id",
          "type": "uint256"
        }
      ],
      "name": "getPaletteTop",
      "outputs": [
        {
          "internalType": "string",
          "name": "",
          "type": "string"
        }
      ],
      "stateMutability": "view",
      "type": "function"
    },
    {
      "inputs": [
        {
          "internalType": "uint256",
          "name": "tokenId",
          "type": "uint256"
        }
      ],
      "name": "getParamValues",
      "outputs": [
        {
          "components": [
            {
              "internalType": "string",
              "name": "nation",
              "type": "string"
            },
            {
              "internalType": "string",
              "name": "palletTop",
              "type": "string"
            },
            {
              "internalType": "string",
              "name": "palletBottom",
              "type": "string"
            }
          ],
          "internalType": "struct HORNS.Horn",
          "name": "horn",
          "type": "tuple"
        }
      ],
      "stateMutability": "view",
      "type": "function"
    },
    {
      "inputs": [
        {
          "internalType": "string",
          "name": "name",
          "type": "string"
        },
        {
          "internalType": "string",
          "name": "symbol",
          "type": "string"
        },
        {
          "internalType": "address",
          "name": "admin",
          "type": "address"
        },
        {
          "internalType": "address",
          "name": "paramsAddress",
          "type": "address"
        }
      ],
      "name": "initialize",
      "outputs": [],
      "stateMutability": "nonpayable",
      "type": "function"
    },
    {
      "inputs": [
        {
          "internalType": "address",
          "name": "owner",
          "type": "address"
        },
        {
          "internalType": "address",
          "name": "operator",
          "type": "address"
        }
      ],
      "name": "isApprovedForAll",
      "outputs": [
        {
          "internalType": "bool",
          "name": "",
          "type": "bool"
        }
      ],
      "stateMutability": "view",
      "type": "function"
    },
    {
      "inputs": [],
      "name": "mint",
      "outputs": [],
      "stateMutability": "payable",
      "type": "function"
    },
    {
      "inputs": [
        {
          "internalType": "uint256",
          "name": "tokenIdGated",
          "type": "uint256"
        }
      ],
      "name": "mintByToken",
      "outputs": [],
      "stateMutability": "nonpayable",
      "type": "function"
    },
    {
      "inputs": [],
      "name": "name",
      "outputs": [
        {
          "internalType": "string",
          "name": "",
          "type": "string"
        }
      ],
      "stateMutability": "view",
      "type": "function"
    },
    {
      "inputs": [],
      "name": "owner",
      "outputs": [
        {
          "internalType": "address",
          "name": "",
          "type": "address"
        }
      ],
      "stateMutability": "view",
      "type": "function"
    },
    {
      "inputs": [
        {
          "internalType": "uint256",
          "name": "id",
          "type": "uint256"
        }
      ],
      "name": "ownerMint",
      "outputs": [],
      "stateMutability": "nonpayable",
      "type": "function"
    },
    {
      "inputs": [
        {
          "internalType": "uint256",
          "name": "tokenId",
          "type": "uint256"
        }
      ],
      "name": "ownerOf",
      "outputs": [
        {
          "internalType": "address",
          "name": "",
          "type": "address"
        }
      ],
      "stateMutability": "view",
      "type": "function"
    },
    {
      "inputs": [],
      "name": "pause",
      "outputs": [],
      "stateMutability": "nonpayable",
      "type": "function"
    },
    {
      "inputs": [],
      "name": "paused",
      "outputs": [
        {
          "internalType": "bool",
          "name": "",
          "type": "bool"
        }
      ],
      "stateMutability": "view",
      "type": "function"
    },
    {
      "inputs": [],
      "name": "renounceOwnership",
      "outputs": [],
      "stateMutability": "nonpayable",
      "type": "function"
    },
    {
      "inputs": [
        {
          "internalType": "uint256",
          "name": "_tokenId",
          "type": "uint256"
        },
        {
          "internalType": "uint256",
          "name": "_salePrice",
          "type": "uint256"
        }
      ],
      "name": "royaltyInfo",
      "outputs": [
        {
          "internalType": "address",
          "name": "receiver",
          "type": "address"
        },
        {
          "internalType": "uint256",
          "name": "royaltyAmount",
          "type": "uint256"
        }
      ],
      "stateMutability": "view",
      "type": "function"
    },
    {
      "inputs": [
        {
          "internalType": "address",
          "name": "from",
          "type": "address"
        },
        {
          "internalType": "address",
          "name": "to",
          "type": "address"
        },
        {
          "internalType": "uint256",
          "name": "tokenId",
          "type": "uint256"
        }
      ],
      "name": "safeTransferFrom",
      "outputs": [],
      "stateMutability": "nonpayable",
      "type": "function"
    },
    {
      "inputs": [
        {
          "internalType": "address",
          "name": "from",
          "type": "address"
        },
        {
          "internalType": "address",
          "name": "to",
          "type": "address"
        },
        {
          "internalType": "uint256",
          "name": "tokenId",
          "type": "uint256"
        },
        {
          "internalType": "bytes",
          "name": "data",
          "type": "bytes"
        }
      ],
      "name": "safeTransferFrom",
      "outputs": [],
      "stateMutability": "nonpayable",
      "type": "function"
    },
    {
      "inputs": [
        {
          "internalType": "string",
          "name": "algo",
          "type": "string"
        }
      ],
      "name": "setAlgo",
      "outputs": [],
      "stateMutability": "nonpayable",
      "type": "function"
    },
    {
      "inputs": [
        {
          "internalType": "address",
          "name": "operator",
          "type": "address"
        },
        {
          "internalType": "bool",
          "name": "approved",
          "type": "bool"
        }
      ],
      "name": "setApprovalForAll",
      "outputs": [],
      "stateMutability": "nonpayable",
      "type": "function"
    },
    {
      "inputs": [
        {
          "internalType": "uint256",
          "name": "fee",
          "type": "uint256"
        }
      ],
      "name": "setFee",
      "outputs": [],
      "stateMutability": "nonpayable",
      "type": "function"
    },
    {
      "inputs": [
        {
          "internalType": "uint256",
          "name": "limit",
          "type": "uint256"
        }
      ],
      "name": "setLimit",
      "outputs": [],
      "stateMutability": "nonpayable",
      "type": "function"
    },
    {
      "inputs": [
        {
          "internalType": "bytes4",
          "name": "interfaceId",
          "type": "bytes4"
        }
      ],
      "name": "supportsInterface",
      "outputs": [
        {
          "internalType": "bool",
          "name": "",
          "type": "bool"
        }
      ],
      "stateMutability": "view",
      "type": "function"
    },
    {
      "inputs": [],
      "name": "symbol",
      "outputs": [
        {
          "internalType": "string",
          "name": "",
          "type": "string"
        }
      ],
      "stateMutability": "view",
      "type": "function"
    },
    {
      "inputs": [
        {
          "internalType": "uint256",
          "name": "tokenId",
          "type": "uint256"
        }
      ],
      "name": "tokenURI",
      "outputs": [
        {
          "internalType": "string",
          "name": "",
          "type": "string"
        }
      ],
      "stateMutability": "view",
      "type": "function"
    },
    {
      "inputs": [
        {
          "internalType": "address",
          "name": "from",
          "type": "address"
        },
        {
          "internalType": "address",
          "name": "to",
          "type": "address"
        },
        {
          "internalType": "uint256",
          "name": "tokenId",
          "type": "uint256"
        }
      ],
      "name": "transferFrom",
      "outputs": [],
      "stateMutability": "nonpayable",
      "type": "function"
    },
    {
      "inputs": [
        {
          "internalType": "address",
          "name": "newOwner",
          "type": "address"
        }
      ],
      "name": "transferOwnership",
      "outputs": [],
      "stateMutability": "nonpayable",
      "type": "function"
    },
    {
      "inputs": [],
      "name": "unpause",
      "outputs": [],
      "stateMutability": "nonpayable",
      "type": "function"
    },
    {
      "inputs": [
        {
          "internalType": "uint256",
          "name": "amount",
          "type": "uint256"
        }
      ],
      "name": "withdraw",
      "outputs": [],
      "stateMutability": "nonpayable",
      "type": "function"
    }
  ],
  "bytecode": "0x608060405234801561001057600080fd5b506139ea806100206000396000f3fe60806040526004361061027d5760003560e01c806370a082311161014f578063a22cb465116100c1578063d59783141161007a578063d597831414610789578063df2fb92c146107a9578063e653c650146107c0578063e985e9c5146107e1578063f19e75d41461082a578063f2fde38b1461084a57600080fd5b8063a22cb465146106c4578063adfc7dae146106e4578063b88d4fde14610705578063c0dca23914610725578063c5b37c2214610752578063c87b56dd1461076957600080fd5b80638456cb59116101135780638456cb59146106265780638da5cb5b1461063b5780638f15b4141461065a5780638f2839701461067a57806395d89b411461069a578063a1bb1fcc146106af57600080fd5b806370a082311461058c578063715018a6146105ba578063741149b1146105cf5780637cd49fde146105ef57806380d953dd1461060657600080fd5b806327ea6f2b116101f35780635c975abb116101ac5780635c975abb146104d45780635d36b3ea146104ec5780636352211e1461050c57806366829b161461052c57806369fe0e2d1461054c5780636a2c39951461056c57600080fd5b806327ea6f2b146104005780632a55205a146104205780632e1a7d4d1461045f57806339a0c6f91461047f5780633f4ba83a1461049f57806342842e0e146104b457600080fd5b8063081812fc11610245578063081812fc14610362578063095ea7b3146103825780630dccc9ad146103a25780631249c58b146103b757806323b872dd146103bf578063247ac063146103df57600080fd5b806301bc45c91461028257806301ffc9a7146102c057806303f119ed146102f057806306fdde031461031e5780630764da1d14610340575b600080fd5b34801561028e57600080fd5b5061015f546102a3906001600160a01b031681565b6040516001600160a01b0390911681526020015b60405180910390f35b3480156102cc57600080fd5b506102e06102db36600461329a565b61086a565b60405190151581526020016102b7565b3480156102fc57600080fd5b5061031061030b366004613363565b6108bc565b6040516102b79291906133f0565b34801561032a57600080fd5b5061033361096c565b6040516102b79190613412565b34801561034c57600080fd5b5061036061035b366004613363565b6109fe565b005b34801561036e57600080fd5b506102a361037d366004613425565b610a67565b34801561038e57600080fd5b5061036061039d366004613453565b610a8e565b3480156103ae57600080fd5b50610333610ba4565b610360610c33565b3480156103cb57600080fd5b506103606103da36600461347f565b610cda565b3480156103eb57600080fd5b50610161546102a3906001600160a01b031681565b34801561040c57600080fd5b5061036061041b366004613425565b610e30565b34801561042c57600080fd5b5061044061043b3660046134c0565b610e7e565b604080516001600160a01b0390931683526020830191909152016102b7565b34801561046b57600080fd5b5061036061047a366004613425565b610eaf565b34801561048b57600080fd5b5061036061049a366004613363565b610fad565b3480156104ab57600080fd5b50610360611009565b3480156104c057600080fd5b506103606104cf36600461347f565b611059565b3480156104e057600080fd5b5060975460ff166102e0565b3480156104f857600080fd5b50610333610507366004613425565b6111a4565b34801561051857600080fd5b506102a3610527366004613425565b6113fa565b34801561053857600080fd5b506103606105473660046134e2565b61145a565b34801561055857600080fd5b50610360610567366004613425565b6114c5565b34801561057857600080fd5b50610333610587366004613425565b611513565b34801561059857600080fd5b506105ac6105a73660046134e2565b611740565b6040519081526020016102b7565b3480156105c657600080fd5b506103606117c6565b3480156105db57600080fd5b506103606105ea3660046134e2565b6117d8565b3480156105fb57600080fd5b506105ac6101645481565b34801561061257600080fd5b50610360610621366004613425565b611874565b34801561063257600080fd5b50610360611997565b34801561064757600080fd5b5061012d546001600160a01b03166102a3565b34801561066657600080fd5b506103606106753660046134ff565b6119e7565b34801561068657600080fd5b506103606106953660046134e2565b611bb2565b3480156106a657600080fd5b50610333611c4e565b3480156106bb57600080fd5b50610333611c5d565b3480156106d057600080fd5b506103606106df366004613596565b611c6b565b3480156106f057600080fd5b50610160546102a3906001600160a01b031681565b34801561071157600080fd5b506103606107203660046135cf565b611c76565b34801561073157600080fd5b50610745610740366004613425565b611dc8565b6040516102b7919061364f565b34801561075e57600080fd5b506105ac6101675481565b34801561077557600080fd5b50610333610784366004613425565b611e24565b34801561079557600080fd5b506103336107a4366004613425565b611e8b565b3480156107b557600080fd5b506105ac6101695481565b3480156107cc57600080fd5b50610166546102a3906001600160a01b031681565b3480156107ed57600080fd5b506102e06107fc3660046136b0565b6001600160a01b039182166000908152606a6020908152604080832093909416825291909152205460ff1690565b34801561083657600080fd5b50610360610845366004613425565b611ea5565b34801561085657600080fd5b506103606108653660046134e2565b611f16565b60006001600160e01b031982166380ac58cd60e01b148061089b57506001600160e01b03198216635b5e139f60e01b145b806108b657506301ffc9a760e01b6001600160e01b03198316145b92915050565b8051602081830181018051610168825292820191909301209152805481906108e3906136de565b80601f016020809104026020016040519081016040528092919081815260200182805461090f906136de565b801561095c5780601f106109315761010080835404028352916020019161095c565b820191906000526020600020905b81548152906001019060200180831161093f57829003601f168201915b5050505050908060010154905082565b60606065805461097b906136de565b80601f01602080910402602001604051908101604052809291908181526020018280546109a7906136de565b80156109f45780601f106109c9576101008083540402835291602001916109f4565b820191906000526020600020905b8154815290600101906020018083116109d757829003601f168201915b5050505050905090565b61015f5460408051808201909152600381526231303160e81b6020820152906001600160a01b03163314610a4e5760405162461bcd60e51b8152600401610a459190613412565b60405180910390fd5b508051610a63906101639060208401906131eb565b5050565b6000610a7282611f8c565b506000908152606960205260409020546001600160a01b031690565b6000610a99826113fa565b9050806001600160a01b0316836001600160a01b03161415610b075760405162461bcd60e51b815260206004820152602160248201527f4552433732313a20617070726f76616c20746f2063757272656e74206f776e656044820152603960f91b6064820152608401610a45565b336001600160a01b0382161480610b235750610b2381336107fc565b610b955760405162461bcd60e51b815260206004820152603e60248201527f4552433732313a20617070726f76652063616c6c6572206973206e6f7420746f60448201527f6b656e206f776e6572206e6f7220617070726f76656420666f7220616c6c00006064820152608401610a45565b610b9f8383611feb565b505050565b6101658054610bb2906136de565b80601f0160208091040260200160405190810160405280929190818152602001828054610bde906136de565b8015610c2b5780601f10610c0057610100808354040283529160200191610c2b565b820191906000526020600020905b815481529060010190602001808311610c0e57829003601f168201915b505050505081565b600061016754118015610c495750610167543410155b8015610c585750600061016954115b6040518060400160405280600381526020016232303160e81b81525090610c925760405162461bcd60e51b8152600401610a459190613412565b5061232861016454108015610cac57506101695461016454105b610cb557600080fd5b6101648054906000610cc68361372f565b9190505550610cd83361016454612059565b565b826daaeb6d7670e522a718067333cd4e3b15610e1f576001600160a01b038116331415610d1157610d0c848484612073565b610e2a565b604051633185c44d60e21b81526daaeb6d7670e522a718067333cd4e9063c617113490610d44903090339060040161374a565b602060405180830381865afa158015610d61573d6000803e3d6000fd5b505050506040513d601f19601f82011682018060405250810190610d859190613764565b8015610e005750604051633185c44d60e21b81526daaeb6d7670e522a718067333cd4e9063c617113490610dbf903090859060040161374a565b602060405180830381865afa158015610ddc573d6000803e3d6000fd5b505050506040513d601f19601f82011682018060405250810190610e009190613764565b610e1f57604051633b79c77360e21b8152336004820152602401610a45565b610e2a848484612073565b50505050565b61015f5460408051808201909152600381526231303160e81b6020820152906001600160a01b03163314610e775760405162461bcd60e51b8152600401610a459190613412565b5061016955565b61015f546001600160a01b03166000612710610e9c846101f4613781565b610ea691906137b6565b90509250929050565b600260fb541415610f025760405162461bcd60e51b815260206004820152601f60248201527f5265656e7472616e637947756172643a207265656e7472616e742063616c6c006044820152606401610a45565b600260fb5561015f5460408051808201909152600381526231303160e81b6020820152906001600160a01b03163314610f4e5760405162461bcd60e51b8152600401610a459190613412565b50604051600090339047908381818185875af1925050503d8060008114610f91576040519150601f19603f3d011682016040523d82523d6000602084013e610f96565b606091505b5050905080610fa457600080fd5b5050600160fb55565b61015f5460408051808201909152600381526231303160e81b6020820152906001600160a01b03163314610ff45760405162461bcd60e51b8152600401610a459190613412565b508051610a63906101659060208401906131eb565b61015f5460408051808201909152600381526231303160e81b6020820152906001600160a01b031633146110505760405162461bcd60e51b8152600401610a459190613412565b50610cd86120a4565b826daaeb6d7670e522a718067333cd4e3b15611199576001600160a01b03811633141561108b57610d0c8484846120f6565b604051633185c44d60e21b81526daaeb6d7670e522a718067333cd4e9063c6171134906110be903090339060040161374a565b602060405180830381865afa1580156110db573d6000803e3d6000fd5b505050506040513d601f19601f820116820180604052508101906110ff9190613764565b801561117a5750604051633185c44d60e21b81526daaeb6d7670e522a718067333cd4e9063c617113490611139903090859060040161374a565b602060405180830381865afa158015611156573d6000803e3d6000fd5b505050506040513d601f19601f8201168201806040525081019061117a9190613764565b61119957604051633b79c77360e21b8152336004820152602401610a45565b610e2a8484846120f6565b6040805161024081018252600761020082018181526611a29b9a199a2360c91b6102208401528252825180840184528181526608d14dce4dccd160ca1b6020828101919091528084019190915283518085018552828152662345374443344560c81b8183015283850152835180850185528281526608cd50d14dcd5160ca1b8183015260608481019190915284518086018652838152662332393831453760c81b81840152608085015284518086018652838152662335443231453760c81b8184015260a0850152845180860186528381526608d14dcdcdd14d60ca1b8184015260c085015284518086018652838152662345374537453760c81b8184015260e0850152845180860186528381526608cccc4c8d8c8d60ca1b81840152610100850152845180860186528381526611a29b9c9b1ca360c91b8184015261012085015284518086018652838152662345374232373760c81b81840152610140850152845180860186528381526611a29ba2221c2360c91b8184015261016085015284518086018652838152662338434537433360c81b8184015261018085015284518086018652838152662338374232453760c81b818401526101a085015284518086018652838152662341303832453760c81b818401526101c085015284518086018652928352662345344237453760c81b838301526101e08401929092528351808501909452600c84526b70616c6c6574426f74746f6d60a01b908401529181906010906113d4908690612111565b6113de91906137ca565b601081106113ee576113ee6137de565b60200201519392505050565b6000818152606760205260408120546001600160a01b0316806108b65760405162461bcd60e51b8152602060048201526018602482015277115490cdcc8c4e881a5b9d985b1a59081d1bdad95b88125160421b6044820152606401610a45565b61015f5460408051808201909152600381526231303160e81b6020820152906001600160a01b031633146114a15760405162461bcd60e51b8152600401610a459190613412565b5061016680546001600160a01b0319166001600160a01b0392909216919091179055565b61015f5460408051808201909152600381526231303160e81b6020820152906001600160a01b0316331461150c5760405162461bcd60e51b8152600401610a459190613412565b5061016755565b6040805161024081018252600761020082018181526611a29b9a199a2360c91b6102208401528252825180840184528181526608d14dce4dccd160ca1b6020828101919091528084019190915283518085018552828152662345374443344560c81b8183015283850152835180850185528281526608cd50d14dcd5160ca1b8183015260608481019190915284518086018652838152662332393831453760c81b81840152608085015284518086018652838152662335443231453760c81b8184015260a0850152845180860186528381526608d14dcdcdd14d60ca1b8184015260c085015284518086018652838152662345374537453760c81b8184015260e0850152845180860186528381526608cccc4c8d8c8d60ca1b81840152610100850152845180860186528381526611a29b9c9b1ca360c91b8184015261012085015284518086018652838152662345374232373760c81b81840152610140850152845180860186528381526611a29ba2221c2360c91b8184015261016085015284518086018652838152662338434537433360c81b8184015261018085015284518086018652838152662338374232453760c81b818401526101a085015284518086018652838152662341303832453760c81b818401526101c085015284518086018652928352662345344237453760c81b838301526101e084019290925283518085019094526009845268070616c6c6574546f760bc1b908401529181906010906113d4908690612111565b60006001600160a01b0382166117aa5760405162461bcd60e51b815260206004820152602960248201527f4552433732313a2061646472657373207a65726f206973206e6f7420612076616044820152683634b21037bbb732b960b91b6064820152608401610a45565b506001600160a01b031660009081526068602052604090205490565b6117ce61214d565b610cd860006121a8565b61015f546001600160a01b0316331480156117fb57506001600160a01b03811615155b80156118165750610160546001600160a01b03828116911614155b6040518060400160405280600381526020016231303160e81b815250906118505760405162461bcd60e51b8152600401610a459190613412565b5061016080546001600160a01b0319166001600160a01b0392909216919091179055565b610166546001600160a01b0316158015906118925750600061016954115b6040518060400160405280600381526020016203130360ec1b815250906118cc5760405162461bcd60e51b8152600401610a459190613412565b50610166546040516331a9108f60e11b8152600481018390526001600160a01b039091169033908290636352211e90602401602060405180830381865afa15801561191b573d6000803e3d6000fd5b505050506040513d601f19601f8201168201806040525081019061193f91906137f4565b6001600160a01b03161461195257600080fd5b6123286101645410801561196b57506101695461016454105b61197457600080fd5b61016480549060006119858361372f565b9190505550610a633361016454612059565b61015f5460408051808201909152600381526231303160e81b6020820152906001600160a01b031633146119de5760405162461bcd60e51b8152600401610a459190613412565b50610cd86121fb565b600054610100900460ff1615808015611a075750600054600160ff909116105b80611a215750303b158015611a21575060005460ff166001145b611a845760405162461bcd60e51b815260206004820152602e60248201527f496e697469616c697a61626c653a20636f6e747261637420697320616c72656160448201526d191e481a5b9a5d1a585b1a5e995960921b6064820152608401610a45565b6000805460ff191660011790558015611aa7576000805461ff0019166101001790555b6001600160a01b03831615801590611ac757506001600160a01b03821615155b6040518060400160405280600381526020016203130360ec1b81525090611b015760405162461bcd60e51b8152600401610a459190613412565b50611b0c8585612238565b61016080546001600160a01b038085166001600160a01b03199283161790925561015f80549286169290911691909117905561232861016955611b4d612269565b611b55612298565b611b5d6122de565b611b6561230d565b8015611bab576000805461ff0019169055604051600181527f7f26b83ff96e1f2b6a682f133852f6798a09c465da95921460cefb38474024989060200160405180910390a15b5050505050565b61015f546001600160a01b031633148015611bd557506001600160a01b03811615155b8015611bf0575061015f546001600160a01b03828116911614155b6040518060400160405280600381526020016231303160e81b81525090611c2a5760405162461bcd60e51b8152600401610a459190613412565b5061015f80546001600160a01b0319166001600160a01b0392909216919091179055565b60606066805461097b906136de565b6101638054610bb2906136de565b610a6333838361233c565b836daaeb6d7670e522a718067333cd4e3b15611dbc576001600160a01b038116331415611cae57611ca98585858561240b565b611bab565b604051633185c44d60e21b81526daaeb6d7670e522a718067333cd4e9063c617113490611ce1903090339060040161374a565b602060405180830381865afa158015611cfe573d6000803e3d6000fd5b505050506040513d601f19601f82011682018060405250810190611d229190613764565b8015611d9d5750604051633185c44d60e21b81526daaeb6d7670e522a718067333cd4e9063c617113490611d5c903090859060040161374a565b602060405180830381865afa158015611d79573d6000803e3d6000fd5b505050506040513d601f19601f82011682018060405250810190611d9d9190613764565b611dbc57604051633b79c77360e21b8152336004820152602401610a45565b611bab8585858561240b565b611dec60405180606001604052806060815260200160608152602001606081525090565b6040518060600160405280611e008461243d565b8152602001611e0e846111a4565b8152602001611e1c84611513565b905292915050565b6060611e2f82611f8c565b6000611e39612898565b90506000815111611e595760405180602001604052806000815250611e84565b80611e63846128a8565b604051602001611e74929190613811565b6040516020818303038152906040525b9392505050565b6101626020526000908152604090208054610bb2906136de565b61015f5460408051808201909152600381526231303160e81b6020820152906001600160a01b03163314611eec5760405162461bcd60e51b8152600401610a459190613412565b5061232881118015611f0057506127108111155b611f0957600080fd5b611f133382612059565b50565b611f1e61214d565b6001600160a01b038116611f835760405162461bcd60e51b815260206004820152602660248201527f4f776e61626c653a206e6577206f776e657220697320746865207a65726f206160448201526564647265737360d01b6064820152608401610a45565b611f13816121a8565b6000818152606760205260409020546001600160a01b0316611f135760405162461bcd60e51b8152602060048201526018602482015277115490cdcc8c4e881a5b9d985b1a59081d1bdad95b88125160421b6044820152606401610a45565b600081815260696020526040902080546001600160a01b0319166001600160a01b0384169081179091558190612020826113fa565b6001600160a01b03167f8c5be1e5ebec7d5bd14f71427d1e84f3dd0314c0f7b2291e5b200ac8c7c3b92560405160405180910390a45050565b610a638282604051806020016040528060008152506129ae565b61207d33826129e1565b6120995760405162461bcd60e51b8152600401610a4590613840565b610b9f838383612a5f565b6120ac612c06565b6097805460ff191690557f5db9ee0a495bf2e6ff9c91a7834c1ba4fdd244a5e8aa4e537bd38aeae4b073aa335b6040516001600160a01b03909116815260200160405180910390a1565b610b9f83838360405180602001604052806000815250611c76565b60008161211d846128a8565b60405160200161212e929190613811565b60408051601f1981840301815291905280516020909101209392505050565b61012d546001600160a01b03163314610cd85760405162461bcd60e51b815260206004820181905260248201527f4f776e61626c653a2063616c6c6572206973206e6f7420746865206f776e65726044820152606401610a45565b61012d80546001600160a01b038381166001600160a01b0319831681179093556040519116919082907f8be0079c531659141344cd1fd0a4f28419497f9722a3daafe3b4186f6b6457e090600090a35050565b612203612c4f565b6097805460ff191660011790557f62e78cea01bee320cd4e420270b5ea74000d11b0c9f74754ebdbfc544b05a2586120d93390565b600054610100900460ff1661225f5760405162461bcd60e51b8152600401610a459061388e565b610a638282612c95565b600054610100900460ff166122905760405162461bcd60e51b8152600401610a459061388e565b610cd8612ce3565b600054610100900460ff166122bf5760405162461bcd60e51b8152600401610a459061388e565b610cd8733cc6cdda760b79bafa08df41ecfa224f810dceb66001612d13565b600054610100900460ff166123055760405162461bcd60e51b8152600401610a459061388e565b610cd8612ea4565b600054610100900460ff166123345760405162461bcd60e51b8152600401610a459061388e565b610cd8612ed2565b816001600160a01b0316836001600160a01b0316141561239e5760405162461bcd60e51b815260206004820152601960248201527f4552433732313a20617070726f766520746f2063616c6c6572000000000000006044820152606401610a45565b6001600160a01b038381166000818152606a6020908152604080832094871680845294825291829020805460ff191686151590811790915591519182527f17307eab39ab6107e8899845ad3d59bd9653f200f220920489ca2b5937696c31910160405180910390a3505050565b61241533836129e1565b6124315760405162461bcd60e51b8152600401610a4590613840565b610e2a84848484612f05565b6040805161044081018252600561040082018181526428b0ba30b960d91b61042084015282528251808401845260078082526622b1bab0b237b960c91b60208381019190915280850192909252845180860186528181526614d95b9959d85b60ca1b818401528486015284518086018652600b8082526a4e65746865726c616e647360a81b828501526060868101929092528651808801885283815266115b99db185b9960ca1b818601526080870152865180880188528381526624a91024b930b760c91b8186015260a087015286518088018852600381526255534160e81b8186015260c0870152865180880188528581526457616c657360d81b8186015260e087015286518088018852600980825268417267656e74696e6160b81b8287015261010088019190915287518089018952600c81526b53617564692041726162696160a01b81870152610120880152875180890189526006808252654d657869636f60d01b828801526101408901919091528851808a018a5281815265141bdb185b9960d21b818801526101608901528851808a018a52818152654672616e636560d01b818801526101808901528851808a018a52918252684175737472616c696160b81b828701526101a0880191909152875180890189528481526644656e6d61726b60c81b818701526101c0880152875180890189528481526654756e6973696160c81b818701526101e0880152875180890189528681526429b830b4b760d91b8187015261020088015287518089018952600a815269436f737461205269636160b01b8187015261022088015287518089018952848152664765726d616e7960c81b8187015261024088015287518089018952868152642530b830b760d91b81870152610260880152875180890189528481526642656c6769756d60c81b81870152610280880152875180890189528181526543616e61646160d01b818701526102a088015287518089018952848152664d6f726f63636f60c81b818701526102c0880152875180890189528481526643726f6174696160c81b818701526102e08801528751808901895281815265109c985e9a5b60d21b81870152610300880152875180890189528181526553657262696160d01b81870152610320880152875180890189529182526a14ddda5d1e995c9b185b9960aa1b828601526103408701919091528651808801885260088082526721b0b6b2b937b7b760c11b828701526103608801919091528751808901895290815267141bdc9d1d59d85b60c21b8186015261038087015286518088018852948552644768616e6160d81b858501526103a086019490945285518087018752918252665572756775617960c81b828401526103c085019190915284518086018652600e81526d4b6f7265612052657075626c696360901b818401526103e08501528451808601909552918452653730ba34b7b760d11b84820152909282919061287e908690612111565b61288891906137ca565b602081106113ee576113ee6137de565b6060610165805461097b906136de565b6060816128cc5750506040805180820190915260018152600360fc1b602082015290565b8160005b81156128f657806128e08161372f565b91506128ef9050600a836137b6565b91506128d0565b60008167ffffffffffffffff811115612911576129116132b7565b6040519080825280601f01601f19166020018201604052801561293b576020820181803683370190505b5090505b84156129a6576129506001836138d9565b915061295d600a866137ca565b6129689060306138f0565b60f81b81838151811061297d5761297d6137de565b60200101906001600160f81b031916908160001a90535061299f600a866137b6565b945061293f565b949350505050565b6129b88383612f38565b6129c56000848484613086565b610b9f5760405162461bcd60e51b8152600401610a4590613908565b6000806129ed836113fa565b9050806001600160a01b0316846001600160a01b03161480612a3457506001600160a01b038082166000908152606a602090815260408083209388168352929052205460ff165b806129a65750836001600160a01b0316612a4d84610a67565b6001600160a01b031614949350505050565b826001600160a01b0316612a72826113fa565b6001600160a01b031614612ad65760405162461bcd60e51b815260206004820152602560248201527f4552433732313a207472616e736665722066726f6d20696e636f72726563742060448201526437bbb732b960d91b6064820152608401610a45565b6001600160a01b038216612b385760405162461bcd60e51b8152602060048201526024808201527f4552433732313a207472616e7366657220746f20746865207a65726f206164646044820152637265737360e01b6064820152608401610a45565b612b43838383613184565b612b4e600082611feb565b6001600160a01b0383166000908152606860205260408120805460019290612b779084906138d9565b90915550506001600160a01b0382166000908152606860205260408120805460019290612ba59084906138f0565b909155505060008181526067602052604080822080546001600160a01b0319166001600160a01b0386811691821790925591518493918716917fddf252ad1be2c89b69c2b068fc378daa952ba7f163c4a11628f55a4df523b3ef91a4505050565b60975460ff16610cd85760405162461bcd60e51b815260206004820152601460248201527314185d5cd8589b194e881b9bdd081c185d5cd95960621b6044820152606401610a45565b60975460ff1615610cd85760405162461bcd60e51b815260206004820152601060248201526f14185d5cd8589b194e881c185d5cd95960821b6044820152606401610a45565b600054610100900460ff16612cbc5760405162461bcd60e51b8152600401610a459061388e565b8151612ccf9060659060208501906131eb565b508051610b9f9060669060208401906131eb565b600054610100900460ff16612d0a5760405162461bcd60e51b8152600401610a459061388e565b610cd8336121a8565b600054610100900460ff16612d3a5760405162461bcd60e51b8152600401610a459061388e565b6daaeb6d7670e522a718067333cd4e3b15610a635760405163c3c5a54760e01b81523060048201526daaeb6d7670e522a718067333cd4e9063c3c5a547906024016020604051808303816000875af1158015612d9a573d6000803e3d6000fd5b505050506040513d601f19601f82011682018060405250810190612dbe9190613764565b610a63578015612e3157604051633e9f1edf60e11b81526daaeb6d7670e522a718067333cd4e90637d3e3dbe90612dfb903090869060040161374a565b600060405180830381600087803b158015612e1557600080fd5b505af1158015612e29573d6000803e3d6000fd5b505050505050565b6001600160a01b03821615612e735760405163a0af290360e01b81526daaeb6d7670e522a718067333cd4e9063a0af290390612dfb903090869060040161374a565b604051632210724360e11b81523060048201526daaeb6d7670e522a718067333cd4e90634420e48690602401612dfb565b600054610100900460ff16612ecb5760405162461bcd60e51b8152600401610a459061388e565b600160fb55565b600054610100900460ff16612ef95760405162461bcd60e51b8152600401610a459061388e565b6097805460ff19169055565b612f10848484612a5f565b612f1c84848484613086565b610e2a5760405162461bcd60e51b8152600401610a4590613908565b6001600160a01b038216612f8e5760405162461bcd60e51b815260206004820181905260248201527f4552433732313a206d696e7420746f20746865207a65726f20616464726573736044820152606401610a45565b6000818152606760205260409020546001600160a01b031615612ff35760405162461bcd60e51b815260206004820152601c60248201527f4552433732313a20746f6b656e20616c7265616479206d696e746564000000006044820152606401610a45565b612fff60008383613184565b6001600160a01b03821660009081526068602052604081208054600192906130289084906138f0565b909155505060008181526067602052604080822080546001600160a01b0319166001600160a01b03861690811790915590518392907fddf252ad1be2c89b69c2b068fc378daa952ba7f163c4a11628f55a4df523b3ef908290a45050565b60006001600160a01b0384163b1561317957604051630a85bd0160e11b81526001600160a01b0385169063150b7a02906130ca90339089908890889060040161395a565b6020604051808303816000875af1925050508015613105575060408051601f3d908101601f1916820190925261310291810190613997565b60015b61315f573d808015613133576040519150601f19603f3d011682016040523d82523d6000602084013e613138565b606091505b5080516131575760405162461bcd60e51b8152600401610a4590613908565b805181602001fd5b6001600160e01b031916630a85bd0160e11b1490506129a6565b506001949350505050565b60975460ff1615610b9f5760405162461bcd60e51b815260206004820152602b60248201527f4552433732315061757361626c653a20746f6b656e207472616e73666572207760448201526a1a1a5b19481c185d5cd95960aa1b6064820152608401610a45565b8280546131f7906136de565b90600052602060002090601f016020900481019282613219576000855561325f565b82601f1061323257805160ff191683800117855561325f565b8280016001018555821561325f579182015b8281111561325f578251825591602001919060010190613244565b5061326b92915061326f565b5090565b5b8082111561326b5760008155600101613270565b6001600160e01b031981168114611f1357600080fd5b6000602082840312156132ac57600080fd5b8135611e8481613284565b634e487b7160e01b600052604160045260246000fd5b600067ffffffffffffffff808411156132e8576132e86132b7565b604051601f8501601f19908116603f01168101908282118183101715613310576133106132b7565b8160405280935085815286868601111561332957600080fd5b858560208301376000602087830101525050509392505050565b600082601f83011261335457600080fd5b611e84838335602085016132cd565b60006020828403121561337557600080fd5b813567ffffffffffffffff81111561338c57600080fd5b6129a684828501613343565b60005b838110156133b357818101518382015260200161339b565b83811115610e2a5750506000910152565b600081518084526133dc816020860160208601613398565b601f01601f19169290920160200192915050565b60408152600061340360408301856133c4565b90508260208301529392505050565b602081526000611e8460208301846133c4565b60006020828403121561343757600080fd5b5035919050565b6001600160a01b0381168114611f1357600080fd5b6000806040838503121561346657600080fd5b82356134718161343e565b946020939093013593505050565b60008060006060848603121561349457600080fd5b833561349f8161343e565b925060208401356134af8161343e565b929592945050506040919091013590565b600080604083850312156134d357600080fd5b50508035926020909101359150565b6000602082840312156134f457600080fd5b8135611e848161343e565b6000806000806080858703121561351557600080fd5b843567ffffffffffffffff8082111561352d57600080fd5b61353988838901613343565b9550602087013591508082111561354f57600080fd5b5061355c87828801613343565b935050604085013561356d8161343e565b9150606085013561357d8161343e565b939692955090935050565b8015158114611f1357600080fd5b600080604083850312156135a957600080fd5b82356135b48161343e565b915060208301356135c481613588565b809150509250929050565b600080600080608085870312156135e557600080fd5b84356135f08161343e565b935060208501356136008161343e565b925060408501359150606085013567ffffffffffffffff81111561362357600080fd5b8501601f8101871361363457600080fd5b613643878235602084016132cd565b91505092959194509250565b60208152600082516060602084015261366b60808401826133c4565b90506020840151601f198085840301604086015261368983836133c4565b92506040860151915080858403016060860152506136a782826133c4565b95945050505050565b600080604083850312156136c357600080fd5b82356136ce8161343e565b915060208301356135c48161343e565b600181811c908216806136f257607f821691505b6020821081141561371357634e487b7160e01b600052602260045260246000fd5b50919050565b634e487b7160e01b600052601160045260246000fd5b600060001982141561374357613743613719565b5060010190565b6001600160a01b0392831681529116602082015260400190565b60006020828403121561377657600080fd5b8151611e8481613588565b600081600019048311821515161561379b5761379b613719565b500290565b634e487b7160e01b600052601260045260246000fd5b6000826137c5576137c56137a0565b500490565b6000826137d9576137d96137a0565b500690565b634e487b7160e01b600052603260045260246000fd5b60006020828403121561380657600080fd5b8151611e848161343e565b60008351613823818460208801613398565b835190830190613837818360208801613398565b01949350505050565b6020808252602e908201527f4552433732313a2063616c6c6572206973206e6f7420746f6b656e206f776e6560408201526d1c881b9bdc88185c1c1c9bdd995960921b606082015260800190565b6020808252602b908201527f496e697469616c697a61626c653a20636f6e7472616374206973206e6f74206960408201526a6e697469616c697a696e6760a81b606082015260800190565b6000828210156138eb576138eb613719565b500390565b6000821982111561390357613903613719565b500190565b60208082526032908201527f4552433732313a207472616e7366657220746f206e6f6e20455243373231526560408201527131b2b4bb32b91034b6b83632b6b2b73a32b960711b606082015260800190565b6001600160a01b038581168252841660208201526040810183905260806060820181905260009061398d908301846133c4565b9695505050505050565b6000602082840312156139a957600080fd5b8151611e848161328456fea2646970667358221220ee9f3ae55f05d8049636632b8652aa4c3b9e6936e98e1fc2e5ac1d0c3449150e64736f6c634300080c0033",
  "linkReferences": {},
  "deployedLinkReferences": {}
}