{
  "_format": "hh-sol-artifact-1",
  "contractName": "HORNS",
  "sourceName": "contracts/nft/HORNS.sol",
  "abi": [
    {
      "inputs": [
        {
          "internalType": "address",
          "name": "operator",
          "type": "address"
        }
      ],
      "name": "OperatorNotAllowed",
      "type": "error"
    },
    {
      "anonymous": false,
      "inputs": [
        {
          "indexed": true,
          "internalType": "address",
          "name": "owner",
          "type": "address"
        },
        {
          "indexed": true,
          "internalType": "address",
          "name": "approved",
          "type": "address"
        },
        {
          "indexed": true,
          "internalType": "uint256",
          "name": "tokenId",
          "type": "uint256"
        }
      ],
      "name": "Approval",
      "type": "event"
    },
    {
      "anonymous": false,
      "inputs": [
        {
          "indexed": true,
          "internalType": "address",
          "name": "owner",
          "type": "address"
        },
        {
          "indexed": true,
          "internalType": "address",
          "name": "operator",
          "type": "address"
        },
        {
          "indexed": false,
          "internalType": "bool",
          "name": "approved",
          "type": "bool"
        }
      ],
      "name": "ApprovalForAll",
      "type": "event"
    },
    {
      "anonymous": false,
      "inputs": [
        {
          "indexed": false,
          "internalType": "uint8",
          "name": "version",
          "type": "uint8"
        }
      ],
      "name": "Initialized",
      "type": "event"
    },
    {
      "anonymous": false,
      "inputs": [
        {
          "indexed": true,
          "internalType": "address",
          "name": "previousOwner",
          "type": "address"
        },
        {
          "indexed": true,
          "internalType": "address",
          "name": "newOwner",
          "type": "address"
        }
      ],
      "name": "OwnershipTransferred",
      "type": "event"
    },
    {
      "anonymous": false,
      "inputs": [
        {
          "indexed": false,
          "internalType": "address",
          "name": "account",
          "type": "address"
        }
      ],
      "name": "Paused",
      "type": "event"
    },
    {
      "anonymous": false,
      "inputs": [
        {
          "indexed": true,
          "internalType": "address",
          "name": "from",
          "type": "address"
        },
        {
          "indexed": true,
          "internalType": "address",
          "name": "to",
          "type": "address"
        },
        {
          "indexed": true,
          "internalType": "uint256",
          "name": "tokenId",
          "type": "uint256"
        }
      ],
      "name": "Transfer",
      "type": "event"
    },
    {
      "anonymous": false,
      "inputs": [
        {
          "indexed": false,
          "internalType": "address",
          "name": "account",
          "type": "address"
        }
      ],
      "name": "Unpaused",
      "type": "event"
    },
    {
      "inputs": [],
      "name": "_admin",
      "outputs": [
        {
          "internalType": "address",
          "name": "",
          "type": "address"
        }
      ],
      "stateMutability": "view",
      "type": "function"
    },
    {
      "inputs": [],
      "name": "_algorithm",
      "outputs": [
        {
          "internalType": "string",
          "name": "",
          "type": "string"
        }
      ],
      "stateMutability": "view",
      "type": "function"
    },
    {
      "inputs": [],
      "name": "_counter",
      "outputs": [
        {
          "internalType": "uint256",
          "name": "",
          "type": "uint256"
        }
      ],
      "stateMutability": "view",
      "type": "function"
    },
    {
      "inputs": [],
      "name": "_fee",
      "outputs": [
        {
          "internalType": "uint256",
          "name": "",
          "type": "uint256"
        }
      ],
      "stateMutability": "view",
      "type": "function"
    },
    {
      "inputs": [],
      "name": "_limit",
      "outputs": [
        {
          "internalType": "uint256",
          "name": "",
          "type": "uint256"
        }
      ],
      "stateMutability": "view",
      "type": "function"
    },
    {
      "inputs": [
        {
          "internalType": "string",
          "name": "",
          "type": "string"
        }
      ],
      "name": "_moods",
      "outputs": [
        {
          "internalType": "string",
          "name": "tempEmo",
          "type": "string"
        },
        {
          "internalType": "uint256",
          "name": "tempLastTime",
          "type": "uint256"
        }
      ],
      "stateMutability": "view",
      "type": "function"
    },
    {
      "inputs": [],
      "name": "_oracle",
      "outputs": [
        {
          "internalType": "address",
          "name": "",
          "type": "address"
        }
      ],
      "stateMutability": "view",
      "type": "function"
    },
    {
      "inputs": [],
      "name": "_paramsAddress",
      "outputs": [
        {
          "internalType": "address",
          "name": "",
          "type": "address"
        }
      ],
      "stateMutability": "view",
      "type": "function"
    },
    {
      "inputs": [
        {
          "internalType": "bytes32",
          "name": "",
          "type": "bytes32"
        }
      ],
      "name": "_requestIdData",
      "outputs": [
        {
          "internalType": "bytes",
          "name": "",
          "type": "bytes"
        }
      ],
      "stateMutability": "view",
      "type": "function"
    },
    {
      "inputs": [],
      "name": "_tokenAddrErc721",
      "outputs": [
        {
          "internalType": "address",
          "name": "",
          "type": "address"
        }
      ],
      "stateMutability": "view",
      "type": "function"
    },
    {
      "inputs": [],
      "name": "_uri",
      "outputs": [
        {
          "internalType": "string",
          "name": "",
          "type": "string"
        }
      ],
      "stateMutability": "view",
      "type": "function"
    },
    {
      "inputs": [
        {
          "internalType": "address",
          "name": "to",
          "type": "address"
        },
        {
          "internalType": "uint256",
          "name": "tokenId",
          "type": "uint256"
        }
      ],
      "name": "approve",
      "outputs": [],
      "stateMutability": "nonpayable",
      "type": "function"
    },
    {
      "inputs": [
        {
          "internalType": "address",
          "name": "owner",
          "type": "address"
        }
      ],
      "name": "balanceOf",
      "outputs": [
        {
          "internalType": "uint256",
          "name": "",
          "type": "uint256"
        }
      ],
      "stateMutability": "view",
      "type": "function"
    },
    {
      "inputs": [
        {
          "internalType": "address",
          "name": "newAdm",
          "type": "address"
        }
      ],
      "name": "changeAdmin",
      "outputs": [],
      "stateMutability": "nonpayable",
      "type": "function"
    },
    {
      "inputs": [
        {
          "internalType": "string",
          "name": "baseURI",
          "type": "string"
        }
      ],
      "name": "changeBaseURI",
      "outputs": [],
      "stateMutability": "nonpayable",
      "type": "function"
    },
    {
      "inputs": [
        {
          "internalType": "address",
          "name": "newP",
          "type": "address"
        }
      ],
      "name": "changeParam",
      "outputs": [],
      "stateMutability": "nonpayable",
      "type": "function"
    },
    {
      "inputs": [
        {
          "internalType": "address",
          "name": "sweet",
          "type": "address"
        }
      ],
      "name": "changeToken",
      "outputs": [],
      "stateMutability": "nonpayable",
      "type": "function"
    },
    {
      "inputs": [
        {
          "internalType": "uint256",
          "name": "tokenId",
          "type": "uint256"
        }
      ],
      "name": "getApproved",
      "outputs": [
        {
          "internalType": "address",
          "name": "",
          "type": "address"
        }
      ],
      "stateMutability": "view",
      "type": "function"
    },
    {
      "inputs": [
        {
          "internalType": "uint256",
          "name": "id",
          "type": "uint256"
        }
      ],
      "name": "getPaletteBottom",
      "outputs": [
        {
          "internalType": "string",
          "name": "",
          "type": "string"
        }
      ],
      "stateMutability": "view",
      "type": "function"
    },
    {
      "inputs": [
        {
          "internalType": "uint256",
          "name": "id",
          "type": "uint256"
        }
      ],
      "name": "getPaletteTop",
      "outputs": [
        {
          "internalType": "string",
          "name": "",
          "type": "string"
        }
      ],
      "stateMutability": "view",
      "type": "function"
    },
    {
      "inputs": [
        {
          "internalType": "uint256",
          "name": "tokenId",
          "type": "uint256"
        }
      ],
      "name": "getParamValues",
      "outputs": [
        {
          "components": [
            {
              "internalType": "string",
              "name": "nation",
              "type": "string"
            },
            {
              "internalType": "string",
              "name": "palletTop",
              "type": "string"
            },
            {
              "internalType": "string",
              "name": "palletBottom",
              "type": "string"
            }
          ],
          "internalType": "struct HORNS.Horn",
          "name": "horn",
          "type": "tuple"
        }
      ],
      "stateMutability": "view",
      "type": "function"
    },
    {
      "inputs": [
        {
          "internalType": "string",
          "name": "name",
          "type": "string"
        },
        {
          "internalType": "string",
          "name": "symbol",
          "type": "string"
        },
        {
          "internalType": "address",
          "name": "admin",
          "type": "address"
        },
        {
          "internalType": "address",
          "name": "paramsAddress",
          "type": "address"
        }
      ],
      "name": "initialize",
      "outputs": [],
      "stateMutability": "nonpayable",
      "type": "function"
    },
    {
      "inputs": [
        {
          "internalType": "address",
          "name": "owner",
          "type": "address"
        },
        {
          "internalType": "address",
          "name": "operator",
          "type": "address"
        }
      ],
      "name": "isApprovedForAll",
      "outputs": [
        {
          "internalType": "bool",
          "name": "",
          "type": "bool"
        }
      ],
      "stateMutability": "view",
      "type": "function"
    },
    {
      "inputs": [],
      "name": "mint",
      "outputs": [],
      "stateMutability": "payable",
      "type": "function"
    },
    {
      "inputs": [
        {
          "internalType": "uint256",
          "name": "tokenIdGated",
          "type": "uint256"
        }
      ],
      "name": "mintByToken",
      "outputs": [],
      "stateMutability": "nonpayable",
      "type": "function"
    },
    {
      "inputs": [],
      "name": "name",
      "outputs": [
        {
          "internalType": "string",
          "name": "",
          "type": "string"
        }
      ],
      "stateMutability": "view",
      "type": "function"
    },
    {
      "inputs": [],
      "name": "owner",
      "outputs": [
        {
          "internalType": "address",
          "name": "",
          "type": "address"
        }
      ],
      "stateMutability": "view",
      "type": "function"
    },
    {
      "inputs": [
        {
          "internalType": "uint256",
          "name": "id",
          "type": "uint256"
        }
      ],
      "name": "ownerMint",
      "outputs": [],
      "stateMutability": "nonpayable",
      "type": "function"
    },
    {
      "inputs": [
        {
          "internalType": "uint256",
          "name": "tokenId",
          "type": "uint256"
        }
      ],
      "name": "ownerOf",
      "outputs": [
        {
          "internalType": "address",
          "name": "",
          "type": "address"
        }
      ],
      "stateMutability": "view",
      "type": "function"
    },
    {
      "inputs": [],
      "name": "pause",
      "outputs": [],
      "stateMutability": "nonpayable",
      "type": "function"
    },
    {
      "inputs": [],
      "name": "paused",
      "outputs": [
        {
          "internalType": "bool",
          "name": "",
          "type": "bool"
        }
      ],
      "stateMutability": "view",
      "type": "function"
    },
    {
      "inputs": [],
      "name": "renounceOwnership",
      "outputs": [],
      "stateMutability": "nonpayable",
      "type": "function"
    },
    {
      "inputs": [
        {
          "internalType": "uint256",
          "name": "_tokenId",
          "type": "uint256"
        },
        {
          "internalType": "uint256",
          "name": "_salePrice",
          "type": "uint256"
        }
      ],
      "name": "royaltyInfo",
      "outputs": [
        {
          "internalType": "address",
          "name": "receiver",
          "type": "address"
        },
        {
          "internalType": "uint256",
          "name": "royaltyAmount",
          "type": "uint256"
        }
      ],
      "stateMutability": "view",
      "type": "function"
    },
    {
      "inputs": [
        {
          "internalType": "address",
          "name": "from",
          "type": "address"
        },
        {
          "internalType": "address",
          "name": "to",
          "type": "address"
        },
        {
          "internalType": "uint256",
          "name": "tokenId",
          "type": "uint256"
        }
      ],
      "name": "safeTransferFrom",
      "outputs": [],
      "stateMutability": "nonpayable",
      "type": "function"
    },
    {
      "inputs": [
        {
          "internalType": "address",
          "name": "from",
          "type": "address"
        },
        {
          "internalType": "address",
          "name": "to",
          "type": "address"
        },
        {
          "internalType": "uint256",
          "name": "tokenId",
          "type": "uint256"
        },
        {
          "internalType": "bytes",
          "name": "data",
          "type": "bytes"
        }
      ],
      "name": "safeTransferFrom",
      "outputs": [],
      "stateMutability": "nonpayable",
      "type": "function"
    },
    {
      "inputs": [
        {
          "internalType": "string",
          "name": "algo",
          "type": "string"
        }
      ],
      "name": "setAlgo",
      "outputs": [],
      "stateMutability": "nonpayable",
      "type": "function"
    },
    {
      "inputs": [
        {
          "internalType": "address",
          "name": "operator",
          "type": "address"
        },
        {
          "internalType": "bool",
          "name": "approved",
          "type": "bool"
        }
      ],
      "name": "setApprovalForAll",
      "outputs": [],
      "stateMutability": "nonpayable",
      "type": "function"
    },
    {
      "inputs": [
        {
          "internalType": "uint256",
          "name": "fee",
          "type": "uint256"
        }
      ],
      "name": "setFee",
      "outputs": [],
      "stateMutability": "nonpayable",
      "type": "function"
    },
    {
      "inputs": [
        {
          "internalType": "uint256",
          "name": "limit",
          "type": "uint256"
        }
      ],
      "name": "setLimit",
      "outputs": [],
      "stateMutability": "nonpayable",
      "type": "function"
    },
    {
      "inputs": [
        {
          "internalType": "bytes4",
          "name": "interfaceId",
          "type": "bytes4"
        }
      ],
      "name": "supportsInterface",
      "outputs": [
        {
          "internalType": "bool",
          "name": "",
          "type": "bool"
        }
      ],
      "stateMutability": "view",
      "type": "function"
    },
    {
      "inputs": [],
      "name": "symbol",
      "outputs": [
        {
          "internalType": "string",
          "name": "",
          "type": "string"
        }
      ],
      "stateMutability": "view",
      "type": "function"
    },
    {
      "inputs": [
        {
          "internalType": "uint256",
          "name": "tokenId",
          "type": "uint256"
        }
      ],
      "name": "tokenURI",
      "outputs": [
        {
          "internalType": "string",
          "name": "",
          "type": "string"
        }
      ],
      "stateMutability": "view",
      "type": "function"
    },
    {
      "inputs": [
        {
          "internalType": "address",
          "name": "from",
          "type": "address"
        },
        {
          "internalType": "address",
          "name": "to",
          "type": "address"
        },
        {
          "internalType": "uint256",
          "name": "tokenId",
          "type": "uint256"
        }
      ],
      "name": "transferFrom",
      "outputs": [],
      "stateMutability": "nonpayable",
      "type": "function"
    },
    {
      "inputs": [
        {
          "internalType": "address",
          "name": "newOwner",
          "type": "address"
        }
      ],
      "name": "transferOwnership",
      "outputs": [],
      "stateMutability": "nonpayable",
      "type": "function"
    },
    {
      "inputs": [],
      "name": "unpause",
      "outputs": [],
      "stateMutability": "nonpayable",
      "type": "function"
    },
    {
      "inputs": [
        {
          "internalType": "uint256",
          "name": "amount",
          "type": "uint256"
        }
      ],
      "name": "withdraw",
      "outputs": [],
      "stateMutability": "nonpayable",
      "type": "function"
    }
  ],
  "bytecode": "0x608060405234801561001057600080fd5b50613948806100206000396000f3fe60806040526004361061027d5760003560e01c806370a082311161014f578063a22cb465116100c1578063d59783141161007a578063d597831414610789578063df2fb92c146107a9578063e653c650146107c0578063e985e9c5146107e1578063f19e75d41461082a578063f2fde38b1461084a57600080fd5b8063a22cb465146106c4578063adfc7dae146106e4578063b88d4fde14610705578063c0dca23914610725578063c5b37c2214610752578063c87b56dd1461076957600080fd5b80638456cb59116101135780638456cb59146106265780638da5cb5b1461063b5780638f15b4141461065a5780638f2839701461067a57806395d89b411461069a578063a1bb1fcc146106af57600080fd5b806370a082311461058c578063715018a6146105ba578063741149b1146105cf5780637cd49fde146105ef57806380d953dd1461060657600080fd5b806327ea6f2b116101f35780635c975abb116101ac5780635c975abb146104d45780635d36b3ea146104ec5780636352211e1461050c57806366829b161461052c57806369fe0e2d1461054c5780636a2c39951461056c57600080fd5b806327ea6f2b146104005780632a55205a146104205780632e1a7d4d1461045f57806339a0c6f91461047f5780633f4ba83a1461049f57806342842e0e146104b457600080fd5b8063081812fc11610245578063081812fc14610362578063095ea7b3146103825780630dccc9ad146103a25780631249c58b146103b757806323b872dd146103bf578063247ac063146103df57600080fd5b806301bc45c91461028257806301ffc9a7146102c057806303f119ed146102f057806306fdde031461031e5780630764da1d14610340575b600080fd5b34801561028e57600080fd5b5061015f546102a3906001600160a01b031681565b6040516001600160a01b0390911681526020015b60405180910390f35b3480156102cc57600080fd5b506102e06102db366004613225565b61086a565b60405190151581526020016102b7565b3480156102fc57600080fd5b5061031061030b3660046132ee565b6108bc565b6040516102b792919061337b565b34801561032a57600080fd5b5061033361096c565b6040516102b7919061339d565b34801561034c57600080fd5b5061036061035b3660046132ee565b6109fe565b005b34801561036e57600080fd5b506102a361037d3660046133b0565b610a67565b34801561038e57600080fd5b5061036061039d3660046133e5565b610a8e565b3480156103ae57600080fd5b50610333610ba4565b610360610c33565b3480156103cb57600080fd5b506103606103da36600461340f565b610cda565b3480156103eb57600080fd5b50610161546102a3906001600160a01b031681565b34801561040c57600080fd5b5061036061041b3660046133b0565b610e30565b34801561042c57600080fd5b5061044061043b36600461344b565b610e7e565b604080516001600160a01b0390931683526020830191909152016102b7565b34801561046b57600080fd5b5061036061047a3660046133b0565b610eaf565b34801561048b57600080fd5b5061036061049a3660046132ee565b610fad565b3480156104ab57600080fd5b50610360611009565b3480156104c057600080fd5b506103606104cf36600461340f565b611059565b3480156104e057600080fd5b5060975460ff166102e0565b3480156104f857600080fd5b506103336105073660046133b0565b6111a4565b34801561051857600080fd5b506102a36105273660046133b0565b6113fa565b34801561053857600080fd5b5061036061054736600461346d565b61145a565b34801561055857600080fd5b506103606105673660046133b0565b6114c5565b34801561057857600080fd5b506103336105873660046133b0565b611513565b34801561059857600080fd5b506105ac6105a736600461346d565b611740565b6040519081526020016102b7565b3480156105c657600080fd5b506103606117c6565b3480156105db57600080fd5b506103606105ea36600461346d565b6117d8565b3480156105fb57600080fd5b506105ac6101645481565b34801561061257600080fd5b506103606106213660046133b0565b611874565b34801561063257600080fd5b50610360611922565b34801561064757600080fd5b5061012d546001600160a01b03166102a3565b34801561066657600080fd5b50610360610675366004613488565b611972565b34801561068657600080fd5b5061036061069536600461346d565b611b3d565b3480156106a657600080fd5b50610333611bd9565b3480156106bb57600080fd5b50610333611be8565b3480156106d057600080fd5b506103606106df36600461351b565b611bf6565b3480156106f057600080fd5b50610160546102a3906001600160a01b031681565b34801561071157600080fd5b50610360610720366004613552565b611c01565b34801561073157600080fd5b506107456107403660046133b0565b611d53565b6040516102b791906135ce565b34801561075e57600080fd5b506105ac6101675481565b34801561077557600080fd5b506103336107843660046133b0565b611daf565b34801561079557600080fd5b506103336107a43660046133b0565b611e16565b3480156107b557600080fd5b506105ac6101695481565b3480156107cc57600080fd5b50610166546102a3906001600160a01b031681565b3480156107ed57600080fd5b506102e06107fc36600461362f565b6001600160a01b039182166000908152606a6020908152604080832093909416825291909152205460ff1690565b34801561083657600080fd5b506103606108453660046133b0565b611e30565b34801561085657600080fd5b5061036061086536600461346d565b611ea1565b60006001600160e01b031982166380ac58cd60e01b148061089b57506001600160e01b03198216635b5e139f60e01b145b806108b657506301ffc9a760e01b6001600160e01b03198316145b92915050565b8051602081830181018051610168825292820191909301209152805481906108e390613659565b80601f016020809104026020016040519081016040528092919081815260200182805461090f90613659565b801561095c5780601f106109315761010080835404028352916020019161095c565b820191906000526020600020905b81548152906001019060200180831161093f57829003601f168201915b5050505050908060010154905082565b60606065805461097b90613659565b80601f01602080910402602001604051908101604052809291908181526020018280546109a790613659565b80156109f45780601f106109c9576101008083540402835291602001916109f4565b820191906000526020600020905b8154815290600101906020018083116109d757829003601f168201915b5050505050905090565b61015f5460408051808201909152600381526231303160e81b6020820152906001600160a01b03163314610a4e5760405162461bcd60e51b8152600401610a45919061339d565b60405180910390fd5b508051610a6390610163906020840190613176565b5050565b6000610a7282611f17565b506000908152606960205260409020546001600160a01b031690565b6000610a99826113fa565b9050806001600160a01b0316836001600160a01b03161415610b075760405162461bcd60e51b815260206004820152602160248201527f4552433732313a20617070726f76616c20746f2063757272656e74206f776e656044820152603960f91b6064820152608401610a45565b336001600160a01b0382161480610b235750610b2381336107fc565b610b955760405162461bcd60e51b815260206004820152603e60248201527f4552433732313a20617070726f76652063616c6c6572206973206e6f7420746f60448201527f6b656e206f776e6572206e6f7220617070726f76656420666f7220616c6c00006064820152608401610a45565b610b9f8383611f76565b505050565b6101658054610bb290613659565b80601f0160208091040260200160405190810160405280929190818152602001828054610bde90613659565b8015610c2b5780601f10610c0057610100808354040283529160200191610c2b565b820191906000526020600020905b815481529060010190602001808311610c0e57829003601f168201915b505050505081565b600061016754118015610c495750610167543410155b8015610c585750600061016954115b6040518060400160405280600381526020016232303160e81b81525090610c925760405162461bcd60e51b8152600401610a45919061339d565b5061232861016454108015610cac57506101695461016454105b610cb557600080fd5b6101648054906000610cc6836136aa565b9190505550610cd83361016454611fe4565b565b826daaeb6d7670e522a718067333cd4e3b15610e1f576001600160a01b038116331415610d1157610d0c848484611ffe565b610e2a565b604051633185c44d60e21b81526daaeb6d7670e522a718067333cd4e9063c617113490610d4490309033906004016136c5565b602060405180830381865afa158015610d61573d6000803e3d6000fd5b505050506040513d601f19601f82011682018060405250810190610d8591906136df565b8015610e005750604051633185c44d60e21b81526daaeb6d7670e522a718067333cd4e9063c617113490610dbf90309085906004016136c5565b602060405180830381865afa158015610ddc573d6000803e3d6000fd5b505050506040513d601f19601f82011682018060405250810190610e0091906136df565b610e1f57604051633b79c77360e21b8152336004820152602401610a45565b610e2a848484611ffe565b50505050565b61015f5460408051808201909152600381526231303160e81b6020820152906001600160a01b03163314610e775760405162461bcd60e51b8152600401610a45919061339d565b5061016955565b61015f546001600160a01b03166000612710610e9c846101f46136fc565b610ea69190613731565b90509250929050565b600260fb541415610f025760405162461bcd60e51b815260206004820152601f60248201527f5265656e7472616e637947756172643a207265656e7472616e742063616c6c006044820152606401610a45565b600260fb5561015f5460408051808201909152600381526231303160e81b6020820152906001600160a01b03163314610f4e5760405162461bcd60e51b8152600401610a45919061339d565b50604051600090339047908381818185875af1925050503d8060008114610f91576040519150601f19603f3d011682016040523d82523d6000602084013e610f96565b606091505b5050905080610fa457600080fd5b5050600160fb55565b61015f5460408051808201909152600381526231303160e81b6020820152906001600160a01b03163314610ff45760405162461bcd60e51b8152600401610a45919061339d565b508051610a6390610165906020840190613176565b61015f5460408051808201909152600381526231303160e81b6020820152906001600160a01b031633146110505760405162461bcd60e51b8152600401610a45919061339d565b50610cd861202f565b826daaeb6d7670e522a718067333cd4e3b15611199576001600160a01b03811633141561108b57610d0c848484612081565b604051633185c44d60e21b81526daaeb6d7670e522a718067333cd4e9063c6171134906110be90309033906004016136c5565b602060405180830381865afa1580156110db573d6000803e3d6000fd5b505050506040513d601f19601f820116820180604052508101906110ff91906136df565b801561117a5750604051633185c44d60e21b81526daaeb6d7670e522a718067333cd4e9063c61711349061113990309085906004016136c5565b602060405180830381865afa158015611156573d6000803e3d6000fd5b505050506040513d601f19601f8201168201806040525081019061117a91906136df565b61119957604051633b79c77360e21b8152336004820152602401610a45565b610e2a848484612081565b6040805161024081018252600761020082018181526611a29b9a199a2360c91b6102208401528252825180840184528181526608d14dce4dccd160ca1b6020828101919091528084019190915283518085018552828152662345374443344560c81b8183015283850152835180850185528281526608cd50d14dcd5160ca1b8183015260608481019190915284518086018652838152662332393831453760c81b81840152608085015284518086018652838152662335443231453760c81b8184015260a0850152845180860186528381526608d14dcdcdd14d60ca1b8184015260c085015284518086018652838152662345374537453760c81b8184015260e0850152845180860186528381526608cccc4c8d8c8d60ca1b81840152610100850152845180860186528381526611a29b9c9b1ca360c91b8184015261012085015284518086018652838152662345374232373760c81b81840152610140850152845180860186528381526611a29ba2221c2360c91b8184015261016085015284518086018652838152662338434537433360c81b8184015261018085015284518086018652838152662338374232453760c81b818401526101a085015284518086018652838152662341303832453760c81b818401526101c085015284518086018652928352662345344237453760c81b838301526101e08401929092528351808501909452600c84526b70616c6c6574426f74746f6d60a01b908401529181906010906113d490869061209c565b6113de9190613745565b601081106113ee576113ee613759565b60200201519392505050565b6000818152606760205260408120546001600160a01b0316806108b65760405162461bcd60e51b8152602060048201526018602482015277115490cdcc8c4e881a5b9d985b1a59081d1bdad95b88125160421b6044820152606401610a45565b61015f5460408051808201909152600381526231303160e81b6020820152906001600160a01b031633146114a15760405162461bcd60e51b8152600401610a45919061339d565b5061016680546001600160a01b0319166001600160a01b0392909216919091179055565b61015f5460408051808201909152600381526231303160e81b6020820152906001600160a01b0316331461150c5760405162461bcd60e51b8152600401610a45919061339d565b5061016755565b6040805161024081018252600761020082018181526611a29b9a199a2360c91b6102208401528252825180840184528181526608d14dce4dccd160ca1b6020828101919091528084019190915283518085018552828152662345374443344560c81b8183015283850152835180850185528281526608cd50d14dcd5160ca1b8183015260608481019190915284518086018652838152662332393831453760c81b81840152608085015284518086018652838152662335443231453760c81b8184015260a0850152845180860186528381526608d14dcdcdd14d60ca1b8184015260c085015284518086018652838152662345374537453760c81b8184015260e0850152845180860186528381526608cccc4c8d8c8d60ca1b81840152610100850152845180860186528381526611a29b9c9b1ca360c91b8184015261012085015284518086018652838152662345374232373760c81b81840152610140850152845180860186528381526611a29ba2221c2360c91b8184015261016085015284518086018652838152662338434537433360c81b8184015261018085015284518086018652838152662338374232453760c81b818401526101a085015284518086018652838152662341303832453760c81b818401526101c085015284518086018652928352662345344237453760c81b838301526101e084019290925283518085019094526009845268070616c6c6574546f760bc1b908401529181906010906113d490869061209c565b60006001600160a01b0382166117aa5760405162461bcd60e51b815260206004820152602960248201527f4552433732313a2061646472657373207a65726f206973206e6f7420612076616044820152683634b21037bbb732b960b91b6064820152608401610a45565b506001600160a01b031660009081526068602052604090205490565b6117ce6120d8565b610cd86000612133565b61015f546001600160a01b0316331480156117fb57506001600160a01b03811615155b80156118165750610160546001600160a01b03828116911614155b6040518060400160405280600381526020016231303160e81b815250906118505760405162461bcd60e51b8152600401610a45919061339d565b5061016080546001600160a01b0319166001600160a01b0392909216919091179055565b610166546001600160a01b0316158015906118925750600061016954115b6040518060400160405280600381526020016203130360ec1b815250906118cc5760405162461bcd60e51b8152600401610a45919061339d565b5061016654610164546001600160a01b03909116906123281180156118f657506101695461016454105b6118ff57600080fd5b6101648054906000611910836136aa565b9190505550610a633361016454611fe4565b61015f5460408051808201909152600381526231303160e81b6020820152906001600160a01b031633146119695760405162461bcd60e51b8152600401610a45919061339d565b50610cd8612186565b600054610100900460ff16158080156119925750600054600160ff909116105b806119ac5750303b1580156119ac575060005460ff166001145b611a0f5760405162461bcd60e51b815260206004820152602e60248201527f496e697469616c697a61626c653a20636f6e747261637420697320616c72656160448201526d191e481a5b9a5d1a585b1a5e995960921b6064820152608401610a45565b6000805460ff191660011790558015611a32576000805461ff0019166101001790555b6001600160a01b03831615801590611a5257506001600160a01b03821615155b6040518060400160405280600381526020016203130360ec1b81525090611a8c5760405162461bcd60e51b8152600401610a45919061339d565b50611a9785856121c3565b61016080546001600160a01b038085166001600160a01b03199283161790925561015f80549286169290911691909117905561232861016955611ad86121f4565b611ae0612223565b611ae8612269565b611af0612298565b8015611b36576000805461ff0019169055604051600181527f7f26b83ff96e1f2b6a682f133852f6798a09c465da95921460cefb38474024989060200160405180910390a15b5050505050565b61015f546001600160a01b031633148015611b6057506001600160a01b03811615155b8015611b7b575061015f546001600160a01b03828116911614155b6040518060400160405280600381526020016231303160e81b81525090611bb55760405162461bcd60e51b8152600401610a45919061339d565b5061015f80546001600160a01b0319166001600160a01b0392909216919091179055565b60606066805461097b90613659565b6101638054610bb290613659565b610a633383836122c7565b836daaeb6d7670e522a718067333cd4e3b15611d47576001600160a01b038116331415611c3957611c3485858585612396565b611b36565b604051633185c44d60e21b81526daaeb6d7670e522a718067333cd4e9063c617113490611c6c90309033906004016136c5565b602060405180830381865afa158015611c89573d6000803e3d6000fd5b505050506040513d601f19601f82011682018060405250810190611cad91906136df565b8015611d285750604051633185c44d60e21b81526daaeb6d7670e522a718067333cd4e9063c617113490611ce790309085906004016136c5565b602060405180830381865afa158015611d04573d6000803e3d6000fd5b505050506040513d601f19601f82011682018060405250810190611d2891906136df565b611d4757604051633b79c77360e21b8152336004820152602401610a45565b611b3685858585612396565b611d7760405180606001604052806060815260200160608152602001606081525090565b6040518060600160405280611d8b846123c8565b8152602001611d99846111a4565b8152602001611da784611513565b905292915050565b6060611dba82611f17565b6000611dc4612823565b90506000815111611de45760405180602001604052806000815250611e0f565b80611dee84612833565b604051602001611dff92919061376f565b6040516020818303038152906040525b9392505050565b6101626020526000908152604090208054610bb290613659565b61015f5460408051808201909152600381526231303160e81b6020820152906001600160a01b03163314611e775760405162461bcd60e51b8152600401610a45919061339d565b5061232881118015611e8b57506127108111155b611e9457600080fd5b611e9e3382611fe4565b50565b611ea96120d8565b6001600160a01b038116611f0e5760405162461bcd60e51b815260206004820152602660248201527f4f776e61626c653a206e6577206f776e657220697320746865207a65726f206160448201526564647265737360d01b6064820152608401610a45565b611e9e81612133565b6000818152606760205260409020546001600160a01b0316611e9e5760405162461bcd60e51b8152602060048201526018602482015277115490cdcc8c4e881a5b9d985b1a59081d1bdad95b88125160421b6044820152606401610a45565b600081815260696020526040902080546001600160a01b0319166001600160a01b0384169081179091558190611fab826113fa565b6001600160a01b03167f8c5be1e5ebec7d5bd14f71427d1e84f3dd0314c0f7b2291e5b200ac8c7c3b92560405160405180910390a45050565b610a63828260405180602001604052806000815250612939565b612008338261296c565b6120245760405162461bcd60e51b8152600401610a459061379e565b610b9f8383836129ea565b612037612b91565b6097805460ff191690557f5db9ee0a495bf2e6ff9c91a7834c1ba4fdd244a5e8aa4e537bd38aeae4b073aa335b6040516001600160a01b03909116815260200160405180910390a1565b610b9f83838360405180602001604052806000815250611c01565b6000816120a884612833565b6040516020016120b992919061376f565b60408051601f1981840301815291905280516020909101209392505050565b61012d546001600160a01b03163314610cd85760405162461bcd60e51b815260206004820181905260248201527f4f776e61626c653a2063616c6c6572206973206e6f7420746865206f776e65726044820152606401610a45565b61012d80546001600160a01b038381166001600160a01b0319831681179093556040519116919082907f8be0079c531659141344cd1fd0a4f28419497f9722a3daafe3b4186f6b6457e090600090a35050565b61218e612bda565b6097805460ff191660011790557f62e78cea01bee320cd4e420270b5ea74000d11b0c9f74754ebdbfc544b05a2586120643390565b600054610100900460ff166121ea5760405162461bcd60e51b8152600401610a45906137ec565b610a638282612c20565b600054610100900460ff1661221b5760405162461bcd60e51b8152600401610a45906137ec565b610cd8612c6e565b600054610100900460ff1661224a5760405162461bcd60e51b8152600401610a45906137ec565b610cd8733cc6cdda760b79bafa08df41ecfa224f810dceb66001612c9e565b600054610100900460ff166122905760405162461bcd60e51b8152600401610a45906137ec565b610cd8612e2f565b600054610100900460ff166122bf5760405162461bcd60e51b8152600401610a45906137ec565b610cd8612e5d565b816001600160a01b0316836001600160a01b031614156123295760405162461bcd60e51b815260206004820152601960248201527f4552433732313a20617070726f766520746f2063616c6c6572000000000000006044820152606401610a45565b6001600160a01b038381166000818152606a6020908152604080832094871680845294825291829020805460ff191686151590811790915591519182527f17307eab39ab6107e8899845ad3d59bd9653f200f220920489ca2b5937696c31910160405180910390a3505050565b6123a0338361296c565b6123bc5760405162461bcd60e51b8152600401610a459061379e565b610e2a84848484612e90565b6040805161044081018252600561040082018181526428b0ba30b960d91b61042084015282528251808401845260078082526622b1bab0b237b960c91b60208381019190915280850192909252845180860186528181526614d95b9959d85b60ca1b818401528486015284518086018652600b8082526a4e65746865726c616e647360a81b828501526060868101929092528651808801885283815266115b99db185b9960ca1b818601526080870152865180880188528381526624a91024b930b760c91b8186015260a087015286518088018852600381526255534160e81b8186015260c0870152865180880188528581526457616c657360d81b8186015260e087015286518088018852600980825268417267656e74696e6160b81b8287015261010088019190915287518089018952600c81526b53617564692041726162696160a01b81870152610120880152875180890189526006808252654d657869636f60d01b828801526101408901919091528851808a018a5281815265141bdb185b9960d21b818801526101608901528851808a018a52818152654672616e636560d01b818801526101808901528851808a018a52918252684175737472616c696160b81b828701526101a0880191909152875180890189528481526644656e6d61726b60c81b818701526101c0880152875180890189528481526654756e6973696160c81b818701526101e0880152875180890189528681526429b830b4b760d91b8187015261020088015287518089018952600a815269436f737461205269636160b01b8187015261022088015287518089018952848152664765726d616e7960c81b8187015261024088015287518089018952868152642530b830b760d91b81870152610260880152875180890189528481526642656c6769756d60c81b81870152610280880152875180890189528181526543616e61646160d01b818701526102a088015287518089018952848152664d6f726f63636f60c81b818701526102c0880152875180890189528481526643726f6174696160c81b818701526102e08801528751808901895281815265109c985e9a5b60d21b81870152610300880152875180890189528181526553657262696160d01b81870152610320880152875180890189529182526a14ddda5d1e995c9b185b9960aa1b828601526103408701919091528651808801885260088082526721b0b6b2b937b7b760c11b828701526103608801919091528751808901895290815267141bdc9d1d59d85b60c21b8186015261038087015286518088018852948552644768616e6160d81b858501526103a086019490945285518087018752918252665572756775617960c81b828401526103c085019190915284518086018652600e81526d4b6f7265612052657075626c696360901b818401526103e08501528451808601909552918452653730ba34b7b760d11b84820152909282919061280990869061209c565b6128139190613745565b602081106113ee576113ee613759565b6060610165805461097b90613659565b6060816128575750506040805180820190915260018152600360fc1b602082015290565b8160005b8115612881578061286b816136aa565b915061287a9050600a83613731565b915061285b565b60008167ffffffffffffffff81111561289c5761289c613242565b6040519080825280601f01601f1916602001820160405280156128c6576020820181803683370190505b5090505b8415612931576128db600183613837565b91506128e8600a86613745565b6128f390603061384e565b60f81b81838151811061290857612908613759565b60200101906001600160f81b031916908160001a90535061292a600a86613731565b94506128ca565b949350505050565b6129438383612ec3565b6129506000848484613011565b610b9f5760405162461bcd60e51b8152600401610a4590613866565b600080612978836113fa565b9050806001600160a01b0316846001600160a01b031614806129bf57506001600160a01b038082166000908152606a602090815260408083209388168352929052205460ff165b806129315750836001600160a01b03166129d884610a67565b6001600160a01b031614949350505050565b826001600160a01b03166129fd826113fa565b6001600160a01b031614612a615760405162461bcd60e51b815260206004820152602560248201527f4552433732313a207472616e736665722066726f6d20696e636f72726563742060448201526437bbb732b960d91b6064820152608401610a45565b6001600160a01b038216612ac35760405162461bcd60e51b8152602060048201526024808201527f4552433732313a207472616e7366657220746f20746865207a65726f206164646044820152637265737360e01b6064820152608401610a45565b612ace83838361310f565b612ad9600082611f76565b6001600160a01b0383166000908152606860205260408120805460019290612b02908490613837565b90915550506001600160a01b0382166000908152606860205260408120805460019290612b3090849061384e565b909155505060008181526067602052604080822080546001600160a01b0319166001600160a01b0386811691821790925591518493918716917fddf252ad1be2c89b69c2b068fc378daa952ba7f163c4a11628f55a4df523b3ef91a4505050565b60975460ff16610cd85760405162461bcd60e51b815260206004820152601460248201527314185d5cd8589b194e881b9bdd081c185d5cd95960621b6044820152606401610a45565b60975460ff1615610cd85760405162461bcd60e51b815260206004820152601060248201526f14185d5cd8589b194e881c185d5cd95960821b6044820152606401610a45565b600054610100900460ff16612c475760405162461bcd60e51b8152600401610a45906137ec565b8151612c5a906065906020850190613176565b508051610b9f906066906020840190613176565b600054610100900460ff16612c955760405162461bcd60e51b8152600401610a45906137ec565b610cd833612133565b600054610100900460ff16612cc55760405162461bcd60e51b8152600401610a45906137ec565b6daaeb6d7670e522a718067333cd4e3b15610a635760405163c3c5a54760e01b81523060048201526daaeb6d7670e522a718067333cd4e9063c3c5a547906024016020604051808303816000875af1158015612d25573d6000803e3d6000fd5b505050506040513d601f19601f82011682018060405250810190612d4991906136df565b610a63578015612dbc57604051633e9f1edf60e11b81526daaeb6d7670e522a718067333cd4e90637d3e3dbe90612d8690309086906004016136c5565b600060405180830381600087803b158015612da057600080fd5b505af1158015612db4573d6000803e3d6000fd5b505050505050565b6001600160a01b03821615612dfe5760405163a0af290360e01b81526daaeb6d7670e522a718067333cd4e9063a0af290390612d8690309086906004016136c5565b604051632210724360e11b81523060048201526daaeb6d7670e522a718067333cd4e90634420e48690602401612d86565b600054610100900460ff16612e565760405162461bcd60e51b8152600401610a45906137ec565b600160fb55565b600054610100900460ff16612e845760405162461bcd60e51b8152600401610a45906137ec565b6097805460ff19169055565b612e9b8484846129ea565b612ea784848484613011565b610e2a5760405162461bcd60e51b8152600401610a4590613866565b6001600160a01b038216612f195760405162461bcd60e51b815260206004820181905260248201527f4552433732313a206d696e7420746f20746865207a65726f20616464726573736044820152606401610a45565b6000818152606760205260409020546001600160a01b031615612f7e5760405162461bcd60e51b815260206004820152601c60248201527f4552433732313a20746f6b656e20616c7265616479206d696e746564000000006044820152606401610a45565b612f8a6000838361310f565b6001600160a01b0382166000908152606860205260408120805460019290612fb390849061384e565b909155505060008181526067602052604080822080546001600160a01b0319166001600160a01b03861690811790915590518392907fddf252ad1be2c89b69c2b068fc378daa952ba7f163c4a11628f55a4df523b3ef908290a45050565b60006001600160a01b0384163b1561310457604051630a85bd0160e11b81526001600160a01b0385169063150b7a02906130559033908990889088906004016138b8565b6020604051808303816000875af1925050508015613090575060408051601f3d908101601f1916820190925261308d918101906138f5565b60015b6130ea573d8080156130be576040519150601f19603f3d011682016040523d82523d6000602084013e6130c3565b606091505b5080516130e25760405162461bcd60e51b8152600401610a4590613866565b805181602001fd5b6001600160e01b031916630a85bd0160e11b149050612931565b506001949350505050565b60975460ff1615610b9f5760405162461bcd60e51b815260206004820152602b60248201527f4552433732315061757361626c653a20746f6b656e207472616e73666572207760448201526a1a1a5b19481c185d5cd95960aa1b6064820152608401610a45565b82805461318290613659565b90600052602060002090601f0160209004810192826131a457600085556131ea565b82601f106131bd57805160ff19168380011785556131ea565b828001600101855582156131ea579182015b828111156131ea5782518255916020019190600101906131cf565b506131f69291506131fa565b5090565b5b808211156131f657600081556001016131fb565b6001600160e01b031981168114611e9e57600080fd5b60006020828403121561323757600080fd5b8135611e0f8161320f565b634e487b7160e01b600052604160045260246000fd5b600067ffffffffffffffff8084111561327357613273613242565b604051601f8501601f19908116603f0116810190828211818310171561329b5761329b613242565b816040528093508581528686860111156132b457600080fd5b858560208301376000602087830101525050509392505050565b600082601f8301126132df57600080fd5b611e0f83833560208501613258565b60006020828403121561330057600080fd5b813567ffffffffffffffff81111561331757600080fd5b612931848285016132ce565b60005b8381101561333e578181015183820152602001613326565b83811115610e2a5750506000910152565b60008151808452613367816020860160208601613323565b601f01601f19169290920160200192915050565b60408152600061338e604083018561334f565b90508260208301529392505050565b602081526000611e0f602083018461334f565b6000602082840312156133c257600080fd5b5035919050565b80356001600160a01b03811681146133e057600080fd5b919050565b600080604083850312156133f857600080fd5b613401836133c9565b946020939093013593505050565b60008060006060848603121561342457600080fd5b61342d846133c9565b925061343b602085016133c9565b9150604084013590509250925092565b6000806040838503121561345e57600080fd5b50508035926020909101359150565b60006020828403121561347f57600080fd5b611e0f826133c9565b6000806000806080858703121561349e57600080fd5b843567ffffffffffffffff808211156134b657600080fd5b6134c2888389016132ce565b955060208701359150808211156134d857600080fd5b506134e5878288016132ce565b9350506134f4604086016133c9565b9150613502606086016133c9565b905092959194509250565b8015158114611e9e57600080fd5b6000806040838503121561352e57600080fd5b613537836133c9565b915060208301356135478161350d565b809150509250929050565b6000806000806080858703121561356857600080fd5b613571856133c9565b935061357f602086016133c9565b925060408501359150606085013567ffffffffffffffff8111156135a257600080fd5b8501601f810187136135b357600080fd5b6135c287823560208401613258565b91505092959194509250565b6020815260008251606060208401526135ea608084018261334f565b90506020840151601f1980858403016040860152613608838361334f565b9250604086015191508085840301606086015250613626828261334f565b95945050505050565b6000806040838503121561364257600080fd5b61364b836133c9565b9150610ea6602084016133c9565b600181811c9082168061366d57607f821691505b6020821081141561368e57634e487b7160e01b600052602260045260246000fd5b50919050565b634e487b7160e01b600052601160045260246000fd5b60006000198214156136be576136be613694565b5060010190565b6001600160a01b0392831681529116602082015260400190565b6000602082840312156136f157600080fd5b8151611e0f8161350d565b600081600019048311821515161561371657613716613694565b500290565b634e487b7160e01b600052601260045260246000fd5b6000826137405761374061371b565b500490565b6000826137545761375461371b565b500690565b634e487b7160e01b600052603260045260246000fd5b60008351613781818460208801613323565b835190830190613795818360208801613323565b01949350505050565b6020808252602e908201527f4552433732313a2063616c6c6572206973206e6f7420746f6b656e206f776e6560408201526d1c881b9bdc88185c1c1c9bdd995960921b606082015260800190565b6020808252602b908201527f496e697469616c697a61626c653a20636f6e7472616374206973206e6f74206960408201526a6e697469616c697a696e6760a81b606082015260800190565b60008282101561384957613849613694565b500390565b6000821982111561386157613861613694565b500190565b60208082526032908201527f4552433732313a207472616e7366657220746f206e6f6e20455243373231526560408201527131b2b4bb32b91034b6b83632b6b2b73a32b960711b606082015260800190565b6001600160a01b03858116825284166020820152604081018390526080606082018190526000906138eb9083018461334f565b9695505050505050565b60006020828403121561390757600080fd5b8151611e0f8161320f56fea26469706673582212201b09a19a9010833d5286dd207c87cb6c324965875cc42433b120272313ee0ee964736f6c634300080c0033",
  "linkReferences": {},
  "deployedLinkReferences": {}
}