{
  "_format": "hh-sol-artifact-1",
  "contractName": "HORNS",
  "sourceName": "contracts/nft/HORNS.sol",
  "abi": [
    {
      "inputs": [
        {
          "internalType": "address",
          "name": "operator",
          "type": "address"
        }
      ],
      "name": "OperatorNotAllowed",
      "type": "error"
    },
    {
      "anonymous": false,
      "inputs": [
        {
          "indexed": true,
          "internalType": "address",
          "name": "owner",
          "type": "address"
        },
        {
          "indexed": true,
          "internalType": "address",
          "name": "approved",
          "type": "address"
        },
        {
          "indexed": true,
          "internalType": "uint256",
          "name": "tokenId",
          "type": "uint256"
        }
      ],
      "name": "Approval",
      "type": "event"
    },
    {
      "anonymous": false,
      "inputs": [
        {
          "indexed": true,
          "internalType": "address",
          "name": "owner",
          "type": "address"
        },
        {
          "indexed": true,
          "internalType": "address",
          "name": "operator",
          "type": "address"
        },
        {
          "indexed": false,
          "internalType": "bool",
          "name": "approved",
          "type": "bool"
        }
      ],
      "name": "ApprovalForAll",
      "type": "event"
    },
    {
      "anonymous": false,
      "inputs": [
        {
          "indexed": false,
          "internalType": "uint8",
          "name": "version",
          "type": "uint8"
        }
      ],
      "name": "Initialized",
      "type": "event"
    },
    {
      "anonymous": false,
      "inputs": [
        {
          "indexed": true,
          "internalType": "address",
          "name": "previousOwner",
          "type": "address"
        },
        {
          "indexed": true,
          "internalType": "address",
          "name": "newOwner",
          "type": "address"
        }
      ],
      "name": "OwnershipTransferred",
      "type": "event"
    },
    {
      "anonymous": false,
      "inputs": [
        {
          "indexed": false,
          "internalType": "address",
          "name": "account",
          "type": "address"
        }
      ],
      "name": "Paused",
      "type": "event"
    },
    {
      "anonymous": false,
      "inputs": [
        {
          "indexed": true,
          "internalType": "address",
          "name": "from",
          "type": "address"
        },
        {
          "indexed": true,
          "internalType": "address",
          "name": "to",
          "type": "address"
        },
        {
          "indexed": true,
          "internalType": "uint256",
          "name": "tokenId",
          "type": "uint256"
        }
      ],
      "name": "Transfer",
      "type": "event"
    },
    {
      "anonymous": false,
      "inputs": [
        {
          "indexed": false,
          "internalType": "address",
          "name": "account",
          "type": "address"
        }
      ],
      "name": "Unpaused",
      "type": "event"
    },
    {
      "inputs": [],
      "name": "_admin",
      "outputs": [
        {
          "internalType": "address",
          "name": "",
          "type": "address"
        }
      ],
      "stateMutability": "view",
      "type": "function"
    },
    {
      "inputs": [],
      "name": "_algorithm",
      "outputs": [
        {
          "internalType": "string",
          "name": "",
          "type": "string"
        }
      ],
      "stateMutability": "view",
      "type": "function"
    },
    {
      "inputs": [],
      "name": "_counter",
      "outputs": [
        {
          "internalType": "uint256",
          "name": "",
          "type": "uint256"
        }
      ],
      "stateMutability": "view",
      "type": "function"
    },
    {
      "inputs": [],
      "name": "_fee",
      "outputs": [
        {
          "internalType": "uint256",
          "name": "",
          "type": "uint256"
        }
      ],
      "stateMutability": "view",
      "type": "function"
    },
    {
      "inputs": [],
      "name": "_limit",
      "outputs": [
        {
          "internalType": "uint256",
          "name": "",
          "type": "uint256"
        }
      ],
      "stateMutability": "view",
      "type": "function"
    },
    {
      "inputs": [],
      "name": "_paramsAddress",
      "outputs": [
        {
          "internalType": "address",
          "name": "",
          "type": "address"
        }
      ],
      "stateMutability": "view",
      "type": "function"
    },
    {
      "inputs": [],
      "name": "_tokenAddrErc721",
      "outputs": [
        {
          "internalType": "address",
          "name": "",
          "type": "address"
        }
      ],
      "stateMutability": "view",
      "type": "function"
    },
    {
      "inputs": [],
      "name": "_uri",
      "outputs": [
        {
          "internalType": "string",
          "name": "",
          "type": "string"
        }
      ],
      "stateMutability": "view",
      "type": "function"
    },
    {
      "inputs": [
        {
          "internalType": "address",
          "name": "to",
          "type": "address"
        },
        {
          "internalType": "uint256",
          "name": "tokenId",
          "type": "uint256"
        }
      ],
      "name": "approve",
      "outputs": [],
      "stateMutability": "nonpayable",
      "type": "function"
    },
    {
      "inputs": [
        {
          "internalType": "address",
          "name": "owner",
          "type": "address"
        }
      ],
      "name": "balanceOf",
      "outputs": [
        {
          "internalType": "uint256",
          "name": "",
          "type": "uint256"
        }
      ],
      "stateMutability": "view",
      "type": "function"
    },
    {
      "inputs": [
        {
          "internalType": "address",
          "name": "newAdm",
          "type": "address"
        }
      ],
      "name": "changeAdmin",
      "outputs": [],
      "stateMutability": "nonpayable",
      "type": "function"
    },
    {
      "inputs": [
        {
          "internalType": "string",
          "name": "baseURI",
          "type": "string"
        }
      ],
      "name": "changeBaseURI",
      "outputs": [],
      "stateMutability": "nonpayable",
      "type": "function"
    },
    {
      "inputs": [
        {
          "internalType": "address",
          "name": "newP",
          "type": "address"
        }
      ],
      "name": "changeParam",
      "outputs": [],
      "stateMutability": "nonpayable",
      "type": "function"
    },
    {
      "inputs": [
        {
          "internalType": "address",
          "name": "sweet",
          "type": "address"
        }
      ],
      "name": "changeToken",
      "outputs": [],
      "stateMutability": "nonpayable",
      "type": "function"
    },
    {
      "inputs": [
        {
          "internalType": "uint256",
          "name": "tokenId",
          "type": "uint256"
        }
      ],
      "name": "getApproved",
      "outputs": [
        {
          "internalType": "address",
          "name": "",
          "type": "address"
        }
      ],
      "stateMutability": "view",
      "type": "function"
    },
    {
      "inputs": [
        {
          "internalType": "uint256",
          "name": "id",
          "type": "uint256"
        }
      ],
      "name": "getPaletteBottom",
      "outputs": [
        {
          "internalType": "string",
          "name": "",
          "type": "string"
        }
      ],
      "stateMutability": "view",
      "type": "function"
    },
    {
      "inputs": [
        {
          "internalType": "uint256",
          "name": "id",
          "type": "uint256"
        }
      ],
      "name": "getPaletteTop",
      "outputs": [
        {
          "internalType": "string",
          "name": "",
          "type": "string"
        }
      ],
      "stateMutability": "view",
      "type": "function"
    },
    {
      "inputs": [
        {
          "internalType": "uint256",
          "name": "tokenId",
          "type": "uint256"
        }
      ],
      "name": "getParamValues",
      "outputs": [
        {
          "components": [
            {
              "internalType": "string",
              "name": "nation",
              "type": "string"
            },
            {
              "internalType": "string",
              "name": "palletTop",
              "type": "string"
            },
            {
              "internalType": "string",
              "name": "palletBottom",
              "type": "string"
            }
          ],
          "internalType": "struct HORNS.Horn",
          "name": "horn",
          "type": "tuple"
        }
      ],
      "stateMutability": "view",
      "type": "function"
    },
    {
      "inputs": [
        {
          "internalType": "string",
          "name": "name",
          "type": "string"
        },
        {
          "internalType": "string",
          "name": "symbol",
          "type": "string"
        },
        {
          "internalType": "address",
          "name": "admin",
          "type": "address"
        },
        {
          "internalType": "address",
          "name": "paramsAddress",
          "type": "address"
        }
      ],
      "name": "initialize",
      "outputs": [],
      "stateMutability": "nonpayable",
      "type": "function"
    },
    {
      "inputs": [
        {
          "internalType": "address",
          "name": "owner",
          "type": "address"
        },
        {
          "internalType": "address",
          "name": "operator",
          "type": "address"
        }
      ],
      "name": "isApprovedForAll",
      "outputs": [
        {
          "internalType": "bool",
          "name": "",
          "type": "bool"
        }
      ],
      "stateMutability": "view",
      "type": "function"
    },
    {
      "inputs": [],
      "name": "mint",
      "outputs": [],
      "stateMutability": "payable",
      "type": "function"
    },
    {
      "inputs": [
        {
          "internalType": "uint256",
          "name": "tokenIdGated",
          "type": "uint256"
        }
      ],
      "name": "mintByToken",
      "outputs": [],
      "stateMutability": "nonpayable",
      "type": "function"
    },
    {
      "inputs": [],
      "name": "name",
      "outputs": [
        {
          "internalType": "string",
          "name": "",
          "type": "string"
        }
      ],
      "stateMutability": "view",
      "type": "function"
    },
    {
      "inputs": [],
      "name": "owner",
      "outputs": [
        {
          "internalType": "address",
          "name": "",
          "type": "address"
        }
      ],
      "stateMutability": "view",
      "type": "function"
    },
    {
      "inputs": [
        {
          "internalType": "uint256",
          "name": "id",
          "type": "uint256"
        }
      ],
      "name": "ownerMint",
      "outputs": [],
      "stateMutability": "nonpayable",
      "type": "function"
    },
    {
      "inputs": [
        {
          "internalType": "uint256",
          "name": "tokenId",
          "type": "uint256"
        }
      ],
      "name": "ownerOf",
      "outputs": [
        {
          "internalType": "address",
          "name": "",
          "type": "address"
        }
      ],
      "stateMutability": "view",
      "type": "function"
    },
    {
      "inputs": [],
      "name": "pause",
      "outputs": [],
      "stateMutability": "nonpayable",
      "type": "function"
    },
    {
      "inputs": [],
      "name": "paused",
      "outputs": [
        {
          "internalType": "bool",
          "name": "",
          "type": "bool"
        }
      ],
      "stateMutability": "view",
      "type": "function"
    },
    {
      "inputs": [],
      "name": "renounceOwnership",
      "outputs": [],
      "stateMutability": "nonpayable",
      "type": "function"
    },
    {
      "inputs": [
        {
          "internalType": "uint256",
          "name": "_tokenId",
          "type": "uint256"
        },
        {
          "internalType": "uint256",
          "name": "_salePrice",
          "type": "uint256"
        }
      ],
      "name": "royaltyInfo",
      "outputs": [
        {
          "internalType": "address",
          "name": "receiver",
          "type": "address"
        },
        {
          "internalType": "uint256",
          "name": "royaltyAmount",
          "type": "uint256"
        }
      ],
      "stateMutability": "view",
      "type": "function"
    },
    {
      "inputs": [
        {
          "internalType": "address",
          "name": "from",
          "type": "address"
        },
        {
          "internalType": "address",
          "name": "to",
          "type": "address"
        },
        {
          "internalType": "uint256",
          "name": "tokenId",
          "type": "uint256"
        }
      ],
      "name": "safeTransferFrom",
      "outputs": [],
      "stateMutability": "nonpayable",
      "type": "function"
    },
    {
      "inputs": [
        {
          "internalType": "address",
          "name": "from",
          "type": "address"
        },
        {
          "internalType": "address",
          "name": "to",
          "type": "address"
        },
        {
          "internalType": "uint256",
          "name": "tokenId",
          "type": "uint256"
        },
        {
          "internalType": "bytes",
          "name": "data",
          "type": "bytes"
        }
      ],
      "name": "safeTransferFrom",
      "outputs": [],
      "stateMutability": "nonpayable",
      "type": "function"
    },
    {
      "inputs": [
        {
          "internalType": "string",
          "name": "algo",
          "type": "string"
        }
      ],
      "name": "setAlgo",
      "outputs": [],
      "stateMutability": "nonpayable",
      "type": "function"
    },
    {
      "inputs": [
        {
          "internalType": "address",
          "name": "operator",
          "type": "address"
        },
        {
          "internalType": "bool",
          "name": "approved",
          "type": "bool"
        }
      ],
      "name": "setApprovalForAll",
      "outputs": [],
      "stateMutability": "nonpayable",
      "type": "function"
    },
    {
      "inputs": [
        {
          "internalType": "uint256",
          "name": "fee",
          "type": "uint256"
        }
      ],
      "name": "setFee",
      "outputs": [],
      "stateMutability": "nonpayable",
      "type": "function"
    },
    {
      "inputs": [
        {
          "internalType": "uint256",
          "name": "limit",
          "type": "uint256"
        }
      ],
      "name": "setLimit",
      "outputs": [],
      "stateMutability": "nonpayable",
      "type": "function"
    },
    {
      "inputs": [
        {
          "internalType": "bytes4",
          "name": "interfaceId",
          "type": "bytes4"
        }
      ],
      "name": "supportsInterface",
      "outputs": [
        {
          "internalType": "bool",
          "name": "",
          "type": "bool"
        }
      ],
      "stateMutability": "view",
      "type": "function"
    },
    {
      "inputs": [],
      "name": "symbol",
      "outputs": [
        {
          "internalType": "string",
          "name": "",
          "type": "string"
        }
      ],
      "stateMutability": "view",
      "type": "function"
    },
    {
      "inputs": [
        {
          "internalType": "uint256",
          "name": "tokenId",
          "type": "uint256"
        }
      ],
      "name": "tokenURI",
      "outputs": [
        {
          "internalType": "string",
          "name": "",
          "type": "string"
        }
      ],
      "stateMutability": "view",
      "type": "function"
    },
    {
      "inputs": [
        {
          "internalType": "address",
          "name": "from",
          "type": "address"
        },
        {
          "internalType": "address",
          "name": "to",
          "type": "address"
        },
        {
          "internalType": "uint256",
          "name": "tokenId",
          "type": "uint256"
        }
      ],
      "name": "transferFrom",
      "outputs": [],
      "stateMutability": "nonpayable",
      "type": "function"
    },
    {
      "inputs": [
        {
          "internalType": "address",
          "name": "newOwner",
          "type": "address"
        }
      ],
      "name": "transferOwnership",
      "outputs": [],
      "stateMutability": "nonpayable",
      "type": "function"
    },
    {
      "inputs": [],
      "name": "unpause",
      "outputs": [],
      "stateMutability": "nonpayable",
      "type": "function"
    },
    {
      "inputs": [
        {
          "internalType": "uint256",
          "name": "amount",
          "type": "uint256"
        }
      ],
      "name": "withdraw",
      "outputs": [],
      "stateMutability": "nonpayable",
      "type": "function"
    }
  ],
  "bytecode": "0x608060405234801561001057600080fd5b50613bec806100206000396000f3fe60806040526004361061025c5760003560e01c806370a0823111610144578063a22cb465116100b6578063c87b56dd1161007a578063c87b56dd146106f9578063df2fb92c14610719578063e653c65014610730578063e985e9c514610751578063f19e75d41461079a578063f2fde38b146107ba57600080fd5b8063a22cb46514610654578063adfc7dae14610674578063b88d4fde14610695578063c0dca239146106b5578063c5b37c22146106e257600080fd5b80638456cb59116101085780638456cb59146105b65780638da5cb5b146105cb5780638f15b414146105ea5780638f2839701461060a57806395d89b411461062a578063a1bb1fcc1461063f57600080fd5b806370a082311461051c578063715018a61461054a578063741149b11461055f5780637cd49fde1461057f57806380d953dd1461059657600080fd5b80632a55205a116101dd5780635c975abb116101a15780635c975abb146104645780635d36b3ea1461047c5780636352211e1461049c57806366829b16146104bc57806369fe0e2d146104dc5780636a2c3995146104fc57600080fd5b80632a55205a146103b05780632e1a7d4d146103ef57806339a0c6f91461040f5780633f4ba83a1461042f57806342842e0e1461044457600080fd5b8063095ea7b311610224578063095ea7b3146103335780630dccc9ad146103535780631249c58b1461036857806323b872dd1461037057806327ea6f2b1461039057600080fd5b806301bc45c91461026157806301ffc9a71461029f57806306fdde03146102cf5780630764da1d146102f1578063081812fc14610313575b600080fd5b34801561026d57600080fd5b5061015f54610282906001600160a01b031681565b6040516001600160a01b0390911681526020015b60405180910390f35b3480156102ab57600080fd5b506102bf6102ba3660046134be565b6107da565b6040519015158152602001610296565b3480156102db57600080fd5b506102e461082c565b6040516102969190613533565b3480156102fd57600080fd5b5061031161030c3660046135f2565b6108be565b005b34801561031f57600080fd5b5061028261032e366004613627565b610927565b34801561033f57600080fd5b5061031161034e366004613655565b61094e565b34801561035f57600080fd5b506102e4610a64565b610311610af3565b34801561037c57600080fd5b5061031161038b366004613681565b610b9a565b34801561039c57600080fd5b506103116103ab366004613627565b610cf0565b3480156103bc57600080fd5b506103d06103cb3660046136c2565b610d3e565b604080516001600160a01b039093168352602083019190915201610296565b3480156103fb57600080fd5b5061031161040a366004613627565b610d6f565b34801561041b57600080fd5b5061031161042a3660046135f2565b610e6d565b34801561043b57600080fd5b50610311610ec9565b34801561045057600080fd5b5061031161045f366004613681565b610f19565b34801561047057600080fd5b5060975460ff166102bf565b34801561048857600080fd5b506102e4610497366004613627565b611064565b3480156104a857600080fd5b506102826104b7366004613627565b6113d1565b3480156104c857600080fd5b506103116104d73660046136e4565b611431565b3480156104e857600080fd5b506103116104f7366004613627565b61149c565b34801561050857600080fd5b506102e4610517366004613627565b6114ea565b34801561052857600080fd5b5061053c6105373660046136e4565b61197e565b604051908152602001610296565b34801561055657600080fd5b50610311611a04565b34801561056b57600080fd5b5061031161057a3660046136e4565b611a16565b34801561058b57600080fd5b5061053c6101625481565b3480156105a257600080fd5b506103116105b1366004613627565b611ab2565b3480156105c257600080fd5b50610311611bd5565b3480156105d757600080fd5b5061012d546001600160a01b0316610282565b3480156105f657600080fd5b50610311610605366004613701565b611c25565b34801561061657600080fd5b506103116106253660046136e4565b611df0565b34801561063657600080fd5b506102e4611e8c565b34801561064b57600080fd5b506102e4611e9b565b34801561066057600080fd5b5061031161066f366004613798565b611ea9565b34801561068057600080fd5b5061016054610282906001600160a01b031681565b3480156106a157600080fd5b506103116106b03660046137d1565b611eb4565b3480156106c157600080fd5b506106d56106d0366004613627565b612006565b6040516102969190613851565b3480156106ee57600080fd5b5061053c6101655481565b34801561070557600080fd5b506102e4610714366004613627565b612062565b34801561072557600080fd5b5061053c6101665481565b34801561073c57600080fd5b5061016454610282906001600160a01b031681565b34801561075d57600080fd5b506102bf61076c3660046138b2565b6001600160a01b039182166000908152606a6020908152604080832093909416825291909152205460ff1690565b3480156107a657600080fd5b506103116107b5366004613627565b6120c9565b3480156107c657600080fd5b506103116107d53660046136e4565b61213a565b60006001600160e01b031982166380ac58cd60e01b148061080b57506001600160e01b03198216635b5e139f60e01b145b8061082657506301ffc9a760e01b6001600160e01b03198316145b92915050565b60606065805461083b906138e0565b80601f0160208091040260200160405190810160405280929190818152602001828054610867906138e0565b80156108b45780601f10610889576101008083540402835291602001916108b4565b820191906000526020600020905b81548152906001019060200180831161089757829003601f168201915b5050505050905090565b61015f5460408051808201909152600381526231303160e81b6020820152906001600160a01b0316331461090e5760405162461bcd60e51b81526004016109059190613533565b60405180910390fd5b5080516109239061016190602084019061340f565b5050565b6000610932826121b0565b506000908152606960205260409020546001600160a01b031690565b6000610959826113d1565b9050806001600160a01b0316836001600160a01b031614156109c75760405162461bcd60e51b815260206004820152602160248201527f4552433732313a20617070726f76616c20746f2063757272656e74206f776e656044820152603960f91b6064820152608401610905565b336001600160a01b03821614806109e357506109e3813361076c565b610a555760405162461bcd60e51b815260206004820152603e60248201527f4552433732313a20617070726f76652063616c6c6572206973206e6f7420746f60448201527f6b656e206f776e6572206e6f7220617070726f76656420666f7220616c6c00006064820152608401610905565b610a5f838361220f565b505050565b6101638054610a72906138e0565b80601f0160208091040260200160405190810160405280929190818152602001828054610a9e906138e0565b8015610aeb5780601f10610ac057610100808354040283529160200191610aeb565b820191906000526020600020905b815481529060010190602001808311610ace57829003601f168201915b505050505081565b600061016554118015610b095750610165543410155b8015610b185750600061016654115b6040518060400160405280600381526020016232303160e81b81525090610b525760405162461bcd60e51b81526004016109059190613533565b5061038461016254108015610b6c57506101665461016254105b610b7557600080fd5b6101628054906000610b8683613931565b9190505550610b98336101625461227d565b565b826daaeb6d7670e522a718067333cd4e3b15610cdf576001600160a01b038116331415610bd157610bcc848484612297565b610cea565b604051633185c44d60e21b81526daaeb6d7670e522a718067333cd4e9063c617113490610c04903090339060040161394c565b602060405180830381865afa158015610c21573d6000803e3d6000fd5b505050506040513d601f19601f82011682018060405250810190610c459190613966565b8015610cc05750604051633185c44d60e21b81526daaeb6d7670e522a718067333cd4e9063c617113490610c7f903090859060040161394c565b602060405180830381865afa158015610c9c573d6000803e3d6000fd5b505050506040513d601f19601f82011682018060405250810190610cc09190613966565b610cdf57604051633b79c77360e21b8152336004820152602401610905565b610cea848484612297565b50505050565b61015f5460408051808201909152600381526231303160e81b6020820152906001600160a01b03163314610d375760405162461bcd60e51b81526004016109059190613533565b5061016655565b61015f546001600160a01b03166000612710610d5c846101f4613983565b610d6691906139b8565b90509250929050565b600260fb541415610dc25760405162461bcd60e51b815260206004820152601f60248201527f5265656e7472616e637947756172643a207265656e7472616e742063616c6c006044820152606401610905565b600260fb5561015f5460408051808201909152600381526231303160e81b6020820152906001600160a01b03163314610e0e5760405162461bcd60e51b81526004016109059190613533565b50604051600090339047908381818185875af1925050503d8060008114610e51576040519150601f19603f3d011682016040523d82523d6000602084013e610e56565b606091505b5050905080610e6457600080fd5b5050600160fb55565b61015f5460408051808201909152600381526231303160e81b6020820152906001600160a01b03163314610eb45760405162461bcd60e51b81526004016109059190613533565b5080516109239061016390602084019061340f565b61015f5460408051808201909152600381526231303160e81b6020820152906001600160a01b03163314610f105760405162461bcd60e51b81526004016109059190613533565b50610b986122c8565b826daaeb6d7670e522a718067333cd4e3b15611059576001600160a01b038116331415610f4b57610bcc84848461231a565b604051633185c44d60e21b81526daaeb6d7670e522a718067333cd4e9063c617113490610f7e903090339060040161394c565b602060405180830381865afa158015610f9b573d6000803e3d6000fd5b505050506040513d601f19601f82011682018060405250810190610fbf9190613966565b801561103a5750604051633185c44d60e21b81526daaeb6d7670e522a718067333cd4e9063c617113490610ff9903090859060040161394c565b602060405180830381865afa158015611016573d6000803e3d6000fd5b505050506040513d601f19601f8201168201806040525081019061103a9190613966565b61105957604051633b79c77360e21b8152336004820152602401610905565b610cea84848461231a565b6040805161036081018252600761032082018181526611a0a12222a29b60c91b6103408401528252825180840184528181526611a1a120a0a1a160c91b6020828101919091528084019190915283518085018552828152662346464646423560c81b8183015283850152835180850185528281526611a32321a1a11b60c91b8183015260608481019190915284518086018652838152662346334230433360c81b81840152608085015284518086018652838152662343364442444160c81b8184015260a085015284518086018652838152660468c8a8a628a760cb1b8184015260c085015284518086018652838152662346454437433360c81b8184015260e0850152845180860186528381526611a31b22a0a19960c91b8184015261010085015284518086018652838152662345434435453360c81b8184015261012085015284518086018652838152662346463936384160c81b8184015261014085015284518086018652838152662346464145413560c81b81840152610160850152845180860186528381526611a323219aa12360c91b8184015261018085015284518086018652838152662346464438424560c81b818401526101a0850152845180860186528381526611a323219c209960c91b818401526101c085015284518086018652838152660234434463046360cc1b818401526101e085015284518086018652838152662338464341434160c81b81840152610200850152845180860186528381526611a1a1a29921a160c91b81840152610220850152845180860186528381526611a11b21a3211b60c91b8184015261024085015284518086018652838152662339374331413960c81b8184015261026085015284518086018652838152662346434239414160c81b8184015261028085015284518086018652838152662346464442434360c81b818401526102a0850152845180860186528381526608d150d150514d60ca1b818401526102c0850152845180860186528381526611a0992298a22160c91b818401526102e0850152845180860186529283526608cd4d50d090d160ca1b838301526103008401929092528351808501909452600c84526b70616c6c6574426f74746f6d60a01b908401529181906019906113ab908690612335565b6113b591906139cc565b601981106113c5576113c56139e0565b60200201519392505050565b6000818152606760205260408120546001600160a01b0316806108265760405162461bcd60e51b8152602060048201526018602482015277115490cdcc8c4e881a5b9d985b1a59081d1bdad95b88125160421b6044820152606401610905565b61015f5460408051808201909152600381526231303160e81b6020820152906001600160a01b031633146114785760405162461bcd60e51b81526004016109059190613533565b5061016480546001600160a01b0319166001600160a01b0392909216919091179055565b61015f5460408051808201909152600381526231303160e81b6020820152906001600160a01b031633146114e35760405162461bcd60e51b81526004016109059190613533565b5061016555565b604080516104a08101825260076104608201818152662330304135453360c81b61048084015282528251808401845281815266119c22221ba12360c91b6020828101919091528084019190915283518085018552828152662346463936433560c81b818301528385015283518085018552828152660468c8c6a6e6c760cb1b8183015260608481019190915284518086018652838152662346464246363560c81b81840152608085015284518086018652838152660468c866c6466760cb1b8184015260a0850152845180860186528381526611a323221c1b9960c91b8184015260c085015284518086018652838152662346324434434360c81b8184015260e085015284518086018652838152662345373735373760c81b81840152610100850152845180860186528381526608cd90ce0e10cd60ca1b8184015261012085015284518086018652838152660234330353738360cc1b81840152610140850152845180860186528381526611a3231c191c2160c91b81840152610160850152845180860186528381526611a29ba19a9c1960c91b8184015261018085015284518086018652838152662330304230424160c81b818401526101a085015284518086018652838152661198181b1aa09960c91b818401526101c085015284518086018652838152662330304344414360c81b818401526101e085015284518086018652838152660468c8c6c8c6c760cb1b8184015261020085015284518086018652838152662346464441434360c81b8184015261022085015284518086018652838152660468c8c6c6082760cb1b8184015261024085015284518086018652838152660234346463830360cc1b8184015261026085015284518086018652838152662346463543373760c81b8184015261028085015284518086018652838152662334444430393160c81b818401526102a085015284518086018652838152662346464543353960c81b818401526102c085015284518086018652838152662346464132334160c81b818401526102e085015284518086018652838152662337343733374160c81b8184015261030085015284518086018652838152660234646463130360cc1b8184015261032085015284518086018652838152660234646384330360cc1b8184015261034085015284518086018652838152662345383131323360c81b8184015261036085015284518086018652838152662345433030384360c81b8184015261038085015284518086018652838152662336383231374160c81b818401526103a08501528451808601865283815266119818189c1c2360c91b818401526103c085015284518086018652838152661198182121a31960c91b818401526103e0850152845180860186528381526608cc0c108c8e4d60ca1b8184015261040085015284518086018652838152662330303945343960c81b8184015261042085015284518086018652928352662342414438304160c81b8383015261044084019290925283518085019094526009845268070616c6c6574546f760bc1b90840152918190602390611964908690612335565b61196e91906139cc565b602381106113c5576113c56139e0565b60006001600160a01b0382166119e85760405162461bcd60e51b815260206004820152602960248201527f4552433732313a2061646472657373207a65726f206973206e6f7420612076616044820152683634b21037bbb732b960b91b6064820152608401610905565b506001600160a01b031660009081526068602052604090205490565b611a0c612371565b610b9860006123cc565b61015f546001600160a01b031633148015611a3957506001600160a01b03811615155b8015611a545750610160546001600160a01b03828116911614155b6040518060400160405280600381526020016231303160e81b81525090611a8e5760405162461bcd60e51b81526004016109059190613533565b5061016080546001600160a01b0319166001600160a01b0392909216919091179055565b610164546001600160a01b031615801590611ad05750600061016654115b6040518060400160405280600381526020016203130360ec1b81525090611b0a5760405162461bcd60e51b81526004016109059190613533565b50610164546040516331a9108f60e11b8152600481018390526001600160a01b039091169033908290636352211e90602401602060405180830381865afa158015611b59573d6000803e3d6000fd5b505050506040513d601f19601f82011682018060405250810190611b7d91906139f6565b6001600160a01b031614611b9057600080fd5b61038461016254108015611ba957506101665461016254105b611bb257600080fd5b6101628054906000611bc383613931565b9190505550610923336101625461227d565b61015f5460408051808201909152600381526231303160e81b6020820152906001600160a01b03163314611c1c5760405162461bcd60e51b81526004016109059190613533565b50610b9861241f565b600054610100900460ff1615808015611c455750600054600160ff909116105b80611c5f5750303b158015611c5f575060005460ff166001145b611cc25760405162461bcd60e51b815260206004820152602e60248201527f496e697469616c697a61626c653a20636f6e747261637420697320616c72656160448201526d191e481a5b9a5d1a585b1a5e995960921b6064820152608401610905565b6000805460ff191660011790558015611ce5576000805461ff0019166101001790555b6001600160a01b03831615801590611d0557506001600160a01b03821615155b6040518060400160405280600381526020016203130360ec1b81525090611d3f5760405162461bcd60e51b81526004016109059190613533565b50611d4a858561245c565b61016080546001600160a01b038085166001600160a01b03199283161790925561015f80549286169290911691909117905561038461016655611d8b61248d565b611d936124bc565b611d9b612502565b611da3612531565b8015611de9576000805461ff0019169055604051600181527f7f26b83ff96e1f2b6a682f133852f6798a09c465da95921460cefb38474024989060200160405180910390a15b5050505050565b61015f546001600160a01b031633148015611e1357506001600160a01b03811615155b8015611e2e575061015f546001600160a01b03828116911614155b6040518060400160405280600381526020016231303160e81b81525090611e685760405162461bcd60e51b81526004016109059190613533565b5061015f80546001600160a01b0319166001600160a01b0392909216919091179055565b60606066805461083b906138e0565b6101618054610a72906138e0565b610923338383612560565b836daaeb6d7670e522a718067333cd4e3b15611ffa576001600160a01b038116331415611eec57611ee78585858561262f565b611de9565b604051633185c44d60e21b81526daaeb6d7670e522a718067333cd4e9063c617113490611f1f903090339060040161394c565b602060405180830381865afa158015611f3c573d6000803e3d6000fd5b505050506040513d601f19601f82011682018060405250810190611f609190613966565b8015611fdb5750604051633185c44d60e21b81526daaeb6d7670e522a718067333cd4e9063c617113490611f9a903090859060040161394c565b602060405180830381865afa158015611fb7573d6000803e3d6000fd5b505050506040513d601f19601f82011682018060405250810190611fdb9190613966565b611ffa57604051633b79c77360e21b8152336004820152602401610905565b611de98585858561262f565b61202a60405180606001604052806060815260200160608152602001606081525090565b604051806060016040528061203e84612661565b815260200161204c84611064565b815260200161205a846114ea565b905292915050565b606061206d826121b0565b6000612077612abc565b9050600081511161209757604051806020016040528060008152506120c2565b806120a184612acc565b6040516020016120b2929190613a13565b6040516020818303038152906040525b9392505050565b61015f5460408051808201909152600381526231303160e81b6020820152906001600160a01b031633146121105760405162461bcd60e51b81526004016109059190613533565b506103848111801561212457506103e88111155b61212d57600080fd5b612137338261227d565b50565b612142612371565b6001600160a01b0381166121a75760405162461bcd60e51b815260206004820152602660248201527f4f776e61626c653a206e6577206f776e657220697320746865207a65726f206160448201526564647265737360d01b6064820152608401610905565b612137816123cc565b6000818152606760205260409020546001600160a01b03166121375760405162461bcd60e51b8152602060048201526018602482015277115490cdcc8c4e881a5b9d985b1a59081d1bdad95b88125160421b6044820152606401610905565b600081815260696020526040902080546001600160a01b0319166001600160a01b0384169081179091558190612244826113d1565b6001600160a01b03167f8c5be1e5ebec7d5bd14f71427d1e84f3dd0314c0f7b2291e5b200ac8c7c3b92560405160405180910390a45050565b610923828260405180602001604052806000815250612bd2565b6122a13382612c05565b6122bd5760405162461bcd60e51b815260040161090590613a42565b610a5f838383612c83565b6122d0612e2a565b6097805460ff191690557f5db9ee0a495bf2e6ff9c91a7834c1ba4fdd244a5e8aa4e537bd38aeae4b073aa335b6040516001600160a01b03909116815260200160405180910390a1565b610a5f83838360405180602001604052806000815250611eb4565b60008161234184612acc565b604051602001612352929190613a13565b60408051601f1981840301815291905280516020909101209392505050565b61012d546001600160a01b03163314610b985760405162461bcd60e51b815260206004820181905260248201527f4f776e61626c653a2063616c6c6572206973206e6f7420746865206f776e65726044820152606401610905565b61012d80546001600160a01b038381166001600160a01b0319831681179093556040519116919082907f8be0079c531659141344cd1fd0a4f28419497f9722a3daafe3b4186f6b6457e090600090a35050565b612427612e73565b6097805460ff191660011790557f62e78cea01bee320cd4e420270b5ea74000d11b0c9f74754ebdbfc544b05a2586122fd3390565b600054610100900460ff166124835760405162461bcd60e51b815260040161090590613a90565b6109238282612eb9565b600054610100900460ff166124b45760405162461bcd60e51b815260040161090590613a90565b610b98612f07565b600054610100900460ff166124e35760405162461bcd60e51b815260040161090590613a90565b610b98733cc6cdda760b79bafa08df41ecfa224f810dceb66001612f37565b600054610100900460ff166125295760405162461bcd60e51b815260040161090590613a90565b610b986130c8565b600054610100900460ff166125585760405162461bcd60e51b815260040161090590613a90565b610b986130f6565b816001600160a01b0316836001600160a01b031614156125c25760405162461bcd60e51b815260206004820152601960248201527f4552433732313a20617070726f766520746f2063616c6c6572000000000000006044820152606401610905565b6001600160a01b038381166000818152606a6020908152604080832094871680845294825291829020805460ff191686151590811790915591519182527f17307eab39ab6107e8899845ad3d59bd9653f200f220920489ca2b5937696c31910160405180910390a3505050565b6126393383612c05565b6126555760405162461bcd60e51b815260040161090590613a42565b610cea84848484613129565b6040805161044081018252600561040082018181526428b0ba30b960d91b61042084015282528251808401845260078082526622b1bab0b237b960c91b60208381019190915280850192909252845180860186528181526614d95b9959d85b60ca1b818401528486015284518086018652600b8082526a4e65746865726c616e647360a81b828501526060868101929092528651808801885283815266115b99db185b9960ca1b818601526080870152865180880188528381526624a91024b930b760c91b8186015260a087015286518088018852600381526255534160e81b8186015260c0870152865180880188528581526457616c657360d81b8186015260e087015286518088018852600980825268417267656e74696e6160b81b8287015261010088019190915287518089018952600c81526b53617564692041726162696160a01b81870152610120880152875180890189526006808252654d657869636f60d01b828801526101408901919091528851808a018a5281815265141bdb185b9960d21b818801526101608901528851808a018a52818152654672616e636560d01b818801526101808901528851808a018a52918252684175737472616c696160b81b828701526101a0880191909152875180890189528481526644656e6d61726b60c81b818701526101c0880152875180890189528481526654756e6973696160c81b818701526101e0880152875180890189528681526429b830b4b760d91b8187015261020088015287518089018952600a815269436f737461205269636160b01b8187015261022088015287518089018952848152664765726d616e7960c81b8187015261024088015287518089018952868152642530b830b760d91b81870152610260880152875180890189528481526642656c6769756d60c81b81870152610280880152875180890189528181526543616e61646160d01b818701526102a088015287518089018952848152664d6f726f63636f60c81b818701526102c0880152875180890189528481526643726f6174696160c81b818701526102e08801528751808901895281815265109c985e9a5b60d21b81870152610300880152875180890189528181526553657262696160d01b81870152610320880152875180890189529182526a14ddda5d1e995c9b185b9960aa1b828601526103408701919091528651808801885260088082526721b0b6b2b937b7b760c11b828701526103608801919091528751808901895290815267141bdc9d1d59d85b60c21b8186015261038087015286518088018852948552644768616e6160d81b858501526103a086019490945285518087018752918252665572756775617960c81b828401526103c085019190915284518086018652600e81526d4b6f7265612052657075626c696360901b818401526103e08501528451808601909552918452653730ba34b7b760d11b848201529092829190612aa2908690612335565b612aac91906139cc565b602081106113c5576113c56139e0565b6060610163805461083b906138e0565b606081612af05750506040805180820190915260018152600360fc1b602082015290565b8160005b8115612b1a5780612b0481613931565b9150612b139050600a836139b8565b9150612af4565b60008167ffffffffffffffff811115612b3557612b35613546565b6040519080825280601f01601f191660200182016040528015612b5f576020820181803683370190505b5090505b8415612bca57612b74600183613adb565b9150612b81600a866139cc565b612b8c906030613af2565b60f81b818381518110612ba157612ba16139e0565b60200101906001600160f81b031916908160001a905350612bc3600a866139b8565b9450612b63565b949350505050565b612bdc838361315c565b612be960008484846132aa565b610a5f5760405162461bcd60e51b815260040161090590613b0a565b600080612c11836113d1565b9050806001600160a01b0316846001600160a01b03161480612c5857506001600160a01b038082166000908152606a602090815260408083209388168352929052205460ff165b80612bca5750836001600160a01b0316612c7184610927565b6001600160a01b031614949350505050565b826001600160a01b0316612c96826113d1565b6001600160a01b031614612cfa5760405162461bcd60e51b815260206004820152602560248201527f4552433732313a207472616e736665722066726f6d20696e636f72726563742060448201526437bbb732b960d91b6064820152608401610905565b6001600160a01b038216612d5c5760405162461bcd60e51b8152602060048201526024808201527f4552433732313a207472616e7366657220746f20746865207a65726f206164646044820152637265737360e01b6064820152608401610905565b612d678383836133a8565b612d7260008261220f565b6001600160a01b0383166000908152606860205260408120805460019290612d9b908490613adb565b90915550506001600160a01b0382166000908152606860205260408120805460019290612dc9908490613af2565b909155505060008181526067602052604080822080546001600160a01b0319166001600160a01b0386811691821790925591518493918716917fddf252ad1be2c89b69c2b068fc378daa952ba7f163c4a11628f55a4df523b3ef91a4505050565b60975460ff16610b985760405162461bcd60e51b815260206004820152601460248201527314185d5cd8589b194e881b9bdd081c185d5cd95960621b6044820152606401610905565b60975460ff1615610b985760405162461bcd60e51b815260206004820152601060248201526f14185d5cd8589b194e881c185d5cd95960821b6044820152606401610905565b600054610100900460ff16612ee05760405162461bcd60e51b815260040161090590613a90565b8151612ef390606590602085019061340f565b508051610a5f90606690602084019061340f565b600054610100900460ff16612f2e5760405162461bcd60e51b815260040161090590613a90565b610b98336123cc565b600054610100900460ff16612f5e5760405162461bcd60e51b815260040161090590613a90565b6daaeb6d7670e522a718067333cd4e3b156109235760405163c3c5a54760e01b81523060048201526daaeb6d7670e522a718067333cd4e9063c3c5a547906024016020604051808303816000875af1158015612fbe573d6000803e3d6000fd5b505050506040513d601f19601f82011682018060405250810190612fe29190613966565b61092357801561305557604051633e9f1edf60e11b81526daaeb6d7670e522a718067333cd4e90637d3e3dbe9061301f903090869060040161394c565b600060405180830381600087803b15801561303957600080fd5b505af115801561304d573d6000803e3d6000fd5b505050505050565b6001600160a01b038216156130975760405163a0af290360e01b81526daaeb6d7670e522a718067333cd4e9063a0af29039061301f903090869060040161394c565b604051632210724360e11b81523060048201526daaeb6d7670e522a718067333cd4e90634420e4869060240161301f565b600054610100900460ff166130ef5760405162461bcd60e51b815260040161090590613a90565b600160fb55565b600054610100900460ff1661311d5760405162461bcd60e51b815260040161090590613a90565b6097805460ff19169055565b613134848484612c83565b613140848484846132aa565b610cea5760405162461bcd60e51b815260040161090590613b0a565b6001600160a01b0382166131b25760405162461bcd60e51b815260206004820181905260248201527f4552433732313a206d696e7420746f20746865207a65726f20616464726573736044820152606401610905565b6000818152606760205260409020546001600160a01b0316156132175760405162461bcd60e51b815260206004820152601c60248201527f4552433732313a20746f6b656e20616c7265616479206d696e746564000000006044820152606401610905565b613223600083836133a8565b6001600160a01b038216600090815260686020526040812080546001929061324c908490613af2565b909155505060008181526067602052604080822080546001600160a01b0319166001600160a01b03861690811790915590518392907fddf252ad1be2c89b69c2b068fc378daa952ba7f163c4a11628f55a4df523b3ef908290a45050565b60006001600160a01b0384163b1561339d57604051630a85bd0160e11b81526001600160a01b0385169063150b7a02906132ee903390899088908890600401613b5c565b6020604051808303816000875af1925050508015613329575060408051601f3d908101601f1916820190925261332691810190613b99565b60015b613383573d808015613357576040519150601f19603f3d011682016040523d82523d6000602084013e61335c565b606091505b50805161337b5760405162461bcd60e51b815260040161090590613b0a565b805181602001fd5b6001600160e01b031916630a85bd0160e11b149050612bca565b506001949350505050565b60975460ff1615610a5f5760405162461bcd60e51b815260206004820152602b60248201527f4552433732315061757361626c653a20746f6b656e207472616e73666572207760448201526a1a1a5b19481c185d5cd95960aa1b6064820152608401610905565b82805461341b906138e0565b90600052602060002090601f01602090048101928261343d5760008555613483565b82601f1061345657805160ff1916838001178555613483565b82800160010185558215613483579182015b82811115613483578251825591602001919060010190613468565b5061348f929150613493565b5090565b5b8082111561348f5760008155600101613494565b6001600160e01b03198116811461213757600080fd5b6000602082840312156134d057600080fd5b81356120c2816134a8565b60005b838110156134f65781810151838201526020016134de565b83811115610cea5750506000910152565b6000815180845261351f8160208601602086016134db565b601f01601f19169290920160200192915050565b6020815260006120c26020830184613507565b634e487b7160e01b600052604160045260246000fd5b600067ffffffffffffffff8084111561357757613577613546565b604051601f8501601f19908116603f0116810190828211818310171561359f5761359f613546565b816040528093508581528686860111156135b857600080fd5b858560208301376000602087830101525050509392505050565b600082601f8301126135e357600080fd5b6120c28383356020850161355c565b60006020828403121561360457600080fd5b813567ffffffffffffffff81111561361b57600080fd5b612bca848285016135d2565b60006020828403121561363957600080fd5b5035919050565b6001600160a01b038116811461213757600080fd5b6000806040838503121561366857600080fd5b823561367381613640565b946020939093013593505050565b60008060006060848603121561369657600080fd5b83356136a181613640565b925060208401356136b181613640565b929592945050506040919091013590565b600080604083850312156136d557600080fd5b50508035926020909101359150565b6000602082840312156136f657600080fd5b81356120c281613640565b6000806000806080858703121561371757600080fd5b843567ffffffffffffffff8082111561372f57600080fd5b61373b888389016135d2565b9550602087013591508082111561375157600080fd5b5061375e878288016135d2565b935050604085013561376f81613640565b9150606085013561377f81613640565b939692955090935050565b801515811461213757600080fd5b600080604083850312156137ab57600080fd5b82356137b681613640565b915060208301356137c68161378a565b809150509250929050565b600080600080608085870312156137e757600080fd5b84356137f281613640565b9350602085013561380281613640565b925060408501359150606085013567ffffffffffffffff81111561382557600080fd5b8501601f8101871361383657600080fd5b6138458782356020840161355c565b91505092959194509250565b60208152600082516060602084015261386d6080840182613507565b90506020840151601f198085840301604086015261388b8383613507565b92506040860151915080858403016060860152506138a98282613507565b95945050505050565b600080604083850312156138c557600080fd5b82356138d081613640565b915060208301356137c681613640565b600181811c908216806138f457607f821691505b6020821081141561391557634e487b7160e01b600052602260045260246000fd5b50919050565b634e487b7160e01b600052601160045260246000fd5b60006000198214156139455761394561391b565b5060010190565b6001600160a01b0392831681529116602082015260400190565b60006020828403121561397857600080fd5b81516120c28161378a565b600081600019048311821515161561399d5761399d61391b565b500290565b634e487b7160e01b600052601260045260246000fd5b6000826139c7576139c76139a2565b500490565b6000826139db576139db6139a2565b500690565b634e487b7160e01b600052603260045260246000fd5b600060208284031215613a0857600080fd5b81516120c281613640565b60008351613a258184602088016134db565b835190830190613a398183602088016134db565b01949350505050565b6020808252602e908201527f4552433732313a2063616c6c6572206973206e6f7420746f6b656e206f776e6560408201526d1c881b9bdc88185c1c1c9bdd995960921b606082015260800190565b6020808252602b908201527f496e697469616c697a61626c653a20636f6e7472616374206973206e6f74206960408201526a6e697469616c697a696e6760a81b606082015260800190565b600082821015613aed57613aed61391b565b500390565b60008219821115613b0557613b0561391b565b500190565b60208082526032908201527f4552433732313a207472616e7366657220746f206e6f6e20455243373231526560408201527131b2b4bb32b91034b6b83632b6b2b73a32b960711b606082015260800190565b6001600160a01b0385811682528416602082015260408101839052608060608201819052600090613b8f90830184613507565b9695505050505050565b600060208284031215613bab57600080fd5b81516120c2816134a856fea2646970667358221220d89dd23ae6ec1c5402cdef55f7ca3334c32c55c949edd5e6f798042c1e2315bb64736f6c634300080c0033",
  "linkReferences": {},
  "deployedLinkReferences": {}
}