{
  "_format": "hh-sol-artifact-1",
  "contractName": "HORNS",
  "sourceName": "contracts/nft/HORNS.sol",
  "abi": [
    {
      "inputs": [
        {
          "internalType": "address",
          "name": "operator",
          "type": "address"
        }
      ],
      "name": "OperatorNotAllowed",
      "type": "error"
    },
    {
      "anonymous": false,
      "inputs": [
        {
          "indexed": true,
          "internalType": "address",
          "name": "owner",
          "type": "address"
        },
        {
          "indexed": true,
          "internalType": "address",
          "name": "approved",
          "type": "address"
        },
        {
          "indexed": true,
          "internalType": "uint256",
          "name": "tokenId",
          "type": "uint256"
        }
      ],
      "name": "Approval",
      "type": "event"
    },
    {
      "anonymous": false,
      "inputs": [
        {
          "indexed": true,
          "internalType": "address",
          "name": "owner",
          "type": "address"
        },
        {
          "indexed": true,
          "internalType": "address",
          "name": "operator",
          "type": "address"
        },
        {
          "indexed": false,
          "internalType": "bool",
          "name": "approved",
          "type": "bool"
        }
      ],
      "name": "ApprovalForAll",
      "type": "event"
    },
    {
      "anonymous": false,
      "inputs": [
        {
          "indexed": false,
          "internalType": "uint8",
          "name": "version",
          "type": "uint8"
        }
      ],
      "name": "Initialized",
      "type": "event"
    },
    {
      "anonymous": false,
      "inputs": [
        {
          "indexed": true,
          "internalType": "address",
          "name": "previousOwner",
          "type": "address"
        },
        {
          "indexed": true,
          "internalType": "address",
          "name": "newOwner",
          "type": "address"
        }
      ],
      "name": "OwnershipTransferred",
      "type": "event"
    },
    {
      "anonymous": false,
      "inputs": [
        {
          "indexed": false,
          "internalType": "address",
          "name": "account",
          "type": "address"
        }
      ],
      "name": "Paused",
      "type": "event"
    },
    {
      "anonymous": false,
      "inputs": [
        {
          "indexed": true,
          "internalType": "address",
          "name": "from",
          "type": "address"
        },
        {
          "indexed": true,
          "internalType": "address",
          "name": "to",
          "type": "address"
        },
        {
          "indexed": true,
          "internalType": "uint256",
          "name": "tokenId",
          "type": "uint256"
        }
      ],
      "name": "Transfer",
      "type": "event"
    },
    {
      "anonymous": false,
      "inputs": [
        {
          "indexed": false,
          "internalType": "address",
          "name": "account",
          "type": "address"
        }
      ],
      "name": "Unpaused",
      "type": "event"
    },
    {
      "inputs": [],
      "name": "_admin",
      "outputs": [
        {
          "internalType": "address",
          "name": "",
          "type": "address"
        }
      ],
      "stateMutability": "view",
      "type": "function"
    },
    {
      "inputs": [],
      "name": "_algorithm",
      "outputs": [
        {
          "internalType": "string",
          "name": "",
          "type": "string"
        }
      ],
      "stateMutability": "view",
      "type": "function"
    },
    {
      "inputs": [],
      "name": "_counter",
      "outputs": [
        {
          "internalType": "uint256",
          "name": "",
          "type": "uint256"
        }
      ],
      "stateMutability": "view",
      "type": "function"
    },
    {
      "inputs": [],
      "name": "_fee",
      "outputs": [
        {
          "internalType": "uint256",
          "name": "",
          "type": "uint256"
        }
      ],
      "stateMutability": "view",
      "type": "function"
    },
    {
      "inputs": [],
      "name": "_limit",
      "outputs": [
        {
          "internalType": "uint256",
          "name": "",
          "type": "uint256"
        }
      ],
      "stateMutability": "view",
      "type": "function"
    },
    {
      "inputs": [],
      "name": "_paramsAddress",
      "outputs": [
        {
          "internalType": "address",
          "name": "",
          "type": "address"
        }
      ],
      "stateMutability": "view",
      "type": "function"
    },
    {
      "inputs": [],
      "name": "_tokenAddrErc721",
      "outputs": [
        {
          "internalType": "address",
          "name": "",
          "type": "address"
        }
      ],
      "stateMutability": "view",
      "type": "function"
    },
    {
      "inputs": [],
      "name": "_uri",
      "outputs": [
        {
          "internalType": "string",
          "name": "",
          "type": "string"
        }
      ],
      "stateMutability": "view",
      "type": "function"
    },
    {
      "inputs": [
        {
          "internalType": "address",
          "name": "to",
          "type": "address"
        },
        {
          "internalType": "uint256",
          "name": "tokenId",
          "type": "uint256"
        }
      ],
      "name": "approve",
      "outputs": [],
      "stateMutability": "nonpayable",
      "type": "function"
    },
    {
      "inputs": [
        {
          "internalType": "address",
          "name": "owner",
          "type": "address"
        }
      ],
      "name": "balanceOf",
      "outputs": [
        {
          "internalType": "uint256",
          "name": "",
          "type": "uint256"
        }
      ],
      "stateMutability": "view",
      "type": "function"
    },
    {
      "inputs": [
        {
          "internalType": "address",
          "name": "newAdm",
          "type": "address"
        }
      ],
      "name": "changeAdmin",
      "outputs": [],
      "stateMutability": "nonpayable",
      "type": "function"
    },
    {
      "inputs": [
        {
          "internalType": "string",
          "name": "baseURI",
          "type": "string"
        }
      ],
      "name": "changeBaseURI",
      "outputs": [],
      "stateMutability": "nonpayable",
      "type": "function"
    },
    {
      "inputs": [
        {
          "internalType": "address",
          "name": "newP",
          "type": "address"
        }
      ],
      "name": "changeParam",
      "outputs": [],
      "stateMutability": "nonpayable",
      "type": "function"
    },
    {
      "inputs": [
        {
          "internalType": "address",
          "name": "sweet",
          "type": "address"
        }
      ],
      "name": "changeToken",
      "outputs": [],
      "stateMutability": "nonpayable",
      "type": "function"
    },
    {
      "inputs": [
        {
          "internalType": "uint256",
          "name": "tokenId",
          "type": "uint256"
        }
      ],
      "name": "getApproved",
      "outputs": [
        {
          "internalType": "address",
          "name": "",
          "type": "address"
        }
      ],
      "stateMutability": "view",
      "type": "function"
    },
    {
      "inputs": [
        {
          "internalType": "uint256",
          "name": "id",
          "type": "uint256"
        }
      ],
      "name": "getPaletteBottom",
      "outputs": [
        {
          "internalType": "string",
          "name": "",
          "type": "string"
        }
      ],
      "stateMutability": "view",
      "type": "function"
    },
    {
      "inputs": [
        {
          "internalType": "uint256",
          "name": "id",
          "type": "uint256"
        }
      ],
      "name": "getPaletteTop",
      "outputs": [
        {
          "internalType": "string",
          "name": "",
          "type": "string"
        }
      ],
      "stateMutability": "view",
      "type": "function"
    },
    {
      "inputs": [
        {
          "internalType": "uint256",
          "name": "tokenId",
          "type": "uint256"
        }
      ],
      "name": "getParamValues",
      "outputs": [
        {
          "components": [
            {
              "internalType": "string",
              "name": "nation",
              "type": "string"
            },
            {
              "internalType": "string",
              "name": "palletTop",
              "type": "string"
            },
            {
              "internalType": "string",
              "name": "palletBottom",
              "type": "string"
            }
          ],
          "internalType": "struct HORNS.Horn",
          "name": "horn",
          "type": "tuple"
        }
      ],
      "stateMutability": "view",
      "type": "function"
    },
    {
      "inputs": [
        {
          "internalType": "string",
          "name": "name",
          "type": "string"
        },
        {
          "internalType": "string",
          "name": "symbol",
          "type": "string"
        },
        {
          "internalType": "address",
          "name": "admin",
          "type": "address"
        },
        {
          "internalType": "address",
          "name": "paramsAddress",
          "type": "address"
        }
      ],
      "name": "initialize",
      "outputs": [],
      "stateMutability": "nonpayable",
      "type": "function"
    },
    {
      "inputs": [
        {
          "internalType": "address",
          "name": "owner",
          "type": "address"
        },
        {
          "internalType": "address",
          "name": "operator",
          "type": "address"
        }
      ],
      "name": "isApprovedForAll",
      "outputs": [
        {
          "internalType": "bool",
          "name": "",
          "type": "bool"
        }
      ],
      "stateMutability": "view",
      "type": "function"
    },
    {
      "inputs": [],
      "name": "mint",
      "outputs": [],
      "stateMutability": "payable",
      "type": "function"
    },
    {
      "inputs": [
        {
          "internalType": "uint256",
          "name": "tokenIdGated",
          "type": "uint256"
        }
      ],
      "name": "mintByToken",
      "outputs": [],
      "stateMutability": "nonpayable",
      "type": "function"
    },
    {
      "inputs": [],
      "name": "name",
      "outputs": [
        {
          "internalType": "string",
          "name": "",
          "type": "string"
        }
      ],
      "stateMutability": "view",
      "type": "function"
    },
    {
      "inputs": [],
      "name": "owner",
      "outputs": [
        {
          "internalType": "address",
          "name": "",
          "type": "address"
        }
      ],
      "stateMutability": "view",
      "type": "function"
    },
    {
      "inputs": [
        {
          "internalType": "uint256",
          "name": "id",
          "type": "uint256"
        }
      ],
      "name": "ownerMint",
      "outputs": [],
      "stateMutability": "nonpayable",
      "type": "function"
    },
    {
      "inputs": [
        {
          "internalType": "uint256",
          "name": "tokenId",
          "type": "uint256"
        }
      ],
      "name": "ownerOf",
      "outputs": [
        {
          "internalType": "address",
          "name": "",
          "type": "address"
        }
      ],
      "stateMutability": "view",
      "type": "function"
    },
    {
      "inputs": [],
      "name": "pause",
      "outputs": [],
      "stateMutability": "nonpayable",
      "type": "function"
    },
    {
      "inputs": [],
      "name": "paused",
      "outputs": [
        {
          "internalType": "bool",
          "name": "",
          "type": "bool"
        }
      ],
      "stateMutability": "view",
      "type": "function"
    },
    {
      "inputs": [],
      "name": "renounceOwnership",
      "outputs": [],
      "stateMutability": "nonpayable",
      "type": "function"
    },
    {
      "inputs": [
        {
          "internalType": "uint256",
          "name": "_tokenId",
          "type": "uint256"
        },
        {
          "internalType": "uint256",
          "name": "_salePrice",
          "type": "uint256"
        }
      ],
      "name": "royaltyInfo",
      "outputs": [
        {
          "internalType": "address",
          "name": "receiver",
          "type": "address"
        },
        {
          "internalType": "uint256",
          "name": "royaltyAmount",
          "type": "uint256"
        }
      ],
      "stateMutability": "view",
      "type": "function"
    },
    {
      "inputs": [
        {
          "internalType": "address",
          "name": "from",
          "type": "address"
        },
        {
          "internalType": "address",
          "name": "to",
          "type": "address"
        },
        {
          "internalType": "uint256",
          "name": "tokenId",
          "type": "uint256"
        }
      ],
      "name": "safeTransferFrom",
      "outputs": [],
      "stateMutability": "nonpayable",
      "type": "function"
    },
    {
      "inputs": [
        {
          "internalType": "address",
          "name": "from",
          "type": "address"
        },
        {
          "internalType": "address",
          "name": "to",
          "type": "address"
        },
        {
          "internalType": "uint256",
          "name": "tokenId",
          "type": "uint256"
        },
        {
          "internalType": "bytes",
          "name": "data",
          "type": "bytes"
        }
      ],
      "name": "safeTransferFrom",
      "outputs": [],
      "stateMutability": "nonpayable",
      "type": "function"
    },
    {
      "inputs": [
        {
          "internalType": "string",
          "name": "algo",
          "type": "string"
        }
      ],
      "name": "setAlgo",
      "outputs": [],
      "stateMutability": "nonpayable",
      "type": "function"
    },
    {
      "inputs": [
        {
          "internalType": "address",
          "name": "operator",
          "type": "address"
        },
        {
          "internalType": "bool",
          "name": "approved",
          "type": "bool"
        }
      ],
      "name": "setApprovalForAll",
      "outputs": [],
      "stateMutability": "nonpayable",
      "type": "function"
    },
    {
      "inputs": [
        {
          "internalType": "uint256",
          "name": "fee",
          "type": "uint256"
        }
      ],
      "name": "setFee",
      "outputs": [],
      "stateMutability": "nonpayable",
      "type": "function"
    },
    {
      "inputs": [
        {
          "internalType": "uint256",
          "name": "limit",
          "type": "uint256"
        }
      ],
      "name": "setLimit",
      "outputs": [],
      "stateMutability": "nonpayable",
      "type": "function"
    },
    {
      "inputs": [
        {
          "internalType": "bytes4",
          "name": "interfaceId",
          "type": "bytes4"
        }
      ],
      "name": "supportsInterface",
      "outputs": [
        {
          "internalType": "bool",
          "name": "",
          "type": "bool"
        }
      ],
      "stateMutability": "view",
      "type": "function"
    },
    {
      "inputs": [],
      "name": "symbol",
      "outputs": [
        {
          "internalType": "string",
          "name": "",
          "type": "string"
        }
      ],
      "stateMutability": "view",
      "type": "function"
    },
    {
      "inputs": [
        {
          "internalType": "uint256",
          "name": "tokenId",
          "type": "uint256"
        }
      ],
      "name": "tokenURI",
      "outputs": [
        {
          "internalType": "string",
          "name": "",
          "type": "string"
        }
      ],
      "stateMutability": "view",
      "type": "function"
    },
    {
      "inputs": [
        {
          "internalType": "address",
          "name": "from",
          "type": "address"
        },
        {
          "internalType": "address",
          "name": "to",
          "type": "address"
        },
        {
          "internalType": "uint256",
          "name": "tokenId",
          "type": "uint256"
        }
      ],
      "name": "transferFrom",
      "outputs": [],
      "stateMutability": "nonpayable",
      "type": "function"
    },
    {
      "inputs": [
        {
          "internalType": "address",
          "name": "newOwner",
          "type": "address"
        }
      ],
      "name": "transferOwnership",
      "outputs": [],
      "stateMutability": "nonpayable",
      "type": "function"
    },
    {
      "inputs": [],
      "name": "unpause",
      "outputs": [],
      "stateMutability": "nonpayable",
      "type": "function"
    },
    {
      "inputs": [],
      "name": "withdraw",
      "outputs": [],
      "stateMutability": "nonpayable",
      "type": "function"
    }
  ],
  "bytecode": "0x608060405234801561001057600080fd5b50613be0806100206000396000f3fe60806040526004361061025c5760003560e01c806370a0823111610144578063a22cb465116100b6578063c87b56dd1161007a578063c87b56dd146106ee578063df2fb92c1461070e578063e653c65014610725578063e985e9c514610746578063f19e75d41461078f578063f2fde38b146107af57600080fd5b8063a22cb46514610649578063adfc7dae14610669578063b88d4fde1461068a578063c0dca239146106aa578063c5b37c22146106d757600080fd5b80638456cb59116101085780638456cb59146105ab5780638da5cb5b146105c05780638f15b414146105df5780638f283970146105ff57806395d89b411461061f578063a1bb1fcc1461063457600080fd5b806370a0823114610511578063715018a61461053f578063741149b1146105545780637cd49fde1461057457806380d953dd1461058b57600080fd5b80632a55205a116101dd5780635c975abb116101a15780635c975abb146104595780635d36b3ea146104715780636352211e1461049157806366829b16146104b157806369fe0e2d146104d15780636a2c3995146104f157600080fd5b80632a55205a146103b057806339a0c6f9146103ef5780633ccfd60b1461040f5780633f4ba83a1461042457806342842e0e1461043957600080fd5b8063095ea7b311610224578063095ea7b3146103335780630dccc9ad146103535780631249c58b1461036857806323b872dd1461037057806327ea6f2b1461039057600080fd5b806301bc45c91461026157806301ffc9a71461029f57806306fdde03146102cf5780630764da1d146102f1578063081812fc14610313575b600080fd5b34801561026d57600080fd5b5061015f54610282906001600160a01b031681565b6040516001600160a01b0390911681526020015b60405180910390f35b3480156102ab57600080fd5b506102bf6102ba3660046134b2565b6107cf565b6040519015158152602001610296565b3480156102db57600080fd5b506102e4610821565b6040516102969190613527565b3480156102fd57600080fd5b5061031161030c3660046135e6565b6108b3565b005b34801561031f57600080fd5b5061028261032e36600461361b565b61091c565b34801561033f57600080fd5b5061031161034e366004613649565b610943565b34801561035f57600080fd5b506102e4610a59565b610311610ae8565b34801561037c57600080fd5b5061031161038b366004613675565b610b8f565b34801561039c57600080fd5b506103116103ab36600461361b565b610ce5565b3480156103bc57600080fd5b506103d06103cb3660046136b6565b610d33565b604080516001600160a01b039093168352602083019190915201610296565b3480156103fb57600080fd5b5061031161040a3660046135e6565b610d64565b34801561041b57600080fd5b50610311610dc0565b34801561043057600080fd5b50610311610ebd565b34801561044557600080fd5b50610311610454366004613675565b610f0d565b34801561046557600080fd5b5060975460ff166102bf565b34801561047d57600080fd5b506102e461048c36600461361b565b611058565b34801561049d57600080fd5b506102826104ac36600461361b565b6113c2565b3480156104bd57600080fd5b506103116104cc3660046136d8565b611422565b3480156104dd57600080fd5b506103116104ec36600461361b565b61148d565b3480156104fd57600080fd5b506102e461050c36600461361b565b6114db565b34801561051d57600080fd5b5061053161052c3660046136d8565b611972565b604051908152602001610296565b34801561054b57600080fd5b506103116119f8565b34801561056057600080fd5b5061031161056f3660046136d8565b611a0a565b34801561058057600080fd5b506105316101625481565b34801561059757600080fd5b506103116105a636600461361b565b611aa6565b3480156105b757600080fd5b50610311611bc9565b3480156105cc57600080fd5b5061012d546001600160a01b0316610282565b3480156105eb57600080fd5b506103116105fa3660046136f5565b611c19565b34801561060b57600080fd5b5061031161061a3660046136d8565b611de4565b34801561062b57600080fd5b506102e4611e80565b34801561064057600080fd5b506102e4611e8f565b34801561065557600080fd5b5061031161066436600461378c565b611e9d565b34801561067557600080fd5b5061016054610282906001600160a01b031681565b34801561069657600080fd5b506103116106a53660046137c5565b611ea8565b3480156106b657600080fd5b506106ca6106c536600461361b565b611ffa565b6040516102969190613845565b3480156106e357600080fd5b506105316101655481565b3480156106fa57600080fd5b506102e461070936600461361b565b612056565b34801561071a57600080fd5b506105316101665481565b34801561073157600080fd5b5061016454610282906001600160a01b031681565b34801561075257600080fd5b506102bf6107613660046138a6565b6001600160a01b039182166000908152606a6020908152604080832093909416825291909152205460ff1690565b34801561079b57600080fd5b506103116107aa36600461361b565b6120bd565b3480156107bb57600080fd5b506103116107ca3660046136d8565b61212e565b60006001600160e01b031982166380ac58cd60e01b148061080057506001600160e01b03198216635b5e139f60e01b145b8061081b57506301ffc9a760e01b6001600160e01b03198316145b92915050565b606060658054610830906138d4565b80601f016020809104026020016040519081016040528092919081815260200182805461085c906138d4565b80156108a95780601f1061087e576101008083540402835291602001916108a9565b820191906000526020600020905b81548152906001019060200180831161088c57829003601f168201915b5050505050905090565b61015f5460408051808201909152600381526231303160e81b6020820152906001600160a01b031633146109035760405162461bcd60e51b81526004016108fa9190613527565b60405180910390fd5b50805161091890610161906020840190613403565b5050565b6000610927826121a4565b506000908152606960205260409020546001600160a01b031690565b600061094e826113c2565b9050806001600160a01b0316836001600160a01b031614156109bc5760405162461bcd60e51b815260206004820152602160248201527f4552433732313a20617070726f76616c20746f2063757272656e74206f776e656044820152603960f91b60648201526084016108fa565b336001600160a01b03821614806109d857506109d88133610761565b610a4a5760405162461bcd60e51b815260206004820152603e60248201527f4552433732313a20617070726f76652063616c6c6572206973206e6f7420746f60448201527f6b656e206f776e6572206e6f7220617070726f76656420666f7220616c6c000060648201526084016108fa565b610a548383612203565b505050565b6101638054610a67906138d4565b80601f0160208091040260200160405190810160405280929190818152602001828054610a93906138d4565b8015610ae05780601f10610ab557610100808354040283529160200191610ae0565b820191906000526020600020905b815481529060010190602001808311610ac357829003601f168201915b505050505081565b600061016554118015610afe5750610165543410155b8015610b0d5750600061016654115b6040518060400160405280600381526020016232303160e81b81525090610b475760405162461bcd60e51b81526004016108fa9190613527565b5061038461016254108015610b6157506101665461016254105b610b6a57600080fd5b6101628054906000610b7b83613925565b9190505550610b8d3361016254612271565b565b826daaeb6d7670e522a718067333cd4e3b15610cd4576001600160a01b038116331415610bc657610bc184848461228b565b610cdf565b604051633185c44d60e21b81526daaeb6d7670e522a718067333cd4e9063c617113490610bf99030903390600401613940565b602060405180830381865afa158015610c16573d6000803e3d6000fd5b505050506040513d601f19601f82011682018060405250810190610c3a919061395a565b8015610cb55750604051633185c44d60e21b81526daaeb6d7670e522a718067333cd4e9063c617113490610c749030908590600401613940565b602060405180830381865afa158015610c91573d6000803e3d6000fd5b505050506040513d601f19601f82011682018060405250810190610cb5919061395a565b610cd457604051633b79c77360e21b81523360048201526024016108fa565b610cdf84848461228b565b50505050565b61015f5460408051808201909152600381526231303160e81b6020820152906001600160a01b03163314610d2c5760405162461bcd60e51b81526004016108fa9190613527565b5061016655565b61015f546001600160a01b03166000612710610d51846101f4613977565b610d5b91906139ac565b90509250929050565b61015f5460408051808201909152600381526231303160e81b6020820152906001600160a01b03163314610dab5760405162461bcd60e51b81526004016108fa9190613527565b50805161091890610163906020840190613403565b600260fb541415610e135760405162461bcd60e51b815260206004820152601f60248201527f5265656e7472616e637947756172643a207265656e7472616e742063616c6c0060448201526064016108fa565b600260fb5561015f5460408051808201909152600381526231303160e81b6020820152906001600160a01b03163314610e5f5760405162461bcd60e51b81526004016108fa9190613527565b50604051600090339047908381818185875af1925050503d8060008114610ea2576040519150601f19603f3d011682016040523d82523d6000602084013e610ea7565b606091505b5050905080610eb557600080fd5b50600160fb55565b61015f5460408051808201909152600381526231303160e81b6020820152906001600160a01b03163314610f045760405162461bcd60e51b81526004016108fa9190613527565b50610b8d6122bc565b826daaeb6d7670e522a718067333cd4e3b1561104d576001600160a01b038116331415610f3f57610bc184848461230e565b604051633185c44d60e21b81526daaeb6d7670e522a718067333cd4e9063c617113490610f729030903390600401613940565b602060405180830381865afa158015610f8f573d6000803e3d6000fd5b505050506040513d601f19601f82011682018060405250810190610fb3919061395a565b801561102e5750604051633185c44d60e21b81526daaeb6d7670e522a718067333cd4e9063c617113490610fed9030908590600401613940565b602060405180830381865afa15801561100a573d6000803e3d6000fd5b505050506040513d601f19601f8201168201806040525081019061102e919061395a565b61104d57604051633b79c77360e21b81523360048201526024016108fa565b610cdf84848461230e565b6040805161036081018252600761032082018181526611a0a12222a29b60c91b6103408401528252825180840184528181526611a1a120a0a1a160c91b6020828101919091528084019190915283518085018552828152662346464646423560c81b8183015283850152835180850185528281526611a32321a1a11b60c91b8183015260608481019190915284518086018652838152662346334230433360c81b81840152608085015284518086018652838152662343364442444160c81b8184015260a085015284518086018652838152660468c8a8a628a760cb1b8184015260c085015284518086018652838152662346454437433360c81b8184015260e0850152845180860186528381526611a31b22a0a19960c91b8184015261010085015284518086018652838152662345434435453360c81b8184015261012085015284518086018652838152662346463936384160c81b8184015261014085015284518086018652838152662346464145413560c81b81840152610160850152845180860186528381526611a323219aa12360c91b8184015261018085015284518086018652838152662346464438424560c81b818401526101a0850152845180860186528381526611a323219c209960c91b818401526101c085015284518086018652838152660234434463046360cc1b818401526101e085015284518086018652838152662338464341434160c81b81840152610200850152845180860186528381526611a1a1a29921a160c91b81840152610220850152845180860186528381526611a11b21a3211b60c91b8184015261024085015284518086018652838152662339374331413960c81b8184015261026085015284518086018652838152662346434239414160c81b8184015261028085015284518086018652838152662346464442434360c81b818401526102a0850152845180860186528381526608d150d150514d60ca1b818401526102c0850152845180860186528381526611a0992298a22160c91b818401526102e0850152845180860186529283526608cd4d50d090d160ca1b8383015261030084019290925283518085019094526009845268070616c6c6574546f760bc1b9084015291819060199061139c908690612329565b6113a691906139c0565b601981106113b6576113b66139d4565b60200201519392505050565b6000818152606760205260408120546001600160a01b03168061081b5760405162461bcd60e51b8152602060048201526018602482015277115490cdcc8c4e881a5b9d985b1a59081d1bdad95b88125160421b60448201526064016108fa565b61015f5460408051808201909152600381526231303160e81b6020820152906001600160a01b031633146114695760405162461bcd60e51b81526004016108fa9190613527565b5061016480546001600160a01b0319166001600160a01b0392909216919091179055565b61015f5460408051808201909152600381526231303160e81b6020820152906001600160a01b031633146114d45760405162461bcd60e51b81526004016108fa9190613527565b5061016555565b604080516104a08101825260076104608201818152662330304135453360c81b61048084015282528251808401845281815266119c22221ba12360c91b6020828101919091528084019190915283518085018552828152662346463936433560c81b818301528385015283518085018552828152660468c8c6a6e6c760cb1b8183015260608481019190915284518086018652838152662346464246363560c81b81840152608085015284518086018652838152660468c866c6466760cb1b8184015260a0850152845180860186528381526611a323221c1b9960c91b8184015260c085015284518086018652838152662346324434434360c81b8184015260e085015284518086018652838152662345373735373760c81b81840152610100850152845180860186528381526608cd90ce0e10cd60ca1b8184015261012085015284518086018652838152660234330353738360cc1b81840152610140850152845180860186528381526611a3231c191c2160c91b81840152610160850152845180860186528381526611a29ba19a9c1960c91b8184015261018085015284518086018652838152662330304230424160c81b818401526101a085015284518086018652838152661198181b1aa09960c91b818401526101c085015284518086018652838152662330304344414360c81b818401526101e085015284518086018652838152660468c8c6c8c6c760cb1b8184015261020085015284518086018652838152662346464441434360c81b8184015261022085015284518086018652838152660468c8c6c6082760cb1b8184015261024085015284518086018652838152660234346463830360cc1b8184015261026085015284518086018652838152662346463543373760c81b8184015261028085015284518086018652838152662334444430393160c81b818401526102a085015284518086018652838152662346464543353960c81b818401526102c085015284518086018652838152662346464132334160c81b818401526102e085015284518086018652838152662337343733374160c81b8184015261030085015284518086018652838152660234646463130360cc1b8184015261032085015284518086018652838152660234646384330360cc1b8184015261034085015284518086018652838152662345383131323360c81b8184015261036085015284518086018652838152662345433030384360c81b8184015261038085015284518086018652838152662336383231374160c81b818401526103a08501528451808601865283815266119818189c1c2360c91b818401526103c085015284518086018652838152661198182121a31960c91b818401526103e0850152845180860186528381526608cc0c108c8e4d60ca1b8184015261040085015284518086018652838152662330303945343960c81b8184015261042085015284518086018652928352662342414438304160c81b838301526104408401929092528351808501909452600c84526b70616c6c6574426f74746f6d60a01b90840152918190602390611958908690612329565b61196291906139c0565b602381106113b6576113b66139d4565b60006001600160a01b0382166119dc5760405162461bcd60e51b815260206004820152602960248201527f4552433732313a2061646472657373207a65726f206973206e6f7420612076616044820152683634b21037bbb732b960b91b60648201526084016108fa565b506001600160a01b031660009081526068602052604090205490565b611a00612365565b610b8d60006123c0565b61015f546001600160a01b031633148015611a2d57506001600160a01b03811615155b8015611a485750610160546001600160a01b03828116911614155b6040518060400160405280600381526020016231303160e81b81525090611a825760405162461bcd60e51b81526004016108fa9190613527565b5061016080546001600160a01b0319166001600160a01b0392909216919091179055565b610164546001600160a01b031615801590611ac45750600061016654115b6040518060400160405280600381526020016203130360ec1b81525090611afe5760405162461bcd60e51b81526004016108fa9190613527565b50610164546040516331a9108f60e11b8152600481018390526001600160a01b039091169033908290636352211e90602401602060405180830381865afa158015611b4d573d6000803e3d6000fd5b505050506040513d601f19601f82011682018060405250810190611b7191906139ea565b6001600160a01b031614611b8457600080fd5b61038461016254108015611b9d57506101665461016254105b611ba657600080fd5b6101628054906000611bb783613925565b91905055506109183361016254612271565b61015f5460408051808201909152600381526231303160e81b6020820152906001600160a01b03163314611c105760405162461bcd60e51b81526004016108fa9190613527565b50610b8d612413565b600054610100900460ff1615808015611c395750600054600160ff909116105b80611c535750303b158015611c53575060005460ff166001145b611cb65760405162461bcd60e51b815260206004820152602e60248201527f496e697469616c697a61626c653a20636f6e747261637420697320616c72656160448201526d191e481a5b9a5d1a585b1a5e995960921b60648201526084016108fa565b6000805460ff191660011790558015611cd9576000805461ff0019166101001790555b6001600160a01b03831615801590611cf957506001600160a01b03821615155b6040518060400160405280600381526020016203130360ec1b81525090611d335760405162461bcd60e51b81526004016108fa9190613527565b50611d3e8585612450565b61016080546001600160a01b038085166001600160a01b03199283161790925561015f80549286169290911691909117905561038461016655611d7f612481565b611d876124b0565b611d8f6124f6565b611d97612525565b8015611ddd576000805461ff0019169055604051600181527f7f26b83ff96e1f2b6a682f133852f6798a09c465da95921460cefb38474024989060200160405180910390a15b5050505050565b61015f546001600160a01b031633148015611e0757506001600160a01b03811615155b8015611e22575061015f546001600160a01b03828116911614155b6040518060400160405280600381526020016231303160e81b81525090611e5c5760405162461bcd60e51b81526004016108fa9190613527565b5061015f80546001600160a01b0319166001600160a01b0392909216919091179055565b606060668054610830906138d4565b6101618054610a67906138d4565b610918338383612554565b836daaeb6d7670e522a718067333cd4e3b15611fee576001600160a01b038116331415611ee057611edb85858585612623565b611ddd565b604051633185c44d60e21b81526daaeb6d7670e522a718067333cd4e9063c617113490611f139030903390600401613940565b602060405180830381865afa158015611f30573d6000803e3d6000fd5b505050506040513d601f19601f82011682018060405250810190611f54919061395a565b8015611fcf5750604051633185c44d60e21b81526daaeb6d7670e522a718067333cd4e9063c617113490611f8e9030908590600401613940565b602060405180830381865afa158015611fab573d6000803e3d6000fd5b505050506040513d601f19601f82011682018060405250810190611fcf919061395a565b611fee57604051633b79c77360e21b81523360048201526024016108fa565b611ddd85858585612623565b61201e60405180606001604052806060815260200160608152602001606081525090565b604051806060016040528061203284612655565b815260200161204084611058565b815260200161204e846114db565b905292915050565b6060612061826121a4565b600061206b612ab0565b9050600081511161208b57604051806020016040528060008152506120b6565b8061209584612ac0565b6040516020016120a6929190613a07565b6040516020818303038152906040525b9392505050565b61015f5460408051808201909152600381526231303160e81b6020820152906001600160a01b031633146121045760405162461bcd60e51b81526004016108fa9190613527565b506103848111801561211857506103e88111155b61212157600080fd5b61212b3382612271565b50565b612136612365565b6001600160a01b03811661219b5760405162461bcd60e51b815260206004820152602660248201527f4f776e61626c653a206e6577206f776e657220697320746865207a65726f206160448201526564647265737360d01b60648201526084016108fa565b61212b816123c0565b6000818152606760205260409020546001600160a01b031661212b5760405162461bcd60e51b8152602060048201526018602482015277115490cdcc8c4e881a5b9d985b1a59081d1bdad95b88125160421b60448201526064016108fa565b600081815260696020526040902080546001600160a01b0319166001600160a01b0384169081179091558190612238826113c2565b6001600160a01b03167f8c5be1e5ebec7d5bd14f71427d1e84f3dd0314c0f7b2291e5b200ac8c7c3b92560405160405180910390a45050565b610918828260405180602001604052806000815250612bc6565b6122953382612bf9565b6122b15760405162461bcd60e51b81526004016108fa90613a36565b610a54838383612c77565b6122c4612e1e565b6097805460ff191690557f5db9ee0a495bf2e6ff9c91a7834c1ba4fdd244a5e8aa4e537bd38aeae4b073aa335b6040516001600160a01b03909116815260200160405180910390a1565b610a5483838360405180602001604052806000815250611ea8565b60008161233584612ac0565b604051602001612346929190613a07565b60408051601f1981840301815291905280516020909101209392505050565b61012d546001600160a01b03163314610b8d5760405162461bcd60e51b815260206004820181905260248201527f4f776e61626c653a2063616c6c6572206973206e6f7420746865206f776e657260448201526064016108fa565b61012d80546001600160a01b038381166001600160a01b0319831681179093556040519116919082907f8be0079c531659141344cd1fd0a4f28419497f9722a3daafe3b4186f6b6457e090600090a35050565b61241b612e67565b6097805460ff191660011790557f62e78cea01bee320cd4e420270b5ea74000d11b0c9f74754ebdbfc544b05a2586122f13390565b600054610100900460ff166124775760405162461bcd60e51b81526004016108fa90613a84565b6109188282612ead565b600054610100900460ff166124a85760405162461bcd60e51b81526004016108fa90613a84565b610b8d612efb565b600054610100900460ff166124d75760405162461bcd60e51b81526004016108fa90613a84565b610b8d733cc6cdda760b79bafa08df41ecfa224f810dceb66001612f2b565b600054610100900460ff1661251d5760405162461bcd60e51b81526004016108fa90613a84565b610b8d6130bc565b600054610100900460ff1661254c5760405162461bcd60e51b81526004016108fa90613a84565b610b8d6130ea565b816001600160a01b0316836001600160a01b031614156125b65760405162461bcd60e51b815260206004820152601960248201527f4552433732313a20617070726f766520746f2063616c6c65720000000000000060448201526064016108fa565b6001600160a01b038381166000818152606a6020908152604080832094871680845294825291829020805460ff191686151590811790915591519182527f17307eab39ab6107e8899845ad3d59bd9653f200f220920489ca2b5937696c31910160405180910390a3505050565b61262d3383612bf9565b6126495760405162461bcd60e51b81526004016108fa90613a36565b610cdf8484848461311d565b6040805161044081018252600561040082018181526428b0ba30b960d91b61042084015282528251808401845260078082526622b1bab0b237b960c91b60208381019190915280850192909252845180860186528181526614d95b9959d85b60ca1b818401528486015284518086018652600b8082526a4e65746865726c616e647360a81b828501526060868101929092528651808801885283815266115b99db185b9960ca1b818601526080870152865180880188528381526624a91024b930b760c91b8186015260a087015286518088018852600381526255534160e81b8186015260c0870152865180880188528581526457616c657360d81b8186015260e087015286518088018852600980825268417267656e74696e6160b81b8287015261010088019190915287518089018952600c81526b53617564692041726162696160a01b81870152610120880152875180890189526006808252654d657869636f60d01b828801526101408901919091528851808a018a5281815265141bdb185b9960d21b818801526101608901528851808a018a52818152654672616e636560d01b818801526101808901528851808a018a52918252684175737472616c696160b81b828701526101a0880191909152875180890189528481526644656e6d61726b60c81b818701526101c0880152875180890189528481526654756e6973696160c81b818701526101e0880152875180890189528681526429b830b4b760d91b8187015261020088015287518089018952600a815269436f737461205269636160b01b8187015261022088015287518089018952848152664765726d616e7960c81b8187015261024088015287518089018952868152642530b830b760d91b81870152610260880152875180890189528481526642656c6769756d60c81b81870152610280880152875180890189528181526543616e61646160d01b818701526102a088015287518089018952848152664d6f726f63636f60c81b818701526102c0880152875180890189528481526643726f6174696160c81b818701526102e08801528751808901895281815265109c985e9a5b60d21b81870152610300880152875180890189528181526553657262696160d01b81870152610320880152875180890189529182526a14ddda5d1e995c9b185b9960aa1b828601526103408701919091528651808801885260088082526721b0b6b2b937b7b760c11b828701526103608801919091528751808901895290815267141bdc9d1d59d85b60c21b8186015261038087015286518088018852948552644768616e6160d81b858501526103a086019490945285518087018752918252665572756775617960c81b828401526103c085019190915284518086018652600e81526d4b6f7265612052657075626c696360901b818401526103e08501528451808601909552918452653730ba34b7b760d11b848201529092829190612a96908690612329565b612aa091906139c0565b602081106113b6576113b66139d4565b60606101638054610830906138d4565b606081612ae45750506040805180820190915260018152600360fc1b602082015290565b8160005b8115612b0e5780612af881613925565b9150612b079050600a836139ac565b9150612ae8565b60008167ffffffffffffffff811115612b2957612b2961353a565b6040519080825280601f01601f191660200182016040528015612b53576020820181803683370190505b5090505b8415612bbe57612b68600183613acf565b9150612b75600a866139c0565b612b80906030613ae6565b60f81b818381518110612b9557612b956139d4565b60200101906001600160f81b031916908160001a905350612bb7600a866139ac565b9450612b57565b949350505050565b612bd08383613150565b612bdd600084848461329e565b610a545760405162461bcd60e51b81526004016108fa90613afe565b600080612c05836113c2565b9050806001600160a01b0316846001600160a01b03161480612c4c57506001600160a01b038082166000908152606a602090815260408083209388168352929052205460ff165b80612bbe5750836001600160a01b0316612c658461091c565b6001600160a01b031614949350505050565b826001600160a01b0316612c8a826113c2565b6001600160a01b031614612cee5760405162461bcd60e51b815260206004820152602560248201527f4552433732313a207472616e736665722066726f6d20696e636f72726563742060448201526437bbb732b960d91b60648201526084016108fa565b6001600160a01b038216612d505760405162461bcd60e51b8152602060048201526024808201527f4552433732313a207472616e7366657220746f20746865207a65726f206164646044820152637265737360e01b60648201526084016108fa565b612d5b83838361339c565b612d66600082612203565b6001600160a01b0383166000908152606860205260408120805460019290612d8f908490613acf565b90915550506001600160a01b0382166000908152606860205260408120805460019290612dbd908490613ae6565b909155505060008181526067602052604080822080546001600160a01b0319166001600160a01b0386811691821790925591518493918716917fddf252ad1be2c89b69c2b068fc378daa952ba7f163c4a11628f55a4df523b3ef91a4505050565b60975460ff16610b8d5760405162461bcd60e51b815260206004820152601460248201527314185d5cd8589b194e881b9bdd081c185d5cd95960621b60448201526064016108fa565b60975460ff1615610b8d5760405162461bcd60e51b815260206004820152601060248201526f14185d5cd8589b194e881c185d5cd95960821b60448201526064016108fa565b600054610100900460ff16612ed45760405162461bcd60e51b81526004016108fa90613a84565b8151612ee7906065906020850190613403565b508051610a54906066906020840190613403565b600054610100900460ff16612f225760405162461bcd60e51b81526004016108fa90613a84565b610b8d336123c0565b600054610100900460ff16612f525760405162461bcd60e51b81526004016108fa90613a84565b6daaeb6d7670e522a718067333cd4e3b156109185760405163c3c5a54760e01b81523060048201526daaeb6d7670e522a718067333cd4e9063c3c5a547906024016020604051808303816000875af1158015612fb2573d6000803e3d6000fd5b505050506040513d601f19601f82011682018060405250810190612fd6919061395a565b61091857801561304957604051633e9f1edf60e11b81526daaeb6d7670e522a718067333cd4e90637d3e3dbe906130139030908690600401613940565b600060405180830381600087803b15801561302d57600080fd5b505af1158015613041573d6000803e3d6000fd5b505050505050565b6001600160a01b0382161561308b5760405163a0af290360e01b81526daaeb6d7670e522a718067333cd4e9063a0af2903906130139030908690600401613940565b604051632210724360e11b81523060048201526daaeb6d7670e522a718067333cd4e90634420e48690602401613013565b600054610100900460ff166130e35760405162461bcd60e51b81526004016108fa90613a84565b600160fb55565b600054610100900460ff166131115760405162461bcd60e51b81526004016108fa90613a84565b6097805460ff19169055565b613128848484612c77565b6131348484848461329e565b610cdf5760405162461bcd60e51b81526004016108fa90613afe565b6001600160a01b0382166131a65760405162461bcd60e51b815260206004820181905260248201527f4552433732313a206d696e7420746f20746865207a65726f206164647265737360448201526064016108fa565b6000818152606760205260409020546001600160a01b03161561320b5760405162461bcd60e51b815260206004820152601c60248201527f4552433732313a20746f6b656e20616c7265616479206d696e7465640000000060448201526064016108fa565b6132176000838361339c565b6001600160a01b0382166000908152606860205260408120805460019290613240908490613ae6565b909155505060008181526067602052604080822080546001600160a01b0319166001600160a01b03861690811790915590518392907fddf252ad1be2c89b69c2b068fc378daa952ba7f163c4a11628f55a4df523b3ef908290a45050565b60006001600160a01b0384163b1561339157604051630a85bd0160e11b81526001600160a01b0385169063150b7a02906132e2903390899088908890600401613b50565b6020604051808303816000875af192505050801561331d575060408051601f3d908101601f1916820190925261331a91810190613b8d565b60015b613377573d80801561334b576040519150601f19603f3d011682016040523d82523d6000602084013e613350565b606091505b50805161336f5760405162461bcd60e51b81526004016108fa90613afe565b805181602001fd5b6001600160e01b031916630a85bd0160e11b149050612bbe565b506001949350505050565b60975460ff1615610a545760405162461bcd60e51b815260206004820152602b60248201527f4552433732315061757361626c653a20746f6b656e207472616e73666572207760448201526a1a1a5b19481c185d5cd95960aa1b60648201526084016108fa565b82805461340f906138d4565b90600052602060002090601f0160209004810192826134315760008555613477565b82601f1061344a57805160ff1916838001178555613477565b82800160010185558215613477579182015b8281111561347757825182559160200191906001019061345c565b50613483929150613487565b5090565b5b808211156134835760008155600101613488565b6001600160e01b03198116811461212b57600080fd5b6000602082840312156134c457600080fd5b81356120b68161349c565b60005b838110156134ea5781810151838201526020016134d2565b83811115610cdf5750506000910152565b600081518084526135138160208601602086016134cf565b601f01601f19169290920160200192915050565b6020815260006120b660208301846134fb565b634e487b7160e01b600052604160045260246000fd5b600067ffffffffffffffff8084111561356b5761356b61353a565b604051601f8501601f19908116603f011681019082821181831017156135935761359361353a565b816040528093508581528686860111156135ac57600080fd5b858560208301376000602087830101525050509392505050565b600082601f8301126135d757600080fd5b6120b683833560208501613550565b6000602082840312156135f857600080fd5b813567ffffffffffffffff81111561360f57600080fd5b612bbe848285016135c6565b60006020828403121561362d57600080fd5b5035919050565b6001600160a01b038116811461212b57600080fd5b6000806040838503121561365c57600080fd5b823561366781613634565b946020939093013593505050565b60008060006060848603121561368a57600080fd5b833561369581613634565b925060208401356136a581613634565b929592945050506040919091013590565b600080604083850312156136c957600080fd5b50508035926020909101359150565b6000602082840312156136ea57600080fd5b81356120b681613634565b6000806000806080858703121561370b57600080fd5b843567ffffffffffffffff8082111561372357600080fd5b61372f888389016135c6565b9550602087013591508082111561374557600080fd5b50613752878288016135c6565b935050604085013561376381613634565b9150606085013561377381613634565b939692955090935050565b801515811461212b57600080fd5b6000806040838503121561379f57600080fd5b82356137aa81613634565b915060208301356137ba8161377e565b809150509250929050565b600080600080608085870312156137db57600080fd5b84356137e681613634565b935060208501356137f681613634565b925060408501359150606085013567ffffffffffffffff81111561381957600080fd5b8501601f8101871361382a57600080fd5b61383987823560208401613550565b91505092959194509250565b60208152600082516060602084015261386160808401826134fb565b90506020840151601f198085840301604086015261387f83836134fb565b925060408601519150808584030160608601525061389d82826134fb565b95945050505050565b600080604083850312156138b957600080fd5b82356138c481613634565b915060208301356137ba81613634565b600181811c908216806138e857607f821691505b6020821081141561390957634e487b7160e01b600052602260045260246000fd5b50919050565b634e487b7160e01b600052601160045260246000fd5b60006000198214156139395761393961390f565b5060010190565b6001600160a01b0392831681529116602082015260400190565b60006020828403121561396c57600080fd5b81516120b68161377e565b60008160001904831182151516156139915761399161390f565b500290565b634e487b7160e01b600052601260045260246000fd5b6000826139bb576139bb613996565b500490565b6000826139cf576139cf613996565b500690565b634e487b7160e01b600052603260045260246000fd5b6000602082840312156139fc57600080fd5b81516120b681613634565b60008351613a198184602088016134cf565b835190830190613a2d8183602088016134cf565b01949350505050565b6020808252602e908201527f4552433732313a2063616c6c6572206973206e6f7420746f6b656e206f776e6560408201526d1c881b9bdc88185c1c1c9bdd995960921b606082015260800190565b6020808252602b908201527f496e697469616c697a61626c653a20636f6e7472616374206973206e6f74206960408201526a6e697469616c697a696e6760a81b606082015260800190565b600082821015613ae157613ae161390f565b500390565b60008219821115613af957613af961390f565b500190565b60208082526032908201527f4552433732313a207472616e7366657220746f206e6f6e20455243373231526560408201527131b2b4bb32b91034b6b83632b6b2b73a32b960711b606082015260800190565b6001600160a01b0385811682528416602082015260408101839052608060608201819052600090613b83908301846134fb565b9695505050505050565b600060208284031215613b9f57600080fd5b81516120b68161349c56fea2646970667358221220482006743e8b5269ba2b199e1f3329177583b1108acb9f3f6f0074acec90965864736f6c634300080c0033",
  "linkReferences": {},
  "deployedLinkReferences": {}
}