{
  "_format": "hh-sol-artifact-1",
  "contractName": "HORNS",
  "sourceName": "contracts/nft/HORNS.sol",
  "abi": [
    {
      "inputs": [
        {
          "internalType": "address",
          "name": "operator",
          "type": "address"
        }
      ],
      "name": "OperatorNotAllowed",
      "type": "error"
    },
    {
      "anonymous": false,
      "inputs": [
        {
          "indexed": true,
          "internalType": "address",
          "name": "owner",
          "type": "address"
        },
        {
          "indexed": true,
          "internalType": "address",
          "name": "approved",
          "type": "address"
        },
        {
          "indexed": true,
          "internalType": "uint256",
          "name": "tokenId",
          "type": "uint256"
        }
      ],
      "name": "Approval",
      "type": "event"
    },
    {
      "anonymous": false,
      "inputs": [
        {
          "indexed": true,
          "internalType": "address",
          "name": "owner",
          "type": "address"
        },
        {
          "indexed": true,
          "internalType": "address",
          "name": "operator",
          "type": "address"
        },
        {
          "indexed": false,
          "internalType": "bool",
          "name": "approved",
          "type": "bool"
        }
      ],
      "name": "ApprovalForAll",
      "type": "event"
    },
    {
      "anonymous": false,
      "inputs": [
        {
          "indexed": false,
          "internalType": "uint8",
          "name": "version",
          "type": "uint8"
        }
      ],
      "name": "Initialized",
      "type": "event"
    },
    {
      "anonymous": false,
      "inputs": [
        {
          "indexed": true,
          "internalType": "address",
          "name": "previousOwner",
          "type": "address"
        },
        {
          "indexed": true,
          "internalType": "address",
          "name": "newOwner",
          "type": "address"
        }
      ],
      "name": "OwnershipTransferred",
      "type": "event"
    },
    {
      "anonymous": false,
      "inputs": [
        {
          "indexed": false,
          "internalType": "address",
          "name": "account",
          "type": "address"
        }
      ],
      "name": "Paused",
      "type": "event"
    },
    {
      "anonymous": false,
      "inputs": [
        {
          "indexed": true,
          "internalType": "address",
          "name": "from",
          "type": "address"
        },
        {
          "indexed": true,
          "internalType": "address",
          "name": "to",
          "type": "address"
        },
        {
          "indexed": true,
          "internalType": "uint256",
          "name": "tokenId",
          "type": "uint256"
        }
      ],
      "name": "Transfer",
      "type": "event"
    },
    {
      "anonymous": false,
      "inputs": [
        {
          "indexed": false,
          "internalType": "address",
          "name": "account",
          "type": "address"
        }
      ],
      "name": "Unpaused",
      "type": "event"
    },
    {
      "inputs": [],
      "name": "_admin",
      "outputs": [
        {
          "internalType": "address",
          "name": "",
          "type": "address"
        }
      ],
      "stateMutability": "view",
      "type": "function"
    },
    {
      "inputs": [],
      "name": "_algorithm",
      "outputs": [
        {
          "internalType": "string",
          "name": "",
          "type": "string"
        }
      ],
      "stateMutability": "view",
      "type": "function"
    },
    {
      "inputs": [],
      "name": "_counter",
      "outputs": [
        {
          "internalType": "uint256",
          "name": "",
          "type": "uint256"
        }
      ],
      "stateMutability": "view",
      "type": "function"
    },
    {
      "inputs": [],
      "name": "_fee",
      "outputs": [
        {
          "internalType": "uint256",
          "name": "",
          "type": "uint256"
        }
      ],
      "stateMutability": "view",
      "type": "function"
    },
    {
      "inputs": [],
      "name": "_limit",
      "outputs": [
        {
          "internalType": "uint256",
          "name": "",
          "type": "uint256"
        }
      ],
      "stateMutability": "view",
      "type": "function"
    },
    {
      "inputs": [],
      "name": "_paramsAddress",
      "outputs": [
        {
          "internalType": "address",
          "name": "",
          "type": "address"
        }
      ],
      "stateMutability": "view",
      "type": "function"
    },
    {
      "inputs": [],
      "name": "_tokenAddrErc721",
      "outputs": [
        {
          "internalType": "address",
          "name": "",
          "type": "address"
        }
      ],
      "stateMutability": "view",
      "type": "function"
    },
    {
      "inputs": [],
      "name": "_uri",
      "outputs": [
        {
          "internalType": "string",
          "name": "",
          "type": "string"
        }
      ],
      "stateMutability": "view",
      "type": "function"
    },
    {
      "inputs": [
        {
          "internalType": "address",
          "name": "to",
          "type": "address"
        },
        {
          "internalType": "uint256",
          "name": "tokenId",
          "type": "uint256"
        }
      ],
      "name": "approve",
      "outputs": [],
      "stateMutability": "nonpayable",
      "type": "function"
    },
    {
      "inputs": [
        {
          "internalType": "address",
          "name": "owner",
          "type": "address"
        }
      ],
      "name": "balanceOf",
      "outputs": [
        {
          "internalType": "uint256",
          "name": "",
          "type": "uint256"
        }
      ],
      "stateMutability": "view",
      "type": "function"
    },
    {
      "inputs": [
        {
          "internalType": "address",
          "name": "newAdm",
          "type": "address"
        }
      ],
      "name": "changeAdmin",
      "outputs": [],
      "stateMutability": "nonpayable",
      "type": "function"
    },
    {
      "inputs": [
        {
          "internalType": "string",
          "name": "baseURI",
          "type": "string"
        }
      ],
      "name": "changeBaseURI",
      "outputs": [],
      "stateMutability": "nonpayable",
      "type": "function"
    },
    {
      "inputs": [
        {
          "internalType": "address",
          "name": "newP",
          "type": "address"
        }
      ],
      "name": "changeParam",
      "outputs": [],
      "stateMutability": "nonpayable",
      "type": "function"
    },
    {
      "inputs": [
        {
          "internalType": "address",
          "name": "sweet",
          "type": "address"
        }
      ],
      "name": "changeToken",
      "outputs": [],
      "stateMutability": "nonpayable",
      "type": "function"
    },
    {
      "inputs": [
        {
          "internalType": "uint256",
          "name": "tokenId",
          "type": "uint256"
        }
      ],
      "name": "getApproved",
      "outputs": [
        {
          "internalType": "address",
          "name": "",
          "type": "address"
        }
      ],
      "stateMutability": "view",
      "type": "function"
    },
    {
      "inputs": [
        {
          "internalType": "uint256",
          "name": "id",
          "type": "uint256"
        }
      ],
      "name": "getPaletteBottom",
      "outputs": [
        {
          "internalType": "string",
          "name": "",
          "type": "string"
        }
      ],
      "stateMutability": "view",
      "type": "function"
    },
    {
      "inputs": [
        {
          "internalType": "uint256",
          "name": "id",
          "type": "uint256"
        }
      ],
      "name": "getPaletteTop",
      "outputs": [
        {
          "internalType": "string",
          "name": "",
          "type": "string"
        }
      ],
      "stateMutability": "view",
      "type": "function"
    },
    {
      "inputs": [
        {
          "internalType": "uint256",
          "name": "tokenId",
          "type": "uint256"
        }
      ],
      "name": "getParamValues",
      "outputs": [
        {
          "components": [
            {
              "internalType": "string",
              "name": "nation",
              "type": "string"
            },
            {
              "internalType": "string",
              "name": "palletTop",
              "type": "string"
            },
            {
              "internalType": "string",
              "name": "palletBottom",
              "type": "string"
            }
          ],
          "internalType": "struct HORNS.Horn",
          "name": "horn",
          "type": "tuple"
        }
      ],
      "stateMutability": "view",
      "type": "function"
    },
    {
      "inputs": [
        {
          "internalType": "string",
          "name": "name",
          "type": "string"
        },
        {
          "internalType": "string",
          "name": "symbol",
          "type": "string"
        },
        {
          "internalType": "address",
          "name": "admin",
          "type": "address"
        },
        {
          "internalType": "address",
          "name": "paramsAddress",
          "type": "address"
        }
      ],
      "name": "initialize",
      "outputs": [],
      "stateMutability": "nonpayable",
      "type": "function"
    },
    {
      "inputs": [
        {
          "internalType": "address",
          "name": "owner",
          "type": "address"
        },
        {
          "internalType": "address",
          "name": "operator",
          "type": "address"
        }
      ],
      "name": "isApprovedForAll",
      "outputs": [
        {
          "internalType": "bool",
          "name": "",
          "type": "bool"
        }
      ],
      "stateMutability": "view",
      "type": "function"
    },
    {
      "inputs": [],
      "name": "mint",
      "outputs": [],
      "stateMutability": "payable",
      "type": "function"
    },
    {
      "inputs": [
        {
          "internalType": "uint256",
          "name": "tokenIdGated",
          "type": "uint256"
        }
      ],
      "name": "mintByToken",
      "outputs": [],
      "stateMutability": "nonpayable",
      "type": "function"
    },
    {
      "inputs": [],
      "name": "name",
      "outputs": [
        {
          "internalType": "string",
          "name": "",
          "type": "string"
        }
      ],
      "stateMutability": "view",
      "type": "function"
    },
    {
      "inputs": [],
      "name": "owner",
      "outputs": [
        {
          "internalType": "address",
          "name": "",
          "type": "address"
        }
      ],
      "stateMutability": "view",
      "type": "function"
    },
    {
      "inputs": [
        {
          "internalType": "uint256",
          "name": "id",
          "type": "uint256"
        }
      ],
      "name": "ownerMint",
      "outputs": [],
      "stateMutability": "nonpayable",
      "type": "function"
    },
    {
      "inputs": [
        {
          "internalType": "uint256",
          "name": "tokenId",
          "type": "uint256"
        }
      ],
      "name": "ownerOf",
      "outputs": [
        {
          "internalType": "address",
          "name": "",
          "type": "address"
        }
      ],
      "stateMutability": "view",
      "type": "function"
    },
    {
      "inputs": [],
      "name": "pause",
      "outputs": [],
      "stateMutability": "nonpayable",
      "type": "function"
    },
    {
      "inputs": [],
      "name": "paused",
      "outputs": [
        {
          "internalType": "bool",
          "name": "",
          "type": "bool"
        }
      ],
      "stateMutability": "view",
      "type": "function"
    },
    {
      "inputs": [],
      "name": "renounceOwnership",
      "outputs": [],
      "stateMutability": "nonpayable",
      "type": "function"
    },
    {
      "inputs": [
        {
          "internalType": "uint256",
          "name": "_tokenId",
          "type": "uint256"
        },
        {
          "internalType": "uint256",
          "name": "_salePrice",
          "type": "uint256"
        }
      ],
      "name": "royaltyInfo",
      "outputs": [
        {
          "internalType": "address",
          "name": "receiver",
          "type": "address"
        },
        {
          "internalType": "uint256",
          "name": "royaltyAmount",
          "type": "uint256"
        }
      ],
      "stateMutability": "view",
      "type": "function"
    },
    {
      "inputs": [
        {
          "internalType": "address",
          "name": "from",
          "type": "address"
        },
        {
          "internalType": "address",
          "name": "to",
          "type": "address"
        },
        {
          "internalType": "uint256",
          "name": "tokenId",
          "type": "uint256"
        }
      ],
      "name": "safeTransferFrom",
      "outputs": [],
      "stateMutability": "nonpayable",
      "type": "function"
    },
    {
      "inputs": [
        {
          "internalType": "address",
          "name": "from",
          "type": "address"
        },
        {
          "internalType": "address",
          "name": "to",
          "type": "address"
        },
        {
          "internalType": "uint256",
          "name": "tokenId",
          "type": "uint256"
        },
        {
          "internalType": "bytes",
          "name": "data",
          "type": "bytes"
        }
      ],
      "name": "safeTransferFrom",
      "outputs": [],
      "stateMutability": "nonpayable",
      "type": "function"
    },
    {
      "inputs": [
        {
          "internalType": "string",
          "name": "algo",
          "type": "string"
        }
      ],
      "name": "setAlgo",
      "outputs": [],
      "stateMutability": "nonpayable",
      "type": "function"
    },
    {
      "inputs": [
        {
          "internalType": "address",
          "name": "operator",
          "type": "address"
        },
        {
          "internalType": "bool",
          "name": "approved",
          "type": "bool"
        }
      ],
      "name": "setApprovalForAll",
      "outputs": [],
      "stateMutability": "nonpayable",
      "type": "function"
    },
    {
      "inputs": [
        {
          "internalType": "uint256",
          "name": "fee",
          "type": "uint256"
        }
      ],
      "name": "setFee",
      "outputs": [],
      "stateMutability": "nonpayable",
      "type": "function"
    },
    {
      "inputs": [
        {
          "internalType": "uint256",
          "name": "limit",
          "type": "uint256"
        }
      ],
      "name": "setLimit",
      "outputs": [],
      "stateMutability": "nonpayable",
      "type": "function"
    },
    {
      "inputs": [
        {
          "internalType": "bytes4",
          "name": "interfaceId",
          "type": "bytes4"
        }
      ],
      "name": "supportsInterface",
      "outputs": [
        {
          "internalType": "bool",
          "name": "",
          "type": "bool"
        }
      ],
      "stateMutability": "view",
      "type": "function"
    },
    {
      "inputs": [],
      "name": "symbol",
      "outputs": [
        {
          "internalType": "string",
          "name": "",
          "type": "string"
        }
      ],
      "stateMutability": "view",
      "type": "function"
    },
    {
      "inputs": [
        {
          "internalType": "uint256",
          "name": "tokenId",
          "type": "uint256"
        }
      ],
      "name": "tokenURI",
      "outputs": [
        {
          "internalType": "string",
          "name": "",
          "type": "string"
        }
      ],
      "stateMutability": "view",
      "type": "function"
    },
    {
      "inputs": [
        {
          "internalType": "address",
          "name": "from",
          "type": "address"
        },
        {
          "internalType": "address",
          "name": "to",
          "type": "address"
        },
        {
          "internalType": "uint256",
          "name": "tokenId",
          "type": "uint256"
        }
      ],
      "name": "transferFrom",
      "outputs": [],
      "stateMutability": "nonpayable",
      "type": "function"
    },
    {
      "inputs": [
        {
          "internalType": "address",
          "name": "newOwner",
          "type": "address"
        }
      ],
      "name": "transferOwnership",
      "outputs": [],
      "stateMutability": "nonpayable",
      "type": "function"
    },
    {
      "inputs": [],
      "name": "unpause",
      "outputs": [],
      "stateMutability": "nonpayable",
      "type": "function"
    },
    {
      "inputs": [
        {
          "internalType": "uint256",
          "name": "amount",
          "type": "uint256"
        }
      ],
      "name": "withdraw",
      "outputs": [],
      "stateMutability": "nonpayable",
      "type": "function"
    }
  ],
  "bytecode": "0x608060405234801561001057600080fd5b5061386e806100206000396000f3fe60806040526004361061025c5760003560e01c806370a0823111610144578063a22cb465116100b6578063c87b56dd1161007a578063c87b56dd146106f9578063df2fb92c14610719578063e653c65014610730578063e985e9c514610751578063f19e75d41461079a578063f2fde38b146107ba57600080fd5b8063a22cb46514610654578063adfc7dae14610674578063b88d4fde14610695578063c0dca239146106b5578063c5b37c22146106e257600080fd5b80638456cb59116101085780638456cb59146105b65780638da5cb5b146105cb5780638f15b414146105ea5780638f2839701461060a57806395d89b411461062a578063a1bb1fcc1461063f57600080fd5b806370a082311461051c578063715018a61461054a578063741149b11461055f5780637cd49fde1461057f57806380d953dd1461059657600080fd5b80632a55205a116101dd5780635c975abb116101a15780635c975abb146104645780635d36b3ea1461047c5780636352211e1461049c57806366829b16146104bc57806369fe0e2d146104dc5780636a2c3995146104fc57600080fd5b80632a55205a146103b05780632e1a7d4d146103ef57806339a0c6f91461040f5780633f4ba83a1461042f57806342842e0e1461044457600080fd5b8063095ea7b311610224578063095ea7b3146103335780630dccc9ad146103535780631249c58b1461036857806323b872dd1461037057806327ea6f2b1461039057600080fd5b806301bc45c91461026157806301ffc9a71461029f57806306fdde03146102cf5780630764da1d146102f1578063081812fc14610313575b600080fd5b34801561026d57600080fd5b5061015f54610282906001600160a01b031681565b6040516001600160a01b0390911681526020015b60405180910390f35b3480156102ab57600080fd5b506102bf6102ba366004613140565b6107da565b6040519015158152602001610296565b3480156102db57600080fd5b506102e461082c565b60405161029691906131b5565b3480156102fd57600080fd5b5061031161030c366004613274565b6108be565b005b34801561031f57600080fd5b5061028261032e3660046132a9565b610927565b34801561033f57600080fd5b5061031161034e3660046132d7565b61094e565b34801561035f57600080fd5b506102e4610a64565b610311610af3565b34801561037c57600080fd5b5061031161038b366004613303565b610b9a565b34801561039c57600080fd5b506103116103ab3660046132a9565b610cf0565b3480156103bc57600080fd5b506103d06103cb366004613344565b610d3e565b604080516001600160a01b039093168352602083019190915201610296565b3480156103fb57600080fd5b5061031161040a3660046132a9565b610d6f565b34801561041b57600080fd5b5061031161042a366004613274565b610e6d565b34801561043b57600080fd5b50610311610ec9565b34801561045057600080fd5b5061031161045f366004613303565b610f19565b34801561047057600080fd5b5060975460ff166102bf565b34801561048857600080fd5b506102e46104973660046132a9565b611064565b3480156104a857600080fd5b506102826104b73660046132a9565b6112ba565b3480156104c857600080fd5b506103116104d7366004613366565b61131a565b3480156104e857600080fd5b506103116104f73660046132a9565b611385565b34801561050857600080fd5b506102e46105173660046132a9565b6113d3565b34801561052857600080fd5b5061053c610537366004613366565b611600565b604051908152602001610296565b34801561055657600080fd5b50610311611686565b34801561056b57600080fd5b5061031161057a366004613366565b611698565b34801561058b57600080fd5b5061053c6101625481565b3480156105a257600080fd5b506103116105b13660046132a9565b611734565b3480156105c257600080fd5b50610311611857565b3480156105d757600080fd5b5061012d546001600160a01b0316610282565b3480156105f657600080fd5b50610311610605366004613383565b6118a7565b34801561061657600080fd5b50610311610625366004613366565b611a72565b34801561063657600080fd5b506102e4611b0e565b34801561064b57600080fd5b506102e4611b1d565b34801561066057600080fd5b5061031161066f36600461341a565b611b2b565b34801561068057600080fd5b5061016054610282906001600160a01b031681565b3480156106a157600080fd5b506103116106b0366004613453565b611b36565b3480156106c157600080fd5b506106d56106d03660046132a9565b611c88565b60405161029691906134d3565b3480156106ee57600080fd5b5061053c6101655481565b34801561070557600080fd5b506102e46107143660046132a9565b611ce4565b34801561072557600080fd5b5061053c6101665481565b34801561073c57600080fd5b5061016454610282906001600160a01b031681565b34801561075d57600080fd5b506102bf61076c366004613534565b6001600160a01b039182166000908152606a6020908152604080832093909416825291909152205460ff1690565b3480156107a657600080fd5b506103116107b53660046132a9565b611d4b565b3480156107c657600080fd5b506103116107d5366004613366565b611dbc565b60006001600160e01b031982166380ac58cd60e01b148061080b57506001600160e01b03198216635b5e139f60e01b145b8061082657506301ffc9a760e01b6001600160e01b03198316145b92915050565b60606065805461083b90613562565b80601f016020809104026020016040519081016040528092919081815260200182805461086790613562565b80156108b45780601f10610889576101008083540402835291602001916108b4565b820191906000526020600020905b81548152906001019060200180831161089757829003601f168201915b5050505050905090565b61015f5460408051808201909152600381526231303160e81b6020820152906001600160a01b0316331461090e5760405162461bcd60e51b815260040161090591906131b5565b60405180910390fd5b50805161092390610161906020840190613091565b5050565b600061093282611e32565b506000908152606960205260409020546001600160a01b031690565b6000610959826112ba565b9050806001600160a01b0316836001600160a01b031614156109c75760405162461bcd60e51b815260206004820152602160248201527f4552433732313a20617070726f76616c20746f2063757272656e74206f776e656044820152603960f91b6064820152608401610905565b336001600160a01b03821614806109e357506109e3813361076c565b610a555760405162461bcd60e51b815260206004820152603e60248201527f4552433732313a20617070726f76652063616c6c6572206973206e6f7420746f60448201527f6b656e206f776e6572206e6f7220617070726f76656420666f7220616c6c00006064820152608401610905565b610a5f8383611e91565b505050565b6101638054610a7290613562565b80601f0160208091040260200160405190810160405280929190818152602001828054610a9e90613562565b8015610aeb5780601f10610ac057610100808354040283529160200191610aeb565b820191906000526020600020905b815481529060010190602001808311610ace57829003601f168201915b505050505081565b600061016554118015610b095750610165543410155b8015610b185750600061016654115b6040518060400160405280600381526020016232303160e81b81525090610b525760405162461bcd60e51b815260040161090591906131b5565b5061232861016254108015610b6c57506101665461016254105b610b7557600080fd5b6101628054906000610b86836135b3565b9190505550610b983361016254611eff565b565b826daaeb6d7670e522a718067333cd4e3b15610cdf576001600160a01b038116331415610bd157610bcc848484611f19565b610cea565b604051633185c44d60e21b81526daaeb6d7670e522a718067333cd4e9063c617113490610c0490309033906004016135ce565b602060405180830381865afa158015610c21573d6000803e3d6000fd5b505050506040513d601f19601f82011682018060405250810190610c4591906135e8565b8015610cc05750604051633185c44d60e21b81526daaeb6d7670e522a718067333cd4e9063c617113490610c7f90309085906004016135ce565b602060405180830381865afa158015610c9c573d6000803e3d6000fd5b505050506040513d601f19601f82011682018060405250810190610cc091906135e8565b610cdf57604051633b79c77360e21b8152336004820152602401610905565b610cea848484611f19565b50505050565b61015f5460408051808201909152600381526231303160e81b6020820152906001600160a01b03163314610d375760405162461bcd60e51b815260040161090591906131b5565b5061016655565b61015f546001600160a01b03166000612710610d5c846101f4613605565b610d66919061363a565b90509250929050565b600260fb541415610dc25760405162461bcd60e51b815260206004820152601f60248201527f5265656e7472616e637947756172643a207265656e7472616e742063616c6c006044820152606401610905565b600260fb5561015f5460408051808201909152600381526231303160e81b6020820152906001600160a01b03163314610e0e5760405162461bcd60e51b815260040161090591906131b5565b50604051600090339047908381818185875af1925050503d8060008114610e51576040519150601f19603f3d011682016040523d82523d6000602084013e610e56565b606091505b5050905080610e6457600080fd5b5050600160fb55565b61015f5460408051808201909152600381526231303160e81b6020820152906001600160a01b03163314610eb45760405162461bcd60e51b815260040161090591906131b5565b50805161092390610163906020840190613091565b61015f5460408051808201909152600381526231303160e81b6020820152906001600160a01b03163314610f105760405162461bcd60e51b815260040161090591906131b5565b50610b98611f4a565b826daaeb6d7670e522a718067333cd4e3b15611059576001600160a01b038116331415610f4b57610bcc848484611f9c565b604051633185c44d60e21b81526daaeb6d7670e522a718067333cd4e9063c617113490610f7e90309033906004016135ce565b602060405180830381865afa158015610f9b573d6000803e3d6000fd5b505050506040513d601f19601f82011682018060405250810190610fbf91906135e8565b801561103a5750604051633185c44d60e21b81526daaeb6d7670e522a718067333cd4e9063c617113490610ff990309085906004016135ce565b602060405180830381865afa158015611016573d6000803e3d6000fd5b505050506040513d601f19601f8201168201806040525081019061103a91906135e8565b61105957604051633b79c77360e21b8152336004820152602401610905565b610cea848484611f9c565b6040805161024081018252600761020082018181526611a29b9a199a2360c91b6102208401528252825180840184528181526608d14dce4dccd160ca1b6020828101919091528084019190915283518085018552828152662345374443344560c81b8183015283850152835180850185528281526608cd50d14dcd5160ca1b8183015260608481019190915284518086018652838152662332393831453760c81b81840152608085015284518086018652838152662335443231453760c81b8184015260a0850152845180860186528381526608d14dcdcdd14d60ca1b8184015260c085015284518086018652838152662345374537453760c81b8184015260e0850152845180860186528381526608cccc4c8d8c8d60ca1b81840152610100850152845180860186528381526611a29b9c9b1ca360c91b8184015261012085015284518086018652838152662345374232373760c81b81840152610140850152845180860186528381526611a29ba2221c2360c91b8184015261016085015284518086018652838152662338434537433360c81b8184015261018085015284518086018652838152662338374232453760c81b818401526101a085015284518086018652838152662341303832453760c81b818401526101c085015284518086018652928352662345344237453760c81b838301526101e08401929092528351808501909452600c84526b70616c6c6574426f74746f6d60a01b90840152918190601090611294908690611fb7565b61129e919061364e565b601081106112ae576112ae613662565b60200201519392505050565b6000818152606760205260408120546001600160a01b0316806108265760405162461bcd60e51b8152602060048201526018602482015277115490cdcc8c4e881a5b9d985b1a59081d1bdad95b88125160421b6044820152606401610905565b61015f5460408051808201909152600381526231303160e81b6020820152906001600160a01b031633146113615760405162461bcd60e51b815260040161090591906131b5565b5061016480546001600160a01b0319166001600160a01b0392909216919091179055565b61015f5460408051808201909152600381526231303160e81b6020820152906001600160a01b031633146113cc5760405162461bcd60e51b815260040161090591906131b5565b5061016555565b6040805161024081018252600761020082018181526611a29b9a199a2360c91b6102208401528252825180840184528181526608d14dce4dccd160ca1b6020828101919091528084019190915283518085018552828152662345374443344560c81b8183015283850152835180850185528281526608cd50d14dcd5160ca1b8183015260608481019190915284518086018652838152662332393831453760c81b81840152608085015284518086018652838152662335443231453760c81b8184015260a0850152845180860186528381526608d14dcdcdd14d60ca1b8184015260c085015284518086018652838152662345374537453760c81b8184015260e0850152845180860186528381526608cccc4c8d8c8d60ca1b81840152610100850152845180860186528381526611a29b9c9b1ca360c91b8184015261012085015284518086018652838152662345374232373760c81b81840152610140850152845180860186528381526611a29ba2221c2360c91b8184015261016085015284518086018652838152662338434537433360c81b8184015261018085015284518086018652838152662338374232453760c81b818401526101a085015284518086018652838152662341303832453760c81b818401526101c085015284518086018652928352662345344237453760c81b838301526101e084019290925283518085019094526009845268070616c6c6574546f760bc1b90840152918190601090611294908690611fb7565b60006001600160a01b03821661166a5760405162461bcd60e51b815260206004820152602960248201527f4552433732313a2061646472657373207a65726f206973206e6f7420612076616044820152683634b21037bbb732b960b91b6064820152608401610905565b506001600160a01b031660009081526068602052604090205490565b61168e611ff3565b610b98600061204e565b61015f546001600160a01b0316331480156116bb57506001600160a01b03811615155b80156116d65750610160546001600160a01b03828116911614155b6040518060400160405280600381526020016231303160e81b815250906117105760405162461bcd60e51b815260040161090591906131b5565b5061016080546001600160a01b0319166001600160a01b0392909216919091179055565b610164546001600160a01b0316158015906117525750600061016654115b6040518060400160405280600381526020016203130360ec1b8152509061178c5760405162461bcd60e51b815260040161090591906131b5565b50610164546040516331a9108f60e11b8152600481018390526001600160a01b039091169033908290636352211e90602401602060405180830381865afa1580156117db573d6000803e3d6000fd5b505050506040513d601f19601f820116820180604052508101906117ff9190613678565b6001600160a01b03161461181257600080fd5b6123286101625410801561182b57506101665461016254105b61183457600080fd5b6101628054906000611845836135b3565b91905055506109233361016254611eff565b61015f5460408051808201909152600381526231303160e81b6020820152906001600160a01b0316331461189e5760405162461bcd60e51b815260040161090591906131b5565b50610b986120a1565b600054610100900460ff16158080156118c75750600054600160ff909116105b806118e15750303b1580156118e1575060005460ff166001145b6119445760405162461bcd60e51b815260206004820152602e60248201527f496e697469616c697a61626c653a20636f6e747261637420697320616c72656160448201526d191e481a5b9a5d1a585b1a5e995960921b6064820152608401610905565b6000805460ff191660011790558015611967576000805461ff0019166101001790555b6001600160a01b0383161580159061198757506001600160a01b03821615155b6040518060400160405280600381526020016203130360ec1b815250906119c15760405162461bcd60e51b815260040161090591906131b5565b506119cc85856120de565b61016080546001600160a01b038085166001600160a01b03199283161790925561015f80549286169290911691909117905561232861016655611a0d61210f565b611a1561213e565b611a1d612184565b611a256121b3565b8015611a6b576000805461ff0019169055604051600181527f7f26b83ff96e1f2b6a682f133852f6798a09c465da95921460cefb38474024989060200160405180910390a15b5050505050565b61015f546001600160a01b031633148015611a9557506001600160a01b03811615155b8015611ab0575061015f546001600160a01b03828116911614155b6040518060400160405280600381526020016231303160e81b81525090611aea5760405162461bcd60e51b815260040161090591906131b5565b5061015f80546001600160a01b0319166001600160a01b0392909216919091179055565b60606066805461083b90613562565b6101618054610a7290613562565b6109233383836121e2565b836daaeb6d7670e522a718067333cd4e3b15611c7c576001600160a01b038116331415611b6e57611b69858585856122b1565b611a6b565b604051633185c44d60e21b81526daaeb6d7670e522a718067333cd4e9063c617113490611ba190309033906004016135ce565b602060405180830381865afa158015611bbe573d6000803e3d6000fd5b505050506040513d601f19601f82011682018060405250810190611be291906135e8565b8015611c5d5750604051633185c44d60e21b81526daaeb6d7670e522a718067333cd4e9063c617113490611c1c90309085906004016135ce565b602060405180830381865afa158015611c39573d6000803e3d6000fd5b505050506040513d601f19601f82011682018060405250810190611c5d91906135e8565b611c7c57604051633b79c77360e21b8152336004820152602401610905565b611a6b858585856122b1565b611cac60405180606001604052806060815260200160608152602001606081525090565b6040518060600160405280611cc0846122e3565b8152602001611cce84611064565b8152602001611cdc846113d3565b905292915050565b6060611cef82611e32565b6000611cf961273e565b90506000815111611d195760405180602001604052806000815250611d44565b80611d238461274e565b604051602001611d34929190613695565b6040516020818303038152906040525b9392505050565b61015f5460408051808201909152600381526231303160e81b6020820152906001600160a01b03163314611d925760405162461bcd60e51b815260040161090591906131b5565b5061232881118015611da657506127108111155b611daf57600080fd5b611db93382611eff565b50565b611dc4611ff3565b6001600160a01b038116611e295760405162461bcd60e51b815260206004820152602660248201527f4f776e61626c653a206e6577206f776e657220697320746865207a65726f206160448201526564647265737360d01b6064820152608401610905565b611db98161204e565b6000818152606760205260409020546001600160a01b0316611db95760405162461bcd60e51b8152602060048201526018602482015277115490cdcc8c4e881a5b9d985b1a59081d1bdad95b88125160421b6044820152606401610905565b600081815260696020526040902080546001600160a01b0319166001600160a01b0384169081179091558190611ec6826112ba565b6001600160a01b03167f8c5be1e5ebec7d5bd14f71427d1e84f3dd0314c0f7b2291e5b200ac8c7c3b92560405160405180910390a45050565b610923828260405180602001604052806000815250612854565b611f233382612887565b611f3f5760405162461bcd60e51b8152600401610905906136c4565b610a5f838383612905565b611f52612aac565b6097805460ff191690557f5db9ee0a495bf2e6ff9c91a7834c1ba4fdd244a5e8aa4e537bd38aeae4b073aa335b6040516001600160a01b03909116815260200160405180910390a1565b610a5f83838360405180602001604052806000815250611b36565b600081611fc38461274e565b604051602001611fd4929190613695565b60408051601f1981840301815291905280516020909101209392505050565b61012d546001600160a01b03163314610b985760405162461bcd60e51b815260206004820181905260248201527f4f776e61626c653a2063616c6c6572206973206e6f7420746865206f776e65726044820152606401610905565b61012d80546001600160a01b038381166001600160a01b0319831681179093556040519116919082907f8be0079c531659141344cd1fd0a4f28419497f9722a3daafe3b4186f6b6457e090600090a35050565b6120a9612af5565b6097805460ff191660011790557f62e78cea01bee320cd4e420270b5ea74000d11b0c9f74754ebdbfc544b05a258611f7f3390565b600054610100900460ff166121055760405162461bcd60e51b815260040161090590613712565b6109238282612b3b565b600054610100900460ff166121365760405162461bcd60e51b815260040161090590613712565b610b98612b89565b600054610100900460ff166121655760405162461bcd60e51b815260040161090590613712565b610b98733cc6cdda760b79bafa08df41ecfa224f810dceb66001612bb9565b600054610100900460ff166121ab5760405162461bcd60e51b815260040161090590613712565b610b98612d4a565b600054610100900460ff166121da5760405162461bcd60e51b815260040161090590613712565b610b98612d78565b816001600160a01b0316836001600160a01b031614156122445760405162461bcd60e51b815260206004820152601960248201527f4552433732313a20617070726f766520746f2063616c6c6572000000000000006044820152606401610905565b6001600160a01b038381166000818152606a6020908152604080832094871680845294825291829020805460ff191686151590811790915591519182527f17307eab39ab6107e8899845ad3d59bd9653f200f220920489ca2b5937696c31910160405180910390a3505050565b6122bb3383612887565b6122d75760405162461bcd60e51b8152600401610905906136c4565b610cea84848484612dab565b6040805161044081018252600561040082018181526428b0ba30b960d91b61042084015282528251808401845260078082526622b1bab0b237b960c91b60208381019190915280850192909252845180860186528181526614d95b9959d85b60ca1b818401528486015284518086018652600b8082526a4e65746865726c616e647360a81b828501526060868101929092528651808801885283815266115b99db185b9960ca1b818601526080870152865180880188528381526624a91024b930b760c91b8186015260a087015286518088018852600381526255534160e81b8186015260c0870152865180880188528581526457616c657360d81b8186015260e087015286518088018852600980825268417267656e74696e6160b81b8287015261010088019190915287518089018952600c81526b53617564692041726162696160a01b81870152610120880152875180890189526006808252654d657869636f60d01b828801526101408901919091528851808a018a5281815265141bdb185b9960d21b818801526101608901528851808a018a52818152654672616e636560d01b818801526101808901528851808a018a52918252684175737472616c696160b81b828701526101a0880191909152875180890189528481526644656e6d61726b60c81b818701526101c0880152875180890189528481526654756e6973696160c81b818701526101e0880152875180890189528681526429b830b4b760d91b8187015261020088015287518089018952600a815269436f737461205269636160b01b8187015261022088015287518089018952848152664765726d616e7960c81b8187015261024088015287518089018952868152642530b830b760d91b81870152610260880152875180890189528481526642656c6769756d60c81b81870152610280880152875180890189528181526543616e61646160d01b818701526102a088015287518089018952848152664d6f726f63636f60c81b818701526102c0880152875180890189528481526643726f6174696160c81b818701526102e08801528751808901895281815265109c985e9a5b60d21b81870152610300880152875180890189528181526553657262696160d01b81870152610320880152875180890189529182526a14ddda5d1e995c9b185b9960aa1b828601526103408701919091528651808801885260088082526721b0b6b2b937b7b760c11b828701526103608801919091528751808901895290815267141bdc9d1d59d85b60c21b8186015261038087015286518088018852948552644768616e6160d81b858501526103a086019490945285518087018752918252665572756775617960c81b828401526103c085019190915284518086018652600e81526d4b6f7265612052657075626c696360901b818401526103e08501528451808601909552918452653730ba34b7b760d11b848201529092829190612724908690611fb7565b61272e919061364e565b602081106112ae576112ae613662565b6060610163805461083b90613562565b6060816127725750506040805180820190915260018152600360fc1b602082015290565b8160005b811561279c5780612786816135b3565b91506127959050600a8361363a565b9150612776565b60008167ffffffffffffffff8111156127b7576127b76131c8565b6040519080825280601f01601f1916602001820160405280156127e1576020820181803683370190505b5090505b841561284c576127f660018361375d565b9150612803600a8661364e565b61280e906030613774565b60f81b81838151811061282357612823613662565b60200101906001600160f81b031916908160001a905350612845600a8661363a565b94506127e5565b949350505050565b61285e8383612dde565b61286b6000848484612f2c565b610a5f5760405162461bcd60e51b81526004016109059061378c565b600080612893836112ba565b9050806001600160a01b0316846001600160a01b031614806128da57506001600160a01b038082166000908152606a602090815260408083209388168352929052205460ff165b8061284c5750836001600160a01b03166128f384610927565b6001600160a01b031614949350505050565b826001600160a01b0316612918826112ba565b6001600160a01b03161461297c5760405162461bcd60e51b815260206004820152602560248201527f4552433732313a207472616e736665722066726f6d20696e636f72726563742060448201526437bbb732b960d91b6064820152608401610905565b6001600160a01b0382166129de5760405162461bcd60e51b8152602060048201526024808201527f4552433732313a207472616e7366657220746f20746865207a65726f206164646044820152637265737360e01b6064820152608401610905565b6129e983838361302a565b6129f4600082611e91565b6001600160a01b0383166000908152606860205260408120805460019290612a1d90849061375d565b90915550506001600160a01b0382166000908152606860205260408120805460019290612a4b908490613774565b909155505060008181526067602052604080822080546001600160a01b0319166001600160a01b0386811691821790925591518493918716917fddf252ad1be2c89b69c2b068fc378daa952ba7f163c4a11628f55a4df523b3ef91a4505050565b60975460ff16610b985760405162461bcd60e51b815260206004820152601460248201527314185d5cd8589b194e881b9bdd081c185d5cd95960621b6044820152606401610905565b60975460ff1615610b985760405162461bcd60e51b815260206004820152601060248201526f14185d5cd8589b194e881c185d5cd95960821b6044820152606401610905565b600054610100900460ff16612b625760405162461bcd60e51b815260040161090590613712565b8151612b75906065906020850190613091565b508051610a5f906066906020840190613091565b600054610100900460ff16612bb05760405162461bcd60e51b815260040161090590613712565b610b983361204e565b600054610100900460ff16612be05760405162461bcd60e51b815260040161090590613712565b6daaeb6d7670e522a718067333cd4e3b156109235760405163c3c5a54760e01b81523060048201526daaeb6d7670e522a718067333cd4e9063c3c5a547906024016020604051808303816000875af1158015612c40573d6000803e3d6000fd5b505050506040513d601f19601f82011682018060405250810190612c6491906135e8565b610923578015612cd757604051633e9f1edf60e11b81526daaeb6d7670e522a718067333cd4e90637d3e3dbe90612ca190309086906004016135ce565b600060405180830381600087803b158015612cbb57600080fd5b505af1158015612ccf573d6000803e3d6000fd5b505050505050565b6001600160a01b03821615612d195760405163a0af290360e01b81526daaeb6d7670e522a718067333cd4e9063a0af290390612ca190309086906004016135ce565b604051632210724360e11b81523060048201526daaeb6d7670e522a718067333cd4e90634420e48690602401612ca1565b600054610100900460ff16612d715760405162461bcd60e51b815260040161090590613712565b600160fb55565b600054610100900460ff16612d9f5760405162461bcd60e51b815260040161090590613712565b6097805460ff19169055565b612db6848484612905565b612dc284848484612f2c565b610cea5760405162461bcd60e51b81526004016109059061378c565b6001600160a01b038216612e345760405162461bcd60e51b815260206004820181905260248201527f4552433732313a206d696e7420746f20746865207a65726f20616464726573736044820152606401610905565b6000818152606760205260409020546001600160a01b031615612e995760405162461bcd60e51b815260206004820152601c60248201527f4552433732313a20746f6b656e20616c7265616479206d696e746564000000006044820152606401610905565b612ea56000838361302a565b6001600160a01b0382166000908152606860205260408120805460019290612ece908490613774565b909155505060008181526067602052604080822080546001600160a01b0319166001600160a01b03861690811790915590518392907fddf252ad1be2c89b69c2b068fc378daa952ba7f163c4a11628f55a4df523b3ef908290a45050565b60006001600160a01b0384163b1561301f57604051630a85bd0160e11b81526001600160a01b0385169063150b7a0290612f709033908990889088906004016137de565b6020604051808303816000875af1925050508015612fab575060408051601f3d908101601f19168201909252612fa89181019061381b565b60015b613005573d808015612fd9576040519150601f19603f3d011682016040523d82523d6000602084013e612fde565b606091505b508051612ffd5760405162461bcd60e51b81526004016109059061378c565b805181602001fd5b6001600160e01b031916630a85bd0160e11b14905061284c565b506001949350505050565b60975460ff1615610a5f5760405162461bcd60e51b815260206004820152602b60248201527f4552433732315061757361626c653a20746f6b656e207472616e73666572207760448201526a1a1a5b19481c185d5cd95960aa1b6064820152608401610905565b82805461309d90613562565b90600052602060002090601f0160209004810192826130bf5760008555613105565b82601f106130d857805160ff1916838001178555613105565b82800160010185558215613105579182015b828111156131055782518255916020019190600101906130ea565b50613111929150613115565b5090565b5b808211156131115760008155600101613116565b6001600160e01b031981168114611db957600080fd5b60006020828403121561315257600080fd5b8135611d448161312a565b60005b83811015613178578181015183820152602001613160565b83811115610cea5750506000910152565b600081518084526131a181602086016020860161315d565b601f01601f19169290920160200192915050565b602081526000611d446020830184613189565b634e487b7160e01b600052604160045260246000fd5b600067ffffffffffffffff808411156131f9576131f96131c8565b604051601f8501601f19908116603f01168101908282118183101715613221576132216131c8565b8160405280935085815286868601111561323a57600080fd5b858560208301376000602087830101525050509392505050565b600082601f83011261326557600080fd5b611d44838335602085016131de565b60006020828403121561328657600080fd5b813567ffffffffffffffff81111561329d57600080fd5b61284c84828501613254565b6000602082840312156132bb57600080fd5b5035919050565b6001600160a01b0381168114611db957600080fd5b600080604083850312156132ea57600080fd5b82356132f5816132c2565b946020939093013593505050565b60008060006060848603121561331857600080fd5b8335613323816132c2565b92506020840135613333816132c2565b929592945050506040919091013590565b6000806040838503121561335757600080fd5b50508035926020909101359150565b60006020828403121561337857600080fd5b8135611d44816132c2565b6000806000806080858703121561339957600080fd5b843567ffffffffffffffff808211156133b157600080fd5b6133bd88838901613254565b955060208701359150808211156133d357600080fd5b506133e087828801613254565b93505060408501356133f1816132c2565b91506060850135613401816132c2565b939692955090935050565b8015158114611db957600080fd5b6000806040838503121561342d57600080fd5b8235613438816132c2565b915060208301356134488161340c565b809150509250929050565b6000806000806080858703121561346957600080fd5b8435613474816132c2565b93506020850135613484816132c2565b925060408501359150606085013567ffffffffffffffff8111156134a757600080fd5b8501601f810187136134b857600080fd5b6134c7878235602084016131de565b91505092959194509250565b6020815260008251606060208401526134ef6080840182613189565b90506020840151601f198085840301604086015261350d8383613189565b925060408601519150808584030160608601525061352b8282613189565b95945050505050565b6000806040838503121561354757600080fd5b8235613552816132c2565b91506020830135613448816132c2565b600181811c9082168061357657607f821691505b6020821081141561359757634e487b7160e01b600052602260045260246000fd5b50919050565b634e487b7160e01b600052601160045260246000fd5b60006000198214156135c7576135c761359d565b5060010190565b6001600160a01b0392831681529116602082015260400190565b6000602082840312156135fa57600080fd5b8151611d448161340c565b600081600019048311821515161561361f5761361f61359d565b500290565b634e487b7160e01b600052601260045260246000fd5b60008261364957613649613624565b500490565b60008261365d5761365d613624565b500690565b634e487b7160e01b600052603260045260246000fd5b60006020828403121561368a57600080fd5b8151611d44816132c2565b600083516136a781846020880161315d565b8351908301906136bb81836020880161315d565b01949350505050565b6020808252602e908201527f4552433732313a2063616c6c6572206973206e6f7420746f6b656e206f776e6560408201526d1c881b9bdc88185c1c1c9bdd995960921b606082015260800190565b6020808252602b908201527f496e697469616c697a61626c653a20636f6e7472616374206973206e6f74206960408201526a6e697469616c697a696e6760a81b606082015260800190565b60008282101561376f5761376f61359d565b500390565b600082198211156137875761378761359d565b500190565b60208082526032908201527f4552433732313a207472616e7366657220746f206e6f6e20455243373231526560408201527131b2b4bb32b91034b6b83632b6b2b73a32b960711b606082015260800190565b6001600160a01b038581168252841660208201526040810183905260806060820181905260009061381190830184613189565b9695505050505050565b60006020828403121561382d57600080fd5b8151611d448161312a56fea2646970667358221220146e423d7e0ee0e1752335d6a3a933d1b7c5ae0962a6e4e553ece05c3b1d969564736f6c634300080c0033",
  "linkReferences": {},
  "deployedLinkReferences": {}
}