{"contracts/nft/AVATARS.sol":{"AVATARS":{"abi":[{"anonymous":false,"inputs":[{"indexed":true,"internalType":"address","name":"owner","type":"address"},{"indexed":true,"internalType":"address","name":"approved","type":"address"},{"indexed":true,"internalType":"uint256","name":"tokenId","type":"uint256"}],"name":"Approval","type":"event"},{"anonymous":false,"inputs":[{"indexed":true,"internalType":"address","name":"owner","type":"address"},{"indexed":true,"internalType":"address","name":"operator","type":"address"},{"indexed":false,"internalType":"bool","name":"approved","type":"bool"}],"name":"ApprovalForAll","type":"event"},{"anonymous":false,"inputs":[{"indexed":false,"internalType":"uint8","name":"version","type":"uint8"}],"name":"Initialized","type":"event"},{"anonymous":false,"inputs":[{"indexed":true,"internalType":"address","name":"previousOwner","type":"address"},{"indexed":true,"internalType":"address","name":"newOwner","type":"address"}],"name":"OwnershipTransferred","type":"event"},{"anonymous":false,"inputs":[{"indexed":false,"internalType":"address","name":"account","type":"address"}],"name":"Paused","type":"event"},{"anonymous":false,"inputs":[{"indexed":true,"internalType":"bytes32","name":"requestId","type":"bytes32"},{"indexed":true,"internalType":"bytes","name":"data","type":"bytes"}],"name":"RequestFulfilledData","type":"event"},{"anonymous":false,"inputs":[{"indexed":true,"internalType":"address","name":"from","type":"address"},{"indexed":true,"internalType":"address","name":"to","type":"address"},{"indexed":true,"internalType":"uint256","name":"tokenId","type":"uint256"}],"name":"Transfer","type":"event"},{"anonymous":false,"inputs":[{"indexed":false,"internalType":"address","name":"account","type":"address"}],"name":"Unpaused","type":"event"},{"inputs":[],"name":"_admin","outputs":[{"internalType":"address","name":"","type":"address"}],"stateMutability":"view","type":"function"},{"inputs":[],"name":"_algorithm","outputs":[{"internalType":"string","name":"","type":"string"}],"stateMutability":"view","type":"function"},{"inputs":[],"name":"_counter","outputs":[{"internalType":"uint256","name":"","type":"uint256"}],"stateMutability":"view","type":"function"},{"inputs":[],"name":"_fee","outputs":[{"internalType":"uint256","name":"","type":"uint256"}],"stateMutability":"view","type":"function"},{"inputs":[],"name":"_oracle","outputs":[{"internalType":"address","name":"","type":"address"}],"stateMutability":"view","type":"function"},{"inputs":[],"name":"_paramsAddress","outputs":[{"internalType":"address","name":"","type":"address"}],"stateMutability":"view","type":"function"},{"inputs":[{"internalType":"bytes32","name":"","type":"bytes32"}],"name":"_requestIdData","outputs":[{"internalType":"bytes","name":"","type":"bytes"}],"stateMutability":"view","type":"function"},{"inputs":[],"name":"_tokenAddrErc721","outputs":[{"internalType":"address","name":"","type":"address"}],"stateMutability":"view","type":"function"},{"inputs":[],"name":"_uri","outputs":[{"internalType":"string","name":"","type":"string"}],"stateMutability":"view","type":"function"},{"inputs":[],"name":"_whitelistFee","outputs":[{"internalType":"uint256","name":"","type":"uint256"}],"stateMutability":"view","type":"function"},{"inputs":[{"internalType":"address[]","name":"addrs","type":"address[]"},{"internalType":"uint256","name":"count","type":"uint256"}],"name":"addWhitelist","outputs":[],"stateMutability":"nonpayable","type":"function"},{"inputs":[{"internalType":"address","name":"to","type":"address"},{"internalType":"uint256","name":"tokenId","type":"uint256"}],"name":"approve","outputs":[],"stateMutability":"nonpayable","type":"function"},{"inputs":[{"internalType":"address","name":"owner","type":"address"}],"name":"balanceOf","outputs":[{"internalType":"uint256","name":"","type":"uint256"}],"stateMutability":"view","type":"function"},{"inputs":[{"internalType":"address","name":"newAdm","type":"address"}],"name":"changeAdmin","outputs":[],"stateMutability":"nonpayable","type":"function"},{"inputs":[{"internalType":"string","name":"baseURI","type":"string"}],"name":"changeBaseURI","outputs":[],"stateMutability":"nonpayable","type":"function"},{"inputs":[{"internalType":"address","name":"oracle","type":"address"}],"name":"changeOracle","outputs":[],"stateMutability":"nonpayable","type":"function"},{"inputs":[{"internalType":"address","name":"sweet","type":"address"}],"name":"changeToken","outputs":[],"stateMutability":"nonpayable","type":"function"},{"inputs":[{"internalType":"bytes32","name":"requestId","type":"bytes32"},{"internalType":"bytes","name":"gameData","type":"bytes"}],"name":"fulfill","outputs":[],"stateMutability":"nonpayable","type":"function"},{"inputs":[{"internalType":"uint256","name":"tokenId","type":"uint256"}],"name":"getApproved","outputs":[{"internalType":"address","name":"","type":"address"}],"stateMutability":"view","type":"function"},{"inputs":[{"internalType":"uint256","name":"tokenId","type":"uint256"}],"name":"getParamValues","outputs":[{"components":[{"internalType":"string","name":"_emotion","type":"string"},{"internalType":"string","name":"_emotionTime","type":"string"},{"internalType":"string","name":"_nation","type":"string"},{"internalType":"string","name":"_dna","type":"string"},{"internalType":"string","name":"_beard","type":"string"},{"internalType":"string","name":"_hair","type":"string"},{"internalType":"string","name":"_undershirt","type":"string"},{"internalType":"string","name":"_shoes","type":"string"},{"internalType":"string","name":"_top","type":"string"},{"internalType":"string","name":"_bottom","type":"string"},{"internalType":"uint256","name":"_number","type":"uint256"},{"internalType":"string","name":"_tatoo","type":"string"},{"internalType":"string","name":"_glasses","type":"string"},{"internalType":"string","name":"_captain","type":"string"}],"internalType":"struct AVATARS.Player","name":"player","type":"tuple"}],"stateMutability":"view","type":"function"},{"inputs":[{"internalType":"string","name":"name","type":"string"},{"internalType":"string","name":"symbol","type":"string"},{"internalType":"address","name":"admin","type":"address"},{"internalType":"address","name":"paramsAddress","type":"address"}],"name":"initialize","outputs":[],"stateMutability":"nonpayable","type":"function"},{"inputs":[{"internalType":"address","name":"owner","type":"address"},{"internalType":"address","name":"operator","type":"address"}],"name":"isApprovedForAll","outputs":[{"internalType":"bool","name":"","type":"bool"}],"stateMutability":"view","type":"function"},{"inputs":[],"name":"mint","outputs":[],"stateMutability":"payable","type":"function"},{"inputs":[{"internalType":"uint256","name":"tokenIdGated","type":"uint256"}],"name":"mintByToken","outputs":[],"stateMutability":"nonpayable","type":"function"},{"inputs":[],"name":"mintWhitelist","outputs":[],"stateMutability":"payable","type":"function"},{"inputs":[],"name":"name","outputs":[{"internalType":"string","name":"","type":"string"}],"stateMutability":"view","type":"function"},{"inputs":[],"name":"owner","outputs":[{"internalType":"address","name":"","type":"address"}],"stateMutability":"view","type":"function"},{"inputs":[{"internalType":"uint256","name":"id","type":"uint256"}],"name":"ownerMint","outputs":[],"stateMutability":"nonpayable","type":"function"},{"inputs":[{"internalType":"uint256","name":"tokenId","type":"uint256"}],"name":"ownerOf","outputs":[{"internalType":"address","name":"","type":"address"}],"stateMutability":"view","type":"function"},{"inputs":[],"name":"pause","outputs":[],"stateMutability":"nonpayable","type":"function"},{"inputs":[],"name":"paused","outputs":[{"internalType":"bool","name":"","type":"bool"}],"stateMutability":"view","type":"function"},{"inputs":[],"name":"renounceOwnership","outputs":[],"stateMutability":"nonpayable","type":"function"},{"inputs":[{"internalType":"uint256","name":"_tokenId","type":"uint256"},{"internalType":"uint256","name":"_salePrice","type":"uint256"}],"name":"royaltyInfo","outputs":[{"internalType":"address","name":"receiver","type":"address"},{"internalType":"uint256","name":"royaltyAmount","type":"uint256"}],"stateMutability":"view","type":"function"},{"inputs":[{"internalType":"address","name":"from","type":"address"},{"internalType":"address","name":"to","type":"address"},{"internalType":"uint256","name":"tokenId","type":"uint256"}],"name":"safeTransferFrom","outputs":[],"stateMutability":"nonpayable","type":"function"},{"inputs":[{"internalType":"address","name":"from","type":"address"},{"internalType":"address","name":"to","type":"address"},{"internalType":"uint256","name":"tokenId","type":"uint256"},{"internalType":"bytes","name":"data","type":"bytes"}],"name":"safeTransferFrom","outputs":[],"stateMutability":"nonpayable","type":"function"},{"inputs":[{"internalType":"string","name":"algo","type":"string"}],"name":"setAlgo","outputs":[],"stateMutability":"nonpayable","type":"function"},{"inputs":[{"internalType":"address","name":"operator","type":"address"},{"internalType":"bool","name":"approved","type":"bool"}],"name":"setApprovalForAll","outputs":[],"stateMutability":"nonpayable","type":"function"},{"inputs":[{"internalType":"uint256","name":"fee","type":"uint256"}],"name":"setFee","outputs":[],"stateMutability":"nonpayable","type":"function"},{"inputs":[{"internalType":"uint256","name":"whitelistFee","type":"uint256"}],"name":"setWhitelistFee","outputs":[],"stateMutability":"nonpayable","type":"function"},{"inputs":[{"internalType":"bytes4","name":"interfaceId","type":"bytes4"}],"name":"supportsInterface","outputs":[{"internalType":"bool","name":"","type":"bool"}],"stateMutability":"view","type":"function"},{"inputs":[],"name":"symbol","outputs":[{"internalType":"string","name":"","type":"string"}],"stateMutability":"view","type":"function"},{"inputs":[{"internalType":"uint256","name":"tokenId","type":"uint256"}],"name":"tokenURI","outputs":[{"internalType":"string","name":"","type":"string"}],"stateMutability":"view","type":"function"},{"inputs":[{"internalType":"address","name":"from","type":"address"},{"internalType":"address","name":"to","type":"address"},{"internalType":"uint256","name":"tokenId","type":"uint256"}],"name":"transferFrom","outputs":[],"stateMutability":"nonpayable","type":"function"},{"inputs":[{"internalType":"address","name":"newOwner","type":"address"}],"name":"transferOwnership","outputs":[],"stateMutability":"nonpayable","type":"function"},{"inputs":[],"name":"unpause","outputs":[],"stateMutability":"nonpayable","type":"function"},{"inputs":[{"internalType":"uint256","name":"amount","type":"uint256"}],"name":"withdraw","outputs":[],"stateMutability":"nonpayable","type":"function"}],"evm":{"bytecode":{"linkReferences":{},"object":"608060405234801561001057600080fd5b50614937806100206000396000f3fe60806040526004361061027d5760003560e01c806370a082311161014f578063a22cb465116100c1578063c87b56dd1161007a578063c87b56dd1461075a578063d59783141461077a578063e653c6501461079a578063e985e9c5146107bb578063f19e75d4146107db578063f2fde38b146107fb57600080fd5b8063a22cb46514610695578063adfc7dae146106b5578063b88d4fde146106d6578063c0dca239146106f6578063c5b37c2214610723578063c6283c381461073a57600080fd5b80638456cb59116101135780638456cb59146105f75780638da5cb5b1461060c5780638f15b4141461062b5780638f2839701461064b57806395d89b411461066b578063a1bb1fcc1461068057600080fd5b806370a082311461056b578063715018a61461058b5780637c1de7e1146105a05780637cd49fde146105c057806380d953dd146105d757600080fd5b80632d3df31f116101f35780635275f37a116101ac5780635275f37a146104ae5780635c975abb146104d35780636352211e146104eb578063645b67011461050b57806366829b161461052b57806369fe0e2d1461054b57600080fd5b80632d3df31f146104115780632e1a7d4d1461041957806339a0c6f9146104395780633f4ba83a1461045957806342842e0e1461046e57806347c421b51461048e57600080fd5b8063095ea7b311610245578063095ea7b3146103545780630dccc9ad146103745780631249c58b1461038957806323b872dd14610391578063247ac063146103b15780632a55205a146103d257600080fd5b806301bc45c91461028257806301ffc9a7146102c057806306fdde03146102f05780630764da1d14610312578063081812fc14610334575b600080fd5b34801561028e57600080fd5b5061015f546102a3906001600160a01b031681565b6040516001600160a01b0390911681526020015b60405180910390f35b3480156102cc57600080fd5b506102e06102db366004613e9a565b61081b565b60405190151581526020016102b7565b3480156102fc57600080fd5b5061030561086d565b6040516102b79190613f0f565b34801561031e57600080fd5b5061033261032d366004613fe7565b6108ff565b005b34801561034057600080fd5b506102a361034f36600461401c565b610968565b34801561036057600080fd5b5061033261036f366004614051565b61098f565b34801561038057600080fd5b50610305610aa5565b610332610b34565b34801561039d57600080fd5b506103326103ac36600461407b565b610be7565b3480156103bd57600080fd5b50610161546102a3906001600160a01b031681565b3480156103de57600080fd5b506103f26103ed3660046140b7565b610c18565b604080516001600160a01b0390931683526020830191909152016102b7565b610332610c49565b34801561042557600080fd5b5061033261043436600461401c565b610d70565b34801561044557600080fd5b50610332610454366004613fe7565b610e3e565b34801561046557600080fd5b50610332610e9a565b34801561047a57600080fd5b5061033261048936600461407b565b610eec565b34801561049a57600080fd5b506103326104a93660046140d9565b610f07565b3480156104ba57600080fd5b506104c56101695481565b6040519081526020016102b7565b3480156104df57600080fd5b5060975460ff166102e0565b3480156104f757600080fd5b506102a361050636600461401c565b610fb4565b34801561051757600080fd5b506103326105263660046140f4565b611014565b34801561053757600080fd5b506103326105463660046140d9565b6110bf565b34801561055757600080fd5b5061033261056636600461401c565b61112a565b34801561057757600080fd5b506104c56105863660046140d9565b611178565b34801561059757600080fd5b506103326111fe565b3480156105ac57600080fd5b506103326105bb3660046141a7565b611210565b3480156105cc57600080fd5b506104c56101645481565b3480156105e357600080fd5b506103326105f236600461401c565b61151a565b34801561060357600080fd5b50610332611696565b34801561061857600080fd5b5061012d546001600160a01b03166102a3565b34801561063757600080fd5b506103326106463660046141ee565b6116e6565b34801561065757600080fd5b506103326106663660046140d9565b61188a565b34801561067757600080fd5b50610305611926565b34801561068c57600080fd5b50610305611935565b3480156106a157600080fd5b506103326106b0366004614273565b611943565b3480156106c157600080fd5b50610160546102a3906001600160a01b031681565b3480156106e257600080fd5b506103326106f13660046142af565b61194e565b34801561070257600080fd5b5061071661071136600461401c565b611986565b6040516102b79190614317565b34801561072f57600080fd5b506104c56101675481565b34801561074657600080fd5b5061033261075536600461401c565b611c66565b34801561076657600080fd5b5061030561077536600461401c565b611cb4565b34801561078657600080fd5b5061030561079536600461401c565b611d1b565b3480156107a657600080fd5b50610166546102a3906001600160a01b031681565b3480156107c757600080fd5b506102e06107d63660046144b5565b611d35565b3480156107e757600080fd5b506103326107f636600461401c565b611d63565b34801561080757600080fd5b506103326108163660046140d9565b611e01565b60006001600160e01b031982166380ac58cd60e01b148061084c57506001600160e01b03198216635b5e139f60e01b145b8061086757506301ffc9a760e01b6001600160e01b03198316145b92915050565b60606065805461087c906144df565b80601f01602080910402602001604051908101604052809291908181526020018280546108a8906144df565b80156108f55780601f106108ca576101008083540402835291602001916108f5565b820191906000526020600020905b8154815290600101906020018083116108d857829003601f168201915b5050505050905090565b61015f5460408051808201909152600381526231303160e81b6020820152906001600160a01b0316331461094f5760405162461bcd60e51b81526004016109469190613f0f565b60405180910390fd5b50805161096490610163906020840190613dc4565b5050565b600061097382611e7a565b506000908152606960205260409020546001600160a01b031690565b600061099a82610fb4565b9050806001600160a01b0316836001600160a01b03161415610a085760405162461bcd60e51b815260206004820152602160248201527f4552433732313a20617070726f76616c20746f2063757272656e74206f776e656044820152603960f91b6064820152608401610946565b336001600160a01b0382161480610a245750610a248133611d35565b610a965760405162461bcd60e51b815260206004820152603e60248201527f4552433732313a20617070726f76652063616c6c6572206973206e6f7420746f60448201527f6b656e206f776e6572206e6f7220617070726f76656420666f7220616c6c00006064820152608401610946565b610aa08383611ed9565b505050565b6101658054610ab3906144df565b80601f0160208091040260200160405190810160405280929190818152602001828054610adf906144df565b8015610b2c5780601f10610b0157610100808354040283529160200191610b2c565b820191906000526020600020905b815481529060010190602001808311610b0f57829003601f168201915b505050505081565b600260fb541415610b575760405162461bcd60e51b81526004016109469061451a565b600260fb556101675415801590610b715750610167543410155b6040518060400160405280600381526020016232303160e81b81525090610bab5760405162461bcd60e51b81526004016109469190613f0f565b506123286101645410610bbd57600080fd5b6101648054906000610bce83614567565b9190505550610be03361016454611f47565b600160fb55565b610bf13382611f61565b610c0d5760405162461bcd60e51b815260040161094690614582565b610aa0838383611fc0565b61015f546001600160a01b03166000612710610c36846101f46145d0565b610c409190614605565b90509250929050565b600260fb541415610c6c5760405162461bcd60e51b81526004016109469061451a565b600260fb553360009081526101686020908152604091829020548251808401909352600383526203130360ec1b91830191909152610cbd5760405162461bcd60e51b81526004016109469190613f0f565b50600061016954118015610cd45750610169543410155b6040518060400160405280600381526020016232303160e81b81525090610d0e5760405162461bcd60e51b81526004016109469190613f0f565b506123286101645410610d2057600080fd5b6101648054906000610d3183614567565b9190505550610d433361016454611f47565b33600090815261016860205260408120805460019290610d64908490614619565b9091555050600160fb55565b600260fb541415610d935760405162461bcd60e51b81526004016109469061451a565b600260fb5561015f5460408051808201909152600381526231303160e81b6020820152906001600160a01b03163314610ddf5760405162461bcd60e51b81526004016109469190613f0f565b50604051600090339047908381818185875af1925050503d8060008114610e22576040519150601f19603f3d011682016040523d82523d6000602084013e610e27565b606091505b5050905080610e3557600080fd5b5050600160fb55565b61015f5460408051808201909152600381526231303160e81b6020820152906001600160a01b03163314610e855760405162461bcd60e51b81526004016109469190613f0f565b50805161096490610165906020840190613dc4565b61015f5460408051808201909152600381526231303160e81b6020820152906001600160a01b03163314610ee15760405162461bcd60e51b81526004016109469190613f0f565b50610eea612167565b565b610aa08383836040518060200160405280600081525061194e565b61015f5460408051808201909152600381526231303160e81b6020820152906001600160a01b03163314610f4e5760405162461bcd60e51b81526004016109469190613f0f565b5060408051808201909152600381526203130360ec1b60208201526001600160a01b038216610f905760405162461bcd60e51b81526004016109469190613f0f565b5061016180546001600160a01b0319166001600160a01b0392909216919091179055565b6000818152606760205260408120546001600160a01b0316806108675760405162461bcd60e51b8152602060048201526018602482015277115490cdcc8c4e881a5b9d985b1a59081d1bdad95b88125160421b6044820152606401610946565b61015f5460408051808201909152600381526231303160e81b6020820152906001600160a01b0316331461105b5760405162461bcd60e51b81526004016109469190613f0f565b5060005b8251811015610aa05781610168600085848151811061108057611080614630565b60200260200101516001600160a01b03166001600160a01b031681526020019081526020016000208190555080806110b790614567565b91505061105f565b61015f5460408051808201909152600381526231303160e81b6020820152906001600160a01b031633146111065760405162461bcd60e51b81526004016109469190613f0f565b5061016680546001600160a01b0319166001600160a01b0392909216919091179055565b61015f5460408051808201909152600381526231303160e81b6020820152906001600160a01b031633146111715760405162461bcd60e51b81526004016109469190613f0f565b5061016755565b60006001600160a01b0382166111e25760405162461bcd60e51b815260206004820152602960248201527f4552433732313a2061646472657373207a65726f206973206e6f7420612076616044820152683634b21037bbb732b960b91b6064820152608401610946565b506001600160a01b031660009081526068602052604090205490565b6112066121b9565b610eea6000612214565b6101615460408051808201909152600381526203130360ec1b6020820152906001600160a01b031633146112575760405162461bcd60e51b81526004016109469190613f0f565b50806040516112669190614646565b6040519081900381209083907fc6ef1c5f8f954d0251e9620ce4908018f1c31f432eb9b44fd9efb2ca569453f190600090a360008281526101626020908152604090912082516112b892840190613dc4565b506000806000806000806000878060200190518101906112d891906146cd565b965096509650965096509650965060006112f88460ff168460ff16612267565b6040805160a081018252600160608201818152603160f81b6080840152825282518084018452818152601960f91b6020828101919091528084019190915283518085018552828152603360f81b9181019190915292820192909252919250826003811115611368576113686147a3565b14156113f057806002602002015161016a886040516113879190614646565b908152602001604051809103902060000190805190602001906113ab929190613dc4565b508060015b602002015161016a876040516113c69190614646565b908152602001604051809103902060000190805190602001906113ea929190613dc4565b506114c1565b6002826003811115611404576114046147a3565b141561144e57602081015160405161016a90611421908a90614646565b90815260200160405180910390206000019080519060200190611445929190613dc4565b508060026113b0565b805160405161016a90611462908a90614646565b90815260200160405180910390206000019080519060200190611486929190613dc4565b50805160405161016a9061149b908990614646565b908152602001604051809103902060000190805190602001906114bf929190613dc4565b505b4261016a886040516114d39190614646565b9081526020016040518091039020600101819055504261016a876040516114fa9190614646565b908152604051908190036020019020600101555050505050505050505050565b600260fb54141561153d5760405162461bcd60e51b81526004016109469061451a565b600260fb556101665460408051808201909152600381526203130360ec1b6020820152906001600160a01b03166115875760405162461bcd60e51b81526004016109469190613f0f565b5060076115b18260405180604001604052806005815260200164736861706560d81b815250612292565b6115bb91906147b9565b6040805180820190915260038152620c8c0d60ea1b602082015290156115f45760405162461bcd60e51b81526004016109469190613f0f565b50610166546040516323b872dd60e01b8152336004820152306024820152604481018390526001600160a01b039091169081906323b872dd90606401600060405180830381600087803b15801561164a57600080fd5b505af115801561165e573d6000803e3d6000fd5b50505050612328610164541061167357600080fd5b610164805490600061168483614567565b9190505550610e353361016454611f47565b61015f5460408051808201909152600381526231303160e81b6020820152906001600160a01b031633146116dd5760405162461bcd60e51b81526004016109469190613f0f565b50610eea6122ce565b600054610100900460ff16158080156117065750600054600160ff909116105b806117205750303b158015611720575060005460ff166001145b6117835760405162461bcd60e51b815260206004820152602e60248201527f496e697469616c697a61626c653a20636f6e747261637420697320616c72656160448201526d191e481a5b9a5d1a585b1a5e995960921b6064820152608401610946565b6000805460ff1916600117905580156117a6576000805461ff0019166101001790555b6001600160a01b038316158015906117c657506001600160a01b03821615155b6040518060400160405280600381526020016203130360ec1b815250906118005760405162461bcd60e51b81526004016109469190613f0f565b5061180b858561230b565b61016080546001600160a01b038085166001600160a01b03199283161790925561015f8054928616929091169190911790558015611883576000805461ff0019169055604051600181527f7f26b83ff96e1f2b6a682f133852f6798a09c465da95921460cefb38474024989060200160405180910390a15b5050505050565b61015f546001600160a01b0316331480156118ad57506001600160a01b03811615155b80156118c8575061015f546001600160a01b03828116911614155b6040518060400160405280600381526020016231303160e81b815250906119025760405162461bcd60e51b81526004016109469190613f0f565b5061015f80546001600160a01b0319166001600160a01b0392909216919091179055565b60606066805461087c906144df565b6101638054610ab3906144df565b61096433838361233c565b6119583383611f61565b6119745760405162461bcd60e51b815260040161094690614582565b6119808484848461240b565b50505050565b6119f8604051806101c0016040528060608152602001606081526020016060815260200160608152602001606081526020016060815260200160608152602001606081526020016060815260200160608152602001600081526020016060815260200160608152602001606081525090565b6040805160a081018252600160608201818152603160f81b6080840152825282518084018452818152601960f91b6020828101919091528084019190915283518085018552918252603360f81b90820152918101919091526000611a5b8461243e565b9050600080611a69866128a5565b91509150600061016a84604051611a809190614646565b9081526040519081900360200190208054611a9a906144df565b80601f0160208091040260200160405190810160405280929190818152602001828054611ac6906144df565b8015611b135780601f10611ae857610100808354040283529160200191611b13565b820191906000526020600020905b815481529060010190602001808311611af657829003601f168201915b50939450620151809350611b35925086915085905060025b6020020151612971565b15611b4c57611b4581601e6145d0565b9050611b6b565b611b5884846001611b2b565b15611b6b57611b688160076145d0565b90505b8061016a86604051611b7d9190614646565b90815260200160405180910390206001015442611b9a9190614619565b1115611ba557855191505b604051806101c00160405280838152602001858152602001868152602001611bcc8a6129ca565b8152602001611bda8a612b40565b8152602001611be88a612c2f565b8152602001611bf68a612f6d565b8152602001611c048a61322d565b8152602001611c128a6132dc565b8152602001611c208a613418565b8152602001611c2e8a613533565b8152602001611c3c8a613682565b8152602001611c4a8a613737565b8152602001611c588a613822565b905298975050505050505050565b61015f5460408051808201909152600381526231303160e81b6020820152906001600160a01b03163314611cad5760405162461bcd60e51b81526004016109469190613f0f565b5061016955565b6060611cbf82611e7a565b6000611cc96138b5565b90506000815111611ce95760405180602001604052806000815250611d14565b80611cf3846138c5565b604051602001611d049291906147cd565b6040516020818303038152906040525b9392505050565b6101626020526000908152604090208054610ab3906144df565b6001600160a01b039182166000908152606a6020908152604080832093909416825291909152205460ff1690565b600260fb541415611d865760405162461bcd60e51b81526004016109469061451a565b600260fb5561015f5460408051808201909152600381526231303160e81b6020820152906001600160a01b03163314611dd25760405162461bcd60e51b81526004016109469190613f0f565b5061232881118015611de657506127108111155b611def57600080fd5b611df93382611f47565b50600160fb55565b611e096121b9565b6001600160a01b038116611e6e5760405162461bcd60e51b815260206004820152602660248201527f4f776e61626c653a206e6577206f776e657220697320746865207a65726f206160448201526564647265737360d01b6064820152608401610946565b611e7781612214565b50565b6000818152606760205260409020546001600160a01b0316611e775760405162461bcd60e51b8152602060048201526018602482015277115490cdcc8c4e881a5b9d985b1a59081d1bdad95b88125160421b6044820152606401610946565b600081815260696020526040902080546001600160a01b0319166001600160a01b0384169081179091558190611f0e82610fb4565b6001600160a01b03167f8c5be1e5ebec7d5bd14f71427d1e84f3dd0314c0f7b2291e5b200ac8c7c3b92560405160405180910390a45050565b6109648282604051806020016040528060008152506139c3565b600080611f6d83610fb4565b9050806001600160a01b0316846001600160a01b03161480611f945750611f948185611d35565b80611fb85750836001600160a01b0316611fad84610968565b6001600160a01b0316145b949350505050565b826001600160a01b0316611fd382610fb4565b6001600160a01b0316146120375760405162461bcd60e51b815260206004820152602560248201527f4552433732313a207472616e736665722066726f6d20696e636f72726563742060448201526437bbb732b960d91b6064820152608401610946565b6001600160a01b0382166120995760405162461bcd60e51b8152602060048201526024808201527f4552433732313a207472616e7366657220746f20746865207a65726f206164646044820152637265737360e01b6064820152608401610946565b6120a48383836139f6565b6120af600082611ed9565b6001600160a01b03831660009081526068602052604081208054600192906120d8908490614619565b90915550506001600160a01b03821660009081526068602052604081208054600192906121069084906147fc565b909155505060008181526067602052604080822080546001600160a01b0319166001600160a01b0386811691821790925591518493918716917fddf252ad1be2c89b69c2b068fc378daa952ba7f163c4a11628f55a4df523b3ef91a4505050565b61216f613a5d565b6097805460ff191690557f5db9ee0a495bf2e6ff9c91a7834c1ba4fdd244a5e8aa4e537bd38aeae4b073aa335b6040516001600160a01b03909116815260200160405180910390a1565b61012d546001600160a01b03163314610eea5760405162461bcd60e51b815260206004820181905260248201527f4f776e61626c653a2063616c6c6572206973206e6f7420746865206f776e65726044820152606401610946565b61012d80546001600160a01b038381166001600160a01b0319831681179093556040519116919082907f8be0079c531659141344cd1fd0a4f28419497f9722a3daafe3b4186f6b6457e090600090a35050565b60008183111561227957506001610867565b8183141561228957506003610867565b50600292915050565b60008161229e846138c5565b6040516020016122af9291906147cd565b60408051601f1981840301815291905280516020909101209392505050565b6122d6613aa6565b6097805460ff191660011790557f62e78cea01bee320cd4e420270b5ea74000d11b0c9f74754ebdbfc544b05a25861219c3390565b600054610100900460ff166123325760405162461bcd60e51b815260040161094690614814565b6109648282613aec565b816001600160a01b0316836001600160a01b0316141561239e5760405162461bcd60e51b815260206004820152601960248201527f4552433732313a20617070726f766520746f2063616c6c6572000000000000006044820152606401610946565b6001600160a01b038381166000818152606a6020908152604080832094871680845294825291829020805460ff191686151590811790915591519182527f17307eab39ab6107e8899845ad3d59bd9653f200f220920489ca2b5937696c31910160405180910390a3505050565b612416848484611fc0565b61242284848484613b3a565b6119805760405162461bcd60e51b81526004016109469061485f565b6040805161044081018252600561040082018181526428b0ba30b960d91b61042084015282528251808401845260078082526622b1bab0b237b960c91b60208381019190915280850192909252845180860186528181526614d95b9959d85b60ca1b818401528486015284518086018652600b8082526a4e65746865726c616e647360a81b828501526060868101929092528651808801885283815266115b99db185b9960ca1b818601526080870152865180880188528381526624a91024b930b760c91b8186015260a087015286518088018852600381526255534160e81b8186015260c0870152865180880188528581526457616c657360d81b8186015260e087015286518088018852600980825268417267656e74696e6160b81b8287015261010088019190915287518089018952600c81526b53617564692041726162696160a01b81870152610120880152875180890189526006808252654d657869636f60d01b828801526101408901919091528851808a018a5281815265141bdb185b9960d21b818801526101608901528851808a018a52818152654672616e636560d01b818801526101808901528851808a018a52918252684175737472616c696160b81b828701526101a0880191909152875180890189528481526644656e6d61726b60c81b818701526101c0880152875180890189528481526654756e6973696160c81b818701526101e0880152875180890189528681526429b830b4b760d91b8187015261020088015287518089018952600a815269436f737461205269636160b01b8187015261022088015287518089018952848152664765726d616e7960c81b8187015261024088015287518089018952868152642530b830b760d91b81870152610260880152875180890189528481526642656c6769756d60c81b81870152610280880152875180890189528181526543616e61646160d01b818701526102a088015287518089018952848152664d6f726f63636f60c81b818701526102c0880152875180890189528481526643726f6174696160c81b818701526102e08801528751808901895281815265109c985e9a5b60d21b81870152610300880152875180890189528181526553657262696160d01b81870152610320880152875180890189529182526a14ddda5d1e995c9b185b9960aa1b828601526103408701919091528651808801885260088082526721b0b6b2b937b7b760c11b828701526103608801919091528751808901895290815267141bdc9d1d59d85b60c21b8186015261038087015286518088018852948552644768616e6160d81b858501526103a086019490945285518087018752918252665572756775617960c81b828401526103c085019190915284518086018652600e81526d4b6f7265612052657075626c696360901b818401526103e08501528451808601909552918452653730ba34b7b760d11b84820152909282919061287f908690612292565b61288991906147b9565b6020811061289957612899614630565b60200201519392505050565b60606128af613e48565b60006040518060600160405280604051806040016040528060018152602001603160f81b8152508152602001604051806040016040528060018152602001601960f91b8152508152602001604051806040016040528060018152602001603360f81b8152508152509050806003612949866040518060400160405280600b81526020016a656d6f74696f6e54696d6560a81b815250612292565b61295391906147b9565b6003811061296357612963614630565b602002015194909350915050565b6000816040516020016129849190614646565b60405160208183030381529060405280519060200120836040516020016129ab9190614646565b6040516020818303038152906040528051906020012014905092915050565b6040805161010081018252600160c08201818152603160f81b60e0840152825282518084018452818152601960f91b6020828101919091528084019190915283518085018552828152603360f81b818301528385015283518085018552828152600d60fa1b8183015260608481019190915284518086018652838152603560f81b81840152608085015284518086018652838152601b60f91b8184015260a085015284518086019095526003855262646e6160e81b9185019190915292600091612a98918691612710613c38565b9050610bb8811115612ab5578160005b6020020151949350505050565b60018110158015612ac857506107d08111155b15612ad557816001612aa8565b6107d18110158015612ae95750610a288111155b15612af657816002612aa8565b610a298110158015612b0a5750610b548111155b15612b1757816003612aa8565b610b558110158015612b2b5750610bae8111155b15612b3857816004612aa8565b816005612aa8565b6040805160a08101825260016060828101828152600360fc1b6080850152835283518085018552828152603160f81b6020828101919091528085019190915284518086018652928352601960f91b90830152928201526000612ba1846129ca565b9050612bc681604051806040016040528060018152602001603160f81b815250612971565b15612c0f57816003612bf586604051806040016040528060058152602001641899585c9960da1b815250612292565b612bff91906147b9565b60038110612aa857612aa8614630565b50506040805180820190915260018152600360fc1b602082015292915050565b60606000604051806101400160405280604051806040016040528060018152602001600360fc1b8152508152602001604051806040016040528060018152602001603160f81b8152508152602001604051806040016040528060018152602001601960f91b8152508152602001604051806040016040528060018152602001603360f81b8152508152602001604051806040016040528060018152602001600d60fa1b8152508152602001604051806040016040528060018152602001603560f81b8152508152602001604051806040016040528060018152602001601b60f91b8152508152602001604051806040016040528060018152602001603760f81b8152508152602001604051806040016040528060018152602001600760fb1b8152508152602001604051806040016040528060018152602001603960f81b815250815250905060006040518060e00160405280604051806040016040528060018152602001603160f81b8152508152602001604051806040016040528060018152602001601960f91b8152508152602001604051806040016040528060018152602001603360f81b8152508152602001604051806040016040528060018152602001600d60fa1b8152508152602001604051806040016040528060018152602001603560f81b8152508152602001604051806040016040528060018152602001601b60f91b8152508152602001604051806040016040528060018152602001603760f81b81525081525090506000612e66856129ca565b9050612e8b81604051806040016040528060018152602001601960f91b815250612971565b15612ee157816007612eb987604051806040016040528060048152602001633430b4b960e11b815250612292565b612ec391906147b9565b60078110612ed357612ed3614630565b602002015195945050505050565b612f0481604051806040016040528060018152602001603160f81b815250612971565b15612f4c5782600a612f3287604051806040016040528060048152602001633430b4b960e11b815250612292565b612f3c91906147b9565b600a8110612ed357612ed3614630565b50506040805180820190915260018152600360fc1b60208201529392505050565b604080516102608101825260016102208201818152603160f81b610240840152825282518084018452818152601960f91b6020828101919091528084019190915283518085018552828152603360f81b818301528385015283518085018552828152600d60fa1b8183015260608481019190915284518086018652838152603560f81b81840152608085015284518086018652838152601b60f91b8184015260a085015284518086018652838152603760f81b8184015260c085015284518086018652838152600760fb1b8184015260e085015284518086018652928352603960f81b8383015261010084019290925283518085018552600280825261031360f41b828401526101208501919091528451808601865281815261313160f01b818401526101408501528451808601865281815261189960f11b818401526101608501528451808601865281815261313360f01b8184015261018085015284518086018652818152610c4d60f21b818401526101a08501528451808601865281815261313560f01b818401526101c08501528451808601865281815261189b60f11b818401526101e08501528451808601909552845261313760f01b908401526102008201929092526000613140846129ca565b905061316581604051806040016040528060018152602001603160f81b815250612971565b15612c0f576000613175856132dc565b905061319a81604051806040016040528060018152602001603160f81b815250612971565b1561320c5760006131aa86613533565b9050801561320a578360116131e1886040518060400160405280600a8152602001691d5b99195c9cda1a5c9d60b21b815250612292565b6131eb91906147b9565b601181106131fb576131fb614630565b60200201519695505050505050565b505b5050506040805180820190915260018152600360fc1b602082015292915050565b606060006040518060600160405280604051806040016040528060018152602001603160f81b8152508152602001604051806040016040528060018152602001601960f91b8152508152602001604051806040016040528060018152602001603360f81b81525081525090508060036132c2856040518060400160405280600481526020016373686f6560e01b815250612292565b6132cc91906147b9565b6003811061289957612899614630565b6040805160a0808201835260016060838101828152603160f81b608080870182905291865286518088018852848152601960f91b6020828101829052808901929092528851808a018a52868152603360f81b81840152888a0152885196870189528685018681529387019290925291855286518088018852848152808301919091528482015285518087018752928352600d60fa1b90830152938201526000613384856129ca565b90506133a981604051806040016040528060018152602001601960f91b815250612971565b156133f0578160036133d687604051806040016040528060038152602001620746f760ec1b815250612292565b6133e091906147b9565b60038110612ed357612ed3614630565b8260036133d687604051806040016040528060038152602001620746f760ec1b815250612292565b60408051608080820183526001828401818152603360f81b60608581019190915290845284518086018652828152600d60fa1b6020828101919091528086019190915285519384018652838601838152603160f81b8584015284528551808701909652918552601960f91b85830152908201939093526000613499856129ca565b90506134be81604051806040016040528060018152602001601960f91b815250612971565b15613508578260026134ee8760405180604001604052806006815260200165626f74746f6d60d01b815250612292565b6134f891906147b9565b60028110612ed357612ed3614630565b8160026134ee8760405180604001604052806006815260200165626f74746f6d60d01b815250612292565b600080604051806103400160405280600181526020016002815260200160038152602001600481526020016005815260200160068152602001600781526020016008815260200160098152602001600a8152602001600b8152602001600c8152602001600d8152602001600e8152602001600f815260200160108152602001601181526020016012815260200160138152602001601481526020016015815260200160168152602001601781526020016018815260200160198152602001601a815250905060006136278460405180604001604052806006815260200165373ab6b132b960d11b8152506001612710613c38565b9050611e7881111561363d575060009392505050565b81601a6136688660405180604001604052806006815260200165373ab6b132b960d11b815250612292565b61367291906147b9565b601a8110612aa857612aa8614630565b6040805160c081018252600160808201818152600360fc1b60a0840152825282518084018452818152603160f81b6020828101919091528084019190915283518085018552828152601960f91b818301528385015283518085018552918252603360f81b82820152606083810192909252835180850190945260058452647461746f6f60d81b9084015291819060049061371d908690612292565b61372791906147b9565b6004811061289957612899614630565b6040805161010081018252600160c08201818152600360fc1b60e0840152825282518084018452818152603160f81b6020828101919091528084019190915283518085018552828152601960f91b818301528385015283518085018552828152603360f81b8183015260608481019190915284518086018652838152600d60fa1b81840152608085015284518086018652928352603560f81b8383015260a084019290925283518085019094526007845266676c617373657360c81b90840152918190600690613808908690612292565b61381291906147b9565b6006811061289957612899614630565b606060006040518060400160405280604051806040016040528060018152602001600360fc1b8152508152602001604051806040016040528060018152602001603160f81b815250815250905080600261389b856040518060400160405280600781526020016631b0b83a30b4b760c91b815250612292565b6138a591906147b9565b6002811061289957612899614630565b6060610165805461087c906144df565b6060816138e95750506040805180820190915260018152600360fc1b602082015290565b8160005b811561391357806138fd81614567565b915061390c9050600a83614605565b91506138ed565b60008167ffffffffffffffff81111561392e5761392e613f22565b6040519080825280601f01601f191660200182016040528015613958576020820181803683370190505b5090505b8415611fb85761396d600183614619565b915061397a600a866147b9565b6139859060306147fc565b60f81b81838151811061399a5761399a614630565b60200101906001600160f81b031916908160001a9053506139bc600a86614605565b945061395c565b6139cd8383613c76565b6139da6000848484613b3a565b610aa05760405162461bcd60e51b81526004016109469061485f565b60975460ff1615610aa05760405162461bcd60e51b815260206004820152602b60248201527f4552433732315061757361626c653a20746f6b656e207472616e73666572207760448201526a1a1a5b19481c185d5cd95960aa1b6064820152608401610946565b60975460ff16610eea5760405162461bcd60e51b815260206004820152601460248201527314185d5cd8589b194e881b9bdd081c185d5cd95960621b6044820152606401610946565b60975460ff1615610eea5760405162461bcd60e51b815260206004820152601060248201526f14185d5cd8589b194e881c185d5cd95960821b6044820152606401610946565b600054610100900460ff16613b135760405162461bcd60e51b815260040161094690614814565b8151613b26906065906020850190613dc4565b508051610aa0906066906020840190613dc4565b60006001600160a01b0384163b15613c2d57604051630a85bd0160e11b81526001600160a01b0385169063150b7a0290613b7e9033908990889088906004016148b1565b6020604051808303816000875af1925050508015613bb9575060408051601f3d908101601f19168201909252613bb6918101906148e4565b60015b613c13573d808015613be7576040519150601f19603f3d011682016040523d82523d6000602084013e613bec565b606091505b508051613c0b5760405162461bcd60e51b81526004016109469061485f565b805181602001fd5b6001600160e01b031916630a85bd0160e11b149050611fb8565b506001949350505050565b6000613c448383614619565b613c4f9060016147fc565b613c598686612292565b613c6391906147b9565b613c6d90846147fc565b95945050505050565b6001600160a01b038216613ccc5760405162461bcd60e51b815260206004820181905260248201527f4552433732313a206d696e7420746f20746865207a65726f20616464726573736044820152606401610946565b6000818152606760205260409020546001600160a01b031615613d315760405162461bcd60e51b815260206004820152601c60248201527f4552433732313a20746f6b656e20616c7265616479206d696e746564000000006044820152606401610946565b613d3d600083836139f6565b6001600160a01b0382166000908152606860205260408120805460019290613d669084906147fc565b909155505060008181526067602052604080822080546001600160a01b0319166001600160a01b03861690811790915590518392907fddf252ad1be2c89b69c2b068fc378daa952ba7f163c4a11628f55a4df523b3ef908290a45050565b828054613dd0906144df565b90600052602060002090601f016020900481019282613df25760008555613e38565b82601f10613e0b57805160ff1916838001178555613e38565b82800160010185558215613e38579182015b82811115613e38578251825591602001919060010190613e1d565b50613e44929150613e6f565b5090565b60405180606001604052806003905b6060815260200190600190039081613e575790505090565b5b80821115613e445760008155600101613e70565b6001600160e01b031981168114611e7757600080fd5b600060208284031215613eac57600080fd5b8135611d1481613e84565b60005b83811015613ed2578181015183820152602001613eba565b838111156119805750506000910152565b60008151808452613efb816020860160208601613eb7565b601f01601f19169290920160200192915050565b602081526000611d146020830184613ee3565b634e487b7160e01b600052604160045260246000fd5b604051601f8201601f1916810167ffffffffffffffff81118282101715613f6157613f61613f22565b604052919050565b600067ffffffffffffffff821115613f8357613f83613f22565b50601f01601f191660200190565b600082601f830112613fa257600080fd5b8135613fb5613fb082613f69565b613f38565b818152846020838601011115613fca57600080fd5b816020850160208301376000918101602001919091529392505050565b600060208284031215613ff957600080fd5b813567ffffffffffffffff81111561401057600080fd5b611fb884828501613f91565b60006020828403121561402e57600080fd5b5035919050565b80356001600160a01b038116811461404c57600080fd5b919050565b6000806040838503121561406457600080fd5b61406d83614035565b946020939093013593505050565b60008060006060848603121561409057600080fd5b61409984614035565b92506140a760208501614035565b9150604084013590509250925092565b600080604083850312156140ca57600080fd5b50508035926020909101359150565b6000602082840312156140eb57600080fd5b611d1482614035565b6000806040838503121561410757600080fd5b823567ffffffffffffffff8082111561411f57600080fd5b818501915085601f83011261413357600080fd5b813560208282111561414757614147613f22565b8160051b9250614158818401613f38565b828152928401810192818101908985111561417257600080fd5b948201945b848610156141975761418886614035565b82529482019490820190614177565b9997909101359750505050505050565b600080604083850312156141ba57600080fd5b82359150602083013567ffffffffffffffff8111156141d857600080fd5b6141e485828601613f91565b9150509250929050565b6000806000806080858703121561420457600080fd5b843567ffffffffffffffff8082111561421c57600080fd5b61422888838901613f91565b9550602087013591508082111561423e57600080fd5b5061424b87828801613f91565b93505061425a60408601614035565b915061426860608601614035565b905092959194509250565b6000806040838503121561428657600080fd5b61428f83614035565b9150602083013580151581146142a457600080fd5b809150509250929050565b600080600080608085870312156142c557600080fd5b6142ce85614035565b93506142dc60208601614035565b925060408501359150606085013567ffffffffffffffff8111156142ff57600080fd5b61430b87828801613f91565b91505092959194509250565b60208152600082516101c08060208501526143366101e0850183613ee3565b91506020850151601f19808685030160408701526143548483613ee3565b935060408701519150808685030160608701526143718483613ee3565b9350606087015191508086850301608087015261438e8483613ee3565b935060808701519150808685030160a08701526143ab8483613ee3565b935060a08701519150808685030160c08701526143c88483613ee3565b935060c08701519150808685030160e08701526143e58483613ee3565b935060e087015191506101008187860301818801526144048584613ee3565b9450808801519250506101208187860301818801526144238584613ee3565b9450808801519250506101408187860301818801526144428584613ee3565b9450808801519250506101608281880152808801519250506101808187860301818801526144708584613ee3565b9450808801519250506101a081878603018188015261448f8584613ee3565b9088015187820390920184880152935090506144ab8382613ee3565b9695505050505050565b600080604083850312156144c857600080fd5b6144d183614035565b9150610c4060208401614035565b600181811c908216806144f357607f821691505b6020821081141561451457634e487b7160e01b600052602260045260246000fd5b50919050565b6020808252601f908201527f5265656e7472616e637947756172643a207265656e7472616e742063616c6c00604082015260600190565b634e487b7160e01b600052601160045260246000fd5b600060001982141561457b5761457b614551565b5060010190565b6020808252602e908201527f4552433732313a2063616c6c6572206973206e6f7420746f6b656e206f776e6560408201526d1c881b9bdc88185c1c1c9bdd995960921b606082015260800190565b60008160001904831182151516156145ea576145ea614551565b500290565b634e487b7160e01b600052601260045260246000fd5b600082614614576146146145ef565b500490565b60008282101561462b5761462b614551565b500390565b634e487b7160e01b600052603260045260246000fd5b60008251614658818460208701613eb7565b9190910192915050565b805164ffffffffff8116811461404c57600080fd5b600082601f83011261468857600080fd5b8151614696613fb082613f69565b8181528460208386010111156146ab57600080fd5b611fb8826020830160208701613eb7565b805160ff8116811461404c57600080fd5b600080600080600080600060e0888a0312156146e857600080fd5b875163ffffffff811681146146fc57600080fd5b965061470a60208901614662565b9550604088015167ffffffffffffffff8082111561472757600080fd5b6147338b838c01614677565b965060608a015191508082111561474957600080fd5b6147558b838c01614677565b955061476360808b016146bc565b945061477160a08b016146bc565b935060c08a015191508082111561478757600080fd5b506147948a828b01614677565b91505092959891949750929550565b634e487b7160e01b600052602160045260246000fd5b6000826147c8576147c86145ef565b500690565b600083516147df818460208801613eb7565b8351908301906147f3818360208801613eb7565b01949350505050565b6000821982111561480f5761480f614551565b500190565b6020808252602b908201527f496e697469616c697a61626c653a20636f6e7472616374206973206e6f74206960408201526a6e697469616c697a696e6760a81b606082015260800190565b60208082526032908201527f4552433732313a207472616e7366657220746f206e6f6e20455243373231526560408201527131b2b4bb32b91034b6b83632b6b2b73a32b960711b606082015260800190565b6001600160a01b03858116825284166020820152604081018390526080606082018190526000906144ab90830184613ee3565b6000602082840312156148f657600080fd5b8151611d1481613e8456fea2646970667358221220ab9c625227d49ecd8ba6153cc52336040e35dd67fa2f5f4b241f55cba410048564736f6c634300080c0033","opcodes":"PUSH1 0x80 PUSH1 0x40 MSTORE CALLVALUE DUP1 ISZERO PUSH2 0x10 JUMPI PUSH1 0x0 DUP1 REVERT JUMPDEST POP PUSH2 0x4937 DUP1 PUSH2 0x20 PUSH1 0x0 CODECOPY PUSH1 0x0 RETURN INVALID PUSH1 0x80 PUSH1 0x40 MSTORE PUSH1 0x4 CALLDATASIZE LT PUSH2 0x27D JUMPI PUSH1 0x0 CALLDATALOAD PUSH1 0xE0 SHR DUP1 PUSH4 0x70A08231 GT PUSH2 0x14F JUMPI DUP1 PUSH4 0xA22CB465 GT PUSH2 0xC1 JUMPI DUP1 PUSH4 0xC87B56DD GT PUSH2 0x7A JUMPI DUP1 PUSH4 0xC87B56DD EQ PUSH2 0x75A JUMPI DUP1 PUSH4 0xD5978314 EQ PUSH2 0x77A JUMPI DUP1 PUSH4 0xE653C650 EQ PUSH2 0x79A JUMPI DUP1 PUSH4 0xE985E9C5 EQ PUSH2 0x7BB JUMPI DUP1 PUSH4 0xF19E75D4 EQ PUSH2 0x7DB JUMPI DUP1 PUSH4 0xF2FDE38B EQ PUSH2 0x7FB JUMPI PUSH1 0x0 DUP1 REVERT JUMPDEST DUP1 PUSH4 0xA22CB465 EQ PUSH2 0x695 JUMPI DUP1 PUSH4 0xADFC7DAE EQ PUSH2 0x6B5 JUMPI DUP1 PUSH4 0xB88D4FDE EQ PUSH2 0x6D6 JUMPI DUP1 PUSH4 0xC0DCA239 EQ PUSH2 0x6F6 JUMPI DUP1 PUSH4 0xC5B37C22 EQ PUSH2 0x723 JUMPI DUP1 PUSH4 0xC6283C38 EQ PUSH2 0x73A JUMPI PUSH1 0x0 DUP1 REVERT JUMPDEST DUP1 PUSH4 0x8456CB59 GT PUSH2 0x113 JUMPI DUP1 PUSH4 0x8456CB59 EQ PUSH2 0x5F7 JUMPI DUP1 PUSH4 0x8DA5CB5B EQ PUSH2 0x60C JUMPI DUP1 PUSH4 0x8F15B414 EQ PUSH2 0x62B JUMPI DUP1 PUSH4 0x8F283970 EQ PUSH2 0x64B JUMPI DUP1 PUSH4 0x95D89B41 EQ PUSH2 0x66B JUMPI DUP1 PUSH4 0xA1BB1FCC EQ PUSH2 0x680 JUMPI PUSH1 0x0 DUP1 REVERT JUMPDEST DUP1 PUSH4 0x70A08231 EQ PUSH2 0x56B JUMPI DUP1 PUSH4 0x715018A6 EQ PUSH2 0x58B JUMPI DUP1 PUSH4 0x7C1DE7E1 EQ PUSH2 0x5A0 JUMPI DUP1 PUSH4 0x7CD49FDE EQ PUSH2 0x5C0 JUMPI DUP1 PUSH4 0x80D953DD EQ PUSH2 0x5D7 JUMPI PUSH1 0x0 DUP1 REVERT JUMPDEST DUP1 PUSH4 0x2D3DF31F GT PUSH2 0x1F3 JUMPI DUP1 PUSH4 0x5275F37A GT PUSH2 0x1AC JUMPI DUP1 PUSH4 0x5275F37A EQ PUSH2 0x4AE JUMPI DUP1 PUSH4 0x5C975ABB EQ PUSH2 0x4D3 JUMPI DUP1 PUSH4 0x6352211E EQ PUSH2 0x4EB JUMPI DUP1 PUSH4 0x645B6701 EQ PUSH2 0x50B JUMPI DUP1 PUSH4 0x66829B16 EQ PUSH2 0x52B JUMPI DUP1 PUSH4 0x69FE0E2D EQ PUSH2 0x54B JUMPI PUSH1 0x0 DUP1 REVERT JUMPDEST DUP1 PUSH4 0x2D3DF31F EQ PUSH2 0x411 JUMPI DUP1 PUSH4 0x2E1A7D4D EQ PUSH2 0x419 JUMPI DUP1 PUSH4 0x39A0C6F9 EQ PUSH2 0x439 JUMPI DUP1 PUSH4 0x3F4BA83A EQ PUSH2 0x459 JUMPI DUP1 PUSH4 0x42842E0E EQ PUSH2 0x46E JUMPI DUP1 PUSH4 0x47C421B5 EQ PUSH2 0x48E JUMPI PUSH1 0x0 DUP1 REVERT JUMPDEST DUP1 PUSH4 0x95EA7B3 GT PUSH2 0x245 JUMPI DUP1 PUSH4 0x95EA7B3 EQ PUSH2 0x354 JUMPI DUP1 PUSH4 0xDCCC9AD EQ PUSH2 0x374 JUMPI DUP1 PUSH4 0x1249C58B EQ PUSH2 0x389 JUMPI DUP1 PUSH4 0x23B872DD EQ PUSH2 0x391 JUMPI DUP1 PUSH4 0x247AC063 EQ PUSH2 0x3B1 JUMPI DUP1 PUSH4 0x2A55205A EQ PUSH2 0x3D2 JUMPI PUSH1 0x0 DUP1 REVERT JUMPDEST DUP1 PUSH4 0x1BC45C9 EQ PUSH2 0x282 JUMPI DUP1 PUSH4 0x1FFC9A7 EQ PUSH2 0x2C0 JUMPI DUP1 PUSH4 0x6FDDE03 EQ PUSH2 0x2F0 JUMPI DUP1 PUSH4 0x764DA1D EQ PUSH2 0x312 JUMPI DUP1 PUSH4 0x81812FC EQ PUSH2 0x334 JUMPI JUMPDEST PUSH1 0x0 DUP1 REVERT JUMPDEST CALLVALUE DUP1 ISZERO PUSH2 0x28E JUMPI PUSH1 0x0 DUP1 REVERT JUMPDEST POP PUSH2 0x15F SLOAD PUSH2 0x2A3 SWAP1 PUSH1 0x1 PUSH1 0x1 PUSH1 0xA0 SHL SUB AND DUP2 JUMP JUMPDEST PUSH1 0x40 MLOAD PUSH1 0x1 PUSH1 0x1 PUSH1 0xA0 SHL SUB SWAP1 SWAP2 AND DUP2 MSTORE PUSH1 0x20 ADD JUMPDEST PUSH1 0x40 MLOAD DUP1 SWAP2 SUB SWAP1 RETURN JUMPDEST CALLVALUE DUP1 ISZERO PUSH2 0x2CC JUMPI PUSH1 0x0 DUP1 REVERT JUMPDEST POP PUSH2 0x2E0 PUSH2 0x2DB CALLDATASIZE PUSH1 0x4 PUSH2 0x3E9A JUMP JUMPDEST PUSH2 0x81B JUMP JUMPDEST PUSH1 0x40 MLOAD SWAP1 ISZERO ISZERO DUP2 MSTORE PUSH1 0x20 ADD PUSH2 0x2B7 JUMP JUMPDEST CALLVALUE DUP1 ISZERO PUSH2 0x2FC JUMPI PUSH1 0x0 DUP1 REVERT JUMPDEST POP PUSH2 0x305 PUSH2 0x86D JUMP JUMPDEST PUSH1 0x40 MLOAD PUSH2 0x2B7 SWAP2 SWAP1 PUSH2 0x3F0F JUMP JUMPDEST CALLVALUE DUP1 ISZERO PUSH2 0x31E JUMPI PUSH1 0x0 DUP1 REVERT JUMPDEST POP PUSH2 0x332 PUSH2 0x32D CALLDATASIZE PUSH1 0x4 PUSH2 0x3FE7 JUMP JUMPDEST PUSH2 0x8FF JUMP JUMPDEST STOP JUMPDEST CALLVALUE DUP1 ISZERO PUSH2 0x340 JUMPI PUSH1 0x0 DUP1 REVERT JUMPDEST POP PUSH2 0x2A3 PUSH2 0x34F CALLDATASIZE PUSH1 0x4 PUSH2 0x401C JUMP JUMPDEST PUSH2 0x968 JUMP JUMPDEST CALLVALUE DUP1 ISZERO PUSH2 0x360 JUMPI PUSH1 0x0 DUP1 REVERT JUMPDEST POP PUSH2 0x332 PUSH2 0x36F CALLDATASIZE PUSH1 0x4 PUSH2 0x4051 JUMP JUMPDEST PUSH2 0x98F JUMP JUMPDEST CALLVALUE DUP1 ISZERO PUSH2 0x380 JUMPI PUSH1 0x0 DUP1 REVERT JUMPDEST POP PUSH2 0x305 PUSH2 0xAA5 JUMP JUMPDEST PUSH2 0x332 PUSH2 0xB34 JUMP JUMPDEST CALLVALUE DUP1 ISZERO PUSH2 0x39D JUMPI PUSH1 0x0 DUP1 REVERT JUMPDEST POP PUSH2 0x332 PUSH2 0x3AC CALLDATASIZE PUSH1 0x4 PUSH2 0x407B JUMP JUMPDEST PUSH2 0xBE7 JUMP JUMPDEST CALLVALUE DUP1 ISZERO PUSH2 0x3BD JUMPI PUSH1 0x0 DUP1 REVERT JUMPDEST POP PUSH2 0x161 SLOAD PUSH2 0x2A3 SWAP1 PUSH1 0x1 PUSH1 0x1 PUSH1 0xA0 SHL SUB AND DUP2 JUMP JUMPDEST CALLVALUE DUP1 ISZERO PUSH2 0x3DE JUMPI PUSH1 0x0 DUP1 REVERT JUMPDEST POP PUSH2 0x3F2 PUSH2 0x3ED CALLDATASIZE PUSH1 0x4 PUSH2 0x40B7 JUMP JUMPDEST PUSH2 0xC18 JUMP JUMPDEST PUSH1 0x40 DUP1 MLOAD PUSH1 0x1 PUSH1 0x1 PUSH1 0xA0 SHL SUB SWAP1 SWAP4 AND DUP4 MSTORE PUSH1 0x20 DUP4 ADD SWAP2 SWAP1 SWAP2 MSTORE ADD PUSH2 0x2B7 JUMP JUMPDEST PUSH2 0x332 PUSH2 0xC49 JUMP JUMPDEST CALLVALUE DUP1 ISZERO PUSH2 0x425 JUMPI PUSH1 0x0 DUP1 REVERT JUMPDEST POP PUSH2 0x332 PUSH2 0x434 CALLDATASIZE PUSH1 0x4 PUSH2 0x401C JUMP JUMPDEST PUSH2 0xD70 JUMP JUMPDEST CALLVALUE DUP1 ISZERO PUSH2 0x445 JUMPI PUSH1 0x0 DUP1 REVERT JUMPDEST POP PUSH2 0x332 PUSH2 0x454 CALLDATASIZE PUSH1 0x4 PUSH2 0x3FE7 JUMP JUMPDEST PUSH2 0xE3E JUMP JUMPDEST CALLVALUE DUP1 ISZERO PUSH2 0x465 JUMPI PUSH1 0x0 DUP1 REVERT JUMPDEST POP PUSH2 0x332 PUSH2 0xE9A JUMP JUMPDEST CALLVALUE DUP1 ISZERO PUSH2 0x47A JUMPI PUSH1 0x0 DUP1 REVERT JUMPDEST POP PUSH2 0x332 PUSH2 0x489 CALLDATASIZE PUSH1 0x4 PUSH2 0x407B JUMP JUMPDEST PUSH2 0xEEC JUMP JUMPDEST CALLVALUE DUP1 ISZERO PUSH2 0x49A JUMPI PUSH1 0x0 DUP1 REVERT JUMPDEST POP PUSH2 0x332 PUSH2 0x4A9 CALLDATASIZE PUSH1 0x4 PUSH2 0x40D9 JUMP JUMPDEST PUSH2 0xF07 JUMP JUMPDEST CALLVALUE DUP1 ISZERO PUSH2 0x4BA JUMPI PUSH1 0x0 DUP1 REVERT JUMPDEST POP PUSH2 0x4C5 PUSH2 0x169 SLOAD DUP2 JUMP JUMPDEST PUSH1 0x40 MLOAD SWAP1 DUP2 MSTORE PUSH1 0x20 ADD PUSH2 0x2B7 JUMP JUMPDEST CALLVALUE DUP1 ISZERO PUSH2 0x4DF JUMPI PUSH1 0x0 DUP1 REVERT JUMPDEST POP PUSH1 0x97 SLOAD PUSH1 0xFF AND PUSH2 0x2E0 JUMP JUMPDEST CALLVALUE DUP1 ISZERO PUSH2 0x4F7 JUMPI PUSH1 0x0 DUP1 REVERT JUMPDEST POP PUSH2 0x2A3 PUSH2 0x506 CALLDATASIZE PUSH1 0x4 PUSH2 0x401C JUMP JUMPDEST PUSH2 0xFB4 JUMP JUMPDEST CALLVALUE DUP1 ISZERO PUSH2 0x517 JUMPI PUSH1 0x0 DUP1 REVERT JUMPDEST POP PUSH2 0x332 PUSH2 0x526 CALLDATASIZE PUSH1 0x4 PUSH2 0x40F4 JUMP JUMPDEST PUSH2 0x1014 JUMP JUMPDEST CALLVALUE DUP1 ISZERO PUSH2 0x537 JUMPI PUSH1 0x0 DUP1 REVERT JUMPDEST POP PUSH2 0x332 PUSH2 0x546 CALLDATASIZE PUSH1 0x4 PUSH2 0x40D9 JUMP JUMPDEST PUSH2 0x10BF JUMP JUMPDEST CALLVALUE DUP1 ISZERO PUSH2 0x557 JUMPI PUSH1 0x0 DUP1 REVERT JUMPDEST POP PUSH2 0x332 PUSH2 0x566 CALLDATASIZE PUSH1 0x4 PUSH2 0x401C JUMP JUMPDEST PUSH2 0x112A JUMP JUMPDEST CALLVALUE DUP1 ISZERO PUSH2 0x577 JUMPI PUSH1 0x0 DUP1 REVERT JUMPDEST POP PUSH2 0x4C5 PUSH2 0x586 CALLDATASIZE PUSH1 0x4 PUSH2 0x40D9 JUMP JUMPDEST PUSH2 0x1178 JUMP JUMPDEST CALLVALUE DUP1 ISZERO PUSH2 0x597 JUMPI PUSH1 0x0 DUP1 REVERT JUMPDEST POP PUSH2 0x332 PUSH2 0x11FE JUMP JUMPDEST CALLVALUE DUP1 ISZERO PUSH2 0x5AC JUMPI PUSH1 0x0 DUP1 REVERT JUMPDEST POP PUSH2 0x332 PUSH2 0x5BB CALLDATASIZE PUSH1 0x4 PUSH2 0x41A7 JUMP JUMPDEST PUSH2 0x1210 JUMP JUMPDEST CALLVALUE DUP1 ISZERO PUSH2 0x5CC JUMPI PUSH1 0x0 DUP1 REVERT JUMPDEST POP PUSH2 0x4C5 PUSH2 0x164 SLOAD DUP2 JUMP JUMPDEST CALLVALUE DUP1 ISZERO PUSH2 0x5E3 JUMPI PUSH1 0x0 DUP1 REVERT JUMPDEST POP PUSH2 0x332 PUSH2 0x5F2 CALLDATASIZE PUSH1 0x4 PUSH2 0x401C JUMP JUMPDEST PUSH2 0x151A JUMP JUMPDEST CALLVALUE DUP1 ISZERO PUSH2 0x603 JUMPI PUSH1 0x0 DUP1 REVERT JUMPDEST POP PUSH2 0x332 PUSH2 0x1696 JUMP JUMPDEST CALLVALUE DUP1 ISZERO PUSH2 0x618 JUMPI PUSH1 0x0 DUP1 REVERT JUMPDEST POP PUSH2 0x12D SLOAD PUSH1 0x1 PUSH1 0x1 PUSH1 0xA0 SHL SUB AND PUSH2 0x2A3 JUMP JUMPDEST CALLVALUE DUP1 ISZERO PUSH2 0x637 JUMPI PUSH1 0x0 DUP1 REVERT JUMPDEST POP PUSH2 0x332 PUSH2 0x646 CALLDATASIZE PUSH1 0x4 PUSH2 0x41EE JUMP JUMPDEST PUSH2 0x16E6 JUMP JUMPDEST CALLVALUE DUP1 ISZERO PUSH2 0x657 JUMPI PUSH1 0x0 DUP1 REVERT JUMPDEST POP PUSH2 0x332 PUSH2 0x666 CALLDATASIZE PUSH1 0x4 PUSH2 0x40D9 JUMP JUMPDEST PUSH2 0x188A JUMP JUMPDEST CALLVALUE DUP1 ISZERO PUSH2 0x677 JUMPI PUSH1 0x0 DUP1 REVERT JUMPDEST POP PUSH2 0x305 PUSH2 0x1926 JUMP JUMPDEST CALLVALUE DUP1 ISZERO PUSH2 0x68C JUMPI PUSH1 0x0 DUP1 REVERT JUMPDEST POP PUSH2 0x305 PUSH2 0x1935 JUMP JUMPDEST CALLVALUE DUP1 ISZERO PUSH2 0x6A1 JUMPI PUSH1 0x0 DUP1 REVERT JUMPDEST POP PUSH2 0x332 PUSH2 0x6B0 CALLDATASIZE PUSH1 0x4 PUSH2 0x4273 JUMP JUMPDEST PUSH2 0x1943 JUMP JUMPDEST CALLVALUE DUP1 ISZERO PUSH2 0x6C1 JUMPI PUSH1 0x0 DUP1 REVERT JUMPDEST POP PUSH2 0x160 SLOAD PUSH2 0x2A3 SWAP1 PUSH1 0x1 PUSH1 0x1 PUSH1 0xA0 SHL SUB AND DUP2 JUMP JUMPDEST CALLVALUE DUP1 ISZERO PUSH2 0x6E2 JUMPI PUSH1 0x0 DUP1 REVERT JUMPDEST POP PUSH2 0x332 PUSH2 0x6F1 CALLDATASIZE PUSH1 0x4 PUSH2 0x42AF JUMP JUMPDEST PUSH2 0x194E JUMP JUMPDEST CALLVALUE DUP1 ISZERO PUSH2 0x702 JUMPI PUSH1 0x0 DUP1 REVERT JUMPDEST POP PUSH2 0x716 PUSH2 0x711 CALLDATASIZE PUSH1 0x4 PUSH2 0x401C JUMP JUMPDEST PUSH2 0x1986 JUMP JUMPDEST PUSH1 0x40 MLOAD PUSH2 0x2B7 SWAP2 SWAP1 PUSH2 0x4317 JUMP JUMPDEST CALLVALUE DUP1 ISZERO PUSH2 0x72F JUMPI PUSH1 0x0 DUP1 REVERT JUMPDEST POP PUSH2 0x4C5 PUSH2 0x167 SLOAD DUP2 JUMP JUMPDEST CALLVALUE DUP1 ISZERO PUSH2 0x746 JUMPI PUSH1 0x0 DUP1 REVERT JUMPDEST POP PUSH2 0x332 PUSH2 0x755 CALLDATASIZE PUSH1 0x4 PUSH2 0x401C JUMP JUMPDEST PUSH2 0x1C66 JUMP JUMPDEST CALLVALUE DUP1 ISZERO PUSH2 0x766 JUMPI PUSH1 0x0 DUP1 REVERT JUMPDEST POP PUSH2 0x305 PUSH2 0x775 CALLDATASIZE PUSH1 0x4 PUSH2 0x401C JUMP JUMPDEST PUSH2 0x1CB4 JUMP JUMPDEST CALLVALUE DUP1 ISZERO PUSH2 0x786 JUMPI PUSH1 0x0 DUP1 REVERT JUMPDEST POP PUSH2 0x305 PUSH2 0x795 CALLDATASIZE PUSH1 0x4 PUSH2 0x401C JUMP JUMPDEST PUSH2 0x1D1B JUMP JUMPDEST CALLVALUE DUP1 ISZERO PUSH2 0x7A6 JUMPI PUSH1 0x0 DUP1 REVERT JUMPDEST POP PUSH2 0x166 SLOAD PUSH2 0x2A3 SWAP1 PUSH1 0x1 PUSH1 0x1 PUSH1 0xA0 SHL SUB AND DUP2 JUMP JUMPDEST CALLVALUE DUP1 ISZERO PUSH2 0x7C7 JUMPI PUSH1 0x0 DUP1 REVERT JUMPDEST POP PUSH2 0x2E0 PUSH2 0x7D6 CALLDATASIZE PUSH1 0x4 PUSH2 0x44B5 JUMP JUMPDEST PUSH2 0x1D35 JUMP JUMPDEST CALLVALUE DUP1 ISZERO PUSH2 0x7E7 JUMPI PUSH1 0x0 DUP1 REVERT JUMPDEST POP PUSH2 0x332 PUSH2 0x7F6 CALLDATASIZE PUSH1 0x4 PUSH2 0x401C JUMP JUMPDEST PUSH2 0x1D63 JUMP JUMPDEST CALLVALUE DUP1 ISZERO PUSH2 0x807 JUMPI PUSH1 0x0 DUP1 REVERT JUMPDEST POP PUSH2 0x332 PUSH2 0x816 CALLDATASIZE PUSH1 0x4 PUSH2 0x40D9 JUMP JUMPDEST PUSH2 0x1E01 JUMP JUMPDEST PUSH1 0x0 PUSH1 0x1 PUSH1 0x1 PUSH1 0xE0 SHL SUB NOT DUP3 AND PUSH4 0x80AC58CD PUSH1 0xE0 SHL EQ DUP1 PUSH2 0x84C JUMPI POP PUSH1 0x1 PUSH1 0x1 PUSH1 0xE0 SHL SUB NOT DUP3 AND PUSH4 0x5B5E139F PUSH1 0xE0 SHL EQ JUMPDEST DUP1 PUSH2 0x867 JUMPI POP PUSH4 0x1FFC9A7 PUSH1 0xE0 SHL PUSH1 0x1 PUSH1 0x1 PUSH1 0xE0 SHL SUB NOT DUP4 AND EQ JUMPDEST SWAP3 SWAP2 POP POP JUMP JUMPDEST PUSH1 0x60 PUSH1 0x65 DUP1 SLOAD PUSH2 0x87C SWAP1 PUSH2 0x44DF JUMP JUMPDEST DUP1 PUSH1 0x1F ADD PUSH1 0x20 DUP1 SWAP2 DIV MUL PUSH1 0x20 ADD PUSH1 0x40 MLOAD SWAP1 DUP2 ADD PUSH1 0x40 MSTORE DUP1 SWAP3 SWAP2 SWAP1 DUP2 DUP2 MSTORE PUSH1 0x20 ADD DUP3 DUP1 SLOAD PUSH2 0x8A8 SWAP1 PUSH2 0x44DF JUMP JUMPDEST DUP1 ISZERO PUSH2 0x8F5 JUMPI DUP1 PUSH1 0x1F LT PUSH2 0x8CA JUMPI PUSH2 0x100 DUP1 DUP4 SLOAD DIV MUL DUP4 MSTORE SWAP2 PUSH1 0x20 ADD SWAP2 PUSH2 0x8F5 JUMP JUMPDEST DUP3 ADD SWAP2 SWAP1 PUSH1 0x0 MSTORE PUSH1 0x20 PUSH1 0x0 KECCAK256 SWAP1 JUMPDEST DUP2 SLOAD DUP2 MSTORE SWAP1 PUSH1 0x1 ADD SWAP1 PUSH1 0x20 ADD DUP1 DUP4 GT PUSH2 0x8D8 JUMPI DUP3 SWAP1 SUB PUSH1 0x1F AND DUP3 ADD SWAP2 JUMPDEST POP POP POP POP POP SWAP1 POP SWAP1 JUMP JUMPDEST PUSH2 0x15F SLOAD PUSH1 0x40 DUP1 MLOAD DUP1 DUP3 ADD SWAP1 SWAP2 MSTORE PUSH1 0x3 DUP2 MSTORE PUSH3 0x313031 PUSH1 0xE8 SHL PUSH1 0x20 DUP3 ADD MSTORE SWAP1 PUSH1 0x1 PUSH1 0x1 PUSH1 0xA0 SHL SUB AND CALLER EQ PUSH2 0x94F JUMPI PUSH1 0x40 MLOAD PUSH3 0x461BCD PUSH1 0xE5 SHL DUP2 MSTORE PUSH1 0x4 ADD PUSH2 0x946 SWAP2 SWAP1 PUSH2 0x3F0F JUMP JUMPDEST PUSH1 0x40 MLOAD DUP1 SWAP2 SUB SWAP1 REVERT JUMPDEST POP DUP1 MLOAD PUSH2 0x964 SWAP1 PUSH2 0x163 SWAP1 PUSH1 0x20 DUP5 ADD SWAP1 PUSH2 0x3DC4 JUMP JUMPDEST POP POP JUMP JUMPDEST PUSH1 0x0 PUSH2 0x973 DUP3 PUSH2 0x1E7A JUMP JUMPDEST POP PUSH1 0x0 SWAP1 DUP2 MSTORE PUSH1 0x69 PUSH1 0x20 MSTORE PUSH1 0x40 SWAP1 KECCAK256 SLOAD PUSH1 0x1 PUSH1 0x1 PUSH1 0xA0 SHL SUB AND SWAP1 JUMP JUMPDEST PUSH1 0x0 PUSH2 0x99A DUP3 PUSH2 0xFB4 JUMP JUMPDEST SWAP1 POP DUP1 PUSH1 0x1 PUSH1 0x1 PUSH1 0xA0 SHL SUB AND DUP4 PUSH1 0x1 PUSH1 0x1 PUSH1 0xA0 SHL SUB AND EQ ISZERO PUSH2 0xA08 JUMPI PUSH1 0x40 MLOAD PUSH3 0x461BCD PUSH1 0xE5 SHL DUP2 MSTORE PUSH1 0x20 PUSH1 0x4 DUP3 ADD MSTORE PUSH1 0x21 PUSH1 0x24 DUP3 ADD MSTORE PUSH32 0x4552433732313A20617070726F76616C20746F2063757272656E74206F776E65 PUSH1 0x44 DUP3 ADD MSTORE PUSH1 0x39 PUSH1 0xF9 SHL PUSH1 0x64 DUP3 ADD MSTORE PUSH1 0x84 ADD PUSH2 0x946 JUMP JUMPDEST CALLER PUSH1 0x1 PUSH1 0x1 PUSH1 0xA0 SHL SUB DUP3 AND EQ DUP1 PUSH2 0xA24 JUMPI POP PUSH2 0xA24 DUP2 CALLER PUSH2 0x1D35 JUMP JUMPDEST PUSH2 0xA96 JUMPI PUSH1 0x40 MLOAD PUSH3 0x461BCD PUSH1 0xE5 SHL DUP2 MSTORE PUSH1 0x20 PUSH1 0x4 DUP3 ADD MSTORE PUSH1 0x3E PUSH1 0x24 DUP3 ADD MSTORE PUSH32 0x4552433732313A20617070726F76652063616C6C6572206973206E6F7420746F PUSH1 0x44 DUP3 ADD MSTORE PUSH32 0x6B656E206F776E6572206E6F7220617070726F76656420666F7220616C6C0000 PUSH1 0x64 DUP3 ADD MSTORE PUSH1 0x84 ADD PUSH2 0x946 JUMP JUMPDEST PUSH2 0xAA0 DUP4 DUP4 PUSH2 0x1ED9 JUMP JUMPDEST POP POP POP JUMP JUMPDEST PUSH2 0x165 DUP1 SLOAD PUSH2 0xAB3 SWAP1 PUSH2 0x44DF JUMP JUMPDEST DUP1 PUSH1 0x1F ADD PUSH1 0x20 DUP1 SWAP2 DIV MUL PUSH1 0x20 ADD PUSH1 0x40 MLOAD SWAP1 DUP2 ADD PUSH1 0x40 MSTORE DUP1 SWAP3 SWAP2 SWAP1 DUP2 DUP2 MSTORE PUSH1 0x20 ADD DUP3 DUP1 SLOAD PUSH2 0xADF SWAP1 PUSH2 0x44DF JUMP JUMPDEST DUP1 ISZERO PUSH2 0xB2C JUMPI DUP1 PUSH1 0x1F LT PUSH2 0xB01 JUMPI PUSH2 0x100 DUP1 DUP4 SLOAD DIV MUL DUP4 MSTORE SWAP2 PUSH1 0x20 ADD SWAP2 PUSH2 0xB2C JUMP JUMPDEST DUP3 ADD SWAP2 SWAP1 PUSH1 0x0 MSTORE PUSH1 0x20 PUSH1 0x0 KECCAK256 SWAP1 JUMPDEST DUP2 SLOAD DUP2 MSTORE SWAP1 PUSH1 0x1 ADD SWAP1 PUSH1 0x20 ADD DUP1 DUP4 GT PUSH2 0xB0F JUMPI DUP3 SWAP1 SUB PUSH1 0x1F AND DUP3 ADD SWAP2 JUMPDEST POP POP POP POP POP DUP2 JUMP JUMPDEST PUSH1 0x2 PUSH1 0xFB SLOAD EQ ISZERO PUSH2 0xB57 JUMPI PUSH1 0x40 MLOAD PUSH3 0x461BCD PUSH1 0xE5 SHL DUP2 MSTORE PUSH1 0x4 ADD PUSH2 0x946 SWAP1 PUSH2 0x451A JUMP JUMPDEST PUSH1 0x2 PUSH1 0xFB SSTORE PUSH2 0x167 SLOAD ISZERO DUP1 ISZERO SWAP1 PUSH2 0xB71 JUMPI POP PUSH2 0x167 SLOAD CALLVALUE LT ISZERO JUMPDEST PUSH1 0x40 MLOAD DUP1 PUSH1 0x40 ADD PUSH1 0x40 MSTORE DUP1 PUSH1 0x3 DUP2 MSTORE PUSH1 0x20 ADD PUSH3 0x323031 PUSH1 0xE8 SHL DUP2 MSTORE POP SWAP1 PUSH2 0xBAB JUMPI PUSH1 0x40 MLOAD PUSH3 0x461BCD PUSH1 0xE5 SHL DUP2 MSTORE PUSH1 0x4 ADD PUSH2 0x946 SWAP2 SWAP1 PUSH2 0x3F0F JUMP JUMPDEST POP PUSH2 0x2328 PUSH2 0x164 SLOAD LT PUSH2 0xBBD JUMPI PUSH1 0x0 DUP1 REVERT JUMPDEST PUSH2 0x164 DUP1 SLOAD SWAP1 PUSH1 0x0 PUSH2 0xBCE DUP4 PUSH2 0x4567 JUMP JUMPDEST SWAP2 SWAP1 POP SSTORE POP PUSH2 0xBE0 CALLER PUSH2 0x164 SLOAD PUSH2 0x1F47 JUMP JUMPDEST PUSH1 0x1 PUSH1 0xFB SSTORE JUMP JUMPDEST PUSH2 0xBF1 CALLER DUP3 PUSH2 0x1F61 JUMP JUMPDEST PUSH2 0xC0D JUMPI PUSH1 0x40 MLOAD PUSH3 0x461BCD PUSH1 0xE5 SHL DUP2 MSTORE PUSH1 0x4 ADD PUSH2 0x946 SWAP1 PUSH2 0x4582 JUMP JUMPDEST PUSH2 0xAA0 DUP4 DUP4 DUP4 PUSH2 0x1FC0 JUMP JUMPDEST PUSH2 0x15F SLOAD PUSH1 0x1 PUSH1 0x1 PUSH1 0xA0 SHL SUB AND PUSH1 0x0 PUSH2 0x2710 PUSH2 0xC36 DUP5 PUSH2 0x1F4 PUSH2 0x45D0 JUMP JUMPDEST PUSH2 0xC40 SWAP2 SWAP1 PUSH2 0x4605 JUMP JUMPDEST SWAP1 POP SWAP3 POP SWAP3 SWAP1 POP JUMP JUMPDEST PUSH1 0x2 PUSH1 0xFB SLOAD EQ ISZERO PUSH2 0xC6C JUMPI PUSH1 0x40 MLOAD PUSH3 0x461BCD PUSH1 0xE5 SHL DUP2 MSTORE PUSH1 0x4 ADD PUSH2 0x946 SWAP1 PUSH2 0x451A JUMP JUMPDEST PUSH1 0x2 PUSH1 0xFB SSTORE CALLER PUSH1 0x0 SWAP1 DUP2 MSTORE PUSH2 0x168 PUSH1 0x20 SWAP1 DUP2 MSTORE PUSH1 0x40 SWAP2 DUP3 SWAP1 KECCAK256 SLOAD DUP3 MLOAD DUP1 DUP5 ADD SWAP1 SWAP4 MSTORE PUSH1 0x3 DUP4 MSTORE PUSH3 0x31303 PUSH1 0xEC SHL SWAP2 DUP4 ADD SWAP2 SWAP1 SWAP2 MSTORE PUSH2 0xCBD JUMPI PUSH1 0x40 MLOAD PUSH3 0x461BCD PUSH1 0xE5 SHL DUP2 MSTORE PUSH1 0x4 ADD PUSH2 0x946 SWAP2 SWAP1 PUSH2 0x3F0F JUMP JUMPDEST POP PUSH1 0x0 PUSH2 0x169 SLOAD GT DUP1 ISZERO PUSH2 0xCD4 JUMPI POP PUSH2 0x169 SLOAD CALLVALUE LT ISZERO JUMPDEST PUSH1 0x40 MLOAD DUP1 PUSH1 0x40 ADD PUSH1 0x40 MSTORE DUP1 PUSH1 0x3 DUP2 MSTORE PUSH1 0x20 ADD PUSH3 0x323031 PUSH1 0xE8 SHL DUP2 MSTORE POP SWAP1 PUSH2 0xD0E JUMPI PUSH1 0x40 MLOAD PUSH3 0x461BCD PUSH1 0xE5 SHL DUP2 MSTORE PUSH1 0x4 ADD PUSH2 0x946 SWAP2 SWAP1 PUSH2 0x3F0F JUMP JUMPDEST POP PUSH2 0x2328 PUSH2 0x164 SLOAD LT PUSH2 0xD20 JUMPI PUSH1 0x0 DUP1 REVERT JUMPDEST PUSH2 0x164 DUP1 SLOAD SWAP1 PUSH1 0x0 PUSH2 0xD31 DUP4 PUSH2 0x4567 JUMP JUMPDEST SWAP2 SWAP1 POP SSTORE POP PUSH2 0xD43 CALLER PUSH2 0x164 SLOAD PUSH2 0x1F47 JUMP JUMPDEST CALLER PUSH1 0x0 SWAP1 DUP2 MSTORE PUSH2 0x168 PUSH1 0x20 MSTORE PUSH1 0x40 DUP2 KECCAK256 DUP1 SLOAD PUSH1 0x1 SWAP3 SWAP1 PUSH2 0xD64 SWAP1 DUP5 SWAP1 PUSH2 0x4619 JUMP JUMPDEST SWAP1 SWAP2 SSTORE POP POP PUSH1 0x1 PUSH1 0xFB SSTORE JUMP JUMPDEST PUSH1 0x2 PUSH1 0xFB SLOAD EQ ISZERO PUSH2 0xD93 JUMPI PUSH1 0x40 MLOAD PUSH3 0x461BCD PUSH1 0xE5 SHL DUP2 MSTORE PUSH1 0x4 ADD PUSH2 0x946 SWAP1 PUSH2 0x451A JUMP JUMPDEST PUSH1 0x2 PUSH1 0xFB SSTORE PUSH2 0x15F SLOAD PUSH1 0x40 DUP1 MLOAD DUP1 DUP3 ADD SWAP1 SWAP2 MSTORE PUSH1 0x3 DUP2 MSTORE PUSH3 0x313031 PUSH1 0xE8 SHL PUSH1 0x20 DUP3 ADD MSTORE SWAP1 PUSH1 0x1 PUSH1 0x1 PUSH1 0xA0 SHL SUB AND CALLER EQ PUSH2 0xDDF JUMPI PUSH1 0x40 MLOAD PUSH3 0x461BCD PUSH1 0xE5 SHL DUP2 MSTORE PUSH1 0x4 ADD PUSH2 0x946 SWAP2 SWAP1 PUSH2 0x3F0F JUMP JUMPDEST POP PUSH1 0x40 MLOAD PUSH1 0x0 SWAP1 CALLER SWAP1 SELFBALANCE SWAP1 DUP4 DUP2 DUP2 DUP2 DUP6 DUP8 GAS CALL SWAP3 POP POP POP RETURNDATASIZE DUP1 PUSH1 0x0 DUP2 EQ PUSH2 0xE22 JUMPI PUSH1 0x40 MLOAD SWAP2 POP PUSH1 0x1F NOT PUSH1 0x3F RETURNDATASIZE ADD AND DUP3 ADD PUSH1 0x40 MSTORE RETURNDATASIZE DUP3 MSTORE RETURNDATASIZE PUSH1 0x0 PUSH1 0x20 DUP5 ADD RETURNDATACOPY PUSH2 0xE27 JUMP JUMPDEST PUSH1 0x60 SWAP2 POP JUMPDEST POP POP SWAP1 POP DUP1 PUSH2 0xE35 JUMPI PUSH1 0x0 DUP1 REVERT JUMPDEST POP POP PUSH1 0x1 PUSH1 0xFB SSTORE JUMP JUMPDEST PUSH2 0x15F SLOAD PUSH1 0x40 DUP1 MLOAD DUP1 DUP3 ADD SWAP1 SWAP2 MSTORE PUSH1 0x3 DUP2 MSTORE PUSH3 0x313031 PUSH1 0xE8 SHL PUSH1 0x20 DUP3 ADD MSTORE SWAP1 PUSH1 0x1 PUSH1 0x1 PUSH1 0xA0 SHL SUB AND CALLER EQ PUSH2 0xE85 JUMPI PUSH1 0x40 MLOAD PUSH3 0x461BCD PUSH1 0xE5 SHL DUP2 MSTORE PUSH1 0x4 ADD PUSH2 0x946 SWAP2 SWAP1 PUSH2 0x3F0F JUMP JUMPDEST POP DUP1 MLOAD PUSH2 0x964 SWAP1 PUSH2 0x165 SWAP1 PUSH1 0x20 DUP5 ADD SWAP1 PUSH2 0x3DC4 JUMP JUMPDEST PUSH2 0x15F SLOAD PUSH1 0x40 DUP1 MLOAD DUP1 DUP3 ADD SWAP1 SWAP2 MSTORE PUSH1 0x3 DUP2 MSTORE PUSH3 0x313031 PUSH1 0xE8 SHL PUSH1 0x20 DUP3 ADD MSTORE SWAP1 PUSH1 0x1 PUSH1 0x1 PUSH1 0xA0 SHL SUB AND CALLER EQ PUSH2 0xEE1 JUMPI PUSH1 0x40 MLOAD PUSH3 0x461BCD PUSH1 0xE5 SHL DUP2 MSTORE PUSH1 0x4 ADD PUSH2 0x946 SWAP2 SWAP1 PUSH2 0x3F0F JUMP JUMPDEST POP PUSH2 0xEEA PUSH2 0x2167 JUMP JUMPDEST JUMP JUMPDEST PUSH2 0xAA0 DUP4 DUP4 DUP4 PUSH1 0x40 MLOAD DUP1 PUSH1 0x20 ADD PUSH1 0x40 MSTORE DUP1 PUSH1 0x0 DUP2 MSTORE POP PUSH2 0x194E JUMP JUMPDEST PUSH2 0x15F SLOAD PUSH1 0x40 DUP1 MLOAD DUP1 DUP3 ADD SWAP1 SWAP2 MSTORE PUSH1 0x3 DUP2 MSTORE PUSH3 0x313031 PUSH1 0xE8 SHL PUSH1 0x20 DUP3 ADD MSTORE SWAP1 PUSH1 0x1 PUSH1 0x1 PUSH1 0xA0 SHL SUB AND CALLER EQ PUSH2 0xF4E JUMPI PUSH1 0x40 MLOAD PUSH3 0x461BCD PUSH1 0xE5 SHL DUP2 MSTORE PUSH1 0x4 ADD PUSH2 0x946 SWAP2 SWAP1 PUSH2 0x3F0F JUMP JUMPDEST POP PUSH1 0x40 DUP1 MLOAD DUP1 DUP3 ADD SWAP1 SWAP2 MSTORE PUSH1 0x3 DUP2 MSTORE PUSH3 0x31303 PUSH1 0xEC SHL PUSH1 0x20 DUP3 ADD MSTORE PUSH1 0x1 PUSH1 0x1 PUSH1 0xA0 SHL SUB DUP3 AND PUSH2 0xF90 JUMPI PUSH1 0x40 MLOAD PUSH3 0x461BCD PUSH1 0xE5 SHL DUP2 MSTORE PUSH1 0x4 ADD PUSH2 0x946 SWAP2 SWAP1 PUSH2 0x3F0F JUMP JUMPDEST POP PUSH2 0x161 DUP1 SLOAD PUSH1 0x1 PUSH1 0x1 PUSH1 0xA0 SHL SUB NOT AND PUSH1 0x1 PUSH1 0x1 PUSH1 0xA0 SHL SUB SWAP3 SWAP1 SWAP3 AND SWAP2 SWAP1 SWAP2 OR SWAP1 SSTORE JUMP JUMPDEST PUSH1 0x0 DUP2 DUP2 MSTORE PUSH1 0x67 PUSH1 0x20 MSTORE PUSH1 0x40 DUP2 KECCAK256 SLOAD PUSH1 0x1 PUSH1 0x1 PUSH1 0xA0 SHL SUB AND DUP1 PUSH2 0x867 JUMPI PUSH1 0x40 MLOAD PUSH3 0x461BCD PUSH1 0xE5 SHL DUP2 MSTORE PUSH1 0x20 PUSH1 0x4 DUP3 ADD MSTORE PUSH1 0x18 PUSH1 0x24 DUP3 ADD MSTORE PUSH24 0x115490CDCC8C4E881A5B9D985B1A59081D1BDAD95B881251 PUSH1 0x42 SHL PUSH1 0x44 DUP3 ADD MSTORE PUSH1 0x64 ADD PUSH2 0x946 JUMP JUMPDEST PUSH2 0x15F SLOAD PUSH1 0x40 DUP1 MLOAD DUP1 DUP3 ADD SWAP1 SWAP2 MSTORE PUSH1 0x3 DUP2 MSTORE PUSH3 0x313031 PUSH1 0xE8 SHL PUSH1 0x20 DUP3 ADD MSTORE SWAP1 PUSH1 0x1 PUSH1 0x1 PUSH1 0xA0 SHL SUB AND CALLER EQ PUSH2 0x105B JUMPI PUSH1 0x40 MLOAD PUSH3 0x461BCD PUSH1 0xE5 SHL DUP2 MSTORE PUSH1 0x4 ADD PUSH2 0x946 SWAP2 SWAP1 PUSH2 0x3F0F JUMP JUMPDEST POP PUSH1 0x0 JUMPDEST DUP3 MLOAD DUP2 LT ISZERO PUSH2 0xAA0 JUMPI DUP2 PUSH2 0x168 PUSH1 0x0 DUP6 DUP5 DUP2 MLOAD DUP2 LT PUSH2 0x1080 JUMPI PUSH2 0x1080 PUSH2 0x4630 JUMP JUMPDEST PUSH1 0x20 MUL PUSH1 0x20 ADD ADD MLOAD PUSH1 0x1 PUSH1 0x1 PUSH1 0xA0 SHL SUB AND PUSH1 0x1 PUSH1 0x1 PUSH1 0xA0 SHL SUB AND DUP2 MSTORE PUSH1 0x20 ADD SWAP1 DUP2 MSTORE PUSH1 0x20 ADD PUSH1 0x0 KECCAK256 DUP2 SWAP1 SSTORE POP DUP1 DUP1 PUSH2 0x10B7 SWAP1 PUSH2 0x4567 JUMP JUMPDEST SWAP2 POP POP PUSH2 0x105F JUMP JUMPDEST PUSH2 0x15F SLOAD PUSH1 0x40 DUP1 MLOAD DUP1 DUP3 ADD SWAP1 SWAP2 MSTORE PUSH1 0x3 DUP2 MSTORE PUSH3 0x313031 PUSH1 0xE8 SHL PUSH1 0x20 DUP3 ADD MSTORE SWAP1 PUSH1 0x1 PUSH1 0x1 PUSH1 0xA0 SHL SUB AND CALLER EQ PUSH2 0x1106 JUMPI PUSH1 0x40 MLOAD PUSH3 0x461BCD PUSH1 0xE5 SHL DUP2 MSTORE PUSH1 0x4 ADD PUSH2 0x946 SWAP2 SWAP1 PUSH2 0x3F0F JUMP JUMPDEST POP PUSH2 0x166 DUP1 SLOAD PUSH1 0x1 PUSH1 0x1 PUSH1 0xA0 SHL SUB NOT AND PUSH1 0x1 PUSH1 0x1 PUSH1 0xA0 SHL SUB SWAP3 SWAP1 SWAP3 AND SWAP2 SWAP1 SWAP2 OR SWAP1 SSTORE JUMP JUMPDEST PUSH2 0x15F SLOAD PUSH1 0x40 DUP1 MLOAD DUP1 DUP3 ADD SWAP1 SWAP2 MSTORE PUSH1 0x3 DUP2 MSTORE PUSH3 0x313031 PUSH1 0xE8 SHL PUSH1 0x20 DUP3 ADD MSTORE SWAP1 PUSH1 0x1 PUSH1 0x1 PUSH1 0xA0 SHL SUB AND CALLER EQ PUSH2 0x1171 JUMPI PUSH1 0x40 MLOAD PUSH3 0x461BCD PUSH1 0xE5 SHL DUP2 MSTORE PUSH1 0x4 ADD PUSH2 0x946 SWAP2 SWAP1 PUSH2 0x3F0F JUMP JUMPDEST POP PUSH2 0x167 SSTORE JUMP JUMPDEST PUSH1 0x0 PUSH1 0x1 PUSH1 0x1 PUSH1 0xA0 SHL SUB DUP3 AND PUSH2 0x11E2 JUMPI PUSH1 0x40 MLOAD PUSH3 0x461BCD PUSH1 0xE5 SHL DUP2 MSTORE PUSH1 0x20 PUSH1 0x4 DUP3 ADD MSTORE PUSH1 0x29 PUSH1 0x24 DUP3 ADD MSTORE PUSH32 0x4552433732313A2061646472657373207A65726F206973206E6F742061207661 PUSH1 0x44 DUP3 ADD MSTORE PUSH9 0x3634B21037BBB732B9 PUSH1 0xB9 SHL PUSH1 0x64 DUP3 ADD MSTORE PUSH1 0x84 ADD PUSH2 0x946 JUMP JUMPDEST POP PUSH1 0x1 PUSH1 0x1 PUSH1 0xA0 SHL SUB AND PUSH1 0x0 SWAP1 DUP2 MSTORE PUSH1 0x68 PUSH1 0x20 MSTORE PUSH1 0x40 SWAP1 KECCAK256 SLOAD SWAP1 JUMP JUMPDEST PUSH2 0x1206 PUSH2 0x21B9 JUMP JUMPDEST PUSH2 0xEEA PUSH1 0x0 PUSH2 0x2214 JUMP JUMPDEST PUSH2 0x161 SLOAD PUSH1 0x40 DUP1 MLOAD DUP1 DUP3 ADD SWAP1 SWAP2 MSTORE PUSH1 0x3 DUP2 MSTORE PUSH3 0x31303 PUSH1 0xEC SHL PUSH1 0x20 DUP3 ADD MSTORE SWAP1 PUSH1 0x1 PUSH1 0x1 PUSH1 0xA0 SHL SUB AND CALLER EQ PUSH2 0x1257 JUMPI PUSH1 0x40 MLOAD PUSH3 0x461BCD PUSH1 0xE5 SHL DUP2 MSTORE PUSH1 0x4 ADD PUSH2 0x946 SWAP2 SWAP1 PUSH2 0x3F0F JUMP JUMPDEST POP DUP1 PUSH1 0x40 MLOAD PUSH2 0x1266 SWAP2 SWAP1 PUSH2 0x4646 JUMP JUMPDEST PUSH1 0x40 MLOAD SWAP1 DUP2 SWAP1 SUB DUP2 KECCAK256 SWAP1 DUP4 SWAP1 PUSH32 0xC6EF1C5F8F954D0251E9620CE4908018F1C31F432EB9B44FD9EFB2CA569453F1 SWAP1 PUSH1 0x0 SWAP1 LOG3 PUSH1 0x0 DUP3 DUP2 MSTORE PUSH2 0x162 PUSH1 0x20 SWAP1 DUP2 MSTORE PUSH1 0x40 SWAP1 SWAP2 KECCAK256 DUP3 MLOAD PUSH2 0x12B8 SWAP3 DUP5 ADD SWAP1 PUSH2 0x3DC4 JUMP JUMPDEST POP PUSH1 0x0 DUP1 PUSH1 0x0 DUP1 PUSH1 0x0 DUP1 PUSH1 0x0 DUP8 DUP1 PUSH1 0x20 ADD SWAP1 MLOAD DUP2 ADD SWAP1 PUSH2 0x12D8 SWAP2 SWAP1 PUSH2 0x46CD JUMP JUMPDEST SWAP7 POP SWAP7 POP SWAP7 POP SWAP7 POP SWAP7 POP SWAP7 POP SWAP7 POP PUSH1 0x0 PUSH2 0x12F8 DUP5 PUSH1 0xFF AND DUP5 PUSH1 0xFF AND PUSH2 0x2267 JUMP JUMPDEST PUSH1 0x40 DUP1 MLOAD PUSH1 0xA0 DUP2 ADD DUP3 MSTORE PUSH1 0x1 PUSH1 0x60 DUP3 ADD DUP2 DUP2 MSTORE PUSH1 0x31 PUSH1 0xF8 SHL PUSH1 0x80 DUP5 ADD MSTORE DUP3 MSTORE DUP3 MLOAD DUP1 DUP5 ADD DUP5 MSTORE DUP2 DUP2 MSTORE PUSH1 0x19 PUSH1 0xF9 SHL PUSH1 0x20 DUP3 DUP2 ADD SWAP2 SWAP1 SWAP2 MSTORE DUP1 DUP5 ADD SWAP2 SWAP1 SWAP2 MSTORE DUP4 MLOAD DUP1 DUP6 ADD DUP6 MSTORE DUP3 DUP2 MSTORE PUSH1 0x33 PUSH1 0xF8 SHL SWAP2 DUP2 ADD SWAP2 SWAP1 SWAP2 MSTORE SWAP3 DUP3 ADD SWAP3 SWAP1 SWAP3 MSTORE SWAP2 SWAP3 POP DUP3 PUSH1 0x3 DUP2 GT ISZERO PUSH2 0x1368 JUMPI PUSH2 0x1368 PUSH2 0x47A3 JUMP JUMPDEST EQ ISZERO PUSH2 0x13F0 JUMPI DUP1 PUSH1 0x2 PUSH1 0x20 MUL ADD MLOAD PUSH2 0x16A DUP9 PUSH1 0x40 MLOAD PUSH2 0x1387 SWAP2 SWAP1 PUSH2 0x4646 JUMP JUMPDEST SWAP1 DUP2 MSTORE PUSH1 0x20 ADD PUSH1 0x40 MLOAD DUP1 SWAP2 SUB SWAP1 KECCAK256 PUSH1 0x0 ADD SWAP1 DUP1 MLOAD SWAP1 PUSH1 0x20 ADD SWAP1 PUSH2 0x13AB SWAP3 SWAP2 SWAP1 PUSH2 0x3DC4 JUMP JUMPDEST POP DUP1 PUSH1 0x1 JUMPDEST PUSH1 0x20 MUL ADD MLOAD PUSH2 0x16A DUP8 PUSH1 0x40 MLOAD PUSH2 0x13C6 SWAP2 SWAP1 PUSH2 0x4646 JUMP JUMPDEST SWAP1 DUP2 MSTORE PUSH1 0x20 ADD PUSH1 0x40 MLOAD DUP1 SWAP2 SUB SWAP1 KECCAK256 PUSH1 0x0 ADD SWAP1 DUP1 MLOAD SWAP1 PUSH1 0x20 ADD SWAP1 PUSH2 0x13EA SWAP3 SWAP2 SWAP1 PUSH2 0x3DC4 JUMP JUMPDEST POP PUSH2 0x14C1 JUMP JUMPDEST PUSH1 0x2 DUP3 PUSH1 0x3 DUP2 GT ISZERO PUSH2 0x1404 JUMPI PUSH2 0x1404 PUSH2 0x47A3 JUMP JUMPDEST EQ ISZERO PUSH2 0x144E JUMPI PUSH1 0x20 DUP2 ADD MLOAD PUSH1 0x40 MLOAD PUSH2 0x16A SWAP1 PUSH2 0x1421 SWAP1 DUP11 SWAP1 PUSH2 0x4646 JUMP JUMPDEST SWAP1 DUP2 MSTORE PUSH1 0x20 ADD PUSH1 0x40 MLOAD DUP1 SWAP2 SUB SWAP1 KECCAK256 PUSH1 0x0 ADD SWAP1 DUP1 MLOAD SWAP1 PUSH1 0x20 ADD SWAP1 PUSH2 0x1445 SWAP3 SWAP2 SWAP1 PUSH2 0x3DC4 JUMP JUMPDEST POP DUP1 PUSH1 0x2 PUSH2 0x13B0 JUMP JUMPDEST DUP1 MLOAD PUSH1 0x40 MLOAD PUSH2 0x16A SWAP1 PUSH2 0x1462 SWAP1 DUP11 SWAP1 PUSH2 0x4646 JUMP JUMPDEST SWAP1 DUP2 MSTORE PUSH1 0x20 ADD PUSH1 0x40 MLOAD DUP1 SWAP2 SUB SWAP1 KECCAK256 PUSH1 0x0 ADD SWAP1 DUP1 MLOAD SWAP1 PUSH1 0x20 ADD SWAP1 PUSH2 0x1486 SWAP3 SWAP2 SWAP1 PUSH2 0x3DC4 JUMP JUMPDEST POP DUP1 MLOAD PUSH1 0x40 MLOAD PUSH2 0x16A SWAP1 PUSH2 0x149B SWAP1 DUP10 SWAP1 PUSH2 0x4646 JUMP JUMPDEST SWAP1 DUP2 MSTORE PUSH1 0x20 ADD PUSH1 0x40 MLOAD DUP1 SWAP2 SUB SWAP1 KECCAK256 PUSH1 0x0 ADD SWAP1 DUP1 MLOAD SWAP1 PUSH1 0x20 ADD SWAP1 PUSH2 0x14BF SWAP3 SWAP2 SWAP1 PUSH2 0x3DC4 JUMP JUMPDEST POP JUMPDEST TIMESTAMP PUSH2 0x16A DUP9 PUSH1 0x40 MLOAD PUSH2 0x14D3 SWAP2 SWAP1 PUSH2 0x4646 JUMP JUMPDEST SWAP1 DUP2 MSTORE PUSH1 0x20 ADD PUSH1 0x40 MLOAD DUP1 SWAP2 SUB SWAP1 KECCAK256 PUSH1 0x1 ADD DUP2 SWAP1 SSTORE POP TIMESTAMP PUSH2 0x16A DUP8 PUSH1 0x40 MLOAD PUSH2 0x14FA SWAP2 SWAP1 PUSH2 0x4646 JUMP JUMPDEST SWAP1 DUP2 MSTORE PUSH1 0x40 MLOAD SWAP1 DUP2 SWAP1 SUB PUSH1 0x20 ADD SWAP1 KECCAK256 PUSH1 0x1 ADD SSTORE POP POP POP POP POP POP POP POP POP POP POP JUMP JUMPDEST PUSH1 0x2 PUSH1 0xFB SLOAD EQ ISZERO PUSH2 0x153D JUMPI PUSH1 0x40 MLOAD PUSH3 0x461BCD PUSH1 0xE5 SHL DUP2 MSTORE PUSH1 0x4 ADD PUSH2 0x946 SWAP1 PUSH2 0x451A JUMP JUMPDEST PUSH1 0x2 PUSH1 0xFB SSTORE PUSH2 0x166 SLOAD PUSH1 0x40 DUP1 MLOAD DUP1 DUP3 ADD SWAP1 SWAP2 MSTORE PUSH1 0x3 DUP2 MSTORE PUSH3 0x31303 PUSH1 0xEC SHL PUSH1 0x20 DUP3 ADD MSTORE SWAP1 PUSH1 0x1 PUSH1 0x1 PUSH1 0xA0 SHL SUB AND PUSH2 0x1587 JUMPI PUSH1 0x40 MLOAD PUSH3 0x461BCD PUSH1 0xE5 SHL DUP2 MSTORE PUSH1 0x4 ADD PUSH2 0x946 SWAP2 SWAP1 PUSH2 0x3F0F JUMP JUMPDEST POP PUSH1 0x7 PUSH2 0x15B1 DUP3 PUSH1 0x40 MLOAD DUP1 PUSH1 0x40 ADD PUSH1 0x40 MSTORE DUP1 PUSH1 0x5 DUP2 MSTORE PUSH1 0x20 ADD PUSH5 0x7368617065 PUSH1 0xD8 SHL DUP2 MSTORE POP PUSH2 0x2292 JUMP JUMPDEST PUSH2 0x15BB SWAP2 SWAP1 PUSH2 0x47B9 JUMP JUMPDEST PUSH1 0x40 DUP1 MLOAD DUP1 DUP3 ADD SWAP1 SWAP2 MSTORE PUSH1 0x3 DUP2 MSTORE PUSH3 0xC8C0D PUSH1 0xEA SHL PUSH1 0x20 DUP3 ADD MSTORE SWAP1 ISZERO PUSH2 0x15F4 JUMPI PUSH1 0x40 MLOAD PUSH3 0x461BCD PUSH1 0xE5 SHL DUP2 MSTORE PUSH1 0x4 ADD PUSH2 0x946 SWAP2 SWAP1 PUSH2 0x3F0F JUMP JUMPDEST POP PUSH2 0x166 SLOAD PUSH1 0x40 MLOAD PUSH4 0x23B872DD PUSH1 0xE0 SHL DUP2 MSTORE CALLER PUSH1 0x4 DUP3 ADD MSTORE ADDRESS PUSH1 0x24 DUP3 ADD MSTORE PUSH1 0x44 DUP2 ADD DUP4 SWAP1 MSTORE PUSH1 0x1 PUSH1 0x1 PUSH1 0xA0 SHL SUB SWAP1 SWAP2 AND SWAP1 DUP2 SWAP1 PUSH4 0x23B872DD SWAP1 PUSH1 0x64 ADD PUSH1 0x0 PUSH1 0x40 MLOAD DUP1 DUP4 SUB DUP2 PUSH1 0x0 DUP8 DUP1 EXTCODESIZE ISZERO DUP1 ISZERO PUSH2 0x164A JUMPI PUSH1 0x0 DUP1 REVERT JUMPDEST POP GAS CALL ISZERO DUP1 ISZERO PUSH2 0x165E JUMPI RETURNDATASIZE PUSH1 0x0 DUP1 RETURNDATACOPY RETURNDATASIZE PUSH1 0x0 REVERT JUMPDEST POP POP POP POP PUSH2 0x2328 PUSH2 0x164 SLOAD LT PUSH2 0x1673 JUMPI PUSH1 0x0 DUP1 REVERT JUMPDEST PUSH2 0x164 DUP1 SLOAD SWAP1 PUSH1 0x0 PUSH2 0x1684 DUP4 PUSH2 0x4567 JUMP JUMPDEST SWAP2 SWAP1 POP SSTORE POP PUSH2 0xE35 CALLER PUSH2 0x164 SLOAD PUSH2 0x1F47 JUMP JUMPDEST PUSH2 0x15F SLOAD PUSH1 0x40 DUP1 MLOAD DUP1 DUP3 ADD SWAP1 SWAP2 MSTORE PUSH1 0x3 DUP2 MSTORE PUSH3 0x313031 PUSH1 0xE8 SHL PUSH1 0x20 DUP3 ADD MSTORE SWAP1 PUSH1 0x1 PUSH1 0x1 PUSH1 0xA0 SHL SUB AND CALLER EQ PUSH2 0x16DD JUMPI PUSH1 0x40 MLOAD PUSH3 0x461BCD PUSH1 0xE5 SHL DUP2 MSTORE PUSH1 0x4 ADD PUSH2 0x946 SWAP2 SWAP1 PUSH2 0x3F0F JUMP JUMPDEST POP PUSH2 0xEEA PUSH2 0x22CE JUMP JUMPDEST PUSH1 0x0 SLOAD PUSH2 0x100 SWAP1 DIV PUSH1 0xFF AND ISZERO DUP1 DUP1 ISZERO PUSH2 0x1706 JUMPI POP PUSH1 0x0 SLOAD PUSH1 0x1 PUSH1 0xFF SWAP1 SWAP2 AND LT JUMPDEST DUP1 PUSH2 0x1720 JUMPI POP ADDRESS EXTCODESIZE ISZERO DUP1 ISZERO PUSH2 0x1720 JUMPI POP PUSH1 0x0 SLOAD PUSH1 0xFF AND PUSH1 0x1 EQ JUMPDEST PUSH2 0x1783 JUMPI PUSH1 0x40 MLOAD PUSH3 0x461BCD PUSH1 0xE5 SHL DUP2 MSTORE PUSH1 0x20 PUSH1 0x4 DUP3 ADD MSTORE PUSH1 0x2E PUSH1 0x24 DUP3 ADD MSTORE PUSH32 0x496E697469616C697A61626C653A20636F6E747261637420697320616C726561 PUSH1 0x44 DUP3 ADD MSTORE PUSH14 0x191E481A5B9A5D1A585B1A5E9959 PUSH1 0x92 SHL PUSH1 0x64 DUP3 ADD MSTORE PUSH1 0x84 ADD PUSH2 0x946 JUMP JUMPDEST PUSH1 0x0 DUP1 SLOAD PUSH1 0xFF NOT AND PUSH1 0x1 OR SWAP1 SSTORE DUP1 ISZERO PUSH2 0x17A6 JUMPI PUSH1 0x0 DUP1 SLOAD PUSH2 0xFF00 NOT AND PUSH2 0x100 OR SWAP1 SSTORE JUMPDEST PUSH1 0x1 PUSH1 0x1 PUSH1 0xA0 SHL SUB DUP4 AND ISZERO DUP1 ISZERO SWAP1 PUSH2 0x17C6 JUMPI POP PUSH1 0x1 PUSH1 0x1 PUSH1 0xA0 SHL SUB DUP3 AND ISZERO ISZERO JUMPDEST PUSH1 0x40 MLOAD DUP1 PUSH1 0x40 ADD PUSH1 0x40 MSTORE DUP1 PUSH1 0x3 DUP2 MSTORE PUSH1 0x20 ADD PUSH3 0x31303 PUSH1 0xEC SHL DUP2 MSTORE POP SWAP1 PUSH2 0x1800 JUMPI PUSH1 0x40 MLOAD PUSH3 0x461BCD PUSH1 0xE5 SHL DUP2 MSTORE PUSH1 0x4 ADD PUSH2 0x946 SWAP2 SWAP1 PUSH2 0x3F0F JUMP JUMPDEST POP PUSH2 0x180B DUP6 DUP6 PUSH2 0x230B JUMP JUMPDEST PUSH2 0x160 DUP1 SLOAD PUSH1 0x1 PUSH1 0x1 PUSH1 0xA0 SHL SUB DUP1 DUP6 AND PUSH1 0x1 PUSH1 0x1 PUSH1 0xA0 SHL SUB NOT SWAP3 DUP4 AND OR SWAP1 SWAP3 SSTORE PUSH2 0x15F DUP1 SLOAD SWAP3 DUP7 AND SWAP3 SWAP1 SWAP2 AND SWAP2 SWAP1 SWAP2 OR SWAP1 SSTORE DUP1 ISZERO PUSH2 0x1883 JUMPI PUSH1 0x0 DUP1 SLOAD PUSH2 0xFF00 NOT AND SWAP1 SSTORE PUSH1 0x40 MLOAD PUSH1 0x1 DUP2 MSTORE PUSH32 0x7F26B83FF96E1F2B6A682F133852F6798A09C465DA95921460CEFB3847402498 SWAP1 PUSH1 0x20 ADD PUSH1 0x40 MLOAD DUP1 SWAP2 SUB SWAP1 LOG1 JUMPDEST POP POP POP POP POP JUMP JUMPDEST PUSH2 0x15F SLOAD PUSH1 0x1 PUSH1 0x1 PUSH1 0xA0 SHL SUB AND CALLER EQ DUP1 ISZERO PUSH2 0x18AD JUMPI POP PUSH1 0x1 PUSH1 0x1 PUSH1 0xA0 SHL SUB DUP2 AND ISZERO ISZERO JUMPDEST DUP1 ISZERO PUSH2 0x18C8 JUMPI POP PUSH2 0x15F SLOAD PUSH1 0x1 PUSH1 0x1 PUSH1 0xA0 SHL SUB DUP3 DUP2 AND SWAP2 AND EQ ISZERO JUMPDEST PUSH1 0x40 MLOAD DUP1 PUSH1 0x40 ADD PUSH1 0x40 MSTORE DUP1 PUSH1 0x3 DUP2 MSTORE PUSH1 0x20 ADD PUSH3 0x313031 PUSH1 0xE8 SHL DUP2 MSTORE POP SWAP1 PUSH2 0x1902 JUMPI PUSH1 0x40 MLOAD PUSH3 0x461BCD PUSH1 0xE5 SHL DUP2 MSTORE PUSH1 0x4 ADD PUSH2 0x946 SWAP2 SWAP1 PUSH2 0x3F0F JUMP JUMPDEST POP PUSH2 0x15F DUP1 SLOAD PUSH1 0x1 PUSH1 0x1 PUSH1 0xA0 SHL SUB NOT AND PUSH1 0x1 PUSH1 0x1 PUSH1 0xA0 SHL SUB SWAP3 SWAP1 SWAP3 AND SWAP2 SWAP1 SWAP2 OR SWAP1 SSTORE JUMP JUMPDEST PUSH1 0x60 PUSH1 0x66 DUP1 SLOAD PUSH2 0x87C SWAP1 PUSH2 0x44DF JUMP JUMPDEST PUSH2 0x163 DUP1 SLOAD PUSH2 0xAB3 SWAP1 PUSH2 0x44DF JUMP JUMPDEST PUSH2 0x964 CALLER DUP4 DUP4 PUSH2 0x233C JUMP JUMPDEST PUSH2 0x1958 CALLER DUP4 PUSH2 0x1F61 JUMP JUMPDEST PUSH2 0x1974 JUMPI PUSH1 0x40 MLOAD PUSH3 0x461BCD PUSH1 0xE5 SHL DUP2 MSTORE PUSH1 0x4 ADD PUSH2 0x946 SWAP1 PUSH2 0x4582 JUMP JUMPDEST PUSH2 0x1980 DUP5 DUP5 DUP5 DUP5 PUSH2 0x240B JUMP JUMPDEST POP POP POP POP JUMP JUMPDEST PUSH2 0x19F8 PUSH1 0x40 MLOAD DUP1 PUSH2 0x1C0 ADD PUSH1 0x40 MSTORE DUP1 PUSH1 0x60 DUP2 MSTORE PUSH1 0x20 ADD PUSH1 0x60 DUP2 MSTORE PUSH1 0x20 ADD PUSH1 0x60 DUP2 MSTORE PUSH1 0x20 ADD PUSH1 0x60 DUP2 MSTORE PUSH1 0x20 ADD PUSH1 0x60 DUP2 MSTORE PUSH1 0x20 ADD PUSH1 0x60 DUP2 MSTORE PUSH1 0x20 ADD PUSH1 0x60 DUP2 MSTORE PUSH1 0x20 ADD PUSH1 0x60 DUP2 MSTORE PUSH1 0x20 ADD PUSH1 0x60 DUP2 MSTORE PUSH1 0x20 ADD PUSH1 0x60 DUP2 MSTORE PUSH1 0x20 ADD PUSH1 0x0 DUP2 MSTORE PUSH1 0x20 ADD PUSH1 0x60 DUP2 MSTORE PUSH1 0x20 ADD PUSH1 0x60 DUP2 MSTORE PUSH1 0x20 ADD PUSH1 0x60 DUP2 MSTORE POP SWAP1 JUMP JUMPDEST PUSH1 0x40 DUP1 MLOAD PUSH1 0xA0 DUP2 ADD DUP3 MSTORE PUSH1 0x1 PUSH1 0x60 DUP3 ADD DUP2 DUP2 MSTORE PUSH1 0x31 PUSH1 0xF8 SHL PUSH1 0x80 DUP5 ADD MSTORE DUP3 MSTORE DUP3 MLOAD DUP1 DUP5 ADD DUP5 MSTORE DUP2 DUP2 MSTORE PUSH1 0x19 PUSH1 0xF9 SHL PUSH1 0x20 DUP3 DUP2 ADD SWAP2 SWAP1 SWAP2 MSTORE DUP1 DUP5 ADD SWAP2 SWAP1 SWAP2 MSTORE DUP4 MLOAD DUP1 DUP6 ADD DUP6 MSTORE SWAP2 DUP3 MSTORE PUSH1 0x33 PUSH1 0xF8 SHL SWAP1 DUP3 ADD MSTORE SWAP2 DUP2 ADD SWAP2 SWAP1 SWAP2 MSTORE PUSH1 0x0 PUSH2 0x1A5B DUP5 PUSH2 0x243E JUMP JUMPDEST SWAP1 POP PUSH1 0x0 DUP1 PUSH2 0x1A69 DUP7 PUSH2 0x28A5 JUMP JUMPDEST SWAP2 POP SWAP2 POP PUSH1 0x0 PUSH2 0x16A DUP5 PUSH1 0x40 MLOAD PUSH2 0x1A80 SWAP2 SWAP1 PUSH2 0x4646 JUMP JUMPDEST SWAP1 DUP2 MSTORE PUSH1 0x40 MLOAD SWAP1 DUP2 SWAP1 SUB PUSH1 0x20 ADD SWAP1 KECCAK256 DUP1 SLOAD PUSH2 0x1A9A SWAP1 PUSH2 0x44DF JUMP JUMPDEST DUP1 PUSH1 0x1F ADD PUSH1 0x20 DUP1 SWAP2 DIV MUL PUSH1 0x20 ADD PUSH1 0x40 MLOAD SWAP1 DUP2 ADD PUSH1 0x40 MSTORE DUP1 SWAP3 SWAP2 SWAP1 DUP2 DUP2 MSTORE PUSH1 0x20 ADD DUP3 DUP1 SLOAD PUSH2 0x1AC6 SWAP1 PUSH2 0x44DF JUMP JUMPDEST DUP1 ISZERO PUSH2 0x1B13 JUMPI DUP1 PUSH1 0x1F LT PUSH2 0x1AE8 JUMPI PUSH2 0x100 DUP1 DUP4 SLOAD DIV MUL DUP4 MSTORE SWAP2 PUSH1 0x20 ADD SWAP2 PUSH2 0x1B13 JUMP JUMPDEST DUP3 ADD SWAP2 SWAP1 PUSH1 0x0 MSTORE PUSH1 0x20 PUSH1 0x0 KECCAK256 SWAP1 JUMPDEST DUP2 SLOAD DUP2 MSTORE SWAP1 PUSH1 0x1 ADD SWAP1 PUSH1 0x20 ADD DUP1 DUP4 GT PUSH2 0x1AF6 JUMPI DUP3 SWAP1 SUB PUSH1 0x1F AND DUP3 ADD SWAP2 JUMPDEST POP SWAP4 SWAP5 POP PUSH3 0x15180 SWAP4 POP PUSH2 0x1B35 SWAP3 POP DUP7 SWAP2 POP DUP6 SWAP1 POP PUSH1 0x2 JUMPDEST PUSH1 0x20 MUL ADD MLOAD PUSH2 0x2971 JUMP JUMPDEST ISZERO PUSH2 0x1B4C JUMPI PUSH2 0x1B45 DUP2 PUSH1 0x1E PUSH2 0x45D0 JUMP JUMPDEST SWAP1 POP PUSH2 0x1B6B JUMP JUMPDEST PUSH2 0x1B58 DUP5 DUP5 PUSH1 0x1 PUSH2 0x1B2B JUMP JUMPDEST ISZERO PUSH2 0x1B6B JUMPI PUSH2 0x1B68 DUP2 PUSH1 0x7 PUSH2 0x45D0 JUMP JUMPDEST SWAP1 POP JUMPDEST DUP1 PUSH2 0x16A DUP7 PUSH1 0x40 MLOAD PUSH2 0x1B7D SWAP2 SWAP1 PUSH2 0x4646 JUMP JUMPDEST SWAP1 DUP2 MSTORE PUSH1 0x20 ADD PUSH1 0x40 MLOAD DUP1 SWAP2 SUB SWAP1 KECCAK256 PUSH1 0x1 ADD SLOAD TIMESTAMP PUSH2 0x1B9A SWAP2 SWAP1 PUSH2 0x4619 JUMP JUMPDEST GT ISZERO PUSH2 0x1BA5 JUMPI DUP6 MLOAD SWAP2 POP JUMPDEST PUSH1 0x40 MLOAD DUP1 PUSH2 0x1C0 ADD PUSH1 0x40 MSTORE DUP1 DUP4 DUP2 MSTORE PUSH1 0x20 ADD DUP6 DUP2 MSTORE PUSH1 0x20 ADD DUP7 DUP2 MSTORE PUSH1 0x20 ADD PUSH2 0x1BCC DUP11 PUSH2 0x29CA JUMP JUMPDEST DUP2 MSTORE PUSH1 0x20 ADD PUSH2 0x1BDA DUP11 PUSH2 0x2B40 JUMP JUMPDEST DUP2 MSTORE PUSH1 0x20 ADD PUSH2 0x1BE8 DUP11 PUSH2 0x2C2F JUMP JUMPDEST DUP2 MSTORE PUSH1 0x20 ADD PUSH2 0x1BF6 DUP11 PUSH2 0x2F6D JUMP JUMPDEST DUP2 MSTORE PUSH1 0x20 ADD PUSH2 0x1C04 DUP11 PUSH2 0x322D JUMP JUMPDEST DUP2 MSTORE PUSH1 0x20 ADD PUSH2 0x1C12 DUP11 PUSH2 0x32DC JUMP JUMPDEST DUP2 MSTORE PUSH1 0x20 ADD PUSH2 0x1C20 DUP11 PUSH2 0x3418 JUMP JUMPDEST DUP2 MSTORE PUSH1 0x20 ADD PUSH2 0x1C2E DUP11 PUSH2 0x3533 JUMP JUMPDEST DUP2 MSTORE PUSH1 0x20 ADD PUSH2 0x1C3C DUP11 PUSH2 0x3682 JUMP JUMPDEST DUP2 MSTORE PUSH1 0x20 ADD PUSH2 0x1C4A DUP11 PUSH2 0x3737 JUMP JUMPDEST DUP2 MSTORE PUSH1 0x20 ADD PUSH2 0x1C58 DUP11 PUSH2 0x3822 JUMP JUMPDEST SWAP1 MSTORE SWAP9 SWAP8 POP POP POP POP POP POP POP POP JUMP JUMPDEST PUSH2 0x15F SLOAD PUSH1 0x40 DUP1 MLOAD DUP1 DUP3 ADD SWAP1 SWAP2 MSTORE PUSH1 0x3 DUP2 MSTORE PUSH3 0x313031 PUSH1 0xE8 SHL PUSH1 0x20 DUP3 ADD MSTORE SWAP1 PUSH1 0x1 PUSH1 0x1 PUSH1 0xA0 SHL SUB AND CALLER EQ PUSH2 0x1CAD JUMPI PUSH1 0x40 MLOAD PUSH3 0x461BCD PUSH1 0xE5 SHL DUP2 MSTORE PUSH1 0x4 ADD PUSH2 0x946 SWAP2 SWAP1 PUSH2 0x3F0F JUMP JUMPDEST POP PUSH2 0x169 SSTORE JUMP JUMPDEST PUSH1 0x60 PUSH2 0x1CBF DUP3 PUSH2 0x1E7A JUMP JUMPDEST PUSH1 0x0 PUSH2 0x1CC9 PUSH2 0x38B5 JUMP JUMPDEST SWAP1 POP PUSH1 0x0 DUP2 MLOAD GT PUSH2 0x1CE9 JUMPI PUSH1 0x40 MLOAD DUP1 PUSH1 0x20 ADD PUSH1 0x40 MSTORE DUP1 PUSH1 0x0 DUP2 MSTORE POP PUSH2 0x1D14 JUMP JUMPDEST DUP1 PUSH2 0x1CF3 DUP5 PUSH2 0x38C5 JUMP JUMPDEST PUSH1 0x40 MLOAD PUSH1 0x20 ADD PUSH2 0x1D04 SWAP3 SWAP2 SWAP1 PUSH2 0x47CD JUMP JUMPDEST PUSH1 0x40 MLOAD PUSH1 0x20 DUP2 DUP4 SUB SUB DUP2 MSTORE SWAP1 PUSH1 0x40 MSTORE JUMPDEST SWAP4 SWAP3 POP POP POP JUMP JUMPDEST PUSH2 0x162 PUSH1 0x20 MSTORE PUSH1 0x0 SWAP1 DUP2 MSTORE PUSH1 0x40 SWAP1 KECCAK256 DUP1 SLOAD PUSH2 0xAB3 SWAP1 PUSH2 0x44DF JUMP JUMPDEST PUSH1 0x1 PUSH1 0x1 PUSH1 0xA0 SHL SUB SWAP2 DUP3 AND PUSH1 0x0 SWAP1 DUP2 MSTORE PUSH1 0x6A PUSH1 0x20 SWAP1 DUP2 MSTORE PUSH1 0x40 DUP1 DUP4 KECCAK256 SWAP4 SWAP1 SWAP5 AND DUP3 MSTORE SWAP2 SWAP1 SWAP2 MSTORE KECCAK256 SLOAD PUSH1 0xFF AND SWAP1 JUMP JUMPDEST PUSH1 0x2 PUSH1 0xFB SLOAD EQ ISZERO PUSH2 0x1D86 JUMPI PUSH1 0x40 MLOAD PUSH3 0x461BCD PUSH1 0xE5 SHL DUP2 MSTORE PUSH1 0x4 ADD PUSH2 0x946 SWAP1 PUSH2 0x451A JUMP JUMPDEST PUSH1 0x2 PUSH1 0xFB SSTORE PUSH2 0x15F SLOAD PUSH1 0x40 DUP1 MLOAD DUP1 DUP3 ADD SWAP1 SWAP2 MSTORE PUSH1 0x3 DUP2 MSTORE PUSH3 0x313031 PUSH1 0xE8 SHL PUSH1 0x20 DUP3 ADD MSTORE SWAP1 PUSH1 0x1 PUSH1 0x1 PUSH1 0xA0 SHL SUB AND CALLER EQ PUSH2 0x1DD2 JUMPI PUSH1 0x40 MLOAD PUSH3 0x461BCD PUSH1 0xE5 SHL DUP2 MSTORE PUSH1 0x4 ADD PUSH2 0x946 SWAP2 SWAP1 PUSH2 0x3F0F JUMP JUMPDEST POP PUSH2 0x2328 DUP2 GT DUP1 ISZERO PUSH2 0x1DE6 JUMPI POP PUSH2 0x2710 DUP2 GT ISZERO JUMPDEST PUSH2 0x1DEF JUMPI PUSH1 0x0 DUP1 REVERT JUMPDEST PUSH2 0x1DF9 CALLER DUP3 PUSH2 0x1F47 JUMP JUMPDEST POP PUSH1 0x1 PUSH1 0xFB SSTORE JUMP JUMPDEST PUSH2 0x1E09 PUSH2 0x21B9 JUMP JUMPDEST PUSH1 0x1 PUSH1 0x1 PUSH1 0xA0 SHL SUB DUP2 AND PUSH2 0x1E6E JUMPI PUSH1 0x40 MLOAD PUSH3 0x461BCD PUSH1 0xE5 SHL DUP2 MSTORE PUSH1 0x20 PUSH1 0x4 DUP3 ADD MSTORE PUSH1 0x26 PUSH1 0x24 DUP3 ADD MSTORE PUSH32 0x4F776E61626C653A206E6577206F776E657220697320746865207A65726F2061 PUSH1 0x44 DUP3 ADD MSTORE PUSH6 0x646472657373 PUSH1 0xD0 SHL PUSH1 0x64 DUP3 ADD MSTORE PUSH1 0x84 ADD PUSH2 0x946 JUMP JUMPDEST PUSH2 0x1E77 DUP2 PUSH2 0x2214 JUMP JUMPDEST POP JUMP JUMPDEST PUSH1 0x0 DUP2 DUP2 MSTORE PUSH1 0x67 PUSH1 0x20 MSTORE PUSH1 0x40 SWAP1 KECCAK256 SLOAD PUSH1 0x1 PUSH1 0x1 PUSH1 0xA0 SHL SUB AND PUSH2 0x1E77 JUMPI PUSH1 0x40 MLOAD PUSH3 0x461BCD PUSH1 0xE5 SHL DUP2 MSTORE PUSH1 0x20 PUSH1 0x4 DUP3 ADD MSTORE PUSH1 0x18 PUSH1 0x24 DUP3 ADD MSTORE PUSH24 0x115490CDCC8C4E881A5B9D985B1A59081D1BDAD95B881251 PUSH1 0x42 SHL PUSH1 0x44 DUP3 ADD MSTORE PUSH1 0x64 ADD PUSH2 0x946 JUMP JUMPDEST PUSH1 0x0 DUP2 DUP2 MSTORE PUSH1 0x69 PUSH1 0x20 MSTORE PUSH1 0x40 SWAP1 KECCAK256 DUP1 SLOAD PUSH1 0x1 PUSH1 0x1 PUSH1 0xA0 SHL SUB NOT AND PUSH1 0x1 PUSH1 0x1 PUSH1 0xA0 SHL SUB DUP5 AND SWAP1 DUP2 OR SWAP1 SWAP2 SSTORE DUP2 SWAP1 PUSH2 0x1F0E DUP3 PUSH2 0xFB4 JUMP JUMPDEST PUSH1 0x1 PUSH1 0x1 PUSH1 0xA0 SHL SUB AND PUSH32 0x8C5BE1E5EBEC7D5BD14F71427D1E84F3DD0314C0F7B2291E5B200AC8C7C3B925 PUSH1 0x40 MLOAD PUSH1 0x40 MLOAD DUP1 SWAP2 SUB SWAP1 LOG4 POP POP JUMP JUMPDEST PUSH2 0x964 DUP3 DUP3 PUSH1 0x40 MLOAD DUP1 PUSH1 0x20 ADD PUSH1 0x40 MSTORE DUP1 PUSH1 0x0 DUP2 MSTORE POP PUSH2 0x39C3 JUMP JUMPDEST PUSH1 0x0 DUP1 PUSH2 0x1F6D DUP4 PUSH2 0xFB4 JUMP JUMPDEST SWAP1 POP DUP1 PUSH1 0x1 PUSH1 0x1 PUSH1 0xA0 SHL SUB AND DUP5 PUSH1 0x1 PUSH1 0x1 PUSH1 0xA0 SHL SUB AND EQ DUP1 PUSH2 0x1F94 JUMPI POP PUSH2 0x1F94 DUP2 DUP6 PUSH2 0x1D35 JUMP JUMPDEST DUP1 PUSH2 0x1FB8 JUMPI POP DUP4 PUSH1 0x1 PUSH1 0x1 PUSH1 0xA0 SHL SUB AND PUSH2 0x1FAD DUP5 PUSH2 0x968 JUMP JUMPDEST PUSH1 0x1 PUSH1 0x1 PUSH1 0xA0 SHL SUB AND EQ JUMPDEST SWAP5 SWAP4 POP POP POP POP JUMP JUMPDEST DUP3 PUSH1 0x1 PUSH1 0x1 PUSH1 0xA0 SHL SUB AND PUSH2 0x1FD3 DUP3 PUSH2 0xFB4 JUMP JUMPDEST PUSH1 0x1 PUSH1 0x1 PUSH1 0xA0 SHL SUB AND EQ PUSH2 0x2037 JUMPI PUSH1 0x40 MLOAD PUSH3 0x461BCD PUSH1 0xE5 SHL DUP2 MSTORE PUSH1 0x20 PUSH1 0x4 DUP3 ADD MSTORE PUSH1 0x25 PUSH1 0x24 DUP3 ADD MSTORE PUSH32 0x4552433732313A207472616E736665722066726F6D20696E636F727265637420 PUSH1 0x44 DUP3 ADD MSTORE PUSH5 0x37BBB732B9 PUSH1 0xD9 SHL PUSH1 0x64 DUP3 ADD MSTORE PUSH1 0x84 ADD PUSH2 0x946 JUMP JUMPDEST PUSH1 0x1 PUSH1 0x1 PUSH1 0xA0 SHL SUB DUP3 AND PUSH2 0x2099 JUMPI PUSH1 0x40 MLOAD PUSH3 0x461BCD PUSH1 0xE5 SHL DUP2 MSTORE PUSH1 0x20 PUSH1 0x4 DUP3 ADD MSTORE PUSH1 0x24 DUP1 DUP3 ADD MSTORE PUSH32 0x4552433732313A207472616E7366657220746F20746865207A65726F20616464 PUSH1 0x44 DUP3 ADD MSTORE PUSH4 0x72657373 PUSH1 0xE0 SHL PUSH1 0x64 DUP3 ADD MSTORE PUSH1 0x84 ADD PUSH2 0x946 JUMP JUMPDEST PUSH2 0x20A4 DUP4 DUP4 DUP4 PUSH2 0x39F6 JUMP JUMPDEST PUSH2 0x20AF PUSH1 0x0 DUP3 PUSH2 0x1ED9 JUMP JUMPDEST PUSH1 0x1 PUSH1 0x1 PUSH1 0xA0 SHL SUB DUP4 AND PUSH1 0x0 SWAP1 DUP2 MSTORE PUSH1 0x68 PUSH1 0x20 MSTORE PUSH1 0x40 DUP2 KECCAK256 DUP1 SLOAD PUSH1 0x1 SWAP3 SWAP1 PUSH2 0x20D8 SWAP1 DUP5 SWAP1 PUSH2 0x4619 JUMP JUMPDEST SWAP1 SWAP2 SSTORE POP POP PUSH1 0x1 PUSH1 0x1 PUSH1 0xA0 SHL SUB DUP3 AND PUSH1 0x0 SWAP1 DUP2 MSTORE PUSH1 0x68 PUSH1 0x20 MSTORE PUSH1 0x40 DUP2 KECCAK256 DUP1 SLOAD PUSH1 0x1 SWAP3 SWAP1 PUSH2 0x2106 SWAP1 DUP5 SWAP1 PUSH2 0x47FC JUMP JUMPDEST SWAP1 SWAP2 SSTORE POP POP PUSH1 0x0 DUP2 DUP2 MSTORE PUSH1 0x67 PUSH1 0x20 MSTORE PUSH1 0x40 DUP1 DUP3 KECCAK256 DUP1 SLOAD PUSH1 0x1 PUSH1 0x1 PUSH1 0xA0 SHL SUB NOT AND PUSH1 0x1 PUSH1 0x1 PUSH1 0xA0 SHL SUB DUP7 DUP2 AND SWAP2 DUP3 OR SWAP1 SWAP3 SSTORE SWAP2 MLOAD DUP5 SWAP4 SWAP2 DUP8 AND SWAP2 PUSH32 0xDDF252AD1BE2C89B69C2B068FC378DAA952BA7F163C4A11628F55A4DF523B3EF SWAP2 LOG4 POP POP POP JUMP JUMPDEST PUSH2 0x216F PUSH2 0x3A5D JUMP JUMPDEST PUSH1 0x97 DUP1 SLOAD PUSH1 0xFF NOT AND SWAP1 SSTORE PUSH32 0x5DB9EE0A495BF2E6FF9C91A7834C1BA4FDD244A5E8AA4E537BD38AEAE4B073AA CALLER JUMPDEST PUSH1 0x40 MLOAD PUSH1 0x1 PUSH1 0x1 PUSH1 0xA0 SHL SUB SWAP1 SWAP2 AND DUP2 MSTORE PUSH1 0x20 ADD PUSH1 0x40 MLOAD DUP1 SWAP2 SUB SWAP1 LOG1 JUMP JUMPDEST PUSH2 0x12D SLOAD PUSH1 0x1 PUSH1 0x1 PUSH1 0xA0 SHL SUB AND CALLER EQ PUSH2 0xEEA JUMPI PUSH1 0x40 MLOAD PUSH3 0x461BCD PUSH1 0xE5 SHL DUP2 MSTORE PUSH1 0x20 PUSH1 0x4 DUP3 ADD DUP2 SWAP1 MSTORE PUSH1 0x24 DUP3 ADD MSTORE PUSH32 0x4F776E61626C653A2063616C6C6572206973206E6F7420746865206F776E6572 PUSH1 0x44 DUP3 ADD MSTORE PUSH1 0x64 ADD PUSH2 0x946 JUMP JUMPDEST PUSH2 0x12D DUP1 SLOAD PUSH1 0x1 PUSH1 0x1 PUSH1 0xA0 SHL SUB DUP4 DUP2 AND PUSH1 0x1 PUSH1 0x1 PUSH1 0xA0 SHL SUB NOT DUP4 AND DUP2 OR SWAP1 SWAP4 SSTORE PUSH1 0x40 MLOAD SWAP2 AND SWAP2 SWAP1 DUP3 SWAP1 PUSH32 0x8BE0079C531659141344CD1FD0A4F28419497F9722A3DAAFE3B4186F6B6457E0 SWAP1 PUSH1 0x0 SWAP1 LOG3 POP POP JUMP JUMPDEST PUSH1 0x0 DUP2 DUP4 GT ISZERO PUSH2 0x2279 JUMPI POP PUSH1 0x1 PUSH2 0x867 JUMP JUMPDEST DUP2 DUP4 EQ ISZERO PUSH2 0x2289 JUMPI POP PUSH1 0x3 PUSH2 0x867 JUMP JUMPDEST POP PUSH1 0x2 SWAP3 SWAP2 POP POP JUMP JUMPDEST PUSH1 0x0 DUP2 PUSH2 0x229E DUP5 PUSH2 0x38C5 JUMP JUMPDEST PUSH1 0x40 MLOAD PUSH1 0x20 ADD PUSH2 0x22AF SWAP3 SWAP2 SWAP1 PUSH2 0x47CD JUMP JUMPDEST PUSH1 0x40 DUP1 MLOAD PUSH1 0x1F NOT DUP2 DUP5 SUB ADD DUP2 MSTORE SWAP2 SWAP1 MSTORE DUP1 MLOAD PUSH1 0x20 SWAP1 SWAP2 ADD KECCAK256 SWAP4 SWAP3 POP POP POP JUMP JUMPDEST PUSH2 0x22D6 PUSH2 0x3AA6 JUMP JUMPDEST PUSH1 0x97 DUP1 SLOAD PUSH1 0xFF NOT AND PUSH1 0x1 OR SWAP1 SSTORE PUSH32 0x62E78CEA01BEE320CD4E420270B5EA74000D11B0C9F74754EBDBFC544B05A258 PUSH2 0x219C CALLER SWAP1 JUMP JUMPDEST PUSH1 0x0 SLOAD PUSH2 0x100 SWAP1 DIV PUSH1 0xFF AND PUSH2 0x2332 JUMPI PUSH1 0x40 MLOAD PUSH3 0x461BCD PUSH1 0xE5 SHL DUP2 MSTORE PUSH1 0x4 ADD PUSH2 0x946 SWAP1 PUSH2 0x4814 JUMP JUMPDEST PUSH2 0x964 DUP3 DUP3 PUSH2 0x3AEC JUMP JUMPDEST DUP2 PUSH1 0x1 PUSH1 0x1 PUSH1 0xA0 SHL SUB AND DUP4 PUSH1 0x1 PUSH1 0x1 PUSH1 0xA0 SHL SUB AND EQ ISZERO PUSH2 0x239E JUMPI PUSH1 0x40 MLOAD PUSH3 0x461BCD PUSH1 0xE5 SHL DUP2 MSTORE PUSH1 0x20 PUSH1 0x4 DUP3 ADD MSTORE PUSH1 0x19 PUSH1 0x24 DUP3 ADD MSTORE PUSH32 0x4552433732313A20617070726F766520746F2063616C6C657200000000000000 PUSH1 0x44 DUP3 ADD MSTORE PUSH1 0x64 ADD PUSH2 0x946 JUMP JUMPDEST PUSH1 0x1 PUSH1 0x1 PUSH1 0xA0 SHL SUB DUP4 DUP2 AND PUSH1 0x0 DUP2 DUP2 MSTORE PUSH1 0x6A PUSH1 0x20 SWAP1 DUP2 MSTORE PUSH1 0x40 DUP1 DUP4 KECCAK256 SWAP5 DUP8 AND DUP1 DUP5 MSTORE SWAP5 DUP3 MSTORE SWAP2 DUP3 SWAP1 KECCAK256 DUP1 SLOAD PUSH1 0xFF NOT AND DUP7 ISZERO ISZERO SWAP1 DUP2 OR SWAP1 SWAP2 SSTORE SWAP2 MLOAD SWAP2 DUP3 MSTORE PUSH32 0x17307EAB39AB6107E8899845AD3D59BD9653F200F220920489CA2B5937696C31 SWAP2 ADD PUSH1 0x40 MLOAD DUP1 SWAP2 SUB SWAP1 LOG3 POP POP POP JUMP JUMPDEST PUSH2 0x2416 DUP5 DUP5 DUP5 PUSH2 0x1FC0 JUMP JUMPDEST PUSH2 0x2422 DUP5 DUP5 DUP5 DUP5 PUSH2 0x3B3A JUMP JUMPDEST PUSH2 0x1980 JUMPI PUSH1 0x40 MLOAD PUSH3 0x461BCD PUSH1 0xE5 SHL DUP2 MSTORE PUSH1 0x4 ADD PUSH2 0x946 SWAP1 PUSH2 0x485F JUMP JUMPDEST PUSH1 0x40 DUP1 MLOAD PUSH2 0x440 DUP2 ADD DUP3 MSTORE PUSH1 0x5 PUSH2 0x400 DUP3 ADD DUP2 DUP2 MSTORE PUSH5 0x28B0BA30B9 PUSH1 0xD9 SHL PUSH2 0x420 DUP5 ADD MSTORE DUP3 MSTORE DUP3 MLOAD DUP1 DUP5 ADD DUP5 MSTORE PUSH1 0x7 DUP1 DUP3 MSTORE PUSH7 0x22B1BAB0B237B9 PUSH1 0xC9 SHL PUSH1 0x20 DUP4 DUP2 ADD SWAP2 SWAP1 SWAP2 MSTORE DUP1 DUP6 ADD SWAP3 SWAP1 SWAP3 MSTORE DUP5 MLOAD DUP1 DUP7 ADD DUP7 MSTORE DUP2 DUP2 MSTORE PUSH7 0x14D95B9959D85B PUSH1 0xCA SHL DUP2 DUP5 ADD MSTORE DUP5 DUP7 ADD MSTORE DUP5 MLOAD DUP1 DUP7 ADD DUP7 MSTORE PUSH1 0xB DUP1 DUP3 MSTORE PUSH11 0x4E65746865726C616E6473 PUSH1 0xA8 SHL DUP3 DUP6 ADD MSTORE PUSH1 0x60 DUP7 DUP2 ADD SWAP3 SWAP1 SWAP3 MSTORE DUP7 MLOAD DUP1 DUP9 ADD DUP9 MSTORE DUP4 DUP2 MSTORE PUSH7 0x115B99DB185B99 PUSH1 0xCA SHL DUP2 DUP7 ADD MSTORE PUSH1 0x80 DUP8 ADD MSTORE DUP7 MLOAD DUP1 DUP9 ADD DUP9 MSTORE DUP4 DUP2 MSTORE PUSH7 0x24A91024B930B7 PUSH1 0xC9 SHL DUP2 DUP7 ADD MSTORE PUSH1 0xA0 DUP8 ADD MSTORE DUP7 MLOAD DUP1 DUP9 ADD DUP9 MSTORE PUSH1 0x3 DUP2 MSTORE PUSH3 0x555341 PUSH1 0xE8 SHL DUP2 DUP7 ADD MSTORE PUSH1 0xC0 DUP8 ADD MSTORE DUP7 MLOAD DUP1 DUP9 ADD DUP9 MSTORE DUP6 DUP2 MSTORE PUSH5 0x57616C6573 PUSH1 0xD8 SHL DUP2 DUP7 ADD MSTORE PUSH1 0xE0 DUP8 ADD MSTORE DUP7 MLOAD DUP1 DUP9 ADD DUP9 MSTORE PUSH1 0x9 DUP1 DUP3 MSTORE PUSH9 0x417267656E74696E61 PUSH1 0xB8 SHL DUP3 DUP8 ADD MSTORE PUSH2 0x100 DUP9 ADD SWAP2 SWAP1 SWAP2 MSTORE DUP8 MLOAD DUP1 DUP10 ADD DUP10 MSTORE PUSH1 0xC DUP2 MSTORE PUSH12 0x536175646920417261626961 PUSH1 0xA0 SHL DUP2 DUP8 ADD MSTORE PUSH2 0x120 DUP9 ADD MSTORE DUP8 MLOAD DUP1 DUP10 ADD DUP10 MSTORE PUSH1 0x6 DUP1 DUP3 MSTORE PUSH6 0x4D657869636F PUSH1 0xD0 SHL DUP3 DUP9 ADD MSTORE PUSH2 0x140 DUP10 ADD SWAP2 SWAP1 SWAP2 MSTORE DUP9 MLOAD DUP1 DUP11 ADD DUP11 MSTORE DUP2 DUP2 MSTORE PUSH6 0x141BDB185B99 PUSH1 0xD2 SHL DUP2 DUP9 ADD MSTORE PUSH2 0x160 DUP10 ADD MSTORE DUP9 MLOAD DUP1 DUP11 ADD DUP11 MSTORE DUP2 DUP2 MSTORE PUSH6 0x4672616E6365 PUSH1 0xD0 SHL DUP2 DUP9 ADD MSTORE PUSH2 0x180 DUP10 ADD MSTORE DUP9 MLOAD DUP1 DUP11 ADD DUP11 MSTORE SWAP2 DUP3 MSTORE PUSH9 0x4175737472616C6961 PUSH1 0xB8 SHL DUP3 DUP8 ADD MSTORE PUSH2 0x1A0 DUP9 ADD SWAP2 SWAP1 SWAP2 MSTORE DUP8 MLOAD DUP1 DUP10 ADD DUP10 MSTORE DUP5 DUP2 MSTORE PUSH7 0x44656E6D61726B PUSH1 0xC8 SHL DUP2 DUP8 ADD MSTORE PUSH2 0x1C0 DUP9 ADD MSTORE DUP8 MLOAD DUP1 DUP10 ADD DUP10 MSTORE DUP5 DUP2 MSTORE PUSH7 0x54756E69736961 PUSH1 0xC8 SHL DUP2 DUP8 ADD MSTORE PUSH2 0x1E0 DUP9 ADD MSTORE DUP8 MLOAD DUP1 DUP10 ADD DUP10 MSTORE DUP7 DUP2 MSTORE PUSH5 0x29B830B4B7 PUSH1 0xD9 SHL DUP2 DUP8 ADD MSTORE PUSH2 0x200 DUP9 ADD MSTORE DUP8 MLOAD DUP1 DUP10 ADD DUP10 MSTORE PUSH1 0xA DUP2 MSTORE PUSH10 0x436F7374612052696361 PUSH1 0xB0 SHL DUP2 DUP8 ADD MSTORE PUSH2 0x220 DUP9 ADD MSTORE DUP8 MLOAD DUP1 DUP10 ADD DUP10 MSTORE DUP5 DUP2 MSTORE PUSH7 0x4765726D616E79 PUSH1 0xC8 SHL DUP2 DUP8 ADD MSTORE PUSH2 0x240 DUP9 ADD MSTORE DUP8 MLOAD DUP1 DUP10 ADD DUP10 MSTORE DUP7 DUP2 MSTORE PUSH5 0x2530B830B7 PUSH1 0xD9 SHL DUP2 DUP8 ADD MSTORE PUSH2 0x260 DUP9 ADD MSTORE DUP8 MLOAD DUP1 DUP10 ADD DUP10 MSTORE DUP5 DUP2 MSTORE PUSH7 0x42656C6769756D PUSH1 0xC8 SHL DUP2 DUP8 ADD MSTORE PUSH2 0x280 DUP9 ADD MSTORE DUP8 MLOAD DUP1 DUP10 ADD DUP10 MSTORE DUP2 DUP2 MSTORE PUSH6 0x43616E616461 PUSH1 0xD0 SHL DUP2 DUP8 ADD MSTORE PUSH2 0x2A0 DUP9 ADD MSTORE DUP8 MLOAD DUP1 DUP10 ADD DUP10 MSTORE DUP5 DUP2 MSTORE PUSH7 0x4D6F726F63636F PUSH1 0xC8 SHL DUP2 DUP8 ADD MSTORE PUSH2 0x2C0 DUP9 ADD MSTORE DUP8 MLOAD DUP1 DUP10 ADD DUP10 MSTORE DUP5 DUP2 MSTORE PUSH7 0x43726F61746961 PUSH1 0xC8 SHL DUP2 DUP8 ADD MSTORE PUSH2 0x2E0 DUP9 ADD MSTORE DUP8 MLOAD DUP1 DUP10 ADD DUP10 MSTORE DUP2 DUP2 MSTORE PUSH6 0x109C985E9A5B PUSH1 0xD2 SHL DUP2 DUP8 ADD MSTORE PUSH2 0x300 DUP9 ADD MSTORE DUP8 MLOAD DUP1 DUP10 ADD DUP10 MSTORE DUP2 DUP2 MSTORE PUSH6 0x536572626961 PUSH1 0xD0 SHL DUP2 DUP8 ADD MSTORE PUSH2 0x320 DUP9 ADD MSTORE DUP8 MLOAD DUP1 DUP10 ADD DUP10 MSTORE SWAP2 DUP3 MSTORE PUSH11 0x14DDDA5D1E995C9B185B99 PUSH1 0xAA SHL DUP3 DUP7 ADD MSTORE PUSH2 0x340 DUP8 ADD SWAP2 SWAP1 SWAP2 MSTORE DUP7 MLOAD DUP1 DUP9 ADD DUP9 MSTORE PUSH1 0x8 DUP1 DUP3 MSTORE PUSH8 0x21B0B6B2B937B7B7 PUSH1 0xC1 SHL DUP3 DUP8 ADD MSTORE PUSH2 0x360 DUP9 ADD SWAP2 SWAP1 SWAP2 MSTORE DUP8 MLOAD DUP1 DUP10 ADD DUP10 MSTORE SWAP1 DUP2 MSTORE PUSH8 0x141BDC9D1D59D85B PUSH1 0xC2 SHL DUP2 DUP7 ADD MSTORE PUSH2 0x380 DUP8 ADD MSTORE DUP7 MLOAD DUP1 DUP9 ADD DUP9 MSTORE SWAP5 DUP6 MSTORE PUSH5 0x4768616E61 PUSH1 0xD8 SHL DUP6 DUP6 ADD MSTORE PUSH2 0x3A0 DUP7 ADD SWAP5 SWAP1 SWAP5 MSTORE DUP6 MLOAD DUP1 DUP8 ADD DUP8 MSTORE SWAP2 DUP3 MSTORE PUSH7 0x55727567756179 PUSH1 0xC8 SHL DUP3 DUP5 ADD MSTORE PUSH2 0x3C0 DUP6 ADD SWAP2 SWAP1 SWAP2 MSTORE DUP5 MLOAD DUP1 DUP7 ADD DUP7 MSTORE PUSH1 0xE DUP2 MSTORE PUSH14 0x4B6F7265612052657075626C6963 PUSH1 0x90 SHL DUP2 DUP5 ADD MSTORE PUSH2 0x3E0 DUP6 ADD MSTORE DUP5 MLOAD DUP1 DUP7 ADD SWAP1 SWAP6 MSTORE SWAP2 DUP5 MSTORE PUSH6 0x3730BA34B7B7 PUSH1 0xD1 SHL DUP5 DUP3 ADD MSTORE SWAP1 SWAP3 DUP3 SWAP2 SWAP1 PUSH2 0x287F SWAP1 DUP7 SWAP1 PUSH2 0x2292 JUMP JUMPDEST PUSH2 0x2889 SWAP2 SWAP1 PUSH2 0x47B9 JUMP JUMPDEST PUSH1 0x20 DUP2 LT PUSH2 0x2899 JUMPI PUSH2 0x2899 PUSH2 0x4630 JUMP JUMPDEST PUSH1 0x20 MUL ADD MLOAD SWAP4 SWAP3 POP POP POP JUMP JUMPDEST PUSH1 0x60 PUSH2 0x28AF PUSH2 0x3E48 JUMP JUMPDEST PUSH1 0x0 PUSH1 0x40 MLOAD DUP1 PUSH1 0x60 ADD PUSH1 0x40 MSTORE DUP1 PUSH1 0x40 MLOAD DUP1 PUSH1 0x40 ADD PUSH1 0x40 MSTORE DUP1 PUSH1 0x1 DUP2 MSTORE PUSH1 0x20 ADD PUSH1 0x31 PUSH1 0xF8 SHL DUP2 MSTORE POP DUP2 MSTORE PUSH1 0x20 ADD PUSH1 0x40 MLOAD DUP1 PUSH1 0x40 ADD PUSH1 0x40 MSTORE DUP1 PUSH1 0x1 DUP2 MSTORE PUSH1 0x20 ADD PUSH1 0x19 PUSH1 0xF9 SHL DUP2 MSTORE POP DUP2 MSTORE PUSH1 0x20 ADD PUSH1 0x40 MLOAD DUP1 PUSH1 0x40 ADD PUSH1 0x40 MSTORE DUP1 PUSH1 0x1 DUP2 MSTORE PUSH1 0x20 ADD PUSH1 0x33 PUSH1 0xF8 SHL DUP2 MSTORE POP DUP2 MSTORE POP SWAP1 POP DUP1 PUSH1 0x3 PUSH2 0x2949 DUP7 PUSH1 0x40 MLOAD DUP1 PUSH1 0x40 ADD PUSH1 0x40 MSTORE DUP1 PUSH1 0xB DUP2 MSTORE PUSH1 0x20 ADD PUSH11 0x656D6F74696F6E54696D65 PUSH1 0xA8 SHL DUP2 MSTORE POP PUSH2 0x2292 JUMP JUMPDEST PUSH2 0x2953 SWAP2 SWAP1 PUSH2 0x47B9 JUMP JUMPDEST PUSH1 0x3 DUP2 LT PUSH2 0x2963 JUMPI PUSH2 0x2963 PUSH2 0x4630 JUMP JUMPDEST PUSH1 0x20 MUL ADD MLOAD SWAP5 SWAP1 SWAP4 POP SWAP2 POP POP JUMP JUMPDEST PUSH1 0x0 DUP2 PUSH1 0x40 MLOAD PUSH1 0x20 ADD PUSH2 0x2984 SWAP2 SWAP1 PUSH2 0x4646 JUMP JUMPDEST PUSH1 0x40 MLOAD PUSH1 0x20 DUP2 DUP4 SUB SUB DUP2 MSTORE SWAP1 PUSH1 0x40 MSTORE DUP1 MLOAD SWAP1 PUSH1 0x20 ADD KECCAK256 DUP4 PUSH1 0x40 MLOAD PUSH1 0x20 ADD PUSH2 0x29AB SWAP2 SWAP1 PUSH2 0x4646 JUMP JUMPDEST PUSH1 0x40 MLOAD PUSH1 0x20 DUP2 DUP4 SUB SUB DUP2 MSTORE SWAP1 PUSH1 0x40 MSTORE DUP1 MLOAD SWAP1 PUSH1 0x20 ADD KECCAK256 EQ SWAP1 POP SWAP3 SWAP2 POP POP JUMP JUMPDEST PUSH1 0x40 DUP1 MLOAD PUSH2 0x100 DUP2 ADD DUP3 MSTORE PUSH1 0x1 PUSH1 0xC0 DUP3 ADD DUP2 DUP2 MSTORE PUSH1 0x31 PUSH1 0xF8 SHL PUSH1 0xE0 DUP5 ADD MSTORE DUP3 MSTORE DUP3 MLOAD DUP1 DUP5 ADD DUP5 MSTORE DUP2 DUP2 MSTORE PUSH1 0x19 PUSH1 0xF9 SHL PUSH1 0x20 DUP3 DUP2 ADD SWAP2 SWAP1 SWAP2 MSTORE DUP1 DUP5 ADD SWAP2 SWAP1 SWAP2 MSTORE DUP4 MLOAD DUP1 DUP6 ADD DUP6 MSTORE DUP3 DUP2 MSTORE PUSH1 0x33 PUSH1 0xF8 SHL DUP2 DUP4 ADD MSTORE DUP4 DUP6 ADD MSTORE DUP4 MLOAD DUP1 DUP6 ADD DUP6 MSTORE DUP3 DUP2 MSTORE PUSH1 0xD PUSH1 0xFA SHL DUP2 DUP4 ADD MSTORE PUSH1 0x60 DUP5 DUP2 ADD SWAP2 SWAP1 SWAP2 MSTORE DUP5 MLOAD DUP1 DUP7 ADD DUP7 MSTORE DUP4 DUP2 MSTORE PUSH1 0x35 PUSH1 0xF8 SHL DUP2 DUP5 ADD MSTORE PUSH1 0x80 DUP6 ADD MSTORE DUP5 MLOAD DUP1 DUP7 ADD DUP7 MSTORE DUP4 DUP2 MSTORE PUSH1 0x1B PUSH1 0xF9 SHL DUP2 DUP5 ADD MSTORE PUSH1 0xA0 DUP6 ADD MSTORE DUP5 MLOAD DUP1 DUP7 ADD SWAP1 SWAP6 MSTORE PUSH1 0x3 DUP6 MSTORE PUSH3 0x646E61 PUSH1 0xE8 SHL SWAP2 DUP6 ADD SWAP2 SWAP1 SWAP2 MSTORE SWAP3 PUSH1 0x0 SWAP2 PUSH2 0x2A98 SWAP2 DUP7 SWAP2 PUSH2 0x2710 PUSH2 0x3C38 JUMP JUMPDEST SWAP1 POP PUSH2 0xBB8 DUP2 GT ISZERO PUSH2 0x2AB5 JUMPI DUP2 PUSH1 0x0 JUMPDEST PUSH1 0x20 MUL ADD MLOAD SWAP5 SWAP4 POP POP POP POP JUMP JUMPDEST PUSH1 0x1 DUP2 LT ISZERO DUP1 ISZERO PUSH2 0x2AC8 JUMPI POP PUSH2 0x7D0 DUP2 GT ISZERO JUMPDEST ISZERO PUSH2 0x2AD5 JUMPI DUP2 PUSH1 0x1 PUSH2 0x2AA8 JUMP JUMPDEST PUSH2 0x7D1 DUP2 LT ISZERO DUP1 ISZERO PUSH2 0x2AE9 JUMPI POP PUSH2 0xA28 DUP2 GT ISZERO JUMPDEST ISZERO PUSH2 0x2AF6 JUMPI DUP2 PUSH1 0x2 PUSH2 0x2AA8 JUMP JUMPDEST PUSH2 0xA29 DUP2 LT ISZERO DUP1 ISZERO PUSH2 0x2B0A JUMPI POP PUSH2 0xB54 DUP2 GT ISZERO JUMPDEST ISZERO PUSH2 0x2B17 JUMPI DUP2 PUSH1 0x3 PUSH2 0x2AA8 JUMP JUMPDEST PUSH2 0xB55 DUP2 LT ISZERO DUP1 ISZERO PUSH2 0x2B2B JUMPI POP PUSH2 0xBAE DUP2 GT ISZERO JUMPDEST ISZERO PUSH2 0x2B38 JUMPI DUP2 PUSH1 0x4 PUSH2 0x2AA8 JUMP JUMPDEST DUP2 PUSH1 0x5 PUSH2 0x2AA8 JUMP JUMPDEST PUSH1 0x40 DUP1 MLOAD PUSH1 0xA0 DUP2 ADD DUP3 MSTORE PUSH1 0x1 PUSH1 0x60 DUP3 DUP2 ADD DUP3 DUP2 MSTORE PUSH1 0x3 PUSH1 0xFC SHL PUSH1 0x80 DUP6 ADD MSTORE DUP4 MSTORE DUP4 MLOAD DUP1 DUP6 ADD DUP6 MSTORE DUP3 DUP2 MSTORE PUSH1 0x31 PUSH1 0xF8 SHL PUSH1 0x20 DUP3 DUP2 ADD SWAP2 SWAP1 SWAP2 MSTORE DUP1 DUP6 ADD SWAP2 SWAP1 SWAP2 MSTORE DUP5 MLOAD DUP1 DUP7 ADD DUP7 MSTORE SWAP3 DUP4 MSTORE PUSH1 0x19 PUSH1 0xF9 SHL SWAP1 DUP4 ADD MSTORE SWAP3 DUP3 ADD MSTORE PUSH1 0x0 PUSH2 0x2BA1 DUP5 PUSH2 0x29CA JUMP JUMPDEST SWAP1 POP PUSH2 0x2BC6 DUP2 PUSH1 0x40 MLOAD DUP1 PUSH1 0x40 ADD PUSH1 0x40 MSTORE DUP1 PUSH1 0x1 DUP2 MSTORE PUSH1 0x20 ADD PUSH1 0x31 PUSH1 0xF8 SHL DUP2 MSTORE POP PUSH2 0x2971 JUMP JUMPDEST ISZERO PUSH2 0x2C0F JUMPI DUP2 PUSH1 0x3 PUSH2 0x2BF5 DUP7 PUSH1 0x40 MLOAD DUP1 PUSH1 0x40 ADD PUSH1 0x40 MSTORE DUP1 PUSH1 0x5 DUP2 MSTORE PUSH1 0x20 ADD PUSH5 0x1899585C99 PUSH1 0xDA SHL DUP2 MSTORE POP PUSH2 0x2292 JUMP JUMPDEST PUSH2 0x2BFF SWAP2 SWAP1 PUSH2 0x47B9 JUMP JUMPDEST PUSH1 0x3 DUP2 LT PUSH2 0x2AA8 JUMPI PUSH2 0x2AA8 PUSH2 0x4630 JUMP JUMPDEST POP POP PUSH1 0x40 DUP1 MLOAD DUP1 DUP3 ADD SWAP1 SWAP2 MSTORE PUSH1 0x1 DUP2 MSTORE PUSH1 0x3 PUSH1 0xFC SHL PUSH1 0x20 DUP3 ADD MSTORE SWAP3 SWAP2 POP POP JUMP JUMPDEST PUSH1 0x60 PUSH1 0x0 PUSH1 0x40 MLOAD DUP1 PUSH2 0x140 ADD PUSH1 0x40 MSTORE DUP1 PUSH1 0x40 MLOAD DUP1 PUSH1 0x40 ADD PUSH1 0x40 MSTORE DUP1 PUSH1 0x1 DUP2 MSTORE PUSH1 0x20 ADD PUSH1 0x3 PUSH1 0xFC SHL DUP2 MSTORE POP DUP2 MSTORE PUSH1 0x20 ADD PUSH1 0x40 MLOAD DUP1 PUSH1 0x40 ADD PUSH1 0x40 MSTORE DUP1 PUSH1 0x1 DUP2 MSTORE PUSH1 0x20 ADD PUSH1 0x31 PUSH1 0xF8 SHL DUP2 MSTORE POP DUP2 MSTORE PUSH1 0x20 ADD PUSH1 0x40 MLOAD DUP1 PUSH1 0x40 ADD PUSH1 0x40 MSTORE DUP1 PUSH1 0x1 DUP2 MSTORE PUSH1 0x20 ADD PUSH1 0x19 PUSH1 0xF9 SHL DUP2 MSTORE POP DUP2 MSTORE PUSH1 0x20 ADD PUSH1 0x40 MLOAD DUP1 PUSH1 0x40 ADD PUSH1 0x40 MSTORE DUP1 PUSH1 0x1 DUP2 MSTORE PUSH1 0x20 ADD PUSH1 0x33 PUSH1 0xF8 SHL DUP2 MSTORE POP DUP2 MSTORE PUSH1 0x20 ADD PUSH1 0x40 MLOAD DUP1 PUSH1 0x40 ADD PUSH1 0x40 MSTORE DUP1 PUSH1 0x1 DUP2 MSTORE PUSH1 0x20 ADD PUSH1 0xD PUSH1 0xFA SHL DUP2 MSTORE POP DUP2 MSTORE PUSH1 0x20 ADD PUSH1 0x40 MLOAD DUP1 PUSH1 0x40 ADD PUSH1 0x40 MSTORE DUP1 PUSH1 0x1 DUP2 MSTORE PUSH1 0x20 ADD PUSH1 0x35 PUSH1 0xF8 SHL DUP2 MSTORE POP DUP2 MSTORE PUSH1 0x20 ADD PUSH1 0x40 MLOAD DUP1 PUSH1 0x40 ADD PUSH1 0x40 MSTORE DUP1 PUSH1 0x1 DUP2 MSTORE PUSH1 0x20 ADD PUSH1 0x1B PUSH1 0xF9 SHL DUP2 MSTORE POP DUP2 MSTORE PUSH1 0x20 ADD PUSH1 0x40 MLOAD DUP1 PUSH1 0x40 ADD PUSH1 0x40 MSTORE DUP1 PUSH1 0x1 DUP2 MSTORE PUSH1 0x20 ADD PUSH1 0x37 PUSH1 0xF8 SHL DUP2 MSTORE POP DUP2 MSTORE PUSH1 0x20 ADD PUSH1 0x40 MLOAD DUP1 PUSH1 0x40 ADD PUSH1 0x40 MSTORE DUP1 PUSH1 0x1 DUP2 MSTORE PUSH1 0x20 ADD PUSH1 0x7 PUSH1 0xFB SHL DUP2 MSTORE POP DUP2 MSTORE PUSH1 0x20 ADD PUSH1 0x40 MLOAD DUP1 PUSH1 0x40 ADD PUSH1 0x40 MSTORE DUP1 PUSH1 0x1 DUP2 MSTORE PUSH1 0x20 ADD PUSH1 0x39 PUSH1 0xF8 SHL DUP2 MSTORE POP DUP2 MSTORE POP SWAP1 POP PUSH1 0x0 PUSH1 0x40 MLOAD DUP1 PUSH1 0xE0 ADD PUSH1 0x40 MSTORE DUP1 PUSH1 0x40 MLOAD DUP1 PUSH1 0x40 ADD PUSH1 0x40 MSTORE DUP1 PUSH1 0x1 DUP2 MSTORE PUSH1 0x20 ADD PUSH1 0x31 PUSH1 0xF8 SHL DUP2 MSTORE POP DUP2 MSTORE PUSH1 0x20 ADD PUSH1 0x40 MLOAD DUP1 PUSH1 0x40 ADD PUSH1 0x40 MSTORE DUP1 PUSH1 0x1 DUP2 MSTORE PUSH1 0x20 ADD PUSH1 0x19 PUSH1 0xF9 SHL DUP2 MSTORE POP DUP2 MSTORE PUSH1 0x20 ADD PUSH1 0x40 MLOAD DUP1 PUSH1 0x40 ADD PUSH1 0x40 MSTORE DUP1 PUSH1 0x1 DUP2 MSTORE PUSH1 0x20 ADD PUSH1 0x33 PUSH1 0xF8 SHL DUP2 MSTORE POP DUP2 MSTORE PUSH1 0x20 ADD PUSH1 0x40 MLOAD DUP1 PUSH1 0x40 ADD PUSH1 0x40 MSTORE DUP1 PUSH1 0x1 DUP2 MSTORE PUSH1 0x20 ADD PUSH1 0xD PUSH1 0xFA SHL DUP2 MSTORE POP DUP2 MSTORE PUSH1 0x20 ADD PUSH1 0x40 MLOAD DUP1 PUSH1 0x40 ADD PUSH1 0x40 MSTORE DUP1 PUSH1 0x1 DUP2 MSTORE PUSH1 0x20 ADD PUSH1 0x35 PUSH1 0xF8 SHL DUP2 MSTORE POP DUP2 MSTORE PUSH1 0x20 ADD PUSH1 0x40 MLOAD DUP1 PUSH1 0x40 ADD PUSH1 0x40 MSTORE DUP1 PUSH1 0x1 DUP2 MSTORE PUSH1 0x20 ADD PUSH1 0x1B PUSH1 0xF9 SHL DUP2 MSTORE POP DUP2 MSTORE PUSH1 0x20 ADD PUSH1 0x40 MLOAD DUP1 PUSH1 0x40 ADD PUSH1 0x40 MSTORE DUP1 PUSH1 0x1 DUP2 MSTORE PUSH1 0x20 ADD PUSH1 0x37 PUSH1 0xF8 SHL DUP2 MSTORE POP DUP2 MSTORE POP SWAP1 POP PUSH1 0x0 PUSH2 0x2E66 DUP6 PUSH2 0x29CA JUMP JUMPDEST SWAP1 POP PUSH2 0x2E8B DUP2 PUSH1 0x40 MLOAD DUP1 PUSH1 0x40 ADD PUSH1 0x40 MSTORE DUP1 PUSH1 0x1 DUP2 MSTORE PUSH1 0x20 ADD PUSH1 0x19 PUSH1 0xF9 SHL DUP2 MSTORE POP PUSH2 0x2971 JUMP JUMPDEST ISZERO PUSH2 0x2EE1 JUMPI DUP2 PUSH1 0x7 PUSH2 0x2EB9 DUP8 PUSH1 0x40 MLOAD DUP1 PUSH1 0x40 ADD PUSH1 0x40 MSTORE DUP1 PUSH1 0x4 DUP2 MSTORE PUSH1 0x20 ADD PUSH4 0x3430B4B9 PUSH1 0xE1 SHL DUP2 MSTORE POP PUSH2 0x2292 JUMP JUMPDEST PUSH2 0x2EC3 SWAP2 SWAP1 PUSH2 0x47B9 JUMP JUMPDEST PUSH1 0x7 DUP2 LT PUSH2 0x2ED3 JUMPI PUSH2 0x2ED3 PUSH2 0x4630 JUMP JUMPDEST PUSH1 0x20 MUL ADD MLOAD SWAP6 SWAP5 POP POP POP POP POP JUMP JUMPDEST PUSH2 0x2F04 DUP2 PUSH1 0x40 MLOAD DUP1 PUSH1 0x40 ADD PUSH1 0x40 MSTORE DUP1 PUSH1 0x1 DUP2 MSTORE PUSH1 0x20 ADD PUSH1 0x31 PUSH1 0xF8 SHL DUP2 MSTORE POP PUSH2 0x2971 JUMP JUMPDEST ISZERO PUSH2 0x2F4C JUMPI DUP3 PUSH1 0xA PUSH2 0x2F32 DUP8 PUSH1 0x40 MLOAD DUP1 PUSH1 0x40 ADD PUSH1 0x40 MSTORE DUP1 PUSH1 0x4 DUP2 MSTORE PUSH1 0x20 ADD PUSH4 0x3430B4B9 PUSH1 0xE1 SHL DUP2 MSTORE POP PUSH2 0x2292 JUMP JUMPDEST PUSH2 0x2F3C SWAP2 SWAP1 PUSH2 0x47B9 JUMP JUMPDEST PUSH1 0xA DUP2 LT PUSH2 0x2ED3 JUMPI PUSH2 0x2ED3 PUSH2 0x4630 JUMP JUMPDEST POP POP PUSH1 0x40 DUP1 MLOAD DUP1 DUP3 ADD SWAP1 SWAP2 MSTORE PUSH1 0x1 DUP2 MSTORE PUSH1 0x3 PUSH1 0xFC SHL PUSH1 0x20 DUP3 ADD MSTORE SWAP4 SWAP3 POP POP POP JUMP JUMPDEST PUSH1 0x40 DUP1 MLOAD PUSH2 0x260 DUP2 ADD DUP3 MSTORE PUSH1 0x1 PUSH2 0x220 DUP3 ADD DUP2 DUP2 MSTORE PUSH1 0x31 PUSH1 0xF8 SHL PUSH2 0x240 DUP5 ADD MSTORE DUP3 MSTORE DUP3 MLOAD DUP1 DUP5 ADD DUP5 MSTORE DUP2 DUP2 MSTORE PUSH1 0x19 PUSH1 0xF9 SHL PUSH1 0x20 DUP3 DUP2 ADD SWAP2 SWAP1 SWAP2 MSTORE DUP1 DUP5 ADD SWAP2 SWAP1 SWAP2 MSTORE DUP4 MLOAD DUP1 DUP6 ADD DUP6 MSTORE DUP3 DUP2 MSTORE PUSH1 0x33 PUSH1 0xF8 SHL DUP2 DUP4 ADD MSTORE DUP4 DUP6 ADD MSTORE DUP4 MLOAD DUP1 DUP6 ADD DUP6 MSTORE DUP3 DUP2 MSTORE PUSH1 0xD PUSH1 0xFA SHL DUP2 DUP4 ADD MSTORE PUSH1 0x60 DUP5 DUP2 ADD SWAP2 SWAP1 SWAP2 MSTORE DUP5 MLOAD DUP1 DUP7 ADD DUP7 MSTORE DUP4 DUP2 MSTORE PUSH1 0x35 PUSH1 0xF8 SHL DUP2 DUP5 ADD MSTORE PUSH1 0x80 DUP6 ADD MSTORE DUP5 MLOAD DUP1 DUP7 ADD DUP7 MSTORE DUP4 DUP2 MSTORE PUSH1 0x1B PUSH1 0xF9 SHL DUP2 DUP5 ADD MSTORE PUSH1 0xA0 DUP6 ADD MSTORE DUP5 MLOAD DUP1 DUP7 ADD DUP7 MSTORE DUP4 DUP2 MSTORE PUSH1 0x37 PUSH1 0xF8 SHL DUP2 DUP5 ADD MSTORE PUSH1 0xC0 DUP6 ADD MSTORE DUP5 MLOAD DUP1 DUP7 ADD DUP7 MSTORE DUP4 DUP2 MSTORE PUSH1 0x7 PUSH1 0xFB SHL DUP2 DUP5 ADD MSTORE PUSH1 0xE0 DUP6 ADD MSTORE DUP5 MLOAD DUP1 DUP7 ADD DUP7 MSTORE SWAP3 DUP4 MSTORE PUSH1 0x39 PUSH1 0xF8 SHL DUP4 DUP4 ADD MSTORE PUSH2 0x100 DUP5 ADD SWAP3 SWAP1 SWAP3 MSTORE DUP4 MLOAD DUP1 DUP6 ADD DUP6 MSTORE PUSH1 0x2 DUP1 DUP3 MSTORE PUSH2 0x313 PUSH1 0xF4 SHL DUP3 DUP5 ADD MSTORE PUSH2 0x120 DUP6 ADD SWAP2 SWAP1 SWAP2 MSTORE DUP5 MLOAD DUP1 DUP7 ADD DUP7 MSTORE DUP2 DUP2 MSTORE PUSH2 0x3131 PUSH1 0xF0 SHL DUP2 DUP5 ADD MSTORE PUSH2 0x140 DUP6 ADD MSTORE DUP5 MLOAD DUP1 DUP7 ADD DUP7 MSTORE DUP2 DUP2 MSTORE PUSH2 0x1899 PUSH1 0xF1 SHL DUP2 DUP5 ADD MSTORE PUSH2 0x160 DUP6 ADD MSTORE DUP5 MLOAD DUP1 DUP7 ADD DUP7 MSTORE DUP2 DUP2 MSTORE PUSH2 0x3133 PUSH1 0xF0 SHL DUP2 DUP5 ADD MSTORE PUSH2 0x180 DUP6 ADD MSTORE DUP5 MLOAD DUP1 DUP7 ADD DUP7 MSTORE DUP2 DUP2 MSTORE PUSH2 0xC4D PUSH1 0xF2 SHL DUP2 DUP5 ADD MSTORE PUSH2 0x1A0 DUP6 ADD MSTORE DUP5 MLOAD DUP1 DUP7 ADD DUP7 MSTORE DUP2 DUP2 MSTORE PUSH2 0x3135 PUSH1 0xF0 SHL DUP2 DUP5 ADD MSTORE PUSH2 0x1C0 DUP6 ADD MSTORE DUP5 MLOAD DUP1 DUP7 ADD DUP7 MSTORE DUP2 DUP2 MSTORE PUSH2 0x189B PUSH1 0xF1 SHL DUP2 DUP5 ADD MSTORE PUSH2 0x1E0 DUP6 ADD MSTORE DUP5 MLOAD DUP1 DUP7 ADD SWAP1 SWAP6 MSTORE DUP5 MSTORE PUSH2 0x3137 PUSH1 0xF0 SHL SWAP1 DUP5 ADD MSTORE PUSH2 0x200 DUP3 ADD SWAP3 SWAP1 SWAP3 MSTORE PUSH1 0x0 PUSH2 0x3140 DUP5 PUSH2 0x29CA JUMP JUMPDEST SWAP1 POP PUSH2 0x3165 DUP2 PUSH1 0x40 MLOAD DUP1 PUSH1 0x40 ADD PUSH1 0x40 MSTORE DUP1 PUSH1 0x1 DUP2 MSTORE PUSH1 0x20 ADD PUSH1 0x31 PUSH1 0xF8 SHL DUP2 MSTORE POP PUSH2 0x2971 JUMP JUMPDEST ISZERO PUSH2 0x2C0F JUMPI PUSH1 0x0 PUSH2 0x3175 DUP6 PUSH2 0x32DC JUMP JUMPDEST SWAP1 POP PUSH2 0x319A DUP2 PUSH1 0x40 MLOAD DUP1 PUSH1 0x40 ADD PUSH1 0x40 MSTORE DUP1 PUSH1 0x1 DUP2 MSTORE PUSH1 0x20 ADD PUSH1 0x31 PUSH1 0xF8 SHL DUP2 MSTORE POP PUSH2 0x2971 JUMP JUMPDEST ISZERO PUSH2 0x320C JUMPI PUSH1 0x0 PUSH2 0x31AA DUP7 PUSH2 0x3533 JUMP JUMPDEST SWAP1 POP DUP1 ISZERO PUSH2 0x320A JUMPI DUP4 PUSH1 0x11 PUSH2 0x31E1 DUP9 PUSH1 0x40 MLOAD DUP1 PUSH1 0x40 ADD PUSH1 0x40 MSTORE DUP1 PUSH1 0xA DUP2 MSTORE PUSH1 0x20 ADD PUSH10 0x1D5B99195C9CDA1A5C9D PUSH1 0xB2 SHL DUP2 MSTORE POP PUSH2 0x2292 JUMP JUMPDEST PUSH2 0x31EB SWAP2 SWAP1 PUSH2 0x47B9 JUMP JUMPDEST PUSH1 0x11 DUP2 LT PUSH2 0x31FB JUMPI PUSH2 0x31FB PUSH2 0x4630 JUMP JUMPDEST PUSH1 0x20 MUL ADD MLOAD SWAP7 SWAP6 POP POP POP POP POP POP JUMP JUMPDEST POP JUMPDEST POP POP POP PUSH1 0x40 DUP1 MLOAD DUP1 DUP3 ADD SWAP1 SWAP2 MSTORE PUSH1 0x1 DUP2 MSTORE PUSH1 0x3 PUSH1 0xFC SHL PUSH1 0x20 DUP3 ADD MSTORE SWAP3 SWAP2 POP POP JUMP JUMPDEST PUSH1 0x60 PUSH1 0x0 PUSH1 0x40 MLOAD DUP1 PUSH1 0x60 ADD PUSH1 0x40 MSTORE DUP1 PUSH1 0x40 MLOAD DUP1 PUSH1 0x40 ADD PUSH1 0x40 MSTORE DUP1 PUSH1 0x1 DUP2 MSTORE PUSH1 0x20 ADD PUSH1 0x31 PUSH1 0xF8 SHL DUP2 MSTORE POP DUP2 MSTORE PUSH1 0x20 ADD PUSH1 0x40 MLOAD DUP1 PUSH1 0x40 ADD PUSH1 0x40 MSTORE DUP1 PUSH1 0x1 DUP2 MSTORE PUSH1 0x20 ADD PUSH1 0x19 PUSH1 0xF9 SHL DUP2 MSTORE POP DUP2 MSTORE PUSH1 0x20 ADD PUSH1 0x40 MLOAD DUP1 PUSH1 0x40 ADD PUSH1 0x40 MSTORE DUP1 PUSH1 0x1 DUP2 MSTORE PUSH1 0x20 ADD PUSH1 0x33 PUSH1 0xF8 SHL DUP2 MSTORE POP DUP2 MSTORE POP SWAP1 POP DUP1 PUSH1 0x3 PUSH2 0x32C2 DUP6 PUSH1 0x40 MLOAD DUP1 PUSH1 0x40 ADD PUSH1 0x40 MSTORE DUP1 PUSH1 0x4 DUP2 MSTORE PUSH1 0x20 ADD PUSH4 0x73686F65 PUSH1 0xE0 SHL DUP2 MSTORE POP PUSH2 0x2292 JUMP JUMPDEST PUSH2 0x32CC SWAP2 SWAP1 PUSH2 0x47B9 JUMP JUMPDEST PUSH1 0x3 DUP2 LT PUSH2 0x2899 JUMPI PUSH2 0x2899 PUSH2 0x4630 JUMP JUMPDEST PUSH1 0x40 DUP1 MLOAD PUSH1 0xA0 DUP1 DUP3 ADD DUP4 MSTORE PUSH1 0x1 PUSH1 0x60 DUP4 DUP2 ADD DUP3 DUP2 MSTORE PUSH1 0x31 PUSH1 0xF8 SHL PUSH1 0x80 DUP1 DUP8 ADD DUP3 SWAP1 MSTORE SWAP2 DUP7 MSTORE DUP7 MLOAD DUP1 DUP9 ADD DUP9 MSTORE DUP5 DUP2 MSTORE PUSH1 0x19 PUSH1 0xF9 SHL PUSH1 0x20 DUP3 DUP2 ADD DUP3 SWAP1 MSTORE DUP1 DUP10 ADD SWAP3 SWAP1 SWAP3 MSTORE DUP9 MLOAD DUP1 DUP11 ADD DUP11 MSTORE DUP7 DUP2 MSTORE PUSH1 0x33 PUSH1 0xF8 SHL DUP2 DUP5 ADD MSTORE DUP9 DUP11 ADD MSTORE DUP9 MLOAD SWAP7 DUP8 ADD DUP10 MSTORE DUP7 DUP6 ADD DUP7 DUP2 MSTORE SWAP4 DUP8 ADD SWAP3 SWAP1 SWAP3 MSTORE SWAP2 DUP6 MSTORE DUP7 MLOAD DUP1 DUP9 ADD DUP9 MSTORE DUP5 DUP2 MSTORE DUP1 DUP4 ADD SWAP2 SWAP1 SWAP2 MSTORE DUP5 DUP3 ADD MSTORE DUP6 MLOAD DUP1 DUP8 ADD DUP8 MSTORE SWAP3 DUP4 MSTORE PUSH1 0xD PUSH1 0xFA SHL SWAP1 DUP4 ADD MSTORE SWAP4 DUP3 ADD MSTORE PUSH1 0x0 PUSH2 0x3384 DUP6 PUSH2 0x29CA JUMP JUMPDEST SWAP1 POP PUSH2 0x33A9 DUP2 PUSH1 0x40 MLOAD DUP1 PUSH1 0x40 ADD PUSH1 0x40 MSTORE DUP1 PUSH1 0x1 DUP2 MSTORE PUSH1 0x20 ADD PUSH1 0x19 PUSH1 0xF9 SHL DUP2 MSTORE POP PUSH2 0x2971 JUMP JUMPDEST ISZERO PUSH2 0x33F0 JUMPI DUP2 PUSH1 0x3 PUSH2 0x33D6 DUP8 PUSH1 0x40 MLOAD DUP1 PUSH1 0x40 ADD PUSH1 0x40 MSTORE DUP1 PUSH1 0x3 DUP2 MSTORE PUSH1 0x20 ADD PUSH3 0x746F7 PUSH1 0xEC SHL DUP2 MSTORE POP PUSH2 0x2292 JUMP JUMPDEST PUSH2 0x33E0 SWAP2 SWAP1 PUSH2 0x47B9 JUMP JUMPDEST PUSH1 0x3 DUP2 LT PUSH2 0x2ED3 JUMPI PUSH2 0x2ED3 PUSH2 0x4630 JUMP JUMPDEST DUP3 PUSH1 0x3 PUSH2 0x33D6 DUP8 PUSH1 0x40 MLOAD DUP1 PUSH1 0x40 ADD PUSH1 0x40 MSTORE DUP1 PUSH1 0x3 DUP2 MSTORE PUSH1 0x20 ADD PUSH3 0x746F7 PUSH1 0xEC SHL DUP2 MSTORE POP PUSH2 0x2292 JUMP JUMPDEST PUSH1 0x40 DUP1 MLOAD PUSH1 0x80 DUP1 DUP3 ADD DUP4 MSTORE PUSH1 0x1 DUP3 DUP5 ADD DUP2 DUP2 MSTORE PUSH1 0x33 PUSH1 0xF8 SHL PUSH1 0x60 DUP6 DUP2 ADD SWAP2 SWAP1 SWAP2 MSTORE SWAP1 DUP5 MSTORE DUP5 MLOAD DUP1 DUP7 ADD DUP7 MSTORE DUP3 DUP2 MSTORE PUSH1 0xD PUSH1 0xFA SHL PUSH1 0x20 DUP3 DUP2 ADD SWAP2 SWAP1 SWAP2 MSTORE DUP1 DUP7 ADD SWAP2 SWAP1 SWAP2 MSTORE DUP6 MLOAD SWAP4 DUP5 ADD DUP7 MSTORE DUP4 DUP7 ADD DUP4 DUP2 MSTORE PUSH1 0x31 PUSH1 0xF8 SHL DUP6 DUP5 ADD MSTORE DUP5 MSTORE DUP6 MLOAD DUP1 DUP8 ADD SWAP1 SWAP7 MSTORE SWAP2 DUP6 MSTORE PUSH1 0x19 PUSH1 0xF9 SHL DUP6 DUP4 ADD MSTORE SWAP1 DUP3 ADD SWAP4 SWAP1 SWAP4 MSTORE PUSH1 0x0 PUSH2 0x3499 DUP6 PUSH2 0x29CA JUMP JUMPDEST SWAP1 POP PUSH2 0x34BE DUP2 PUSH1 0x40 MLOAD DUP1 PUSH1 0x40 ADD PUSH1 0x40 MSTORE DUP1 PUSH1 0x1 DUP2 MSTORE PUSH1 0x20 ADD PUSH1 0x19 PUSH1 0xF9 SHL DUP2 MSTORE POP PUSH2 0x2971 JUMP JUMPDEST ISZERO PUSH2 0x3508 JUMPI DUP3 PUSH1 0x2 PUSH2 0x34EE DUP8 PUSH1 0x40 MLOAD DUP1 PUSH1 0x40 ADD PUSH1 0x40 MSTORE DUP1 PUSH1 0x6 DUP2 MSTORE PUSH1 0x20 ADD PUSH6 0x626F74746F6D PUSH1 0xD0 SHL DUP2 MSTORE POP PUSH2 0x2292 JUMP JUMPDEST PUSH2 0x34F8 SWAP2 SWAP1 PUSH2 0x47B9 JUMP JUMPDEST PUSH1 0x2 DUP2 LT PUSH2 0x2ED3 JUMPI PUSH2 0x2ED3 PUSH2 0x4630 JUMP JUMPDEST DUP2 PUSH1 0x2 PUSH2 0x34EE DUP8 PUSH1 0x40 MLOAD DUP1 PUSH1 0x40 ADD PUSH1 0x40 MSTORE DUP1 PUSH1 0x6 DUP2 MSTORE PUSH1 0x20 ADD PUSH6 0x626F74746F6D PUSH1 0xD0 SHL DUP2 MSTORE POP PUSH2 0x2292 JUMP JUMPDEST PUSH1 0x0 DUP1 PUSH1 0x40 MLOAD DUP1 PUSH2 0x340 ADD PUSH1 0x40 MSTORE DUP1 PUSH1 0x1 DUP2 MSTORE PUSH1 0x20 ADD PUSH1 0x2 DUP2 MSTORE PUSH1 0x20 ADD PUSH1 0x3 DUP2 MSTORE PUSH1 0x20 ADD PUSH1 0x4 DUP2 MSTORE PUSH1 0x20 ADD PUSH1 0x5 DUP2 MSTORE PUSH1 0x20 ADD PUSH1 0x6 DUP2 MSTORE PUSH1 0x20 ADD PUSH1 0x7 DUP2 MSTORE PUSH1 0x20 ADD PUSH1 0x8 DUP2 MSTORE PUSH1 0x20 ADD PUSH1 0x9 DUP2 MSTORE PUSH1 0x20 ADD PUSH1 0xA DUP2 MSTORE PUSH1 0x20 ADD PUSH1 0xB DUP2 MSTORE PUSH1 0x20 ADD PUSH1 0xC DUP2 MSTORE PUSH1 0x20 ADD PUSH1 0xD DUP2 MSTORE PUSH1 0x20 ADD PUSH1 0xE DUP2 MSTORE PUSH1 0x20 ADD PUSH1 0xF DUP2 MSTORE PUSH1 0x20 ADD PUSH1 0x10 DUP2 MSTORE PUSH1 0x20 ADD PUSH1 0x11 DUP2 MSTORE PUSH1 0x20 ADD PUSH1 0x12 DUP2 MSTORE PUSH1 0x20 ADD PUSH1 0x13 DUP2 MSTORE PUSH1 0x20 ADD PUSH1 0x14 DUP2 MSTORE PUSH1 0x20 ADD PUSH1 0x15 DUP2 MSTORE PUSH1 0x20 ADD PUSH1 0x16 DUP2 MSTORE PUSH1 0x20 ADD PUSH1 0x17 DUP2 MSTORE PUSH1 0x20 ADD PUSH1 0x18 DUP2 MSTORE PUSH1 0x20 ADD PUSH1 0x19 DUP2 MSTORE PUSH1 0x20 ADD PUSH1 0x1A DUP2 MSTORE POP SWAP1 POP PUSH1 0x0 PUSH2 0x3627 DUP5 PUSH1 0x40 MLOAD DUP1 PUSH1 0x40 ADD PUSH1 0x40 MSTORE DUP1 PUSH1 0x6 DUP2 MSTORE PUSH1 0x20 ADD PUSH6 0x373AB6B132B9 PUSH1 0xD1 SHL DUP2 MSTORE POP PUSH1 0x1 PUSH2 0x2710 PUSH2 0x3C38 JUMP JUMPDEST SWAP1 POP PUSH2 0x1E78 DUP2 GT ISZERO PUSH2 0x363D JUMPI POP PUSH1 0x0 SWAP4 SWAP3 POP POP POP JUMP JUMPDEST DUP2 PUSH1 0x1A PUSH2 0x3668 DUP7 PUSH1 0x40 MLOAD DUP1 PUSH1 0x40 ADD PUSH1 0x40 MSTORE DUP1 PUSH1 0x6 DUP2 MSTORE PUSH1 0x20 ADD PUSH6 0x373AB6B132B9 PUSH1 0xD1 SHL DUP2 MSTORE POP PUSH2 0x2292 JUMP JUMPDEST PUSH2 0x3672 SWAP2 SWAP1 PUSH2 0x47B9 JUMP JUMPDEST PUSH1 0x1A DUP2 LT PUSH2 0x2AA8 JUMPI PUSH2 0x2AA8 PUSH2 0x4630 JUMP JUMPDEST PUSH1 0x40 DUP1 MLOAD PUSH1 0xC0 DUP2 ADD DUP3 MSTORE PUSH1 0x1 PUSH1 0x80 DUP3 ADD DUP2 DUP2 MSTORE PUSH1 0x3 PUSH1 0xFC SHL PUSH1 0xA0 DUP5 ADD MSTORE DUP3 MSTORE DUP3 MLOAD DUP1 DUP5 ADD DUP5 MSTORE DUP2 DUP2 MSTORE PUSH1 0x31 PUSH1 0xF8 SHL PUSH1 0x20 DUP3 DUP2 ADD SWAP2 SWAP1 SWAP2 MSTORE DUP1 DUP5 ADD SWAP2 SWAP1 SWAP2 MSTORE DUP4 MLOAD DUP1 DUP6 ADD DUP6 MSTORE DUP3 DUP2 MSTORE PUSH1 0x19 PUSH1 0xF9 SHL DUP2 DUP4 ADD MSTORE DUP4 DUP6 ADD MSTORE DUP4 MLOAD DUP1 DUP6 ADD DUP6 MSTORE SWAP2 DUP3 MSTORE PUSH1 0x33 PUSH1 0xF8 SHL DUP3 DUP3 ADD MSTORE PUSH1 0x60 DUP4 DUP2 ADD SWAP3 SWAP1 SWAP3 MSTORE DUP4 MLOAD DUP1 DUP6 ADD SWAP1 SWAP5 MSTORE PUSH1 0x5 DUP5 MSTORE PUSH5 0x7461746F6F PUSH1 0xD8 SHL SWAP1 DUP5 ADD MSTORE SWAP2 DUP2 SWAP1 PUSH1 0x4 SWAP1 PUSH2 0x371D SWAP1 DUP7 SWAP1 PUSH2 0x2292 JUMP JUMPDEST PUSH2 0x3727 SWAP2 SWAP1 PUSH2 0x47B9 JUMP JUMPDEST PUSH1 0x4 DUP2 LT PUSH2 0x2899 JUMPI PUSH2 0x2899 PUSH2 0x4630 JUMP JUMPDEST PUSH1 0x40 DUP1 MLOAD PUSH2 0x100 DUP2 ADD DUP3 MSTORE PUSH1 0x1 PUSH1 0xC0 DUP3 ADD DUP2 DUP2 MSTORE PUSH1 0x3 PUSH1 0xFC SHL PUSH1 0xE0 DUP5 ADD MSTORE DUP3 MSTORE DUP3 MLOAD DUP1 DUP5 ADD DUP5 MSTORE DUP2 DUP2 MSTORE PUSH1 0x31 PUSH1 0xF8 SHL PUSH1 0x20 DUP3 DUP2 ADD SWAP2 SWAP1 SWAP2 MSTORE DUP1 DUP5 ADD SWAP2 SWAP1 SWAP2 MSTORE DUP4 MLOAD DUP1 DUP6 ADD DUP6 MSTORE DUP3 DUP2 MSTORE PUSH1 0x19 PUSH1 0xF9 SHL DUP2 DUP4 ADD MSTORE DUP4 DUP6 ADD MSTORE DUP4 MLOAD DUP1 DUP6 ADD DUP6 MSTORE DUP3 DUP2 MSTORE PUSH1 0x33 PUSH1 0xF8 SHL DUP2 DUP4 ADD MSTORE PUSH1 0x60 DUP5 DUP2 ADD SWAP2 SWAP1 SWAP2 MSTORE DUP5 MLOAD DUP1 DUP7 ADD DUP7 MSTORE DUP4 DUP2 MSTORE PUSH1 0xD PUSH1 0xFA SHL DUP2 DUP5 ADD MSTORE PUSH1 0x80 DUP6 ADD MSTORE DUP5 MLOAD DUP1 DUP7 ADD DUP7 MSTORE SWAP3 DUP4 MSTORE PUSH1 0x35 PUSH1 0xF8 SHL DUP4 DUP4 ADD MSTORE PUSH1 0xA0 DUP5 ADD SWAP3 SWAP1 SWAP3 MSTORE DUP4 MLOAD DUP1 DUP6 ADD SWAP1 SWAP5 MSTORE PUSH1 0x7 DUP5 MSTORE PUSH7 0x676C6173736573 PUSH1 0xC8 SHL SWAP1 DUP5 ADD MSTORE SWAP2 DUP2 SWAP1 PUSH1 0x6 SWAP1 PUSH2 0x3808 SWAP1 DUP7 SWAP1 PUSH2 0x2292 JUMP JUMPDEST PUSH2 0x3812 SWAP2 SWAP1 PUSH2 0x47B9 JUMP JUMPDEST PUSH1 0x6 DUP2 LT PUSH2 0x2899 JUMPI PUSH2 0x2899 PUSH2 0x4630 JUMP JUMPDEST PUSH1 0x60 PUSH1 0x0 PUSH1 0x40 MLOAD DUP1 PUSH1 0x40 ADD PUSH1 0x40 MSTORE DUP1 PUSH1 0x40 MLOAD DUP1 PUSH1 0x40 ADD PUSH1 0x40 MSTORE DUP1 PUSH1 0x1 DUP2 MSTORE PUSH1 0x20 ADD PUSH1 0x3 PUSH1 0xFC SHL DUP2 MSTORE POP DUP2 MSTORE PUSH1 0x20 ADD PUSH1 0x40 MLOAD DUP1 PUSH1 0x40 ADD PUSH1 0x40 MSTORE DUP1 PUSH1 0x1 DUP2 MSTORE PUSH1 0x20 ADD PUSH1 0x31 PUSH1 0xF8 SHL DUP2 MSTORE POP DUP2 MSTORE POP SWAP1 POP DUP1 PUSH1 0x2 PUSH2 0x389B DUP6 PUSH1 0x40 MLOAD DUP1 PUSH1 0x40 ADD PUSH1 0x40 MSTORE DUP1 PUSH1 0x7 DUP2 MSTORE PUSH1 0x20 ADD PUSH7 0x31B0B83A30B4B7 PUSH1 0xC9 SHL DUP2 MSTORE POP PUSH2 0x2292 JUMP JUMPDEST PUSH2 0x38A5 SWAP2 SWAP1 PUSH2 0x47B9 JUMP JUMPDEST PUSH1 0x2 DUP2 LT PUSH2 0x2899 JUMPI PUSH2 0x2899 PUSH2 0x4630 JUMP JUMPDEST PUSH1 0x60 PUSH2 0x165 DUP1 SLOAD PUSH2 0x87C SWAP1 PUSH2 0x44DF JUMP JUMPDEST PUSH1 0x60 DUP2 PUSH2 0x38E9 JUMPI POP POP PUSH1 0x40 DUP1 MLOAD DUP1 DUP3 ADD SWAP1 SWAP2 MSTORE PUSH1 0x1 DUP2 MSTORE PUSH1 0x3 PUSH1 0xFC SHL PUSH1 0x20 DUP3 ADD MSTORE SWAP1 JUMP JUMPDEST DUP2 PUSH1 0x0 JUMPDEST DUP2 ISZERO PUSH2 0x3913 JUMPI DUP1 PUSH2 0x38FD DUP2 PUSH2 0x4567 JUMP JUMPDEST SWAP2 POP PUSH2 0x390C SWAP1 POP PUSH1 0xA DUP4 PUSH2 0x4605 JUMP JUMPDEST SWAP2 POP PUSH2 0x38ED JUMP JUMPDEST PUSH1 0x0 DUP2 PUSH8 0xFFFFFFFFFFFFFFFF DUP2 GT ISZERO PUSH2 0x392E JUMPI PUSH2 0x392E PUSH2 0x3F22 JUMP JUMPDEST PUSH1 0x40 MLOAD SWAP1 DUP1 DUP3 MSTORE DUP1 PUSH1 0x1F ADD PUSH1 0x1F NOT AND PUSH1 0x20 ADD DUP3 ADD PUSH1 0x40 MSTORE DUP1 ISZERO PUSH2 0x3958 JUMPI PUSH1 0x20 DUP3 ADD DUP2 DUP1 CALLDATASIZE DUP4 CALLDATACOPY ADD SWAP1 POP JUMPDEST POP SWAP1 POP JUMPDEST DUP5 ISZERO PUSH2 0x1FB8 JUMPI PUSH2 0x396D PUSH1 0x1 DUP4 PUSH2 0x4619 JUMP JUMPDEST SWAP2 POP PUSH2 0x397A PUSH1 0xA DUP7 PUSH2 0x47B9 JUMP JUMPDEST PUSH2 0x3985 SWAP1 PUSH1 0x30 PUSH2 0x47FC JUMP JUMPDEST PUSH1 0xF8 SHL DUP2 DUP4 DUP2 MLOAD DUP2 LT PUSH2 0x399A JUMPI PUSH2 0x399A PUSH2 0x4630 JUMP JUMPDEST PUSH1 0x20 ADD ADD SWAP1 PUSH1 0x1 PUSH1 0x1 PUSH1 0xF8 SHL SUB NOT AND SWAP1 DUP2 PUSH1 0x0 BYTE SWAP1 MSTORE8 POP PUSH2 0x39BC PUSH1 0xA DUP7 PUSH2 0x4605 JUMP JUMPDEST SWAP5 POP PUSH2 0x395C JUMP JUMPDEST PUSH2 0x39CD DUP4 DUP4 PUSH2 0x3C76 JUMP JUMPDEST PUSH2 0x39DA PUSH1 0x0 DUP5 DUP5 DUP5 PUSH2 0x3B3A JUMP JUMPDEST PUSH2 0xAA0 JUMPI PUSH1 0x40 MLOAD PUSH3 0x461BCD PUSH1 0xE5 SHL DUP2 MSTORE PUSH1 0x4 ADD PUSH2 0x946 SWAP1 PUSH2 0x485F JUMP JUMPDEST PUSH1 0x97 SLOAD PUSH1 0xFF AND ISZERO PUSH2 0xAA0 JUMPI PUSH1 0x40 MLOAD PUSH3 0x461BCD PUSH1 0xE5 SHL DUP2 MSTORE PUSH1 0x20 PUSH1 0x4 DUP3 ADD MSTORE PUSH1 0x2B PUSH1 0x24 DUP3 ADD MSTORE PUSH32 0x4552433732315061757361626C653A20746F6B656E207472616E736665722077 PUSH1 0x44 DUP3 ADD MSTORE PUSH11 0x1A1A5B19481C185D5CD959 PUSH1 0xAA SHL PUSH1 0x64 DUP3 ADD MSTORE PUSH1 0x84 ADD PUSH2 0x946 JUMP JUMPDEST PUSH1 0x97 SLOAD PUSH1 0xFF AND PUSH2 0xEEA JUMPI PUSH1 0x40 MLOAD PUSH3 0x461BCD PUSH1 0xE5 SHL DUP2 MSTORE PUSH1 0x20 PUSH1 0x4 DUP3 ADD MSTORE PUSH1 0x14 PUSH1 0x24 DUP3 ADD MSTORE PUSH20 0x14185D5CD8589B194E881B9BDD081C185D5CD959 PUSH1 0x62 SHL PUSH1 0x44 DUP3 ADD MSTORE PUSH1 0x64 ADD PUSH2 0x946 JUMP JUMPDEST PUSH1 0x97 SLOAD PUSH1 0xFF AND ISZERO PUSH2 0xEEA JUMPI PUSH1 0x40 MLOAD PUSH3 0x461BCD PUSH1 0xE5 SHL DUP2 MSTORE PUSH1 0x20 PUSH1 0x4 DUP3 ADD MSTORE PUSH1 0x10 PUSH1 0x24 DUP3 ADD MSTORE PUSH16 0x14185D5CD8589B194E881C185D5CD959 PUSH1 0x82 SHL PUSH1 0x44 DUP3 ADD MSTORE PUSH1 0x64 ADD PUSH2 0x946 JUMP JUMPDEST PUSH1 0x0 SLOAD PUSH2 0x100 SWAP1 DIV PUSH1 0xFF AND PUSH2 0x3B13 JUMPI PUSH1 0x40 MLOAD PUSH3 0x461BCD PUSH1 0xE5 SHL DUP2 MSTORE PUSH1 0x4 ADD PUSH2 0x946 SWAP1 PUSH2 0x4814 JUMP JUMPDEST DUP2 MLOAD PUSH2 0x3B26 SWAP1 PUSH1 0x65 SWAP1 PUSH1 0x20 DUP6 ADD SWAP1 PUSH2 0x3DC4 JUMP JUMPDEST POP DUP1 MLOAD PUSH2 0xAA0 SWAP1 PUSH1 0x66 SWAP1 PUSH1 0x20 DUP5 ADD SWAP1 PUSH2 0x3DC4 JUMP JUMPDEST PUSH1 0x0 PUSH1 0x1 PUSH1 0x1 PUSH1 0xA0 SHL SUB DUP5 AND EXTCODESIZE ISZERO PUSH2 0x3C2D JUMPI PUSH1 0x40 MLOAD PUSH4 0xA85BD01 PUSH1 0xE1 SHL DUP2 MSTORE PUSH1 0x1 PUSH1 0x1 PUSH1 0xA0 SHL SUB DUP6 AND SWAP1 PUSH4 0x150B7A02 SWAP1 PUSH2 0x3B7E SWAP1 CALLER SWAP1 DUP10 SWAP1 DUP9 SWAP1 DUP9 SWAP1 PUSH1 0x4 ADD PUSH2 0x48B1 JUMP JUMPDEST PUSH1 0x20 PUSH1 0x40 MLOAD DUP1 DUP4 SUB DUP2 PUSH1 0x0 DUP8 GAS CALL SWAP3 POP POP POP DUP1 ISZERO PUSH2 0x3BB9 JUMPI POP PUSH1 0x40 DUP1 MLOAD PUSH1 0x1F RETURNDATASIZE SWAP1 DUP2 ADD PUSH1 0x1F NOT AND DUP3 ADD SWAP1 SWAP3 MSTORE PUSH2 0x3BB6 SWAP2 DUP2 ADD SWAP1 PUSH2 0x48E4 JUMP JUMPDEST PUSH1 0x1 JUMPDEST PUSH2 0x3C13 JUMPI RETURNDATASIZE DUP1 DUP1 ISZERO PUSH2 0x3BE7 JUMPI PUSH1 0x40 MLOAD SWAP2 POP PUSH1 0x1F NOT PUSH1 0x3F RETURNDATASIZE ADD AND DUP3 ADD PUSH1 0x40 MSTORE RETURNDATASIZE DUP3 MSTORE RETURNDATASIZE PUSH1 0x0 PUSH1 0x20 DUP5 ADD RETURNDATACOPY PUSH2 0x3BEC JUMP JUMPDEST PUSH1 0x60 SWAP2 POP JUMPDEST POP DUP1 MLOAD PUSH2 0x3C0B JUMPI PUSH1 0x40 MLOAD PUSH3 0x461BCD PUSH1 0xE5 SHL DUP2 MSTORE PUSH1 0x4 ADD PUSH2 0x946 SWAP1 PUSH2 0x485F JUMP JUMPDEST DUP1 MLOAD DUP2 PUSH1 0x20 ADD REVERT JUMPDEST PUSH1 0x1 PUSH1 0x1 PUSH1 0xE0 SHL SUB NOT AND PUSH4 0xA85BD01 PUSH1 0xE1 SHL EQ SWAP1 POP PUSH2 0x1FB8 JUMP JUMPDEST POP PUSH1 0x1 SWAP5 SWAP4 POP POP POP POP JUMP JUMPDEST PUSH1 0x0 PUSH2 0x3C44 DUP4 DUP4 PUSH2 0x4619 JUMP JUMPDEST PUSH2 0x3C4F SWAP1 PUSH1 0x1 PUSH2 0x47FC JUMP JUMPDEST PUSH2 0x3C59 DUP7 DUP7 PUSH2 0x2292 JUMP JUMPDEST PUSH2 0x3C63 SWAP2 SWAP1 PUSH2 0x47B9 JUMP JUMPDEST PUSH2 0x3C6D SWAP1 DUP5 PUSH2 0x47FC JUMP JUMPDEST SWAP6 SWAP5 POP POP POP POP POP JUMP JUMPDEST PUSH1 0x1 PUSH1 0x1 PUSH1 0xA0 SHL SUB DUP3 AND PUSH2 0x3CCC JUMPI PUSH1 0x40 MLOAD PUSH3 0x461BCD PUSH1 0xE5 SHL DUP2 MSTORE PUSH1 0x20 PUSH1 0x4 DUP3 ADD DUP2 SWAP1 MSTORE PUSH1 0x24 DUP3 ADD MSTORE PUSH32 0x4552433732313A206D696E7420746F20746865207A65726F2061646472657373 PUSH1 0x44 DUP3 ADD MSTORE PUSH1 0x64 ADD PUSH2 0x946 JUMP JUMPDEST PUSH1 0x0 DUP2 DUP2 MSTORE PUSH1 0x67 PUSH1 0x20 MSTORE PUSH1 0x40 SWAP1 KECCAK256 SLOAD PUSH1 0x1 PUSH1 0x1 PUSH1 0xA0 SHL SUB AND ISZERO PUSH2 0x3D31 JUMPI PUSH1 0x40 MLOAD PUSH3 0x461BCD PUSH1 0xE5 SHL DUP2 MSTORE PUSH1 0x20 PUSH1 0x4 DUP3 ADD MSTORE PUSH1 0x1C PUSH1 0x24 DUP3 ADD MSTORE PUSH32 0x4552433732313A20746F6B656E20616C7265616479206D696E74656400000000 PUSH1 0x44 DUP3 ADD MSTORE PUSH1 0x64 ADD PUSH2 0x946 JUMP JUMPDEST PUSH2 0x3D3D PUSH1 0x0 DUP4 DUP4 PUSH2 0x39F6 JUMP JUMPDEST PUSH1 0x1 PUSH1 0x1 PUSH1 0xA0 SHL SUB DUP3 AND PUSH1 0x0 SWAP1 DUP2 MSTORE PUSH1 0x68 PUSH1 0x20 MSTORE PUSH1 0x40 DUP2 KECCAK256 DUP1 SLOAD PUSH1 0x1 SWAP3 SWAP1 PUSH2 0x3D66 SWAP1 DUP5 SWAP1 PUSH2 0x47FC JUMP JUMPDEST SWAP1 SWAP2 SSTORE POP POP PUSH1 0x0 DUP2 DUP2 MSTORE PUSH1 0x67 PUSH1 0x20 MSTORE PUSH1 0x40 DUP1 DUP3 KECCAK256 DUP1 SLOAD PUSH1 0x1 PUSH1 0x1 PUSH1 0xA0 SHL SUB NOT AND PUSH1 0x1 PUSH1 0x1 PUSH1 0xA0 SHL SUB DUP7 AND SWAP1 DUP2 OR SWAP1 SWAP2 SSTORE SWAP1 MLOAD DUP4 SWAP3 SWAP1 PUSH32 0xDDF252AD1BE2C89B69C2B068FC378DAA952BA7F163C4A11628F55A4DF523B3EF SWAP1 DUP3 SWAP1 LOG4 POP POP JUMP JUMPDEST DUP3 DUP1 SLOAD PUSH2 0x3DD0 SWAP1 PUSH2 0x44DF JUMP JUMPDEST SWAP1 PUSH1 0x0 MSTORE PUSH1 0x20 PUSH1 0x0 KECCAK256 SWAP1 PUSH1 0x1F ADD PUSH1 0x20 SWAP1 DIV DUP2 ADD SWAP3 DUP3 PUSH2 0x3DF2 JUMPI PUSH1 0x0 DUP6 SSTORE PUSH2 0x3E38 JUMP JUMPDEST DUP3 PUSH1 0x1F LT PUSH2 0x3E0B JUMPI DUP1 MLOAD PUSH1 0xFF NOT AND DUP4 DUP1 ADD OR DUP6 SSTORE PUSH2 0x3E38 JUMP JUMPDEST DUP3 DUP1 ADD PUSH1 0x1 ADD DUP6 SSTORE DUP3 ISZERO PUSH2 0x3E38 JUMPI SWAP2 DUP3 ADD JUMPDEST DUP3 DUP2 GT ISZERO PUSH2 0x3E38 JUMPI DUP3 MLOAD DUP3 SSTORE SWAP2 PUSH1 0x20 ADD SWAP2 SWAP1 PUSH1 0x1 ADD SWAP1 PUSH2 0x3E1D JUMP JUMPDEST POP PUSH2 0x3E44 SWAP3 SWAP2 POP PUSH2 0x3E6F JUMP JUMPDEST POP SWAP1 JUMP JUMPDEST PUSH1 0x40 MLOAD DUP1 PUSH1 0x60 ADD PUSH1 0x40 MSTORE DUP1 PUSH1 0x3 SWAP1 JUMPDEST PUSH1 0x60 DUP2 MSTORE PUSH1 0x20 ADD SWAP1 PUSH1 0x1 SWAP1 SUB SWAP1 DUP2 PUSH2 0x3E57 JUMPI SWAP1 POP POP SWAP1 JUMP JUMPDEST JUMPDEST DUP1 DUP3 GT ISZERO PUSH2 0x3E44 JUMPI PUSH1 0x0 DUP2 SSTORE PUSH1 0x1 ADD PUSH2 0x3E70 JUMP JUMPDEST PUSH1 0x1 PUSH1 0x1 PUSH1 0xE0 SHL SUB NOT DUP2 AND DUP2 EQ PUSH2 0x1E77 JUMPI PUSH1 0x0 DUP1 REVERT JUMPDEST PUSH1 0x0 PUSH1 0x20 DUP3 DUP5 SUB SLT ISZERO PUSH2 0x3EAC JUMPI PUSH1 0x0 DUP1 REVERT JUMPDEST DUP2 CALLDATALOAD PUSH2 0x1D14 DUP2 PUSH2 0x3E84 JUMP JUMPDEST PUSH1 0x0 JUMPDEST DUP4 DUP2 LT ISZERO PUSH2 0x3ED2 JUMPI DUP2 DUP2 ADD MLOAD DUP4 DUP3 ADD MSTORE PUSH1 0x20 ADD PUSH2 0x3EBA JUMP JUMPDEST DUP4 DUP2 GT ISZERO PUSH2 0x1980 JUMPI POP POP PUSH1 0x0 SWAP2 ADD MSTORE JUMP JUMPDEST PUSH1 0x0 DUP2 MLOAD DUP1 DUP5 MSTORE PUSH2 0x3EFB DUP2 PUSH1 0x20 DUP7 ADD PUSH1 0x20 DUP7 ADD PUSH2 0x3EB7 JUMP JUMPDEST PUSH1 0x1F ADD PUSH1 0x1F NOT AND SWAP3 SWAP1 SWAP3 ADD PUSH1 0x20 ADD SWAP3 SWAP2 POP POP JUMP JUMPDEST PUSH1 0x20 DUP2 MSTORE PUSH1 0x0 PUSH2 0x1D14 PUSH1 0x20 DUP4 ADD DUP5 PUSH2 0x3EE3 JUMP JUMPDEST PUSH4 0x4E487B71 PUSH1 0xE0 SHL PUSH1 0x0 MSTORE PUSH1 0x41 PUSH1 0x4 MSTORE PUSH1 0x24 PUSH1 0x0 REVERT JUMPDEST PUSH1 0x40 MLOAD PUSH1 0x1F DUP3 ADD PUSH1 0x1F NOT AND DUP2 ADD PUSH8 0xFFFFFFFFFFFFFFFF DUP2 GT DUP3 DUP3 LT OR ISZERO PUSH2 0x3F61 JUMPI PUSH2 0x3F61 PUSH2 0x3F22 JUMP JUMPDEST PUSH1 0x40 MSTORE SWAP2 SWAP1 POP JUMP JUMPDEST PUSH1 0x0 PUSH8 0xFFFFFFFFFFFFFFFF DUP3 GT ISZERO PUSH2 0x3F83 JUMPI PUSH2 0x3F83 PUSH2 0x3F22 JUMP JUMPDEST POP PUSH1 0x1F ADD PUSH1 0x1F NOT AND PUSH1 0x20 ADD SWAP1 JUMP JUMPDEST PUSH1 0x0 DUP3 PUSH1 0x1F DUP4 ADD SLT PUSH2 0x3FA2 JUMPI PUSH1 0x0 DUP1 REVERT JUMPDEST DUP2 CALLDATALOAD PUSH2 0x3FB5 PUSH2 0x3FB0 DUP3 PUSH2 0x3F69 JUMP JUMPDEST PUSH2 0x3F38 JUMP JUMPDEST DUP2 DUP2 MSTORE DUP5 PUSH1 0x20 DUP4 DUP7 ADD ADD GT ISZERO PUSH2 0x3FCA JUMPI PUSH1 0x0 DUP1 REVERT JUMPDEST DUP2 PUSH1 0x20 DUP6 ADD PUSH1 0x20 DUP4 ADD CALLDATACOPY PUSH1 0x0 SWAP2 DUP2 ADD PUSH1 0x20 ADD SWAP2 SWAP1 SWAP2 MSTORE SWAP4 SWAP3 POP POP POP JUMP JUMPDEST PUSH1 0x0 PUSH1 0x20 DUP3 DUP5 SUB SLT ISZERO PUSH2 0x3FF9 JUMPI PUSH1 0x0 DUP1 REVERT JUMPDEST DUP2 CALLDATALOAD PUSH8 0xFFFFFFFFFFFFFFFF DUP2 GT ISZERO PUSH2 0x4010 JUMPI PUSH1 0x0 DUP1 REVERT JUMPDEST PUSH2 0x1FB8 DUP5 DUP3 DUP6 ADD PUSH2 0x3F91 JUMP JUMPDEST PUSH1 0x0 PUSH1 0x20 DUP3 DUP5 SUB SLT ISZERO PUSH2 0x402E JUMPI PUSH1 0x0 DUP1 REVERT JUMPDEST POP CALLDATALOAD SWAP2 SWAP1 POP JUMP JUMPDEST DUP1 CALLDATALOAD PUSH1 0x1 PUSH1 0x1 PUSH1 0xA0 SHL SUB DUP2 AND DUP2 EQ PUSH2 0x404C JUMPI PUSH1 0x0 DUP1 REVERT JUMPDEST SWAP2 SWAP1 POP JUMP JUMPDEST PUSH1 0x0 DUP1 PUSH1 0x40 DUP4 DUP6 SUB SLT ISZERO PUSH2 0x4064 JUMPI PUSH1 0x0 DUP1 REVERT JUMPDEST PUSH2 0x406D DUP4 PUSH2 0x4035 JUMP JUMPDEST SWAP5 PUSH1 0x20 SWAP4 SWAP1 SWAP4 ADD CALLDATALOAD SWAP4 POP POP POP JUMP JUMPDEST PUSH1 0x0 DUP1 PUSH1 0x0 PUSH1 0x60 DUP5 DUP7 SUB SLT ISZERO PUSH2 0x4090 JUMPI PUSH1 0x0 DUP1 REVERT JUMPDEST PUSH2 0x4099 DUP5 PUSH2 0x4035 JUMP JUMPDEST SWAP3 POP PUSH2 0x40A7 PUSH1 0x20 DUP6 ADD PUSH2 0x4035 JUMP JUMPDEST SWAP2 POP PUSH1 0x40 DUP5 ADD CALLDATALOAD SWAP1 POP SWAP3 POP SWAP3 POP SWAP3 JUMP JUMPDEST PUSH1 0x0 DUP1 PUSH1 0x40 DUP4 DUP6 SUB SLT ISZERO PUSH2 0x40CA JUMPI PUSH1 0x0 DUP1 REVERT JUMPDEST POP POP DUP1 CALLDATALOAD SWAP3 PUSH1 0x20 SWAP1 SWAP2 ADD CALLDATALOAD SWAP2 POP JUMP JUMPDEST PUSH1 0x0 PUSH1 0x20 DUP3 DUP5 SUB SLT ISZERO PUSH2 0x40EB JUMPI PUSH1 0x0 DUP1 REVERT JUMPDEST PUSH2 0x1D14 DUP3 PUSH2 0x4035 JUMP JUMPDEST PUSH1 0x0 DUP1 PUSH1 0x40 DUP4 DUP6 SUB SLT ISZERO PUSH2 0x4107 JUMPI PUSH1 0x0 DUP1 REVERT JUMPDEST DUP3 CALLDATALOAD PUSH8 0xFFFFFFFFFFFFFFFF DUP1 DUP3 GT ISZERO PUSH2 0x411F JUMPI PUSH1 0x0 DUP1 REVERT JUMPDEST DUP2 DUP6 ADD SWAP2 POP DUP6 PUSH1 0x1F DUP4 ADD SLT PUSH2 0x4133 JUMPI PUSH1 0x0 DUP1 REVERT JUMPDEST DUP2 CALLDATALOAD PUSH1 0x20 DUP3 DUP3 GT ISZERO PUSH2 0x4147 JUMPI PUSH2 0x4147 PUSH2 0x3F22 JUMP JUMPDEST DUP2 PUSH1 0x5 SHL SWAP3 POP PUSH2 0x4158 DUP2 DUP5 ADD PUSH2 0x3F38 JUMP JUMPDEST DUP3 DUP2 MSTORE SWAP3 DUP5 ADD DUP2 ADD SWAP3 DUP2 DUP2 ADD SWAP1 DUP10 DUP6 GT ISZERO PUSH2 0x4172 JUMPI PUSH1 0x0 DUP1 REVERT JUMPDEST SWAP5 DUP3 ADD SWAP5 JUMPDEST DUP5 DUP7 LT ISZERO PUSH2 0x4197 JUMPI PUSH2 0x4188 DUP7 PUSH2 0x4035 JUMP JUMPDEST DUP3 MSTORE SWAP5 DUP3 ADD SWAP5 SWAP1 DUP3 ADD SWAP1 PUSH2 0x4177 JUMP JUMPDEST SWAP10 SWAP8 SWAP1 SWAP2 ADD CALLDATALOAD SWAP8 POP POP POP POP POP POP POP JUMP JUMPDEST PUSH1 0x0 DUP1 PUSH1 0x40 DUP4 DUP6 SUB SLT ISZERO PUSH2 0x41BA JUMPI PUSH1 0x0 DUP1 REVERT JUMPDEST DUP3 CALLDATALOAD SWAP2 POP PUSH1 0x20 DUP4 ADD CALLDATALOAD PUSH8 0xFFFFFFFFFFFFFFFF DUP2 GT ISZERO PUSH2 0x41D8 JUMPI PUSH1 0x0 DUP1 REVERT JUMPDEST PUSH2 0x41E4 DUP6 DUP3 DUP7 ADD PUSH2 0x3F91 JUMP JUMPDEST SWAP2 POP POP SWAP3 POP SWAP3 SWAP1 POP JUMP JUMPDEST PUSH1 0x0 DUP1 PUSH1 0x0 DUP1 PUSH1 0x80 DUP6 DUP8 SUB SLT ISZERO PUSH2 0x4204 JUMPI PUSH1 0x0 DUP1 REVERT JUMPDEST DUP5 CALLDATALOAD PUSH8 0xFFFFFFFFFFFFFFFF DUP1 DUP3 GT ISZERO PUSH2 0x421C JUMPI PUSH1 0x0 DUP1 REVERT JUMPDEST PUSH2 0x4228 DUP9 DUP4 DUP10 ADD PUSH2 0x3F91 JUMP JUMPDEST SWAP6 POP PUSH1 0x20 DUP8 ADD CALLDATALOAD SWAP2 POP DUP1 DUP3 GT ISZERO PUSH2 0x423E JUMPI PUSH1 0x0 DUP1 REVERT JUMPDEST POP PUSH2 0x424B DUP8 DUP3 DUP9 ADD PUSH2 0x3F91 JUMP JUMPDEST SWAP4 POP POP PUSH2 0x425A PUSH1 0x40 DUP7 ADD PUSH2 0x4035 JUMP JUMPDEST SWAP2 POP PUSH2 0x4268 PUSH1 0x60 DUP7 ADD PUSH2 0x4035 JUMP JUMPDEST SWAP1 POP SWAP3 SWAP6 SWAP2 SWAP5 POP SWAP3 POP JUMP JUMPDEST PUSH1 0x0 DUP1 PUSH1 0x40 DUP4 DUP6 SUB SLT ISZERO PUSH2 0x4286 JUMPI PUSH1 0x0 DUP1 REVERT JUMPDEST PUSH2 0x428F DUP4 PUSH2 0x4035 JUMP JUMPDEST SWAP2 POP PUSH1 0x20 DUP4 ADD CALLDATALOAD DUP1 ISZERO ISZERO DUP2 EQ PUSH2 0x42A4 JUMPI PUSH1 0x0 DUP1 REVERT JUMPDEST DUP1 SWAP2 POP POP SWAP3 POP SWAP3 SWAP1 POP JUMP JUMPDEST PUSH1 0x0 DUP1 PUSH1 0x0 DUP1 PUSH1 0x80 DUP6 DUP8 SUB SLT ISZERO PUSH2 0x42C5 JUMPI PUSH1 0x0 DUP1 REVERT JUMPDEST PUSH2 0x42CE DUP6 PUSH2 0x4035 JUMP JUMPDEST SWAP4 POP PUSH2 0x42DC PUSH1 0x20 DUP7 ADD PUSH2 0x4035 JUMP JUMPDEST SWAP3 POP PUSH1 0x40 DUP6 ADD CALLDATALOAD SWAP2 POP PUSH1 0x60 DUP6 ADD CALLDATALOAD PUSH8 0xFFFFFFFFFFFFFFFF DUP2 GT ISZERO PUSH2 0x42FF JUMPI PUSH1 0x0 DUP1 REVERT JUMPDEST PUSH2 0x430B DUP8 DUP3 DUP9 ADD PUSH2 0x3F91 JUMP JUMPDEST SWAP2 POP POP SWAP3 SWAP6 SWAP2 SWAP5 POP SWAP3 POP JUMP JUMPDEST PUSH1 0x20 DUP2 MSTORE PUSH1 0x0 DUP3 MLOAD PUSH2 0x1C0 DUP1 PUSH1 0x20 DUP6 ADD MSTORE PUSH2 0x4336 PUSH2 0x1E0 DUP6 ADD DUP4 PUSH2 0x3EE3 JUMP JUMPDEST SWAP2 POP PUSH1 0x20 DUP6 ADD MLOAD PUSH1 0x1F NOT DUP1 DUP7 DUP6 SUB ADD PUSH1 0x40 DUP8 ADD MSTORE PUSH2 0x4354 DUP5 DUP4 PUSH2 0x3EE3 JUMP JUMPDEST SWAP4 POP PUSH1 0x40 DUP8 ADD MLOAD SWAP2 POP DUP1 DUP7 DUP6 SUB ADD PUSH1 0x60 DUP8 ADD MSTORE PUSH2 0x4371 DUP5 DUP4 PUSH2 0x3EE3 JUMP JUMPDEST SWAP4 POP PUSH1 0x60 DUP8 ADD MLOAD SWAP2 POP DUP1 DUP7 DUP6 SUB ADD PUSH1 0x80 DUP8 ADD MSTORE PUSH2 0x438E DUP5 DUP4 PUSH2 0x3EE3 JUMP JUMPDEST SWAP4 POP PUSH1 0x80 DUP8 ADD MLOAD SWAP2 POP DUP1 DUP7 DUP6 SUB ADD PUSH1 0xA0 DUP8 ADD MSTORE PUSH2 0x43AB DUP5 DUP4 PUSH2 0x3EE3 JUMP JUMPDEST SWAP4 POP PUSH1 0xA0 DUP8 ADD MLOAD SWAP2 POP DUP1 DUP7 DUP6 SUB ADD PUSH1 0xC0 DUP8 ADD MSTORE PUSH2 0x43C8 DUP5 DUP4 PUSH2 0x3EE3 JUMP JUMPDEST SWAP4 POP PUSH1 0xC0 DUP8 ADD MLOAD SWAP2 POP DUP1 DUP7 DUP6 SUB ADD PUSH1 0xE0 DUP8 ADD MSTORE PUSH2 0x43E5 DUP5 DUP4 PUSH2 0x3EE3 JUMP JUMPDEST SWAP4 POP PUSH1 0xE0 DUP8 ADD MLOAD SWAP2 POP PUSH2 0x100 DUP2 DUP8 DUP7 SUB ADD DUP2 DUP9 ADD MSTORE PUSH2 0x4404 DUP6 DUP5 PUSH2 0x3EE3 JUMP JUMPDEST SWAP5 POP DUP1 DUP9 ADD MLOAD SWAP3 POP POP PUSH2 0x120 DUP2 DUP8 DUP7 SUB ADD DUP2 DUP9 ADD MSTORE PUSH2 0x4423 DUP6 DUP5 PUSH2 0x3EE3 JUMP JUMPDEST SWAP5 POP DUP1 DUP9 ADD MLOAD SWAP3 POP POP PUSH2 0x140 DUP2 DUP8 DUP7 SUB ADD DUP2 DUP9 ADD MSTORE PUSH2 0x4442 DUP6 DUP5 PUSH2 0x3EE3 JUMP JUMPDEST SWAP5 POP DUP1 DUP9 ADD MLOAD SWAP3 POP POP PUSH2 0x160 DUP3 DUP2 DUP9 ADD MSTORE DUP1 DUP9 ADD MLOAD SWAP3 POP POP PUSH2 0x180 DUP2 DUP8 DUP7 SUB ADD DUP2 DUP9 ADD MSTORE PUSH2 0x4470 DUP6 DUP5 PUSH2 0x3EE3 JUMP JUMPDEST SWAP5 POP DUP1 DUP9 ADD MLOAD SWAP3 POP POP PUSH2 0x1A0 DUP2 DUP8 DUP7 SUB ADD DUP2 DUP9 ADD MSTORE PUSH2 0x448F DUP6 DUP5 PUSH2 0x3EE3 JUMP JUMPDEST SWAP1 DUP9 ADD MLOAD DUP8 DUP3 SUB SWAP1 SWAP3 ADD DUP5 DUP9 ADD MSTORE SWAP4 POP SWAP1 POP PUSH2 0x44AB DUP4 DUP3 PUSH2 0x3EE3 JUMP JUMPDEST SWAP7 SWAP6 POP POP POP POP POP POP JUMP JUMPDEST PUSH1 0x0 DUP1 PUSH1 0x40 DUP4 DUP6 SUB SLT ISZERO PUSH2 0x44C8 JUMPI PUSH1 0x0 DUP1 REVERT JUMPDEST PUSH2 0x44D1 DUP4 PUSH2 0x4035 JUMP JUMPDEST SWAP2 POP PUSH2 0xC40 PUSH1 0x20 DUP5 ADD PUSH2 0x4035 JUMP JUMPDEST PUSH1 0x1 DUP2 DUP2 SHR SWAP1 DUP3 AND DUP1 PUSH2 0x44F3 JUMPI PUSH1 0x7F DUP3 AND SWAP2 POP JUMPDEST PUSH1 0x20 DUP3 LT DUP2 EQ ISZERO PUSH2 0x4514 JUMPI PUSH4 0x4E487B71 PUSH1 0xE0 SHL PUSH1 0x0 MSTORE PUSH1 0x22 PUSH1 0x4 MSTORE PUSH1 0x24 PUSH1 0x0 REVERT JUMPDEST POP SWAP2 SWAP1 POP JUMP JUMPDEST PUSH1 0x20 DUP1 DUP3 MSTORE PUSH1 0x1F SWAP1 DUP3 ADD MSTORE PUSH32 0x5265656E7472616E637947756172643A207265656E7472616E742063616C6C00 PUSH1 0x40 DUP3 ADD MSTORE PUSH1 0x60 ADD SWAP1 JUMP JUMPDEST PUSH4 0x4E487B71 PUSH1 0xE0 SHL PUSH1 0x0 MSTORE PUSH1 0x11 PUSH1 0x4 MSTORE PUSH1 0x24 PUSH1 0x0 REVERT JUMPDEST PUSH1 0x0 PUSH1 0x0 NOT DUP3 EQ ISZERO PUSH2 0x457B JUMPI PUSH2 0x457B PUSH2 0x4551 JUMP JUMPDEST POP PUSH1 0x1 ADD SWAP1 JUMP JUMPDEST PUSH1 0x20 DUP1 DUP3 MSTORE PUSH1 0x2E SWAP1 DUP3 ADD MSTORE PUSH32 0x4552433732313A2063616C6C6572206973206E6F7420746F6B656E206F776E65 PUSH1 0x40 DUP3 ADD MSTORE PUSH14 0x1C881B9BDC88185C1C1C9BDD9959 PUSH1 0x92 SHL PUSH1 0x60 DUP3 ADD MSTORE PUSH1 0x80 ADD SWAP1 JUMP JUMPDEST PUSH1 0x0 DUP2 PUSH1 0x0 NOT DIV DUP4 GT DUP3 ISZERO ISZERO AND ISZERO PUSH2 0x45EA JUMPI PUSH2 0x45EA PUSH2 0x4551 JUMP JUMPDEST POP MUL SWAP1 JUMP JUMPDEST PUSH4 0x4E487B71 PUSH1 0xE0 SHL PUSH1 0x0 MSTORE PUSH1 0x12 PUSH1 0x4 MSTORE PUSH1 0x24 PUSH1 0x0 REVERT JUMPDEST PUSH1 0x0 DUP3 PUSH2 0x4614 JUMPI PUSH2 0x4614 PUSH2 0x45EF JUMP JUMPDEST POP DIV SWAP1 JUMP JUMPDEST PUSH1 0x0 DUP3 DUP3 LT ISZERO PUSH2 0x462B JUMPI PUSH2 0x462B PUSH2 0x4551 JUMP JUMPDEST POP SUB SWAP1 JUMP JUMPDEST PUSH4 0x4E487B71 PUSH1 0xE0 SHL PUSH1 0x0 MSTORE PUSH1 0x32 PUSH1 0x4 MSTORE PUSH1 0x24 PUSH1 0x0 REVERT JUMPDEST PUSH1 0x0 DUP3 MLOAD PUSH2 0x4658 DUP2 DUP5 PUSH1 0x20 DUP8 ADD PUSH2 0x3EB7 JUMP JUMPDEST SWAP2 SWAP1 SWAP2 ADD SWAP3 SWAP2 POP POP JUMP JUMPDEST DUP1 MLOAD PUSH5 0xFFFFFFFFFF DUP2 AND DUP2 EQ PUSH2 0x404C JUMPI PUSH1 0x0 DUP1 REVERT JUMPDEST PUSH1 0x0 DUP3 PUSH1 0x1F DUP4 ADD SLT PUSH2 0x4688 JUMPI PUSH1 0x0 DUP1 REVERT JUMPDEST DUP2 MLOAD PUSH2 0x4696 PUSH2 0x3FB0 DUP3 PUSH2 0x3F69 JUMP JUMPDEST DUP2 DUP2 MSTORE DUP5 PUSH1 0x20 DUP4 DUP7 ADD ADD GT ISZERO PUSH2 0x46AB JUMPI PUSH1 0x0 DUP1 REVERT JUMPDEST PUSH2 0x1FB8 DUP3 PUSH1 0x20 DUP4 ADD PUSH1 0x20 DUP8 ADD PUSH2 0x3EB7 JUMP JUMPDEST DUP1 MLOAD PUSH1 0xFF DUP2 AND DUP2 EQ PUSH2 0x404C JUMPI PUSH1 0x0 DUP1 REVERT JUMPDEST PUSH1 0x0 DUP1 PUSH1 0x0 DUP1 PUSH1 0x0 DUP1 PUSH1 0x0 PUSH1 0xE0 DUP9 DUP11 SUB SLT ISZERO PUSH2 0x46E8 JUMPI PUSH1 0x0 DUP1 REVERT JUMPDEST DUP8 MLOAD PUSH4 0xFFFFFFFF DUP2 AND DUP2 EQ PUSH2 0x46FC JUMPI PUSH1 0x0 DUP1 REVERT JUMPDEST SWAP7 POP PUSH2 0x470A PUSH1 0x20 DUP10 ADD PUSH2 0x4662 JUMP JUMPDEST SWAP6 POP PUSH1 0x40 DUP9 ADD MLOAD PUSH8 0xFFFFFFFFFFFFFFFF DUP1 DUP3 GT ISZERO PUSH2 0x4727 JUMPI PUSH1 0x0 DUP1 REVERT JUMPDEST PUSH2 0x4733 DUP12 DUP4 DUP13 ADD PUSH2 0x4677 JUMP JUMPDEST SWAP7 POP PUSH1 0x60 DUP11 ADD MLOAD SWAP2 POP DUP1 DUP3 GT ISZERO PUSH2 0x4749 JUMPI PUSH1 0x0 DUP1 REVERT JUMPDEST PUSH2 0x4755 DUP12 DUP4 DUP13 ADD PUSH2 0x4677 JUMP JUMPDEST SWAP6 POP PUSH2 0x4763 PUSH1 0x80 DUP12 ADD PUSH2 0x46BC JUMP JUMPDEST SWAP5 POP PUSH2 0x4771 PUSH1 0xA0 DUP12 ADD PUSH2 0x46BC JUMP JUMPDEST SWAP4 POP PUSH1 0xC0 DUP11 ADD MLOAD SWAP2 POP DUP1 DUP3 GT ISZERO PUSH2 0x4787 JUMPI PUSH1 0x0 DUP1 REVERT JUMPDEST POP PUSH2 0x4794 DUP11 DUP3 DUP12 ADD PUSH2 0x4677 JUMP JUMPDEST SWAP2 POP POP SWAP3 SWAP6 SWAP9 SWAP2 SWAP5 SWAP8 POP SWAP3 SWAP6 POP JUMP JUMPDEST PUSH4 0x4E487B71 PUSH1 0xE0 SHL PUSH1 0x0 MSTORE PUSH1 0x21 PUSH1 0x4 MSTORE PUSH1 0x24 PUSH1 0x0 REVERT JUMPDEST PUSH1 0x0 DUP3 PUSH2 0x47C8 JUMPI PUSH2 0x47C8 PUSH2 0x45EF JUMP JUMPDEST POP MOD SWAP1 JUMP JUMPDEST PUSH1 0x0 DUP4 MLOAD PUSH2 0x47DF DUP2 DUP5 PUSH1 0x20 DUP9 ADD PUSH2 0x3EB7 JUMP JUMPDEST DUP4 MLOAD SWAP1 DUP4 ADD SWAP1 PUSH2 0x47F3 DUP2 DUP4 PUSH1 0x20 DUP9 ADD PUSH2 0x3EB7 JUMP JUMPDEST ADD SWAP5 SWAP4 POP POP POP POP JUMP JUMPDEST PUSH1 0x0 DUP3 NOT DUP3 GT ISZERO PUSH2 0x480F JUMPI PUSH2 0x480F PUSH2 0x4551 JUMP JUMPDEST POP ADD SWAP1 JUMP JUMPDEST PUSH1 0x20 DUP1 DUP3 MSTORE PUSH1 0x2B SWAP1 DUP3 ADD MSTORE PUSH32 0x496E697469616C697A61626C653A20636F6E7472616374206973206E6F742069 PUSH1 0x40 DUP3 ADD MSTORE PUSH11 0x6E697469616C697A696E67 PUSH1 0xA8 SHL PUSH1 0x60 DUP3 ADD MSTORE PUSH1 0x80 ADD SWAP1 JUMP JUMPDEST PUSH1 0x20 DUP1 DUP3 MSTORE PUSH1 0x32 SWAP1 DUP3 ADD MSTORE PUSH32 0x4552433732313A207472616E7366657220746F206E6F6E204552433732315265 PUSH1 0x40 DUP3 ADD MSTORE PUSH18 0x31B2B4BB32B91034B6B83632B6B2B73A32B9 PUSH1 0x71 SHL PUSH1 0x60 DUP3 ADD MSTORE PUSH1 0x80 ADD SWAP1 JUMP JUMPDEST PUSH1 0x1 PUSH1 0x1 PUSH1 0xA0 SHL SUB DUP6 DUP2 AND DUP3 MSTORE DUP5 AND PUSH1 0x20 DUP3 ADD MSTORE PUSH1 0x40 DUP2 ADD DUP4 SWAP1 MSTORE PUSH1 0x80 PUSH1 0x60 DUP3 ADD DUP2 SWAP1 MSTORE PUSH1 0x0 SWAP1 PUSH2 0x44AB SWAP1 DUP4 ADD DUP5 PUSH2 0x3EE3 JUMP JUMPDEST PUSH1 0x0 PUSH1 0x20 DUP3 DUP5 SUB SLT ISZERO PUSH2 0x48F6 JUMPI PUSH1 0x0 DUP1 REVERT JUMPDEST DUP2 MLOAD PUSH2 0x1D14 DUP2 PUSH2 0x3E84 JUMP INVALID LOG2 PUSH5 0x6970667358 0x22 SLT KECCAK256 0xAB SWAP13 PUSH3 0x5227D4 SWAP15 0xCD DUP12 0xA6 ISZERO EXTCODECOPY 0xC5 0x23 CALLDATASIZE DIV 0xE CALLDATALOAD 0xDD PUSH8 0xFA2F5F4B241F55CB LOG4 LT DIV DUP6 PUSH5 0x736F6C6343 STOP ADDMOD 0xC STOP CALLER "},"methodIdentifiers":{"_admin()":"01bc45c9","_algorithm()":"a1bb1fcc","_counter()":"7cd49fde","_fee()":"c5b37c22","_oracle()":"247ac063","_paramsAddress()":"adfc7dae","_requestIdData(bytes32)":"d5978314","_tokenAddrErc721()":"e653c650","_uri()":"0dccc9ad","_whitelistFee()":"5275f37a","addWhitelist(address[],uint256)":"645b6701","approve(address,uint256)":"095ea7b3","balanceOf(address)":"70a08231","changeAdmin(address)":"8f283970","changeBaseURI(string)":"39a0c6f9","changeOracle(address)":"47c421b5","changeToken(address)":"66829b16","fulfill(bytes32,bytes)":"7c1de7e1","getApproved(uint256)":"081812fc","getParamValues(uint256)":"c0dca239","initialize(string,string,address,address)":"8f15b414","isApprovedForAll(address,address)":"e985e9c5","mint()":"1249c58b","mintByToken(uint256)":"80d953dd","mintWhitelist()":"2d3df31f","name()":"06fdde03","owner()":"8da5cb5b","ownerMint(uint256)":"f19e75d4","ownerOf(uint256)":"6352211e","pause()":"8456cb59","paused()":"5c975abb","renounceOwnership()":"715018a6","royaltyInfo(uint256,uint256)":"2a55205a","safeTransferFrom(address,address,uint256)":"42842e0e","safeTransferFrom(address,address,uint256,bytes)":"b88d4fde","setAlgo(string)":"0764da1d","setApprovalForAll(address,bool)":"a22cb465","setFee(uint256)":"69fe0e2d","setWhitelistFee(uint256)":"c6283c38","supportsInterface(bytes4)":"01ffc9a7","symbol()":"95d89b41","tokenURI(uint256)":"c87b56dd","transferFrom(address,address,uint256)":"23b872dd","transferOwnership(address)":"f2fde38b","unpause()":"3f4ba83a","withdraw(uint256)":"2e1a7d4d"}},"storageLayout":{"storage":[{"astId":740,"contract":"contracts/nft/AVATARS.sol:AVATARS","label":"_initialized","offset":0,"slot":"0","type":"t_uint8"},{"astId":743,"contract":"contracts/nft/AVATARS.sol:AVATARS","label":"_initializing","offset":1,"slot":"0","type":"t_bool"},{"astId":3222,"contract":"contracts/nft/AVATARS.sol:AVATARS","label":"__gap","offset":0,"slot":"1","type":"t_array(t_uint256)50_storage"},{"astId":3566,"contract":"contracts/nft/AVATARS.sol:AVATARS","label":"__gap","offset":0,"slot":"51","type":"t_array(t_uint256)50_storage"},{"astId":1177,"contract":"contracts/nft/AVATARS.sol:AVATARS","label":"_name","offset":0,"slot":"101","type":"t_string_storage"},{"astId":1179,"contract":"contracts/nft/AVATARS.sol:AVATARS","label":"_symbol","offset":0,"slot":"102","type":"t_string_storage"},{"astId":1183,"contract":"contracts/nft/AVATARS.sol:AVATARS","label":"_owners","offset":0,"slot":"103","type":"t_mapping(t_uint256,t_address)"},{"astId":1187,"contract":"contracts/nft/AVATARS.sol:AVATARS","label":"_balances","offset":0,"slot":"104","type":"t_mapping(t_address,t_uint256)"},{"astId":1191,"contract":"contracts/nft/AVATARS.sol:AVATARS","label":"_tokenApprovals","offset":0,"slot":"105","type":"t_mapping(t_uint256,t_address)"},{"astId":1197,"contract":"contracts/nft/AVATARS.sol:AVATARS","label":"_operatorApprovals","offset":0,"slot":"106","type":"t_mapping(t_address,t_mapping(t_address,t_bool))"},{"astId":2039,"contract":"contracts/nft/AVATARS.sol:AVATARS","label":"__gap","offset":0,"slot":"107","type":"t_array(t_uint256)44_storage"},{"astId":905,"contract":"contracts/nft/AVATARS.sol:AVATARS","label":"_paused","offset":0,"slot":"151","type":"t_bool"},{"astId":1010,"contract":"contracts/nft/AVATARS.sol:AVATARS","label":"__gap","offset":0,"slot":"152","type":"t_array(t_uint256)49_storage"},{"astId":2641,"contract":"contracts/nft/AVATARS.sol:AVATARS","label":"__gap","offset":0,"slot":"201","type":"t_array(t_uint256)50_storage"},{"astId":1025,"contract":"contracts/nft/AVATARS.sol:AVATARS","label":"_status","offset":0,"slot":"251","type":"t_uint256"},{"astId":1069,"contract":"contracts/nft/AVATARS.sol:AVATARS","label":"__gap","offset":0,"slot":"252","type":"t_array(t_uint256)49_storage"},{"astId":593,"contract":"contracts/nft/AVATARS.sol:AVATARS","label":"_owner","offset":0,"slot":"301","type":"t_address"},{"astId":713,"contract":"contracts/nft/AVATARS.sol:AVATARS","label":"__gap","offset":0,"slot":"302","type":"t_array(t_uint256)49_storage"},{"astId":4584,"contract":"contracts/nft/AVATARS.sol:AVATARS","label":"_admin","offset":0,"slot":"351","type":"t_address"},{"astId":4586,"contract":"contracts/nft/AVATARS.sol:AVATARS","label":"_paramsAddress","offset":0,"slot":"352","type":"t_address"},{"astId":4588,"contract":"contracts/nft/AVATARS.sol:AVATARS","label":"_oracle","offset":0,"slot":"353","type":"t_address"},{"astId":4592,"contract":"contracts/nft/AVATARS.sol:AVATARS","label":"_requestIdData","offset":0,"slot":"354","type":"t_mapping(t_bytes32,t_bytes_storage)"},{"astId":4594,"contract":"contracts/nft/AVATARS.sol:AVATARS","label":"_algorithm","offset":0,"slot":"355","type":"t_string_storage"},{"astId":4596,"contract":"contracts/nft/AVATARS.sol:AVATARS","label":"_counter","offset":0,"slot":"356","type":"t_uint256"},{"astId":4598,"contract":"contracts/nft/AVATARS.sol:AVATARS","label":"_uri","offset":0,"slot":"357","type":"t_string_storage"},{"astId":4600,"contract":"contracts/nft/AVATARS.sol:AVATARS","label":"_tokenAddrErc721","offset":0,"slot":"358","type":"t_address"},{"astId":4602,"contract":"contracts/nft/AVATARS.sol:AVATARS","label":"_fee","offset":0,"slot":"359","type":"t_uint256"},{"astId":4606,"contract":"contracts/nft/AVATARS.sol:AVATARS","label":"_whiteList","offset":0,"slot":"360","type":"t_mapping(t_address,t_uint256)"},{"astId":4608,"contract":"contracts/nft/AVATARS.sol:AVATARS","label":"_whitelistFee","offset":0,"slot":"361","type":"t_uint256"},{"astId":4618,"contract":"contracts/nft/AVATARS.sol:AVATARS","label":"_moods","offset":0,"slot":"362","type":"t_mapping(t_string_memory_ptr,t_struct(Mood)4613_storage)"}],"types":{"t_address":{"encoding":"inplace","label":"address","numberOfBytes":"20"},"t_array(t_uint256)44_storage":{"base":"t_uint256","encoding":"inplace","label":"uint256[44]","numberOfBytes":"1408"},"t_array(t_uint256)49_storage":{"base":"t_uint256","encoding":"inplace","label":"uint256[49]","numberOfBytes":"1568"},"t_array(t_uint256)50_storage":{"base":"t_uint256","encoding":"inplace","label":"uint256[50]","numberOfBytes":"1600"},"t_bool":{"encoding":"inplace","label":"bool","numberOfBytes":"1"},"t_bytes32":{"encoding":"inplace","label":"bytes32","numberOfBytes":"32"},"t_bytes_storage":{"encoding":"bytes","label":"bytes","numberOfBytes":"32"},"t_mapping(t_address,t_bool)":{"encoding":"mapping","key":"t_address","label":"mapping(address => bool)","numberOfBytes":"32","value":"t_bool"},"t_mapping(t_address,t_mapping(t_address,t_bool))":{"encoding":"mapping","key":"t_address","label":"mapping(address => mapping(address => bool))","numberOfBytes":"32","value":"t_mapping(t_address,t_bool)"},"t_mapping(t_address,t_uint256)":{"encoding":"mapping","key":"t_address","label":"mapping(address => uint256)","numberOfBytes":"32","value":"t_uint256"},"t_mapping(t_bytes32,t_bytes_storage)":{"encoding":"mapping","key":"t_bytes32","label":"mapping(bytes32 => bytes)","numberOfBytes":"32","value":"t_bytes_storage"},"t_mapping(t_string_memory_ptr,t_struct(Mood)4613_storage)":{"encoding":"mapping","key":"t_string_memory_ptr","label":"mapping(string => struct AVATARS.Mood)","numberOfBytes":"32","value":"t_struct(Mood)4613_storage"},"t_mapping(t_uint256,t_address)":{"encoding":"mapping","key":"t_uint256","label":"mapping(uint256 => address)","numberOfBytes":"32","value":"t_address"},"t_string_memory_ptr":{"encoding":"bytes","label":"string","numberOfBytes":"32"},"t_string_storage":{"encoding":"bytes","label":"string","numberOfBytes":"32"},"t_struct(Mood)4613_storage":{"encoding":"inplace","label":"struct AVATARS.Mood","members":[{"astId":4610,"contract":"contracts/nft/AVATARS.sol:AVATARS","label":"tempEmo","offset":0,"slot":"0","type":"t_string_storage"},{"astId":4612,"contract":"contracts/nft/AVATARS.sol:AVATARS","label":"tempLastTime","offset":0,"slot":"1","type":"t_uint256"}],"numberOfBytes":"64"},"t_uint256":{"encoding":"inplace","label":"uint256","numberOfBytes":"32"},"t_uint8":{"encoding":"inplace","label":"uint8","numberOfBytes":"1"}}}}}}