{"contracts/nft/AVATARS.sol":{"AVATARS":{"abi":[{"anonymous":false,"inputs":[{"indexed":true,"internalType":"address","name":"owner","type":"address"},{"indexed":true,"internalType":"address","name":"approved","type":"address"},{"indexed":true,"internalType":"uint256","name":"tokenId","type":"uint256"}],"name":"Approval","type":"event"},{"anonymous":false,"inputs":[{"indexed":true,"internalType":"address","name":"owner","type":"address"},{"indexed":true,"internalType":"address","name":"operator","type":"address"},{"indexed":false,"internalType":"bool","name":"approved","type":"bool"}],"name":"ApprovalForAll","type":"event"},{"anonymous":false,"inputs":[{"indexed":true,"internalType":"bytes32","name":"id","type":"bytes32"}],"name":"ChainlinkCancelled","type":"event"},{"anonymous":false,"inputs":[{"indexed":true,"internalType":"bytes32","name":"id","type":"bytes32"}],"name":"ChainlinkFulfilled","type":"event"},{"anonymous":false,"inputs":[{"indexed":true,"internalType":"bytes32","name":"id","type":"bytes32"}],"name":"ChainlinkRequested","type":"event"},{"anonymous":false,"inputs":[{"indexed":false,"internalType":"uint8","name":"version","type":"uint8"}],"name":"Initialized","type":"event"},{"anonymous":false,"inputs":[{"indexed":true,"internalType":"address","name":"previousOwner","type":"address"},{"indexed":true,"internalType":"address","name":"newOwner","type":"address"}],"name":"OwnershipTransferred","type":"event"},{"anonymous":false,"inputs":[{"indexed":false,"internalType":"address","name":"account","type":"address"}],"name":"Paused","type":"event"},{"anonymous":false,"inputs":[{"indexed":true,"internalType":"address","name":"from","type":"address"},{"indexed":true,"internalType":"address","name":"to","type":"address"},{"indexed":true,"internalType":"uint256","name":"tokenId","type":"uint256"}],"name":"Transfer","type":"event"},{"anonymous":false,"inputs":[{"indexed":false,"internalType":"address","name":"account","type":"address"}],"name":"Unpaused","type":"event"},{"inputs":[],"name":"_admin","outputs":[{"internalType":"address","name":"","type":"address"}],"stateMutability":"view","type":"function"},{"inputs":[],"name":"_algorithm","outputs":[{"internalType":"string","name":"","type":"string"}],"stateMutability":"view","type":"function"},{"inputs":[],"name":"_be","outputs":[{"internalType":"address","name":"","type":"address"}],"stateMutability":"view","type":"function"},{"inputs":[],"name":"_counter","outputs":[{"internalType":"uint256","name":"","type":"uint256"}],"stateMutability":"view","type":"function"},{"inputs":[],"name":"_fee","outputs":[{"internalType":"uint256","name":"","type":"uint256"}],"stateMutability":"view","type":"function"},{"inputs":[],"name":"_paramsAddress","outputs":[{"internalType":"address","name":"","type":"address"}],"stateMutability":"view","type":"function"},{"inputs":[],"name":"_tokenAddrErc721","outputs":[{"internalType":"address","name":"","type":"address"}],"stateMutability":"view","type":"function"},{"inputs":[],"name":"_uri","outputs":[{"internalType":"string","name":"","type":"string"}],"stateMutability":"view","type":"function"},{"inputs":[],"name":"_whitelistFee","outputs":[{"internalType":"uint256","name":"","type":"uint256"}],"stateMutability":"view","type":"function"},{"inputs":[{"internalType":"address[]","name":"addrs","type":"address[]"},{"internalType":"uint256","name":"count","type":"uint256"}],"name":"addWhitelist","outputs":[],"stateMutability":"nonpayable","type":"function"},{"inputs":[{"internalType":"address","name":"to","type":"address"},{"internalType":"uint256","name":"tokenId","type":"uint256"}],"name":"approve","outputs":[],"stateMutability":"nonpayable","type":"function"},{"inputs":[{"internalType":"address","name":"owner","type":"address"}],"name":"balanceOf","outputs":[{"internalType":"uint256","name":"","type":"uint256"}],"stateMutability":"view","type":"function"},{"inputs":[{"internalType":"address","name":"newAdm","type":"address"}],"name":"changeAdmin","outputs":[],"stateMutability":"nonpayable","type":"function"},{"inputs":[{"internalType":"string","name":"baseURI","type":"string"}],"name":"changeBaseURI","outputs":[],"stateMutability":"nonpayable","type":"function"},{"inputs":[{"internalType":"address","name":"oracle","type":"address"}],"name":"changeOracle","outputs":[],"stateMutability":"nonpayable","type":"function"},{"inputs":[{"internalType":"address","name":"sweet","type":"address"}],"name":"changeToken","outputs":[],"stateMutability":"nonpayable","type":"function"},{"inputs":[{"internalType":"bytes32","name":"requestId","type":"bytes32"},{"internalType":"bytes","name":"gameData","type":"bytes"}],"name":"fulfill","outputs":[],"stateMutability":"nonpayable","type":"function"},{"inputs":[{"internalType":"uint256","name":"tokenId","type":"uint256"}],"name":"getApproved","outputs":[{"internalType":"address","name":"","type":"address"}],"stateMutability":"view","type":"function"},{"inputs":[{"internalType":"uint256","name":"tokenId","type":"uint256"}],"name":"getParamValues","outputs":[{"components":[{"internalType":"string","name":"_emotion","type":"string"},{"internalType":"string","name":"_emotionTime","type":"string"},{"internalType":"string","name":"_nation","type":"string"},{"internalType":"string","name":"_dna","type":"string"},{"internalType":"string","name":"_skin","type":"string"},{"internalType":"string","name":"_beard","type":"string"},{"internalType":"string","name":"_hair","type":"string"},{"internalType":"string","name":"_shoes","type":"string"},{"internalType":"string","name":"_top","type":"string"},{"internalType":"string","name":"_bottom","type":"string"},{"internalType":"uint256","name":"_number","type":"uint256"},{"internalType":"string","name":"_tatoo","type":"string"},{"internalType":"string","name":"_glasses","type":"string"},{"internalType":"string","name":"_gloves","type":"string"}],"internalType":"struct AVATARS.Player","name":"player","type":"tuple"}],"stateMutability":"view","type":"function"},{"inputs":[{"internalType":"string","name":"name","type":"string"},{"internalType":"string","name":"symbol","type":"string"},{"internalType":"address","name":"admin","type":"address"},{"internalType":"address","name":"paramsAddress","type":"address"},{"internalType":"address","name":"LINK_TOKEN","type":"address"},{"internalType":"address","name":"ORACLE","type":"address"}],"name":"initialize","outputs":[],"stateMutability":"nonpayable","type":"function"},{"inputs":[{"internalType":"address","name":"owner","type":"address"},{"internalType":"address","name":"operator","type":"address"}],"name":"isApprovedForAll","outputs":[{"internalType":"bool","name":"","type":"bool"}],"stateMutability":"view","type":"function"},{"inputs":[],"name":"mint","outputs":[],"stateMutability":"payable","type":"function"},{"inputs":[{"internalType":"uint256","name":"tokenIdGated","type":"uint256"}],"name":"mintByToken","outputs":[],"stateMutability":"nonpayable","type":"function"},{"inputs":[],"name":"mintWhitelist","outputs":[],"stateMutability":"payable","type":"function"},{"inputs":[],"name":"name","outputs":[{"internalType":"string","name":"","type":"string"}],"stateMutability":"view","type":"function"},{"inputs":[],"name":"owner","outputs":[{"internalType":"address","name":"","type":"address"}],"stateMutability":"view","type":"function"},{"inputs":[{"internalType":"uint256","name":"id","type":"uint256"}],"name":"ownerMint","outputs":[],"stateMutability":"nonpayable","type":"function"},{"inputs":[{"internalType":"uint256","name":"tokenId","type":"uint256"}],"name":"ownerOf","outputs":[{"internalType":"address","name":"","type":"address"}],"stateMutability":"view","type":"function"},{"inputs":[],"name":"pause","outputs":[],"stateMutability":"nonpayable","type":"function"},{"inputs":[],"name":"paused","outputs":[{"internalType":"bool","name":"","type":"bool"}],"stateMutability":"view","type":"function"},{"inputs":[],"name":"renounceOwnership","outputs":[],"stateMutability":"nonpayable","type":"function"},{"inputs":[{"internalType":"bytes32","name":"jobId","type":"bytes32"},{"internalType":"uint256","name":"fee","type":"uint256"},{"internalType":"string","name":"url","type":"string"},{"internalType":"string","name":"path","type":"string"}],"name":"requestData","outputs":[{"internalType":"bytes32","name":"requestId","type":"bytes32"}],"stateMutability":"nonpayable","type":"function"},{"inputs":[{"internalType":"uint256","name":"_tokenId","type":"uint256"},{"internalType":"uint256","name":"_salePrice","type":"uint256"}],"name":"royaltyInfo","outputs":[{"internalType":"address","name":"receiver","type":"address"},{"internalType":"uint256","name":"royaltyAmount","type":"uint256"}],"stateMutability":"view","type":"function"},{"inputs":[{"internalType":"address","name":"from","type":"address"},{"internalType":"address","name":"to","type":"address"},{"internalType":"uint256","name":"tokenId","type":"uint256"}],"name":"safeTransferFrom","outputs":[],"stateMutability":"nonpayable","type":"function"},{"inputs":[{"internalType":"address","name":"from","type":"address"},{"internalType":"address","name":"to","type":"address"},{"internalType":"uint256","name":"tokenId","type":"uint256"},{"internalType":"bytes","name":"data","type":"bytes"}],"name":"safeTransferFrom","outputs":[],"stateMutability":"nonpayable","type":"function"},{"inputs":[{"internalType":"string","name":"algo","type":"string"}],"name":"setAlgo","outputs":[],"stateMutability":"nonpayable","type":"function"},{"inputs":[{"internalType":"address","name":"operator","type":"address"},{"internalType":"bool","name":"approved","type":"bool"}],"name":"setApprovalForAll","outputs":[],"stateMutability":"nonpayable","type":"function"},{"inputs":[{"internalType":"address","name":"be","type":"address"}],"name":"setBE","outputs":[],"stateMutability":"nonpayable","type":"function"},{"inputs":[{"internalType":"uint256","name":"fee","type":"uint256"}],"name":"setFee","outputs":[],"stateMutability":"nonpayable","type":"function"},{"inputs":[{"internalType":"uint256","name":"whitelistFee","type":"uint256"}],"name":"setWhitelistFee","outputs":[],"stateMutability":"nonpayable","type":"function"},{"inputs":[{"internalType":"bytes4","name":"interfaceId","type":"bytes4"}],"name":"supportsInterface","outputs":[{"internalType":"bool","name":"","type":"bool"}],"stateMutability":"view","type":"function"},{"inputs":[],"name":"symbol","outputs":[{"internalType":"string","name":"","type":"string"}],"stateMutability":"view","type":"function"},{"inputs":[{"internalType":"uint256","name":"tokenId","type":"uint256"}],"name":"tokenURI","outputs":[{"internalType":"string","name":"","type":"string"}],"stateMutability":"view","type":"function"},{"inputs":[{"internalType":"address","name":"from","type":"address"},{"internalType":"address","name":"to","type":"address"},{"internalType":"uint256","name":"tokenId","type":"uint256"}],"name":"transferFrom","outputs":[],"stateMutability":"nonpayable","type":"function"},{"inputs":[{"internalType":"address","name":"newOwner","type":"address"}],"name":"transferOwnership","outputs":[],"stateMutability":"nonpayable","type":"function"},{"inputs":[],"name":"unpause","outputs":[],"stateMutability":"nonpayable","type":"function"},{"inputs":[{"internalType":"uint256","name":"amount","type":"uint256"}],"name":"withdraw","outputs":[],"stateMutability":"nonpayable","type":"function"},{"inputs":[],"name":"withdrawLink","outputs":[],"stateMutability":"nonpayable","type":"function"}],"evm":{"bytecode":{"linkReferences":{},"object":"608060405234801561001057600080fd5b5061595680620000216000396000f3fe6080604052600436106102935760003560e01c8063715018a61161015a578063adfc7dae116100c1578063db76746b1161007a578063db76746b146107a5578063e56f2fe4146107c5578063e653c650146107e5578063e985e9c514610806578063f19e75d414610826578063f2fde38b1461084657600080fd5b8063adfc7dae146106e0578063b88d4fde14610701578063c0dca23914610721578063c5b37c221461074e578063c6283c3814610765578063c87b56dd1461078557600080fd5b80638dc654a2116101135780638dc654a2146106415780638f2839701461065657806395d89b4114610676578063973e5d251461068b578063a1bb1fcc146106ab578063a22cb465146106c057600080fd5b8063715018a6146105a15780637c1de7e1146105b65780637cd49fde146105d657806380d953dd146105ed5780638456cb591461060d5780638da5cb5b1461062257600080fd5b806339a0c6f9116101fe5780636352211e116101b75780636352211e146104e0578063645b67011461050057806366829b161461052057806369fe0e2d146105405780636d0257e21461056057806370a082311461058157600080fd5b806339a0c6f91461042e5780633f4ba83a1461044e57806342842e0e1461046357806347c421b5146104835780635275f37a146104a35780635c975abb146104c857600080fd5b80630dccc9ad116102505780630dccc9ad1461038a5780631249c58b1461039f57806323b872dd146103a75780632a55205a146103c75780632d3df31f146104065780632e1a7d4d1461040e57600080fd5b806301bc45c91461029857806301ffc9a7146102d657806306fdde03146103065780630764da1d14610328578063081812fc1461034a578063095ea7b31461036a575b600080fd5b3480156102a457600080fd5b50610165546102b9906001600160a01b031681565b6040516001600160a01b0390911681526020015b60405180910390f35b3480156102e257600080fd5b506102f66102f1366004614ded565b610866565b60405190151581526020016102cd565b34801561031257600080fd5b5061031b6108b8565b6040516102cd9190614e62565b34801561033457600080fd5b50610348610343366004614f2a565b61094a565b005b34801561035657600080fd5b506102b9610365366004614f5e565b6109b3565b34801561037657600080fd5b50610348610385366004614f93565b6109da565b34801561039657600080fd5b5061031b610af0565b610348610b7f565b3480156103b357600080fd5b506103486103c2366004614fbd565b610c32565b3480156103d357600080fd5b506103e76103e2366004614ff9565b610c63565b604080516001600160a01b0390931683526020830191909152016102cd565b610348610c94565b34801561041a57600080fd5b50610348610429366004614f5e565b610dbb565b34801561043a57600080fd5b50610348610449366004614f2a565b610e89565b34801561045a57600080fd5b50610348610ee5565b34801561046f57600080fd5b5061034861047e366004614fbd565b610f37565b34801561048f57600080fd5b5061034861049e36600461501b565b610f52565b3480156104af57600080fd5b506104ba61016e5481565b6040519081526020016102cd565b3480156104d457600080fd5b5060975460ff166102f6565b3480156104ec57600080fd5b506102b96104fb366004614f5e565b610fa6565b34801561050c57600080fd5b5061034861051b366004615036565b611006565b34801561052c57600080fd5b5061034861053b36600461501b565b6110b1565b34801561054c57600080fd5b5061034861055b366004614f5e565b61111c565b34801561056c57600080fd5b50610166546102b9906001600160a01b031681565b34801561058d57600080fd5b506104ba61059c36600461501b565b61116a565b3480156105ad57600080fd5b506103486111f0565b3480156105c257600080fd5b506103486105d13660046150e8565b611202565b3480156105e257600080fd5b506104ba6101695481565b3480156105f957600080fd5b50610348610608366004614f5e565b6112c5565b34801561061957600080fd5b50610348611441565b34801561062e57600080fd5b5061012d546001600160a01b03166102b9565b34801561064d57600080fd5b50610348611491565b34801561066257600080fd5b5061034861067136600461501b565b611613565b34801561068257600080fd5b5061031b6116af565b34801561069757600080fd5b506103486106a636600461501b565b6116be565b3480156106b757600080fd5b5061031b611729565b3480156106cc57600080fd5b506103486106db36600461513c565b611737565b3480156106ec57600080fd5b50610167546102b9906001600160a01b031681565b34801561070d57600080fd5b5061034861071c366004615173565b611742565b34801561072d57600080fd5b5061074161073c366004614f5e565b61177a565b6040516102cd91906151da565b34801561075a57600080fd5b506104ba61016c5481565b34801561077157600080fd5b50610348610780366004614f5e565b611b6c565b34801561079157600080fd5b5061031b6107a0366004614f5e565b611bba565b3480156107b157600080fd5b506104ba6107c036600461536e565b611c21565b3480156107d157600080fd5b506103486107e03660046153d8565b611cfe565b3480156107f157600080fd5b5061016b546102b9906001600160a01b031681565b34801561081257600080fd5b506102f661082136600461547c565b611eec565b34801561083257600080fd5b50610348610841366004614f5e565b611f1a565b34801561085257600080fd5b5061034861086136600461501b565b611fb8565b60006001600160e01b031982166380ac58cd60e01b148061089757506001600160e01b03198216635b5e139f60e01b145b806108b257506301ffc9a760e01b6001600160e01b03198316145b92915050565b6060606580546108c7906154a6565b80601f01602080910402602001604051908101604052809291908181526020018280546108f3906154a6565b80156109405780601f1061091557610100808354040283529160200191610940565b820191906000526020600020905b81548152906001019060200180831161092357829003601f168201915b5050505050905090565b6101655460408051808201909152600381526231303160e81b6020820152906001600160a01b0316331461099a5760405162461bcd60e51b81526004016109919190614e62565b60405180910390fd5b5080516109af90610168906020840190614b1f565b5050565b60006109be8261202e565b506000908152606960205260409020546001600160a01b031690565b60006109e582610fa6565b9050806001600160a01b0316836001600160a01b03161415610a535760405162461bcd60e51b815260206004820152602160248201527f4552433732313a20617070726f76616c20746f2063757272656e74206f776e656044820152603960f91b6064820152608401610991565b336001600160a01b0382161480610a6f5750610a6f8133611eec565b610ae15760405162461bcd60e51b815260206004820152603e60248201527f4552433732313a20617070726f76652063616c6c6572206973206e6f7420746f60448201527f6b656e206f776e6572206e6f7220617070726f76656420666f7220616c6c00006064820152608401610991565b610aeb838361208d565b505050565b61016a8054610afe906154a6565b80601f0160208091040260200160405190810160405280929190818152602001828054610b2a906154a6565b8015610b775780601f10610b4c57610100808354040283529160200191610b77565b820191906000526020600020905b815481529060010190602001808311610b5a57829003601f168201915b505050505081565b600260fb541415610ba25760405162461bcd60e51b8152600401610991906154db565b600260fb5561016c5415801590610bbc575061016c543410155b6040518060400160405280600381526020016232303160e81b81525090610bf65760405162461bcd60e51b81526004016109919190614e62565b506111946101695410610c0857600080fd5b6101698054906000610c1983615528565b9190505550610c2b33610169546120fb565b600160fb55565b610c3c3382612115565b610c585760405162461bcd60e51b815260040161099190615543565b610aeb838383612173565b610165546001600160a01b03166000612710610c81846101f4615591565b610c8b91906155c6565b90509250929050565b600260fb541415610cb75760405162461bcd60e51b8152600401610991906154db565b600260fb5533600090815261016d6020908152604091829020548251808401909352600383526203130360ec1b91830191909152610d085760405162461bcd60e51b81526004016109919190614e62565b50600061016e54118015610d1f575061016e543410155b6040518060400160405280600381526020016232303160e81b81525090610d595760405162461bcd60e51b81526004016109919190614e62565b506111946101695410610d6b57600080fd5b6101698054906000610d7c83615528565b9190505550610d8e33610169546120fb565b33600090815261016d60205260408120805460019290610daf9084906155da565b9091555050600160fb55565b600260fb541415610dde5760405162461bcd60e51b8152600401610991906154db565b600260fb556101655460408051808201909152600381526231303160e81b6020820152906001600160a01b03163314610e2a5760405162461bcd60e51b81526004016109919190614e62565b50604051600090339047908381818185875af1925050503d8060008114610e6d576040519150601f19603f3d011682016040523d82523d6000602084013e610e72565b606091505b5050905080610e8057600080fd5b5050600160fb55565b6101655460408051808201909152600381526231303160e81b6020820152906001600160a01b03163314610ed05760405162461bcd60e51b81526004016109919190614e62565b5080516109af9061016a906020840190614b1f565b6101655460408051808201909152600381526231303160e81b6020820152906001600160a01b03163314610f2c5760405162461bcd60e51b81526004016109919190614e62565b50610f3561231a565b565b610aeb83838360405180602001604052806000815250611742565b6101655460408051808201909152600381526231303160e81b6020820152906001600160a01b03163314610f995760405162461bcd60e51b81526004016109919190614e62565b50610fa38161236c565b50565b6000818152606760205260408120546001600160a01b0316806108b25760405162461bcd60e51b8152602060048201526018602482015277115490cdcc8c4e881a5b9d985b1a59081d1bdad95b88125160421b6044820152606401610991565b6101655460408051808201909152600381526231303160e81b6020820152906001600160a01b0316331461104d5760405162461bcd60e51b81526004016109919190614e62565b5060005b8251811015610aeb578161016d6000858481518110611072576110726155f1565b60200260200101516001600160a01b03166001600160a01b031681526020019081526020016000208190555080806110a990615528565b915050611051565b6101655460408051808201909152600381526231303160e81b6020820152906001600160a01b031633146110f85760405162461bcd60e51b81526004016109919190614e62565b5061016b80546001600160a01b0319166001600160a01b0392909216919091179055565b6101655460408051808201909152600381526231303160e81b6020820152906001600160a01b031633146111635760405162461bcd60e51b81526004016109919190614e62565b5061016c55565b60006001600160a01b0382166111d45760405162461bcd60e51b815260206004820152602960248201527f4552433732313a2061646472657373207a65726f206973206e6f7420612076616044820152683634b21037bbb732b960b91b6064820152608401610991565b506001600160a01b031660009081526068602052604090205490565b6111f861238f565b610f3560006123ea565b6000828152610164602052604090205482906001600160a01b0316331461127c5760405162461bcd60e51b815260206004820152602860248201527f536f75726365206d75737420626520746865206f7261636c65206f6620746865604482015267081c995c5d595cdd60c21b6064820152608401610991565b6000818152610164602052604080822080546001600160a01b03191690555182917f7cc135e0cebb02c3480ae5d74d377283180a2601f8f644edf7987b009316c63a91a2505050565b600260fb5414156112e85760405162461bcd60e51b8152600401610991906154db565b600260fb5561016b5460408051808201909152600381526203130360ec1b6020820152906001600160a01b03166113325760405162461bcd60e51b81526004016109919190614e62565b50600761135c8260405180604001604052806005815260200164736861706560d81b81525061243d565b6113669190615607565b6040805180820190915260038152620c8c0d60ea1b6020820152901561139f5760405162461bcd60e51b81526004016109919190614e62565b5061016b546040516323b872dd60e01b8152336004820152306024820152604481018390526001600160a01b039091169081906323b872dd90606401600060405180830381600087803b1580156113f557600080fd5b505af1158015611409573d6000803e3d6000fd5b50505050611194610169541061141e57600080fd5b610169805490600061142f83615528565b9190505550610e8033610169546120fb565b6101655460408051808201909152600381526231303160e81b6020820152906001600160a01b031633146114885760405162461bcd60e51b81526004016109919190614e62565b50610f35612479565b6101655460408051808201909152600381526231303160e81b6020820152906001600160a01b031633146114d85760405162461bcd60e51b81526004016109919190614e62565b5060006114ee610161546001600160a01b031690565b6040516370a0823160e01b81523060048201529091506001600160a01b0382169063a9059cbb90339083906370a0823190602401602060405180830381865afa15801561153f573d6000803e3d6000fd5b505050506040513d601f19601f82011682018060405250810190611563919061561b565b6040516001600160e01b031960e085901b1681526001600160a01b03909216600483015260248201526044016020604051808303816000875af11580156115ae573d6000803e3d6000fd5b505050506040513d601f19601f820116820180604052508101906115d29190615634565b610fa35760405162461bcd60e51b81526020600482015260126024820152712ab730b13632903a37903a3930b739b332b960711b6044820152606401610991565b610165546001600160a01b03163314801561163657506001600160a01b03811615155b80156116515750610165546001600160a01b03828116911614155b6040518060400160405280600381526020016231303160e81b8152509061168b5760405162461bcd60e51b81526004016109919190614e62565b5061016580546001600160a01b0319166001600160a01b0392909216919091179055565b6060606680546108c7906154a6565b6101655460408051808201909152600381526231303160e81b6020820152906001600160a01b031633146117055760405162461bcd60e51b81526004016109919190614e62565b5061016680546001600160a01b0319166001600160a01b0392909216919091179055565b6101688054610afe906154a6565b6109af3383836124b6565b61174c3383612115565b6117685760405162461bcd60e51b815260040161099190615543565b61177484848484612585565b50505050565b6117ec604051806101c0016040528060608152602001606081526020016060815260200160608152602001606081526020016060815260200160608152602001606081526020016060815260200160608152602001600081526020016060815260200160608152602001606081525090565b60006117f7836125b8565b90506000611804846126b5565b9050600061016f836040516118199190615651565b9081526040519081900360200190208054611833906154a6565b80601f016020809104026020016040519081016040528092919081815260200182805461185f906154a6565b80156118ac5780601f10611881576101008083540402835291602001916118ac565b820191906000526020600020905b81548152906001019060200180831161188f57829003601f168201915b50505050509050611964826101726000815481106118cc576118cc6155f1565b9060005260206000200180546118e1906154a6565b80601f016020809104026020016040519081016040528092919081815260200182805461190d906154a6565b801561195a5780601f1061192f5761010080835404028352916020019161195a565b820191906000526020600020905b81548152906001019060200180831161193d57829003601f168201915b50505050506127ae565b611aae576000620151809050611989836101726003815481106118cc576118cc6155f1565b156119a05761199981601e615591565b90506119cc565b6119b9836101726002815481106118cc576118cc6155f1565b156119cc576119c9816007615591565b90505b8061016f856040516119de9190615651565b908152602001604051809103902060010154426119fb91906155da565b1115611aac57610171600081548110611a1657611a166155f1565b906000526020600020018054611a2b906154a6565b80601f0160208091040260200160405190810160405280929190818152602001828054611a57906154a6565b8015611aa45780601f10611a7957610100808354040283529160200191611aa4565b820191906000526020600020905b815481529060010190602001808311611a8757829003601f168201915b505050505091505b505b604051806101c00160405280828152602001838152602001848152602001611ad587612807565b8152602001611ae3876128f8565b8152602001611af187612a94565b8152602001611aff87612c50565b8152602001611b0d87612efa565b8152602001611b1b87612fec565b8152602001611b29876130dd565b8152602001611b37876131d1565b8152602001611b45876131ff565b8152602001611b53876132f2565b8152602001611b61876133e7565b905295945050505050565b6101655460408051808201909152600381526231303160e81b6020820152906001600160a01b03163314611bb35760405162461bcd60e51b81526004016109919190614e62565b5061016e55565b6060611bc58261202e565b6000611bcf6134dc565b90506000815111611bef5760405180602001604052806000815250611c1a565b80611bf9846134ec565b604051602001611c0a92919061566d565b6040516020818303038152906040525b9392505050565b610165546000906001600160a01b0316331480611c495750610166546001600160a01b031633145b6040518060400160405280600381526020016231303160e81b81525090611c835760405162461bcd60e51b81526004016109919190614e62565b506000611c988630637c1de7e160e01b6135e9565b60408051808201909152600381526219d95d60ea1b6020820152909150611cc19082908661360e565b6040805180820190915260048152630e0c2e8d60e31b6020820152611ce89082908561360e565b611cf2818661362c565b9150505b949350505050565b600054610100900460ff1615808015611d1e5750600054600160ff909116105b80611d385750303b158015611d38575060005460ff166001145b611d9b5760405162461bcd60e51b815260206004820152602e60248201527f496e697469616c697a61626c653a20636f6e747261637420697320616c72656160448201526d191e481a5b9a5d1a585b1a5e995960921b6064820152608401610991565b6000805460ff191660011790558015611dbe576000805461ff0019166101001790555b60408051808201909152600381526203130360ec1b60208201526001600160a01b038616611dff5760405162461bcd60e51b81526004016109919190614e62565b5060408051808201909152600381526203130360ec1b60208201526001600160a01b038516611e415760405162461bcd60e51b81526004016109919190614e62565b50611e4c8787613647565b61016780546001600160a01b038681166001600160a01b0319928316179092556101658054888416908316179055610161805492861692909116919091179055611e958261236c565b611e9d613678565b8015611ee3576000805461ff0019169055604051600181527f7f26b83ff96e1f2b6a682f133852f6798a09c465da95921460cefb38474024989060200160405180910390a15b50505050505050565b6001600160a01b039182166000908152606a6020908152604080832093909416825291909152205460ff1690565b600260fb541415611f3d5760405162461bcd60e51b8152600401610991906154db565b600260fb556101655460408051808201909152600381526231303160e81b6020820152906001600160a01b03163314611f895760405162461bcd60e51b81526004016109919190614e62565b5061119481118015611f9d57506113888111155b611fa657600080fd5b611fb033826120fb565b50600160fb55565b611fc061238f565b6001600160a01b0381166120255760405162461bcd60e51b815260206004820152602660248201527f4f776e61626c653a206e6577206f776e657220697320746865207a65726f206160448201526564647265737360d01b6064820152608401610991565b610fa3816123ea565b6000818152606760205260409020546001600160a01b0316610fa35760405162461bcd60e51b8152602060048201526018602482015277115490cdcc8c4e881a5b9d985b1a59081d1bdad95b88125160421b6044820152606401610991565b600081815260696020526040902080546001600160a01b0319166001600160a01b03841690811790915581906120c282610fa6565b6001600160a01b03167f8c5be1e5ebec7d5bd14f71427d1e84f3dd0314c0f7b2291e5b200ac8c7c3b92560405160405180910390a45050565b6109af8282604051806020016040528060008152506140d4565b60008061212183610fa6565b9050806001600160a01b0316846001600160a01b0316148061214857506121488185611eec565b80611cf65750836001600160a01b0316612161846109b3565b6001600160a01b031614949350505050565b826001600160a01b031661218682610fa6565b6001600160a01b0316146121ea5760405162461bcd60e51b815260206004820152602560248201527f4552433732313a207472616e736665722066726f6d20696e636f72726563742060448201526437bbb732b960d91b6064820152608401610991565b6001600160a01b03821661224c5760405162461bcd60e51b8152602060048201526024808201527f4552433732313a207472616e7366657220746f20746865207a65726f206164646044820152637265737360e01b6064820152608401610991565b612257838383614107565b61226260008261208d565b6001600160a01b038316600090815260686020526040812080546001929061228b9084906155da565b90915550506001600160a01b03821660009081526068602052604081208054600192906122b990849061569c565b909155505060008181526067602052604080822080546001600160a01b0319166001600160a01b0386811691821790925591518493918716917fddf252ad1be2c89b69c2b068fc378daa952ba7f163c4a11628f55a4df523b3ef91a4505050565b61232261416e565b6097805460ff191690557f5db9ee0a495bf2e6ff9c91a7834c1ba4fdd244a5e8aa4e537bd38aeae4b073aa335b6040516001600160a01b03909116815260200160405180910390a1565b61016280546001600160a01b0319166001600160a01b0392909216919091179055565b61012d546001600160a01b03163314610f355760405162461bcd60e51b815260206004820181905260248201527f4f776e61626c653a2063616c6c6572206973206e6f7420746865206f776e65726044820152606401610991565b61012d80546001600160a01b038381166001600160a01b0319831681179093556040519116919082907f8be0079c531659141344cd1fd0a4f28419497f9722a3daafe3b4186f6b6457e090600090a35050565b600081612449846134ec565b60405160200161245a92919061566d565b60408051601f1981840301815291905280516020909101209392505050565b6124816141b7565b6097805460ff191660011790557f62e78cea01bee320cd4e420270b5ea74000d11b0c9f74754ebdbfc544b05a25861234f3390565b816001600160a01b0316836001600160a01b031614156125185760405162461bcd60e51b815260206004820152601960248201527f4552433732313a20617070726f766520746f2063616c6c6572000000000000006044820152606401610991565b6001600160a01b038381166000818152606a6020908152604080832094871680845294825291829020805460ff191686151590811790915591519182527f17307eab39ab6107e8899845ad3d59bd9653f200f220920489ca2b5937696c31910160405180910390a3505050565b612590848484612173565b61259c848484846141fd565b6117745760405162461bcd60e51b8152600401610991906156b4565b60606108b282604051806040016040528060068152602001653730ba34b7b760d11b815250610170805480602002602001604051908101604052809291908181526020016000905b828210156126ac57838290600052602060002001805461261f906154a6565b80601f016020809104026020016040519081016040528092919081815260200182805461264b906154a6565b80156126985780601f1061266d57610100808354040283529160200191612698565b820191906000526020600020905b81548152906001019060200180831161267b57829003601f168201915b505050505081526020019060010190612600565b505050506142f8565b60606108b2826040518060400160405280600b81526020016a656d6f74696f6e54696d6560a81b815250610172805480602002602001604051908101604052809291908181526020016000905b828210156126ac578382906000526020600020018054612721906154a6565b80601f016020809104026020016040519081016040528092919081815260200182805461274d906154a6565b801561279a5780601f1061276f5761010080835404028352916020019161279a565b820191906000526020600020905b81548152906001019060200180831161277d57829003601f168201915b505050505081526020019060010190612702565b6000816040516020016127c19190615651565b60405160208183030381529060405280519060200120836040516020016127e89190615651565b6040516020818303038152906040528051906020012014905092915050565b60606108b28260405180604001604052806003815260200162646e6160e81b815250610173805480602002602001604051908101604052809291908181526020016000905b828210156126ac57838290600052602060002001805461286b906154a6565b80601f0160208091040260200160405190810160405280929190818152602001828054612897906154a6565b80156128e45780601f106128b9576101008083540402835291602001916128e4565b820191906000526020600020905b8154815290600101906020018083116128c757829003601f168201915b50505050508152602001906001019061284c565b6060600061290583612807565b9050612920816101736002815481106118cc576118cc6155f1565b8061293f575061293f816101736003815481106118cc576118cc6155f1565b8061295e575061295e816101736004815481106118cc576118cc6155f1565b8061297d575061297d816101736005815481106118cc576118cc6155f1565b156129a45750506040805180820190915260048152636e6f6e6560e01b6020820152919050565b611c1a836040518060400160405280600481526020016339b5b4b760e11b815250610174805480602002602001604051908101604052809291908181526020016000905b828210156126ac578382906000526020600020018054612a07906154a6565b80601f0160208091040260200160405190810160405280929190818152602001828054612a33906154a6565b8015612a805780601f10612a5557610100808354040283529160200191612a80565b820191906000526020600020905b815481529060010190602001808311612a6357829003601f168201915b5050505050815260200190600101906129e8565b60606000612aa183612807565b9050612abc816101736001815481106118cc576118cc6155f1565b80612adb5750612adb816101736002815481106118cc576118cc6155f1565b80612afa5750612afa816101736003815481106118cc576118cc6155f1565b80612b195750612b19816101736004815481106118cc576118cc6155f1565b80612b385750612b38816101736005815481106118cc576118cc6155f1565b15612b5f5750506040805180820190915260048152636e6f6e6560e01b6020820152919050565b611c1a83604051806040016040528060058152602001641899585c9960da1b815250610175805480602002602001604051908101604052809291908181526020016000905b828210156126ac578382906000526020600020018054612bc3906154a6565b80601f0160208091040260200160405190810160405280929190818152602001828054612bef906154a6565b8015612c3c5780601f10612c1157610100808354040283529160200191612c3c565b820191906000526020600020905b815481529060010190602001808311612c1f57829003601f168201915b505050505081526020019060010190612ba4565b60606000612c5d83612807565b9050612c78816101736002815481106118cc576118cc6155f1565b80612c975750612c97816101736003815481106118cc576118cc6155f1565b80612cb65750612cb6816101736004815481106118cc576118cc6155f1565b80612cd55750612cd5816101736005815481106118cc576118cc6155f1565b15612cfc5750506040805180820190915260048152636e6f6e6560e01b6020820152919050565b612d15816101736001815481106118cc576118cc6155f1565b15612e0a57611c1a83604051806040016040528060048152602001633430b4b960e11b815250610177805480602002602001604051908101604052809291908181526020016000905b828210156126ac578382906000526020600020018054612d7d906154a6565b80601f0160208091040260200160405190810160405280929190818152602001828054612da9906154a6565b8015612df65780601f10612dcb57610100808354040283529160200191612df6565b820191906000526020600020905b815481529060010190602001808311612dd957829003601f168201915b505050505081526020019060010190612d5e565b611c1a83604051806040016040528060048152602001633430b4b960e11b815250610176805480602002602001604051908101604052809291908181526020016000905b828210156126ac578382906000526020600020018054612e6d906154a6565b80601f0160208091040260200160405190810160405280929190818152602001828054612e99906154a6565b8015612ee65780601f10612ebb57610100808354040283529160200191612ee6565b820191906000526020600020905b815481529060010190602001808311612ec957829003601f168201915b505050505081526020019060010190612e4e565b60606108b2826040518060400160405280600481526020016373686f6560e01b81525061017a805480602002602001604051908101604052809291908181526020016000905b828210156126ac578382906000526020600020018054612f5f906154a6565b80601f0160208091040260200160405190810160405280929190818152602001828054612f8b906154a6565b8015612fd85780601f10612fad57610100808354040283529160200191612fd8565b820191906000526020600020905b815481529060010190602001808311612fbb57829003601f168201915b505050505081526020019060010190612f40565b60606108b282604051806040016040528060038152602001620746f760ec1b815250610178805480602002602001604051908101604052809291908181526020016000905b828210156126ac578382906000526020600020018054613050906154a6565b80601f016020809104026020016040519081016040528092919081815260200182805461307c906154a6565b80156130c95780601f1061309e576101008083540402835291602001916130c9565b820191906000526020600020905b8154815290600101906020018083116130ac57829003601f168201915b505050505081526020019060010190613031565b60606108b28260405180604001604052806006815260200165626f74746f6d60d01b815250610179805480602002602001604051908101604052809291908181526020016000905b828210156126ac578382906000526020600020018054613144906154a6565b80601f0160208091040260200160405190810160405280929190818152602001828054613170906154a6565b80156131bd5780601f10613192576101008083540402835291602001916131bd565b820191906000526020600020905b8154815290600101906020018083116131a057829003601f168201915b505050505081526020019060010190613125565b60006108b28260405180604001604052806006815260200165373ab6b132b960d11b8152506001601a614332565b60606108b282604051806040016040528060058152602001647461746f6f60d81b81525061017b805480602002602001604051908101604052809291908181526020016000905b828210156126ac578382906000526020600020018054613265906154a6565b80601f0160208091040260200160405190810160405280929190818152602001828054613291906154a6565b80156132de5780601f106132b3576101008083540402835291602001916132de565b820191906000526020600020905b8154815290600101906020018083116132c157829003601f168201915b505050505081526020019060010190613246565b60606108b28260405180604001604052806007815260200166676c617373657360c81b81525061017c805480602002602001604051908101604052809291908181526020016000905b828210156126ac57838290600052602060002001805461335a906154a6565b80601f0160208091040260200160405190810160405280929190818152602001828054613386906154a6565b80156133d35780601f106133a8576101008083540402835291602001916133d3565b820191906000526020600020905b8154815290600101906020018083116133b657829003601f168201915b50505050508152602001906001019061333b565b60606108b28260405180604001604052806007815260200166676c6f7665727360c81b81525061017c805480602002602001604051908101604052809291908181526020016000905b828210156126ac57838290600052602060002001805461344f906154a6565b80601f016020809104026020016040519081016040528092919081815260200182805461347b906154a6565b80156134c85780601f1061349d576101008083540402835291602001916134c8565b820191906000526020600020905b8154815290600101906020018083116134ab57829003601f168201915b505050505081526020019060010190613430565b606061016a80546108c7906154a6565b6060816135105750506040805180820190915260018152600360fc1b602082015290565b8160005b811561353a578061352481615528565b91506135339050600a836155c6565b9150613514565b6000816001600160401b0381111561355457613554614e75565b6040519080825280601f01601f19166020018201604052801561357e576020820181803683370190505b5090505b8415611cf6576135936001836155da565b91506135a0600a86615607565b6135ab90603061569c565b60f81b8183815181106135c0576135c06155f1565b60200101906001600160f81b031916908160001a9053506135e2600a866155c6565b9450613582565b6135f1614ba3565b6135f9614ba3565b61360581868686614367565b95945050505050565b608083015161361d90836143a4565b6080830151610aeb90826143a4565b61016254600090611c1a906001600160a01b031684846143bb565b600054610100900460ff1661366e5760405162461bcd60e51b815260040161099190615706565b6109af8282614450565b6040805161044081018252600561040082018181526428b0ba30b960d91b61042084015282528251808401845260078082526622b1bab0b237b960c91b60208381019190915280850192909252845180860186528181526614d95b9959d85b60ca1b818401528486015284518086018652600b8082526a4e65746865726c616e647360a81b8285015260608601919091528551808701875282815266115b99db185b9960ca1b818501526080860152855180870187528281526624a91024b930b760c91b8185015260a086015285518087018752600381526255534160e81b8185015260c0860152855180870187528481526457616c657360d81b8185015260e086015285518087018752600980825268417267656e74696e6160b81b8286015261010087019190915286518088018852600c81526b53617564692041726162696160a01b81860152610120870152865180880188526006808252654d657869636f60d01b828701526101408801919091528751808901895281815265141bdb185b9960d21b8187015261016088015287518089018952818152654672616e636560d01b8187015261018088015287518089018952918252684175737472616c696160b81b828601526101a0870191909152865180880188528381526644656e6d61726b60c81b818601526101c0870152865180880188528381526654756e6973696160c81b818601526101e0870152865180880188528581526429b830b4b760d91b8186015261020087015286518088018852600a815269436f737461205269636160b01b8186015261022087015286518088018852838152664765726d616e7960c81b8186015261024087015286518088018852858152642530b830b760d91b81860152610260870152865180880188528381526642656c6769756d60c81b81860152610280870152865180880188528181526543616e61646160d01b818601526102a087015286518088018852838152664d6f726f63636f60c81b818601526102c0870152865180880188528381526643726f6174696160c81b818601526102e08701528651808801885281815265109c985e9a5b60d21b81860152610300870152865180880188529081526553657262696160d01b81850152610320860152855180870187529081526a14ddda5d1e995c9b185b9960aa1b818401526103408501528451808601865260088082526721b0b6b2b937b7b760c11b828501526103608601919091528551808701875290815267141bdc9d1d59d85b60c21b8184015261038085015284518086018652928352644768616e6160d81b838301526103a084019290925283518085018552918252665572756775617960c81b828201526103c08301919091528251808401909352600e83526d4b6f7265612052657075626c696360901b838201526103e0820192909252613a9e916101709190614bde565b506040805160a081018252600160608201818152600360fc1b6080840152825282518084018452818152603160f81b6020828101919091528084019190915283518085018552918252601960f91b9082015291810191909152613b0690610171906003614c37565b506040805160c081018252600160808201818152600360fc1b60a0840152825282518084018452818152603160f81b6020828101919091528084019190915283518085018552828152601960f91b81830152838501528351808501909452908352603360f81b908301526060810191909152613b8790610172906004614c84565b506040805161010081018252600160c08201818152600360fc1b60e0840152825282518084018452818152603160f81b6020828101919091528084019190915283518085018552828152601960f91b818301528385015283518085018552828152603360f81b81830152606084015283518085018552828152600d60fa1b8183015260808401528351808501909452908352603560f81b9083015260a0810191909152613c3990610173906006614cd1565b506040805160a081018252600160608201818152600360fc1b6080840152825282518084018452818152603160f81b6020828101919091528084019190915283518085018552918252601960f91b9082015291810191909152613ca190610174906003614c37565b506040805160c081018252600160808201818152600360fc1b60a0840152825282518084018452818152603160f81b6020828101919091528084019190915283518085018552828152601960f91b81830152838501528351808501909452908352603360f81b908301526060810191909152613d2290610175906004614c84565b506040805160c081018252600160808201818152600360fc1b60a0840152825282518084018452818152603160f81b6020828101919091528084019190915283518085018552828152601960f91b81830152838501528351808501909452908352603360f81b908301526060810191909152613da390610176906004614c84565b506040805160a081018252600160608201818152603160f81b6080840152825282518084018452818152601960f91b6020828101919091528084019190915283518085018552918252603360f81b9082015291810191909152613e0b90610177906003614c37565b50604080516080810182526001818301818152600360fc1b6060840152825282518084019093528252603160f81b602083810191909152810191909152613e5790610178906002614d1e565b50604080516080810182526001818301818152600360fc1b6060840152825282518084019093528252603160f81b602083810191909152810191909152613ea390610179906002614d1e565b506040805161010081018252600160c08201818152600360fc1b60e0840152825282518084018452818152603160f81b6020828101919091528084019190915283518085018552828152601960f91b818301528385015283518085018552828152603360f81b81830152606084015283518085018552828152600d60fa1b8183015260808401528351808501909452908352603560f81b9083015260a0810191909152613f559061017a906006614cd1565b506040805161010081018252600160c08201818152600360fc1b60e0840152825282518084018452818152603160f81b6020828101919091528084019190915283518085018552828152601960f91b818301528385015283518085018552828152603360f81b81830152606084015283518085018552828152600d60fa1b8183015260808401528351808501909452908352603560f81b9083015260a08101919091526140079061017b906006614cd1565b506040805160c081018252600160808201818152600360fc1b60a0840152825282518084018452818152603160f81b6020828101919091528084019190915283518085018552828152601960f91b81830152838501528351808501909452908352603360f81b9083015260608101919091526140889061017c906004614c84565b50604080516080810182526001818301818152600360fc1b6060840152825282518084019093528252603160f81b602083810191909152810191909152610fa39061017d906002614d1e565b6140de838361449e565b6140eb60008484846141fd565b610aeb5760405162461bcd60e51b8152600401610991906156b4565b60975460ff1615610aeb5760405162461bcd60e51b815260206004820152602b60248201527f4552433732315061757361626c653a20746f6b656e207472616e73666572207760448201526a1a1a5b19481c185d5cd95960aa1b6064820152608401610991565b60975460ff16610f355760405162461bcd60e51b815260206004820152601460248201527314185d5cd8589b194e881b9bdd081c185d5cd95960621b6044820152606401610991565b60975460ff1615610f355760405162461bcd60e51b815260206004820152601060248201526f14185d5cd8589b194e881c185d5cd95960821b6044820152606401610991565b60006001600160a01b0384163b156142f057604051630a85bd0160e11b81526001600160a01b0385169063150b7a0290614241903390899088908890600401615751565b6020604051808303816000875af192505050801561427c575060408051601f3d908101601f1916820190925261427991810190615784565b60015b6142d6573d8080156142aa576040519150601f19603f3d011682016040523d82523d6000602084013e6142af565b606091505b5080516142ce5760405162461bcd60e51b8152600401610991906156b4565b805181602001fd5b6001600160e01b031916630a85bd0160e11b149050611cf6565b506001611cf6565b6060818251614307868661243d565b6143119190615607565b81518110614321576143216155f1565b602002602001015190509392505050565b600061433e83836155da565b61434990600161569c565b614353868661243d565b61435d9190615607565b613605908461569c565b61436f614ba3565b61437f85608001516101006145ec565b50509183526001600160a01b031660208301526001600160e01b031916604082015290565b6143b18260038351614651565b610aeb8282614758565b610163546000906143cd81600161569c565b61016355835160408086015160808701515191516000936320214ca360e11b936144069386938493923092918a916001916024016157a1565b60408051601f198184030181529190526020810180516001600160e01b03166001600160e01b03199093169290921790915290506144468683868461477f565b9695505050505050565b600054610100900460ff166144775760405162461bcd60e51b815260040161099190615706565b815161448a906065906020850190614b1f565b508051610aeb906066906020840190614b1f565b6001600160a01b0382166144f45760405162461bcd60e51b815260206004820181905260248201527f4552433732313a206d696e7420746f20746865207a65726f20616464726573736044820152606401610991565b6000818152606760205260409020546001600160a01b0316156145595760405162461bcd60e51b815260206004820152601c60248201527f4552433732313a20746f6b656e20616c7265616479206d696e746564000000006044820152606401610991565b61456560008383614107565b6001600160a01b038216600090815260686020526040812080546001929061458e90849061569c565b909155505060008181526067602052604080822080546001600160a01b0319166001600160a01b03861690811790915590518392907fddf252ad1be2c89b69c2b068fc378daa952ba7f163c4a11628f55a4df523b3ef908290a45050565b60408051808201909152606081526000602082015261460c602083615607565b156146345761461c602083615607565b6146279060206155da565b614631908361569c565b91505b506020828101829052604080518085526000815290920101905290565b6017816001600160401b031611614675576117748360e0600585901b1683176148df565b60ff816001600160401b0316116146b15761469b836018611fe0600586901b16176148df565b50611774836001600160401b0383166001614904565b61ffff816001600160401b0316116146ee576146d8836019611fe0600586901b16176148df565b50611774836001600160401b0383166002614904565b63ffffffff816001600160401b03161161472d5761471783601a611fe0600586901b16176148df565b50611774836001600160401b0383166004614904565b61474283601b611fe0600586901b16176148df565b50611774836001600160401b0383166008614904565b604080518082019091526060815260006020820152611c1a8384600001515184855161492a565b6040516bffffffffffffffffffffffff193060601b1660208201526034810184905260009060540160408051808303601f190181528282528051602091820120600081815261016490925291812080546001600160a01b0319166001600160a01b038a1617905590925082917fb5e6e01e79f91267dc17b4e6314d5d4d03593d2ceee0fbb452b750bd70ea5af99190a261016154604051630200057560e51b81526001600160a01b0390911690634000aea09061484490889087908790600401615809565b6020604051808303816000875af1158015614863573d6000803e3d6000fd5b505050506040513d601f19601f820116820180604052508101906148879190615634565b611cf65760405162461bcd60e51b815260206004820152602360248201527f756e61626c6520746f207472616e73666572416e6443616c6c20746f206f7261604482015262636c6560e81b6064820152608401610991565b604080518082019091526060815260006020820152611c1a8384600001515184614a14565b604080518082019091526060815260006020820152611cf6848560000151518585614a70565b604080518082019091526060815260006020820152825182111561494d57600080fd5b602085015161495c838661569c565b111561498f5761498f8561497f8760200151878661497a919061569c565b614af1565b61498a906002615591565b614b08565b6000808651805187602083010193508088870111156149ae5787860182525b505050602084015b602084106149ee57805182526149cd60208361569c565b91506149da60208261569c565b90506149e76020856155da565b93506149b6565b51815160001960208690036101000a019081169019919091161790525083949350505050565b60408051808201909152606081526000602082015283602001518310614a4957614a49848560200151600261498a9190615591565b835180516020858301018481535080851415614a66576001810182525b5093949350505050565b6040805180820190915260608152600060208201526020850151614a94858461569c565b1115614aa857614aa88561497f868561569c565b60006001614ab884610100615914565b614ac291906155da565b9050855183868201018583198251161781525080518487011115614ae65783860181525b509495945050505050565b600081831115614b025750816108b2565b50919050565b8151614b1483836145ec565b506117748382614758565b828054614b2b906154a6565b90600052602060002090601f016020900481019282614b4d5760008555614b93565b82601f10614b6657805160ff1916838001178555614b93565b82800160010185558215614b93579182015b82811115614b93578251825591602001919060010190614b78565b50614b9f929150614d6b565b5090565b6040805160a0810182526000808252602080830182905282840182905260608084018390528451808601909552845283015290608082015290565b828054828255906000526020600020908101928215614c2b579160200282015b82811115614c2b5782518051614c1b918491602090910190614b1f565b5091602001919060010190614bfe565b50614b9f929150614d80565b828054828255906000526020600020908101928215614c2b579160200282015b82811115614c2b5782518051614c74918491602090910190614b1f565b5091602001919060010190614c57565b828054828255906000526020600020908101928215614c2b579160200282015b82811115614c2b5782518051614cc1918491602090910190614b1f565b5091602001919060010190614ca4565b828054828255906000526020600020908101928215614c2b579160200282015b82811115614c2b5782518051614d0e918491602090910190614b1f565b5091602001919060010190614cf1565b828054828255906000526020600020908101928215614c2b579160200282015b82811115614c2b5782518051614d5b918491602090910190614b1f565b5091602001919060010190614d3e565b5b80821115614b9f5760008155600101614d6c565b80821115614b9f576000614d948282614d9d565b50600101614d80565b508054614da9906154a6565b6000825580601f10614db9575050565b601f016020900490600052602060002090810190610fa39190614d6b565b6001600160e01b031981168114610fa357600080fd5b600060208284031215614dff57600080fd5b8135611c1a81614dd7565b60005b83811015614e25578181015183820152602001614e0d565b838111156117745750506000910152565b60008151808452614e4e816020860160208601614e0a565b601f01601f19169290920160200192915050565b602081526000611c1a6020830184614e36565b634e487b7160e01b600052604160045260246000fd5b604051601f8201601f191681016001600160401b0381118282101715614eb357614eb3614e75565b604052919050565b600082601f830112614ecc57600080fd5b81356001600160401b03811115614ee557614ee5614e75565b614ef8601f8201601f1916602001614e8b565b818152846020838601011115614f0d57600080fd5b816020850160208301376000918101602001919091529392505050565b600060208284031215614f3c57600080fd5b81356001600160401b03811115614f5257600080fd5b611cf684828501614ebb565b600060208284031215614f7057600080fd5b5035919050565b80356001600160a01b0381168114614f8e57600080fd5b919050565b60008060408385031215614fa657600080fd5b614faf83614f77565b946020939093013593505050565b600080600060608486031215614fd257600080fd5b614fdb84614f77565b9250614fe960208501614f77565b9150604084013590509250925092565b6000806040838503121561500c57600080fd5b50508035926020909101359150565b60006020828403121561502d57600080fd5b611c1a82614f77565b6000806040838503121561504957600080fd5b82356001600160401b038082111561506057600080fd5b818501915085601f83011261507457600080fd5b813560208282111561508857615088614e75565b8160051b9250615099818401614e8b565b82815292840181019281810190898511156150b357600080fd5b948201945b848610156150d8576150c986614f77565b825294820194908201906150b8565b9997909101359750505050505050565b600080604083850312156150fb57600080fd5b8235915060208301356001600160401b0381111561511857600080fd5b61512485828601614ebb565b9150509250929050565b8015158114610fa357600080fd5b6000806040838503121561514f57600080fd5b61515883614f77565b915060208301356151688161512e565b809150509250929050565b6000806000806080858703121561518957600080fd5b61519285614f77565b93506151a060208601614f77565b92506040850135915060608501356001600160401b038111156151c257600080fd5b6151ce87828801614ebb565b91505092959194509250565b60208152600082516101c08060208501526151f96101e0850183614e36565b91506020850151601f19808685030160408701526152178483614e36565b935060408701519150808685030160608701526152348483614e36565b935060608701519150808685030160808701526152518483614e36565b935060808701519150808685030160a087015261526e8483614e36565b935060a08701519150808685030160c087015261528b8483614e36565b935060c08701519150808685030160e08701526152a88483614e36565b935060e087015191506101008187860301818801526152c78584614e36565b9450808801519250506101208187860301818801526152e68584614e36565b9450808801519250506101408187860301818801526153058584614e36565b9450808801519250506101608281880152808801519250506101808187860301818801526153338584614e36565b9450808801519250506101a08187860301818801526153528584614e36565b9088015187820390920184880152935090506144468382614e36565b6000806000806080858703121561538457600080fd5b843593506020850135925060408501356001600160401b03808211156153a957600080fd5b6153b588838901614ebb565b935060608701359150808211156153cb57600080fd5b506151ce87828801614ebb565b60008060008060008060c087890312156153f157600080fd5b86356001600160401b038082111561540857600080fd5b6154148a838b01614ebb565b9750602089013591508082111561542a57600080fd5b5061543789828a01614ebb565b95505061544660408801614f77565b935061545460608801614f77565b925061546260808801614f77565b915061547060a08801614f77565b90509295509295509295565b6000806040838503121561548f57600080fd5b61549883614f77565b9150610c8b60208401614f77565b600181811c908216806154ba57607f821691505b60208210811415614b0257634e487b7160e01b600052602260045260246000fd5b6020808252601f908201527f5265656e7472616e637947756172643a207265656e7472616e742063616c6c00604082015260600190565b634e487b7160e01b600052601160045260246000fd5b600060001982141561553c5761553c615512565b5060010190565b6020808252602e908201527f4552433732313a2063616c6c6572206973206e6f7420746f6b656e206f776e6560408201526d1c881b9bdc88185c1c1c9bdd995960921b606082015260800190565b60008160001904831182151516156155ab576155ab615512565b500290565b634e487b7160e01b600052601260045260246000fd5b6000826155d5576155d56155b0565b500490565b6000828210156155ec576155ec615512565b500390565b634e487b7160e01b600052603260045260246000fd5b600082615616576156166155b0565b500690565b60006020828403121561562d57600080fd5b5051919050565b60006020828403121561564657600080fd5b8151611c1a8161512e565b60008251615663818460208701614e0a565b9190910192915050565b6000835161567f818460208801614e0a565b835190830190615693818360208801614e0a565b01949350505050565b600082198211156156af576156af615512565b500190565b60208082526032908201527f4552433732313a207472616e7366657220746f206e6f6e20455243373231526560408201527131b2b4bb32b91034b6b83632b6b2b73a32b960711b606082015260800190565b6020808252602b908201527f496e697469616c697a61626c653a20636f6e7472616374206973206e6f74206960408201526a6e697469616c697a696e6760a81b606082015260800190565b6001600160a01b038581168252841660208201526040810183905260806060820181905260009061444690830184614e36565b60006020828403121561579657600080fd5b8151611c1a81614dd7565b6001600160a01b0389811682526020820189905260408201889052861660608201526001600160e01b03198516608082015260a0810184905260c0810183905261010060e082018190526000906157fa83820185614e36565b9b9a5050505050505050505050565b60018060a01b03841681528260208201526060604082015260006136056060830184614e36565b600181815b8085111561586b57816000190482111561585157615851615512565b8085161561585e57918102915b93841c9390800290615835565b509250929050565b600082615882575060016108b2565b8161588f575060006108b2565b81600181146158a557600281146158af576158cb565b60019150506108b2565b60ff8411156158c0576158c0615512565b50506001821b6108b2565b5060208310610133831016604e8410600b84101617156158ee575081810a6108b2565b6158f88383615830565b806000190482111561590c5761590c615512565b029392505050565b6000611c1a838361587356fea2646970667358221220f9f187dc9151f595137b12d9337aa970d3ff7b553d223334048c18d47b2e7b3d64736f6c634300080c0033","opcodes":"PUSH1 0x80 PUSH1 0x40 MSTORE CALLVALUE DUP1 ISZERO PUSH2 0x10 JUMPI PUSH1 0x0 DUP1 REVERT JUMPDEST POP PUSH2 0x5956 DUP1 PUSH3 0x21 PUSH1 0x0 CODECOPY PUSH1 0x0 RETURN INVALID PUSH1 0x80 PUSH1 0x40 MSTORE PUSH1 0x4 CALLDATASIZE LT PUSH2 0x293 JUMPI PUSH1 0x0 CALLDATALOAD PUSH1 0xE0 SHR DUP1 PUSH4 0x715018A6 GT PUSH2 0x15A JUMPI DUP1 PUSH4 0xADFC7DAE GT PUSH2 0xC1 JUMPI DUP1 PUSH4 0xDB76746B GT PUSH2 0x7A JUMPI DUP1 PUSH4 0xDB76746B EQ PUSH2 0x7A5 JUMPI DUP1 PUSH4 0xE56F2FE4 EQ PUSH2 0x7C5 JUMPI DUP1 PUSH4 0xE653C650 EQ PUSH2 0x7E5 JUMPI DUP1 PUSH4 0xE985E9C5 EQ PUSH2 0x806 JUMPI DUP1 PUSH4 0xF19E75D4 EQ PUSH2 0x826 JUMPI DUP1 PUSH4 0xF2FDE38B EQ PUSH2 0x846 JUMPI PUSH1 0x0 DUP1 REVERT JUMPDEST DUP1 PUSH4 0xADFC7DAE EQ PUSH2 0x6E0 JUMPI DUP1 PUSH4 0xB88D4FDE EQ PUSH2 0x701 JUMPI DUP1 PUSH4 0xC0DCA239 EQ PUSH2 0x721 JUMPI DUP1 PUSH4 0xC5B37C22 EQ PUSH2 0x74E JUMPI DUP1 PUSH4 0xC6283C38 EQ PUSH2 0x765 JUMPI DUP1 PUSH4 0xC87B56DD EQ PUSH2 0x785 JUMPI PUSH1 0x0 DUP1 REVERT JUMPDEST DUP1 PUSH4 0x8DC654A2 GT PUSH2 0x113 JUMPI DUP1 PUSH4 0x8DC654A2 EQ PUSH2 0x641 JUMPI DUP1 PUSH4 0x8F283970 EQ PUSH2 0x656 JUMPI DUP1 PUSH4 0x95D89B41 EQ PUSH2 0x676 JUMPI DUP1 PUSH4 0x973E5D25 EQ PUSH2 0x68B JUMPI DUP1 PUSH4 0xA1BB1FCC EQ PUSH2 0x6AB JUMPI DUP1 PUSH4 0xA22CB465 EQ PUSH2 0x6C0 JUMPI PUSH1 0x0 DUP1 REVERT JUMPDEST DUP1 PUSH4 0x715018A6 EQ PUSH2 0x5A1 JUMPI DUP1 PUSH4 0x7C1DE7E1 EQ PUSH2 0x5B6 JUMPI DUP1 PUSH4 0x7CD49FDE EQ PUSH2 0x5D6 JUMPI DUP1 PUSH4 0x80D953DD EQ PUSH2 0x5ED JUMPI DUP1 PUSH4 0x8456CB59 EQ PUSH2 0x60D JUMPI DUP1 PUSH4 0x8DA5CB5B EQ PUSH2 0x622 JUMPI PUSH1 0x0 DUP1 REVERT JUMPDEST DUP1 PUSH4 0x39A0C6F9 GT PUSH2 0x1FE JUMPI DUP1 PUSH4 0x6352211E GT PUSH2 0x1B7 JUMPI DUP1 PUSH4 0x6352211E EQ PUSH2 0x4E0 JUMPI DUP1 PUSH4 0x645B6701 EQ PUSH2 0x500 JUMPI DUP1 PUSH4 0x66829B16 EQ PUSH2 0x520 JUMPI DUP1 PUSH4 0x69FE0E2D EQ PUSH2 0x540 JUMPI DUP1 PUSH4 0x6D0257E2 EQ PUSH2 0x560 JUMPI DUP1 PUSH4 0x70A08231 EQ PUSH2 0x581 JUMPI PUSH1 0x0 DUP1 REVERT JUMPDEST DUP1 PUSH4 0x39A0C6F9 EQ PUSH2 0x42E JUMPI DUP1 PUSH4 0x3F4BA83A EQ PUSH2 0x44E JUMPI DUP1 PUSH4 0x42842E0E EQ PUSH2 0x463 JUMPI DUP1 PUSH4 0x47C421B5 EQ PUSH2 0x483 JUMPI DUP1 PUSH4 0x5275F37A EQ PUSH2 0x4A3 JUMPI DUP1 PUSH4 0x5C975ABB EQ PUSH2 0x4C8 JUMPI PUSH1 0x0 DUP1 REVERT JUMPDEST DUP1 PUSH4 0xDCCC9AD GT PUSH2 0x250 JUMPI DUP1 PUSH4 0xDCCC9AD EQ PUSH2 0x38A JUMPI DUP1 PUSH4 0x1249C58B EQ PUSH2 0x39F JUMPI DUP1 PUSH4 0x23B872DD EQ PUSH2 0x3A7 JUMPI DUP1 PUSH4 0x2A55205A EQ PUSH2 0x3C7 JUMPI DUP1 PUSH4 0x2D3DF31F EQ PUSH2 0x406 JUMPI DUP1 PUSH4 0x2E1A7D4D EQ PUSH2 0x40E JUMPI PUSH1 0x0 DUP1 REVERT JUMPDEST DUP1 PUSH4 0x1BC45C9 EQ PUSH2 0x298 JUMPI DUP1 PUSH4 0x1FFC9A7 EQ PUSH2 0x2D6 JUMPI DUP1 PUSH4 0x6FDDE03 EQ PUSH2 0x306 JUMPI DUP1 PUSH4 0x764DA1D EQ PUSH2 0x328 JUMPI DUP1 PUSH4 0x81812FC EQ PUSH2 0x34A JUMPI DUP1 PUSH4 0x95EA7B3 EQ PUSH2 0x36A JUMPI JUMPDEST PUSH1 0x0 DUP1 REVERT JUMPDEST CALLVALUE DUP1 ISZERO PUSH2 0x2A4 JUMPI PUSH1 0x0 DUP1 REVERT JUMPDEST POP PUSH2 0x165 SLOAD PUSH2 0x2B9 SWAP1 PUSH1 0x1 PUSH1 0x1 PUSH1 0xA0 SHL SUB AND DUP2 JUMP JUMPDEST PUSH1 0x40 MLOAD PUSH1 0x1 PUSH1 0x1 PUSH1 0xA0 SHL SUB SWAP1 SWAP2 AND DUP2 MSTORE PUSH1 0x20 ADD JUMPDEST PUSH1 0x40 MLOAD DUP1 SWAP2 SUB SWAP1 RETURN JUMPDEST CALLVALUE DUP1 ISZERO PUSH2 0x2E2 JUMPI PUSH1 0x0 DUP1 REVERT JUMPDEST POP PUSH2 0x2F6 PUSH2 0x2F1 CALLDATASIZE PUSH1 0x4 PUSH2 0x4DED JUMP JUMPDEST PUSH2 0x866 JUMP JUMPDEST PUSH1 0x40 MLOAD SWAP1 ISZERO ISZERO DUP2 MSTORE PUSH1 0x20 ADD PUSH2 0x2CD JUMP JUMPDEST CALLVALUE DUP1 ISZERO PUSH2 0x312 JUMPI PUSH1 0x0 DUP1 REVERT JUMPDEST POP PUSH2 0x31B PUSH2 0x8B8 JUMP JUMPDEST PUSH1 0x40 MLOAD PUSH2 0x2CD SWAP2 SWAP1 PUSH2 0x4E62 JUMP JUMPDEST CALLVALUE DUP1 ISZERO PUSH2 0x334 JUMPI PUSH1 0x0 DUP1 REVERT JUMPDEST POP PUSH2 0x348 PUSH2 0x343 CALLDATASIZE PUSH1 0x4 PUSH2 0x4F2A JUMP JUMPDEST PUSH2 0x94A JUMP JUMPDEST STOP JUMPDEST CALLVALUE DUP1 ISZERO PUSH2 0x356 JUMPI PUSH1 0x0 DUP1 REVERT JUMPDEST POP PUSH2 0x2B9 PUSH2 0x365 CALLDATASIZE PUSH1 0x4 PUSH2 0x4F5E JUMP JUMPDEST PUSH2 0x9B3 JUMP JUMPDEST CALLVALUE DUP1 ISZERO PUSH2 0x376 JUMPI PUSH1 0x0 DUP1 REVERT JUMPDEST POP PUSH2 0x348 PUSH2 0x385 CALLDATASIZE PUSH1 0x4 PUSH2 0x4F93 JUMP JUMPDEST PUSH2 0x9DA JUMP JUMPDEST CALLVALUE DUP1 ISZERO PUSH2 0x396 JUMPI PUSH1 0x0 DUP1 REVERT JUMPDEST POP PUSH2 0x31B PUSH2 0xAF0 JUMP JUMPDEST PUSH2 0x348 PUSH2 0xB7F JUMP JUMPDEST CALLVALUE DUP1 ISZERO PUSH2 0x3B3 JUMPI PUSH1 0x0 DUP1 REVERT JUMPDEST POP PUSH2 0x348 PUSH2 0x3C2 CALLDATASIZE PUSH1 0x4 PUSH2 0x4FBD JUMP JUMPDEST PUSH2 0xC32 JUMP JUMPDEST CALLVALUE DUP1 ISZERO PUSH2 0x3D3 JUMPI PUSH1 0x0 DUP1 REVERT JUMPDEST POP PUSH2 0x3E7 PUSH2 0x3E2 CALLDATASIZE PUSH1 0x4 PUSH2 0x4FF9 JUMP JUMPDEST PUSH2 0xC63 JUMP JUMPDEST PUSH1 0x40 DUP1 MLOAD PUSH1 0x1 PUSH1 0x1 PUSH1 0xA0 SHL SUB SWAP1 SWAP4 AND DUP4 MSTORE PUSH1 0x20 DUP4 ADD SWAP2 SWAP1 SWAP2 MSTORE ADD PUSH2 0x2CD JUMP JUMPDEST PUSH2 0x348 PUSH2 0xC94 JUMP JUMPDEST CALLVALUE DUP1 ISZERO PUSH2 0x41A JUMPI PUSH1 0x0 DUP1 REVERT JUMPDEST POP PUSH2 0x348 PUSH2 0x429 CALLDATASIZE PUSH1 0x4 PUSH2 0x4F5E JUMP JUMPDEST PUSH2 0xDBB JUMP JUMPDEST CALLVALUE DUP1 ISZERO PUSH2 0x43A JUMPI PUSH1 0x0 DUP1 REVERT JUMPDEST POP PUSH2 0x348 PUSH2 0x449 CALLDATASIZE PUSH1 0x4 PUSH2 0x4F2A JUMP JUMPDEST PUSH2 0xE89 JUMP JUMPDEST CALLVALUE DUP1 ISZERO PUSH2 0x45A JUMPI PUSH1 0x0 DUP1 REVERT JUMPDEST POP PUSH2 0x348 PUSH2 0xEE5 JUMP JUMPDEST CALLVALUE DUP1 ISZERO PUSH2 0x46F JUMPI PUSH1 0x0 DUP1 REVERT JUMPDEST POP PUSH2 0x348 PUSH2 0x47E CALLDATASIZE PUSH1 0x4 PUSH2 0x4FBD JUMP JUMPDEST PUSH2 0xF37 JUMP JUMPDEST CALLVALUE DUP1 ISZERO PUSH2 0x48F JUMPI PUSH1 0x0 DUP1 REVERT JUMPDEST POP PUSH2 0x348 PUSH2 0x49E CALLDATASIZE PUSH1 0x4 PUSH2 0x501B JUMP JUMPDEST PUSH2 0xF52 JUMP JUMPDEST CALLVALUE DUP1 ISZERO PUSH2 0x4AF JUMPI PUSH1 0x0 DUP1 REVERT JUMPDEST POP PUSH2 0x4BA PUSH2 0x16E SLOAD DUP2 JUMP JUMPDEST PUSH1 0x40 MLOAD SWAP1 DUP2 MSTORE PUSH1 0x20 ADD PUSH2 0x2CD JUMP JUMPDEST CALLVALUE DUP1 ISZERO PUSH2 0x4D4 JUMPI PUSH1 0x0 DUP1 REVERT JUMPDEST POP PUSH1 0x97 SLOAD PUSH1 0xFF AND PUSH2 0x2F6 JUMP JUMPDEST CALLVALUE DUP1 ISZERO PUSH2 0x4EC JUMPI PUSH1 0x0 DUP1 REVERT JUMPDEST POP PUSH2 0x2B9 PUSH2 0x4FB CALLDATASIZE PUSH1 0x4 PUSH2 0x4F5E JUMP JUMPDEST PUSH2 0xFA6 JUMP JUMPDEST CALLVALUE DUP1 ISZERO PUSH2 0x50C JUMPI PUSH1 0x0 DUP1 REVERT JUMPDEST POP PUSH2 0x348 PUSH2 0x51B CALLDATASIZE PUSH1 0x4 PUSH2 0x5036 JUMP JUMPDEST PUSH2 0x1006 JUMP JUMPDEST CALLVALUE DUP1 ISZERO PUSH2 0x52C JUMPI PUSH1 0x0 DUP1 REVERT JUMPDEST POP PUSH2 0x348 PUSH2 0x53B CALLDATASIZE PUSH1 0x4 PUSH2 0x501B JUMP JUMPDEST PUSH2 0x10B1 JUMP JUMPDEST CALLVALUE DUP1 ISZERO PUSH2 0x54C JUMPI PUSH1 0x0 DUP1 REVERT JUMPDEST POP PUSH2 0x348 PUSH2 0x55B CALLDATASIZE PUSH1 0x4 PUSH2 0x4F5E JUMP JUMPDEST PUSH2 0x111C JUMP JUMPDEST CALLVALUE DUP1 ISZERO PUSH2 0x56C JUMPI PUSH1 0x0 DUP1 REVERT JUMPDEST POP PUSH2 0x166 SLOAD PUSH2 0x2B9 SWAP1 PUSH1 0x1 PUSH1 0x1 PUSH1 0xA0 SHL SUB AND DUP2 JUMP JUMPDEST CALLVALUE DUP1 ISZERO PUSH2 0x58D JUMPI PUSH1 0x0 DUP1 REVERT JUMPDEST POP PUSH2 0x4BA PUSH2 0x59C CALLDATASIZE PUSH1 0x4 PUSH2 0x501B JUMP JUMPDEST PUSH2 0x116A JUMP JUMPDEST CALLVALUE DUP1 ISZERO PUSH2 0x5AD JUMPI PUSH1 0x0 DUP1 REVERT JUMPDEST POP PUSH2 0x348 PUSH2 0x11F0 JUMP JUMPDEST CALLVALUE DUP1 ISZERO PUSH2 0x5C2 JUMPI PUSH1 0x0 DUP1 REVERT JUMPDEST POP PUSH2 0x348 PUSH2 0x5D1 CALLDATASIZE PUSH1 0x4 PUSH2 0x50E8 JUMP JUMPDEST PUSH2 0x1202 JUMP JUMPDEST CALLVALUE DUP1 ISZERO PUSH2 0x5E2 JUMPI PUSH1 0x0 DUP1 REVERT JUMPDEST POP PUSH2 0x4BA PUSH2 0x169 SLOAD DUP2 JUMP JUMPDEST CALLVALUE DUP1 ISZERO PUSH2 0x5F9 JUMPI PUSH1 0x0 DUP1 REVERT JUMPDEST POP PUSH2 0x348 PUSH2 0x608 CALLDATASIZE PUSH1 0x4 PUSH2 0x4F5E JUMP JUMPDEST PUSH2 0x12C5 JUMP JUMPDEST CALLVALUE DUP1 ISZERO PUSH2 0x619 JUMPI PUSH1 0x0 DUP1 REVERT JUMPDEST POP PUSH2 0x348 PUSH2 0x1441 JUMP JUMPDEST CALLVALUE DUP1 ISZERO PUSH2 0x62E JUMPI PUSH1 0x0 DUP1 REVERT JUMPDEST POP PUSH2 0x12D SLOAD PUSH1 0x1 PUSH1 0x1 PUSH1 0xA0 SHL SUB AND PUSH2 0x2B9 JUMP JUMPDEST CALLVALUE DUP1 ISZERO PUSH2 0x64D JUMPI PUSH1 0x0 DUP1 REVERT JUMPDEST POP PUSH2 0x348 PUSH2 0x1491 JUMP JUMPDEST CALLVALUE DUP1 ISZERO PUSH2 0x662 JUMPI PUSH1 0x0 DUP1 REVERT JUMPDEST POP PUSH2 0x348 PUSH2 0x671 CALLDATASIZE PUSH1 0x4 PUSH2 0x501B JUMP JUMPDEST PUSH2 0x1613 JUMP JUMPDEST CALLVALUE DUP1 ISZERO PUSH2 0x682 JUMPI PUSH1 0x0 DUP1 REVERT JUMPDEST POP PUSH2 0x31B PUSH2 0x16AF JUMP JUMPDEST CALLVALUE DUP1 ISZERO PUSH2 0x697 JUMPI PUSH1 0x0 DUP1 REVERT JUMPDEST POP PUSH2 0x348 PUSH2 0x6A6 CALLDATASIZE PUSH1 0x4 PUSH2 0x501B JUMP JUMPDEST PUSH2 0x16BE JUMP JUMPDEST CALLVALUE DUP1 ISZERO PUSH2 0x6B7 JUMPI PUSH1 0x0 DUP1 REVERT JUMPDEST POP PUSH2 0x31B PUSH2 0x1729 JUMP JUMPDEST CALLVALUE DUP1 ISZERO PUSH2 0x6CC JUMPI PUSH1 0x0 DUP1 REVERT JUMPDEST POP PUSH2 0x348 PUSH2 0x6DB CALLDATASIZE PUSH1 0x4 PUSH2 0x513C JUMP JUMPDEST PUSH2 0x1737 JUMP JUMPDEST CALLVALUE DUP1 ISZERO PUSH2 0x6EC JUMPI PUSH1 0x0 DUP1 REVERT JUMPDEST POP PUSH2 0x167 SLOAD PUSH2 0x2B9 SWAP1 PUSH1 0x1 PUSH1 0x1 PUSH1 0xA0 SHL SUB AND DUP2 JUMP JUMPDEST CALLVALUE DUP1 ISZERO PUSH2 0x70D JUMPI PUSH1 0x0 DUP1 REVERT JUMPDEST POP PUSH2 0x348 PUSH2 0x71C CALLDATASIZE PUSH1 0x4 PUSH2 0x5173 JUMP JUMPDEST PUSH2 0x1742 JUMP JUMPDEST CALLVALUE DUP1 ISZERO PUSH2 0x72D JUMPI PUSH1 0x0 DUP1 REVERT JUMPDEST POP PUSH2 0x741 PUSH2 0x73C CALLDATASIZE PUSH1 0x4 PUSH2 0x4F5E JUMP JUMPDEST PUSH2 0x177A JUMP JUMPDEST PUSH1 0x40 MLOAD PUSH2 0x2CD SWAP2 SWAP1 PUSH2 0x51DA JUMP JUMPDEST CALLVALUE DUP1 ISZERO PUSH2 0x75A JUMPI PUSH1 0x0 DUP1 REVERT JUMPDEST POP PUSH2 0x4BA PUSH2 0x16C SLOAD DUP2 JUMP JUMPDEST CALLVALUE DUP1 ISZERO PUSH2 0x771 JUMPI PUSH1 0x0 DUP1 REVERT JUMPDEST POP PUSH2 0x348 PUSH2 0x780 CALLDATASIZE PUSH1 0x4 PUSH2 0x4F5E JUMP JUMPDEST PUSH2 0x1B6C JUMP JUMPDEST CALLVALUE DUP1 ISZERO PUSH2 0x791 JUMPI PUSH1 0x0 DUP1 REVERT JUMPDEST POP PUSH2 0x31B PUSH2 0x7A0 CALLDATASIZE PUSH1 0x4 PUSH2 0x4F5E JUMP JUMPDEST PUSH2 0x1BBA JUMP JUMPDEST CALLVALUE DUP1 ISZERO PUSH2 0x7B1 JUMPI PUSH1 0x0 DUP1 REVERT JUMPDEST POP PUSH2 0x4BA PUSH2 0x7C0 CALLDATASIZE PUSH1 0x4 PUSH2 0x536E JUMP JUMPDEST PUSH2 0x1C21 JUMP JUMPDEST CALLVALUE DUP1 ISZERO PUSH2 0x7D1 JUMPI PUSH1 0x0 DUP1 REVERT JUMPDEST POP PUSH2 0x348 PUSH2 0x7E0 CALLDATASIZE PUSH1 0x4 PUSH2 0x53D8 JUMP JUMPDEST PUSH2 0x1CFE JUMP JUMPDEST CALLVALUE DUP1 ISZERO PUSH2 0x7F1 JUMPI PUSH1 0x0 DUP1 REVERT JUMPDEST POP PUSH2 0x16B SLOAD PUSH2 0x2B9 SWAP1 PUSH1 0x1 PUSH1 0x1 PUSH1 0xA0 SHL SUB AND DUP2 JUMP JUMPDEST CALLVALUE DUP1 ISZERO PUSH2 0x812 JUMPI PUSH1 0x0 DUP1 REVERT JUMPDEST POP PUSH2 0x2F6 PUSH2 0x821 CALLDATASIZE PUSH1 0x4 PUSH2 0x547C JUMP JUMPDEST PUSH2 0x1EEC JUMP JUMPDEST CALLVALUE DUP1 ISZERO PUSH2 0x832 JUMPI PUSH1 0x0 DUP1 REVERT JUMPDEST POP PUSH2 0x348 PUSH2 0x841 CALLDATASIZE PUSH1 0x4 PUSH2 0x4F5E JUMP JUMPDEST PUSH2 0x1F1A JUMP JUMPDEST CALLVALUE DUP1 ISZERO PUSH2 0x852 JUMPI PUSH1 0x0 DUP1 REVERT JUMPDEST POP PUSH2 0x348 PUSH2 0x861 CALLDATASIZE PUSH1 0x4 PUSH2 0x501B JUMP JUMPDEST PUSH2 0x1FB8 JUMP JUMPDEST PUSH1 0x0 PUSH1 0x1 PUSH1 0x1 PUSH1 0xE0 SHL SUB NOT DUP3 AND PUSH4 0x80AC58CD PUSH1 0xE0 SHL EQ DUP1 PUSH2 0x897 JUMPI POP PUSH1 0x1 PUSH1 0x1 PUSH1 0xE0 SHL SUB NOT DUP3 AND PUSH4 0x5B5E139F PUSH1 0xE0 SHL EQ JUMPDEST DUP1 PUSH2 0x8B2 JUMPI POP PUSH4 0x1FFC9A7 PUSH1 0xE0 SHL PUSH1 0x1 PUSH1 0x1 PUSH1 0xE0 SHL SUB NOT DUP4 AND EQ JUMPDEST SWAP3 SWAP2 POP POP JUMP JUMPDEST PUSH1 0x60 PUSH1 0x65 DUP1 SLOAD PUSH2 0x8C7 SWAP1 PUSH2 0x54A6 JUMP JUMPDEST DUP1 PUSH1 0x1F ADD PUSH1 0x20 DUP1 SWAP2 DIV MUL PUSH1 0x20 ADD PUSH1 0x40 MLOAD SWAP1 DUP2 ADD PUSH1 0x40 MSTORE DUP1 SWAP3 SWAP2 SWAP1 DUP2 DUP2 MSTORE PUSH1 0x20 ADD DUP3 DUP1 SLOAD PUSH2 0x8F3 SWAP1 PUSH2 0x54A6 JUMP JUMPDEST DUP1 ISZERO PUSH2 0x940 JUMPI DUP1 PUSH1 0x1F LT PUSH2 0x915 JUMPI PUSH2 0x100 DUP1 DUP4 SLOAD DIV MUL DUP4 MSTORE SWAP2 PUSH1 0x20 ADD SWAP2 PUSH2 0x940 JUMP JUMPDEST DUP3 ADD SWAP2 SWAP1 PUSH1 0x0 MSTORE PUSH1 0x20 PUSH1 0x0 KECCAK256 SWAP1 JUMPDEST DUP2 SLOAD DUP2 MSTORE SWAP1 PUSH1 0x1 ADD SWAP1 PUSH1 0x20 ADD DUP1 DUP4 GT PUSH2 0x923 JUMPI DUP3 SWAP1 SUB PUSH1 0x1F AND DUP3 ADD SWAP2 JUMPDEST POP POP POP POP POP SWAP1 POP SWAP1 JUMP JUMPDEST PUSH2 0x165 SLOAD PUSH1 0x40 DUP1 MLOAD DUP1 DUP3 ADD SWAP1 SWAP2 MSTORE PUSH1 0x3 DUP2 MSTORE PUSH3 0x313031 PUSH1 0xE8 SHL PUSH1 0x20 DUP3 ADD MSTORE SWAP1 PUSH1 0x1 PUSH1 0x1 PUSH1 0xA0 SHL SUB AND CALLER EQ PUSH2 0x99A JUMPI PUSH1 0x40 MLOAD PUSH3 0x461BCD PUSH1 0xE5 SHL DUP2 MSTORE PUSH1 0x4 ADD PUSH2 0x991 SWAP2 SWAP1 PUSH2 0x4E62 JUMP JUMPDEST PUSH1 0x40 MLOAD DUP1 SWAP2 SUB SWAP1 REVERT JUMPDEST POP DUP1 MLOAD PUSH2 0x9AF SWAP1 PUSH2 0x168 SWAP1 PUSH1 0x20 DUP5 ADD SWAP1 PUSH2 0x4B1F JUMP JUMPDEST POP POP JUMP JUMPDEST PUSH1 0x0 PUSH2 0x9BE DUP3 PUSH2 0x202E JUMP JUMPDEST POP PUSH1 0x0 SWAP1 DUP2 MSTORE PUSH1 0x69 PUSH1 0x20 MSTORE PUSH1 0x40 SWAP1 KECCAK256 SLOAD PUSH1 0x1 PUSH1 0x1 PUSH1 0xA0 SHL SUB AND SWAP1 JUMP JUMPDEST PUSH1 0x0 PUSH2 0x9E5 DUP3 PUSH2 0xFA6 JUMP JUMPDEST SWAP1 POP DUP1 PUSH1 0x1 PUSH1 0x1 PUSH1 0xA0 SHL SUB AND DUP4 PUSH1 0x1 PUSH1 0x1 PUSH1 0xA0 SHL SUB AND EQ ISZERO PUSH2 0xA53 JUMPI PUSH1 0x40 MLOAD PUSH3 0x461BCD PUSH1 0xE5 SHL DUP2 MSTORE PUSH1 0x20 PUSH1 0x4 DUP3 ADD MSTORE PUSH1 0x21 PUSH1 0x24 DUP3 ADD MSTORE PUSH32 0x4552433732313A20617070726F76616C20746F2063757272656E74206F776E65 PUSH1 0x44 DUP3 ADD MSTORE PUSH1 0x39 PUSH1 0xF9 SHL PUSH1 0x64 DUP3 ADD MSTORE PUSH1 0x84 ADD PUSH2 0x991 JUMP JUMPDEST CALLER PUSH1 0x1 PUSH1 0x1 PUSH1 0xA0 SHL SUB DUP3 AND EQ DUP1 PUSH2 0xA6F JUMPI POP PUSH2 0xA6F DUP2 CALLER PUSH2 0x1EEC JUMP JUMPDEST PUSH2 0xAE1 JUMPI PUSH1 0x40 MLOAD PUSH3 0x461BCD PUSH1 0xE5 SHL DUP2 MSTORE PUSH1 0x20 PUSH1 0x4 DUP3 ADD MSTORE PUSH1 0x3E PUSH1 0x24 DUP3 ADD MSTORE PUSH32 0x4552433732313A20617070726F76652063616C6C6572206973206E6F7420746F PUSH1 0x44 DUP3 ADD MSTORE PUSH32 0x6B656E206F776E6572206E6F7220617070726F76656420666F7220616C6C0000 PUSH1 0x64 DUP3 ADD MSTORE PUSH1 0x84 ADD PUSH2 0x991 JUMP JUMPDEST PUSH2 0xAEB DUP4 DUP4 PUSH2 0x208D JUMP JUMPDEST POP POP POP JUMP JUMPDEST PUSH2 0x16A DUP1 SLOAD PUSH2 0xAFE SWAP1 PUSH2 0x54A6 JUMP JUMPDEST DUP1 PUSH1 0x1F ADD PUSH1 0x20 DUP1 SWAP2 DIV MUL PUSH1 0x20 ADD PUSH1 0x40 MLOAD SWAP1 DUP2 ADD PUSH1 0x40 MSTORE DUP1 SWAP3 SWAP2 SWAP1 DUP2 DUP2 MSTORE PUSH1 0x20 ADD DUP3 DUP1 SLOAD PUSH2 0xB2A SWAP1 PUSH2 0x54A6 JUMP JUMPDEST DUP1 ISZERO PUSH2 0xB77 JUMPI DUP1 PUSH1 0x1F LT PUSH2 0xB4C JUMPI PUSH2 0x100 DUP1 DUP4 SLOAD DIV MUL DUP4 MSTORE SWAP2 PUSH1 0x20 ADD SWAP2 PUSH2 0xB77 JUMP JUMPDEST DUP3 ADD SWAP2 SWAP1 PUSH1 0x0 MSTORE PUSH1 0x20 PUSH1 0x0 KECCAK256 SWAP1 JUMPDEST DUP2 SLOAD DUP2 MSTORE SWAP1 PUSH1 0x1 ADD SWAP1 PUSH1 0x20 ADD DUP1 DUP4 GT PUSH2 0xB5A JUMPI DUP3 SWAP1 SUB PUSH1 0x1F AND DUP3 ADD SWAP2 JUMPDEST POP POP POP POP POP DUP2 JUMP JUMPDEST PUSH1 0x2 PUSH1 0xFB SLOAD EQ ISZERO PUSH2 0xBA2 JUMPI PUSH1 0x40 MLOAD PUSH3 0x461BCD PUSH1 0xE5 SHL DUP2 MSTORE PUSH1 0x4 ADD PUSH2 0x991 SWAP1 PUSH2 0x54DB JUMP JUMPDEST PUSH1 0x2 PUSH1 0xFB SSTORE PUSH2 0x16C SLOAD ISZERO DUP1 ISZERO SWAP1 PUSH2 0xBBC JUMPI POP PUSH2 0x16C SLOAD CALLVALUE LT ISZERO JUMPDEST PUSH1 0x40 MLOAD DUP1 PUSH1 0x40 ADD PUSH1 0x40 MSTORE DUP1 PUSH1 0x3 DUP2 MSTORE PUSH1 0x20 ADD PUSH3 0x323031 PUSH1 0xE8 SHL DUP2 MSTORE POP SWAP1 PUSH2 0xBF6 JUMPI PUSH1 0x40 MLOAD PUSH3 0x461BCD PUSH1 0xE5 SHL DUP2 MSTORE PUSH1 0x4 ADD PUSH2 0x991 SWAP2 SWAP1 PUSH2 0x4E62 JUMP JUMPDEST POP PUSH2 0x1194 PUSH2 0x169 SLOAD LT PUSH2 0xC08 JUMPI PUSH1 0x0 DUP1 REVERT JUMPDEST PUSH2 0x169 DUP1 SLOAD SWAP1 PUSH1 0x0 PUSH2 0xC19 DUP4 PUSH2 0x5528 JUMP JUMPDEST SWAP2 SWAP1 POP SSTORE POP PUSH2 0xC2B CALLER PUSH2 0x169 SLOAD PUSH2 0x20FB JUMP JUMPDEST PUSH1 0x1 PUSH1 0xFB SSTORE JUMP JUMPDEST PUSH2 0xC3C CALLER DUP3 PUSH2 0x2115 JUMP JUMPDEST PUSH2 0xC58 JUMPI PUSH1 0x40 MLOAD PUSH3 0x461BCD PUSH1 0xE5 SHL DUP2 MSTORE PUSH1 0x4 ADD PUSH2 0x991 SWAP1 PUSH2 0x5543 JUMP JUMPDEST PUSH2 0xAEB DUP4 DUP4 DUP4 PUSH2 0x2173 JUMP JUMPDEST PUSH2 0x165 SLOAD PUSH1 0x1 PUSH1 0x1 PUSH1 0xA0 SHL SUB AND PUSH1 0x0 PUSH2 0x2710 PUSH2 0xC81 DUP5 PUSH2 0x1F4 PUSH2 0x5591 JUMP JUMPDEST PUSH2 0xC8B SWAP2 SWAP1 PUSH2 0x55C6 JUMP JUMPDEST SWAP1 POP SWAP3 POP SWAP3 SWAP1 POP JUMP JUMPDEST PUSH1 0x2 PUSH1 0xFB SLOAD EQ ISZERO PUSH2 0xCB7 JUMPI PUSH1 0x40 MLOAD PUSH3 0x461BCD PUSH1 0xE5 SHL DUP2 MSTORE PUSH1 0x4 ADD PUSH2 0x991 SWAP1 PUSH2 0x54DB JUMP JUMPDEST PUSH1 0x2 PUSH1 0xFB SSTORE CALLER PUSH1 0x0 SWAP1 DUP2 MSTORE PUSH2 0x16D PUSH1 0x20 SWAP1 DUP2 MSTORE PUSH1 0x40 SWAP2 DUP3 SWAP1 KECCAK256 SLOAD DUP3 MLOAD DUP1 DUP5 ADD SWAP1 SWAP4 MSTORE PUSH1 0x3 DUP4 MSTORE PUSH3 0x31303 PUSH1 0xEC SHL SWAP2 DUP4 ADD SWAP2 SWAP1 SWAP2 MSTORE PUSH2 0xD08 JUMPI PUSH1 0x40 MLOAD PUSH3 0x461BCD PUSH1 0xE5 SHL DUP2 MSTORE PUSH1 0x4 ADD PUSH2 0x991 SWAP2 SWAP1 PUSH2 0x4E62 JUMP JUMPDEST POP PUSH1 0x0 PUSH2 0x16E SLOAD GT DUP1 ISZERO PUSH2 0xD1F JUMPI POP PUSH2 0x16E SLOAD CALLVALUE LT ISZERO JUMPDEST PUSH1 0x40 MLOAD DUP1 PUSH1 0x40 ADD PUSH1 0x40 MSTORE DUP1 PUSH1 0x3 DUP2 MSTORE PUSH1 0x20 ADD PUSH3 0x323031 PUSH1 0xE8 SHL DUP2 MSTORE POP SWAP1 PUSH2 0xD59 JUMPI PUSH1 0x40 MLOAD PUSH3 0x461BCD PUSH1 0xE5 SHL DUP2 MSTORE PUSH1 0x4 ADD PUSH2 0x991 SWAP2 SWAP1 PUSH2 0x4E62 JUMP JUMPDEST POP PUSH2 0x1194 PUSH2 0x169 SLOAD LT PUSH2 0xD6B JUMPI PUSH1 0x0 DUP1 REVERT JUMPDEST PUSH2 0x169 DUP1 SLOAD SWAP1 PUSH1 0x0 PUSH2 0xD7C DUP4 PUSH2 0x5528 JUMP JUMPDEST SWAP2 SWAP1 POP SSTORE POP PUSH2 0xD8E CALLER PUSH2 0x169 SLOAD PUSH2 0x20FB JUMP JUMPDEST CALLER PUSH1 0x0 SWAP1 DUP2 MSTORE PUSH2 0x16D PUSH1 0x20 MSTORE PUSH1 0x40 DUP2 KECCAK256 DUP1 SLOAD PUSH1 0x1 SWAP3 SWAP1 PUSH2 0xDAF SWAP1 DUP5 SWAP1 PUSH2 0x55DA JUMP JUMPDEST SWAP1 SWAP2 SSTORE POP POP PUSH1 0x1 PUSH1 0xFB SSTORE JUMP JUMPDEST PUSH1 0x2 PUSH1 0xFB SLOAD EQ ISZERO PUSH2 0xDDE JUMPI PUSH1 0x40 MLOAD PUSH3 0x461BCD PUSH1 0xE5 SHL DUP2 MSTORE PUSH1 0x4 ADD PUSH2 0x991 SWAP1 PUSH2 0x54DB JUMP JUMPDEST PUSH1 0x2 PUSH1 0xFB SSTORE PUSH2 0x165 SLOAD PUSH1 0x40 DUP1 MLOAD DUP1 DUP3 ADD SWAP1 SWAP2 MSTORE PUSH1 0x3 DUP2 MSTORE PUSH3 0x313031 PUSH1 0xE8 SHL PUSH1 0x20 DUP3 ADD MSTORE SWAP1 PUSH1 0x1 PUSH1 0x1 PUSH1 0xA0 SHL SUB AND CALLER EQ PUSH2 0xE2A JUMPI PUSH1 0x40 MLOAD PUSH3 0x461BCD PUSH1 0xE5 SHL DUP2 MSTORE PUSH1 0x4 ADD PUSH2 0x991 SWAP2 SWAP1 PUSH2 0x4E62 JUMP JUMPDEST POP PUSH1 0x40 MLOAD PUSH1 0x0 SWAP1 CALLER SWAP1 SELFBALANCE SWAP1 DUP4 DUP2 DUP2 DUP2 DUP6 DUP8 GAS CALL SWAP3 POP POP POP RETURNDATASIZE DUP1 PUSH1 0x0 DUP2 EQ PUSH2 0xE6D JUMPI PUSH1 0x40 MLOAD SWAP2 POP PUSH1 0x1F NOT PUSH1 0x3F RETURNDATASIZE ADD AND DUP3 ADD PUSH1 0x40 MSTORE RETURNDATASIZE DUP3 MSTORE RETURNDATASIZE PUSH1 0x0 PUSH1 0x20 DUP5 ADD RETURNDATACOPY PUSH2 0xE72 JUMP JUMPDEST PUSH1 0x60 SWAP2 POP JUMPDEST POP POP SWAP1 POP DUP1 PUSH2 0xE80 JUMPI PUSH1 0x0 DUP1 REVERT JUMPDEST POP POP PUSH1 0x1 PUSH1 0xFB SSTORE JUMP JUMPDEST PUSH2 0x165 SLOAD PUSH1 0x40 DUP1 MLOAD DUP1 DUP3 ADD SWAP1 SWAP2 MSTORE PUSH1 0x3 DUP2 MSTORE PUSH3 0x313031 PUSH1 0xE8 SHL PUSH1 0x20 DUP3 ADD MSTORE SWAP1 PUSH1 0x1 PUSH1 0x1 PUSH1 0xA0 SHL SUB AND CALLER EQ PUSH2 0xED0 JUMPI PUSH1 0x40 MLOAD PUSH3 0x461BCD PUSH1 0xE5 SHL DUP2 MSTORE PUSH1 0x4 ADD PUSH2 0x991 SWAP2 SWAP1 PUSH2 0x4E62 JUMP JUMPDEST POP DUP1 MLOAD PUSH2 0x9AF SWAP1 PUSH2 0x16A SWAP1 PUSH1 0x20 DUP5 ADD SWAP1 PUSH2 0x4B1F JUMP JUMPDEST PUSH2 0x165 SLOAD PUSH1 0x40 DUP1 MLOAD DUP1 DUP3 ADD SWAP1 SWAP2 MSTORE PUSH1 0x3 DUP2 MSTORE PUSH3 0x313031 PUSH1 0xE8 SHL PUSH1 0x20 DUP3 ADD MSTORE SWAP1 PUSH1 0x1 PUSH1 0x1 PUSH1 0xA0 SHL SUB AND CALLER EQ PUSH2 0xF2C JUMPI PUSH1 0x40 MLOAD PUSH3 0x461BCD PUSH1 0xE5 SHL DUP2 MSTORE PUSH1 0x4 ADD PUSH2 0x991 SWAP2 SWAP1 PUSH2 0x4E62 JUMP JUMPDEST POP PUSH2 0xF35 PUSH2 0x231A JUMP JUMPDEST JUMP JUMPDEST PUSH2 0xAEB DUP4 DUP4 DUP4 PUSH1 0x40 MLOAD DUP1 PUSH1 0x20 ADD PUSH1 0x40 MSTORE DUP1 PUSH1 0x0 DUP2 MSTORE POP PUSH2 0x1742 JUMP JUMPDEST PUSH2 0x165 SLOAD PUSH1 0x40 DUP1 MLOAD DUP1 DUP3 ADD SWAP1 SWAP2 MSTORE PUSH1 0x3 DUP2 MSTORE PUSH3 0x313031 PUSH1 0xE8 SHL PUSH1 0x20 DUP3 ADD MSTORE SWAP1 PUSH1 0x1 PUSH1 0x1 PUSH1 0xA0 SHL SUB AND CALLER EQ PUSH2 0xF99 JUMPI PUSH1 0x40 MLOAD PUSH3 0x461BCD PUSH1 0xE5 SHL DUP2 MSTORE PUSH1 0x4 ADD PUSH2 0x991 SWAP2 SWAP1 PUSH2 0x4E62 JUMP JUMPDEST POP PUSH2 0xFA3 DUP2 PUSH2 0x236C JUMP JUMPDEST POP JUMP JUMPDEST PUSH1 0x0 DUP2 DUP2 MSTORE PUSH1 0x67 PUSH1 0x20 MSTORE PUSH1 0x40 DUP2 KECCAK256 SLOAD PUSH1 0x1 PUSH1 0x1 PUSH1 0xA0 SHL SUB AND DUP1 PUSH2 0x8B2 JUMPI PUSH1 0x40 MLOAD PUSH3 0x461BCD PUSH1 0xE5 SHL DUP2 MSTORE PUSH1 0x20 PUSH1 0x4 DUP3 ADD MSTORE PUSH1 0x18 PUSH1 0x24 DUP3 ADD MSTORE PUSH24 0x115490CDCC8C4E881A5B9D985B1A59081D1BDAD95B881251 PUSH1 0x42 SHL PUSH1 0x44 DUP3 ADD MSTORE PUSH1 0x64 ADD PUSH2 0x991 JUMP JUMPDEST PUSH2 0x165 SLOAD PUSH1 0x40 DUP1 MLOAD DUP1 DUP3 ADD SWAP1 SWAP2 MSTORE PUSH1 0x3 DUP2 MSTORE PUSH3 0x313031 PUSH1 0xE8 SHL PUSH1 0x20 DUP3 ADD MSTORE SWAP1 PUSH1 0x1 PUSH1 0x1 PUSH1 0xA0 SHL SUB AND CALLER EQ PUSH2 0x104D JUMPI PUSH1 0x40 MLOAD PUSH3 0x461BCD PUSH1 0xE5 SHL DUP2 MSTORE PUSH1 0x4 ADD PUSH2 0x991 SWAP2 SWAP1 PUSH2 0x4E62 JUMP JUMPDEST POP PUSH1 0x0 JUMPDEST DUP3 MLOAD DUP2 LT ISZERO PUSH2 0xAEB JUMPI DUP2 PUSH2 0x16D PUSH1 0x0 DUP6 DUP5 DUP2 MLOAD DUP2 LT PUSH2 0x1072 JUMPI PUSH2 0x1072 PUSH2 0x55F1 JUMP JUMPDEST PUSH1 0x20 MUL PUSH1 0x20 ADD ADD MLOAD PUSH1 0x1 PUSH1 0x1 PUSH1 0xA0 SHL SUB AND PUSH1 0x1 PUSH1 0x1 PUSH1 0xA0 SHL SUB AND DUP2 MSTORE PUSH1 0x20 ADD SWAP1 DUP2 MSTORE PUSH1 0x20 ADD PUSH1 0x0 KECCAK256 DUP2 SWAP1 SSTORE POP DUP1 DUP1 PUSH2 0x10A9 SWAP1 PUSH2 0x5528 JUMP JUMPDEST SWAP2 POP POP PUSH2 0x1051 JUMP JUMPDEST PUSH2 0x165 SLOAD PUSH1 0x40 DUP1 MLOAD DUP1 DUP3 ADD SWAP1 SWAP2 MSTORE PUSH1 0x3 DUP2 MSTORE PUSH3 0x313031 PUSH1 0xE8 SHL PUSH1 0x20 DUP3 ADD MSTORE SWAP1 PUSH1 0x1 PUSH1 0x1 PUSH1 0xA0 SHL SUB AND CALLER EQ PUSH2 0x10F8 JUMPI PUSH1 0x40 MLOAD PUSH3 0x461BCD PUSH1 0xE5 SHL DUP2 MSTORE PUSH1 0x4 ADD PUSH2 0x991 SWAP2 SWAP1 PUSH2 0x4E62 JUMP JUMPDEST POP PUSH2 0x16B DUP1 SLOAD PUSH1 0x1 PUSH1 0x1 PUSH1 0xA0 SHL SUB NOT AND PUSH1 0x1 PUSH1 0x1 PUSH1 0xA0 SHL SUB SWAP3 SWAP1 SWAP3 AND SWAP2 SWAP1 SWAP2 OR SWAP1 SSTORE JUMP JUMPDEST PUSH2 0x165 SLOAD PUSH1 0x40 DUP1 MLOAD DUP1 DUP3 ADD SWAP1 SWAP2 MSTORE PUSH1 0x3 DUP2 MSTORE PUSH3 0x313031 PUSH1 0xE8 SHL PUSH1 0x20 DUP3 ADD MSTORE SWAP1 PUSH1 0x1 PUSH1 0x1 PUSH1 0xA0 SHL SUB AND CALLER EQ PUSH2 0x1163 JUMPI PUSH1 0x40 MLOAD PUSH3 0x461BCD PUSH1 0xE5 SHL DUP2 MSTORE PUSH1 0x4 ADD PUSH2 0x991 SWAP2 SWAP1 PUSH2 0x4E62 JUMP JUMPDEST POP PUSH2 0x16C SSTORE JUMP JUMPDEST PUSH1 0x0 PUSH1 0x1 PUSH1 0x1 PUSH1 0xA0 SHL SUB DUP3 AND PUSH2 0x11D4 JUMPI PUSH1 0x40 MLOAD PUSH3 0x461BCD PUSH1 0xE5 SHL DUP2 MSTORE PUSH1 0x20 PUSH1 0x4 DUP3 ADD MSTORE PUSH1 0x29 PUSH1 0x24 DUP3 ADD MSTORE PUSH32 0x4552433732313A2061646472657373207A65726F206973206E6F742061207661 PUSH1 0x44 DUP3 ADD MSTORE PUSH9 0x3634B21037BBB732B9 PUSH1 0xB9 SHL PUSH1 0x64 DUP3 ADD MSTORE PUSH1 0x84 ADD PUSH2 0x991 JUMP JUMPDEST POP PUSH1 0x1 PUSH1 0x1 PUSH1 0xA0 SHL SUB AND PUSH1 0x0 SWAP1 DUP2 MSTORE PUSH1 0x68 PUSH1 0x20 MSTORE PUSH1 0x40 SWAP1 KECCAK256 SLOAD SWAP1 JUMP JUMPDEST PUSH2 0x11F8 PUSH2 0x238F JUMP JUMPDEST PUSH2 0xF35 PUSH1 0x0 PUSH2 0x23EA JUMP JUMPDEST PUSH1 0x0 DUP3 DUP2 MSTORE PUSH2 0x164 PUSH1 0x20 MSTORE PUSH1 0x40 SWAP1 KECCAK256 SLOAD DUP3 SWAP1 PUSH1 0x1 PUSH1 0x1 PUSH1 0xA0 SHL SUB AND CALLER EQ PUSH2 0x127C JUMPI PUSH1 0x40 MLOAD PUSH3 0x461BCD PUSH1 0xE5 SHL DUP2 MSTORE PUSH1 0x20 PUSH1 0x4 DUP3 ADD MSTORE PUSH1 0x28 PUSH1 0x24 DUP3 ADD MSTORE PUSH32 0x536F75726365206D75737420626520746865206F7261636C65206F6620746865 PUSH1 0x44 DUP3 ADD MSTORE PUSH8 0x81C995C5D595CDD PUSH1 0xC2 SHL PUSH1 0x64 DUP3 ADD MSTORE PUSH1 0x84 ADD PUSH2 0x991 JUMP JUMPDEST PUSH1 0x0 DUP2 DUP2 MSTORE PUSH2 0x164 PUSH1 0x20 MSTORE PUSH1 0x40 DUP1 DUP3 KECCAK256 DUP1 SLOAD PUSH1 0x1 PUSH1 0x1 PUSH1 0xA0 SHL SUB NOT AND SWAP1 SSTORE MLOAD DUP3 SWAP2 PUSH32 0x7CC135E0CEBB02C3480AE5D74D377283180A2601F8F644EDF7987B009316C63A SWAP2 LOG2 POP POP POP JUMP JUMPDEST PUSH1 0x2 PUSH1 0xFB SLOAD EQ ISZERO PUSH2 0x12E8 JUMPI PUSH1 0x40 MLOAD PUSH3 0x461BCD PUSH1 0xE5 SHL DUP2 MSTORE PUSH1 0x4 ADD PUSH2 0x991 SWAP1 PUSH2 0x54DB JUMP JUMPDEST PUSH1 0x2 PUSH1 0xFB SSTORE PUSH2 0x16B SLOAD PUSH1 0x40 DUP1 MLOAD DUP1 DUP3 ADD SWAP1 SWAP2 MSTORE PUSH1 0x3 DUP2 MSTORE PUSH3 0x31303 PUSH1 0xEC SHL PUSH1 0x20 DUP3 ADD MSTORE SWAP1 PUSH1 0x1 PUSH1 0x1 PUSH1 0xA0 SHL SUB AND PUSH2 0x1332 JUMPI PUSH1 0x40 MLOAD PUSH3 0x461BCD PUSH1 0xE5 SHL DUP2 MSTORE PUSH1 0x4 ADD PUSH2 0x991 SWAP2 SWAP1 PUSH2 0x4E62 JUMP JUMPDEST POP PUSH1 0x7 PUSH2 0x135C DUP3 PUSH1 0x40 MLOAD DUP1 PUSH1 0x40 ADD PUSH1 0x40 MSTORE DUP1 PUSH1 0x5 DUP2 MSTORE PUSH1 0x20 ADD PUSH5 0x7368617065 PUSH1 0xD8 SHL DUP2 MSTORE POP PUSH2 0x243D JUMP JUMPDEST PUSH2 0x1366 SWAP2 SWAP1 PUSH2 0x5607 JUMP JUMPDEST PUSH1 0x40 DUP1 MLOAD DUP1 DUP3 ADD SWAP1 SWAP2 MSTORE PUSH1 0x3 DUP2 MSTORE PUSH3 0xC8C0D PUSH1 0xEA SHL PUSH1 0x20 DUP3 ADD MSTORE SWAP1 ISZERO PUSH2 0x139F JUMPI PUSH1 0x40 MLOAD PUSH3 0x461BCD PUSH1 0xE5 SHL DUP2 MSTORE PUSH1 0x4 ADD PUSH2 0x991 SWAP2 SWAP1 PUSH2 0x4E62 JUMP JUMPDEST POP PUSH2 0x16B SLOAD PUSH1 0x40 MLOAD PUSH4 0x23B872DD PUSH1 0xE0 SHL DUP2 MSTORE CALLER PUSH1 0x4 DUP3 ADD MSTORE ADDRESS PUSH1 0x24 DUP3 ADD MSTORE PUSH1 0x44 DUP2 ADD DUP4 SWAP1 MSTORE PUSH1 0x1 PUSH1 0x1 PUSH1 0xA0 SHL SUB SWAP1 SWAP2 AND SWAP1 DUP2 SWAP1 PUSH4 0x23B872DD SWAP1 PUSH1 0x64 ADD PUSH1 0x0 PUSH1 0x40 MLOAD DUP1 DUP4 SUB DUP2 PUSH1 0x0 DUP8 DUP1 EXTCODESIZE ISZERO DUP1 ISZERO PUSH2 0x13F5 JUMPI PUSH1 0x0 DUP1 REVERT JUMPDEST POP GAS CALL ISZERO DUP1 ISZERO PUSH2 0x1409 JUMPI RETURNDATASIZE PUSH1 0x0 DUP1 RETURNDATACOPY RETURNDATASIZE PUSH1 0x0 REVERT JUMPDEST POP POP POP POP PUSH2 0x1194 PUSH2 0x169 SLOAD LT PUSH2 0x141E JUMPI PUSH1 0x0 DUP1 REVERT JUMPDEST PUSH2 0x169 DUP1 SLOAD SWAP1 PUSH1 0x0 PUSH2 0x142F DUP4 PUSH2 0x5528 JUMP JUMPDEST SWAP2 SWAP1 POP SSTORE POP PUSH2 0xE80 CALLER PUSH2 0x169 SLOAD PUSH2 0x20FB JUMP JUMPDEST PUSH2 0x165 SLOAD PUSH1 0x40 DUP1 MLOAD DUP1 DUP3 ADD SWAP1 SWAP2 MSTORE PUSH1 0x3 DUP2 MSTORE PUSH3 0x313031 PUSH1 0xE8 SHL PUSH1 0x20 DUP3 ADD MSTORE SWAP1 PUSH1 0x1 PUSH1 0x1 PUSH1 0xA0 SHL SUB AND CALLER EQ PUSH2 0x1488 JUMPI PUSH1 0x40 MLOAD PUSH3 0x461BCD PUSH1 0xE5 SHL DUP2 MSTORE PUSH1 0x4 ADD PUSH2 0x991 SWAP2 SWAP1 PUSH2 0x4E62 JUMP JUMPDEST POP PUSH2 0xF35 PUSH2 0x2479 JUMP JUMPDEST PUSH2 0x165 SLOAD PUSH1 0x40 DUP1 MLOAD DUP1 DUP3 ADD SWAP1 SWAP2 MSTORE PUSH1 0x3 DUP2 MSTORE PUSH3 0x313031 PUSH1 0xE8 SHL PUSH1 0x20 DUP3 ADD MSTORE SWAP1 PUSH1 0x1 PUSH1 0x1 PUSH1 0xA0 SHL SUB AND CALLER EQ PUSH2 0x14D8 JUMPI PUSH1 0x40 MLOAD PUSH3 0x461BCD PUSH1 0xE5 SHL DUP2 MSTORE PUSH1 0x4 ADD PUSH2 0x991 SWAP2 SWAP1 PUSH2 0x4E62 JUMP JUMPDEST POP PUSH1 0x0 PUSH2 0x14EE PUSH2 0x161 SLOAD PUSH1 0x1 PUSH1 0x1 PUSH1 0xA0 SHL SUB AND SWAP1 JUMP JUMPDEST PUSH1 0x40 MLOAD PUSH4 0x70A08231 PUSH1 0xE0 SHL DUP2 MSTORE ADDRESS PUSH1 0x4 DUP3 ADD MSTORE SWAP1 SWAP2 POP PUSH1 0x1 PUSH1 0x1 PUSH1 0xA0 SHL SUB DUP3 AND SWAP1 PUSH4 0xA9059CBB SWAP1 CALLER SWAP1 DUP4 SWAP1 PUSH4 0x70A08231 SWAP1 PUSH1 0x24 ADD PUSH1 0x20 PUSH1 0x40 MLOAD DUP1 DUP4 SUB DUP2 DUP7 GAS STATICCALL ISZERO DUP1 ISZERO PUSH2 0x153F JUMPI RETURNDATASIZE PUSH1 0x0 DUP1 RETURNDATACOPY RETURNDATASIZE PUSH1 0x0 REVERT JUMPDEST POP POP POP POP PUSH1 0x40 MLOAD RETURNDATASIZE PUSH1 0x1F NOT PUSH1 0x1F DUP3 ADD AND DUP3 ADD DUP1 PUSH1 0x40 MSTORE POP DUP2 ADD SWAP1 PUSH2 0x1563 SWAP2 SWAP1 PUSH2 0x561B JUMP JUMPDEST PUSH1 0x40 MLOAD PUSH1 0x1 PUSH1 0x1 PUSH1 0xE0 SHL SUB NOT PUSH1 0xE0 DUP6 SWAP1 SHL AND DUP2 MSTORE PUSH1 0x1 PUSH1 0x1 PUSH1 0xA0 SHL SUB SWAP1 SWAP3 AND PUSH1 0x4 DUP4 ADD MSTORE PUSH1 0x24 DUP3 ADD MSTORE PUSH1 0x44 ADD PUSH1 0x20 PUSH1 0x40 MLOAD DUP1 DUP4 SUB DUP2 PUSH1 0x0 DUP8 GAS CALL ISZERO DUP1 ISZERO PUSH2 0x15AE JUMPI RETURNDATASIZE PUSH1 0x0 DUP1 RETURNDATACOPY RETURNDATASIZE PUSH1 0x0 REVERT JUMPDEST POP POP POP POP PUSH1 0x40 MLOAD RETURNDATASIZE PUSH1 0x1F NOT PUSH1 0x1F DUP3 ADD AND DUP3 ADD DUP1 PUSH1 0x40 MSTORE POP DUP2 ADD SWAP1 PUSH2 0x15D2 SWAP2 SWAP1 PUSH2 0x5634 JUMP JUMPDEST PUSH2 0xFA3 JUMPI PUSH1 0x40 MLOAD PUSH3 0x461BCD PUSH1 0xE5 SHL DUP2 MSTORE PUSH1 0x20 PUSH1 0x4 DUP3 ADD MSTORE PUSH1 0x12 PUSH1 0x24 DUP3 ADD MSTORE PUSH18 0x2AB730B13632903A37903A3930B739B332B9 PUSH1 0x71 SHL PUSH1 0x44 DUP3 ADD MSTORE PUSH1 0x64 ADD PUSH2 0x991 JUMP JUMPDEST PUSH2 0x165 SLOAD PUSH1 0x1 PUSH1 0x1 PUSH1 0xA0 SHL SUB AND CALLER EQ DUP1 ISZERO PUSH2 0x1636 JUMPI POP PUSH1 0x1 PUSH1 0x1 PUSH1 0xA0 SHL SUB DUP2 AND ISZERO ISZERO JUMPDEST DUP1 ISZERO PUSH2 0x1651 JUMPI POP PUSH2 0x165 SLOAD PUSH1 0x1 PUSH1 0x1 PUSH1 0xA0 SHL SUB DUP3 DUP2 AND SWAP2 AND EQ ISZERO JUMPDEST PUSH1 0x40 MLOAD DUP1 PUSH1 0x40 ADD PUSH1 0x40 MSTORE DUP1 PUSH1 0x3 DUP2 MSTORE PUSH1 0x20 ADD PUSH3 0x313031 PUSH1 0xE8 SHL DUP2 MSTORE POP SWAP1 PUSH2 0x168B JUMPI PUSH1 0x40 MLOAD PUSH3 0x461BCD PUSH1 0xE5 SHL DUP2 MSTORE PUSH1 0x4 ADD PUSH2 0x991 SWAP2 SWAP1 PUSH2 0x4E62 JUMP JUMPDEST POP PUSH2 0x165 DUP1 SLOAD PUSH1 0x1 PUSH1 0x1 PUSH1 0xA0 SHL SUB NOT AND PUSH1 0x1 PUSH1 0x1 PUSH1 0xA0 SHL SUB SWAP3 SWAP1 SWAP3 AND SWAP2 SWAP1 SWAP2 OR SWAP1 SSTORE JUMP JUMPDEST PUSH1 0x60 PUSH1 0x66 DUP1 SLOAD PUSH2 0x8C7 SWAP1 PUSH2 0x54A6 JUMP JUMPDEST PUSH2 0x165 SLOAD PUSH1 0x40 DUP1 MLOAD DUP1 DUP3 ADD SWAP1 SWAP2 MSTORE PUSH1 0x3 DUP2 MSTORE PUSH3 0x313031 PUSH1 0xE8 SHL PUSH1 0x20 DUP3 ADD MSTORE SWAP1 PUSH1 0x1 PUSH1 0x1 PUSH1 0xA0 SHL SUB AND CALLER EQ PUSH2 0x1705 JUMPI PUSH1 0x40 MLOAD PUSH3 0x461BCD PUSH1 0xE5 SHL DUP2 MSTORE PUSH1 0x4 ADD PUSH2 0x991 SWAP2 SWAP1 PUSH2 0x4E62 JUMP JUMPDEST POP PUSH2 0x166 DUP1 SLOAD PUSH1 0x1 PUSH1 0x1 PUSH1 0xA0 SHL SUB NOT AND PUSH1 0x1 PUSH1 0x1 PUSH1 0xA0 SHL SUB SWAP3 SWAP1 SWAP3 AND SWAP2 SWAP1 SWAP2 OR SWAP1 SSTORE JUMP JUMPDEST PUSH2 0x168 DUP1 SLOAD PUSH2 0xAFE SWAP1 PUSH2 0x54A6 JUMP JUMPDEST PUSH2 0x9AF CALLER DUP4 DUP4 PUSH2 0x24B6 JUMP JUMPDEST PUSH2 0x174C CALLER DUP4 PUSH2 0x2115 JUMP JUMPDEST PUSH2 0x1768 JUMPI PUSH1 0x40 MLOAD PUSH3 0x461BCD PUSH1 0xE5 SHL DUP2 MSTORE PUSH1 0x4 ADD PUSH2 0x991 SWAP1 PUSH2 0x5543 JUMP JUMPDEST PUSH2 0x1774 DUP5 DUP5 DUP5 DUP5 PUSH2 0x2585 JUMP JUMPDEST POP POP POP POP JUMP JUMPDEST PUSH2 0x17EC PUSH1 0x40 MLOAD DUP1 PUSH2 0x1C0 ADD PUSH1 0x40 MSTORE DUP1 PUSH1 0x60 DUP2 MSTORE PUSH1 0x20 ADD PUSH1 0x60 DUP2 MSTORE PUSH1 0x20 ADD PUSH1 0x60 DUP2 MSTORE PUSH1 0x20 ADD PUSH1 0x60 DUP2 MSTORE PUSH1 0x20 ADD PUSH1 0x60 DUP2 MSTORE PUSH1 0x20 ADD PUSH1 0x60 DUP2 MSTORE PUSH1 0x20 ADD PUSH1 0x60 DUP2 MSTORE PUSH1 0x20 ADD PUSH1 0x60 DUP2 MSTORE PUSH1 0x20 ADD PUSH1 0x60 DUP2 MSTORE PUSH1 0x20 ADD PUSH1 0x60 DUP2 MSTORE PUSH1 0x20 ADD PUSH1 0x0 DUP2 MSTORE PUSH1 0x20 ADD PUSH1 0x60 DUP2 MSTORE PUSH1 0x20 ADD PUSH1 0x60 DUP2 MSTORE PUSH1 0x20 ADD PUSH1 0x60 DUP2 MSTORE POP SWAP1 JUMP JUMPDEST PUSH1 0x0 PUSH2 0x17F7 DUP4 PUSH2 0x25B8 JUMP JUMPDEST SWAP1 POP PUSH1 0x0 PUSH2 0x1804 DUP5 PUSH2 0x26B5 JUMP JUMPDEST SWAP1 POP PUSH1 0x0 PUSH2 0x16F DUP4 PUSH1 0x40 MLOAD PUSH2 0x1819 SWAP2 SWAP1 PUSH2 0x5651 JUMP JUMPDEST SWAP1 DUP2 MSTORE PUSH1 0x40 MLOAD SWAP1 DUP2 SWAP1 SUB PUSH1 0x20 ADD SWAP1 KECCAK256 DUP1 SLOAD PUSH2 0x1833 SWAP1 PUSH2 0x54A6 JUMP JUMPDEST DUP1 PUSH1 0x1F ADD PUSH1 0x20 DUP1 SWAP2 DIV MUL PUSH1 0x20 ADD PUSH1 0x40 MLOAD SWAP1 DUP2 ADD PUSH1 0x40 MSTORE DUP1 SWAP3 SWAP2 SWAP1 DUP2 DUP2 MSTORE PUSH1 0x20 ADD DUP3 DUP1 SLOAD PUSH2 0x185F SWAP1 PUSH2 0x54A6 JUMP JUMPDEST DUP1 ISZERO PUSH2 0x18AC JUMPI DUP1 PUSH1 0x1F LT PUSH2 0x1881 JUMPI PUSH2 0x100 DUP1 DUP4 SLOAD DIV MUL DUP4 MSTORE SWAP2 PUSH1 0x20 ADD SWAP2 PUSH2 0x18AC JUMP JUMPDEST DUP3 ADD SWAP2 SWAP1 PUSH1 0x0 MSTORE PUSH1 0x20 PUSH1 0x0 KECCAK256 SWAP1 JUMPDEST DUP2 SLOAD DUP2 MSTORE SWAP1 PUSH1 0x1 ADD SWAP1 PUSH1 0x20 ADD DUP1 DUP4 GT PUSH2 0x188F JUMPI DUP3 SWAP1 SUB PUSH1 0x1F AND DUP3 ADD SWAP2 JUMPDEST POP POP POP POP POP SWAP1 POP PUSH2 0x1964 DUP3 PUSH2 0x172 PUSH1 0x0 DUP2 SLOAD DUP2 LT PUSH2 0x18CC JUMPI PUSH2 0x18CC PUSH2 0x55F1 JUMP JUMPDEST SWAP1 PUSH1 0x0 MSTORE PUSH1 0x20 PUSH1 0x0 KECCAK256 ADD DUP1 SLOAD PUSH2 0x18E1 SWAP1 PUSH2 0x54A6 JUMP JUMPDEST DUP1 PUSH1 0x1F ADD PUSH1 0x20 DUP1 SWAP2 DIV MUL PUSH1 0x20 ADD PUSH1 0x40 MLOAD SWAP1 DUP2 ADD PUSH1 0x40 MSTORE DUP1 SWAP3 SWAP2 SWAP1 DUP2 DUP2 MSTORE PUSH1 0x20 ADD DUP3 DUP1 SLOAD PUSH2 0x190D SWAP1 PUSH2 0x54A6 JUMP JUMPDEST DUP1 ISZERO PUSH2 0x195A JUMPI DUP1 PUSH1 0x1F LT PUSH2 0x192F JUMPI PUSH2 0x100 DUP1 DUP4 SLOAD DIV MUL DUP4 MSTORE SWAP2 PUSH1 0x20 ADD SWAP2 PUSH2 0x195A JUMP JUMPDEST DUP3 ADD SWAP2 SWAP1 PUSH1 0x0 MSTORE PUSH1 0x20 PUSH1 0x0 KECCAK256 SWAP1 JUMPDEST DUP2 SLOAD DUP2 MSTORE SWAP1 PUSH1 0x1 ADD SWAP1 PUSH1 0x20 ADD DUP1 DUP4 GT PUSH2 0x193D JUMPI DUP3 SWAP1 SUB PUSH1 0x1F AND DUP3 ADD SWAP2 JUMPDEST POP POP POP POP POP PUSH2 0x27AE JUMP JUMPDEST PUSH2 0x1AAE JUMPI PUSH1 0x0 PUSH3 0x15180 SWAP1 POP PUSH2 0x1989 DUP4 PUSH2 0x172 PUSH1 0x3 DUP2 SLOAD DUP2 LT PUSH2 0x18CC JUMPI PUSH2 0x18CC PUSH2 0x55F1 JUMP JUMPDEST ISZERO PUSH2 0x19A0 JUMPI PUSH2 0x1999 DUP2 PUSH1 0x1E PUSH2 0x5591 JUMP JUMPDEST SWAP1 POP PUSH2 0x19CC JUMP JUMPDEST PUSH2 0x19B9 DUP4 PUSH2 0x172 PUSH1 0x2 DUP2 SLOAD DUP2 LT PUSH2 0x18CC JUMPI PUSH2 0x18CC PUSH2 0x55F1 JUMP JUMPDEST ISZERO PUSH2 0x19CC JUMPI PUSH2 0x19C9 DUP2 PUSH1 0x7 PUSH2 0x5591 JUMP JUMPDEST SWAP1 POP JUMPDEST DUP1 PUSH2 0x16F DUP6 PUSH1 0x40 MLOAD PUSH2 0x19DE SWAP2 SWAP1 PUSH2 0x5651 JUMP JUMPDEST SWAP1 DUP2 MSTORE PUSH1 0x20 ADD PUSH1 0x40 MLOAD DUP1 SWAP2 SUB SWAP1 KECCAK256 PUSH1 0x1 ADD SLOAD TIMESTAMP PUSH2 0x19FB SWAP2 SWAP1 PUSH2 0x55DA JUMP JUMPDEST GT ISZERO PUSH2 0x1AAC JUMPI PUSH2 0x171 PUSH1 0x0 DUP2 SLOAD DUP2 LT PUSH2 0x1A16 JUMPI PUSH2 0x1A16 PUSH2 0x55F1 JUMP JUMPDEST SWAP1 PUSH1 0x0 MSTORE PUSH1 0x20 PUSH1 0x0 KECCAK256 ADD DUP1 SLOAD PUSH2 0x1A2B SWAP1 PUSH2 0x54A6 JUMP JUMPDEST DUP1 PUSH1 0x1F ADD PUSH1 0x20 DUP1 SWAP2 DIV MUL PUSH1 0x20 ADD PUSH1 0x40 MLOAD SWAP1 DUP2 ADD PUSH1 0x40 MSTORE DUP1 SWAP3 SWAP2 SWAP1 DUP2 DUP2 MSTORE PUSH1 0x20 ADD DUP3 DUP1 SLOAD PUSH2 0x1A57 SWAP1 PUSH2 0x54A6 JUMP JUMPDEST DUP1 ISZERO PUSH2 0x1AA4 JUMPI DUP1 PUSH1 0x1F LT PUSH2 0x1A79 JUMPI PUSH2 0x100 DUP1 DUP4 SLOAD DIV MUL DUP4 MSTORE SWAP2 PUSH1 0x20 ADD SWAP2 PUSH2 0x1AA4 JUMP JUMPDEST DUP3 ADD SWAP2 SWAP1 PUSH1 0x0 MSTORE PUSH1 0x20 PUSH1 0x0 KECCAK256 SWAP1 JUMPDEST DUP2 SLOAD DUP2 MSTORE SWAP1 PUSH1 0x1 ADD SWAP1 PUSH1 0x20 ADD DUP1 DUP4 GT PUSH2 0x1A87 JUMPI DUP3 SWAP1 SUB PUSH1 0x1F AND DUP3 ADD SWAP2 JUMPDEST POP POP POP POP POP SWAP2 POP JUMPDEST POP JUMPDEST PUSH1 0x40 MLOAD DUP1 PUSH2 0x1C0 ADD PUSH1 0x40 MSTORE DUP1 DUP3 DUP2 MSTORE PUSH1 0x20 ADD DUP4 DUP2 MSTORE PUSH1 0x20 ADD DUP5 DUP2 MSTORE PUSH1 0x20 ADD PUSH2 0x1AD5 DUP8 PUSH2 0x2807 JUMP JUMPDEST DUP2 MSTORE PUSH1 0x20 ADD PUSH2 0x1AE3 DUP8 PUSH2 0x28F8 JUMP JUMPDEST DUP2 MSTORE PUSH1 0x20 ADD PUSH2 0x1AF1 DUP8 PUSH2 0x2A94 JUMP JUMPDEST DUP2 MSTORE PUSH1 0x20 ADD PUSH2 0x1AFF DUP8 PUSH2 0x2C50 JUMP JUMPDEST DUP2 MSTORE PUSH1 0x20 ADD PUSH2 0x1B0D DUP8 PUSH2 0x2EFA JUMP JUMPDEST DUP2 MSTORE PUSH1 0x20 ADD PUSH2 0x1B1B DUP8 PUSH2 0x2FEC JUMP JUMPDEST DUP2 MSTORE PUSH1 0x20 ADD PUSH2 0x1B29 DUP8 PUSH2 0x30DD JUMP JUMPDEST DUP2 MSTORE PUSH1 0x20 ADD PUSH2 0x1B37 DUP8 PUSH2 0x31D1 JUMP JUMPDEST DUP2 MSTORE PUSH1 0x20 ADD PUSH2 0x1B45 DUP8 PUSH2 0x31FF JUMP JUMPDEST DUP2 MSTORE PUSH1 0x20 ADD PUSH2 0x1B53 DUP8 PUSH2 0x32F2 JUMP JUMPDEST DUP2 MSTORE PUSH1 0x20 ADD PUSH2 0x1B61 DUP8 PUSH2 0x33E7 JUMP JUMPDEST SWAP1 MSTORE SWAP6 SWAP5 POP POP POP POP POP JUMP JUMPDEST PUSH2 0x165 SLOAD PUSH1 0x40 DUP1 MLOAD DUP1 DUP3 ADD SWAP1 SWAP2 MSTORE PUSH1 0x3 DUP2 MSTORE PUSH3 0x313031 PUSH1 0xE8 SHL PUSH1 0x20 DUP3 ADD MSTORE SWAP1 PUSH1 0x1 PUSH1 0x1 PUSH1 0xA0 SHL SUB AND CALLER EQ PUSH2 0x1BB3 JUMPI PUSH1 0x40 MLOAD PUSH3 0x461BCD PUSH1 0xE5 SHL DUP2 MSTORE PUSH1 0x4 ADD PUSH2 0x991 SWAP2 SWAP1 PUSH2 0x4E62 JUMP JUMPDEST POP PUSH2 0x16E SSTORE JUMP JUMPDEST PUSH1 0x60 PUSH2 0x1BC5 DUP3 PUSH2 0x202E JUMP JUMPDEST PUSH1 0x0 PUSH2 0x1BCF PUSH2 0x34DC JUMP JUMPDEST SWAP1 POP PUSH1 0x0 DUP2 MLOAD GT PUSH2 0x1BEF JUMPI PUSH1 0x40 MLOAD DUP1 PUSH1 0x20 ADD PUSH1 0x40 MSTORE DUP1 PUSH1 0x0 DUP2 MSTORE POP PUSH2 0x1C1A JUMP JUMPDEST DUP1 PUSH2 0x1BF9 DUP5 PUSH2 0x34EC JUMP JUMPDEST PUSH1 0x40 MLOAD PUSH1 0x20 ADD PUSH2 0x1C0A SWAP3 SWAP2 SWAP1 PUSH2 0x566D JUMP JUMPDEST PUSH1 0x40 MLOAD PUSH1 0x20 DUP2 DUP4 SUB SUB DUP2 MSTORE SWAP1 PUSH1 0x40 MSTORE JUMPDEST SWAP4 SWAP3 POP POP POP JUMP JUMPDEST PUSH2 0x165 SLOAD PUSH1 0x0 SWAP1 PUSH1 0x1 PUSH1 0x1 PUSH1 0xA0 SHL SUB AND CALLER EQ DUP1 PUSH2 0x1C49 JUMPI POP PUSH2 0x166 SLOAD PUSH1 0x1 PUSH1 0x1 PUSH1 0xA0 SHL SUB AND CALLER EQ JUMPDEST PUSH1 0x40 MLOAD DUP1 PUSH1 0x40 ADD PUSH1 0x40 MSTORE DUP1 PUSH1 0x3 DUP2 MSTORE PUSH1 0x20 ADD PUSH3 0x313031 PUSH1 0xE8 SHL DUP2 MSTORE POP SWAP1 PUSH2 0x1C83 JUMPI PUSH1 0x40 MLOAD PUSH3 0x461BCD PUSH1 0xE5 SHL DUP2 MSTORE PUSH1 0x4 ADD PUSH2 0x991 SWAP2 SWAP1 PUSH2 0x4E62 JUMP JUMPDEST POP PUSH1 0x0 PUSH2 0x1C98 DUP7 ADDRESS PUSH4 0x7C1DE7E1 PUSH1 0xE0 SHL PUSH2 0x35E9 JUMP JUMPDEST PUSH1 0x40 DUP1 MLOAD DUP1 DUP3 ADD SWAP1 SWAP2 MSTORE PUSH1 0x3 DUP2 MSTORE PUSH3 0x19D95D PUSH1 0xEA SHL PUSH1 0x20 DUP3 ADD MSTORE SWAP1 SWAP2 POP PUSH2 0x1CC1 SWAP1 DUP3 SWAP1 DUP7 PUSH2 0x360E JUMP JUMPDEST PUSH1 0x40 DUP1 MLOAD DUP1 DUP3 ADD SWAP1 SWAP2 MSTORE PUSH1 0x4 DUP2 MSTORE PUSH4 0xE0C2E8D PUSH1 0xE3 SHL PUSH1 0x20 DUP3 ADD MSTORE PUSH2 0x1CE8 SWAP1 DUP3 SWAP1 DUP6 PUSH2 0x360E JUMP JUMPDEST PUSH2 0x1CF2 DUP2 DUP7 PUSH2 0x362C JUMP JUMPDEST SWAP2 POP POP JUMPDEST SWAP5 SWAP4 POP POP POP POP JUMP JUMPDEST PUSH1 0x0 SLOAD PUSH2 0x100 SWAP1 DIV PUSH1 0xFF AND ISZERO DUP1 DUP1 ISZERO PUSH2 0x1D1E JUMPI POP PUSH1 0x0 SLOAD PUSH1 0x1 PUSH1 0xFF SWAP1 SWAP2 AND LT JUMPDEST DUP1 PUSH2 0x1D38 JUMPI POP ADDRESS EXTCODESIZE ISZERO DUP1 ISZERO PUSH2 0x1D38 JUMPI POP PUSH1 0x0 SLOAD PUSH1 0xFF AND PUSH1 0x1 EQ JUMPDEST PUSH2 0x1D9B JUMPI PUSH1 0x40 MLOAD PUSH3 0x461BCD PUSH1 0xE5 SHL DUP2 MSTORE PUSH1 0x20 PUSH1 0x4 DUP3 ADD MSTORE PUSH1 0x2E PUSH1 0x24 DUP3 ADD MSTORE PUSH32 0x496E697469616C697A61626C653A20636F6E747261637420697320616C726561 PUSH1 0x44 DUP3 ADD MSTORE PUSH14 0x191E481A5B9A5D1A585B1A5E9959 PUSH1 0x92 SHL PUSH1 0x64 DUP3 ADD MSTORE PUSH1 0x84 ADD PUSH2 0x991 JUMP JUMPDEST PUSH1 0x0 DUP1 SLOAD PUSH1 0xFF NOT AND PUSH1 0x1 OR SWAP1 SSTORE DUP1 ISZERO PUSH2 0x1DBE JUMPI PUSH1 0x0 DUP1 SLOAD PUSH2 0xFF00 NOT AND PUSH2 0x100 OR SWAP1 SSTORE JUMPDEST PUSH1 0x40 DUP1 MLOAD DUP1 DUP3 ADD SWAP1 SWAP2 MSTORE PUSH1 0x3 DUP2 MSTORE PUSH3 0x31303 PUSH1 0xEC SHL PUSH1 0x20 DUP3 ADD MSTORE PUSH1 0x1 PUSH1 0x1 PUSH1 0xA0 SHL SUB DUP7 AND PUSH2 0x1DFF JUMPI PUSH1 0x40 MLOAD PUSH3 0x461BCD PUSH1 0xE5 SHL DUP2 MSTORE PUSH1 0x4 ADD PUSH2 0x991 SWAP2 SWAP1 PUSH2 0x4E62 JUMP JUMPDEST POP PUSH1 0x40 DUP1 MLOAD DUP1 DUP3 ADD SWAP1 SWAP2 MSTORE PUSH1 0x3 DUP2 MSTORE PUSH3 0x31303 PUSH1 0xEC SHL PUSH1 0x20 DUP3 ADD MSTORE PUSH1 0x1 PUSH1 0x1 PUSH1 0xA0 SHL SUB DUP6 AND PUSH2 0x1E41 JUMPI PUSH1 0x40 MLOAD PUSH3 0x461BCD PUSH1 0xE5 SHL DUP2 MSTORE PUSH1 0x4 ADD PUSH2 0x991 SWAP2 SWAP1 PUSH2 0x4E62 JUMP JUMPDEST POP PUSH2 0x1E4C DUP8 DUP8 PUSH2 0x3647 JUMP JUMPDEST PUSH2 0x167 DUP1 SLOAD PUSH1 0x1 PUSH1 0x1 PUSH1 0xA0 SHL SUB DUP7 DUP2 AND PUSH1 0x1 PUSH1 0x1 PUSH1 0xA0 SHL SUB NOT SWAP3 DUP4 AND OR SWAP1 SWAP3 SSTORE PUSH2 0x165 DUP1 SLOAD DUP9 DUP5 AND SWAP1 DUP4 AND OR SWAP1 SSTORE PUSH2 0x161 DUP1 SLOAD SWAP3 DUP7 AND SWAP3 SWAP1 SWAP2 AND SWAP2 SWAP1 SWAP2 OR SWAP1 SSTORE PUSH2 0x1E95 DUP3 PUSH2 0x236C JUMP JUMPDEST PUSH2 0x1E9D PUSH2 0x3678 JUMP JUMPDEST DUP1 ISZERO PUSH2 0x1EE3 JUMPI PUSH1 0x0 DUP1 SLOAD PUSH2 0xFF00 NOT AND SWAP1 SSTORE PUSH1 0x40 MLOAD PUSH1 0x1 DUP2 MSTORE PUSH32 0x7F26B83FF96E1F2B6A682F133852F6798A09C465DA95921460CEFB3847402498 SWAP1 PUSH1 0x20 ADD PUSH1 0x40 MLOAD DUP1 SWAP2 SUB SWAP1 LOG1 JUMPDEST POP POP POP POP POP POP POP JUMP JUMPDEST PUSH1 0x1 PUSH1 0x1 PUSH1 0xA0 SHL SUB SWAP2 DUP3 AND PUSH1 0x0 SWAP1 DUP2 MSTORE PUSH1 0x6A PUSH1 0x20 SWAP1 DUP2 MSTORE PUSH1 0x40 DUP1 DUP4 KECCAK256 SWAP4 SWAP1 SWAP5 AND DUP3 MSTORE SWAP2 SWAP1 SWAP2 MSTORE KECCAK256 SLOAD PUSH1 0xFF AND SWAP1 JUMP JUMPDEST PUSH1 0x2 PUSH1 0xFB SLOAD EQ ISZERO PUSH2 0x1F3D JUMPI PUSH1 0x40 MLOAD PUSH3 0x461BCD PUSH1 0xE5 SHL DUP2 MSTORE PUSH1 0x4 ADD PUSH2 0x991 SWAP1 PUSH2 0x54DB JUMP JUMPDEST PUSH1 0x2 PUSH1 0xFB SSTORE PUSH2 0x165 SLOAD PUSH1 0x40 DUP1 MLOAD DUP1 DUP3 ADD SWAP1 SWAP2 MSTORE PUSH1 0x3 DUP2 MSTORE PUSH3 0x313031 PUSH1 0xE8 SHL PUSH1 0x20 DUP3 ADD MSTORE SWAP1 PUSH1 0x1 PUSH1 0x1 PUSH1 0xA0 SHL SUB AND CALLER EQ PUSH2 0x1F89 JUMPI PUSH1 0x40 MLOAD PUSH3 0x461BCD PUSH1 0xE5 SHL DUP2 MSTORE PUSH1 0x4 ADD PUSH2 0x991 SWAP2 SWAP1 PUSH2 0x4E62 JUMP JUMPDEST POP PUSH2 0x1194 DUP2 GT DUP1 ISZERO PUSH2 0x1F9D JUMPI POP PUSH2 0x1388 DUP2 GT ISZERO JUMPDEST PUSH2 0x1FA6 JUMPI PUSH1 0x0 DUP1 REVERT JUMPDEST PUSH2 0x1FB0 CALLER DUP3 PUSH2 0x20FB JUMP JUMPDEST POP PUSH1 0x1 PUSH1 0xFB SSTORE JUMP JUMPDEST PUSH2 0x1FC0 PUSH2 0x238F JUMP JUMPDEST PUSH1 0x1 PUSH1 0x1 PUSH1 0xA0 SHL SUB DUP2 AND PUSH2 0x2025 JUMPI PUSH1 0x40 MLOAD PUSH3 0x461BCD PUSH1 0xE5 SHL DUP2 MSTORE PUSH1 0x20 PUSH1 0x4 DUP3 ADD MSTORE PUSH1 0x26 PUSH1 0x24 DUP3 ADD MSTORE PUSH32 0x4F776E61626C653A206E6577206F776E657220697320746865207A65726F2061 PUSH1 0x44 DUP3 ADD MSTORE PUSH6 0x646472657373 PUSH1 0xD0 SHL PUSH1 0x64 DUP3 ADD MSTORE PUSH1 0x84 ADD PUSH2 0x991 JUMP JUMPDEST PUSH2 0xFA3 DUP2 PUSH2 0x23EA JUMP JUMPDEST PUSH1 0x0 DUP2 DUP2 MSTORE PUSH1 0x67 PUSH1 0x20 MSTORE PUSH1 0x40 SWAP1 KECCAK256 SLOAD PUSH1 0x1 PUSH1 0x1 PUSH1 0xA0 SHL SUB AND PUSH2 0xFA3 JUMPI PUSH1 0x40 MLOAD PUSH3 0x461BCD PUSH1 0xE5 SHL DUP2 MSTORE PUSH1 0x20 PUSH1 0x4 DUP3 ADD MSTORE PUSH1 0x18 PUSH1 0x24 DUP3 ADD MSTORE PUSH24 0x115490CDCC8C4E881A5B9D985B1A59081D1BDAD95B881251 PUSH1 0x42 SHL PUSH1 0x44 DUP3 ADD MSTORE PUSH1 0x64 ADD PUSH2 0x991 JUMP JUMPDEST PUSH1 0x0 DUP2 DUP2 MSTORE PUSH1 0x69 PUSH1 0x20 MSTORE PUSH1 0x40 SWAP1 KECCAK256 DUP1 SLOAD PUSH1 0x1 PUSH1 0x1 PUSH1 0xA0 SHL SUB NOT AND PUSH1 0x1 PUSH1 0x1 PUSH1 0xA0 SHL SUB DUP5 AND SWAP1 DUP2 OR SWAP1 SWAP2 SSTORE DUP2 SWAP1 PUSH2 0x20C2 DUP3 PUSH2 0xFA6 JUMP JUMPDEST PUSH1 0x1 PUSH1 0x1 PUSH1 0xA0 SHL SUB AND PUSH32 0x8C5BE1E5EBEC7D5BD14F71427D1E84F3DD0314C0F7B2291E5B200AC8C7C3B925 PUSH1 0x40 MLOAD PUSH1 0x40 MLOAD DUP1 SWAP2 SUB SWAP1 LOG4 POP POP JUMP JUMPDEST PUSH2 0x9AF DUP3 DUP3 PUSH1 0x40 MLOAD DUP1 PUSH1 0x20 ADD PUSH1 0x40 MSTORE DUP1 PUSH1 0x0 DUP2 MSTORE POP PUSH2 0x40D4 JUMP JUMPDEST PUSH1 0x0 DUP1 PUSH2 0x2121 DUP4 PUSH2 0xFA6 JUMP JUMPDEST SWAP1 POP DUP1 PUSH1 0x1 PUSH1 0x1 PUSH1 0xA0 SHL SUB AND DUP5 PUSH1 0x1 PUSH1 0x1 PUSH1 0xA0 SHL SUB AND EQ DUP1 PUSH2 0x2148 JUMPI POP PUSH2 0x2148 DUP2 DUP6 PUSH2 0x1EEC JUMP JUMPDEST DUP1 PUSH2 0x1CF6 JUMPI POP DUP4 PUSH1 0x1 PUSH1 0x1 PUSH1 0xA0 SHL SUB AND PUSH2 0x2161 DUP5 PUSH2 0x9B3 JUMP JUMPDEST PUSH1 0x1 PUSH1 0x1 PUSH1 0xA0 SHL SUB AND EQ SWAP5 SWAP4 POP POP POP POP JUMP JUMPDEST DUP3 PUSH1 0x1 PUSH1 0x1 PUSH1 0xA0 SHL SUB AND PUSH2 0x2186 DUP3 PUSH2 0xFA6 JUMP JUMPDEST PUSH1 0x1 PUSH1 0x1 PUSH1 0xA0 SHL SUB AND EQ PUSH2 0x21EA JUMPI PUSH1 0x40 MLOAD PUSH3 0x461BCD PUSH1 0xE5 SHL DUP2 MSTORE PUSH1 0x20 PUSH1 0x4 DUP3 ADD MSTORE PUSH1 0x25 PUSH1 0x24 DUP3 ADD MSTORE PUSH32 0x4552433732313A207472616E736665722066726F6D20696E636F727265637420 PUSH1 0x44 DUP3 ADD MSTORE PUSH5 0x37BBB732B9 PUSH1 0xD9 SHL PUSH1 0x64 DUP3 ADD MSTORE PUSH1 0x84 ADD PUSH2 0x991 JUMP JUMPDEST PUSH1 0x1 PUSH1 0x1 PUSH1 0xA0 SHL SUB DUP3 AND PUSH2 0x224C JUMPI PUSH1 0x40 MLOAD PUSH3 0x461BCD PUSH1 0xE5 SHL DUP2 MSTORE PUSH1 0x20 PUSH1 0x4 DUP3 ADD MSTORE PUSH1 0x24 DUP1 DUP3 ADD MSTORE PUSH32 0x4552433732313A207472616E7366657220746F20746865207A65726F20616464 PUSH1 0x44 DUP3 ADD MSTORE PUSH4 0x72657373 PUSH1 0xE0 SHL PUSH1 0x64 DUP3 ADD MSTORE PUSH1 0x84 ADD PUSH2 0x991 JUMP JUMPDEST PUSH2 0x2257 DUP4 DUP4 DUP4 PUSH2 0x4107 JUMP JUMPDEST PUSH2 0x2262 PUSH1 0x0 DUP3 PUSH2 0x208D JUMP JUMPDEST PUSH1 0x1 PUSH1 0x1 PUSH1 0xA0 SHL SUB DUP4 AND PUSH1 0x0 SWAP1 DUP2 MSTORE PUSH1 0x68 PUSH1 0x20 MSTORE PUSH1 0x40 DUP2 KECCAK256 DUP1 SLOAD PUSH1 0x1 SWAP3 SWAP1 PUSH2 0x228B SWAP1 DUP5 SWAP1 PUSH2 0x55DA JUMP JUMPDEST SWAP1 SWAP2 SSTORE POP POP PUSH1 0x1 PUSH1 0x1 PUSH1 0xA0 SHL SUB DUP3 AND PUSH1 0x0 SWAP1 DUP2 MSTORE PUSH1 0x68 PUSH1 0x20 MSTORE PUSH1 0x40 DUP2 KECCAK256 DUP1 SLOAD PUSH1 0x1 SWAP3 SWAP1 PUSH2 0x22B9 SWAP1 DUP5 SWAP1 PUSH2 0x569C JUMP JUMPDEST SWAP1 SWAP2 SSTORE POP POP PUSH1 0x0 DUP2 DUP2 MSTORE PUSH1 0x67 PUSH1 0x20 MSTORE PUSH1 0x40 DUP1 DUP3 KECCAK256 DUP1 SLOAD PUSH1 0x1 PUSH1 0x1 PUSH1 0xA0 SHL SUB NOT AND PUSH1 0x1 PUSH1 0x1 PUSH1 0xA0 SHL SUB DUP7 DUP2 AND SWAP2 DUP3 OR SWAP1 SWAP3 SSTORE SWAP2 MLOAD DUP5 SWAP4 SWAP2 DUP8 AND SWAP2 PUSH32 0xDDF252AD1BE2C89B69C2B068FC378DAA952BA7F163C4A11628F55A4DF523B3EF SWAP2 LOG4 POP POP POP JUMP JUMPDEST PUSH2 0x2322 PUSH2 0x416E JUMP JUMPDEST PUSH1 0x97 DUP1 SLOAD PUSH1 0xFF NOT AND SWAP1 SSTORE PUSH32 0x5DB9EE0A495BF2E6FF9C91A7834C1BA4FDD244A5E8AA4E537BD38AEAE4B073AA CALLER JUMPDEST PUSH1 0x40 MLOAD PUSH1 0x1 PUSH1 0x1 PUSH1 0xA0 SHL SUB SWAP1 SWAP2 AND DUP2 MSTORE PUSH1 0x20 ADD PUSH1 0x40 MLOAD DUP1 SWAP2 SUB SWAP1 LOG1 JUMP JUMPDEST PUSH2 0x162 DUP1 SLOAD PUSH1 0x1 PUSH1 0x1 PUSH1 0xA0 SHL SUB NOT AND PUSH1 0x1 PUSH1 0x1 PUSH1 0xA0 SHL SUB SWAP3 SWAP1 SWAP3 AND SWAP2 SWAP1 SWAP2 OR SWAP1 SSTORE JUMP JUMPDEST PUSH2 0x12D SLOAD PUSH1 0x1 PUSH1 0x1 PUSH1 0xA0 SHL SUB AND CALLER EQ PUSH2 0xF35 JUMPI PUSH1 0x40 MLOAD PUSH3 0x461BCD PUSH1 0xE5 SHL DUP2 MSTORE PUSH1 0x20 PUSH1 0x4 DUP3 ADD DUP2 SWAP1 MSTORE PUSH1 0x24 DUP3 ADD MSTORE PUSH32 0x4F776E61626C653A2063616C6C6572206973206E6F7420746865206F776E6572 PUSH1 0x44 DUP3 ADD MSTORE PUSH1 0x64 ADD PUSH2 0x991 JUMP JUMPDEST PUSH2 0x12D DUP1 SLOAD PUSH1 0x1 PUSH1 0x1 PUSH1 0xA0 SHL SUB DUP4 DUP2 AND PUSH1 0x1 PUSH1 0x1 PUSH1 0xA0 SHL SUB NOT DUP4 AND DUP2 OR SWAP1 SWAP4 SSTORE PUSH1 0x40 MLOAD SWAP2 AND SWAP2 SWAP1 DUP3 SWAP1 PUSH32 0x8BE0079C531659141344CD1FD0A4F28419497F9722A3DAAFE3B4186F6B6457E0 SWAP1 PUSH1 0x0 SWAP1 LOG3 POP POP JUMP JUMPDEST PUSH1 0x0 DUP2 PUSH2 0x2449 DUP5 PUSH2 0x34EC JUMP JUMPDEST PUSH1 0x40 MLOAD PUSH1 0x20 ADD PUSH2 0x245A SWAP3 SWAP2 SWAP1 PUSH2 0x566D JUMP JUMPDEST PUSH1 0x40 DUP1 MLOAD PUSH1 0x1F NOT DUP2 DUP5 SUB ADD DUP2 MSTORE SWAP2 SWAP1 MSTORE DUP1 MLOAD PUSH1 0x20 SWAP1 SWAP2 ADD KECCAK256 SWAP4 SWAP3 POP POP POP JUMP JUMPDEST PUSH2 0x2481 PUSH2 0x41B7 JUMP JUMPDEST PUSH1 0x97 DUP1 SLOAD PUSH1 0xFF NOT AND PUSH1 0x1 OR SWAP1 SSTORE PUSH32 0x62E78CEA01BEE320CD4E420270B5EA74000D11B0C9F74754EBDBFC544B05A258 PUSH2 0x234F CALLER SWAP1 JUMP JUMPDEST DUP2 PUSH1 0x1 PUSH1 0x1 PUSH1 0xA0 SHL SUB AND DUP4 PUSH1 0x1 PUSH1 0x1 PUSH1 0xA0 SHL SUB AND EQ ISZERO PUSH2 0x2518 JUMPI PUSH1 0x40 MLOAD PUSH3 0x461BCD PUSH1 0xE5 SHL DUP2 MSTORE PUSH1 0x20 PUSH1 0x4 DUP3 ADD MSTORE PUSH1 0x19 PUSH1 0x24 DUP3 ADD MSTORE PUSH32 0x4552433732313A20617070726F766520746F2063616C6C657200000000000000 PUSH1 0x44 DUP3 ADD MSTORE PUSH1 0x64 ADD PUSH2 0x991 JUMP JUMPDEST PUSH1 0x1 PUSH1 0x1 PUSH1 0xA0 SHL SUB DUP4 DUP2 AND PUSH1 0x0 DUP2 DUP2 MSTORE PUSH1 0x6A PUSH1 0x20 SWAP1 DUP2 MSTORE PUSH1 0x40 DUP1 DUP4 KECCAK256 SWAP5 DUP8 AND DUP1 DUP5 MSTORE SWAP5 DUP3 MSTORE SWAP2 DUP3 SWAP1 KECCAK256 DUP1 SLOAD PUSH1 0xFF NOT AND DUP7 ISZERO ISZERO SWAP1 DUP2 OR SWAP1 SWAP2 SSTORE SWAP2 MLOAD SWAP2 DUP3 MSTORE PUSH32 0x17307EAB39AB6107E8899845AD3D59BD9653F200F220920489CA2B5937696C31 SWAP2 ADD PUSH1 0x40 MLOAD DUP1 SWAP2 SUB SWAP1 LOG3 POP POP POP JUMP JUMPDEST PUSH2 0x2590 DUP5 DUP5 DUP5 PUSH2 0x2173 JUMP JUMPDEST PUSH2 0x259C DUP5 DUP5 DUP5 DUP5 PUSH2 0x41FD JUMP JUMPDEST PUSH2 0x1774 JUMPI PUSH1 0x40 MLOAD PUSH3 0x461BCD PUSH1 0xE5 SHL DUP2 MSTORE PUSH1 0x4 ADD PUSH2 0x991 SWAP1 PUSH2 0x56B4 JUMP JUMPDEST PUSH1 0x60 PUSH2 0x8B2 DUP3 PUSH1 0x40 MLOAD DUP1 PUSH1 0x40 ADD PUSH1 0x40 MSTORE DUP1 PUSH1 0x6 DUP2 MSTORE PUSH1 0x20 ADD PUSH6 0x3730BA34B7B7 PUSH1 0xD1 SHL DUP2 MSTORE POP PUSH2 0x170 DUP1 SLOAD DUP1 PUSH1 0x20 MUL PUSH1 0x20 ADD PUSH1 0x40 MLOAD SWAP1 DUP2 ADD PUSH1 0x40 MSTORE DUP1 SWAP3 SWAP2 SWAP1 DUP2 DUP2 MSTORE PUSH1 0x20 ADD PUSH1 0x0 SWAP1 JUMPDEST DUP3 DUP3 LT ISZERO PUSH2 0x26AC JUMPI DUP4 DUP3 SWAP1 PUSH1 0x0 MSTORE PUSH1 0x20 PUSH1 0x0 KECCAK256 ADD DUP1 SLOAD PUSH2 0x261F SWAP1 PUSH2 0x54A6 JUMP JUMPDEST DUP1 PUSH1 0x1F ADD PUSH1 0x20 DUP1 SWAP2 DIV MUL PUSH1 0x20 ADD PUSH1 0x40 MLOAD SWAP1 DUP2 ADD PUSH1 0x40 MSTORE DUP1 SWAP3 SWAP2 SWAP1 DUP2 DUP2 MSTORE PUSH1 0x20 ADD DUP3 DUP1 SLOAD PUSH2 0x264B SWAP1 PUSH2 0x54A6 JUMP JUMPDEST DUP1 ISZERO PUSH2 0x2698 JUMPI DUP1 PUSH1 0x1F LT PUSH2 0x266D JUMPI PUSH2 0x100 DUP1 DUP4 SLOAD DIV MUL DUP4 MSTORE SWAP2 PUSH1 0x20 ADD SWAP2 PUSH2 0x2698 JUMP JUMPDEST DUP3 ADD SWAP2 SWAP1 PUSH1 0x0 MSTORE PUSH1 0x20 PUSH1 0x0 KECCAK256 SWAP1 JUMPDEST DUP2 SLOAD DUP2 MSTORE SWAP1 PUSH1 0x1 ADD SWAP1 PUSH1 0x20 ADD DUP1 DUP4 GT PUSH2 0x267B JUMPI DUP3 SWAP1 SUB PUSH1 0x1F AND DUP3 ADD SWAP2 JUMPDEST POP POP POP POP POP DUP2 MSTORE PUSH1 0x20 ADD SWAP1 PUSH1 0x1 ADD SWAP1 PUSH2 0x2600 JUMP JUMPDEST POP POP POP POP PUSH2 0x42F8 JUMP JUMPDEST PUSH1 0x60 PUSH2 0x8B2 DUP3 PUSH1 0x40 MLOAD DUP1 PUSH1 0x40 ADD PUSH1 0x40 MSTORE DUP1 PUSH1 0xB DUP2 MSTORE PUSH1 0x20 ADD PUSH11 0x656D6F74696F6E54696D65 PUSH1 0xA8 SHL DUP2 MSTORE POP PUSH2 0x172 DUP1 SLOAD DUP1 PUSH1 0x20 MUL PUSH1 0x20 ADD PUSH1 0x40 MLOAD SWAP1 DUP2 ADD PUSH1 0x40 MSTORE DUP1 SWAP3 SWAP2 SWAP1 DUP2 DUP2 MSTORE PUSH1 0x20 ADD PUSH1 0x0 SWAP1 JUMPDEST DUP3 DUP3 LT ISZERO PUSH2 0x26AC JUMPI DUP4 DUP3 SWAP1 PUSH1 0x0 MSTORE PUSH1 0x20 PUSH1 0x0 KECCAK256 ADD DUP1 SLOAD PUSH2 0x2721 SWAP1 PUSH2 0x54A6 JUMP JUMPDEST DUP1 PUSH1 0x1F ADD PUSH1 0x20 DUP1 SWAP2 DIV MUL PUSH1 0x20 ADD PUSH1 0x40 MLOAD SWAP1 DUP2 ADD PUSH1 0x40 MSTORE DUP1 SWAP3 SWAP2 SWAP1 DUP2 DUP2 MSTORE PUSH1 0x20 ADD DUP3 DUP1 SLOAD PUSH2 0x274D SWAP1 PUSH2 0x54A6 JUMP JUMPDEST DUP1 ISZERO PUSH2 0x279A JUMPI DUP1 PUSH1 0x1F LT PUSH2 0x276F JUMPI PUSH2 0x100 DUP1 DUP4 SLOAD DIV MUL DUP4 MSTORE SWAP2 PUSH1 0x20 ADD SWAP2 PUSH2 0x279A JUMP JUMPDEST DUP3 ADD SWAP2 SWAP1 PUSH1 0x0 MSTORE PUSH1 0x20 PUSH1 0x0 KECCAK256 SWAP1 JUMPDEST DUP2 SLOAD DUP2 MSTORE SWAP1 PUSH1 0x1 ADD SWAP1 PUSH1 0x20 ADD DUP1 DUP4 GT PUSH2 0x277D JUMPI DUP3 SWAP1 SUB PUSH1 0x1F AND DUP3 ADD SWAP2 JUMPDEST POP POP POP POP POP DUP2 MSTORE PUSH1 0x20 ADD SWAP1 PUSH1 0x1 ADD SWAP1 PUSH2 0x2702 JUMP JUMPDEST PUSH1 0x0 DUP2 PUSH1 0x40 MLOAD PUSH1 0x20 ADD PUSH2 0x27C1 SWAP2 SWAP1 PUSH2 0x5651 JUMP JUMPDEST PUSH1 0x40 MLOAD PUSH1 0x20 DUP2 DUP4 SUB SUB DUP2 MSTORE SWAP1 PUSH1 0x40 MSTORE DUP1 MLOAD SWAP1 PUSH1 0x20 ADD KECCAK256 DUP4 PUSH1 0x40 MLOAD PUSH1 0x20 ADD PUSH2 0x27E8 SWAP2 SWAP1 PUSH2 0x5651 JUMP JUMPDEST PUSH1 0x40 MLOAD PUSH1 0x20 DUP2 DUP4 SUB SUB DUP2 MSTORE SWAP1 PUSH1 0x40 MSTORE DUP1 MLOAD SWAP1 PUSH1 0x20 ADD KECCAK256 EQ SWAP1 POP SWAP3 SWAP2 POP POP JUMP JUMPDEST PUSH1 0x60 PUSH2 0x8B2 DUP3 PUSH1 0x40 MLOAD DUP1 PUSH1 0x40 ADD PUSH1 0x40 MSTORE DUP1 PUSH1 0x3 DUP2 MSTORE PUSH1 0x20 ADD PUSH3 0x646E61 PUSH1 0xE8 SHL DUP2 MSTORE POP PUSH2 0x173 DUP1 SLOAD DUP1 PUSH1 0x20 MUL PUSH1 0x20 ADD PUSH1 0x40 MLOAD SWAP1 DUP2 ADD PUSH1 0x40 MSTORE DUP1 SWAP3 SWAP2 SWAP1 DUP2 DUP2 MSTORE PUSH1 0x20 ADD PUSH1 0x0 SWAP1 JUMPDEST DUP3 DUP3 LT ISZERO PUSH2 0x26AC JUMPI DUP4 DUP3 SWAP1 PUSH1 0x0 MSTORE PUSH1 0x20 PUSH1 0x0 KECCAK256 ADD DUP1 SLOAD PUSH2 0x286B SWAP1 PUSH2 0x54A6 JUMP JUMPDEST DUP1 PUSH1 0x1F ADD PUSH1 0x20 DUP1 SWAP2 DIV MUL PUSH1 0x20 ADD PUSH1 0x40 MLOAD SWAP1 DUP2 ADD PUSH1 0x40 MSTORE DUP1 SWAP3 SWAP2 SWAP1 DUP2 DUP2 MSTORE PUSH1 0x20 ADD DUP3 DUP1 SLOAD PUSH2 0x2897 SWAP1 PUSH2 0x54A6 JUMP JUMPDEST DUP1 ISZERO PUSH2 0x28E4 JUMPI DUP1 PUSH1 0x1F LT PUSH2 0x28B9 JUMPI PUSH2 0x100 DUP1 DUP4 SLOAD DIV MUL DUP4 MSTORE SWAP2 PUSH1 0x20 ADD SWAP2 PUSH2 0x28E4 JUMP JUMPDEST DUP3 ADD SWAP2 SWAP1 PUSH1 0x0 MSTORE PUSH1 0x20 PUSH1 0x0 KECCAK256 SWAP1 JUMPDEST DUP2 SLOAD DUP2 MSTORE SWAP1 PUSH1 0x1 ADD SWAP1 PUSH1 0x20 ADD DUP1 DUP4 GT PUSH2 0x28C7 JUMPI DUP3 SWAP1 SUB PUSH1 0x1F AND DUP3 ADD SWAP2 JUMPDEST POP POP POP POP POP DUP2 MSTORE PUSH1 0x20 ADD SWAP1 PUSH1 0x1 ADD SWAP1 PUSH2 0x284C JUMP JUMPDEST PUSH1 0x60 PUSH1 0x0 PUSH2 0x2905 DUP4 PUSH2 0x2807 JUMP JUMPDEST SWAP1 POP PUSH2 0x2920 DUP2 PUSH2 0x173 PUSH1 0x2 DUP2 SLOAD DUP2 LT PUSH2 0x18CC JUMPI PUSH2 0x18CC PUSH2 0x55F1 JUMP JUMPDEST DUP1 PUSH2 0x293F JUMPI POP PUSH2 0x293F DUP2 PUSH2 0x173 PUSH1 0x3 DUP2 SLOAD DUP2 LT PUSH2 0x18CC JUMPI PUSH2 0x18CC PUSH2 0x55F1 JUMP JUMPDEST DUP1 PUSH2 0x295E JUMPI POP PUSH2 0x295E DUP2 PUSH2 0x173 PUSH1 0x4 DUP2 SLOAD DUP2 LT PUSH2 0x18CC JUMPI PUSH2 0x18CC PUSH2 0x55F1 JUMP JUMPDEST DUP1 PUSH2 0x297D JUMPI POP PUSH2 0x297D DUP2 PUSH2 0x173 PUSH1 0x5 DUP2 SLOAD DUP2 LT PUSH2 0x18CC JUMPI PUSH2 0x18CC PUSH2 0x55F1 JUMP JUMPDEST ISZERO PUSH2 0x29A4 JUMPI POP POP PUSH1 0x40 DUP1 MLOAD DUP1 DUP3 ADD SWAP1 SWAP2 MSTORE PUSH1 0x4 DUP2 MSTORE PUSH4 0x6E6F6E65 PUSH1 0xE0 SHL PUSH1 0x20 DUP3 ADD MSTORE SWAP2 SWAP1 POP JUMP JUMPDEST PUSH2 0x1C1A DUP4 PUSH1 0x40 MLOAD DUP1 PUSH1 0x40 ADD PUSH1 0x40 MSTORE DUP1 PUSH1 0x4 DUP2 MSTORE PUSH1 0x20 ADD PUSH4 0x39B5B4B7 PUSH1 0xE1 SHL DUP2 MSTORE POP PUSH2 0x174 DUP1 SLOAD DUP1 PUSH1 0x20 MUL PUSH1 0x20 ADD PUSH1 0x40 MLOAD SWAP1 DUP2 ADD PUSH1 0x40 MSTORE DUP1 SWAP3 SWAP2 SWAP1 DUP2 DUP2 MSTORE PUSH1 0x20 ADD PUSH1 0x0 SWAP1 JUMPDEST DUP3 DUP3 LT ISZERO PUSH2 0x26AC JUMPI DUP4 DUP3 SWAP1 PUSH1 0x0 MSTORE PUSH1 0x20 PUSH1 0x0 KECCAK256 ADD DUP1 SLOAD PUSH2 0x2A07 SWAP1 PUSH2 0x54A6 JUMP JUMPDEST DUP1 PUSH1 0x1F ADD PUSH1 0x20 DUP1 SWAP2 DIV MUL PUSH1 0x20 ADD PUSH1 0x40 MLOAD SWAP1 DUP2 ADD PUSH1 0x40 MSTORE DUP1 SWAP3 SWAP2 SWAP1 DUP2 DUP2 MSTORE PUSH1 0x20 ADD DUP3 DUP1 SLOAD PUSH2 0x2A33 SWAP1 PUSH2 0x54A6 JUMP JUMPDEST DUP1 ISZERO PUSH2 0x2A80 JUMPI DUP1 PUSH1 0x1F LT PUSH2 0x2A55 JUMPI PUSH2 0x100 DUP1 DUP4 SLOAD DIV MUL DUP4 MSTORE SWAP2 PUSH1 0x20 ADD SWAP2 PUSH2 0x2A80 JUMP JUMPDEST DUP3 ADD SWAP2 SWAP1 PUSH1 0x0 MSTORE PUSH1 0x20 PUSH1 0x0 KECCAK256 SWAP1 JUMPDEST DUP2 SLOAD DUP2 MSTORE SWAP1 PUSH1 0x1 ADD SWAP1 PUSH1 0x20 ADD DUP1 DUP4 GT PUSH2 0x2A63 JUMPI DUP3 SWAP1 SUB PUSH1 0x1F AND DUP3 ADD SWAP2 JUMPDEST POP POP POP POP POP DUP2 MSTORE PUSH1 0x20 ADD SWAP1 PUSH1 0x1 ADD SWAP1 PUSH2 0x29E8 JUMP JUMPDEST PUSH1 0x60 PUSH1 0x0 PUSH2 0x2AA1 DUP4 PUSH2 0x2807 JUMP JUMPDEST SWAP1 POP PUSH2 0x2ABC DUP2 PUSH2 0x173 PUSH1 0x1 DUP2 SLOAD DUP2 LT PUSH2 0x18CC JUMPI PUSH2 0x18CC PUSH2 0x55F1 JUMP JUMPDEST DUP1 PUSH2 0x2ADB JUMPI POP PUSH2 0x2ADB DUP2 PUSH2 0x173 PUSH1 0x2 DUP2 SLOAD DUP2 LT PUSH2 0x18CC JUMPI PUSH2 0x18CC PUSH2 0x55F1 JUMP JUMPDEST DUP1 PUSH2 0x2AFA JUMPI POP PUSH2 0x2AFA DUP2 PUSH2 0x173 PUSH1 0x3 DUP2 SLOAD DUP2 LT PUSH2 0x18CC JUMPI PUSH2 0x18CC PUSH2 0x55F1 JUMP JUMPDEST DUP1 PUSH2 0x2B19 JUMPI POP PUSH2 0x2B19 DUP2 PUSH2 0x173 PUSH1 0x4 DUP2 SLOAD DUP2 LT PUSH2 0x18CC JUMPI PUSH2 0x18CC PUSH2 0x55F1 JUMP JUMPDEST DUP1 PUSH2 0x2B38 JUMPI POP PUSH2 0x2B38 DUP2 PUSH2 0x173 PUSH1 0x5 DUP2 SLOAD DUP2 LT PUSH2 0x18CC JUMPI PUSH2 0x18CC PUSH2 0x55F1 JUMP JUMPDEST ISZERO PUSH2 0x2B5F JUMPI POP POP PUSH1 0x40 DUP1 MLOAD DUP1 DUP3 ADD SWAP1 SWAP2 MSTORE PUSH1 0x4 DUP2 MSTORE PUSH4 0x6E6F6E65 PUSH1 0xE0 SHL PUSH1 0x20 DUP3 ADD MSTORE SWAP2 SWAP1 POP JUMP JUMPDEST PUSH2 0x1C1A DUP4 PUSH1 0x40 MLOAD DUP1 PUSH1 0x40 ADD PUSH1 0x40 MSTORE DUP1 PUSH1 0x5 DUP2 MSTORE PUSH1 0x20 ADD PUSH5 0x1899585C99 PUSH1 0xDA SHL DUP2 MSTORE POP PUSH2 0x175 DUP1 SLOAD DUP1 PUSH1 0x20 MUL PUSH1 0x20 ADD PUSH1 0x40 MLOAD SWAP1 DUP2 ADD PUSH1 0x40 MSTORE DUP1 SWAP3 SWAP2 SWAP1 DUP2 DUP2 MSTORE PUSH1 0x20 ADD PUSH1 0x0 SWAP1 JUMPDEST DUP3 DUP3 LT ISZERO PUSH2 0x26AC JUMPI DUP4 DUP3 SWAP1 PUSH1 0x0 MSTORE PUSH1 0x20 PUSH1 0x0 KECCAK256 ADD DUP1 SLOAD PUSH2 0x2BC3 SWAP1 PUSH2 0x54A6 JUMP JUMPDEST DUP1 PUSH1 0x1F ADD PUSH1 0x20 DUP1 SWAP2 DIV MUL PUSH1 0x20 ADD PUSH1 0x40 MLOAD SWAP1 DUP2 ADD PUSH1 0x40 MSTORE DUP1 SWAP3 SWAP2 SWAP1 DUP2 DUP2 MSTORE PUSH1 0x20 ADD DUP3 DUP1 SLOAD PUSH2 0x2BEF SWAP1 PUSH2 0x54A6 JUMP JUMPDEST DUP1 ISZERO PUSH2 0x2C3C JUMPI DUP1 PUSH1 0x1F LT PUSH2 0x2C11 JUMPI PUSH2 0x100 DUP1 DUP4 SLOAD DIV MUL DUP4 MSTORE SWAP2 PUSH1 0x20 ADD SWAP2 PUSH2 0x2C3C JUMP JUMPDEST DUP3 ADD SWAP2 SWAP1 PUSH1 0x0 MSTORE PUSH1 0x20 PUSH1 0x0 KECCAK256 SWAP1 JUMPDEST DUP2 SLOAD DUP2 MSTORE SWAP1 PUSH1 0x1 ADD SWAP1 PUSH1 0x20 ADD DUP1 DUP4 GT PUSH2 0x2C1F JUMPI DUP3 SWAP1 SUB PUSH1 0x1F AND DUP3 ADD SWAP2 JUMPDEST POP POP POP POP POP DUP2 MSTORE PUSH1 0x20 ADD SWAP1 PUSH1 0x1 ADD SWAP1 PUSH2 0x2BA4 JUMP JUMPDEST PUSH1 0x60 PUSH1 0x0 PUSH2 0x2C5D DUP4 PUSH2 0x2807 JUMP JUMPDEST SWAP1 POP PUSH2 0x2C78 DUP2 PUSH2 0x173 PUSH1 0x2 DUP2 SLOAD DUP2 LT PUSH2 0x18CC JUMPI PUSH2 0x18CC PUSH2 0x55F1 JUMP JUMPDEST DUP1 PUSH2 0x2C97 JUMPI POP PUSH2 0x2C97 DUP2 PUSH2 0x173 PUSH1 0x3 DUP2 SLOAD DUP2 LT PUSH2 0x18CC JUMPI PUSH2 0x18CC PUSH2 0x55F1 JUMP JUMPDEST DUP1 PUSH2 0x2CB6 JUMPI POP PUSH2 0x2CB6 DUP2 PUSH2 0x173 PUSH1 0x4 DUP2 SLOAD DUP2 LT PUSH2 0x18CC JUMPI PUSH2 0x18CC PUSH2 0x55F1 JUMP JUMPDEST DUP1 PUSH2 0x2CD5 JUMPI POP PUSH2 0x2CD5 DUP2 PUSH2 0x173 PUSH1 0x5 DUP2 SLOAD DUP2 LT PUSH2 0x18CC JUMPI PUSH2 0x18CC PUSH2 0x55F1 JUMP JUMPDEST ISZERO PUSH2 0x2CFC JUMPI POP POP PUSH1 0x40 DUP1 MLOAD DUP1 DUP3 ADD SWAP1 SWAP2 MSTORE PUSH1 0x4 DUP2 MSTORE PUSH4 0x6E6F6E65 PUSH1 0xE0 SHL PUSH1 0x20 DUP3 ADD MSTORE SWAP2 SWAP1 POP JUMP JUMPDEST PUSH2 0x2D15 DUP2 PUSH2 0x173 PUSH1 0x1 DUP2 SLOAD DUP2 LT PUSH2 0x18CC JUMPI PUSH2 0x18CC PUSH2 0x55F1 JUMP JUMPDEST ISZERO PUSH2 0x2E0A JUMPI PUSH2 0x1C1A DUP4 PUSH1 0x40 MLOAD DUP1 PUSH1 0x40 ADD PUSH1 0x40 MSTORE DUP1 PUSH1 0x4 DUP2 MSTORE PUSH1 0x20 ADD PUSH4 0x3430B4B9 PUSH1 0xE1 SHL DUP2 MSTORE POP PUSH2 0x177 DUP1 SLOAD DUP1 PUSH1 0x20 MUL PUSH1 0x20 ADD PUSH1 0x40 MLOAD SWAP1 DUP2 ADD PUSH1 0x40 MSTORE DUP1 SWAP3 SWAP2 SWAP1 DUP2 DUP2 MSTORE PUSH1 0x20 ADD PUSH1 0x0 SWAP1 JUMPDEST DUP3 DUP3 LT ISZERO PUSH2 0x26AC JUMPI DUP4 DUP3 SWAP1 PUSH1 0x0 MSTORE PUSH1 0x20 PUSH1 0x0 KECCAK256 ADD DUP1 SLOAD PUSH2 0x2D7D SWAP1 PUSH2 0x54A6 JUMP JUMPDEST DUP1 PUSH1 0x1F ADD PUSH1 0x20 DUP1 SWAP2 DIV MUL PUSH1 0x20 ADD PUSH1 0x40 MLOAD SWAP1 DUP2 ADD PUSH1 0x40 MSTORE DUP1 SWAP3 SWAP2 SWAP1 DUP2 DUP2 MSTORE PUSH1 0x20 ADD DUP3 DUP1 SLOAD PUSH2 0x2DA9 SWAP1 PUSH2 0x54A6 JUMP JUMPDEST DUP1 ISZERO PUSH2 0x2DF6 JUMPI DUP1 PUSH1 0x1F LT PUSH2 0x2DCB JUMPI PUSH2 0x100 DUP1 DUP4 SLOAD DIV MUL DUP4 MSTORE SWAP2 PUSH1 0x20 ADD SWAP2 PUSH2 0x2DF6 JUMP JUMPDEST DUP3 ADD SWAP2 SWAP1 PUSH1 0x0 MSTORE PUSH1 0x20 PUSH1 0x0 KECCAK256 SWAP1 JUMPDEST DUP2 SLOAD DUP2 MSTORE SWAP1 PUSH1 0x1 ADD SWAP1 PUSH1 0x20 ADD DUP1 DUP4 GT PUSH2 0x2DD9 JUMPI DUP3 SWAP1 SUB PUSH1 0x1F AND DUP3 ADD SWAP2 JUMPDEST POP POP POP POP POP DUP2 MSTORE PUSH1 0x20 ADD SWAP1 PUSH1 0x1 ADD SWAP1 PUSH2 0x2D5E JUMP JUMPDEST PUSH2 0x1C1A DUP4 PUSH1 0x40 MLOAD DUP1 PUSH1 0x40 ADD PUSH1 0x40 MSTORE DUP1 PUSH1 0x4 DUP2 MSTORE PUSH1 0x20 ADD PUSH4 0x3430B4B9 PUSH1 0xE1 SHL DUP2 MSTORE POP PUSH2 0x176 DUP1 SLOAD DUP1 PUSH1 0x20 MUL PUSH1 0x20 ADD PUSH1 0x40 MLOAD SWAP1 DUP2 ADD PUSH1 0x40 MSTORE DUP1 SWAP3 SWAP2 SWAP1 DUP2 DUP2 MSTORE PUSH1 0x20 ADD PUSH1 0x0 SWAP1 JUMPDEST DUP3 DUP3 LT ISZERO PUSH2 0x26AC JUMPI DUP4 DUP3 SWAP1 PUSH1 0x0 MSTORE PUSH1 0x20 PUSH1 0x0 KECCAK256 ADD DUP1 SLOAD PUSH2 0x2E6D SWAP1 PUSH2 0x54A6 JUMP JUMPDEST DUP1 PUSH1 0x1F ADD PUSH1 0x20 DUP1 SWAP2 DIV MUL PUSH1 0x20 ADD PUSH1 0x40 MLOAD SWAP1 DUP2 ADD PUSH1 0x40 MSTORE DUP1 SWAP3 SWAP2 SWAP1 DUP2 DUP2 MSTORE PUSH1 0x20 ADD DUP3 DUP1 SLOAD PUSH2 0x2E99 SWAP1 PUSH2 0x54A6 JUMP JUMPDEST DUP1 ISZERO PUSH2 0x2EE6 JUMPI DUP1 PUSH1 0x1F LT PUSH2 0x2EBB JUMPI PUSH2 0x100 DUP1 DUP4 SLOAD DIV MUL DUP4 MSTORE SWAP2 PUSH1 0x20 ADD SWAP2 PUSH2 0x2EE6 JUMP JUMPDEST DUP3 ADD SWAP2 SWAP1 PUSH1 0x0 MSTORE PUSH1 0x20 PUSH1 0x0 KECCAK256 SWAP1 JUMPDEST DUP2 SLOAD DUP2 MSTORE SWAP1 PUSH1 0x1 ADD SWAP1 PUSH1 0x20 ADD DUP1 DUP4 GT PUSH2 0x2EC9 JUMPI DUP3 SWAP1 SUB PUSH1 0x1F AND DUP3 ADD SWAP2 JUMPDEST POP POP POP POP POP DUP2 MSTORE PUSH1 0x20 ADD SWAP1 PUSH1 0x1 ADD SWAP1 PUSH2 0x2E4E JUMP JUMPDEST PUSH1 0x60 PUSH2 0x8B2 DUP3 PUSH1 0x40 MLOAD DUP1 PUSH1 0x40 ADD PUSH1 0x40 MSTORE DUP1 PUSH1 0x4 DUP2 MSTORE PUSH1 0x20 ADD PUSH4 0x73686F65 PUSH1 0xE0 SHL DUP2 MSTORE POP PUSH2 0x17A DUP1 SLOAD DUP1 PUSH1 0x20 MUL PUSH1 0x20 ADD PUSH1 0x40 MLOAD SWAP1 DUP2 ADD PUSH1 0x40 MSTORE DUP1 SWAP3 SWAP2 SWAP1 DUP2 DUP2 MSTORE PUSH1 0x20 ADD PUSH1 0x0 SWAP1 JUMPDEST DUP3 DUP3 LT ISZERO PUSH2 0x26AC JUMPI DUP4 DUP3 SWAP1 PUSH1 0x0 MSTORE PUSH1 0x20 PUSH1 0x0 KECCAK256 ADD DUP1 SLOAD PUSH2 0x2F5F SWAP1 PUSH2 0x54A6 JUMP JUMPDEST DUP1 PUSH1 0x1F ADD PUSH1 0x20 DUP1 SWAP2 DIV MUL PUSH1 0x20 ADD PUSH1 0x40 MLOAD SWAP1 DUP2 ADD PUSH1 0x40 MSTORE DUP1 SWAP3 SWAP2 SWAP1 DUP2 DUP2 MSTORE PUSH1 0x20 ADD DUP3 DUP1 SLOAD PUSH2 0x2F8B SWAP1 PUSH2 0x54A6 JUMP JUMPDEST DUP1 ISZERO PUSH2 0x2FD8 JUMPI DUP1 PUSH1 0x1F LT PUSH2 0x2FAD JUMPI PUSH2 0x100 DUP1 DUP4 SLOAD DIV MUL DUP4 MSTORE SWAP2 PUSH1 0x20 ADD SWAP2 PUSH2 0x2FD8 JUMP JUMPDEST DUP3 ADD SWAP2 SWAP1 PUSH1 0x0 MSTORE PUSH1 0x20 PUSH1 0x0 KECCAK256 SWAP1 JUMPDEST DUP2 SLOAD DUP2 MSTORE SWAP1 PUSH1 0x1 ADD SWAP1 PUSH1 0x20 ADD DUP1 DUP4 GT PUSH2 0x2FBB JUMPI DUP3 SWAP1 SUB PUSH1 0x1F AND DUP3 ADD SWAP2 JUMPDEST POP POP POP POP POP DUP2 MSTORE PUSH1 0x20 ADD SWAP1 PUSH1 0x1 ADD SWAP1 PUSH2 0x2F40 JUMP JUMPDEST PUSH1 0x60 PUSH2 0x8B2 DUP3 PUSH1 0x40 MLOAD DUP1 PUSH1 0x40 ADD PUSH1 0x40 MSTORE DUP1 PUSH1 0x3 DUP2 MSTORE PUSH1 0x20 ADD PUSH3 0x746F7 PUSH1 0xEC SHL DUP2 MSTORE POP PUSH2 0x178 DUP1 SLOAD DUP1 PUSH1 0x20 MUL PUSH1 0x20 ADD PUSH1 0x40 MLOAD SWAP1 DUP2 ADD PUSH1 0x40 MSTORE DUP1 SWAP3 SWAP2 SWAP1 DUP2 DUP2 MSTORE PUSH1 0x20 ADD PUSH1 0x0 SWAP1 JUMPDEST DUP3 DUP3 LT ISZERO PUSH2 0x26AC JUMPI DUP4 DUP3 SWAP1 PUSH1 0x0 MSTORE PUSH1 0x20 PUSH1 0x0 KECCAK256 ADD DUP1 SLOAD PUSH2 0x3050 SWAP1 PUSH2 0x54A6 JUMP JUMPDEST DUP1 PUSH1 0x1F ADD PUSH1 0x20 DUP1 SWAP2 DIV MUL PUSH1 0x20 ADD PUSH1 0x40 MLOAD SWAP1 DUP2 ADD PUSH1 0x40 MSTORE DUP1 SWAP3 SWAP2 SWAP1 DUP2 DUP2 MSTORE PUSH1 0x20 ADD DUP3 DUP1 SLOAD PUSH2 0x307C SWAP1 PUSH2 0x54A6 JUMP JUMPDEST DUP1 ISZERO PUSH2 0x30C9 JUMPI DUP1 PUSH1 0x1F LT PUSH2 0x309E JUMPI PUSH2 0x100 DUP1 DUP4 SLOAD DIV MUL DUP4 MSTORE SWAP2 PUSH1 0x20 ADD SWAP2 PUSH2 0x30C9 JUMP JUMPDEST DUP3 ADD SWAP2 SWAP1 PUSH1 0x0 MSTORE PUSH1 0x20 PUSH1 0x0 KECCAK256 SWAP1 JUMPDEST DUP2 SLOAD DUP2 MSTORE SWAP1 PUSH1 0x1 ADD SWAP1 PUSH1 0x20 ADD DUP1 DUP4 GT PUSH2 0x30AC JUMPI DUP3 SWAP1 SUB PUSH1 0x1F AND DUP3 ADD SWAP2 JUMPDEST POP POP POP POP POP DUP2 MSTORE PUSH1 0x20 ADD SWAP1 PUSH1 0x1 ADD SWAP1 PUSH2 0x3031 JUMP JUMPDEST PUSH1 0x60 PUSH2 0x8B2 DUP3 PUSH1 0x40 MLOAD DUP1 PUSH1 0x40 ADD PUSH1 0x40 MSTORE DUP1 PUSH1 0x6 DUP2 MSTORE PUSH1 0x20 ADD PUSH6 0x626F74746F6D PUSH1 0xD0 SHL DUP2 MSTORE POP PUSH2 0x179 DUP1 SLOAD DUP1 PUSH1 0x20 MUL PUSH1 0x20 ADD PUSH1 0x40 MLOAD SWAP1 DUP2 ADD PUSH1 0x40 MSTORE DUP1 SWAP3 SWAP2 SWAP1 DUP2 DUP2 MSTORE PUSH1 0x20 ADD PUSH1 0x0 SWAP1 JUMPDEST DUP3 DUP3 LT ISZERO PUSH2 0x26AC JUMPI DUP4 DUP3 SWAP1 PUSH1 0x0 MSTORE PUSH1 0x20 PUSH1 0x0 KECCAK256 ADD DUP1 SLOAD PUSH2 0x3144 SWAP1 PUSH2 0x54A6 JUMP JUMPDEST DUP1 PUSH1 0x1F ADD PUSH1 0x20 DUP1 SWAP2 DIV MUL PUSH1 0x20 ADD PUSH1 0x40 MLOAD SWAP1 DUP2 ADD PUSH1 0x40 MSTORE DUP1 SWAP3 SWAP2 SWAP1 DUP2 DUP2 MSTORE PUSH1 0x20 ADD DUP3 DUP1 SLOAD PUSH2 0x3170 SWAP1 PUSH2 0x54A6 JUMP JUMPDEST DUP1 ISZERO PUSH2 0x31BD JUMPI DUP1 PUSH1 0x1F LT PUSH2 0x3192 JUMPI PUSH2 0x100 DUP1 DUP4 SLOAD DIV MUL DUP4 MSTORE SWAP2 PUSH1 0x20 ADD SWAP2 PUSH2 0x31BD JUMP JUMPDEST DUP3 ADD SWAP2 SWAP1 PUSH1 0x0 MSTORE PUSH1 0x20 PUSH1 0x0 KECCAK256 SWAP1 JUMPDEST DUP2 SLOAD DUP2 MSTORE SWAP1 PUSH1 0x1 ADD SWAP1 PUSH1 0x20 ADD DUP1 DUP4 GT PUSH2 0x31A0 JUMPI DUP3 SWAP1 SUB PUSH1 0x1F AND DUP3 ADD SWAP2 JUMPDEST POP POP POP POP POP DUP2 MSTORE PUSH1 0x20 ADD SWAP1 PUSH1 0x1 ADD SWAP1 PUSH2 0x3125 JUMP JUMPDEST PUSH1 0x0 PUSH2 0x8B2 DUP3 PUSH1 0x40 MLOAD DUP1 PUSH1 0x40 ADD PUSH1 0x40 MSTORE DUP1 PUSH1 0x6 DUP2 MSTORE PUSH1 0x20 ADD PUSH6 0x373AB6B132B9 PUSH1 0xD1 SHL DUP2 MSTORE POP PUSH1 0x1 PUSH1 0x1A PUSH2 0x4332 JUMP JUMPDEST PUSH1 0x60 PUSH2 0x8B2 DUP3 PUSH1 0x40 MLOAD DUP1 PUSH1 0x40 ADD PUSH1 0x40 MSTORE DUP1 PUSH1 0x5 DUP2 MSTORE PUSH1 0x20 ADD PUSH5 0x7461746F6F PUSH1 0xD8 SHL DUP2 MSTORE POP PUSH2 0x17B DUP1 SLOAD DUP1 PUSH1 0x20 MUL PUSH1 0x20 ADD PUSH1 0x40 MLOAD SWAP1 DUP2 ADD PUSH1 0x40 MSTORE DUP1 SWAP3 SWAP2 SWAP1 DUP2 DUP2 MSTORE PUSH1 0x20 ADD PUSH1 0x0 SWAP1 JUMPDEST DUP3 DUP3 LT ISZERO PUSH2 0x26AC JUMPI DUP4 DUP3 SWAP1 PUSH1 0x0 MSTORE PUSH1 0x20 PUSH1 0x0 KECCAK256 ADD DUP1 SLOAD PUSH2 0x3265 SWAP1 PUSH2 0x54A6 JUMP JUMPDEST DUP1 PUSH1 0x1F ADD PUSH1 0x20 DUP1 SWAP2 DIV MUL PUSH1 0x20 ADD PUSH1 0x40 MLOAD SWAP1 DUP2 ADD PUSH1 0x40 MSTORE DUP1 SWAP3 SWAP2 SWAP1 DUP2 DUP2 MSTORE PUSH1 0x20 ADD DUP3 DUP1 SLOAD PUSH2 0x3291 SWAP1 PUSH2 0x54A6 JUMP JUMPDEST DUP1 ISZERO PUSH2 0x32DE JUMPI DUP1 PUSH1 0x1F LT PUSH2 0x32B3 JUMPI PUSH2 0x100 DUP1 DUP4 SLOAD DIV MUL DUP4 MSTORE SWAP2 PUSH1 0x20 ADD SWAP2 PUSH2 0x32DE JUMP JUMPDEST DUP3 ADD SWAP2 SWAP1 PUSH1 0x0 MSTORE PUSH1 0x20 PUSH1 0x0 KECCAK256 SWAP1 JUMPDEST DUP2 SLOAD DUP2 MSTORE SWAP1 PUSH1 0x1 ADD SWAP1 PUSH1 0x20 ADD DUP1 DUP4 GT PUSH2 0x32C1 JUMPI DUP3 SWAP1 SUB PUSH1 0x1F AND DUP3 ADD SWAP2 JUMPDEST POP POP POP POP POP DUP2 MSTORE PUSH1 0x20 ADD SWAP1 PUSH1 0x1 ADD SWAP1 PUSH2 0x3246 JUMP JUMPDEST PUSH1 0x60 PUSH2 0x8B2 DUP3 PUSH1 0x40 MLOAD DUP1 PUSH1 0x40 ADD PUSH1 0x40 MSTORE DUP1 PUSH1 0x7 DUP2 MSTORE PUSH1 0x20 ADD PUSH7 0x676C6173736573 PUSH1 0xC8 SHL DUP2 MSTORE POP PUSH2 0x17C DUP1 SLOAD DUP1 PUSH1 0x20 MUL PUSH1 0x20 ADD PUSH1 0x40 MLOAD SWAP1 DUP2 ADD PUSH1 0x40 MSTORE DUP1 SWAP3 SWAP2 SWAP1 DUP2 DUP2 MSTORE PUSH1 0x20 ADD PUSH1 0x0 SWAP1 JUMPDEST DUP3 DUP3 LT ISZERO PUSH2 0x26AC JUMPI DUP4 DUP3 SWAP1 PUSH1 0x0 MSTORE PUSH1 0x20 PUSH1 0x0 KECCAK256 ADD DUP1 SLOAD PUSH2 0x335A SWAP1 PUSH2 0x54A6 JUMP JUMPDEST DUP1 PUSH1 0x1F ADD PUSH1 0x20 DUP1 SWAP2 DIV MUL PUSH1 0x20 ADD PUSH1 0x40 MLOAD SWAP1 DUP2 ADD PUSH1 0x40 MSTORE DUP1 SWAP3 SWAP2 SWAP1 DUP2 DUP2 MSTORE PUSH1 0x20 ADD DUP3 DUP1 SLOAD PUSH2 0x3386 SWAP1 PUSH2 0x54A6 JUMP JUMPDEST DUP1 ISZERO PUSH2 0x33D3 JUMPI DUP1 PUSH1 0x1F LT PUSH2 0x33A8 JUMPI PUSH2 0x100 DUP1 DUP4 SLOAD DIV MUL DUP4 MSTORE SWAP2 PUSH1 0x20 ADD SWAP2 PUSH2 0x33D3 JUMP JUMPDEST DUP3 ADD SWAP2 SWAP1 PUSH1 0x0 MSTORE PUSH1 0x20 PUSH1 0x0 KECCAK256 SWAP1 JUMPDEST DUP2 SLOAD DUP2 MSTORE SWAP1 PUSH1 0x1 ADD SWAP1 PUSH1 0x20 ADD DUP1 DUP4 GT PUSH2 0x33B6 JUMPI DUP3 SWAP1 SUB PUSH1 0x1F AND DUP3 ADD SWAP2 JUMPDEST POP POP POP POP POP DUP2 MSTORE PUSH1 0x20 ADD SWAP1 PUSH1 0x1 ADD SWAP1 PUSH2 0x333B JUMP JUMPDEST PUSH1 0x60 PUSH2 0x8B2 DUP3 PUSH1 0x40 MLOAD DUP1 PUSH1 0x40 ADD PUSH1 0x40 MSTORE DUP1 PUSH1 0x7 DUP2 MSTORE PUSH1 0x20 ADD PUSH7 0x676C6F76657273 PUSH1 0xC8 SHL DUP2 MSTORE POP PUSH2 0x17C DUP1 SLOAD DUP1 PUSH1 0x20 MUL PUSH1 0x20 ADD PUSH1 0x40 MLOAD SWAP1 DUP2 ADD PUSH1 0x40 MSTORE DUP1 SWAP3 SWAP2 SWAP1 DUP2 DUP2 MSTORE PUSH1 0x20 ADD PUSH1 0x0 SWAP1 JUMPDEST DUP3 DUP3 LT ISZERO PUSH2 0x26AC JUMPI DUP4 DUP3 SWAP1 PUSH1 0x0 MSTORE PUSH1 0x20 PUSH1 0x0 KECCAK256 ADD DUP1 SLOAD PUSH2 0x344F SWAP1 PUSH2 0x54A6 JUMP JUMPDEST DUP1 PUSH1 0x1F ADD PUSH1 0x20 DUP1 SWAP2 DIV MUL PUSH1 0x20 ADD PUSH1 0x40 MLOAD SWAP1 DUP2 ADD PUSH1 0x40 MSTORE DUP1 SWAP3 SWAP2 SWAP1 DUP2 DUP2 MSTORE PUSH1 0x20 ADD DUP3 DUP1 SLOAD PUSH2 0x347B SWAP1 PUSH2 0x54A6 JUMP JUMPDEST DUP1 ISZERO PUSH2 0x34C8 JUMPI DUP1 PUSH1 0x1F LT PUSH2 0x349D JUMPI PUSH2 0x100 DUP1 DUP4 SLOAD DIV MUL DUP4 MSTORE SWAP2 PUSH1 0x20 ADD SWAP2 PUSH2 0x34C8 JUMP JUMPDEST DUP3 ADD SWAP2 SWAP1 PUSH1 0x0 MSTORE PUSH1 0x20 PUSH1 0x0 KECCAK256 SWAP1 JUMPDEST DUP2 SLOAD DUP2 MSTORE SWAP1 PUSH1 0x1 ADD SWAP1 PUSH1 0x20 ADD DUP1 DUP4 GT PUSH2 0x34AB JUMPI DUP3 SWAP1 SUB PUSH1 0x1F AND DUP3 ADD SWAP2 JUMPDEST POP POP POP POP POP DUP2 MSTORE PUSH1 0x20 ADD SWAP1 PUSH1 0x1 ADD SWAP1 PUSH2 0x3430 JUMP JUMPDEST PUSH1 0x60 PUSH2 0x16A DUP1 SLOAD PUSH2 0x8C7 SWAP1 PUSH2 0x54A6 JUMP JUMPDEST PUSH1 0x60 DUP2 PUSH2 0x3510 JUMPI POP POP PUSH1 0x40 DUP1 MLOAD DUP1 DUP3 ADD SWAP1 SWAP2 MSTORE PUSH1 0x1 DUP2 MSTORE PUSH1 0x3 PUSH1 0xFC SHL PUSH1 0x20 DUP3 ADD MSTORE SWAP1 JUMP JUMPDEST DUP2 PUSH1 0x0 JUMPDEST DUP2 ISZERO PUSH2 0x353A JUMPI DUP1 PUSH2 0x3524 DUP2 PUSH2 0x5528 JUMP JUMPDEST SWAP2 POP PUSH2 0x3533 SWAP1 POP PUSH1 0xA DUP4 PUSH2 0x55C6 JUMP JUMPDEST SWAP2 POP PUSH2 0x3514 JUMP JUMPDEST PUSH1 0x0 DUP2 PUSH1 0x1 PUSH1 0x1 PUSH1 0x40 SHL SUB DUP2 GT ISZERO PUSH2 0x3554 JUMPI PUSH2 0x3554 PUSH2 0x4E75 JUMP JUMPDEST PUSH1 0x40 MLOAD SWAP1 DUP1 DUP3 MSTORE DUP1 PUSH1 0x1F ADD PUSH1 0x1F NOT AND PUSH1 0x20 ADD DUP3 ADD PUSH1 0x40 MSTORE DUP1 ISZERO PUSH2 0x357E JUMPI PUSH1 0x20 DUP3 ADD DUP2 DUP1 CALLDATASIZE DUP4 CALLDATACOPY ADD SWAP1 POP JUMPDEST POP SWAP1 POP JUMPDEST DUP5 ISZERO PUSH2 0x1CF6 JUMPI PUSH2 0x3593 PUSH1 0x1 DUP4 PUSH2 0x55DA JUMP JUMPDEST SWAP2 POP PUSH2 0x35A0 PUSH1 0xA DUP7 PUSH2 0x5607 JUMP JUMPDEST PUSH2 0x35AB SWAP1 PUSH1 0x30 PUSH2 0x569C JUMP JUMPDEST PUSH1 0xF8 SHL DUP2 DUP4 DUP2 MLOAD DUP2 LT PUSH2 0x35C0 JUMPI PUSH2 0x35C0 PUSH2 0x55F1 JUMP JUMPDEST PUSH1 0x20 ADD ADD SWAP1 PUSH1 0x1 PUSH1 0x1 PUSH1 0xF8 SHL SUB NOT AND SWAP1 DUP2 PUSH1 0x0 BYTE SWAP1 MSTORE8 POP PUSH2 0x35E2 PUSH1 0xA DUP7 PUSH2 0x55C6 JUMP JUMPDEST SWAP5 POP PUSH2 0x3582 JUMP JUMPDEST PUSH2 0x35F1 PUSH2 0x4BA3 JUMP JUMPDEST PUSH2 0x35F9 PUSH2 0x4BA3 JUMP JUMPDEST PUSH2 0x3605 DUP2 DUP7 DUP7 DUP7 PUSH2 0x4367 JUMP JUMPDEST SWAP6 SWAP5 POP POP POP POP POP JUMP JUMPDEST PUSH1 0x80 DUP4 ADD MLOAD PUSH2 0x361D SWAP1 DUP4 PUSH2 0x43A4 JUMP JUMPDEST PUSH1 0x80 DUP4 ADD MLOAD PUSH2 0xAEB SWAP1 DUP3 PUSH2 0x43A4 JUMP JUMPDEST PUSH2 0x162 SLOAD PUSH1 0x0 SWAP1 PUSH2 0x1C1A SWAP1 PUSH1 0x1 PUSH1 0x1 PUSH1 0xA0 SHL SUB AND DUP5 DUP5 PUSH2 0x43BB JUMP JUMPDEST PUSH1 0x0 SLOAD PUSH2 0x100 SWAP1 DIV PUSH1 0xFF AND PUSH2 0x366E JUMPI PUSH1 0x40 MLOAD PUSH3 0x461BCD PUSH1 0xE5 SHL DUP2 MSTORE PUSH1 0x4 ADD PUSH2 0x991 SWAP1 PUSH2 0x5706 JUMP JUMPDEST PUSH2 0x9AF DUP3 DUP3 PUSH2 0x4450 JUMP JUMPDEST PUSH1 0x40 DUP1 MLOAD PUSH2 0x440 DUP2 ADD DUP3 MSTORE PUSH1 0x5 PUSH2 0x400 DUP3 ADD DUP2 DUP2 MSTORE PUSH5 0x28B0BA30B9 PUSH1 0xD9 SHL PUSH2 0x420 DUP5 ADD MSTORE DUP3 MSTORE DUP3 MLOAD DUP1 DUP5 ADD DUP5 MSTORE PUSH1 0x7 DUP1 DUP3 MSTORE PUSH7 0x22B1BAB0B237B9 PUSH1 0xC9 SHL PUSH1 0x20 DUP4 DUP2 ADD SWAP2 SWAP1 SWAP2 MSTORE DUP1 DUP6 ADD SWAP3 SWAP1 SWAP3 MSTORE DUP5 MLOAD DUP1 DUP7 ADD DUP7 MSTORE DUP2 DUP2 MSTORE PUSH7 0x14D95B9959D85B PUSH1 0xCA SHL DUP2 DUP5 ADD MSTORE DUP5 DUP7 ADD MSTORE DUP5 MLOAD DUP1 DUP7 ADD DUP7 MSTORE PUSH1 0xB DUP1 DUP3 MSTORE PUSH11 0x4E65746865726C616E6473 PUSH1 0xA8 SHL DUP3 DUP6 ADD MSTORE PUSH1 0x60 DUP7 ADD SWAP2 SWAP1 SWAP2 MSTORE DUP6 MLOAD DUP1 DUP8 ADD DUP8 MSTORE DUP3 DUP2 MSTORE PUSH7 0x115B99DB185B99 PUSH1 0xCA SHL DUP2 DUP6 ADD MSTORE PUSH1 0x80 DUP7 ADD MSTORE DUP6 MLOAD DUP1 DUP8 ADD DUP8 MSTORE DUP3 DUP2 MSTORE PUSH7 0x24A91024B930B7 PUSH1 0xC9 SHL DUP2 DUP6 ADD MSTORE PUSH1 0xA0 DUP7 ADD MSTORE DUP6 MLOAD DUP1 DUP8 ADD DUP8 MSTORE PUSH1 0x3 DUP2 MSTORE PUSH3 0x555341 PUSH1 0xE8 SHL DUP2 DUP6 ADD MSTORE PUSH1 0xC0 DUP7 ADD MSTORE DUP6 MLOAD DUP1 DUP8 ADD DUP8 MSTORE DUP5 DUP2 MSTORE PUSH5 0x57616C6573 PUSH1 0xD8 SHL DUP2 DUP6 ADD MSTORE PUSH1 0xE0 DUP7 ADD MSTORE DUP6 MLOAD DUP1 DUP8 ADD DUP8 MSTORE PUSH1 0x9 DUP1 DUP3 MSTORE PUSH9 0x417267656E74696E61 PUSH1 0xB8 SHL DUP3 DUP7 ADD MSTORE PUSH2 0x100 DUP8 ADD SWAP2 SWAP1 SWAP2 MSTORE DUP7 MLOAD DUP1 DUP9 ADD DUP9 MSTORE PUSH1 0xC DUP2 MSTORE PUSH12 0x536175646920417261626961 PUSH1 0xA0 SHL DUP2 DUP7 ADD MSTORE PUSH2 0x120 DUP8 ADD MSTORE DUP7 MLOAD DUP1 DUP9 ADD DUP9 MSTORE PUSH1 0x6 DUP1 DUP3 MSTORE PUSH6 0x4D657869636F PUSH1 0xD0 SHL DUP3 DUP8 ADD MSTORE PUSH2 0x140 DUP9 ADD SWAP2 SWAP1 SWAP2 MSTORE DUP8 MLOAD DUP1 DUP10 ADD DUP10 MSTORE DUP2 DUP2 MSTORE PUSH6 0x141BDB185B99 PUSH1 0xD2 SHL DUP2 DUP8 ADD MSTORE PUSH2 0x160 DUP9 ADD MSTORE DUP8 MLOAD DUP1 DUP10 ADD DUP10 MSTORE DUP2 DUP2 MSTORE PUSH6 0x4672616E6365 PUSH1 0xD0 SHL DUP2 DUP8 ADD MSTORE PUSH2 0x180 DUP9 ADD MSTORE DUP8 MLOAD DUP1 DUP10 ADD DUP10 MSTORE SWAP2 DUP3 MSTORE PUSH9 0x4175737472616C6961 PUSH1 0xB8 SHL DUP3 DUP7 ADD MSTORE PUSH2 0x1A0 DUP8 ADD SWAP2 SWAP1 SWAP2 MSTORE DUP7 MLOAD DUP1 DUP9 ADD DUP9 MSTORE DUP4 DUP2 MSTORE PUSH7 0x44656E6D61726B PUSH1 0xC8 SHL DUP2 DUP7 ADD MSTORE PUSH2 0x1C0 DUP8 ADD MSTORE DUP7 MLOAD DUP1 DUP9 ADD DUP9 MSTORE DUP4 DUP2 MSTORE PUSH7 0x54756E69736961 PUSH1 0xC8 SHL DUP2 DUP7 ADD MSTORE PUSH2 0x1E0 DUP8 ADD MSTORE DUP7 MLOAD DUP1 DUP9 ADD DUP9 MSTORE DUP6 DUP2 MSTORE PUSH5 0x29B830B4B7 PUSH1 0xD9 SHL DUP2 DUP7 ADD MSTORE PUSH2 0x200 DUP8 ADD MSTORE DUP7 MLOAD DUP1 DUP9 ADD DUP9 MSTORE PUSH1 0xA DUP2 MSTORE PUSH10 0x436F7374612052696361 PUSH1 0xB0 SHL DUP2 DUP7 ADD MSTORE PUSH2 0x220 DUP8 ADD MSTORE DUP7 MLOAD DUP1 DUP9 ADD DUP9 MSTORE DUP4 DUP2 MSTORE PUSH7 0x4765726D616E79 PUSH1 0xC8 SHL DUP2 DUP7 ADD MSTORE PUSH2 0x240 DUP8 ADD MSTORE DUP7 MLOAD DUP1 DUP9 ADD DUP9 MSTORE DUP6 DUP2 MSTORE PUSH5 0x2530B830B7 PUSH1 0xD9 SHL DUP2 DUP7 ADD MSTORE PUSH2 0x260 DUP8 ADD MSTORE DUP7 MLOAD DUP1 DUP9 ADD DUP9 MSTORE DUP4 DUP2 MSTORE PUSH7 0x42656C6769756D PUSH1 0xC8 SHL DUP2 DUP7 ADD MSTORE PUSH2 0x280 DUP8 ADD MSTORE DUP7 MLOAD DUP1 DUP9 ADD DUP9 MSTORE DUP2 DUP2 MSTORE PUSH6 0x43616E616461 PUSH1 0xD0 SHL DUP2 DUP7 ADD MSTORE PUSH2 0x2A0 DUP8 ADD MSTORE DUP7 MLOAD DUP1 DUP9 ADD DUP9 MSTORE DUP4 DUP2 MSTORE PUSH7 0x4D6F726F63636F PUSH1 0xC8 SHL DUP2 DUP7 ADD MSTORE PUSH2 0x2C0 DUP8 ADD MSTORE DUP7 MLOAD DUP1 DUP9 ADD DUP9 MSTORE DUP4 DUP2 MSTORE PUSH7 0x43726F61746961 PUSH1 0xC8 SHL DUP2 DUP7 ADD MSTORE PUSH2 0x2E0 DUP8 ADD MSTORE DUP7 MLOAD DUP1 DUP9 ADD DUP9 MSTORE DUP2 DUP2 MSTORE PUSH6 0x109C985E9A5B PUSH1 0xD2 SHL DUP2 DUP7 ADD MSTORE PUSH2 0x300 DUP8 ADD MSTORE DUP7 MLOAD DUP1 DUP9 ADD DUP9 MSTORE SWAP1 DUP2 MSTORE PUSH6 0x536572626961 PUSH1 0xD0 SHL DUP2 DUP6 ADD MSTORE PUSH2 0x320 DUP7 ADD MSTORE DUP6 MLOAD DUP1 DUP8 ADD DUP8 MSTORE SWAP1 DUP2 MSTORE PUSH11 0x14DDDA5D1E995C9B185B99 PUSH1 0xAA SHL DUP2 DUP5 ADD MSTORE PUSH2 0x340 DUP6 ADD MSTORE DUP5 MLOAD DUP1 DUP7 ADD DUP7 MSTORE PUSH1 0x8 DUP1 DUP3 MSTORE PUSH8 0x21B0B6B2B937B7B7 PUSH1 0xC1 SHL DUP3 DUP6 ADD MSTORE PUSH2 0x360 DUP7 ADD SWAP2 SWAP1 SWAP2 MSTORE DUP6 MLOAD DUP1 DUP8 ADD DUP8 MSTORE SWAP1 DUP2 MSTORE PUSH8 0x141BDC9D1D59D85B PUSH1 0xC2 SHL DUP2 DUP5 ADD MSTORE PUSH2 0x380 DUP6 ADD MSTORE DUP5 MLOAD DUP1 DUP7 ADD DUP7 MSTORE SWAP3 DUP4 MSTORE PUSH5 0x4768616E61 PUSH1 0xD8 SHL DUP4 DUP4 ADD MSTORE PUSH2 0x3A0 DUP5 ADD SWAP3 SWAP1 SWAP3 MSTORE DUP4 MLOAD DUP1 DUP6 ADD DUP6 MSTORE SWAP2 DUP3 MSTORE PUSH7 0x55727567756179 PUSH1 0xC8 SHL DUP3 DUP3 ADD MSTORE PUSH2 0x3C0 DUP4 ADD SWAP2 SWAP1 SWAP2 MSTORE DUP3 MLOAD DUP1 DUP5 ADD SWAP1 SWAP4 MSTORE PUSH1 0xE DUP4 MSTORE PUSH14 0x4B6F7265612052657075626C6963 PUSH1 0x90 SHL DUP4 DUP3 ADD MSTORE PUSH2 0x3E0 DUP3 ADD SWAP3 SWAP1 SWAP3 MSTORE PUSH2 0x3A9E SWAP2 PUSH2 0x170 SWAP2 SWAP1 PUSH2 0x4BDE JUMP JUMPDEST POP PUSH1 0x40 DUP1 MLOAD PUSH1 0xA0 DUP2 ADD DUP3 MSTORE PUSH1 0x1 PUSH1 0x60 DUP3 ADD DUP2 DUP2 MSTORE PUSH1 0x3 PUSH1 0xFC SHL PUSH1 0x80 DUP5 ADD MSTORE DUP3 MSTORE DUP3 MLOAD DUP1 DUP5 ADD DUP5 MSTORE DUP2 DUP2 MSTORE PUSH1 0x31 PUSH1 0xF8 SHL PUSH1 0x20 DUP3 DUP2 ADD SWAP2 SWAP1 SWAP2 MSTORE DUP1 DUP5 ADD SWAP2 SWAP1 SWAP2 MSTORE DUP4 MLOAD DUP1 DUP6 ADD DUP6 MSTORE SWAP2 DUP3 MSTORE PUSH1 0x19 PUSH1 0xF9 SHL SWAP1 DUP3 ADD MSTORE SWAP2 DUP2 ADD SWAP2 SWAP1 SWAP2 MSTORE PUSH2 0x3B06 SWAP1 PUSH2 0x171 SWAP1 PUSH1 0x3 PUSH2 0x4C37 JUMP JUMPDEST POP PUSH1 0x40 DUP1 MLOAD PUSH1 0xC0 DUP2 ADD DUP3 MSTORE PUSH1 0x1 PUSH1 0x80 DUP3 ADD DUP2 DUP2 MSTORE PUSH1 0x3 PUSH1 0xFC SHL PUSH1 0xA0 DUP5 ADD MSTORE DUP3 MSTORE DUP3 MLOAD DUP1 DUP5 ADD DUP5 MSTORE DUP2 DUP2 MSTORE PUSH1 0x31 PUSH1 0xF8 SHL PUSH1 0x20 DUP3 DUP2 ADD SWAP2 SWAP1 SWAP2 MSTORE DUP1 DUP5 ADD SWAP2 SWAP1 SWAP2 MSTORE DUP4 MLOAD DUP1 DUP6 ADD DUP6 MSTORE DUP3 DUP2 MSTORE PUSH1 0x19 PUSH1 0xF9 SHL DUP2 DUP4 ADD MSTORE DUP4 DUP6 ADD MSTORE DUP4 MLOAD DUP1 DUP6 ADD SWAP1 SWAP5 MSTORE SWAP1 DUP4 MSTORE PUSH1 0x33 PUSH1 0xF8 SHL SWAP1 DUP4 ADD MSTORE PUSH1 0x60 DUP2 ADD SWAP2 SWAP1 SWAP2 MSTORE PUSH2 0x3B87 SWAP1 PUSH2 0x172 SWAP1 PUSH1 0x4 PUSH2 0x4C84 JUMP JUMPDEST POP PUSH1 0x40 DUP1 MLOAD PUSH2 0x100 DUP2 ADD DUP3 MSTORE PUSH1 0x1 PUSH1 0xC0 DUP3 ADD DUP2 DUP2 MSTORE PUSH1 0x3 PUSH1 0xFC SHL PUSH1 0xE0 DUP5 ADD MSTORE DUP3 MSTORE DUP3 MLOAD DUP1 DUP5 ADD DUP5 MSTORE DUP2 DUP2 MSTORE PUSH1 0x31 PUSH1 0xF8 SHL PUSH1 0x20 DUP3 DUP2 ADD SWAP2 SWAP1 SWAP2 MSTORE DUP1 DUP5 ADD SWAP2 SWAP1 SWAP2 MSTORE DUP4 MLOAD DUP1 DUP6 ADD DUP6 MSTORE DUP3 DUP2 MSTORE PUSH1 0x19 PUSH1 0xF9 SHL DUP2 DUP4 ADD MSTORE DUP4 DUP6 ADD MSTORE DUP4 MLOAD DUP1 DUP6 ADD DUP6 MSTORE DUP3 DUP2 MSTORE PUSH1 0x33 PUSH1 0xF8 SHL DUP2 DUP4 ADD MSTORE PUSH1 0x60 DUP5 ADD MSTORE DUP4 MLOAD DUP1 DUP6 ADD DUP6 MSTORE DUP3 DUP2 MSTORE PUSH1 0xD PUSH1 0xFA SHL DUP2 DUP4 ADD MSTORE PUSH1 0x80 DUP5 ADD MSTORE DUP4 MLOAD DUP1 DUP6 ADD SWAP1 SWAP5 MSTORE SWAP1 DUP4 MSTORE PUSH1 0x35 PUSH1 0xF8 SHL SWAP1 DUP4 ADD MSTORE PUSH1 0xA0 DUP2 ADD SWAP2 SWAP1 SWAP2 MSTORE PUSH2 0x3C39 SWAP1 PUSH2 0x173 SWAP1 PUSH1 0x6 PUSH2 0x4CD1 JUMP JUMPDEST POP PUSH1 0x40 DUP1 MLOAD PUSH1 0xA0 DUP2 ADD DUP3 MSTORE PUSH1 0x1 PUSH1 0x60 DUP3 ADD DUP2 DUP2 MSTORE PUSH1 0x3 PUSH1 0xFC SHL PUSH1 0x80 DUP5 ADD MSTORE DUP3 MSTORE DUP3 MLOAD DUP1 DUP5 ADD DUP5 MSTORE DUP2 DUP2 MSTORE PUSH1 0x31 PUSH1 0xF8 SHL PUSH1 0x20 DUP3 DUP2 ADD SWAP2 SWAP1 SWAP2 MSTORE DUP1 DUP5 ADD SWAP2 SWAP1 SWAP2 MSTORE DUP4 MLOAD DUP1 DUP6 ADD DUP6 MSTORE SWAP2 DUP3 MSTORE PUSH1 0x19 PUSH1 0xF9 SHL SWAP1 DUP3 ADD MSTORE SWAP2 DUP2 ADD SWAP2 SWAP1 SWAP2 MSTORE PUSH2 0x3CA1 SWAP1 PUSH2 0x174 SWAP1 PUSH1 0x3 PUSH2 0x4C37 JUMP JUMPDEST POP PUSH1 0x40 DUP1 MLOAD PUSH1 0xC0 DUP2 ADD DUP3 MSTORE PUSH1 0x1 PUSH1 0x80 DUP3 ADD DUP2 DUP2 MSTORE PUSH1 0x3 PUSH1 0xFC SHL PUSH1 0xA0 DUP5 ADD MSTORE DUP3 MSTORE DUP3 MLOAD DUP1 DUP5 ADD DUP5 MSTORE DUP2 DUP2 MSTORE PUSH1 0x31 PUSH1 0xF8 SHL PUSH1 0x20 DUP3 DUP2 ADD SWAP2 SWAP1 SWAP2 MSTORE DUP1 DUP5 ADD SWAP2 SWAP1 SWAP2 MSTORE DUP4 MLOAD DUP1 DUP6 ADD DUP6 MSTORE DUP3 DUP2 MSTORE PUSH1 0x19 PUSH1 0xF9 SHL DUP2 DUP4 ADD MSTORE DUP4 DUP6 ADD MSTORE DUP4 MLOAD DUP1 DUP6 ADD SWAP1 SWAP5 MSTORE SWAP1 DUP4 MSTORE PUSH1 0x33 PUSH1 0xF8 SHL SWAP1 DUP4 ADD MSTORE PUSH1 0x60 DUP2 ADD SWAP2 SWAP1 SWAP2 MSTORE PUSH2 0x3D22 SWAP1 PUSH2 0x175 SWAP1 PUSH1 0x4 PUSH2 0x4C84 JUMP JUMPDEST POP PUSH1 0x40 DUP1 MLOAD PUSH1 0xC0 DUP2 ADD DUP3 MSTORE PUSH1 0x1 PUSH1 0x80 DUP3 ADD DUP2 DUP2 MSTORE PUSH1 0x3 PUSH1 0xFC SHL PUSH1 0xA0 DUP5 ADD MSTORE DUP3 MSTORE DUP3 MLOAD DUP1 DUP5 ADD DUP5 MSTORE DUP2 DUP2 MSTORE PUSH1 0x31 PUSH1 0xF8 SHL PUSH1 0x20 DUP3 DUP2 ADD SWAP2 SWAP1 SWAP2 MSTORE DUP1 DUP5 ADD SWAP2 SWAP1 SWAP2 MSTORE DUP4 MLOAD DUP1 DUP6 ADD DUP6 MSTORE DUP3 DUP2 MSTORE PUSH1 0x19 PUSH1 0xF9 SHL DUP2 DUP4 ADD MSTORE DUP4 DUP6 ADD MSTORE DUP4 MLOAD DUP1 DUP6 ADD SWAP1 SWAP5 MSTORE SWAP1 DUP4 MSTORE PUSH1 0x33 PUSH1 0xF8 SHL SWAP1 DUP4 ADD MSTORE PUSH1 0x60 DUP2 ADD SWAP2 SWAP1 SWAP2 MSTORE PUSH2 0x3DA3 SWAP1 PUSH2 0x176 SWAP1 PUSH1 0x4 PUSH2 0x4C84 JUMP JUMPDEST POP PUSH1 0x40 DUP1 MLOAD PUSH1 0xA0 DUP2 ADD DUP3 MSTORE PUSH1 0x1 PUSH1 0x60 DUP3 ADD DUP2 DUP2 MSTORE PUSH1 0x31 PUSH1 0xF8 SHL PUSH1 0x80 DUP5 ADD MSTORE DUP3 MSTORE DUP3 MLOAD DUP1 DUP5 ADD DUP5 MSTORE DUP2 DUP2 MSTORE PUSH1 0x19 PUSH1 0xF9 SHL PUSH1 0x20 DUP3 DUP2 ADD SWAP2 SWAP1 SWAP2 MSTORE DUP1 DUP5 ADD SWAP2 SWAP1 SWAP2 MSTORE DUP4 MLOAD DUP1 DUP6 ADD DUP6 MSTORE SWAP2 DUP3 MSTORE PUSH1 0x33 PUSH1 0xF8 SHL SWAP1 DUP3 ADD MSTORE SWAP2 DUP2 ADD SWAP2 SWAP1 SWAP2 MSTORE PUSH2 0x3E0B SWAP1 PUSH2 0x177 SWAP1 PUSH1 0x3 PUSH2 0x4C37 JUMP JUMPDEST POP PUSH1 0x40 DUP1 MLOAD PUSH1 0x80 DUP2 ADD DUP3 MSTORE PUSH1 0x1 DUP2 DUP4 ADD DUP2 DUP2 MSTORE PUSH1 0x3 PUSH1 0xFC SHL PUSH1 0x60 DUP5 ADD MSTORE DUP3 MSTORE DUP3 MLOAD DUP1 DUP5 ADD SWAP1 SWAP4 MSTORE DUP3 MSTORE PUSH1 0x31 PUSH1 0xF8 SHL PUSH1 0x20 DUP4 DUP2 ADD SWAP2 SWAP1 SWAP2 MSTORE DUP2 ADD SWAP2 SWAP1 SWAP2 MSTORE PUSH2 0x3E57 SWAP1 PUSH2 0x178 SWAP1 PUSH1 0x2 PUSH2 0x4D1E JUMP JUMPDEST POP PUSH1 0x40 DUP1 MLOAD PUSH1 0x80 DUP2 ADD DUP3 MSTORE PUSH1 0x1 DUP2 DUP4 ADD DUP2 DUP2 MSTORE PUSH1 0x3 PUSH1 0xFC SHL PUSH1 0x60 DUP5 ADD MSTORE DUP3 MSTORE DUP3 MLOAD DUP1 DUP5 ADD SWAP1 SWAP4 MSTORE DUP3 MSTORE PUSH1 0x31 PUSH1 0xF8 SHL PUSH1 0x20 DUP4 DUP2 ADD SWAP2 SWAP1 SWAP2 MSTORE DUP2 ADD SWAP2 SWAP1 SWAP2 MSTORE PUSH2 0x3EA3 SWAP1 PUSH2 0x179 SWAP1 PUSH1 0x2 PUSH2 0x4D1E JUMP JUMPDEST POP PUSH1 0x40 DUP1 MLOAD PUSH2 0x100 DUP2 ADD DUP3 MSTORE PUSH1 0x1 PUSH1 0xC0 DUP3 ADD DUP2 DUP2 MSTORE PUSH1 0x3 PUSH1 0xFC SHL PUSH1 0xE0 DUP5 ADD MSTORE DUP3 MSTORE DUP3 MLOAD DUP1 DUP5 ADD DUP5 MSTORE DUP2 DUP2 MSTORE PUSH1 0x31 PUSH1 0xF8 SHL PUSH1 0x20 DUP3 DUP2 ADD SWAP2 SWAP1 SWAP2 MSTORE DUP1 DUP5 ADD SWAP2 SWAP1 SWAP2 MSTORE DUP4 MLOAD DUP1 DUP6 ADD DUP6 MSTORE DUP3 DUP2 MSTORE PUSH1 0x19 PUSH1 0xF9 SHL DUP2 DUP4 ADD MSTORE DUP4 DUP6 ADD MSTORE DUP4 MLOAD DUP1 DUP6 ADD DUP6 MSTORE DUP3 DUP2 MSTORE PUSH1 0x33 PUSH1 0xF8 SHL DUP2 DUP4 ADD MSTORE PUSH1 0x60 DUP5 ADD MSTORE DUP4 MLOAD DUP1 DUP6 ADD DUP6 MSTORE DUP3 DUP2 MSTORE PUSH1 0xD PUSH1 0xFA SHL DUP2 DUP4 ADD MSTORE PUSH1 0x80 DUP5 ADD MSTORE DUP4 MLOAD DUP1 DUP6 ADD SWAP1 SWAP5 MSTORE SWAP1 DUP4 MSTORE PUSH1 0x35 PUSH1 0xF8 SHL SWAP1 DUP4 ADD MSTORE PUSH1 0xA0 DUP2 ADD SWAP2 SWAP1 SWAP2 MSTORE PUSH2 0x3F55 SWAP1 PUSH2 0x17A SWAP1 PUSH1 0x6 PUSH2 0x4CD1 JUMP JUMPDEST POP PUSH1 0x40 DUP1 MLOAD PUSH2 0x100 DUP2 ADD DUP3 MSTORE PUSH1 0x1 PUSH1 0xC0 DUP3 ADD DUP2 DUP2 MSTORE PUSH1 0x3 PUSH1 0xFC SHL PUSH1 0xE0 DUP5 ADD MSTORE DUP3 MSTORE DUP3 MLOAD DUP1 DUP5 ADD DUP5 MSTORE DUP2 DUP2 MSTORE PUSH1 0x31 PUSH1 0xF8 SHL PUSH1 0x20 DUP3 DUP2 ADD SWAP2 SWAP1 SWAP2 MSTORE DUP1 DUP5 ADD SWAP2 SWAP1 SWAP2 MSTORE DUP4 MLOAD DUP1 DUP6 ADD DUP6 MSTORE DUP3 DUP2 MSTORE PUSH1 0x19 PUSH1 0xF9 SHL DUP2 DUP4 ADD MSTORE DUP4 DUP6 ADD MSTORE DUP4 MLOAD DUP1 DUP6 ADD DUP6 MSTORE DUP3 DUP2 MSTORE PUSH1 0x33 PUSH1 0xF8 SHL DUP2 DUP4 ADD MSTORE PUSH1 0x60 DUP5 ADD MSTORE DUP4 MLOAD DUP1 DUP6 ADD DUP6 MSTORE DUP3 DUP2 MSTORE PUSH1 0xD PUSH1 0xFA SHL DUP2 DUP4 ADD MSTORE PUSH1 0x80 DUP5 ADD MSTORE DUP4 MLOAD DUP1 DUP6 ADD SWAP1 SWAP5 MSTORE SWAP1 DUP4 MSTORE PUSH1 0x35 PUSH1 0xF8 SHL SWAP1 DUP4 ADD MSTORE PUSH1 0xA0 DUP2 ADD SWAP2 SWAP1 SWAP2 MSTORE PUSH2 0x4007 SWAP1 PUSH2 0x17B SWAP1 PUSH1 0x6 PUSH2 0x4CD1 JUMP JUMPDEST POP PUSH1 0x40 DUP1 MLOAD PUSH1 0xC0 DUP2 ADD DUP3 MSTORE PUSH1 0x1 PUSH1 0x80 DUP3 ADD DUP2 DUP2 MSTORE PUSH1 0x3 PUSH1 0xFC SHL PUSH1 0xA0 DUP5 ADD MSTORE DUP3 MSTORE DUP3 MLOAD DUP1 DUP5 ADD DUP5 MSTORE DUP2 DUP2 MSTORE PUSH1 0x31 PUSH1 0xF8 SHL PUSH1 0x20 DUP3 DUP2 ADD SWAP2 SWAP1 SWAP2 MSTORE DUP1 DUP5 ADD SWAP2 SWAP1 SWAP2 MSTORE DUP4 MLOAD DUP1 DUP6 ADD DUP6 MSTORE DUP3 DUP2 MSTORE PUSH1 0x19 PUSH1 0xF9 SHL DUP2 DUP4 ADD MSTORE DUP4 DUP6 ADD MSTORE DUP4 MLOAD DUP1 DUP6 ADD SWAP1 SWAP5 MSTORE SWAP1 DUP4 MSTORE PUSH1 0x33 PUSH1 0xF8 SHL SWAP1 DUP4 ADD MSTORE PUSH1 0x60 DUP2 ADD SWAP2 SWAP1 SWAP2 MSTORE PUSH2 0x4088 SWAP1 PUSH2 0x17C SWAP1 PUSH1 0x4 PUSH2 0x4C84 JUMP JUMPDEST POP PUSH1 0x40 DUP1 MLOAD PUSH1 0x80 DUP2 ADD DUP3 MSTORE PUSH1 0x1 DUP2 DUP4 ADD DUP2 DUP2 MSTORE PUSH1 0x3 PUSH1 0xFC SHL PUSH1 0x60 DUP5 ADD MSTORE DUP3 MSTORE DUP3 MLOAD DUP1 DUP5 ADD SWAP1 SWAP4 MSTORE DUP3 MSTORE PUSH1 0x31 PUSH1 0xF8 SHL PUSH1 0x20 DUP4 DUP2 ADD SWAP2 SWAP1 SWAP2 MSTORE DUP2 ADD SWAP2 SWAP1 SWAP2 MSTORE PUSH2 0xFA3 SWAP1 PUSH2 0x17D SWAP1 PUSH1 0x2 PUSH2 0x4D1E JUMP JUMPDEST PUSH2 0x40DE DUP4 DUP4 PUSH2 0x449E JUMP JUMPDEST PUSH2 0x40EB PUSH1 0x0 DUP5 DUP5 DUP5 PUSH2 0x41FD JUMP JUMPDEST PUSH2 0xAEB JUMPI PUSH1 0x40 MLOAD PUSH3 0x461BCD PUSH1 0xE5 SHL DUP2 MSTORE PUSH1 0x4 ADD PUSH2 0x991 SWAP1 PUSH2 0x56B4 JUMP JUMPDEST PUSH1 0x97 SLOAD PUSH1 0xFF AND ISZERO PUSH2 0xAEB JUMPI PUSH1 0x40 MLOAD PUSH3 0x461BCD PUSH1 0xE5 SHL DUP2 MSTORE PUSH1 0x20 PUSH1 0x4 DUP3 ADD MSTORE PUSH1 0x2B PUSH1 0x24 DUP3 ADD MSTORE PUSH32 0x4552433732315061757361626C653A20746F6B656E207472616E736665722077 PUSH1 0x44 DUP3 ADD MSTORE PUSH11 0x1A1A5B19481C185D5CD959 PUSH1 0xAA SHL PUSH1 0x64 DUP3 ADD MSTORE PUSH1 0x84 ADD PUSH2 0x991 JUMP JUMPDEST PUSH1 0x97 SLOAD PUSH1 0xFF AND PUSH2 0xF35 JUMPI PUSH1 0x40 MLOAD PUSH3 0x461BCD PUSH1 0xE5 SHL DUP2 MSTORE PUSH1 0x20 PUSH1 0x4 DUP3 ADD MSTORE PUSH1 0x14 PUSH1 0x24 DUP3 ADD MSTORE PUSH20 0x14185D5CD8589B194E881B9BDD081C185D5CD959 PUSH1 0x62 SHL PUSH1 0x44 DUP3 ADD MSTORE PUSH1 0x64 ADD PUSH2 0x991 JUMP JUMPDEST PUSH1 0x97 SLOAD PUSH1 0xFF AND ISZERO PUSH2 0xF35 JUMPI PUSH1 0x40 MLOAD PUSH3 0x461BCD PUSH1 0xE5 SHL DUP2 MSTORE PUSH1 0x20 PUSH1 0x4 DUP3 ADD MSTORE PUSH1 0x10 PUSH1 0x24 DUP3 ADD MSTORE PUSH16 0x14185D5CD8589B194E881C185D5CD959 PUSH1 0x82 SHL PUSH1 0x44 DUP3 ADD MSTORE PUSH1 0x64 ADD PUSH2 0x991 JUMP JUMPDEST PUSH1 0x0 PUSH1 0x1 PUSH1 0x1 PUSH1 0xA0 SHL SUB DUP5 AND EXTCODESIZE ISZERO PUSH2 0x42F0 JUMPI PUSH1 0x40 MLOAD PUSH4 0xA85BD01 PUSH1 0xE1 SHL DUP2 MSTORE PUSH1 0x1 PUSH1 0x1 PUSH1 0xA0 SHL SUB DUP6 AND SWAP1 PUSH4 0x150B7A02 SWAP1 PUSH2 0x4241 SWAP1 CALLER SWAP1 DUP10 SWAP1 DUP9 SWAP1 DUP9 SWAP1 PUSH1 0x4 ADD PUSH2 0x5751 JUMP JUMPDEST PUSH1 0x20 PUSH1 0x40 MLOAD DUP1 DUP4 SUB DUP2 PUSH1 0x0 DUP8 GAS CALL SWAP3 POP POP POP DUP1 ISZERO PUSH2 0x427C JUMPI POP PUSH1 0x40 DUP1 MLOAD PUSH1 0x1F RETURNDATASIZE SWAP1 DUP2 ADD PUSH1 0x1F NOT AND DUP3 ADD SWAP1 SWAP3 MSTORE PUSH2 0x4279 SWAP2 DUP2 ADD SWAP1 PUSH2 0x5784 JUMP JUMPDEST PUSH1 0x1 JUMPDEST PUSH2 0x42D6 JUMPI RETURNDATASIZE DUP1 DUP1 ISZERO PUSH2 0x42AA JUMPI PUSH1 0x40 MLOAD SWAP2 POP PUSH1 0x1F NOT PUSH1 0x3F RETURNDATASIZE ADD AND DUP3 ADD PUSH1 0x40 MSTORE RETURNDATASIZE DUP3 MSTORE RETURNDATASIZE PUSH1 0x0 PUSH1 0x20 DUP5 ADD RETURNDATACOPY PUSH2 0x42AF JUMP JUMPDEST PUSH1 0x60 SWAP2 POP JUMPDEST POP DUP1 MLOAD PUSH2 0x42CE JUMPI PUSH1 0x40 MLOAD PUSH3 0x461BCD PUSH1 0xE5 SHL DUP2 MSTORE PUSH1 0x4 ADD PUSH2 0x991 SWAP1 PUSH2 0x56B4 JUMP JUMPDEST DUP1 MLOAD DUP2 PUSH1 0x20 ADD REVERT JUMPDEST PUSH1 0x1 PUSH1 0x1 PUSH1 0xE0 SHL SUB NOT AND PUSH4 0xA85BD01 PUSH1 0xE1 SHL EQ SWAP1 POP PUSH2 0x1CF6 JUMP JUMPDEST POP PUSH1 0x1 PUSH2 0x1CF6 JUMP JUMPDEST PUSH1 0x60 DUP2 DUP3 MLOAD PUSH2 0x4307 DUP7 DUP7 PUSH2 0x243D JUMP JUMPDEST PUSH2 0x4311 SWAP2 SWAP1 PUSH2 0x5607 JUMP JUMPDEST DUP2 MLOAD DUP2 LT PUSH2 0x4321 JUMPI PUSH2 0x4321 PUSH2 0x55F1 JUMP JUMPDEST PUSH1 0x20 MUL PUSH1 0x20 ADD ADD MLOAD SWAP1 POP SWAP4 SWAP3 POP POP POP JUMP JUMPDEST PUSH1 0x0 PUSH2 0x433E DUP4 DUP4 PUSH2 0x55DA JUMP JUMPDEST PUSH2 0x4349 SWAP1 PUSH1 0x1 PUSH2 0x569C JUMP JUMPDEST PUSH2 0x4353 DUP7 DUP7 PUSH2 0x243D JUMP JUMPDEST PUSH2 0x435D SWAP2 SWAP1 PUSH2 0x5607 JUMP JUMPDEST PUSH2 0x3605 SWAP1 DUP5 PUSH2 0x569C JUMP JUMPDEST PUSH2 0x436F PUSH2 0x4BA3 JUMP JUMPDEST PUSH2 0x437F DUP6 PUSH1 0x80 ADD MLOAD PUSH2 0x100 PUSH2 0x45EC JUMP JUMPDEST POP POP SWAP2 DUP4 MSTORE PUSH1 0x1 PUSH1 0x1 PUSH1 0xA0 SHL SUB AND PUSH1 0x20 DUP4 ADD MSTORE PUSH1 0x1 PUSH1 0x1 PUSH1 0xE0 SHL SUB NOT AND PUSH1 0x40 DUP3 ADD MSTORE SWAP1 JUMP JUMPDEST PUSH2 0x43B1 DUP3 PUSH1 0x3 DUP4 MLOAD PUSH2 0x4651 JUMP JUMPDEST PUSH2 0xAEB DUP3 DUP3 PUSH2 0x4758 JUMP JUMPDEST PUSH2 0x163 SLOAD PUSH1 0x0 SWAP1 PUSH2 0x43CD DUP2 PUSH1 0x1 PUSH2 0x569C JUMP JUMPDEST PUSH2 0x163 SSTORE DUP4 MLOAD PUSH1 0x40 DUP1 DUP7 ADD MLOAD PUSH1 0x80 DUP8 ADD MLOAD MLOAD SWAP2 MLOAD PUSH1 0x0 SWAP4 PUSH4 0x20214CA3 PUSH1 0xE1 SHL SWAP4 PUSH2 0x4406 SWAP4 DUP7 SWAP4 DUP5 SWAP4 SWAP3 ADDRESS SWAP3 SWAP2 DUP11 SWAP2 PUSH1 0x1 SWAP2 PUSH1 0x24 ADD PUSH2 0x57A1 JUMP JUMPDEST PUSH1 0x40 DUP1 MLOAD PUSH1 0x1F NOT DUP2 DUP5 SUB ADD DUP2 MSTORE SWAP2 SWAP1 MSTORE PUSH1 0x20 DUP2 ADD DUP1 MLOAD PUSH1 0x1 PUSH1 0x1 PUSH1 0xE0 SHL SUB AND PUSH1 0x1 PUSH1 0x1 PUSH1 0xE0 SHL SUB NOT SWAP1 SWAP4 AND SWAP3 SWAP1 SWAP3 OR SWAP1 SWAP2 MSTORE SWAP1 POP PUSH2 0x4446 DUP7 DUP4 DUP7 DUP5 PUSH2 0x477F JUMP JUMPDEST SWAP7 SWAP6 POP POP POP POP POP POP JUMP JUMPDEST PUSH1 0x0 SLOAD PUSH2 0x100 SWAP1 DIV PUSH1 0xFF AND PUSH2 0x4477 JUMPI PUSH1 0x40 MLOAD PUSH3 0x461BCD PUSH1 0xE5 SHL DUP2 MSTORE PUSH1 0x4 ADD PUSH2 0x991 SWAP1 PUSH2 0x5706 JUMP JUMPDEST DUP2 MLOAD PUSH2 0x448A SWAP1 PUSH1 0x65 SWAP1 PUSH1 0x20 DUP6 ADD SWAP1 PUSH2 0x4B1F JUMP JUMPDEST POP DUP1 MLOAD PUSH2 0xAEB SWAP1 PUSH1 0x66 SWAP1 PUSH1 0x20 DUP5 ADD SWAP1 PUSH2 0x4B1F JUMP JUMPDEST PUSH1 0x1 PUSH1 0x1 PUSH1 0xA0 SHL SUB DUP3 AND PUSH2 0x44F4 JUMPI PUSH1 0x40 MLOAD PUSH3 0x461BCD PUSH1 0xE5 SHL DUP2 MSTORE PUSH1 0x20 PUSH1 0x4 DUP3 ADD DUP2 SWAP1 MSTORE PUSH1 0x24 DUP3 ADD MSTORE PUSH32 0x4552433732313A206D696E7420746F20746865207A65726F2061646472657373 PUSH1 0x44 DUP3 ADD MSTORE PUSH1 0x64 ADD PUSH2 0x991 JUMP JUMPDEST PUSH1 0x0 DUP2 DUP2 MSTORE PUSH1 0x67 PUSH1 0x20 MSTORE PUSH1 0x40 SWAP1 KECCAK256 SLOAD PUSH1 0x1 PUSH1 0x1 PUSH1 0xA0 SHL SUB AND ISZERO PUSH2 0x4559 JUMPI PUSH1 0x40 MLOAD PUSH3 0x461BCD PUSH1 0xE5 SHL DUP2 MSTORE PUSH1 0x20 PUSH1 0x4 DUP3 ADD MSTORE PUSH1 0x1C PUSH1 0x24 DUP3 ADD MSTORE PUSH32 0x4552433732313A20746F6B656E20616C7265616479206D696E74656400000000 PUSH1 0x44 DUP3 ADD MSTORE PUSH1 0x64 ADD PUSH2 0x991 JUMP JUMPDEST PUSH2 0x4565 PUSH1 0x0 DUP4 DUP4 PUSH2 0x4107 JUMP JUMPDEST PUSH1 0x1 PUSH1 0x1 PUSH1 0xA0 SHL SUB DUP3 AND PUSH1 0x0 SWAP1 DUP2 MSTORE PUSH1 0x68 PUSH1 0x20 MSTORE PUSH1 0x40 DUP2 KECCAK256 DUP1 SLOAD PUSH1 0x1 SWAP3 SWAP1 PUSH2 0x458E SWAP1 DUP5 SWAP1 PUSH2 0x569C JUMP JUMPDEST SWAP1 SWAP2 SSTORE POP POP PUSH1 0x0 DUP2 DUP2 MSTORE PUSH1 0x67 PUSH1 0x20 MSTORE PUSH1 0x40 DUP1 DUP3 KECCAK256 DUP1 SLOAD PUSH1 0x1 PUSH1 0x1 PUSH1 0xA0 SHL SUB NOT AND PUSH1 0x1 PUSH1 0x1 PUSH1 0xA0 SHL SUB DUP7 AND SWAP1 DUP2 OR SWAP1 SWAP2 SSTORE SWAP1 MLOAD DUP4 SWAP3 SWAP1 PUSH32 0xDDF252AD1BE2C89B69C2B068FC378DAA952BA7F163C4A11628F55A4DF523B3EF SWAP1 DUP3 SWAP1 LOG4 POP POP JUMP JUMPDEST PUSH1 0x40 DUP1 MLOAD DUP1 DUP3 ADD SWAP1 SWAP2 MSTORE PUSH1 0x60 DUP2 MSTORE PUSH1 0x0 PUSH1 0x20 DUP3 ADD MSTORE PUSH2 0x460C PUSH1 0x20 DUP4 PUSH2 0x5607 JUMP JUMPDEST ISZERO PUSH2 0x4634 JUMPI PUSH2 0x461C PUSH1 0x20 DUP4 PUSH2 0x5607 JUMP JUMPDEST PUSH2 0x4627 SWAP1 PUSH1 0x20 PUSH2 0x55DA JUMP JUMPDEST PUSH2 0x4631 SWAP1 DUP4 PUSH2 0x569C JUMP JUMPDEST SWAP2 POP JUMPDEST POP PUSH1 0x20 DUP3 DUP2 ADD DUP3 SWAP1 MSTORE PUSH1 0x40 DUP1 MLOAD DUP1 DUP6 MSTORE PUSH1 0x0 DUP2 MSTORE SWAP1 SWAP3 ADD ADD SWAP1 MSTORE SWAP1 JUMP JUMPDEST PUSH1 0x17 DUP2 PUSH1 0x1 PUSH1 0x1 PUSH1 0x40 SHL SUB AND GT PUSH2 0x4675 JUMPI PUSH2 0x1774 DUP4 PUSH1 0xE0 PUSH1 0x5 DUP6 SWAP1 SHL AND DUP4 OR PUSH2 0x48DF JUMP JUMPDEST PUSH1 0xFF DUP2 PUSH1 0x1 PUSH1 0x1 PUSH1 0x40 SHL SUB AND GT PUSH2 0x46B1 JUMPI PUSH2 0x469B DUP4 PUSH1 0x18 PUSH2 0x1FE0 PUSH1 0x5 DUP7 SWAP1 SHL AND OR PUSH2 0x48DF JUMP JUMPDEST POP PUSH2 0x1774 DUP4 PUSH1 0x1 PUSH1 0x1 PUSH1 0x40 SHL SUB DUP4 AND PUSH1 0x1 PUSH2 0x4904 JUMP JUMPDEST PUSH2 0xFFFF DUP2 PUSH1 0x1 PUSH1 0x1 PUSH1 0x40 SHL SUB AND GT PUSH2 0x46EE JUMPI PUSH2 0x46D8 DUP4 PUSH1 0x19 PUSH2 0x1FE0 PUSH1 0x5 DUP7 SWAP1 SHL AND OR PUSH2 0x48DF JUMP JUMPDEST POP PUSH2 0x1774 DUP4 PUSH1 0x1 PUSH1 0x1 PUSH1 0x40 SHL SUB DUP4 AND PUSH1 0x2 PUSH2 0x4904 JUMP JUMPDEST PUSH4 0xFFFFFFFF DUP2 PUSH1 0x1 PUSH1 0x1 PUSH1 0x40 SHL SUB AND GT PUSH2 0x472D JUMPI PUSH2 0x4717 DUP4 PUSH1 0x1A PUSH2 0x1FE0 PUSH1 0x5 DUP7 SWAP1 SHL AND OR PUSH2 0x48DF JUMP JUMPDEST POP PUSH2 0x1774 DUP4 PUSH1 0x1 PUSH1 0x1 PUSH1 0x40 SHL SUB DUP4 AND PUSH1 0x4 PUSH2 0x4904 JUMP JUMPDEST PUSH2 0x4742 DUP4 PUSH1 0x1B PUSH2 0x1FE0 PUSH1 0x5 DUP7 SWAP1 SHL AND OR PUSH2 0x48DF JUMP JUMPDEST POP PUSH2 0x1774 DUP4 PUSH1 0x1 PUSH1 0x1 PUSH1 0x40 SHL SUB DUP4 AND PUSH1 0x8 PUSH2 0x4904 JUMP JUMPDEST PUSH1 0x40 DUP1 MLOAD DUP1 DUP3 ADD SWAP1 SWAP2 MSTORE PUSH1 0x60 DUP2 MSTORE PUSH1 0x0 PUSH1 0x20 DUP3 ADD MSTORE PUSH2 0x1C1A DUP4 DUP5 PUSH1 0x0 ADD MLOAD MLOAD DUP5 DUP6 MLOAD PUSH2 0x492A JUMP JUMPDEST PUSH1 0x40 MLOAD PUSH12 0xFFFFFFFFFFFFFFFFFFFFFFFF NOT ADDRESS PUSH1 0x60 SHL AND PUSH1 0x20 DUP3 ADD MSTORE PUSH1 0x34 DUP2 ADD DUP5 SWAP1 MSTORE PUSH1 0x0 SWAP1 PUSH1 0x54 ADD PUSH1 0x40 DUP1 MLOAD DUP1 DUP4 SUB PUSH1 0x1F NOT ADD DUP2 MSTORE DUP3 DUP3 MSTORE DUP1 MLOAD PUSH1 0x20 SWAP2 DUP3 ADD KECCAK256 PUSH1 0x0 DUP2 DUP2 MSTORE PUSH2 0x164 SWAP1 SWAP3 MSTORE SWAP2 DUP2 KECCAK256 DUP1 SLOAD PUSH1 0x1 PUSH1 0x1 PUSH1 0xA0 SHL SUB NOT AND PUSH1 0x1 PUSH1 0x1 PUSH1 0xA0 SHL SUB DUP11 AND OR SWAP1 SSTORE SWAP1 SWAP3 POP DUP3 SWAP2 PUSH32 0xB5E6E01E79F91267DC17B4E6314D5D4D03593D2CEEE0FBB452B750BD70EA5AF9 SWAP2 SWAP1 LOG2 PUSH2 0x161 SLOAD PUSH1 0x40 MLOAD PUSH4 0x2000575 PUSH1 0xE5 SHL DUP2 MSTORE PUSH1 0x1 PUSH1 0x1 PUSH1 0xA0 SHL SUB SWAP1 SWAP2 AND SWAP1 PUSH4 0x4000AEA0 SWAP1 PUSH2 0x4844 SWAP1 DUP9 SWAP1 DUP8 SWAP1 DUP8 SWAP1 PUSH1 0x4 ADD PUSH2 0x5809 JUMP JUMPDEST PUSH1 0x20 PUSH1 0x40 MLOAD DUP1 DUP4 SUB DUP2 PUSH1 0x0 DUP8 GAS CALL ISZERO DUP1 ISZERO PUSH2 0x4863 JUMPI RETURNDATASIZE PUSH1 0x0 DUP1 RETURNDATACOPY RETURNDATASIZE PUSH1 0x0 REVERT JUMPDEST POP POP POP POP PUSH1 0x40 MLOAD RETURNDATASIZE PUSH1 0x1F NOT PUSH1 0x1F DUP3 ADD AND DUP3 ADD DUP1 PUSH1 0x40 MSTORE POP DUP2 ADD SWAP1 PUSH2 0x4887 SWAP2 SWAP1 PUSH2 0x5634 JUMP JUMPDEST PUSH2 0x1CF6 JUMPI PUSH1 0x40 MLOAD PUSH3 0x461BCD PUSH1 0xE5 SHL DUP2 MSTORE PUSH1 0x20 PUSH1 0x4 DUP3 ADD MSTORE PUSH1 0x23 PUSH1 0x24 DUP3 ADD MSTORE PUSH32 0x756E61626C6520746F207472616E73666572416E6443616C6C20746F206F7261 PUSH1 0x44 DUP3 ADD MSTORE PUSH3 0x636C65 PUSH1 0xE8 SHL PUSH1 0x64 DUP3 ADD MSTORE PUSH1 0x84 ADD PUSH2 0x991 JUMP JUMPDEST PUSH1 0x40 DUP1 MLOAD DUP1 DUP3 ADD SWAP1 SWAP2 MSTORE PUSH1 0x60 DUP2 MSTORE PUSH1 0x0 PUSH1 0x20 DUP3 ADD MSTORE PUSH2 0x1C1A DUP4 DUP5 PUSH1 0x0 ADD MLOAD MLOAD DUP5 PUSH2 0x4A14 JUMP JUMPDEST PUSH1 0x40 DUP1 MLOAD DUP1 DUP3 ADD SWAP1 SWAP2 MSTORE PUSH1 0x60 DUP2 MSTORE PUSH1 0x0 PUSH1 0x20 DUP3 ADD MSTORE PUSH2 0x1CF6 DUP5 DUP6 PUSH1 0x0 ADD MLOAD MLOAD DUP6 DUP6 PUSH2 0x4A70 JUMP JUMPDEST PUSH1 0x40 DUP1 MLOAD DUP1 DUP3 ADD SWAP1 SWAP2 MSTORE PUSH1 0x60 DUP2 MSTORE PUSH1 0x0 PUSH1 0x20 DUP3 ADD MSTORE DUP3 MLOAD DUP3 GT ISZERO PUSH2 0x494D JUMPI PUSH1 0x0 DUP1 REVERT JUMPDEST PUSH1 0x20 DUP6 ADD MLOAD PUSH2 0x495C DUP4 DUP7 PUSH2 0x569C JUMP JUMPDEST GT ISZERO PUSH2 0x498F JUMPI PUSH2 0x498F DUP6 PUSH2 0x497F DUP8 PUSH1 0x20 ADD MLOAD DUP8 DUP7 PUSH2 0x497A SWAP2 SWAP1 PUSH2 0x569C JUMP JUMPDEST PUSH2 0x4AF1 JUMP JUMPDEST PUSH2 0x498A SWAP1 PUSH1 0x2 PUSH2 0x5591 JUMP JUMPDEST PUSH2 0x4B08 JUMP JUMPDEST PUSH1 0x0 DUP1 DUP7 MLOAD DUP1 MLOAD DUP8 PUSH1 0x20 DUP4 ADD ADD SWAP4 POP DUP1 DUP9 DUP8 ADD GT ISZERO PUSH2 0x49AE JUMPI DUP8 DUP7 ADD DUP3 MSTORE JUMPDEST POP POP POP PUSH1 0x20 DUP5 ADD JUMPDEST PUSH1 0x20 DUP5 LT PUSH2 0x49EE JUMPI DUP1 MLOAD DUP3 MSTORE PUSH2 0x49CD PUSH1 0x20 DUP4 PUSH2 0x569C JUMP JUMPDEST SWAP2 POP PUSH2 0x49DA PUSH1 0x20 DUP3 PUSH2 0x569C JUMP JUMPDEST SWAP1 POP PUSH2 0x49E7 PUSH1 0x20 DUP6 PUSH2 0x55DA JUMP JUMPDEST SWAP4 POP PUSH2 0x49B6 JUMP JUMPDEST MLOAD DUP2 MLOAD PUSH1 0x0 NOT PUSH1 0x20 DUP7 SWAP1 SUB PUSH2 0x100 EXP ADD SWAP1 DUP2 AND SWAP1 NOT SWAP2 SWAP1 SWAP2 AND OR SWAP1 MSTORE POP DUP4 SWAP5 SWAP4 POP POP POP POP JUMP JUMPDEST PUSH1 0x40 DUP1 MLOAD DUP1 DUP3 ADD SWAP1 SWAP2 MSTORE PUSH1 0x60 DUP2 MSTORE PUSH1 0x0 PUSH1 0x20 DUP3 ADD MSTORE DUP4 PUSH1 0x20 ADD MLOAD DUP4 LT PUSH2 0x4A49 JUMPI PUSH2 0x4A49 DUP5 DUP6 PUSH1 0x20 ADD MLOAD PUSH1 0x2 PUSH2 0x498A SWAP2 SWAP1 PUSH2 0x5591 JUMP JUMPDEST DUP4 MLOAD DUP1 MLOAD PUSH1 0x20 DUP6 DUP4 ADD ADD DUP5 DUP2 MSTORE8 POP DUP1 DUP6 EQ ISZERO PUSH2 0x4A66 JUMPI PUSH1 0x1 DUP2 ADD DUP3 MSTORE JUMPDEST POP SWAP4 SWAP5 SWAP4 POP POP POP POP JUMP JUMPDEST PUSH1 0x40 DUP1 MLOAD DUP1 DUP3 ADD SWAP1 SWAP2 MSTORE PUSH1 0x60 DUP2 MSTORE PUSH1 0x0 PUSH1 0x20 DUP3 ADD MSTORE PUSH1 0x20 DUP6 ADD MLOAD PUSH2 0x4A94 DUP6 DUP5 PUSH2 0x569C JUMP JUMPDEST GT ISZERO PUSH2 0x4AA8 JUMPI PUSH2 0x4AA8 DUP6 PUSH2 0x497F DUP7 DUP6 PUSH2 0x569C JUMP JUMPDEST PUSH1 0x0 PUSH1 0x1 PUSH2 0x4AB8 DUP5 PUSH2 0x100 PUSH2 0x5914 JUMP JUMPDEST PUSH2 0x4AC2 SWAP2 SWAP1 PUSH2 0x55DA JUMP JUMPDEST SWAP1 POP DUP6 MLOAD DUP4 DUP7 DUP3 ADD ADD DUP6 DUP4 NOT DUP3 MLOAD AND OR DUP2 MSTORE POP DUP1 MLOAD DUP5 DUP8 ADD GT ISZERO PUSH2 0x4AE6 JUMPI DUP4 DUP7 ADD DUP2 MSTORE JUMPDEST POP SWAP5 SWAP6 SWAP5 POP POP POP POP POP JUMP JUMPDEST PUSH1 0x0 DUP2 DUP4 GT ISZERO PUSH2 0x4B02 JUMPI POP DUP2 PUSH2 0x8B2 JUMP JUMPDEST POP SWAP2 SWAP1 POP JUMP JUMPDEST DUP2 MLOAD PUSH2 0x4B14 DUP4 DUP4 PUSH2 0x45EC JUMP JUMPDEST POP PUSH2 0x1774 DUP4 DUP3 PUSH2 0x4758 JUMP JUMPDEST DUP3 DUP1 SLOAD PUSH2 0x4B2B SWAP1 PUSH2 0x54A6 JUMP JUMPDEST SWAP1 PUSH1 0x0 MSTORE PUSH1 0x20 PUSH1 0x0 KECCAK256 SWAP1 PUSH1 0x1F ADD PUSH1 0x20 SWAP1 DIV DUP2 ADD SWAP3 DUP3 PUSH2 0x4B4D JUMPI PUSH1 0x0 DUP6 SSTORE PUSH2 0x4B93 JUMP JUMPDEST DUP3 PUSH1 0x1F LT PUSH2 0x4B66 JUMPI DUP1 MLOAD PUSH1 0xFF NOT AND DUP4 DUP1 ADD OR DUP6 SSTORE PUSH2 0x4B93 JUMP JUMPDEST DUP3 DUP1 ADD PUSH1 0x1 ADD DUP6 SSTORE DUP3 ISZERO PUSH2 0x4B93 JUMPI SWAP2 DUP3 ADD JUMPDEST DUP3 DUP2 GT ISZERO PUSH2 0x4B93 JUMPI DUP3 MLOAD DUP3 SSTORE SWAP2 PUSH1 0x20 ADD SWAP2 SWAP1 PUSH1 0x1 ADD SWAP1 PUSH2 0x4B78 JUMP JUMPDEST POP PUSH2 0x4B9F SWAP3 SWAP2 POP PUSH2 0x4D6B JUMP JUMPDEST POP SWAP1 JUMP JUMPDEST PUSH1 0x40 DUP1 MLOAD PUSH1 0xA0 DUP2 ADD DUP3 MSTORE PUSH1 0x0 DUP1 DUP3 MSTORE PUSH1 0x20 DUP1 DUP4 ADD DUP3 SWAP1 MSTORE DUP3 DUP5 ADD DUP3 SWAP1 MSTORE PUSH1 0x60 DUP1 DUP5 ADD DUP4 SWAP1 MSTORE DUP5 MLOAD DUP1 DUP7 ADD SWAP1 SWAP6 MSTORE DUP5 MSTORE DUP4 ADD MSTORE SWAP1 PUSH1 0x80 DUP3 ADD MSTORE SWAP1 JUMP JUMPDEST DUP3 DUP1 SLOAD DUP3 DUP3 SSTORE SWAP1 PUSH1 0x0 MSTORE PUSH1 0x20 PUSH1 0x0 KECCAK256 SWAP1 DUP2 ADD SWAP3 DUP3 ISZERO PUSH2 0x4C2B JUMPI SWAP2 PUSH1 0x20 MUL DUP3 ADD JUMPDEST DUP3 DUP2 GT ISZERO PUSH2 0x4C2B JUMPI DUP3 MLOAD DUP1 MLOAD PUSH2 0x4C1B SWAP2 DUP5 SWAP2 PUSH1 0x20 SWAP1 SWAP2 ADD SWAP1 PUSH2 0x4B1F JUMP JUMPDEST POP SWAP2 PUSH1 0x20 ADD SWAP2 SWAP1 PUSH1 0x1 ADD SWAP1 PUSH2 0x4BFE JUMP JUMPDEST POP PUSH2 0x4B9F SWAP3 SWAP2 POP PUSH2 0x4D80 JUMP JUMPDEST DUP3 DUP1 SLOAD DUP3 DUP3 SSTORE SWAP1 PUSH1 0x0 MSTORE PUSH1 0x20 PUSH1 0x0 KECCAK256 SWAP1 DUP2 ADD SWAP3 DUP3 ISZERO PUSH2 0x4C2B JUMPI SWAP2 PUSH1 0x20 MUL DUP3 ADD JUMPDEST DUP3 DUP2 GT ISZERO PUSH2 0x4C2B JUMPI DUP3 MLOAD DUP1 MLOAD PUSH2 0x4C74 SWAP2 DUP5 SWAP2 PUSH1 0x20 SWAP1 SWAP2 ADD SWAP1 PUSH2 0x4B1F JUMP JUMPDEST POP SWAP2 PUSH1 0x20 ADD SWAP2 SWAP1 PUSH1 0x1 ADD SWAP1 PUSH2 0x4C57 JUMP JUMPDEST DUP3 DUP1 SLOAD DUP3 DUP3 SSTORE SWAP1 PUSH1 0x0 MSTORE PUSH1 0x20 PUSH1 0x0 KECCAK256 SWAP1 DUP2 ADD SWAP3 DUP3 ISZERO PUSH2 0x4C2B JUMPI SWAP2 PUSH1 0x20 MUL DUP3 ADD JUMPDEST DUP3 DUP2 GT ISZERO PUSH2 0x4C2B JUMPI DUP3 MLOAD DUP1 MLOAD PUSH2 0x4CC1 SWAP2 DUP5 SWAP2 PUSH1 0x20 SWAP1 SWAP2 ADD SWAP1 PUSH2 0x4B1F JUMP JUMPDEST POP SWAP2 PUSH1 0x20 ADD SWAP2 SWAP1 PUSH1 0x1 ADD SWAP1 PUSH2 0x4CA4 JUMP JUMPDEST DUP3 DUP1 SLOAD DUP3 DUP3 SSTORE SWAP1 PUSH1 0x0 MSTORE PUSH1 0x20 PUSH1 0x0 KECCAK256 SWAP1 DUP2 ADD SWAP3 DUP3 ISZERO PUSH2 0x4C2B JUMPI SWAP2 PUSH1 0x20 MUL DUP3 ADD JUMPDEST DUP3 DUP2 GT ISZERO PUSH2 0x4C2B JUMPI DUP3 MLOAD DUP1 MLOAD PUSH2 0x4D0E SWAP2 DUP5 SWAP2 PUSH1 0x20 SWAP1 SWAP2 ADD SWAP1 PUSH2 0x4B1F JUMP JUMPDEST POP SWAP2 PUSH1 0x20 ADD SWAP2 SWAP1 PUSH1 0x1 ADD SWAP1 PUSH2 0x4CF1 JUMP JUMPDEST DUP3 DUP1 SLOAD DUP3 DUP3 SSTORE SWAP1 PUSH1 0x0 MSTORE PUSH1 0x20 PUSH1 0x0 KECCAK256 SWAP1 DUP2 ADD SWAP3 DUP3 ISZERO PUSH2 0x4C2B JUMPI SWAP2 PUSH1 0x20 MUL DUP3 ADD JUMPDEST DUP3 DUP2 GT ISZERO PUSH2 0x4C2B JUMPI DUP3 MLOAD DUP1 MLOAD PUSH2 0x4D5B SWAP2 DUP5 SWAP2 PUSH1 0x20 SWAP1 SWAP2 ADD SWAP1 PUSH2 0x4B1F JUMP JUMPDEST POP SWAP2 PUSH1 0x20 ADD SWAP2 SWAP1 PUSH1 0x1 ADD SWAP1 PUSH2 0x4D3E JUMP JUMPDEST JUMPDEST DUP1 DUP3 GT ISZERO PUSH2 0x4B9F JUMPI PUSH1 0x0 DUP2 SSTORE PUSH1 0x1 ADD PUSH2 0x4D6C JUMP JUMPDEST DUP1 DUP3 GT ISZERO PUSH2 0x4B9F JUMPI PUSH1 0x0 PUSH2 0x4D94 DUP3 DUP3 PUSH2 0x4D9D JUMP JUMPDEST POP PUSH1 0x1 ADD PUSH2 0x4D80 JUMP JUMPDEST POP DUP1 SLOAD PUSH2 0x4DA9 SWAP1 PUSH2 0x54A6 JUMP JUMPDEST PUSH1 0x0 DUP3 SSTORE DUP1 PUSH1 0x1F LT PUSH2 0x4DB9 JUMPI POP POP JUMP JUMPDEST PUSH1 0x1F ADD PUSH1 0x20 SWAP1 DIV SWAP1 PUSH1 0x0 MSTORE PUSH1 0x20 PUSH1 0x0 KECCAK256 SWAP1 DUP2 ADD SWAP1 PUSH2 0xFA3 SWAP2 SWAP1 PUSH2 0x4D6B JUMP JUMPDEST PUSH1 0x1 PUSH1 0x1 PUSH1 0xE0 SHL SUB NOT DUP2 AND DUP2 EQ PUSH2 0xFA3 JUMPI PUSH1 0x0 DUP1 REVERT JUMPDEST PUSH1 0x0 PUSH1 0x20 DUP3 DUP5 SUB SLT ISZERO PUSH2 0x4DFF JUMPI PUSH1 0x0 DUP1 REVERT JUMPDEST DUP2 CALLDATALOAD PUSH2 0x1C1A DUP2 PUSH2 0x4DD7 JUMP JUMPDEST PUSH1 0x0 JUMPDEST DUP4 DUP2 LT ISZERO PUSH2 0x4E25 JUMPI DUP2 DUP2 ADD MLOAD DUP4 DUP3 ADD MSTORE PUSH1 0x20 ADD PUSH2 0x4E0D JUMP JUMPDEST DUP4 DUP2 GT ISZERO PUSH2 0x1774 JUMPI POP POP PUSH1 0x0 SWAP2 ADD MSTORE JUMP JUMPDEST PUSH1 0x0 DUP2 MLOAD DUP1 DUP5 MSTORE PUSH2 0x4E4E DUP2 PUSH1 0x20 DUP7 ADD PUSH1 0x20 DUP7 ADD PUSH2 0x4E0A JUMP JUMPDEST PUSH1 0x1F ADD PUSH1 0x1F NOT AND SWAP3 SWAP1 SWAP3 ADD PUSH1 0x20 ADD SWAP3 SWAP2 POP POP JUMP JUMPDEST PUSH1 0x20 DUP2 MSTORE PUSH1 0x0 PUSH2 0x1C1A PUSH1 0x20 DUP4 ADD DUP5 PUSH2 0x4E36 JUMP JUMPDEST PUSH4 0x4E487B71 PUSH1 0xE0 SHL PUSH1 0x0 MSTORE PUSH1 0x41 PUSH1 0x4 MSTORE PUSH1 0x24 PUSH1 0x0 REVERT JUMPDEST PUSH1 0x40 MLOAD PUSH1 0x1F DUP3 ADD PUSH1 0x1F NOT AND DUP2 ADD PUSH1 0x1 PUSH1 0x1 PUSH1 0x40 SHL SUB DUP2 GT DUP3 DUP3 LT OR ISZERO PUSH2 0x4EB3 JUMPI PUSH2 0x4EB3 PUSH2 0x4E75 JUMP JUMPDEST PUSH1 0x40 MSTORE SWAP2 SWAP1 POP JUMP JUMPDEST PUSH1 0x0 DUP3 PUSH1 0x1F DUP4 ADD SLT PUSH2 0x4ECC JUMPI PUSH1 0x0 DUP1 REVERT JUMPDEST DUP2 CALLDATALOAD PUSH1 0x1 PUSH1 0x1 PUSH1 0x40 SHL SUB DUP2 GT ISZERO PUSH2 0x4EE5 JUMPI PUSH2 0x4EE5 PUSH2 0x4E75 JUMP JUMPDEST PUSH2 0x4EF8 PUSH1 0x1F DUP3 ADD PUSH1 0x1F NOT AND PUSH1 0x20 ADD PUSH2 0x4E8B JUMP JUMPDEST DUP2 DUP2 MSTORE DUP5 PUSH1 0x20 DUP4 DUP7 ADD ADD GT ISZERO PUSH2 0x4F0D JUMPI PUSH1 0x0 DUP1 REVERT JUMPDEST DUP2 PUSH1 0x20 DUP6 ADD PUSH1 0x20 DUP4 ADD CALLDATACOPY PUSH1 0x0 SWAP2 DUP2 ADD PUSH1 0x20 ADD SWAP2 SWAP1 SWAP2 MSTORE SWAP4 SWAP3 POP POP POP JUMP JUMPDEST PUSH1 0x0 PUSH1 0x20 DUP3 DUP5 SUB SLT ISZERO PUSH2 0x4F3C JUMPI PUSH1 0x0 DUP1 REVERT JUMPDEST DUP2 CALLDATALOAD PUSH1 0x1 PUSH1 0x1 PUSH1 0x40 SHL SUB DUP2 GT ISZERO PUSH2 0x4F52 JUMPI PUSH1 0x0 DUP1 REVERT JUMPDEST PUSH2 0x1CF6 DUP5 DUP3 DUP6 ADD PUSH2 0x4EBB JUMP JUMPDEST PUSH1 0x0 PUSH1 0x20 DUP3 DUP5 SUB SLT ISZERO PUSH2 0x4F70 JUMPI PUSH1 0x0 DUP1 REVERT JUMPDEST POP CALLDATALOAD SWAP2 SWAP1 POP JUMP JUMPDEST DUP1 CALLDATALOAD PUSH1 0x1 PUSH1 0x1 PUSH1 0xA0 SHL SUB DUP2 AND DUP2 EQ PUSH2 0x4F8E JUMPI PUSH1 0x0 DUP1 REVERT JUMPDEST SWAP2 SWAP1 POP JUMP JUMPDEST PUSH1 0x0 DUP1 PUSH1 0x40 DUP4 DUP6 SUB SLT ISZERO PUSH2 0x4FA6 JUMPI PUSH1 0x0 DUP1 REVERT JUMPDEST PUSH2 0x4FAF DUP4 PUSH2 0x4F77 JUMP JUMPDEST SWAP5 PUSH1 0x20 SWAP4 SWAP1 SWAP4 ADD CALLDATALOAD SWAP4 POP POP POP JUMP JUMPDEST PUSH1 0x0 DUP1 PUSH1 0x0 PUSH1 0x60 DUP5 DUP7 SUB SLT ISZERO PUSH2 0x4FD2 JUMPI PUSH1 0x0 DUP1 REVERT JUMPDEST PUSH2 0x4FDB DUP5 PUSH2 0x4F77 JUMP JUMPDEST SWAP3 POP PUSH2 0x4FE9 PUSH1 0x20 DUP6 ADD PUSH2 0x4F77 JUMP JUMPDEST SWAP2 POP PUSH1 0x40 DUP5 ADD CALLDATALOAD SWAP1 POP SWAP3 POP SWAP3 POP SWAP3 JUMP JUMPDEST PUSH1 0x0 DUP1 PUSH1 0x40 DUP4 DUP6 SUB SLT ISZERO PUSH2 0x500C JUMPI PUSH1 0x0 DUP1 REVERT JUMPDEST POP POP DUP1 CALLDATALOAD SWAP3 PUSH1 0x20 SWAP1 SWAP2 ADD CALLDATALOAD SWAP2 POP JUMP JUMPDEST PUSH1 0x0 PUSH1 0x20 DUP3 DUP5 SUB SLT ISZERO PUSH2 0x502D JUMPI PUSH1 0x0 DUP1 REVERT JUMPDEST PUSH2 0x1C1A DUP3 PUSH2 0x4F77 JUMP JUMPDEST PUSH1 0x0 DUP1 PUSH1 0x40 DUP4 DUP6 SUB SLT ISZERO PUSH2 0x5049 JUMPI PUSH1 0x0 DUP1 REVERT JUMPDEST DUP3 CALLDATALOAD PUSH1 0x1 PUSH1 0x1 PUSH1 0x40 SHL SUB DUP1 DUP3 GT ISZERO PUSH2 0x5060 JUMPI PUSH1 0x0 DUP1 REVERT JUMPDEST DUP2 DUP6 ADD SWAP2 POP DUP6 PUSH1 0x1F DUP4 ADD SLT PUSH2 0x5074 JUMPI PUSH1 0x0 DUP1 REVERT JUMPDEST DUP2 CALLDATALOAD PUSH1 0x20 DUP3 DUP3 GT ISZERO PUSH2 0x5088 JUMPI PUSH2 0x5088 PUSH2 0x4E75 JUMP JUMPDEST DUP2 PUSH1 0x5 SHL SWAP3 POP PUSH2 0x5099 DUP2 DUP5 ADD PUSH2 0x4E8B JUMP JUMPDEST DUP3 DUP2 MSTORE SWAP3 DUP5 ADD DUP2 ADD SWAP3 DUP2 DUP2 ADD SWAP1 DUP10 DUP6 GT ISZERO PUSH2 0x50B3 JUMPI PUSH1 0x0 DUP1 REVERT JUMPDEST SWAP5 DUP3 ADD SWAP5 JUMPDEST DUP5 DUP7 LT ISZERO PUSH2 0x50D8 JUMPI PUSH2 0x50C9 DUP7 PUSH2 0x4F77 JUMP JUMPDEST DUP3 MSTORE SWAP5 DUP3 ADD SWAP5 SWAP1 DUP3 ADD SWAP1 PUSH2 0x50B8 JUMP JUMPDEST SWAP10 SWAP8 SWAP1 SWAP2 ADD CALLDATALOAD SWAP8 POP POP POP POP POP POP POP JUMP JUMPDEST PUSH1 0x0 DUP1 PUSH1 0x40 DUP4 DUP6 SUB SLT ISZERO PUSH2 0x50FB JUMPI PUSH1 0x0 DUP1 REVERT JUMPDEST DUP3 CALLDATALOAD SWAP2 POP PUSH1 0x20 DUP4 ADD CALLDATALOAD PUSH1 0x1 PUSH1 0x1 PUSH1 0x40 SHL SUB DUP2 GT ISZERO PUSH2 0x5118 JUMPI PUSH1 0x0 DUP1 REVERT JUMPDEST PUSH2 0x5124 DUP6 DUP3 DUP7 ADD PUSH2 0x4EBB JUMP JUMPDEST SWAP2 POP POP SWAP3 POP SWAP3 SWAP1 POP JUMP JUMPDEST DUP1 ISZERO ISZERO DUP2 EQ PUSH2 0xFA3 JUMPI PUSH1 0x0 DUP1 REVERT JUMPDEST PUSH1 0x0 DUP1 PUSH1 0x40 DUP4 DUP6 SUB SLT ISZERO PUSH2 0x514F JUMPI PUSH1 0x0 DUP1 REVERT JUMPDEST PUSH2 0x5158 DUP4 PUSH2 0x4F77 JUMP JUMPDEST SWAP2 POP PUSH1 0x20 DUP4 ADD CALLDATALOAD PUSH2 0x5168 DUP2 PUSH2 0x512E JUMP JUMPDEST DUP1 SWAP2 POP POP SWAP3 POP SWAP3 SWAP1 POP JUMP JUMPDEST PUSH1 0x0 DUP1 PUSH1 0x0 DUP1 PUSH1 0x80 DUP6 DUP8 SUB SLT ISZERO PUSH2 0x5189 JUMPI PUSH1 0x0 DUP1 REVERT JUMPDEST PUSH2 0x5192 DUP6 PUSH2 0x4F77 JUMP JUMPDEST SWAP4 POP PUSH2 0x51A0 PUSH1 0x20 DUP7 ADD PUSH2 0x4F77 JUMP JUMPDEST SWAP3 POP PUSH1 0x40 DUP6 ADD CALLDATALOAD SWAP2 POP PUSH1 0x60 DUP6 ADD CALLDATALOAD PUSH1 0x1 PUSH1 0x1 PUSH1 0x40 SHL SUB DUP2 GT ISZERO PUSH2 0x51C2 JUMPI PUSH1 0x0 DUP1 REVERT JUMPDEST PUSH2 0x51CE DUP8 DUP3 DUP9 ADD PUSH2 0x4EBB JUMP JUMPDEST SWAP2 POP POP SWAP3 SWAP6 SWAP2 SWAP5 POP SWAP3 POP JUMP JUMPDEST PUSH1 0x20 DUP2 MSTORE PUSH1 0x0 DUP3 MLOAD PUSH2 0x1C0 DUP1 PUSH1 0x20 DUP6 ADD MSTORE PUSH2 0x51F9 PUSH2 0x1E0 DUP6 ADD DUP4 PUSH2 0x4E36 JUMP JUMPDEST SWAP2 POP PUSH1 0x20 DUP6 ADD MLOAD PUSH1 0x1F NOT DUP1 DUP7 DUP6 SUB ADD PUSH1 0x40 DUP8 ADD MSTORE PUSH2 0x5217 DUP5 DUP4 PUSH2 0x4E36 JUMP JUMPDEST SWAP4 POP PUSH1 0x40 DUP8 ADD MLOAD SWAP2 POP DUP1 DUP7 DUP6 SUB ADD PUSH1 0x60 DUP8 ADD MSTORE PUSH2 0x5234 DUP5 DUP4 PUSH2 0x4E36 JUMP JUMPDEST SWAP4 POP PUSH1 0x60 DUP8 ADD MLOAD SWAP2 POP DUP1 DUP7 DUP6 SUB ADD PUSH1 0x80 DUP8 ADD MSTORE PUSH2 0x5251 DUP5 DUP4 PUSH2 0x4E36 JUMP JUMPDEST SWAP4 POP PUSH1 0x80 DUP8 ADD MLOAD SWAP2 POP DUP1 DUP7 DUP6 SUB ADD PUSH1 0xA0 DUP8 ADD MSTORE PUSH2 0x526E DUP5 DUP4 PUSH2 0x4E36 JUMP JUMPDEST SWAP4 POP PUSH1 0xA0 DUP8 ADD MLOAD SWAP2 POP DUP1 DUP7 DUP6 SUB ADD PUSH1 0xC0 DUP8 ADD MSTORE PUSH2 0x528B DUP5 DUP4 PUSH2 0x4E36 JUMP JUMPDEST SWAP4 POP PUSH1 0xC0 DUP8 ADD MLOAD SWAP2 POP DUP1 DUP7 DUP6 SUB ADD PUSH1 0xE0 DUP8 ADD MSTORE PUSH2 0x52A8 DUP5 DUP4 PUSH2 0x4E36 JUMP JUMPDEST SWAP4 POP PUSH1 0xE0 DUP8 ADD MLOAD SWAP2 POP PUSH2 0x100 DUP2 DUP8 DUP7 SUB ADD DUP2 DUP9 ADD MSTORE PUSH2 0x52C7 DUP6 DUP5 PUSH2 0x4E36 JUMP JUMPDEST SWAP5 POP DUP1 DUP9 ADD MLOAD SWAP3 POP POP PUSH2 0x120 DUP2 DUP8 DUP7 SUB ADD DUP2 DUP9 ADD MSTORE PUSH2 0x52E6 DUP6 DUP5 PUSH2 0x4E36 JUMP JUMPDEST SWAP5 POP DUP1 DUP9 ADD MLOAD SWAP3 POP POP PUSH2 0x140 DUP2 DUP8 DUP7 SUB ADD DUP2 DUP9 ADD MSTORE PUSH2 0x5305 DUP6 DUP5 PUSH2 0x4E36 JUMP JUMPDEST SWAP5 POP DUP1 DUP9 ADD MLOAD SWAP3 POP POP PUSH2 0x160 DUP3 DUP2 DUP9 ADD MSTORE DUP1 DUP9 ADD MLOAD SWAP3 POP POP PUSH2 0x180 DUP2 DUP8 DUP7 SUB ADD DUP2 DUP9 ADD MSTORE PUSH2 0x5333 DUP6 DUP5 PUSH2 0x4E36 JUMP JUMPDEST SWAP5 POP DUP1 DUP9 ADD MLOAD SWAP3 POP POP PUSH2 0x1A0 DUP2 DUP8 DUP7 SUB ADD DUP2 DUP9 ADD MSTORE PUSH2 0x5352 DUP6 DUP5 PUSH2 0x4E36 JUMP JUMPDEST SWAP1 DUP9 ADD MLOAD DUP8 DUP3 SUB SWAP1 SWAP3 ADD DUP5 DUP9 ADD MSTORE SWAP4 POP SWAP1 POP PUSH2 0x4446 DUP4 DUP3 PUSH2 0x4E36 JUMP JUMPDEST PUSH1 0x0 DUP1 PUSH1 0x0 DUP1 PUSH1 0x80 DUP6 DUP8 SUB SLT ISZERO PUSH2 0x5384 JUMPI PUSH1 0x0 DUP1 REVERT JUMPDEST DUP5 CALLDATALOAD SWAP4 POP PUSH1 0x20 DUP6 ADD CALLDATALOAD SWAP3 POP PUSH1 0x40 DUP6 ADD CALLDATALOAD PUSH1 0x1 PUSH1 0x1 PUSH1 0x40 SHL SUB DUP1 DUP3 GT ISZERO PUSH2 0x53A9 JUMPI PUSH1 0x0 DUP1 REVERT JUMPDEST PUSH2 0x53B5 DUP9 DUP4 DUP10 ADD PUSH2 0x4EBB JUMP JUMPDEST SWAP4 POP PUSH1 0x60 DUP8 ADD CALLDATALOAD SWAP2 POP DUP1 DUP3 GT ISZERO PUSH2 0x53CB JUMPI PUSH1 0x0 DUP1 REVERT JUMPDEST POP PUSH2 0x51CE DUP8 DUP3 DUP9 ADD PUSH2 0x4EBB JUMP JUMPDEST PUSH1 0x0 DUP1 PUSH1 0x0 DUP1 PUSH1 0x0 DUP1 PUSH1 0xC0 DUP8 DUP10 SUB SLT ISZERO PUSH2 0x53F1 JUMPI PUSH1 0x0 DUP1 REVERT JUMPDEST DUP7 CALLDATALOAD PUSH1 0x1 PUSH1 0x1 PUSH1 0x40 SHL SUB DUP1 DUP3 GT ISZERO PUSH2 0x5408 JUMPI PUSH1 0x0 DUP1 REVERT JUMPDEST PUSH2 0x5414 DUP11 DUP4 DUP12 ADD PUSH2 0x4EBB JUMP JUMPDEST SWAP8 POP PUSH1 0x20 DUP10 ADD CALLDATALOAD SWAP2 POP DUP1 DUP3 GT ISZERO PUSH2 0x542A JUMPI PUSH1 0x0 DUP1 REVERT JUMPDEST POP PUSH2 0x5437 DUP10 DUP3 DUP11 ADD PUSH2 0x4EBB JUMP JUMPDEST SWAP6 POP POP PUSH2 0x5446 PUSH1 0x40 DUP9 ADD PUSH2 0x4F77 JUMP JUMPDEST SWAP4 POP PUSH2 0x5454 PUSH1 0x60 DUP9 ADD PUSH2 0x4F77 JUMP JUMPDEST SWAP3 POP PUSH2 0x5462 PUSH1 0x80 DUP9 ADD PUSH2 0x4F77 JUMP JUMPDEST SWAP2 POP PUSH2 0x5470 PUSH1 0xA0 DUP9 ADD PUSH2 0x4F77 JUMP JUMPDEST SWAP1 POP SWAP3 SWAP6 POP SWAP3 SWAP6 POP SWAP3 SWAP6 JUMP JUMPDEST PUSH1 0x0 DUP1 PUSH1 0x40 DUP4 DUP6 SUB SLT ISZERO PUSH2 0x548F JUMPI PUSH1 0x0 DUP1 REVERT JUMPDEST PUSH2 0x5498 DUP4 PUSH2 0x4F77 JUMP JUMPDEST SWAP2 POP PUSH2 0xC8B PUSH1 0x20 DUP5 ADD PUSH2 0x4F77 JUMP JUMPDEST PUSH1 0x1 DUP2 DUP2 SHR SWAP1 DUP3 AND DUP1 PUSH2 0x54BA JUMPI PUSH1 0x7F DUP3 AND SWAP2 POP JUMPDEST PUSH1 0x20 DUP3 LT DUP2 EQ ISZERO PUSH2 0x4B02 JUMPI PUSH4 0x4E487B71 PUSH1 0xE0 SHL PUSH1 0x0 MSTORE PUSH1 0x22 PUSH1 0x4 MSTORE PUSH1 0x24 PUSH1 0x0 REVERT JUMPDEST PUSH1 0x20 DUP1 DUP3 MSTORE PUSH1 0x1F SWAP1 DUP3 ADD MSTORE PUSH32 0x5265656E7472616E637947756172643A207265656E7472616E742063616C6C00 PUSH1 0x40 DUP3 ADD MSTORE PUSH1 0x60 ADD SWAP1 JUMP JUMPDEST PUSH4 0x4E487B71 PUSH1 0xE0 SHL PUSH1 0x0 MSTORE PUSH1 0x11 PUSH1 0x4 MSTORE PUSH1 0x24 PUSH1 0x0 REVERT JUMPDEST PUSH1 0x0 PUSH1 0x0 NOT DUP3 EQ ISZERO PUSH2 0x553C JUMPI PUSH2 0x553C PUSH2 0x5512 JUMP JUMPDEST POP PUSH1 0x1 ADD SWAP1 JUMP JUMPDEST PUSH1 0x20 DUP1 DUP3 MSTORE PUSH1 0x2E SWAP1 DUP3 ADD MSTORE PUSH32 0x4552433732313A2063616C6C6572206973206E6F7420746F6B656E206F776E65 PUSH1 0x40 DUP3 ADD MSTORE PUSH14 0x1C881B9BDC88185C1C1C9BDD9959 PUSH1 0x92 SHL PUSH1 0x60 DUP3 ADD MSTORE PUSH1 0x80 ADD SWAP1 JUMP JUMPDEST PUSH1 0x0 DUP2 PUSH1 0x0 NOT DIV DUP4 GT DUP3 ISZERO ISZERO AND ISZERO PUSH2 0x55AB JUMPI PUSH2 0x55AB PUSH2 0x5512 JUMP JUMPDEST POP MUL SWAP1 JUMP JUMPDEST PUSH4 0x4E487B71 PUSH1 0xE0 SHL PUSH1 0x0 MSTORE PUSH1 0x12 PUSH1 0x4 MSTORE PUSH1 0x24 PUSH1 0x0 REVERT JUMPDEST PUSH1 0x0 DUP3 PUSH2 0x55D5 JUMPI PUSH2 0x55D5 PUSH2 0x55B0 JUMP JUMPDEST POP DIV SWAP1 JUMP JUMPDEST PUSH1 0x0 DUP3 DUP3 LT ISZERO PUSH2 0x55EC JUMPI PUSH2 0x55EC PUSH2 0x5512 JUMP JUMPDEST POP SUB SWAP1 JUMP JUMPDEST PUSH4 0x4E487B71 PUSH1 0xE0 SHL PUSH1 0x0 MSTORE PUSH1 0x32 PUSH1 0x4 MSTORE PUSH1 0x24 PUSH1 0x0 REVERT JUMPDEST PUSH1 0x0 DUP3 PUSH2 0x5616 JUMPI PUSH2 0x5616 PUSH2 0x55B0 JUMP JUMPDEST POP MOD SWAP1 JUMP JUMPDEST PUSH1 0x0 PUSH1 0x20 DUP3 DUP5 SUB SLT ISZERO PUSH2 0x562D JUMPI PUSH1 0x0 DUP1 REVERT JUMPDEST POP MLOAD SWAP2 SWAP1 POP JUMP JUMPDEST PUSH1 0x0 PUSH1 0x20 DUP3 DUP5 SUB SLT ISZERO PUSH2 0x5646 JUMPI PUSH1 0x0 DUP1 REVERT JUMPDEST DUP2 MLOAD PUSH2 0x1C1A DUP2 PUSH2 0x512E JUMP JUMPDEST PUSH1 0x0 DUP3 MLOAD PUSH2 0x5663 DUP2 DUP5 PUSH1 0x20 DUP8 ADD PUSH2 0x4E0A JUMP JUMPDEST SWAP2 SWAP1 SWAP2 ADD SWAP3 SWAP2 POP POP JUMP JUMPDEST PUSH1 0x0 DUP4 MLOAD PUSH2 0x567F DUP2 DUP5 PUSH1 0x20 DUP9 ADD PUSH2 0x4E0A JUMP JUMPDEST DUP4 MLOAD SWAP1 DUP4 ADD SWAP1 PUSH2 0x5693 DUP2 DUP4 PUSH1 0x20 DUP9 ADD PUSH2 0x4E0A JUMP JUMPDEST ADD SWAP5 SWAP4 POP POP POP POP JUMP JUMPDEST PUSH1 0x0 DUP3 NOT DUP3 GT ISZERO PUSH2 0x56AF JUMPI PUSH2 0x56AF PUSH2 0x5512 JUMP JUMPDEST POP ADD SWAP1 JUMP JUMPDEST PUSH1 0x20 DUP1 DUP3 MSTORE PUSH1 0x32 SWAP1 DUP3 ADD MSTORE PUSH32 0x4552433732313A207472616E7366657220746F206E6F6E204552433732315265 PUSH1 0x40 DUP3 ADD MSTORE PUSH18 0x31B2B4BB32B91034B6B83632B6B2B73A32B9 PUSH1 0x71 SHL PUSH1 0x60 DUP3 ADD MSTORE PUSH1 0x80 ADD SWAP1 JUMP JUMPDEST PUSH1 0x20 DUP1 DUP3 MSTORE PUSH1 0x2B SWAP1 DUP3 ADD MSTORE PUSH32 0x496E697469616C697A61626C653A20636F6E7472616374206973206E6F742069 PUSH1 0x40 DUP3 ADD MSTORE PUSH11 0x6E697469616C697A696E67 PUSH1 0xA8 SHL PUSH1 0x60 DUP3 ADD MSTORE PUSH1 0x80 ADD SWAP1 JUMP JUMPDEST PUSH1 0x1 PUSH1 0x1 PUSH1 0xA0 SHL SUB DUP6 DUP2 AND DUP3 MSTORE DUP5 AND PUSH1 0x20 DUP3 ADD MSTORE PUSH1 0x40 DUP2 ADD DUP4 SWAP1 MSTORE PUSH1 0x80 PUSH1 0x60 DUP3 ADD DUP2 SWAP1 MSTORE PUSH1 0x0 SWAP1 PUSH2 0x4446 SWAP1 DUP4 ADD DUP5 PUSH2 0x4E36 JUMP JUMPDEST PUSH1 0x0 PUSH1 0x20 DUP3 DUP5 SUB SLT ISZERO PUSH2 0x5796 JUMPI PUSH1 0x0 DUP1 REVERT JUMPDEST DUP2 MLOAD PUSH2 0x1C1A DUP2 PUSH2 0x4DD7 JUMP JUMPDEST PUSH1 0x1 PUSH1 0x1 PUSH1 0xA0 SHL SUB DUP10 DUP2 AND DUP3 MSTORE PUSH1 0x20 DUP3 ADD DUP10 SWAP1 MSTORE PUSH1 0x40 DUP3 ADD DUP9 SWAP1 MSTORE DUP7 AND PUSH1 0x60 DUP3 ADD MSTORE PUSH1 0x1 PUSH1 0x1 PUSH1 0xE0 SHL SUB NOT DUP6 AND PUSH1 0x80 DUP3 ADD MSTORE PUSH1 0xA0 DUP2 ADD DUP5 SWAP1 MSTORE PUSH1 0xC0 DUP2 ADD DUP4 SWAP1 MSTORE PUSH2 0x100 PUSH1 0xE0 DUP3 ADD DUP2 SWAP1 MSTORE PUSH1 0x0 SWAP1 PUSH2 0x57FA DUP4 DUP3 ADD DUP6 PUSH2 0x4E36 JUMP JUMPDEST SWAP12 SWAP11 POP POP POP POP POP POP POP POP POP POP POP JUMP JUMPDEST PUSH1 0x1 DUP1 PUSH1 0xA0 SHL SUB DUP5 AND DUP2 MSTORE DUP3 PUSH1 0x20 DUP3 ADD MSTORE PUSH1 0x60 PUSH1 0x40 DUP3 ADD MSTORE PUSH1 0x0 PUSH2 0x3605 PUSH1 0x60 DUP4 ADD DUP5 PUSH2 0x4E36 JUMP JUMPDEST PUSH1 0x1 DUP2 DUP2 JUMPDEST DUP1 DUP6 GT ISZERO PUSH2 0x586B JUMPI DUP2 PUSH1 0x0 NOT DIV DUP3 GT ISZERO PUSH2 0x5851 JUMPI PUSH2 0x5851 PUSH2 0x5512 JUMP JUMPDEST DUP1 DUP6 AND ISZERO PUSH2 0x585E JUMPI SWAP2 DUP2 MUL SWAP2 JUMPDEST SWAP4 DUP5 SHR SWAP4 SWAP1 DUP1 MUL SWAP1 PUSH2 0x5835 JUMP JUMPDEST POP SWAP3 POP SWAP3 SWAP1 POP JUMP JUMPDEST PUSH1 0x0 DUP3 PUSH2 0x5882 JUMPI POP PUSH1 0x1 PUSH2 0x8B2 JUMP JUMPDEST DUP2 PUSH2 0x588F JUMPI POP PUSH1 0x0 PUSH2 0x8B2 JUMP JUMPDEST DUP2 PUSH1 0x1 DUP2 EQ PUSH2 0x58A5 JUMPI PUSH1 0x2 DUP2 EQ PUSH2 0x58AF JUMPI PUSH2 0x58CB JUMP JUMPDEST PUSH1 0x1 SWAP2 POP POP PUSH2 0x8B2 JUMP JUMPDEST PUSH1 0xFF DUP5 GT ISZERO PUSH2 0x58C0 JUMPI PUSH2 0x58C0 PUSH2 0x5512 JUMP JUMPDEST POP POP PUSH1 0x1 DUP3 SHL PUSH2 0x8B2 JUMP JUMPDEST POP PUSH1 0x20 DUP4 LT PUSH2 0x133 DUP4 LT AND PUSH1 0x4E DUP5 LT PUSH1 0xB DUP5 LT AND OR ISZERO PUSH2 0x58EE JUMPI POP DUP2 DUP2 EXP PUSH2 0x8B2 JUMP JUMPDEST PUSH2 0x58F8 DUP4 DUP4 PUSH2 0x5830 JUMP JUMPDEST DUP1 PUSH1 0x0 NOT DIV DUP3 GT ISZERO PUSH2 0x590C JUMPI PUSH2 0x590C PUSH2 0x5512 JUMP JUMPDEST MUL SWAP4 SWAP3 POP POP POP JUMP JUMPDEST PUSH1 0x0 PUSH2 0x1C1A DUP4 DUP4 PUSH2 0x5873 JUMP INVALID LOG2 PUSH5 0x6970667358 0x22 SLT KECCAK256 0xF9 CALL DUP8 0xDC SWAP2 MLOAD CREATE2 SWAP6 SGT PUSH28 0x12D9337AA970D3FF7B553D223334048C18D47B2E7B3D64736F6C6343 STOP ADDMOD 0xC STOP CALLER "},"methodIdentifiers":{"_admin()":"01bc45c9","_algorithm()":"a1bb1fcc","_be()":"6d0257e2","_counter()":"7cd49fde","_fee()":"c5b37c22","_paramsAddress()":"adfc7dae","_tokenAddrErc721()":"e653c650","_uri()":"0dccc9ad","_whitelistFee()":"5275f37a","addWhitelist(address[],uint256)":"645b6701","approve(address,uint256)":"095ea7b3","balanceOf(address)":"70a08231","changeAdmin(address)":"8f283970","changeBaseURI(string)":"39a0c6f9","changeOracle(address)":"47c421b5","changeToken(address)":"66829b16","fulfill(bytes32,bytes)":"7c1de7e1","getApproved(uint256)":"081812fc","getParamValues(uint256)":"c0dca239","initialize(string,string,address,address,address,address)":"e56f2fe4","isApprovedForAll(address,address)":"e985e9c5","mint()":"1249c58b","mintByToken(uint256)":"80d953dd","mintWhitelist()":"2d3df31f","name()":"06fdde03","owner()":"8da5cb5b","ownerMint(uint256)":"f19e75d4","ownerOf(uint256)":"6352211e","pause()":"8456cb59","paused()":"5c975abb","renounceOwnership()":"715018a6","requestData(bytes32,uint256,string,string)":"db76746b","royaltyInfo(uint256,uint256)":"2a55205a","safeTransferFrom(address,address,uint256)":"42842e0e","safeTransferFrom(address,address,uint256,bytes)":"b88d4fde","setAlgo(string)":"0764da1d","setApprovalForAll(address,bool)":"a22cb465","setBE(address)":"973e5d25","setFee(uint256)":"69fe0e2d","setWhitelistFee(uint256)":"c6283c38","supportsInterface(bytes4)":"01ffc9a7","symbol()":"95d89b41","tokenURI(uint256)":"c87b56dd","transferFrom(address,address,uint256)":"23b872dd","transferOwnership(address)":"f2fde38b","unpause()":"3f4ba83a","withdraw(uint256)":"2e1a7d4d","withdrawLink()":"8dc654a2"}},"storageLayout":{"storage":[{"astId":2915,"contract":"contracts/nft/AVATARS.sol:AVATARS","label":"_initialized","offset":0,"slot":"0","type":"t_uint8"},{"astId":2918,"contract":"contracts/nft/AVATARS.sol:AVATARS","label":"_initializing","offset":1,"slot":"0","type":"t_bool"},{"astId":5397,"contract":"contracts/nft/AVATARS.sol:AVATARS","label":"__gap","offset":0,"slot":"1","type":"t_array(t_uint256)50_storage"},{"astId":5741,"contract":"contracts/nft/AVATARS.sol:AVATARS","label":"__gap","offset":0,"slot":"51","type":"t_array(t_uint256)50_storage"},{"astId":3352,"contract":"contracts/nft/AVATARS.sol:AVATARS","label":"_name","offset":0,"slot":"101","type":"t_string_storage"},{"astId":3354,"contract":"contracts/nft/AVATARS.sol:AVATARS","label":"_symbol","offset":0,"slot":"102","type":"t_string_storage"},{"astId":3358,"contract":"contracts/nft/AVATARS.sol:AVATARS","label":"_owners","offset":0,"slot":"103","type":"t_mapping(t_uint256,t_address)"},{"astId":3362,"contract":"contracts/nft/AVATARS.sol:AVATARS","label":"_balances","offset":0,"slot":"104","type":"t_mapping(t_address,t_uint256)"},{"astId":3366,"contract":"contracts/nft/AVATARS.sol:AVATARS","label":"_tokenApprovals","offset":0,"slot":"105","type":"t_mapping(t_uint256,t_address)"},{"astId":3372,"contract":"contracts/nft/AVATARS.sol:AVATARS","label":"_operatorApprovals","offset":0,"slot":"106","type":"t_mapping(t_address,t_mapping(t_address,t_bool))"},{"astId":4214,"contract":"contracts/nft/AVATARS.sol:AVATARS","label":"__gap","offset":0,"slot":"107","type":"t_array(t_uint256)44_storage"},{"astId":3080,"contract":"contracts/nft/AVATARS.sol:AVATARS","label":"_paused","offset":0,"slot":"151","type":"t_bool"},{"astId":3185,"contract":"contracts/nft/AVATARS.sol:AVATARS","label":"__gap","offset":0,"slot":"152","type":"t_array(t_uint256)49_storage"},{"astId":4816,"contract":"contracts/nft/AVATARS.sol:AVATARS","label":"__gap","offset":0,"slot":"201","type":"t_array(t_uint256)50_storage"},{"astId":3200,"contract":"contracts/nft/AVATARS.sol:AVATARS","label":"_status","offset":0,"slot":"251","type":"t_uint256"},{"astId":3244,"contract":"contracts/nft/AVATARS.sol:AVATARS","label":"__gap","offset":0,"slot":"252","type":"t_array(t_uint256)49_storage"},{"astId":2768,"contract":"contracts/nft/AVATARS.sol:AVATARS","label":"_owner","offset":0,"slot":"301","type":"t_address"},{"astId":2888,"contract":"contracts/nft/AVATARS.sol:AVATARS","label":"__gap","offset":0,"slot":"302","type":"t_array(t_uint256)49_storage"},{"astId":319,"contract":"contracts/nft/AVATARS.sol:AVATARS","label":"s_ens","offset":0,"slot":"351","type":"t_contract(ENSInterface)973"},{"astId":321,"contract":"contracts/nft/AVATARS.sol:AVATARS","label":"s_ensNode","offset":0,"slot":"352","type":"t_bytes32"},{"astId":324,"contract":"contracts/nft/AVATARS.sol:AVATARS","label":"s_link","offset":0,"slot":"353","type":"t_contract(LinkTokenInterface)1068"},{"astId":327,"contract":"contracts/nft/AVATARS.sol:AVATARS","label":"s_oracle","offset":0,"slot":"354","type":"t_contract(OperatorInterface)1148"},{"astId":329,"contract":"contracts/nft/AVATARS.sol:AVATARS","label":"s_requestCount","offset":0,"slot":"355","type":"t_uint256"},{"astId":333,"contract":"contracts/nft/AVATARS.sol:AVATARS","label":"s_pendingRequests","offset":0,"slot":"356","type":"t_mapping(t_bytes32,t_address)"},{"astId":6743,"contract":"contracts/nft/AVATARS.sol:AVATARS","label":"_admin","offset":0,"slot":"357","type":"t_address"},{"astId":6745,"contract":"contracts/nft/AVATARS.sol:AVATARS","label":"_be","offset":0,"slot":"358","type":"t_address"},{"astId":6747,"contract":"contracts/nft/AVATARS.sol:AVATARS","label":"_paramsAddress","offset":0,"slot":"359","type":"t_address"},{"astId":6749,"contract":"contracts/nft/AVATARS.sol:AVATARS","label":"_algorithm","offset":0,"slot":"360","type":"t_string_storage"},{"astId":6751,"contract":"contracts/nft/AVATARS.sol:AVATARS","label":"_counter","offset":0,"slot":"361","type":"t_uint256"},{"astId":6753,"contract":"contracts/nft/AVATARS.sol:AVATARS","label":"_uri","offset":0,"slot":"362","type":"t_string_storage"},{"astId":6755,"contract":"contracts/nft/AVATARS.sol:AVATARS","label":"_tokenAddrErc721","offset":0,"slot":"363","type":"t_address"},{"astId":6757,"contract":"contracts/nft/AVATARS.sol:AVATARS","label":"_fee","offset":0,"slot":"364","type":"t_uint256"},{"astId":6761,"contract":"contracts/nft/AVATARS.sol:AVATARS","label":"_whiteList","offset":0,"slot":"365","type":"t_mapping(t_address,t_uint256)"},{"astId":6763,"contract":"contracts/nft/AVATARS.sol:AVATARS","label":"_whitelistFee","offset":0,"slot":"366","type":"t_uint256"},{"astId":6773,"contract":"contracts/nft/AVATARS.sol:AVATARS","label":"_moods","offset":0,"slot":"367","type":"t_mapping(t_string_memory_ptr,t_struct(Mood)6768_storage)"},{"astId":6782,"contract":"contracts/nft/AVATARS.sol:AVATARS","label":"_nations","offset":0,"slot":"368","type":"t_array(t_string_storage)dyn_storage"},{"astId":6785,"contract":"contracts/nft/AVATARS.sol:AVATARS","label":"_emotions","offset":0,"slot":"369","type":"t_array(t_string_storage)dyn_storage"},{"astId":6788,"contract":"contracts/nft/AVATARS.sol:AVATARS","label":"_emotionTimes","offset":0,"slot":"370","type":"t_array(t_string_storage)dyn_storage"},{"astId":6791,"contract":"contracts/nft/AVATARS.sol:AVATARS","label":"_dnas","offset":0,"slot":"371","type":"t_array(t_string_storage)dyn_storage"},{"astId":6794,"contract":"contracts/nft/AVATARS.sol:AVATARS","label":"_skins3","offset":0,"slot":"372","type":"t_array(t_string_storage)dyn_storage"},{"astId":6797,"contract":"contracts/nft/AVATARS.sol:AVATARS","label":"_beards4","offset":0,"slot":"373","type":"t_array(t_string_storage)dyn_storage"},{"astId":6800,"contract":"contracts/nft/AVATARS.sol:AVATARS","label":"_hairs4","offset":0,"slot":"374","type":"t_array(t_string_storage)dyn_storage"},{"astId":6803,"contract":"contracts/nft/AVATARS.sol:AVATARS","label":"_hairs3","offset":0,"slot":"375","type":"t_array(t_string_storage)dyn_storage"},{"astId":6806,"contract":"contracts/nft/AVATARS.sol:AVATARS","label":"_tops","offset":0,"slot":"376","type":"t_array(t_string_storage)dyn_storage"},{"astId":6809,"contract":"contracts/nft/AVATARS.sol:AVATARS","label":"_bottoms","offset":0,"slot":"377","type":"t_array(t_string_storage)dyn_storage"},{"astId":6812,"contract":"contracts/nft/AVATARS.sol:AVATARS","label":"_shoes","offset":0,"slot":"378","type":"t_array(t_string_storage)dyn_storage"},{"astId":6815,"contract":"contracts/nft/AVATARS.sol:AVATARS","label":"_tatoos","offset":0,"slot":"379","type":"t_array(t_string_storage)dyn_storage"},{"astId":6818,"contract":"contracts/nft/AVATARS.sol:AVATARS","label":"_glasses","offset":0,"slot":"380","type":"t_array(t_string_storage)dyn_storage"},{"astId":6821,"contract":"contracts/nft/AVATARS.sol:AVATARS","label":"_gloves","offset":0,"slot":"381","type":"t_array(t_string_storage)dyn_storage"}],"types":{"t_address":{"encoding":"inplace","label":"address","numberOfBytes":"20"},"t_array(t_string_storage)dyn_storage":{"base":"t_string_storage","encoding":"dynamic_array","label":"string[]","numberOfBytes":"32"},"t_array(t_uint256)44_storage":{"base":"t_uint256","encoding":"inplace","label":"uint256[44]","numberOfBytes":"1408"},"t_array(t_uint256)49_storage":{"base":"t_uint256","encoding":"inplace","label":"uint256[49]","numberOfBytes":"1568"},"t_array(t_uint256)50_storage":{"base":"t_uint256","encoding":"inplace","label":"uint256[50]","numberOfBytes":"1600"},"t_bool":{"encoding":"inplace","label":"bool","numberOfBytes":"1"},"t_bytes32":{"encoding":"inplace","label":"bytes32","numberOfBytes":"32"},"t_contract(ENSInterface)973":{"encoding":"inplace","label":"contract ENSInterface","numberOfBytes":"20"},"t_contract(LinkTokenInterface)1068":{"encoding":"inplace","label":"contract LinkTokenInterface","numberOfBytes":"20"},"t_contract(OperatorInterface)1148":{"encoding":"inplace","label":"contract OperatorInterface","numberOfBytes":"20"},"t_mapping(t_address,t_bool)":{"encoding":"mapping","key":"t_address","label":"mapping(address => bool)","numberOfBytes":"32","value":"t_bool"},"t_mapping(t_address,t_mapping(t_address,t_bool))":{"encoding":"mapping","key":"t_address","label":"mapping(address => mapping(address => bool))","numberOfBytes":"32","value":"t_mapping(t_address,t_bool)"},"t_mapping(t_address,t_uint256)":{"encoding":"mapping","key":"t_address","label":"mapping(address => uint256)","numberOfBytes":"32","value":"t_uint256"},"t_mapping(t_bytes32,t_address)":{"encoding":"mapping","key":"t_bytes32","label":"mapping(bytes32 => address)","numberOfBytes":"32","value":"t_address"},"t_mapping(t_string_memory_ptr,t_struct(Mood)6768_storage)":{"encoding":"mapping","key":"t_string_memory_ptr","label":"mapping(string => struct AVATARS.Mood)","numberOfBytes":"32","value":"t_struct(Mood)6768_storage"},"t_mapping(t_uint256,t_address)":{"encoding":"mapping","key":"t_uint256","label":"mapping(uint256 => address)","numberOfBytes":"32","value":"t_address"},"t_string_memory_ptr":{"encoding":"bytes","label":"string","numberOfBytes":"32"},"t_string_storage":{"encoding":"bytes","label":"string","numberOfBytes":"32"},"t_struct(Mood)6768_storage":{"encoding":"inplace","label":"struct AVATARS.Mood","members":[{"astId":6765,"contract":"contracts/nft/AVATARS.sol:AVATARS","label":"tempEmo","offset":0,"slot":"0","type":"t_string_storage"},{"astId":6767,"contract":"contracts/nft/AVATARS.sol:AVATARS","label":"tempLastTime","offset":0,"slot":"1","type":"t_uint256"}],"numberOfBytes":"64"},"t_uint256":{"encoding":"inplace","label":"uint256","numberOfBytes":"32"},"t_uint8":{"encoding":"inplace","label":"uint8","numberOfBytes":"1"}}}}}}