{"contracts/lib/configurations/GenerativeBoilerplateNFTConfiguration.sol":{"GenerativeBoilerplateNFTConfiguration":{"abi":[{"inputs":[],"name":"CREATE_PROJECT_FEE","outputs":[{"internalType":"string","name":"","type":"string"}],"stateMutability":"view","type":"function"},{"inputs":[],"name":"FEE_TOKEN","outputs":[{"internalType":"string","name":"","type":"string"}],"stateMutability":"view","type":"function"},{"inputs":[],"name":"GENERATIVE_NFT_TEMPLATE","outputs":[{"internalType":"string","name":"","type":"string"}],"stateMutability":"view","type":"function"},{"inputs":[],"name":"MINT_NFT_FEE","outputs":[{"internalType":"string","name":"","type":"string"}],"stateMutability":"view","type":"function"}],"evm":{"bytecode":{"linkReferences":{},"object":"6101bb61003a600b82828239805160001a60731461002d57634e487b7160e01b600052600060045260246000fd5b30600052607381538281f3fe73000000000000000000000000000000000000000030146080604052600436106100555760003560e01c8062bd38941461005a57806373717b08146100ac57806390f4806b146100d4578063da41f33814610105575b600080fd5b6100966040518060400160405280601781526020017f47454e455241544956455f4e46545f54454d504c41544500000000000000000081525081565b6040516100a39190610130565b60405180910390f35b610096604051806040016040528060098152602001682322a2afaa27a5a2a760b91b81525081565b610096604051806040016040528060128152602001714352454154455f50524f4a4543545f46454560701b81525081565b6100966040518060400160405280600c81526020016b4d494e545f4e46545f46454560a01b81525081565b600060208083528351808285015260005b8181101561015d57858101830151858201604001528201610141565b8181111561016f576000604083870101525b50601f01601f191692909201604001939250505056fea2646970667358221220101e1385ee45814128388a389cd2c95244089240a247260db8d23268b3cfa7dd64736f6c634300080c0033","opcodes":"PUSH2 0x1BB PUSH2 0x3A PUSH1 0xB DUP3 DUP3 DUP3 CODECOPY DUP1 MLOAD PUSH1 0x0 BYTE PUSH1 0x73 EQ PUSH2 0x2D JUMPI PUSH4 0x4E487B71 PUSH1 0xE0 SHL PUSH1 0x0 MSTORE PUSH1 0x0 PUSH1 0x4 MSTORE PUSH1 0x24 PUSH1 0x0 REVERT JUMPDEST ADDRESS PUSH1 0x0 MSTORE PUSH1 0x73 DUP2 MSTORE8 DUP3 DUP2 RETURN INVALID PUSH20 0x0 ADDRESS EQ PUSH1 0x80 PUSH1 0x40 MSTORE PUSH1 0x4 CALLDATASIZE LT PUSH2 0x55 JUMPI PUSH1 0x0 CALLDATALOAD PUSH1 0xE0 SHR DUP1 PUSH3 0xBD3894 EQ PUSH2 0x5A JUMPI DUP1 PUSH4 0x73717B08 EQ PUSH2 0xAC JUMPI DUP1 PUSH4 0x90F4806B EQ PUSH2 0xD4 JUMPI DUP1 PUSH4 0xDA41F338 EQ PUSH2 0x105 JUMPI JUMPDEST PUSH1 0x0 DUP1 REVERT JUMPDEST PUSH2 0x96 PUSH1 0x40 MLOAD DUP1 PUSH1 0x40 ADD PUSH1 0x40 MSTORE DUP1 PUSH1 0x17 DUP2 MSTORE PUSH1 0x20 ADD PUSH32 0x47454E455241544956455F4E46545F54454D504C415445000000000000000000 DUP2 MSTORE POP DUP2 JUMP JUMPDEST PUSH1 0x40 MLOAD PUSH2 0xA3 SWAP2 SWAP1 PUSH2 0x130 JUMP JUMPDEST PUSH1 0x40 MLOAD DUP1 SWAP2 SUB SWAP1 RETURN JUMPDEST PUSH2 0x96 PUSH1 0x40 MLOAD DUP1 PUSH1 0x40 ADD PUSH1 0x40 MSTORE DUP1 PUSH1 0x9 DUP2 MSTORE PUSH1 0x20 ADD PUSH9 0x2322A2AFAA27A5A2A7 PUSH1 0xB9 SHL DUP2 MSTORE POP DUP2 JUMP JUMPDEST PUSH2 0x96 PUSH1 0x40 MLOAD DUP1 PUSH1 0x40 ADD PUSH1 0x40 MSTORE DUP1 PUSH1 0x12 DUP2 MSTORE PUSH1 0x20 ADD PUSH18 0x4352454154455F50524F4A4543545F464545 PUSH1 0x70 SHL DUP2 MSTORE POP DUP2 JUMP JUMPDEST PUSH2 0x96 PUSH1 0x40 MLOAD DUP1 PUSH1 0x40 ADD PUSH1 0x40 MSTORE DUP1 PUSH1 0xC DUP2 MSTORE PUSH1 0x20 ADD PUSH12 0x4D494E545F4E46545F464545 PUSH1 0xA0 SHL DUP2 MSTORE POP DUP2 JUMP JUMPDEST PUSH1 0x0 PUSH1 0x20 DUP1 DUP4 MSTORE DUP4 MLOAD DUP1 DUP3 DUP6 ADD MSTORE PUSH1 0x0 JUMPDEST DUP2 DUP2 LT ISZERO PUSH2 0x15D JUMPI DUP6 DUP2 ADD DUP4 ADD MLOAD DUP6 DUP3 ADD PUSH1 0x40 ADD MSTORE DUP3 ADD PUSH2 0x141 JUMP JUMPDEST DUP2 DUP2 GT ISZERO PUSH2 0x16F JUMPI PUSH1 0x0 PUSH1 0x40 DUP4 DUP8 ADD ADD MSTORE JUMPDEST POP PUSH1 0x1F ADD PUSH1 0x1F NOT AND SWAP3 SWAP1 SWAP3 ADD PUSH1 0x40 ADD SWAP4 SWAP3 POP POP POP JUMP INVALID LOG2 PUSH5 0x6970667358 0x22 SLT KECCAK256 LT 0x1E SGT DUP6 0xEE GASLIMIT DUP2 COINBASE 0x28 CODESIZE DUP11 CODESIZE SWAP13 0xD2 0xC9 MSTORE DIFFICULTY ADDMOD SWAP3 BLOCKHASH LOG2 SELFBALANCE 0x26 0xD 0xB8 0xD2 ORIGIN PUSH9 0xB3CFA7DD64736F6C63 NUMBER STOP ADDMOD 0xC STOP CALLER "},"methodIdentifiers":{"CREATE_PROJECT_FEE()":"90f4806b","FEE_TOKEN()":"73717b08","GENERATIVE_NFT_TEMPLATE()":"00bd3894","MINT_NFT_FEE()":"da41f338"}},"storageLayout":{"storage":[],"types":null}}}}