{"contracts/nft/GenerativeBoilerplateNFT.sol":{"GenerativeBoilerplateNFT":{"abi":[{"anonymous":false,"inputs":[{"indexed":true,"internalType":"address","name":"owner","type":"address"},{"indexed":true,"internalType":"address","name":"approved","type":"address"},{"indexed":true,"internalType":"uint256","name":"tokenId","type":"uint256"}],"name":"Approval","type":"event"},{"anonymous":false,"inputs":[{"indexed":true,"internalType":"address","name":"owner","type":"address"},{"indexed":true,"internalType":"address","name":"operator","type":"address"},{"indexed":false,"internalType":"bool","name":"approved","type":"bool"}],"name":"ApprovalForAll","type":"event"},{"anonymous":false,"inputs":[{"indexed":false,"internalType":"address","name":"sender","type":"address"},{"indexed":false,"internalType":"uint256","name":"projectId","type":"uint256"},{"indexed":false,"internalType":"bytes32[]","name":"seeds","type":"bytes32[]"}],"name":"GenerateSeeds","type":"event"},{"anonymous":false,"inputs":[{"indexed":false,"internalType":"uint8","name":"version","type":"uint8"}],"name":"Initialized","type":"event"},{"anonymous":false,"inputs":[{"indexed":false,"internalType":"address","name":"sender","type":"address"},{"components":[{"internalType":"uint256","name":"_fromProjectId","type":"uint256"},{"internalType":"address","name":"_mintTo","type":"address"},{"internalType":"string[]","name":"_uriBatch","type":"string[]"},{"components":[{"internalType":"bytes32","name":"_seed","type":"bytes32"},{"components":[{"internalType":"uint8","name":"_typeValue","type":"uint8"},{"internalType":"uint256","name":"_max","type":"uint256"},{"internalType":"uint256","name":"_min","type":"uint256"},{"internalType":"uint8","name":"_decimal","type":"uint8"},{"internalType":"string[]","name":"_availableValues","type":"string[]"},{"internalType":"uint256","name":"_value","type":"uint256"},{"internalType":"bool","name":"_editable","type":"bool"}],"internalType":"struct BoilerplateParam.ParamTemplate[]","name":"_params","type":"tuple[]"}],"internalType":"struct BoilerplateParam.ParamsOfProject[]","name":"_paramsBatch","type":"tuple[]"}],"indexed":false,"internalType":"struct IGenerativeBoilerplateNFT.MintRequest","name":"request","type":"tuple"}],"name":"MintBatchNFT","type":"event"},{"anonymous":false,"inputs":[{"indexed":false,"internalType":"address","name":"account","type":"address"}],"name":"Paused","type":"event"},{"anonymous":false,"inputs":[{"indexed":true,"internalType":"bytes32","name":"role","type":"bytes32"},{"indexed":true,"internalType":"bytes32","name":"previousAdminRole","type":"bytes32"},{"indexed":true,"internalType":"bytes32","name":"newAdminRole","type":"bytes32"}],"name":"RoleAdminChanged","type":"event"},{"anonymous":false,"inputs":[{"indexed":true,"internalType":"bytes32","name":"role","type":"bytes32"},{"indexed":true,"internalType":"address","name":"account","type":"address"},{"indexed":true,"internalType":"address","name":"sender","type":"address"}],"name":"RoleGranted","type":"event"},{"anonymous":false,"inputs":[{"indexed":true,"internalType":"bytes32","name":"role","type":"bytes32"},{"indexed":true,"internalType":"address","name":"account","type":"address"},{"indexed":true,"internalType":"address","name":"sender","type":"address"}],"name":"RoleRevoked","type":"event"},{"anonymous":false,"inputs":[{"indexed":true,"internalType":"address","name":"from","type":"address"},{"indexed":true,"internalType":"address","name":"to","type":"address"},{"indexed":true,"internalType":"uint256","name":"tokenId","type":"uint256"}],"name":"Transfer","type":"event"},{"anonymous":false,"inputs":[{"indexed":false,"internalType":"address","name":"account","type":"address"}],"name":"Unpaused","type":"event"},{"inputs":[],"name":"DEFAULT_ADMIN_ROLE","outputs":[{"internalType":"bytes32","name":"","type":"bytes32"}],"stateMutability":"view","type":"function"},{"inputs":[],"name":"MINTER_ROLE","outputs":[{"internalType":"bytes32","name":"","type":"bytes32"}],"stateMutability":"view","type":"function"},{"inputs":[],"name":"PAUSER_ROLE","outputs":[{"internalType":"bytes32","name":"","type":"bytes32"}],"stateMutability":"view","type":"function"},{"inputs":[],"name":"_admin","outputs":[{"internalType":"address","name":"","type":"address"}],"stateMutability":"view","type":"function"},{"inputs":[{"internalType":"address","name":"","type":"address"},{"internalType":"address","name":"","type":"address"}],"name":"_approvalForAllSeeds","outputs":[{"internalType":"uint256","name":"","type":"uint256"}],"stateMutability":"view","type":"function"},{"inputs":[],"name":"_paramsAddress","outputs":[{"internalType":"address","name":"","type":"address"}],"stateMutability":"view","type":"function"},{"inputs":[{"internalType":"uint256","name":"","type":"uint256"}],"name":"_projects","outputs":[{"internalType":"uint256","name":"_fee","type":"uint256"},{"internalType":"address","name":"_feeToken","type":"address"},{"internalType":"uint256","name":"_mintMaxSupply","type":"uint256"},{"internalType":"uint256","name":"_mintTotalSupply","type":"uint256"},{"internalType":"string","name":"_script","type":"string"},{"internalType":"uint32","name":"_scriptType","type":"uint32"},{"internalType":"address","name":"_creator","type":"address"},{"internalType":"string","name":"_customUri","type":"string"},{"internalType":"string","name":"_projectName","type":"string"},{"internalType":"bool","name":"_clientSeed","type":"bool"},{"components":[{"internalType":"bytes32","name":"_seed","type":"bytes32"},{"components":[{"internalType":"uint8","name":"_typeValue","type":"uint8"},{"internalType":"uint256","name":"_max","type":"uint256"},{"internalType":"uint256","name":"_min","type":"uint256"},{"internalType":"uint8","name":"_decimal","type":"uint8"},{"internalType":"string[]","name":"_availableValues","type":"string[]"},{"internalType":"uint256","name":"_value","type":"uint256"},{"internalType":"bool","name":"_editable","type":"bool"}],"internalType":"struct BoilerplateParam.ParamTemplate[]","name":"_params","type":"tuple[]"}],"internalType":"struct BoilerplateParam.ParamsOfProject","name":"_paramsTemplate","type":"tuple"},{"internalType":"address","name":"_minterNFTInfo","type":"address"},{"internalType":"uint256","name":"_mintNotOwnerProjectMaxSupply","type":"uint256"},{"internalType":"uint256","name":"_mintNotOnwerProjectTotalSupply","type":"uint256"}],"stateMutability":"view","type":"function"},{"inputs":[{"internalType":"address","name":"to","type":"address"},{"internalType":"uint256","name":"tokenId","type":"uint256"}],"name":"approve","outputs":[],"stateMutability":"nonpayable","type":"function"},{"inputs":[{"internalType":"address","name":"operator","type":"address"},{"internalType":"uint256","name":"projectId","type":"uint256"}],"name":"approveForAllSeeds","outputs":[],"stateMutability":"nonpayable","type":"function"},{"inputs":[{"internalType":"address","name":"owner","type":"address"}],"name":"balanceOf","outputs":[{"internalType":"uint256","name":"","type":"uint256"}],"stateMutability":"view","type":"function"},{"inputs":[],"name":"baseTokenURI","outputs":[{"internalType":"string","name":"","type":"string"}],"stateMutability":"view","type":"function"},{"inputs":[{"internalType":"uint256","name":"tokenId","type":"uint256"}],"name":"burn","outputs":[],"stateMutability":"nonpayable","type":"function"},{"inputs":[{"internalType":"address","name":"newAdm","type":"address"}],"name":"changeAdmin","outputs":[],"stateMutability":"nonpayable","type":"function"},{"inputs":[{"internalType":"uint256","name":"_id","type":"uint256"}],"name":"exists","outputs":[{"internalType":"bool","name":"","type":"bool"}],"stateMutability":"view","type":"function"},{"inputs":[{"internalType":"uint256","name":"projectId","type":"uint256"},{"internalType":"uint256","name":"amount","type":"uint256"}],"name":"generateSeeds","outputs":[],"stateMutability":"nonpayable","type":"function"},{"inputs":[{"internalType":"uint256","name":"tokenId","type":"uint256"}],"name":"getApproved","outputs":[{"internalType":"address","name":"","type":"address"}],"stateMutability":"view","type":"function"},{"inputs":[{"internalType":"bytes32","name":"role","type":"bytes32"}],"name":"getRoleAdmin","outputs":[{"internalType":"bytes32","name":"","type":"bytes32"}],"stateMutability":"view","type":"function"},{"inputs":[{"internalType":"bytes32","name":"role","type":"bytes32"},{"internalType":"uint256","name":"index","type":"uint256"}],"name":"getRoleMember","outputs":[{"internalType":"address","name":"","type":"address"}],"stateMutability":"view","type":"function"},{"inputs":[{"internalType":"bytes32","name":"role","type":"bytes32"}],"name":"getRoleMemberCount","outputs":[{"internalType":"uint256","name":"","type":"uint256"}],"stateMutability":"view","type":"function"},{"inputs":[{"internalType":"bytes32","name":"role","type":"bytes32"},{"internalType":"address","name":"account","type":"address"}],"name":"grantRole","outputs":[],"stateMutability":"nonpayable","type":"function"},{"inputs":[{"internalType":"bytes32","name":"role","type":"bytes32"},{"internalType":"address","name":"account","type":"address"}],"name":"hasRole","outputs":[{"internalType":"bool","name":"","type":"bool"}],"stateMutability":"view","type":"function"},{"inputs":[{"internalType":"string","name":"name","type":"string"},{"internalType":"string","name":"symbol","type":"string"},{"internalType":"string","name":"baseTokenURI","type":"string"}],"name":"initialize","outputs":[],"stateMutability":"nonpayable","type":"function"},{"inputs":[{"internalType":"string","name":"name","type":"string"},{"internalType":"string","name":"symbol","type":"string"},{"internalType":"string","name":"baseUri","type":"string"},{"internalType":"address","name":"admin","type":"address"},{"internalType":"address","name":"paramsAddress","type":"address"}],"name":"initialize","outputs":[],"stateMutability":"nonpayable","type":"function"},{"inputs":[{"internalType":"address","name":"owner","type":"address"},{"internalType":"address","name":"operator","type":"address"}],"name":"isApprovedForAll","outputs":[{"internalType":"bool","name":"","type":"bool"}],"stateMutability":"view","type":"function"},{"inputs":[{"internalType":"address","name":"operator","type":"address"},{"internalType":"bytes32","name":"seed","type":"bytes32"},{"internalType":"uint256","name":"projectId","type":"uint256"}],"name":"isApprovedOrOwnerForSeed","outputs":[{"internalType":"bool","name":"","type":"bool"}],"stateMutability":"view","type":"function"},{"inputs":[{"internalType":"address","name":"to","type":"address"}],"name":"mint","outputs":[],"stateMutability":"nonpayable","type":"function"},{"inputs":[{"components":[{"internalType":"uint256","name":"_fromProjectId","type":"uint256"},{"internalType":"address","name":"_mintTo","type":"address"},{"internalType":"string[]","name":"_uriBatch","type":"string[]"},{"components":[{"internalType":"bytes32","name":"_seed","type":"bytes32"},{"components":[{"internalType":"uint8","name":"_typeValue","type":"uint8"},{"internalType":"uint256","name":"_max","type":"uint256"},{"internalType":"uint256","name":"_min","type":"uint256"},{"internalType":"uint8","name":"_decimal","type":"uint8"},{"internalType":"string[]","name":"_availableValues","type":"string[]"},{"internalType":"uint256","name":"_value","type":"uint256"},{"internalType":"bool","name":"_editable","type":"bool"}],"internalType":"struct BoilerplateParam.ParamTemplate[]","name":"_params","type":"tuple[]"}],"internalType":"struct BoilerplateParam.ParamsOfProject[]","name":"_paramsBatch","type":"tuple[]"}],"internalType":"struct IGenerativeBoilerplateNFT.MintRequest","name":"mintBatch","type":"tuple"}],"name":"mintBatchUniqueNFT","outputs":[],"stateMutability":"payable","type":"function"},{"inputs":[{"internalType":"address","name":"to","type":"address"},{"internalType":"string","name":"projectName","type":"string"},{"internalType":"uint256","name":"maxSupply","type":"uint256"},{"internalType":"uint256","name":"maxNotOwner","type":"uint256"},{"internalType":"string","name":"script","type":"string"},{"internalType":"uint32","name":"scriptType","type":"uint32"},{"internalType":"bool","name":"clientSeed","type":"bool"},{"internalType":"string","name":"uri","type":"string"},{"internalType":"uint256","name":"fee","type":"uint256"},{"internalType":"address","name":"feeAdd","type":"address"},{"components":[{"internalType":"bytes32","name":"_seed","type":"bytes32"},{"components":[{"internalType":"uint8","name":"_typeValue","type":"uint8"},{"internalType":"uint256","name":"_max","type":"uint256"},{"internalType":"uint256","name":"_min","type":"uint256"},{"internalType":"uint8","name":"_decimal","type":"uint8"},{"internalType":"string[]","name":"_availableValues","type":"string[]"},{"internalType":"uint256","name":"_value","type":"uint256"},{"internalType":"bool","name":"_editable","type":"bool"}],"internalType":"struct BoilerplateParam.ParamTemplate[]","name":"_params","type":"tuple[]"}],"internalType":"struct BoilerplateParam.ParamsOfProject","name":"paramsTemplate","type":"tuple"}],"name":"mintProject","outputs":[{"internalType":"uint256","name":"","type":"uint256"}],"stateMutability":"payable","type":"function"},{"inputs":[],"name":"name","outputs":[{"internalType":"string","name":"","type":"string"}],"stateMutability":"view","type":"function"},{"inputs":[{"internalType":"uint256","name":"tokenId","type":"uint256"}],"name":"ownerOf","outputs":[{"internalType":"address","name":"","type":"address"}],"stateMutability":"view","type":"function"},{"inputs":[{"internalType":"bytes32","name":"seed","type":"bytes32"},{"internalType":"uint256","name":"projectId","type":"uint256"}],"name":"ownerOfSeed","outputs":[{"internalType":"address","name":"","type":"address"}],"stateMutability":"view","type":"function"},{"inputs":[],"name":"pause","outputs":[],"stateMutability":"nonpayable","type":"function"},{"inputs":[],"name":"paused","outputs":[{"internalType":"bool","name":"","type":"bool"}],"stateMutability":"view","type":"function"},{"inputs":[{"internalType":"uint256","name":"projectId","type":"uint256"},{"internalType":"bytes32[]","name":"seeds","type":"bytes32[]"}],"name":"registerSeeds","outputs":[],"stateMutability":"nonpayable","type":"function"},{"inputs":[{"internalType":"bytes32","name":"role","type":"bytes32"},{"internalType":"address","name":"account","type":"address"}],"name":"renounceRole","outputs":[],"stateMutability":"nonpayable","type":"function"},{"inputs":[{"internalType":"bytes32","name":"role","type":"bytes32"},{"internalType":"address","name":"account","type":"address"}],"name":"revokeRole","outputs":[],"stateMutability":"nonpayable","type":"function"},{"inputs":[{"internalType":"uint256","name":"","type":"uint256"}],"name":"royalties","outputs":[{"internalType":"address","name":"recipient","type":"address"},{"internalType":"uint24","name":"amount","type":"uint24"},{"internalType":"bool","name":"isValue","type":"bool"}],"stateMutability":"view","type":"function"},{"inputs":[{"internalType":"uint256","name":"_tokenId","type":"uint256"},{"internalType":"uint256","name":"_salePrice","type":"uint256"}],"name":"royaltyInfo","outputs":[{"internalType":"address","name":"receiver","type":"address"},{"internalType":"uint256","name":"royaltyAmount","type":"uint256"}],"stateMutability":"view","type":"function"},{"inputs":[{"internalType":"address","name":"from","type":"address"},{"internalType":"address","name":"to","type":"address"},{"internalType":"uint256","name":"tokenId","type":"uint256"}],"name":"safeTransferFrom","outputs":[],"stateMutability":"nonpayable","type":"function"},{"inputs":[{"internalType":"address","name":"from","type":"address"},{"internalType":"address","name":"to","type":"address"},{"internalType":"uint256","name":"tokenId","type":"uint256"},{"internalType":"bytes","name":"data","type":"bytes"}],"name":"safeTransferFrom","outputs":[],"stateMutability":"nonpayable","type":"function"},{"inputs":[{"internalType":"address","name":"operator","type":"address"},{"internalType":"bool","name":"approved","type":"bool"}],"name":"setApprovalForAll","outputs":[],"stateMutability":"nonpayable","type":"function"},{"inputs":[{"internalType":"address","name":"_to","type":"address"},{"internalType":"uint256","name":"_id","type":"uint256"}],"name":"setCreator","outputs":[],"stateMutability":"nonpayable","type":"function"},{"inputs":[{"internalType":"uint256","name":"_tokenId","type":"uint256"},{"internalType":"address","name":"_recipient","type":"address"},{"internalType":"uint256","name":"_value","type":"uint256"}],"name":"setTokenRoyalty","outputs":[],"stateMutability":"nonpayable","type":"function"},{"inputs":[{"internalType":"bytes4","name":"interfaceId","type":"bytes4"}],"name":"supportsInterface","outputs":[{"internalType":"bool","name":"","type":"bool"}],"stateMutability":"view","type":"function"},{"inputs":[],"name":"symbol","outputs":[{"internalType":"string","name":"","type":"string"}],"stateMutability":"view","type":"function"},{"inputs":[{"internalType":"uint256","name":"index","type":"uint256"}],"name":"tokenByIndex","outputs":[{"internalType":"uint256","name":"","type":"uint256"}],"stateMutability":"view","type":"function"},{"inputs":[{"internalType":"address","name":"owner","type":"address"},{"internalType":"uint256","name":"index","type":"uint256"}],"name":"tokenOfOwnerByIndex","outputs":[{"internalType":"uint256","name":"","type":"uint256"}],"stateMutability":"view","type":"function"},{"inputs":[{"internalType":"uint256","name":"_tokenId","type":"uint256"}],"name":"tokenURI","outputs":[{"internalType":"string","name":"","type":"string"}],"stateMutability":"view","type":"function"},{"inputs":[],"name":"totalSupply","outputs":[{"internalType":"uint256","name":"","type":"uint256"}],"stateMutability":"view","type":"function"},{"inputs":[{"internalType":"address","name":"from","type":"address"},{"internalType":"address","name":"to","type":"address"},{"internalType":"uint256","name":"tokenId","type":"uint256"}],"name":"transferFrom","outputs":[],"stateMutability":"nonpayable","type":"function"},{"inputs":[{"internalType":"address","name":"from","type":"address"},{"internalType":"address","name":"to","type":"address"},{"internalType":"bytes32","name":"seed","type":"bytes32"},{"internalType":"uint256","name":"projectId","type":"uint256"}],"name":"transferSeed","outputs":[],"stateMutability":"nonpayable","type":"function"},{"inputs":[],"name":"unpause","outputs":[],"stateMutability":"nonpayable","type":"function"},{"inputs":[{"internalType":"uint256","name":"projectId","type":"uint256"},{"internalType":"uint256","name":"newFee","type":"uint256"},{"internalType":"address","name":"newFeeAddr","type":"address"},{"internalType":"string","name":"newURI","type":"string"},{"internalType":"string","name":"script","type":"string"}],"name":"updateProject","outputs":[],"stateMutability":"nonpayable","type":"function"},{"inputs":[{"internalType":"address","name":"receiver","type":"address"},{"internalType":"address","name":"erc20Addr","type":"address"},{"internalType":"uint256","name":"amount","type":"uint256"}],"name":"withdraw","outputs":[],"stateMutability":"nonpayable","type":"function"}],"evm":{"bytecode":{"linkReferences":{},"object":"608060405234801561001057600080fd5b50615fc880620000216000396000f3fe6080604052600436106103355760003560e01c80636e4d0fe6116101ab578063adfc7dae116100f7578063d539139311610095578063d6d0faee1161006f578063d6d0faee14610a2d578063d9caed1214610a4d578063e63ab1e914610a6d578063e985e9c514610aa157600080fd5b8063d5391393146109c4578063d547741f146109f8578063d547cfb714610a1857600080fd5b8063b88d4fde116100d1578063b88d4fde14610944578063c87b56dd14610964578063c8cb8a7514610984578063ca15c873146109a457600080fd5b8063adfc7dae146108e3578063afdc94db14610904578063b0f4cf931461092457600080fd5b80639010d07c116101645780639713c8071161013e5780639713c8071461086e578063a217fddf1461088e578063a22cb465146108a3578063a6487c53146108c357600080fd5b80639010d07c1461081957806391d148541461083957806395d89b411461085957600080fd5b80636e4d0fe61461070457806370a08231146107245780637f77f57414610744578063821f9dc9146107bf5780638456cb59146105aa5780638f283970146107f957600080fd5b806335055e90116102855780634f558e79116102235780636006e9ef116101fd5780636006e9ef1461067057806362fe4e4a146106835780636352211e146106c95780636a627842146106e957600080fd5b80634f558e79146106175780634f6ccce7146106375780635c975abb1461065757600080fd5b80633f4ba83a1161025f5780633f4ba83a146105aa57806342842e0e146105b957806342966c68146105d957806346398139146105f757600080fd5b806335055e901461053e57806336568abe1461055157806336bd9e631461057157600080fd5b806318160ddd116102f2578063248a9ca3116102cc578063248a9ca31461048f5780632a55205a146104bf5780632f2ff15d146104fe5780632f745c591461051e57600080fd5b806318160ddd1461042c578063189c168d1461044f57806323b872dd1461046f57600080fd5b806301bc45c91461033a57806301ffc9a71461037857806306fdde03146103a8578063081812fc146103ca578063095ea7b3146103ea5780631697eccf1461040c575b600080fd5b34801561034657600080fd5b506102275461035b906001600160a01b031681565b6040516001600160a01b0390911681526020015b60405180910390f35b34801561038457600080fd5b5061039861039336600461475f565b610aea565b604051901515815260200161036f565b3480156103b457600080fd5b506103bd610afb565b60405161036f91906147d4565b3480156103d657600080fd5b5061035b6103e53660046147e7565b610b8d565b3480156103f657600080fd5b5061040a610405366004614820565b610bb4565b005b34801561041857600080fd5b5061035b61042736600461484c565b610ccf565b34801561043857600080fd5b50610441610d0b565b60405190815260200161036f565b34801561045b57600080fd5b5061040a61046a366004614943565b610d1c565b34801561047b57600080fd5b5061040a61048a3660046149e4565b610e2a565b34801561049b57600080fd5b506104416104aa3660046147e7565b60009081526065602052604090206001015490565b3480156104cb57600080fd5b506104df6104da36600461484c565b610e5b565b604080516001600160a01b03909316835260208301919091520161036f565b34801561050a57600080fd5b5061040a610519366004614a25565b610f29565b34801561052a57600080fd5b50610441610539366004614820565b610f4e565b61044161054c366004614b11565b610fe4565b34801561055d57600080fd5b5061040a61056c366004614a25565b6115f1565b34801561057d57600080fd5b5061044161058c366004614c26565b61022c60209081526000928352604080842090915290825290205481565b3480156105b657600080fd5b50005b3480156105c557600080fd5b5061040a6105d43660046149e4565b61166f565b3480156105e557600080fd5b5061040a6105f43660046147e7565b50565b34801561060357600080fd5b5061040a61061236600461484c565b61168a565b34801561062357600080fd5b506103986106323660046147e7565b6117e7565b34801561064357600080fd5b506104416106523660046147e7565b6117f2565b34801561066357600080fd5b5061015f5460ff16610398565b61040a61067e366004614cf8565b611885565b34801561068f57600080fd5b5061040a61069e366004614820565b33600090815261022c602090815260408083206001600160a01b039590951683529390529190912055565b3480156106d557600080fd5b5061035b6106e43660046147e7565b6123eb565b3480156106f557600080fd5b5061040a6105f4366004614fbb565b34801561071057600080fd5b5061040a61071f366004614fd8565b61244b565b34801561073057600080fd5b5061044161073f366004614fbb565b6124f9565b34801561075057600080fd5b5061079461075f3660046147e7565b61022e602052600090815260409020546001600160a01b03811690600160a01b810462ffffff1690600160b81b900460ff1683565b604080516001600160a01b03909416845262ffffff909216602084015215159082015260600161036f565b3480156107cb57600080fd5b506107df6107da3660046147e7565b61257f565b60405161036f9e9d9c9b9a99989796959493929190615132565b34801561080557600080fd5b5061040a610814366004614fbb565b612944565b34801561082557600080fd5b5061035b61083436600461484c565b612a16565b34801561084557600080fd5b50610398610854366004614a25565b612a2e565b34801561086557600080fd5b506103bd612a59565b34801561087a57600080fd5b5061040a6108893660046151ff565b612a68565b34801561089a57600080fd5b50610441600081565b3480156108af57600080fd5b5061040a6108be366004615226565b612bb9565b3480156108cf57600080fd5b5061040a6108de366004615254565b612bc4565b3480156108ef57600080fd5b506102285461035b906001600160a01b031681565b34801561091057600080fd5b5061040a61091f3660046152db565b612c90565b34801561093057600080fd5b5061039861093f366004615364565b612d66565b34801561095057600080fd5b5061040a61095f366004615399565b612dd7565b34801561097057600080fd5b506103bd61097f3660046147e7565b612e09565b34801561099057600080fd5b5061040a61099f366004614820565b612f12565b3480156109b057600080fd5b506104416109bf3660046147e7565b612fb0565b3480156109d057600080fd5b506104417f9f2df0fed2c77648de5860a4cc508cd0818c85b8b8a1ab4ceeef8d981c8956a681565b348015610a0457600080fd5b5061040a610a13366004614a25565b612fc7565b348015610a2457600080fd5b506103bd612fec565b348015610a3957600080fd5b5061040a610a48366004615418565b612ff6565b348015610a5957600080fd5b5061040a610a683660046149e4565b613192565b348015610a7957600080fd5b506104417f65d7a28e3265b37a6474929f336521b332c1681b933f6cb9f3376673440d862a81565b348015610aad57600080fd5b50610398610abc366004614c26565b6001600160a01b03918216600090815260ce6020908152604080832093909416825291909152205460ff1690565b6000610af582613362565b92915050565b606060c98054610b0a906154c7565b80601f0160208091040260200160405190810160405280929190818152602001828054610b36906154c7565b8015610b835780601f10610b5857610100808354040283529160200191610b83565b820191906000526020600020905b815481529060010190602001808311610b6657829003601f168201915b5050505050905090565b6000610b9882613387565b50600090815260cd60205260409020546001600160a01b031690565b6000610bbf826123eb565b9050806001600160a01b0316836001600160a01b03161415610c325760405162461bcd60e51b815260206004820152602160248201527f4552433732313a20617070726f76616c20746f2063757272656e74206f776e656044820152603960f91b60648201526084015b60405180910390fd5b336001600160a01b0382161480610c4e5750610c4e8133610abc565b610cc05760405162461bcd60e51b815260206004820152603e60248201527f4552433732313a20617070726f76652063616c6c6572206973206e6f7420746f60448201527f6b656e206f776e6572206e6f7220617070726f76656420666f7220616c6c00006064820152608401610c29565b610cca83836133d7565b505050565b600082815261022b602090815260408083208484529091528120546001600160a01b031680610d04578360601c915050610af5565b9392505050565b6000610d176102295490565b905090565b600082815261022a602052604090206008015460ff168015610d425750610d4282613445565b610d4b57600080fd5b60005b8151811015610cca5760006001600160a01b031661022b6000848481518110610d7957610d796154fc565b602090810291909101810151825281810192909252604090810160009081208782529092529020546001600160a01b031614610db457600080fd5b3361022b6000848481518110610dcc57610dcc6154fc565b60200260200101518152602001908152602001600020600085815260200190815260200160002060006101000a8154816001600160a01b0302191690836001600160a01b031602179055508080610e2290615528565b915050610d4e565b610e343382613462565b610e505760405162461bcd60e51b8152600401610c2990615543565b610cca8383836134e1565b600082815261022e60209081526040808320815160608101835290546001600160a01b0381168252600160a01b810462ffffff1693820193909352600160b81b90920460ff1615801591830191909152829190610ee0578051602082015190935061271090610ecf9062ffffff1686615591565b610ed991906155c6565b9150610f21565b600085815261022a6020526040902060050154600160201b90046001600160a01b03169250612710610f14856101f4615591565b610f1e91906155c6565b91505b509250929050565b600082815260656020526040902060010154610f4481613688565b610cca8383613692565b6000610f59836124f9565b8210610fbb5760405162461bcd60e51b815260206004820152602b60248201527f455243373231456e756d657261626c653a206f776e657220696e646578206f7560448201526a74206f6620626f756e647360a81b6064820152608401610c29565b506001600160a01b0391909116600090815260fb60209081526040808320938352929052205490565b600060026101f554141561100a5760405162461bcd60e51b8152600401610c29906155da565b60026101f5558a516040805180820190915260038082526203230360ec1b602083015290911161104d5760405162461bcd60e51b8152600401610c2991906147d4565b5061105d61022980546001019055565b60006110696102295490565b905061107481613445565b156040518060400160405280600381526020016219181960e91b815250906110af5760405162461bcd60e51b8152600401610c2991906147d4565b5061022854610227546001600160a01b039182169116331461129e5760408051808201825260128152714352454154455f50524f4a4543545f46454560701b60208201529051636d12dce160e01b81526000916001600160a01b03841691636d12dce19161111f916004016147d4565b602060405180830381865afa15801561113c573d6000803e3d6000fd5b505050506040513d601f19601f820116820180604052508101906111609190615611565b9050801561129c5760408051808201825260098152682322a2afaa27a5a2a760b91b6020820152905163bf40fac160e01b81526000916001600160a01b0385169163bf40fac1916111b3916004016147d4565b602060405180830381865afa1580156111d0573d6000803e3d6000fd5b505050506040513d601f19601f820116820180604052508101906111f4919061562a565b90506001600160a01b0381161561128d576040516323b872dd60e01b81523360048201523060248201526044810183905281906001600160a01b038216906323b872dd906064016020604051808303816000875af115801561125a573d6000803e3d6000fd5b505050506040513d601f19601f8201168201806040525081019061127e9190615647565b61128757600080fd5b5061129a565b8134101561129a57600080fd5b505b505b8651156112cd57600082815261022a6020908152604090912088516112cb926006909201918a01906146b0565b505b8c61022a600084815260200190815260200160002060070190805190602001906112f89291906146b0565b5061022754600083815261022a60205260409020600581018054640100000000600160c01b0319166001600160a01b03938416600160201b02179055600281018e9055600c81018d90558781556001810180546001600160a01b03191692881692909217909155849060090161136e8282615a15565b5050600082815261022a602090815260409091208b51611396926004909201918d01906146b0565b50600082815261022a6020526040902060058101805463ffffffff191663ffffffff8c16179055600801805460ff19168915151790556113d68e836136b4565b604080518082018252601781527f47454e455241544956455f4e46545f54454d504c4154450000000000000000006020820152905163bf40fac160e01b8152600091611480916001600160a01b0385169163bf40fac19161143a91906004016147d4565b602060405180830381865afa158015611457573d6000803e3d6000fd5b505050506040513d601f19601f8201168201806040525081019061147b919061562a565b6136ce565b600084815261022a60205260409020600701805491925082916001600160a01b0383169163ae3dd095916115429060019060039084906114bf906154c7565b80601f01602080910402602001604051908101604052809291908181526020018280546114eb906154c7565b80156115385780601f1061150d57610100808354040283529160200191611538565b820191906000526020600020905b81548152906001019060200180831161151b57829003601f168201915b5050505050613766565b610227546040516001600160e01b031960e086901b1681526115769392916001600160a01b03169030908b90600401615b33565b600060405180830381600087803b15801561159057600080fd5b505af11580156115a4573d6000803e3d6000fd5b505050600085815261022a60205260409020600b0180546001600160a01b0319166001600160a01b039490941693909317909255505060016101f555509c9b505050505050505050505050565b6001600160a01b03811633146116615760405162461bcd60e51b815260206004820152602f60248201527f416363657373436f6e74726f6c3a2063616e206f6e6c792072656e6f756e636560448201526e103937b632b9903337b91039b2b63360891b6064820152608401610c29565b61166b828261384c565b5050565b610cca83838360405180602001604052806000815250612dd7565b600082815261022a602052604090206008015460ff161580156116b157506116b182613445565b6116ba57600080fd5b600080826001600160401b038111156116d5576116d561486e565b6040519080825280602002602001820160405280156116fe578160200160208202803683370190505b50905060005b838110156117a55761171733868361386e565b600081815261022b602090815260408083208984529091529020549093506001600160a01b03161561174857600080fd5b600083815261022b60209081526040808320888452909152902080546001600160a01b0319163317905581518390839083908110611788576117886154fc565b60209081029190910101528061179d81615528565b915050611704565b507feac055ed8b84f6ed7b96c917e1a500965c90467998c41630ebabcc5bc99b306b3385836040516117d993929190615bf7565b60405180910390a150505050565b6000610af582613445565b60006117fd60fd5490565b82106118605760405162461bcd60e51b815260206004820152602c60248201527f455243373231456e756d657261626c653a20676c6f62616c20696e646578206f60448201526b7574206f6620626f756e647360a01b6064820152608401610c29565b60fd8281548110611873576118736154fc565b90600052602060002001549050919050565b60026101f55414156118a95760405162461bcd60e51b8152600401610c29906155da565b60026101f58190558151600090815261022a6020908152604080832081516101c0810183528154815260018201546001600160a01b03169381019390935293840154908201526003830154606082015260048301805492939192608084019190611912906154c7565b80601f016020809104026020016040519081016040528092919081815260200182805461193e906154c7565b801561198b5780601f106119605761010080835404028352916020019161198b565b820191906000526020600020905b81548152906001019060200180831161196e57829003601f168201915b5050509183525050600582015463ffffffff81166020830152600160201b90046001600160a01b031660408201526006820180546060909201916119ce906154c7565b80601f01602080910402602001604051908101604052809291908181526020018280546119fa906154c7565b8015611a475780601f10611a1c57610100808354040283529160200191611a47565b820191906000526020600020905b815481529060010190602001808311611a2a57829003601f168201915b50505050508152602001600782018054611a60906154c7565b80601f0160208091040260200160405190810160405280929190818152602001828054611a8c906154c7565b8015611ad95780601f10611aae57610100808354040283529160200191611ad9565b820191906000526020600020905b815481529060010190602001808311611abc57829003601f168201915b5050509183525050600882015460ff1615156020808301919091526040805180820182526009850180548252600a86018054845181870281018701865281815294909601959294919385830193909260009084015b82821015611c7d57600084815260208082206040805160e08101825260078702909201805460ff9081168452600182015484860152600282015484840152600382015416606084015260048101805483518187028101870190945280845293959194608087019491929084015b82821015611c47578382906000526020600020018054611bba906154c7565b80601f0160208091040260200160405190810160405280929190818152602001828054611be6906154c7565b8015611c335780601f10611c0857610100808354040283529160200191611c33565b820191906000526020600020905b815481529060010190602001808311611c1657829003601f168201915b505050505081526020019060010190611b9b565b50505090825250600582015460208083019190915260069092015460ff1615156040909101529082526001929092019101611b2e565b505050915250508152600b8201546001600160a01b03166020820152600c820154604080830191909152600d909201546060909101528301515190915015801590611cd15750816060015151826040015151145b604051806040016040528060038152602001620c8c0d60ea1b81525090611d0b5760405162461bcd60e51b8152600401610c2991906147d4565b5060408101511580611d35575080604001518260400151518260600151611d329190615c54565b11155b6040518060400160405280600381526020016232303360e81b81525090611d6f5760405162461bcd60e51b8152600401610c2991906147d4565b5061018081015115611dd0578151611d86906123eb565b6001600160a01b0316336001600160a01b031614611dd057816040015151816101a001818151611db69190615c54565b9052506101808101516101a08201511115611dd057600080fd5b8051801561209e5782513390611de5906123eb565b6001600160a01b03161461209e57610228546040840151516001600160a01b0390911690611e139083615591565b604080518082018252600c81526b4d494e545f4e46545f46454560a01b60208201529051636d12dce160e01b81529193506000916001600160a01b03841691636d12dce191611e6591906004016147d4565b602060405180830381865afa158015611e82573d6000803e3d6000fd5b505050506040513d601f19601f82011682018060405250810190611ea69190615611565b905080611eb257506101f45b60208401516001600160a01b0316611f5f5782341015611ed157600080fd5b6000611ee086600001516123eb565b6001600160a01b0316612710611ef68487615591565b611f0091906155c6565b611f0a9086615c6c565b604051600081818185875af1925050503d8060008114611f46576040519150601f19603f3d011682016040523d82523d6000602084013e611f4b565b606091505b5050905080611f5957600080fd5b5061209b565b60208401516040516323b872dd60e01b8152336004820152306024820152604481018590526001600160a01b038216906323b872dd906064016020604051808303816000875af1158015611fb7573d6000803e3d6000fd5b505050506040513d601f19601f82011682018060405250810190611fdb9190615647565b611fe457600080fd5b806001600160a01b031663a9059cbb61200088600001516123eb565b61271061200d8689615591565b61201791906155c6565b6120219088615c6c565b6040516001600160e01b031960e085901b1681526001600160a01b03909216600483015260248201526044016020604051808303816000875af115801561206c573d6000803e3d6000fd5b505050506040513d601f19601f820116820180604052508101906120909190615647565b61209957600080fd5b505b50505b8251600090815261022a60205260408120600b01546001600160a01b0316905b8460600151518110156123a557846060015181815181106120e1576120e16154fc565b602090810291909101810151810151518651600090815261022a8352604090819020600a0154815180830190925260038252620c8c0d60ea1b9382019390935291146121405760405162461bcd60e51b8152600401610c2991906147d4565b50600085606001518281518110612159576121596154fc565b60209081029190910181015151600081815261022d835260408082208a518352845290819020548151808301909252600382526232303560e81b9382019390935290925090156121bc5760405162461bcd60e51b8152600401610c2991906147d4565b508551600090815261022a602052604090206008015460ff1661223257855133906121e8908390610ccf565b6001600160a01b0316146040518060400160405280600381526020016232303560e81b8152509061222c5760405162461bcd60e51b8152600401610c2991906147d4565b5061228d565b600081815261022b60209081526040808320895184529091529020546001600160a01b03161561226157600080fd5b600081815261022b6020908152604080832089518452909152902080546001600160a01b031916331790555b826001600160a01b0316637d763613876020015161022760009054906101000a90046001600160a01b0316896040015186815181106122ce576122ce6154fc565b60200260200101518a6060015187815181106122ec576122ec6154fc565b60200260200101516040518563ffffffff1660e01b81526004016123139493929190615c83565b600060405180830381600087803b15801561232d57600080fd5b505af1158015612341573d6000803e3d6000fd5b505050506001856060018181516123589190615c54565b9052506060850180518751600090815261022a6020908152604080832060030193909355925193815261022d8352818120895182529092529020558061239d81615528565b9150506120be565b507f67175103d209cf669be17e253aba378479477b5a1ef3b1e9eaedce52f0ebab5433856040516123d7929190615ccc565b60405180910390a1505060016101f5555050565b600081815260cb60205260408120546001600160a01b031680610af55760405162461bcd60e51b8152602060048201526018602482015277115490cdcc8c4e881a5b9d985b1a59081d1bdad95b88125160421b6044820152606401610c29565b600082815261022d602090815260408083208484529091529020541580159061247a575061247a338383612d66565b80156124a15750836001600160a01b03166124958383610ccf565b6001600160a01b031614155b80156124b557506001600160a01b03831615155b6124be57600080fd5b600091825261022b60209081526040808420928452919052902080546001600160a01b0319166001600160a01b039290921691909117905550565b60006001600160a01b0382166125635760405162461bcd60e51b815260206004820152602960248201527f4552433732313a2061646472657373207a65726f206973206e6f7420612076616044820152683634b21037bbb732b960b91b6064820152608401610c29565b506001600160a01b0316600090815260cc602052604090205490565b61022a602052600090815260409020805460018201546002830154600384015460048501805494956001600160a01b0390941694929391926125c0906154c7565b80601f01602080910402602001604051908101604052809291908181526020018280546125ec906154c7565b80156126395780601f1061260e57610100808354040283529160200191612639565b820191906000526020600020905b81548152906001019060200180831161261c57829003601f168201915b505050506005830154600684018054939463ffffffff831694600160201b9093046001600160a01b031693509161266f906154c7565b80601f016020809104026020016040519081016040528092919081815260200182805461269b906154c7565b80156126e85780601f106126bd576101008083540402835291602001916126e8565b820191906000526020600020905b8154815290600101906020018083116126cb57829003601f168201915b5050505050908060070180546126fd906154c7565b80601f0160208091040260200160405190810160405280929190818152602001828054612729906154c7565b80156127765780601f1061274b57610100808354040283529160200191612776565b820191906000526020600020905b81548152906001019060200180831161275957829003601f168201915b5050505050908060080160009054906101000a900460ff1690806009016040518060400160405290816000820154815260200160018201805480602002602001604051908101604052809291908181526020016000905b8282101561291c57600084815260208082206040805160e08101825260078702909201805460ff9081168452600182015484860152600282015484840152600382015416606084015260048101805483518187028101870190945280845293959194608087019491929084015b828210156128e6578382906000526020600020018054612859906154c7565b80601f0160208091040260200160405190810160405280929190818152602001828054612885906154c7565b80156128d25780601f106128a7576101008083540402835291602001916128d2565b820191906000526020600020905b8154815290600101906020018083116128b557829003601f168201915b50505050508152602001906001019061283a565b50505090825250600582015460208083019190915260069092015460ff16151560409091015290825260019290920191016127cd565b50505091525050600b820154600c830154600d9093015491926001600160a01b03909116918e565b610227546001600160a01b0316336001600160a01b0316146040518060400160405280600381526020016231303160e81b815250906129965760405162461bcd60e51b8152600401610c2991906147d4565b506129a2600033612a2e565b6040518060400160405280600381526020016231303160e81b815250906129dc5760405162461bcd60e51b8152600401610c2991906147d4565b5061022780546001600160a01b038381166001600160a01b0319831681179093551690612a0b90600090610f29565b61166b600082612fc7565b6000828152609760205260408120610d0490836138ce565b60009182526065602090815260408084206001600160a01b0393909316845291905290205460ff1690565b606060ca8054610b0a906154c7565b610227546001600160a01b0316336001600160a01b0316146040518060400160405280600381526020016231303160e81b81525090612aba5760405162461bcd60e51b8152600401610c2991906147d4565b50612ac6600033612a2e565b6040518060400160405280600381526020016231303160e81b81525090612b005760405162461bcd60e51b8152600401610c2991906147d4565b5060408051808201909152600381526232303360e81b6020820152612710821115612b3e5760405162461bcd60e51b8152600401610c2991906147d4565b50604080516060810182526001600160a01b03938416815262ffffff92831660208083019182526001838501908152600097885261022e90915292909520905181549551925194166001600160b81b031990951694909417600160a01b91909216021760ff60b81b1916600160b81b91151591909102179055565b61166b3383836138da565b600054610100900460ff1615808015612be45750600054600160ff909116105b80612bfe5750303b158015612bfe575060005460ff166001145b612c1a5760405162461bcd60e51b8152600401610c2990615d68565b6000805460ff191660011790558015612c3d576000805461ff0019166101001790555b612c488484846139a9565b8015612c8a576000805461ff0019169055604051600181527f7f26b83ff96e1f2b6a682f133852f6798a09c465da95921460cefb3847402498906020016117d9565b50505050565b600085815261022a6020908152604091829020600501548251808401909352600383526218981960e91b91830191909152600160201b90046001600160a01b03163314612cf05760405162461bcd60e51b8152600401610c2991906147d4565b50600085815261022a602090815260409091208581556001810180546001600160a01b0319166001600160a01b0387161790558351612d37926006909201918501906146b0565b50600085815261022a602090815260409091208251612d5e926004909201918401906146b0565b505050505050565b6000836001600160a01b0316612d7c8484610ccf565b6001600160a01b03161415612d9357506001610d04565b8161022c6000612da38686610ccf565b6001600160a01b03908116825260208083019390935260409182016000908120918916815292529020541490509392505050565b612de13383613462565b612dfd5760405162461bcd60e51b8152600401610c2990615543565b612c8a848484846139ed565b600081815261022a6020526040812060060180546060929190612e2b906154c7565b90501115612ed557600082815261022a602052604090206006018054612e50906154c7565b80601f0160208091040260200160405190810160405280929190818152602001828054612e7c906154c7565b8015612ec95780601f10612e9e57610100808354040283529160200191612ec9565b820191906000526020600020905b815481529060010190602001808311612eac57829003601f168201915b50505050509050919050565b612edd612fec565b612ee683613a20565b604051602001612ef7929190615db6565b6040516020818303038152906040529050919050565b919050565b600081815261022a6020908152604091829020600501548251808401909352600383526218981960e91b91830191909152600160201b90046001600160a01b03163314612f725760405162461bcd60e51b8152600401610c2991906147d4565b50600090815261022a6020526040902060050180546001600160a01b03909216600160201b02640100000000600160c01b0319909216919091179055565b6000818152609760205260408120610af590613b1d565b600082815260656020526040902060010154612fe281613688565b610cca838361384c565b6060610d17613b27565b600054610100900460ff16158080156130165750600054600160ff909116105b806130305750303b158015613030575060005460ff166001145b61304c5760405162461bcd60e51b8152600401610c2990615d68565b6000805460ff19166001179055801561306f576000805461ff0019166101001790555b60408051808201909152600381526203130360ec1b60208201526001600160a01b0384166130b05760405162461bcd60e51b8152600401610c2991906147d4565b5060408051808201909152600381526203130360ec1b60208201526001600160a01b0383166130f25760405162461bcd60e51b8152600401610c2991906147d4565b506130fe8686866139a9565b61022880546001600160a01b038085166001600160a01b0319928316179092556102278054928616929091168217905561313a90600090610f29565b613145600033612fc7565b8015612d5e576000805461ff0019169055604051600181527f7f26b83ff96e1f2b6a682f133852f6798a09c465da95921460cefb38474024989060200160405180910390a1505050505050565b60026101f55414156131b65760405162461bcd60e51b8152600401610c29906155da565b60026101f555610227546001600160a01b0316336001600160a01b0316146040518060400160405280600381526020016231303160e81b8152509061320e5760405162461bcd60e51b8152600401610c2991906147d4565b5061321a600033612a2e565b6040518060400160405280600381526020016231303160e81b815250906132545760405162461bcd60e51b8152600401610c2991906147d4565b5060006001600160a01b0383166132d5578147101561327257600080fd5b6040516001600160a01b038516908390600081818185875af1925050503d80600081146132bb576040519150601f19603f3d011682016040523d82523d6000602084013e6132c0565b606091505b505080915050806132d057600080fd5b613356565b60405163a9059cbb60e01b81526001600160a01b0385811660048301526024820184905284919082169063a9059cbb906044016020604051808303816000875af1158015613327573d6000803e3d6000fd5b505050506040513d601f19601f8201168201806040525081019061334b9190615647565b61335457600080fd5b505b505060016101f5555050565b60006001600160e01b0319821663780e9d6360e01b1480610af55750610af582613b37565b61339081613445565b6105f45760405162461bcd60e51b8152602060048201526018602482015277115490cdcc8c4e881a5b9d985b1a59081d1bdad95b88125160421b6044820152606401610c29565b600081815260cd6020526040902080546001600160a01b0319166001600160a01b038416908117909155819061340c826123eb565b6001600160a01b03167f8c5be1e5ebec7d5bd14f71427d1e84f3dd0314c0f7b2291e5b200ac8c7c3b92560405160405180910390a45050565b600090815260cb60205260409020546001600160a01b0316151590565b60008061346e836123eb565b9050806001600160a01b0316846001600160a01b031614806134b557506001600160a01b03808216600090815260ce602090815260408083209388168352929052205460ff165b806134d95750836001600160a01b03166134ce84610b8d565b6001600160a01b0316145b949350505050565b826001600160a01b03166134f4826123eb565b6001600160a01b0316146135585760405162461bcd60e51b815260206004820152602560248201527f4552433732313a207472616e736665722066726f6d20696e636f72726563742060448201526437bbb732b960d91b6064820152608401610c29565b6001600160a01b0382166135ba5760405162461bcd60e51b8152602060048201526024808201527f4552433732313a207472616e7366657220746f20746865207a65726f206164646044820152637265737360e01b6064820152608401610c29565b6135c5838383613b77565b6135d06000826133d7565b6001600160a01b038316600090815260cc602052604081208054600192906135f9908490615c6c565b90915550506001600160a01b038216600090815260cc60205260408120805460019290613627908490615c54565b9091555050600081815260cb602052604080822080546001600160a01b0319166001600160a01b0386811691821790925591518493918716917fddf252ad1be2c89b69c2b068fc378daa952ba7f163c4a11628f55a4df523b3ef91a4505050565b6105f48133613b82565b61369c8282613be6565b6000828152609760205260409020610cca9082613c6c565b61166b828260405180602001604052806000815250613c81565b6000604051733d602d80600a3d3981f3363d3d373d3d3d363d7360601b81528260601b60148201526e5af43d82803e903d91602b57fd5bf360881b60288201526037816000f09150506001600160a01b038116612f0d5760405162461bcd60e51b8152602060048201526016602482015275115490cc4c4d8dce8818dc99585d194819985a5b195960521b6044820152606401610c29565b606060006137748585615c6c565b61377f906001615c54565b6001600160401b038111156137965761379661486e565b6040519080825280601f01601f1916602001820160405280156137c0576020820181803683370190505b50905060005b6137d08686615c6c565b8111613843578360016137e38884615c54565b6137ed9190615c6c565b815181106137fd576137fd6154fc565b602001015160f81c60f81b82828151811061381a5761381a6154fc565b60200101906001600160f81b031916908160001a9053508061383b81615528565b9150506137c6565b50949350505050565b6138568282613cb4565b6000828152609760205260409020610cca9082613d1b565b600061387b600143615c6c565b60408051914060208301526bffffffffffffffffffffffff19606087901b169082015260548101849052607481018390526094016040516020818303038152906040528051906020012090509392505050565b6000610d048383613d30565b816001600160a01b0316836001600160a01b0316141561393c5760405162461bcd60e51b815260206004820152601960248201527f4552433732313a20617070726f766520746f2063616c6c6572000000000000006044820152606401610c29565b6001600160a01b03838116600081815260ce6020908152604080832094871680845294825291829020805460ff191686151590811790915591519182527f17307eab39ab6107e8899845ad3d59bd9653f200f220920489ca2b5937696c31910160405180910390a3505050565b600054610100900460ff166139d05760405162461bcd60e51b8152600401610c2990615de5565b6139da8383613d5a565b6139e2613da8565b610cca838383613ddc565b6139f88484846134e1565b613a0484848484613e77565b612c8a5760405162461bcd60e51b8152600401610c2990615e30565b606081613a445750506040805180820190915260018152600360fc1b602082015290565b8160005b8115613a6e5780613a5881615528565b9150613a679050600a836155c6565b9150613a48565b6000816001600160401b03811115613a8857613a8861486e565b6040519080825280601f01601f191660200182016040528015613ab2576020820181803683370190505b5090505b84156134d957613ac7600183615c6c565b9150613ad4600a86615e82565b613adf906030615c54565b60f81b818381518110613af457613af46154fc565b60200101906001600160f81b031916908160001a905350613b16600a866155c6565b9450613ab6565b6000610af5825490565b60606101c48054610b0a906154c7565b60006001600160e01b031982166380ac58cd60e01b1480613b6857506001600160e01b03198216635b5e139f60e01b145b80610af55750610af582613f75565b610cca838383613f9a565b613b8c8282612a2e565b61166b57613ba4816001600160a01b0316601461400d565b613baf83602061400d565b604051602001613bc0929190615e96565b60408051601f198184030181529082905262461bcd60e51b8252610c29916004016147d4565b613bf08282612a2e565b61166b5760008281526065602090815260408083206001600160a01b03851684529091529020805460ff19166001179055613c283390565b6001600160a01b0316816001600160a01b0316837f2f8788117e7eff1d82e926ec794901d17c78024a50270940304540a733656f0d60405160405180910390a45050565b6000610d04836001600160a01b0384166141a8565b613c8b83836141f7565b613c986000848484613e77565b610cca5760405162461bcd60e51b8152600401610c2990615e30565b613cbe8282612a2e565b1561166b5760008281526065602090815260408083206001600160a01b0385168085529252808320805460ff1916905551339285917ff6391f5c32d9c69d2a47ea670b442974b53935d1edc7fd64eb21e047a839171b9190a45050565b6000610d04836001600160a01b038416614336565b6000826000018281548110613d4757613d476154fc565b9060005260206000200154905092915050565b600054610100900460ff16613d815760405162461bcd60e51b8152600401610c2990615de5565b8151613d949060c99060208501906146b0565b508051610cca9060ca9060208401906146b0565b600054610100900460ff16613dcf5760405162461bcd60e51b8152600401610c2990615de5565b61015f805460ff19169055565b600054610100900460ff16613e035760405162461bcd60e51b8152600401610c2990615de5565b8051613e17906101c49060208401906146b0565b50613e23600033614429565b613e4d7f9f2df0fed2c77648de5860a4cc508cd0818c85b8b8a1ab4ceeef8d981c8956a633614429565b610cca7f65d7a28e3265b37a6474929f336521b332c1681b933f6cb9f3376673440d862a33614429565b60006001600160a01b0384163b15613f6a57604051630a85bd0160e11b81526001600160a01b0385169063150b7a0290613ebb903390899088908890600401615f0b565b6020604051808303816000875af1925050508015613ef6575060408051601f3d908101601f19168201909252613ef391810190615f48565b60015b613f50573d808015613f24576040519150601f19603f3d011682016040523d82523d6000602084013e613f29565b606091505b508051613f485760405162461bcd60e51b8152600401610c2990615e30565b805181602001fd5b6001600160e01b031916630a85bd0160e11b1490506134d9565b506001949350505050565b60006001600160e01b03198216635a05180f60e01b1480610af55750610af582614433565b613fa5838383614468565b61015f5460ff1615610cca5760405162461bcd60e51b815260206004820152602b60248201527f4552433732315061757361626c653a20746f6b656e207472616e73666572207760448201526a1a1a5b19481c185d5cd95960aa1b6064820152608401610c29565b6060600061401c836002615591565b614027906002615c54565b6001600160401b0381111561403e5761403e61486e565b6040519080825280601f01601f191660200182016040528015614068576020820181803683370190505b509050600360fc1b81600081518110614083576140836154fc565b60200101906001600160f81b031916908160001a905350600f60fb1b816001815181106140b2576140b26154fc565b60200101906001600160f81b031916908160001a90535060006140d6846002615591565b6140e1906001615c54565b90505b6001811115614159576f181899199a1a9b1b9c1cb0b131b232b360811b85600f1660108110614115576141156154fc565b1a60f81b82828151811061412b5761412b6154fc565b60200101906001600160f81b031916908160001a90535060049490941c9361415281615f65565b90506140e4565b508315610d045760405162461bcd60e51b815260206004820181905260248201527f537472696e67733a20686578206c656e67746820696e73756666696369656e746044820152606401610c29565b60008181526001830160205260408120546141ef57508154600181810184556000848152602080822090930184905584548482528286019093526040902091909155610af5565b506000610af5565b6001600160a01b03821661424d5760405162461bcd60e51b815260206004820181905260248201527f4552433732313a206d696e7420746f20746865207a65726f20616464726573736044820152606401610c29565b61425681613445565b156142a35760405162461bcd60e51b815260206004820152601c60248201527f4552433732313a20746f6b656e20616c7265616479206d696e746564000000006044820152606401610c29565b6142af60008383613b77565b6001600160a01b038216600090815260cc602052604081208054600192906142d8908490615c54565b9091555050600081815260cb602052604080822080546001600160a01b0319166001600160a01b03861690811790915590518392907fddf252ad1be2c89b69c2b068fc378daa952ba7f163c4a11628f55a4df523b3ef908290a45050565b6000818152600183016020526040812054801561441f57600061435a600183615c6c565b855490915060009061436e90600190615c6c565b90508181146143d357600086600001828154811061438e5761438e6154fc565b90600052602060002001549050808760000184815481106143b1576143b16154fc565b6000918252602080832090910192909255918252600188019052604090208390555b85548690806143e4576143e4615f7c565b600190038181906000526020600020016000905590558560010160008681526020019081526020016000206000905560019350505050610af5565b6000915050610af5565b61166b8282613692565b60006001600160e01b03198216637965db0b60e01b1480610af557506301ffc9a760e01b6001600160e01b0319831614610af5565b6001600160a01b0383166144c3576144be8160fd8054600083815260fe60205260408120829055600182018355919091527f9346ac6dd7de6b96975fec380d4d994c4c12e6a8897544f22915316cc6cca2800155565b6144e6565b816001600160a01b0316836001600160a01b0316146144e6576144e68382614520565b6001600160a01b0382166144fd57610cca816145bd565b826001600160a01b0316826001600160a01b031614610cca57610cca828261466c565b6000600161452d846124f9565b6145379190615c6c565b600083815260fc602052604090205490915080821461458a576001600160a01b038416600090815260fb60209081526040808320858452825280832054848452818420819055835260fc90915290208190555b50600091825260fc602090815260408084208490556001600160a01b03909416835260fb81528383209183525290812055565b60fd546000906145cf90600190615c6c565b600083815260fe602052604081205460fd80549394509092849081106145f7576145f76154fc565b906000526020600020015490508060fd8381548110614618576146186154fc565b600091825260208083209091019290925582815260fe909152604080822084905585825281205560fd80548061465057614650615f7c565b6001900381819060005260206000200160009055905550505050565b6000614677836124f9565b6001600160a01b03909316600090815260fb60209081526040808320868452825280832085905593825260fc9052919091209190915550565b8280546146bc906154c7565b90600052602060002090601f0160209004810192826146de5760008555614724565b82601f106146f757805160ff1916838001178555614724565b82800160010185558215614724579182015b82811115614724578251825591602001919060010190614709565b50614730929150614734565b5090565b5b808211156147305760008155600101614735565b6001600160e01b0319811681146105f457600080fd5b60006020828403121561477157600080fd5b8135610d0481614749565b60005b8381101561479757818101518382015260200161477f565b83811115612c8a5750506000910152565b600081518084526147c081602086016020860161477c565b601f01601f19169290920160200192915050565b602081526000610d0460208301846147a8565b6000602082840312156147f957600080fd5b5035919050565b6001600160a01b03811681146105f457600080fd5b8035612f0d81614800565b6000806040838503121561483357600080fd5b823561483e81614800565b946020939093013593505050565b6000806040838503121561485f57600080fd5b50508035926020909101359150565b634e487b7160e01b600052604160045260246000fd5b604051608081016001600160401b03811182821017156148a6576148a661486e565b60405290565b604080519081016001600160401b03811182821017156148a6576148a661486e565b60405160e081016001600160401b03811182821017156148a6576148a661486e565b604051601f8201601f191681016001600160401b03811182821017156149185761491861486e565b604052919050565b60006001600160401b038211156149395761493961486e565b5060051b60200190565b6000806040838503121561495657600080fd5b823591506020808401356001600160401b0381111561497457600080fd5b8401601f8101861361498557600080fd5b803561499861499382614920565b6148f0565b81815260059190911b820183019083810190888311156149b757600080fd5b928401925b828410156149d5578335825292840192908401906149bc565b80955050505050509250929050565b6000806000606084860312156149f957600080fd5b8335614a0481614800565b92506020840135614a1481614800565b929592945050506040919091013590565b60008060408385031215614a3857600080fd5b823591506020830135614a4a81614800565b809150509250929050565b60006001600160401b03831115614a6e57614a6e61486e565b614a81601f8401601f19166020016148f0565b9050828152838383011115614a9557600080fd5b828260208301376000602084830101529392505050565b600082601f830112614abd57600080fd5b610d0483833560208501614a55565b803563ffffffff81168114612f0d57600080fd5b80151581146105f457600080fd5b8035612f0d81614ae0565b600060408284031215614b0b57600080fd5b50919050565b60008060008060008060008060008060006101608c8e031215614b3357600080fd5b614b3c8c614815565b9a506001600160401b038060208e01351115614b5757600080fd5b614b678e60208f01358f01614aac565b9a5060408d0135995060608d013598508060808e01351115614b8857600080fd5b614b988e60808f01358f01614aac565b9750614ba660a08e01614acc565b9650614bb460c08e01614aee565b95508060e08e01351115614bc757600080fd5b614bd78e60e08f01358f01614aac565b94506101008d01359350614bee6101208e01614815565b9250806101408e01351115614c0257600080fd5b50614c148d6101408e01358e01614af9565b90509295989b509295989b9093969950565b60008060408385031215614c3957600080fd5b8235614c4481614800565b91506020830135614a4a81614800565b600082601f830112614c6557600080fd5b81356020614c7561499383614920565b82815260059290921b84018101918181019086841115614c9457600080fd5b8286015b84811015614cd35780356001600160401b03811115614cb75760008081fd5b614cc58986838b0101614aac565b845250918301918301614c98565b509695505050505050565b60ff811681146105f457600080fd5b8035612f0d81614cde565b600060208284031215614d0a57600080fd5b6001600160401b0382351115614d1f57600080fd5b60808235830184031215614d3257600080fd5b614d3a614884565b8235830180358252614d4f9060200135614800565b602083358401013560208201526001600160401b0360408435850101351115614d7757600080fd5b614d8a8484358501604081013501614c54565b60408201526001600160401b0360608435850101351115614daa57600080fd5b82358301606081013501601f81018513614dc357600080fd5b614dd06149938235614920565b81358082526020808301929160051b840101871015614dee57600080fd5b602083015b6020843560051b850101811015614fab576001600160401b0381351115614e1957600080fd5b6040813585018903601f19011215614e3057600080fd5b614e386148ac565b81358501602081013582526001600160401b036040909101351115614e5c57600080fd5b81358501604081013501603f81018a13614e7557600080fd5b614e856149936020830135614920565b602082810135808352908201919060051b83016040018c1015614ea757600080fd5b604083015b6040602085013560051b850101811015614f92576001600160401b0381351115614ed557600080fd5b60e0813585018e03603f19011215614eec57600080fd5b614ef46148ce565b614f0360408335870101614ced565b8152813585016060810135602083015260808101356040830152614f299060a001614ced565b60608201526001600160401b0360c08335870101351115614f4957600080fd5b614f5f8e8335870160c081013501604001614c54565b60808201528135850160e081013560a0830152614f7f9061010001614aee565b60c0820152835260209283019201614eac565b5060208481019190915292865250509283019201614df3565b5060608401525090949350505050565b600060208284031215614fcd57600080fd5b8135610d0481614800565b60008060008060808587031215614fee57600080fd5b8435614ff981614800565b9350602085013561500981614800565b93969395505050506040820135916060013590565b600081518084526020808501808196508360051b8101915082860160005b858110156150665782840389526150548483516147a8565b9885019893509084019060010161503c565b5091979650505050505050565b60006040808401835185526020808501518382880152828151808552606094508489019150848160051b8a0101848401935060005b8281101561512457605f198b8303018452845160e060ff80835116855288830151898601528a8301518b860152808a840151168a8601525060808083015182828701526150f78387018261501e565b60a0858101519088015260c0948501511515949096019390935250505093850193928501926001016150a8565b509998505050505050505050565b8e81526001600160a01b038e1660208201528c60408201528b60608201526101c0608082015260006151686101c083018d6147a8565b63ffffffff8c1660a08401526001600160a01b038b1660c084015282810360e0840152615195818b6147a8565b90508281036101008401526151aa818a6147a8565b88151561012085015290508281036101408401526151c88188615073565b9150506151e16101608301866001600160a01b03169052565b6101808201939093526101a001529c9b505050505050505050505050565b60008060006060848603121561521457600080fd5b833592506020840135614a1481614800565b6000806040838503121561523957600080fd5b823561524481614800565b91506020830135614a4a81614ae0565b60008060006060848603121561526957600080fd5b83356001600160401b038082111561528057600080fd5b61528c87838801614aac565b945060208601359150808211156152a257600080fd5b6152ae87838801614aac565b935060408601359150808211156152c457600080fd5b506152d186828701614aac565b9150509250925092565b600080600080600060a086880312156152f357600080fd5b8535945060208601359350604086013561530c81614800565b925060608601356001600160401b038082111561532857600080fd5b61533489838a01614aac565b9350608088013591508082111561534a57600080fd5b5061535788828901614aac565b9150509295509295909350565b60008060006060848603121561537957600080fd5b833561538481614800565b95602085013595506040909401359392505050565b600080600080608085870312156153af57600080fd5b84356153ba81614800565b935060208501356153ca81614800565b92506040850135915060608501356001600160401b038111156153ec57600080fd5b8501601f810187136153fd57600080fd5b61540c87823560208401614a55565b91505092959194509250565b600080600080600060a0868803121561543057600080fd5b85356001600160401b038082111561544757600080fd5b61545389838a01614aac565b9650602088013591508082111561546957600080fd5b61547589838a01614aac565b9550604088013591508082111561548b57600080fd5b5061549888828901614aac565b93505060608601356154a981614800565b915060808601356154b981614800565b809150509295509295909350565b600181811c908216806154db57607f821691505b60208210811415614b0b57634e487b7160e01b600052602260045260246000fd5b634e487b7160e01b600052603260045260246000fd5b634e487b7160e01b600052601160045260246000fd5b600060001982141561553c5761553c615512565b5060010190565b6020808252602e908201527f4552433732313a2063616c6c6572206973206e6f7420746f6b656e206f776e6560408201526d1c881b9bdc88185c1c1c9bdd995960921b606082015260800190565b60008160001904831182151516156155ab576155ab615512565b500290565b634e487b7160e01b600052601260045260246000fd5b6000826155d5576155d56155b0565b500490565b6020808252601f908201527f5265656e7472616e637947756172643a207265656e7472616e742063616c6c00604082015260600190565b60006020828403121561562357600080fd5b5051919050565b60006020828403121561563c57600080fd5b8151610d0481614800565b60006020828403121561565957600080fd5b8151610d0481614ae0565b6000808335601e1984360301811261567b57600080fd5b8301803591506001600160401b0382111561569557600080fd5b6020019150600581901b36038213156156ad57600080fd5b9250929050565b6000823560de198336030181126156ca57600080fd5b9190910192915050565b5b8181101561166b57600081556001016156d5565b805460008083558115610cca5782815260208082208381015b80821015612d5e5761571482546154c7565b801561575b57601f8082116001811461572f57868555615758565b84875285872061574983850160051c8201600183016156d4565b50600085815260208120818755555b50505b50600182019150615702565b601f821115610cca57806000526020600020601f840160051c8101602085101561578e5750805b6157a0601f850160051c8301826156d4565b5050505050565b6001600160401b038311156157be576157be61486e565b6157d2836157cc83546154c7565b83615767565b6000601f84116001811461580657600085156157ee5750838201355b600019600387901b1c1916600186901b1783556157a0565b600083815260209020601f19861690835b828110156158375786850135825560209485019460019092019101615817565b50868210156158545760001960f88860031b161c19848701351681555b505060018560011b0183555050505050565b60008135610af581614ae0565b813561587e81614cde565b815460ff191660ff8216178255506001602080840135828401556040840135600284015560608401356158b081614cde565b60038401805460ff191660ff831617905550600483016158d36080860186615664565b600160401b8111156158e7576158e761486e565b82548184558082101561596c5760008481528581208381019083015b808210156159685761591582546154c7565b801561595e57601f808211600181146159305785855561595b565b60008581526020902061594c83850160051c82018e83016156d4565b50600085815260208120818755555b50505b5090880190615903565b5050505b508160008481528581209450805b838110156159db578235601e19863603018112615995578283fd5b850180356001600160401b038111156159ac578384fd5b88820191508036038213156159bf578384fd5b6159ca81838a6157a7565b50509487019491860191870161597a565b505050505050505060a0820135600582015561166b6159fc60c08401615866565b6006830160ff1981541660ff8315151681178255505050565b8135815560018082016020615a2c81860186615664565b600160401b811115615a4057615a4061486e565b835481855580821015615aed577f2492492492492492492492492492492492492492492492492492492492492492808211871615615a8057615a80615512565b6007818411881615615a9457615a94615512565b6000878152868120909250848202810190828502015b80821015615ae857838255838a830155836002830155836003830155615ad2600483016156e9565b8360058301558360068301558282019150615aaa565b505050505b506000938452602084209382905b82811015615b2857615b16615b1083866156b4565b87615873565b60079590950194908401908601615afb565b505050505050505050565b60a081526000808754615b45816154c7565b8060a086015260c0600180841660008114615b675760018114615b7b57615bac565b60ff1985168884015260e088019550615bac565b8c60005260208060002060005b86811015615ba35781548b8201870152908401908201615b88565b8a018501975050505b50505050508281036020840152615bc381886147a8565b915050615bdb60408301866001600160a01b03169052565b6001600160a01b03939093166060820152608001529392505050565b6001600160a01b038416815260208082018490526060604083018190528351908301819052600091848101916080850190845b81811015615c4657845183529383019391830191600101615c2a565b509098975050505050505050565b60008219821115615c6757615c67615512565b500190565b600082821015615c7e57615c7e615512565b500390565b6001600160a01b03858116825284166020820152608060408201819052600090615caf908301856147a8565b8281036060840152615cc18185615073565b979650505050505050565b6001600160a01b03838116825260406020808401829052845182850152848101519092166060840152830151608080840152600091615d0e60c085018361501e565b6060860151858203603f190160a0870152805180835291935082019082840190600581901b8501840160005b8281101561512457601f19878303018452615d56828651615073565b94860194938601939150600101615d3a565b6020808252602e908201527f496e697469616c697a61626c653a20636f6e747261637420697320616c72656160408201526d191e481a5b9a5d1a585b1a5e995960921b606082015260800190565b60008351615dc881846020880161477c565b835190830190615ddc81836020880161477c565b01949350505050565b6020808252602b908201527f496e697469616c697a61626c653a20636f6e7472616374206973206e6f74206960408201526a6e697469616c697a696e6760a81b606082015260800190565b60208082526032908201527f4552433732313a207472616e7366657220746f206e6f6e20455243373231526560408201527131b2b4bb32b91034b6b83632b6b2b73a32b960711b606082015260800190565b600082615e9157615e916155b0565b500690565b7f416363657373436f6e74726f6c3a206163636f756e7420000000000000000000815260008351615ece81601785016020880161477c565b7001034b99036b4b9b9b4b733903937b6329607d1b6017918401918201528351615eff81602884016020880161477c565b01602801949350505050565b6001600160a01b0385811682528416602082015260408101839052608060608201819052600090615f3e908301846147a8565b9695505050505050565b600060208284031215615f5a57600080fd5b8151610d0481614749565b600081615f7457615f74615512565b506000190190565b634e487b7160e01b600052603160045260246000fdfea2646970667358221220cac8147376fbc4340687d3634c5217b3b06615be19d11dac005f37be3121754b64736f6c634300080c0033","opcodes":"PUSH1 0x80 PUSH1 0x40 MSTORE CALLVALUE DUP1 ISZERO PUSH2 0x10 JUMPI PUSH1 0x0 DUP1 REVERT JUMPDEST POP PUSH2 0x5FC8 DUP1 PUSH3 0x21 PUSH1 0x0 CODECOPY PUSH1 0x0 RETURN INVALID PUSH1 0x80 PUSH1 0x40 MSTORE PUSH1 0x4 CALLDATASIZE LT PUSH2 0x335 JUMPI PUSH1 0x0 CALLDATALOAD PUSH1 0xE0 SHR DUP1 PUSH4 0x6E4D0FE6 GT PUSH2 0x1AB JUMPI DUP1 PUSH4 0xADFC7DAE GT PUSH2 0xF7 JUMPI DUP1 PUSH4 0xD5391393 GT PUSH2 0x95 JUMPI DUP1 PUSH4 0xD6D0FAEE GT PUSH2 0x6F JUMPI DUP1 PUSH4 0xD6D0FAEE EQ PUSH2 0xA2D JUMPI DUP1 PUSH4 0xD9CAED12 EQ PUSH2 0xA4D JUMPI DUP1 PUSH4 0xE63AB1E9 EQ PUSH2 0xA6D JUMPI DUP1 PUSH4 0xE985E9C5 EQ PUSH2 0xAA1 JUMPI PUSH1 0x0 DUP1 REVERT JUMPDEST DUP1 PUSH4 0xD5391393 EQ PUSH2 0x9C4 JUMPI DUP1 PUSH4 0xD547741F EQ PUSH2 0x9F8 JUMPI DUP1 PUSH4 0xD547CFB7 EQ PUSH2 0xA18 JUMPI PUSH1 0x0 DUP1 REVERT JUMPDEST DUP1 PUSH4 0xB88D4FDE GT PUSH2 0xD1 JUMPI DUP1 PUSH4 0xB88D4FDE EQ PUSH2 0x944 JUMPI DUP1 PUSH4 0xC87B56DD EQ PUSH2 0x964 JUMPI DUP1 PUSH4 0xC8CB8A75 EQ PUSH2 0x984 JUMPI DUP1 PUSH4 0xCA15C873 EQ PUSH2 0x9A4 JUMPI PUSH1 0x0 DUP1 REVERT JUMPDEST DUP1 PUSH4 0xADFC7DAE EQ PUSH2 0x8E3 JUMPI DUP1 PUSH4 0xAFDC94DB EQ PUSH2 0x904 JUMPI DUP1 PUSH4 0xB0F4CF93 EQ PUSH2 0x924 JUMPI PUSH1 0x0 DUP1 REVERT JUMPDEST DUP1 PUSH4 0x9010D07C GT PUSH2 0x164 JUMPI DUP1 PUSH4 0x9713C807 GT PUSH2 0x13E JUMPI DUP1 PUSH4 0x9713C807 EQ PUSH2 0x86E JUMPI DUP1 PUSH4 0xA217FDDF EQ PUSH2 0x88E JUMPI DUP1 PUSH4 0xA22CB465 EQ PUSH2 0x8A3 JUMPI DUP1 PUSH4 0xA6487C53 EQ PUSH2 0x8C3 JUMPI PUSH1 0x0 DUP1 REVERT JUMPDEST DUP1 PUSH4 0x9010D07C EQ PUSH2 0x819 JUMPI DUP1 PUSH4 0x91D14854 EQ PUSH2 0x839 JUMPI DUP1 PUSH4 0x95D89B41 EQ PUSH2 0x859 JUMPI PUSH1 0x0 DUP1 REVERT JUMPDEST DUP1 PUSH4 0x6E4D0FE6 EQ PUSH2 0x704 JUMPI DUP1 PUSH4 0x70A08231 EQ PUSH2 0x724 JUMPI DUP1 PUSH4 0x7F77F574 EQ PUSH2 0x744 JUMPI DUP1 PUSH4 0x821F9DC9 EQ PUSH2 0x7BF JUMPI DUP1 PUSH4 0x8456CB59 EQ PUSH2 0x5AA JUMPI DUP1 PUSH4 0x8F283970 EQ PUSH2 0x7F9 JUMPI PUSH1 0x0 DUP1 REVERT JUMPDEST DUP1 PUSH4 0x35055E90 GT PUSH2 0x285 JUMPI DUP1 PUSH4 0x4F558E79 GT PUSH2 0x223 JUMPI DUP1 PUSH4 0x6006E9EF GT PUSH2 0x1FD JUMPI DUP1 PUSH4 0x6006E9EF EQ PUSH2 0x670 JUMPI DUP1 PUSH4 0x62FE4E4A EQ PUSH2 0x683 JUMPI DUP1 PUSH4 0x6352211E EQ PUSH2 0x6C9 JUMPI DUP1 PUSH4 0x6A627842 EQ PUSH2 0x6E9 JUMPI PUSH1 0x0 DUP1 REVERT JUMPDEST DUP1 PUSH4 0x4F558E79 EQ PUSH2 0x617 JUMPI DUP1 PUSH4 0x4F6CCCE7 EQ PUSH2 0x637 JUMPI DUP1 PUSH4 0x5C975ABB EQ PUSH2 0x657 JUMPI PUSH1 0x0 DUP1 REVERT JUMPDEST DUP1 PUSH4 0x3F4BA83A GT PUSH2 0x25F JUMPI DUP1 PUSH4 0x3F4BA83A EQ PUSH2 0x5AA JUMPI DUP1 PUSH4 0x42842E0E EQ PUSH2 0x5B9 JUMPI DUP1 PUSH4 0x42966C68 EQ PUSH2 0x5D9 JUMPI DUP1 PUSH4 0x46398139 EQ PUSH2 0x5F7 JUMPI PUSH1 0x0 DUP1 REVERT JUMPDEST DUP1 PUSH4 0x35055E90 EQ PUSH2 0x53E JUMPI DUP1 PUSH4 0x36568ABE EQ PUSH2 0x551 JUMPI DUP1 PUSH4 0x36BD9E63 EQ PUSH2 0x571 JUMPI PUSH1 0x0 DUP1 REVERT JUMPDEST DUP1 PUSH4 0x18160DDD GT PUSH2 0x2F2 JUMPI DUP1 PUSH4 0x248A9CA3 GT PUSH2 0x2CC JUMPI DUP1 PUSH4 0x248A9CA3 EQ PUSH2 0x48F JUMPI DUP1 PUSH4 0x2A55205A EQ PUSH2 0x4BF JUMPI DUP1 PUSH4 0x2F2FF15D EQ PUSH2 0x4FE JUMPI DUP1 PUSH4 0x2F745C59 EQ PUSH2 0x51E JUMPI PUSH1 0x0 DUP1 REVERT JUMPDEST DUP1 PUSH4 0x18160DDD EQ PUSH2 0x42C JUMPI DUP1 PUSH4 0x189C168D EQ PUSH2 0x44F JUMPI DUP1 PUSH4 0x23B872DD EQ PUSH2 0x46F JUMPI PUSH1 0x0 DUP1 REVERT JUMPDEST DUP1 PUSH4 0x1BC45C9 EQ PUSH2 0x33A JUMPI DUP1 PUSH4 0x1FFC9A7 EQ PUSH2 0x378 JUMPI DUP1 PUSH4 0x6FDDE03 EQ PUSH2 0x3A8 JUMPI DUP1 PUSH4 0x81812FC EQ PUSH2 0x3CA JUMPI DUP1 PUSH4 0x95EA7B3 EQ PUSH2 0x3EA JUMPI DUP1 PUSH4 0x1697ECCF EQ PUSH2 0x40C JUMPI JUMPDEST PUSH1 0x0 DUP1 REVERT JUMPDEST CALLVALUE DUP1 ISZERO PUSH2 0x346 JUMPI PUSH1 0x0 DUP1 REVERT JUMPDEST POP PUSH2 0x227 SLOAD PUSH2 0x35B SWAP1 PUSH1 0x1 PUSH1 0x1 PUSH1 0xA0 SHL SUB AND DUP2 JUMP JUMPDEST PUSH1 0x40 MLOAD PUSH1 0x1 PUSH1 0x1 PUSH1 0xA0 SHL SUB SWAP1 SWAP2 AND DUP2 MSTORE PUSH1 0x20 ADD JUMPDEST PUSH1 0x40 MLOAD DUP1 SWAP2 SUB SWAP1 RETURN JUMPDEST CALLVALUE DUP1 ISZERO PUSH2 0x384 JUMPI PUSH1 0x0 DUP1 REVERT JUMPDEST POP PUSH2 0x398 PUSH2 0x393 CALLDATASIZE PUSH1 0x4 PUSH2 0x475F JUMP JUMPDEST PUSH2 0xAEA JUMP JUMPDEST PUSH1 0x40 MLOAD SWAP1 ISZERO ISZERO DUP2 MSTORE PUSH1 0x20 ADD PUSH2 0x36F JUMP JUMPDEST CALLVALUE DUP1 ISZERO PUSH2 0x3B4 JUMPI PUSH1 0x0 DUP1 REVERT JUMPDEST POP PUSH2 0x3BD PUSH2 0xAFB JUMP JUMPDEST PUSH1 0x40 MLOAD PUSH2 0x36F SWAP2 SWAP1 PUSH2 0x47D4 JUMP JUMPDEST CALLVALUE DUP1 ISZERO PUSH2 0x3D6 JUMPI PUSH1 0x0 DUP1 REVERT JUMPDEST POP PUSH2 0x35B PUSH2 0x3E5 CALLDATASIZE PUSH1 0x4 PUSH2 0x47E7 JUMP JUMPDEST PUSH2 0xB8D JUMP JUMPDEST CALLVALUE DUP1 ISZERO PUSH2 0x3F6 JUMPI PUSH1 0x0 DUP1 REVERT JUMPDEST POP PUSH2 0x40A PUSH2 0x405 CALLDATASIZE PUSH1 0x4 PUSH2 0x4820 JUMP JUMPDEST PUSH2 0xBB4 JUMP JUMPDEST STOP JUMPDEST CALLVALUE DUP1 ISZERO PUSH2 0x418 JUMPI PUSH1 0x0 DUP1 REVERT JUMPDEST POP PUSH2 0x35B PUSH2 0x427 CALLDATASIZE PUSH1 0x4 PUSH2 0x484C JUMP JUMPDEST PUSH2 0xCCF JUMP JUMPDEST CALLVALUE DUP1 ISZERO PUSH2 0x438 JUMPI PUSH1 0x0 DUP1 REVERT JUMPDEST POP PUSH2 0x441 PUSH2 0xD0B JUMP JUMPDEST PUSH1 0x40 MLOAD SWAP1 DUP2 MSTORE PUSH1 0x20 ADD PUSH2 0x36F JUMP JUMPDEST CALLVALUE DUP1 ISZERO PUSH2 0x45B JUMPI PUSH1 0x0 DUP1 REVERT JUMPDEST POP PUSH2 0x40A PUSH2 0x46A CALLDATASIZE PUSH1 0x4 PUSH2 0x4943 JUMP JUMPDEST PUSH2 0xD1C JUMP JUMPDEST CALLVALUE DUP1 ISZERO PUSH2 0x47B JUMPI PUSH1 0x0 DUP1 REVERT JUMPDEST POP PUSH2 0x40A PUSH2 0x48A CALLDATASIZE PUSH1 0x4 PUSH2 0x49E4 JUMP JUMPDEST PUSH2 0xE2A JUMP JUMPDEST CALLVALUE DUP1 ISZERO PUSH2 0x49B JUMPI PUSH1 0x0 DUP1 REVERT JUMPDEST POP PUSH2 0x441 PUSH2 0x4AA CALLDATASIZE PUSH1 0x4 PUSH2 0x47E7 JUMP JUMPDEST PUSH1 0x0 SWAP1 DUP2 MSTORE PUSH1 0x65 PUSH1 0x20 MSTORE PUSH1 0x40 SWAP1 KECCAK256 PUSH1 0x1 ADD SLOAD SWAP1 JUMP JUMPDEST CALLVALUE DUP1 ISZERO PUSH2 0x4CB JUMPI PUSH1 0x0 DUP1 REVERT JUMPDEST POP PUSH2 0x4DF PUSH2 0x4DA CALLDATASIZE PUSH1 0x4 PUSH2 0x484C JUMP JUMPDEST PUSH2 0xE5B JUMP JUMPDEST PUSH1 0x40 DUP1 MLOAD PUSH1 0x1 PUSH1 0x1 PUSH1 0xA0 SHL SUB SWAP1 SWAP4 AND DUP4 MSTORE PUSH1 0x20 DUP4 ADD SWAP2 SWAP1 SWAP2 MSTORE ADD PUSH2 0x36F JUMP JUMPDEST CALLVALUE DUP1 ISZERO PUSH2 0x50A JUMPI PUSH1 0x0 DUP1 REVERT JUMPDEST POP PUSH2 0x40A PUSH2 0x519 CALLDATASIZE PUSH1 0x4 PUSH2 0x4A25 JUMP JUMPDEST PUSH2 0xF29 JUMP JUMPDEST CALLVALUE DUP1 ISZERO PUSH2 0x52A JUMPI PUSH1 0x0 DUP1 REVERT JUMPDEST POP PUSH2 0x441 PUSH2 0x539 CALLDATASIZE PUSH1 0x4 PUSH2 0x4820 JUMP JUMPDEST PUSH2 0xF4E JUMP JUMPDEST PUSH2 0x441 PUSH2 0x54C CALLDATASIZE PUSH1 0x4 PUSH2 0x4B11 JUMP JUMPDEST PUSH2 0xFE4 JUMP JUMPDEST CALLVALUE DUP1 ISZERO PUSH2 0x55D JUMPI PUSH1 0x0 DUP1 REVERT JUMPDEST POP PUSH2 0x40A PUSH2 0x56C CALLDATASIZE PUSH1 0x4 PUSH2 0x4A25 JUMP JUMPDEST PUSH2 0x15F1 JUMP JUMPDEST CALLVALUE DUP1 ISZERO PUSH2 0x57D JUMPI PUSH1 0x0 DUP1 REVERT JUMPDEST POP PUSH2 0x441 PUSH2 0x58C CALLDATASIZE PUSH1 0x4 PUSH2 0x4C26 JUMP JUMPDEST PUSH2 0x22C PUSH1 0x20 SWAP1 DUP2 MSTORE PUSH1 0x0 SWAP3 DUP4 MSTORE PUSH1 0x40 DUP1 DUP5 KECCAK256 SWAP1 SWAP2 MSTORE SWAP1 DUP3 MSTORE SWAP1 KECCAK256 SLOAD DUP2 JUMP JUMPDEST CALLVALUE DUP1 ISZERO PUSH2 0x5B6 JUMPI PUSH1 0x0 DUP1 REVERT JUMPDEST POP STOP JUMPDEST CALLVALUE DUP1 ISZERO PUSH2 0x5C5 JUMPI PUSH1 0x0 DUP1 REVERT JUMPDEST POP PUSH2 0x40A PUSH2 0x5D4 CALLDATASIZE PUSH1 0x4 PUSH2 0x49E4 JUMP JUMPDEST PUSH2 0x166F JUMP JUMPDEST CALLVALUE DUP1 ISZERO PUSH2 0x5E5 JUMPI PUSH1 0x0 DUP1 REVERT JUMPDEST POP PUSH2 0x40A PUSH2 0x5F4 CALLDATASIZE PUSH1 0x4 PUSH2 0x47E7 JUMP JUMPDEST POP JUMP JUMPDEST CALLVALUE DUP1 ISZERO PUSH2 0x603 JUMPI PUSH1 0x0 DUP1 REVERT JUMPDEST POP PUSH2 0x40A PUSH2 0x612 CALLDATASIZE PUSH1 0x4 PUSH2 0x484C JUMP JUMPDEST PUSH2 0x168A JUMP JUMPDEST CALLVALUE DUP1 ISZERO PUSH2 0x623 JUMPI PUSH1 0x0 DUP1 REVERT JUMPDEST POP PUSH2 0x398 PUSH2 0x632 CALLDATASIZE PUSH1 0x4 PUSH2 0x47E7 JUMP JUMPDEST PUSH2 0x17E7 JUMP JUMPDEST CALLVALUE DUP1 ISZERO PUSH2 0x643 JUMPI PUSH1 0x0 DUP1 REVERT JUMPDEST POP PUSH2 0x441 PUSH2 0x652 CALLDATASIZE PUSH1 0x4 PUSH2 0x47E7 JUMP JUMPDEST PUSH2 0x17F2 JUMP JUMPDEST CALLVALUE DUP1 ISZERO PUSH2 0x663 JUMPI PUSH1 0x0 DUP1 REVERT JUMPDEST POP PUSH2 0x15F SLOAD PUSH1 0xFF AND PUSH2 0x398 JUMP JUMPDEST PUSH2 0x40A PUSH2 0x67E CALLDATASIZE PUSH1 0x4 PUSH2 0x4CF8 JUMP JUMPDEST PUSH2 0x1885 JUMP JUMPDEST CALLVALUE DUP1 ISZERO PUSH2 0x68F JUMPI PUSH1 0x0 DUP1 REVERT JUMPDEST POP PUSH2 0x40A PUSH2 0x69E CALLDATASIZE PUSH1 0x4 PUSH2 0x4820 JUMP JUMPDEST CALLER PUSH1 0x0 SWAP1 DUP2 MSTORE PUSH2 0x22C PUSH1 0x20 SWAP1 DUP2 MSTORE PUSH1 0x40 DUP1 DUP4 KECCAK256 PUSH1 0x1 PUSH1 0x1 PUSH1 0xA0 SHL SUB SWAP6 SWAP1 SWAP6 AND DUP4 MSTORE SWAP4 SWAP1 MSTORE SWAP2 SWAP1 SWAP2 KECCAK256 SSTORE JUMP JUMPDEST CALLVALUE DUP1 ISZERO PUSH2 0x6D5 JUMPI PUSH1 0x0 DUP1 REVERT JUMPDEST POP PUSH2 0x35B PUSH2 0x6E4 CALLDATASIZE PUSH1 0x4 PUSH2 0x47E7 JUMP JUMPDEST PUSH2 0x23EB JUMP JUMPDEST CALLVALUE DUP1 ISZERO PUSH2 0x6F5 JUMPI PUSH1 0x0 DUP1 REVERT JUMPDEST POP PUSH2 0x40A PUSH2 0x5F4 CALLDATASIZE PUSH1 0x4 PUSH2 0x4FBB JUMP JUMPDEST CALLVALUE DUP1 ISZERO PUSH2 0x710 JUMPI PUSH1 0x0 DUP1 REVERT JUMPDEST POP PUSH2 0x40A PUSH2 0x71F CALLDATASIZE PUSH1 0x4 PUSH2 0x4FD8 JUMP JUMPDEST PUSH2 0x244B JUMP JUMPDEST CALLVALUE DUP1 ISZERO PUSH2 0x730 JUMPI PUSH1 0x0 DUP1 REVERT JUMPDEST POP PUSH2 0x441 PUSH2 0x73F CALLDATASIZE PUSH1 0x4 PUSH2 0x4FBB JUMP JUMPDEST PUSH2 0x24F9 JUMP JUMPDEST CALLVALUE DUP1 ISZERO PUSH2 0x750 JUMPI PUSH1 0x0 DUP1 REVERT JUMPDEST POP PUSH2 0x794 PUSH2 0x75F CALLDATASIZE PUSH1 0x4 PUSH2 0x47E7 JUMP JUMPDEST PUSH2 0x22E PUSH1 0x20 MSTORE PUSH1 0x0 SWAP1 DUP2 MSTORE PUSH1 0x40 SWAP1 KECCAK256 SLOAD PUSH1 0x1 PUSH1 0x1 PUSH1 0xA0 SHL SUB DUP2 AND SWAP1 PUSH1 0x1 PUSH1 0xA0 SHL DUP2 DIV PUSH3 0xFFFFFF AND SWAP1 PUSH1 0x1 PUSH1 0xB8 SHL SWAP1 DIV PUSH1 0xFF AND DUP4 JUMP JUMPDEST PUSH1 0x40 DUP1 MLOAD PUSH1 0x1 PUSH1 0x1 PUSH1 0xA0 SHL SUB SWAP1 SWAP5 AND DUP5 MSTORE PUSH3 0xFFFFFF SWAP1 SWAP3 AND PUSH1 0x20 DUP5 ADD MSTORE ISZERO ISZERO SWAP1 DUP3 ADD MSTORE PUSH1 0x60 ADD PUSH2 0x36F JUMP JUMPDEST CALLVALUE DUP1 ISZERO PUSH2 0x7CB JUMPI PUSH1 0x0 DUP1 REVERT JUMPDEST POP PUSH2 0x7DF PUSH2 0x7DA CALLDATASIZE PUSH1 0x4 PUSH2 0x47E7 JUMP JUMPDEST PUSH2 0x257F JUMP JUMPDEST PUSH1 0x40 MLOAD PUSH2 0x36F SWAP15 SWAP14 SWAP13 SWAP12 SWAP11 SWAP10 SWAP9 SWAP8 SWAP7 SWAP6 SWAP5 SWAP4 SWAP3 SWAP2 SWAP1 PUSH2 0x5132 JUMP JUMPDEST CALLVALUE DUP1 ISZERO PUSH2 0x805 JUMPI PUSH1 0x0 DUP1 REVERT JUMPDEST POP PUSH2 0x40A PUSH2 0x814 CALLDATASIZE PUSH1 0x4 PUSH2 0x4FBB JUMP JUMPDEST PUSH2 0x2944 JUMP JUMPDEST CALLVALUE DUP1 ISZERO PUSH2 0x825 JUMPI PUSH1 0x0 DUP1 REVERT JUMPDEST POP PUSH2 0x35B PUSH2 0x834 CALLDATASIZE PUSH1 0x4 PUSH2 0x484C JUMP JUMPDEST PUSH2 0x2A16 JUMP JUMPDEST CALLVALUE DUP1 ISZERO PUSH2 0x845 JUMPI PUSH1 0x0 DUP1 REVERT JUMPDEST POP PUSH2 0x398 PUSH2 0x854 CALLDATASIZE PUSH1 0x4 PUSH2 0x4A25 JUMP JUMPDEST PUSH2 0x2A2E JUMP JUMPDEST CALLVALUE DUP1 ISZERO PUSH2 0x865 JUMPI PUSH1 0x0 DUP1 REVERT JUMPDEST POP PUSH2 0x3BD PUSH2 0x2A59 JUMP JUMPDEST CALLVALUE DUP1 ISZERO PUSH2 0x87A JUMPI PUSH1 0x0 DUP1 REVERT JUMPDEST POP PUSH2 0x40A PUSH2 0x889 CALLDATASIZE PUSH1 0x4 PUSH2 0x51FF JUMP JUMPDEST PUSH2 0x2A68 JUMP JUMPDEST CALLVALUE DUP1 ISZERO PUSH2 0x89A JUMPI PUSH1 0x0 DUP1 REVERT JUMPDEST POP PUSH2 0x441 PUSH1 0x0 DUP2 JUMP JUMPDEST CALLVALUE DUP1 ISZERO PUSH2 0x8AF JUMPI PUSH1 0x0 DUP1 REVERT JUMPDEST POP PUSH2 0x40A PUSH2 0x8BE CALLDATASIZE PUSH1 0x4 PUSH2 0x5226 JUMP JUMPDEST PUSH2 0x2BB9 JUMP JUMPDEST CALLVALUE DUP1 ISZERO PUSH2 0x8CF JUMPI PUSH1 0x0 DUP1 REVERT JUMPDEST POP PUSH2 0x40A PUSH2 0x8DE CALLDATASIZE PUSH1 0x4 PUSH2 0x5254 JUMP JUMPDEST PUSH2 0x2BC4 JUMP JUMPDEST CALLVALUE DUP1 ISZERO PUSH2 0x8EF JUMPI PUSH1 0x0 DUP1 REVERT JUMPDEST POP PUSH2 0x228 SLOAD PUSH2 0x35B SWAP1 PUSH1 0x1 PUSH1 0x1 PUSH1 0xA0 SHL SUB AND DUP2 JUMP JUMPDEST CALLVALUE DUP1 ISZERO PUSH2 0x910 JUMPI PUSH1 0x0 DUP1 REVERT JUMPDEST POP PUSH2 0x40A PUSH2 0x91F CALLDATASIZE PUSH1 0x4 PUSH2 0x52DB JUMP JUMPDEST PUSH2 0x2C90 JUMP JUMPDEST CALLVALUE DUP1 ISZERO PUSH2 0x930 JUMPI PUSH1 0x0 DUP1 REVERT JUMPDEST POP PUSH2 0x398 PUSH2 0x93F CALLDATASIZE PUSH1 0x4 PUSH2 0x5364 JUMP JUMPDEST PUSH2 0x2D66 JUMP JUMPDEST CALLVALUE DUP1 ISZERO PUSH2 0x950 JUMPI PUSH1 0x0 DUP1 REVERT JUMPDEST POP PUSH2 0x40A PUSH2 0x95F CALLDATASIZE PUSH1 0x4 PUSH2 0x5399 JUMP JUMPDEST PUSH2 0x2DD7 JUMP JUMPDEST CALLVALUE DUP1 ISZERO PUSH2 0x970 JUMPI PUSH1 0x0 DUP1 REVERT JUMPDEST POP PUSH2 0x3BD PUSH2 0x97F CALLDATASIZE PUSH1 0x4 PUSH2 0x47E7 JUMP JUMPDEST PUSH2 0x2E09 JUMP JUMPDEST CALLVALUE DUP1 ISZERO PUSH2 0x990 JUMPI PUSH1 0x0 DUP1 REVERT JUMPDEST POP PUSH2 0x40A PUSH2 0x99F CALLDATASIZE PUSH1 0x4 PUSH2 0x4820 JUMP JUMPDEST PUSH2 0x2F12 JUMP JUMPDEST CALLVALUE DUP1 ISZERO PUSH2 0x9B0 JUMPI PUSH1 0x0 DUP1 REVERT JUMPDEST POP PUSH2 0x441 PUSH2 0x9BF CALLDATASIZE PUSH1 0x4 PUSH2 0x47E7 JUMP JUMPDEST PUSH2 0x2FB0 JUMP JUMPDEST CALLVALUE DUP1 ISZERO PUSH2 0x9D0 JUMPI PUSH1 0x0 DUP1 REVERT JUMPDEST POP PUSH2 0x441 PUSH32 0x9F2DF0FED2C77648DE5860A4CC508CD0818C85B8B8A1AB4CEEEF8D981C8956A6 DUP2 JUMP JUMPDEST CALLVALUE DUP1 ISZERO PUSH2 0xA04 JUMPI PUSH1 0x0 DUP1 REVERT JUMPDEST POP PUSH2 0x40A PUSH2 0xA13 CALLDATASIZE PUSH1 0x4 PUSH2 0x4A25 JUMP JUMPDEST PUSH2 0x2FC7 JUMP JUMPDEST CALLVALUE DUP1 ISZERO PUSH2 0xA24 JUMPI PUSH1 0x0 DUP1 REVERT JUMPDEST POP PUSH2 0x3BD PUSH2 0x2FEC JUMP JUMPDEST CALLVALUE DUP1 ISZERO PUSH2 0xA39 JUMPI PUSH1 0x0 DUP1 REVERT JUMPDEST POP PUSH2 0x40A PUSH2 0xA48 CALLDATASIZE PUSH1 0x4 PUSH2 0x5418 JUMP JUMPDEST PUSH2 0x2FF6 JUMP JUMPDEST CALLVALUE DUP1 ISZERO PUSH2 0xA59 JUMPI PUSH1 0x0 DUP1 REVERT JUMPDEST POP PUSH2 0x40A PUSH2 0xA68 CALLDATASIZE PUSH1 0x4 PUSH2 0x49E4 JUMP JUMPDEST PUSH2 0x3192 JUMP JUMPDEST CALLVALUE DUP1 ISZERO PUSH2 0xA79 JUMPI PUSH1 0x0 DUP1 REVERT JUMPDEST POP PUSH2 0x441 PUSH32 0x65D7A28E3265B37A6474929F336521B332C1681B933F6CB9F3376673440D862A DUP2 JUMP JUMPDEST CALLVALUE DUP1 ISZERO PUSH2 0xAAD JUMPI PUSH1 0x0 DUP1 REVERT JUMPDEST POP PUSH2 0x398 PUSH2 0xABC CALLDATASIZE PUSH1 0x4 PUSH2 0x4C26 JUMP JUMPDEST PUSH1 0x1 PUSH1 0x1 PUSH1 0xA0 SHL SUB SWAP2 DUP3 AND PUSH1 0x0 SWAP1 DUP2 MSTORE PUSH1 0xCE PUSH1 0x20 SWAP1 DUP2 MSTORE PUSH1 0x40 DUP1 DUP4 KECCAK256 SWAP4 SWAP1 SWAP5 AND DUP3 MSTORE SWAP2 SWAP1 SWAP2 MSTORE KECCAK256 SLOAD PUSH1 0xFF AND SWAP1 JUMP JUMPDEST PUSH1 0x0 PUSH2 0xAF5 DUP3 PUSH2 0x3362 JUMP JUMPDEST SWAP3 SWAP2 POP POP JUMP JUMPDEST PUSH1 0x60 PUSH1 0xC9 DUP1 SLOAD PUSH2 0xB0A SWAP1 PUSH2 0x54C7 JUMP JUMPDEST DUP1 PUSH1 0x1F ADD PUSH1 0x20 DUP1 SWAP2 DIV MUL PUSH1 0x20 ADD PUSH1 0x40 MLOAD SWAP1 DUP2 ADD PUSH1 0x40 MSTORE DUP1 SWAP3 SWAP2 SWAP1 DUP2 DUP2 MSTORE PUSH1 0x20 ADD DUP3 DUP1 SLOAD PUSH2 0xB36 SWAP1 PUSH2 0x54C7 JUMP JUMPDEST DUP1 ISZERO PUSH2 0xB83 JUMPI DUP1 PUSH1 0x1F LT PUSH2 0xB58 JUMPI PUSH2 0x100 DUP1 DUP4 SLOAD DIV MUL DUP4 MSTORE SWAP2 PUSH1 0x20 ADD SWAP2 PUSH2 0xB83 JUMP JUMPDEST DUP3 ADD SWAP2 SWAP1 PUSH1 0x0 MSTORE PUSH1 0x20 PUSH1 0x0 KECCAK256 SWAP1 JUMPDEST DUP2 SLOAD DUP2 MSTORE SWAP1 PUSH1 0x1 ADD SWAP1 PUSH1 0x20 ADD DUP1 DUP4 GT PUSH2 0xB66 JUMPI DUP3 SWAP1 SUB PUSH1 0x1F AND DUP3 ADD SWAP2 JUMPDEST POP POP POP POP POP SWAP1 POP SWAP1 JUMP JUMPDEST PUSH1 0x0 PUSH2 0xB98 DUP3 PUSH2 0x3387 JUMP JUMPDEST POP PUSH1 0x0 SWAP1 DUP2 MSTORE PUSH1 0xCD PUSH1 0x20 MSTORE PUSH1 0x40 SWAP1 KECCAK256 SLOAD PUSH1 0x1 PUSH1 0x1 PUSH1 0xA0 SHL SUB AND SWAP1 JUMP JUMPDEST PUSH1 0x0 PUSH2 0xBBF DUP3 PUSH2 0x23EB JUMP JUMPDEST SWAP1 POP DUP1 PUSH1 0x1 PUSH1 0x1 PUSH1 0xA0 SHL SUB AND DUP4 PUSH1 0x1 PUSH1 0x1 PUSH1 0xA0 SHL SUB AND EQ ISZERO PUSH2 0xC32 JUMPI PUSH1 0x40 MLOAD PUSH3 0x461BCD PUSH1 0xE5 SHL DUP2 MSTORE PUSH1 0x20 PUSH1 0x4 DUP3 ADD MSTORE PUSH1 0x21 PUSH1 0x24 DUP3 ADD MSTORE PUSH32 0x4552433732313A20617070726F76616C20746F2063757272656E74206F776E65 PUSH1 0x44 DUP3 ADD MSTORE PUSH1 0x39 PUSH1 0xF9 SHL PUSH1 0x64 DUP3 ADD MSTORE PUSH1 0x84 ADD JUMPDEST PUSH1 0x40 MLOAD DUP1 SWAP2 SUB SWAP1 REVERT JUMPDEST CALLER PUSH1 0x1 PUSH1 0x1 PUSH1 0xA0 SHL SUB DUP3 AND EQ DUP1 PUSH2 0xC4E JUMPI POP PUSH2 0xC4E DUP2 CALLER PUSH2 0xABC JUMP JUMPDEST PUSH2 0xCC0 JUMPI PUSH1 0x40 MLOAD PUSH3 0x461BCD PUSH1 0xE5 SHL DUP2 MSTORE PUSH1 0x20 PUSH1 0x4 DUP3 ADD MSTORE PUSH1 0x3E PUSH1 0x24 DUP3 ADD MSTORE PUSH32 0x4552433732313A20617070726F76652063616C6C6572206973206E6F7420746F PUSH1 0x44 DUP3 ADD MSTORE PUSH32 0x6B656E206F776E6572206E6F7220617070726F76656420666F7220616C6C0000 PUSH1 0x64 DUP3 ADD MSTORE PUSH1 0x84 ADD PUSH2 0xC29 JUMP JUMPDEST PUSH2 0xCCA DUP4 DUP4 PUSH2 0x33D7 JUMP JUMPDEST POP POP POP JUMP JUMPDEST PUSH1 0x0 DUP3 DUP2 MSTORE PUSH2 0x22B PUSH1 0x20 SWAP1 DUP2 MSTORE PUSH1 0x40 DUP1 DUP4 KECCAK256 DUP5 DUP5 MSTORE SWAP1 SWAP2 MSTORE DUP2 KECCAK256 SLOAD PUSH1 0x1 PUSH1 0x1 PUSH1 0xA0 SHL SUB AND DUP1 PUSH2 0xD04 JUMPI DUP4 PUSH1 0x60 SHR SWAP2 POP POP PUSH2 0xAF5 JUMP JUMPDEST SWAP4 SWAP3 POP POP POP JUMP JUMPDEST PUSH1 0x0 PUSH2 0xD17 PUSH2 0x229 SLOAD SWAP1 JUMP JUMPDEST SWAP1 POP SWAP1 JUMP JUMPDEST PUSH1 0x0 DUP3 DUP2 MSTORE PUSH2 0x22A PUSH1 0x20 MSTORE PUSH1 0x40 SWAP1 KECCAK256 PUSH1 0x8 ADD SLOAD PUSH1 0xFF AND DUP1 ISZERO PUSH2 0xD42 JUMPI POP PUSH2 0xD42 DUP3 PUSH2 0x3445 JUMP JUMPDEST PUSH2 0xD4B JUMPI PUSH1 0x0 DUP1 REVERT JUMPDEST PUSH1 0x0 JUMPDEST DUP2 MLOAD DUP2 LT ISZERO PUSH2 0xCCA JUMPI PUSH1 0x0 PUSH1 0x1 PUSH1 0x1 PUSH1 0xA0 SHL SUB AND PUSH2 0x22B PUSH1 0x0 DUP5 DUP5 DUP2 MLOAD DUP2 LT PUSH2 0xD79 JUMPI PUSH2 0xD79 PUSH2 0x54FC JUMP JUMPDEST PUSH1 0x20 SWAP1 DUP2 MUL SWAP2 SWAP1 SWAP2 ADD DUP2 ADD MLOAD DUP3 MSTORE DUP2 DUP2 ADD SWAP3 SWAP1 SWAP3 MSTORE PUSH1 0x40 SWAP1 DUP2 ADD PUSH1 0x0 SWAP1 DUP2 KECCAK256 DUP8 DUP3 MSTORE SWAP1 SWAP3 MSTORE SWAP1 KECCAK256 SLOAD PUSH1 0x1 PUSH1 0x1 PUSH1 0xA0 SHL SUB AND EQ PUSH2 0xDB4 JUMPI PUSH1 0x0 DUP1 REVERT JUMPDEST CALLER PUSH2 0x22B PUSH1 0x0 DUP5 DUP5 DUP2 MLOAD DUP2 LT PUSH2 0xDCC JUMPI PUSH2 0xDCC PUSH2 0x54FC JUMP JUMPDEST PUSH1 0x20 MUL PUSH1 0x20 ADD ADD MLOAD DUP2 MSTORE PUSH1 0x20 ADD SWAP1 DUP2 MSTORE PUSH1 0x20 ADD PUSH1 0x0 KECCAK256 PUSH1 0x0 DUP6 DUP2 MSTORE PUSH1 0x20 ADD SWAP1 DUP2 MSTORE PUSH1 0x20 ADD PUSH1 0x0 KECCAK256 PUSH1 0x0 PUSH2 0x100 EXP DUP2 SLOAD DUP2 PUSH1 0x1 PUSH1 0x1 PUSH1 0xA0 SHL SUB MUL NOT AND SWAP1 DUP4 PUSH1 0x1 PUSH1 0x1 PUSH1 0xA0 SHL SUB AND MUL OR SWAP1 SSTORE POP DUP1 DUP1 PUSH2 0xE22 SWAP1 PUSH2 0x5528 JUMP JUMPDEST SWAP2 POP POP PUSH2 0xD4E JUMP JUMPDEST PUSH2 0xE34 CALLER DUP3 PUSH2 0x3462 JUMP JUMPDEST PUSH2 0xE50 JUMPI PUSH1 0x40 MLOAD PUSH3 0x461BCD PUSH1 0xE5 SHL DUP2 MSTORE PUSH1 0x4 ADD PUSH2 0xC29 SWAP1 PUSH2 0x5543 JUMP JUMPDEST PUSH2 0xCCA DUP4 DUP4 DUP4 PUSH2 0x34E1 JUMP JUMPDEST PUSH1 0x0 DUP3 DUP2 MSTORE PUSH2 0x22E PUSH1 0x20 SWAP1 DUP2 MSTORE PUSH1 0x40 DUP1 DUP4 KECCAK256 DUP2 MLOAD PUSH1 0x60 DUP2 ADD DUP4 MSTORE SWAP1 SLOAD PUSH1 0x1 PUSH1 0x1 PUSH1 0xA0 SHL SUB DUP2 AND DUP3 MSTORE PUSH1 0x1 PUSH1 0xA0 SHL DUP2 DIV PUSH3 0xFFFFFF AND SWAP4 DUP3 ADD SWAP4 SWAP1 SWAP4 MSTORE PUSH1 0x1 PUSH1 0xB8 SHL SWAP1 SWAP3 DIV PUSH1 0xFF AND ISZERO DUP1 ISZERO SWAP2 DUP4 ADD SWAP2 SWAP1 SWAP2 MSTORE DUP3 SWAP2 SWAP1 PUSH2 0xEE0 JUMPI DUP1 MLOAD PUSH1 0x20 DUP3 ADD MLOAD SWAP1 SWAP4 POP PUSH2 0x2710 SWAP1 PUSH2 0xECF SWAP1 PUSH3 0xFFFFFF AND DUP7 PUSH2 0x5591 JUMP JUMPDEST PUSH2 0xED9 SWAP2 SWAP1 PUSH2 0x55C6 JUMP JUMPDEST SWAP2 POP PUSH2 0xF21 JUMP JUMPDEST PUSH1 0x0 DUP6 DUP2 MSTORE PUSH2 0x22A PUSH1 0x20 MSTORE PUSH1 0x40 SWAP1 KECCAK256 PUSH1 0x5 ADD SLOAD PUSH1 0x1 PUSH1 0x20 SHL SWAP1 DIV PUSH1 0x1 PUSH1 0x1 PUSH1 0xA0 SHL SUB AND SWAP3 POP PUSH2 0x2710 PUSH2 0xF14 DUP6 PUSH2 0x1F4 PUSH2 0x5591 JUMP JUMPDEST PUSH2 0xF1E SWAP2 SWAP1 PUSH2 0x55C6 JUMP JUMPDEST SWAP2 POP JUMPDEST POP SWAP3 POP SWAP3 SWAP1 POP JUMP JUMPDEST PUSH1 0x0 DUP3 DUP2 MSTORE PUSH1 0x65 PUSH1 0x20 MSTORE PUSH1 0x40 SWAP1 KECCAK256 PUSH1 0x1 ADD SLOAD PUSH2 0xF44 DUP2 PUSH2 0x3688 JUMP JUMPDEST PUSH2 0xCCA DUP4 DUP4 PUSH2 0x3692 JUMP JUMPDEST PUSH1 0x0 PUSH2 0xF59 DUP4 PUSH2 0x24F9 JUMP JUMPDEST DUP3 LT PUSH2 0xFBB JUMPI PUSH1 0x40 MLOAD PUSH3 0x461BCD PUSH1 0xE5 SHL DUP2 MSTORE PUSH1 0x20 PUSH1 0x4 DUP3 ADD MSTORE PUSH1 0x2B PUSH1 0x24 DUP3 ADD MSTORE PUSH32 0x455243373231456E756D657261626C653A206F776E657220696E646578206F75 PUSH1 0x44 DUP3 ADD MSTORE PUSH11 0x74206F6620626F756E6473 PUSH1 0xA8 SHL PUSH1 0x64 DUP3 ADD MSTORE PUSH1 0x84 ADD PUSH2 0xC29 JUMP JUMPDEST POP PUSH1 0x1 PUSH1 0x1 PUSH1 0xA0 SHL SUB SWAP2 SWAP1 SWAP2 AND PUSH1 0x0 SWAP1 DUP2 MSTORE PUSH1 0xFB PUSH1 0x20 SWAP1 DUP2 MSTORE PUSH1 0x40 DUP1 DUP4 KECCAK256 SWAP4 DUP4 MSTORE SWAP3 SWAP1 MSTORE KECCAK256 SLOAD SWAP1 JUMP JUMPDEST PUSH1 0x0 PUSH1 0x2 PUSH2 0x1F5 SLOAD EQ ISZERO PUSH2 0x100A JUMPI PUSH1 0x40 MLOAD PUSH3 0x461BCD PUSH1 0xE5 SHL DUP2 MSTORE PUSH1 0x4 ADD PUSH2 0xC29 SWAP1 PUSH2 0x55DA JUMP JUMPDEST PUSH1 0x2 PUSH2 0x1F5 SSTORE DUP11 MLOAD PUSH1 0x40 DUP1 MLOAD DUP1 DUP3 ADD SWAP1 SWAP2 MSTORE PUSH1 0x3 DUP1 DUP3 MSTORE PUSH3 0x32303 PUSH1 0xEC SHL PUSH1 0x20 DUP4 ADD MSTORE SWAP1 SWAP2 GT PUSH2 0x104D JUMPI PUSH1 0x40 MLOAD PUSH3 0x461BCD PUSH1 0xE5 SHL DUP2 MSTORE PUSH1 0x4 ADD PUSH2 0xC29 SWAP2 SWAP1 PUSH2 0x47D4 JUMP JUMPDEST POP PUSH2 0x105D PUSH2 0x229 DUP1 SLOAD PUSH1 0x1 ADD SWAP1 SSTORE JUMP JUMPDEST PUSH1 0x0 PUSH2 0x1069 PUSH2 0x229 SLOAD SWAP1 JUMP JUMPDEST SWAP1 POP PUSH2 0x1074 DUP2 PUSH2 0x3445 JUMP JUMPDEST ISZERO PUSH1 0x40 MLOAD DUP1 PUSH1 0x40 ADD PUSH1 0x40 MSTORE DUP1 PUSH1 0x3 DUP2 MSTORE PUSH1 0x20 ADD PUSH3 0x191819 PUSH1 0xE9 SHL DUP2 MSTORE POP SWAP1 PUSH2 0x10AF JUMPI PUSH1 0x40 MLOAD PUSH3 0x461BCD PUSH1 0xE5 SHL DUP2 MSTORE PUSH1 0x4 ADD PUSH2 0xC29 SWAP2 SWAP1 PUSH2 0x47D4 JUMP JUMPDEST POP PUSH2 0x228 SLOAD PUSH2 0x227 SLOAD PUSH1 0x1 PUSH1 0x1 PUSH1 0xA0 SHL SUB SWAP2 DUP3 AND SWAP2 AND CALLER EQ PUSH2 0x129E JUMPI PUSH1 0x40 DUP1 MLOAD DUP1 DUP3 ADD DUP3 MSTORE PUSH1 0x12 DUP2 MSTORE PUSH18 0x4352454154455F50524F4A4543545F464545 PUSH1 0x70 SHL PUSH1 0x20 DUP3 ADD MSTORE SWAP1 MLOAD PUSH4 0x6D12DCE1 PUSH1 0xE0 SHL DUP2 MSTORE PUSH1 0x0 SWAP2 PUSH1 0x1 PUSH1 0x1 PUSH1 0xA0 SHL SUB DUP5 AND SWAP2 PUSH4 0x6D12DCE1 SWAP2 PUSH2 0x111F SWAP2 PUSH1 0x4 ADD PUSH2 0x47D4 JUMP JUMPDEST PUSH1 0x20 PUSH1 0x40 MLOAD DUP1 DUP4 SUB DUP2 DUP7 GAS STATICCALL ISZERO DUP1 ISZERO PUSH2 0x113C JUMPI RETURNDATASIZE PUSH1 0x0 DUP1 RETURNDATACOPY RETURNDATASIZE PUSH1 0x0 REVERT JUMPDEST POP POP POP POP PUSH1 0x40 MLOAD RETURNDATASIZE PUSH1 0x1F NOT PUSH1 0x1F DUP3 ADD AND DUP3 ADD DUP1 PUSH1 0x40 MSTORE POP DUP2 ADD SWAP1 PUSH2 0x1160 SWAP2 SWAP1 PUSH2 0x5611 JUMP JUMPDEST SWAP1 POP DUP1 ISZERO PUSH2 0x129C JUMPI PUSH1 0x40 DUP1 MLOAD DUP1 DUP3 ADD DUP3 MSTORE PUSH1 0x9 DUP2 MSTORE PUSH9 0x2322A2AFAA27A5A2A7 PUSH1 0xB9 SHL PUSH1 0x20 DUP3 ADD MSTORE SWAP1 MLOAD PUSH4 0xBF40FAC1 PUSH1 0xE0 SHL DUP2 MSTORE PUSH1 0x0 SWAP2 PUSH1 0x1 PUSH1 0x1 PUSH1 0xA0 SHL SUB DUP6 AND SWAP2 PUSH4 0xBF40FAC1 SWAP2 PUSH2 0x11B3 SWAP2 PUSH1 0x4 ADD PUSH2 0x47D4 JUMP JUMPDEST PUSH1 0x20 PUSH1 0x40 MLOAD DUP1 DUP4 SUB DUP2 DUP7 GAS STATICCALL ISZERO DUP1 ISZERO PUSH2 0x11D0 JUMPI RETURNDATASIZE PUSH1 0x0 DUP1 RETURNDATACOPY RETURNDATASIZE PUSH1 0x0 REVERT JUMPDEST POP POP POP POP PUSH1 0x40 MLOAD RETURNDATASIZE PUSH1 0x1F NOT PUSH1 0x1F DUP3 ADD AND DUP3 ADD DUP1 PUSH1 0x40 MSTORE POP DUP2 ADD SWAP1 PUSH2 0x11F4 SWAP2 SWAP1 PUSH2 0x562A JUMP JUMPDEST SWAP1 POP PUSH1 0x1 PUSH1 0x1 PUSH1 0xA0 SHL SUB DUP2 AND ISZERO PUSH2 0x128D JUMPI PUSH1 0x40 MLOAD PUSH4 0x23B872DD PUSH1 0xE0 SHL DUP2 MSTORE CALLER PUSH1 0x4 DUP3 ADD MSTORE ADDRESS PUSH1 0x24 DUP3 ADD MSTORE PUSH1 0x44 DUP2 ADD DUP4 SWAP1 MSTORE DUP2 SWAP1 PUSH1 0x1 PUSH1 0x1 PUSH1 0xA0 SHL SUB DUP3 AND SWAP1 PUSH4 0x23B872DD SWAP1 PUSH1 0x64 ADD PUSH1 0x20 PUSH1 0x40 MLOAD DUP1 DUP4 SUB DUP2 PUSH1 0x0 DUP8 GAS CALL ISZERO DUP1 ISZERO PUSH2 0x125A JUMPI RETURNDATASIZE PUSH1 0x0 DUP1 RETURNDATACOPY RETURNDATASIZE PUSH1 0x0 REVERT JUMPDEST POP POP POP POP PUSH1 0x40 MLOAD RETURNDATASIZE PUSH1 0x1F NOT PUSH1 0x1F DUP3 ADD AND DUP3 ADD DUP1 PUSH1 0x40 MSTORE POP DUP2 ADD SWAP1 PUSH2 0x127E SWAP2 SWAP1 PUSH2 0x5647 JUMP JUMPDEST PUSH2 0x1287 JUMPI PUSH1 0x0 DUP1 REVERT JUMPDEST POP PUSH2 0x129A JUMP JUMPDEST DUP2 CALLVALUE LT ISZERO PUSH2 0x129A JUMPI PUSH1 0x0 DUP1 REVERT JUMPDEST POP JUMPDEST POP JUMPDEST DUP7 MLOAD ISZERO PUSH2 0x12CD JUMPI PUSH1 0x0 DUP3 DUP2 MSTORE PUSH2 0x22A PUSH1 0x20 SWAP1 DUP2 MSTORE PUSH1 0x40 SWAP1 SWAP2 KECCAK256 DUP9 MLOAD PUSH2 0x12CB SWAP3 PUSH1 0x6 SWAP1 SWAP3 ADD SWAP2 DUP11 ADD SWAP1 PUSH2 0x46B0 JUMP JUMPDEST POP JUMPDEST DUP13 PUSH2 0x22A PUSH1 0x0 DUP5 DUP2 MSTORE PUSH1 0x20 ADD SWAP1 DUP2 MSTORE PUSH1 0x20 ADD PUSH1 0x0 KECCAK256 PUSH1 0x7 ADD SWAP1 DUP1 MLOAD SWAP1 PUSH1 0x20 ADD SWAP1 PUSH2 0x12F8 SWAP3 SWAP2 SWAP1 PUSH2 0x46B0 JUMP JUMPDEST POP PUSH2 0x227 SLOAD PUSH1 0x0 DUP4 DUP2 MSTORE PUSH2 0x22A PUSH1 0x20 MSTORE PUSH1 0x40 SWAP1 KECCAK256 PUSH1 0x5 DUP2 ADD DUP1 SLOAD PUSH5 0x100000000 PUSH1 0x1 PUSH1 0xC0 SHL SUB NOT AND PUSH1 0x1 PUSH1 0x1 PUSH1 0xA0 SHL SUB SWAP4 DUP5 AND PUSH1 0x1 PUSH1 0x20 SHL MUL OR SWAP1 SSTORE PUSH1 0x2 DUP2 ADD DUP15 SWAP1 SSTORE PUSH1 0xC DUP2 ADD DUP14 SWAP1 SSTORE DUP8 DUP2 SSTORE PUSH1 0x1 DUP2 ADD DUP1 SLOAD PUSH1 0x1 PUSH1 0x1 PUSH1 0xA0 SHL SUB NOT AND SWAP3 DUP9 AND SWAP3 SWAP1 SWAP3 OR SWAP1 SWAP2 SSTORE DUP5 SWAP1 PUSH1 0x9 ADD PUSH2 0x136E DUP3 DUP3 PUSH2 0x5A15 JUMP JUMPDEST POP POP PUSH1 0x0 DUP3 DUP2 MSTORE PUSH2 0x22A PUSH1 0x20 SWAP1 DUP2 MSTORE PUSH1 0x40 SWAP1 SWAP2 KECCAK256 DUP12 MLOAD PUSH2 0x1396 SWAP3 PUSH1 0x4 SWAP1 SWAP3 ADD SWAP2 DUP14 ADD SWAP1 PUSH2 0x46B0 JUMP JUMPDEST POP PUSH1 0x0 DUP3 DUP2 MSTORE PUSH2 0x22A PUSH1 0x20 MSTORE PUSH1 0x40 SWAP1 KECCAK256 PUSH1 0x5 DUP2 ADD DUP1 SLOAD PUSH4 0xFFFFFFFF NOT AND PUSH4 0xFFFFFFFF DUP13 AND OR SWAP1 SSTORE PUSH1 0x8 ADD DUP1 SLOAD PUSH1 0xFF NOT AND DUP10 ISZERO ISZERO OR SWAP1 SSTORE PUSH2 0x13D6 DUP15 DUP4 PUSH2 0x36B4 JUMP JUMPDEST PUSH1 0x40 DUP1 MLOAD DUP1 DUP3 ADD DUP3 MSTORE PUSH1 0x17 DUP2 MSTORE PUSH32 0x47454E455241544956455F4E46545F54454D504C415445000000000000000000 PUSH1 0x20 DUP3 ADD MSTORE SWAP1 MLOAD PUSH4 0xBF40FAC1 PUSH1 0xE0 SHL DUP2 MSTORE PUSH1 0x0 SWAP2 PUSH2 0x1480 SWAP2 PUSH1 0x1 PUSH1 0x1 PUSH1 0xA0 SHL SUB DUP6 AND SWAP2 PUSH4 0xBF40FAC1 SWAP2 PUSH2 0x143A SWAP2 SWAP1 PUSH1 0x4 ADD PUSH2 0x47D4 JUMP JUMPDEST PUSH1 0x20 PUSH1 0x40 MLOAD DUP1 DUP4 SUB DUP2 DUP7 GAS STATICCALL ISZERO DUP1 ISZERO PUSH2 0x1457 JUMPI RETURNDATASIZE PUSH1 0x0 DUP1 RETURNDATACOPY RETURNDATASIZE PUSH1 0x0 REVERT JUMPDEST POP POP POP POP PUSH1 0x40 MLOAD RETURNDATASIZE PUSH1 0x1F NOT PUSH1 0x1F DUP3 ADD AND DUP3 ADD DUP1 PUSH1 0x40 MSTORE POP DUP2 ADD SWAP1 PUSH2 0x147B SWAP2 SWAP1 PUSH2 0x562A JUMP JUMPDEST PUSH2 0x36CE JUMP JUMPDEST PUSH1 0x0 DUP5 DUP2 MSTORE PUSH2 0x22A PUSH1 0x20 MSTORE PUSH1 0x40 SWAP1 KECCAK256 PUSH1 0x7 ADD DUP1 SLOAD SWAP2 SWAP3 POP DUP3 SWAP2 PUSH1 0x1 PUSH1 0x1 PUSH1 0xA0 SHL SUB DUP4 AND SWAP2 PUSH4 0xAE3DD095 SWAP2 PUSH2 0x1542 SWAP1 PUSH1 0x1 SWAP1 PUSH1 0x3 SWAP1 DUP5 SWAP1 PUSH2 0x14BF SWAP1 PUSH2 0x54C7 JUMP JUMPDEST DUP1 PUSH1 0x1F ADD PUSH1 0x20 DUP1 SWAP2 DIV MUL PUSH1 0x20 ADD PUSH1 0x40 MLOAD SWAP1 DUP2 ADD PUSH1 0x40 MSTORE DUP1 SWAP3 SWAP2 SWAP1 DUP2 DUP2 MSTORE PUSH1 0x20 ADD DUP3 DUP1 SLOAD PUSH2 0x14EB SWAP1 PUSH2 0x54C7 JUMP JUMPDEST DUP1 ISZERO PUSH2 0x1538 JUMPI DUP1 PUSH1 0x1F LT PUSH2 0x150D JUMPI PUSH2 0x100 DUP1 DUP4 SLOAD DIV MUL DUP4 MSTORE SWAP2 PUSH1 0x20 ADD SWAP2 PUSH2 0x1538 JUMP JUMPDEST DUP3 ADD SWAP2 SWAP1 PUSH1 0x0 MSTORE PUSH1 0x20 PUSH1 0x0 KECCAK256 SWAP1 JUMPDEST DUP2 SLOAD DUP2 MSTORE SWAP1 PUSH1 0x1 ADD SWAP1 PUSH1 0x20 ADD DUP1 DUP4 GT PUSH2 0x151B JUMPI DUP3 SWAP1 SUB PUSH1 0x1F AND DUP3 ADD SWAP2 JUMPDEST POP POP POP POP POP PUSH2 0x3766 JUMP JUMPDEST PUSH2 0x227 SLOAD PUSH1 0x40 MLOAD PUSH1 0x1 PUSH1 0x1 PUSH1 0xE0 SHL SUB NOT PUSH1 0xE0 DUP7 SWAP1 SHL AND DUP2 MSTORE PUSH2 0x1576 SWAP4 SWAP3 SWAP2 PUSH1 0x1 PUSH1 0x1 PUSH1 0xA0 SHL SUB AND SWAP1 ADDRESS SWAP1 DUP12 SWAP1 PUSH1 0x4 ADD PUSH2 0x5B33 JUMP JUMPDEST PUSH1 0x0 PUSH1 0x40 MLOAD DUP1 DUP4 SUB DUP2 PUSH1 0x0 DUP8 DUP1 EXTCODESIZE ISZERO DUP1 ISZERO PUSH2 0x1590 JUMPI PUSH1 0x0 DUP1 REVERT JUMPDEST POP GAS CALL ISZERO DUP1 ISZERO PUSH2 0x15A4 JUMPI RETURNDATASIZE PUSH1 0x0 DUP1 RETURNDATACOPY RETURNDATASIZE PUSH1 0x0 REVERT JUMPDEST POP POP POP PUSH1 0x0 DUP6 DUP2 MSTORE PUSH2 0x22A PUSH1 0x20 MSTORE PUSH1 0x40 SWAP1 KECCAK256 PUSH1 0xB ADD DUP1 SLOAD PUSH1 0x1 PUSH1 0x1 PUSH1 0xA0 SHL SUB NOT AND PUSH1 0x1 PUSH1 0x1 PUSH1 0xA0 SHL SUB SWAP5 SWAP1 SWAP5 AND SWAP4 SWAP1 SWAP4 OR SWAP1 SWAP3 SSTORE POP POP PUSH1 0x1 PUSH2 0x1F5 SSTORE POP SWAP13 SWAP12 POP POP POP POP POP POP POP POP POP POP POP POP JUMP JUMPDEST PUSH1 0x1 PUSH1 0x1 PUSH1 0xA0 SHL SUB DUP2 AND CALLER EQ PUSH2 0x1661 JUMPI PUSH1 0x40 MLOAD PUSH3 0x461BCD PUSH1 0xE5 SHL DUP2 MSTORE PUSH1 0x20 PUSH1 0x4 DUP3 ADD MSTORE PUSH1 0x2F PUSH1 0x24 DUP3 ADD MSTORE PUSH32 0x416363657373436F6E74726F6C3A2063616E206F6E6C792072656E6F756E6365 PUSH1 0x44 DUP3 ADD MSTORE PUSH15 0x103937B632B9903337B91039B2B633 PUSH1 0x89 SHL PUSH1 0x64 DUP3 ADD MSTORE PUSH1 0x84 ADD PUSH2 0xC29 JUMP JUMPDEST PUSH2 0x166B DUP3 DUP3 PUSH2 0x384C JUMP JUMPDEST POP POP JUMP JUMPDEST PUSH2 0xCCA DUP4 DUP4 DUP4 PUSH1 0x40 MLOAD DUP1 PUSH1 0x20 ADD PUSH1 0x40 MSTORE DUP1 PUSH1 0x0 DUP2 MSTORE POP PUSH2 0x2DD7 JUMP JUMPDEST PUSH1 0x0 DUP3 DUP2 MSTORE PUSH2 0x22A PUSH1 0x20 MSTORE PUSH1 0x40 SWAP1 KECCAK256 PUSH1 0x8 ADD SLOAD PUSH1 0xFF AND ISZERO DUP1 ISZERO PUSH2 0x16B1 JUMPI POP PUSH2 0x16B1 DUP3 PUSH2 0x3445 JUMP JUMPDEST PUSH2 0x16BA JUMPI PUSH1 0x0 DUP1 REVERT JUMPDEST PUSH1 0x0 DUP1 DUP3 PUSH1 0x1 PUSH1 0x1 PUSH1 0x40 SHL SUB DUP2 GT ISZERO PUSH2 0x16D5 JUMPI PUSH2 0x16D5 PUSH2 0x486E JUMP JUMPDEST PUSH1 0x40 MLOAD SWAP1 DUP1 DUP3 MSTORE DUP1 PUSH1 0x20 MUL PUSH1 0x20 ADD DUP3 ADD PUSH1 0x40 MSTORE DUP1 ISZERO PUSH2 0x16FE JUMPI DUP2 PUSH1 0x20 ADD PUSH1 0x20 DUP3 MUL DUP1 CALLDATASIZE DUP4 CALLDATACOPY ADD SWAP1 POP JUMPDEST POP SWAP1 POP PUSH1 0x0 JUMPDEST DUP4 DUP2 LT ISZERO PUSH2 0x17A5 JUMPI PUSH2 0x1717 CALLER DUP7 DUP4 PUSH2 0x386E JUMP JUMPDEST PUSH1 0x0 DUP2 DUP2 MSTORE PUSH2 0x22B PUSH1 0x20 SWAP1 DUP2 MSTORE PUSH1 0x40 DUP1 DUP4 KECCAK256 DUP10 DUP5 MSTORE SWAP1 SWAP2 MSTORE SWAP1 KECCAK256 SLOAD SWAP1 SWAP4 POP PUSH1 0x1 PUSH1 0x1 PUSH1 0xA0 SHL SUB AND ISZERO PUSH2 0x1748 JUMPI PUSH1 0x0 DUP1 REVERT JUMPDEST PUSH1 0x0 DUP4 DUP2 MSTORE PUSH2 0x22B PUSH1 0x20 SWAP1 DUP2 MSTORE PUSH1 0x40 DUP1 DUP4 KECCAK256 DUP9 DUP5 MSTORE SWAP1 SWAP2 MSTORE SWAP1 KECCAK256 DUP1 SLOAD PUSH1 0x1 PUSH1 0x1 PUSH1 0xA0 SHL SUB NOT AND CALLER OR SWAP1 SSTORE DUP2 MLOAD DUP4 SWAP1 DUP4 SWAP1 DUP4 SWAP1 DUP2 LT PUSH2 0x1788 JUMPI PUSH2 0x1788 PUSH2 0x54FC JUMP JUMPDEST PUSH1 0x20 SWAP1 DUP2 MUL SWAP2 SWAP1 SWAP2 ADD ADD MSTORE DUP1 PUSH2 0x179D DUP2 PUSH2 0x5528 JUMP JUMPDEST SWAP2 POP POP PUSH2 0x1704 JUMP JUMPDEST POP PUSH32 0xEAC055ED8B84F6ED7B96C917E1A500965C90467998C41630EBABCC5BC99B306B CALLER DUP6 DUP4 PUSH1 0x40 MLOAD PUSH2 0x17D9 SWAP4 SWAP3 SWAP2 SWAP1 PUSH2 0x5BF7 JUMP JUMPDEST PUSH1 0x40 MLOAD DUP1 SWAP2 SUB SWAP1 LOG1 POP POP POP POP JUMP JUMPDEST PUSH1 0x0 PUSH2 0xAF5 DUP3 PUSH2 0x3445 JUMP JUMPDEST PUSH1 0x0 PUSH2 0x17FD PUSH1 0xFD SLOAD SWAP1 JUMP JUMPDEST DUP3 LT PUSH2 0x1860 JUMPI PUSH1 0x40 MLOAD PUSH3 0x461BCD PUSH1 0xE5 SHL DUP2 MSTORE PUSH1 0x20 PUSH1 0x4 DUP3 ADD MSTORE PUSH1 0x2C PUSH1 0x24 DUP3 ADD MSTORE PUSH32 0x455243373231456E756D657261626C653A20676C6F62616C20696E646578206F PUSH1 0x44 DUP3 ADD MSTORE PUSH12 0x7574206F6620626F756E6473 PUSH1 0xA0 SHL PUSH1 0x64 DUP3 ADD MSTORE PUSH1 0x84 ADD PUSH2 0xC29 JUMP JUMPDEST PUSH1 0xFD DUP3 DUP2 SLOAD DUP2 LT PUSH2 0x1873 JUMPI PUSH2 0x1873 PUSH2 0x54FC JUMP JUMPDEST SWAP1 PUSH1 0x0 MSTORE PUSH1 0x20 PUSH1 0x0 KECCAK256 ADD SLOAD SWAP1 POP SWAP2 SWAP1 POP JUMP JUMPDEST PUSH1 0x2 PUSH2 0x1F5 SLOAD EQ ISZERO PUSH2 0x18A9 JUMPI PUSH1 0x40 MLOAD PUSH3 0x461BCD PUSH1 0xE5 SHL DUP2 MSTORE PUSH1 0x4 ADD PUSH2 0xC29 SWAP1 PUSH2 0x55DA JUMP JUMPDEST PUSH1 0x2 PUSH2 0x1F5 DUP2 SWAP1 SSTORE DUP2 MLOAD PUSH1 0x0 SWAP1 DUP2 MSTORE PUSH2 0x22A PUSH1 0x20 SWAP1 DUP2 MSTORE PUSH1 0x40 DUP1 DUP4 KECCAK256 DUP2 MLOAD PUSH2 0x1C0 DUP2 ADD DUP4 MSTORE DUP2 SLOAD DUP2 MSTORE PUSH1 0x1 DUP3 ADD SLOAD PUSH1 0x1 PUSH1 0x1 PUSH1 0xA0 SHL SUB AND SWAP4 DUP2 ADD SWAP4 SWAP1 SWAP4 MSTORE SWAP4 DUP5 ADD SLOAD SWAP1 DUP3 ADD MSTORE PUSH1 0x3 DUP4 ADD SLOAD PUSH1 0x60 DUP3 ADD MSTORE PUSH1 0x4 DUP4 ADD DUP1 SLOAD SWAP3 SWAP4 SWAP2 SWAP3 PUSH1 0x80 DUP5 ADD SWAP2 SWAP1 PUSH2 0x1912 SWAP1 PUSH2 0x54C7 JUMP JUMPDEST DUP1 PUSH1 0x1F ADD PUSH1 0x20 DUP1 SWAP2 DIV MUL PUSH1 0x20 ADD PUSH1 0x40 MLOAD SWAP1 DUP2 ADD PUSH1 0x40 MSTORE DUP1 SWAP3 SWAP2 SWAP1 DUP2 DUP2 MSTORE PUSH1 0x20 ADD DUP3 DUP1 SLOAD PUSH2 0x193E SWAP1 PUSH2 0x54C7 JUMP JUMPDEST DUP1 ISZERO PUSH2 0x198B JUMPI DUP1 PUSH1 0x1F LT PUSH2 0x1960 JUMPI PUSH2 0x100 DUP1 DUP4 SLOAD DIV MUL DUP4 MSTORE SWAP2 PUSH1 0x20 ADD SWAP2 PUSH2 0x198B JUMP JUMPDEST DUP3 ADD SWAP2 SWAP1 PUSH1 0x0 MSTORE PUSH1 0x20 PUSH1 0x0 KECCAK256 SWAP1 JUMPDEST DUP2 SLOAD DUP2 MSTORE SWAP1 PUSH1 0x1 ADD SWAP1 PUSH1 0x20 ADD DUP1 DUP4 GT PUSH2 0x196E JUMPI DUP3 SWAP1 SUB PUSH1 0x1F AND DUP3 ADD SWAP2 JUMPDEST POP POP POP SWAP2 DUP4 MSTORE POP POP PUSH1 0x5 DUP3 ADD SLOAD PUSH4 0xFFFFFFFF DUP2 AND PUSH1 0x20 DUP4 ADD MSTORE PUSH1 0x1 PUSH1 0x20 SHL SWAP1 DIV PUSH1 0x1 PUSH1 0x1 PUSH1 0xA0 SHL SUB AND PUSH1 0x40 DUP3 ADD MSTORE PUSH1 0x6 DUP3 ADD DUP1 SLOAD PUSH1 0x60 SWAP1 SWAP3 ADD SWAP2 PUSH2 0x19CE SWAP1 PUSH2 0x54C7 JUMP JUMPDEST DUP1 PUSH1 0x1F ADD PUSH1 0x20 DUP1 SWAP2 DIV MUL PUSH1 0x20 ADD PUSH1 0x40 MLOAD SWAP1 DUP2 ADD PUSH1 0x40 MSTORE DUP1 SWAP3 SWAP2 SWAP1 DUP2 DUP2 MSTORE PUSH1 0x20 ADD DUP3 DUP1 SLOAD PUSH2 0x19FA SWAP1 PUSH2 0x54C7 JUMP JUMPDEST DUP1 ISZERO PUSH2 0x1A47 JUMPI DUP1 PUSH1 0x1F LT PUSH2 0x1A1C JUMPI PUSH2 0x100 DUP1 DUP4 SLOAD DIV MUL DUP4 MSTORE SWAP2 PUSH1 0x20 ADD SWAP2 PUSH2 0x1A47 JUMP JUMPDEST DUP3 ADD SWAP2 SWAP1 PUSH1 0x0 MSTORE PUSH1 0x20 PUSH1 0x0 KECCAK256 SWAP1 JUMPDEST DUP2 SLOAD DUP2 MSTORE SWAP1 PUSH1 0x1 ADD SWAP1 PUSH1 0x20 ADD DUP1 DUP4 GT PUSH2 0x1A2A JUMPI DUP3 SWAP1 SUB PUSH1 0x1F AND DUP3 ADD SWAP2 JUMPDEST POP POP POP POP POP DUP2 MSTORE PUSH1 0x20 ADD PUSH1 0x7 DUP3 ADD DUP1 SLOAD PUSH2 0x1A60 SWAP1 PUSH2 0x54C7 JUMP JUMPDEST DUP1 PUSH1 0x1F ADD PUSH1 0x20 DUP1 SWAP2 DIV MUL PUSH1 0x20 ADD PUSH1 0x40 MLOAD SWAP1 DUP2 ADD PUSH1 0x40 MSTORE DUP1 SWAP3 SWAP2 SWAP1 DUP2 DUP2 MSTORE PUSH1 0x20 ADD DUP3 DUP1 SLOAD PUSH2 0x1A8C SWAP1 PUSH2 0x54C7 JUMP JUMPDEST DUP1 ISZERO PUSH2 0x1AD9 JUMPI DUP1 PUSH1 0x1F LT PUSH2 0x1AAE JUMPI PUSH2 0x100 DUP1 DUP4 SLOAD DIV MUL DUP4 MSTORE SWAP2 PUSH1 0x20 ADD SWAP2 PUSH2 0x1AD9 JUMP JUMPDEST DUP3 ADD SWAP2 SWAP1 PUSH1 0x0 MSTORE PUSH1 0x20 PUSH1 0x0 KECCAK256 SWAP1 JUMPDEST DUP2 SLOAD DUP2 MSTORE SWAP1 PUSH1 0x1 ADD SWAP1 PUSH1 0x20 ADD DUP1 DUP4 GT PUSH2 0x1ABC JUMPI DUP3 SWAP1 SUB PUSH1 0x1F AND DUP3 ADD SWAP2 JUMPDEST POP POP POP SWAP2 DUP4 MSTORE POP POP PUSH1 0x8 DUP3 ADD SLOAD PUSH1 0xFF AND ISZERO ISZERO PUSH1 0x20 DUP1 DUP4 ADD SWAP2 SWAP1 SWAP2 MSTORE PUSH1 0x40 DUP1 MLOAD DUP1 DUP3 ADD DUP3 MSTORE PUSH1 0x9 DUP6 ADD DUP1 SLOAD DUP3 MSTORE PUSH1 0xA DUP7 ADD DUP1 SLOAD DUP5 MLOAD DUP2 DUP8 MUL DUP2 ADD DUP8 ADD DUP7 MSTORE DUP2 DUP2 MSTORE SWAP5 SWAP1 SWAP7 ADD SWAP6 SWAP3 SWAP5 SWAP2 SWAP4 DUP6 DUP4 ADD SWAP4 SWAP1 SWAP3 PUSH1 0x0 SWAP1 DUP5 ADD JUMPDEST DUP3 DUP3 LT ISZERO PUSH2 0x1C7D JUMPI PUSH1 0x0 DUP5 DUP2 MSTORE PUSH1 0x20 DUP1 DUP3 KECCAK256 PUSH1 0x40 DUP1 MLOAD PUSH1 0xE0 DUP2 ADD DUP3 MSTORE PUSH1 0x7 DUP8 MUL SWAP1 SWAP3 ADD DUP1 SLOAD PUSH1 0xFF SWAP1 DUP2 AND DUP5 MSTORE PUSH1 0x1 DUP3 ADD SLOAD DUP5 DUP7 ADD MSTORE PUSH1 0x2 DUP3 ADD SLOAD DUP5 DUP5 ADD MSTORE PUSH1 0x3 DUP3 ADD SLOAD AND PUSH1 0x60 DUP5 ADD MSTORE PUSH1 0x4 DUP2 ADD DUP1 SLOAD DUP4 MLOAD DUP2 DUP8 MUL DUP2 ADD DUP8 ADD SWAP1 SWAP5 MSTORE DUP1 DUP5 MSTORE SWAP4 SWAP6 SWAP2 SWAP5 PUSH1 0x80 DUP8 ADD SWAP5 SWAP2 SWAP3 SWAP1 DUP5 ADD JUMPDEST DUP3 DUP3 LT ISZERO PUSH2 0x1C47 JUMPI DUP4 DUP3 SWAP1 PUSH1 0x0 MSTORE PUSH1 0x20 PUSH1 0x0 KECCAK256 ADD DUP1 SLOAD PUSH2 0x1BBA SWAP1 PUSH2 0x54C7 JUMP JUMPDEST DUP1 PUSH1 0x1F ADD PUSH1 0x20 DUP1 SWAP2 DIV MUL PUSH1 0x20 ADD PUSH1 0x40 MLOAD SWAP1 DUP2 ADD PUSH1 0x40 MSTORE DUP1 SWAP3 SWAP2 SWAP1 DUP2 DUP2 MSTORE PUSH1 0x20 ADD DUP3 DUP1 SLOAD PUSH2 0x1BE6 SWAP1 PUSH2 0x54C7 JUMP JUMPDEST DUP1 ISZERO PUSH2 0x1C33 JUMPI DUP1 PUSH1 0x1F LT PUSH2 0x1C08 JUMPI PUSH2 0x100 DUP1 DUP4 SLOAD DIV MUL DUP4 MSTORE SWAP2 PUSH1 0x20 ADD SWAP2 PUSH2 0x1C33 JUMP JUMPDEST DUP3 ADD SWAP2 SWAP1 PUSH1 0x0 MSTORE PUSH1 0x20 PUSH1 0x0 KECCAK256 SWAP1 JUMPDEST DUP2 SLOAD DUP2 MSTORE SWAP1 PUSH1 0x1 ADD SWAP1 PUSH1 0x20 ADD DUP1 DUP4 GT PUSH2 0x1C16 JUMPI DUP3 SWAP1 SUB PUSH1 0x1F AND DUP3 ADD SWAP2 JUMPDEST POP POP POP POP POP DUP2 MSTORE PUSH1 0x20 ADD SWAP1 PUSH1 0x1 ADD SWAP1 PUSH2 0x1B9B JUMP JUMPDEST POP POP POP SWAP1 DUP3 MSTORE POP PUSH1 0x5 DUP3 ADD SLOAD PUSH1 0x20 DUP1 DUP4 ADD SWAP2 SWAP1 SWAP2 MSTORE PUSH1 0x6 SWAP1 SWAP3 ADD SLOAD PUSH1 0xFF AND ISZERO ISZERO PUSH1 0x40 SWAP1 SWAP2 ADD MSTORE SWAP1 DUP3 MSTORE PUSH1 0x1 SWAP3 SWAP1 SWAP3 ADD SWAP2 ADD PUSH2 0x1B2E JUMP JUMPDEST POP POP POP SWAP2 MSTORE POP POP DUP2 MSTORE PUSH1 0xB DUP3 ADD SLOAD PUSH1 0x1 PUSH1 0x1 PUSH1 0xA0 SHL SUB AND PUSH1 0x20 DUP3 ADD MSTORE PUSH1 0xC DUP3 ADD SLOAD PUSH1 0x40 DUP1 DUP4 ADD SWAP2 SWAP1 SWAP2 MSTORE PUSH1 0xD SWAP1 SWAP3 ADD SLOAD PUSH1 0x60 SWAP1 SWAP2 ADD MSTORE DUP4 ADD MLOAD MLOAD SWAP1 SWAP2 POP ISZERO DUP1 ISZERO SWAP1 PUSH2 0x1CD1 JUMPI POP DUP2 PUSH1 0x60 ADD MLOAD MLOAD DUP3 PUSH1 0x40 ADD MLOAD MLOAD EQ JUMPDEST PUSH1 0x40 MLOAD DUP1 PUSH1 0x40 ADD PUSH1 0x40 MSTORE DUP1 PUSH1 0x3 DUP2 MSTORE PUSH1 0x20 ADD PUSH3 0xC8C0D PUSH1 0xEA SHL DUP2 MSTORE POP SWAP1 PUSH2 0x1D0B JUMPI PUSH1 0x40 MLOAD PUSH3 0x461BCD PUSH1 0xE5 SHL DUP2 MSTORE PUSH1 0x4 ADD PUSH2 0xC29 SWAP2 SWAP1 PUSH2 0x47D4 JUMP JUMPDEST POP PUSH1 0x40 DUP2 ADD MLOAD ISZERO DUP1 PUSH2 0x1D35 JUMPI POP DUP1 PUSH1 0x40 ADD MLOAD DUP3 PUSH1 0x40 ADD MLOAD MLOAD DUP3 PUSH1 0x60 ADD MLOAD PUSH2 0x1D32 SWAP2 SWAP1 PUSH2 0x5C54 JUMP JUMPDEST GT ISZERO JUMPDEST PUSH1 0x40 MLOAD DUP1 PUSH1 0x40 ADD PUSH1 0x40 MSTORE DUP1 PUSH1 0x3 DUP2 MSTORE PUSH1 0x20 ADD PUSH3 0x323033 PUSH1 0xE8 SHL DUP2 MSTORE POP SWAP1 PUSH2 0x1D6F JUMPI PUSH1 0x40 MLOAD PUSH3 0x461BCD PUSH1 0xE5 SHL DUP2 MSTORE PUSH1 0x4 ADD PUSH2 0xC29 SWAP2 SWAP1 PUSH2 0x47D4 JUMP JUMPDEST POP PUSH2 0x180 DUP2 ADD MLOAD ISZERO PUSH2 0x1DD0 JUMPI DUP2 MLOAD PUSH2 0x1D86 SWAP1 PUSH2 0x23EB JUMP JUMPDEST PUSH1 0x1 PUSH1 0x1 PUSH1 0xA0 SHL SUB AND CALLER PUSH1 0x1 PUSH1 0x1 PUSH1 0xA0 SHL SUB AND EQ PUSH2 0x1DD0 JUMPI DUP2 PUSH1 0x40 ADD MLOAD MLOAD DUP2 PUSH2 0x1A0 ADD DUP2 DUP2 MLOAD PUSH2 0x1DB6 SWAP2 SWAP1 PUSH2 0x5C54 JUMP JUMPDEST SWAP1 MSTORE POP PUSH2 0x180 DUP2 ADD MLOAD PUSH2 0x1A0 DUP3 ADD MLOAD GT ISZERO PUSH2 0x1DD0 JUMPI PUSH1 0x0 DUP1 REVERT JUMPDEST DUP1 MLOAD DUP1 ISZERO PUSH2 0x209E JUMPI DUP3 MLOAD CALLER SWAP1 PUSH2 0x1DE5 SWAP1 PUSH2 0x23EB JUMP JUMPDEST PUSH1 0x1 PUSH1 0x1 PUSH1 0xA0 SHL SUB AND EQ PUSH2 0x209E JUMPI PUSH2 0x228 SLOAD PUSH1 0x40 DUP5 ADD MLOAD MLOAD PUSH1 0x1 PUSH1 0x1 PUSH1 0xA0 SHL SUB SWAP1 SWAP2 AND SWAP1 PUSH2 0x1E13 SWAP1 DUP4 PUSH2 0x5591 JUMP JUMPDEST PUSH1 0x40 DUP1 MLOAD DUP1 DUP3 ADD DUP3 MSTORE PUSH1 0xC DUP2 MSTORE PUSH12 0x4D494E545F4E46545F464545 PUSH1 0xA0 SHL PUSH1 0x20 DUP3 ADD MSTORE SWAP1 MLOAD PUSH4 0x6D12DCE1 PUSH1 0xE0 SHL DUP2 MSTORE SWAP2 SWAP4 POP PUSH1 0x0 SWAP2 PUSH1 0x1 PUSH1 0x1 PUSH1 0xA0 SHL SUB DUP5 AND SWAP2 PUSH4 0x6D12DCE1 SWAP2 PUSH2 0x1E65 SWAP2 SWAP1 PUSH1 0x4 ADD PUSH2 0x47D4 JUMP JUMPDEST PUSH1 0x20 PUSH1 0x40 MLOAD DUP1 DUP4 SUB DUP2 DUP7 GAS STATICCALL ISZERO DUP1 ISZERO PUSH2 0x1E82 JUMPI RETURNDATASIZE PUSH1 0x0 DUP1 RETURNDATACOPY RETURNDATASIZE PUSH1 0x0 REVERT JUMPDEST POP POP POP POP PUSH1 0x40 MLOAD RETURNDATASIZE PUSH1 0x1F NOT PUSH1 0x1F DUP3 ADD AND DUP3 ADD DUP1 PUSH1 0x40 MSTORE POP DUP2 ADD SWAP1 PUSH2 0x1EA6 SWAP2 SWAP1 PUSH2 0x5611 JUMP JUMPDEST SWAP1 POP DUP1 PUSH2 0x1EB2 JUMPI POP PUSH2 0x1F4 JUMPDEST PUSH1 0x20 DUP5 ADD MLOAD PUSH1 0x1 PUSH1 0x1 PUSH1 0xA0 SHL SUB AND PUSH2 0x1F5F JUMPI DUP3 CALLVALUE LT ISZERO PUSH2 0x1ED1 JUMPI PUSH1 0x0 DUP1 REVERT JUMPDEST PUSH1 0x0 PUSH2 0x1EE0 DUP7 PUSH1 0x0 ADD MLOAD PUSH2 0x23EB JUMP JUMPDEST PUSH1 0x1 PUSH1 0x1 PUSH1 0xA0 SHL SUB AND PUSH2 0x2710 PUSH2 0x1EF6 DUP5 DUP8 PUSH2 0x5591 JUMP JUMPDEST PUSH2 0x1F00 SWAP2 SWAP1 PUSH2 0x55C6 JUMP JUMPDEST PUSH2 0x1F0A SWAP1 DUP7 PUSH2 0x5C6C JUMP JUMPDEST PUSH1 0x40 MLOAD PUSH1 0x0 DUP2 DUP2 DUP2 DUP6 DUP8 GAS CALL SWAP3 POP POP POP RETURNDATASIZE DUP1 PUSH1 0x0 DUP2 EQ PUSH2 0x1F46 JUMPI PUSH1 0x40 MLOAD SWAP2 POP PUSH1 0x1F NOT PUSH1 0x3F RETURNDATASIZE ADD AND DUP3 ADD PUSH1 0x40 MSTORE RETURNDATASIZE DUP3 MSTORE RETURNDATASIZE PUSH1 0x0 PUSH1 0x20 DUP5 ADD RETURNDATACOPY PUSH2 0x1F4B JUMP JUMPDEST PUSH1 0x60 SWAP2 POP JUMPDEST POP POP SWAP1 POP DUP1 PUSH2 0x1F59 JUMPI PUSH1 0x0 DUP1 REVERT JUMPDEST POP PUSH2 0x209B JUMP JUMPDEST PUSH1 0x20 DUP5 ADD MLOAD PUSH1 0x40 MLOAD PUSH4 0x23B872DD PUSH1 0xE0 SHL DUP2 MSTORE CALLER PUSH1 0x4 DUP3 ADD MSTORE ADDRESS PUSH1 0x24 DUP3 ADD MSTORE PUSH1 0x44 DUP2 ADD DUP6 SWAP1 MSTORE PUSH1 0x1 PUSH1 0x1 PUSH1 0xA0 SHL SUB DUP3 AND SWAP1 PUSH4 0x23B872DD SWAP1 PUSH1 0x64 ADD PUSH1 0x20 PUSH1 0x40 MLOAD DUP1 DUP4 SUB DUP2 PUSH1 0x0 DUP8 GAS CALL ISZERO DUP1 ISZERO PUSH2 0x1FB7 JUMPI RETURNDATASIZE PUSH1 0x0 DUP1 RETURNDATACOPY RETURNDATASIZE PUSH1 0x0 REVERT JUMPDEST POP POP POP POP PUSH1 0x40 MLOAD RETURNDATASIZE PUSH1 0x1F NOT PUSH1 0x1F DUP3 ADD AND DUP3 ADD DUP1 PUSH1 0x40 MSTORE POP DUP2 ADD SWAP1 PUSH2 0x1FDB SWAP2 SWAP1 PUSH2 0x5647 JUMP JUMPDEST PUSH2 0x1FE4 JUMPI PUSH1 0x0 DUP1 REVERT JUMPDEST DUP1 PUSH1 0x1 PUSH1 0x1 PUSH1 0xA0 SHL SUB AND PUSH4 0xA9059CBB PUSH2 0x2000 DUP9 PUSH1 0x0 ADD MLOAD PUSH2 0x23EB JUMP JUMPDEST PUSH2 0x2710 PUSH2 0x200D DUP7 DUP10 PUSH2 0x5591 JUMP JUMPDEST PUSH2 0x2017 SWAP2 SWAP1 PUSH2 0x55C6 JUMP JUMPDEST PUSH2 0x2021 SWAP1 DUP9 PUSH2 0x5C6C JUMP JUMPDEST PUSH1 0x40 MLOAD PUSH1 0x1 PUSH1 0x1 PUSH1 0xE0 SHL SUB NOT PUSH1 0xE0 DUP6 SWAP1 SHL AND DUP2 MSTORE PUSH1 0x1 PUSH1 0x1 PUSH1 0xA0 SHL SUB SWAP1 SWAP3 AND PUSH1 0x4 DUP4 ADD MSTORE PUSH1 0x24 DUP3 ADD MSTORE PUSH1 0x44 ADD PUSH1 0x20 PUSH1 0x40 MLOAD DUP1 DUP4 SUB DUP2 PUSH1 0x0 DUP8 GAS CALL ISZERO DUP1 ISZERO PUSH2 0x206C JUMPI RETURNDATASIZE PUSH1 0x0 DUP1 RETURNDATACOPY RETURNDATASIZE PUSH1 0x0 REVERT JUMPDEST POP POP POP POP PUSH1 0x40 MLOAD RETURNDATASIZE PUSH1 0x1F NOT PUSH1 0x1F DUP3 ADD AND DUP3 ADD DUP1 PUSH1 0x40 MSTORE POP DUP2 ADD SWAP1 PUSH2 0x2090 SWAP2 SWAP1 PUSH2 0x5647 JUMP JUMPDEST PUSH2 0x2099 JUMPI PUSH1 0x0 DUP1 REVERT JUMPDEST POP JUMPDEST POP POP JUMPDEST DUP3 MLOAD PUSH1 0x0 SWAP1 DUP2 MSTORE PUSH2 0x22A PUSH1 0x20 MSTORE PUSH1 0x40 DUP2 KECCAK256 PUSH1 0xB ADD SLOAD PUSH1 0x1 PUSH1 0x1 PUSH1 0xA0 SHL SUB AND SWAP1 JUMPDEST DUP5 PUSH1 0x60 ADD MLOAD MLOAD DUP2 LT ISZERO PUSH2 0x23A5 JUMPI DUP5 PUSH1 0x60 ADD MLOAD DUP2 DUP2 MLOAD DUP2 LT PUSH2 0x20E1 JUMPI PUSH2 0x20E1 PUSH2 0x54FC JUMP JUMPDEST PUSH1 0x20 SWAP1 DUP2 MUL SWAP2 SWAP1 SWAP2 ADD DUP2 ADD MLOAD DUP2 ADD MLOAD MLOAD DUP7 MLOAD PUSH1 0x0 SWAP1 DUP2 MSTORE PUSH2 0x22A DUP4 MSTORE PUSH1 0x40 SWAP1 DUP2 SWAP1 KECCAK256 PUSH1 0xA ADD SLOAD DUP2 MLOAD DUP1 DUP4 ADD SWAP1 SWAP3 MSTORE PUSH1 0x3 DUP3 MSTORE PUSH3 0xC8C0D PUSH1 0xEA SHL SWAP4 DUP3 ADD SWAP4 SWAP1 SWAP4 MSTORE SWAP2 EQ PUSH2 0x2140 JUMPI PUSH1 0x40 MLOAD PUSH3 0x461BCD PUSH1 0xE5 SHL DUP2 MSTORE PUSH1 0x4 ADD PUSH2 0xC29 SWAP2 SWAP1 PUSH2 0x47D4 JUMP JUMPDEST POP PUSH1 0x0 DUP6 PUSH1 0x60 ADD MLOAD DUP3 DUP2 MLOAD DUP2 LT PUSH2 0x2159 JUMPI PUSH2 0x2159 PUSH2 0x54FC JUMP JUMPDEST PUSH1 0x20 SWAP1 DUP2 MUL SWAP2 SWAP1 SWAP2 ADD DUP2 ADD MLOAD MLOAD PUSH1 0x0 DUP2 DUP2 MSTORE PUSH2 0x22D DUP4 MSTORE PUSH1 0x40 DUP1 DUP3 KECCAK256 DUP11 MLOAD DUP4 MSTORE DUP5 MSTORE SWAP1 DUP2 SWAP1 KECCAK256 SLOAD DUP2 MLOAD DUP1 DUP4 ADD SWAP1 SWAP3 MSTORE PUSH1 0x3 DUP3 MSTORE PUSH3 0x323035 PUSH1 0xE8 SHL SWAP4 DUP3 ADD SWAP4 SWAP1 SWAP4 MSTORE SWAP1 SWAP3 POP SWAP1 ISZERO PUSH2 0x21BC JUMPI PUSH1 0x40 MLOAD PUSH3 0x461BCD PUSH1 0xE5 SHL DUP2 MSTORE PUSH1 0x4 ADD PUSH2 0xC29 SWAP2 SWAP1 PUSH2 0x47D4 JUMP JUMPDEST POP DUP6 MLOAD PUSH1 0x0 SWAP1 DUP2 MSTORE PUSH2 0x22A PUSH1 0x20 MSTORE PUSH1 0x40 SWAP1 KECCAK256 PUSH1 0x8 ADD SLOAD PUSH1 0xFF AND PUSH2 0x2232 JUMPI DUP6 MLOAD CALLER SWAP1 PUSH2 0x21E8 SWAP1 DUP4 SWAP1 PUSH2 0xCCF JUMP JUMPDEST PUSH1 0x1 PUSH1 0x1 PUSH1 0xA0 SHL SUB AND EQ PUSH1 0x40 MLOAD DUP1 PUSH1 0x40 ADD PUSH1 0x40 MSTORE DUP1 PUSH1 0x3 DUP2 MSTORE PUSH1 0x20 ADD PUSH3 0x323035 PUSH1 0xE8 SHL DUP2 MSTORE POP SWAP1 PUSH2 0x222C JUMPI PUSH1 0x40 MLOAD PUSH3 0x461BCD PUSH1 0xE5 SHL DUP2 MSTORE PUSH1 0x4 ADD PUSH2 0xC29 SWAP2 SWAP1 PUSH2 0x47D4 JUMP JUMPDEST POP PUSH2 0x228D JUMP JUMPDEST PUSH1 0x0 DUP2 DUP2 MSTORE PUSH2 0x22B PUSH1 0x20 SWAP1 DUP2 MSTORE PUSH1 0x40 DUP1 DUP4 KECCAK256 DUP10 MLOAD DUP5 MSTORE SWAP1 SWAP2 MSTORE SWAP1 KECCAK256 SLOAD PUSH1 0x1 PUSH1 0x1 PUSH1 0xA0 SHL SUB AND ISZERO PUSH2 0x2261 JUMPI PUSH1 0x0 DUP1 REVERT JUMPDEST PUSH1 0x0 DUP2 DUP2 MSTORE PUSH2 0x22B PUSH1 0x20 SWAP1 DUP2 MSTORE PUSH1 0x40 DUP1 DUP4 KECCAK256 DUP10 MLOAD DUP5 MSTORE SWAP1 SWAP2 MSTORE SWAP1 KECCAK256 DUP1 SLOAD PUSH1 0x1 PUSH1 0x1 PUSH1 0xA0 SHL SUB NOT AND CALLER OR SWAP1 SSTORE JUMPDEST DUP3 PUSH1 0x1 PUSH1 0x1 PUSH1 0xA0 SHL SUB AND PUSH4 0x7D763613 DUP8 PUSH1 0x20 ADD MLOAD PUSH2 0x227 PUSH1 0x0 SWAP1 SLOAD SWAP1 PUSH2 0x100 EXP SWAP1 DIV PUSH1 0x1 PUSH1 0x1 PUSH1 0xA0 SHL SUB AND DUP10 PUSH1 0x40 ADD MLOAD DUP7 DUP2 MLOAD DUP2 LT PUSH2 0x22CE JUMPI PUSH2 0x22CE PUSH2 0x54FC JUMP JUMPDEST PUSH1 0x20 MUL PUSH1 0x20 ADD ADD MLOAD DUP11 PUSH1 0x60 ADD MLOAD DUP8 DUP2 MLOAD DUP2 LT PUSH2 0x22EC JUMPI PUSH2 0x22EC PUSH2 0x54FC JUMP JUMPDEST PUSH1 0x20 MUL PUSH1 0x20 ADD ADD MLOAD PUSH1 0x40 MLOAD DUP6 PUSH4 0xFFFFFFFF AND PUSH1 0xE0 SHL DUP2 MSTORE PUSH1 0x4 ADD PUSH2 0x2313 SWAP5 SWAP4 SWAP3 SWAP2 SWAP1 PUSH2 0x5C83 JUMP JUMPDEST PUSH1 0x0 PUSH1 0x40 MLOAD DUP1 DUP4 SUB DUP2 PUSH1 0x0 DUP8 DUP1 EXTCODESIZE ISZERO DUP1 ISZERO PUSH2 0x232D JUMPI PUSH1 0x0 DUP1 REVERT JUMPDEST POP GAS CALL ISZERO DUP1 ISZERO PUSH2 0x2341 JUMPI RETURNDATASIZE PUSH1 0x0 DUP1 RETURNDATACOPY RETURNDATASIZE PUSH1 0x0 REVERT JUMPDEST POP POP POP POP PUSH1 0x1 DUP6 PUSH1 0x60 ADD DUP2 DUP2 MLOAD PUSH2 0x2358 SWAP2 SWAP1 PUSH2 0x5C54 JUMP JUMPDEST SWAP1 MSTORE POP PUSH1 0x60 DUP6 ADD DUP1 MLOAD DUP8 MLOAD PUSH1 0x0 SWAP1 DUP2 MSTORE PUSH2 0x22A PUSH1 0x20 SWAP1 DUP2 MSTORE PUSH1 0x40 DUP1 DUP4 KECCAK256 PUSH1 0x3 ADD SWAP4 SWAP1 SWAP4 SSTORE SWAP3 MLOAD SWAP4 DUP2 MSTORE PUSH2 0x22D DUP4 MSTORE DUP2 DUP2 KECCAK256 DUP10 MLOAD DUP3 MSTORE SWAP1 SWAP3 MSTORE SWAP1 KECCAK256 SSTORE DUP1 PUSH2 0x239D DUP2 PUSH2 0x5528 JUMP JUMPDEST SWAP2 POP POP PUSH2 0x20BE JUMP JUMPDEST POP PUSH32 0x67175103D209CF669BE17E253ABA378479477B5A1EF3B1E9EAEDCE52F0EBAB54 CALLER DUP6 PUSH1 0x40 MLOAD PUSH2 0x23D7 SWAP3 SWAP2 SWAP1 PUSH2 0x5CCC JUMP JUMPDEST PUSH1 0x40 MLOAD DUP1 SWAP2 SUB SWAP1 LOG1 POP POP PUSH1 0x1 PUSH2 0x1F5 SSTORE POP POP JUMP JUMPDEST PUSH1 0x0 DUP2 DUP2 MSTORE PUSH1 0xCB PUSH1 0x20 MSTORE PUSH1 0x40 DUP2 KECCAK256 SLOAD PUSH1 0x1 PUSH1 0x1 PUSH1 0xA0 SHL SUB AND DUP1 PUSH2 0xAF5 JUMPI PUSH1 0x40 MLOAD PUSH3 0x461BCD PUSH1 0xE5 SHL DUP2 MSTORE PUSH1 0x20 PUSH1 0x4 DUP3 ADD MSTORE PUSH1 0x18 PUSH1 0x24 DUP3 ADD MSTORE PUSH24 0x115490CDCC8C4E881A5B9D985B1A59081D1BDAD95B881251 PUSH1 0x42 SHL PUSH1 0x44 DUP3 ADD MSTORE PUSH1 0x64 ADD PUSH2 0xC29 JUMP JUMPDEST PUSH1 0x0 DUP3 DUP2 MSTORE PUSH2 0x22D PUSH1 0x20 SWAP1 DUP2 MSTORE PUSH1 0x40 DUP1 DUP4 KECCAK256 DUP5 DUP5 MSTORE SWAP1 SWAP2 MSTORE SWAP1 KECCAK256 SLOAD ISZERO DUP1 ISZERO SWAP1 PUSH2 0x247A JUMPI POP PUSH2 0x247A CALLER DUP4 DUP4 PUSH2 0x2D66 JUMP JUMPDEST DUP1 ISZERO PUSH2 0x24A1 JUMPI POP DUP4 PUSH1 0x1 PUSH1 0x1 PUSH1 0xA0 SHL SUB AND PUSH2 0x2495 DUP4 DUP4 PUSH2 0xCCF JUMP JUMPDEST PUSH1 0x1 PUSH1 0x1 PUSH1 0xA0 SHL SUB AND EQ ISZERO JUMPDEST DUP1 ISZERO PUSH2 0x24B5 JUMPI POP PUSH1 0x1 PUSH1 0x1 PUSH1 0xA0 SHL SUB DUP4 AND ISZERO ISZERO JUMPDEST PUSH2 0x24BE JUMPI PUSH1 0x0 DUP1 REVERT JUMPDEST PUSH1 0x0 SWAP2 DUP3 MSTORE PUSH2 0x22B PUSH1 0x20 SWAP1 DUP2 MSTORE PUSH1 0x40 DUP1 DUP5 KECCAK256 SWAP3 DUP5 MSTORE SWAP2 SWAP1 MSTORE SWAP1 KECCAK256 DUP1 SLOAD PUSH1 0x1 PUSH1 0x1 PUSH1 0xA0 SHL SUB NOT AND PUSH1 0x1 PUSH1 0x1 PUSH1 0xA0 SHL SUB SWAP3 SWAP1 SWAP3 AND SWAP2 SWAP1 SWAP2 OR SWAP1 SSTORE POP JUMP JUMPDEST PUSH1 0x0 PUSH1 0x1 PUSH1 0x1 PUSH1 0xA0 SHL SUB DUP3 AND PUSH2 0x2563 JUMPI PUSH1 0x40 MLOAD PUSH3 0x461BCD PUSH1 0xE5 SHL DUP2 MSTORE PUSH1 0x20 PUSH1 0x4 DUP3 ADD MSTORE PUSH1 0x29 PUSH1 0x24 DUP3 ADD MSTORE PUSH32 0x4552433732313A2061646472657373207A65726F206973206E6F742061207661 PUSH1 0x44 DUP3 ADD MSTORE PUSH9 0x3634B21037BBB732B9 PUSH1 0xB9 SHL PUSH1 0x64 DUP3 ADD MSTORE PUSH1 0x84 ADD PUSH2 0xC29 JUMP JUMPDEST POP PUSH1 0x1 PUSH1 0x1 PUSH1 0xA0 SHL SUB AND PUSH1 0x0 SWAP1 DUP2 MSTORE PUSH1 0xCC PUSH1 0x20 MSTORE PUSH1 0x40 SWAP1 KECCAK256 SLOAD SWAP1 JUMP JUMPDEST PUSH2 0x22A PUSH1 0x20 MSTORE PUSH1 0x0 SWAP1 DUP2 MSTORE PUSH1 0x40 SWAP1 KECCAK256 DUP1 SLOAD PUSH1 0x1 DUP3 ADD SLOAD PUSH1 0x2 DUP4 ADD SLOAD PUSH1 0x3 DUP5 ADD SLOAD PUSH1 0x4 DUP6 ADD DUP1 SLOAD SWAP5 SWAP6 PUSH1 0x1 PUSH1 0x1 PUSH1 0xA0 SHL SUB SWAP1 SWAP5 AND SWAP5 SWAP3 SWAP4 SWAP2 SWAP3 PUSH2 0x25C0 SWAP1 PUSH2 0x54C7 JUMP JUMPDEST DUP1 PUSH1 0x1F ADD PUSH1 0x20 DUP1 SWAP2 DIV MUL PUSH1 0x20 ADD PUSH1 0x40 MLOAD SWAP1 DUP2 ADD PUSH1 0x40 MSTORE DUP1 SWAP3 SWAP2 SWAP1 DUP2 DUP2 MSTORE PUSH1 0x20 ADD DUP3 DUP1 SLOAD PUSH2 0x25EC SWAP1 PUSH2 0x54C7 JUMP JUMPDEST DUP1 ISZERO PUSH2 0x2639 JUMPI DUP1 PUSH1 0x1F LT PUSH2 0x260E JUMPI PUSH2 0x100 DUP1 DUP4 SLOAD DIV MUL DUP4 MSTORE SWAP2 PUSH1 0x20 ADD SWAP2 PUSH2 0x2639 JUMP JUMPDEST DUP3 ADD SWAP2 SWAP1 PUSH1 0x0 MSTORE PUSH1 0x20 PUSH1 0x0 KECCAK256 SWAP1 JUMPDEST DUP2 SLOAD DUP2 MSTORE SWAP1 PUSH1 0x1 ADD SWAP1 PUSH1 0x20 ADD DUP1 DUP4 GT PUSH2 0x261C JUMPI DUP3 SWAP1 SUB PUSH1 0x1F AND DUP3 ADD SWAP2 JUMPDEST POP POP POP POP PUSH1 0x5 DUP4 ADD SLOAD PUSH1 0x6 DUP5 ADD DUP1 SLOAD SWAP4 SWAP5 PUSH4 0xFFFFFFFF DUP4 AND SWAP5 PUSH1 0x1 PUSH1 0x20 SHL SWAP1 SWAP4 DIV PUSH1 0x1 PUSH1 0x1 PUSH1 0xA0 SHL SUB AND SWAP4 POP SWAP2 PUSH2 0x266F SWAP1 PUSH2 0x54C7 JUMP JUMPDEST DUP1 PUSH1 0x1F ADD PUSH1 0x20 DUP1 SWAP2 DIV MUL PUSH1 0x20 ADD PUSH1 0x40 MLOAD SWAP1 DUP2 ADD PUSH1 0x40 MSTORE DUP1 SWAP3 SWAP2 SWAP1 DUP2 DUP2 MSTORE PUSH1 0x20 ADD DUP3 DUP1 SLOAD PUSH2 0x269B SWAP1 PUSH2 0x54C7 JUMP JUMPDEST DUP1 ISZERO PUSH2 0x26E8 JUMPI DUP1 PUSH1 0x1F LT PUSH2 0x26BD JUMPI PUSH2 0x100 DUP1 DUP4 SLOAD DIV MUL DUP4 MSTORE SWAP2 PUSH1 0x20 ADD SWAP2 PUSH2 0x26E8 JUMP JUMPDEST DUP3 ADD SWAP2 SWAP1 PUSH1 0x0 MSTORE PUSH1 0x20 PUSH1 0x0 KECCAK256 SWAP1 JUMPDEST DUP2 SLOAD DUP2 MSTORE SWAP1 PUSH1 0x1 ADD SWAP1 PUSH1 0x20 ADD DUP1 DUP4 GT PUSH2 0x26CB JUMPI DUP3 SWAP1 SUB PUSH1 0x1F AND DUP3 ADD SWAP2 JUMPDEST POP POP POP POP POP SWAP1 DUP1 PUSH1 0x7 ADD DUP1 SLOAD PUSH2 0x26FD SWAP1 PUSH2 0x54C7 JUMP JUMPDEST DUP1 PUSH1 0x1F ADD PUSH1 0x20 DUP1 SWAP2 DIV MUL PUSH1 0x20 ADD PUSH1 0x40 MLOAD SWAP1 DUP2 ADD PUSH1 0x40 MSTORE DUP1 SWAP3 SWAP2 SWAP1 DUP2 DUP2 MSTORE PUSH1 0x20 ADD DUP3 DUP1 SLOAD PUSH2 0x2729 SWAP1 PUSH2 0x54C7 JUMP JUMPDEST DUP1 ISZERO PUSH2 0x2776 JUMPI DUP1 PUSH1 0x1F LT PUSH2 0x274B JUMPI PUSH2 0x100 DUP1 DUP4 SLOAD DIV MUL DUP4 MSTORE SWAP2 PUSH1 0x20 ADD SWAP2 PUSH2 0x2776 JUMP JUMPDEST DUP3 ADD SWAP2 SWAP1 PUSH1 0x0 MSTORE PUSH1 0x20 PUSH1 0x0 KECCAK256 SWAP1 JUMPDEST DUP2 SLOAD DUP2 MSTORE SWAP1 PUSH1 0x1 ADD SWAP1 PUSH1 0x20 ADD DUP1 DUP4 GT PUSH2 0x2759 JUMPI DUP3 SWAP1 SUB PUSH1 0x1F AND DUP3 ADD SWAP2 JUMPDEST POP POP POP POP POP SWAP1 DUP1 PUSH1 0x8 ADD PUSH1 0x0 SWAP1 SLOAD SWAP1 PUSH2 0x100 EXP SWAP1 DIV PUSH1 0xFF AND SWAP1 DUP1 PUSH1 0x9 ADD PUSH1 0x40 MLOAD DUP1 PUSH1 0x40 ADD PUSH1 0x40 MSTORE SWAP1 DUP2 PUSH1 0x0 DUP3 ADD SLOAD DUP2 MSTORE PUSH1 0x20 ADD PUSH1 0x1 DUP3 ADD DUP1 SLOAD DUP1 PUSH1 0x20 MUL PUSH1 0x20 ADD PUSH1 0x40 MLOAD SWAP1 DUP2 ADD PUSH1 0x40 MSTORE DUP1 SWAP3 SWAP2 SWAP1 DUP2 DUP2 MSTORE PUSH1 0x20 ADD PUSH1 0x0 SWAP1 JUMPDEST DUP3 DUP3 LT ISZERO PUSH2 0x291C JUMPI PUSH1 0x0 DUP5 DUP2 MSTORE PUSH1 0x20 DUP1 DUP3 KECCAK256 PUSH1 0x40 DUP1 MLOAD PUSH1 0xE0 DUP2 ADD DUP3 MSTORE PUSH1 0x7 DUP8 MUL SWAP1 SWAP3 ADD DUP1 SLOAD PUSH1 0xFF SWAP1 DUP2 AND DUP5 MSTORE PUSH1 0x1 DUP3 ADD SLOAD DUP5 DUP7 ADD MSTORE PUSH1 0x2 DUP3 ADD SLOAD DUP5 DUP5 ADD MSTORE PUSH1 0x3 DUP3 ADD SLOAD AND PUSH1 0x60 DUP5 ADD MSTORE PUSH1 0x4 DUP2 ADD DUP1 SLOAD DUP4 MLOAD DUP2 DUP8 MUL DUP2 ADD DUP8 ADD SWAP1 SWAP5 MSTORE DUP1 DUP5 MSTORE SWAP4 SWAP6 SWAP2 SWAP5 PUSH1 0x80 DUP8 ADD SWAP5 SWAP2 SWAP3 SWAP1 DUP5 ADD JUMPDEST DUP3 DUP3 LT ISZERO PUSH2 0x28E6 JUMPI DUP4 DUP3 SWAP1 PUSH1 0x0 MSTORE PUSH1 0x20 PUSH1 0x0 KECCAK256 ADD DUP1 SLOAD PUSH2 0x2859 SWAP1 PUSH2 0x54C7 JUMP JUMPDEST DUP1 PUSH1 0x1F ADD PUSH1 0x20 DUP1 SWAP2 DIV MUL PUSH1 0x20 ADD PUSH1 0x40 MLOAD SWAP1 DUP2 ADD PUSH1 0x40 MSTORE DUP1 SWAP3 SWAP2 SWAP1 DUP2 DUP2 MSTORE PUSH1 0x20 ADD DUP3 DUP1 SLOAD PUSH2 0x2885 SWAP1 PUSH2 0x54C7 JUMP JUMPDEST DUP1 ISZERO PUSH2 0x28D2 JUMPI DUP1 PUSH1 0x1F LT PUSH2 0x28A7 JUMPI PUSH2 0x100 DUP1 DUP4 SLOAD DIV MUL DUP4 MSTORE SWAP2 PUSH1 0x20 ADD SWAP2 PUSH2 0x28D2 JUMP JUMPDEST DUP3 ADD SWAP2 SWAP1 PUSH1 0x0 MSTORE PUSH1 0x20 PUSH1 0x0 KECCAK256 SWAP1 JUMPDEST DUP2 SLOAD DUP2 MSTORE SWAP1 PUSH1 0x1 ADD SWAP1 PUSH1 0x20 ADD DUP1 DUP4 GT PUSH2 0x28B5 JUMPI DUP3 SWAP1 SUB PUSH1 0x1F AND DUP3 ADD SWAP2 JUMPDEST POP POP POP POP POP DUP2 MSTORE PUSH1 0x20 ADD SWAP1 PUSH1 0x1 ADD SWAP1 PUSH2 0x283A JUMP JUMPDEST POP POP POP SWAP1 DUP3 MSTORE POP PUSH1 0x5 DUP3 ADD SLOAD PUSH1 0x20 DUP1 DUP4 ADD SWAP2 SWAP1 SWAP2 MSTORE PUSH1 0x6 SWAP1 SWAP3 ADD SLOAD PUSH1 0xFF AND ISZERO ISZERO PUSH1 0x40 SWAP1 SWAP2 ADD MSTORE SWAP1 DUP3 MSTORE PUSH1 0x1 SWAP3 SWAP1 SWAP3 ADD SWAP2 ADD PUSH2 0x27CD JUMP JUMPDEST POP POP POP SWAP2 MSTORE POP POP PUSH1 0xB DUP3 ADD SLOAD PUSH1 0xC DUP4 ADD SLOAD PUSH1 0xD SWAP1 SWAP4 ADD SLOAD SWAP2 SWAP3 PUSH1 0x1 PUSH1 0x1 PUSH1 0xA0 SHL SUB SWAP1 SWAP2 AND SWAP2 DUP15 JUMP JUMPDEST PUSH2 0x227 SLOAD PUSH1 0x1 PUSH1 0x1 PUSH1 0xA0 SHL SUB AND CALLER PUSH1 0x1 PUSH1 0x1 PUSH1 0xA0 SHL SUB AND EQ PUSH1 0x40 MLOAD DUP1 PUSH1 0x40 ADD PUSH1 0x40 MSTORE DUP1 PUSH1 0x3 DUP2 MSTORE PUSH1 0x20 ADD PUSH3 0x313031 PUSH1 0xE8 SHL DUP2 MSTORE POP SWAP1 PUSH2 0x2996 JUMPI PUSH1 0x40 MLOAD PUSH3 0x461BCD PUSH1 0xE5 SHL DUP2 MSTORE PUSH1 0x4 ADD PUSH2 0xC29 SWAP2 SWAP1 PUSH2 0x47D4 JUMP JUMPDEST POP PUSH2 0x29A2 PUSH1 0x0 CALLER PUSH2 0x2A2E JUMP JUMPDEST PUSH1 0x40 MLOAD DUP1 PUSH1 0x40 ADD PUSH1 0x40 MSTORE DUP1 PUSH1 0x3 DUP2 MSTORE PUSH1 0x20 ADD PUSH3 0x313031 PUSH1 0xE8 SHL DUP2 MSTORE POP SWAP1 PUSH2 0x29DC JUMPI PUSH1 0x40 MLOAD PUSH3 0x461BCD PUSH1 0xE5 SHL DUP2 MSTORE PUSH1 0x4 ADD PUSH2 0xC29 SWAP2 SWAP1 PUSH2 0x47D4 JUMP JUMPDEST POP PUSH2 0x227 DUP1 SLOAD PUSH1 0x1 PUSH1 0x1 PUSH1 0xA0 SHL SUB DUP4 DUP2 AND PUSH1 0x1 PUSH1 0x1 PUSH1 0xA0 SHL SUB NOT DUP4 AND DUP2 OR SWAP1 SWAP4 SSTORE AND SWAP1 PUSH2 0x2A0B SWAP1 PUSH1 0x0 SWAP1 PUSH2 0xF29 JUMP JUMPDEST PUSH2 0x166B PUSH1 0x0 DUP3 PUSH2 0x2FC7 JUMP JUMPDEST PUSH1 0x0 DUP3 DUP2 MSTORE PUSH1 0x97 PUSH1 0x20 MSTORE PUSH1 0x40 DUP2 KECCAK256 PUSH2 0xD04 SWAP1 DUP4 PUSH2 0x38CE JUMP JUMPDEST PUSH1 0x0 SWAP2 DUP3 MSTORE PUSH1 0x65 PUSH1 0x20 SWAP1 DUP2 MSTORE PUSH1 0x40 DUP1 DUP5 KECCAK256 PUSH1 0x1 PUSH1 0x1 PUSH1 0xA0 SHL SUB SWAP4 SWAP1 SWAP4 AND DUP5 MSTORE SWAP2 SWAP1 MSTORE SWAP1 KECCAK256 SLOAD PUSH1 0xFF AND SWAP1 JUMP JUMPDEST PUSH1 0x60 PUSH1 0xCA DUP1 SLOAD PUSH2 0xB0A SWAP1 PUSH2 0x54C7 JUMP JUMPDEST PUSH2 0x227 SLOAD PUSH1 0x1 PUSH1 0x1 PUSH1 0xA0 SHL SUB AND CALLER PUSH1 0x1 PUSH1 0x1 PUSH1 0xA0 SHL SUB AND EQ PUSH1 0x40 MLOAD DUP1 PUSH1 0x40 ADD PUSH1 0x40 MSTORE DUP1 PUSH1 0x3 DUP2 MSTORE PUSH1 0x20 ADD PUSH3 0x313031 PUSH1 0xE8 SHL DUP2 MSTORE POP SWAP1 PUSH2 0x2ABA JUMPI PUSH1 0x40 MLOAD PUSH3 0x461BCD PUSH1 0xE5 SHL DUP2 MSTORE PUSH1 0x4 ADD PUSH2 0xC29 SWAP2 SWAP1 PUSH2 0x47D4 JUMP JUMPDEST POP PUSH2 0x2AC6 PUSH1 0x0 CALLER PUSH2 0x2A2E JUMP JUMPDEST PUSH1 0x40 MLOAD DUP1 PUSH1 0x40 ADD PUSH1 0x40 MSTORE DUP1 PUSH1 0x3 DUP2 MSTORE PUSH1 0x20 ADD PUSH3 0x313031 PUSH1 0xE8 SHL DUP2 MSTORE POP SWAP1 PUSH2 0x2B00 JUMPI PUSH1 0x40 MLOAD PUSH3 0x461BCD PUSH1 0xE5 SHL DUP2 MSTORE PUSH1 0x4 ADD PUSH2 0xC29 SWAP2 SWAP1 PUSH2 0x47D4 JUMP JUMPDEST POP PUSH1 0x40 DUP1 MLOAD DUP1 DUP3 ADD SWAP1 SWAP2 MSTORE PUSH1 0x3 DUP2 MSTORE PUSH3 0x323033 PUSH1 0xE8 SHL PUSH1 0x20 DUP3 ADD MSTORE PUSH2 0x2710 DUP3 GT ISZERO PUSH2 0x2B3E JUMPI PUSH1 0x40 MLOAD PUSH3 0x461BCD PUSH1 0xE5 SHL DUP2 MSTORE PUSH1 0x4 ADD PUSH2 0xC29 SWAP2 SWAP1 PUSH2 0x47D4 JUMP JUMPDEST POP PUSH1 0x40 DUP1 MLOAD PUSH1 0x60 DUP2 ADD DUP3 MSTORE PUSH1 0x1 PUSH1 0x1 PUSH1 0xA0 SHL SUB SWAP4 DUP5 AND DUP2 MSTORE PUSH3 0xFFFFFF SWAP3 DUP4 AND PUSH1 0x20 DUP1 DUP4 ADD SWAP2 DUP3 MSTORE PUSH1 0x1 DUP4 DUP6 ADD SWAP1 DUP2 MSTORE PUSH1 0x0 SWAP8 DUP9 MSTORE PUSH2 0x22E SWAP1 SWAP2 MSTORE SWAP3 SWAP1 SWAP6 KECCAK256 SWAP1 MLOAD DUP2 SLOAD SWAP6 MLOAD SWAP3 MLOAD SWAP5 AND PUSH1 0x1 PUSH1 0x1 PUSH1 0xB8 SHL SUB NOT SWAP1 SWAP6 AND SWAP5 SWAP1 SWAP5 OR PUSH1 0x1 PUSH1 0xA0 SHL SWAP2 SWAP1 SWAP3 AND MUL OR PUSH1 0xFF PUSH1 0xB8 SHL NOT AND PUSH1 0x1 PUSH1 0xB8 SHL SWAP2 ISZERO ISZERO SWAP2 SWAP1 SWAP2 MUL OR SWAP1 SSTORE JUMP JUMPDEST PUSH2 0x166B CALLER DUP4 DUP4 PUSH2 0x38DA JUMP JUMPDEST PUSH1 0x0 SLOAD PUSH2 0x100 SWAP1 DIV PUSH1 0xFF AND ISZERO DUP1 DUP1 ISZERO PUSH2 0x2BE4 JUMPI POP PUSH1 0x0 SLOAD PUSH1 0x1 PUSH1 0xFF SWAP1 SWAP2 AND LT JUMPDEST DUP1 PUSH2 0x2BFE JUMPI POP ADDRESS EXTCODESIZE ISZERO DUP1 ISZERO PUSH2 0x2BFE JUMPI POP PUSH1 0x0 SLOAD PUSH1 0xFF AND PUSH1 0x1 EQ JUMPDEST PUSH2 0x2C1A JUMPI PUSH1 0x40 MLOAD PUSH3 0x461BCD PUSH1 0xE5 SHL DUP2 MSTORE PUSH1 0x4 ADD PUSH2 0xC29 SWAP1 PUSH2 0x5D68 JUMP JUMPDEST PUSH1 0x0 DUP1 SLOAD PUSH1 0xFF NOT AND PUSH1 0x1 OR SWAP1 SSTORE DUP1 ISZERO PUSH2 0x2C3D JUMPI PUSH1 0x0 DUP1 SLOAD PUSH2 0xFF00 NOT AND PUSH2 0x100 OR SWAP1 SSTORE JUMPDEST PUSH2 0x2C48 DUP5 DUP5 DUP5 PUSH2 0x39A9 JUMP JUMPDEST DUP1 ISZERO PUSH2 0x2C8A JUMPI PUSH1 0x0 DUP1 SLOAD PUSH2 0xFF00 NOT AND SWAP1 SSTORE PUSH1 0x40 MLOAD PUSH1 0x1 DUP2 MSTORE PUSH32 0x7F26B83FF96E1F2B6A682F133852F6798A09C465DA95921460CEFB3847402498 SWAP1 PUSH1 0x20 ADD PUSH2 0x17D9 JUMP JUMPDEST POP POP POP POP JUMP JUMPDEST PUSH1 0x0 DUP6 DUP2 MSTORE PUSH2 0x22A PUSH1 0x20 SWAP1 DUP2 MSTORE PUSH1 0x40 SWAP2 DUP3 SWAP1 KECCAK256 PUSH1 0x5 ADD SLOAD DUP3 MLOAD DUP1 DUP5 ADD SWAP1 SWAP4 MSTORE PUSH1 0x3 DUP4 MSTORE PUSH3 0x189819 PUSH1 0xE9 SHL SWAP2 DUP4 ADD SWAP2 SWAP1 SWAP2 MSTORE PUSH1 0x1 PUSH1 0x20 SHL SWAP1 DIV PUSH1 0x1 PUSH1 0x1 PUSH1 0xA0 SHL SUB AND CALLER EQ PUSH2 0x2CF0 JUMPI PUSH1 0x40 MLOAD PUSH3 0x461BCD PUSH1 0xE5 SHL DUP2 MSTORE PUSH1 0x4 ADD PUSH2 0xC29 SWAP2 SWAP1 PUSH2 0x47D4 JUMP JUMPDEST POP PUSH1 0x0 DUP6 DUP2 MSTORE PUSH2 0x22A PUSH1 0x20 SWAP1 DUP2 MSTORE PUSH1 0x40 SWAP1 SWAP2 KECCAK256 DUP6 DUP2 SSTORE PUSH1 0x1 DUP2 ADD DUP1 SLOAD PUSH1 0x1 PUSH1 0x1 PUSH1 0xA0 SHL SUB NOT AND PUSH1 0x1 PUSH1 0x1 PUSH1 0xA0 SHL SUB DUP8 AND OR SWAP1 SSTORE DUP4 MLOAD PUSH2 0x2D37 SWAP3 PUSH1 0x6 SWAP1 SWAP3 ADD SWAP2 DUP6 ADD SWAP1 PUSH2 0x46B0 JUMP JUMPDEST POP PUSH1 0x0 DUP6 DUP2 MSTORE PUSH2 0x22A PUSH1 0x20 SWAP1 DUP2 MSTORE PUSH1 0x40 SWAP1 SWAP2 KECCAK256 DUP3 MLOAD PUSH2 0x2D5E SWAP3 PUSH1 0x4 SWAP1 SWAP3 ADD SWAP2 DUP5 ADD SWAP1 PUSH2 0x46B0 JUMP JUMPDEST POP POP POP POP POP POP JUMP JUMPDEST PUSH1 0x0 DUP4 PUSH1 0x1 PUSH1 0x1 PUSH1 0xA0 SHL SUB AND PUSH2 0x2D7C DUP5 DUP5 PUSH2 0xCCF JUMP JUMPDEST PUSH1 0x1 PUSH1 0x1 PUSH1 0xA0 SHL SUB AND EQ ISZERO PUSH2 0x2D93 JUMPI POP PUSH1 0x1 PUSH2 0xD04 JUMP JUMPDEST DUP2 PUSH2 0x22C PUSH1 0x0 PUSH2 0x2DA3 DUP7 DUP7 PUSH2 0xCCF JUMP JUMPDEST PUSH1 0x1 PUSH1 0x1 PUSH1 0xA0 SHL SUB SWAP1 DUP2 AND DUP3 MSTORE PUSH1 0x20 DUP1 DUP4 ADD SWAP4 SWAP1 SWAP4 MSTORE PUSH1 0x40 SWAP2 DUP3 ADD PUSH1 0x0 SWAP1 DUP2 KECCAK256 SWAP2 DUP10 AND DUP2 MSTORE SWAP3 MSTORE SWAP1 KECCAK256 SLOAD EQ SWAP1 POP SWAP4 SWAP3 POP POP POP JUMP JUMPDEST PUSH2 0x2DE1 CALLER DUP4 PUSH2 0x3462 JUMP JUMPDEST PUSH2 0x2DFD JUMPI PUSH1 0x40 MLOAD PUSH3 0x461BCD PUSH1 0xE5 SHL DUP2 MSTORE PUSH1 0x4 ADD PUSH2 0xC29 SWAP1 PUSH2 0x5543 JUMP JUMPDEST PUSH2 0x2C8A DUP5 DUP5 DUP5 DUP5 PUSH2 0x39ED JUMP JUMPDEST PUSH1 0x0 DUP2 DUP2 MSTORE PUSH2 0x22A PUSH1 0x20 MSTORE PUSH1 0x40 DUP2 KECCAK256 PUSH1 0x6 ADD DUP1 SLOAD PUSH1 0x60 SWAP3 SWAP2 SWAP1 PUSH2 0x2E2B SWAP1 PUSH2 0x54C7 JUMP JUMPDEST SWAP1 POP GT ISZERO PUSH2 0x2ED5 JUMPI PUSH1 0x0 DUP3 DUP2 MSTORE PUSH2 0x22A PUSH1 0x20 MSTORE PUSH1 0x40 SWAP1 KECCAK256 PUSH1 0x6 ADD DUP1 SLOAD PUSH2 0x2E50 SWAP1 PUSH2 0x54C7 JUMP JUMPDEST DUP1 PUSH1 0x1F ADD PUSH1 0x20 DUP1 SWAP2 DIV MUL PUSH1 0x20 ADD PUSH1 0x40 MLOAD SWAP1 DUP2 ADD PUSH1 0x40 MSTORE DUP1 SWAP3 SWAP2 SWAP1 DUP2 DUP2 MSTORE PUSH1 0x20 ADD DUP3 DUP1 SLOAD PUSH2 0x2E7C SWAP1 PUSH2 0x54C7 JUMP JUMPDEST DUP1 ISZERO PUSH2 0x2EC9 JUMPI DUP1 PUSH1 0x1F LT PUSH2 0x2E9E JUMPI PUSH2 0x100 DUP1 DUP4 SLOAD DIV MUL DUP4 MSTORE SWAP2 PUSH1 0x20 ADD SWAP2 PUSH2 0x2EC9 JUMP JUMPDEST DUP3 ADD SWAP2 SWAP1 PUSH1 0x0 MSTORE PUSH1 0x20 PUSH1 0x0 KECCAK256 SWAP1 JUMPDEST DUP2 SLOAD DUP2 MSTORE SWAP1 PUSH1 0x1 ADD SWAP1 PUSH1 0x20 ADD DUP1 DUP4 GT PUSH2 0x2EAC JUMPI DUP3 SWAP1 SUB PUSH1 0x1F AND DUP3 ADD SWAP2 JUMPDEST POP POP POP POP POP SWAP1 POP SWAP2 SWAP1 POP JUMP JUMPDEST PUSH2 0x2EDD PUSH2 0x2FEC JUMP JUMPDEST PUSH2 0x2EE6 DUP4 PUSH2 0x3A20 JUMP JUMPDEST PUSH1 0x40 MLOAD PUSH1 0x20 ADD PUSH2 0x2EF7 SWAP3 SWAP2 SWAP1 PUSH2 0x5DB6 JUMP JUMPDEST PUSH1 0x40 MLOAD PUSH1 0x20 DUP2 DUP4 SUB SUB DUP2 MSTORE SWAP1 PUSH1 0x40 MSTORE SWAP1 POP SWAP2 SWAP1 POP JUMP JUMPDEST SWAP2 SWAP1 POP JUMP JUMPDEST PUSH1 0x0 DUP2 DUP2 MSTORE PUSH2 0x22A PUSH1 0x20 SWAP1 DUP2 MSTORE PUSH1 0x40 SWAP2 DUP3 SWAP1 KECCAK256 PUSH1 0x5 ADD SLOAD DUP3 MLOAD DUP1 DUP5 ADD SWAP1 SWAP4 MSTORE PUSH1 0x3 DUP4 MSTORE PUSH3 0x189819 PUSH1 0xE9 SHL SWAP2 DUP4 ADD SWAP2 SWAP1 SWAP2 MSTORE PUSH1 0x1 PUSH1 0x20 SHL SWAP1 DIV PUSH1 0x1 PUSH1 0x1 PUSH1 0xA0 SHL SUB AND CALLER EQ PUSH2 0x2F72 JUMPI PUSH1 0x40 MLOAD PUSH3 0x461BCD PUSH1 0xE5 SHL DUP2 MSTORE PUSH1 0x4 ADD PUSH2 0xC29 SWAP2 SWAP1 PUSH2 0x47D4 JUMP JUMPDEST POP PUSH1 0x0 SWAP1 DUP2 MSTORE PUSH2 0x22A PUSH1 0x20 MSTORE PUSH1 0x40 SWAP1 KECCAK256 PUSH1 0x5 ADD DUP1 SLOAD PUSH1 0x1 PUSH1 0x1 PUSH1 0xA0 SHL SUB SWAP1 SWAP3 AND PUSH1 0x1 PUSH1 0x20 SHL MUL PUSH5 0x100000000 PUSH1 0x1 PUSH1 0xC0 SHL SUB NOT SWAP1 SWAP3 AND SWAP2 SWAP1 SWAP2 OR SWAP1 SSTORE JUMP JUMPDEST PUSH1 0x0 DUP2 DUP2 MSTORE PUSH1 0x97 PUSH1 0x20 MSTORE PUSH1 0x40 DUP2 KECCAK256 PUSH2 0xAF5 SWAP1 PUSH2 0x3B1D JUMP JUMPDEST PUSH1 0x0 DUP3 DUP2 MSTORE PUSH1 0x65 PUSH1 0x20 MSTORE PUSH1 0x40 SWAP1 KECCAK256 PUSH1 0x1 ADD SLOAD PUSH2 0x2FE2 DUP2 PUSH2 0x3688 JUMP JUMPDEST PUSH2 0xCCA DUP4 DUP4 PUSH2 0x384C JUMP JUMPDEST PUSH1 0x60 PUSH2 0xD17 PUSH2 0x3B27 JUMP JUMPDEST PUSH1 0x0 SLOAD PUSH2 0x100 SWAP1 DIV PUSH1 0xFF AND ISZERO DUP1 DUP1 ISZERO PUSH2 0x3016 JUMPI POP PUSH1 0x0 SLOAD PUSH1 0x1 PUSH1 0xFF SWAP1 SWAP2 AND LT JUMPDEST DUP1 PUSH2 0x3030 JUMPI POP ADDRESS EXTCODESIZE ISZERO DUP1 ISZERO PUSH2 0x3030 JUMPI POP PUSH1 0x0 SLOAD PUSH1 0xFF AND PUSH1 0x1 EQ JUMPDEST PUSH2 0x304C JUMPI PUSH1 0x40 MLOAD PUSH3 0x461BCD PUSH1 0xE5 SHL DUP2 MSTORE PUSH1 0x4 ADD PUSH2 0xC29 SWAP1 PUSH2 0x5D68 JUMP JUMPDEST PUSH1 0x0 DUP1 SLOAD PUSH1 0xFF NOT AND PUSH1 0x1 OR SWAP1 SSTORE DUP1 ISZERO PUSH2 0x306F JUMPI PUSH1 0x0 DUP1 SLOAD PUSH2 0xFF00 NOT AND PUSH2 0x100 OR SWAP1 SSTORE JUMPDEST PUSH1 0x40 DUP1 MLOAD DUP1 DUP3 ADD SWAP1 SWAP2 MSTORE PUSH1 0x3 DUP2 MSTORE PUSH3 0x31303 PUSH1 0xEC SHL PUSH1 0x20 DUP3 ADD MSTORE PUSH1 0x1 PUSH1 0x1 PUSH1 0xA0 SHL SUB DUP5 AND PUSH2 0x30B0 JUMPI PUSH1 0x40 MLOAD PUSH3 0x461BCD PUSH1 0xE5 SHL DUP2 MSTORE PUSH1 0x4 ADD PUSH2 0xC29 SWAP2 SWAP1 PUSH2 0x47D4 JUMP JUMPDEST POP PUSH1 0x40 DUP1 MLOAD DUP1 DUP3 ADD SWAP1 SWAP2 MSTORE PUSH1 0x3 DUP2 MSTORE PUSH3 0x31303 PUSH1 0xEC SHL PUSH1 0x20 DUP3 ADD MSTORE PUSH1 0x1 PUSH1 0x1 PUSH1 0xA0 SHL SUB DUP4 AND PUSH2 0x30F2 JUMPI PUSH1 0x40 MLOAD PUSH3 0x461BCD PUSH1 0xE5 SHL DUP2 MSTORE PUSH1 0x4 ADD PUSH2 0xC29 SWAP2 SWAP1 PUSH2 0x47D4 JUMP JUMPDEST POP PUSH2 0x30FE DUP7 DUP7 DUP7 PUSH2 0x39A9 JUMP JUMPDEST PUSH2 0x228 DUP1 SLOAD PUSH1 0x1 PUSH1 0x1 PUSH1 0xA0 SHL SUB DUP1 DUP6 AND PUSH1 0x1 PUSH1 0x1 PUSH1 0xA0 SHL SUB NOT SWAP3 DUP4 AND OR SWAP1 SWAP3 SSTORE PUSH2 0x227 DUP1 SLOAD SWAP3 DUP7 AND SWAP3 SWAP1 SWAP2 AND DUP3 OR SWAP1 SSTORE PUSH2 0x313A SWAP1 PUSH1 0x0 SWAP1 PUSH2 0xF29 JUMP JUMPDEST PUSH2 0x3145 PUSH1 0x0 CALLER PUSH2 0x2FC7 JUMP JUMPDEST DUP1 ISZERO PUSH2 0x2D5E JUMPI PUSH1 0x0 DUP1 SLOAD PUSH2 0xFF00 NOT AND SWAP1 SSTORE PUSH1 0x40 MLOAD PUSH1 0x1 DUP2 MSTORE PUSH32 0x7F26B83FF96E1F2B6A682F133852F6798A09C465DA95921460CEFB3847402498 SWAP1 PUSH1 0x20 ADD PUSH1 0x40 MLOAD DUP1 SWAP2 SUB SWAP1 LOG1 POP POP POP POP POP POP JUMP JUMPDEST PUSH1 0x2 PUSH2 0x1F5 SLOAD EQ ISZERO PUSH2 0x31B6 JUMPI PUSH1 0x40 MLOAD PUSH3 0x461BCD PUSH1 0xE5 SHL DUP2 MSTORE PUSH1 0x4 ADD PUSH2 0xC29 SWAP1 PUSH2 0x55DA JUMP JUMPDEST PUSH1 0x2 PUSH2 0x1F5 SSTORE PUSH2 0x227 SLOAD PUSH1 0x1 PUSH1 0x1 PUSH1 0xA0 SHL SUB AND CALLER PUSH1 0x1 PUSH1 0x1 PUSH1 0xA0 SHL SUB AND EQ PUSH1 0x40 MLOAD DUP1 PUSH1 0x40 ADD PUSH1 0x40 MSTORE DUP1 PUSH1 0x3 DUP2 MSTORE PUSH1 0x20 ADD PUSH3 0x313031 PUSH1 0xE8 SHL DUP2 MSTORE POP SWAP1 PUSH2 0x320E JUMPI PUSH1 0x40 MLOAD PUSH3 0x461BCD PUSH1 0xE5 SHL DUP2 MSTORE PUSH1 0x4 ADD PUSH2 0xC29 SWAP2 SWAP1 PUSH2 0x47D4 JUMP JUMPDEST POP PUSH2 0x321A PUSH1 0x0 CALLER PUSH2 0x2A2E JUMP JUMPDEST PUSH1 0x40 MLOAD DUP1 PUSH1 0x40 ADD PUSH1 0x40 MSTORE DUP1 PUSH1 0x3 DUP2 MSTORE PUSH1 0x20 ADD PUSH3 0x313031 PUSH1 0xE8 SHL DUP2 MSTORE POP SWAP1 PUSH2 0x3254 JUMPI PUSH1 0x40 MLOAD PUSH3 0x461BCD PUSH1 0xE5 SHL DUP2 MSTORE PUSH1 0x4 ADD PUSH2 0xC29 SWAP2 SWAP1 PUSH2 0x47D4 JUMP JUMPDEST POP PUSH1 0x0 PUSH1 0x1 PUSH1 0x1 PUSH1 0xA0 SHL SUB DUP4 AND PUSH2 0x32D5 JUMPI DUP2 SELFBALANCE LT ISZERO PUSH2 0x3272 JUMPI PUSH1 0x0 DUP1 REVERT JUMPDEST PUSH1 0x40 MLOAD PUSH1 0x1 PUSH1 0x1 PUSH1 0xA0 SHL SUB DUP6 AND SWAP1 DUP4 SWAP1 PUSH1 0x0 DUP2 DUP2 DUP2 DUP6 DUP8 GAS CALL SWAP3 POP POP POP RETURNDATASIZE DUP1 PUSH1 0x0 DUP2 EQ PUSH2 0x32BB JUMPI PUSH1 0x40 MLOAD SWAP2 POP PUSH1 0x1F NOT PUSH1 0x3F RETURNDATASIZE ADD AND DUP3 ADD PUSH1 0x40 MSTORE RETURNDATASIZE DUP3 MSTORE RETURNDATASIZE PUSH1 0x0 PUSH1 0x20 DUP5 ADD RETURNDATACOPY PUSH2 0x32C0 JUMP JUMPDEST PUSH1 0x60 SWAP2 POP JUMPDEST POP POP DUP1 SWAP2 POP POP DUP1 PUSH2 0x32D0 JUMPI PUSH1 0x0 DUP1 REVERT JUMPDEST PUSH2 0x3356 JUMP JUMPDEST PUSH1 0x40 MLOAD PUSH4 0xA9059CBB PUSH1 0xE0 SHL DUP2 MSTORE PUSH1 0x1 PUSH1 0x1 PUSH1 0xA0 SHL SUB DUP6 DUP2 AND PUSH1 0x4 DUP4 ADD MSTORE PUSH1 0x24 DUP3 ADD DUP5 SWAP1 MSTORE DUP5 SWAP2 SWAP1 DUP3 AND SWAP1 PUSH4 0xA9059CBB SWAP1 PUSH1 0x44 ADD PUSH1 0x20 PUSH1 0x40 MLOAD DUP1 DUP4 SUB DUP2 PUSH1 0x0 DUP8 GAS CALL ISZERO DUP1 ISZERO PUSH2 0x3327 JUMPI RETURNDATASIZE PUSH1 0x0 DUP1 RETURNDATACOPY RETURNDATASIZE PUSH1 0x0 REVERT JUMPDEST POP POP POP POP PUSH1 0x40 MLOAD RETURNDATASIZE PUSH1 0x1F NOT PUSH1 0x1F DUP3 ADD AND DUP3 ADD DUP1 PUSH1 0x40 MSTORE POP DUP2 ADD SWAP1 PUSH2 0x334B SWAP2 SWAP1 PUSH2 0x5647 JUMP JUMPDEST PUSH2 0x3354 JUMPI PUSH1 0x0 DUP1 REVERT JUMPDEST POP JUMPDEST POP POP PUSH1 0x1 PUSH2 0x1F5 SSTORE POP POP JUMP JUMPDEST PUSH1 0x0 PUSH1 0x1 PUSH1 0x1 PUSH1 0xE0 SHL SUB NOT DUP3 AND PUSH4 0x780E9D63 PUSH1 0xE0 SHL EQ DUP1 PUSH2 0xAF5 JUMPI POP PUSH2 0xAF5 DUP3 PUSH2 0x3B37 JUMP JUMPDEST PUSH2 0x3390 DUP2 PUSH2 0x3445 JUMP JUMPDEST PUSH2 0x5F4 JUMPI PUSH1 0x40 MLOAD PUSH3 0x461BCD PUSH1 0xE5 SHL DUP2 MSTORE PUSH1 0x20 PUSH1 0x4 DUP3 ADD MSTORE PUSH1 0x18 PUSH1 0x24 DUP3 ADD MSTORE PUSH24 0x115490CDCC8C4E881A5B9D985B1A59081D1BDAD95B881251 PUSH1 0x42 SHL PUSH1 0x44 DUP3 ADD MSTORE PUSH1 0x64 ADD PUSH2 0xC29 JUMP JUMPDEST PUSH1 0x0 DUP2 DUP2 MSTORE PUSH1 0xCD PUSH1 0x20 MSTORE PUSH1 0x40 SWAP1 KECCAK256 DUP1 SLOAD PUSH1 0x1 PUSH1 0x1 PUSH1 0xA0 SHL SUB NOT AND PUSH1 0x1 PUSH1 0x1 PUSH1 0xA0 SHL SUB DUP5 AND SWAP1 DUP2 OR SWAP1 SWAP2 SSTORE DUP2 SWAP1 PUSH2 0x340C DUP3 PUSH2 0x23EB JUMP JUMPDEST PUSH1 0x1 PUSH1 0x1 PUSH1 0xA0 SHL SUB AND PUSH32 0x8C5BE1E5EBEC7D5BD14F71427D1E84F3DD0314C0F7B2291E5B200AC8C7C3B925 PUSH1 0x40 MLOAD PUSH1 0x40 MLOAD DUP1 SWAP2 SUB SWAP1 LOG4 POP POP JUMP JUMPDEST PUSH1 0x0 SWAP1 DUP2 MSTORE PUSH1 0xCB PUSH1 0x20 MSTORE PUSH1 0x40 SWAP1 KECCAK256 SLOAD PUSH1 0x1 PUSH1 0x1 PUSH1 0xA0 SHL SUB AND ISZERO ISZERO SWAP1 JUMP JUMPDEST PUSH1 0x0 DUP1 PUSH2 0x346E DUP4 PUSH2 0x23EB JUMP JUMPDEST SWAP1 POP DUP1 PUSH1 0x1 PUSH1 0x1 PUSH1 0xA0 SHL SUB AND DUP5 PUSH1 0x1 PUSH1 0x1 PUSH1 0xA0 SHL SUB AND EQ DUP1 PUSH2 0x34B5 JUMPI POP PUSH1 0x1 PUSH1 0x1 PUSH1 0xA0 SHL SUB DUP1 DUP3 AND PUSH1 0x0 SWAP1 DUP2 MSTORE PUSH1 0xCE PUSH1 0x20 SWAP1 DUP2 MSTORE PUSH1 0x40 DUP1 DUP4 KECCAK256 SWAP4 DUP9 AND DUP4 MSTORE SWAP3 SWAP1 MSTORE KECCAK256 SLOAD PUSH1 0xFF AND JUMPDEST DUP1 PUSH2 0x34D9 JUMPI POP DUP4 PUSH1 0x1 PUSH1 0x1 PUSH1 0xA0 SHL SUB AND PUSH2 0x34CE DUP5 PUSH2 0xB8D JUMP JUMPDEST PUSH1 0x1 PUSH1 0x1 PUSH1 0xA0 SHL SUB AND EQ JUMPDEST SWAP5 SWAP4 POP POP POP POP JUMP JUMPDEST DUP3 PUSH1 0x1 PUSH1 0x1 PUSH1 0xA0 SHL SUB AND PUSH2 0x34F4 DUP3 PUSH2 0x23EB JUMP JUMPDEST PUSH1 0x1 PUSH1 0x1 PUSH1 0xA0 SHL SUB AND EQ PUSH2 0x3558 JUMPI PUSH1 0x40 MLOAD PUSH3 0x461BCD PUSH1 0xE5 SHL DUP2 MSTORE PUSH1 0x20 PUSH1 0x4 DUP3 ADD MSTORE PUSH1 0x25 PUSH1 0x24 DUP3 ADD MSTORE PUSH32 0x4552433732313A207472616E736665722066726F6D20696E636F727265637420 PUSH1 0x44 DUP3 ADD MSTORE PUSH5 0x37BBB732B9 PUSH1 0xD9 SHL PUSH1 0x64 DUP3 ADD MSTORE PUSH1 0x84 ADD PUSH2 0xC29 JUMP JUMPDEST PUSH1 0x1 PUSH1 0x1 PUSH1 0xA0 SHL SUB DUP3 AND PUSH2 0x35BA JUMPI PUSH1 0x40 MLOAD PUSH3 0x461BCD PUSH1 0xE5 SHL DUP2 MSTORE PUSH1 0x20 PUSH1 0x4 DUP3 ADD MSTORE PUSH1 0x24 DUP1 DUP3 ADD MSTORE PUSH32 0x4552433732313A207472616E7366657220746F20746865207A65726F20616464 PUSH1 0x44 DUP3 ADD MSTORE PUSH4 0x72657373 PUSH1 0xE0 SHL PUSH1 0x64 DUP3 ADD MSTORE PUSH1 0x84 ADD PUSH2 0xC29 JUMP JUMPDEST PUSH2 0x35C5 DUP4 DUP4 DUP4 PUSH2 0x3B77 JUMP JUMPDEST PUSH2 0x35D0 PUSH1 0x0 DUP3 PUSH2 0x33D7 JUMP JUMPDEST PUSH1 0x1 PUSH1 0x1 PUSH1 0xA0 SHL SUB DUP4 AND PUSH1 0x0 SWAP1 DUP2 MSTORE PUSH1 0xCC PUSH1 0x20 MSTORE PUSH1 0x40 DUP2 KECCAK256 DUP1 SLOAD PUSH1 0x1 SWAP3 SWAP1 PUSH2 0x35F9 SWAP1 DUP5 SWAP1 PUSH2 0x5C6C JUMP JUMPDEST SWAP1 SWAP2 SSTORE POP POP PUSH1 0x1 PUSH1 0x1 PUSH1 0xA0 SHL SUB DUP3 AND PUSH1 0x0 SWAP1 DUP2 MSTORE PUSH1 0xCC PUSH1 0x20 MSTORE PUSH1 0x40 DUP2 KECCAK256 DUP1 SLOAD PUSH1 0x1 SWAP3 SWAP1 PUSH2 0x3627 SWAP1 DUP5 SWAP1 PUSH2 0x5C54 JUMP JUMPDEST SWAP1 SWAP2 SSTORE POP POP PUSH1 0x0 DUP2 DUP2 MSTORE PUSH1 0xCB PUSH1 0x20 MSTORE PUSH1 0x40 DUP1 DUP3 KECCAK256 DUP1 SLOAD PUSH1 0x1 PUSH1 0x1 PUSH1 0xA0 SHL SUB NOT AND PUSH1 0x1 PUSH1 0x1 PUSH1 0xA0 SHL SUB DUP7 DUP2 AND SWAP2 DUP3 OR SWAP1 SWAP3 SSTORE SWAP2 MLOAD DUP5 SWAP4 SWAP2 DUP8 AND SWAP2 PUSH32 0xDDF252AD1BE2C89B69C2B068FC378DAA952BA7F163C4A11628F55A4DF523B3EF SWAP2 LOG4 POP POP POP JUMP JUMPDEST PUSH2 0x5F4 DUP2 CALLER PUSH2 0x3B82 JUMP JUMPDEST PUSH2 0x369C DUP3 DUP3 PUSH2 0x3BE6 JUMP JUMPDEST PUSH1 0x0 DUP3 DUP2 MSTORE PUSH1 0x97 PUSH1 0x20 MSTORE PUSH1 0x40 SWAP1 KECCAK256 PUSH2 0xCCA SWAP1 DUP3 PUSH2 0x3C6C JUMP JUMPDEST PUSH2 0x166B DUP3 DUP3 PUSH1 0x40 MLOAD DUP1 PUSH1 0x20 ADD PUSH1 0x40 MSTORE DUP1 PUSH1 0x0 DUP2 MSTORE POP PUSH2 0x3C81 JUMP JUMPDEST PUSH1 0x0 PUSH1 0x40 MLOAD PUSH20 0x3D602D80600A3D3981F3363D3D373D3D3D363D73 PUSH1 0x60 SHL DUP2 MSTORE DUP3 PUSH1 0x60 SHL PUSH1 0x14 DUP3 ADD MSTORE PUSH15 0x5AF43D82803E903D91602B57FD5BF3 PUSH1 0x88 SHL PUSH1 0x28 DUP3 ADD MSTORE PUSH1 0x37 DUP2 PUSH1 0x0 CREATE SWAP2 POP POP PUSH1 0x1 PUSH1 0x1 PUSH1 0xA0 SHL SUB DUP2 AND PUSH2 0x2F0D JUMPI PUSH1 0x40 MLOAD PUSH3 0x461BCD PUSH1 0xE5 SHL DUP2 MSTORE PUSH1 0x20 PUSH1 0x4 DUP3 ADD MSTORE PUSH1 0x16 PUSH1 0x24 DUP3 ADD MSTORE PUSH22 0x115490CC4C4D8DCE8818DC99585D194819985A5B1959 PUSH1 0x52 SHL PUSH1 0x44 DUP3 ADD MSTORE PUSH1 0x64 ADD PUSH2 0xC29 JUMP JUMPDEST PUSH1 0x60 PUSH1 0x0 PUSH2 0x3774 DUP6 DUP6 PUSH2 0x5C6C JUMP JUMPDEST PUSH2 0x377F SWAP1 PUSH1 0x1 PUSH2 0x5C54 JUMP JUMPDEST PUSH1 0x1 PUSH1 0x1 PUSH1 0x40 SHL SUB DUP2 GT ISZERO PUSH2 0x3796 JUMPI PUSH2 0x3796 PUSH2 0x486E JUMP JUMPDEST PUSH1 0x40 MLOAD SWAP1 DUP1 DUP3 MSTORE DUP1 PUSH1 0x1F ADD PUSH1 0x1F NOT AND PUSH1 0x20 ADD DUP3 ADD PUSH1 0x40 MSTORE DUP1 ISZERO PUSH2 0x37C0 JUMPI PUSH1 0x20 DUP3 ADD DUP2 DUP1 CALLDATASIZE DUP4 CALLDATACOPY ADD SWAP1 POP JUMPDEST POP SWAP1 POP PUSH1 0x0 JUMPDEST PUSH2 0x37D0 DUP7 DUP7 PUSH2 0x5C6C JUMP JUMPDEST DUP2 GT PUSH2 0x3843 JUMPI DUP4 PUSH1 0x1 PUSH2 0x37E3 DUP9 DUP5 PUSH2 0x5C54 JUMP JUMPDEST PUSH2 0x37ED SWAP2 SWAP1 PUSH2 0x5C6C JUMP JUMPDEST DUP2 MLOAD DUP2 LT PUSH2 0x37FD JUMPI PUSH2 0x37FD PUSH2 0x54FC JUMP JUMPDEST PUSH1 0x20 ADD ADD MLOAD PUSH1 0xF8 SHR PUSH1 0xF8 SHL DUP3 DUP3 DUP2 MLOAD DUP2 LT PUSH2 0x381A JUMPI PUSH2 0x381A PUSH2 0x54FC JUMP JUMPDEST PUSH1 0x20 ADD ADD SWAP1 PUSH1 0x1 PUSH1 0x1 PUSH1 0xF8 SHL SUB NOT AND SWAP1 DUP2 PUSH1 0x0 BYTE SWAP1 MSTORE8 POP DUP1 PUSH2 0x383B DUP2 PUSH2 0x5528 JUMP JUMPDEST SWAP2 POP POP PUSH2 0x37C6 JUMP JUMPDEST POP SWAP5 SWAP4 POP POP POP POP JUMP JUMPDEST PUSH2 0x3856 DUP3 DUP3 PUSH2 0x3CB4 JUMP JUMPDEST PUSH1 0x0 DUP3 DUP2 MSTORE PUSH1 0x97 PUSH1 0x20 MSTORE PUSH1 0x40 SWAP1 KECCAK256 PUSH2 0xCCA SWAP1 DUP3 PUSH2 0x3D1B JUMP JUMPDEST PUSH1 0x0 PUSH2 0x387B PUSH1 0x1 NUMBER PUSH2 0x5C6C JUMP JUMPDEST PUSH1 0x40 DUP1 MLOAD SWAP2 BLOCKHASH PUSH1 0x20 DUP4 ADD MSTORE PUSH12 0xFFFFFFFFFFFFFFFFFFFFFFFF NOT PUSH1 0x60 DUP8 SWAP1 SHL AND SWAP1 DUP3 ADD MSTORE PUSH1 0x54 DUP2 ADD DUP5 SWAP1 MSTORE PUSH1 0x74 DUP2 ADD DUP4 SWAP1 MSTORE PUSH1 0x94 ADD PUSH1 0x40 MLOAD PUSH1 0x20 DUP2 DUP4 SUB SUB DUP2 MSTORE SWAP1 PUSH1 0x40 MSTORE DUP1 MLOAD SWAP1 PUSH1 0x20 ADD KECCAK256 SWAP1 POP SWAP4 SWAP3 POP POP POP JUMP JUMPDEST PUSH1 0x0 PUSH2 0xD04 DUP4 DUP4 PUSH2 0x3D30 JUMP JUMPDEST DUP2 PUSH1 0x1 PUSH1 0x1 PUSH1 0xA0 SHL SUB AND DUP4 PUSH1 0x1 PUSH1 0x1 PUSH1 0xA0 SHL SUB AND EQ ISZERO PUSH2 0x393C JUMPI PUSH1 0x40 MLOAD PUSH3 0x461BCD PUSH1 0xE5 SHL DUP2 MSTORE PUSH1 0x20 PUSH1 0x4 DUP3 ADD MSTORE PUSH1 0x19 PUSH1 0x24 DUP3 ADD MSTORE PUSH32 0x4552433732313A20617070726F766520746F2063616C6C657200000000000000 PUSH1 0x44 DUP3 ADD MSTORE PUSH1 0x64 ADD PUSH2 0xC29 JUMP JUMPDEST PUSH1 0x1 PUSH1 0x1 PUSH1 0xA0 SHL SUB DUP4 DUP2 AND PUSH1 0x0 DUP2 DUP2 MSTORE PUSH1 0xCE PUSH1 0x20 SWAP1 DUP2 MSTORE PUSH1 0x40 DUP1 DUP4 KECCAK256 SWAP5 DUP8 AND DUP1 DUP5 MSTORE SWAP5 DUP3 MSTORE SWAP2 DUP3 SWAP1 KECCAK256 DUP1 SLOAD PUSH1 0xFF NOT AND DUP7 ISZERO ISZERO SWAP1 DUP2 OR SWAP1 SWAP2 SSTORE SWAP2 MLOAD SWAP2 DUP3 MSTORE PUSH32 0x17307EAB39AB6107E8899845AD3D59BD9653F200F220920489CA2B5937696C31 SWAP2 ADD PUSH1 0x40 MLOAD DUP1 SWAP2 SUB SWAP1 LOG3 POP POP POP JUMP JUMPDEST PUSH1 0x0 SLOAD PUSH2 0x100 SWAP1 DIV PUSH1 0xFF AND PUSH2 0x39D0 JUMPI PUSH1 0x40 MLOAD PUSH3 0x461BCD PUSH1 0xE5 SHL DUP2 MSTORE PUSH1 0x4 ADD PUSH2 0xC29 SWAP1 PUSH2 0x5DE5 JUMP JUMPDEST PUSH2 0x39DA DUP4 DUP4 PUSH2 0x3D5A JUMP JUMPDEST PUSH2 0x39E2 PUSH2 0x3DA8 JUMP JUMPDEST PUSH2 0xCCA DUP4 DUP4 DUP4 PUSH2 0x3DDC JUMP JUMPDEST PUSH2 0x39F8 DUP5 DUP5 DUP5 PUSH2 0x34E1 JUMP JUMPDEST PUSH2 0x3A04 DUP5 DUP5 DUP5 DUP5 PUSH2 0x3E77 JUMP JUMPDEST PUSH2 0x2C8A JUMPI PUSH1 0x40 MLOAD PUSH3 0x461BCD PUSH1 0xE5 SHL DUP2 MSTORE PUSH1 0x4 ADD PUSH2 0xC29 SWAP1 PUSH2 0x5E30 JUMP JUMPDEST PUSH1 0x60 DUP2 PUSH2 0x3A44 JUMPI POP POP PUSH1 0x40 DUP1 MLOAD DUP1 DUP3 ADD SWAP1 SWAP2 MSTORE PUSH1 0x1 DUP2 MSTORE PUSH1 0x3 PUSH1 0xFC SHL PUSH1 0x20 DUP3 ADD MSTORE SWAP1 JUMP JUMPDEST DUP2 PUSH1 0x0 JUMPDEST DUP2 ISZERO PUSH2 0x3A6E JUMPI DUP1 PUSH2 0x3A58 DUP2 PUSH2 0x5528 JUMP JUMPDEST SWAP2 POP PUSH2 0x3A67 SWAP1 POP PUSH1 0xA DUP4 PUSH2 0x55C6 JUMP JUMPDEST SWAP2 POP PUSH2 0x3A48 JUMP JUMPDEST PUSH1 0x0 DUP2 PUSH1 0x1 PUSH1 0x1 PUSH1 0x40 SHL SUB DUP2 GT ISZERO PUSH2 0x3A88 JUMPI PUSH2 0x3A88 PUSH2 0x486E JUMP JUMPDEST PUSH1 0x40 MLOAD SWAP1 DUP1 DUP3 MSTORE DUP1 PUSH1 0x1F ADD PUSH1 0x1F NOT AND PUSH1 0x20 ADD DUP3 ADD PUSH1 0x40 MSTORE DUP1 ISZERO PUSH2 0x3AB2 JUMPI PUSH1 0x20 DUP3 ADD DUP2 DUP1 CALLDATASIZE DUP4 CALLDATACOPY ADD SWAP1 POP JUMPDEST POP SWAP1 POP JUMPDEST DUP5 ISZERO PUSH2 0x34D9 JUMPI PUSH2 0x3AC7 PUSH1 0x1 DUP4 PUSH2 0x5C6C JUMP JUMPDEST SWAP2 POP PUSH2 0x3AD4 PUSH1 0xA DUP7 PUSH2 0x5E82 JUMP JUMPDEST PUSH2 0x3ADF SWAP1 PUSH1 0x30 PUSH2 0x5C54 JUMP JUMPDEST PUSH1 0xF8 SHL DUP2 DUP4 DUP2 MLOAD DUP2 LT PUSH2 0x3AF4 JUMPI PUSH2 0x3AF4 PUSH2 0x54FC JUMP JUMPDEST PUSH1 0x20 ADD ADD SWAP1 PUSH1 0x1 PUSH1 0x1 PUSH1 0xF8 SHL SUB NOT AND SWAP1 DUP2 PUSH1 0x0 BYTE SWAP1 MSTORE8 POP PUSH2 0x3B16 PUSH1 0xA DUP7 PUSH2 0x55C6 JUMP JUMPDEST SWAP5 POP PUSH2 0x3AB6 JUMP JUMPDEST PUSH1 0x0 PUSH2 0xAF5 DUP3 SLOAD SWAP1 JUMP JUMPDEST PUSH1 0x60 PUSH2 0x1C4 DUP1 SLOAD PUSH2 0xB0A SWAP1 PUSH2 0x54C7 JUMP JUMPDEST PUSH1 0x0 PUSH1 0x1 PUSH1 0x1 PUSH1 0xE0 SHL SUB NOT DUP3 AND PUSH4 0x80AC58CD PUSH1 0xE0 SHL EQ DUP1 PUSH2 0x3B68 JUMPI POP PUSH1 0x1 PUSH1 0x1 PUSH1 0xE0 SHL SUB NOT DUP3 AND PUSH4 0x5B5E139F PUSH1 0xE0 SHL EQ JUMPDEST DUP1 PUSH2 0xAF5 JUMPI POP PUSH2 0xAF5 DUP3 PUSH2 0x3F75 JUMP JUMPDEST PUSH2 0xCCA DUP4 DUP4 DUP4 PUSH2 0x3F9A JUMP JUMPDEST PUSH2 0x3B8C DUP3 DUP3 PUSH2 0x2A2E JUMP JUMPDEST PUSH2 0x166B JUMPI PUSH2 0x3BA4 DUP2 PUSH1 0x1 PUSH1 0x1 PUSH1 0xA0 SHL SUB AND PUSH1 0x14 PUSH2 0x400D JUMP JUMPDEST PUSH2 0x3BAF DUP4 PUSH1 0x20 PUSH2 0x400D JUMP JUMPDEST PUSH1 0x40 MLOAD PUSH1 0x20 ADD PUSH2 0x3BC0 SWAP3 SWAP2 SWAP1 PUSH2 0x5E96 JUMP JUMPDEST PUSH1 0x40 DUP1 MLOAD PUSH1 0x1F NOT DUP2 DUP5 SUB ADD DUP2 MSTORE SWAP1 DUP3 SWAP1 MSTORE PUSH3 0x461BCD PUSH1 0xE5 SHL DUP3 MSTORE PUSH2 0xC29 SWAP2 PUSH1 0x4 ADD PUSH2 0x47D4 JUMP JUMPDEST PUSH2 0x3BF0 DUP3 DUP3 PUSH2 0x2A2E JUMP JUMPDEST PUSH2 0x166B JUMPI PUSH1 0x0 DUP3 DUP2 MSTORE PUSH1 0x65 PUSH1 0x20 SWAP1 DUP2 MSTORE PUSH1 0x40 DUP1 DUP4 KECCAK256 PUSH1 0x1 PUSH1 0x1 PUSH1 0xA0 SHL SUB DUP6 AND DUP5 MSTORE SWAP1 SWAP2 MSTORE SWAP1 KECCAK256 DUP1 SLOAD PUSH1 0xFF NOT AND PUSH1 0x1 OR SWAP1 SSTORE PUSH2 0x3C28 CALLER SWAP1 JUMP JUMPDEST PUSH1 0x1 PUSH1 0x1 PUSH1 0xA0 SHL SUB AND DUP2 PUSH1 0x1 PUSH1 0x1 PUSH1 0xA0 SHL SUB AND DUP4 PUSH32 0x2F8788117E7EFF1D82E926EC794901D17C78024A50270940304540A733656F0D PUSH1 0x40 MLOAD PUSH1 0x40 MLOAD DUP1 SWAP2 SUB SWAP1 LOG4 POP POP JUMP JUMPDEST PUSH1 0x0 PUSH2 0xD04 DUP4 PUSH1 0x1 PUSH1 0x1 PUSH1 0xA0 SHL SUB DUP5 AND PUSH2 0x41A8 JUMP JUMPDEST PUSH2 0x3C8B DUP4 DUP4 PUSH2 0x41F7 JUMP JUMPDEST PUSH2 0x3C98 PUSH1 0x0 DUP5 DUP5 DUP5 PUSH2 0x3E77 JUMP JUMPDEST PUSH2 0xCCA JUMPI PUSH1 0x40 MLOAD PUSH3 0x461BCD PUSH1 0xE5 SHL DUP2 MSTORE PUSH1 0x4 ADD PUSH2 0xC29 SWAP1 PUSH2 0x5E30 JUMP JUMPDEST PUSH2 0x3CBE DUP3 DUP3 PUSH2 0x2A2E JUMP JUMPDEST ISZERO PUSH2 0x166B JUMPI PUSH1 0x0 DUP3 DUP2 MSTORE PUSH1 0x65 PUSH1 0x20 SWAP1 DUP2 MSTORE PUSH1 0x40 DUP1 DUP4 KECCAK256 PUSH1 0x1 PUSH1 0x1 PUSH1 0xA0 SHL SUB DUP6 AND DUP1 DUP6 MSTORE SWAP3 MSTORE DUP1 DUP4 KECCAK256 DUP1 SLOAD PUSH1 0xFF NOT AND SWAP1 SSTORE MLOAD CALLER SWAP3 DUP6 SWAP2 PUSH32 0xF6391F5C32D9C69D2A47EA670B442974B53935D1EDC7FD64EB21E047A839171B SWAP2 SWAP1 LOG4 POP POP JUMP JUMPDEST PUSH1 0x0 PUSH2 0xD04 DUP4 PUSH1 0x1 PUSH1 0x1 PUSH1 0xA0 SHL SUB DUP5 AND PUSH2 0x4336 JUMP JUMPDEST PUSH1 0x0 DUP3 PUSH1 0x0 ADD DUP3 DUP2 SLOAD DUP2 LT PUSH2 0x3D47 JUMPI PUSH2 0x3D47 PUSH2 0x54FC JUMP JUMPDEST SWAP1 PUSH1 0x0 MSTORE PUSH1 0x20 PUSH1 0x0 KECCAK256 ADD SLOAD SWAP1 POP SWAP3 SWAP2 POP POP JUMP JUMPDEST PUSH1 0x0 SLOAD PUSH2 0x100 SWAP1 DIV PUSH1 0xFF AND PUSH2 0x3D81 JUMPI PUSH1 0x40 MLOAD PUSH3 0x461BCD PUSH1 0xE5 SHL DUP2 MSTORE PUSH1 0x4 ADD PUSH2 0xC29 SWAP1 PUSH2 0x5DE5 JUMP JUMPDEST DUP2 MLOAD PUSH2 0x3D94 SWAP1 PUSH1 0xC9 SWAP1 PUSH1 0x20 DUP6 ADD SWAP1 PUSH2 0x46B0 JUMP JUMPDEST POP DUP1 MLOAD PUSH2 0xCCA SWAP1 PUSH1 0xCA SWAP1 PUSH1 0x20 DUP5 ADD SWAP1 PUSH2 0x46B0 JUMP JUMPDEST PUSH1 0x0 SLOAD PUSH2 0x100 SWAP1 DIV PUSH1 0xFF AND PUSH2 0x3DCF JUMPI PUSH1 0x40 MLOAD PUSH3 0x461BCD PUSH1 0xE5 SHL DUP2 MSTORE PUSH1 0x4 ADD PUSH2 0xC29 SWAP1 PUSH2 0x5DE5 JUMP JUMPDEST PUSH2 0x15F DUP1 SLOAD PUSH1 0xFF NOT AND SWAP1 SSTORE JUMP JUMPDEST PUSH1 0x0 SLOAD PUSH2 0x100 SWAP1 DIV PUSH1 0xFF AND PUSH2 0x3E03 JUMPI PUSH1 0x40 MLOAD PUSH3 0x461BCD PUSH1 0xE5 SHL DUP2 MSTORE PUSH1 0x4 ADD PUSH2 0xC29 SWAP1 PUSH2 0x5DE5 JUMP JUMPDEST DUP1 MLOAD PUSH2 0x3E17 SWAP1 PUSH2 0x1C4 SWAP1 PUSH1 0x20 DUP5 ADD SWAP1 PUSH2 0x46B0 JUMP JUMPDEST POP PUSH2 0x3E23 PUSH1 0x0 CALLER PUSH2 0x4429 JUMP JUMPDEST PUSH2 0x3E4D PUSH32 0x9F2DF0FED2C77648DE5860A4CC508CD0818C85B8B8A1AB4CEEEF8D981C8956A6 CALLER PUSH2 0x4429 JUMP JUMPDEST PUSH2 0xCCA PUSH32 0x65D7A28E3265B37A6474929F336521B332C1681B933F6CB9F3376673440D862A CALLER PUSH2 0x4429 JUMP JUMPDEST PUSH1 0x0 PUSH1 0x1 PUSH1 0x1 PUSH1 0xA0 SHL SUB DUP5 AND EXTCODESIZE ISZERO PUSH2 0x3F6A JUMPI PUSH1 0x40 MLOAD PUSH4 0xA85BD01 PUSH1 0xE1 SHL DUP2 MSTORE PUSH1 0x1 PUSH1 0x1 PUSH1 0xA0 SHL SUB DUP6 AND SWAP1 PUSH4 0x150B7A02 SWAP1 PUSH2 0x3EBB SWAP1 CALLER SWAP1 DUP10 SWAP1 DUP9 SWAP1 DUP9 SWAP1 PUSH1 0x4 ADD PUSH2 0x5F0B JUMP JUMPDEST PUSH1 0x20 PUSH1 0x40 MLOAD DUP1 DUP4 SUB DUP2 PUSH1 0x0 DUP8 GAS CALL SWAP3 POP POP POP DUP1 ISZERO PUSH2 0x3EF6 JUMPI POP PUSH1 0x40 DUP1 MLOAD PUSH1 0x1F RETURNDATASIZE SWAP1 DUP2 ADD PUSH1 0x1F NOT AND DUP3 ADD SWAP1 SWAP3 MSTORE PUSH2 0x3EF3 SWAP2 DUP2 ADD SWAP1 PUSH2 0x5F48 JUMP JUMPDEST PUSH1 0x1 JUMPDEST PUSH2 0x3F50 JUMPI RETURNDATASIZE DUP1 DUP1 ISZERO PUSH2 0x3F24 JUMPI PUSH1 0x40 MLOAD SWAP2 POP PUSH1 0x1F NOT PUSH1 0x3F RETURNDATASIZE ADD AND DUP3 ADD PUSH1 0x40 MSTORE RETURNDATASIZE DUP3 MSTORE RETURNDATASIZE PUSH1 0x0 PUSH1 0x20 DUP5 ADD RETURNDATACOPY PUSH2 0x3F29 JUMP JUMPDEST PUSH1 0x60 SWAP2 POP JUMPDEST POP DUP1 MLOAD PUSH2 0x3F48 JUMPI PUSH1 0x40 MLOAD PUSH3 0x461BCD PUSH1 0xE5 SHL DUP2 MSTORE PUSH1 0x4 ADD PUSH2 0xC29 SWAP1 PUSH2 0x5E30 JUMP JUMPDEST DUP1 MLOAD DUP2 PUSH1 0x20 ADD REVERT JUMPDEST PUSH1 0x1 PUSH1 0x1 PUSH1 0xE0 SHL SUB NOT AND PUSH4 0xA85BD01 PUSH1 0xE1 SHL EQ SWAP1 POP PUSH2 0x34D9 JUMP JUMPDEST POP PUSH1 0x1 SWAP5 SWAP4 POP POP POP POP JUMP JUMPDEST PUSH1 0x0 PUSH1 0x1 PUSH1 0x1 PUSH1 0xE0 SHL SUB NOT DUP3 AND PUSH4 0x5A05180F PUSH1 0xE0 SHL EQ DUP1 PUSH2 0xAF5 JUMPI POP PUSH2 0xAF5 DUP3 PUSH2 0x4433 JUMP JUMPDEST PUSH2 0x3FA5 DUP4 DUP4 DUP4 PUSH2 0x4468 JUMP JUMPDEST PUSH2 0x15F SLOAD PUSH1 0xFF AND ISZERO PUSH2 0xCCA JUMPI PUSH1 0x40 MLOAD PUSH3 0x461BCD PUSH1 0xE5 SHL DUP2 MSTORE PUSH1 0x20 PUSH1 0x4 DUP3 ADD MSTORE PUSH1 0x2B PUSH1 0x24 DUP3 ADD MSTORE PUSH32 0x4552433732315061757361626C653A20746F6B656E207472616E736665722077 PUSH1 0x44 DUP3 ADD MSTORE PUSH11 0x1A1A5B19481C185D5CD959 PUSH1 0xAA SHL PUSH1 0x64 DUP3 ADD MSTORE PUSH1 0x84 ADD PUSH2 0xC29 JUMP JUMPDEST PUSH1 0x60 PUSH1 0x0 PUSH2 0x401C DUP4 PUSH1 0x2 PUSH2 0x5591 JUMP JUMPDEST PUSH2 0x4027 SWAP1 PUSH1 0x2 PUSH2 0x5C54 JUMP JUMPDEST PUSH1 0x1 PUSH1 0x1 PUSH1 0x40 SHL SUB DUP2 GT ISZERO PUSH2 0x403E JUMPI PUSH2 0x403E PUSH2 0x486E JUMP JUMPDEST PUSH1 0x40 MLOAD SWAP1 DUP1 DUP3 MSTORE DUP1 PUSH1 0x1F ADD PUSH1 0x1F NOT AND PUSH1 0x20 ADD DUP3 ADD PUSH1 0x40 MSTORE DUP1 ISZERO PUSH2 0x4068 JUMPI PUSH1 0x20 DUP3 ADD DUP2 DUP1 CALLDATASIZE DUP4 CALLDATACOPY ADD SWAP1 POP JUMPDEST POP SWAP1 POP PUSH1 0x3 PUSH1 0xFC SHL DUP2 PUSH1 0x0 DUP2 MLOAD DUP2 LT PUSH2 0x4083 JUMPI PUSH2 0x4083 PUSH2 0x54FC JUMP JUMPDEST PUSH1 0x20 ADD ADD SWAP1 PUSH1 0x1 PUSH1 0x1 PUSH1 0xF8 SHL SUB NOT AND SWAP1 DUP2 PUSH1 0x0 BYTE SWAP1 MSTORE8 POP PUSH1 0xF PUSH1 0xFB SHL DUP2 PUSH1 0x1 DUP2 MLOAD DUP2 LT PUSH2 0x40B2 JUMPI PUSH2 0x40B2 PUSH2 0x54FC JUMP JUMPDEST PUSH1 0x20 ADD ADD SWAP1 PUSH1 0x1 PUSH1 0x1 PUSH1 0xF8 SHL SUB NOT AND SWAP1 DUP2 PUSH1 0x0 BYTE SWAP1 MSTORE8 POP PUSH1 0x0 PUSH2 0x40D6 DUP5 PUSH1 0x2 PUSH2 0x5591 JUMP JUMPDEST PUSH2 0x40E1 SWAP1 PUSH1 0x1 PUSH2 0x5C54 JUMP JUMPDEST SWAP1 POP JUMPDEST PUSH1 0x1 DUP2 GT ISZERO PUSH2 0x4159 JUMPI PUSH16 0x181899199A1A9B1B9C1CB0B131B232B3 PUSH1 0x81 SHL DUP6 PUSH1 0xF AND PUSH1 0x10 DUP2 LT PUSH2 0x4115 JUMPI PUSH2 0x4115 PUSH2 0x54FC JUMP JUMPDEST BYTE PUSH1 0xF8 SHL DUP3 DUP3 DUP2 MLOAD DUP2 LT PUSH2 0x412B JUMPI PUSH2 0x412B PUSH2 0x54FC JUMP JUMPDEST PUSH1 0x20 ADD ADD SWAP1 PUSH1 0x1 PUSH1 0x1 PUSH1 0xF8 SHL SUB NOT AND SWAP1 DUP2 PUSH1 0x0 BYTE SWAP1 MSTORE8 POP PUSH1 0x4 SWAP5 SWAP1 SWAP5 SHR SWAP4 PUSH2 0x4152 DUP2 PUSH2 0x5F65 JUMP JUMPDEST SWAP1 POP PUSH2 0x40E4 JUMP JUMPDEST POP DUP4 ISZERO PUSH2 0xD04 JUMPI PUSH1 0x40 MLOAD PUSH3 0x461BCD PUSH1 0xE5 SHL DUP2 MSTORE PUSH1 0x20 PUSH1 0x4 DUP3 ADD DUP2 SWAP1 MSTORE PUSH1 0x24 DUP3 ADD MSTORE PUSH32 0x537472696E67733A20686578206C656E67746820696E73756666696369656E74 PUSH1 0x44 DUP3 ADD MSTORE PUSH1 0x64 ADD PUSH2 0xC29 JUMP JUMPDEST PUSH1 0x0 DUP2 DUP2 MSTORE PUSH1 0x1 DUP4 ADD PUSH1 0x20 MSTORE PUSH1 0x40 DUP2 KECCAK256 SLOAD PUSH2 0x41EF JUMPI POP DUP2 SLOAD PUSH1 0x1 DUP2 DUP2 ADD DUP5 SSTORE PUSH1 0x0 DUP5 DUP2 MSTORE PUSH1 0x20 DUP1 DUP3 KECCAK256 SWAP1 SWAP4 ADD DUP5 SWAP1 SSTORE DUP5 SLOAD DUP5 DUP3 MSTORE DUP3 DUP7 ADD SWAP1 SWAP4 MSTORE PUSH1 0x40 SWAP1 KECCAK256 SWAP2 SWAP1 SWAP2 SSTORE PUSH2 0xAF5 JUMP JUMPDEST POP PUSH1 0x0 PUSH2 0xAF5 JUMP JUMPDEST PUSH1 0x1 PUSH1 0x1 PUSH1 0xA0 SHL SUB DUP3 AND PUSH2 0x424D JUMPI PUSH1 0x40 MLOAD PUSH3 0x461BCD PUSH1 0xE5 SHL DUP2 MSTORE PUSH1 0x20 PUSH1 0x4 DUP3 ADD DUP2 SWAP1 MSTORE PUSH1 0x24 DUP3 ADD MSTORE PUSH32 0x4552433732313A206D696E7420746F20746865207A65726F2061646472657373 PUSH1 0x44 DUP3 ADD MSTORE PUSH1 0x64 ADD PUSH2 0xC29 JUMP JUMPDEST PUSH2 0x4256 DUP2 PUSH2 0x3445 JUMP JUMPDEST ISZERO PUSH2 0x42A3 JUMPI PUSH1 0x40 MLOAD PUSH3 0x461BCD PUSH1 0xE5 SHL DUP2 MSTORE PUSH1 0x20 PUSH1 0x4 DUP3 ADD MSTORE PUSH1 0x1C PUSH1 0x24 DUP3 ADD MSTORE PUSH32 0x4552433732313A20746F6B656E20616C7265616479206D696E74656400000000 PUSH1 0x44 DUP3 ADD MSTORE PUSH1 0x64 ADD PUSH2 0xC29 JUMP JUMPDEST PUSH2 0x42AF PUSH1 0x0 DUP4 DUP4 PUSH2 0x3B77 JUMP JUMPDEST PUSH1 0x1 PUSH1 0x1 PUSH1 0xA0 SHL SUB DUP3 AND PUSH1 0x0 SWAP1 DUP2 MSTORE PUSH1 0xCC PUSH1 0x20 MSTORE PUSH1 0x40 DUP2 KECCAK256 DUP1 SLOAD PUSH1 0x1 SWAP3 SWAP1 PUSH2 0x42D8 SWAP1 DUP5 SWAP1 PUSH2 0x5C54 JUMP JUMPDEST SWAP1 SWAP2 SSTORE POP POP PUSH1 0x0 DUP2 DUP2 MSTORE PUSH1 0xCB PUSH1 0x20 MSTORE PUSH1 0x40 DUP1 DUP3 KECCAK256 DUP1 SLOAD PUSH1 0x1 PUSH1 0x1 PUSH1 0xA0 SHL SUB NOT AND PUSH1 0x1 PUSH1 0x1 PUSH1 0xA0 SHL SUB DUP7 AND SWAP1 DUP2 OR SWAP1 SWAP2 SSTORE SWAP1 MLOAD DUP4 SWAP3 SWAP1 PUSH32 0xDDF252AD1BE2C89B69C2B068FC378DAA952BA7F163C4A11628F55A4DF523B3EF SWAP1 DUP3 SWAP1 LOG4 POP POP JUMP JUMPDEST PUSH1 0x0 DUP2 DUP2 MSTORE PUSH1 0x1 DUP4 ADD PUSH1 0x20 MSTORE PUSH1 0x40 DUP2 KECCAK256 SLOAD DUP1 ISZERO PUSH2 0x441F JUMPI PUSH1 0x0 PUSH2 0x435A PUSH1 0x1 DUP4 PUSH2 0x5C6C JUMP JUMPDEST DUP6 SLOAD SWAP1 SWAP2 POP PUSH1 0x0 SWAP1 PUSH2 0x436E SWAP1 PUSH1 0x1 SWAP1 PUSH2 0x5C6C JUMP JUMPDEST SWAP1 POP DUP2 DUP2 EQ PUSH2 0x43D3 JUMPI PUSH1 0x0 DUP7 PUSH1 0x0 ADD DUP3 DUP2 SLOAD DUP2 LT PUSH2 0x438E JUMPI PUSH2 0x438E PUSH2 0x54FC JUMP JUMPDEST SWAP1 PUSH1 0x0 MSTORE PUSH1 0x20 PUSH1 0x0 KECCAK256 ADD SLOAD SWAP1 POP DUP1 DUP8 PUSH1 0x0 ADD DUP5 DUP2 SLOAD DUP2 LT PUSH2 0x43B1 JUMPI PUSH2 0x43B1 PUSH2 0x54FC JUMP JUMPDEST PUSH1 0x0 SWAP2 DUP3 MSTORE PUSH1 0x20 DUP1 DUP4 KECCAK256 SWAP1 SWAP2 ADD SWAP3 SWAP1 SWAP3 SSTORE SWAP2 DUP3 MSTORE PUSH1 0x1 DUP9 ADD SWAP1 MSTORE PUSH1 0x40 SWAP1 KECCAK256 DUP4 SWAP1 SSTORE JUMPDEST DUP6 SLOAD DUP7 SWAP1 DUP1 PUSH2 0x43E4 JUMPI PUSH2 0x43E4 PUSH2 0x5F7C JUMP JUMPDEST PUSH1 0x1 SWAP1 SUB DUP2 DUP2 SWAP1 PUSH1 0x0 MSTORE PUSH1 0x20 PUSH1 0x0 KECCAK256 ADD PUSH1 0x0 SWAP1 SSTORE SWAP1 SSTORE DUP6 PUSH1 0x1 ADD PUSH1 0x0 DUP7 DUP2 MSTORE PUSH1 0x20 ADD SWAP1 DUP2 MSTORE PUSH1 0x20 ADD PUSH1 0x0 KECCAK256 PUSH1 0x0 SWAP1 SSTORE PUSH1 0x1 SWAP4 POP POP POP POP PUSH2 0xAF5 JUMP JUMPDEST PUSH1 0x0 SWAP2 POP POP PUSH2 0xAF5 JUMP JUMPDEST PUSH2 0x166B DUP3 DUP3 PUSH2 0x3692 JUMP JUMPDEST PUSH1 0x0 PUSH1 0x1 PUSH1 0x1 PUSH1 0xE0 SHL SUB NOT DUP3 AND PUSH4 0x7965DB0B PUSH1 0xE0 SHL EQ DUP1 PUSH2 0xAF5 JUMPI POP PUSH4 0x1FFC9A7 PUSH1 0xE0 SHL PUSH1 0x1 PUSH1 0x1 PUSH1 0xE0 SHL SUB NOT DUP4 AND EQ PUSH2 0xAF5 JUMP JUMPDEST PUSH1 0x1 PUSH1 0x1 PUSH1 0xA0 SHL SUB DUP4 AND PUSH2 0x44C3 JUMPI PUSH2 0x44BE DUP2 PUSH1 0xFD DUP1 SLOAD PUSH1 0x0 DUP4 DUP2 MSTORE PUSH1 0xFE PUSH1 0x20 MSTORE PUSH1 0x40 DUP2 KECCAK256 DUP3 SWAP1 SSTORE PUSH1 0x1 DUP3 ADD DUP4 SSTORE SWAP2 SWAP1 SWAP2 MSTORE PUSH32 0x9346AC6DD7DE6B96975FEC380D4D994C4C12E6A8897544F22915316CC6CCA280 ADD SSTORE JUMP JUMPDEST PUSH2 0x44E6 JUMP JUMPDEST DUP2 PUSH1 0x1 PUSH1 0x1 PUSH1 0xA0 SHL SUB AND DUP4 PUSH1 0x1 PUSH1 0x1 PUSH1 0xA0 SHL SUB AND EQ PUSH2 0x44E6 JUMPI PUSH2 0x44E6 DUP4 DUP3 PUSH2 0x4520 JUMP JUMPDEST PUSH1 0x1 PUSH1 0x1 PUSH1 0xA0 SHL SUB DUP3 AND PUSH2 0x44FD JUMPI PUSH2 0xCCA DUP2 PUSH2 0x45BD JUMP JUMPDEST DUP3 PUSH1 0x1 PUSH1 0x1 PUSH1 0xA0 SHL SUB AND DUP3 PUSH1 0x1 PUSH1 0x1 PUSH1 0xA0 SHL SUB AND EQ PUSH2 0xCCA JUMPI PUSH2 0xCCA DUP3 DUP3 PUSH2 0x466C JUMP JUMPDEST PUSH1 0x0 PUSH1 0x1 PUSH2 0x452D DUP5 PUSH2 0x24F9 JUMP JUMPDEST PUSH2 0x4537 SWAP2 SWAP1 PUSH2 0x5C6C JUMP JUMPDEST PUSH1 0x0 DUP4 DUP2 MSTORE PUSH1 0xFC PUSH1 0x20 MSTORE PUSH1 0x40 SWAP1 KECCAK256 SLOAD SWAP1 SWAP2 POP DUP1 DUP3 EQ PUSH2 0x458A JUMPI PUSH1 0x1 PUSH1 0x1 PUSH1 0xA0 SHL SUB DUP5 AND PUSH1 0x0 SWAP1 DUP2 MSTORE PUSH1 0xFB PUSH1 0x20 SWAP1 DUP2 MSTORE PUSH1 0x40 DUP1 DUP4 KECCAK256 DUP6 DUP5 MSTORE DUP3 MSTORE DUP1 DUP4 KECCAK256 SLOAD DUP5 DUP5 MSTORE DUP2 DUP5 KECCAK256 DUP2 SWAP1 SSTORE DUP4 MSTORE PUSH1 0xFC SWAP1 SWAP2 MSTORE SWAP1 KECCAK256 DUP2 SWAP1 SSTORE JUMPDEST POP PUSH1 0x0 SWAP2 DUP3 MSTORE PUSH1 0xFC PUSH1 0x20 SWAP1 DUP2 MSTORE PUSH1 0x40 DUP1 DUP5 KECCAK256 DUP5 SWAP1 SSTORE PUSH1 0x1 PUSH1 0x1 PUSH1 0xA0 SHL SUB SWAP1 SWAP5 AND DUP4 MSTORE PUSH1 0xFB DUP2 MSTORE DUP4 DUP4 KECCAK256 SWAP2 DUP4 MSTORE MSTORE SWAP1 DUP2 KECCAK256 SSTORE JUMP JUMPDEST PUSH1 0xFD SLOAD PUSH1 0x0 SWAP1 PUSH2 0x45CF SWAP1 PUSH1 0x1 SWAP1 PUSH2 0x5C6C JUMP JUMPDEST PUSH1 0x0 DUP4 DUP2 MSTORE PUSH1 0xFE PUSH1 0x20 MSTORE PUSH1 0x40 DUP2 KECCAK256 SLOAD PUSH1 0xFD DUP1 SLOAD SWAP4 SWAP5 POP SWAP1 SWAP3 DUP5 SWAP1 DUP2 LT PUSH2 0x45F7 JUMPI PUSH2 0x45F7 PUSH2 0x54FC JUMP JUMPDEST SWAP1 PUSH1 0x0 MSTORE PUSH1 0x20 PUSH1 0x0 KECCAK256 ADD SLOAD SWAP1 POP DUP1 PUSH1 0xFD DUP4 DUP2 SLOAD DUP2 LT PUSH2 0x4618 JUMPI PUSH2 0x4618 PUSH2 0x54FC JUMP JUMPDEST PUSH1 0x0 SWAP2 DUP3 MSTORE PUSH1 0x20 DUP1 DUP4 KECCAK256 SWAP1 SWAP2 ADD SWAP3 SWAP1 SWAP3 SSTORE DUP3 DUP2 MSTORE PUSH1 0xFE SWAP1 SWAP2 MSTORE PUSH1 0x40 DUP1 DUP3 KECCAK256 DUP5 SWAP1 SSTORE DUP6 DUP3 MSTORE DUP2 KECCAK256 SSTORE PUSH1 0xFD DUP1 SLOAD DUP1 PUSH2 0x4650 JUMPI PUSH2 0x4650 PUSH2 0x5F7C JUMP JUMPDEST PUSH1 0x1 SWAP1 SUB DUP2 DUP2 SWAP1 PUSH1 0x0 MSTORE PUSH1 0x20 PUSH1 0x0 KECCAK256 ADD PUSH1 0x0 SWAP1 SSTORE SWAP1 SSTORE POP POP POP POP JUMP JUMPDEST PUSH1 0x0 PUSH2 0x4677 DUP4 PUSH2 0x24F9 JUMP JUMPDEST PUSH1 0x1 PUSH1 0x1 PUSH1 0xA0 SHL SUB SWAP1 SWAP4 AND PUSH1 0x0 SWAP1 DUP2 MSTORE PUSH1 0xFB PUSH1 0x20 SWAP1 DUP2 MSTORE PUSH1 0x40 DUP1 DUP4 KECCAK256 DUP7 DUP5 MSTORE DUP3 MSTORE DUP1 DUP4 KECCAK256 DUP6 SWAP1 SSTORE SWAP4 DUP3 MSTORE PUSH1 0xFC SWAP1 MSTORE SWAP2 SWAP1 SWAP2 KECCAK256 SWAP2 SWAP1 SWAP2 SSTORE POP JUMP JUMPDEST DUP3 DUP1 SLOAD PUSH2 0x46BC SWAP1 PUSH2 0x54C7 JUMP JUMPDEST SWAP1 PUSH1 0x0 MSTORE PUSH1 0x20 PUSH1 0x0 KECCAK256 SWAP1 PUSH1 0x1F ADD PUSH1 0x20 SWAP1 DIV DUP2 ADD SWAP3 DUP3 PUSH2 0x46DE JUMPI PUSH1 0x0 DUP6 SSTORE PUSH2 0x4724 JUMP JUMPDEST DUP3 PUSH1 0x1F LT PUSH2 0x46F7 JUMPI DUP1 MLOAD PUSH1 0xFF NOT AND DUP4 DUP1 ADD OR DUP6 SSTORE PUSH2 0x4724 JUMP JUMPDEST DUP3 DUP1 ADD PUSH1 0x1 ADD DUP6 SSTORE DUP3 ISZERO PUSH2 0x4724 JUMPI SWAP2 DUP3 ADD JUMPDEST DUP3 DUP2 GT ISZERO PUSH2 0x4724 JUMPI DUP3 MLOAD DUP3 SSTORE SWAP2 PUSH1 0x20 ADD SWAP2 SWAP1 PUSH1 0x1 ADD SWAP1 PUSH2 0x4709 JUMP JUMPDEST POP PUSH2 0x4730 SWAP3 SWAP2 POP PUSH2 0x4734 JUMP JUMPDEST POP SWAP1 JUMP JUMPDEST JUMPDEST DUP1 DUP3 GT ISZERO PUSH2 0x4730 JUMPI PUSH1 0x0 DUP2 SSTORE PUSH1 0x1 ADD PUSH2 0x4735 JUMP JUMPDEST PUSH1 0x1 PUSH1 0x1 PUSH1 0xE0 SHL SUB NOT DUP2 AND DUP2 EQ PUSH2 0x5F4 JUMPI PUSH1 0x0 DUP1 REVERT JUMPDEST PUSH1 0x0 PUSH1 0x20 DUP3 DUP5 SUB SLT ISZERO PUSH2 0x4771 JUMPI PUSH1 0x0 DUP1 REVERT JUMPDEST DUP2 CALLDATALOAD PUSH2 0xD04 DUP2 PUSH2 0x4749 JUMP JUMPDEST PUSH1 0x0 JUMPDEST DUP4 DUP2 LT ISZERO PUSH2 0x4797 JUMPI DUP2 DUP2 ADD MLOAD DUP4 DUP3 ADD MSTORE PUSH1 0x20 ADD PUSH2 0x477F JUMP JUMPDEST DUP4 DUP2 GT ISZERO PUSH2 0x2C8A JUMPI POP POP PUSH1 0x0 SWAP2 ADD MSTORE JUMP JUMPDEST PUSH1 0x0 DUP2 MLOAD DUP1 DUP5 MSTORE PUSH2 0x47C0 DUP2 PUSH1 0x20 DUP7 ADD PUSH1 0x20 DUP7 ADD PUSH2 0x477C JUMP JUMPDEST PUSH1 0x1F ADD PUSH1 0x1F NOT AND SWAP3 SWAP1 SWAP3 ADD PUSH1 0x20 ADD SWAP3 SWAP2 POP POP JUMP JUMPDEST PUSH1 0x20 DUP2 MSTORE PUSH1 0x0 PUSH2 0xD04 PUSH1 0x20 DUP4 ADD DUP5 PUSH2 0x47A8 JUMP JUMPDEST PUSH1 0x0 PUSH1 0x20 DUP3 DUP5 SUB SLT ISZERO PUSH2 0x47F9 JUMPI PUSH1 0x0 DUP1 REVERT JUMPDEST POP CALLDATALOAD SWAP2 SWAP1 POP JUMP JUMPDEST PUSH1 0x1 PUSH1 0x1 PUSH1 0xA0 SHL SUB DUP2 AND DUP2 EQ PUSH2 0x5F4 JUMPI PUSH1 0x0 DUP1 REVERT JUMPDEST DUP1 CALLDATALOAD PUSH2 0x2F0D DUP2 PUSH2 0x4800 JUMP JUMPDEST PUSH1 0x0 DUP1 PUSH1 0x40 DUP4 DUP6 SUB SLT ISZERO PUSH2 0x4833 JUMPI PUSH1 0x0 DUP1 REVERT JUMPDEST DUP3 CALLDATALOAD PUSH2 0x483E DUP2 PUSH2 0x4800 JUMP JUMPDEST SWAP5 PUSH1 0x20 SWAP4 SWAP1 SWAP4 ADD CALLDATALOAD SWAP4 POP POP POP JUMP JUMPDEST PUSH1 0x0 DUP1 PUSH1 0x40 DUP4 DUP6 SUB SLT ISZERO PUSH2 0x485F JUMPI PUSH1 0x0 DUP1 REVERT JUMPDEST POP POP DUP1 CALLDATALOAD SWAP3 PUSH1 0x20 SWAP1 SWAP2 ADD CALLDATALOAD SWAP2 POP JUMP JUMPDEST PUSH4 0x4E487B71 PUSH1 0xE0 SHL PUSH1 0x0 MSTORE PUSH1 0x41 PUSH1 0x4 MSTORE PUSH1 0x24 PUSH1 0x0 REVERT JUMPDEST PUSH1 0x40 MLOAD PUSH1 0x80 DUP2 ADD PUSH1 0x1 PUSH1 0x1 PUSH1 0x40 SHL SUB DUP2 GT DUP3 DUP3 LT OR ISZERO PUSH2 0x48A6 JUMPI PUSH2 0x48A6 PUSH2 0x486E JUMP JUMPDEST PUSH1 0x40 MSTORE SWAP1 JUMP JUMPDEST PUSH1 0x40 DUP1 MLOAD SWAP1 DUP2 ADD PUSH1 0x1 PUSH1 0x1 PUSH1 0x40 SHL SUB DUP2 GT DUP3 DUP3 LT OR ISZERO PUSH2 0x48A6 JUMPI PUSH2 0x48A6 PUSH2 0x486E JUMP JUMPDEST PUSH1 0x40 MLOAD PUSH1 0xE0 DUP2 ADD PUSH1 0x1 PUSH1 0x1 PUSH1 0x40 SHL SUB DUP2 GT DUP3 DUP3 LT OR ISZERO PUSH2 0x48A6 JUMPI PUSH2 0x48A6 PUSH2 0x486E JUMP JUMPDEST PUSH1 0x40 MLOAD PUSH1 0x1F DUP3 ADD PUSH1 0x1F NOT AND DUP2 ADD PUSH1 0x1 PUSH1 0x1 PUSH1 0x40 SHL SUB DUP2 GT DUP3 DUP3 LT OR ISZERO PUSH2 0x4918 JUMPI PUSH2 0x4918 PUSH2 0x486E JUMP JUMPDEST PUSH1 0x40 MSTORE SWAP2 SWAP1 POP JUMP JUMPDEST PUSH1 0x0 PUSH1 0x1 PUSH1 0x1 PUSH1 0x40 SHL SUB DUP3 GT ISZERO PUSH2 0x4939 JUMPI PUSH2 0x4939 PUSH2 0x486E JUMP JUMPDEST POP PUSH1 0x5 SHL PUSH1 0x20 ADD SWAP1 JUMP JUMPDEST PUSH1 0x0 DUP1 PUSH1 0x40 DUP4 DUP6 SUB SLT ISZERO PUSH2 0x4956 JUMPI PUSH1 0x0 DUP1 REVERT JUMPDEST DUP3 CALLDATALOAD SWAP2 POP PUSH1 0x20 DUP1 DUP5 ADD CALLDATALOAD PUSH1 0x1 PUSH1 0x1 PUSH1 0x40 SHL SUB DUP2 GT ISZERO PUSH2 0x4974 JUMPI PUSH1 0x0 DUP1 REVERT JUMPDEST DUP5 ADD PUSH1 0x1F DUP2 ADD DUP7 SGT PUSH2 0x4985 JUMPI PUSH1 0x0 DUP1 REVERT JUMPDEST DUP1 CALLDATALOAD PUSH2 0x4998 PUSH2 0x4993 DUP3 PUSH2 0x4920 JUMP JUMPDEST PUSH2 0x48F0 JUMP JUMPDEST DUP2 DUP2 MSTORE PUSH1 0x5 SWAP2 SWAP1 SWAP2 SHL DUP3 ADD DUP4 ADD SWAP1 DUP4 DUP2 ADD SWAP1 DUP9 DUP4 GT ISZERO PUSH2 0x49B7 JUMPI PUSH1 0x0 DUP1 REVERT JUMPDEST SWAP3 DUP5 ADD SWAP3 JUMPDEST DUP3 DUP5 LT ISZERO PUSH2 0x49D5 JUMPI DUP4 CALLDATALOAD DUP3 MSTORE SWAP3 DUP5 ADD SWAP3 SWAP1 DUP5 ADD SWAP1 PUSH2 0x49BC JUMP JUMPDEST DUP1 SWAP6 POP POP POP POP POP POP SWAP3 POP SWAP3 SWAP1 POP JUMP JUMPDEST PUSH1 0x0 DUP1 PUSH1 0x0 PUSH1 0x60 DUP5 DUP7 SUB SLT ISZERO PUSH2 0x49F9 JUMPI PUSH1 0x0 DUP1 REVERT JUMPDEST DUP4 CALLDATALOAD PUSH2 0x4A04 DUP2 PUSH2 0x4800 JUMP JUMPDEST SWAP3 POP PUSH1 0x20 DUP5 ADD CALLDATALOAD PUSH2 0x4A14 DUP2 PUSH2 0x4800 JUMP JUMPDEST SWAP3 SWAP6 SWAP3 SWAP5 POP POP POP PUSH1 0x40 SWAP2 SWAP1 SWAP2 ADD CALLDATALOAD SWAP1 JUMP JUMPDEST PUSH1 0x0 DUP1 PUSH1 0x40 DUP4 DUP6 SUB SLT ISZERO PUSH2 0x4A38 JUMPI PUSH1 0x0 DUP1 REVERT JUMPDEST DUP3 CALLDATALOAD SWAP2 POP PUSH1 0x20 DUP4 ADD CALLDATALOAD PUSH2 0x4A4A DUP2 PUSH2 0x4800 JUMP JUMPDEST DUP1 SWAP2 POP POP SWAP3 POP SWAP3 SWAP1 POP JUMP JUMPDEST PUSH1 0x0 PUSH1 0x1 PUSH1 0x1 PUSH1 0x40 SHL SUB DUP4 GT ISZERO PUSH2 0x4A6E JUMPI PUSH2 0x4A6E PUSH2 0x486E JUMP JUMPDEST PUSH2 0x4A81 PUSH1 0x1F DUP5 ADD PUSH1 0x1F NOT AND PUSH1 0x20 ADD PUSH2 0x48F0 JUMP JUMPDEST SWAP1 POP DUP3 DUP2 MSTORE DUP4 DUP4 DUP4 ADD GT ISZERO PUSH2 0x4A95 JUMPI PUSH1 0x0 DUP1 REVERT JUMPDEST DUP3 DUP3 PUSH1 0x20 DUP4 ADD CALLDATACOPY PUSH1 0x0 PUSH1 0x20 DUP5 DUP4 ADD ADD MSTORE SWAP4 SWAP3 POP POP POP JUMP JUMPDEST PUSH1 0x0 DUP3 PUSH1 0x1F DUP4 ADD SLT PUSH2 0x4ABD JUMPI PUSH1 0x0 DUP1 REVERT JUMPDEST PUSH2 0xD04 DUP4 DUP4 CALLDATALOAD PUSH1 0x20 DUP6 ADD PUSH2 0x4A55 JUMP JUMPDEST DUP1 CALLDATALOAD PUSH4 0xFFFFFFFF DUP2 AND DUP2 EQ PUSH2 0x2F0D JUMPI PUSH1 0x0 DUP1 REVERT JUMPDEST DUP1 ISZERO ISZERO DUP2 EQ PUSH2 0x5F4 JUMPI PUSH1 0x0 DUP1 REVERT JUMPDEST DUP1 CALLDATALOAD PUSH2 0x2F0D DUP2 PUSH2 0x4AE0 JUMP JUMPDEST PUSH1 0x0 PUSH1 0x40 DUP3 DUP5 SUB SLT ISZERO PUSH2 0x4B0B JUMPI PUSH1 0x0 DUP1 REVERT JUMPDEST POP SWAP2 SWAP1 POP JUMP JUMPDEST PUSH1 0x0 DUP1 PUSH1 0x0 DUP1 PUSH1 0x0 DUP1 PUSH1 0x0 DUP1 PUSH1 0x0 DUP1 PUSH1 0x0 PUSH2 0x160 DUP13 DUP15 SUB SLT ISZERO PUSH2 0x4B33 JUMPI PUSH1 0x0 DUP1 REVERT JUMPDEST PUSH2 0x4B3C DUP13 PUSH2 0x4815 JUMP JUMPDEST SWAP11 POP PUSH1 0x1 PUSH1 0x1 PUSH1 0x40 SHL SUB DUP1 PUSH1 0x20 DUP15 ADD CALLDATALOAD GT ISZERO PUSH2 0x4B57 JUMPI PUSH1 0x0 DUP1 REVERT JUMPDEST PUSH2 0x4B67 DUP15 PUSH1 0x20 DUP16 ADD CALLDATALOAD DUP16 ADD PUSH2 0x4AAC JUMP JUMPDEST SWAP11 POP PUSH1 0x40 DUP14 ADD CALLDATALOAD SWAP10 POP PUSH1 0x60 DUP14 ADD CALLDATALOAD SWAP9 POP DUP1 PUSH1 0x80 DUP15 ADD CALLDATALOAD GT ISZERO PUSH2 0x4B88 JUMPI PUSH1 0x0 DUP1 REVERT JUMPDEST PUSH2 0x4B98 DUP15 PUSH1 0x80 DUP16 ADD CALLDATALOAD DUP16 ADD PUSH2 0x4AAC JUMP JUMPDEST SWAP8 POP PUSH2 0x4BA6 PUSH1 0xA0 DUP15 ADD PUSH2 0x4ACC JUMP JUMPDEST SWAP7 POP PUSH2 0x4BB4 PUSH1 0xC0 DUP15 ADD PUSH2 0x4AEE JUMP JUMPDEST SWAP6 POP DUP1 PUSH1 0xE0 DUP15 ADD CALLDATALOAD GT ISZERO PUSH2 0x4BC7 JUMPI PUSH1 0x0 DUP1 REVERT JUMPDEST PUSH2 0x4BD7 DUP15 PUSH1 0xE0 DUP16 ADD CALLDATALOAD DUP16 ADD PUSH2 0x4AAC JUMP JUMPDEST SWAP5 POP PUSH2 0x100 DUP14 ADD CALLDATALOAD SWAP4 POP PUSH2 0x4BEE PUSH2 0x120 DUP15 ADD PUSH2 0x4815 JUMP JUMPDEST SWAP3 POP DUP1 PUSH2 0x140 DUP15 ADD CALLDATALOAD GT ISZERO PUSH2 0x4C02 JUMPI PUSH1 0x0 DUP1 REVERT JUMPDEST POP PUSH2 0x4C14 DUP14 PUSH2 0x140 DUP15 ADD CALLDATALOAD DUP15 ADD PUSH2 0x4AF9 JUMP JUMPDEST SWAP1 POP SWAP3 SWAP6 SWAP9 SWAP12 POP SWAP3 SWAP6 SWAP9 SWAP12 SWAP1 SWAP4 SWAP7 SWAP10 POP JUMP JUMPDEST PUSH1 0x0 DUP1 PUSH1 0x40 DUP4 DUP6 SUB SLT ISZERO PUSH2 0x4C39 JUMPI PUSH1 0x0 DUP1 REVERT JUMPDEST DUP3 CALLDATALOAD PUSH2 0x4C44 DUP2 PUSH2 0x4800 JUMP JUMPDEST SWAP2 POP PUSH1 0x20 DUP4 ADD CALLDATALOAD PUSH2 0x4A4A DUP2 PUSH2 0x4800 JUMP JUMPDEST PUSH1 0x0 DUP3 PUSH1 0x1F DUP4 ADD SLT PUSH2 0x4C65 JUMPI PUSH1 0x0 DUP1 REVERT JUMPDEST DUP2 CALLDATALOAD PUSH1 0x20 PUSH2 0x4C75 PUSH2 0x4993 DUP4 PUSH2 0x4920 JUMP JUMPDEST DUP3 DUP2 MSTORE PUSH1 0x5 SWAP3 SWAP1 SWAP3 SHL DUP5 ADD DUP2 ADD SWAP2 DUP2 DUP2 ADD SWAP1 DUP7 DUP5 GT ISZERO PUSH2 0x4C94 JUMPI PUSH1 0x0 DUP1 REVERT JUMPDEST DUP3 DUP7 ADD JUMPDEST DUP5 DUP2 LT ISZERO PUSH2 0x4CD3 JUMPI DUP1 CALLDATALOAD PUSH1 0x1 PUSH1 0x1 PUSH1 0x40 SHL SUB DUP2 GT ISZERO PUSH2 0x4CB7 JUMPI PUSH1 0x0 DUP1 DUP2 REVERT JUMPDEST PUSH2 0x4CC5 DUP10 DUP7 DUP4 DUP12 ADD ADD PUSH2 0x4AAC JUMP JUMPDEST DUP5 MSTORE POP SWAP2 DUP4 ADD SWAP2 DUP4 ADD PUSH2 0x4C98 JUMP JUMPDEST POP SWAP7 SWAP6 POP POP POP POP POP POP JUMP JUMPDEST PUSH1 0xFF DUP2 AND DUP2 EQ PUSH2 0x5F4 JUMPI PUSH1 0x0 DUP1 REVERT JUMPDEST DUP1 CALLDATALOAD PUSH2 0x2F0D DUP2 PUSH2 0x4CDE JUMP JUMPDEST PUSH1 0x0 PUSH1 0x20 DUP3 DUP5 SUB SLT ISZERO PUSH2 0x4D0A JUMPI PUSH1 0x0 DUP1 REVERT JUMPDEST PUSH1 0x1 PUSH1 0x1 PUSH1 0x40 SHL SUB DUP3 CALLDATALOAD GT ISZERO PUSH2 0x4D1F JUMPI PUSH1 0x0 DUP1 REVERT JUMPDEST PUSH1 0x80 DUP3 CALLDATALOAD DUP4 ADD DUP5 SUB SLT ISZERO PUSH2 0x4D32 JUMPI PUSH1 0x0 DUP1 REVERT JUMPDEST PUSH2 0x4D3A PUSH2 0x4884 JUMP JUMPDEST DUP3 CALLDATALOAD DUP4 ADD DUP1 CALLDATALOAD DUP3 MSTORE PUSH2 0x4D4F SWAP1 PUSH1 0x20 ADD CALLDATALOAD PUSH2 0x4800 JUMP JUMPDEST PUSH1 0x20 DUP4 CALLDATALOAD DUP5 ADD ADD CALLDATALOAD PUSH1 0x20 DUP3 ADD MSTORE PUSH1 0x1 PUSH1 0x1 PUSH1 0x40 SHL SUB PUSH1 0x40 DUP5 CALLDATALOAD DUP6 ADD ADD CALLDATALOAD GT ISZERO PUSH2 0x4D77 JUMPI PUSH1 0x0 DUP1 REVERT JUMPDEST PUSH2 0x4D8A DUP5 DUP5 CALLDATALOAD DUP6 ADD PUSH1 0x40 DUP2 ADD CALLDATALOAD ADD PUSH2 0x4C54 JUMP JUMPDEST PUSH1 0x40 DUP3 ADD MSTORE PUSH1 0x1 PUSH1 0x1 PUSH1 0x40 SHL SUB PUSH1 0x60 DUP5 CALLDATALOAD DUP6 ADD ADD CALLDATALOAD GT ISZERO PUSH2 0x4DAA JUMPI PUSH1 0x0 DUP1 REVERT JUMPDEST DUP3 CALLDATALOAD DUP4 ADD PUSH1 0x60 DUP2 ADD CALLDATALOAD ADD PUSH1 0x1F DUP2 ADD DUP6 SGT PUSH2 0x4DC3 JUMPI PUSH1 0x0 DUP1 REVERT JUMPDEST PUSH2 0x4DD0 PUSH2 0x4993 DUP3 CALLDATALOAD PUSH2 0x4920 JUMP JUMPDEST DUP2 CALLDATALOAD DUP1 DUP3 MSTORE PUSH1 0x20 DUP1 DUP4 ADD SWAP3 SWAP2 PUSH1 0x5 SHL DUP5 ADD ADD DUP8 LT ISZERO PUSH2 0x4DEE JUMPI PUSH1 0x0 DUP1 REVERT JUMPDEST PUSH1 0x20 DUP4 ADD JUMPDEST PUSH1 0x20 DUP5 CALLDATALOAD PUSH1 0x5 SHL DUP6 ADD ADD DUP2 LT ISZERO PUSH2 0x4FAB JUMPI PUSH1 0x1 PUSH1 0x1 PUSH1 0x40 SHL SUB DUP2 CALLDATALOAD GT ISZERO PUSH2 0x4E19 JUMPI PUSH1 0x0 DUP1 REVERT JUMPDEST PUSH1 0x40 DUP2 CALLDATALOAD DUP6 ADD DUP10 SUB PUSH1 0x1F NOT ADD SLT ISZERO PUSH2 0x4E30 JUMPI PUSH1 0x0 DUP1 REVERT JUMPDEST PUSH2 0x4E38 PUSH2 0x48AC JUMP JUMPDEST DUP2 CALLDATALOAD DUP6 ADD PUSH1 0x20 DUP2 ADD CALLDATALOAD DUP3 MSTORE PUSH1 0x1 PUSH1 0x1 PUSH1 0x40 SHL SUB PUSH1 0x40 SWAP1 SWAP2 ADD CALLDATALOAD GT ISZERO PUSH2 0x4E5C JUMPI PUSH1 0x0 DUP1 REVERT JUMPDEST DUP2 CALLDATALOAD DUP6 ADD PUSH1 0x40 DUP2 ADD CALLDATALOAD ADD PUSH1 0x3F DUP2 ADD DUP11 SGT PUSH2 0x4E75 JUMPI PUSH1 0x0 DUP1 REVERT JUMPDEST PUSH2 0x4E85 PUSH2 0x4993 PUSH1 0x20 DUP4 ADD CALLDATALOAD PUSH2 0x4920 JUMP JUMPDEST PUSH1 0x20 DUP3 DUP2 ADD CALLDATALOAD DUP1 DUP4 MSTORE SWAP1 DUP3 ADD SWAP2 SWAP1 PUSH1 0x5 SHL DUP4 ADD PUSH1 0x40 ADD DUP13 LT ISZERO PUSH2 0x4EA7 JUMPI PUSH1 0x0 DUP1 REVERT JUMPDEST PUSH1 0x40 DUP4 ADD JUMPDEST PUSH1 0x40 PUSH1 0x20 DUP6 ADD CALLDATALOAD PUSH1 0x5 SHL DUP6 ADD ADD DUP2 LT ISZERO PUSH2 0x4F92 JUMPI PUSH1 0x1 PUSH1 0x1 PUSH1 0x40 SHL SUB DUP2 CALLDATALOAD GT ISZERO PUSH2 0x4ED5 JUMPI PUSH1 0x0 DUP1 REVERT JUMPDEST PUSH1 0xE0 DUP2 CALLDATALOAD DUP6 ADD DUP15 SUB PUSH1 0x3F NOT ADD SLT ISZERO PUSH2 0x4EEC JUMPI PUSH1 0x0 DUP1 REVERT JUMPDEST PUSH2 0x4EF4 PUSH2 0x48CE JUMP JUMPDEST PUSH2 0x4F03 PUSH1 0x40 DUP4 CALLDATALOAD DUP8 ADD ADD PUSH2 0x4CED JUMP JUMPDEST DUP2 MSTORE DUP2 CALLDATALOAD DUP6 ADD PUSH1 0x60 DUP2 ADD CALLDATALOAD PUSH1 0x20 DUP4 ADD MSTORE PUSH1 0x80 DUP2 ADD CALLDATALOAD PUSH1 0x40 DUP4 ADD MSTORE PUSH2 0x4F29 SWAP1 PUSH1 0xA0 ADD PUSH2 0x4CED JUMP JUMPDEST PUSH1 0x60 DUP3 ADD MSTORE PUSH1 0x1 PUSH1 0x1 PUSH1 0x40 SHL SUB PUSH1 0xC0 DUP4 CALLDATALOAD DUP8 ADD ADD CALLDATALOAD GT ISZERO PUSH2 0x4F49 JUMPI PUSH1 0x0 DUP1 REVERT JUMPDEST PUSH2 0x4F5F DUP15 DUP4 CALLDATALOAD DUP8 ADD PUSH1 0xC0 DUP2 ADD CALLDATALOAD ADD PUSH1 0x40 ADD PUSH2 0x4C54 JUMP JUMPDEST PUSH1 0x80 DUP3 ADD MSTORE DUP2 CALLDATALOAD DUP6 ADD PUSH1 0xE0 DUP2 ADD CALLDATALOAD PUSH1 0xA0 DUP4 ADD MSTORE PUSH2 0x4F7F SWAP1 PUSH2 0x100 ADD PUSH2 0x4AEE JUMP JUMPDEST PUSH1 0xC0 DUP3 ADD MSTORE DUP4 MSTORE PUSH1 0x20 SWAP3 DUP4 ADD SWAP3 ADD PUSH2 0x4EAC JUMP JUMPDEST POP PUSH1 0x20 DUP5 DUP2 ADD SWAP2 SWAP1 SWAP2 MSTORE SWAP3 DUP7 MSTORE POP POP SWAP3 DUP4 ADD SWAP3 ADD PUSH2 0x4DF3 JUMP JUMPDEST POP PUSH1 0x60 DUP5 ADD MSTORE POP SWAP1 SWAP5 SWAP4 POP POP POP POP JUMP JUMPDEST PUSH1 0x0 PUSH1 0x20 DUP3 DUP5 SUB SLT ISZERO PUSH2 0x4FCD JUMPI PUSH1 0x0 DUP1 REVERT JUMPDEST DUP2 CALLDATALOAD PUSH2 0xD04 DUP2 PUSH2 0x4800 JUMP JUMPDEST PUSH1 0x0 DUP1 PUSH1 0x0 DUP1 PUSH1 0x80 DUP6 DUP8 SUB SLT ISZERO PUSH2 0x4FEE JUMPI PUSH1 0x0 DUP1 REVERT JUMPDEST DUP5 CALLDATALOAD PUSH2 0x4FF9 DUP2 PUSH2 0x4800 JUMP JUMPDEST SWAP4 POP PUSH1 0x20 DUP6 ADD CALLDATALOAD PUSH2 0x5009 DUP2 PUSH2 0x4800 JUMP JUMPDEST SWAP4 SWAP7 SWAP4 SWAP6 POP POP POP POP PUSH1 0x40 DUP3 ADD CALLDATALOAD SWAP2 PUSH1 0x60 ADD CALLDATALOAD SWAP1 JUMP JUMPDEST PUSH1 0x0 DUP2 MLOAD DUP1 DUP5 MSTORE PUSH1 0x20 DUP1 DUP6 ADD DUP1 DUP2 SWAP7 POP DUP4 PUSH1 0x5 SHL DUP2 ADD SWAP2 POP DUP3 DUP7 ADD PUSH1 0x0 JUMPDEST DUP6 DUP2 LT ISZERO PUSH2 0x5066 JUMPI DUP3 DUP5 SUB DUP10 MSTORE PUSH2 0x5054 DUP5 DUP4 MLOAD PUSH2 0x47A8 JUMP JUMPDEST SWAP9 DUP6 ADD SWAP9 SWAP4 POP SWAP1 DUP5 ADD SWAP1 PUSH1 0x1 ADD PUSH2 0x503C JUMP JUMPDEST POP SWAP2 SWAP8 SWAP7 POP POP POP POP POP POP POP JUMP JUMPDEST PUSH1 0x0 PUSH1 0x40 DUP1 DUP5 ADD DUP4 MLOAD DUP6 MSTORE PUSH1 0x20 DUP1 DUP6 ADD MLOAD DUP4 DUP3 DUP9 ADD MSTORE DUP3 DUP2 MLOAD DUP1 DUP6 MSTORE PUSH1 0x60 SWAP5 POP DUP5 DUP10 ADD SWAP2 POP DUP5 DUP2 PUSH1 0x5 SHL DUP11 ADD ADD DUP5 DUP5 ADD SWAP4 POP PUSH1 0x0 JUMPDEST DUP3 DUP2 LT ISZERO PUSH2 0x5124 JUMPI PUSH1 0x5F NOT DUP12 DUP4 SUB ADD DUP5 MSTORE DUP5 MLOAD PUSH1 0xE0 PUSH1 0xFF DUP1 DUP4 MLOAD AND DUP6 MSTORE DUP9 DUP4 ADD MLOAD DUP10 DUP7 ADD MSTORE DUP11 DUP4 ADD MLOAD DUP12 DUP7 ADD MSTORE DUP1 DUP11 DUP5 ADD MLOAD AND DUP11 DUP7 ADD MSTORE POP PUSH1 0x80 DUP1 DUP4 ADD MLOAD DUP3 DUP3 DUP8 ADD MSTORE PUSH2 0x50F7 DUP4 DUP8 ADD DUP3 PUSH2 0x501E JUMP JUMPDEST PUSH1 0xA0 DUP6 DUP2 ADD MLOAD SWAP1 DUP9 ADD MSTORE PUSH1 0xC0 SWAP5 DUP6 ADD MLOAD ISZERO ISZERO SWAP5 SWAP1 SWAP7 ADD SWAP4 SWAP1 SWAP4 MSTORE POP POP POP SWAP4 DUP6 ADD SWAP4 SWAP3 DUP6 ADD SWAP3 PUSH1 0x1 ADD PUSH2 0x50A8 JUMP JUMPDEST POP SWAP10 SWAP9 POP POP POP POP POP POP POP POP POP JUMP JUMPDEST DUP15 DUP2 MSTORE PUSH1 0x1 PUSH1 0x1 PUSH1 0xA0 SHL SUB DUP15 AND PUSH1 0x20 DUP3 ADD MSTORE DUP13 PUSH1 0x40 DUP3 ADD MSTORE DUP12 PUSH1 0x60 DUP3 ADD MSTORE PUSH2 0x1C0 PUSH1 0x80 DUP3 ADD MSTORE PUSH1 0x0 PUSH2 0x5168 PUSH2 0x1C0 DUP4 ADD DUP14 PUSH2 0x47A8 JUMP JUMPDEST PUSH4 0xFFFFFFFF DUP13 AND PUSH1 0xA0 DUP5 ADD MSTORE PUSH1 0x1 PUSH1 0x1 PUSH1 0xA0 SHL SUB DUP12 AND PUSH1 0xC0 DUP5 ADD MSTORE DUP3 DUP2 SUB PUSH1 0xE0 DUP5 ADD MSTORE PUSH2 0x5195 DUP2 DUP12 PUSH2 0x47A8 JUMP JUMPDEST SWAP1 POP DUP3 DUP2 SUB PUSH2 0x100 DUP5 ADD MSTORE PUSH2 0x51AA DUP2 DUP11 PUSH2 0x47A8 JUMP JUMPDEST DUP9 ISZERO ISZERO PUSH2 0x120 DUP6 ADD MSTORE SWAP1 POP DUP3 DUP2 SUB PUSH2 0x140 DUP5 ADD MSTORE PUSH2 0x51C8 DUP2 DUP9 PUSH2 0x5073 JUMP JUMPDEST SWAP2 POP POP PUSH2 0x51E1 PUSH2 0x160 DUP4 ADD DUP7 PUSH1 0x1 PUSH1 0x1 PUSH1 0xA0 SHL SUB AND SWAP1 MSTORE JUMP JUMPDEST PUSH2 0x180 DUP3 ADD SWAP4 SWAP1 SWAP4 MSTORE PUSH2 0x1A0 ADD MSTORE SWAP13 SWAP12 POP POP POP POP POP POP POP POP POP POP POP POP JUMP JUMPDEST PUSH1 0x0 DUP1 PUSH1 0x0 PUSH1 0x60 DUP5 DUP7 SUB SLT ISZERO PUSH2 0x5214 JUMPI PUSH1 0x0 DUP1 REVERT JUMPDEST DUP4 CALLDATALOAD SWAP3 POP PUSH1 0x20 DUP5 ADD CALLDATALOAD PUSH2 0x4A14 DUP2 PUSH2 0x4800 JUMP JUMPDEST PUSH1 0x0 DUP1 PUSH1 0x40 DUP4 DUP6 SUB SLT ISZERO PUSH2 0x5239 JUMPI PUSH1 0x0 DUP1 REVERT JUMPDEST DUP3 CALLDATALOAD PUSH2 0x5244 DUP2 PUSH2 0x4800 JUMP JUMPDEST SWAP2 POP PUSH1 0x20 DUP4 ADD CALLDATALOAD PUSH2 0x4A4A DUP2 PUSH2 0x4AE0 JUMP JUMPDEST PUSH1 0x0 DUP1 PUSH1 0x0 PUSH1 0x60 DUP5 DUP7 SUB SLT ISZERO PUSH2 0x5269 JUMPI PUSH1 0x0 DUP1 REVERT JUMPDEST DUP4 CALLDATALOAD PUSH1 0x1 PUSH1 0x1 PUSH1 0x40 SHL SUB DUP1 DUP3 GT ISZERO PUSH2 0x5280 JUMPI PUSH1 0x0 DUP1 REVERT JUMPDEST PUSH2 0x528C DUP8 DUP4 DUP9 ADD PUSH2 0x4AAC JUMP JUMPDEST SWAP5 POP PUSH1 0x20 DUP7 ADD CALLDATALOAD SWAP2 POP DUP1 DUP3 GT ISZERO PUSH2 0x52A2 JUMPI PUSH1 0x0 DUP1 REVERT JUMPDEST PUSH2 0x52AE DUP8 DUP4 DUP9 ADD PUSH2 0x4AAC JUMP JUMPDEST SWAP4 POP PUSH1 0x40 DUP7 ADD CALLDATALOAD SWAP2 POP DUP1 DUP3 GT ISZERO PUSH2 0x52C4 JUMPI PUSH1 0x0 DUP1 REVERT JUMPDEST POP PUSH2 0x52D1 DUP7 DUP3 DUP8 ADD PUSH2 0x4AAC JUMP JUMPDEST SWAP2 POP POP SWAP3 POP SWAP3 POP SWAP3 JUMP JUMPDEST PUSH1 0x0 DUP1 PUSH1 0x0 DUP1 PUSH1 0x0 PUSH1 0xA0 DUP7 DUP9 SUB SLT ISZERO PUSH2 0x52F3 JUMPI PUSH1 0x0 DUP1 REVERT JUMPDEST DUP6 CALLDATALOAD SWAP5 POP PUSH1 0x20 DUP7 ADD CALLDATALOAD SWAP4 POP PUSH1 0x40 DUP7 ADD CALLDATALOAD PUSH2 0x530C DUP2 PUSH2 0x4800 JUMP JUMPDEST SWAP3 POP PUSH1 0x60 DUP7 ADD CALLDATALOAD PUSH1 0x1 PUSH1 0x1 PUSH1 0x40 SHL SUB DUP1 DUP3 GT ISZERO PUSH2 0x5328 JUMPI PUSH1 0x0 DUP1 REVERT JUMPDEST PUSH2 0x5334 DUP10 DUP4 DUP11 ADD PUSH2 0x4AAC JUMP JUMPDEST SWAP4 POP PUSH1 0x80 DUP9 ADD CALLDATALOAD SWAP2 POP DUP1 DUP3 GT ISZERO PUSH2 0x534A JUMPI PUSH1 0x0 DUP1 REVERT JUMPDEST POP PUSH2 0x5357 DUP9 DUP3 DUP10 ADD PUSH2 0x4AAC JUMP JUMPDEST SWAP2 POP POP SWAP3 SWAP6 POP SWAP3 SWAP6 SWAP1 SWAP4 POP JUMP JUMPDEST PUSH1 0x0 DUP1 PUSH1 0x0 PUSH1 0x60 DUP5 DUP7 SUB SLT ISZERO PUSH2 0x5379 JUMPI PUSH1 0x0 DUP1 REVERT JUMPDEST DUP4 CALLDATALOAD PUSH2 0x5384 DUP2 PUSH2 0x4800 JUMP JUMPDEST SWAP6 PUSH1 0x20 DUP6 ADD CALLDATALOAD SWAP6 POP PUSH1 0x40 SWAP1 SWAP5 ADD CALLDATALOAD SWAP4 SWAP3 POP POP POP JUMP JUMPDEST PUSH1 0x0 DUP1 PUSH1 0x0 DUP1 PUSH1 0x80 DUP6 DUP8 SUB SLT ISZERO PUSH2 0x53AF JUMPI PUSH1 0x0 DUP1 REVERT JUMPDEST DUP5 CALLDATALOAD PUSH2 0x53BA DUP2 PUSH2 0x4800 JUMP JUMPDEST SWAP4 POP PUSH1 0x20 DUP6 ADD CALLDATALOAD PUSH2 0x53CA DUP2 PUSH2 0x4800 JUMP JUMPDEST SWAP3 POP PUSH1 0x40 DUP6 ADD CALLDATALOAD SWAP2 POP PUSH1 0x60 DUP6 ADD CALLDATALOAD PUSH1 0x1 PUSH1 0x1 PUSH1 0x40 SHL SUB DUP2 GT ISZERO PUSH2 0x53EC JUMPI PUSH1 0x0 DUP1 REVERT JUMPDEST DUP6 ADD PUSH1 0x1F DUP2 ADD DUP8 SGT PUSH2 0x53FD JUMPI PUSH1 0x0 DUP1 REVERT JUMPDEST PUSH2 0x540C DUP8 DUP3 CALLDATALOAD PUSH1 0x20 DUP5 ADD PUSH2 0x4A55 JUMP JUMPDEST SWAP2 POP POP SWAP3 SWAP6 SWAP2 SWAP5 POP SWAP3 POP JUMP JUMPDEST PUSH1 0x0 DUP1 PUSH1 0x0 DUP1 PUSH1 0x0 PUSH1 0xA0 DUP7 DUP9 SUB SLT ISZERO PUSH2 0x5430 JUMPI PUSH1 0x0 DUP1 REVERT JUMPDEST DUP6 CALLDATALOAD PUSH1 0x1 PUSH1 0x1 PUSH1 0x40 SHL SUB DUP1 DUP3 GT ISZERO PUSH2 0x5447 JUMPI PUSH1 0x0 DUP1 REVERT JUMPDEST PUSH2 0x5453 DUP10 DUP4 DUP11 ADD PUSH2 0x4AAC JUMP JUMPDEST SWAP7 POP PUSH1 0x20 DUP9 ADD CALLDATALOAD SWAP2 POP DUP1 DUP3 GT ISZERO PUSH2 0x5469 JUMPI PUSH1 0x0 DUP1 REVERT JUMPDEST PUSH2 0x5475 DUP10 DUP4 DUP11 ADD PUSH2 0x4AAC JUMP JUMPDEST SWAP6 POP PUSH1 0x40 DUP9 ADD CALLDATALOAD SWAP2 POP DUP1 DUP3 GT ISZERO PUSH2 0x548B JUMPI PUSH1 0x0 DUP1 REVERT JUMPDEST POP PUSH2 0x5498 DUP9 DUP3 DUP10 ADD PUSH2 0x4AAC JUMP JUMPDEST SWAP4 POP POP PUSH1 0x60 DUP7 ADD CALLDATALOAD PUSH2 0x54A9 DUP2 PUSH2 0x4800 JUMP JUMPDEST SWAP2 POP PUSH1 0x80 DUP7 ADD CALLDATALOAD PUSH2 0x54B9 DUP2 PUSH2 0x4800 JUMP JUMPDEST DUP1 SWAP2 POP POP SWAP3 SWAP6 POP SWAP3 SWAP6 SWAP1 SWAP4 POP JUMP JUMPDEST PUSH1 0x1 DUP2 DUP2 SHR SWAP1 DUP3 AND DUP1 PUSH2 0x54DB JUMPI PUSH1 0x7F DUP3 AND SWAP2 POP JUMPDEST PUSH1 0x20 DUP3 LT DUP2 EQ ISZERO PUSH2 0x4B0B JUMPI PUSH4 0x4E487B71 PUSH1 0xE0 SHL PUSH1 0x0 MSTORE PUSH1 0x22 PUSH1 0x4 MSTORE PUSH1 0x24 PUSH1 0x0 REVERT JUMPDEST PUSH4 0x4E487B71 PUSH1 0xE0 SHL PUSH1 0x0 MSTORE PUSH1 0x32 PUSH1 0x4 MSTORE PUSH1 0x24 PUSH1 0x0 REVERT JUMPDEST PUSH4 0x4E487B71 PUSH1 0xE0 SHL PUSH1 0x0 MSTORE PUSH1 0x11 PUSH1 0x4 MSTORE PUSH1 0x24 PUSH1 0x0 REVERT JUMPDEST PUSH1 0x0 PUSH1 0x0 NOT DUP3 EQ ISZERO PUSH2 0x553C JUMPI PUSH2 0x553C PUSH2 0x5512 JUMP JUMPDEST POP PUSH1 0x1 ADD SWAP1 JUMP JUMPDEST PUSH1 0x20 DUP1 DUP3 MSTORE PUSH1 0x2E SWAP1 DUP3 ADD MSTORE PUSH32 0x4552433732313A2063616C6C6572206973206E6F7420746F6B656E206F776E65 PUSH1 0x40 DUP3 ADD MSTORE PUSH14 0x1C881B9BDC88185C1C1C9BDD9959 PUSH1 0x92 SHL PUSH1 0x60 DUP3 ADD MSTORE PUSH1 0x80 ADD SWAP1 JUMP JUMPDEST PUSH1 0x0 DUP2 PUSH1 0x0 NOT DIV DUP4 GT DUP3 ISZERO ISZERO AND ISZERO PUSH2 0x55AB JUMPI PUSH2 0x55AB PUSH2 0x5512 JUMP JUMPDEST POP MUL SWAP1 JUMP JUMPDEST PUSH4 0x4E487B71 PUSH1 0xE0 SHL PUSH1 0x0 MSTORE PUSH1 0x12 PUSH1 0x4 MSTORE PUSH1 0x24 PUSH1 0x0 REVERT JUMPDEST PUSH1 0x0 DUP3 PUSH2 0x55D5 JUMPI PUSH2 0x55D5 PUSH2 0x55B0 JUMP JUMPDEST POP DIV SWAP1 JUMP JUMPDEST PUSH1 0x20 DUP1 DUP3 MSTORE PUSH1 0x1F SWAP1 DUP3 ADD MSTORE PUSH32 0x5265656E7472616E637947756172643A207265656E7472616E742063616C6C00 PUSH1 0x40 DUP3 ADD MSTORE PUSH1 0x60 ADD SWAP1 JUMP JUMPDEST PUSH1 0x0 PUSH1 0x20 DUP3 DUP5 SUB SLT ISZERO PUSH2 0x5623 JUMPI PUSH1 0x0 DUP1 REVERT JUMPDEST POP MLOAD SWAP2 SWAP1 POP JUMP JUMPDEST PUSH1 0x0 PUSH1 0x20 DUP3 DUP5 SUB SLT ISZERO PUSH2 0x563C JUMPI PUSH1 0x0 DUP1 REVERT JUMPDEST DUP2 MLOAD PUSH2 0xD04 DUP2 PUSH2 0x4800 JUMP JUMPDEST PUSH1 0x0 PUSH1 0x20 DUP3 DUP5 SUB SLT ISZERO PUSH2 0x5659 JUMPI PUSH1 0x0 DUP1 REVERT JUMPDEST DUP2 MLOAD PUSH2 0xD04 DUP2 PUSH2 0x4AE0 JUMP JUMPDEST PUSH1 0x0 DUP1 DUP4 CALLDATALOAD PUSH1 0x1E NOT DUP5 CALLDATASIZE SUB ADD DUP2 SLT PUSH2 0x567B JUMPI PUSH1 0x0 DUP1 REVERT JUMPDEST DUP4 ADD DUP1 CALLDATALOAD SWAP2 POP PUSH1 0x1 PUSH1 0x1 PUSH1 0x40 SHL SUB DUP3 GT ISZERO PUSH2 0x5695 JUMPI PUSH1 0x0 DUP1 REVERT JUMPDEST PUSH1 0x20 ADD SWAP2 POP PUSH1 0x5 DUP2 SWAP1 SHL CALLDATASIZE SUB DUP3 SGT ISZERO PUSH2 0x56AD JUMPI PUSH1 0x0 DUP1 REVERT JUMPDEST SWAP3 POP SWAP3 SWAP1 POP JUMP JUMPDEST PUSH1 0x0 DUP3 CALLDATALOAD PUSH1 0xDE NOT DUP4 CALLDATASIZE SUB ADD DUP2 SLT PUSH2 0x56CA JUMPI PUSH1 0x0 DUP1 REVERT JUMPDEST SWAP2 SWAP1 SWAP2 ADD SWAP3 SWAP2 POP POP JUMP JUMPDEST JUMPDEST DUP2 DUP2 LT ISZERO PUSH2 0x166B JUMPI PUSH1 0x0 DUP2 SSTORE PUSH1 0x1 ADD PUSH2 0x56D5 JUMP JUMPDEST DUP1 SLOAD PUSH1 0x0 DUP1 DUP4 SSTORE DUP2 ISZERO PUSH2 0xCCA JUMPI DUP3 DUP2 MSTORE PUSH1 0x20 DUP1 DUP3 KECCAK256 DUP4 DUP2 ADD JUMPDEST DUP1 DUP3 LT ISZERO PUSH2 0x2D5E JUMPI PUSH2 0x5714 DUP3 SLOAD PUSH2 0x54C7 JUMP JUMPDEST DUP1 ISZERO PUSH2 0x575B JUMPI PUSH1 0x1F DUP1 DUP3 GT PUSH1 0x1 DUP2 EQ PUSH2 0x572F JUMPI DUP7 DUP6 SSTORE PUSH2 0x5758 JUMP JUMPDEST DUP5 DUP8 MSTORE DUP6 DUP8 KECCAK256 PUSH2 0x5749 DUP4 DUP6 ADD PUSH1 0x5 SHR DUP3 ADD PUSH1 0x1 DUP4 ADD PUSH2 0x56D4 JUMP JUMPDEST POP PUSH1 0x0 DUP6 DUP2 MSTORE PUSH1 0x20 DUP2 KECCAK256 DUP2 DUP8 SSTORE SSTORE JUMPDEST POP POP JUMPDEST POP PUSH1 0x1 DUP3 ADD SWAP2 POP PUSH2 0x5702 JUMP JUMPDEST PUSH1 0x1F DUP3 GT ISZERO PUSH2 0xCCA JUMPI DUP1 PUSH1 0x0 MSTORE PUSH1 0x20 PUSH1 0x0 KECCAK256 PUSH1 0x1F DUP5 ADD PUSH1 0x5 SHR DUP2 ADD PUSH1 0x20 DUP6 LT ISZERO PUSH2 0x578E JUMPI POP DUP1 JUMPDEST PUSH2 0x57A0 PUSH1 0x1F DUP6 ADD PUSH1 0x5 SHR DUP4 ADD DUP3 PUSH2 0x56D4 JUMP JUMPDEST POP POP POP POP POP JUMP JUMPDEST PUSH1 0x1 PUSH1 0x1 PUSH1 0x40 SHL SUB DUP4 GT ISZERO PUSH2 0x57BE JUMPI PUSH2 0x57BE PUSH2 0x486E JUMP JUMPDEST PUSH2 0x57D2 DUP4 PUSH2 0x57CC DUP4 SLOAD PUSH2 0x54C7 JUMP JUMPDEST DUP4 PUSH2 0x5767 JUMP JUMPDEST PUSH1 0x0 PUSH1 0x1F DUP5 GT PUSH1 0x1 DUP2 EQ PUSH2 0x5806 JUMPI PUSH1 0x0 DUP6 ISZERO PUSH2 0x57EE JUMPI POP DUP4 DUP3 ADD CALLDATALOAD JUMPDEST PUSH1 0x0 NOT PUSH1 0x3 DUP8 SWAP1 SHL SHR NOT AND PUSH1 0x1 DUP7 SWAP1 SHL OR DUP4 SSTORE PUSH2 0x57A0 JUMP JUMPDEST PUSH1 0x0 DUP4 DUP2 MSTORE PUSH1 0x20 SWAP1 KECCAK256 PUSH1 0x1F NOT DUP7 AND SWAP1 DUP4 JUMPDEST DUP3 DUP2 LT ISZERO PUSH2 0x5837 JUMPI DUP7 DUP6 ADD CALLDATALOAD DUP3 SSTORE PUSH1 0x20 SWAP5 DUP6 ADD SWAP5 PUSH1 0x1 SWAP1 SWAP3 ADD SWAP2 ADD PUSH2 0x5817 JUMP JUMPDEST POP DUP7 DUP3 LT ISZERO PUSH2 0x5854 JUMPI PUSH1 0x0 NOT PUSH1 0xF8 DUP9 PUSH1 0x3 SHL AND SHR NOT DUP5 DUP8 ADD CALLDATALOAD AND DUP2 SSTORE JUMPDEST POP POP PUSH1 0x1 DUP6 PUSH1 0x1 SHL ADD DUP4 SSTORE POP POP POP POP POP JUMP JUMPDEST PUSH1 0x0 DUP2 CALLDATALOAD PUSH2 0xAF5 DUP2 PUSH2 0x4AE0 JUMP JUMPDEST DUP2 CALLDATALOAD PUSH2 0x587E DUP2 PUSH2 0x4CDE JUMP JUMPDEST DUP2 SLOAD PUSH1 0xFF NOT AND PUSH1 0xFF DUP3 AND OR DUP3 SSTORE POP PUSH1 0x1 PUSH1 0x20 DUP1 DUP5 ADD CALLDATALOAD DUP3 DUP5 ADD SSTORE PUSH1 0x40 DUP5 ADD CALLDATALOAD PUSH1 0x2 DUP5 ADD SSTORE PUSH1 0x60 DUP5 ADD CALLDATALOAD PUSH2 0x58B0 DUP2 PUSH2 0x4CDE JUMP JUMPDEST PUSH1 0x3 DUP5 ADD DUP1 SLOAD PUSH1 0xFF NOT AND PUSH1 0xFF DUP4 AND OR SWAP1 SSTORE POP PUSH1 0x4 DUP4 ADD PUSH2 0x58D3 PUSH1 0x80 DUP7 ADD DUP7 PUSH2 0x5664 JUMP JUMPDEST PUSH1 0x1 PUSH1 0x40 SHL DUP2 GT ISZERO PUSH2 0x58E7 JUMPI PUSH2 0x58E7 PUSH2 0x486E JUMP JUMPDEST DUP3 SLOAD DUP2 DUP5 SSTORE DUP1 DUP3 LT ISZERO PUSH2 0x596C JUMPI PUSH1 0x0 DUP5 DUP2 MSTORE DUP6 DUP2 KECCAK256 DUP4 DUP2 ADD SWAP1 DUP4 ADD JUMPDEST DUP1 DUP3 LT ISZERO PUSH2 0x5968 JUMPI PUSH2 0x5915 DUP3 SLOAD PUSH2 0x54C7 JUMP JUMPDEST DUP1 ISZERO PUSH2 0x595E JUMPI PUSH1 0x1F DUP1 DUP3 GT PUSH1 0x1 DUP2 EQ PUSH2 0x5930 JUMPI DUP6 DUP6 SSTORE PUSH2 0x595B JUMP JUMPDEST PUSH1 0x0 DUP6 DUP2 MSTORE PUSH1 0x20 SWAP1 KECCAK256 PUSH2 0x594C DUP4 DUP6 ADD PUSH1 0x5 SHR DUP3 ADD DUP15 DUP4 ADD PUSH2 0x56D4 JUMP JUMPDEST POP PUSH1 0x0 DUP6 DUP2 MSTORE PUSH1 0x20 DUP2 KECCAK256 DUP2 DUP8 SSTORE SSTORE JUMPDEST POP POP JUMPDEST POP SWAP1 DUP9 ADD SWAP1 PUSH2 0x5903 JUMP JUMPDEST POP POP POP JUMPDEST POP DUP2 PUSH1 0x0 DUP5 DUP2 MSTORE DUP6 DUP2 KECCAK256 SWAP5 POP DUP1 JUMPDEST DUP4 DUP2 LT ISZERO PUSH2 0x59DB JUMPI DUP3 CALLDATALOAD PUSH1 0x1E NOT DUP7 CALLDATASIZE SUB ADD DUP2 SLT PUSH2 0x5995 JUMPI DUP3 DUP4 REVERT JUMPDEST DUP6 ADD DUP1 CALLDATALOAD PUSH1 0x1 PUSH1 0x1 PUSH1 0x40 SHL SUB DUP2 GT ISZERO PUSH2 0x59AC JUMPI DUP4 DUP5 REVERT JUMPDEST DUP9 DUP3 ADD SWAP2 POP DUP1 CALLDATASIZE SUB DUP3 SGT ISZERO PUSH2 0x59BF JUMPI DUP4 DUP5 REVERT JUMPDEST PUSH2 0x59CA DUP2 DUP4 DUP11 PUSH2 0x57A7 JUMP JUMPDEST POP POP SWAP5 DUP8 ADD SWAP5 SWAP2 DUP7 ADD SWAP2 DUP8 ADD PUSH2 0x597A JUMP JUMPDEST POP POP POP POP POP POP POP POP PUSH1 0xA0 DUP3 ADD CALLDATALOAD PUSH1 0x5 DUP3 ADD SSTORE PUSH2 0x166B PUSH2 0x59FC PUSH1 0xC0 DUP5 ADD PUSH2 0x5866 JUMP JUMPDEST PUSH1 0x6 DUP4 ADD PUSH1 0xFF NOT DUP2 SLOAD AND PUSH1 0xFF DUP4 ISZERO ISZERO AND DUP2 OR DUP3 SSTORE POP POP POP JUMP JUMPDEST DUP2 CALLDATALOAD DUP2 SSTORE PUSH1 0x1 DUP1 DUP3 ADD PUSH1 0x20 PUSH2 0x5A2C DUP2 DUP7 ADD DUP7 PUSH2 0x5664 JUMP JUMPDEST PUSH1 0x1 PUSH1 0x40 SHL DUP2 GT ISZERO PUSH2 0x5A40 JUMPI PUSH2 0x5A40 PUSH2 0x486E JUMP JUMPDEST DUP4 SLOAD DUP2 DUP6 SSTORE DUP1 DUP3 LT ISZERO PUSH2 0x5AED JUMPI PUSH32 0x2492492492492492492492492492492492492492492492492492492492492492 DUP1 DUP3 GT DUP8 AND ISZERO PUSH2 0x5A80 JUMPI PUSH2 0x5A80 PUSH2 0x5512 JUMP JUMPDEST PUSH1 0x7 DUP2 DUP5 GT DUP9 AND ISZERO PUSH2 0x5A94 JUMPI PUSH2 0x5A94 PUSH2 0x5512 JUMP JUMPDEST PUSH1 0x0 DUP8 DUP2 MSTORE DUP7 DUP2 KECCAK256 SWAP1 SWAP3 POP DUP5 DUP3 MUL DUP2 ADD SWAP1 DUP3 DUP6 MUL ADD JUMPDEST DUP1 DUP3 LT ISZERO PUSH2 0x5AE8 JUMPI DUP4 DUP3 SSTORE DUP4 DUP11 DUP4 ADD SSTORE DUP4 PUSH1 0x2 DUP4 ADD SSTORE DUP4 PUSH1 0x3 DUP4 ADD SSTORE PUSH2 0x5AD2 PUSH1 0x4 DUP4 ADD PUSH2 0x56E9 JUMP JUMPDEST DUP4 PUSH1 0x5 DUP4 ADD SSTORE DUP4 PUSH1 0x6 DUP4 ADD SSTORE DUP3 DUP3 ADD SWAP2 POP PUSH2 0x5AAA JUMP JUMPDEST POP POP POP POP JUMPDEST POP PUSH1 0x0 SWAP4 DUP5 MSTORE PUSH1 0x20 DUP5 KECCAK256 SWAP4 DUP3 SWAP1 JUMPDEST DUP3 DUP2 LT ISZERO PUSH2 0x5B28 JUMPI PUSH2 0x5B16 PUSH2 0x5B10 DUP4 DUP7 PUSH2 0x56B4 JUMP JUMPDEST DUP8 PUSH2 0x5873 JUMP JUMPDEST PUSH1 0x7 SWAP6 SWAP1 SWAP6 ADD SWAP5 SWAP1 DUP5 ADD SWAP1 DUP7 ADD PUSH2 0x5AFB JUMP JUMPDEST POP POP POP POP POP POP POP POP POP JUMP JUMPDEST PUSH1 0xA0 DUP2 MSTORE PUSH1 0x0 DUP1 DUP8 SLOAD PUSH2 0x5B45 DUP2 PUSH2 0x54C7 JUMP JUMPDEST DUP1 PUSH1 0xA0 DUP7 ADD MSTORE PUSH1 0xC0 PUSH1 0x1 DUP1 DUP5 AND PUSH1 0x0 DUP2 EQ PUSH2 0x5B67 JUMPI PUSH1 0x1 DUP2 EQ PUSH2 0x5B7B JUMPI PUSH2 0x5BAC JUMP JUMPDEST PUSH1 0xFF NOT DUP6 AND DUP9 DUP5 ADD MSTORE PUSH1 0xE0 DUP9 ADD SWAP6 POP PUSH2 0x5BAC JUMP JUMPDEST DUP13 PUSH1 0x0 MSTORE PUSH1 0x20 DUP1 PUSH1 0x0 KECCAK256 PUSH1 0x0 JUMPDEST DUP7 DUP2 LT ISZERO PUSH2 0x5BA3 JUMPI DUP2 SLOAD DUP12 DUP3 ADD DUP8 ADD MSTORE SWAP1 DUP5 ADD SWAP1 DUP3 ADD PUSH2 0x5B88 JUMP JUMPDEST DUP11 ADD DUP6 ADD SWAP8 POP POP POP JUMPDEST POP POP POP POP POP DUP3 DUP2 SUB PUSH1 0x20 DUP5 ADD MSTORE PUSH2 0x5BC3 DUP2 DUP9 PUSH2 0x47A8 JUMP JUMPDEST SWAP2 POP POP PUSH2 0x5BDB PUSH1 0x40 DUP4 ADD DUP7 PUSH1 0x1 PUSH1 0x1 PUSH1 0xA0 SHL SUB AND SWAP1 MSTORE JUMP JUMPDEST PUSH1 0x1 PUSH1 0x1 PUSH1 0xA0 SHL SUB SWAP4 SWAP1 SWAP4 AND PUSH1 0x60 DUP3 ADD MSTORE PUSH1 0x80 ADD MSTORE SWAP4 SWAP3 POP POP POP JUMP JUMPDEST PUSH1 0x1 PUSH1 0x1 PUSH1 0xA0 SHL SUB DUP5 AND DUP2 MSTORE PUSH1 0x20 DUP1 DUP3 ADD DUP5 SWAP1 MSTORE PUSH1 0x60 PUSH1 0x40 DUP4 ADD DUP2 SWAP1 MSTORE DUP4 MLOAD SWAP1 DUP4 ADD DUP2 SWAP1 MSTORE PUSH1 0x0 SWAP2 DUP5 DUP2 ADD SWAP2 PUSH1 0x80 DUP6 ADD SWAP1 DUP5 JUMPDEST DUP2 DUP2 LT ISZERO PUSH2 0x5C46 JUMPI DUP5 MLOAD DUP4 MSTORE SWAP4 DUP4 ADD SWAP4 SWAP2 DUP4 ADD SWAP2 PUSH1 0x1 ADD PUSH2 0x5C2A JUMP JUMPDEST POP SWAP1 SWAP9 SWAP8 POP POP POP POP POP POP POP POP JUMP JUMPDEST PUSH1 0x0 DUP3 NOT DUP3 GT ISZERO PUSH2 0x5C67 JUMPI PUSH2 0x5C67 PUSH2 0x5512 JUMP JUMPDEST POP ADD SWAP1 JUMP JUMPDEST PUSH1 0x0 DUP3 DUP3 LT ISZERO PUSH2 0x5C7E JUMPI PUSH2 0x5C7E PUSH2 0x5512 JUMP JUMPDEST POP SUB SWAP1 JUMP JUMPDEST PUSH1 0x1 PUSH1 0x1 PUSH1 0xA0 SHL SUB DUP6 DUP2 AND DUP3 MSTORE DUP5 AND PUSH1 0x20 DUP3 ADD MSTORE PUSH1 0x80 PUSH1 0x40 DUP3 ADD DUP2 SWAP1 MSTORE PUSH1 0x0 SWAP1 PUSH2 0x5CAF SWAP1 DUP4 ADD DUP6 PUSH2 0x47A8 JUMP JUMPDEST DUP3 DUP2 SUB PUSH1 0x60 DUP5 ADD MSTORE PUSH2 0x5CC1 DUP2 DUP6 PUSH2 0x5073 JUMP JUMPDEST SWAP8 SWAP7 POP POP POP POP POP POP POP JUMP JUMPDEST PUSH1 0x1 PUSH1 0x1 PUSH1 0xA0 SHL SUB DUP4 DUP2 AND DUP3 MSTORE PUSH1 0x40 PUSH1 0x20 DUP1 DUP5 ADD DUP3 SWAP1 MSTORE DUP5 MLOAD DUP3 DUP6 ADD MSTORE DUP5 DUP2 ADD MLOAD SWAP1 SWAP3 AND PUSH1 0x60 DUP5 ADD MSTORE DUP4 ADD MLOAD PUSH1 0x80 DUP1 DUP5 ADD MSTORE PUSH1 0x0 SWAP2 PUSH2 0x5D0E PUSH1 0xC0 DUP6 ADD DUP4 PUSH2 0x501E JUMP JUMPDEST PUSH1 0x60 DUP7 ADD MLOAD DUP6 DUP3 SUB PUSH1 0x3F NOT ADD PUSH1 0xA0 DUP8 ADD MSTORE DUP1 MLOAD DUP1 DUP4 MSTORE SWAP2 SWAP4 POP DUP3 ADD SWAP1 DUP3 DUP5 ADD SWAP1 PUSH1 0x5 DUP2 SWAP1 SHL DUP6 ADD DUP5 ADD PUSH1 0x0 JUMPDEST DUP3 DUP2 LT ISZERO PUSH2 0x5124 JUMPI PUSH1 0x1F NOT DUP8 DUP4 SUB ADD DUP5 MSTORE PUSH2 0x5D56 DUP3 DUP7 MLOAD PUSH2 0x5073 JUMP JUMPDEST SWAP5 DUP7 ADD SWAP5 SWAP4 DUP7 ADD SWAP4 SWAP2 POP PUSH1 0x1 ADD PUSH2 0x5D3A JUMP JUMPDEST PUSH1 0x20 DUP1 DUP3 MSTORE PUSH1 0x2E SWAP1 DUP3 ADD MSTORE PUSH32 0x496E697469616C697A61626C653A20636F6E747261637420697320616C726561 PUSH1 0x40 DUP3 ADD MSTORE PUSH14 0x191E481A5B9A5D1A585B1A5E9959 PUSH1 0x92 SHL PUSH1 0x60 DUP3 ADD MSTORE PUSH1 0x80 ADD SWAP1 JUMP JUMPDEST PUSH1 0x0 DUP4 MLOAD PUSH2 0x5DC8 DUP2 DUP5 PUSH1 0x20 DUP9 ADD PUSH2 0x477C JUMP JUMPDEST DUP4 MLOAD SWAP1 DUP4 ADD SWAP1 PUSH2 0x5DDC DUP2 DUP4 PUSH1 0x20 DUP9 ADD PUSH2 0x477C JUMP JUMPDEST ADD SWAP5 SWAP4 POP POP POP POP JUMP JUMPDEST PUSH1 0x20 DUP1 DUP3 MSTORE PUSH1 0x2B SWAP1 DUP3 ADD MSTORE PUSH32 0x496E697469616C697A61626C653A20636F6E7472616374206973206E6F742069 PUSH1 0x40 DUP3 ADD MSTORE PUSH11 0x6E697469616C697A696E67 PUSH1 0xA8 SHL PUSH1 0x60 DUP3 ADD MSTORE PUSH1 0x80 ADD SWAP1 JUMP JUMPDEST PUSH1 0x20 DUP1 DUP3 MSTORE PUSH1 0x32 SWAP1 DUP3 ADD MSTORE PUSH32 0x4552433732313A207472616E7366657220746F206E6F6E204552433732315265 PUSH1 0x40 DUP3 ADD MSTORE PUSH18 0x31B2B4BB32B91034B6B83632B6B2B73A32B9 PUSH1 0x71 SHL PUSH1 0x60 DUP3 ADD MSTORE PUSH1 0x80 ADD SWAP1 JUMP JUMPDEST PUSH1 0x0 DUP3 PUSH2 0x5E91 JUMPI PUSH2 0x5E91 PUSH2 0x55B0 JUMP JUMPDEST POP MOD SWAP1 JUMP JUMPDEST PUSH32 0x416363657373436F6E74726F6C3A206163636F756E7420000000000000000000 DUP2 MSTORE PUSH1 0x0 DUP4 MLOAD PUSH2 0x5ECE DUP2 PUSH1 0x17 DUP6 ADD PUSH1 0x20 DUP9 ADD PUSH2 0x477C JUMP JUMPDEST PUSH17 0x1034B99036B4B9B9B4B733903937B6329 PUSH1 0x7D SHL PUSH1 0x17 SWAP2 DUP5 ADD SWAP2 DUP3 ADD MSTORE DUP4 MLOAD PUSH2 0x5EFF DUP2 PUSH1 0x28 DUP5 ADD PUSH1 0x20 DUP9 ADD PUSH2 0x477C JUMP JUMPDEST ADD PUSH1 0x28 ADD SWAP5 SWAP4 POP POP POP POP JUMP JUMPDEST PUSH1 0x1 PUSH1 0x1 PUSH1 0xA0 SHL SUB DUP6 DUP2 AND DUP3 MSTORE DUP5 AND PUSH1 0x20 DUP3 ADD MSTORE PUSH1 0x40 DUP2 ADD DUP4 SWAP1 MSTORE PUSH1 0x80 PUSH1 0x60 DUP3 ADD DUP2 SWAP1 MSTORE PUSH1 0x0 SWAP1 PUSH2 0x5F3E SWAP1 DUP4 ADD DUP5 PUSH2 0x47A8 JUMP JUMPDEST SWAP7 SWAP6 POP POP POP POP POP POP JUMP JUMPDEST PUSH1 0x0 PUSH1 0x20 DUP3 DUP5 SUB SLT ISZERO PUSH2 0x5F5A JUMPI PUSH1 0x0 DUP1 REVERT JUMPDEST DUP2 MLOAD PUSH2 0xD04 DUP2 PUSH2 0x4749 JUMP JUMPDEST PUSH1 0x0 DUP2 PUSH2 0x5F74 JUMPI PUSH2 0x5F74 PUSH2 0x5512 JUMP JUMPDEST POP PUSH1 0x0 NOT ADD SWAP1 JUMP JUMPDEST PUSH4 0x4E487B71 PUSH1 0xE0 SHL PUSH1 0x0 MSTORE PUSH1 0x31 PUSH1 0x4 MSTORE PUSH1 0x24 PUSH1 0x0 REVERT INVALID LOG2 PUSH5 0x6970667358 0x22 SLT KECCAK256 0xCA 0xC8 EQ PUSH20 0x76FBC4340687D3634C5217B3B06615BE19D11DAC STOP 0x5F CALLDATACOPY 0xBE BALANCE 0x21 PUSH22 0x4B64736F6C634300080C003300000000000000000000 "},"methodIdentifiers":{"DEFAULT_ADMIN_ROLE()":"a217fddf","MINTER_ROLE()":"d5391393","PAUSER_ROLE()":"e63ab1e9","_admin()":"01bc45c9","_approvalForAllSeeds(address,address)":"36bd9e63","_paramsAddress()":"adfc7dae","_projects(uint256)":"821f9dc9","approve(address,uint256)":"095ea7b3","approveForAllSeeds(address,uint256)":"62fe4e4a","balanceOf(address)":"70a08231","baseTokenURI()":"d547cfb7","burn(uint256)":"42966c68","changeAdmin(address)":"8f283970","exists(uint256)":"4f558e79","generateSeeds(uint256,uint256)":"46398139","getApproved(uint256)":"081812fc","getRoleAdmin(bytes32)":"248a9ca3","getRoleMember(bytes32,uint256)":"9010d07c","getRoleMemberCount(bytes32)":"ca15c873","grantRole(bytes32,address)":"2f2ff15d","hasRole(bytes32,address)":"91d14854","initialize(string,string,string)":"a6487c53","initialize(string,string,string,address,address)":"d6d0faee","isApprovedForAll(address,address)":"e985e9c5","isApprovedOrOwnerForSeed(address,bytes32,uint256)":"b0f4cf93","mint(address)":"6a627842","mintBatchUniqueNFT((uint256,address,string[],(bytes32,(uint8,uint256,uint256,uint8,string[],uint256,bool)[])[]))":"6006e9ef","mintProject(address,string,uint256,uint256,string,uint32,bool,string,uint256,address,(bytes32,(uint8,uint256,uint256,uint8,string[],uint256,bool)[]))":"35055e90","name()":"06fdde03","ownerOf(uint256)":"6352211e","ownerOfSeed(bytes32,uint256)":"1697eccf","pause()":"8456cb59","paused()":"5c975abb","registerSeeds(uint256,bytes32[])":"189c168d","renounceRole(bytes32,address)":"36568abe","revokeRole(bytes32,address)":"d547741f","royalties(uint256)":"7f77f574","royaltyInfo(uint256,uint256)":"2a55205a","safeTransferFrom(address,address,uint256)":"42842e0e","safeTransferFrom(address,address,uint256,bytes)":"b88d4fde","setApprovalForAll(address,bool)":"a22cb465","setCreator(address,uint256)":"c8cb8a75","setTokenRoyalty(uint256,address,uint256)":"9713c807","supportsInterface(bytes4)":"01ffc9a7","symbol()":"95d89b41","tokenByIndex(uint256)":"4f6ccce7","tokenOfOwnerByIndex(address,uint256)":"2f745c59","tokenURI(uint256)":"c87b56dd","totalSupply()":"18160ddd","transferFrom(address,address,uint256)":"23b872dd","transferSeed(address,address,bytes32,uint256)":"6e4d0fe6","unpause()":"3f4ba83a","updateProject(uint256,uint256,address,string,string)":"afdc94db","withdraw(address,address,uint256)":"d9caed12"}},"storageLayout":{"storage":[{"astId":608,"contract":"contracts/nft/GenerativeBoilerplateNFT.sol:GenerativeBoilerplateNFT","label":"_initialized","offset":0,"slot":"0","type":"t_uint8"},{"astId":611,"contract":"contracts/nft/GenerativeBoilerplateNFT.sol:GenerativeBoilerplateNFT","label":"_initializing","offset":1,"slot":"0","type":"t_bool"},{"astId":3090,"contract":"contracts/nft/GenerativeBoilerplateNFT.sol:GenerativeBoilerplateNFT","label":"__gap","offset":0,"slot":"1","type":"t_array(t_uint256)50_storage"},{"astId":3434,"contract":"contracts/nft/GenerativeBoilerplateNFT.sol:GenerativeBoilerplateNFT","label":"__gap","offset":0,"slot":"51","type":"t_array(t_uint256)50_storage"},{"astId":184,"contract":"contracts/nft/GenerativeBoilerplateNFT.sol:GenerativeBoilerplateNFT","label":"_roles","offset":0,"slot":"101","type":"t_mapping(t_bytes32,t_struct(RoleData)179_storage)"},{"astId":483,"contract":"contracts/nft/GenerativeBoilerplateNFT.sol:GenerativeBoilerplateNFT","label":"__gap","offset":0,"slot":"102","type":"t_array(t_uint256)49_storage"},{"astId":33,"contract":"contracts/nft/GenerativeBoilerplateNFT.sol:GenerativeBoilerplateNFT","label":"_roleMembers","offset":0,"slot":"151","type":"t_mapping(t_bytes32,t_struct(AddressSet)4071_storage)"},{"astId":143,"contract":"contracts/nft/GenerativeBoilerplateNFT.sol:GenerativeBoilerplateNFT","label":"__gap","offset":0,"slot":"152","type":"t_array(t_uint256)49_storage"},{"astId":1045,"contract":"contracts/nft/GenerativeBoilerplateNFT.sol:GenerativeBoilerplateNFT","label":"_name","offset":0,"slot":"201","type":"t_string_storage"},{"astId":1047,"contract":"contracts/nft/GenerativeBoilerplateNFT.sol:GenerativeBoilerplateNFT","label":"_symbol","offset":0,"slot":"202","type":"t_string_storage"},{"astId":1051,"contract":"contracts/nft/GenerativeBoilerplateNFT.sol:GenerativeBoilerplateNFT","label":"_owners","offset":0,"slot":"203","type":"t_mapping(t_uint256,t_address)"},{"astId":1055,"contract":"contracts/nft/GenerativeBoilerplateNFT.sol:GenerativeBoilerplateNFT","label":"_balances","offset":0,"slot":"204","type":"t_mapping(t_address,t_uint256)"},{"astId":1059,"contract":"contracts/nft/GenerativeBoilerplateNFT.sol:GenerativeBoilerplateNFT","label":"_tokenApprovals","offset":0,"slot":"205","type":"t_mapping(t_uint256,t_address)"},{"astId":1065,"contract":"contracts/nft/GenerativeBoilerplateNFT.sol:GenerativeBoilerplateNFT","label":"_operatorApprovals","offset":0,"slot":"206","type":"t_mapping(t_address,t_mapping(t_address,t_bool))"},{"astId":1907,"contract":"contracts/nft/GenerativeBoilerplateNFT.sol:GenerativeBoilerplateNFT","label":"__gap","offset":0,"slot":"207","type":"t_array(t_uint256)44_storage"},{"astId":2122,"contract":"contracts/nft/GenerativeBoilerplateNFT.sol:GenerativeBoilerplateNFT","label":"_ownedTokens","offset":0,"slot":"251","type":"t_mapping(t_address,t_mapping(t_uint256,t_uint256))"},{"astId":2126,"contract":"contracts/nft/GenerativeBoilerplateNFT.sol:GenerativeBoilerplateNFT","label":"_ownedTokensIndex","offset":0,"slot":"252","type":"t_mapping(t_uint256,t_uint256)"},{"astId":2129,"contract":"contracts/nft/GenerativeBoilerplateNFT.sol:GenerativeBoilerplateNFT","label":"_allTokens","offset":0,"slot":"253","type":"t_array(t_uint256)dyn_storage"},{"astId":2133,"contract":"contracts/nft/GenerativeBoilerplateNFT.sol:GenerativeBoilerplateNFT","label":"_allTokensIndex","offset":0,"slot":"254","type":"t_mapping(t_uint256,t_uint256)"},{"astId":2449,"contract":"contracts/nft/GenerativeBoilerplateNFT.sol:GenerativeBoilerplateNFT","label":"__gap","offset":0,"slot":"255","type":"t_array(t_uint256)46_storage"},{"astId":2091,"contract":"contracts/nft/GenerativeBoilerplateNFT.sol:GenerativeBoilerplateNFT","label":"__gap","offset":0,"slot":"301","type":"t_array(t_uint256)50_storage"},{"astId":773,"contract":"contracts/nft/GenerativeBoilerplateNFT.sol:GenerativeBoilerplateNFT","label":"_paused","offset":0,"slot":"351","type":"t_bool"},{"astId":878,"contract":"contracts/nft/GenerativeBoilerplateNFT.sol:GenerativeBoilerplateNFT","label":"__gap","offset":0,"slot":"352","type":"t_array(t_uint256)49_storage"},{"astId":2509,"contract":"contracts/nft/GenerativeBoilerplateNFT.sol:GenerativeBoilerplateNFT","label":"__gap","offset":0,"slot":"401","type":"t_array(t_uint256)50_storage"},{"astId":2626,"contract":"contracts/nft/GenerativeBoilerplateNFT.sol:GenerativeBoilerplateNFT","label":"_tokenIdTracker","offset":0,"slot":"451","type":"t_struct(Counter)3097_storage"},{"astId":2628,"contract":"contracts/nft/GenerativeBoilerplateNFT.sol:GenerativeBoilerplateNFT","label":"_baseTokenURI","offset":0,"slot":"452","type":"t_string_storage"},{"astId":2805,"contract":"contracts/nft/GenerativeBoilerplateNFT.sol:GenerativeBoilerplateNFT","label":"__gap","offset":0,"slot":"453","type":"t_array(t_uint256)48_storage"},{"astId":893,"contract":"contracts/nft/GenerativeBoilerplateNFT.sol:GenerativeBoilerplateNFT","label":"_status","offset":0,"slot":"501","type":"t_uint256"},{"astId":937,"contract":"contracts/nft/GenerativeBoilerplateNFT.sol:GenerativeBoilerplateNFT","label":"__gap","offset":0,"slot":"502","type":"t_array(t_uint256)49_storage"},{"astId":4841,"contract":"contracts/nft/GenerativeBoilerplateNFT.sol:GenerativeBoilerplateNFT","label":"_admin","offset":0,"slot":"551","type":"t_address"},{"astId":4843,"contract":"contracts/nft/GenerativeBoilerplateNFT.sol:GenerativeBoilerplateNFT","label":"_paramsAddress","offset":0,"slot":"552","type":"t_address"},{"astId":4846,"contract":"contracts/nft/GenerativeBoilerplateNFT.sol:GenerativeBoilerplateNFT","label":"_nextProjectId","offset":0,"slot":"553","type":"t_struct(Counter)3097_storage"},{"astId":4881,"contract":"contracts/nft/GenerativeBoilerplateNFT.sol:GenerativeBoilerplateNFT","label":"_projects","offset":0,"slot":"554","type":"t_mapping(t_uint256,t_struct(ProjectInfo)4876_storage)"},{"astId":4887,"contract":"contracts/nft/GenerativeBoilerplateNFT.sol:GenerativeBoilerplateNFT","label":"_seedOwners","offset":0,"slot":"555","type":"t_mapping(t_bytes32,t_mapping(t_uint256,t_address))"},{"astId":4894,"contract":"contracts/nft/GenerativeBoilerplateNFT.sol:GenerativeBoilerplateNFT","label":"_approvalForAllSeeds","offset":0,"slot":"556","type":"t_mapping(t_address,t_mapping(t_address,t_uint256))"},{"astId":4900,"contract":"contracts/nft/GenerativeBoilerplateNFT.sol:GenerativeBoilerplateNFT","label":"_seedToTokens","offset":0,"slot":"557","type":"t_mapping(t_bytes32,t_mapping(t_uint256,t_uint256))"},{"astId":6130,"contract":"contracts/nft/GenerativeBoilerplateNFT.sol:GenerativeBoilerplateNFT","label":"royalties","offset":0,"slot":"558","type":"t_mapping(t_uint256,t_struct(RoyaltyInfo)6125_storage)"}],"types":{"t_address":{"encoding":"inplace","label":"address","numberOfBytes":"20"},"t_array(t_bytes32)dyn_storage":{"base":"t_bytes32","encoding":"dynamic_array","label":"bytes32[]","numberOfBytes":"32"},"t_array(t_string_storage)dyn_storage":{"base":"t_string_storage","encoding":"dynamic_array","label":"string[]","numberOfBytes":"32"},"t_array(t_struct(ParamTemplate)4618_storage)dyn_storage":{"base":"t_struct(ParamTemplate)4618_storage","encoding":"dynamic_array","label":"struct BoilerplateParam.ParamTemplate[]","numberOfBytes":"32"},"t_array(t_uint256)44_storage":{"base":"t_uint256","encoding":"inplace","label":"uint256[44]","numberOfBytes":"1408"},"t_array(t_uint256)46_storage":{"base":"t_uint256","encoding":"inplace","label":"uint256[46]","numberOfBytes":"1472"},"t_array(t_uint256)48_storage":{"base":"t_uint256","encoding":"inplace","label":"uint256[48]","numberOfBytes":"1536"},"t_array(t_uint256)49_storage":{"base":"t_uint256","encoding":"inplace","label":"uint256[49]","numberOfBytes":"1568"},"t_array(t_uint256)50_storage":{"base":"t_uint256","encoding":"inplace","label":"uint256[50]","numberOfBytes":"1600"},"t_array(t_uint256)dyn_storage":{"base":"t_uint256","encoding":"dynamic_array","label":"uint256[]","numberOfBytes":"32"},"t_bool":{"encoding":"inplace","label":"bool","numberOfBytes":"1"},"t_bytes32":{"encoding":"inplace","label":"bytes32","numberOfBytes":"32"},"t_mapping(t_address,t_bool)":{"encoding":"mapping","key":"t_address","label":"mapping(address => bool)","numberOfBytes":"32","value":"t_bool"},"t_mapping(t_address,t_mapping(t_address,t_bool))":{"encoding":"mapping","key":"t_address","label":"mapping(address => mapping(address => bool))","numberOfBytes":"32","value":"t_mapping(t_address,t_bool)"},"t_mapping(t_address,t_mapping(t_address,t_uint256))":{"encoding":"mapping","key":"t_address","label":"mapping(address => mapping(address => uint256))","numberOfBytes":"32","value":"t_mapping(t_address,t_uint256)"},"t_mapping(t_address,t_mapping(t_uint256,t_uint256))":{"encoding":"mapping","key":"t_address","label":"mapping(address => mapping(uint256 => uint256))","numberOfBytes":"32","value":"t_mapping(t_uint256,t_uint256)"},"t_mapping(t_address,t_uint256)":{"encoding":"mapping","key":"t_address","label":"mapping(address => uint256)","numberOfBytes":"32","value":"t_uint256"},"t_mapping(t_bytes32,t_mapping(t_uint256,t_address))":{"encoding":"mapping","key":"t_bytes32","label":"mapping(bytes32 => mapping(uint256 => address))","numberOfBytes":"32","value":"t_mapping(t_uint256,t_address)"},"t_mapping(t_bytes32,t_mapping(t_uint256,t_uint256))":{"encoding":"mapping","key":"t_bytes32","label":"mapping(bytes32 => mapping(uint256 => uint256))","numberOfBytes":"32","value":"t_mapping(t_uint256,t_uint256)"},"t_mapping(t_bytes32,t_struct(AddressSet)4071_storage)":{"encoding":"mapping","key":"t_bytes32","label":"mapping(bytes32 => struct EnumerableSetUpgradeable.AddressSet)","numberOfBytes":"32","value":"t_struct(AddressSet)4071_storage"},"t_mapping(t_bytes32,t_struct(RoleData)179_storage)":{"encoding":"mapping","key":"t_bytes32","label":"mapping(bytes32 => struct AccessControlUpgradeable.RoleData)","numberOfBytes":"32","value":"t_struct(RoleData)179_storage"},"t_mapping(t_bytes32,t_uint256)":{"encoding":"mapping","key":"t_bytes32","label":"mapping(bytes32 => uint256)","numberOfBytes":"32","value":"t_uint256"},"t_mapping(t_uint256,t_address)":{"encoding":"mapping","key":"t_uint256","label":"mapping(uint256 => address)","numberOfBytes":"32","value":"t_address"},"t_mapping(t_uint256,t_struct(ProjectInfo)4876_storage)":{"encoding":"mapping","key":"t_uint256","label":"mapping(uint256 => struct GenerativeBoilerplateNFT.ProjectInfo)","numberOfBytes":"32","value":"t_struct(ProjectInfo)4876_storage"},"t_mapping(t_uint256,t_struct(RoyaltyInfo)6125_storage)":{"encoding":"mapping","key":"t_uint256","label":"mapping(uint256 => struct GenerativeBoilerplateNFT.RoyaltyInfo)","numberOfBytes":"32","value":"t_struct(RoyaltyInfo)6125_storage"},"t_mapping(t_uint256,t_uint256)":{"encoding":"mapping","key":"t_uint256","label":"mapping(uint256 => uint256)","numberOfBytes":"32","value":"t_uint256"},"t_string_storage":{"encoding":"bytes","label":"string","numberOfBytes":"32"},"t_struct(AddressSet)4071_storage":{"encoding":"inplace","label":"struct EnumerableSetUpgradeable.AddressSet","members":[{"astId":4070,"contract":"contracts/nft/GenerativeBoilerplateNFT.sol:GenerativeBoilerplateNFT","label":"_inner","offset":0,"slot":"0","type":"t_struct(Set)3770_storage"}],"numberOfBytes":"64"},"t_struct(Counter)3097_storage":{"encoding":"inplace","label":"struct CountersUpgradeable.Counter","members":[{"astId":3096,"contract":"contracts/nft/GenerativeBoilerplateNFT.sol:GenerativeBoilerplateNFT","label":"_value","offset":0,"slot":"0","type":"t_uint256"}],"numberOfBytes":"32"},"t_struct(ParamTemplate)4618_storage":{"encoding":"inplace","label":"struct BoilerplateParam.ParamTemplate","members":[{"astId":4604,"contract":"contracts/nft/GenerativeBoilerplateNFT.sol:GenerativeBoilerplateNFT","label":"_typeValue","offset":0,"slot":"0","type":"t_uint8"},{"astId":4606,"contract":"contracts/nft/GenerativeBoilerplateNFT.sol:GenerativeBoilerplateNFT","label":"_max","offset":0,"slot":"1","type":"t_uint256"},{"astId":4608,"contract":"contracts/nft/GenerativeBoilerplateNFT.sol:GenerativeBoilerplateNFT","label":"_min","offset":0,"slot":"2","type":"t_uint256"},{"astId":4610,"contract":"contracts/nft/GenerativeBoilerplateNFT.sol:GenerativeBoilerplateNFT","label":"_decimal","offset":0,"slot":"3","type":"t_uint8"},{"astId":4613,"contract":"contracts/nft/GenerativeBoilerplateNFT.sol:GenerativeBoilerplateNFT","label":"_availableValues","offset":0,"slot":"4","type":"t_array(t_string_storage)dyn_storage"},{"astId":4615,"contract":"contracts/nft/GenerativeBoilerplateNFT.sol:GenerativeBoilerplateNFT","label":"_value","offset":0,"slot":"5","type":"t_uint256"},{"astId":4617,"contract":"contracts/nft/GenerativeBoilerplateNFT.sol:GenerativeBoilerplateNFT","label":"_editable","offset":0,"slot":"6","type":"t_bool"}],"numberOfBytes":"224"},"t_struct(ParamsOfProject)4625_storage":{"encoding":"inplace","label":"struct BoilerplateParam.ParamsOfProject","members":[{"astId":4620,"contract":"contracts/nft/GenerativeBoilerplateNFT.sol:GenerativeBoilerplateNFT","label":"_seed","offset":0,"slot":"0","type":"t_bytes32"},{"astId":4624,"contract":"contracts/nft/GenerativeBoilerplateNFT.sol:GenerativeBoilerplateNFT","label":"_params","offset":0,"slot":"1","type":"t_array(t_struct(ParamTemplate)4618_storage)dyn_storage"}],"numberOfBytes":"64"},"t_struct(ProjectInfo)4876_storage":{"encoding":"inplace","label":"struct GenerativeBoilerplateNFT.ProjectInfo","members":[{"astId":4848,"contract":"contracts/nft/GenerativeBoilerplateNFT.sol:GenerativeBoilerplateNFT","label":"_fee","offset":0,"slot":"0","type":"t_uint256"},{"astId":4850,"contract":"contracts/nft/GenerativeBoilerplateNFT.sol:GenerativeBoilerplateNFT","label":"_feeToken","offset":0,"slot":"1","type":"t_address"},{"astId":4852,"contract":"contracts/nft/GenerativeBoilerplateNFT.sol:GenerativeBoilerplateNFT","label":"_mintMaxSupply","offset":0,"slot":"2","type":"t_uint256"},{"astId":4854,"contract":"contracts/nft/GenerativeBoilerplateNFT.sol:GenerativeBoilerplateNFT","label":"_mintTotalSupply","offset":0,"slot":"3","type":"t_uint256"},{"astId":4856,"contract":"contracts/nft/GenerativeBoilerplateNFT.sol:GenerativeBoilerplateNFT","label":"_script","offset":0,"slot":"4","type":"t_string_storage"},{"astId":4858,"contract":"contracts/nft/GenerativeBoilerplateNFT.sol:GenerativeBoilerplateNFT","label":"_scriptType","offset":0,"slot":"5","type":"t_uint32"},{"astId":4860,"contract":"contracts/nft/GenerativeBoilerplateNFT.sol:GenerativeBoilerplateNFT","label":"_creator","offset":4,"slot":"5","type":"t_address"},{"astId":4862,"contract":"contracts/nft/GenerativeBoilerplateNFT.sol:GenerativeBoilerplateNFT","label":"_customUri","offset":0,"slot":"6","type":"t_string_storage"},{"astId":4864,"contract":"contracts/nft/GenerativeBoilerplateNFT.sol:GenerativeBoilerplateNFT","label":"_projectName","offset":0,"slot":"7","type":"t_string_storage"},{"astId":4866,"contract":"contracts/nft/GenerativeBoilerplateNFT.sol:GenerativeBoilerplateNFT","label":"_clientSeed","offset":0,"slot":"8","type":"t_bool"},{"astId":4869,"contract":"contracts/nft/GenerativeBoilerplateNFT.sol:GenerativeBoilerplateNFT","label":"_paramsTemplate","offset":0,"slot":"9","type":"t_struct(ParamsOfProject)4625_storage"},{"astId":4871,"contract":"contracts/nft/GenerativeBoilerplateNFT.sol:GenerativeBoilerplateNFT","label":"_minterNFTInfo","offset":0,"slot":"11","type":"t_address"},{"astId":4873,"contract":"contracts/nft/GenerativeBoilerplateNFT.sol:GenerativeBoilerplateNFT","label":"_mintNotOwnerProjectMaxSupply","offset":0,"slot":"12","type":"t_uint256"},{"astId":4875,"contract":"contracts/nft/GenerativeBoilerplateNFT.sol:GenerativeBoilerplateNFT","label":"_mintNotOnwerProjectTotalSupply","offset":0,"slot":"13","type":"t_uint256"}],"numberOfBytes":"448"},"t_struct(RoleData)179_storage":{"encoding":"inplace","label":"struct AccessControlUpgradeable.RoleData","members":[{"astId":176,"contract":"contracts/nft/GenerativeBoilerplateNFT.sol:GenerativeBoilerplateNFT","label":"members","offset":0,"slot":"0","type":"t_mapping(t_address,t_bool)"},{"astId":178,"contract":"contracts/nft/GenerativeBoilerplateNFT.sol:GenerativeBoilerplateNFT","label":"adminRole","offset":0,"slot":"1","type":"t_bytes32"}],"numberOfBytes":"64"},"t_struct(RoyaltyInfo)6125_storage":{"encoding":"inplace","label":"struct GenerativeBoilerplateNFT.RoyaltyInfo","members":[{"astId":6120,"contract":"contracts/nft/GenerativeBoilerplateNFT.sol:GenerativeBoilerplateNFT","label":"recipient","offset":0,"slot":"0","type":"t_address"},{"astId":6122,"contract":"contracts/nft/GenerativeBoilerplateNFT.sol:GenerativeBoilerplateNFT","label":"amount","offset":20,"slot":"0","type":"t_uint24"},{"astId":6124,"contract":"contracts/nft/GenerativeBoilerplateNFT.sol:GenerativeBoilerplateNFT","label":"isValue","offset":23,"slot":"0","type":"t_bool"}],"numberOfBytes":"32"},"t_struct(Set)3770_storage":{"encoding":"inplace","label":"struct EnumerableSetUpgradeable.Set","members":[{"astId":3765,"contract":"contracts/nft/GenerativeBoilerplateNFT.sol:GenerativeBoilerplateNFT","label":"_values","offset":0,"slot":"0","type":"t_array(t_bytes32)dyn_storage"},{"astId":3769,"contract":"contracts/nft/GenerativeBoilerplateNFT.sol:GenerativeBoilerplateNFT","label":"_indexes","offset":0,"slot":"1","type":"t_mapping(t_bytes32,t_uint256)"}],"numberOfBytes":"64"},"t_uint24":{"encoding":"inplace","label":"uint24","numberOfBytes":"3"},"t_uint256":{"encoding":"inplace","label":"uint256","numberOfBytes":"32"},"t_uint32":{"encoding":"inplace","label":"uint32","numberOfBytes":"4"},"t_uint8":{"encoding":"inplace","label":"uint8","numberOfBytes":"1"}}}}}}