{"contracts/lib/helpers/Errors.sol":{"Errors":{"abi":[{"inputs":[],"name":"INV_ADD","outputs":[{"internalType":"string","name":"","type":"string"}],"stateMutability":"view","type":"function"},{"inputs":[],"name":"INV_BOILERPLATE_ADD","outputs":[{"internalType":"string","name":"","type":"string"}],"stateMutability":"view","type":"function"},{"inputs":[],"name":"INV_FEE_PROJECT","outputs":[{"internalType":"string","name":"","type":"string"}],"stateMutability":"view","type":"function"},{"inputs":[],"name":"INV_PARAMS","outputs":[{"internalType":"string","name":"","type":"string"}],"stateMutability":"view","type":"function"},{"inputs":[],"name":"INV_PROJECT","outputs":[{"internalType":"string","name":"","type":"string"}],"stateMutability":"view","type":"function"},{"inputs":[],"name":"MISSING_NAME","outputs":[{"internalType":"string","name":"","type":"string"}],"stateMutability":"view","type":"function"},{"inputs":[],"name":"ONLY_ADMIN_ALLOWED","outputs":[{"internalType":"string","name":"","type":"string"}],"stateMutability":"view","type":"function"},{"inputs":[],"name":"ONLY_CREATOR","outputs":[{"internalType":"string","name":"","type":"string"}],"stateMutability":"view","type":"function"},{"inputs":[],"name":"REACH_MAX","outputs":[{"internalType":"string","name":"","type":"string"}],"stateMutability":"view","type":"function"},{"inputs":[],"name":"SEED_INV","outputs":[{"internalType":"string","name":"","type":"string"}],"stateMutability":"view","type":"function"},{"inputs":[],"name":"SEED_INV_1","outputs":[{"internalType":"string","name":"","type":"string"}],"stateMutability":"view","type":"function"},{"inputs":[],"name":"SEED_INV_2","outputs":[{"internalType":"string","name":"","type":"string"}],"stateMutability":"view","type":"function"},{"inputs":[],"name":"SUCCESS","outputs":[{"internalType":"string","name":"","type":"string"}],"stateMutability":"view","type":"function"}],"evm":{"bytecode":{"linkReferences":{},"object":"61033761003a600b82828239805160001a60731461002d57634e487b7160e01b600052600060045260246000fd5b30600052607381538281f3fe73000000000000000000000000000000000000000030146080604052600436106100d95760003560e01c80637267050811610096578063b746287b11610070578063b746287b14610226578063d0a6d1a614610248578063dd48a58314610268578063feff83c31461028a57600080fd5b806372670508146101c05780637672b6f2146101e257806386f8148f1461020457600080fd5b806309d9c840146100de578063233122971461011657806338abf0c9146101385780635367c5861461015a578063552e387c1461017c578063652b7f311461019e575b600080fd5b6101006040518060400160405280600381526020016232303760e81b81525081565b60405161010d91906102ac565b60405180910390f35b6101006040518060400160405280600381526020016232303360e81b81525081565b6101006040518060400160405280600381526020016219181960e91b81525081565b6101006040518060400160405280600381526020016206460760eb1b81525081565b6101006040518060400160405280600381526020016231303160e81b81525081565b6101006040518060400160405280600381526020016232303160e81b81525081565b6101006040518060400160405280600381526020016203130360ec1b81525081565b6101006040518060400160405280600381526020016232303560e81b81525081565b6101006040518060400160405280600381526020016203230360ec1b81525081565b6101006040518060400160405280600381526020016218981960e91b81525081565b610100604051806040016040528060018152602001600360fc1b81525081565b6101006040518060400160405280600381526020016219181b60e91b81525081565b610100604051806040016040528060038152602001620c8c0d60ea1b81525081565b600060208083528351808285015260005b818110156102d9578581018301518582016040015282016102bd565b818111156102eb576000604083870101525b50601f01601f191692909201604001939250505056fea2646970667358221220fa0a29159ae6329e2445714207e2f43bef8a5252ff9019e0da94867fb856c3c064736f6c634300080c0033","opcodes":"PUSH2 0x337 PUSH2 0x3A PUSH1 0xB DUP3 DUP3 DUP3 CODECOPY DUP1 MLOAD PUSH1 0x0 BYTE PUSH1 0x73 EQ PUSH2 0x2D JUMPI PUSH4 0x4E487B71 PUSH1 0xE0 SHL PUSH1 0x0 MSTORE PUSH1 0x0 PUSH1 0x4 MSTORE PUSH1 0x24 PUSH1 0x0 REVERT JUMPDEST ADDRESS PUSH1 0x0 MSTORE PUSH1 0x73 DUP2 MSTORE8 DUP3 DUP2 RETURN INVALID PUSH20 0x0 ADDRESS EQ PUSH1 0x80 PUSH1 0x40 MSTORE PUSH1 0x4 CALLDATASIZE LT PUSH2 0xD9 JUMPI PUSH1 0x0 CALLDATALOAD PUSH1 0xE0 SHR DUP1 PUSH4 0x72670508 GT PUSH2 0x96 JUMPI DUP1 PUSH4 0xB746287B GT PUSH2 0x70 JUMPI DUP1 PUSH4 0xB746287B EQ PUSH2 0x226 JUMPI DUP1 PUSH4 0xD0A6D1A6 EQ PUSH2 0x248 JUMPI DUP1 PUSH4 0xDD48A583 EQ PUSH2 0x268 JUMPI DUP1 PUSH4 0xFEFF83C3 EQ PUSH2 0x28A JUMPI PUSH1 0x0 DUP1 REVERT JUMPDEST DUP1 PUSH4 0x72670508 EQ PUSH2 0x1C0 JUMPI DUP1 PUSH4 0x7672B6F2 EQ PUSH2 0x1E2 JUMPI DUP1 PUSH4 0x86F8148F EQ PUSH2 0x204 JUMPI PUSH1 0x0 DUP1 REVERT JUMPDEST DUP1 PUSH4 0x9D9C840 EQ PUSH2 0xDE JUMPI DUP1 PUSH4 0x23312297 EQ PUSH2 0x116 JUMPI DUP1 PUSH4 0x38ABF0C9 EQ PUSH2 0x138 JUMPI DUP1 PUSH4 0x5367C586 EQ PUSH2 0x15A JUMPI DUP1 PUSH4 0x552E387C EQ PUSH2 0x17C JUMPI DUP1 PUSH4 0x652B7F31 EQ PUSH2 0x19E JUMPI JUMPDEST PUSH1 0x0 DUP1 REVERT JUMPDEST PUSH2 0x100 PUSH1 0x40 MLOAD DUP1 PUSH1 0x40 ADD PUSH1 0x40 MSTORE DUP1 PUSH1 0x3 DUP2 MSTORE PUSH1 0x20 ADD PUSH3 0x323037 PUSH1 0xE8 SHL DUP2 MSTORE POP DUP2 JUMP JUMPDEST PUSH1 0x40 MLOAD PUSH2 0x10D SWAP2 SWAP1 PUSH2 0x2AC JUMP JUMPDEST PUSH1 0x40 MLOAD DUP1 SWAP2 SUB SWAP1 RETURN JUMPDEST PUSH2 0x100 PUSH1 0x40 MLOAD DUP1 PUSH1 0x40 ADD PUSH1 0x40 MSTORE DUP1 PUSH1 0x3 DUP2 MSTORE PUSH1 0x20 ADD PUSH3 0x323033 PUSH1 0xE8 SHL DUP2 MSTORE POP DUP2 JUMP JUMPDEST PUSH2 0x100 PUSH1 0x40 MLOAD DUP1 PUSH1 0x40 ADD PUSH1 0x40 MSTORE DUP1 PUSH1 0x3 DUP2 MSTORE PUSH1 0x20 ADD PUSH3 0x191819 PUSH1 0xE9 SHL DUP2 MSTORE POP DUP2 JUMP JUMPDEST PUSH2 0x100 PUSH1 0x40 MLOAD DUP1 PUSH1 0x40 ADD PUSH1 0x40 MSTORE DUP1 PUSH1 0x3 DUP2 MSTORE PUSH1 0x20 ADD PUSH3 0x64607 PUSH1 0xEB SHL DUP2 MSTORE POP DUP2 JUMP JUMPDEST PUSH2 0x100 PUSH1 0x40 MLOAD DUP1 PUSH1 0x40 ADD PUSH1 0x40 MSTORE DUP1 PUSH1 0x3 DUP2 MSTORE PUSH1 0x20 ADD PUSH3 0x313031 PUSH1 0xE8 SHL DUP2 MSTORE POP DUP2 JUMP JUMPDEST PUSH2 0x100 PUSH1 0x40 MLOAD DUP1 PUSH1 0x40 ADD PUSH1 0x40 MSTORE DUP1 PUSH1 0x3 DUP2 MSTORE PUSH1 0x20 ADD PUSH3 0x323031 PUSH1 0xE8 SHL DUP2 MSTORE POP DUP2 JUMP JUMPDEST PUSH2 0x100 PUSH1 0x40 MLOAD DUP1 PUSH1 0x40 ADD PUSH1 0x40 MSTORE DUP1 PUSH1 0x3 DUP2 MSTORE PUSH1 0x20 ADD PUSH3 0x31303 PUSH1 0xEC SHL DUP2 MSTORE POP DUP2 JUMP JUMPDEST PUSH2 0x100 PUSH1 0x40 MLOAD DUP1 PUSH1 0x40 ADD PUSH1 0x40 MSTORE DUP1 PUSH1 0x3 DUP2 MSTORE PUSH1 0x20 ADD PUSH3 0x323035 PUSH1 0xE8 SHL DUP2 MSTORE POP DUP2 JUMP JUMPDEST PUSH2 0x100 PUSH1 0x40 MLOAD DUP1 PUSH1 0x40 ADD PUSH1 0x40 MSTORE DUP1 PUSH1 0x3 DUP2 MSTORE PUSH1 0x20 ADD PUSH3 0x32303 PUSH1 0xEC SHL DUP2 MSTORE POP DUP2 JUMP JUMPDEST PUSH2 0x100 PUSH1 0x40 MLOAD DUP1 PUSH1 0x40 ADD PUSH1 0x40 MSTORE DUP1 PUSH1 0x3 DUP2 MSTORE PUSH1 0x20 ADD PUSH3 0x189819 PUSH1 0xE9 SHL DUP2 MSTORE POP DUP2 JUMP JUMPDEST PUSH2 0x100 PUSH1 0x40 MLOAD DUP1 PUSH1 0x40 ADD PUSH1 0x40 MSTORE DUP1 PUSH1 0x1 DUP2 MSTORE PUSH1 0x20 ADD PUSH1 0x3 PUSH1 0xFC SHL DUP2 MSTORE POP DUP2 JUMP JUMPDEST PUSH2 0x100 PUSH1 0x40 MLOAD DUP1 PUSH1 0x40 ADD PUSH1 0x40 MSTORE DUP1 PUSH1 0x3 DUP2 MSTORE PUSH1 0x20 ADD PUSH3 0x19181B PUSH1 0xE9 SHL DUP2 MSTORE POP DUP2 JUMP JUMPDEST PUSH2 0x100 PUSH1 0x40 MLOAD DUP1 PUSH1 0x40 ADD PUSH1 0x40 MSTORE DUP1 PUSH1 0x3 DUP2 MSTORE PUSH1 0x20 ADD PUSH3 0xC8C0D PUSH1 0xEA SHL DUP2 MSTORE POP DUP2 JUMP JUMPDEST PUSH1 0x0 PUSH1 0x20 DUP1 DUP4 MSTORE DUP4 MLOAD DUP1 DUP3 DUP6 ADD MSTORE PUSH1 0x0 JUMPDEST DUP2 DUP2 LT ISZERO PUSH2 0x2D9 JUMPI DUP6 DUP2 ADD DUP4 ADD MLOAD DUP6 DUP3 ADD PUSH1 0x40 ADD MSTORE DUP3 ADD PUSH2 0x2BD JUMP JUMPDEST DUP2 DUP2 GT ISZERO PUSH2 0x2EB JUMPI PUSH1 0x0 PUSH1 0x40 DUP4 DUP8 ADD ADD MSTORE JUMPDEST POP PUSH1 0x1F ADD PUSH1 0x1F NOT AND SWAP3 SWAP1 SWAP3 ADD PUSH1 0x40 ADD SWAP4 SWAP3 POP POP POP JUMP INVALID LOG2 PUSH5 0x6970667358 0x22 SLT KECCAK256 STATICCALL EXP 0x29 ISZERO SWAP11 0xE6 ORIGIN SWAP15 0x24 GASLIMIT PUSH18 0x4207E2F43BEF8A5252FF9019E0DA94867FB8 JUMP 0xC3 0xC0 PUSH5 0x736F6C6343 STOP ADDMOD 0xC STOP CALLER "},"methodIdentifiers":{"INV_ADD()":"72670508","INV_BOILERPLATE_ADD()":"5367c586","INV_FEE_PROJECT()":"652b7f31","INV_PARAMS()":"feff83c3","INV_PROJECT()":"38abf0c9","MISSING_NAME()":"86f8148f","ONLY_ADMIN_ALLOWED()":"552e387c","ONLY_CREATOR()":"b746287b","REACH_MAX()":"23312297","SEED_INV()":"7672b6f2","SEED_INV_1()":"dd48a583","SEED_INV_2()":"09d9c840","SUCCESS()":"d0a6d1a6"}},"storageLayout":{"storage":[],"types":null}}}}