{"contracts/nft/GenerativeNFT.sol":{"GenerativeNFT":{"abi":[{"anonymous":false,"inputs":[{"indexed":true,"internalType":"address","name":"owner","type":"address"},{"indexed":true,"internalType":"address","name":"approved","type":"address"},{"indexed":true,"internalType":"uint256","name":"tokenId","type":"uint256"}],"name":"Approval","type":"event"},{"anonymous":false,"inputs":[{"indexed":true,"internalType":"address","name":"owner","type":"address"},{"indexed":true,"internalType":"address","name":"operator","type":"address"},{"indexed":false,"internalType":"bool","name":"approved","type":"bool"}],"name":"ApprovalForAll","type":"event"},{"anonymous":false,"inputs":[{"indexed":false,"internalType":"uint8","name":"version","type":"uint8"}],"name":"Initialized","type":"event"},{"anonymous":false,"inputs":[{"indexed":false,"internalType":"address","name":"mintTo","type":"address"},{"indexed":false,"internalType":"address","name":"creator","type":"address"},{"indexed":false,"internalType":"string","name":"uri","type":"string"},{"indexed":false,"internalType":"uint256","name":"tokenId","type":"uint256"}],"name":"MintGenerativeNFT","type":"event"},{"anonymous":false,"inputs":[{"indexed":true,"internalType":"address","name":"previousOwner","type":"address"},{"indexed":true,"internalType":"address","name":"newOwner","type":"address"}],"name":"OwnershipTransferred","type":"event"},{"anonymous":false,"inputs":[{"indexed":false,"internalType":"address","name":"account","type":"address"}],"name":"Paused","type":"event"},{"anonymous":false,"inputs":[{"indexed":true,"internalType":"bytes32","name":"role","type":"bytes32"},{"indexed":true,"internalType":"bytes32","name":"previousAdminRole","type":"bytes32"},{"indexed":true,"internalType":"bytes32","name":"newAdminRole","type":"bytes32"}],"name":"RoleAdminChanged","type":"event"},{"anonymous":false,"inputs":[{"indexed":true,"internalType":"bytes32","name":"role","type":"bytes32"},{"indexed":true,"internalType":"address","name":"account","type":"address"},{"indexed":true,"internalType":"address","name":"sender","type":"address"}],"name":"RoleGranted","type":"event"},{"anonymous":false,"inputs":[{"indexed":true,"internalType":"bytes32","name":"role","type":"bytes32"},{"indexed":true,"internalType":"address","name":"account","type":"address"},{"indexed":true,"internalType":"address","name":"sender","type":"address"}],"name":"RoleRevoked","type":"event"},{"anonymous":false,"inputs":[{"indexed":true,"internalType":"address","name":"from","type":"address"},{"indexed":true,"internalType":"address","name":"to","type":"address"},{"indexed":true,"internalType":"uint256","name":"tokenId","type":"uint256"}],"name":"Transfer","type":"event"},{"anonymous":false,"inputs":[{"indexed":false,"internalType":"address","name":"account","type":"address"}],"name":"Unpaused","type":"event"},{"inputs":[],"name":"DEFAULT_ADMIN_ROLE","outputs":[{"internalType":"bytes32","name":"","type":"bytes32"}],"stateMutability":"view","type":"function"},{"inputs":[],"name":"MINTER_ROLE","outputs":[{"internalType":"bytes32","name":"","type":"bytes32"}],"stateMutability":"view","type":"function"},{"inputs":[],"name":"PAUSER_ROLE","outputs":[{"internalType":"bytes32","name":"","type":"bytes32"}],"stateMutability":"view","type":"function"},{"inputs":[],"name":"_admin","outputs":[{"internalType":"address","name":"","type":"address"}],"stateMutability":"view","type":"function"},{"inputs":[],"name":"_boilerplateAddr","outputs":[{"internalType":"address","name":"","type":"address"}],"stateMutability":"view","type":"function"},{"inputs":[],"name":"_boilerplateId","outputs":[{"internalType":"uint256","name":"","type":"uint256"}],"stateMutability":"view","type":"function"},{"inputs":[{"internalType":"uint256","name":"","type":"uint256"}],"name":"_creators","outputs":[{"internalType":"address","name":"","type":"address"}],"stateMutability":"view","type":"function"},{"inputs":[{"internalType":"uint256","name":"","type":"uint256"}],"name":"_paramsValues","outputs":[{"internalType":"bytes32","name":"_seed","type":"bytes32"}],"stateMutability":"view","type":"function"},{"inputs":[{"internalType":"address","name":"to","type":"address"},{"internalType":"uint256","name":"tokenId","type":"uint256"}],"name":"approve","outputs":[],"stateMutability":"nonpayable","type":"function"},{"inputs":[{"internalType":"address","name":"owner","type":"address"}],"name":"balanceOf","outputs":[{"internalType":"uint256","name":"","type":"uint256"}],"stateMutability":"view","type":"function"},{"inputs":[],"name":"baseTokenURI","outputs":[{"internalType":"string","name":"","type":"string"}],"stateMutability":"view","type":"function"},{"inputs":[{"internalType":"uint256","name":"tokenId","type":"uint256"}],"name":"burn","outputs":[],"stateMutability":"nonpayable","type":"function"},{"inputs":[{"internalType":"address","name":"_newAdmin","type":"address"}],"name":"changeAdmin","outputs":[],"stateMutability":"nonpayable","type":"function"},{"inputs":[{"internalType":"uint256","name":"tokenId","type":"uint256"}],"name":"getApproved","outputs":[{"internalType":"address","name":"","type":"address"}],"stateMutability":"view","type":"function"},{"inputs":[{"internalType":"uint256","name":"tokenId","type":"uint256"}],"name":"getParamValues","outputs":[{"internalType":"bytes32","name":"","type":"bytes32"},{"components":[{"internalType":"uint8","name":"_typeValue","type":"uint8"},{"internalType":"uint256","name":"_max","type":"uint256"},{"internalType":"uint256","name":"_min","type":"uint256"},{"internalType":"uint8","name":"_decimal","type":"uint8"},{"internalType":"string[]","name":"_availableValues","type":"string[]"},{"internalType":"uint256","name":"_value","type":"uint256"},{"internalType":"bool","name":"_editable","type":"bool"}],"internalType":"struct BoilerplateParam.ParamTemplate[]","name":"","type":"tuple[]"}],"stateMutability":"view","type":"function"},{"inputs":[{"internalType":"bytes32","name":"role","type":"bytes32"}],"name":"getRoleAdmin","outputs":[{"internalType":"bytes32","name":"","type":"bytes32"}],"stateMutability":"view","type":"function"},{"inputs":[{"internalType":"bytes32","name":"role","type":"bytes32"},{"internalType":"uint256","name":"index","type":"uint256"}],"name":"getRoleMember","outputs":[{"internalType":"address","name":"","type":"address"}],"stateMutability":"view","type":"function"},{"inputs":[{"internalType":"bytes32","name":"role","type":"bytes32"}],"name":"getRoleMemberCount","outputs":[{"internalType":"uint256","name":"","type":"uint256"}],"stateMutability":"view","type":"function"},{"inputs":[{"internalType":"uint256","name":"tokenId","type":"uint256"}],"name":"getTokenTraits","outputs":[{"components":[{"internalType":"string","name":"name","type":"string"},{"internalType":"string[]","name":"_availableValues","type":"string[]"},{"internalType":"uint256","name":"_value","type":"uint256"},{"internalType":"string","name":"_valueStr","type":"string"}],"internalType":"struct TraitInfo.Trait[]","name":"","type":"tuple[]"}],"stateMutability":"view","type":"function"},{"inputs":[],"name":"getTraits","outputs":[{"components":[{"internalType":"string","name":"name","type":"string"},{"internalType":"string[]","name":"_availableValues","type":"string[]"},{"internalType":"uint256","name":"_value","type":"uint256"},{"internalType":"string","name":"_valueStr","type":"string"}],"internalType":"struct TraitInfo.Trait[]","name":"","type":"tuple[]"}],"stateMutability":"view","type":"function"},{"inputs":[{"internalType":"bytes32","name":"role","type":"bytes32"},{"internalType":"address","name":"account","type":"address"}],"name":"grantRole","outputs":[],"stateMutability":"nonpayable","type":"function"},{"inputs":[{"internalType":"bytes32","name":"role","type":"bytes32"},{"internalType":"address","name":"account","type":"address"}],"name":"hasRole","outputs":[{"internalType":"bool","name":"","type":"bool"}],"stateMutability":"view","type":"function"},{"inputs":[{"internalType":"string","name":"name","type":"string"},{"internalType":"string","name":"symbol","type":"string"},{"internalType":"address","name":"admin","type":"address"},{"internalType":"address","name":"boilerplateAdd","type":"address"},{"internalType":"uint256","name":"boilerplateId","type":"uint256"}],"name":"init","outputs":[],"stateMutability":"nonpayable","type":"function"},{"inputs":[{"internalType":"string","name":"_name","type":"string"},{"internalType":"string","name":"_symbol","type":"string"},{"internalType":"string","name":"_baseuri","type":"string"},{"internalType":"address","name":"admin","type":"address"}],"name":"initialize","outputs":[],"stateMutability":"nonpayable","type":"function"},{"inputs":[{"internalType":"string","name":"name","type":"string"},{"internalType":"string","name":"symbol","type":"string"},{"internalType":"string","name":"baseTokenURI","type":"string"}],"name":"initialize","outputs":[],"stateMutability":"nonpayable","type":"function"},{"inputs":[{"internalType":"address","name":"owner","type":"address"},{"internalType":"address","name":"operator","type":"address"}],"name":"isApprovedForAll","outputs":[{"internalType":"bool","name":"","type":"bool"}],"stateMutability":"view","type":"function"},{"inputs":[{"internalType":"address","name":"to","type":"address"}],"name":"mint","outputs":[],"stateMutability":"nonpayable","type":"function"},{"inputs":[{"internalType":"address","name":"mintTo","type":"address"},{"internalType":"address","name":"creator","type":"address"},{"internalType":"string","name":"uri","type":"string"},{"components":[{"internalType":"bytes32","name":"_seed","type":"bytes32"},{"components":[{"internalType":"uint8","name":"_typeValue","type":"uint8"},{"internalType":"uint256","name":"_max","type":"uint256"},{"internalType":"uint256","name":"_min","type":"uint256"},{"internalType":"uint8","name":"_decimal","type":"uint8"},{"internalType":"string[]","name":"_availableValues","type":"string[]"},{"internalType":"uint256","name":"_value","type":"uint256"},{"internalType":"bool","name":"_editable","type":"bool"}],"internalType":"struct BoilerplateParam.ParamTemplate[]","name":"_params","type":"tuple[]"}],"internalType":"struct BoilerplateParam.ParamsOfProject","name":"_paramsTemplateValue","type":"tuple"}],"name":"mint","outputs":[],"stateMutability":"nonpayable","type":"function"},{"inputs":[],"name":"name","outputs":[{"internalType":"string","name":"","type":"string"}],"stateMutability":"view","type":"function"},{"inputs":[],"name":"owner","outputs":[{"internalType":"address","name":"","type":"address"}],"stateMutability":"view","type":"function"},{"inputs":[{"internalType":"uint256","name":"tokenId","type":"uint256"}],"name":"ownerOf","outputs":[{"internalType":"address","name":"","type":"address"}],"stateMutability":"view","type":"function"},{"inputs":[],"name":"pause","outputs":[],"stateMutability":"nonpayable","type":"function"},{"inputs":[],"name":"paused","outputs":[{"internalType":"bool","name":"","type":"bool"}],"stateMutability":"view","type":"function"},{"inputs":[],"name":"renounceOwnership","outputs":[],"stateMutability":"nonpayable","type":"function"},{"inputs":[{"internalType":"bytes32","name":"role","type":"bytes32"},{"internalType":"address","name":"account","type":"address"}],"name":"renounceRole","outputs":[],"stateMutability":"nonpayable","type":"function"},{"inputs":[{"internalType":"bytes32","name":"role","type":"bytes32"},{"internalType":"address","name":"account","type":"address"}],"name":"revokeRole","outputs":[],"stateMutability":"nonpayable","type":"function"},{"inputs":[{"internalType":"uint256","name":"","type":"uint256"}],"name":"royalties","outputs":[{"internalType":"address","name":"recipient","type":"address"},{"internalType":"uint24","name":"amount","type":"uint24"},{"internalType":"bool","name":"isValue","type":"bool"}],"stateMutability":"view","type":"function"},{"inputs":[{"internalType":"uint256","name":"_tokenId","type":"uint256"},{"internalType":"uint256","name":"_salePrice","type":"uint256"}],"name":"royaltyInfo","outputs":[{"internalType":"address","name":"receiver","type":"address"},{"internalType":"uint256","name":"royaltyAmount","type":"uint256"}],"stateMutability":"view","type":"function"},{"inputs":[{"internalType":"address","name":"from","type":"address"},{"internalType":"address","name":"to","type":"address"},{"internalType":"uint256","name":"tokenId","type":"uint256"}],"name":"safeTransferFrom","outputs":[],"stateMutability":"nonpayable","type":"function"},{"inputs":[{"internalType":"address","name":"from","type":"address"},{"internalType":"address","name":"to","type":"address"},{"internalType":"uint256","name":"tokenId","type":"uint256"},{"internalType":"bytes","name":"data","type":"bytes"}],"name":"safeTransferFrom","outputs":[],"stateMutability":"nonpayable","type":"function"},{"inputs":[{"internalType":"address","name":"operator","type":"address"},{"internalType":"bool","name":"approved","type":"bool"}],"name":"setApprovalForAll","outputs":[],"stateMutability":"nonpayable","type":"function"},{"inputs":[{"internalType":"address","name":"_to","type":"address"},{"internalType":"uint256[]","name":"_ids","type":"uint256[]"}],"name":"setCreator","outputs":[],"stateMutability":"nonpayable","type":"function"},{"inputs":[{"internalType":"uint256","name":"_tokenId","type":"uint256"},{"internalType":"string","name":"_newURI","type":"string"}],"name":"setCustomURI","outputs":[],"stateMutability":"nonpayable","type":"function"},{"inputs":[{"internalType":"uint256","name":"_tokenId","type":"uint256"},{"internalType":"address","name":"_recipient","type":"address"},{"internalType":"uint256","name":"_value","type":"uint256"}],"name":"setTokenRoyalty","outputs":[],"stateMutability":"nonpayable","type":"function"},{"inputs":[{"internalType":"bytes4","name":"interfaceId","type":"bytes4"}],"name":"supportsInterface","outputs":[{"internalType":"bool","name":"","type":"bool"}],"stateMutability":"view","type":"function"},{"inputs":[],"name":"symbol","outputs":[{"internalType":"string","name":"","type":"string"}],"stateMutability":"view","type":"function"},{"inputs":[{"internalType":"uint256","name":"index","type":"uint256"}],"name":"tokenByIndex","outputs":[{"internalType":"uint256","name":"","type":"uint256"}],"stateMutability":"view","type":"function"},{"inputs":[{"internalType":"address","name":"owner","type":"address"},{"internalType":"uint256","name":"index","type":"uint256"}],"name":"tokenOfOwnerByIndex","outputs":[{"internalType":"uint256","name":"","type":"uint256"}],"stateMutability":"view","type":"function"},{"inputs":[{"internalType":"uint256","name":"_tokenId","type":"uint256"}],"name":"tokenURI","outputs":[{"internalType":"string","name":"","type":"string"}],"stateMutability":"view","type":"function"},{"inputs":[],"name":"totalSupply","outputs":[{"internalType":"uint256","name":"","type":"uint256"}],"stateMutability":"view","type":"function"},{"inputs":[{"internalType":"address","name":"from","type":"address"},{"internalType":"address","name":"to","type":"address"},{"internalType":"uint256","name":"tokenId","type":"uint256"}],"name":"transferFrom","outputs":[],"stateMutability":"nonpayable","type":"function"},{"inputs":[{"internalType":"address","name":"newOwner","type":"address"}],"name":"transferOwnership","outputs":[],"stateMutability":"nonpayable","type":"function"},{"inputs":[],"name":"unpause","outputs":[],"stateMutability":"nonpayable","type":"function"},{"inputs":[{"components":[{"components":[{"internalType":"string","name":"name","type":"string"},{"internalType":"string[]","name":"_availableValues","type":"string[]"},{"internalType":"uint256","name":"_value","type":"uint256"},{"internalType":"string","name":"_valueStr","type":"string"}],"internalType":"struct TraitInfo.Trait[]","name":"_traits","type":"tuple[]"}],"internalType":"struct TraitInfo.Traits","name":"traits","type":"tuple"}],"name":"updateTraits","outputs":[],"stateMutability":"nonpayable","type":"function"}],"evm":{"bytecode":{"linkReferences":{},"object":"608060405234801561001057600080fd5b506150a4806100206000396000f3fe608060405234801561001057600080fd5b50600436106103425760003560e01c80637f77f574116101b8578063a6487c5311610104578063d5391393116100a2578063e63ab1e91161007c578063e63ab1e91461079e578063e985e9c5146107b3578063f2fde38b146107ef578063f9ecc22c1461080257600080fd5b8063d53913931461076e578063d547741f14610783578063d547cfb71461079657600080fd5b8063c0dca239116100de578063c0dca23914610714578063c87b56dd14610735578063ca15c87314610748578063d2a6b51a1461075b57600080fd5b8063a6487c53146106db578063ae3dd095146106ee578063b88d4fde1461070157600080fd5b806391d148541161017157806395d89b411161014b57806395d89b41146106a55780639713c807146106ad578063a217fddf146106c0578063a22cb465146106c857600080fd5b806391d148541461065e57806394e5684714610671578063953cd2461461068457600080fd5b80637f77f5741461059d57806381d225641461060b5780638456cb591461061e5780638da5cb5b146106265780638f283970146106385780639010d07c1461064b57600080fd5b80633f4ba83a116102925780635c975abb1161023057806370a082311161020a57806370a082311461055a578063715018a61461056d5780637d763613146105755780637f0429ef1461058857600080fd5b80635c975abb1461052a5780636352211e146105365780636a6278421461054957600080fd5b80634816edf41161026c5780634816edf4146104d05780634f6ccce7146104fa578063531f7b531461050d5780635c6d8da11461051757600080fd5b80633f4ba83a146104a257806342842e0e146104aa57806342966c68146104bd57600080fd5b806323b872dd116102ff5780632f2ff15d116102d95780632f2ff15d146104565780632f745c591461046957806336568abe1461047c5780633adf80b41461048f57600080fd5b806323b872dd146103ee578063248a9ca3146104015780632a55205a1461042457600080fd5b806301bc45c91461034757806301ffc9a71461037857806306fdde031461039b578063081812fc146103b0578063095ea7b3146103c357806318160ddd146103d8575b600080fd5b61025a5461035b906001600160a01b031681565b6040516001600160a01b0390911681526020015b60405180910390f35b61038b610386366004613bbb565b610816565b604051901515815260200161036f565b6103a3610827565b60405161036f9190613c30565b61035b6103be366004613c43565b6108ba565b6103d66103d1366004613c78565b6108e1565b005b6103e06109fc565b60405190815260200161036f565b6103d66103fc366004613ca2565b610a19565b6103e061040f366004613c43565b60009081526065602052604090206001015490565b610437610432366004613cde565b610a4b565b604080516001600160a01b03909316835260208301919091520161036f565b6103d6610464366004613d00565b610b0f565b6103e0610477366004613c78565b610b34565b6103d661048a366004613d00565b610bca565b6103d661049d366004613e11565b610c48565b6103d6610cc6565b6103d66104b8366004613ca2565b610d5c565b6103d66104cb366004613c43565b610d77565b61035b6104de366004613c43565b610260602052600090815260409020546001600160a01b031681565b6103e0610508366004613c43565b610da5565b6103e061025c5481565b6103d6610525366004613e4d565b610e38565b61015f5460ff1661038b565b61035b610544366004613c43565b610f25565b6103d6610557366004613ee5565b50565b6103e0610568366004613ee5565b610f85565b6103d661100b565b6103d6610583366004613f00565b61101d565b6105906113ad565b60405161036f9190613fde565b6105e06105ab366004613c43565b610263602052600090815260409020546001600160a01b03811690600160a01b810462ffffff1690600160b81b900460ff1683565b604080516001600160a01b03909416845262ffffff909216602084015215159082015260600161036f565b6103d661061936600461408a565b611617565b6103d6611685565b61025a546001600160a01b031661035b565b6103d6610646366004613ee5565b611717565b61035b610659366004613cde565b611869565b61038b61066c366004613d00565b611888565b61059061067f366004613c43565b6118b3565b6103e0610692366004613c43565b61025d6020526000908152604090205481565b6103a3611de4565b6103d66106bb3660046140c4565b611df4565b6103e0600081565b6103d66106d6366004614102565b611f07565b6103d66106e9366004614139565b611f12565b6103d66106fc3660046141c0565b611fe1565b6103d661070f36600461424c565b6120c6565b610727610722366004613c43565b6120f8565b60405161036f9291906142c7565b6103a3610743366004613c43565b61228f565b6103e0610756366004613c43565b612417565b6103d66107693660046143a4565b61242e565b6103e060008051602061504f83398151915281565b6103d6610791366004613d00565b6124cf565b6103a36124f4565b6103e060008051602061502f83398151915281565b61038b6107c136600461444c565b6001600160a01b03918216600090815260ce6020908152604080832093909416825291909152205460ff1690565b6103d66107fd366004613ee5565b6124fe565b61025b5461035b906001600160a01b031681565b600061082182612574565b92915050565b6060610261805461083790614476565b80601f016020809104026020016040519081016040528092919081815260200182805461086390614476565b80156108b05780601f10610885576101008083540402835291602001916108b0565b820191906000526020600020905b81548152906001019060200180831161089357829003601f168201915b5050505050905090565b60006108c582612599565b50600090815260cd60205260409020546001600160a01b031690565b60006108ec82610f25565b9050806001600160a01b0316836001600160a01b0316141561095f5760405162461bcd60e51b815260206004820152602160248201527f4552433732313a20617070726f76616c20746f2063757272656e74206f776e656044820152603960f91b60648201526084015b60405180910390fd5b336001600160a01b038216148061097b575061097b81336107c1565b6109ed5760405162461bcd60e51b815260206004820152603e60248201527f4552433732313a20617070726f76652063616c6c6572206973206e6f7420746f60448201527f6b656e206f776e6572206e6f7220617070726f76656420666f7220616c6c00006064820152608401610956565b6109f783836125f8565b505050565b60006001610a0a6102595490565b610a1491906144c1565b905090565b610a24335b82612666565b610a405760405162461bcd60e51b8152600401610956906144d8565b6109f78383836126e5565b600082815261026360209081526040808320815160608101835290546001600160a01b0381168252600160a01b810462ffffff1693820193909352600160b81b90920460ff1615801591830191909152829190610ad0578051602082015190935061271090610abf9062ffffff1686614526565b610ac9919061455b565b9150610b07565b600085815261026060205260409020546001600160a01b03169250612710610afa856101f4614526565b610b04919061455b565b91505b509250929050565b600082815260656020526040902060010154610b2a8161288c565b6109f78383612896565b6000610b3f83610f85565b8210610ba15760405162461bcd60e51b815260206004820152602b60248201527f455243373231456e756d657261626c653a206f776e657220696e646578206f7560448201526a74206f6620626f756e647360a81b6064820152608401610956565b506001600160a01b0391909116600090815260fb60209081526040808320938352929052205490565b6001600160a01b0381163314610c3a5760405162461bcd60e51b815260206004820152602f60248201527f416363657373436f6e74726f6c3a2063616e206f6e6c792072656e6f756e636560448201526e103937b632b9903337b91039b2b63360891b6064820152608401610956565b610c4482826128b8565b5050565b6000828152610260602052604090205482906001600160a01b03163314610ca05760405162461bcd60e51b815260206004820152600c60248201526b27a7262cafa1a922a0aa27a960a11b6044820152606401610956565b600083815261025f602090815260409091208351610cc092850190613b0c565b50505050565b610cde60008051602061502f83398151915233611888565b610d52576040805162461bcd60e51b81526020600482015260248101919091527f4552433732315072657365744d696e7465725061757365724175746f49643a2060448201527f6d75737420686176652070617573657220726f6c6520746f20756e70617573656064820152608401610956565b610d5a6128da565b565b6109f7838383604051806020016040528060008152506120c6565b610d8033610a1e565b610d9c5760405162461bcd60e51b8152600401610956906144d8565b6105578161292d565b6000610db060fd5490565b8210610e135760405162461bcd60e51b815260206004820152602c60248201527f455243373231456e756d657261626c653a20676c6f62616c20696e646578206f60448201526b7574206f6620626f756e647360a01b6064820152608401610956565b60fd8281548110610e2657610e2661456f565b90600052602060002001549050919050565b600054610100900460ff1615808015610e585750600054600160ff909116105b80610e725750303b158015610e72575060005460ff166001145b610e8e5760405162461bcd60e51b815260040161095690614585565b6000805460ff191660011790558015610eb1576000805461ff0019166101001790555b610ebc8585856129d4565b61025a80546001600160a01b0319166001600160a01b0384161790558015610f1e576000805461ff0019169055604051600181527f7f26b83ff96e1f2b6a682f133852f6798a09c465da95921460cefb38474024989060200160405180910390a15b5050505050565b600081815260cb60205260408120546001600160a01b0316806108215760405162461bcd60e51b8152602060048201526018602482015277115490cdcc8c4e881a5b9d985b1a59081d1bdad95b88125160421b6044820152606401610956565b60006001600160a01b038216610fef5760405162461bcd60e51b815260206004820152602960248201527f4552433732313a2061646472657373207a65726f206973206e6f7420612076616044820152683634b21037bbb732b960b91b6064820152608401610956565b506001600160a01b0316600090815260cc602052604090205490565b611013612a18565b610d5a6000612a98565b61025b5460408051808201909152600381526206460760eb1b6020820152906001600160a01b031633146110645760405162461bcd60e51b81526004016109569190613c30565b5061025b546001600160a01b0316158015906110835750600061025c54115b6040518060400160405280600381526020016219181960e91b815250906110bd5760405162461bcd60e51b81526004016109569190613c30565b50803560005b6110d060208401846145d3565b90508110156112235760006110e860208501856145d3565b838181106110f8576110f861456f565b905060200281019061110a9190614623565b611113906146e7565b90508060c001516111d857608081015151611184578060a001516111438460001c83604001518460200151612aeb565b146040518060400160405280600381526020016219181b60e91b8152509061117e5760405162461bcd60e51b81526004016109569190613c30565b506111d8565b8060a0015161119b8460001c836080015151612b16565b146040518060400160405280600381526020016232303760e81b815250906111d65760405162461bcd60e51b81526004016109569190613c30565b505b60a08101516040516111f7918591602001918252602082015260400190565b60405160208183030381529060405280519060200120925050808061121b9061477d565b9150506110c3565b5061025b5461025c54604051634f558e7960e01b815260048101919091526001600160a01b03909116908190634f558e7990602401602060405180830381865afa158015611275573d6000803e3d6000fd5b505050506040513d601f19601f820116820180604052508101906112999190614798565b6040518060400160405280600381526020016219181960e91b815250906112d35760405162461bcd60e51b81526004016109569190613c30565b506112e361025980546001019055565b60006112ef6102595490565b85519091501561131b57600081815261025f60209081526040909120865161131992880190613b0c565b505b60008181526102606020908152604080832080546001600160a01b0319166001600160a01b038b1617905561025d9091529020849061135a8282614ac9565b9050506113678782612b22565b7fbf83d3c95e3a6b6b6cac45594a672c1d703818ada1304cf6e235fdc0bd6e43718787878460405161139c9493929190614be7565b60405180910390a150505050505050565b606061025e600001805480602002602001604051908101604052809291908181526020016000905b8282101561160e578382906000526020600020906004020160405180608001604052908160008201805461140890614476565b80601f016020809104026020016040519081016040528092919081815260200182805461143490614476565b80156114815780601f1061145657610100808354040283529160200191611481565b820191906000526020600020905b81548152906001019060200180831161146457829003601f168201915b5050505050815260200160018201805480602002602001604051908101604052809291908181526020016000905b8282101561155b5783829060005260206000200180546114ce90614476565b80601f01602080910402602001604051908101604052809291908181526020018280546114fa90614476565b80156115475780601f1061151c57610100808354040283529160200191611547565b820191906000526020600020905b81548152906001019060200180831161152a57829003601f168201915b5050505050815260200190600101906114af565b5050505081526020016002820154815260200160038201805461157d90614476565b80601f01602080910402602001604051908101604052809291908181526020018280546115a990614476565b80156115f65780601f106115cb576101008083540402835291602001916115f6565b820191906000526020600020905b8154815290600101906020018083116115d957829003601f168201915b505050505081525050815260200190600101906113d5565b50505050905090565b61025a546001600160a01b031633148061163c575061025b546001600160a01b031633145b6040518060400160405280600381526020016231303160e81b815250906116765760405162461bcd60e51b81526004016109569190613c30565b508061025e6109f78282614cd6565b61169d60008051602061502f83398151915233611888565b61170f5760405162461bcd60e51b815260206004820152603e60248201527f4552433732315072657365744d696e7465725061757365724175746f49643a2060448201527f6d75737420686176652070617573657220726f6c6520746f20706175736500006064820152608401610956565b610d5a612b3c565b61025a546001600160a01b0316336001600160a01b03161461174b5760405162461bcd60e51b815260040161095690614dcd565b611756600033611888565b6117725760405162461bcd60e51b815260040161095690614dcd565b60408051808201909152600381526203130360ec1b60208201526001600160a01b0382166117b35760405162461bcd60e51b81526004016109569190613c30565b5061025a80546001600160a01b038381166001600160a01b03198316811790935516906117e290600090610b0f565b61025a546118089060008051602061504f833981519152906001600160a01b0316610b0f565b61025a5461182e9060008051602061502f833981519152906001600160a01b0316610b0f565b6118396000826124cf565b61185160008051602061504f833981519152826124cf565b610c4460008051602061502f833981519152826124cf565b60008281526097602052604081206118819083612b7a565b9392505050565b60009182526065602090815260408084206001600160a01b0393909316845291905290205460ff1690565b6060600061025d60008481526020019081526020016000206040518060400160405290816000820154815260200160018201805480602002602001604051908101604052809291908181526020016000905b82821015611a5457600084815260208082206040805160e08101825260078702909201805460ff9081168452600182015484860152600282015484840152600382015416606084015260048101805483518187028101870190945280845293959194608087019491929084015b82821015611a1e57838290600052602060002001805461199190614476565b80601f01602080910402602001604051908101604052809291908181526020018280546119bd90614476565b8015611a0a5780601f106119df57610100808354040283529160200191611a0a565b820191906000526020600020905b8154815290600101906020018083116119ed57829003601f168201915b505050505081526020019060010190611972565b50505090825250600582015460208083019190915260069092015460ff1615156040909101529082526001929092019101611905565b50505050815250509050600061025e600001805480602002602001604051908101604052809291908181526020016000905b82821015611cbf5783829060005260206000209060040201604051806080016040529081600082018054611ab990614476565b80601f0160208091040260200160405190810160405280929190818152602001828054611ae590614476565b8015611b325780601f10611b0757610100808354040283529160200191611b32565b820191906000526020600020905b815481529060010190602001808311611b1557829003601f168201915b5050505050815260200160018201805480602002602001604051908101604052809291908181526020016000905b82821015611c0c578382906000526020600020018054611b7f90614476565b80601f0160208091040260200160405190810160405280929190818152602001828054611bab90614476565b8015611bf85780601f10611bcd57610100808354040283529160200191611bf8565b820191906000526020600020905b815481529060010190602001808311611bdb57829003601f168201915b505050505081526020019060010190611b60565b50505050815260200160028201548152602001600382018054611c2e90614476565b80601f0160208091040260200160405190810160405280929190818152602001828054611c5a90614476565b8015611ca75780601f10611c7c57610100808354040283529160200191611ca7565b820191906000526020600020905b815481529060010190602001808311611c8a57829003601f168201915b50505050508152505081526020019060010190611a86565b505050509050816020015151815114611cd9579392505050565b60005b8260200151518160ff161015611ddc57600083602001518260ff1681518110611d0757611d0761456f565b602002602001015160a0015190506000838360ff1681518110611d2c57611d2c61456f565b602002602001015160200151511115611da257828260ff1681518110611d5457611d5461456f565b6020026020010151602001518181518110611d7157611d7161456f565b6020026020010151838360ff1681518110611d8e57611d8e61456f565b602002602001015160600181905250611dc9565b80838360ff1681518110611db857611db861456f565b602002602001015160400181815250505b5080611dd481614df9565b915050611cdc565b509392505050565b6060610262805461083790614476565b61025a546001600160a01b0316336001600160a01b031614611e285760405162461bcd60e51b815260040161095690614dcd565b611e33600033611888565b611e4f5760405162461bcd60e51b815260040161095690614dcd565b60408051808201909152600381526232303360e81b6020820152612710821115611e8c5760405162461bcd60e51b81526004016109569190613c30565b50604080516060810182526001600160a01b03938416815262ffffff92831660208083019182526001838501908152600097885261026390915292909520905181549551925194166001600160b81b031990951694909417600160a01b91909216021760ff60b81b1916600160b81b91151591909102179055565b610c44338383612b86565b600054610100900460ff1615808015611f325750600054600160ff909116105b80611f4c5750303b158015611f4c575060005460ff166001145b611f685760405162461bcd60e51b815260040161095690614585565b6000805460ff191660011790558015611f8b576000805461ff0019166101001790555b611f968484846129d4565b8015610cc0576000805461ff0019169055604051600181527f7f26b83ff96e1f2b6a682f133852f6798a09c465da95921460cefb38474024989060200160405180910390a150505050565b6001600160a01b0382166120075760405162461bcd60e51b815260040161095690614e19565b6001600160a01b03831661202d5760405162461bcd60e51b815260040161095690614e19565b61025c54156120685760405162461bcd60e51b815260206004820152600760248201526611561254d5115160ca1b6044820152606401610956565b845161207c90610261906020880190613b0c565b50835161209190610262906020870190613b0c565b5061025b80546001600160a01b0319166001600160a01b03841617905561025c8190556120bd83612c55565b610f1e836124fe565b6120d03383612666565b6120ec5760405162461bcd60e51b8152600401610956906144d8565b610cc084848484612d45565b600081815261025d6020908152604080832080546001909101805483518186028101860190945280845260609492939192839190879084015b8282101561228057600084815260208082206040805160e08101825260078702909201805460ff9081168452600182015484860152600282015484840152600382015416606084015260048101805483518187028101870190945280845293959194608087019491929084015b8282101561224a5783829060005260206000200180546121bd90614476565b80601f01602080910402602001604051908101604052809291908181526020018280546121e990614476565b80156122365780601f1061220b57610100808354040283529160200191612236565b820191906000526020600020905b81548152906001019060200180831161221957829003601f168201915b50505050508152602001906001019061219e565b50505090825250600582015460208083019190915260069092015460ff1615156040909101529082526001929092019101612131565b50505050905091509150915091565b600081815261025f60205260408120805460609291906122ae90614476565b80601f01602080910402602001604051908101604052809291908181526020018280546122da90614476565b80156123275780601f106122fc57610100808354040283529160200191612327565b820191906000526020600020905b81548152906001019060200180831161230a57829003601f168201915b505050505090506000815111156123d857600083815261025f60205260409020805461235290614476565b80601f016020809104026020016040519081016040528092919081815260200182805461237e90614476565b80156123cb5780601f106123a0576101008083540402835291602001916123cb565b820191906000526020600020905b8154815290600101906020018083116123ae57829003601f168201915b5050505050915050919050565b6123e06124f4565b6123e984612d78565b6040516020016123fa929190614e3a565b604051602081830303815290604052915050919050565b50919050565b600081815260976020526040812061082190612e75565b60408051808201909152600381526203130360ec1b60208201526001600160a01b03831661246f5760405162461bcd60e51b81526004016109569190613c30565b5061248860008051602061504f83398151915283612896565b60005b81518110156109f75760008282815181106124a8576124a861456f565b602002602001015190506124bc8482612e7f565b50806124c78161477d565b91505061248b565b6000828152606560205260409020600101546124ea8161288c565b6109f783836128b8565b6060610a14612f07565b612506612a18565b6001600160a01b03811661256b5760405162461bcd60e51b815260206004820152602660248201527f4f776e61626c653a206e6577206f776e657220697320746865207a65726f206160448201526564647265737360d01b6064820152608401610956565b61055781612a98565b60006001600160e01b0319821663780e9d6360e01b1480610821575061082182612f17565b600081815260cb60205260409020546001600160a01b03166105575760405162461bcd60e51b8152602060048201526018602482015277115490cdcc8c4e881a5b9d985b1a59081d1bdad95b88125160421b6044820152606401610956565b600081815260cd6020526040902080546001600160a01b0319166001600160a01b038416908117909155819061262d82610f25565b6001600160a01b03167f8c5be1e5ebec7d5bd14f71427d1e84f3dd0314c0f7b2291e5b200ac8c7c3b92560405160405180910390a45050565b60008061267283610f25565b9050806001600160a01b0316846001600160a01b031614806126b957506001600160a01b03808216600090815260ce602090815260408083209388168352929052205460ff165b806126dd5750836001600160a01b03166126d2846108ba565b6001600160a01b0316145b949350505050565b826001600160a01b03166126f882610f25565b6001600160a01b03161461275c5760405162461bcd60e51b815260206004820152602560248201527f4552433732313a207472616e736665722066726f6d20696e636f72726563742060448201526437bbb732b960d91b6064820152608401610956565b6001600160a01b0382166127be5760405162461bcd60e51b8152602060048201526024808201527f4552433732313a207472616e7366657220746f20746865207a65726f206164646044820152637265737360e01b6064820152608401610956565b6127c9838383612f57565b6127d46000826125f8565b6001600160a01b038316600090815260cc602052604081208054600192906127fd9084906144c1565b90915550506001600160a01b038216600090815260cc6020526040812080546001929061282b908490614e69565b9091555050600081815260cb602052604080822080546001600160a01b0319166001600160a01b0386811691821790925591518493918716917fddf252ad1be2c89b69c2b068fc378daa952ba7f163c4a11628f55a4df523b3ef91a4505050565b6105578133612f62565b6128a08282612fc6565b60008281526097602052604090206109f7908261304c565b6128c28282613061565b60008281526097602052604090206109f790826130c8565b6128e26130dd565b61015f805460ff191690557f5db9ee0a495bf2e6ff9c91a7834c1ba4fdd244a5e8aa4e537bd38aeae4b073aa335b6040516001600160a01b03909116815260200160405180910390a1565b600061293882610f25565b905061294681600084612f57565b6129516000836125f8565b6001600160a01b038116600090815260cc6020526040812080546001929061297a9084906144c1565b9091555050600082815260cb602052604080822080546001600160a01b0319169055518391906001600160a01b038416907fddf252ad1be2c89b69c2b068fc378daa952ba7f163c4a11628f55a4df523b3ef908390a45050565b600054610100900460ff166129fb5760405162461bcd60e51b815260040161095690614e81565b612a058383613127565b612a0d613175565b6109f78383836131a9565b33612a2c61025a546001600160a01b031690565b6001600160a01b03161480612a4c575061025b546001600160a01b031633145b610d5a5760405162461bcd60e51b815260206004820181905260248201527f4f776e61626c653a2063616c6c6572206973206e6f7420746865206f776e65726044820152606401610956565b61022780546001600160a01b038381166001600160a01b0319831681179093556040519116919082907f8be0079c531659141344cd1fd0a4f28419497f9722a3daafe3b4186f6b6457e090600090a35050565b6000612af783836144c1565b612b02906001614e69565b612b0c9085614ecc565b6126dd9084614e69565b60006118818284614ecc565b610c44828260405180602001604052806000815250613220565b612b44613253565b61015f805460ff191660011790557f62e78cea01bee320cd4e420270b5ea74000d11b0c9f74754ebdbfc544b05a2586129103390565b6000611881838361329a565b816001600160a01b0316836001600160a01b03161415612be85760405162461bcd60e51b815260206004820152601960248201527f4552433732313a20617070726f766520746f2063616c6c6572000000000000006044820152606401610956565b6001600160a01b03838116600081815260ce6020908152604080832094871680845294825291829020805460ff191686151590811790915591519182527f17307eab39ab6107e8899845ad3d59bd9653f200f220920489ca2b5937696c31910160405180910390a3505050565b61025b546001600160a01b03163314612ca85760405162461bcd60e51b815260206004820152601560248201527424a72b2fa9a2a72222a92fa4a724aa2fa0a226a4a760591b6044820152606401610956565b6001600160a01b038116612cce5760405162461bcd60e51b815260040161095690614e19565b61025a80546001600160a01b0319166001600160a01b038316908117909155612cf990600090612896565b61025a54612d1f9060008051602061504f833981519152906001600160a01b0316612896565b61025a546105579060008051602061502f833981519152906001600160a01b0316612896565b612d508484846126e5565b612d5c848484846132c4565b610cc05760405162461bcd60e51b815260040161095690614ee0565b606081612d9c5750506040805180820190915260018152600360fc1b602082015290565b8160005b8115612dc65780612db08161477d565b9150612dbf9050600a8361455b565b9150612da0565b6000816001600160401b03811115612de057612de0613d2c565b6040519080825280601f01601f191660200182016040528015612e0a576020820181803683370190505b5090505b84156126dd57612e1f6001836144c1565b9150612e2c600a86614ecc565b612e37906030614e69565b60f81b818381518110612e4c57612e4c61456f565b60200101906001600160f81b031916908160001a905350612e6e600a8661455b565b9450612e0e565b6000610821825490565b6000818152610260602052604090205481906001600160a01b03163314612ed75760405162461bcd60e51b815260206004820152600c60248201526b27a7262cafa1a922a0aa27a960a11b6044820152606401610956565b5060009081526102606020526040902080546001600160a01b0319166001600160a01b0392909216919091179055565b60606101c4805461083790614476565b60006001600160e01b031982166380ac58cd60e01b1480612f4857506001600160e01b03198216635b5e139f60e01b145b806108215750610821826133c2565b6109f78383836133e7565b612f6c8282611888565b610c4457612f84816001600160a01b0316601461345a565b612f8f83602061345a565b604051602001612fa0929190614f32565b60408051601f198184030181529082905262461bcd60e51b825261095691600401613c30565b612fd08282611888565b610c445760008281526065602090815260408083206001600160a01b03851684529091529020805460ff191660011790556130083390565b6001600160a01b0316816001600160a01b0316837f2f8788117e7eff1d82e926ec794901d17c78024a50270940304540a733656f0d60405160405180910390a45050565b6000611881836001600160a01b0384166135f5565b61306b8282611888565b15610c445760008281526065602090815260408083206001600160a01b0385168085529252808320805460ff1916905551339285917ff6391f5c32d9c69d2a47ea670b442974b53935d1edc7fd64eb21e047a839171b9190a45050565b6000611881836001600160a01b038416613644565b61015f5460ff16610d5a5760405162461bcd60e51b815260206004820152601460248201527314185d5cd8589b194e881b9bdd081c185d5cd95960621b6044820152606401610956565b600054610100900460ff1661314e5760405162461bcd60e51b815260040161095690614e81565b81516131619060c9906020850190613b0c565b5080516109f79060ca906020840190613b0c565b600054610100900460ff1661319c5760405162461bcd60e51b815260040161095690614e81565b61015f805460ff19169055565b600054610100900460ff166131d05760405162461bcd60e51b815260040161095690614e81565b80516131e4906101c4906020840190613b0c565b506131f0600033613737565b61320860008051602061504f83398151915233613737565b6109f760008051602061502f83398151915233613737565b61322a8383613741565b61323760008484846132c4565b6109f75760405162461bcd60e51b815260040161095690614ee0565b61015f5460ff1615610d5a5760405162461bcd60e51b815260206004820152601060248201526f14185d5cd8589b194e881c185d5cd95960821b6044820152606401610956565b60008260000182815481106132b1576132b161456f565b9060005260206000200154905092915050565b60006001600160a01b0384163b156133b757604051630a85bd0160e11b81526001600160a01b0385169063150b7a0290613308903390899088908890600401614fa7565b6020604051808303816000875af1925050508015613343575060408051601f3d908101601f1916820190925261334091810190614fe4565b60015b61339d573d808015613371576040519150601f19603f3d011682016040523d82523d6000602084013e613376565b606091505b5080516133955760405162461bcd60e51b815260040161095690614ee0565b805181602001fd5b6001600160e01b031916630a85bd0160e11b1490506126dd565b506001949350505050565b60006001600160e01b03198216635a05180f60e01b148061082157506108218261388f565b6133f28383836138c4565b61015f5460ff16156109f75760405162461bcd60e51b815260206004820152602b60248201527f4552433732315061757361626c653a20746f6b656e207472616e73666572207760448201526a1a1a5b19481c185d5cd95960aa1b6064820152608401610956565b60606000613469836002614526565b613474906002614e69565b6001600160401b0381111561348b5761348b613d2c565b6040519080825280601f01601f1916602001820160405280156134b5576020820181803683370190505b509050600360fc1b816000815181106134d0576134d061456f565b60200101906001600160f81b031916908160001a905350600f60fb1b816001815181106134ff576134ff61456f565b60200101906001600160f81b031916908160001a9053506000613523846002614526565b61352e906001614e69565b90505b60018111156135a6576f181899199a1a9b1b9c1cb0b131b232b360811b85600f16601081106135625761356261456f565b1a60f81b8282815181106135785761357861456f565b60200101906001600160f81b031916908160001a90535060049490941c9361359f81615001565b9050613531565b5083156118815760405162461bcd60e51b815260206004820181905260248201527f537472696e67733a20686578206c656e67746820696e73756666696369656e746044820152606401610956565b600081815260018301602052604081205461363c57508154600181810184556000848152602080822090930184905584548482528286019093526040902091909155610821565b506000610821565b6000818152600183016020526040812054801561372d5760006136686001836144c1565b855490915060009061367c906001906144c1565b90508181146136e157600086600001828154811061369c5761369c61456f565b90600052602060002001549050808760000184815481106136bf576136bf61456f565b6000918252602080832090910192909255918252600188019052604090208390555b85548690806136f2576136f2615018565b600190038181906000526020600020016000905590558560010160008681526020019081526020016000206000905560019350505050610821565b6000915050610821565b610c448282612896565b6001600160a01b0382166137975760405162461bcd60e51b815260206004820181905260248201527f4552433732313a206d696e7420746f20746865207a65726f20616464726573736044820152606401610956565b600081815260cb60205260409020546001600160a01b0316156137fc5760405162461bcd60e51b815260206004820152601c60248201527f4552433732313a20746f6b656e20616c7265616479206d696e746564000000006044820152606401610956565b61380860008383612f57565b6001600160a01b038216600090815260cc60205260408120805460019290613831908490614e69565b9091555050600081815260cb602052604080822080546001600160a01b0319166001600160a01b03861690811790915590518392907fddf252ad1be2c89b69c2b068fc378daa952ba7f163c4a11628f55a4df523b3ef908290a45050565b60006001600160e01b03198216637965db0b60e01b148061082157506301ffc9a760e01b6001600160e01b0319831614610821565b6001600160a01b03831661391f5761391a8160fd8054600083815260fe60205260408120829055600182018355919091527f9346ac6dd7de6b96975fec380d4d994c4c12e6a8897544f22915316cc6cca2800155565b613942565b816001600160a01b0316836001600160a01b03161461394257613942838261397c565b6001600160a01b038216613959576109f781613a19565b826001600160a01b0316826001600160a01b0316146109f7576109f78282613ac8565b6000600161398984610f85565b61399391906144c1565b600083815260fc60205260409020549091508082146139e6576001600160a01b038416600090815260fb60209081526040808320858452825280832054848452818420819055835260fc90915290208190555b50600091825260fc602090815260408084208490556001600160a01b03909416835260fb81528383209183525290812055565b60fd54600090613a2b906001906144c1565b600083815260fe602052604081205460fd8054939450909284908110613a5357613a5361456f565b906000526020600020015490508060fd8381548110613a7457613a7461456f565b600091825260208083209091019290925582815260fe909152604080822084905585825281205560fd805480613aac57613aac615018565b6001900381819060005260206000200160009055905550505050565b6000613ad383610f85565b6001600160a01b03909316600090815260fb60209081526040808320868452825280832085905593825260fc9052919091209190915550565b828054613b1890614476565b90600052602060002090601f016020900481019282613b3a5760008555613b80565b82601f10613b5357805160ff1916838001178555613b80565b82800160010185558215613b80579182015b82811115613b80578251825591602001919060010190613b65565b50613b8c929150613b90565b5090565b5b80821115613b8c5760008155600101613b91565b6001600160e01b03198116811461055757600080fd5b600060208284031215613bcd57600080fd5b813561188181613ba5565b60005b83811015613bf3578181015183820152602001613bdb565b83811115610cc05750506000910152565b60008151808452613c1c816020860160208601613bd8565b601f01601f19169290920160200192915050565b6020815260006118816020830184613c04565b600060208284031215613c5557600080fd5b5035919050565b80356001600160a01b0381168114613c7357600080fd5b919050565b60008060408385031215613c8b57600080fd5b613c9483613c5c565b946020939093013593505050565b600080600060608486031215613cb757600080fd5b613cc084613c5c565b9250613cce60208501613c5c565b9150604084013590509250925092565b60008060408385031215613cf157600080fd5b50508035926020909101359150565b60008060408385031215613d1357600080fd5b82359150613d2360208401613c5c565b90509250929050565b634e487b7160e01b600052604160045260246000fd5b60405160e081016001600160401b0381118282101715613d6457613d64613d2c565b60405290565b604051601f8201601f191681016001600160401b0381118282101715613d9257613d92613d2c565b604052919050565b60006001600160401b03831115613db357613db3613d2c565b613dc6601f8401601f1916602001613d6a565b9050828152838383011115613dda57600080fd5b828260208301376000602084830101529392505050565b600082601f830112613e0257600080fd5b61188183833560208501613d9a565b60008060408385031215613e2457600080fd5b8235915060208301356001600160401b03811115613e4157600080fd5b610b0485828601613df1565b60008060008060808587031215613e6357600080fd5b84356001600160401b0380821115613e7a57600080fd5b613e8688838901613df1565b95506020870135915080821115613e9c57600080fd5b613ea888838901613df1565b94506040870135915080821115613ebe57600080fd5b50613ecb87828801613df1565b925050613eda60608601613c5c565b905092959194509250565b600060208284031215613ef757600080fd5b61188182613c5c565b60008060008060808587031215613f1657600080fd5b613f1f85613c5c565b9350613f2d60208601613c5c565b925060408501356001600160401b0380821115613f4957600080fd5b613f5588838901613df1565b93506060870135915080821115613f6b57600080fd5b50850160408188031215613f7e57600080fd5b939692955090935050565b600081518084526020808501808196508360051b8101915082860160005b85811015613fd1578284038952613fbf848351613c04565b98850198935090840190600101613fa7565b5091979650505050505050565b60006020808301818452808551808352604092508286019150828160051b87010184880160005b8381101561407c57603f1989840301855281516080815181865261402b82870182613c04565b915050888201518582038a8701526140438282613f89565b9150508782015188860152606080830151925085820381870152506140688183613c04565b968901969450505090860190600101614005565b509098975050505050505050565b60006020828403121561409c57600080fd5b81356001600160401b038111156140b257600080fd5b82016020818503121561188157600080fd5b6000806000606084860312156140d957600080fd5b83359250613cce60208501613c5c565b801515811461055757600080fd5b8035613c73816140e9565b6000806040838503121561411557600080fd5b61411e83613c5c565b9150602083013561412e816140e9565b809150509250929050565b60008060006060848603121561414e57600080fd5b83356001600160401b038082111561416557600080fd5b61417187838801613df1565b9450602086013591508082111561418757600080fd5b61419387838801613df1565b935060408601359150808211156141a957600080fd5b506141b686828701613df1565b9150509250925092565b600080600080600060a086880312156141d857600080fd5b85356001600160401b03808211156141ef57600080fd5b6141fb89838a01613df1565b9650602088013591508082111561421157600080fd5b5061421e88828901613df1565b94505061422d60408701613c5c565b925061423b60608701613c5c565b949793965091946080013592915050565b6000806000806080858703121561426257600080fd5b61426b85613c5c565b935061427960208601613c5c565b92506040850135915060608501356001600160401b0381111561429b57600080fd5b8501601f810187136142ac57600080fd5b6142bb87823560208401613d9a565b91505092959194509250565b6000604080830185845260208281860152818651808452606093508387019150838160051b88010183890160005b8381101561437157605f198a8403018552815160e060ff80835116865288830151898701528a8301518b870152808a840151168a87015250608080830151828288015261434483880182613f89565b60a0858101519089015260c0948501511515949097019390935250505093850193908501906001016142f5565b50909a9950505050505050505050565b60006001600160401b0382111561439a5761439a613d2c565b5060051b60200190565b600080604083850312156143b757600080fd5b6143c083613c5c565b91506020808401356001600160401b038111156143dc57600080fd5b8401601f810186136143ed57600080fd5b80356144006143fb82614381565b613d6a565b81815260059190911b8201830190838101908883111561441f57600080fd5b928401925b8284101561443d57833582529284019290840190614424565b80955050505050509250929050565b6000806040838503121561445f57600080fd5b61446883613c5c565b9150613d2360208401613c5c565b600181811c9082168061448a57607f821691505b6020821081141561241157634e487b7160e01b600052602260045260246000fd5b634e487b7160e01b600052601160045260246000fd5b6000828210156144d3576144d36144ab565b500390565b6020808252602e908201527f4552433732313a2063616c6c6572206973206e6f7420746f6b656e206f776e6560408201526d1c881b9bdc88185c1c1c9bdd995960921b606082015260800190565b6000816000190483118215151615614540576145406144ab565b500290565b634e487b7160e01b600052601260045260246000fd5b60008261456a5761456a614545565b500490565b634e487b7160e01b600052603260045260246000fd5b6020808252602e908201527f496e697469616c697a61626c653a20636f6e747261637420697320616c72656160408201526d191e481a5b9a5d1a585b1a5e995960921b606082015260800190565b6000808335601e198436030181126145ea57600080fd5b8301803591506001600160401b0382111561460457600080fd5b6020019150600581901b360382131561461c57600080fd5b9250929050565b6000823560de1983360301811261463957600080fd5b9190910192915050565b60ff8116811461055757600080fd5b8035613c7381614643565b600082601f83011261466e57600080fd5b8135602061467e6143fb83614381565b82815260059290921b8401810191818101908684111561469d57600080fd5b8286015b848110156146dc5780356001600160401b038111156146c05760008081fd5b6146ce8986838b0101613df1565b8452509183019183016146a1565b509695505050505050565b600060e082360312156146f957600080fd5b614701613d42565b61470a83614652565b8152602083013560208201526040830135604082015261472c60608401614652565b606082015260808301356001600160401b0381111561474a57600080fd5b6147563682860161465d565b60808301525060a083013560a082015261477260c084016140f7565b60c082015292915050565b6000600019821415614791576147916144ab565b5060010190565b6000602082840312156147aa57600080fd5b8151611881816140e9565b5b81811015610c4457600081556001016147b6565b6147d48154614476565b8015610c4457601f8111600181146147ee57505060009055565b82600052602060002061480c601f840160051c8201600183016147b5565b506020600090812081855555505050565b8054600082558015610c44578160005260206000208181015b80821015610cc057614847826147ca565b600182019150614836565b600160401b82111561486657614866613d2c565b8054828255808310156109f7576000828152602090208381019082015b80821015610f1e57614894826147ca565b600182019150614883565b6000808335601e198436030181126148b657600080fd5b8301803591506001600160401b038211156148d057600080fd5b60200191503681900382131561461c57600080fd5b601f8211156109f757806000526020600020601f840160051c8101602085101561490c5750805b610f1e601f850160051c8301826147b5565b6001600160401b0383111561493557614935613d2c565b614949836149438354614476565b836148e5565b6000601f84116001811461497d57600085156149655750838201355b600019600387901b1c1916600186901b178355610f1e565b600083815260209020601f19861690835b828110156149ae578685013582556020948501946001909201910161498e565b50868210156149cb5760001960f88860031b161c19848701351681555b505060018560011b0183555050505050565b60008135610821816140e9565b81356149f581614643565b815460ff191660ff821617825550600160208084013582840155604084013560028401556060840135614a2781614643565b60038401805460ff191660ff83161790555060048301614a4a60808601866145d3565b614a548184614852565b818360005284600020935060005b82811015614a9057614a74828561489f565b614a7f81838961491e565b505093860193908501908601614a62565b5050505050505060a08201356005820155610c44614ab060c084016149dd565b6006830160ff1981541660ff8315151681178255505050565b8135815560018082016020614ae0818601866145d3565b600160401b811115614af457614af4613d2c565b835481855580821015614ba1577f2492492492492492492492492492492492492492492492492492492492492492808211871615614b3457614b346144ab565b6007818411881615614b4857614b486144ab565b6000878152868120909250848202810190828502015b80821015614b9c57838255838a830155836002830155836003830155614b866004830161481d565b8360058301558360068301558282019150614b5e565b505050505b506000938452602084209382905b82811015614bdc57614bca614bc48386614623565b876149ea565b60079590950194908401908601614baf565b505050505050505050565b6001600160a01b03858116825284166020820152608060408201819052600090614c1390830185613c04565b905082606083015295945050505050565b60008235607e1983360301811261463957600080fd5b614c44828361489f565b614c4f81838561491e565b505060018082016020614c64818601866145d3565b614c6e8185614852565b818460005283600020945060005b82811015614caa57614c8e828561489f565b614c9981838a61491e565b505094860194908401908601614c7c565b5050505050505060408201356002820155614cc8606083018361489f565b610cc081836003860161491e565b614ce082836145d3565b600160401b811115614cf457614cf4613d2c565b825481845580821015614d86576001600160fe1b036001818311811615614d1d57614d1d6144ab565b6002828511821615614d3157614d316144ab565b60008781526020812090935085821b81019085831b015b80821015614d8057614d59826147ca565b614d6484830161481d565b8483830155614d75600383016147ca565b600482019150614d48565b50505050505b5060008381526020812083915b83811015614dc457614dae614da88487614c24565b83614c3a565b6020929092019160049190910190600101614d93565b50505050505050565b60208082526012908201527113d3931657d05113525397d0531313d5d15160721b604082015260600190565b600060ff821660ff811415614e1057614e106144ab565b60010192915050565b60208082526007908201526612539597d0511160ca1b604082015260600190565b60008351614e4c818460208801613bd8565b835190830190614e60818360208801613bd8565b01949350505050565b60008219821115614e7c57614e7c6144ab565b500190565b6020808252602b908201527f496e697469616c697a61626c653a20636f6e7472616374206973206e6f74206960408201526a6e697469616c697a696e6760a81b606082015260800190565b600082614edb57614edb614545565b500690565b60208082526032908201527f4552433732313a207472616e7366657220746f206e6f6e20455243373231526560408201527131b2b4bb32b91034b6b83632b6b2b73a32b960711b606082015260800190565b7f416363657373436f6e74726f6c3a206163636f756e7420000000000000000000815260008351614f6a816017850160208801613bd8565b7001034b99036b4b9b9b4b733903937b6329607d1b6017918401918201528351614f9b816028840160208801613bd8565b01602801949350505050565b6001600160a01b0385811682528416602082015260408101839052608060608201819052600090614fda90830184613c04565b9695505050505050565b600060208284031215614ff657600080fd5b815161188181613ba5565b600081615010576150106144ab565b506000190190565b634e487b7160e01b600052603160045260246000fdfe65d7a28e3265b37a6474929f336521b332c1681b933f6cb9f3376673440d862a9f2df0fed2c77648de5860a4cc508cd0818c85b8b8a1ab4ceeef8d981c8956a6a2646970667358221220c6c74c83adc755f13c3d8204687073202e634eb5cb711faf8fdf7c7f70fd047a64736f6c634300080c0033","opcodes":"PUSH1 0x80 PUSH1 0x40 MSTORE CALLVALUE DUP1 ISZERO PUSH2 0x10 JUMPI PUSH1 0x0 DUP1 REVERT JUMPDEST POP PUSH2 0x50A4 DUP1 PUSH2 0x20 PUSH1 0x0 CODECOPY PUSH1 0x0 RETURN INVALID PUSH1 0x80 PUSH1 0x40 MSTORE CALLVALUE DUP1 ISZERO PUSH2 0x10 JUMPI PUSH1 0x0 DUP1 REVERT JUMPDEST POP PUSH1 0x4 CALLDATASIZE LT PUSH2 0x342 JUMPI PUSH1 0x0 CALLDATALOAD PUSH1 0xE0 SHR DUP1 PUSH4 0x7F77F574 GT PUSH2 0x1B8 JUMPI DUP1 PUSH4 0xA6487C53 GT PUSH2 0x104 JUMPI DUP1 PUSH4 0xD5391393 GT PUSH2 0xA2 JUMPI DUP1 PUSH4 0xE63AB1E9 GT PUSH2 0x7C JUMPI DUP1 PUSH4 0xE63AB1E9 EQ PUSH2 0x79E JUMPI DUP1 PUSH4 0xE985E9C5 EQ PUSH2 0x7B3 JUMPI DUP1 PUSH4 0xF2FDE38B EQ PUSH2 0x7EF JUMPI DUP1 PUSH4 0xF9ECC22C EQ PUSH2 0x802 JUMPI PUSH1 0x0 DUP1 REVERT JUMPDEST DUP1 PUSH4 0xD5391393 EQ PUSH2 0x76E JUMPI DUP1 PUSH4 0xD547741F EQ PUSH2 0x783 JUMPI DUP1 PUSH4 0xD547CFB7 EQ PUSH2 0x796 JUMPI PUSH1 0x0 DUP1 REVERT JUMPDEST DUP1 PUSH4 0xC0DCA239 GT PUSH2 0xDE JUMPI DUP1 PUSH4 0xC0DCA239 EQ PUSH2 0x714 JUMPI DUP1 PUSH4 0xC87B56DD EQ PUSH2 0x735 JUMPI DUP1 PUSH4 0xCA15C873 EQ PUSH2 0x748 JUMPI DUP1 PUSH4 0xD2A6B51A EQ PUSH2 0x75B JUMPI PUSH1 0x0 DUP1 REVERT JUMPDEST DUP1 PUSH4 0xA6487C53 EQ PUSH2 0x6DB JUMPI DUP1 PUSH4 0xAE3DD095 EQ PUSH2 0x6EE JUMPI DUP1 PUSH4 0xB88D4FDE EQ PUSH2 0x701 JUMPI PUSH1 0x0 DUP1 REVERT JUMPDEST DUP1 PUSH4 0x91D14854 GT PUSH2 0x171 JUMPI DUP1 PUSH4 0x95D89B41 GT PUSH2 0x14B JUMPI DUP1 PUSH4 0x95D89B41 EQ PUSH2 0x6A5 JUMPI DUP1 PUSH4 0x9713C807 EQ PUSH2 0x6AD JUMPI DUP1 PUSH4 0xA217FDDF EQ PUSH2 0x6C0 JUMPI DUP1 PUSH4 0xA22CB465 EQ PUSH2 0x6C8 JUMPI PUSH1 0x0 DUP1 REVERT JUMPDEST DUP1 PUSH4 0x91D14854 EQ PUSH2 0x65E JUMPI DUP1 PUSH4 0x94E56847 EQ PUSH2 0x671 JUMPI DUP1 PUSH4 0x953CD246 EQ PUSH2 0x684 JUMPI PUSH1 0x0 DUP1 REVERT JUMPDEST DUP1 PUSH4 0x7F77F574 EQ PUSH2 0x59D JUMPI DUP1 PUSH4 0x81D22564 EQ PUSH2 0x60B JUMPI DUP1 PUSH4 0x8456CB59 EQ PUSH2 0x61E JUMPI DUP1 PUSH4 0x8DA5CB5B EQ PUSH2 0x626 JUMPI DUP1 PUSH4 0x8F283970 EQ PUSH2 0x638 JUMPI DUP1 PUSH4 0x9010D07C EQ PUSH2 0x64B JUMPI PUSH1 0x0 DUP1 REVERT JUMPDEST DUP1 PUSH4 0x3F4BA83A GT PUSH2 0x292 JUMPI DUP1 PUSH4 0x5C975ABB GT PUSH2 0x230 JUMPI DUP1 PUSH4 0x70A08231 GT PUSH2 0x20A JUMPI DUP1 PUSH4 0x70A08231 EQ PUSH2 0x55A JUMPI DUP1 PUSH4 0x715018A6 EQ PUSH2 0x56D JUMPI DUP1 PUSH4 0x7D763613 EQ PUSH2 0x575 JUMPI DUP1 PUSH4 0x7F0429EF EQ PUSH2 0x588 JUMPI PUSH1 0x0 DUP1 REVERT JUMPDEST DUP1 PUSH4 0x5C975ABB EQ PUSH2 0x52A JUMPI DUP1 PUSH4 0x6352211E EQ PUSH2 0x536 JUMPI DUP1 PUSH4 0x6A627842 EQ PUSH2 0x549 JUMPI PUSH1 0x0 DUP1 REVERT JUMPDEST DUP1 PUSH4 0x4816EDF4 GT PUSH2 0x26C JUMPI DUP1 PUSH4 0x4816EDF4 EQ PUSH2 0x4D0 JUMPI DUP1 PUSH4 0x4F6CCCE7 EQ PUSH2 0x4FA JUMPI DUP1 PUSH4 0x531F7B53 EQ PUSH2 0x50D JUMPI DUP1 PUSH4 0x5C6D8DA1 EQ PUSH2 0x517 JUMPI PUSH1 0x0 DUP1 REVERT JUMPDEST DUP1 PUSH4 0x3F4BA83A EQ PUSH2 0x4A2 JUMPI DUP1 PUSH4 0x42842E0E EQ PUSH2 0x4AA JUMPI DUP1 PUSH4 0x42966C68 EQ PUSH2 0x4BD JUMPI PUSH1 0x0 DUP1 REVERT JUMPDEST DUP1 PUSH4 0x23B872DD GT PUSH2 0x2FF JUMPI DUP1 PUSH4 0x2F2FF15D GT PUSH2 0x2D9 JUMPI DUP1 PUSH4 0x2F2FF15D EQ PUSH2 0x456 JUMPI DUP1 PUSH4 0x2F745C59 EQ PUSH2 0x469 JUMPI DUP1 PUSH4 0x36568ABE EQ PUSH2 0x47C JUMPI DUP1 PUSH4 0x3ADF80B4 EQ PUSH2 0x48F JUMPI PUSH1 0x0 DUP1 REVERT JUMPDEST DUP1 PUSH4 0x23B872DD EQ PUSH2 0x3EE JUMPI DUP1 PUSH4 0x248A9CA3 EQ PUSH2 0x401 JUMPI DUP1 PUSH4 0x2A55205A EQ PUSH2 0x424 JUMPI PUSH1 0x0 DUP1 REVERT JUMPDEST DUP1 PUSH4 0x1BC45C9 EQ PUSH2 0x347 JUMPI DUP1 PUSH4 0x1FFC9A7 EQ PUSH2 0x378 JUMPI DUP1 PUSH4 0x6FDDE03 EQ PUSH2 0x39B JUMPI DUP1 PUSH4 0x81812FC EQ PUSH2 0x3B0 JUMPI DUP1 PUSH4 0x95EA7B3 EQ PUSH2 0x3C3 JUMPI DUP1 PUSH4 0x18160DDD EQ PUSH2 0x3D8 JUMPI JUMPDEST PUSH1 0x0 DUP1 REVERT JUMPDEST PUSH2 0x25A SLOAD PUSH2 0x35B SWAP1 PUSH1 0x1 PUSH1 0x1 PUSH1 0xA0 SHL SUB AND DUP2 JUMP JUMPDEST PUSH1 0x40 MLOAD PUSH1 0x1 PUSH1 0x1 PUSH1 0xA0 SHL SUB SWAP1 SWAP2 AND DUP2 MSTORE PUSH1 0x20 ADD JUMPDEST PUSH1 0x40 MLOAD DUP1 SWAP2 SUB SWAP1 RETURN JUMPDEST PUSH2 0x38B PUSH2 0x386 CALLDATASIZE PUSH1 0x4 PUSH2 0x3BBB JUMP JUMPDEST PUSH2 0x816 JUMP JUMPDEST PUSH1 0x40 MLOAD SWAP1 ISZERO ISZERO DUP2 MSTORE PUSH1 0x20 ADD PUSH2 0x36F JUMP JUMPDEST PUSH2 0x3A3 PUSH2 0x827 JUMP JUMPDEST PUSH1 0x40 MLOAD PUSH2 0x36F SWAP2 SWAP1 PUSH2 0x3C30 JUMP JUMPDEST PUSH2 0x35B PUSH2 0x3BE CALLDATASIZE PUSH1 0x4 PUSH2 0x3C43 JUMP JUMPDEST PUSH2 0x8BA JUMP JUMPDEST PUSH2 0x3D6 PUSH2 0x3D1 CALLDATASIZE PUSH1 0x4 PUSH2 0x3C78 JUMP JUMPDEST PUSH2 0x8E1 JUMP JUMPDEST STOP JUMPDEST PUSH2 0x3E0 PUSH2 0x9FC JUMP JUMPDEST PUSH1 0x40 MLOAD SWAP1 DUP2 MSTORE PUSH1 0x20 ADD PUSH2 0x36F JUMP JUMPDEST PUSH2 0x3D6 PUSH2 0x3FC CALLDATASIZE PUSH1 0x4 PUSH2 0x3CA2 JUMP JUMPDEST PUSH2 0xA19 JUMP JUMPDEST PUSH2 0x3E0 PUSH2 0x40F CALLDATASIZE PUSH1 0x4 PUSH2 0x3C43 JUMP JUMPDEST PUSH1 0x0 SWAP1 DUP2 MSTORE PUSH1 0x65 PUSH1 0x20 MSTORE PUSH1 0x40 SWAP1 KECCAK256 PUSH1 0x1 ADD SLOAD SWAP1 JUMP JUMPDEST PUSH2 0x437 PUSH2 0x432 CALLDATASIZE PUSH1 0x4 PUSH2 0x3CDE JUMP JUMPDEST PUSH2 0xA4B JUMP JUMPDEST PUSH1 0x40 DUP1 MLOAD PUSH1 0x1 PUSH1 0x1 PUSH1 0xA0 SHL SUB SWAP1 SWAP4 AND DUP4 MSTORE PUSH1 0x20 DUP4 ADD SWAP2 SWAP1 SWAP2 MSTORE ADD PUSH2 0x36F JUMP JUMPDEST PUSH2 0x3D6 PUSH2 0x464 CALLDATASIZE PUSH1 0x4 PUSH2 0x3D00 JUMP JUMPDEST PUSH2 0xB0F JUMP JUMPDEST PUSH2 0x3E0 PUSH2 0x477 CALLDATASIZE PUSH1 0x4 PUSH2 0x3C78 JUMP JUMPDEST PUSH2 0xB34 JUMP JUMPDEST PUSH2 0x3D6 PUSH2 0x48A CALLDATASIZE PUSH1 0x4 PUSH2 0x3D00 JUMP JUMPDEST PUSH2 0xBCA JUMP JUMPDEST PUSH2 0x3D6 PUSH2 0x49D CALLDATASIZE PUSH1 0x4 PUSH2 0x3E11 JUMP JUMPDEST PUSH2 0xC48 JUMP JUMPDEST PUSH2 0x3D6 PUSH2 0xCC6 JUMP JUMPDEST PUSH2 0x3D6 PUSH2 0x4B8 CALLDATASIZE PUSH1 0x4 PUSH2 0x3CA2 JUMP JUMPDEST PUSH2 0xD5C JUMP JUMPDEST PUSH2 0x3D6 PUSH2 0x4CB CALLDATASIZE PUSH1 0x4 PUSH2 0x3C43 JUMP JUMPDEST PUSH2 0xD77 JUMP JUMPDEST PUSH2 0x35B PUSH2 0x4DE CALLDATASIZE PUSH1 0x4 PUSH2 0x3C43 JUMP JUMPDEST PUSH2 0x260 PUSH1 0x20 MSTORE PUSH1 0x0 SWAP1 DUP2 MSTORE PUSH1 0x40 SWAP1 KECCAK256 SLOAD PUSH1 0x1 PUSH1 0x1 PUSH1 0xA0 SHL SUB AND DUP2 JUMP JUMPDEST PUSH2 0x3E0 PUSH2 0x508 CALLDATASIZE PUSH1 0x4 PUSH2 0x3C43 JUMP JUMPDEST PUSH2 0xDA5 JUMP JUMPDEST PUSH2 0x3E0 PUSH2 0x25C SLOAD DUP2 JUMP JUMPDEST PUSH2 0x3D6 PUSH2 0x525 CALLDATASIZE PUSH1 0x4 PUSH2 0x3E4D JUMP JUMPDEST PUSH2 0xE38 JUMP JUMPDEST PUSH2 0x15F SLOAD PUSH1 0xFF AND PUSH2 0x38B JUMP JUMPDEST PUSH2 0x35B PUSH2 0x544 CALLDATASIZE PUSH1 0x4 PUSH2 0x3C43 JUMP JUMPDEST PUSH2 0xF25 JUMP JUMPDEST PUSH2 0x3D6 PUSH2 0x557 CALLDATASIZE PUSH1 0x4 PUSH2 0x3EE5 JUMP JUMPDEST POP JUMP JUMPDEST PUSH2 0x3E0 PUSH2 0x568 CALLDATASIZE PUSH1 0x4 PUSH2 0x3EE5 JUMP JUMPDEST PUSH2 0xF85 JUMP JUMPDEST PUSH2 0x3D6 PUSH2 0x100B JUMP JUMPDEST PUSH2 0x3D6 PUSH2 0x583 CALLDATASIZE PUSH1 0x4 PUSH2 0x3F00 JUMP JUMPDEST PUSH2 0x101D JUMP JUMPDEST PUSH2 0x590 PUSH2 0x13AD JUMP JUMPDEST PUSH1 0x40 MLOAD PUSH2 0x36F SWAP2 SWAP1 PUSH2 0x3FDE JUMP JUMPDEST PUSH2 0x5E0 PUSH2 0x5AB CALLDATASIZE PUSH1 0x4 PUSH2 0x3C43 JUMP JUMPDEST PUSH2 0x263 PUSH1 0x20 MSTORE PUSH1 0x0 SWAP1 DUP2 MSTORE PUSH1 0x40 SWAP1 KECCAK256 SLOAD PUSH1 0x1 PUSH1 0x1 PUSH1 0xA0 SHL SUB DUP2 AND SWAP1 PUSH1 0x1 PUSH1 0xA0 SHL DUP2 DIV PUSH3 0xFFFFFF AND SWAP1 PUSH1 0x1 PUSH1 0xB8 SHL SWAP1 DIV PUSH1 0xFF AND DUP4 JUMP JUMPDEST PUSH1 0x40 DUP1 MLOAD PUSH1 0x1 PUSH1 0x1 PUSH1 0xA0 SHL SUB SWAP1 SWAP5 AND DUP5 MSTORE PUSH3 0xFFFFFF SWAP1 SWAP3 AND PUSH1 0x20 DUP5 ADD MSTORE ISZERO ISZERO SWAP1 DUP3 ADD MSTORE PUSH1 0x60 ADD PUSH2 0x36F JUMP JUMPDEST PUSH2 0x3D6 PUSH2 0x619 CALLDATASIZE PUSH1 0x4 PUSH2 0x408A JUMP JUMPDEST PUSH2 0x1617 JUMP JUMPDEST PUSH2 0x3D6 PUSH2 0x1685 JUMP JUMPDEST PUSH2 0x25A SLOAD PUSH1 0x1 PUSH1 0x1 PUSH1 0xA0 SHL SUB AND PUSH2 0x35B JUMP JUMPDEST PUSH2 0x3D6 PUSH2 0x646 CALLDATASIZE PUSH1 0x4 PUSH2 0x3EE5 JUMP JUMPDEST PUSH2 0x1717 JUMP JUMPDEST PUSH2 0x35B PUSH2 0x659 CALLDATASIZE PUSH1 0x4 PUSH2 0x3CDE JUMP JUMPDEST PUSH2 0x1869 JUMP JUMPDEST PUSH2 0x38B PUSH2 0x66C CALLDATASIZE PUSH1 0x4 PUSH2 0x3D00 JUMP JUMPDEST PUSH2 0x1888 JUMP JUMPDEST PUSH2 0x590 PUSH2 0x67F CALLDATASIZE PUSH1 0x4 PUSH2 0x3C43 JUMP JUMPDEST PUSH2 0x18B3 JUMP JUMPDEST PUSH2 0x3E0 PUSH2 0x692 CALLDATASIZE PUSH1 0x4 PUSH2 0x3C43 JUMP JUMPDEST PUSH2 0x25D PUSH1 0x20 MSTORE PUSH1 0x0 SWAP1 DUP2 MSTORE PUSH1 0x40 SWAP1 KECCAK256 SLOAD DUP2 JUMP JUMPDEST PUSH2 0x3A3 PUSH2 0x1DE4 JUMP JUMPDEST PUSH2 0x3D6 PUSH2 0x6BB CALLDATASIZE PUSH1 0x4 PUSH2 0x40C4 JUMP JUMPDEST PUSH2 0x1DF4 JUMP JUMPDEST PUSH2 0x3E0 PUSH1 0x0 DUP2 JUMP JUMPDEST PUSH2 0x3D6 PUSH2 0x6D6 CALLDATASIZE PUSH1 0x4 PUSH2 0x4102 JUMP JUMPDEST PUSH2 0x1F07 JUMP JUMPDEST PUSH2 0x3D6 PUSH2 0x6E9 CALLDATASIZE PUSH1 0x4 PUSH2 0x4139 JUMP JUMPDEST PUSH2 0x1F12 JUMP JUMPDEST PUSH2 0x3D6 PUSH2 0x6FC CALLDATASIZE PUSH1 0x4 PUSH2 0x41C0 JUMP JUMPDEST PUSH2 0x1FE1 JUMP JUMPDEST PUSH2 0x3D6 PUSH2 0x70F CALLDATASIZE PUSH1 0x4 PUSH2 0x424C JUMP JUMPDEST PUSH2 0x20C6 JUMP JUMPDEST PUSH2 0x727 PUSH2 0x722 CALLDATASIZE PUSH1 0x4 PUSH2 0x3C43 JUMP JUMPDEST PUSH2 0x20F8 JUMP JUMPDEST PUSH1 0x40 MLOAD PUSH2 0x36F SWAP3 SWAP2 SWAP1 PUSH2 0x42C7 JUMP JUMPDEST PUSH2 0x3A3 PUSH2 0x743 CALLDATASIZE PUSH1 0x4 PUSH2 0x3C43 JUMP JUMPDEST PUSH2 0x228F JUMP JUMPDEST PUSH2 0x3E0 PUSH2 0x756 CALLDATASIZE PUSH1 0x4 PUSH2 0x3C43 JUMP JUMPDEST PUSH2 0x2417 JUMP JUMPDEST PUSH2 0x3D6 PUSH2 0x769 CALLDATASIZE PUSH1 0x4 PUSH2 0x43A4 JUMP JUMPDEST PUSH2 0x242E JUMP JUMPDEST PUSH2 0x3E0 PUSH1 0x0 DUP1 MLOAD PUSH1 0x20 PUSH2 0x504F DUP4 CODECOPY DUP2 MLOAD SWAP2 MSTORE DUP2 JUMP JUMPDEST PUSH2 0x3D6 PUSH2 0x791 CALLDATASIZE PUSH1 0x4 PUSH2 0x3D00 JUMP JUMPDEST PUSH2 0x24CF JUMP JUMPDEST PUSH2 0x3A3 PUSH2 0x24F4 JUMP JUMPDEST PUSH2 0x3E0 PUSH1 0x0 DUP1 MLOAD PUSH1 0x20 PUSH2 0x502F DUP4 CODECOPY DUP2 MLOAD SWAP2 MSTORE DUP2 JUMP JUMPDEST PUSH2 0x38B PUSH2 0x7C1 CALLDATASIZE PUSH1 0x4 PUSH2 0x444C JUMP JUMPDEST PUSH1 0x1 PUSH1 0x1 PUSH1 0xA0 SHL SUB SWAP2 DUP3 AND PUSH1 0x0 SWAP1 DUP2 MSTORE PUSH1 0xCE PUSH1 0x20 SWAP1 DUP2 MSTORE PUSH1 0x40 DUP1 DUP4 KECCAK256 SWAP4 SWAP1 SWAP5 AND DUP3 MSTORE SWAP2 SWAP1 SWAP2 MSTORE KECCAK256 SLOAD PUSH1 0xFF AND SWAP1 JUMP JUMPDEST PUSH2 0x3D6 PUSH2 0x7FD CALLDATASIZE PUSH1 0x4 PUSH2 0x3EE5 JUMP JUMPDEST PUSH2 0x24FE JUMP JUMPDEST PUSH2 0x25B SLOAD PUSH2 0x35B SWAP1 PUSH1 0x1 PUSH1 0x1 PUSH1 0xA0 SHL SUB AND DUP2 JUMP JUMPDEST PUSH1 0x0 PUSH2 0x821 DUP3 PUSH2 0x2574 JUMP JUMPDEST SWAP3 SWAP2 POP POP JUMP JUMPDEST PUSH1 0x60 PUSH2 0x261 DUP1 SLOAD PUSH2 0x837 SWAP1 PUSH2 0x4476 JUMP JUMPDEST DUP1 PUSH1 0x1F ADD PUSH1 0x20 DUP1 SWAP2 DIV MUL PUSH1 0x20 ADD PUSH1 0x40 MLOAD SWAP1 DUP2 ADD PUSH1 0x40 MSTORE DUP1 SWAP3 SWAP2 SWAP1 DUP2 DUP2 MSTORE PUSH1 0x20 ADD DUP3 DUP1 SLOAD PUSH2 0x863 SWAP1 PUSH2 0x4476 JUMP JUMPDEST DUP1 ISZERO PUSH2 0x8B0 JUMPI DUP1 PUSH1 0x1F LT PUSH2 0x885 JUMPI PUSH2 0x100 DUP1 DUP4 SLOAD DIV MUL DUP4 MSTORE SWAP2 PUSH1 0x20 ADD SWAP2 PUSH2 0x8B0 JUMP JUMPDEST DUP3 ADD SWAP2 SWAP1 PUSH1 0x0 MSTORE PUSH1 0x20 PUSH1 0x0 KECCAK256 SWAP1 JUMPDEST DUP2 SLOAD DUP2 MSTORE SWAP1 PUSH1 0x1 ADD SWAP1 PUSH1 0x20 ADD DUP1 DUP4 GT PUSH2 0x893 JUMPI DUP3 SWAP1 SUB PUSH1 0x1F AND DUP3 ADD SWAP2 JUMPDEST POP POP POP POP POP SWAP1 POP SWAP1 JUMP JUMPDEST PUSH1 0x0 PUSH2 0x8C5 DUP3 PUSH2 0x2599 JUMP JUMPDEST POP PUSH1 0x0 SWAP1 DUP2 MSTORE PUSH1 0xCD PUSH1 0x20 MSTORE PUSH1 0x40 SWAP1 KECCAK256 SLOAD PUSH1 0x1 PUSH1 0x1 PUSH1 0xA0 SHL SUB AND SWAP1 JUMP JUMPDEST PUSH1 0x0 PUSH2 0x8EC DUP3 PUSH2 0xF25 JUMP JUMPDEST SWAP1 POP DUP1 PUSH1 0x1 PUSH1 0x1 PUSH1 0xA0 SHL SUB AND DUP4 PUSH1 0x1 PUSH1 0x1 PUSH1 0xA0 SHL SUB AND EQ ISZERO PUSH2 0x95F JUMPI PUSH1 0x40 MLOAD PUSH3 0x461BCD PUSH1 0xE5 SHL DUP2 MSTORE PUSH1 0x20 PUSH1 0x4 DUP3 ADD MSTORE PUSH1 0x21 PUSH1 0x24 DUP3 ADD MSTORE PUSH32 0x4552433732313A20617070726F76616C20746F2063757272656E74206F776E65 PUSH1 0x44 DUP3 ADD MSTORE PUSH1 0x39 PUSH1 0xF9 SHL PUSH1 0x64 DUP3 ADD MSTORE PUSH1 0x84 ADD JUMPDEST PUSH1 0x40 MLOAD DUP1 SWAP2 SUB SWAP1 REVERT JUMPDEST CALLER PUSH1 0x1 PUSH1 0x1 PUSH1 0xA0 SHL SUB DUP3 AND EQ DUP1 PUSH2 0x97B JUMPI POP PUSH2 0x97B DUP2 CALLER PUSH2 0x7C1 JUMP JUMPDEST PUSH2 0x9ED JUMPI PUSH1 0x40 MLOAD PUSH3 0x461BCD PUSH1 0xE5 SHL DUP2 MSTORE PUSH1 0x20 PUSH1 0x4 DUP3 ADD MSTORE PUSH1 0x3E PUSH1 0x24 DUP3 ADD MSTORE PUSH32 0x4552433732313A20617070726F76652063616C6C6572206973206E6F7420746F PUSH1 0x44 DUP3 ADD MSTORE PUSH32 0x6B656E206F776E6572206E6F7220617070726F76656420666F7220616C6C0000 PUSH1 0x64 DUP3 ADD MSTORE PUSH1 0x84 ADD PUSH2 0x956 JUMP JUMPDEST PUSH2 0x9F7 DUP4 DUP4 PUSH2 0x25F8 JUMP JUMPDEST POP POP POP JUMP JUMPDEST PUSH1 0x0 PUSH1 0x1 PUSH2 0xA0A PUSH2 0x259 SLOAD SWAP1 JUMP JUMPDEST PUSH2 0xA14 SWAP2 SWAP1 PUSH2 0x44C1 JUMP JUMPDEST SWAP1 POP SWAP1 JUMP JUMPDEST PUSH2 0xA24 CALLER JUMPDEST DUP3 PUSH2 0x2666 JUMP JUMPDEST PUSH2 0xA40 JUMPI PUSH1 0x40 MLOAD PUSH3 0x461BCD PUSH1 0xE5 SHL DUP2 MSTORE PUSH1 0x4 ADD PUSH2 0x956 SWAP1 PUSH2 0x44D8 JUMP JUMPDEST PUSH2 0x9F7 DUP4 DUP4 DUP4 PUSH2 0x26E5 JUMP JUMPDEST PUSH1 0x0 DUP3 DUP2 MSTORE PUSH2 0x263 PUSH1 0x20 SWAP1 DUP2 MSTORE PUSH1 0x40 DUP1 DUP4 KECCAK256 DUP2 MLOAD PUSH1 0x60 DUP2 ADD DUP4 MSTORE SWAP1 SLOAD PUSH1 0x1 PUSH1 0x1 PUSH1 0xA0 SHL SUB DUP2 AND DUP3 MSTORE PUSH1 0x1 PUSH1 0xA0 SHL DUP2 DIV PUSH3 0xFFFFFF AND SWAP4 DUP3 ADD SWAP4 SWAP1 SWAP4 MSTORE PUSH1 0x1 PUSH1 0xB8 SHL SWAP1 SWAP3 DIV PUSH1 0xFF AND ISZERO DUP1 ISZERO SWAP2 DUP4 ADD SWAP2 SWAP1 SWAP2 MSTORE DUP3 SWAP2 SWAP1 PUSH2 0xAD0 JUMPI DUP1 MLOAD PUSH1 0x20 DUP3 ADD MLOAD SWAP1 SWAP4 POP PUSH2 0x2710 SWAP1 PUSH2 0xABF SWAP1 PUSH3 0xFFFFFF AND DUP7 PUSH2 0x4526 JUMP JUMPDEST PUSH2 0xAC9 SWAP2 SWAP1 PUSH2 0x455B JUMP JUMPDEST SWAP2 POP PUSH2 0xB07 JUMP JUMPDEST PUSH1 0x0 DUP6 DUP2 MSTORE PUSH2 0x260 PUSH1 0x20 MSTORE PUSH1 0x40 SWAP1 KECCAK256 SLOAD PUSH1 0x1 PUSH1 0x1 PUSH1 0xA0 SHL SUB AND SWAP3 POP PUSH2 0x2710 PUSH2 0xAFA DUP6 PUSH2 0x1F4 PUSH2 0x4526 JUMP JUMPDEST PUSH2 0xB04 SWAP2 SWAP1 PUSH2 0x455B JUMP JUMPDEST SWAP2 POP JUMPDEST POP SWAP3 POP SWAP3 SWAP1 POP JUMP JUMPDEST PUSH1 0x0 DUP3 DUP2 MSTORE PUSH1 0x65 PUSH1 0x20 MSTORE PUSH1 0x40 SWAP1 KECCAK256 PUSH1 0x1 ADD SLOAD PUSH2 0xB2A DUP2 PUSH2 0x288C JUMP JUMPDEST PUSH2 0x9F7 DUP4 DUP4 PUSH2 0x2896 JUMP JUMPDEST PUSH1 0x0 PUSH2 0xB3F DUP4 PUSH2 0xF85 JUMP JUMPDEST DUP3 LT PUSH2 0xBA1 JUMPI PUSH1 0x40 MLOAD PUSH3 0x461BCD PUSH1 0xE5 SHL DUP2 MSTORE PUSH1 0x20 PUSH1 0x4 DUP3 ADD MSTORE PUSH1 0x2B PUSH1 0x24 DUP3 ADD MSTORE PUSH32 0x455243373231456E756D657261626C653A206F776E657220696E646578206F75 PUSH1 0x44 DUP3 ADD MSTORE PUSH11 0x74206F6620626F756E6473 PUSH1 0xA8 SHL PUSH1 0x64 DUP3 ADD MSTORE PUSH1 0x84 ADD PUSH2 0x956 JUMP JUMPDEST POP PUSH1 0x1 PUSH1 0x1 PUSH1 0xA0 SHL SUB SWAP2 SWAP1 SWAP2 AND PUSH1 0x0 SWAP1 DUP2 MSTORE PUSH1 0xFB PUSH1 0x20 SWAP1 DUP2 MSTORE PUSH1 0x40 DUP1 DUP4 KECCAK256 SWAP4 DUP4 MSTORE SWAP3 SWAP1 MSTORE KECCAK256 SLOAD SWAP1 JUMP JUMPDEST PUSH1 0x1 PUSH1 0x1 PUSH1 0xA0 SHL SUB DUP2 AND CALLER EQ PUSH2 0xC3A JUMPI PUSH1 0x40 MLOAD PUSH3 0x461BCD PUSH1 0xE5 SHL DUP2 MSTORE PUSH1 0x20 PUSH1 0x4 DUP3 ADD MSTORE PUSH1 0x2F PUSH1 0x24 DUP3 ADD MSTORE PUSH32 0x416363657373436F6E74726F6C3A2063616E206F6E6C792072656E6F756E6365 PUSH1 0x44 DUP3 ADD MSTORE PUSH15 0x103937B632B9903337B91039B2B633 PUSH1 0x89 SHL PUSH1 0x64 DUP3 ADD MSTORE PUSH1 0x84 ADD PUSH2 0x956 JUMP JUMPDEST PUSH2 0xC44 DUP3 DUP3 PUSH2 0x28B8 JUMP JUMPDEST POP POP JUMP JUMPDEST PUSH1 0x0 DUP3 DUP2 MSTORE PUSH2 0x260 PUSH1 0x20 MSTORE PUSH1 0x40 SWAP1 KECCAK256 SLOAD DUP3 SWAP1 PUSH1 0x1 PUSH1 0x1 PUSH1 0xA0 SHL SUB AND CALLER EQ PUSH2 0xCA0 JUMPI PUSH1 0x40 MLOAD PUSH3 0x461BCD PUSH1 0xE5 SHL DUP2 MSTORE PUSH1 0x20 PUSH1 0x4 DUP3 ADD MSTORE PUSH1 0xC PUSH1 0x24 DUP3 ADD MSTORE PUSH12 0x27A7262CAFA1A922A0AA27A9 PUSH1 0xA1 SHL PUSH1 0x44 DUP3 ADD MSTORE PUSH1 0x64 ADD PUSH2 0x956 JUMP JUMPDEST PUSH1 0x0 DUP4 DUP2 MSTORE PUSH2 0x25F PUSH1 0x20 SWAP1 DUP2 MSTORE PUSH1 0x40 SWAP1 SWAP2 KECCAK256 DUP4 MLOAD PUSH2 0xCC0 SWAP3 DUP6 ADD SWAP1 PUSH2 0x3B0C JUMP JUMPDEST POP POP POP POP JUMP JUMPDEST PUSH2 0xCDE PUSH1 0x0 DUP1 MLOAD PUSH1 0x20 PUSH2 0x502F DUP4 CODECOPY DUP2 MLOAD SWAP2 MSTORE CALLER PUSH2 0x1888 JUMP JUMPDEST PUSH2 0xD52 JUMPI PUSH1 0x40 DUP1 MLOAD PUSH3 0x461BCD PUSH1 0xE5 SHL DUP2 MSTORE PUSH1 0x20 PUSH1 0x4 DUP3 ADD MSTORE PUSH1 0x24 DUP2 ADD SWAP2 SWAP1 SWAP2 MSTORE PUSH32 0x4552433732315072657365744D696E7465725061757365724175746F49643A20 PUSH1 0x44 DUP3 ADD MSTORE PUSH32 0x6D75737420686176652070617573657220726F6C6520746F20756E7061757365 PUSH1 0x64 DUP3 ADD MSTORE PUSH1 0x84 ADD PUSH2 0x956 JUMP JUMPDEST PUSH2 0xD5A PUSH2 0x28DA JUMP JUMPDEST JUMP JUMPDEST PUSH2 0x9F7 DUP4 DUP4 DUP4 PUSH1 0x40 MLOAD DUP1 PUSH1 0x20 ADD PUSH1 0x40 MSTORE DUP1 PUSH1 0x0 DUP2 MSTORE POP PUSH2 0x20C6 JUMP JUMPDEST PUSH2 0xD80 CALLER PUSH2 0xA1E JUMP JUMPDEST PUSH2 0xD9C JUMPI PUSH1 0x40 MLOAD PUSH3 0x461BCD PUSH1 0xE5 SHL DUP2 MSTORE PUSH1 0x4 ADD PUSH2 0x956 SWAP1 PUSH2 0x44D8 JUMP JUMPDEST PUSH2 0x557 DUP2 PUSH2 0x292D JUMP JUMPDEST PUSH1 0x0 PUSH2 0xDB0 PUSH1 0xFD SLOAD SWAP1 JUMP JUMPDEST DUP3 LT PUSH2 0xE13 JUMPI PUSH1 0x40 MLOAD PUSH3 0x461BCD PUSH1 0xE5 SHL DUP2 MSTORE PUSH1 0x20 PUSH1 0x4 DUP3 ADD MSTORE PUSH1 0x2C PUSH1 0x24 DUP3 ADD MSTORE PUSH32 0x455243373231456E756D657261626C653A20676C6F62616C20696E646578206F PUSH1 0x44 DUP3 ADD MSTORE PUSH12 0x7574206F6620626F756E6473 PUSH1 0xA0 SHL PUSH1 0x64 DUP3 ADD MSTORE PUSH1 0x84 ADD PUSH2 0x956 JUMP JUMPDEST PUSH1 0xFD DUP3 DUP2 SLOAD DUP2 LT PUSH2 0xE26 JUMPI PUSH2 0xE26 PUSH2 0x456F JUMP JUMPDEST SWAP1 PUSH1 0x0 MSTORE PUSH1 0x20 PUSH1 0x0 KECCAK256 ADD SLOAD SWAP1 POP SWAP2 SWAP1 POP JUMP JUMPDEST PUSH1 0x0 SLOAD PUSH2 0x100 SWAP1 DIV PUSH1 0xFF AND ISZERO DUP1 DUP1 ISZERO PUSH2 0xE58 JUMPI POP PUSH1 0x0 SLOAD PUSH1 0x1 PUSH1 0xFF SWAP1 SWAP2 AND LT JUMPDEST DUP1 PUSH2 0xE72 JUMPI POP ADDRESS EXTCODESIZE ISZERO DUP1 ISZERO PUSH2 0xE72 JUMPI POP PUSH1 0x0 SLOAD PUSH1 0xFF AND PUSH1 0x1 EQ JUMPDEST PUSH2 0xE8E JUMPI PUSH1 0x40 MLOAD PUSH3 0x461BCD PUSH1 0xE5 SHL DUP2 MSTORE PUSH1 0x4 ADD PUSH2 0x956 SWAP1 PUSH2 0x4585 JUMP JUMPDEST PUSH1 0x0 DUP1 SLOAD PUSH1 0xFF NOT AND PUSH1 0x1 OR SWAP1 SSTORE DUP1 ISZERO PUSH2 0xEB1 JUMPI PUSH1 0x0 DUP1 SLOAD PUSH2 0xFF00 NOT AND PUSH2 0x100 OR SWAP1 SSTORE JUMPDEST PUSH2 0xEBC DUP6 DUP6 DUP6 PUSH2 0x29D4 JUMP JUMPDEST PUSH2 0x25A DUP1 SLOAD PUSH1 0x1 PUSH1 0x1 PUSH1 0xA0 SHL SUB NOT AND PUSH1 0x1 PUSH1 0x1 PUSH1 0xA0 SHL SUB DUP5 AND OR SWAP1 SSTORE DUP1 ISZERO PUSH2 0xF1E JUMPI PUSH1 0x0 DUP1 SLOAD PUSH2 0xFF00 NOT AND SWAP1 SSTORE PUSH1 0x40 MLOAD PUSH1 0x1 DUP2 MSTORE PUSH32 0x7F26B83FF96E1F2B6A682F133852F6798A09C465DA95921460CEFB3847402498 SWAP1 PUSH1 0x20 ADD PUSH1 0x40 MLOAD DUP1 SWAP2 SUB SWAP1 LOG1 JUMPDEST POP POP POP POP POP JUMP JUMPDEST PUSH1 0x0 DUP2 DUP2 MSTORE PUSH1 0xCB PUSH1 0x20 MSTORE PUSH1 0x40 DUP2 KECCAK256 SLOAD PUSH1 0x1 PUSH1 0x1 PUSH1 0xA0 SHL SUB AND DUP1 PUSH2 0x821 JUMPI PUSH1 0x40 MLOAD PUSH3 0x461BCD PUSH1 0xE5 SHL DUP2 MSTORE PUSH1 0x20 PUSH1 0x4 DUP3 ADD MSTORE PUSH1 0x18 PUSH1 0x24 DUP3 ADD MSTORE PUSH24 0x115490CDCC8C4E881A5B9D985B1A59081D1BDAD95B881251 PUSH1 0x42 SHL PUSH1 0x44 DUP3 ADD MSTORE PUSH1 0x64 ADD PUSH2 0x956 JUMP JUMPDEST PUSH1 0x0 PUSH1 0x1 PUSH1 0x1 PUSH1 0xA0 SHL SUB DUP3 AND PUSH2 0xFEF JUMPI PUSH1 0x40 MLOAD PUSH3 0x461BCD PUSH1 0xE5 SHL DUP2 MSTORE PUSH1 0x20 PUSH1 0x4 DUP3 ADD MSTORE PUSH1 0x29 PUSH1 0x24 DUP3 ADD MSTORE PUSH32 0x4552433732313A2061646472657373207A65726F206973206E6F742061207661 PUSH1 0x44 DUP3 ADD MSTORE PUSH9 0x3634B21037BBB732B9 PUSH1 0xB9 SHL PUSH1 0x64 DUP3 ADD MSTORE PUSH1 0x84 ADD PUSH2 0x956 JUMP JUMPDEST POP PUSH1 0x1 PUSH1 0x1 PUSH1 0xA0 SHL SUB AND PUSH1 0x0 SWAP1 DUP2 MSTORE PUSH1 0xCC PUSH1 0x20 MSTORE PUSH1 0x40 SWAP1 KECCAK256 SLOAD SWAP1 JUMP JUMPDEST PUSH2 0x1013 PUSH2 0x2A18 JUMP JUMPDEST PUSH2 0xD5A PUSH1 0x0 PUSH2 0x2A98 JUMP JUMPDEST PUSH2 0x25B SLOAD PUSH1 0x40 DUP1 MLOAD DUP1 DUP3 ADD SWAP1 SWAP2 MSTORE PUSH1 0x3 DUP2 MSTORE PUSH3 0x64607 PUSH1 0xEB SHL PUSH1 0x20 DUP3 ADD MSTORE SWAP1 PUSH1 0x1 PUSH1 0x1 PUSH1 0xA0 SHL SUB AND CALLER EQ PUSH2 0x1064 JUMPI PUSH1 0x40 MLOAD PUSH3 0x461BCD PUSH1 0xE5 SHL DUP2 MSTORE PUSH1 0x4 ADD PUSH2 0x956 SWAP2 SWAP1 PUSH2 0x3C30 JUMP JUMPDEST POP PUSH2 0x25B SLOAD PUSH1 0x1 PUSH1 0x1 PUSH1 0xA0 SHL SUB AND ISZERO DUP1 ISZERO SWAP1 PUSH2 0x1083 JUMPI POP PUSH1 0x0 PUSH2 0x25C SLOAD GT JUMPDEST PUSH1 0x40 MLOAD DUP1 PUSH1 0x40 ADD PUSH1 0x40 MSTORE DUP1 PUSH1 0x3 DUP2 MSTORE PUSH1 0x20 ADD PUSH3 0x191819 PUSH1 0xE9 SHL DUP2 MSTORE POP SWAP1 PUSH2 0x10BD JUMPI PUSH1 0x40 MLOAD PUSH3 0x461BCD PUSH1 0xE5 SHL DUP2 MSTORE PUSH1 0x4 ADD PUSH2 0x956 SWAP2 SWAP1 PUSH2 0x3C30 JUMP JUMPDEST POP DUP1 CALLDATALOAD PUSH1 0x0 JUMPDEST PUSH2 0x10D0 PUSH1 0x20 DUP5 ADD DUP5 PUSH2 0x45D3 JUMP JUMPDEST SWAP1 POP DUP2 LT ISZERO PUSH2 0x1223 JUMPI PUSH1 0x0 PUSH2 0x10E8 PUSH1 0x20 DUP6 ADD DUP6 PUSH2 0x45D3 JUMP JUMPDEST DUP4 DUP2 DUP2 LT PUSH2 0x10F8 JUMPI PUSH2 0x10F8 PUSH2 0x456F JUMP JUMPDEST SWAP1 POP PUSH1 0x20 MUL DUP2 ADD SWAP1 PUSH2 0x110A SWAP2 SWAP1 PUSH2 0x4623 JUMP JUMPDEST PUSH2 0x1113 SWAP1 PUSH2 0x46E7 JUMP JUMPDEST SWAP1 POP DUP1 PUSH1 0xC0 ADD MLOAD PUSH2 0x11D8 JUMPI PUSH1 0x80 DUP2 ADD MLOAD MLOAD PUSH2 0x1184 JUMPI DUP1 PUSH1 0xA0 ADD MLOAD PUSH2 0x1143 DUP5 PUSH1 0x0 SHR DUP4 PUSH1 0x40 ADD MLOAD DUP5 PUSH1 0x20 ADD MLOAD PUSH2 0x2AEB JUMP JUMPDEST EQ PUSH1 0x40 MLOAD DUP1 PUSH1 0x40 ADD PUSH1 0x40 MSTORE DUP1 PUSH1 0x3 DUP2 MSTORE PUSH1 0x20 ADD PUSH3 0x19181B PUSH1 0xE9 SHL DUP2 MSTORE POP SWAP1 PUSH2 0x117E JUMPI PUSH1 0x40 MLOAD PUSH3 0x461BCD PUSH1 0xE5 SHL DUP2 MSTORE PUSH1 0x4 ADD PUSH2 0x956 SWAP2 SWAP1 PUSH2 0x3C30 JUMP JUMPDEST POP PUSH2 0x11D8 JUMP JUMPDEST DUP1 PUSH1 0xA0 ADD MLOAD PUSH2 0x119B DUP5 PUSH1 0x0 SHR DUP4 PUSH1 0x80 ADD MLOAD MLOAD PUSH2 0x2B16 JUMP JUMPDEST EQ PUSH1 0x40 MLOAD DUP1 PUSH1 0x40 ADD PUSH1 0x40 MSTORE DUP1 PUSH1 0x3 DUP2 MSTORE PUSH1 0x20 ADD PUSH3 0x323037 PUSH1 0xE8 SHL DUP2 MSTORE POP SWAP1 PUSH2 0x11D6 JUMPI PUSH1 0x40 MLOAD PUSH3 0x461BCD PUSH1 0xE5 SHL DUP2 MSTORE PUSH1 0x4 ADD PUSH2 0x956 SWAP2 SWAP1 PUSH2 0x3C30 JUMP JUMPDEST POP JUMPDEST PUSH1 0xA0 DUP2 ADD MLOAD PUSH1 0x40 MLOAD PUSH2 0x11F7 SWAP2 DUP6 SWAP2 PUSH1 0x20 ADD SWAP2 DUP3 MSTORE PUSH1 0x20 DUP3 ADD MSTORE PUSH1 0x40 ADD SWAP1 JUMP JUMPDEST PUSH1 0x40 MLOAD PUSH1 0x20 DUP2 DUP4 SUB SUB DUP2 MSTORE SWAP1 PUSH1 0x40 MSTORE DUP1 MLOAD SWAP1 PUSH1 0x20 ADD KECCAK256 SWAP3 POP POP DUP1 DUP1 PUSH2 0x121B SWAP1 PUSH2 0x477D JUMP JUMPDEST SWAP2 POP POP PUSH2 0x10C3 JUMP JUMPDEST POP PUSH2 0x25B SLOAD PUSH2 0x25C SLOAD PUSH1 0x40 MLOAD PUSH4 0x4F558E79 PUSH1 0xE0 SHL DUP2 MSTORE PUSH1 0x4 DUP2 ADD SWAP2 SWAP1 SWAP2 MSTORE PUSH1 0x1 PUSH1 0x1 PUSH1 0xA0 SHL SUB SWAP1 SWAP2 AND SWAP1 DUP2 SWAP1 PUSH4 0x4F558E79 SWAP1 PUSH1 0x24 ADD PUSH1 0x20 PUSH1 0x40 MLOAD DUP1 DUP4 SUB DUP2 DUP7 GAS STATICCALL ISZERO DUP1 ISZERO PUSH2 0x1275 JUMPI RETURNDATASIZE PUSH1 0x0 DUP1 RETURNDATACOPY RETURNDATASIZE PUSH1 0x0 REVERT JUMPDEST POP POP POP POP PUSH1 0x40 MLOAD RETURNDATASIZE PUSH1 0x1F NOT PUSH1 0x1F DUP3 ADD AND DUP3 ADD DUP1 PUSH1 0x40 MSTORE POP DUP2 ADD SWAP1 PUSH2 0x1299 SWAP2 SWAP1 PUSH2 0x4798 JUMP JUMPDEST PUSH1 0x40 MLOAD DUP1 PUSH1 0x40 ADD PUSH1 0x40 MSTORE DUP1 PUSH1 0x3 DUP2 MSTORE PUSH1 0x20 ADD PUSH3 0x191819 PUSH1 0xE9 SHL DUP2 MSTORE POP SWAP1 PUSH2 0x12D3 JUMPI PUSH1 0x40 MLOAD PUSH3 0x461BCD PUSH1 0xE5 SHL DUP2 MSTORE PUSH1 0x4 ADD PUSH2 0x956 SWAP2 SWAP1 PUSH2 0x3C30 JUMP JUMPDEST POP PUSH2 0x12E3 PUSH2 0x259 DUP1 SLOAD PUSH1 0x1 ADD SWAP1 SSTORE JUMP JUMPDEST PUSH1 0x0 PUSH2 0x12EF PUSH2 0x259 SLOAD SWAP1 JUMP JUMPDEST DUP6 MLOAD SWAP1 SWAP2 POP ISZERO PUSH2 0x131B JUMPI PUSH1 0x0 DUP2 DUP2 MSTORE PUSH2 0x25F PUSH1 0x20 SWAP1 DUP2 MSTORE PUSH1 0x40 SWAP1 SWAP2 KECCAK256 DUP7 MLOAD PUSH2 0x1319 SWAP3 DUP9 ADD SWAP1 PUSH2 0x3B0C JUMP JUMPDEST POP JUMPDEST PUSH1 0x0 DUP2 DUP2 MSTORE PUSH2 0x260 PUSH1 0x20 SWAP1 DUP2 MSTORE PUSH1 0x40 DUP1 DUP4 KECCAK256 DUP1 SLOAD PUSH1 0x1 PUSH1 0x1 PUSH1 0xA0 SHL SUB NOT AND PUSH1 0x1 PUSH1 0x1 PUSH1 0xA0 SHL SUB DUP12 AND OR SWAP1 SSTORE PUSH2 0x25D SWAP1 SWAP2 MSTORE SWAP1 KECCAK256 DUP5 SWAP1 PUSH2 0x135A DUP3 DUP3 PUSH2 0x4AC9 JUMP JUMPDEST SWAP1 POP POP PUSH2 0x1367 DUP8 DUP3 PUSH2 0x2B22 JUMP JUMPDEST PUSH32 0xBF83D3C95E3A6B6B6CAC45594A672C1D703818ADA1304CF6E235FDC0BD6E4371 DUP8 DUP8 DUP8 DUP5 PUSH1 0x40 MLOAD PUSH2 0x139C SWAP5 SWAP4 SWAP3 SWAP2 SWAP1 PUSH2 0x4BE7 JUMP JUMPDEST PUSH1 0x40 MLOAD DUP1 SWAP2 SUB SWAP1 LOG1 POP POP POP POP POP POP POP JUMP JUMPDEST PUSH1 0x60 PUSH2 0x25E PUSH1 0x0 ADD DUP1 SLOAD DUP1 PUSH1 0x20 MUL PUSH1 0x20 ADD PUSH1 0x40 MLOAD SWAP1 DUP2 ADD PUSH1 0x40 MSTORE DUP1 SWAP3 SWAP2 SWAP1 DUP2 DUP2 MSTORE PUSH1 0x20 ADD PUSH1 0x0 SWAP1 JUMPDEST DUP3 DUP3 LT ISZERO PUSH2 0x160E JUMPI DUP4 DUP3 SWAP1 PUSH1 0x0 MSTORE PUSH1 0x20 PUSH1 0x0 KECCAK256 SWAP1 PUSH1 0x4 MUL ADD PUSH1 0x40 MLOAD DUP1 PUSH1 0x80 ADD PUSH1 0x40 MSTORE SWAP1 DUP2 PUSH1 0x0 DUP3 ADD DUP1 SLOAD PUSH2 0x1408 SWAP1 PUSH2 0x4476 JUMP JUMPDEST DUP1 PUSH1 0x1F ADD PUSH1 0x20 DUP1 SWAP2 DIV MUL PUSH1 0x20 ADD PUSH1 0x40 MLOAD SWAP1 DUP2 ADD PUSH1 0x40 MSTORE DUP1 SWAP3 SWAP2 SWAP1 DUP2 DUP2 MSTORE PUSH1 0x20 ADD DUP3 DUP1 SLOAD PUSH2 0x1434 SWAP1 PUSH2 0x4476 JUMP JUMPDEST DUP1 ISZERO PUSH2 0x1481 JUMPI DUP1 PUSH1 0x1F LT PUSH2 0x1456 JUMPI PUSH2 0x100 DUP1 DUP4 SLOAD DIV MUL DUP4 MSTORE SWAP2 PUSH1 0x20 ADD SWAP2 PUSH2 0x1481 JUMP JUMPDEST DUP3 ADD SWAP2 SWAP1 PUSH1 0x0 MSTORE PUSH1 0x20 PUSH1 0x0 KECCAK256 SWAP1 JUMPDEST DUP2 SLOAD DUP2 MSTORE SWAP1 PUSH1 0x1 ADD SWAP1 PUSH1 0x20 ADD DUP1 DUP4 GT PUSH2 0x1464 JUMPI DUP3 SWAP1 SUB PUSH1 0x1F AND DUP3 ADD SWAP2 JUMPDEST POP POP POP POP POP DUP2 MSTORE PUSH1 0x20 ADD PUSH1 0x1 DUP3 ADD DUP1 SLOAD DUP1 PUSH1 0x20 MUL PUSH1 0x20 ADD PUSH1 0x40 MLOAD SWAP1 DUP2 ADD PUSH1 0x40 MSTORE DUP1 SWAP3 SWAP2 SWAP1 DUP2 DUP2 MSTORE PUSH1 0x20 ADD PUSH1 0x0 SWAP1 JUMPDEST DUP3 DUP3 LT ISZERO PUSH2 0x155B JUMPI DUP4 DUP3 SWAP1 PUSH1 0x0 MSTORE PUSH1 0x20 PUSH1 0x0 KECCAK256 ADD DUP1 SLOAD PUSH2 0x14CE SWAP1 PUSH2 0x4476 JUMP JUMPDEST DUP1 PUSH1 0x1F ADD PUSH1 0x20 DUP1 SWAP2 DIV MUL PUSH1 0x20 ADD PUSH1 0x40 MLOAD SWAP1 DUP2 ADD PUSH1 0x40 MSTORE DUP1 SWAP3 SWAP2 SWAP1 DUP2 DUP2 MSTORE PUSH1 0x20 ADD DUP3 DUP1 SLOAD PUSH2 0x14FA SWAP1 PUSH2 0x4476 JUMP JUMPDEST DUP1 ISZERO PUSH2 0x1547 JUMPI DUP1 PUSH1 0x1F LT PUSH2 0x151C JUMPI PUSH2 0x100 DUP1 DUP4 SLOAD DIV MUL DUP4 MSTORE SWAP2 PUSH1 0x20 ADD SWAP2 PUSH2 0x1547 JUMP JUMPDEST DUP3 ADD SWAP2 SWAP1 PUSH1 0x0 MSTORE PUSH1 0x20 PUSH1 0x0 KECCAK256 SWAP1 JUMPDEST DUP2 SLOAD DUP2 MSTORE SWAP1 PUSH1 0x1 ADD SWAP1 PUSH1 0x20 ADD DUP1 DUP4 GT PUSH2 0x152A JUMPI DUP3 SWAP1 SUB PUSH1 0x1F AND DUP3 ADD SWAP2 JUMPDEST POP POP POP POP POP DUP2 MSTORE PUSH1 0x20 ADD SWAP1 PUSH1 0x1 ADD SWAP1 PUSH2 0x14AF JUMP JUMPDEST POP POP POP POP DUP2 MSTORE PUSH1 0x20 ADD PUSH1 0x2 DUP3 ADD SLOAD DUP2 MSTORE PUSH1 0x20 ADD PUSH1 0x3 DUP3 ADD DUP1 SLOAD PUSH2 0x157D SWAP1 PUSH2 0x4476 JUMP JUMPDEST DUP1 PUSH1 0x1F ADD PUSH1 0x20 DUP1 SWAP2 DIV MUL PUSH1 0x20 ADD PUSH1 0x40 MLOAD SWAP1 DUP2 ADD PUSH1 0x40 MSTORE DUP1 SWAP3 SWAP2 SWAP1 DUP2 DUP2 MSTORE PUSH1 0x20 ADD DUP3 DUP1 SLOAD PUSH2 0x15A9 SWAP1 PUSH2 0x4476 JUMP JUMPDEST DUP1 ISZERO PUSH2 0x15F6 JUMPI DUP1 PUSH1 0x1F LT PUSH2 0x15CB JUMPI PUSH2 0x100 DUP1 DUP4 SLOAD DIV MUL DUP4 MSTORE SWAP2 PUSH1 0x20 ADD SWAP2 PUSH2 0x15F6 JUMP JUMPDEST DUP3 ADD SWAP2 SWAP1 PUSH1 0x0 MSTORE PUSH1 0x20 PUSH1 0x0 KECCAK256 SWAP1 JUMPDEST DUP2 SLOAD DUP2 MSTORE SWAP1 PUSH1 0x1 ADD SWAP1 PUSH1 0x20 ADD DUP1 DUP4 GT PUSH2 0x15D9 JUMPI DUP3 SWAP1 SUB PUSH1 0x1F AND DUP3 ADD SWAP2 JUMPDEST POP POP POP POP POP DUP2 MSTORE POP POP DUP2 MSTORE PUSH1 0x20 ADD SWAP1 PUSH1 0x1 ADD SWAP1 PUSH2 0x13D5 JUMP JUMPDEST POP POP POP POP SWAP1 POP SWAP1 JUMP JUMPDEST PUSH2 0x25A SLOAD PUSH1 0x1 PUSH1 0x1 PUSH1 0xA0 SHL SUB AND CALLER EQ DUP1 PUSH2 0x163C JUMPI POP PUSH2 0x25B SLOAD PUSH1 0x1 PUSH1 0x1 PUSH1 0xA0 SHL SUB AND CALLER EQ JUMPDEST PUSH1 0x40 MLOAD DUP1 PUSH1 0x40 ADD PUSH1 0x40 MSTORE DUP1 PUSH1 0x3 DUP2 MSTORE PUSH1 0x20 ADD PUSH3 0x313031 PUSH1 0xE8 SHL DUP2 MSTORE POP SWAP1 PUSH2 0x1676 JUMPI PUSH1 0x40 MLOAD PUSH3 0x461BCD PUSH1 0xE5 SHL DUP2 MSTORE PUSH1 0x4 ADD PUSH2 0x956 SWAP2 SWAP1 PUSH2 0x3C30 JUMP JUMPDEST POP DUP1 PUSH2 0x25E PUSH2 0x9F7 DUP3 DUP3 PUSH2 0x4CD6 JUMP JUMPDEST PUSH2 0x169D PUSH1 0x0 DUP1 MLOAD PUSH1 0x20 PUSH2 0x502F DUP4 CODECOPY DUP2 MLOAD SWAP2 MSTORE CALLER PUSH2 0x1888 JUMP JUMPDEST PUSH2 0x170F JUMPI PUSH1 0x40 MLOAD PUSH3 0x461BCD PUSH1 0xE5 SHL DUP2 MSTORE PUSH1 0x20 PUSH1 0x4 DUP3 ADD MSTORE PUSH1 0x3E PUSH1 0x24 DUP3 ADD MSTORE PUSH32 0x4552433732315072657365744D696E7465725061757365724175746F49643A20 PUSH1 0x44 DUP3 ADD MSTORE PUSH32 0x6D75737420686176652070617573657220726F6C6520746F2070617573650000 PUSH1 0x64 DUP3 ADD MSTORE PUSH1 0x84 ADD PUSH2 0x956 JUMP JUMPDEST PUSH2 0xD5A PUSH2 0x2B3C JUMP JUMPDEST PUSH2 0x25A SLOAD PUSH1 0x1 PUSH1 0x1 PUSH1 0xA0 SHL SUB AND CALLER PUSH1 0x1 PUSH1 0x1 PUSH1 0xA0 SHL SUB AND EQ PUSH2 0x174B JUMPI PUSH1 0x40 MLOAD PUSH3 0x461BCD PUSH1 0xE5 SHL DUP2 MSTORE PUSH1 0x4 ADD PUSH2 0x956 SWAP1 PUSH2 0x4DCD JUMP JUMPDEST PUSH2 0x1756 PUSH1 0x0 CALLER PUSH2 0x1888 JUMP JUMPDEST PUSH2 0x1772 JUMPI PUSH1 0x40 MLOAD PUSH3 0x461BCD PUSH1 0xE5 SHL DUP2 MSTORE PUSH1 0x4 ADD PUSH2 0x956 SWAP1 PUSH2 0x4DCD JUMP JUMPDEST PUSH1 0x40 DUP1 MLOAD DUP1 DUP3 ADD SWAP1 SWAP2 MSTORE PUSH1 0x3 DUP2 MSTORE PUSH3 0x31303 PUSH1 0xEC SHL PUSH1 0x20 DUP3 ADD MSTORE PUSH1 0x1 PUSH1 0x1 PUSH1 0xA0 SHL SUB DUP3 AND PUSH2 0x17B3 JUMPI PUSH1 0x40 MLOAD PUSH3 0x461BCD PUSH1 0xE5 SHL DUP2 MSTORE PUSH1 0x4 ADD PUSH2 0x956 SWAP2 SWAP1 PUSH2 0x3C30 JUMP JUMPDEST POP PUSH2 0x25A DUP1 SLOAD PUSH1 0x1 PUSH1 0x1 PUSH1 0xA0 SHL SUB DUP4 DUP2 AND PUSH1 0x1 PUSH1 0x1 PUSH1 0xA0 SHL SUB NOT DUP4 AND DUP2 OR SWAP1 SWAP4 SSTORE AND SWAP1 PUSH2 0x17E2 SWAP1 PUSH1 0x0 SWAP1 PUSH2 0xB0F JUMP JUMPDEST PUSH2 0x25A SLOAD PUSH2 0x1808 SWAP1 PUSH1 0x0 DUP1 MLOAD PUSH1 0x20 PUSH2 0x504F DUP4 CODECOPY DUP2 MLOAD SWAP2 MSTORE SWAP1 PUSH1 0x1 PUSH1 0x1 PUSH1 0xA0 SHL SUB AND PUSH2 0xB0F JUMP JUMPDEST PUSH2 0x25A SLOAD PUSH2 0x182E SWAP1 PUSH1 0x0 DUP1 MLOAD PUSH1 0x20 PUSH2 0x502F DUP4 CODECOPY DUP2 MLOAD SWAP2 MSTORE SWAP1 PUSH1 0x1 PUSH1 0x1 PUSH1 0xA0 SHL SUB AND PUSH2 0xB0F JUMP JUMPDEST PUSH2 0x1839 PUSH1 0x0 DUP3 PUSH2 0x24CF JUMP JUMPDEST PUSH2 0x1851 PUSH1 0x0 DUP1 MLOAD PUSH1 0x20 PUSH2 0x504F DUP4 CODECOPY DUP2 MLOAD SWAP2 MSTORE DUP3 PUSH2 0x24CF JUMP JUMPDEST PUSH2 0xC44 PUSH1 0x0 DUP1 MLOAD PUSH1 0x20 PUSH2 0x502F DUP4 CODECOPY DUP2 MLOAD SWAP2 MSTORE DUP3 PUSH2 0x24CF JUMP JUMPDEST PUSH1 0x0 DUP3 DUP2 MSTORE PUSH1 0x97 PUSH1 0x20 MSTORE PUSH1 0x40 DUP2 KECCAK256 PUSH2 0x1881 SWAP1 DUP4 PUSH2 0x2B7A JUMP JUMPDEST SWAP4 SWAP3 POP POP POP JUMP JUMPDEST PUSH1 0x0 SWAP2 DUP3 MSTORE PUSH1 0x65 PUSH1 0x20 SWAP1 DUP2 MSTORE PUSH1 0x40 DUP1 DUP5 KECCAK256 PUSH1 0x1 PUSH1 0x1 PUSH1 0xA0 SHL SUB SWAP4 SWAP1 SWAP4 AND DUP5 MSTORE SWAP2 SWAP1 MSTORE SWAP1 KECCAK256 SLOAD PUSH1 0xFF AND SWAP1 JUMP JUMPDEST PUSH1 0x60 PUSH1 0x0 PUSH2 0x25D PUSH1 0x0 DUP5 DUP2 MSTORE PUSH1 0x20 ADD SWAP1 DUP2 MSTORE PUSH1 0x20 ADD PUSH1 0x0 KECCAK256 PUSH1 0x40 MLOAD DUP1 PUSH1 0x40 ADD PUSH1 0x40 MSTORE SWAP1 DUP2 PUSH1 0x0 DUP3 ADD SLOAD DUP2 MSTORE PUSH1 0x20 ADD PUSH1 0x1 DUP3 ADD DUP1 SLOAD DUP1 PUSH1 0x20 MUL PUSH1 0x20 ADD PUSH1 0x40 MLOAD SWAP1 DUP2 ADD PUSH1 0x40 MSTORE DUP1 SWAP3 SWAP2 SWAP1 DUP2 DUP2 MSTORE PUSH1 0x20 ADD PUSH1 0x0 SWAP1 JUMPDEST DUP3 DUP3 LT ISZERO PUSH2 0x1A54 JUMPI PUSH1 0x0 DUP5 DUP2 MSTORE PUSH1 0x20 DUP1 DUP3 KECCAK256 PUSH1 0x40 DUP1 MLOAD PUSH1 0xE0 DUP2 ADD DUP3 MSTORE PUSH1 0x7 DUP8 MUL SWAP1 SWAP3 ADD DUP1 SLOAD PUSH1 0xFF SWAP1 DUP2 AND DUP5 MSTORE PUSH1 0x1 DUP3 ADD SLOAD DUP5 DUP7 ADD MSTORE PUSH1 0x2 DUP3 ADD SLOAD DUP5 DUP5 ADD MSTORE PUSH1 0x3 DUP3 ADD SLOAD AND PUSH1 0x60 DUP5 ADD MSTORE PUSH1 0x4 DUP2 ADD DUP1 SLOAD DUP4 MLOAD DUP2 DUP8 MUL DUP2 ADD DUP8 ADD SWAP1 SWAP5 MSTORE DUP1 DUP5 MSTORE SWAP4 SWAP6 SWAP2 SWAP5 PUSH1 0x80 DUP8 ADD SWAP5 SWAP2 SWAP3 SWAP1 DUP5 ADD JUMPDEST DUP3 DUP3 LT ISZERO PUSH2 0x1A1E JUMPI DUP4 DUP3 SWAP1 PUSH1 0x0 MSTORE PUSH1 0x20 PUSH1 0x0 KECCAK256 ADD DUP1 SLOAD PUSH2 0x1991 SWAP1 PUSH2 0x4476 JUMP JUMPDEST DUP1 PUSH1 0x1F ADD PUSH1 0x20 DUP1 SWAP2 DIV MUL PUSH1 0x20 ADD PUSH1 0x40 MLOAD SWAP1 DUP2 ADD PUSH1 0x40 MSTORE DUP1 SWAP3 SWAP2 SWAP1 DUP2 DUP2 MSTORE PUSH1 0x20 ADD DUP3 DUP1 SLOAD PUSH2 0x19BD SWAP1 PUSH2 0x4476 JUMP JUMPDEST DUP1 ISZERO PUSH2 0x1A0A JUMPI DUP1 PUSH1 0x1F LT PUSH2 0x19DF JUMPI PUSH2 0x100 DUP1 DUP4 SLOAD DIV MUL DUP4 MSTORE SWAP2 PUSH1 0x20 ADD SWAP2 PUSH2 0x1A0A JUMP JUMPDEST DUP3 ADD SWAP2 SWAP1 PUSH1 0x0 MSTORE PUSH1 0x20 PUSH1 0x0 KECCAK256 SWAP1 JUMPDEST DUP2 SLOAD DUP2 MSTORE SWAP1 PUSH1 0x1 ADD SWAP1 PUSH1 0x20 ADD DUP1 DUP4 GT PUSH2 0x19ED JUMPI DUP3 SWAP1 SUB PUSH1 0x1F AND DUP3 ADD SWAP2 JUMPDEST POP POP POP POP POP DUP2 MSTORE PUSH1 0x20 ADD SWAP1 PUSH1 0x1 ADD SWAP1 PUSH2 0x1972 JUMP JUMPDEST POP POP POP SWAP1 DUP3 MSTORE POP PUSH1 0x5 DUP3 ADD SLOAD PUSH1 0x20 DUP1 DUP4 ADD SWAP2 SWAP1 SWAP2 MSTORE PUSH1 0x6 SWAP1 SWAP3 ADD SLOAD PUSH1 0xFF AND ISZERO ISZERO PUSH1 0x40 SWAP1 SWAP2 ADD MSTORE SWAP1 DUP3 MSTORE PUSH1 0x1 SWAP3 SWAP1 SWAP3 ADD SWAP2 ADD PUSH2 0x1905 JUMP JUMPDEST POP POP POP POP DUP2 MSTORE POP POP SWAP1 POP PUSH1 0x0 PUSH2 0x25E PUSH1 0x0 ADD DUP1 SLOAD DUP1 PUSH1 0x20 MUL PUSH1 0x20 ADD PUSH1 0x40 MLOAD SWAP1 DUP2 ADD PUSH1 0x40 MSTORE DUP1 SWAP3 SWAP2 SWAP1 DUP2 DUP2 MSTORE PUSH1 0x20 ADD PUSH1 0x0 SWAP1 JUMPDEST DUP3 DUP3 LT ISZERO PUSH2 0x1CBF JUMPI DUP4 DUP3 SWAP1 PUSH1 0x0 MSTORE PUSH1 0x20 PUSH1 0x0 KECCAK256 SWAP1 PUSH1 0x4 MUL ADD PUSH1 0x40 MLOAD DUP1 PUSH1 0x80 ADD PUSH1 0x40 MSTORE SWAP1 DUP2 PUSH1 0x0 DUP3 ADD DUP1 SLOAD PUSH2 0x1AB9 SWAP1 PUSH2 0x4476 JUMP JUMPDEST DUP1 PUSH1 0x1F ADD PUSH1 0x20 DUP1 SWAP2 DIV MUL PUSH1 0x20 ADD PUSH1 0x40 MLOAD SWAP1 DUP2 ADD PUSH1 0x40 MSTORE DUP1 SWAP3 SWAP2 SWAP1 DUP2 DUP2 MSTORE PUSH1 0x20 ADD DUP3 DUP1 SLOAD PUSH2 0x1AE5 SWAP1 PUSH2 0x4476 JUMP JUMPDEST DUP1 ISZERO PUSH2 0x1B32 JUMPI DUP1 PUSH1 0x1F LT PUSH2 0x1B07 JUMPI PUSH2 0x100 DUP1 DUP4 SLOAD DIV MUL DUP4 MSTORE SWAP2 PUSH1 0x20 ADD SWAP2 PUSH2 0x1B32 JUMP JUMPDEST DUP3 ADD SWAP2 SWAP1 PUSH1 0x0 MSTORE PUSH1 0x20 PUSH1 0x0 KECCAK256 SWAP1 JUMPDEST DUP2 SLOAD DUP2 MSTORE SWAP1 PUSH1 0x1 ADD SWAP1 PUSH1 0x20 ADD DUP1 DUP4 GT PUSH2 0x1B15 JUMPI DUP3 SWAP1 SUB PUSH1 0x1F AND DUP3 ADD SWAP2 JUMPDEST POP POP POP POP POP DUP2 MSTORE PUSH1 0x20 ADD PUSH1 0x1 DUP3 ADD DUP1 SLOAD DUP1 PUSH1 0x20 MUL PUSH1 0x20 ADD PUSH1 0x40 MLOAD SWAP1 DUP2 ADD PUSH1 0x40 MSTORE DUP1 SWAP3 SWAP2 SWAP1 DUP2 DUP2 MSTORE PUSH1 0x20 ADD PUSH1 0x0 SWAP1 JUMPDEST DUP3 DUP3 LT ISZERO PUSH2 0x1C0C JUMPI DUP4 DUP3 SWAP1 PUSH1 0x0 MSTORE PUSH1 0x20 PUSH1 0x0 KECCAK256 ADD DUP1 SLOAD PUSH2 0x1B7F SWAP1 PUSH2 0x4476 JUMP JUMPDEST DUP1 PUSH1 0x1F ADD PUSH1 0x20 DUP1 SWAP2 DIV MUL PUSH1 0x20 ADD PUSH1 0x40 MLOAD SWAP1 DUP2 ADD PUSH1 0x40 MSTORE DUP1 SWAP3 SWAP2 SWAP1 DUP2 DUP2 MSTORE PUSH1 0x20 ADD DUP3 DUP1 SLOAD PUSH2 0x1BAB SWAP1 PUSH2 0x4476 JUMP JUMPDEST DUP1 ISZERO PUSH2 0x1BF8 JUMPI DUP1 PUSH1 0x1F LT PUSH2 0x1BCD JUMPI PUSH2 0x100 DUP1 DUP4 SLOAD DIV MUL DUP4 MSTORE SWAP2 PUSH1 0x20 ADD SWAP2 PUSH2 0x1BF8 JUMP JUMPDEST DUP3 ADD SWAP2 SWAP1 PUSH1 0x0 MSTORE PUSH1 0x20 PUSH1 0x0 KECCAK256 SWAP1 JUMPDEST DUP2 SLOAD DUP2 MSTORE SWAP1 PUSH1 0x1 ADD SWAP1 PUSH1 0x20 ADD DUP1 DUP4 GT PUSH2 0x1BDB JUMPI DUP3 SWAP1 SUB PUSH1 0x1F AND DUP3 ADD SWAP2 JUMPDEST POP POP POP POP POP DUP2 MSTORE PUSH1 0x20 ADD SWAP1 PUSH1 0x1 ADD SWAP1 PUSH2 0x1B60 JUMP JUMPDEST POP POP POP POP DUP2 MSTORE PUSH1 0x20 ADD PUSH1 0x2 DUP3 ADD SLOAD DUP2 MSTORE PUSH1 0x20 ADD PUSH1 0x3 DUP3 ADD DUP1 SLOAD PUSH2 0x1C2E SWAP1 PUSH2 0x4476 JUMP JUMPDEST DUP1 PUSH1 0x1F ADD PUSH1 0x20 DUP1 SWAP2 DIV MUL PUSH1 0x20 ADD PUSH1 0x40 MLOAD SWAP1 DUP2 ADD PUSH1 0x40 MSTORE DUP1 SWAP3 SWAP2 SWAP1 DUP2 DUP2 MSTORE PUSH1 0x20 ADD DUP3 DUP1 SLOAD PUSH2 0x1C5A SWAP1 PUSH2 0x4476 JUMP JUMPDEST DUP1 ISZERO PUSH2 0x1CA7 JUMPI DUP1 PUSH1 0x1F LT PUSH2 0x1C7C JUMPI PUSH2 0x100 DUP1 DUP4 SLOAD DIV MUL DUP4 MSTORE SWAP2 PUSH1 0x20 ADD SWAP2 PUSH2 0x1CA7 JUMP JUMPDEST DUP3 ADD SWAP2 SWAP1 PUSH1 0x0 MSTORE PUSH1 0x20 PUSH1 0x0 KECCAK256 SWAP1 JUMPDEST DUP2 SLOAD DUP2 MSTORE SWAP1 PUSH1 0x1 ADD SWAP1 PUSH1 0x20 ADD DUP1 DUP4 GT PUSH2 0x1C8A JUMPI DUP3 SWAP1 SUB PUSH1 0x1F AND DUP3 ADD SWAP2 JUMPDEST POP POP POP POP POP DUP2 MSTORE POP POP DUP2 MSTORE PUSH1 0x20 ADD SWAP1 PUSH1 0x1 ADD SWAP1 PUSH2 0x1A86 JUMP JUMPDEST POP POP POP POP SWAP1 POP DUP2 PUSH1 0x20 ADD MLOAD MLOAD DUP2 MLOAD EQ PUSH2 0x1CD9 JUMPI SWAP4 SWAP3 POP POP POP JUMP JUMPDEST PUSH1 0x0 JUMPDEST DUP3 PUSH1 0x20 ADD MLOAD MLOAD DUP2 PUSH1 0xFF AND LT ISZERO PUSH2 0x1DDC JUMPI PUSH1 0x0 DUP4 PUSH1 0x20 ADD MLOAD DUP3 PUSH1 0xFF AND DUP2 MLOAD DUP2 LT PUSH2 0x1D07 JUMPI PUSH2 0x1D07 PUSH2 0x456F JUMP JUMPDEST PUSH1 0x20 MUL PUSH1 0x20 ADD ADD MLOAD PUSH1 0xA0 ADD MLOAD SWAP1 POP PUSH1 0x0 DUP4 DUP4 PUSH1 0xFF AND DUP2 MLOAD DUP2 LT PUSH2 0x1D2C JUMPI PUSH2 0x1D2C PUSH2 0x456F JUMP JUMPDEST PUSH1 0x20 MUL PUSH1 0x20 ADD ADD MLOAD PUSH1 0x20 ADD MLOAD MLOAD GT ISZERO PUSH2 0x1DA2 JUMPI DUP3 DUP3 PUSH1 0xFF AND DUP2 MLOAD DUP2 LT PUSH2 0x1D54 JUMPI PUSH2 0x1D54 PUSH2 0x456F JUMP JUMPDEST PUSH1 0x20 MUL PUSH1 0x20 ADD ADD MLOAD PUSH1 0x20 ADD MLOAD DUP2 DUP2 MLOAD DUP2 LT PUSH2 0x1D71 JUMPI PUSH2 0x1D71 PUSH2 0x456F JUMP JUMPDEST PUSH1 0x20 MUL PUSH1 0x20 ADD ADD MLOAD DUP4 DUP4 PUSH1 0xFF AND DUP2 MLOAD DUP2 LT PUSH2 0x1D8E JUMPI PUSH2 0x1D8E PUSH2 0x456F JUMP JUMPDEST PUSH1 0x20 MUL PUSH1 0x20 ADD ADD MLOAD PUSH1 0x60 ADD DUP2 SWAP1 MSTORE POP PUSH2 0x1DC9 JUMP JUMPDEST DUP1 DUP4 DUP4 PUSH1 0xFF AND DUP2 MLOAD DUP2 LT PUSH2 0x1DB8 JUMPI PUSH2 0x1DB8 PUSH2 0x456F JUMP JUMPDEST PUSH1 0x20 MUL PUSH1 0x20 ADD ADD MLOAD PUSH1 0x40 ADD DUP2 DUP2 MSTORE POP POP JUMPDEST POP DUP1 PUSH2 0x1DD4 DUP2 PUSH2 0x4DF9 JUMP JUMPDEST SWAP2 POP POP PUSH2 0x1CDC JUMP JUMPDEST POP SWAP4 SWAP3 POP POP POP JUMP JUMPDEST PUSH1 0x60 PUSH2 0x262 DUP1 SLOAD PUSH2 0x837 SWAP1 PUSH2 0x4476 JUMP JUMPDEST PUSH2 0x25A SLOAD PUSH1 0x1 PUSH1 0x1 PUSH1 0xA0 SHL SUB AND CALLER PUSH1 0x1 PUSH1 0x1 PUSH1 0xA0 SHL SUB AND EQ PUSH2 0x1E28 JUMPI PUSH1 0x40 MLOAD PUSH3 0x461BCD PUSH1 0xE5 SHL DUP2 MSTORE PUSH1 0x4 ADD PUSH2 0x956 SWAP1 PUSH2 0x4DCD JUMP JUMPDEST PUSH2 0x1E33 PUSH1 0x0 CALLER PUSH2 0x1888 JUMP JUMPDEST PUSH2 0x1E4F JUMPI PUSH1 0x40 MLOAD PUSH3 0x461BCD PUSH1 0xE5 SHL DUP2 MSTORE PUSH1 0x4 ADD PUSH2 0x956 SWAP1 PUSH2 0x4DCD JUMP JUMPDEST PUSH1 0x40 DUP1 MLOAD DUP1 DUP3 ADD SWAP1 SWAP2 MSTORE PUSH1 0x3 DUP2 MSTORE PUSH3 0x323033 PUSH1 0xE8 SHL PUSH1 0x20 DUP3 ADD MSTORE PUSH2 0x2710 DUP3 GT ISZERO PUSH2 0x1E8C JUMPI PUSH1 0x40 MLOAD PUSH3 0x461BCD PUSH1 0xE5 SHL DUP2 MSTORE PUSH1 0x4 ADD PUSH2 0x956 SWAP2 SWAP1 PUSH2 0x3C30 JUMP JUMPDEST POP PUSH1 0x40 DUP1 MLOAD PUSH1 0x60 DUP2 ADD DUP3 MSTORE PUSH1 0x1 PUSH1 0x1 PUSH1 0xA0 SHL SUB SWAP4 DUP5 AND DUP2 MSTORE PUSH3 0xFFFFFF SWAP3 DUP4 AND PUSH1 0x20 DUP1 DUP4 ADD SWAP2 DUP3 MSTORE PUSH1 0x1 DUP4 DUP6 ADD SWAP1 DUP2 MSTORE PUSH1 0x0 SWAP8 DUP9 MSTORE PUSH2 0x263 SWAP1 SWAP2 MSTORE SWAP3 SWAP1 SWAP6 KECCAK256 SWAP1 MLOAD DUP2 SLOAD SWAP6 MLOAD SWAP3 MLOAD SWAP5 AND PUSH1 0x1 PUSH1 0x1 PUSH1 0xB8 SHL SUB NOT SWAP1 SWAP6 AND SWAP5 SWAP1 SWAP5 OR PUSH1 0x1 PUSH1 0xA0 SHL SWAP2 SWAP1 SWAP3 AND MUL OR PUSH1 0xFF PUSH1 0xB8 SHL NOT AND PUSH1 0x1 PUSH1 0xB8 SHL SWAP2 ISZERO ISZERO SWAP2 SWAP1 SWAP2 MUL OR SWAP1 SSTORE JUMP JUMPDEST PUSH2 0xC44 CALLER DUP4 DUP4 PUSH2 0x2B86 JUMP JUMPDEST PUSH1 0x0 SLOAD PUSH2 0x100 SWAP1 DIV PUSH1 0xFF AND ISZERO DUP1 DUP1 ISZERO PUSH2 0x1F32 JUMPI POP PUSH1 0x0 SLOAD PUSH1 0x1 PUSH1 0xFF SWAP1 SWAP2 AND LT JUMPDEST DUP1 PUSH2 0x1F4C JUMPI POP ADDRESS EXTCODESIZE ISZERO DUP1 ISZERO PUSH2 0x1F4C JUMPI POP PUSH1 0x0 SLOAD PUSH1 0xFF AND PUSH1 0x1 EQ JUMPDEST PUSH2 0x1F68 JUMPI PUSH1 0x40 MLOAD PUSH3 0x461BCD PUSH1 0xE5 SHL DUP2 MSTORE PUSH1 0x4 ADD PUSH2 0x956 SWAP1 PUSH2 0x4585 JUMP JUMPDEST PUSH1 0x0 DUP1 SLOAD PUSH1 0xFF NOT AND PUSH1 0x1 OR SWAP1 SSTORE DUP1 ISZERO PUSH2 0x1F8B JUMPI PUSH1 0x0 DUP1 SLOAD PUSH2 0xFF00 NOT AND PUSH2 0x100 OR SWAP1 SSTORE JUMPDEST PUSH2 0x1F96 DUP5 DUP5 DUP5 PUSH2 0x29D4 JUMP JUMPDEST DUP1 ISZERO PUSH2 0xCC0 JUMPI PUSH1 0x0 DUP1 SLOAD PUSH2 0xFF00 NOT AND SWAP1 SSTORE PUSH1 0x40 MLOAD PUSH1 0x1 DUP2 MSTORE PUSH32 0x7F26B83FF96E1F2B6A682F133852F6798A09C465DA95921460CEFB3847402498 SWAP1 PUSH1 0x20 ADD PUSH1 0x40 MLOAD DUP1 SWAP2 SUB SWAP1 LOG1 POP POP POP POP JUMP JUMPDEST PUSH1 0x1 PUSH1 0x1 PUSH1 0xA0 SHL SUB DUP3 AND PUSH2 0x2007 JUMPI PUSH1 0x40 MLOAD PUSH3 0x461BCD PUSH1 0xE5 SHL DUP2 MSTORE PUSH1 0x4 ADD PUSH2 0x956 SWAP1 PUSH2 0x4E19 JUMP JUMPDEST PUSH1 0x1 PUSH1 0x1 PUSH1 0xA0 SHL SUB DUP4 AND PUSH2 0x202D JUMPI PUSH1 0x40 MLOAD PUSH3 0x461BCD PUSH1 0xE5 SHL DUP2 MSTORE PUSH1 0x4 ADD PUSH2 0x956 SWAP1 PUSH2 0x4E19 JUMP JUMPDEST PUSH2 0x25C SLOAD ISZERO PUSH2 0x2068 JUMPI PUSH1 0x40 MLOAD PUSH3 0x461BCD PUSH1 0xE5 SHL DUP2 MSTORE PUSH1 0x20 PUSH1 0x4 DUP3 ADD MSTORE PUSH1 0x7 PUSH1 0x24 DUP3 ADD MSTORE PUSH7 0x11561254D51151 PUSH1 0xCA SHL PUSH1 0x44 DUP3 ADD MSTORE PUSH1 0x64 ADD PUSH2 0x956 JUMP JUMPDEST DUP5 MLOAD PUSH2 0x207C SWAP1 PUSH2 0x261 SWAP1 PUSH1 0x20 DUP9 ADD SWAP1 PUSH2 0x3B0C JUMP JUMPDEST POP DUP4 MLOAD PUSH2 0x2091 SWAP1 PUSH2 0x262 SWAP1 PUSH1 0x20 DUP8 ADD SWAP1 PUSH2 0x3B0C JUMP JUMPDEST POP PUSH2 0x25B DUP1 SLOAD PUSH1 0x1 PUSH1 0x1 PUSH1 0xA0 SHL SUB NOT AND PUSH1 0x1 PUSH1 0x1 PUSH1 0xA0 SHL SUB DUP5 AND OR SWAP1 SSTORE PUSH2 0x25C DUP2 SWAP1 SSTORE PUSH2 0x20BD DUP4 PUSH2 0x2C55 JUMP JUMPDEST PUSH2 0xF1E DUP4 PUSH2 0x24FE JUMP JUMPDEST PUSH2 0x20D0 CALLER DUP4 PUSH2 0x2666 JUMP JUMPDEST PUSH2 0x20EC JUMPI PUSH1 0x40 MLOAD PUSH3 0x461BCD PUSH1 0xE5 SHL DUP2 MSTORE PUSH1 0x4 ADD PUSH2 0x956 SWAP1 PUSH2 0x44D8 JUMP JUMPDEST PUSH2 0xCC0 DUP5 DUP5 DUP5 DUP5 PUSH2 0x2D45 JUMP JUMPDEST PUSH1 0x0 DUP2 DUP2 MSTORE PUSH2 0x25D PUSH1 0x20 SWAP1 DUP2 MSTORE PUSH1 0x40 DUP1 DUP4 KECCAK256 DUP1 SLOAD PUSH1 0x1 SWAP1 SWAP2 ADD DUP1 SLOAD DUP4 MLOAD DUP2 DUP7 MUL DUP2 ADD DUP7 ADD SWAP1 SWAP5 MSTORE DUP1 DUP5 MSTORE PUSH1 0x60 SWAP5 SWAP3 SWAP4 SWAP2 SWAP3 DUP4 SWAP2 SWAP1 DUP8 SWAP1 DUP5 ADD JUMPDEST DUP3 DUP3 LT ISZERO PUSH2 0x2280 JUMPI PUSH1 0x0 DUP5 DUP2 MSTORE PUSH1 0x20 DUP1 DUP3 KECCAK256 PUSH1 0x40 DUP1 MLOAD PUSH1 0xE0 DUP2 ADD DUP3 MSTORE PUSH1 0x7 DUP8 MUL SWAP1 SWAP3 ADD DUP1 SLOAD PUSH1 0xFF SWAP1 DUP2 AND DUP5 MSTORE PUSH1 0x1 DUP3 ADD SLOAD DUP5 DUP7 ADD MSTORE PUSH1 0x2 DUP3 ADD SLOAD DUP5 DUP5 ADD MSTORE PUSH1 0x3 DUP3 ADD SLOAD AND PUSH1 0x60 DUP5 ADD MSTORE PUSH1 0x4 DUP2 ADD DUP1 SLOAD DUP4 MLOAD DUP2 DUP8 MUL DUP2 ADD DUP8 ADD SWAP1 SWAP5 MSTORE DUP1 DUP5 MSTORE SWAP4 SWAP6 SWAP2 SWAP5 PUSH1 0x80 DUP8 ADD SWAP5 SWAP2 SWAP3 SWAP1 DUP5 ADD JUMPDEST DUP3 DUP3 LT ISZERO PUSH2 0x224A JUMPI DUP4 DUP3 SWAP1 PUSH1 0x0 MSTORE PUSH1 0x20 PUSH1 0x0 KECCAK256 ADD DUP1 SLOAD PUSH2 0x21BD SWAP1 PUSH2 0x4476 JUMP JUMPDEST DUP1 PUSH1 0x1F ADD PUSH1 0x20 DUP1 SWAP2 DIV MUL PUSH1 0x20 ADD PUSH1 0x40 MLOAD SWAP1 DUP2 ADD PUSH1 0x40 MSTORE DUP1 SWAP3 SWAP2 SWAP1 DUP2 DUP2 MSTORE PUSH1 0x20 ADD DUP3 DUP1 SLOAD PUSH2 0x21E9 SWAP1 PUSH2 0x4476 JUMP JUMPDEST DUP1 ISZERO PUSH2 0x2236 JUMPI DUP1 PUSH1 0x1F LT PUSH2 0x220B JUMPI PUSH2 0x100 DUP1 DUP4 SLOAD DIV MUL DUP4 MSTORE SWAP2 PUSH1 0x20 ADD SWAP2 PUSH2 0x2236 JUMP JUMPDEST DUP3 ADD SWAP2 SWAP1 PUSH1 0x0 MSTORE PUSH1 0x20 PUSH1 0x0 KECCAK256 SWAP1 JUMPDEST DUP2 SLOAD DUP2 MSTORE SWAP1 PUSH1 0x1 ADD SWAP1 PUSH1 0x20 ADD DUP1 DUP4 GT PUSH2 0x2219 JUMPI DUP3 SWAP1 SUB PUSH1 0x1F AND DUP3 ADD SWAP2 JUMPDEST POP POP POP POP POP DUP2 MSTORE PUSH1 0x20 ADD SWAP1 PUSH1 0x1 ADD SWAP1 PUSH2 0x219E JUMP JUMPDEST POP POP POP SWAP1 DUP3 MSTORE POP PUSH1 0x5 DUP3 ADD SLOAD PUSH1 0x20 DUP1 DUP4 ADD SWAP2 SWAP1 SWAP2 MSTORE PUSH1 0x6 SWAP1 SWAP3 ADD SLOAD PUSH1 0xFF AND ISZERO ISZERO PUSH1 0x40 SWAP1 SWAP2 ADD MSTORE SWAP1 DUP3 MSTORE PUSH1 0x1 SWAP3 SWAP1 SWAP3 ADD SWAP2 ADD PUSH2 0x2131 JUMP JUMPDEST POP POP POP POP SWAP1 POP SWAP2 POP SWAP2 POP SWAP2 POP SWAP2 JUMP JUMPDEST PUSH1 0x0 DUP2 DUP2 MSTORE PUSH2 0x25F PUSH1 0x20 MSTORE PUSH1 0x40 DUP2 KECCAK256 DUP1 SLOAD PUSH1 0x60 SWAP3 SWAP2 SWAP1 PUSH2 0x22AE SWAP1 PUSH2 0x4476 JUMP JUMPDEST DUP1 PUSH1 0x1F ADD PUSH1 0x20 DUP1 SWAP2 DIV MUL PUSH1 0x20 ADD PUSH1 0x40 MLOAD SWAP1 DUP2 ADD PUSH1 0x40 MSTORE DUP1 SWAP3 SWAP2 SWAP1 DUP2 DUP2 MSTORE PUSH1 0x20 ADD DUP3 DUP1 SLOAD PUSH2 0x22DA SWAP1 PUSH2 0x4476 JUMP JUMPDEST DUP1 ISZERO PUSH2 0x2327 JUMPI DUP1 PUSH1 0x1F LT PUSH2 0x22FC JUMPI PUSH2 0x100 DUP1 DUP4 SLOAD DIV MUL DUP4 MSTORE SWAP2 PUSH1 0x20 ADD SWAP2 PUSH2 0x2327 JUMP JUMPDEST DUP3 ADD SWAP2 SWAP1 PUSH1 0x0 MSTORE PUSH1 0x20 PUSH1 0x0 KECCAK256 SWAP1 JUMPDEST DUP2 SLOAD DUP2 MSTORE SWAP1 PUSH1 0x1 ADD SWAP1 PUSH1 0x20 ADD DUP1 DUP4 GT PUSH2 0x230A JUMPI DUP3 SWAP1 SUB PUSH1 0x1F AND DUP3 ADD SWAP2 JUMPDEST POP POP POP POP POP SWAP1 POP PUSH1 0x0 DUP2 MLOAD GT ISZERO PUSH2 0x23D8 JUMPI PUSH1 0x0 DUP4 DUP2 MSTORE PUSH2 0x25F PUSH1 0x20 MSTORE PUSH1 0x40 SWAP1 KECCAK256 DUP1 SLOAD PUSH2 0x2352 SWAP1 PUSH2 0x4476 JUMP JUMPDEST DUP1 PUSH1 0x1F ADD PUSH1 0x20 DUP1 SWAP2 DIV MUL PUSH1 0x20 ADD PUSH1 0x40 MLOAD SWAP1 DUP2 ADD PUSH1 0x40 MSTORE DUP1 SWAP3 SWAP2 SWAP1 DUP2 DUP2 MSTORE PUSH1 0x20 ADD DUP3 DUP1 SLOAD PUSH2 0x237E SWAP1 PUSH2 0x4476 JUMP JUMPDEST DUP1 ISZERO PUSH2 0x23CB JUMPI DUP1 PUSH1 0x1F LT PUSH2 0x23A0 JUMPI PUSH2 0x100 DUP1 DUP4 SLOAD DIV MUL DUP4 MSTORE SWAP2 PUSH1 0x20 ADD SWAP2 PUSH2 0x23CB JUMP JUMPDEST DUP3 ADD SWAP2 SWAP1 PUSH1 0x0 MSTORE PUSH1 0x20 PUSH1 0x0 KECCAK256 SWAP1 JUMPDEST DUP2 SLOAD DUP2 MSTORE SWAP1 PUSH1 0x1 ADD SWAP1 PUSH1 0x20 ADD DUP1 DUP4 GT PUSH2 0x23AE JUMPI DUP3 SWAP1 SUB PUSH1 0x1F AND DUP3 ADD SWAP2 JUMPDEST POP POP POP POP POP SWAP2 POP POP SWAP2 SWAP1 POP JUMP JUMPDEST PUSH2 0x23E0 PUSH2 0x24F4 JUMP JUMPDEST PUSH2 0x23E9 DUP5 PUSH2 0x2D78 JUMP JUMPDEST PUSH1 0x40 MLOAD PUSH1 0x20 ADD PUSH2 0x23FA SWAP3 SWAP2 SWAP1 PUSH2 0x4E3A JUMP JUMPDEST PUSH1 0x40 MLOAD PUSH1 0x20 DUP2 DUP4 SUB SUB DUP2 MSTORE SWAP1 PUSH1 0x40 MSTORE SWAP2 POP POP SWAP2 SWAP1 POP JUMP JUMPDEST POP SWAP2 SWAP1 POP JUMP JUMPDEST PUSH1 0x0 DUP2 DUP2 MSTORE PUSH1 0x97 PUSH1 0x20 MSTORE PUSH1 0x40 DUP2 KECCAK256 PUSH2 0x821 SWAP1 PUSH2 0x2E75 JUMP JUMPDEST PUSH1 0x40 DUP1 MLOAD DUP1 DUP3 ADD SWAP1 SWAP2 MSTORE PUSH1 0x3 DUP2 MSTORE PUSH3 0x31303 PUSH1 0xEC SHL PUSH1 0x20 DUP3 ADD MSTORE PUSH1 0x1 PUSH1 0x1 PUSH1 0xA0 SHL SUB DUP4 AND PUSH2 0x246F JUMPI PUSH1 0x40 MLOAD PUSH3 0x461BCD PUSH1 0xE5 SHL DUP2 MSTORE PUSH1 0x4 ADD PUSH2 0x956 SWAP2 SWAP1 PUSH2 0x3C30 JUMP JUMPDEST POP PUSH2 0x2488 PUSH1 0x0 DUP1 MLOAD PUSH1 0x20 PUSH2 0x504F DUP4 CODECOPY DUP2 MLOAD SWAP2 MSTORE DUP4 PUSH2 0x2896 JUMP JUMPDEST PUSH1 0x0 JUMPDEST DUP2 MLOAD DUP2 LT ISZERO PUSH2 0x9F7 JUMPI PUSH1 0x0 DUP3 DUP3 DUP2 MLOAD DUP2 LT PUSH2 0x24A8 JUMPI PUSH2 0x24A8 PUSH2 0x456F JUMP JUMPDEST PUSH1 0x20 MUL PUSH1 0x20 ADD ADD MLOAD SWAP1 POP PUSH2 0x24BC DUP5 DUP3 PUSH2 0x2E7F JUMP JUMPDEST POP DUP1 PUSH2 0x24C7 DUP2 PUSH2 0x477D JUMP JUMPDEST SWAP2 POP POP PUSH2 0x248B JUMP JUMPDEST PUSH1 0x0 DUP3 DUP2 MSTORE PUSH1 0x65 PUSH1 0x20 MSTORE PUSH1 0x40 SWAP1 KECCAK256 PUSH1 0x1 ADD SLOAD PUSH2 0x24EA DUP2 PUSH2 0x288C JUMP JUMPDEST PUSH2 0x9F7 DUP4 DUP4 PUSH2 0x28B8 JUMP JUMPDEST PUSH1 0x60 PUSH2 0xA14 PUSH2 0x2F07 JUMP JUMPDEST PUSH2 0x2506 PUSH2 0x2A18 JUMP JUMPDEST PUSH1 0x1 PUSH1 0x1 PUSH1 0xA0 SHL SUB DUP2 AND PUSH2 0x256B JUMPI PUSH1 0x40 MLOAD PUSH3 0x461BCD PUSH1 0xE5 SHL DUP2 MSTORE PUSH1 0x20 PUSH1 0x4 DUP3 ADD MSTORE PUSH1 0x26 PUSH1 0x24 DUP3 ADD MSTORE PUSH32 0x4F776E61626C653A206E6577206F776E657220697320746865207A65726F2061 PUSH1 0x44 DUP3 ADD MSTORE PUSH6 0x646472657373 PUSH1 0xD0 SHL PUSH1 0x64 DUP3 ADD MSTORE PUSH1 0x84 ADD PUSH2 0x956 JUMP JUMPDEST PUSH2 0x557 DUP2 PUSH2 0x2A98 JUMP JUMPDEST PUSH1 0x0 PUSH1 0x1 PUSH1 0x1 PUSH1 0xE0 SHL SUB NOT DUP3 AND PUSH4 0x780E9D63 PUSH1 0xE0 SHL EQ DUP1 PUSH2 0x821 JUMPI POP PUSH2 0x821 DUP3 PUSH2 0x2F17 JUMP JUMPDEST PUSH1 0x0 DUP2 DUP2 MSTORE PUSH1 0xCB PUSH1 0x20 MSTORE PUSH1 0x40 SWAP1 KECCAK256 SLOAD PUSH1 0x1 PUSH1 0x1 PUSH1 0xA0 SHL SUB AND PUSH2 0x557 JUMPI PUSH1 0x40 MLOAD PUSH3 0x461BCD PUSH1 0xE5 SHL DUP2 MSTORE PUSH1 0x20 PUSH1 0x4 DUP3 ADD MSTORE PUSH1 0x18 PUSH1 0x24 DUP3 ADD MSTORE PUSH24 0x115490CDCC8C4E881A5B9D985B1A59081D1BDAD95B881251 PUSH1 0x42 SHL PUSH1 0x44 DUP3 ADD MSTORE PUSH1 0x64 ADD PUSH2 0x956 JUMP JUMPDEST PUSH1 0x0 DUP2 DUP2 MSTORE PUSH1 0xCD PUSH1 0x20 MSTORE PUSH1 0x40 SWAP1 KECCAK256 DUP1 SLOAD PUSH1 0x1 PUSH1 0x1 PUSH1 0xA0 SHL SUB NOT AND PUSH1 0x1 PUSH1 0x1 PUSH1 0xA0 SHL SUB DUP5 AND SWAP1 DUP2 OR SWAP1 SWAP2 SSTORE DUP2 SWAP1 PUSH2 0x262D DUP3 PUSH2 0xF25 JUMP JUMPDEST PUSH1 0x1 PUSH1 0x1 PUSH1 0xA0 SHL SUB AND PUSH32 0x8C5BE1E5EBEC7D5BD14F71427D1E84F3DD0314C0F7B2291E5B200AC8C7C3B925 PUSH1 0x40 MLOAD PUSH1 0x40 MLOAD DUP1 SWAP2 SUB SWAP1 LOG4 POP POP JUMP JUMPDEST PUSH1 0x0 DUP1 PUSH2 0x2672 DUP4 PUSH2 0xF25 JUMP JUMPDEST SWAP1 POP DUP1 PUSH1 0x1 PUSH1 0x1 PUSH1 0xA0 SHL SUB AND DUP5 PUSH1 0x1 PUSH1 0x1 PUSH1 0xA0 SHL SUB AND EQ DUP1 PUSH2 0x26B9 JUMPI POP PUSH1 0x1 PUSH1 0x1 PUSH1 0xA0 SHL SUB DUP1 DUP3 AND PUSH1 0x0 SWAP1 DUP2 MSTORE PUSH1 0xCE PUSH1 0x20 SWAP1 DUP2 MSTORE PUSH1 0x40 DUP1 DUP4 KECCAK256 SWAP4 DUP9 AND DUP4 MSTORE SWAP3 SWAP1 MSTORE KECCAK256 SLOAD PUSH1 0xFF AND JUMPDEST DUP1 PUSH2 0x26DD JUMPI POP DUP4 PUSH1 0x1 PUSH1 0x1 PUSH1 0xA0 SHL SUB AND PUSH2 0x26D2 DUP5 PUSH2 0x8BA JUMP JUMPDEST PUSH1 0x1 PUSH1 0x1 PUSH1 0xA0 SHL SUB AND EQ JUMPDEST SWAP5 SWAP4 POP POP POP POP JUMP JUMPDEST DUP3 PUSH1 0x1 PUSH1 0x1 PUSH1 0xA0 SHL SUB AND PUSH2 0x26F8 DUP3 PUSH2 0xF25 JUMP JUMPDEST PUSH1 0x1 PUSH1 0x1 PUSH1 0xA0 SHL SUB AND EQ PUSH2 0x275C JUMPI PUSH1 0x40 MLOAD PUSH3 0x461BCD PUSH1 0xE5 SHL DUP2 MSTORE PUSH1 0x20 PUSH1 0x4 DUP3 ADD MSTORE PUSH1 0x25 PUSH1 0x24 DUP3 ADD MSTORE PUSH32 0x4552433732313A207472616E736665722066726F6D20696E636F727265637420 PUSH1 0x44 DUP3 ADD MSTORE PUSH5 0x37BBB732B9 PUSH1 0xD9 SHL PUSH1 0x64 DUP3 ADD MSTORE PUSH1 0x84 ADD PUSH2 0x956 JUMP JUMPDEST PUSH1 0x1 PUSH1 0x1 PUSH1 0xA0 SHL SUB DUP3 AND PUSH2 0x27BE JUMPI PUSH1 0x40 MLOAD PUSH3 0x461BCD PUSH1 0xE5 SHL DUP2 MSTORE PUSH1 0x20 PUSH1 0x4 DUP3 ADD MSTORE PUSH1 0x24 DUP1 DUP3 ADD MSTORE PUSH32 0x4552433732313A207472616E7366657220746F20746865207A65726F20616464 PUSH1 0x44 DUP3 ADD MSTORE PUSH4 0x72657373 PUSH1 0xE0 SHL PUSH1 0x64 DUP3 ADD MSTORE PUSH1 0x84 ADD PUSH2 0x956 JUMP JUMPDEST PUSH2 0x27C9 DUP4 DUP4 DUP4 PUSH2 0x2F57 JUMP JUMPDEST PUSH2 0x27D4 PUSH1 0x0 DUP3 PUSH2 0x25F8 JUMP JUMPDEST PUSH1 0x1 PUSH1 0x1 PUSH1 0xA0 SHL SUB DUP4 AND PUSH1 0x0 SWAP1 DUP2 MSTORE PUSH1 0xCC PUSH1 0x20 MSTORE PUSH1 0x40 DUP2 KECCAK256 DUP1 SLOAD PUSH1 0x1 SWAP3 SWAP1 PUSH2 0x27FD SWAP1 DUP5 SWAP1 PUSH2 0x44C1 JUMP JUMPDEST SWAP1 SWAP2 SSTORE POP POP PUSH1 0x1 PUSH1 0x1 PUSH1 0xA0 SHL SUB DUP3 AND PUSH1 0x0 SWAP1 DUP2 MSTORE PUSH1 0xCC PUSH1 0x20 MSTORE PUSH1 0x40 DUP2 KECCAK256 DUP1 SLOAD PUSH1 0x1 SWAP3 SWAP1 PUSH2 0x282B SWAP1 DUP5 SWAP1 PUSH2 0x4E69 JUMP JUMPDEST SWAP1 SWAP2 SSTORE POP POP PUSH1 0x0 DUP2 DUP2 MSTORE PUSH1 0xCB PUSH1 0x20 MSTORE PUSH1 0x40 DUP1 DUP3 KECCAK256 DUP1 SLOAD PUSH1 0x1 PUSH1 0x1 PUSH1 0xA0 SHL SUB NOT AND PUSH1 0x1 PUSH1 0x1 PUSH1 0xA0 SHL SUB DUP7 DUP2 AND SWAP2 DUP3 OR SWAP1 SWAP3 SSTORE SWAP2 MLOAD DUP5 SWAP4 SWAP2 DUP8 AND SWAP2 PUSH32 0xDDF252AD1BE2C89B69C2B068FC378DAA952BA7F163C4A11628F55A4DF523B3EF SWAP2 LOG4 POP POP POP JUMP JUMPDEST PUSH2 0x557 DUP2 CALLER PUSH2 0x2F62 JUMP JUMPDEST PUSH2 0x28A0 DUP3 DUP3 PUSH2 0x2FC6 JUMP JUMPDEST PUSH1 0x0 DUP3 DUP2 MSTORE PUSH1 0x97 PUSH1 0x20 MSTORE PUSH1 0x40 SWAP1 KECCAK256 PUSH2 0x9F7 SWAP1 DUP3 PUSH2 0x304C JUMP JUMPDEST PUSH2 0x28C2 DUP3 DUP3 PUSH2 0x3061 JUMP JUMPDEST PUSH1 0x0 DUP3 DUP2 MSTORE PUSH1 0x97 PUSH1 0x20 MSTORE PUSH1 0x40 SWAP1 KECCAK256 PUSH2 0x9F7 SWAP1 DUP3 PUSH2 0x30C8 JUMP JUMPDEST PUSH2 0x28E2 PUSH2 0x30DD JUMP JUMPDEST PUSH2 0x15F DUP1 SLOAD PUSH1 0xFF NOT AND SWAP1 SSTORE PUSH32 0x5DB9EE0A495BF2E6FF9C91A7834C1BA4FDD244A5E8AA4E537BD38AEAE4B073AA CALLER JUMPDEST PUSH1 0x40 MLOAD PUSH1 0x1 PUSH1 0x1 PUSH1 0xA0 SHL SUB SWAP1 SWAP2 AND DUP2 MSTORE PUSH1 0x20 ADD PUSH1 0x40 MLOAD DUP1 SWAP2 SUB SWAP1 LOG1 JUMP JUMPDEST PUSH1 0x0 PUSH2 0x2938 DUP3 PUSH2 0xF25 JUMP JUMPDEST SWAP1 POP PUSH2 0x2946 DUP2 PUSH1 0x0 DUP5 PUSH2 0x2F57 JUMP JUMPDEST PUSH2 0x2951 PUSH1 0x0 DUP4 PUSH2 0x25F8 JUMP JUMPDEST PUSH1 0x1 PUSH1 0x1 PUSH1 0xA0 SHL SUB DUP2 AND PUSH1 0x0 SWAP1 DUP2 MSTORE PUSH1 0xCC PUSH1 0x20 MSTORE PUSH1 0x40 DUP2 KECCAK256 DUP1 SLOAD PUSH1 0x1 SWAP3 SWAP1 PUSH2 0x297A SWAP1 DUP5 SWAP1 PUSH2 0x44C1 JUMP JUMPDEST SWAP1 SWAP2 SSTORE POP POP PUSH1 0x0 DUP3 DUP2 MSTORE PUSH1 0xCB PUSH1 0x20 MSTORE PUSH1 0x40 DUP1 DUP3 KECCAK256 DUP1 SLOAD PUSH1 0x1 PUSH1 0x1 PUSH1 0xA0 SHL SUB NOT AND SWAP1 SSTORE MLOAD DUP4 SWAP2 SWAP1 PUSH1 0x1 PUSH1 0x1 PUSH1 0xA0 SHL SUB DUP5 AND SWAP1 PUSH32 0xDDF252AD1BE2C89B69C2B068FC378DAA952BA7F163C4A11628F55A4DF523B3EF SWAP1 DUP4 SWAP1 LOG4 POP POP JUMP JUMPDEST PUSH1 0x0 SLOAD PUSH2 0x100 SWAP1 DIV PUSH1 0xFF AND PUSH2 0x29FB JUMPI PUSH1 0x40 MLOAD PUSH3 0x461BCD PUSH1 0xE5 SHL DUP2 MSTORE PUSH1 0x4 ADD PUSH2 0x956 SWAP1 PUSH2 0x4E81 JUMP JUMPDEST PUSH2 0x2A05 DUP4 DUP4 PUSH2 0x3127 JUMP JUMPDEST PUSH2 0x2A0D PUSH2 0x3175 JUMP JUMPDEST PUSH2 0x9F7 DUP4 DUP4 DUP4 PUSH2 0x31A9 JUMP JUMPDEST CALLER PUSH2 0x2A2C PUSH2 0x25A SLOAD PUSH1 0x1 PUSH1 0x1 PUSH1 0xA0 SHL SUB AND SWAP1 JUMP JUMPDEST PUSH1 0x1 PUSH1 0x1 PUSH1 0xA0 SHL SUB AND EQ DUP1 PUSH2 0x2A4C JUMPI POP PUSH2 0x25B SLOAD PUSH1 0x1 PUSH1 0x1 PUSH1 0xA0 SHL SUB AND CALLER EQ JUMPDEST PUSH2 0xD5A JUMPI PUSH1 0x40 MLOAD PUSH3 0x461BCD PUSH1 0xE5 SHL DUP2 MSTORE PUSH1 0x20 PUSH1 0x4 DUP3 ADD DUP2 SWAP1 MSTORE PUSH1 0x24 DUP3 ADD MSTORE PUSH32 0x4F776E61626C653A2063616C6C6572206973206E6F7420746865206F776E6572 PUSH1 0x44 DUP3 ADD MSTORE PUSH1 0x64 ADD PUSH2 0x956 JUMP JUMPDEST PUSH2 0x227 DUP1 SLOAD PUSH1 0x1 PUSH1 0x1 PUSH1 0xA0 SHL SUB DUP4 DUP2 AND PUSH1 0x1 PUSH1 0x1 PUSH1 0xA0 SHL SUB NOT DUP4 AND DUP2 OR SWAP1 SWAP4 SSTORE PUSH1 0x40 MLOAD SWAP2 AND SWAP2 SWAP1 DUP3 SWAP1 PUSH32 0x8BE0079C531659141344CD1FD0A4F28419497F9722A3DAAFE3B4186F6B6457E0 SWAP1 PUSH1 0x0 SWAP1 LOG3 POP POP JUMP JUMPDEST PUSH1 0x0 PUSH2 0x2AF7 DUP4 DUP4 PUSH2 0x44C1 JUMP JUMPDEST PUSH2 0x2B02 SWAP1 PUSH1 0x1 PUSH2 0x4E69 JUMP JUMPDEST PUSH2 0x2B0C SWAP1 DUP6 PUSH2 0x4ECC JUMP JUMPDEST PUSH2 0x26DD SWAP1 DUP5 PUSH2 0x4E69 JUMP JUMPDEST PUSH1 0x0 PUSH2 0x1881 DUP3 DUP5 PUSH2 0x4ECC JUMP JUMPDEST PUSH2 0xC44 DUP3 DUP3 PUSH1 0x40 MLOAD DUP1 PUSH1 0x20 ADD PUSH1 0x40 MSTORE DUP1 PUSH1 0x0 DUP2 MSTORE POP PUSH2 0x3220 JUMP JUMPDEST PUSH2 0x2B44 PUSH2 0x3253 JUMP JUMPDEST PUSH2 0x15F DUP1 SLOAD PUSH1 0xFF NOT AND PUSH1 0x1 OR SWAP1 SSTORE PUSH32 0x62E78CEA01BEE320CD4E420270B5EA74000D11B0C9F74754EBDBFC544B05A258 PUSH2 0x2910 CALLER SWAP1 JUMP JUMPDEST PUSH1 0x0 PUSH2 0x1881 DUP4 DUP4 PUSH2 0x329A JUMP JUMPDEST DUP2 PUSH1 0x1 PUSH1 0x1 PUSH1 0xA0 SHL SUB AND DUP4 PUSH1 0x1 PUSH1 0x1 PUSH1 0xA0 SHL SUB AND EQ ISZERO PUSH2 0x2BE8 JUMPI PUSH1 0x40 MLOAD PUSH3 0x461BCD PUSH1 0xE5 SHL DUP2 MSTORE PUSH1 0x20 PUSH1 0x4 DUP3 ADD MSTORE PUSH1 0x19 PUSH1 0x24 DUP3 ADD MSTORE PUSH32 0x4552433732313A20617070726F766520746F2063616C6C657200000000000000 PUSH1 0x44 DUP3 ADD MSTORE PUSH1 0x64 ADD PUSH2 0x956 JUMP JUMPDEST PUSH1 0x1 PUSH1 0x1 PUSH1 0xA0 SHL SUB DUP4 DUP2 AND PUSH1 0x0 DUP2 DUP2 MSTORE PUSH1 0xCE PUSH1 0x20 SWAP1 DUP2 MSTORE PUSH1 0x40 DUP1 DUP4 KECCAK256 SWAP5 DUP8 AND DUP1 DUP5 MSTORE SWAP5 DUP3 MSTORE SWAP2 DUP3 SWAP1 KECCAK256 DUP1 SLOAD PUSH1 0xFF NOT AND DUP7 ISZERO ISZERO SWAP1 DUP2 OR SWAP1 SWAP2 SSTORE SWAP2 MLOAD SWAP2 DUP3 MSTORE PUSH32 0x17307EAB39AB6107E8899845AD3D59BD9653F200F220920489CA2B5937696C31 SWAP2 ADD PUSH1 0x40 MLOAD DUP1 SWAP2 SUB SWAP1 LOG3 POP POP POP JUMP JUMPDEST PUSH2 0x25B SLOAD PUSH1 0x1 PUSH1 0x1 PUSH1 0xA0 SHL SUB AND CALLER EQ PUSH2 0x2CA8 JUMPI PUSH1 0x40 MLOAD PUSH3 0x461BCD PUSH1 0xE5 SHL DUP2 MSTORE PUSH1 0x20 PUSH1 0x4 DUP3 ADD MSTORE PUSH1 0x15 PUSH1 0x24 DUP3 ADD MSTORE PUSH21 0x24A72B2FA9A2A72222A92FA4A724AA2FA0A226A4A7 PUSH1 0x59 SHL PUSH1 0x44 DUP3 ADD MSTORE PUSH1 0x64 ADD PUSH2 0x956 JUMP JUMPDEST PUSH1 0x1 PUSH1 0x1 PUSH1 0xA0 SHL SUB DUP2 AND PUSH2 0x2CCE JUMPI PUSH1 0x40 MLOAD PUSH3 0x461BCD PUSH1 0xE5 SHL DUP2 MSTORE PUSH1 0x4 ADD PUSH2 0x956 SWAP1 PUSH2 0x4E19 JUMP JUMPDEST PUSH2 0x25A DUP1 SLOAD PUSH1 0x1 PUSH1 0x1 PUSH1 0xA0 SHL SUB NOT AND PUSH1 0x1 PUSH1 0x1 PUSH1 0xA0 SHL SUB DUP4 AND SWAP1 DUP2 OR SWAP1 SWAP2 SSTORE PUSH2 0x2CF9 SWAP1 PUSH1 0x0 SWAP1 PUSH2 0x2896 JUMP JUMPDEST PUSH2 0x25A SLOAD PUSH2 0x2D1F SWAP1 PUSH1 0x0 DUP1 MLOAD PUSH1 0x20 PUSH2 0x504F DUP4 CODECOPY DUP2 MLOAD SWAP2 MSTORE SWAP1 PUSH1 0x1 PUSH1 0x1 PUSH1 0xA0 SHL SUB AND PUSH2 0x2896 JUMP JUMPDEST PUSH2 0x25A SLOAD PUSH2 0x557 SWAP1 PUSH1 0x0 DUP1 MLOAD PUSH1 0x20 PUSH2 0x502F DUP4 CODECOPY DUP2 MLOAD SWAP2 MSTORE SWAP1 PUSH1 0x1 PUSH1 0x1 PUSH1 0xA0 SHL SUB AND PUSH2 0x2896 JUMP JUMPDEST PUSH2 0x2D50 DUP5 DUP5 DUP5 PUSH2 0x26E5 JUMP JUMPDEST PUSH2 0x2D5C DUP5 DUP5 DUP5 DUP5 PUSH2 0x32C4 JUMP JUMPDEST PUSH2 0xCC0 JUMPI PUSH1 0x40 MLOAD PUSH3 0x461BCD PUSH1 0xE5 SHL DUP2 MSTORE PUSH1 0x4 ADD PUSH2 0x956 SWAP1 PUSH2 0x4EE0 JUMP JUMPDEST PUSH1 0x60 DUP2 PUSH2 0x2D9C JUMPI POP POP PUSH1 0x40 DUP1 MLOAD DUP1 DUP3 ADD SWAP1 SWAP2 MSTORE PUSH1 0x1 DUP2 MSTORE PUSH1 0x3 PUSH1 0xFC SHL PUSH1 0x20 DUP3 ADD MSTORE SWAP1 JUMP JUMPDEST DUP2 PUSH1 0x0 JUMPDEST DUP2 ISZERO PUSH2 0x2DC6 JUMPI DUP1 PUSH2 0x2DB0 DUP2 PUSH2 0x477D JUMP JUMPDEST SWAP2 POP PUSH2 0x2DBF SWAP1 POP PUSH1 0xA DUP4 PUSH2 0x455B JUMP JUMPDEST SWAP2 POP PUSH2 0x2DA0 JUMP JUMPDEST PUSH1 0x0 DUP2 PUSH1 0x1 PUSH1 0x1 PUSH1 0x40 SHL SUB DUP2 GT ISZERO PUSH2 0x2DE0 JUMPI PUSH2 0x2DE0 PUSH2 0x3D2C JUMP JUMPDEST PUSH1 0x40 MLOAD SWAP1 DUP1 DUP3 MSTORE DUP1 PUSH1 0x1F ADD PUSH1 0x1F NOT AND PUSH1 0x20 ADD DUP3 ADD PUSH1 0x40 MSTORE DUP1 ISZERO PUSH2 0x2E0A JUMPI PUSH1 0x20 DUP3 ADD DUP2 DUP1 CALLDATASIZE DUP4 CALLDATACOPY ADD SWAP1 POP JUMPDEST POP SWAP1 POP JUMPDEST DUP5 ISZERO PUSH2 0x26DD JUMPI PUSH2 0x2E1F PUSH1 0x1 DUP4 PUSH2 0x44C1 JUMP JUMPDEST SWAP2 POP PUSH2 0x2E2C PUSH1 0xA DUP7 PUSH2 0x4ECC JUMP JUMPDEST PUSH2 0x2E37 SWAP1 PUSH1 0x30 PUSH2 0x4E69 JUMP JUMPDEST PUSH1 0xF8 SHL DUP2 DUP4 DUP2 MLOAD DUP2 LT PUSH2 0x2E4C JUMPI PUSH2 0x2E4C PUSH2 0x456F JUMP JUMPDEST PUSH1 0x20 ADD ADD SWAP1 PUSH1 0x1 PUSH1 0x1 PUSH1 0xF8 SHL SUB NOT AND SWAP1 DUP2 PUSH1 0x0 BYTE SWAP1 MSTORE8 POP PUSH2 0x2E6E PUSH1 0xA DUP7 PUSH2 0x455B JUMP JUMPDEST SWAP5 POP PUSH2 0x2E0E JUMP JUMPDEST PUSH1 0x0 PUSH2 0x821 DUP3 SLOAD SWAP1 JUMP JUMPDEST PUSH1 0x0 DUP2 DUP2 MSTORE PUSH2 0x260 PUSH1 0x20 MSTORE PUSH1 0x40 SWAP1 KECCAK256 SLOAD DUP2 SWAP1 PUSH1 0x1 PUSH1 0x1 PUSH1 0xA0 SHL SUB AND CALLER EQ PUSH2 0x2ED7 JUMPI PUSH1 0x40 MLOAD PUSH3 0x461BCD PUSH1 0xE5 SHL DUP2 MSTORE PUSH1 0x20 PUSH1 0x4 DUP3 ADD MSTORE PUSH1 0xC PUSH1 0x24 DUP3 ADD MSTORE PUSH12 0x27A7262CAFA1A922A0AA27A9 PUSH1 0xA1 SHL PUSH1 0x44 DUP3 ADD MSTORE PUSH1 0x64 ADD PUSH2 0x956 JUMP JUMPDEST POP PUSH1 0x0 SWAP1 DUP2 MSTORE PUSH2 0x260 PUSH1 0x20 MSTORE PUSH1 0x40 SWAP1 KECCAK256 DUP1 SLOAD PUSH1 0x1 PUSH1 0x1 PUSH1 0xA0 SHL SUB NOT AND PUSH1 0x1 PUSH1 0x1 PUSH1 0xA0 SHL SUB SWAP3 SWAP1 SWAP3 AND SWAP2 SWAP1 SWAP2 OR SWAP1 SSTORE JUMP JUMPDEST PUSH1 0x60 PUSH2 0x1C4 DUP1 SLOAD PUSH2 0x837 SWAP1 PUSH2 0x4476 JUMP JUMPDEST PUSH1 0x0 PUSH1 0x1 PUSH1 0x1 PUSH1 0xE0 SHL SUB NOT DUP3 AND PUSH4 0x80AC58CD PUSH1 0xE0 SHL EQ DUP1 PUSH2 0x2F48 JUMPI POP PUSH1 0x1 PUSH1 0x1 PUSH1 0xE0 SHL SUB NOT DUP3 AND PUSH4 0x5B5E139F PUSH1 0xE0 SHL EQ JUMPDEST DUP1 PUSH2 0x821 JUMPI POP PUSH2 0x821 DUP3 PUSH2 0x33C2 JUMP JUMPDEST PUSH2 0x9F7 DUP4 DUP4 DUP4 PUSH2 0x33E7 JUMP JUMPDEST PUSH2 0x2F6C DUP3 DUP3 PUSH2 0x1888 JUMP JUMPDEST PUSH2 0xC44 JUMPI PUSH2 0x2F84 DUP2 PUSH1 0x1 PUSH1 0x1 PUSH1 0xA0 SHL SUB AND PUSH1 0x14 PUSH2 0x345A JUMP JUMPDEST PUSH2 0x2F8F DUP4 PUSH1 0x20 PUSH2 0x345A JUMP JUMPDEST PUSH1 0x40 MLOAD PUSH1 0x20 ADD PUSH2 0x2FA0 SWAP3 SWAP2 SWAP1 PUSH2 0x4F32 JUMP JUMPDEST PUSH1 0x40 DUP1 MLOAD PUSH1 0x1F NOT DUP2 DUP5 SUB ADD DUP2 MSTORE SWAP1 DUP3 SWAP1 MSTORE PUSH3 0x461BCD PUSH1 0xE5 SHL DUP3 MSTORE PUSH2 0x956 SWAP2 PUSH1 0x4 ADD PUSH2 0x3C30 JUMP JUMPDEST PUSH2 0x2FD0 DUP3 DUP3 PUSH2 0x1888 JUMP JUMPDEST PUSH2 0xC44 JUMPI PUSH1 0x0 DUP3 DUP2 MSTORE PUSH1 0x65 PUSH1 0x20 SWAP1 DUP2 MSTORE PUSH1 0x40 DUP1 DUP4 KECCAK256 PUSH1 0x1 PUSH1 0x1 PUSH1 0xA0 SHL SUB DUP6 AND DUP5 MSTORE SWAP1 SWAP2 MSTORE SWAP1 KECCAK256 DUP1 SLOAD PUSH1 0xFF NOT AND PUSH1 0x1 OR SWAP1 SSTORE PUSH2 0x3008 CALLER SWAP1 JUMP JUMPDEST PUSH1 0x1 PUSH1 0x1 PUSH1 0xA0 SHL SUB AND DUP2 PUSH1 0x1 PUSH1 0x1 PUSH1 0xA0 SHL SUB AND DUP4 PUSH32 0x2F8788117E7EFF1D82E926EC794901D17C78024A50270940304540A733656F0D PUSH1 0x40 MLOAD PUSH1 0x40 MLOAD DUP1 SWAP2 SUB SWAP1 LOG4 POP POP JUMP JUMPDEST PUSH1 0x0 PUSH2 0x1881 DUP4 PUSH1 0x1 PUSH1 0x1 PUSH1 0xA0 SHL SUB DUP5 AND PUSH2 0x35F5 JUMP JUMPDEST PUSH2 0x306B DUP3 DUP3 PUSH2 0x1888 JUMP JUMPDEST ISZERO PUSH2 0xC44 JUMPI PUSH1 0x0 DUP3 DUP2 MSTORE PUSH1 0x65 PUSH1 0x20 SWAP1 DUP2 MSTORE PUSH1 0x40 DUP1 DUP4 KECCAK256 PUSH1 0x1 PUSH1 0x1 PUSH1 0xA0 SHL SUB DUP6 AND DUP1 DUP6 MSTORE SWAP3 MSTORE DUP1 DUP4 KECCAK256 DUP1 SLOAD PUSH1 0xFF NOT AND SWAP1 SSTORE MLOAD CALLER SWAP3 DUP6 SWAP2 PUSH32 0xF6391F5C32D9C69D2A47EA670B442974B53935D1EDC7FD64EB21E047A839171B SWAP2 SWAP1 LOG4 POP POP JUMP JUMPDEST PUSH1 0x0 PUSH2 0x1881 DUP4 PUSH1 0x1 PUSH1 0x1 PUSH1 0xA0 SHL SUB DUP5 AND PUSH2 0x3644 JUMP JUMPDEST PUSH2 0x15F SLOAD PUSH1 0xFF AND PUSH2 0xD5A JUMPI PUSH1 0x40 MLOAD PUSH3 0x461BCD PUSH1 0xE5 SHL DUP2 MSTORE PUSH1 0x20 PUSH1 0x4 DUP3 ADD MSTORE PUSH1 0x14 PUSH1 0x24 DUP3 ADD MSTORE PUSH20 0x14185D5CD8589B194E881B9BDD081C185D5CD959 PUSH1 0x62 SHL PUSH1 0x44 DUP3 ADD MSTORE PUSH1 0x64 ADD PUSH2 0x956 JUMP JUMPDEST PUSH1 0x0 SLOAD PUSH2 0x100 SWAP1 DIV PUSH1 0xFF AND PUSH2 0x314E JUMPI PUSH1 0x40 MLOAD PUSH3 0x461BCD PUSH1 0xE5 SHL DUP2 MSTORE PUSH1 0x4 ADD PUSH2 0x956 SWAP1 PUSH2 0x4E81 JUMP JUMPDEST DUP2 MLOAD PUSH2 0x3161 SWAP1 PUSH1 0xC9 SWAP1 PUSH1 0x20 DUP6 ADD SWAP1 PUSH2 0x3B0C JUMP JUMPDEST POP DUP1 MLOAD PUSH2 0x9F7 SWAP1 PUSH1 0xCA SWAP1 PUSH1 0x20 DUP5 ADD SWAP1 PUSH2 0x3B0C JUMP JUMPDEST PUSH1 0x0 SLOAD PUSH2 0x100 SWAP1 DIV PUSH1 0xFF AND PUSH2 0x319C JUMPI PUSH1 0x40 MLOAD PUSH3 0x461BCD PUSH1 0xE5 SHL DUP2 MSTORE PUSH1 0x4 ADD PUSH2 0x956 SWAP1 PUSH2 0x4E81 JUMP JUMPDEST PUSH2 0x15F DUP1 SLOAD PUSH1 0xFF NOT AND SWAP1 SSTORE JUMP JUMPDEST PUSH1 0x0 SLOAD PUSH2 0x100 SWAP1 DIV PUSH1 0xFF AND PUSH2 0x31D0 JUMPI PUSH1 0x40 MLOAD PUSH3 0x461BCD PUSH1 0xE5 SHL DUP2 MSTORE PUSH1 0x4 ADD PUSH2 0x956 SWAP1 PUSH2 0x4E81 JUMP JUMPDEST DUP1 MLOAD PUSH2 0x31E4 SWAP1 PUSH2 0x1C4 SWAP1 PUSH1 0x20 DUP5 ADD SWAP1 PUSH2 0x3B0C JUMP JUMPDEST POP PUSH2 0x31F0 PUSH1 0x0 CALLER PUSH2 0x3737 JUMP JUMPDEST PUSH2 0x3208 PUSH1 0x0 DUP1 MLOAD PUSH1 0x20 PUSH2 0x504F DUP4 CODECOPY DUP2 MLOAD SWAP2 MSTORE CALLER PUSH2 0x3737 JUMP JUMPDEST PUSH2 0x9F7 PUSH1 0x0 DUP1 MLOAD PUSH1 0x20 PUSH2 0x502F DUP4 CODECOPY DUP2 MLOAD SWAP2 MSTORE CALLER PUSH2 0x3737 JUMP JUMPDEST PUSH2 0x322A DUP4 DUP4 PUSH2 0x3741 JUMP JUMPDEST PUSH2 0x3237 PUSH1 0x0 DUP5 DUP5 DUP5 PUSH2 0x32C4 JUMP JUMPDEST PUSH2 0x9F7 JUMPI PUSH1 0x40 MLOAD PUSH3 0x461BCD PUSH1 0xE5 SHL DUP2 MSTORE PUSH1 0x4 ADD PUSH2 0x956 SWAP1 PUSH2 0x4EE0 JUMP JUMPDEST PUSH2 0x15F SLOAD PUSH1 0xFF AND ISZERO PUSH2 0xD5A JUMPI PUSH1 0x40 MLOAD PUSH3 0x461BCD PUSH1 0xE5 SHL DUP2 MSTORE PUSH1 0x20 PUSH1 0x4 DUP3 ADD MSTORE PUSH1 0x10 PUSH1 0x24 DUP3 ADD MSTORE PUSH16 0x14185D5CD8589B194E881C185D5CD959 PUSH1 0x82 SHL PUSH1 0x44 DUP3 ADD MSTORE PUSH1 0x64 ADD PUSH2 0x956 JUMP JUMPDEST PUSH1 0x0 DUP3 PUSH1 0x0 ADD DUP3 DUP2 SLOAD DUP2 LT PUSH2 0x32B1 JUMPI PUSH2 0x32B1 PUSH2 0x456F JUMP JUMPDEST SWAP1 PUSH1 0x0 MSTORE PUSH1 0x20 PUSH1 0x0 KECCAK256 ADD SLOAD SWAP1 POP SWAP3 SWAP2 POP POP JUMP JUMPDEST PUSH1 0x0 PUSH1 0x1 PUSH1 0x1 PUSH1 0xA0 SHL SUB DUP5 AND EXTCODESIZE ISZERO PUSH2 0x33B7 JUMPI PUSH1 0x40 MLOAD PUSH4 0xA85BD01 PUSH1 0xE1 SHL DUP2 MSTORE PUSH1 0x1 PUSH1 0x1 PUSH1 0xA0 SHL SUB DUP6 AND SWAP1 PUSH4 0x150B7A02 SWAP1 PUSH2 0x3308 SWAP1 CALLER SWAP1 DUP10 SWAP1 DUP9 SWAP1 DUP9 SWAP1 PUSH1 0x4 ADD PUSH2 0x4FA7 JUMP JUMPDEST PUSH1 0x20 PUSH1 0x40 MLOAD DUP1 DUP4 SUB DUP2 PUSH1 0x0 DUP8 GAS CALL SWAP3 POP POP POP DUP1 ISZERO PUSH2 0x3343 JUMPI POP PUSH1 0x40 DUP1 MLOAD PUSH1 0x1F RETURNDATASIZE SWAP1 DUP2 ADD PUSH1 0x1F NOT AND DUP3 ADD SWAP1 SWAP3 MSTORE PUSH2 0x3340 SWAP2 DUP2 ADD SWAP1 PUSH2 0x4FE4 JUMP JUMPDEST PUSH1 0x1 JUMPDEST PUSH2 0x339D JUMPI RETURNDATASIZE DUP1 DUP1 ISZERO PUSH2 0x3371 JUMPI PUSH1 0x40 MLOAD SWAP2 POP PUSH1 0x1F NOT PUSH1 0x3F RETURNDATASIZE ADD AND DUP3 ADD PUSH1 0x40 MSTORE RETURNDATASIZE DUP3 MSTORE RETURNDATASIZE PUSH1 0x0 PUSH1 0x20 DUP5 ADD RETURNDATACOPY PUSH2 0x3376 JUMP JUMPDEST PUSH1 0x60 SWAP2 POP JUMPDEST POP DUP1 MLOAD PUSH2 0x3395 JUMPI PUSH1 0x40 MLOAD PUSH3 0x461BCD PUSH1 0xE5 SHL DUP2 MSTORE PUSH1 0x4 ADD PUSH2 0x956 SWAP1 PUSH2 0x4EE0 JUMP JUMPDEST DUP1 MLOAD DUP2 PUSH1 0x20 ADD REVERT JUMPDEST PUSH1 0x1 PUSH1 0x1 PUSH1 0xE0 SHL SUB NOT AND PUSH4 0xA85BD01 PUSH1 0xE1 SHL EQ SWAP1 POP PUSH2 0x26DD JUMP JUMPDEST POP PUSH1 0x1 SWAP5 SWAP4 POP POP POP POP JUMP JUMPDEST PUSH1 0x0 PUSH1 0x1 PUSH1 0x1 PUSH1 0xE0 SHL SUB NOT DUP3 AND PUSH4 0x5A05180F PUSH1 0xE0 SHL EQ DUP1 PUSH2 0x821 JUMPI POP PUSH2 0x821 DUP3 PUSH2 0x388F JUMP JUMPDEST PUSH2 0x33F2 DUP4 DUP4 DUP4 PUSH2 0x38C4 JUMP JUMPDEST PUSH2 0x15F SLOAD PUSH1 0xFF AND ISZERO PUSH2 0x9F7 JUMPI PUSH1 0x40 MLOAD PUSH3 0x461BCD PUSH1 0xE5 SHL DUP2 MSTORE PUSH1 0x20 PUSH1 0x4 DUP3 ADD MSTORE PUSH1 0x2B PUSH1 0x24 DUP3 ADD MSTORE PUSH32 0x4552433732315061757361626C653A20746F6B656E207472616E736665722077 PUSH1 0x44 DUP3 ADD MSTORE PUSH11 0x1A1A5B19481C185D5CD959 PUSH1 0xAA SHL PUSH1 0x64 DUP3 ADD MSTORE PUSH1 0x84 ADD PUSH2 0x956 JUMP JUMPDEST PUSH1 0x60 PUSH1 0x0 PUSH2 0x3469 DUP4 PUSH1 0x2 PUSH2 0x4526 JUMP JUMPDEST PUSH2 0x3474 SWAP1 PUSH1 0x2 PUSH2 0x4E69 JUMP JUMPDEST PUSH1 0x1 PUSH1 0x1 PUSH1 0x40 SHL SUB DUP2 GT ISZERO PUSH2 0x348B JUMPI PUSH2 0x348B PUSH2 0x3D2C JUMP JUMPDEST PUSH1 0x40 MLOAD SWAP1 DUP1 DUP3 MSTORE DUP1 PUSH1 0x1F ADD PUSH1 0x1F NOT AND PUSH1 0x20 ADD DUP3 ADD PUSH1 0x40 MSTORE DUP1 ISZERO PUSH2 0x34B5 JUMPI PUSH1 0x20 DUP3 ADD DUP2 DUP1 CALLDATASIZE DUP4 CALLDATACOPY ADD SWAP1 POP JUMPDEST POP SWAP1 POP PUSH1 0x3 PUSH1 0xFC SHL DUP2 PUSH1 0x0 DUP2 MLOAD DUP2 LT PUSH2 0x34D0 JUMPI PUSH2 0x34D0 PUSH2 0x456F JUMP JUMPDEST PUSH1 0x20 ADD ADD SWAP1 PUSH1 0x1 PUSH1 0x1 PUSH1 0xF8 SHL SUB NOT AND SWAP1 DUP2 PUSH1 0x0 BYTE SWAP1 MSTORE8 POP PUSH1 0xF PUSH1 0xFB SHL DUP2 PUSH1 0x1 DUP2 MLOAD DUP2 LT PUSH2 0x34FF JUMPI PUSH2 0x34FF PUSH2 0x456F JUMP JUMPDEST PUSH1 0x20 ADD ADD SWAP1 PUSH1 0x1 PUSH1 0x1 PUSH1 0xF8 SHL SUB NOT AND SWAP1 DUP2 PUSH1 0x0 BYTE SWAP1 MSTORE8 POP PUSH1 0x0 PUSH2 0x3523 DUP5 PUSH1 0x2 PUSH2 0x4526 JUMP JUMPDEST PUSH2 0x352E SWAP1 PUSH1 0x1 PUSH2 0x4E69 JUMP JUMPDEST SWAP1 POP JUMPDEST PUSH1 0x1 DUP2 GT ISZERO PUSH2 0x35A6 JUMPI PUSH16 0x181899199A1A9B1B9C1CB0B131B232B3 PUSH1 0x81 SHL DUP6 PUSH1 0xF AND PUSH1 0x10 DUP2 LT PUSH2 0x3562 JUMPI PUSH2 0x3562 PUSH2 0x456F JUMP JUMPDEST BYTE PUSH1 0xF8 SHL DUP3 DUP3 DUP2 MLOAD DUP2 LT PUSH2 0x3578 JUMPI PUSH2 0x3578 PUSH2 0x456F JUMP JUMPDEST PUSH1 0x20 ADD ADD SWAP1 PUSH1 0x1 PUSH1 0x1 PUSH1 0xF8 SHL SUB NOT AND SWAP1 DUP2 PUSH1 0x0 BYTE SWAP1 MSTORE8 POP PUSH1 0x4 SWAP5 SWAP1 SWAP5 SHR SWAP4 PUSH2 0x359F DUP2 PUSH2 0x5001 JUMP JUMPDEST SWAP1 POP PUSH2 0x3531 JUMP JUMPDEST POP DUP4 ISZERO PUSH2 0x1881 JUMPI PUSH1 0x40 MLOAD PUSH3 0x461BCD PUSH1 0xE5 SHL DUP2 MSTORE PUSH1 0x20 PUSH1 0x4 DUP3 ADD DUP2 SWAP1 MSTORE PUSH1 0x24 DUP3 ADD MSTORE PUSH32 0x537472696E67733A20686578206C656E67746820696E73756666696369656E74 PUSH1 0x44 DUP3 ADD MSTORE PUSH1 0x64 ADD PUSH2 0x956 JUMP JUMPDEST PUSH1 0x0 DUP2 DUP2 MSTORE PUSH1 0x1 DUP4 ADD PUSH1 0x20 MSTORE PUSH1 0x40 DUP2 KECCAK256 SLOAD PUSH2 0x363C JUMPI POP DUP2 SLOAD PUSH1 0x1 DUP2 DUP2 ADD DUP5 SSTORE PUSH1 0x0 DUP5 DUP2 MSTORE PUSH1 0x20 DUP1 DUP3 KECCAK256 SWAP1 SWAP4 ADD DUP5 SWAP1 SSTORE DUP5 SLOAD DUP5 DUP3 MSTORE DUP3 DUP7 ADD SWAP1 SWAP4 MSTORE PUSH1 0x40 SWAP1 KECCAK256 SWAP2 SWAP1 SWAP2 SSTORE PUSH2 0x821 JUMP JUMPDEST POP PUSH1 0x0 PUSH2 0x821 JUMP JUMPDEST PUSH1 0x0 DUP2 DUP2 MSTORE PUSH1 0x1 DUP4 ADD PUSH1 0x20 MSTORE PUSH1 0x40 DUP2 KECCAK256 SLOAD DUP1 ISZERO PUSH2 0x372D JUMPI PUSH1 0x0 PUSH2 0x3668 PUSH1 0x1 DUP4 PUSH2 0x44C1 JUMP JUMPDEST DUP6 SLOAD SWAP1 SWAP2 POP PUSH1 0x0 SWAP1 PUSH2 0x367C SWAP1 PUSH1 0x1 SWAP1 PUSH2 0x44C1 JUMP JUMPDEST SWAP1 POP DUP2 DUP2 EQ PUSH2 0x36E1 JUMPI PUSH1 0x0 DUP7 PUSH1 0x0 ADD DUP3 DUP2 SLOAD DUP2 LT PUSH2 0x369C JUMPI PUSH2 0x369C PUSH2 0x456F JUMP JUMPDEST SWAP1 PUSH1 0x0 MSTORE PUSH1 0x20 PUSH1 0x0 KECCAK256 ADD SLOAD SWAP1 POP DUP1 DUP8 PUSH1 0x0 ADD DUP5 DUP2 SLOAD DUP2 LT PUSH2 0x36BF JUMPI PUSH2 0x36BF PUSH2 0x456F JUMP JUMPDEST PUSH1 0x0 SWAP2 DUP3 MSTORE PUSH1 0x20 DUP1 DUP4 KECCAK256 SWAP1 SWAP2 ADD SWAP3 SWAP1 SWAP3 SSTORE SWAP2 DUP3 MSTORE PUSH1 0x1 DUP9 ADD SWAP1 MSTORE PUSH1 0x40 SWAP1 KECCAK256 DUP4 SWAP1 SSTORE JUMPDEST DUP6 SLOAD DUP7 SWAP1 DUP1 PUSH2 0x36F2 JUMPI PUSH2 0x36F2 PUSH2 0x5018 JUMP JUMPDEST PUSH1 0x1 SWAP1 SUB DUP2 DUP2 SWAP1 PUSH1 0x0 MSTORE PUSH1 0x20 PUSH1 0x0 KECCAK256 ADD PUSH1 0x0 SWAP1 SSTORE SWAP1 SSTORE DUP6 PUSH1 0x1 ADD PUSH1 0x0 DUP7 DUP2 MSTORE PUSH1 0x20 ADD SWAP1 DUP2 MSTORE PUSH1 0x20 ADD PUSH1 0x0 KECCAK256 PUSH1 0x0 SWAP1 SSTORE PUSH1 0x1 SWAP4 POP POP POP POP PUSH2 0x821 JUMP JUMPDEST PUSH1 0x0 SWAP2 POP POP PUSH2 0x821 JUMP JUMPDEST PUSH2 0xC44 DUP3 DUP3 PUSH2 0x2896 JUMP JUMPDEST PUSH1 0x1 PUSH1 0x1 PUSH1 0xA0 SHL SUB DUP3 AND PUSH2 0x3797 JUMPI PUSH1 0x40 MLOAD PUSH3 0x461BCD PUSH1 0xE5 SHL DUP2 MSTORE PUSH1 0x20 PUSH1 0x4 DUP3 ADD DUP2 SWAP1 MSTORE PUSH1 0x24 DUP3 ADD MSTORE PUSH32 0x4552433732313A206D696E7420746F20746865207A65726F2061646472657373 PUSH1 0x44 DUP3 ADD MSTORE PUSH1 0x64 ADD PUSH2 0x956 JUMP JUMPDEST PUSH1 0x0 DUP2 DUP2 MSTORE PUSH1 0xCB PUSH1 0x20 MSTORE PUSH1 0x40 SWAP1 KECCAK256 SLOAD PUSH1 0x1 PUSH1 0x1 PUSH1 0xA0 SHL SUB AND ISZERO PUSH2 0x37FC JUMPI PUSH1 0x40 MLOAD PUSH3 0x461BCD PUSH1 0xE5 SHL DUP2 MSTORE PUSH1 0x20 PUSH1 0x4 DUP3 ADD MSTORE PUSH1 0x1C PUSH1 0x24 DUP3 ADD MSTORE PUSH32 0x4552433732313A20746F6B656E20616C7265616479206D696E74656400000000 PUSH1 0x44 DUP3 ADD MSTORE PUSH1 0x64 ADD PUSH2 0x956 JUMP JUMPDEST PUSH2 0x3808 PUSH1 0x0 DUP4 DUP4 PUSH2 0x2F57 JUMP JUMPDEST PUSH1 0x1 PUSH1 0x1 PUSH1 0xA0 SHL SUB DUP3 AND PUSH1 0x0 SWAP1 DUP2 MSTORE PUSH1 0xCC PUSH1 0x20 MSTORE PUSH1 0x40 DUP2 KECCAK256 DUP1 SLOAD PUSH1 0x1 SWAP3 SWAP1 PUSH2 0x3831 SWAP1 DUP5 SWAP1 PUSH2 0x4E69 JUMP JUMPDEST SWAP1 SWAP2 SSTORE POP POP PUSH1 0x0 DUP2 DUP2 MSTORE PUSH1 0xCB PUSH1 0x20 MSTORE PUSH1 0x40 DUP1 DUP3 KECCAK256 DUP1 SLOAD PUSH1 0x1 PUSH1 0x1 PUSH1 0xA0 SHL SUB NOT AND PUSH1 0x1 PUSH1 0x1 PUSH1 0xA0 SHL SUB DUP7 AND SWAP1 DUP2 OR SWAP1 SWAP2 SSTORE SWAP1 MLOAD DUP4 SWAP3 SWAP1 PUSH32 0xDDF252AD1BE2C89B69C2B068FC378DAA952BA7F163C4A11628F55A4DF523B3EF SWAP1 DUP3 SWAP1 LOG4 POP POP JUMP JUMPDEST PUSH1 0x0 PUSH1 0x1 PUSH1 0x1 PUSH1 0xE0 SHL SUB NOT DUP3 AND PUSH4 0x7965DB0B PUSH1 0xE0 SHL EQ DUP1 PUSH2 0x821 JUMPI POP PUSH4 0x1FFC9A7 PUSH1 0xE0 SHL PUSH1 0x1 PUSH1 0x1 PUSH1 0xE0 SHL SUB NOT DUP4 AND EQ PUSH2 0x821 JUMP JUMPDEST PUSH1 0x1 PUSH1 0x1 PUSH1 0xA0 SHL SUB DUP4 AND PUSH2 0x391F JUMPI PUSH2 0x391A DUP2 PUSH1 0xFD DUP1 SLOAD PUSH1 0x0 DUP4 DUP2 MSTORE PUSH1 0xFE PUSH1 0x20 MSTORE PUSH1 0x40 DUP2 KECCAK256 DUP3 SWAP1 SSTORE PUSH1 0x1 DUP3 ADD DUP4 SSTORE SWAP2 SWAP1 SWAP2 MSTORE PUSH32 0x9346AC6DD7DE6B96975FEC380D4D994C4C12E6A8897544F22915316CC6CCA280 ADD SSTORE JUMP JUMPDEST PUSH2 0x3942 JUMP JUMPDEST DUP2 PUSH1 0x1 PUSH1 0x1 PUSH1 0xA0 SHL SUB AND DUP4 PUSH1 0x1 PUSH1 0x1 PUSH1 0xA0 SHL SUB AND EQ PUSH2 0x3942 JUMPI PUSH2 0x3942 DUP4 DUP3 PUSH2 0x397C JUMP JUMPDEST PUSH1 0x1 PUSH1 0x1 PUSH1 0xA0 SHL SUB DUP3 AND PUSH2 0x3959 JUMPI PUSH2 0x9F7 DUP2 PUSH2 0x3A19 JUMP JUMPDEST DUP3 PUSH1 0x1 PUSH1 0x1 PUSH1 0xA0 SHL SUB AND DUP3 PUSH1 0x1 PUSH1 0x1 PUSH1 0xA0 SHL SUB AND EQ PUSH2 0x9F7 JUMPI PUSH2 0x9F7 DUP3 DUP3 PUSH2 0x3AC8 JUMP JUMPDEST PUSH1 0x0 PUSH1 0x1 PUSH2 0x3989 DUP5 PUSH2 0xF85 JUMP JUMPDEST PUSH2 0x3993 SWAP2 SWAP1 PUSH2 0x44C1 JUMP JUMPDEST PUSH1 0x0 DUP4 DUP2 MSTORE PUSH1 0xFC PUSH1 0x20 MSTORE PUSH1 0x40 SWAP1 KECCAK256 SLOAD SWAP1 SWAP2 POP DUP1 DUP3 EQ PUSH2 0x39E6 JUMPI PUSH1 0x1 PUSH1 0x1 PUSH1 0xA0 SHL SUB DUP5 AND PUSH1 0x0 SWAP1 DUP2 MSTORE PUSH1 0xFB PUSH1 0x20 SWAP1 DUP2 MSTORE PUSH1 0x40 DUP1 DUP4 KECCAK256 DUP6 DUP5 MSTORE DUP3 MSTORE DUP1 DUP4 KECCAK256 SLOAD DUP5 DUP5 MSTORE DUP2 DUP5 KECCAK256 DUP2 SWAP1 SSTORE DUP4 MSTORE PUSH1 0xFC SWAP1 SWAP2 MSTORE SWAP1 KECCAK256 DUP2 SWAP1 SSTORE JUMPDEST POP PUSH1 0x0 SWAP2 DUP3 MSTORE PUSH1 0xFC PUSH1 0x20 SWAP1 DUP2 MSTORE PUSH1 0x40 DUP1 DUP5 KECCAK256 DUP5 SWAP1 SSTORE PUSH1 0x1 PUSH1 0x1 PUSH1 0xA0 SHL SUB SWAP1 SWAP5 AND DUP4 MSTORE PUSH1 0xFB DUP2 MSTORE DUP4 DUP4 KECCAK256 SWAP2 DUP4 MSTORE MSTORE SWAP1 DUP2 KECCAK256 SSTORE JUMP JUMPDEST PUSH1 0xFD SLOAD PUSH1 0x0 SWAP1 PUSH2 0x3A2B SWAP1 PUSH1 0x1 SWAP1 PUSH2 0x44C1 JUMP JUMPDEST PUSH1 0x0 DUP4 DUP2 MSTORE PUSH1 0xFE PUSH1 0x20 MSTORE PUSH1 0x40 DUP2 KECCAK256 SLOAD PUSH1 0xFD DUP1 SLOAD SWAP4 SWAP5 POP SWAP1 SWAP3 DUP5 SWAP1 DUP2 LT PUSH2 0x3A53 JUMPI PUSH2 0x3A53 PUSH2 0x456F JUMP JUMPDEST SWAP1 PUSH1 0x0 MSTORE PUSH1 0x20 PUSH1 0x0 KECCAK256 ADD SLOAD SWAP1 POP DUP1 PUSH1 0xFD DUP4 DUP2 SLOAD DUP2 LT PUSH2 0x3A74 JUMPI PUSH2 0x3A74 PUSH2 0x456F JUMP JUMPDEST PUSH1 0x0 SWAP2 DUP3 MSTORE PUSH1 0x20 DUP1 DUP4 KECCAK256 SWAP1 SWAP2 ADD SWAP3 SWAP1 SWAP3 SSTORE DUP3 DUP2 MSTORE PUSH1 0xFE SWAP1 SWAP2 MSTORE PUSH1 0x40 DUP1 DUP3 KECCAK256 DUP5 SWAP1 SSTORE DUP6 DUP3 MSTORE DUP2 KECCAK256 SSTORE PUSH1 0xFD DUP1 SLOAD DUP1 PUSH2 0x3AAC JUMPI PUSH2 0x3AAC PUSH2 0x5018 JUMP JUMPDEST PUSH1 0x1 SWAP1 SUB DUP2 DUP2 SWAP1 PUSH1 0x0 MSTORE PUSH1 0x20 PUSH1 0x0 KECCAK256 ADD PUSH1 0x0 SWAP1 SSTORE SWAP1 SSTORE POP POP POP POP JUMP JUMPDEST PUSH1 0x0 PUSH2 0x3AD3 DUP4 PUSH2 0xF85 JUMP JUMPDEST PUSH1 0x1 PUSH1 0x1 PUSH1 0xA0 SHL SUB SWAP1 SWAP4 AND PUSH1 0x0 SWAP1 DUP2 MSTORE PUSH1 0xFB PUSH1 0x20 SWAP1 DUP2 MSTORE PUSH1 0x40 DUP1 DUP4 KECCAK256 DUP7 DUP5 MSTORE DUP3 MSTORE DUP1 DUP4 KECCAK256 DUP6 SWAP1 SSTORE SWAP4 DUP3 MSTORE PUSH1 0xFC SWAP1 MSTORE SWAP2 SWAP1 SWAP2 KECCAK256 SWAP2 SWAP1 SWAP2 SSTORE POP JUMP JUMPDEST DUP3 DUP1 SLOAD PUSH2 0x3B18 SWAP1 PUSH2 0x4476 JUMP JUMPDEST SWAP1 PUSH1 0x0 MSTORE PUSH1 0x20 PUSH1 0x0 KECCAK256 SWAP1 PUSH1 0x1F ADD PUSH1 0x20 SWAP1 DIV DUP2 ADD SWAP3 DUP3 PUSH2 0x3B3A JUMPI PUSH1 0x0 DUP6 SSTORE PUSH2 0x3B80 JUMP JUMPDEST DUP3 PUSH1 0x1F LT PUSH2 0x3B53 JUMPI DUP1 MLOAD PUSH1 0xFF NOT AND DUP4 DUP1 ADD OR DUP6 SSTORE PUSH2 0x3B80 JUMP JUMPDEST DUP3 DUP1 ADD PUSH1 0x1 ADD DUP6 SSTORE DUP3 ISZERO PUSH2 0x3B80 JUMPI SWAP2 DUP3 ADD JUMPDEST DUP3 DUP2 GT ISZERO PUSH2 0x3B80 JUMPI DUP3 MLOAD DUP3 SSTORE SWAP2 PUSH1 0x20 ADD SWAP2 SWAP1 PUSH1 0x1 ADD SWAP1 PUSH2 0x3B65 JUMP JUMPDEST POP PUSH2 0x3B8C SWAP3 SWAP2 POP PUSH2 0x3B90 JUMP JUMPDEST POP SWAP1 JUMP JUMPDEST JUMPDEST DUP1 DUP3 GT ISZERO PUSH2 0x3B8C JUMPI PUSH1 0x0 DUP2 SSTORE PUSH1 0x1 ADD PUSH2 0x3B91 JUMP JUMPDEST PUSH1 0x1 PUSH1 0x1 PUSH1 0xE0 SHL SUB NOT DUP2 AND DUP2 EQ PUSH2 0x557 JUMPI PUSH1 0x0 DUP1 REVERT JUMPDEST PUSH1 0x0 PUSH1 0x20 DUP3 DUP5 SUB SLT ISZERO PUSH2 0x3BCD JUMPI PUSH1 0x0 DUP1 REVERT JUMPDEST DUP2 CALLDATALOAD PUSH2 0x1881 DUP2 PUSH2 0x3BA5 JUMP JUMPDEST PUSH1 0x0 JUMPDEST DUP4 DUP2 LT ISZERO PUSH2 0x3BF3 JUMPI DUP2 DUP2 ADD MLOAD DUP4 DUP3 ADD MSTORE PUSH1 0x20 ADD PUSH2 0x3BDB JUMP JUMPDEST DUP4 DUP2 GT ISZERO PUSH2 0xCC0 JUMPI POP POP PUSH1 0x0 SWAP2 ADD MSTORE JUMP JUMPDEST PUSH1 0x0 DUP2 MLOAD DUP1 DUP5 MSTORE PUSH2 0x3C1C DUP2 PUSH1 0x20 DUP7 ADD PUSH1 0x20 DUP7 ADD PUSH2 0x3BD8 JUMP JUMPDEST PUSH1 0x1F ADD PUSH1 0x1F NOT AND SWAP3 SWAP1 SWAP3 ADD PUSH1 0x20 ADD SWAP3 SWAP2 POP POP JUMP JUMPDEST PUSH1 0x20 DUP2 MSTORE PUSH1 0x0 PUSH2 0x1881 PUSH1 0x20 DUP4 ADD DUP5 PUSH2 0x3C04 JUMP JUMPDEST PUSH1 0x0 PUSH1 0x20 DUP3 DUP5 SUB SLT ISZERO PUSH2 0x3C55 JUMPI PUSH1 0x0 DUP1 REVERT JUMPDEST POP CALLDATALOAD SWAP2 SWAP1 POP JUMP JUMPDEST DUP1 CALLDATALOAD PUSH1 0x1 PUSH1 0x1 PUSH1 0xA0 SHL SUB DUP2 AND DUP2 EQ PUSH2 0x3C73 JUMPI PUSH1 0x0 DUP1 REVERT JUMPDEST SWAP2 SWAP1 POP JUMP JUMPDEST PUSH1 0x0 DUP1 PUSH1 0x40 DUP4 DUP6 SUB SLT ISZERO PUSH2 0x3C8B JUMPI PUSH1 0x0 DUP1 REVERT JUMPDEST PUSH2 0x3C94 DUP4 PUSH2 0x3C5C JUMP JUMPDEST SWAP5 PUSH1 0x20 SWAP4 SWAP1 SWAP4 ADD CALLDATALOAD SWAP4 POP POP POP JUMP JUMPDEST PUSH1 0x0 DUP1 PUSH1 0x0 PUSH1 0x60 DUP5 DUP7 SUB SLT ISZERO PUSH2 0x3CB7 JUMPI PUSH1 0x0 DUP1 REVERT JUMPDEST PUSH2 0x3CC0 DUP5 PUSH2 0x3C5C JUMP JUMPDEST SWAP3 POP PUSH2 0x3CCE PUSH1 0x20 DUP6 ADD PUSH2 0x3C5C JUMP JUMPDEST SWAP2 POP PUSH1 0x40 DUP5 ADD CALLDATALOAD SWAP1 POP SWAP3 POP SWAP3 POP SWAP3 JUMP JUMPDEST PUSH1 0x0 DUP1 PUSH1 0x40 DUP4 DUP6 SUB SLT ISZERO PUSH2 0x3CF1 JUMPI PUSH1 0x0 DUP1 REVERT JUMPDEST POP POP DUP1 CALLDATALOAD SWAP3 PUSH1 0x20 SWAP1 SWAP2 ADD CALLDATALOAD SWAP2 POP JUMP JUMPDEST PUSH1 0x0 DUP1 PUSH1 0x40 DUP4 DUP6 SUB SLT ISZERO PUSH2 0x3D13 JUMPI PUSH1 0x0 DUP1 REVERT JUMPDEST DUP3 CALLDATALOAD SWAP2 POP PUSH2 0x3D23 PUSH1 0x20 DUP5 ADD PUSH2 0x3C5C JUMP JUMPDEST SWAP1 POP SWAP3 POP SWAP3 SWAP1 POP JUMP JUMPDEST PUSH4 0x4E487B71 PUSH1 0xE0 SHL PUSH1 0x0 MSTORE PUSH1 0x41 PUSH1 0x4 MSTORE PUSH1 0x24 PUSH1 0x0 REVERT JUMPDEST PUSH1 0x40 MLOAD PUSH1 0xE0 DUP2 ADD PUSH1 0x1 PUSH1 0x1 PUSH1 0x40 SHL SUB DUP2 GT DUP3 DUP3 LT OR ISZERO PUSH2 0x3D64 JUMPI PUSH2 0x3D64 PUSH2 0x3D2C JUMP JUMPDEST PUSH1 0x40 MSTORE SWAP1 JUMP JUMPDEST PUSH1 0x40 MLOAD PUSH1 0x1F DUP3 ADD PUSH1 0x1F NOT AND DUP2 ADD PUSH1 0x1 PUSH1 0x1 PUSH1 0x40 SHL SUB DUP2 GT DUP3 DUP3 LT OR ISZERO PUSH2 0x3D92 JUMPI PUSH2 0x3D92 PUSH2 0x3D2C JUMP JUMPDEST PUSH1 0x40 MSTORE SWAP2 SWAP1 POP JUMP JUMPDEST PUSH1 0x0 PUSH1 0x1 PUSH1 0x1 PUSH1 0x40 SHL SUB DUP4 GT ISZERO PUSH2 0x3DB3 JUMPI PUSH2 0x3DB3 PUSH2 0x3D2C JUMP JUMPDEST PUSH2 0x3DC6 PUSH1 0x1F DUP5 ADD PUSH1 0x1F NOT AND PUSH1 0x20 ADD PUSH2 0x3D6A JUMP JUMPDEST SWAP1 POP DUP3 DUP2 MSTORE DUP4 DUP4 DUP4 ADD GT ISZERO PUSH2 0x3DDA JUMPI PUSH1 0x0 DUP1 REVERT JUMPDEST DUP3 DUP3 PUSH1 0x20 DUP4 ADD CALLDATACOPY PUSH1 0x0 PUSH1 0x20 DUP5 DUP4 ADD ADD MSTORE SWAP4 SWAP3 POP POP POP JUMP JUMPDEST PUSH1 0x0 DUP3 PUSH1 0x1F DUP4 ADD SLT PUSH2 0x3E02 JUMPI PUSH1 0x0 DUP1 REVERT JUMPDEST PUSH2 0x1881 DUP4 DUP4 CALLDATALOAD PUSH1 0x20 DUP6 ADD PUSH2 0x3D9A JUMP JUMPDEST PUSH1 0x0 DUP1 PUSH1 0x40 DUP4 DUP6 SUB SLT ISZERO PUSH2 0x3E24 JUMPI PUSH1 0x0 DUP1 REVERT JUMPDEST DUP3 CALLDATALOAD SWAP2 POP PUSH1 0x20 DUP4 ADD CALLDATALOAD PUSH1 0x1 PUSH1 0x1 PUSH1 0x40 SHL SUB DUP2 GT ISZERO PUSH2 0x3E41 JUMPI PUSH1 0x0 DUP1 REVERT JUMPDEST PUSH2 0xB04 DUP6 DUP3 DUP7 ADD PUSH2 0x3DF1 JUMP JUMPDEST PUSH1 0x0 DUP1 PUSH1 0x0 DUP1 PUSH1 0x80 DUP6 DUP8 SUB SLT ISZERO PUSH2 0x3E63 JUMPI PUSH1 0x0 DUP1 REVERT JUMPDEST DUP5 CALLDATALOAD PUSH1 0x1 PUSH1 0x1 PUSH1 0x40 SHL SUB DUP1 DUP3 GT ISZERO PUSH2 0x3E7A JUMPI PUSH1 0x0 DUP1 REVERT JUMPDEST PUSH2 0x3E86 DUP9 DUP4 DUP10 ADD PUSH2 0x3DF1 JUMP JUMPDEST SWAP6 POP PUSH1 0x20 DUP8 ADD CALLDATALOAD SWAP2 POP DUP1 DUP3 GT ISZERO PUSH2 0x3E9C JUMPI PUSH1 0x0 DUP1 REVERT JUMPDEST PUSH2 0x3EA8 DUP9 DUP4 DUP10 ADD PUSH2 0x3DF1 JUMP JUMPDEST SWAP5 POP PUSH1 0x40 DUP8 ADD CALLDATALOAD SWAP2 POP DUP1 DUP3 GT ISZERO PUSH2 0x3EBE JUMPI PUSH1 0x0 DUP1 REVERT JUMPDEST POP PUSH2 0x3ECB DUP8 DUP3 DUP9 ADD PUSH2 0x3DF1 JUMP JUMPDEST SWAP3 POP POP PUSH2 0x3EDA PUSH1 0x60 DUP7 ADD PUSH2 0x3C5C JUMP JUMPDEST SWAP1 POP SWAP3 SWAP6 SWAP2 SWAP5 POP SWAP3 POP JUMP JUMPDEST PUSH1 0x0 PUSH1 0x20 DUP3 DUP5 SUB SLT ISZERO PUSH2 0x3EF7 JUMPI PUSH1 0x0 DUP1 REVERT JUMPDEST PUSH2 0x1881 DUP3 PUSH2 0x3C5C JUMP JUMPDEST PUSH1 0x0 DUP1 PUSH1 0x0 DUP1 PUSH1 0x80 DUP6 DUP8 SUB SLT ISZERO PUSH2 0x3F16 JUMPI PUSH1 0x0 DUP1 REVERT JUMPDEST PUSH2 0x3F1F DUP6 PUSH2 0x3C5C JUMP JUMPDEST SWAP4 POP PUSH2 0x3F2D PUSH1 0x20 DUP7 ADD PUSH2 0x3C5C JUMP JUMPDEST SWAP3 POP PUSH1 0x40 DUP6 ADD CALLDATALOAD PUSH1 0x1 PUSH1 0x1 PUSH1 0x40 SHL SUB DUP1 DUP3 GT ISZERO PUSH2 0x3F49 JUMPI PUSH1 0x0 DUP1 REVERT JUMPDEST PUSH2 0x3F55 DUP9 DUP4 DUP10 ADD PUSH2 0x3DF1 JUMP JUMPDEST SWAP4 POP PUSH1 0x60 DUP8 ADD CALLDATALOAD SWAP2 POP DUP1 DUP3 GT ISZERO PUSH2 0x3F6B JUMPI PUSH1 0x0 DUP1 REVERT JUMPDEST POP DUP6 ADD PUSH1 0x40 DUP2 DUP9 SUB SLT ISZERO PUSH2 0x3F7E JUMPI PUSH1 0x0 DUP1 REVERT JUMPDEST SWAP4 SWAP7 SWAP3 SWAP6 POP SWAP1 SWAP4 POP POP JUMP JUMPDEST PUSH1 0x0 DUP2 MLOAD DUP1 DUP5 MSTORE PUSH1 0x20 DUP1 DUP6 ADD DUP1 DUP2 SWAP7 POP DUP4 PUSH1 0x5 SHL DUP2 ADD SWAP2 POP DUP3 DUP7 ADD PUSH1 0x0 JUMPDEST DUP6 DUP2 LT ISZERO PUSH2 0x3FD1 JUMPI DUP3 DUP5 SUB DUP10 MSTORE PUSH2 0x3FBF DUP5 DUP4 MLOAD PUSH2 0x3C04 JUMP JUMPDEST SWAP9 DUP6 ADD SWAP9 SWAP4 POP SWAP1 DUP5 ADD SWAP1 PUSH1 0x1 ADD PUSH2 0x3FA7 JUMP JUMPDEST POP SWAP2 SWAP8 SWAP7 POP POP POP POP POP POP POP JUMP JUMPDEST PUSH1 0x0 PUSH1 0x20 DUP1 DUP4 ADD DUP2 DUP5 MSTORE DUP1 DUP6 MLOAD DUP1 DUP4 MSTORE PUSH1 0x40 SWAP3 POP DUP3 DUP7 ADD SWAP2 POP DUP3 DUP2 PUSH1 0x5 SHL DUP8 ADD ADD DUP5 DUP9 ADD PUSH1 0x0 JUMPDEST DUP4 DUP2 LT ISZERO PUSH2 0x407C JUMPI PUSH1 0x3F NOT DUP10 DUP5 SUB ADD DUP6 MSTORE DUP2 MLOAD PUSH1 0x80 DUP2 MLOAD DUP2 DUP7 MSTORE PUSH2 0x402B DUP3 DUP8 ADD DUP3 PUSH2 0x3C04 JUMP JUMPDEST SWAP2 POP POP DUP9 DUP3 ADD MLOAD DUP6 DUP3 SUB DUP11 DUP8 ADD MSTORE PUSH2 0x4043 DUP3 DUP3 PUSH2 0x3F89 JUMP JUMPDEST SWAP2 POP POP DUP8 DUP3 ADD MLOAD DUP9 DUP7 ADD MSTORE PUSH1 0x60 DUP1 DUP4 ADD MLOAD SWAP3 POP DUP6 DUP3 SUB DUP2 DUP8 ADD MSTORE POP PUSH2 0x4068 DUP2 DUP4 PUSH2 0x3C04 JUMP JUMPDEST SWAP7 DUP10 ADD SWAP7 SWAP5 POP POP POP SWAP1 DUP7 ADD SWAP1 PUSH1 0x1 ADD PUSH2 0x4005 JUMP JUMPDEST POP SWAP1 SWAP9 SWAP8 POP POP POP POP POP POP POP POP JUMP JUMPDEST PUSH1 0x0 PUSH1 0x20 DUP3 DUP5 SUB SLT ISZERO PUSH2 0x409C JUMPI PUSH1 0x0 DUP1 REVERT JUMPDEST DUP2 CALLDATALOAD PUSH1 0x1 PUSH1 0x1 PUSH1 0x40 SHL SUB DUP2 GT ISZERO PUSH2 0x40B2 JUMPI PUSH1 0x0 DUP1 REVERT JUMPDEST DUP3 ADD PUSH1 0x20 DUP2 DUP6 SUB SLT ISZERO PUSH2 0x1881 JUMPI PUSH1 0x0 DUP1 REVERT JUMPDEST PUSH1 0x0 DUP1 PUSH1 0x0 PUSH1 0x60 DUP5 DUP7 SUB SLT ISZERO PUSH2 0x40D9 JUMPI PUSH1 0x0 DUP1 REVERT JUMPDEST DUP4 CALLDATALOAD SWAP3 POP PUSH2 0x3CCE PUSH1 0x20 DUP6 ADD PUSH2 0x3C5C JUMP JUMPDEST DUP1 ISZERO ISZERO DUP2 EQ PUSH2 0x557 JUMPI PUSH1 0x0 DUP1 REVERT JUMPDEST DUP1 CALLDATALOAD PUSH2 0x3C73 DUP2 PUSH2 0x40E9 JUMP JUMPDEST PUSH1 0x0 DUP1 PUSH1 0x40 DUP4 DUP6 SUB SLT ISZERO PUSH2 0x4115 JUMPI PUSH1 0x0 DUP1 REVERT JUMPDEST PUSH2 0x411E DUP4 PUSH2 0x3C5C JUMP JUMPDEST SWAP2 POP PUSH1 0x20 DUP4 ADD CALLDATALOAD PUSH2 0x412E DUP2 PUSH2 0x40E9 JUMP JUMPDEST DUP1 SWAP2 POP POP SWAP3 POP SWAP3 SWAP1 POP JUMP JUMPDEST PUSH1 0x0 DUP1 PUSH1 0x0 PUSH1 0x60 DUP5 DUP7 SUB SLT ISZERO PUSH2 0x414E JUMPI PUSH1 0x0 DUP1 REVERT JUMPDEST DUP4 CALLDATALOAD PUSH1 0x1 PUSH1 0x1 PUSH1 0x40 SHL SUB DUP1 DUP3 GT ISZERO PUSH2 0x4165 JUMPI PUSH1 0x0 DUP1 REVERT JUMPDEST PUSH2 0x4171 DUP8 DUP4 DUP9 ADD PUSH2 0x3DF1 JUMP JUMPDEST SWAP5 POP PUSH1 0x20 DUP7 ADD CALLDATALOAD SWAP2 POP DUP1 DUP3 GT ISZERO PUSH2 0x4187 JUMPI PUSH1 0x0 DUP1 REVERT JUMPDEST PUSH2 0x4193 DUP8 DUP4 DUP9 ADD PUSH2 0x3DF1 JUMP JUMPDEST SWAP4 POP PUSH1 0x40 DUP7 ADD CALLDATALOAD SWAP2 POP DUP1 DUP3 GT ISZERO PUSH2 0x41A9 JUMPI PUSH1 0x0 DUP1 REVERT JUMPDEST POP PUSH2 0x41B6 DUP7 DUP3 DUP8 ADD PUSH2 0x3DF1 JUMP JUMPDEST SWAP2 POP POP SWAP3 POP SWAP3 POP SWAP3 JUMP JUMPDEST PUSH1 0x0 DUP1 PUSH1 0x0 DUP1 PUSH1 0x0 PUSH1 0xA0 DUP7 DUP9 SUB SLT ISZERO PUSH2 0x41D8 JUMPI PUSH1 0x0 DUP1 REVERT JUMPDEST DUP6 CALLDATALOAD PUSH1 0x1 PUSH1 0x1 PUSH1 0x40 SHL SUB DUP1 DUP3 GT ISZERO PUSH2 0x41EF JUMPI PUSH1 0x0 DUP1 REVERT JUMPDEST PUSH2 0x41FB DUP10 DUP4 DUP11 ADD PUSH2 0x3DF1 JUMP JUMPDEST SWAP7 POP PUSH1 0x20 DUP9 ADD CALLDATALOAD SWAP2 POP DUP1 DUP3 GT ISZERO PUSH2 0x4211 JUMPI PUSH1 0x0 DUP1 REVERT JUMPDEST POP PUSH2 0x421E DUP9 DUP3 DUP10 ADD PUSH2 0x3DF1 JUMP JUMPDEST SWAP5 POP POP PUSH2 0x422D PUSH1 0x40 DUP8 ADD PUSH2 0x3C5C JUMP JUMPDEST SWAP3 POP PUSH2 0x423B PUSH1 0x60 DUP8 ADD PUSH2 0x3C5C JUMP JUMPDEST SWAP5 SWAP8 SWAP4 SWAP7 POP SWAP2 SWAP5 PUSH1 0x80 ADD CALLDATALOAD SWAP3 SWAP2 POP POP JUMP JUMPDEST PUSH1 0x0 DUP1 PUSH1 0x0 DUP1 PUSH1 0x80 DUP6 DUP8 SUB SLT ISZERO PUSH2 0x4262 JUMPI PUSH1 0x0 DUP1 REVERT JUMPDEST PUSH2 0x426B DUP6 PUSH2 0x3C5C JUMP JUMPDEST SWAP4 POP PUSH2 0x4279 PUSH1 0x20 DUP7 ADD PUSH2 0x3C5C JUMP JUMPDEST SWAP3 POP PUSH1 0x40 DUP6 ADD CALLDATALOAD SWAP2 POP PUSH1 0x60 DUP6 ADD CALLDATALOAD PUSH1 0x1 PUSH1 0x1 PUSH1 0x40 SHL SUB DUP2 GT ISZERO PUSH2 0x429B JUMPI PUSH1 0x0 DUP1 REVERT JUMPDEST DUP6 ADD PUSH1 0x1F DUP2 ADD DUP8 SGT PUSH2 0x42AC JUMPI PUSH1 0x0 DUP1 REVERT JUMPDEST PUSH2 0x42BB DUP8 DUP3 CALLDATALOAD PUSH1 0x20 DUP5 ADD PUSH2 0x3D9A JUMP JUMPDEST SWAP2 POP POP SWAP3 SWAP6 SWAP2 SWAP5 POP SWAP3 POP JUMP JUMPDEST PUSH1 0x0 PUSH1 0x40 DUP1 DUP4 ADD DUP6 DUP5 MSTORE PUSH1 0x20 DUP3 DUP2 DUP7 ADD MSTORE DUP2 DUP7 MLOAD DUP1 DUP5 MSTORE PUSH1 0x60 SWAP4 POP DUP4 DUP8 ADD SWAP2 POP DUP4 DUP2 PUSH1 0x5 SHL DUP9 ADD ADD DUP4 DUP10 ADD PUSH1 0x0 JUMPDEST DUP4 DUP2 LT ISZERO PUSH2 0x4371 JUMPI PUSH1 0x5F NOT DUP11 DUP5 SUB ADD DUP6 MSTORE DUP2 MLOAD PUSH1 0xE0 PUSH1 0xFF DUP1 DUP4 MLOAD AND DUP7 MSTORE DUP9 DUP4 ADD MLOAD DUP10 DUP8 ADD MSTORE DUP11 DUP4 ADD MLOAD DUP12 DUP8 ADD MSTORE DUP1 DUP11 DUP5 ADD MLOAD AND DUP11 DUP8 ADD MSTORE POP PUSH1 0x80 DUP1 DUP4 ADD MLOAD DUP3 DUP3 DUP9 ADD MSTORE PUSH2 0x4344 DUP4 DUP9 ADD DUP3 PUSH2 0x3F89 JUMP JUMPDEST PUSH1 0xA0 DUP6 DUP2 ADD MLOAD SWAP1 DUP10 ADD MSTORE PUSH1 0xC0 SWAP5 DUP6 ADD MLOAD ISZERO ISZERO SWAP5 SWAP1 SWAP8 ADD SWAP4 SWAP1 SWAP4 MSTORE POP POP POP SWAP4 DUP6 ADD SWAP4 SWAP1 DUP6 ADD SWAP1 PUSH1 0x1 ADD PUSH2 0x42F5 JUMP JUMPDEST POP SWAP1 SWAP11 SWAP10 POP POP POP POP POP POP POP POP POP POP JUMP JUMPDEST PUSH1 0x0 PUSH1 0x1 PUSH1 0x1 PUSH1 0x40 SHL SUB DUP3 GT ISZERO PUSH2 0x439A JUMPI PUSH2 0x439A PUSH2 0x3D2C JUMP JUMPDEST POP PUSH1 0x5 SHL PUSH1 0x20 ADD SWAP1 JUMP JUMPDEST PUSH1 0x0 DUP1 PUSH1 0x40 DUP4 DUP6 SUB SLT ISZERO PUSH2 0x43B7 JUMPI PUSH1 0x0 DUP1 REVERT JUMPDEST PUSH2 0x43C0 DUP4 PUSH2 0x3C5C JUMP JUMPDEST SWAP2 POP PUSH1 0x20 DUP1 DUP5 ADD CALLDATALOAD PUSH1 0x1 PUSH1 0x1 PUSH1 0x40 SHL SUB DUP2 GT ISZERO PUSH2 0x43DC JUMPI PUSH1 0x0 DUP1 REVERT JUMPDEST DUP5 ADD PUSH1 0x1F DUP2 ADD DUP7 SGT PUSH2 0x43ED JUMPI PUSH1 0x0 DUP1 REVERT JUMPDEST DUP1 CALLDATALOAD PUSH2 0x4400 PUSH2 0x43FB DUP3 PUSH2 0x4381 JUMP JUMPDEST PUSH2 0x3D6A JUMP JUMPDEST DUP2 DUP2 MSTORE PUSH1 0x5 SWAP2 SWAP1 SWAP2 SHL DUP3 ADD DUP4 ADD SWAP1 DUP4 DUP2 ADD SWAP1 DUP9 DUP4 GT ISZERO PUSH2 0x441F JUMPI PUSH1 0x0 DUP1 REVERT JUMPDEST SWAP3 DUP5 ADD SWAP3 JUMPDEST DUP3 DUP5 LT ISZERO PUSH2 0x443D JUMPI DUP4 CALLDATALOAD DUP3 MSTORE SWAP3 DUP5 ADD SWAP3 SWAP1 DUP5 ADD SWAP1 PUSH2 0x4424 JUMP JUMPDEST DUP1 SWAP6 POP POP POP POP POP POP SWAP3 POP SWAP3 SWAP1 POP JUMP JUMPDEST PUSH1 0x0 DUP1 PUSH1 0x40 DUP4 DUP6 SUB SLT ISZERO PUSH2 0x445F JUMPI PUSH1 0x0 DUP1 REVERT JUMPDEST PUSH2 0x4468 DUP4 PUSH2 0x3C5C JUMP JUMPDEST SWAP2 POP PUSH2 0x3D23 PUSH1 0x20 DUP5 ADD PUSH2 0x3C5C JUMP JUMPDEST PUSH1 0x1 DUP2 DUP2 SHR SWAP1 DUP3 AND DUP1 PUSH2 0x448A JUMPI PUSH1 0x7F DUP3 AND SWAP2 POP JUMPDEST PUSH1 0x20 DUP3 LT DUP2 EQ ISZERO PUSH2 0x2411 JUMPI PUSH4 0x4E487B71 PUSH1 0xE0 SHL PUSH1 0x0 MSTORE PUSH1 0x22 PUSH1 0x4 MSTORE PUSH1 0x24 PUSH1 0x0 REVERT JUMPDEST PUSH4 0x4E487B71 PUSH1 0xE0 SHL PUSH1 0x0 MSTORE PUSH1 0x11 PUSH1 0x4 MSTORE PUSH1 0x24 PUSH1 0x0 REVERT JUMPDEST PUSH1 0x0 DUP3 DUP3 LT ISZERO PUSH2 0x44D3 JUMPI PUSH2 0x44D3 PUSH2 0x44AB JUMP JUMPDEST POP SUB SWAP1 JUMP JUMPDEST PUSH1 0x20 DUP1 DUP3 MSTORE PUSH1 0x2E SWAP1 DUP3 ADD MSTORE PUSH32 0x4552433732313A2063616C6C6572206973206E6F7420746F6B656E206F776E65 PUSH1 0x40 DUP3 ADD MSTORE PUSH14 0x1C881B9BDC88185C1C1C9BDD9959 PUSH1 0x92 SHL PUSH1 0x60 DUP3 ADD MSTORE PUSH1 0x80 ADD SWAP1 JUMP JUMPDEST PUSH1 0x0 DUP2 PUSH1 0x0 NOT DIV DUP4 GT DUP3 ISZERO ISZERO AND ISZERO PUSH2 0x4540 JUMPI PUSH2 0x4540 PUSH2 0x44AB JUMP JUMPDEST POP MUL SWAP1 JUMP JUMPDEST PUSH4 0x4E487B71 PUSH1 0xE0 SHL PUSH1 0x0 MSTORE PUSH1 0x12 PUSH1 0x4 MSTORE PUSH1 0x24 PUSH1 0x0 REVERT JUMPDEST PUSH1 0x0 DUP3 PUSH2 0x456A JUMPI PUSH2 0x456A PUSH2 0x4545 JUMP JUMPDEST POP DIV SWAP1 JUMP JUMPDEST PUSH4 0x4E487B71 PUSH1 0xE0 SHL PUSH1 0x0 MSTORE PUSH1 0x32 PUSH1 0x4 MSTORE PUSH1 0x24 PUSH1 0x0 REVERT JUMPDEST PUSH1 0x20 DUP1 DUP3 MSTORE PUSH1 0x2E SWAP1 DUP3 ADD MSTORE PUSH32 0x496E697469616C697A61626C653A20636F6E747261637420697320616C726561 PUSH1 0x40 DUP3 ADD MSTORE PUSH14 0x191E481A5B9A5D1A585B1A5E9959 PUSH1 0x92 SHL PUSH1 0x60 DUP3 ADD MSTORE PUSH1 0x80 ADD SWAP1 JUMP JUMPDEST PUSH1 0x0 DUP1 DUP4 CALLDATALOAD PUSH1 0x1E NOT DUP5 CALLDATASIZE SUB ADD DUP2 SLT PUSH2 0x45EA JUMPI PUSH1 0x0 DUP1 REVERT JUMPDEST DUP4 ADD DUP1 CALLDATALOAD SWAP2 POP PUSH1 0x1 PUSH1 0x1 PUSH1 0x40 SHL SUB DUP3 GT ISZERO PUSH2 0x4604 JUMPI PUSH1 0x0 DUP1 REVERT JUMPDEST PUSH1 0x20 ADD SWAP2 POP PUSH1 0x5 DUP2 SWAP1 SHL CALLDATASIZE SUB DUP3 SGT ISZERO PUSH2 0x461C JUMPI PUSH1 0x0 DUP1 REVERT JUMPDEST SWAP3 POP SWAP3 SWAP1 POP JUMP JUMPDEST PUSH1 0x0 DUP3 CALLDATALOAD PUSH1 0xDE NOT DUP4 CALLDATASIZE SUB ADD DUP2 SLT PUSH2 0x4639 JUMPI PUSH1 0x0 DUP1 REVERT JUMPDEST SWAP2 SWAP1 SWAP2 ADD SWAP3 SWAP2 POP POP JUMP JUMPDEST PUSH1 0xFF DUP2 AND DUP2 EQ PUSH2 0x557 JUMPI PUSH1 0x0 DUP1 REVERT JUMPDEST DUP1 CALLDATALOAD PUSH2 0x3C73 DUP2 PUSH2 0x4643 JUMP JUMPDEST PUSH1 0x0 DUP3 PUSH1 0x1F DUP4 ADD SLT PUSH2 0x466E JUMPI PUSH1 0x0 DUP1 REVERT JUMPDEST DUP2 CALLDATALOAD PUSH1 0x20 PUSH2 0x467E PUSH2 0x43FB DUP4 PUSH2 0x4381 JUMP JUMPDEST DUP3 DUP2 MSTORE PUSH1 0x5 SWAP3 SWAP1 SWAP3 SHL DUP5 ADD DUP2 ADD SWAP2 DUP2 DUP2 ADD SWAP1 DUP7 DUP5 GT ISZERO PUSH2 0x469D JUMPI PUSH1 0x0 DUP1 REVERT JUMPDEST DUP3 DUP7 ADD JUMPDEST DUP5 DUP2 LT ISZERO PUSH2 0x46DC JUMPI DUP1 CALLDATALOAD PUSH1 0x1 PUSH1 0x1 PUSH1 0x40 SHL SUB DUP2 GT ISZERO PUSH2 0x46C0 JUMPI PUSH1 0x0 DUP1 DUP2 REVERT JUMPDEST PUSH2 0x46CE DUP10 DUP7 DUP4 DUP12 ADD ADD PUSH2 0x3DF1 JUMP JUMPDEST DUP5 MSTORE POP SWAP2 DUP4 ADD SWAP2 DUP4 ADD PUSH2 0x46A1 JUMP JUMPDEST POP SWAP7 SWAP6 POP POP POP POP POP POP JUMP JUMPDEST PUSH1 0x0 PUSH1 0xE0 DUP3 CALLDATASIZE SUB SLT ISZERO PUSH2 0x46F9 JUMPI PUSH1 0x0 DUP1 REVERT JUMPDEST PUSH2 0x4701 PUSH2 0x3D42 JUMP JUMPDEST PUSH2 0x470A DUP4 PUSH2 0x4652 JUMP JUMPDEST DUP2 MSTORE PUSH1 0x20 DUP4 ADD CALLDATALOAD PUSH1 0x20 DUP3 ADD MSTORE PUSH1 0x40 DUP4 ADD CALLDATALOAD PUSH1 0x40 DUP3 ADD MSTORE PUSH2 0x472C PUSH1 0x60 DUP5 ADD PUSH2 0x4652 JUMP JUMPDEST PUSH1 0x60 DUP3 ADD MSTORE PUSH1 0x80 DUP4 ADD CALLDATALOAD PUSH1 0x1 PUSH1 0x1 PUSH1 0x40 SHL SUB DUP2 GT ISZERO PUSH2 0x474A JUMPI PUSH1 0x0 DUP1 REVERT JUMPDEST PUSH2 0x4756 CALLDATASIZE DUP3 DUP7 ADD PUSH2 0x465D JUMP JUMPDEST PUSH1 0x80 DUP4 ADD MSTORE POP PUSH1 0xA0 DUP4 ADD CALLDATALOAD PUSH1 0xA0 DUP3 ADD MSTORE PUSH2 0x4772 PUSH1 0xC0 DUP5 ADD PUSH2 0x40F7 JUMP JUMPDEST PUSH1 0xC0 DUP3 ADD MSTORE SWAP3 SWAP2 POP POP JUMP JUMPDEST PUSH1 0x0 PUSH1 0x0 NOT DUP3 EQ ISZERO PUSH2 0x4791 JUMPI PUSH2 0x4791 PUSH2 0x44AB JUMP JUMPDEST POP PUSH1 0x1 ADD SWAP1 JUMP JUMPDEST PUSH1 0x0 PUSH1 0x20 DUP3 DUP5 SUB SLT ISZERO PUSH2 0x47AA JUMPI PUSH1 0x0 DUP1 REVERT JUMPDEST DUP2 MLOAD PUSH2 0x1881 DUP2 PUSH2 0x40E9 JUMP JUMPDEST JUMPDEST DUP2 DUP2 LT ISZERO PUSH2 0xC44 JUMPI PUSH1 0x0 DUP2 SSTORE PUSH1 0x1 ADD PUSH2 0x47B6 JUMP JUMPDEST PUSH2 0x47D4 DUP2 SLOAD PUSH2 0x4476 JUMP JUMPDEST DUP1 ISZERO PUSH2 0xC44 JUMPI PUSH1 0x1F DUP2 GT PUSH1 0x1 DUP2 EQ PUSH2 0x47EE JUMPI POP POP PUSH1 0x0 SWAP1 SSTORE JUMP JUMPDEST DUP3 PUSH1 0x0 MSTORE PUSH1 0x20 PUSH1 0x0 KECCAK256 PUSH2 0x480C PUSH1 0x1F DUP5 ADD PUSH1 0x5 SHR DUP3 ADD PUSH1 0x1 DUP4 ADD PUSH2 0x47B5 JUMP JUMPDEST POP PUSH1 0x20 PUSH1 0x0 SWAP1 DUP2 KECCAK256 DUP2 DUP6 SSTORE SSTORE POP POP POP JUMP JUMPDEST DUP1 SLOAD PUSH1 0x0 DUP3 SSTORE DUP1 ISZERO PUSH2 0xC44 JUMPI DUP2 PUSH1 0x0 MSTORE PUSH1 0x20 PUSH1 0x0 KECCAK256 DUP2 DUP2 ADD JUMPDEST DUP1 DUP3 LT ISZERO PUSH2 0xCC0 JUMPI PUSH2 0x4847 DUP3 PUSH2 0x47CA JUMP JUMPDEST PUSH1 0x1 DUP3 ADD SWAP2 POP PUSH2 0x4836 JUMP JUMPDEST PUSH1 0x1 PUSH1 0x40 SHL DUP3 GT ISZERO PUSH2 0x4866 JUMPI PUSH2 0x4866 PUSH2 0x3D2C JUMP JUMPDEST DUP1 SLOAD DUP3 DUP3 SSTORE DUP1 DUP4 LT ISZERO PUSH2 0x9F7 JUMPI PUSH1 0x0 DUP3 DUP2 MSTORE PUSH1 0x20 SWAP1 KECCAK256 DUP4 DUP2 ADD SWAP1 DUP3 ADD JUMPDEST DUP1 DUP3 LT ISZERO PUSH2 0xF1E JUMPI PUSH2 0x4894 DUP3 PUSH2 0x47CA JUMP JUMPDEST PUSH1 0x1 DUP3 ADD SWAP2 POP PUSH2 0x4883 JUMP JUMPDEST PUSH1 0x0 DUP1 DUP4 CALLDATALOAD PUSH1 0x1E NOT DUP5 CALLDATASIZE SUB ADD DUP2 SLT PUSH2 0x48B6 JUMPI PUSH1 0x0 DUP1 REVERT JUMPDEST DUP4 ADD DUP1 CALLDATALOAD SWAP2 POP PUSH1 0x1 PUSH1 0x1 PUSH1 0x40 SHL SUB DUP3 GT ISZERO PUSH2 0x48D0 JUMPI PUSH1 0x0 DUP1 REVERT JUMPDEST PUSH1 0x20 ADD SWAP2 POP CALLDATASIZE DUP2 SWAP1 SUB DUP3 SGT ISZERO PUSH2 0x461C JUMPI PUSH1 0x0 DUP1 REVERT JUMPDEST PUSH1 0x1F DUP3 GT ISZERO PUSH2 0x9F7 JUMPI DUP1 PUSH1 0x0 MSTORE PUSH1 0x20 PUSH1 0x0 KECCAK256 PUSH1 0x1F DUP5 ADD PUSH1 0x5 SHR DUP2 ADD PUSH1 0x20 DUP6 LT ISZERO PUSH2 0x490C JUMPI POP DUP1 JUMPDEST PUSH2 0xF1E PUSH1 0x1F DUP6 ADD PUSH1 0x5 SHR DUP4 ADD DUP3 PUSH2 0x47B5 JUMP JUMPDEST PUSH1 0x1 PUSH1 0x1 PUSH1 0x40 SHL SUB DUP4 GT ISZERO PUSH2 0x4935 JUMPI PUSH2 0x4935 PUSH2 0x3D2C JUMP JUMPDEST PUSH2 0x4949 DUP4 PUSH2 0x4943 DUP4 SLOAD PUSH2 0x4476 JUMP JUMPDEST DUP4 PUSH2 0x48E5 JUMP JUMPDEST PUSH1 0x0 PUSH1 0x1F DUP5 GT PUSH1 0x1 DUP2 EQ PUSH2 0x497D JUMPI PUSH1 0x0 DUP6 ISZERO PUSH2 0x4965 JUMPI POP DUP4 DUP3 ADD CALLDATALOAD JUMPDEST PUSH1 0x0 NOT PUSH1 0x3 DUP8 SWAP1 SHL SHR NOT AND PUSH1 0x1 DUP7 SWAP1 SHL OR DUP4 SSTORE PUSH2 0xF1E JUMP JUMPDEST PUSH1 0x0 DUP4 DUP2 MSTORE PUSH1 0x20 SWAP1 KECCAK256 PUSH1 0x1F NOT DUP7 AND SWAP1 DUP4 JUMPDEST DUP3 DUP2 LT ISZERO PUSH2 0x49AE JUMPI DUP7 DUP6 ADD CALLDATALOAD DUP3 SSTORE PUSH1 0x20 SWAP5 DUP6 ADD SWAP5 PUSH1 0x1 SWAP1 SWAP3 ADD SWAP2 ADD PUSH2 0x498E JUMP JUMPDEST POP DUP7 DUP3 LT ISZERO PUSH2 0x49CB JUMPI PUSH1 0x0 NOT PUSH1 0xF8 DUP9 PUSH1 0x3 SHL AND SHR NOT DUP5 DUP8 ADD CALLDATALOAD AND DUP2 SSTORE JUMPDEST POP POP PUSH1 0x1 DUP6 PUSH1 0x1 SHL ADD DUP4 SSTORE POP POP POP POP POP JUMP JUMPDEST PUSH1 0x0 DUP2 CALLDATALOAD PUSH2 0x821 DUP2 PUSH2 0x40E9 JUMP JUMPDEST DUP2 CALLDATALOAD PUSH2 0x49F5 DUP2 PUSH2 0x4643 JUMP JUMPDEST DUP2 SLOAD PUSH1 0xFF NOT AND PUSH1 0xFF DUP3 AND OR DUP3 SSTORE POP PUSH1 0x1 PUSH1 0x20 DUP1 DUP5 ADD CALLDATALOAD DUP3 DUP5 ADD SSTORE PUSH1 0x40 DUP5 ADD CALLDATALOAD PUSH1 0x2 DUP5 ADD SSTORE PUSH1 0x60 DUP5 ADD CALLDATALOAD PUSH2 0x4A27 DUP2 PUSH2 0x4643 JUMP JUMPDEST PUSH1 0x3 DUP5 ADD DUP1 SLOAD PUSH1 0xFF NOT AND PUSH1 0xFF DUP4 AND OR SWAP1 SSTORE POP PUSH1 0x4 DUP4 ADD PUSH2 0x4A4A PUSH1 0x80 DUP7 ADD DUP7 PUSH2 0x45D3 JUMP JUMPDEST PUSH2 0x4A54 DUP2 DUP5 PUSH2 0x4852 JUMP JUMPDEST DUP2 DUP4 PUSH1 0x0 MSTORE DUP5 PUSH1 0x0 KECCAK256 SWAP4 POP PUSH1 0x0 JUMPDEST DUP3 DUP2 LT ISZERO PUSH2 0x4A90 JUMPI PUSH2 0x4A74 DUP3 DUP6 PUSH2 0x489F JUMP JUMPDEST PUSH2 0x4A7F DUP2 DUP4 DUP10 PUSH2 0x491E JUMP JUMPDEST POP POP SWAP4 DUP7 ADD SWAP4 SWAP1 DUP6 ADD SWAP1 DUP7 ADD PUSH2 0x4A62 JUMP JUMPDEST POP POP POP POP POP POP POP PUSH1 0xA0 DUP3 ADD CALLDATALOAD PUSH1 0x5 DUP3 ADD SSTORE PUSH2 0xC44 PUSH2 0x4AB0 PUSH1 0xC0 DUP5 ADD PUSH2 0x49DD JUMP JUMPDEST PUSH1 0x6 DUP4 ADD PUSH1 0xFF NOT DUP2 SLOAD AND PUSH1 0xFF DUP4 ISZERO ISZERO AND DUP2 OR DUP3 SSTORE POP POP POP JUMP JUMPDEST DUP2 CALLDATALOAD DUP2 SSTORE PUSH1 0x1 DUP1 DUP3 ADD PUSH1 0x20 PUSH2 0x4AE0 DUP2 DUP7 ADD DUP7 PUSH2 0x45D3 JUMP JUMPDEST PUSH1 0x1 PUSH1 0x40 SHL DUP2 GT ISZERO PUSH2 0x4AF4 JUMPI PUSH2 0x4AF4 PUSH2 0x3D2C JUMP JUMPDEST DUP4 SLOAD DUP2 DUP6 SSTORE DUP1 DUP3 LT ISZERO PUSH2 0x4BA1 JUMPI PUSH32 0x2492492492492492492492492492492492492492492492492492492492492492 DUP1 DUP3 GT DUP8 AND ISZERO PUSH2 0x4B34 JUMPI PUSH2 0x4B34 PUSH2 0x44AB JUMP JUMPDEST PUSH1 0x7 DUP2 DUP5 GT DUP9 AND ISZERO PUSH2 0x4B48 JUMPI PUSH2 0x4B48 PUSH2 0x44AB JUMP JUMPDEST PUSH1 0x0 DUP8 DUP2 MSTORE DUP7 DUP2 KECCAK256 SWAP1 SWAP3 POP DUP5 DUP3 MUL DUP2 ADD SWAP1 DUP3 DUP6 MUL ADD JUMPDEST DUP1 DUP3 LT ISZERO PUSH2 0x4B9C JUMPI DUP4 DUP3 SSTORE DUP4 DUP11 DUP4 ADD SSTORE DUP4 PUSH1 0x2 DUP4 ADD SSTORE DUP4 PUSH1 0x3 DUP4 ADD SSTORE PUSH2 0x4B86 PUSH1 0x4 DUP4 ADD PUSH2 0x481D JUMP JUMPDEST DUP4 PUSH1 0x5 DUP4 ADD SSTORE DUP4 PUSH1 0x6 DUP4 ADD SSTORE DUP3 DUP3 ADD SWAP2 POP PUSH2 0x4B5E JUMP JUMPDEST POP POP POP POP JUMPDEST POP PUSH1 0x0 SWAP4 DUP5 MSTORE PUSH1 0x20 DUP5 KECCAK256 SWAP4 DUP3 SWAP1 JUMPDEST DUP3 DUP2 LT ISZERO PUSH2 0x4BDC JUMPI PUSH2 0x4BCA PUSH2 0x4BC4 DUP4 DUP7 PUSH2 0x4623 JUMP JUMPDEST DUP8 PUSH2 0x49EA JUMP JUMPDEST PUSH1 0x7 SWAP6 SWAP1 SWAP6 ADD SWAP5 SWAP1 DUP5 ADD SWAP1 DUP7 ADD PUSH2 0x4BAF JUMP JUMPDEST POP POP POP POP POP POP POP POP POP JUMP JUMPDEST PUSH1 0x1 PUSH1 0x1 PUSH1 0xA0 SHL SUB DUP6 DUP2 AND DUP3 MSTORE DUP5 AND PUSH1 0x20 DUP3 ADD MSTORE PUSH1 0x80 PUSH1 0x40 DUP3 ADD DUP2 SWAP1 MSTORE PUSH1 0x0 SWAP1 PUSH2 0x4C13 SWAP1 DUP4 ADD DUP6 PUSH2 0x3C04 JUMP JUMPDEST SWAP1 POP DUP3 PUSH1 0x60 DUP4 ADD MSTORE SWAP6 SWAP5 POP POP POP POP POP JUMP JUMPDEST PUSH1 0x0 DUP3 CALLDATALOAD PUSH1 0x7E NOT DUP4 CALLDATASIZE SUB ADD DUP2 SLT PUSH2 0x4639 JUMPI PUSH1 0x0 DUP1 REVERT JUMPDEST PUSH2 0x4C44 DUP3 DUP4 PUSH2 0x489F JUMP JUMPDEST PUSH2 0x4C4F DUP2 DUP4 DUP6 PUSH2 0x491E JUMP JUMPDEST POP POP PUSH1 0x1 DUP1 DUP3 ADD PUSH1 0x20 PUSH2 0x4C64 DUP2 DUP7 ADD DUP7 PUSH2 0x45D3 JUMP JUMPDEST PUSH2 0x4C6E DUP2 DUP6 PUSH2 0x4852 JUMP JUMPDEST DUP2 DUP5 PUSH1 0x0 MSTORE DUP4 PUSH1 0x0 KECCAK256 SWAP5 POP PUSH1 0x0 JUMPDEST DUP3 DUP2 LT ISZERO PUSH2 0x4CAA JUMPI PUSH2 0x4C8E DUP3 DUP6 PUSH2 0x489F JUMP JUMPDEST PUSH2 0x4C99 DUP2 DUP4 DUP11 PUSH2 0x491E JUMP JUMPDEST POP POP SWAP5 DUP7 ADD SWAP5 SWAP1 DUP5 ADD SWAP1 DUP7 ADD PUSH2 0x4C7C JUMP JUMPDEST POP POP POP POP POP POP POP PUSH1 0x40 DUP3 ADD CALLDATALOAD PUSH1 0x2 DUP3 ADD SSTORE PUSH2 0x4CC8 PUSH1 0x60 DUP4 ADD DUP4 PUSH2 0x489F JUMP JUMPDEST PUSH2 0xCC0 DUP2 DUP4 PUSH1 0x3 DUP7 ADD PUSH2 0x491E JUMP JUMPDEST PUSH2 0x4CE0 DUP3 DUP4 PUSH2 0x45D3 JUMP JUMPDEST PUSH1 0x1 PUSH1 0x40 SHL DUP2 GT ISZERO PUSH2 0x4CF4 JUMPI PUSH2 0x4CF4 PUSH2 0x3D2C JUMP JUMPDEST DUP3 SLOAD DUP2 DUP5 SSTORE DUP1 DUP3 LT ISZERO PUSH2 0x4D86 JUMPI PUSH1 0x1 PUSH1 0x1 PUSH1 0xFE SHL SUB PUSH1 0x1 DUP2 DUP4 GT DUP2 AND ISZERO PUSH2 0x4D1D JUMPI PUSH2 0x4D1D PUSH2 0x44AB JUMP JUMPDEST PUSH1 0x2 DUP3 DUP6 GT DUP3 AND ISZERO PUSH2 0x4D31 JUMPI PUSH2 0x4D31 PUSH2 0x44AB JUMP JUMPDEST PUSH1 0x0 DUP8 DUP2 MSTORE PUSH1 0x20 DUP2 KECCAK256 SWAP1 SWAP4 POP DUP6 DUP3 SHL DUP2 ADD SWAP1 DUP6 DUP4 SHL ADD JUMPDEST DUP1 DUP3 LT ISZERO PUSH2 0x4D80 JUMPI PUSH2 0x4D59 DUP3 PUSH2 0x47CA JUMP JUMPDEST PUSH2 0x4D64 DUP5 DUP4 ADD PUSH2 0x481D JUMP JUMPDEST DUP5 DUP4 DUP4 ADD SSTORE PUSH2 0x4D75 PUSH1 0x3 DUP4 ADD PUSH2 0x47CA JUMP JUMPDEST PUSH1 0x4 DUP3 ADD SWAP2 POP PUSH2 0x4D48 JUMP JUMPDEST POP POP POP POP POP JUMPDEST POP PUSH1 0x0 DUP4 DUP2 MSTORE PUSH1 0x20 DUP2 KECCAK256 DUP4 SWAP2 JUMPDEST DUP4 DUP2 LT ISZERO PUSH2 0x4DC4 JUMPI PUSH2 0x4DAE PUSH2 0x4DA8 DUP5 DUP8 PUSH2 0x4C24 JUMP JUMPDEST DUP4 PUSH2 0x4C3A JUMP JUMPDEST PUSH1 0x20 SWAP3 SWAP1 SWAP3 ADD SWAP2 PUSH1 0x4 SWAP2 SWAP1 SWAP2 ADD SWAP1 PUSH1 0x1 ADD PUSH2 0x4D93 JUMP JUMPDEST POP POP POP POP POP POP POP JUMP JUMPDEST PUSH1 0x20 DUP1 DUP3 MSTORE PUSH1 0x12 SWAP1 DUP3 ADD MSTORE PUSH18 0x13D3931657D05113525397D0531313D5D151 PUSH1 0x72 SHL PUSH1 0x40 DUP3 ADD MSTORE PUSH1 0x60 ADD SWAP1 JUMP JUMPDEST PUSH1 0x0 PUSH1 0xFF DUP3 AND PUSH1 0xFF DUP2 EQ ISZERO PUSH2 0x4E10 JUMPI PUSH2 0x4E10 PUSH2 0x44AB JUMP JUMPDEST PUSH1 0x1 ADD SWAP3 SWAP2 POP POP JUMP JUMPDEST PUSH1 0x20 DUP1 DUP3 MSTORE PUSH1 0x7 SWAP1 DUP3 ADD MSTORE PUSH7 0x12539597D05111 PUSH1 0xCA SHL PUSH1 0x40 DUP3 ADD MSTORE PUSH1 0x60 ADD SWAP1 JUMP JUMPDEST PUSH1 0x0 DUP4 MLOAD PUSH2 0x4E4C DUP2 DUP5 PUSH1 0x20 DUP9 ADD PUSH2 0x3BD8 JUMP JUMPDEST DUP4 MLOAD SWAP1 DUP4 ADD SWAP1 PUSH2 0x4E60 DUP2 DUP4 PUSH1 0x20 DUP9 ADD PUSH2 0x3BD8 JUMP JUMPDEST ADD SWAP5 SWAP4 POP POP POP POP JUMP JUMPDEST PUSH1 0x0 DUP3 NOT DUP3 GT ISZERO PUSH2 0x4E7C JUMPI PUSH2 0x4E7C PUSH2 0x44AB JUMP JUMPDEST POP ADD SWAP1 JUMP JUMPDEST PUSH1 0x20 DUP1 DUP3 MSTORE PUSH1 0x2B SWAP1 DUP3 ADD MSTORE PUSH32 0x496E697469616C697A61626C653A20636F6E7472616374206973206E6F742069 PUSH1 0x40 DUP3 ADD MSTORE PUSH11 0x6E697469616C697A696E67 PUSH1 0xA8 SHL PUSH1 0x60 DUP3 ADD MSTORE PUSH1 0x80 ADD SWAP1 JUMP JUMPDEST PUSH1 0x0 DUP3 PUSH2 0x4EDB JUMPI PUSH2 0x4EDB PUSH2 0x4545 JUMP JUMPDEST POP MOD SWAP1 JUMP JUMPDEST PUSH1 0x20 DUP1 DUP3 MSTORE PUSH1 0x32 SWAP1 DUP3 ADD MSTORE PUSH32 0x4552433732313A207472616E7366657220746F206E6F6E204552433732315265 PUSH1 0x40 DUP3 ADD MSTORE PUSH18 0x31B2B4BB32B91034B6B83632B6B2B73A32B9 PUSH1 0x71 SHL PUSH1 0x60 DUP3 ADD MSTORE PUSH1 0x80 ADD SWAP1 JUMP JUMPDEST PUSH32 0x416363657373436F6E74726F6C3A206163636F756E7420000000000000000000 DUP2 MSTORE PUSH1 0x0 DUP4 MLOAD PUSH2 0x4F6A DUP2 PUSH1 0x17 DUP6 ADD PUSH1 0x20 DUP9 ADD PUSH2 0x3BD8 JUMP JUMPDEST PUSH17 0x1034B99036B4B9B9B4B733903937B6329 PUSH1 0x7D SHL PUSH1 0x17 SWAP2 DUP5 ADD SWAP2 DUP3 ADD MSTORE DUP4 MLOAD PUSH2 0x4F9B DUP2 PUSH1 0x28 DUP5 ADD PUSH1 0x20 DUP9 ADD PUSH2 0x3BD8 JUMP JUMPDEST ADD PUSH1 0x28 ADD SWAP5 SWAP4 POP POP POP POP JUMP JUMPDEST PUSH1 0x1 PUSH1 0x1 PUSH1 0xA0 SHL SUB DUP6 DUP2 AND DUP3 MSTORE DUP5 AND PUSH1 0x20 DUP3 ADD MSTORE PUSH1 0x40 DUP2 ADD DUP4 SWAP1 MSTORE PUSH1 0x80 PUSH1 0x60 DUP3 ADD DUP2 SWAP1 MSTORE PUSH1 0x0 SWAP1 PUSH2 0x4FDA SWAP1 DUP4 ADD DUP5 PUSH2 0x3C04 JUMP JUMPDEST SWAP7 SWAP6 POP POP POP POP POP POP JUMP JUMPDEST PUSH1 0x0 PUSH1 0x20 DUP3 DUP5 SUB SLT ISZERO PUSH2 0x4FF6 JUMPI PUSH1 0x0 DUP1 REVERT JUMPDEST DUP2 MLOAD PUSH2 0x1881 DUP2 PUSH2 0x3BA5 JUMP JUMPDEST PUSH1 0x0 DUP2 PUSH2 0x5010 JUMPI PUSH2 0x5010 PUSH2 0x44AB JUMP JUMPDEST POP PUSH1 0x0 NOT ADD SWAP1 JUMP JUMPDEST PUSH4 0x4E487B71 PUSH1 0xE0 SHL PUSH1 0x0 MSTORE PUSH1 0x31 PUSH1 0x4 MSTORE PUSH1 0x24 PUSH1 0x0 REVERT INVALID PUSH6 0xD7A28E3265B3 PUSH27 0x6474929F336521B332C1681B933F6CB9F3376673440D862A9F2DF0 INVALID 0xD2 0xC7 PUSH23 0x48DE5860A4CC508CD0818C85B8B8A1AB4CEEEF8D981C89 JUMP 0xA6 LOG2 PUSH5 0x6970667358 0x22 SLT KECCAK256 0xC6 0xC7 0x4C DUP4 0xAD 0xC7 SSTORE CALL EXTCODECOPY RETURNDATASIZE DUP3 DIV PUSH9 0x7073202E634EB5CB71 0x1F 0xAF DUP16 0xDF PUSH29 0x7F70FD047A64736F6C634300080C003300000000000000000000000000 "},"methodIdentifiers":{"DEFAULT_ADMIN_ROLE()":"a217fddf","MINTER_ROLE()":"d5391393","PAUSER_ROLE()":"e63ab1e9","_admin()":"01bc45c9","_boilerplateAddr()":"f9ecc22c","_boilerplateId()":"531f7b53","_creators(uint256)":"4816edf4","_paramsValues(uint256)":"953cd246","approve(address,uint256)":"095ea7b3","balanceOf(address)":"70a08231","baseTokenURI()":"d547cfb7","burn(uint256)":"42966c68","changeAdmin(address)":"8f283970","getApproved(uint256)":"081812fc","getParamValues(uint256)":"c0dca239","getRoleAdmin(bytes32)":"248a9ca3","getRoleMember(bytes32,uint256)":"9010d07c","getRoleMemberCount(bytes32)":"ca15c873","getTokenTraits(uint256)":"94e56847","getTraits()":"7f0429ef","grantRole(bytes32,address)":"2f2ff15d","hasRole(bytes32,address)":"91d14854","init(string,string,address,address,uint256)":"ae3dd095","initialize(string,string,string)":"a6487c53","initialize(string,string,string,address)":"5c6d8da1","isApprovedForAll(address,address)":"e985e9c5","mint(address)":"6a627842","mint(address,address,string,(bytes32,(uint8,uint256,uint256,uint8,string[],uint256,bool)[]))":"7d763613","name()":"06fdde03","owner()":"8da5cb5b","ownerOf(uint256)":"6352211e","pause()":"8456cb59","paused()":"5c975abb","renounceOwnership()":"715018a6","renounceRole(bytes32,address)":"36568abe","revokeRole(bytes32,address)":"d547741f","royalties(uint256)":"7f77f574","royaltyInfo(uint256,uint256)":"2a55205a","safeTransferFrom(address,address,uint256)":"42842e0e","safeTransferFrom(address,address,uint256,bytes)":"b88d4fde","setApprovalForAll(address,bool)":"a22cb465","setCreator(address,uint256[])":"d2a6b51a","setCustomURI(uint256,string)":"3adf80b4","setTokenRoyalty(uint256,address,uint256)":"9713c807","supportsInterface(bytes4)":"01ffc9a7","symbol()":"95d89b41","tokenByIndex(uint256)":"4f6ccce7","tokenOfOwnerByIndex(address,uint256)":"2f745c59","tokenURI(uint256)":"c87b56dd","totalSupply()":"18160ddd","transferFrom(address,address,uint256)":"23b872dd","transferOwnership(address)":"f2fde38b","unpause()":"3f4ba83a","updateTraits(((string,string[],uint256,string)[]))":"81d22564"}},"storageLayout":{"storage":[{"astId":740,"contract":"contracts/nft/GenerativeNFT.sol:GenerativeNFT","label":"_initialized","offset":0,"slot":"0","type":"t_uint8"},{"astId":743,"contract":"contracts/nft/GenerativeNFT.sol:GenerativeNFT","label":"_initializing","offset":1,"slot":"0","type":"t_bool"},{"astId":3144,"contract":"contracts/nft/GenerativeNFT.sol:GenerativeNFT","label":"__gap","offset":0,"slot":"1","type":"t_array(t_uint256)50_storage"},{"astId":3488,"contract":"contracts/nft/GenerativeNFT.sol:GenerativeNFT","label":"__gap","offset":0,"slot":"51","type":"t_array(t_uint256)50_storage"},{"astId":184,"contract":"contracts/nft/GenerativeNFT.sol:GenerativeNFT","label":"_roles","offset":0,"slot":"101","type":"t_mapping(t_bytes32,t_struct(RoleData)179_storage)"},{"astId":483,"contract":"contracts/nft/GenerativeNFT.sol:GenerativeNFT","label":"__gap","offset":0,"slot":"102","type":"t_array(t_uint256)49_storage"},{"astId":33,"contract":"contracts/nft/GenerativeNFT.sol:GenerativeNFT","label":"_roleMembers","offset":0,"slot":"151","type":"t_mapping(t_bytes32,t_struct(AddressSet)4125_storage)"},{"astId":143,"contract":"contracts/nft/GenerativeNFT.sol:GenerativeNFT","label":"__gap","offset":0,"slot":"152","type":"t_array(t_uint256)49_storage"},{"astId":1099,"contract":"contracts/nft/GenerativeNFT.sol:GenerativeNFT","label":"_name","offset":0,"slot":"201","type":"t_string_storage"},{"astId":1101,"contract":"contracts/nft/GenerativeNFT.sol:GenerativeNFT","label":"_symbol","offset":0,"slot":"202","type":"t_string_storage"},{"astId":1105,"contract":"contracts/nft/GenerativeNFT.sol:GenerativeNFT","label":"_owners","offset":0,"slot":"203","type":"t_mapping(t_uint256,t_address)"},{"astId":1109,"contract":"contracts/nft/GenerativeNFT.sol:GenerativeNFT","label":"_balances","offset":0,"slot":"204","type":"t_mapping(t_address,t_uint256)"},{"astId":1113,"contract":"contracts/nft/GenerativeNFT.sol:GenerativeNFT","label":"_tokenApprovals","offset":0,"slot":"205","type":"t_mapping(t_uint256,t_address)"},{"astId":1119,"contract":"contracts/nft/GenerativeNFT.sol:GenerativeNFT","label":"_operatorApprovals","offset":0,"slot":"206","type":"t_mapping(t_address,t_mapping(t_address,t_bool))"},{"astId":1961,"contract":"contracts/nft/GenerativeNFT.sol:GenerativeNFT","label":"__gap","offset":0,"slot":"207","type":"t_array(t_uint256)44_storage"},{"astId":2176,"contract":"contracts/nft/GenerativeNFT.sol:GenerativeNFT","label":"_ownedTokens","offset":0,"slot":"251","type":"t_mapping(t_address,t_mapping(t_uint256,t_uint256))"},{"astId":2180,"contract":"contracts/nft/GenerativeNFT.sol:GenerativeNFT","label":"_ownedTokensIndex","offset":0,"slot":"252","type":"t_mapping(t_uint256,t_uint256)"},{"astId":2183,"contract":"contracts/nft/GenerativeNFT.sol:GenerativeNFT","label":"_allTokens","offset":0,"slot":"253","type":"t_array(t_uint256)dyn_storage"},{"astId":2187,"contract":"contracts/nft/GenerativeNFT.sol:GenerativeNFT","label":"_allTokensIndex","offset":0,"slot":"254","type":"t_mapping(t_uint256,t_uint256)"},{"astId":2503,"contract":"contracts/nft/GenerativeNFT.sol:GenerativeNFT","label":"__gap","offset":0,"slot":"255","type":"t_array(t_uint256)46_storage"},{"astId":2145,"contract":"contracts/nft/GenerativeNFT.sol:GenerativeNFT","label":"__gap","offset":0,"slot":"301","type":"t_array(t_uint256)50_storage"},{"astId":905,"contract":"contracts/nft/GenerativeNFT.sol:GenerativeNFT","label":"_paused","offset":0,"slot":"351","type":"t_bool"},{"astId":1010,"contract":"contracts/nft/GenerativeNFT.sol:GenerativeNFT","label":"__gap","offset":0,"slot":"352","type":"t_array(t_uint256)49_storage"},{"astId":2563,"contract":"contracts/nft/GenerativeNFT.sol:GenerativeNFT","label":"__gap","offset":0,"slot":"401","type":"t_array(t_uint256)50_storage"},{"astId":2680,"contract":"contracts/nft/GenerativeNFT.sol:GenerativeNFT","label":"_tokenIdTracker","offset":0,"slot":"451","type":"t_struct(Counter)3151_storage"},{"astId":2682,"contract":"contracts/nft/GenerativeNFT.sol:GenerativeNFT","label":"_baseTokenURI","offset":0,"slot":"452","type":"t_string_storage"},{"astId":2859,"contract":"contracts/nft/GenerativeNFT.sol:GenerativeNFT","label":"__gap","offset":0,"slot":"453","type":"t_array(t_uint256)48_storage"},{"astId":1025,"contract":"contracts/nft/GenerativeNFT.sol:GenerativeNFT","label":"_status","offset":0,"slot":"501","type":"t_uint256"},{"astId":1069,"contract":"contracts/nft/GenerativeNFT.sol:GenerativeNFT","label":"__gap","offset":0,"slot":"502","type":"t_array(t_uint256)49_storage"},{"astId":593,"contract":"contracts/nft/GenerativeNFT.sol:GenerativeNFT","label":"_owner","offset":0,"slot":"551","type":"t_address"},{"astId":713,"contract":"contracts/nft/GenerativeNFT.sol:GenerativeNFT","label":"__gap","offset":0,"slot":"552","type":"t_array(t_uint256)49_storage"},{"astId":4695,"contract":"contracts/nft/GenerativeNFT.sol:GenerativeNFT","label":"_nextTokenId","offset":0,"slot":"601","type":"t_struct(Counter)3151_storage"},{"astId":4697,"contract":"contracts/nft/GenerativeNFT.sol:GenerativeNFT","label":"_admin","offset":0,"slot":"602","type":"t_address"},{"astId":4699,"contract":"contracts/nft/GenerativeNFT.sol:GenerativeNFT","label":"_boilerplateAddr","offset":0,"slot":"603","type":"t_address"},{"astId":4701,"contract":"contracts/nft/GenerativeNFT.sol:GenerativeNFT","label":"_boilerplateId","offset":0,"slot":"604","type":"t_uint256"},{"astId":4706,"contract":"contracts/nft/GenerativeNFT.sol:GenerativeNFT","label":"_paramsValues","offset":0,"slot":"605","type":"t_mapping(t_uint256,t_struct(ParamsOfProject)4526_storage)"},{"astId":4709,"contract":"contracts/nft/GenerativeNFT.sol:GenerativeNFT","label":"_traits","offset":0,"slot":"606","type":"t_struct(Traits)4661_storage"},{"astId":4713,"contract":"contracts/nft/GenerativeNFT.sol:GenerativeNFT","label":"_customUri","offset":0,"slot":"607","type":"t_mapping(t_uint256,t_string_storage)"},{"astId":4717,"contract":"contracts/nft/GenerativeNFT.sol:GenerativeNFT","label":"_creators","offset":0,"slot":"608","type":"t_mapping(t_uint256,t_address)"},{"astId":4719,"contract":"contracts/nft/GenerativeNFT.sol:GenerativeNFT","label":"_nameColl","offset":0,"slot":"609","type":"t_string_storage"},{"astId":4721,"contract":"contracts/nft/GenerativeNFT.sol:GenerativeNFT","label":"_symbolColl","offset":0,"slot":"610","type":"t_string_storage"},{"astId":5501,"contract":"contracts/nft/GenerativeNFT.sol:GenerativeNFT","label":"royalties","offset":0,"slot":"611","type":"t_mapping(t_uint256,t_struct(RoyaltyInfo)5496_storage)"}],"types":{"t_address":{"encoding":"inplace","label":"address","numberOfBytes":"20"},"t_array(t_bytes32)dyn_storage":{"base":"t_bytes32","encoding":"dynamic_array","label":"bytes32[]","numberOfBytes":"32"},"t_array(t_string_storage)dyn_storage":{"base":"t_string_storage","encoding":"dynamic_array","label":"string[]","numberOfBytes":"32"},"t_array(t_struct(ParamTemplate)4519_storage)dyn_storage":{"base":"t_struct(ParamTemplate)4519_storage","encoding":"dynamic_array","label":"struct BoilerplateParam.ParamTemplate[]","numberOfBytes":"32"},"t_array(t_struct(Trait)4656_storage)dyn_storage":{"base":"t_struct(Trait)4656_storage","encoding":"dynamic_array","label":"struct TraitInfo.Trait[]","numberOfBytes":"32"},"t_array(t_uint256)44_storage":{"base":"t_uint256","encoding":"inplace","label":"uint256[44]","numberOfBytes":"1408"},"t_array(t_uint256)46_storage":{"base":"t_uint256","encoding":"inplace","label":"uint256[46]","numberOfBytes":"1472"},"t_array(t_uint256)48_storage":{"base":"t_uint256","encoding":"inplace","label":"uint256[48]","numberOfBytes":"1536"},"t_array(t_uint256)49_storage":{"base":"t_uint256","encoding":"inplace","label":"uint256[49]","numberOfBytes":"1568"},"t_array(t_uint256)50_storage":{"base":"t_uint256","encoding":"inplace","label":"uint256[50]","numberOfBytes":"1600"},"t_array(t_uint256)dyn_storage":{"base":"t_uint256","encoding":"dynamic_array","label":"uint256[]","numberOfBytes":"32"},"t_bool":{"encoding":"inplace","label":"bool","numberOfBytes":"1"},"t_bytes32":{"encoding":"inplace","label":"bytes32","numberOfBytes":"32"},"t_mapping(t_address,t_bool)":{"encoding":"mapping","key":"t_address","label":"mapping(address => bool)","numberOfBytes":"32","value":"t_bool"},"t_mapping(t_address,t_mapping(t_address,t_bool))":{"encoding":"mapping","key":"t_address","label":"mapping(address => mapping(address => bool))","numberOfBytes":"32","value":"t_mapping(t_address,t_bool)"},"t_mapping(t_address,t_mapping(t_uint256,t_uint256))":{"encoding":"mapping","key":"t_address","label":"mapping(address => mapping(uint256 => uint256))","numberOfBytes":"32","value":"t_mapping(t_uint256,t_uint256)"},"t_mapping(t_address,t_uint256)":{"encoding":"mapping","key":"t_address","label":"mapping(address => uint256)","numberOfBytes":"32","value":"t_uint256"},"t_mapping(t_bytes32,t_struct(AddressSet)4125_storage)":{"encoding":"mapping","key":"t_bytes32","label":"mapping(bytes32 => struct EnumerableSetUpgradeable.AddressSet)","numberOfBytes":"32","value":"t_struct(AddressSet)4125_storage"},"t_mapping(t_bytes32,t_struct(RoleData)179_storage)":{"encoding":"mapping","key":"t_bytes32","label":"mapping(bytes32 => struct AccessControlUpgradeable.RoleData)","numberOfBytes":"32","value":"t_struct(RoleData)179_storage"},"t_mapping(t_bytes32,t_uint256)":{"encoding":"mapping","key":"t_bytes32","label":"mapping(bytes32 => uint256)","numberOfBytes":"32","value":"t_uint256"},"t_mapping(t_uint256,t_address)":{"encoding":"mapping","key":"t_uint256","label":"mapping(uint256 => address)","numberOfBytes":"32","value":"t_address"},"t_mapping(t_uint256,t_string_storage)":{"encoding":"mapping","key":"t_uint256","label":"mapping(uint256 => string)","numberOfBytes":"32","value":"t_string_storage"},"t_mapping(t_uint256,t_struct(ParamsOfProject)4526_storage)":{"encoding":"mapping","key":"t_uint256","label":"mapping(uint256 => struct BoilerplateParam.ParamsOfProject)","numberOfBytes":"32","value":"t_struct(ParamsOfProject)4526_storage"},"t_mapping(t_uint256,t_struct(RoyaltyInfo)5496_storage)":{"encoding":"mapping","key":"t_uint256","label":"mapping(uint256 => struct GenerativeNFT.RoyaltyInfo)","numberOfBytes":"32","value":"t_struct(RoyaltyInfo)5496_storage"},"t_mapping(t_uint256,t_uint256)":{"encoding":"mapping","key":"t_uint256","label":"mapping(uint256 => uint256)","numberOfBytes":"32","value":"t_uint256"},"t_string_storage":{"encoding":"bytes","label":"string","numberOfBytes":"32"},"t_struct(AddressSet)4125_storage":{"encoding":"inplace","label":"struct EnumerableSetUpgradeable.AddressSet","members":[{"astId":4124,"contract":"contracts/nft/GenerativeNFT.sol:GenerativeNFT","label":"_inner","offset":0,"slot":"0","type":"t_struct(Set)3824_storage"}],"numberOfBytes":"64"},"t_struct(Counter)3151_storage":{"encoding":"inplace","label":"struct CountersUpgradeable.Counter","members":[{"astId":3150,"contract":"contracts/nft/GenerativeNFT.sol:GenerativeNFT","label":"_value","offset":0,"slot":"0","type":"t_uint256"}],"numberOfBytes":"32"},"t_struct(ParamTemplate)4519_storage":{"encoding":"inplace","label":"struct BoilerplateParam.ParamTemplate","members":[{"astId":4505,"contract":"contracts/nft/GenerativeNFT.sol:GenerativeNFT","label":"_typeValue","offset":0,"slot":"0","type":"t_uint8"},{"astId":4507,"contract":"contracts/nft/GenerativeNFT.sol:GenerativeNFT","label":"_max","offset":0,"slot":"1","type":"t_uint256"},{"astId":4509,"contract":"contracts/nft/GenerativeNFT.sol:GenerativeNFT","label":"_min","offset":0,"slot":"2","type":"t_uint256"},{"astId":4511,"contract":"contracts/nft/GenerativeNFT.sol:GenerativeNFT","label":"_decimal","offset":0,"slot":"3","type":"t_uint8"},{"astId":4514,"contract":"contracts/nft/GenerativeNFT.sol:GenerativeNFT","label":"_availableValues","offset":0,"slot":"4","type":"t_array(t_string_storage)dyn_storage"},{"astId":4516,"contract":"contracts/nft/GenerativeNFT.sol:GenerativeNFT","label":"_value","offset":0,"slot":"5","type":"t_uint256"},{"astId":4518,"contract":"contracts/nft/GenerativeNFT.sol:GenerativeNFT","label":"_editable","offset":0,"slot":"6","type":"t_bool"}],"numberOfBytes":"224"},"t_struct(ParamsOfProject)4526_storage":{"encoding":"inplace","label":"struct BoilerplateParam.ParamsOfProject","members":[{"astId":4521,"contract":"contracts/nft/GenerativeNFT.sol:GenerativeNFT","label":"_seed","offset":0,"slot":"0","type":"t_bytes32"},{"astId":4525,"contract":"contracts/nft/GenerativeNFT.sol:GenerativeNFT","label":"_params","offset":0,"slot":"1","type":"t_array(t_struct(ParamTemplate)4519_storage)dyn_storage"}],"numberOfBytes":"64"},"t_struct(RoleData)179_storage":{"encoding":"inplace","label":"struct AccessControlUpgradeable.RoleData","members":[{"astId":176,"contract":"contracts/nft/GenerativeNFT.sol:GenerativeNFT","label":"members","offset":0,"slot":"0","type":"t_mapping(t_address,t_bool)"},{"astId":178,"contract":"contracts/nft/GenerativeNFT.sol:GenerativeNFT","label":"adminRole","offset":0,"slot":"1","type":"t_bytes32"}],"numberOfBytes":"64"},"t_struct(RoyaltyInfo)5496_storage":{"encoding":"inplace","label":"struct GenerativeNFT.RoyaltyInfo","members":[{"astId":5491,"contract":"contracts/nft/GenerativeNFT.sol:GenerativeNFT","label":"recipient","offset":0,"slot":"0","type":"t_address"},{"astId":5493,"contract":"contracts/nft/GenerativeNFT.sol:GenerativeNFT","label":"amount","offset":20,"slot":"0","type":"t_uint24"},{"astId":5495,"contract":"contracts/nft/GenerativeNFT.sol:GenerativeNFT","label":"isValue","offset":23,"slot":"0","type":"t_bool"}],"numberOfBytes":"32"},"t_struct(Set)3824_storage":{"encoding":"inplace","label":"struct EnumerableSetUpgradeable.Set","members":[{"astId":3819,"contract":"contracts/nft/GenerativeNFT.sol:GenerativeNFT","label":"_values","offset":0,"slot":"0","type":"t_array(t_bytes32)dyn_storage"},{"astId":3823,"contract":"contracts/nft/GenerativeNFT.sol:GenerativeNFT","label":"_indexes","offset":0,"slot":"1","type":"t_mapping(t_bytes32,t_uint256)"}],"numberOfBytes":"64"},"t_struct(Trait)4656_storage":{"encoding":"inplace","label":"struct TraitInfo.Trait","members":[{"astId":4648,"contract":"contracts/nft/GenerativeNFT.sol:GenerativeNFT","label":"name","offset":0,"slot":"0","type":"t_string_storage"},{"astId":4651,"contract":"contracts/nft/GenerativeNFT.sol:GenerativeNFT","label":"_availableValues","offset":0,"slot":"1","type":"t_array(t_string_storage)dyn_storage"},{"astId":4653,"contract":"contracts/nft/GenerativeNFT.sol:GenerativeNFT","label":"_value","offset":0,"slot":"2","type":"t_uint256"},{"astId":4655,"contract":"contracts/nft/GenerativeNFT.sol:GenerativeNFT","label":"_valueStr","offset":0,"slot":"3","type":"t_string_storage"}],"numberOfBytes":"128"},"t_struct(Traits)4661_storage":{"encoding":"inplace","label":"struct TraitInfo.Traits","members":[{"astId":4660,"contract":"contracts/nft/GenerativeNFT.sol:GenerativeNFT","label":"_traits","offset":0,"slot":"0","type":"t_array(t_struct(Trait)4656_storage)dyn_storage"}],"numberOfBytes":"32"},"t_uint24":{"encoding":"inplace","label":"uint24","numberOfBytes":"3"},"t_uint256":{"encoding":"inplace","label":"uint256","numberOfBytes":"32"},"t_uint8":{"encoding":"inplace","label":"uint8","numberOfBytes":"1"}}}}}}