{"contracts/nft/GenerativeNFT.sol":{"GenerativeNFT":{"abi":[{"inputs":[{"internalType":"string","name":"_name","type":"string"},{"internalType":"string","name":"_symbol","type":"string"},{"internalType":"string","name":"_baseuri","type":"string"},{"internalType":"address","name":"admin","type":"address"}],"stateMutability":"nonpayable","type":"constructor"},{"anonymous":false,"inputs":[{"indexed":true,"internalType":"address","name":"owner","type":"address"},{"indexed":true,"internalType":"address","name":"approved","type":"address"},{"indexed":true,"internalType":"uint256","name":"tokenId","type":"uint256"}],"name":"Approval","type":"event"},{"anonymous":false,"inputs":[{"indexed":true,"internalType":"address","name":"owner","type":"address"},{"indexed":true,"internalType":"address","name":"operator","type":"address"},{"indexed":false,"internalType":"bool","name":"approved","type":"bool"}],"name":"ApprovalForAll","type":"event"},{"anonymous":false,"inputs":[{"indexed":false,"internalType":"address","name":"mintTo","type":"address"},{"indexed":false,"internalType":"address","name":"creator","type":"address"},{"indexed":false,"internalType":"string","name":"uri","type":"string"},{"indexed":false,"internalType":"uint256","name":"tokenId","type":"uint256"}],"name":"MintGenerativeNFT","type":"event"},{"anonymous":false,"inputs":[{"indexed":true,"internalType":"address","name":"previousOwner","type":"address"},{"indexed":true,"internalType":"address","name":"newOwner","type":"address"}],"name":"OwnershipTransferred","type":"event"},{"anonymous":false,"inputs":[{"indexed":false,"internalType":"address","name":"account","type":"address"}],"name":"Paused","type":"event"},{"anonymous":false,"inputs":[{"indexed":true,"internalType":"bytes32","name":"role","type":"bytes32"},{"indexed":true,"internalType":"bytes32","name":"previousAdminRole","type":"bytes32"},{"indexed":true,"internalType":"bytes32","name":"newAdminRole","type":"bytes32"}],"name":"RoleAdminChanged","type":"event"},{"anonymous":false,"inputs":[{"indexed":true,"internalType":"bytes32","name":"role","type":"bytes32"},{"indexed":true,"internalType":"address","name":"account","type":"address"},{"indexed":true,"internalType":"address","name":"sender","type":"address"}],"name":"RoleGranted","type":"event"},{"anonymous":false,"inputs":[{"indexed":true,"internalType":"bytes32","name":"role","type":"bytes32"},{"indexed":true,"internalType":"address","name":"account","type":"address"},{"indexed":true,"internalType":"address","name":"sender","type":"address"}],"name":"RoleRevoked","type":"event"},{"anonymous":false,"inputs":[{"indexed":true,"internalType":"address","name":"from","type":"address"},{"indexed":true,"internalType":"address","name":"to","type":"address"},{"indexed":true,"internalType":"uint256","name":"tokenId","type":"uint256"}],"name":"Transfer","type":"event"},{"anonymous":false,"inputs":[{"indexed":false,"internalType":"address","name":"account","type":"address"}],"name":"Unpaused","type":"event"},{"inputs":[],"name":"DEFAULT_ADMIN_ROLE","outputs":[{"internalType":"bytes32","name":"","type":"bytes32"}],"stateMutability":"view","type":"function"},{"inputs":[],"name":"MINTER_ROLE","outputs":[{"internalType":"bytes32","name":"","type":"bytes32"}],"stateMutability":"view","type":"function"},{"inputs":[],"name":"PAUSER_ROLE","outputs":[{"internalType":"bytes32","name":"","type":"bytes32"}],"stateMutability":"view","type":"function"},{"inputs":[],"name":"_admin","outputs":[{"internalType":"address","name":"","type":"address"}],"stateMutability":"view","type":"function"},{"inputs":[],"name":"_boilerplateAddr","outputs":[{"internalType":"address","name":"","type":"address"}],"stateMutability":"view","type":"function"},{"inputs":[],"name":"_boilerplateId","outputs":[{"internalType":"uint256","name":"","type":"uint256"}],"stateMutability":"view","type":"function"},{"inputs":[{"internalType":"uint256","name":"","type":"uint256"}],"name":"_creators","outputs":[{"internalType":"address","name":"","type":"address"}],"stateMutability":"view","type":"function"},{"inputs":[{"internalType":"uint256","name":"","type":"uint256"}],"name":"_paramsValues","outputs":[{"internalType":"bytes32","name":"_seed","type":"bytes32"}],"stateMutability":"view","type":"function"},{"inputs":[{"internalType":"address","name":"to","type":"address"},{"internalType":"uint256","name":"tokenId","type":"uint256"}],"name":"approve","outputs":[],"stateMutability":"nonpayable","type":"function"},{"inputs":[{"internalType":"address","name":"owner","type":"address"}],"name":"balanceOf","outputs":[{"internalType":"uint256","name":"","type":"uint256"}],"stateMutability":"view","type":"function"},{"inputs":[],"name":"baseTokenURI","outputs":[{"internalType":"string","name":"","type":"string"}],"stateMutability":"view","type":"function"},{"inputs":[{"internalType":"uint256","name":"tokenId","type":"uint256"}],"name":"burn","outputs":[],"stateMutability":"nonpayable","type":"function"},{"inputs":[{"internalType":"address","name":"_newAdmin","type":"address"}],"name":"changeAdmin","outputs":[],"stateMutability":"nonpayable","type":"function"},{"inputs":[{"internalType":"uint256","name":"tokenId","type":"uint256"}],"name":"getApproved","outputs":[{"internalType":"address","name":"","type":"address"}],"stateMutability":"view","type":"function"},{"inputs":[{"internalType":"uint256","name":"tokenId","type":"uint256"}],"name":"getParamValues","outputs":[{"internalType":"bytes32","name":"","type":"bytes32"},{"components":[{"internalType":"uint8","name":"_typeValue","type":"uint8"},{"internalType":"uint256","name":"_max","type":"uint256"},{"internalType":"uint256","name":"_min","type":"uint256"},{"internalType":"uint8","name":"_decimal","type":"uint8"},{"internalType":"string[]","name":"_availableValues","type":"string[]"},{"internalType":"uint256","name":"_value","type":"uint256"},{"internalType":"bool","name":"_editable","type":"bool"}],"internalType":"struct BoilerplateParam.ParamTemplate[]","name":"","type":"tuple[]"}],"stateMutability":"view","type":"function"},{"inputs":[{"internalType":"bytes32","name":"role","type":"bytes32"}],"name":"getRoleAdmin","outputs":[{"internalType":"bytes32","name":"","type":"bytes32"}],"stateMutability":"view","type":"function"},{"inputs":[{"internalType":"bytes32","name":"role","type":"bytes32"},{"internalType":"uint256","name":"index","type":"uint256"}],"name":"getRoleMember","outputs":[{"internalType":"address","name":"","type":"address"}],"stateMutability":"view","type":"function"},{"inputs":[{"internalType":"bytes32","name":"role","type":"bytes32"}],"name":"getRoleMemberCount","outputs":[{"internalType":"uint256","name":"","type":"uint256"}],"stateMutability":"view","type":"function"},{"inputs":[{"internalType":"uint256","name":"tokenId","type":"uint256"}],"name":"getTraits","outputs":[{"components":[{"internalType":"string","name":"name","type":"string"},{"internalType":"string[]","name":"_availableValues","type":"string[]"},{"internalType":"uint256","name":"_value","type":"uint256"},{"internalType":"string","name":"_valueStr","type":"string"}],"internalType":"struct TraitInfo.Trait[]","name":"","type":"tuple[]"}],"stateMutability":"view","type":"function"},{"inputs":[{"internalType":"bytes32","name":"role","type":"bytes32"},{"internalType":"address","name":"account","type":"address"}],"name":"grantRole","outputs":[],"stateMutability":"nonpayable","type":"function"},{"inputs":[{"internalType":"bytes32","name":"role","type":"bytes32"},{"internalType":"address","name":"account","type":"address"}],"name":"hasRole","outputs":[{"internalType":"bool","name":"","type":"bool"}],"stateMutability":"view","type":"function"},{"inputs":[{"internalType":"string","name":"name","type":"string"},{"internalType":"string","name":"symbol","type":"string"},{"internalType":"address","name":"admin","type":"address"},{"internalType":"address","name":"boilerplateAdd","type":"address"},{"internalType":"uint256","name":"boilerplateId","type":"uint256"}],"name":"init","outputs":[],"stateMutability":"nonpayable","type":"function"},{"inputs":[{"internalType":"address","name":"owner","type":"address"},{"internalType":"address","name":"operator","type":"address"}],"name":"isApprovedForAll","outputs":[{"internalType":"bool","name":"","type":"bool"}],"stateMutability":"view","type":"function"},{"inputs":[{"internalType":"address","name":"to","type":"address"}],"name":"mint","outputs":[],"stateMutability":"nonpayable","type":"function"},{"inputs":[{"internalType":"address","name":"mintTo","type":"address"},{"internalType":"address","name":"creator","type":"address"},{"internalType":"string","name":"uri","type":"string"},{"components":[{"internalType":"bytes32","name":"_seed","type":"bytes32"},{"components":[{"internalType":"uint8","name":"_typeValue","type":"uint8"},{"internalType":"uint256","name":"_max","type":"uint256"},{"internalType":"uint256","name":"_min","type":"uint256"},{"internalType":"uint8","name":"_decimal","type":"uint8"},{"internalType":"string[]","name":"_availableValues","type":"string[]"},{"internalType":"uint256","name":"_value","type":"uint256"},{"internalType":"bool","name":"_editable","type":"bool"}],"internalType":"struct BoilerplateParam.ParamTemplate[]","name":"_params","type":"tuple[]"}],"internalType":"struct BoilerplateParam.ParamsOfProject","name":"_paramsTemplateValue","type":"tuple"}],"name":"mint","outputs":[],"stateMutability":"nonpayable","type":"function"},{"inputs":[],"name":"name","outputs":[{"internalType":"string","name":"","type":"string"}],"stateMutability":"view","type":"function"},{"inputs":[],"name":"owner","outputs":[{"internalType":"address","name":"","type":"address"}],"stateMutability":"view","type":"function"},{"inputs":[{"internalType":"uint256","name":"tokenId","type":"uint256"}],"name":"ownerOf","outputs":[{"internalType":"address","name":"","type":"address"}],"stateMutability":"view","type":"function"},{"inputs":[],"name":"pause","outputs":[],"stateMutability":"nonpayable","type":"function"},{"inputs":[],"name":"paused","outputs":[{"internalType":"bool","name":"","type":"bool"}],"stateMutability":"view","type":"function"},{"inputs":[],"name":"renounceOwnership","outputs":[],"stateMutability":"nonpayable","type":"function"},{"inputs":[{"internalType":"bytes32","name":"role","type":"bytes32"},{"internalType":"address","name":"account","type":"address"}],"name":"renounceRole","outputs":[],"stateMutability":"nonpayable","type":"function"},{"inputs":[{"internalType":"bytes32","name":"role","type":"bytes32"},{"internalType":"address","name":"account","type":"address"}],"name":"revokeRole","outputs":[],"stateMutability":"nonpayable","type":"function"},{"inputs":[{"internalType":"uint256","name":"","type":"uint256"}],"name":"royalties","outputs":[{"internalType":"address","name":"recipient","type":"address"},{"internalType":"uint24","name":"amount","type":"uint24"},{"internalType":"bool","name":"isValue","type":"bool"}],"stateMutability":"view","type":"function"},{"inputs":[{"internalType":"uint256","name":"_tokenId","type":"uint256"},{"internalType":"uint256","name":"_salePrice","type":"uint256"}],"name":"royaltyInfo","outputs":[{"internalType":"address","name":"receiver","type":"address"},{"internalType":"uint256","name":"royaltyAmount","type":"uint256"}],"stateMutability":"view","type":"function"},{"inputs":[{"internalType":"address","name":"from","type":"address"},{"internalType":"address","name":"to","type":"address"},{"internalType":"uint256","name":"tokenId","type":"uint256"}],"name":"safeTransferFrom","outputs":[],"stateMutability":"nonpayable","type":"function"},{"inputs":[{"internalType":"address","name":"from","type":"address"},{"internalType":"address","name":"to","type":"address"},{"internalType":"uint256","name":"tokenId","type":"uint256"},{"internalType":"bytes","name":"data","type":"bytes"}],"name":"safeTransferFrom","outputs":[],"stateMutability":"nonpayable","type":"function"},{"inputs":[{"internalType":"address","name":"operator","type":"address"},{"internalType":"bool","name":"approved","type":"bool"}],"name":"setApprovalForAll","outputs":[],"stateMutability":"nonpayable","type":"function"},{"inputs":[{"internalType":"address","name":"_to","type":"address"},{"internalType":"uint256[]","name":"_ids","type":"uint256[]"}],"name":"setCreator","outputs":[],"stateMutability":"nonpayable","type":"function"},{"inputs":[{"internalType":"uint256","name":"_tokenId","type":"uint256"},{"internalType":"string","name":"_newURI","type":"string"}],"name":"setCustomURI","outputs":[],"stateMutability":"nonpayable","type":"function"},{"inputs":[{"internalType":"uint256","name":"_tokenId","type":"uint256"},{"internalType":"address","name":"_recipient","type":"address"},{"internalType":"uint256","name":"_value","type":"uint256"}],"name":"setTokenRoyalty","outputs":[],"stateMutability":"nonpayable","type":"function"},{"inputs":[{"internalType":"bytes4","name":"interfaceId","type":"bytes4"}],"name":"supportsInterface","outputs":[{"internalType":"bool","name":"","type":"bool"}],"stateMutability":"view","type":"function"},{"inputs":[],"name":"symbol","outputs":[{"internalType":"string","name":"","type":"string"}],"stateMutability":"view","type":"function"},{"inputs":[{"internalType":"uint256","name":"index","type":"uint256"}],"name":"tokenByIndex","outputs":[{"internalType":"uint256","name":"","type":"uint256"}],"stateMutability":"view","type":"function"},{"inputs":[{"internalType":"address","name":"owner","type":"address"},{"internalType":"uint256","name":"index","type":"uint256"}],"name":"tokenOfOwnerByIndex","outputs":[{"internalType":"uint256","name":"","type":"uint256"}],"stateMutability":"view","type":"function"},{"inputs":[{"internalType":"uint256","name":"_tokenId","type":"uint256"}],"name":"tokenURI","outputs":[{"internalType":"string","name":"","type":"string"}],"stateMutability":"view","type":"function"},{"inputs":[],"name":"totalSupply","outputs":[{"internalType":"uint256","name":"","type":"uint256"}],"stateMutability":"view","type":"function"},{"inputs":[{"internalType":"address","name":"from","type":"address"},{"internalType":"address","name":"to","type":"address"},{"internalType":"uint256","name":"tokenId","type":"uint256"}],"name":"transferFrom","outputs":[],"stateMutability":"nonpayable","type":"function"},{"inputs":[{"internalType":"address","name":"newOwner","type":"address"}],"name":"transferOwnership","outputs":[],"stateMutability":"nonpayable","type":"function"},{"inputs":[],"name":"unpause","outputs":[],"stateMutability":"nonpayable","type":"function"},{"inputs":[{"components":[{"components":[{"internalType":"string","name":"name","type":"string"},{"internalType":"string[]","name":"_availableValues","type":"string[]"},{"internalType":"uint256","name":"_value","type":"uint256"},{"internalType":"string","name":"_valueStr","type":"string"}],"internalType":"struct TraitInfo.Trait[]","name":"_traits","type":"tuple[]"}],"internalType":"struct TraitInfo.Traits","name":"traits","type":"tuple"}],"name":"updateTraits","outputs":[],"stateMutability":"nonpayable","type":"function"}],"evm":{"bytecode":{"linkReferences":{},"object":"60806040523480156200001157600080fd5b5060405162004df438038062004df4833981016040819052620000349162000456565b8383838282816002908051906020019062000051929190620002e3565b50805162000067906003906020840190620002e3565b5050600c805460ff191690555080516200008990600e906020840190620002e3565b50620000976000336200012c565b620000c37f9f2df0fed2c77648de5860a4cc508cd0818c85b8b8a1ab4ceeef8d981c8956a6336200012c565b620000ef7f65d7a28e3265b37a6474929f336521b332c1681b933f6cb9f3376673440d862a336200012c565b50506001600f555062000102336200013c565b601280546001600160a01b0319166001600160a01b03929092169190911790555062000546915050565b6200013882826200018e565b5050565b601080546001600160a01b038381166001600160a01b0319831681179093556040519116919082907f8be0079c531659141344cd1fd0a4f28419497f9722a3daafe3b4186f6b6457e090600090a35050565b620001a58282620001d160201b6200207d1760201c565b6000828152600160209081526040909120620001cc9183906200210162000271821b17901c565b505050565b6000828152602081815260408083206001600160a01b038516845290915290205460ff1662000138576000828152602081815260408083206001600160a01b03851684529091529020805460ff191660011790556200022d3390565b6001600160a01b0316816001600160a01b0316837f2f8788117e7eff1d82e926ec794901d17c78024a50270940304540a733656f0d60405160405180910390a45050565b600062000288836001600160a01b03841662000291565b90505b92915050565b6000818152600183016020526040812054620002da575081546001818101845560008481526020808220909301849055845484825282860190935260409020919091556200028b565b5060006200028b565b828054620002f19062000509565b90600052602060002090601f01602090048101928262000315576000855562000360565b82601f106200033057805160ff191683800117855562000360565b8280016001018555821562000360579182015b828111156200036057825182559160200191906001019062000343565b506200036e92915062000372565b5090565b5b808211156200036e576000815560010162000373565b634e487b7160e01b600052604160045260246000fd5b600082601f830112620003b157600080fd5b81516001600160401b0380821115620003ce57620003ce62000389565b604051601f8301601f19908116603f01168101908282118183101715620003f957620003f962000389565b816040528381526020925086838588010111156200041657600080fd5b600091505b838210156200043a57858201830151818301840152908201906200041b565b838211156200044c5760008385830101525b9695505050505050565b600080600080608085870312156200046d57600080fd5b84516001600160401b03808211156200048557600080fd5b62000493888389016200039f565b95506020870151915080821115620004aa57600080fd5b620004b8888389016200039f565b94506040870151915080821115620004cf57600080fd5b50620004de878288016200039f565b606087015190935090506001600160a01b0381168114620004fe57600080fd5b939692955090935050565b600181811c908216806200051e57607f821691505b602082108114156200054057634e487b7160e01b600052602260045260246000fd5b50919050565b61489e80620005566000396000f3fe608060405234801561001057600080fd5b50600436106102f15760003560e01c80637f77f5741161019d578063b88d4fde116100e9578063d547741f116100a2578063e63ab1e91161007c578063e63ab1e914610718578063e985e9c51461072d578063f2fde38b14610769578063f9ecc22c1461077c57600080fd5b8063d547741f146106dd578063d547cfb7146106f0578063e1dc0761146106f857600080fd5b8063b88d4fde1461065b578063c0dca2391461066e578063c87b56dd1461068f578063ca15c873146106a2578063d2a6b51a146106b5578063d5391393146106c857600080fd5b806391d14854116101565780639713c807116101305780639713c8071461061a578063a217fddf1461062d578063a22cb46514610635578063ae3dd0951461064857600080fd5b806391d14854146105df578063953cd246146105f257806395d89b411461061257600080fd5b80637f77f5741461052057806381d225641461058d5780638456cb59146105a05780638da5cb5b146105a85780638f283970146105b95780639010d07c146105cc57600080fd5b80633adf80b41161025c578063531f7b53116102155780636a627842116101ef5780636a627842146104e157806370a08231146104f2578063715018a6146105055780637d7636131461050d57600080fd5b8063531f7b53146104ba5780635c975abb146104c35780636352211e146104ce57600080fd5b80633adf80b41461043d5780633f4ba83a1461045057806342842e0e1461045857806342966c681461046b5780634816edf41461047e5780634f6ccce7146104a757600080fd5b806323b872dd116102ae57806323b872dd1461039c578063248a9ca3146103af5780632a55205a146103d25780632f2ff15d146104045780632f745c591461041757806336568abe1461042a57600080fd5b806301bc45c9146102f657806301ffc9a71461032657806306fdde0314610349578063081812fc1461035e578063095ea7b31461037157806318160ddd14610386575b600080fd5b601254610309906001600160a01b031681565b6040516001600160a01b0390911681526020015b60405180910390f35b61033961033436600461356a565b61078f565b604051901515815260200161031d565b6103516107a0565b60405161031d91906135df565b61030961036c3660046135f2565b610832565b61038461037f366004613627565b610859565b005b61038e610974565b60405190815260200161031d565b6103846103aa366004613651565b610990565b61038e6103bd3660046135f2565b60009081526020819052604090206001015490565b6103e56103e036600461368d565b6109c2565b604080516001600160a01b03909316835260208301919091520161031d565b6103846104123660046136af565b610a84565b61038e610425366004613627565b610aa9565b6103846104383660046136af565b610b3f565b61038461044b3660046137c0565b610bbd565b610384610c39565b610384610466366004613651565b610ccf565b6103846104793660046135f2565b610cea565b61030961048c3660046135f2565b6018602052600090815260409020546001600160a01b031681565b61038e6104b53660046135f2565b610d18565b61038e60145481565b600c5460ff16610339565b6103096104dc3660046135f2565b610dab565b6103846104ef3660046137fc565b50565b61038e6105003660046137fc565b610e0b565b610384610e91565b61038461051b366004613817565b610ea3565b61056261052e3660046135f2565b601b602052600090815260409020546001600160a01b03811690600160a01b810462ffffff1690600160b81b900460ff1683565b604080516001600160a01b03909416845262ffffff909216602084015215159082015260600161031d565b61038461059b3660046138a0565b611229565b61038461127d565b6012546001600160a01b0316610309565b6103846105c73660046137fc565b61130f565b6103096105da36600461368d565b61145d565b6103396105ed3660046136af565b61147c565b61038e6106003660046135f2565b60156020526000908152604090205481565b6103516114a5565b6103846106283660046138da565b6114b4565b61038e600081565b610384610643366004613918565b6115c5565b61038461065636600461394f565b6115d0565b6103846106693660046139db565b6116b7565b61068161067c3660046135f2565b6116e9565b60405161031d929190613aae565b61035161069d3660046135f2565b61187f565b61038e6106b03660046135f2565b611a05565b6103846106c3366004613b8b565b611a1c565b61038e60008051602061484983398151915281565b6103846106eb3660046136af565b611abd565b610351611ae2565b61070b6107063660046135f2565b611aec565b60405161031d9190613c33565b61038e60008051602061482983398151915281565b61033961073b366004613cdf565b6001600160a01b03918216600090815260076020908152604080832093909416825291909152205460ff1690565b6103846107773660046137fc565b612007565b601354610309906001600160a01b031681565b600061079a82612116565b92915050565b6060601980546107af90613d09565b80601f01602080910402602001604051908101604052809291908181526020018280546107db90613d09565b80156108285780601f106107fd57610100808354040283529160200191610828565b820191906000526020600020905b81548152906001019060200180831161080b57829003601f168201915b5050505050905090565b600061083d8261213b565b506000908152600660205260409020546001600160a01b031690565b600061086482610dab565b9050806001600160a01b0316836001600160a01b031614156108d75760405162461bcd60e51b815260206004820152602160248201527f4552433732313a20617070726f76616c20746f2063757272656e74206f776e656044820152603960f91b60648201526084015b60405180910390fd5b336001600160a01b03821614806108f357506108f3813361073b565b6109655760405162461bcd60e51b815260206004820152603e60248201527f4552433732313a20617070726f76652063616c6c6572206973206e6f7420746f60448201527f6b656e206f776e6572206e6f7220617070726f76656420666f7220616c6c000060648201526084016108ce565b61096f838361219a565b505050565b6000600161098160115490565b61098b9190613d54565b905090565b61099b335b82612208565b6109b75760405162461bcd60e51b81526004016108ce90613d6b565b61096f838383612287565b6000828152601b60209081526040808320815160608101835290546001600160a01b0381168252600160a01b810462ffffff1693820193909352600160b81b90920460ff1615801591830191909152829190610a46578051602082015190935061271090610a359062ffffff1686613db9565b610a3f9190613dee565b9150610a7c565b6000858152601860205260409020546001600160a01b03169250612710610a6f856101f4613db9565b610a799190613dee565b91505b509250929050565b600082815260208190526040902060010154610a9f8161242e565b61096f8383612438565b6000610ab483610e0b565b8210610b165760405162461bcd60e51b815260206004820152602b60248201527f455243373231456e756d657261626c653a206f776e657220696e646578206f7560448201526a74206f6620626f756e647360a81b60648201526084016108ce565b506001600160a01b03919091166000908152600860209081526040808320938352929052205490565b6001600160a01b0381163314610baf5760405162461bcd60e51b815260206004820152602f60248201527f416363657373436f6e74726f6c3a2063616e206f6e6c792072656e6f756e636560448201526e103937b632b9903337b91039b2b63360891b60648201526084016108ce565b610bb9828261245a565b5050565b60008281526018602052604090205482906001600160a01b03163314610c145760405162461bcd60e51b815260206004820152600c60248201526b27a7262cafa1a922a0aa27a960a11b60448201526064016108ce565b60008381526017602090815260409091208351610c33928501906134bb565b50505050565b610c516000805160206148298339815191523361147c565b610cc5576040805162461bcd60e51b81526020600482015260248101919091527f4552433732315072657365744d696e7465725061757365724175746f49643a2060448201527f6d75737420686176652070617573657220726f6c6520746f20756e706175736560648201526084016108ce565b610ccd61247c565b565b61096f838383604051806020016040528060008152506116b7565b610cf333610995565b610d0f5760405162461bcd60e51b81526004016108ce90613d6b565b6104ef816124ce565b6000610d23600a5490565b8210610d865760405162461bcd60e51b815260206004820152602c60248201527f455243373231456e756d657261626c653a20676c6f62616c20696e646578206f60448201526b7574206f6620626f756e647360a01b60648201526084016108ce565b600a8281548110610d9957610d99613e02565b90600052602060002001549050919050565b6000818152600460205260408120546001600160a01b03168061079a5760405162461bcd60e51b8152602060048201526018602482015277115490cdcc8c4e881a5b9d985b1a59081d1bdad95b88125160421b60448201526064016108ce565b60006001600160a01b038216610e755760405162461bcd60e51b815260206004820152602960248201527f4552433732313a2061646472657373207a65726f206973206e6f7420612076616044820152683634b21037bbb732b960b91b60648201526084016108ce565b506001600160a01b031660009081526005602052604090205490565b610e99612575565b610ccd60006125f3565b60135460408051808201909152600381526206460760eb1b6020820152906001600160a01b03163314610ee95760405162461bcd60e51b81526004016108ce91906135df565b506013546001600160a01b031615801590610f0657506000601454115b6040518060400160405280600381526020016219181960e91b81525090610f405760405162461bcd60e51b81526004016108ce91906135df565b50803560005b610f536020840184613e18565b90508110156110a6576000610f6b6020850185613e18565b83818110610f7b57610f7b613e02565b9050602002810190610f8d9190613e68565b610f9690613f2c565b90508060c0015161105b57608081015151611007578060a00151610fc68460001c83604001518460200151612645565b146040518060400160405280600381526020016219181b60e91b815250906110015760405162461bcd60e51b81526004016108ce91906135df565b5061105b565b8060a0015161101e8460001c836080015151612670565b146040518060400160405280600381526020016232303760e81b815250906110595760405162461bcd60e51b81526004016108ce91906135df565b505b60a081015160405161107a918591602001918252602082015260400190565b60405160208183030381529060405280519060200120925050808061109e90613fc2565b915050610f46565b50601354601454604051634f558e7960e01b815260048101919091526001600160a01b03909116908190634f558e7990602401602060405180830381865afa1580156110f6573d6000803e3d6000fd5b505050506040513d601f19601f8201168201806040525081019061111a9190613fdd565b6040518060400160405280600381526020016219181960e91b815250906111545760405162461bcd60e51b81526004016108ce91906135df565b50611163601180546001019055565b600061116e60115490565b8551909150156111995760008181526017602090815260409091208651611197928801906134bb565b505b600081815260186020908152604080832080546001600160a01b0319166001600160a01b038b161790556015909152902084906111d6828261430e565b9050506111e3878261267c565b7fbf83d3c95e3a6b6b6cac45594a672c1d703818ada1304cf6e235fdc0bd6e437187878784604051611218949392919061442c565b60405180910390a150505050505050565b60125460408051808201909152600381526231303160e81b6020820152906001600160a01b0316331461126f5760405162461bcd60e51b81526004016108ce91906135df565b5080601661096f828261451b565b6112956000805160206148298339815191523361147c565b6113075760405162461bcd60e51b815260206004820152603e60248201527f4552433732315072657365744d696e7465725061757365724175746f49643a2060448201527f6d75737420686176652070617573657220726f6c6520746f207061757365000060648201526084016108ce565b610ccd612696565b6012546001600160a01b0316336001600160a01b0316146113425760405162461bcd60e51b81526004016108ce90614612565b61134d60003361147c565b6113695760405162461bcd60e51b81526004016108ce90614612565b60408051808201909152600381526203130360ec1b60208201526001600160a01b0382166113aa5760405162461bcd60e51b81526004016108ce91906135df565b50601280546001600160a01b038381166001600160a01b03198316811790935516906113d890600090610a84565b6012546113fd90600080516020614849833981519152906001600160a01b0316610a84565b60125461142290600080516020614829833981519152906001600160a01b0316610a84565b61142d600082611abd565b61144560008051602061484983398151915282611abd565b610bb960008051602061482983398151915282611abd565b600082815260016020526040812061147590836126d3565b9392505050565b6000918252602082815260408084206001600160a01b0393909316845291905290205460ff1690565b6060601a80546107af90613d09565b6012546001600160a01b0316336001600160a01b0316146114e75760405162461bcd60e51b81526004016108ce90614612565b6114f260003361147c565b61150e5760405162461bcd60e51b81526004016108ce90614612565b60408051808201909152600381526232303360e81b602082015261271082111561154b5760405162461bcd60e51b81526004016108ce91906135df565b50604080516060810182526001600160a01b03938416815262ffffff928316602080830191825260018385019081526000978852601b90915292909520905181549551925194166001600160b81b031990951694909417600160a01b91909216021760ff60b81b1916600160b81b91151591909102179055565b610bb93383836126df565b6001600160a01b0382166115f65760405162461bcd60e51b81526004016108ce9061463e565b6001600160a01b03831661161c5760405162461bcd60e51b81526004016108ce9061463e565b601454156116565760405162461bcd60e51b815260206004820152600760248201526611561254d5115160ca1b60448201526064016108ce565b84516116699060199060208801906134bb565b50835161167d90601a9060208701906134bb565b50601380546001600160a01b0319166001600160a01b03841617905560148190556116a7836127ae565b6116b083612007565b5050505050565b6116c13383612208565b6116dd5760405162461bcd60e51b81526004016108ce90613d6b565b610c338484848461289a565b600081815260156020908152604080832080546001909101805483518186028101860190945280845260609492939192839190879084015b8282101561187057600084815260208082206040805160e08101825260078702909201805460ff9081168452600182015484860152600282015484840152600382015416606084015260048101805483518187028101870190945280845293959194608087019491929084015b8282101561183a5783829060005260206000200180546117ad90613d09565b80601f01602080910402602001604051908101604052809291908181526020018280546117d990613d09565b80156118265780601f106117fb57610100808354040283529160200191611826565b820191906000526020600020905b81548152906001019060200180831161180957829003601f168201915b50505050508152602001906001019061178e565b50505090825250600582015460208083019190915260069092015460ff1615156040909101529082526001929092019101611721565b50505050905091509150915091565b60008181526017602052604081208054606092919061189d90613d09565b80601f01602080910402602001604051908101604052809291908181526020018280546118c990613d09565b80156119165780601f106118eb57610100808354040283529160200191611916565b820191906000526020600020905b8154815290600101906020018083116118f957829003601f168201915b505050505090506000815111156119c6576000838152601760205260409020805461194090613d09565b80601f016020809104026020016040519081016040528092919081815260200182805461196c90613d09565b80156119b95780601f1061198e576101008083540402835291602001916119b9565b820191906000526020600020905b81548152906001019060200180831161199c57829003601f168201915b5050505050915050919050565b6119ce611ae2565b6119d7846128cd565b6040516020016119e892919061465f565b604051602081830303815290604052915050919050565b50919050565b600081815260016020526040812061079a906129ca565b60408051808201909152600381526203130360ec1b60208201526001600160a01b038316611a5d5760405162461bcd60e51b81526004016108ce91906135df565b50611a7660008051602061484983398151915283612438565b60005b815181101561096f576000828281518110611a9657611a96613e02565b60200260200101519050611aaa84826129d4565b5080611ab581613fc2565b915050611a79565b600082815260208190526040902060010154611ad88161242e565b61096f838361245a565b606061098b612a5a565b60606000601560008481526020019081526020016000206040518060400160405290816000820154815260200160018201805480602002602001604051908101604052809291908181526020016000905b82821015611c8c57600084815260208082206040805160e08101825260078702909201805460ff9081168452600182015484860152600282015484840152600382015416606084015260048101805483518187028101870190945280845293959194608087019491929084015b82821015611c56578382906000526020600020018054611bc990613d09565b80601f0160208091040260200160405190810160405280929190818152602001828054611bf590613d09565b8015611c425780601f10611c1757610100808354040283529160200191611c42565b820191906000526020600020905b815481529060010190602001808311611c2557829003601f168201915b505050505081526020019060010190611baa565b50505090825250600582015460208083019190915260069092015460ff1615156040909101529082526001929092019101611b3d565b5050505081525050905060006016600001805480602002602001604051908101604052809291908181526020016000905b82821015611ef65783829060005260206000209060040201604051806080016040529081600082018054611cf090613d09565b80601f0160208091040260200160405190810160405280929190818152602001828054611d1c90613d09565b8015611d695780601f10611d3e57610100808354040283529160200191611d69565b820191906000526020600020905b815481529060010190602001808311611d4c57829003601f168201915b5050505050815260200160018201805480602002602001604051908101604052809291908181526020016000905b82821015611e43578382906000526020600020018054611db690613d09565b80601f0160208091040260200160405190810160405280929190818152602001828054611de290613d09565b8015611e2f5780601f10611e0457610100808354040283529160200191611e2f565b820191906000526020600020905b815481529060010190602001808311611e1257829003601f168201915b505050505081526020019060010190611d97565b50505050815260200160028201548152602001600382018054611e6590613d09565b80601f0160208091040260200160405190810160405280929190818152602001828054611e9190613d09565b8015611ede5780601f10611eb357610100808354040283529160200191611ede565b820191906000526020600020905b815481529060010190602001808311611ec157829003601f168201915b50505050508152505081526020019060010190611cbd565b50505050905060005b8260200151518160ff161015611fff57600083602001518260ff1681518110611f2a57611f2a613e02565b602002602001015160a0015190506000838360ff1681518110611f4f57611f4f613e02565b602002602001015160200151511115611fc557828260ff1681518110611f7757611f77613e02565b6020026020010151602001518181518110611f9457611f94613e02565b6020026020010151838360ff1681518110611fb157611fb1613e02565b602002602001015160600181905250611fec565b80838360ff1681518110611fdb57611fdb613e02565b602002602001015160400181815250505b5080611ff78161468e565b915050611eff565b509392505050565b61200f612575565b6001600160a01b0381166120745760405162461bcd60e51b815260206004820152602660248201527f4f776e61626c653a206e6577206f776e657220697320746865207a65726f206160448201526564647265737360d01b60648201526084016108ce565b6104ef816125f3565b612087828261147c565b610bb9576000828152602081815260408083206001600160a01b03851684529091529020805460ff191660011790556120bd3390565b6001600160a01b0316816001600160a01b0316837f2f8788117e7eff1d82e926ec794901d17c78024a50270940304540a733656f0d60405160405180910390a45050565b6000611475836001600160a01b038416612a69565b60006001600160e01b0319821663780e9d6360e01b148061079a575061079a82612ab8565b6000818152600460205260409020546001600160a01b03166104ef5760405162461bcd60e51b8152602060048201526018602482015277115490cdcc8c4e881a5b9d985b1a59081d1bdad95b88125160421b60448201526064016108ce565b600081815260066020526040902080546001600160a01b0319166001600160a01b03841690811790915581906121cf82610dab565b6001600160a01b03167f8c5be1e5ebec7d5bd14f71427d1e84f3dd0314c0f7b2291e5b200ac8c7c3b92560405160405180910390a45050565b60008061221483610dab565b9050806001600160a01b0316846001600160a01b0316148061225b57506001600160a01b0380821660009081526007602090815260408083209388168352929052205460ff165b8061227f5750836001600160a01b031661227484610832565b6001600160a01b0316145b949350505050565b826001600160a01b031661229a82610dab565b6001600160a01b0316146122fe5760405162461bcd60e51b815260206004820152602560248201527f4552433732313a207472616e736665722066726f6d20696e636f72726563742060448201526437bbb732b960d91b60648201526084016108ce565b6001600160a01b0382166123605760405162461bcd60e51b8152602060048201526024808201527f4552433732313a207472616e7366657220746f20746865207a65726f206164646044820152637265737360e01b60648201526084016108ce565b61236b838383612af8565b61237660008261219a565b6001600160a01b038316600090815260056020526040812080546001929061239f908490613d54565b90915550506001600160a01b03821660009081526005602052604081208054600192906123cd9084906146ae565b909155505060008181526004602052604080822080546001600160a01b0319166001600160a01b0386811691821790925591518493918716917fddf252ad1be2c89b69c2b068fc378daa952ba7f163c4a11628f55a4df523b3ef91a4505050565b6104ef8133612b03565b612442828261207d565b600082815260016020526040902061096f9082612101565b6124648282612b67565b600082815260016020526040902061096f9082612bcc565b612484612be1565b600c805460ff191690557f5db9ee0a495bf2e6ff9c91a7834c1ba4fdd244a5e8aa4e537bd38aeae4b073aa335b6040516001600160a01b03909116815260200160405180910390a1565b60006124d982610dab565b90506124e781600084612af8565b6124f260008361219a565b6001600160a01b038116600090815260056020526040812080546001929061251b908490613d54565b909155505060008281526004602052604080822080546001600160a01b0319169055518391906001600160a01b038416907fddf252ad1be2c89b69c2b068fc378daa952ba7f163c4a11628f55a4df523b3ef908390a45050565b336125886012546001600160a01b031690565b6001600160a01b031614806125a757506013546001600160a01b031633145b610ccd5760405162461bcd60e51b815260206004820181905260248201527f4f776e61626c653a2063616c6c6572206973206e6f7420746865206f776e657260448201526064016108ce565b601080546001600160a01b038381166001600160a01b0319831681179093556040519116919082907f8be0079c531659141344cd1fd0a4f28419497f9722a3daafe3b4186f6b6457e090600090a35050565b60006126518383613d54565b61265c9060016146ae565b61266690856146c6565b61227f90846146ae565b600061147582846146c6565b610bb9828260405180602001604052806000815250612c2a565b61269e612c5d565b600c805460ff191660011790557f62e78cea01bee320cd4e420270b5ea74000d11b0c9f74754ebdbfc544b05a2586124b13390565b60006114758383612ca3565b816001600160a01b0316836001600160a01b031614156127415760405162461bcd60e51b815260206004820152601960248201527f4552433732313a20617070726f766520746f2063616c6c65720000000000000060448201526064016108ce565b6001600160a01b03838116600081815260076020908152604080832094871680845294825291829020805460ff191686151590811790915591519182527f17307eab39ab6107e8899845ad3d59bd9653f200f220920489ca2b5937696c31910160405180910390a3505050565b6013546001600160a01b031633146128005760405162461bcd60e51b815260206004820152601560248201527424a72b2fa9a2a72222a92fa4a724aa2fa0a226a4a760591b60448201526064016108ce565b6001600160a01b0381166128265760405162461bcd60e51b81526004016108ce9061463e565b601280546001600160a01b0319166001600160a01b03831690811790915561285090600090612438565b60125461287590600080516020614849833981519152906001600160a01b0316612438565b6012546104ef90600080516020614829833981519152906001600160a01b0316612438565b6128a5848484612287565b6128b184848484612ccd565b610c335760405162461bcd60e51b81526004016108ce906146da565b6060816128f15750506040805180820190915260018152600360fc1b602082015290565b8160005b811561291b578061290581613fc2565b91506129149050600a83613dee565b91506128f5565b6000816001600160401b03811115612935576129356136db565b6040519080825280601f01601f19166020018201604052801561295f576020820181803683370190505b5090505b841561227f57612974600183613d54565b9150612981600a866146c6565b61298c9060306146ae565b60f81b8183815181106129a1576129a1613e02565b60200101906001600160f81b031916908160001a9053506129c3600a86613dee565b9450612963565b600061079a825490565b60008181526018602052604090205481906001600160a01b03163314612a2b5760405162461bcd60e51b815260206004820152600c60248201526b27a7262cafa1a922a0aa27a960a11b60448201526064016108ce565b50600090815260186020526040902080546001600160a01b0319166001600160a01b0392909216919091179055565b6060600e80546107af90613d09565b6000818152600183016020526040812054612ab05750815460018181018455600084815260208082209093018490558454848252828601909352604090209190915561079a565b50600061079a565b60006001600160e01b031982166380ac58cd60e01b1480612ae957506001600160e01b03198216635b5e139f60e01b145b8061079a575061079a82612dcb565b61096f838383612df0565b612b0d828261147c565b610bb957612b25816001600160a01b03166014612e62565b612b30836020612e62565b604051602001612b4192919061472c565b60408051601f198184030181529082905262461bcd60e51b82526108ce916004016135df565b612b71828261147c565b15610bb9576000828152602081815260408083206001600160a01b0385168085529252808320805460ff1916905551339285917ff6391f5c32d9c69d2a47ea670b442974b53935d1edc7fd64eb21e047a839171b9190a45050565b6000611475836001600160a01b038416612ffd565b600c5460ff16610ccd5760405162461bcd60e51b815260206004820152601460248201527314185d5cd8589b194e881b9bdd081c185d5cd95960621b60448201526064016108ce565b612c3483836130f0565b612c416000848484612ccd565b61096f5760405162461bcd60e51b81526004016108ce906146da565b600c5460ff1615610ccd5760405162461bcd60e51b815260206004820152601060248201526f14185d5cd8589b194e881c185d5cd95960821b60448201526064016108ce565b6000826000018281548110612cba57612cba613e02565b9060005260206000200154905092915050565b60006001600160a01b0384163b15612dc057604051630a85bd0160e11b81526001600160a01b0385169063150b7a0290612d119033908990889088906004016147a1565b6020604051808303816000875af1925050508015612d4c575060408051601f3d908101601f19168201909252612d49918101906147de565b60015b612da6573d808015612d7a576040519150601f19603f3d011682016040523d82523d6000602084013e612d7f565b606091505b508051612d9e5760405162461bcd60e51b81526004016108ce906146da565b805181602001fd5b6001600160e01b031916630a85bd0160e11b14905061227f565b506001949350505050565b60006001600160e01b03198216635a05180f60e01b148061079a575061079a8261323e565b612dfb838383613273565b600c5460ff161561096f5760405162461bcd60e51b815260206004820152602b60248201527f4552433732315061757361626c653a20746f6b656e207472616e73666572207760448201526a1a1a5b19481c185d5cd95960aa1b60648201526084016108ce565b60606000612e71836002613db9565b612e7c9060026146ae565b6001600160401b03811115612e9357612e936136db565b6040519080825280601f01601f191660200182016040528015612ebd576020820181803683370190505b509050600360fc1b81600081518110612ed857612ed8613e02565b60200101906001600160f81b031916908160001a905350600f60fb1b81600181518110612f0757612f07613e02565b60200101906001600160f81b031916908160001a9053506000612f2b846002613db9565b612f369060016146ae565b90505b6001811115612fae576f181899199a1a9b1b9c1cb0b131b232b360811b85600f1660108110612f6a57612f6a613e02565b1a60f81b828281518110612f8057612f80613e02565b60200101906001600160f81b031916908160001a90535060049490941c93612fa7816147fb565b9050612f39565b5083156114755760405162461bcd60e51b815260206004820181905260248201527f537472696e67733a20686578206c656e67746820696e73756666696369656e7460448201526064016108ce565b600081815260018301602052604081205480156130e6576000613021600183613d54565b855490915060009061303590600190613d54565b905081811461309a57600086600001828154811061305557613055613e02565b906000526020600020015490508087600001848154811061307857613078613e02565b6000918252602080832090910192909255918252600188019052604090208390555b85548690806130ab576130ab614812565b60019003818190600052602060002001600090559055856001016000868152602001908152602001600020600090556001935050505061079a565b600091505061079a565b6001600160a01b0382166131465760405162461bcd60e51b815260206004820181905260248201527f4552433732313a206d696e7420746f20746865207a65726f206164647265737360448201526064016108ce565b6000818152600460205260409020546001600160a01b0316156131ab5760405162461bcd60e51b815260206004820152601c60248201527f4552433732313a20746f6b656e20616c7265616479206d696e7465640000000060448201526064016108ce565b6131b760008383612af8565b6001600160a01b03821660009081526005602052604081208054600192906131e09084906146ae565b909155505060008181526004602052604080822080546001600160a01b0319166001600160a01b03861690811790915590518392907fddf252ad1be2c89b69c2b068fc378daa952ba7f163c4a11628f55a4df523b3ef908290a45050565b60006001600160e01b03198216637965db0b60e01b148061079a57506301ffc9a760e01b6001600160e01b031983161461079a565b6001600160a01b0383166132ce576132c981600a80546000838152600b60205260408120829055600182018355919091527fc65a7bb8d6351c1cf70c95a316cc6a92839c986682d98bc35f958f4883f9d2a80155565b6132f1565b816001600160a01b0316836001600160a01b0316146132f1576132f1838261332b565b6001600160a01b0382166133085761096f816133c8565b826001600160a01b0316826001600160a01b03161461096f5761096f8282613477565b6000600161333884610e0b565b6133429190613d54565b600083815260096020526040902054909150808214613395576001600160a01b03841660009081526008602090815260408083208584528252808320548484528184208190558352600990915290208190555b5060009182526009602090815260408084208490556001600160a01b039094168352600881528383209183525290812055565b600a546000906133da90600190613d54565b6000838152600b6020526040812054600a805493945090928490811061340257613402613e02565b9060005260206000200154905080600a838154811061342357613423613e02565b6000918252602080832090910192909255828152600b9091526040808220849055858252812055600a80548061345b5761345b614812565b6001900381819060005260206000200160009055905550505050565b600061348283610e0b565b6001600160a01b039093166000908152600860209081526040808320868452825280832085905593825260099052919091209190915550565b8280546134c790613d09565b90600052602060002090601f0160209004810192826134e9576000855561352f565b82601f1061350257805160ff191683800117855561352f565b8280016001018555821561352f579182015b8281111561352f578251825591602001919060010190613514565b5061353b92915061353f565b5090565b5b8082111561353b5760008155600101613540565b6001600160e01b0319811681146104ef57600080fd5b60006020828403121561357c57600080fd5b813561147581613554565b60005b838110156135a257818101518382015260200161358a565b83811115610c335750506000910152565b600081518084526135cb816020860160208601613587565b601f01601f19169290920160200192915050565b60208152600061147560208301846135b3565b60006020828403121561360457600080fd5b5035919050565b80356001600160a01b038116811461362257600080fd5b919050565b6000806040838503121561363a57600080fd5b6136438361360b565b946020939093013593505050565b60008060006060848603121561366657600080fd5b61366f8461360b565b925061367d6020850161360b565b9150604084013590509250925092565b600080604083850312156136a057600080fd5b50508035926020909101359150565b600080604083850312156136c257600080fd5b823591506136d26020840161360b565b90509250929050565b634e487b7160e01b600052604160045260246000fd5b60405160e081016001600160401b0381118282101715613713576137136136db565b60405290565b604051601f8201601f191681016001600160401b0381118282101715613741576137416136db565b604052919050565b60006001600160401b03831115613762576137626136db565b613775601f8401601f1916602001613719565b905082815283838301111561378957600080fd5b828260208301376000602084830101529392505050565b600082601f8301126137b157600080fd5b61147583833560208501613749565b600080604083850312156137d357600080fd5b8235915060208301356001600160401b038111156137f057600080fd5b610a79858286016137a0565b60006020828403121561380e57600080fd5b6114758261360b565b6000806000806080858703121561382d57600080fd5b6138368561360b565b93506138446020860161360b565b925060408501356001600160401b038082111561386057600080fd5b61386c888389016137a0565b9350606087013591508082111561388257600080fd5b5085016040818803121561389557600080fd5b939692955090935050565b6000602082840312156138b257600080fd5b81356001600160401b038111156138c857600080fd5b82016020818503121561147557600080fd5b6000806000606084860312156138ef57600080fd5b8335925061367d6020850161360b565b80151581146104ef57600080fd5b8035613622816138ff565b6000806040838503121561392b57600080fd5b6139348361360b565b91506020830135613944816138ff565b809150509250929050565b600080600080600060a0868803121561396757600080fd5b85356001600160401b038082111561397e57600080fd5b61398a89838a016137a0565b965060208801359150808211156139a057600080fd5b506139ad888289016137a0565b9450506139bc6040870161360b565b92506139ca6060870161360b565b949793965091946080013592915050565b600080600080608085870312156139f157600080fd5b6139fa8561360b565b9350613a086020860161360b565b92506040850135915060608501356001600160401b03811115613a2a57600080fd5b8501601f81018713613a3b57600080fd5b613a4a87823560208401613749565b91505092959194509250565b600082825180855260208086019550808260051b84010181860160005b84811015613aa157601f19868403018952613a8f8383516135b3565b98840198925090830190600101613a73565b5090979650505050505050565b6000604080830185845260208281860152818651808452606093508387019150838160051b88010183890160005b83811015613b5857605f198a8403018552815160e060ff80835116865288830151898701528a8301518b870152808a840151168a870152506080808301518282880152613b2b83880182613a56565b60a0858101519089015260c094850151151594909701939093525050509385019390850190600101613adc565b50909a9950505050505050505050565b60006001600160401b03821115613b8157613b816136db565b5060051b60200190565b60008060408385031215613b9e57600080fd5b613ba78361360b565b91506020808401356001600160401b03811115613bc357600080fd5b8401601f81018613613bd457600080fd5b8035613be7613be282613b68565b613719565b81815260059190911b82018301908381019088831115613c0657600080fd5b928401925b82841015613c2457833582529284019290840190613c0b565b80955050505050509250929050565b60006020808301818452808551808352604092508286019150828160051b87010184880160005b83811015613cd157603f19898403018552815160808151818652613c80828701826135b3565b915050888201518582038a870152613c988282613a56565b915050878201518886015260608083015192508582038187015250613cbd81836135b3565b968901969450505090860190600101613c5a565b509098975050505050505050565b60008060408385031215613cf257600080fd5b613cfb8361360b565b91506136d26020840161360b565b600181811c90821680613d1d57607f821691505b602082108114156119ff57634e487b7160e01b600052602260045260246000fd5b634e487b7160e01b600052601160045260246000fd5b600082821015613d6657613d66613d3e565b500390565b6020808252602e908201527f4552433732313a2063616c6c6572206973206e6f7420746f6b656e206f776e6560408201526d1c881b9bdc88185c1c1c9bdd995960921b606082015260800190565b6000816000190483118215151615613dd357613dd3613d3e565b500290565b634e487b7160e01b600052601260045260246000fd5b600082613dfd57613dfd613dd8565b500490565b634e487b7160e01b600052603260045260246000fd5b6000808335601e19843603018112613e2f57600080fd5b8301803591506001600160401b03821115613e4957600080fd5b6020019150600581901b3603821315613e6157600080fd5b9250929050565b6000823560de19833603018112613e7e57600080fd5b9190910192915050565b60ff811681146104ef57600080fd5b803561362281613e88565b600082601f830112613eb357600080fd5b81356020613ec3613be283613b68565b82815260059290921b84018101918181019086841115613ee257600080fd5b8286015b84811015613f215780356001600160401b03811115613f055760008081fd5b613f138986838b01016137a0565b845250918301918301613ee6565b509695505050505050565b600060e08236031215613f3e57600080fd5b613f466136f1565b613f4f83613e97565b81526020830135602082015260408301356040820152613f7160608401613e97565b606082015260808301356001600160401b03811115613f8f57600080fd5b613f9b36828601613ea2565b60808301525060a083013560a0820152613fb760c0840161390d565b60c082015292915050565b6000600019821415613fd657613fd6613d3e565b5060010190565b600060208284031215613fef57600080fd5b8151611475816138ff565b5b81811015610bb95760008155600101613ffb565b6140198154613d09565b8015610bb957601f81116001811461403357505060009055565b826000526020600020614051601f840160051c820160018301613ffa565b506020600090812081855555505050565b8054600082558015610bb9578160005260206000208181015b80821015610c335761408c8261400f565b60018201915061407b565b600160401b8211156140ab576140ab6136db565b80548282558083101561096f576000828152602090208381019082015b808210156116b0576140d98261400f565b6001820191506140c8565b6000808335601e198436030181126140fb57600080fd5b8301803591506001600160401b0382111561411557600080fd5b602001915036819003821315613e6157600080fd5b601f82111561096f57806000526020600020601f840160051c810160208510156141515750805b6116b0601f850160051c830182613ffa565b6001600160401b0383111561417a5761417a6136db565b61418e836141888354613d09565b8361412a565b6000601f8411600181146141c257600085156141aa5750838201355b600019600387901b1c1916600186901b1783556116b0565b600083815260209020601f19861690835b828110156141f357868501358255602094850194600190920191016141d3565b50868210156142105760001960f88860031b161c19848701351681555b505060018560011b0183555050505050565b6000813561079a816138ff565b813561423a81613e88565b815460ff191660ff82161782555060016020808401358284015560408401356002840155606084013561426c81613e88565b60038401805460ff191660ff8316179055506004830161428f6080860186613e18565b6142998184614097565b818360005284600020935060005b828110156142d5576142b982856140e4565b6142c4818389614163565b5050938601939085019086016142a7565b5050505050505060a08201356005820155610bb96142f560c08401614222565b6006830160ff1981541660ff8315151681178255505050565b813581556001808201602061432581860186613e18565b600160401b811115614339576143396136db565b8354818555808210156143e6577f249249249249249249249249249249249249249249249249249249249249249280821187161561437957614379613d3e565b600781841188161561438d5761438d613d3e565b6000878152868120909250848202810190828502015b808210156143e157838255838a8301558360028301558360038301556143cb60048301614062565b83600583015583600683015582820191506143a3565b505050505b506000938452602084209382905b828110156144215761440f6144098386613e68565b8761422f565b600795909501949084019086016143f4565b505050505050505050565b6001600160a01b03858116825284166020820152608060408201819052600090614458908301856135b3565b905082606083015295945050505050565b60008235607e19833603018112613e7e57600080fd5b61448982836140e4565b614494818385614163565b5050600180820160206144a981860186613e18565b6144b38185614097565b818460005283600020945060005b828110156144ef576144d382856140e4565b6144de81838a614163565b5050948601949084019086016144c1565b505050505050506040820135600282015561450d60608301836140e4565b610c33818360038601614163565b6145258283613e18565b600160401b811115614539576145396136db565b8254818455808210156145cb576001600160fe1b03600181831181161561456257614562613d3e565b600282851182161561457657614576613d3e565b60008781526020812090935085821b81019085831b015b808210156145c55761459e8261400f565b6145a9848301614062565b84838301556145ba6003830161400f565b60048201915061458d565b50505050505b5060008381526020812083915b83811015614609576145f36145ed8487614469565b8361447f565b60209290920191600491909101906001016145d8565b50505050505050565b60208082526012908201527113d3931657d05113525397d0531313d5d15160721b604082015260600190565b60208082526007908201526612539597d0511160ca1b604082015260600190565b60008351614671818460208801613587565b835190830190614685818360208801613587565b01949350505050565b600060ff821660ff8114156146a5576146a5613d3e565b60010192915050565b600082198211156146c1576146c1613d3e565b500190565b6000826146d5576146d5613dd8565b500690565b60208082526032908201527f4552433732313a207472616e7366657220746f206e6f6e20455243373231526560408201527131b2b4bb32b91034b6b83632b6b2b73a32b960711b606082015260800190565b7f416363657373436f6e74726f6c3a206163636f756e7420000000000000000000815260008351614764816017850160208801613587565b7001034b99036b4b9b9b4b733903937b6329607d1b6017918401918201528351614795816028840160208801613587565b01602801949350505050565b6001600160a01b03858116825284166020820152604081018390526080606082018190526000906147d4908301846135b3565b9695505050505050565b6000602082840312156147f057600080fd5b815161147581613554565b60008161480a5761480a613d3e565b506000190190565b634e487b7160e01b600052603160045260246000fdfe65d7a28e3265b37a6474929f336521b332c1681b933f6cb9f3376673440d862a9f2df0fed2c77648de5860a4cc508cd0818c85b8b8a1ab4ceeef8d981c8956a6a2646970667358221220e29fd872ddd01714c472f94b93a2547c4b0d4eef010b88e46658d8e20afc49cd64736f6c634300080c0033","opcodes":"PUSH1 0x80 PUSH1 0x40 MSTORE CALLVALUE DUP1 ISZERO PUSH3 0x11 JUMPI PUSH1 0x0 DUP1 REVERT JUMPDEST POP PUSH1 0x40 MLOAD PUSH3 0x4DF4 CODESIZE SUB DUP1 PUSH3 0x4DF4 DUP4 CODECOPY DUP2 ADD PUSH1 0x40 DUP2 SWAP1 MSTORE PUSH3 0x34 SWAP2 PUSH3 0x456 JUMP JUMPDEST DUP4 DUP4 DUP4 DUP3 DUP3 DUP2 PUSH1 0x2 SWAP1 DUP1 MLOAD SWAP1 PUSH1 0x20 ADD SWAP1 PUSH3 0x51 SWAP3 SWAP2 SWAP1 PUSH3 0x2E3 JUMP JUMPDEST POP DUP1 MLOAD PUSH3 0x67 SWAP1 PUSH1 0x3 SWAP1 PUSH1 0x20 DUP5 ADD SWAP1 PUSH3 0x2E3 JUMP JUMPDEST POP POP PUSH1 0xC DUP1 SLOAD PUSH1 0xFF NOT AND SWAP1 SSTORE POP DUP1 MLOAD PUSH3 0x89 SWAP1 PUSH1 0xE SWAP1 PUSH1 0x20 DUP5 ADD SWAP1 PUSH3 0x2E3 JUMP JUMPDEST POP PUSH3 0x97 PUSH1 0x0 CALLER PUSH3 0x12C JUMP JUMPDEST PUSH3 0xC3 PUSH32 0x9F2DF0FED2C77648DE5860A4CC508CD0818C85B8B8A1AB4CEEEF8D981C8956A6 CALLER PUSH3 0x12C JUMP JUMPDEST PUSH3 0xEF PUSH32 0x65D7A28E3265B37A6474929F336521B332C1681B933F6CB9F3376673440D862A CALLER PUSH3 0x12C JUMP JUMPDEST POP POP PUSH1 0x1 PUSH1 0xF SSTORE POP PUSH3 0x102 CALLER PUSH3 0x13C JUMP JUMPDEST PUSH1 0x12 DUP1 SLOAD PUSH1 0x1 PUSH1 0x1 PUSH1 0xA0 SHL SUB NOT AND PUSH1 0x1 PUSH1 0x1 PUSH1 0xA0 SHL SUB SWAP3 SWAP1 SWAP3 AND SWAP2 SWAP1 SWAP2 OR SWAP1 SSTORE POP PUSH3 0x546 SWAP2 POP POP JUMP JUMPDEST PUSH3 0x138 DUP3 DUP3 PUSH3 0x18E JUMP JUMPDEST POP POP JUMP JUMPDEST PUSH1 0x10 DUP1 SLOAD PUSH1 0x1 PUSH1 0x1 PUSH1 0xA0 SHL SUB DUP4 DUP2 AND PUSH1 0x1 PUSH1 0x1 PUSH1 0xA0 SHL SUB NOT DUP4 AND DUP2 OR SWAP1 SWAP4 SSTORE PUSH1 0x40 MLOAD SWAP2 AND SWAP2 SWAP1 DUP3 SWAP1 PUSH32 0x8BE0079C531659141344CD1FD0A4F28419497F9722A3DAAFE3B4186F6B6457E0 SWAP1 PUSH1 0x0 SWAP1 LOG3 POP POP JUMP JUMPDEST PUSH3 0x1A5 DUP3 DUP3 PUSH3 0x1D1 PUSH1 0x20 SHL PUSH3 0x207D OR PUSH1 0x20 SHR JUMP JUMPDEST PUSH1 0x0 DUP3 DUP2 MSTORE PUSH1 0x1 PUSH1 0x20 SWAP1 DUP2 MSTORE PUSH1 0x40 SWAP1 SWAP2 KECCAK256 PUSH3 0x1CC SWAP2 DUP4 SWAP1 PUSH3 0x2101 PUSH3 0x271 DUP3 SHL OR SWAP1 SHR JUMP JUMPDEST POP POP POP JUMP JUMPDEST PUSH1 0x0 DUP3 DUP2 MSTORE PUSH1 0x20 DUP2 DUP2 MSTORE PUSH1 0x40 DUP1 DUP4 KECCAK256 PUSH1 0x1 PUSH1 0x1 PUSH1 0xA0 SHL SUB DUP6 AND DUP5 MSTORE SWAP1 SWAP2 MSTORE SWAP1 KECCAK256 SLOAD PUSH1 0xFF AND PUSH3 0x138 JUMPI PUSH1 0x0 DUP3 DUP2 MSTORE PUSH1 0x20 DUP2 DUP2 MSTORE PUSH1 0x40 DUP1 DUP4 KECCAK256 PUSH1 0x1 PUSH1 0x1 PUSH1 0xA0 SHL SUB DUP6 AND DUP5 MSTORE SWAP1 SWAP2 MSTORE SWAP1 KECCAK256 DUP1 SLOAD PUSH1 0xFF NOT AND PUSH1 0x1 OR SWAP1 SSTORE PUSH3 0x22D CALLER SWAP1 JUMP JUMPDEST PUSH1 0x1 PUSH1 0x1 PUSH1 0xA0 SHL SUB AND DUP2 PUSH1 0x1 PUSH1 0x1 PUSH1 0xA0 SHL SUB AND DUP4 PUSH32 0x2F8788117E7EFF1D82E926EC794901D17C78024A50270940304540A733656F0D PUSH1 0x40 MLOAD PUSH1 0x40 MLOAD DUP1 SWAP2 SUB SWAP1 LOG4 POP POP JUMP JUMPDEST PUSH1 0x0 PUSH3 0x288 DUP4 PUSH1 0x1 PUSH1 0x1 PUSH1 0xA0 SHL SUB DUP5 AND PUSH3 0x291 JUMP JUMPDEST SWAP1 POP JUMPDEST SWAP3 SWAP2 POP POP JUMP JUMPDEST PUSH1 0x0 DUP2 DUP2 MSTORE PUSH1 0x1 DUP4 ADD PUSH1 0x20 MSTORE PUSH1 0x40 DUP2 KECCAK256 SLOAD PUSH3 0x2DA JUMPI POP DUP2 SLOAD PUSH1 0x1 DUP2 DUP2 ADD DUP5 SSTORE PUSH1 0x0 DUP5 DUP2 MSTORE PUSH1 0x20 DUP1 DUP3 KECCAK256 SWAP1 SWAP4 ADD DUP5 SWAP1 SSTORE DUP5 SLOAD DUP5 DUP3 MSTORE DUP3 DUP7 ADD SWAP1 SWAP4 MSTORE PUSH1 0x40 SWAP1 KECCAK256 SWAP2 SWAP1 SWAP2 SSTORE PUSH3 0x28B JUMP JUMPDEST POP PUSH1 0x0 PUSH3 0x28B JUMP JUMPDEST DUP3 DUP1 SLOAD PUSH3 0x2F1 SWAP1 PUSH3 0x509 JUMP JUMPDEST SWAP1 PUSH1 0x0 MSTORE PUSH1 0x20 PUSH1 0x0 KECCAK256 SWAP1 PUSH1 0x1F ADD PUSH1 0x20 SWAP1 DIV DUP2 ADD SWAP3 DUP3 PUSH3 0x315 JUMPI PUSH1 0x0 DUP6 SSTORE PUSH3 0x360 JUMP JUMPDEST DUP3 PUSH1 0x1F LT PUSH3 0x330 JUMPI DUP1 MLOAD PUSH1 0xFF NOT AND DUP4 DUP1 ADD OR DUP6 SSTORE PUSH3 0x360 JUMP JUMPDEST DUP3 DUP1 ADD PUSH1 0x1 ADD DUP6 SSTORE DUP3 ISZERO PUSH3 0x360 JUMPI SWAP2 DUP3 ADD JUMPDEST DUP3 DUP2 GT ISZERO PUSH3 0x360 JUMPI DUP3 MLOAD DUP3 SSTORE SWAP2 PUSH1 0x20 ADD SWAP2 SWAP1 PUSH1 0x1 ADD SWAP1 PUSH3 0x343 JUMP JUMPDEST POP PUSH3 0x36E SWAP3 SWAP2 POP PUSH3 0x372 JUMP JUMPDEST POP SWAP1 JUMP JUMPDEST JUMPDEST DUP1 DUP3 GT ISZERO PUSH3 0x36E JUMPI PUSH1 0x0 DUP2 SSTORE PUSH1 0x1 ADD PUSH3 0x373 JUMP JUMPDEST PUSH4 0x4E487B71 PUSH1 0xE0 SHL PUSH1 0x0 MSTORE PUSH1 0x41 PUSH1 0x4 MSTORE PUSH1 0x24 PUSH1 0x0 REVERT JUMPDEST PUSH1 0x0 DUP3 PUSH1 0x1F DUP4 ADD SLT PUSH3 0x3B1 JUMPI PUSH1 0x0 DUP1 REVERT JUMPDEST DUP2 MLOAD PUSH1 0x1 PUSH1 0x1 PUSH1 0x40 SHL SUB DUP1 DUP3 GT ISZERO PUSH3 0x3CE JUMPI PUSH3 0x3CE PUSH3 0x389 JUMP JUMPDEST PUSH1 0x40 MLOAD PUSH1 0x1F DUP4 ADD PUSH1 0x1F NOT SWAP1 DUP2 AND PUSH1 0x3F ADD AND DUP2 ADD SWAP1 DUP3 DUP3 GT DUP2 DUP4 LT OR ISZERO PUSH3 0x3F9 JUMPI PUSH3 0x3F9 PUSH3 0x389 JUMP JUMPDEST DUP2 PUSH1 0x40 MSTORE DUP4 DUP2 MSTORE PUSH1 0x20 SWAP3 POP DUP7 DUP4 DUP6 DUP9 ADD ADD GT ISZERO PUSH3 0x416 JUMPI PUSH1 0x0 DUP1 REVERT JUMPDEST PUSH1 0x0 SWAP2 POP JUMPDEST DUP4 DUP3 LT ISZERO PUSH3 0x43A JUMPI DUP6 DUP3 ADD DUP4 ADD MLOAD DUP2 DUP4 ADD DUP5 ADD MSTORE SWAP1 DUP3 ADD SWAP1 PUSH3 0x41B JUMP JUMPDEST DUP4 DUP3 GT ISZERO PUSH3 0x44C JUMPI PUSH1 0x0 DUP4 DUP6 DUP4 ADD ADD MSTORE JUMPDEST SWAP7 SWAP6 POP POP POP POP POP POP JUMP JUMPDEST PUSH1 0x0 DUP1 PUSH1 0x0 DUP1 PUSH1 0x80 DUP6 DUP8 SUB SLT ISZERO PUSH3 0x46D JUMPI PUSH1 0x0 DUP1 REVERT JUMPDEST DUP5 MLOAD PUSH1 0x1 PUSH1 0x1 PUSH1 0x40 SHL SUB DUP1 DUP3 GT ISZERO PUSH3 0x485 JUMPI PUSH1 0x0 DUP1 REVERT JUMPDEST PUSH3 0x493 DUP9 DUP4 DUP10 ADD PUSH3 0x39F JUMP JUMPDEST SWAP6 POP PUSH1 0x20 DUP8 ADD MLOAD SWAP2 POP DUP1 DUP3 GT ISZERO PUSH3 0x4AA JUMPI PUSH1 0x0 DUP1 REVERT JUMPDEST PUSH3 0x4B8 DUP9 DUP4 DUP10 ADD PUSH3 0x39F JUMP JUMPDEST SWAP5 POP PUSH1 0x40 DUP8 ADD MLOAD SWAP2 POP DUP1 DUP3 GT ISZERO PUSH3 0x4CF JUMPI PUSH1 0x0 DUP1 REVERT JUMPDEST POP PUSH3 0x4DE DUP8 DUP3 DUP9 ADD PUSH3 0x39F JUMP JUMPDEST PUSH1 0x60 DUP8 ADD MLOAD SWAP1 SWAP4 POP SWAP1 POP PUSH1 0x1 PUSH1 0x1 PUSH1 0xA0 SHL SUB DUP2 AND DUP2 EQ PUSH3 0x4FE JUMPI PUSH1 0x0 DUP1 REVERT JUMPDEST SWAP4 SWAP7 SWAP3 SWAP6 POP SWAP1 SWAP4 POP POP JUMP JUMPDEST PUSH1 0x1 DUP2 DUP2 SHR SWAP1 DUP3 AND DUP1 PUSH3 0x51E JUMPI PUSH1 0x7F DUP3 AND SWAP2 POP JUMPDEST PUSH1 0x20 DUP3 LT DUP2 EQ ISZERO PUSH3 0x540 JUMPI PUSH4 0x4E487B71 PUSH1 0xE0 SHL PUSH1 0x0 MSTORE PUSH1 0x22 PUSH1 0x4 MSTORE PUSH1 0x24 PUSH1 0x0 REVERT JUMPDEST POP SWAP2 SWAP1 POP JUMP JUMPDEST PUSH2 0x489E DUP1 PUSH3 0x556 PUSH1 0x0 CODECOPY PUSH1 0x0 RETURN INVALID PUSH1 0x80 PUSH1 0x40 MSTORE CALLVALUE DUP1 ISZERO PUSH2 0x10 JUMPI PUSH1 0x0 DUP1 REVERT JUMPDEST POP PUSH1 0x4 CALLDATASIZE LT PUSH2 0x2F1 JUMPI PUSH1 0x0 CALLDATALOAD PUSH1 0xE0 SHR DUP1 PUSH4 0x7F77F574 GT PUSH2 0x19D JUMPI DUP1 PUSH4 0xB88D4FDE GT PUSH2 0xE9 JUMPI DUP1 PUSH4 0xD547741F GT PUSH2 0xA2 JUMPI DUP1 PUSH4 0xE63AB1E9 GT PUSH2 0x7C JUMPI DUP1 PUSH4 0xE63AB1E9 EQ PUSH2 0x718 JUMPI DUP1 PUSH4 0xE985E9C5 EQ PUSH2 0x72D JUMPI DUP1 PUSH4 0xF2FDE38B EQ PUSH2 0x769 JUMPI DUP1 PUSH4 0xF9ECC22C EQ PUSH2 0x77C JUMPI PUSH1 0x0 DUP1 REVERT JUMPDEST DUP1 PUSH4 0xD547741F EQ PUSH2 0x6DD JUMPI DUP1 PUSH4 0xD547CFB7 EQ PUSH2 0x6F0 JUMPI DUP1 PUSH4 0xE1DC0761 EQ PUSH2 0x6F8 JUMPI PUSH1 0x0 DUP1 REVERT JUMPDEST DUP1 PUSH4 0xB88D4FDE EQ PUSH2 0x65B JUMPI DUP1 PUSH4 0xC0DCA239 EQ PUSH2 0x66E JUMPI DUP1 PUSH4 0xC87B56DD EQ PUSH2 0x68F JUMPI DUP1 PUSH4 0xCA15C873 EQ PUSH2 0x6A2 JUMPI DUP1 PUSH4 0xD2A6B51A EQ PUSH2 0x6B5 JUMPI DUP1 PUSH4 0xD5391393 EQ PUSH2 0x6C8 JUMPI PUSH1 0x0 DUP1 REVERT JUMPDEST DUP1 PUSH4 0x91D14854 GT PUSH2 0x156 JUMPI DUP1 PUSH4 0x9713C807 GT PUSH2 0x130 JUMPI DUP1 PUSH4 0x9713C807 EQ PUSH2 0x61A JUMPI DUP1 PUSH4 0xA217FDDF EQ PUSH2 0x62D JUMPI DUP1 PUSH4 0xA22CB465 EQ PUSH2 0x635 JUMPI DUP1 PUSH4 0xAE3DD095 EQ PUSH2 0x648 JUMPI PUSH1 0x0 DUP1 REVERT JUMPDEST DUP1 PUSH4 0x91D14854 EQ PUSH2 0x5DF JUMPI DUP1 PUSH4 0x953CD246 EQ PUSH2 0x5F2 JUMPI DUP1 PUSH4 0x95D89B41 EQ PUSH2 0x612 JUMPI PUSH1 0x0 DUP1 REVERT JUMPDEST DUP1 PUSH4 0x7F77F574 EQ PUSH2 0x520 JUMPI DUP1 PUSH4 0x81D22564 EQ PUSH2 0x58D JUMPI DUP1 PUSH4 0x8456CB59 EQ PUSH2 0x5A0 JUMPI DUP1 PUSH4 0x8DA5CB5B EQ PUSH2 0x5A8 JUMPI DUP1 PUSH4 0x8F283970 EQ PUSH2 0x5B9 JUMPI DUP1 PUSH4 0x9010D07C EQ PUSH2 0x5CC JUMPI PUSH1 0x0 DUP1 REVERT JUMPDEST DUP1 PUSH4 0x3ADF80B4 GT PUSH2 0x25C JUMPI DUP1 PUSH4 0x531F7B53 GT PUSH2 0x215 JUMPI DUP1 PUSH4 0x6A627842 GT PUSH2 0x1EF JUMPI DUP1 PUSH4 0x6A627842 EQ PUSH2 0x4E1 JUMPI DUP1 PUSH4 0x70A08231 EQ PUSH2 0x4F2 JUMPI DUP1 PUSH4 0x715018A6 EQ PUSH2 0x505 JUMPI DUP1 PUSH4 0x7D763613 EQ PUSH2 0x50D JUMPI PUSH1 0x0 DUP1 REVERT JUMPDEST DUP1 PUSH4 0x531F7B53 EQ PUSH2 0x4BA JUMPI DUP1 PUSH4 0x5C975ABB EQ PUSH2 0x4C3 JUMPI DUP1 PUSH4 0x6352211E EQ PUSH2 0x4CE JUMPI PUSH1 0x0 DUP1 REVERT JUMPDEST DUP1 PUSH4 0x3ADF80B4 EQ PUSH2 0x43D JUMPI DUP1 PUSH4 0x3F4BA83A EQ PUSH2 0x450 JUMPI DUP1 PUSH4 0x42842E0E EQ PUSH2 0x458 JUMPI DUP1 PUSH4 0x42966C68 EQ PUSH2 0x46B JUMPI DUP1 PUSH4 0x4816EDF4 EQ PUSH2 0x47E JUMPI DUP1 PUSH4 0x4F6CCCE7 EQ PUSH2 0x4A7 JUMPI PUSH1 0x0 DUP1 REVERT JUMPDEST DUP1 PUSH4 0x23B872DD GT PUSH2 0x2AE JUMPI DUP1 PUSH4 0x23B872DD EQ PUSH2 0x39C JUMPI DUP1 PUSH4 0x248A9CA3 EQ PUSH2 0x3AF JUMPI DUP1 PUSH4 0x2A55205A EQ PUSH2 0x3D2 JUMPI DUP1 PUSH4 0x2F2FF15D EQ PUSH2 0x404 JUMPI DUP1 PUSH4 0x2F745C59 EQ PUSH2 0x417 JUMPI DUP1 PUSH4 0x36568ABE EQ PUSH2 0x42A JUMPI PUSH1 0x0 DUP1 REVERT JUMPDEST DUP1 PUSH4 0x1BC45C9 EQ PUSH2 0x2F6 JUMPI DUP1 PUSH4 0x1FFC9A7 EQ PUSH2 0x326 JUMPI DUP1 PUSH4 0x6FDDE03 EQ PUSH2 0x349 JUMPI DUP1 PUSH4 0x81812FC EQ PUSH2 0x35E JUMPI DUP1 PUSH4 0x95EA7B3 EQ PUSH2 0x371 JUMPI DUP1 PUSH4 0x18160DDD EQ PUSH2 0x386 JUMPI JUMPDEST PUSH1 0x0 DUP1 REVERT JUMPDEST PUSH1 0x12 SLOAD PUSH2 0x309 SWAP1 PUSH1 0x1 PUSH1 0x1 PUSH1 0xA0 SHL SUB AND DUP2 JUMP JUMPDEST PUSH1 0x40 MLOAD PUSH1 0x1 PUSH1 0x1 PUSH1 0xA0 SHL SUB SWAP1 SWAP2 AND DUP2 MSTORE PUSH1 0x20 ADD JUMPDEST PUSH1 0x40 MLOAD DUP1 SWAP2 SUB SWAP1 RETURN JUMPDEST PUSH2 0x339 PUSH2 0x334 CALLDATASIZE PUSH1 0x4 PUSH2 0x356A JUMP JUMPDEST PUSH2 0x78F JUMP JUMPDEST PUSH1 0x40 MLOAD SWAP1 ISZERO ISZERO DUP2 MSTORE PUSH1 0x20 ADD PUSH2 0x31D JUMP JUMPDEST PUSH2 0x351 PUSH2 0x7A0 JUMP JUMPDEST PUSH1 0x40 MLOAD PUSH2 0x31D SWAP2 SWAP1 PUSH2 0x35DF JUMP JUMPDEST PUSH2 0x309 PUSH2 0x36C CALLDATASIZE PUSH1 0x4 PUSH2 0x35F2 JUMP JUMPDEST PUSH2 0x832 JUMP JUMPDEST PUSH2 0x384 PUSH2 0x37F CALLDATASIZE PUSH1 0x4 PUSH2 0x3627 JUMP JUMPDEST PUSH2 0x859 JUMP JUMPDEST STOP JUMPDEST PUSH2 0x38E PUSH2 0x974 JUMP JUMPDEST PUSH1 0x40 MLOAD SWAP1 DUP2 MSTORE PUSH1 0x20 ADD PUSH2 0x31D JUMP JUMPDEST PUSH2 0x384 PUSH2 0x3AA CALLDATASIZE PUSH1 0x4 PUSH2 0x3651 JUMP JUMPDEST PUSH2 0x990 JUMP JUMPDEST PUSH2 0x38E PUSH2 0x3BD CALLDATASIZE PUSH1 0x4 PUSH2 0x35F2 JUMP JUMPDEST PUSH1 0x0 SWAP1 DUP2 MSTORE PUSH1 0x20 DUP2 SWAP1 MSTORE PUSH1 0x40 SWAP1 KECCAK256 PUSH1 0x1 ADD SLOAD SWAP1 JUMP JUMPDEST PUSH2 0x3E5 PUSH2 0x3E0 CALLDATASIZE PUSH1 0x4 PUSH2 0x368D JUMP JUMPDEST PUSH2 0x9C2 JUMP JUMPDEST PUSH1 0x40 DUP1 MLOAD PUSH1 0x1 PUSH1 0x1 PUSH1 0xA0 SHL SUB SWAP1 SWAP4 AND DUP4 MSTORE PUSH1 0x20 DUP4 ADD SWAP2 SWAP1 SWAP2 MSTORE ADD PUSH2 0x31D JUMP JUMPDEST PUSH2 0x384 PUSH2 0x412 CALLDATASIZE PUSH1 0x4 PUSH2 0x36AF JUMP JUMPDEST PUSH2 0xA84 JUMP JUMPDEST PUSH2 0x38E PUSH2 0x425 CALLDATASIZE PUSH1 0x4 PUSH2 0x3627 JUMP JUMPDEST PUSH2 0xAA9 JUMP JUMPDEST PUSH2 0x384 PUSH2 0x438 CALLDATASIZE PUSH1 0x4 PUSH2 0x36AF JUMP JUMPDEST PUSH2 0xB3F JUMP JUMPDEST PUSH2 0x384 PUSH2 0x44B CALLDATASIZE PUSH1 0x4 PUSH2 0x37C0 JUMP JUMPDEST PUSH2 0xBBD JUMP JUMPDEST PUSH2 0x384 PUSH2 0xC39 JUMP JUMPDEST PUSH2 0x384 PUSH2 0x466 CALLDATASIZE PUSH1 0x4 PUSH2 0x3651 JUMP JUMPDEST PUSH2 0xCCF JUMP JUMPDEST PUSH2 0x384 PUSH2 0x479 CALLDATASIZE PUSH1 0x4 PUSH2 0x35F2 JUMP JUMPDEST PUSH2 0xCEA JUMP JUMPDEST PUSH2 0x309 PUSH2 0x48C CALLDATASIZE PUSH1 0x4 PUSH2 0x35F2 JUMP JUMPDEST PUSH1 0x18 PUSH1 0x20 MSTORE PUSH1 0x0 SWAP1 DUP2 MSTORE PUSH1 0x40 SWAP1 KECCAK256 SLOAD PUSH1 0x1 PUSH1 0x1 PUSH1 0xA0 SHL SUB AND DUP2 JUMP JUMPDEST PUSH2 0x38E PUSH2 0x4B5 CALLDATASIZE PUSH1 0x4 PUSH2 0x35F2 JUMP JUMPDEST PUSH2 0xD18 JUMP JUMPDEST PUSH2 0x38E PUSH1 0x14 SLOAD DUP2 JUMP JUMPDEST PUSH1 0xC SLOAD PUSH1 0xFF AND PUSH2 0x339 JUMP JUMPDEST PUSH2 0x309 PUSH2 0x4DC CALLDATASIZE PUSH1 0x4 PUSH2 0x35F2 JUMP JUMPDEST PUSH2 0xDAB JUMP JUMPDEST PUSH2 0x384 PUSH2 0x4EF CALLDATASIZE PUSH1 0x4 PUSH2 0x37FC JUMP JUMPDEST POP JUMP JUMPDEST PUSH2 0x38E PUSH2 0x500 CALLDATASIZE PUSH1 0x4 PUSH2 0x37FC JUMP JUMPDEST PUSH2 0xE0B JUMP JUMPDEST PUSH2 0x384 PUSH2 0xE91 JUMP JUMPDEST PUSH2 0x384 PUSH2 0x51B CALLDATASIZE PUSH1 0x4 PUSH2 0x3817 JUMP JUMPDEST PUSH2 0xEA3 JUMP JUMPDEST PUSH2 0x562 PUSH2 0x52E CALLDATASIZE PUSH1 0x4 PUSH2 0x35F2 JUMP JUMPDEST PUSH1 0x1B PUSH1 0x20 MSTORE PUSH1 0x0 SWAP1 DUP2 MSTORE PUSH1 0x40 SWAP1 KECCAK256 SLOAD PUSH1 0x1 PUSH1 0x1 PUSH1 0xA0 SHL SUB DUP2 AND SWAP1 PUSH1 0x1 PUSH1 0xA0 SHL DUP2 DIV PUSH3 0xFFFFFF AND SWAP1 PUSH1 0x1 PUSH1 0xB8 SHL SWAP1 DIV PUSH1 0xFF AND DUP4 JUMP JUMPDEST PUSH1 0x40 DUP1 MLOAD PUSH1 0x1 PUSH1 0x1 PUSH1 0xA0 SHL SUB SWAP1 SWAP5 AND DUP5 MSTORE PUSH3 0xFFFFFF SWAP1 SWAP3 AND PUSH1 0x20 DUP5 ADD MSTORE ISZERO ISZERO SWAP1 DUP3 ADD MSTORE PUSH1 0x60 ADD PUSH2 0x31D JUMP JUMPDEST PUSH2 0x384 PUSH2 0x59B CALLDATASIZE PUSH1 0x4 PUSH2 0x38A0 JUMP JUMPDEST PUSH2 0x1229 JUMP JUMPDEST PUSH2 0x384 PUSH2 0x127D JUMP JUMPDEST PUSH1 0x12 SLOAD PUSH1 0x1 PUSH1 0x1 PUSH1 0xA0 SHL SUB AND PUSH2 0x309 JUMP JUMPDEST PUSH2 0x384 PUSH2 0x5C7 CALLDATASIZE PUSH1 0x4 PUSH2 0x37FC JUMP JUMPDEST PUSH2 0x130F JUMP JUMPDEST PUSH2 0x309 PUSH2 0x5DA CALLDATASIZE PUSH1 0x4 PUSH2 0x368D JUMP JUMPDEST PUSH2 0x145D JUMP JUMPDEST PUSH2 0x339 PUSH2 0x5ED CALLDATASIZE PUSH1 0x4 PUSH2 0x36AF JUMP JUMPDEST PUSH2 0x147C JUMP JUMPDEST PUSH2 0x38E PUSH2 0x600 CALLDATASIZE PUSH1 0x4 PUSH2 0x35F2 JUMP JUMPDEST PUSH1 0x15 PUSH1 0x20 MSTORE PUSH1 0x0 SWAP1 DUP2 MSTORE PUSH1 0x40 SWAP1 KECCAK256 SLOAD DUP2 JUMP JUMPDEST PUSH2 0x351 PUSH2 0x14A5 JUMP JUMPDEST PUSH2 0x384 PUSH2 0x628 CALLDATASIZE PUSH1 0x4 PUSH2 0x38DA JUMP JUMPDEST PUSH2 0x14B4 JUMP JUMPDEST PUSH2 0x38E PUSH1 0x0 DUP2 JUMP JUMPDEST PUSH2 0x384 PUSH2 0x643 CALLDATASIZE PUSH1 0x4 PUSH2 0x3918 JUMP JUMPDEST PUSH2 0x15C5 JUMP JUMPDEST PUSH2 0x384 PUSH2 0x656 CALLDATASIZE PUSH1 0x4 PUSH2 0x394F JUMP JUMPDEST PUSH2 0x15D0 JUMP JUMPDEST PUSH2 0x384 PUSH2 0x669 CALLDATASIZE PUSH1 0x4 PUSH2 0x39DB JUMP JUMPDEST PUSH2 0x16B7 JUMP JUMPDEST PUSH2 0x681 PUSH2 0x67C CALLDATASIZE PUSH1 0x4 PUSH2 0x35F2 JUMP JUMPDEST PUSH2 0x16E9 JUMP JUMPDEST PUSH1 0x40 MLOAD PUSH2 0x31D SWAP3 SWAP2 SWAP1 PUSH2 0x3AAE JUMP JUMPDEST PUSH2 0x351 PUSH2 0x69D CALLDATASIZE PUSH1 0x4 PUSH2 0x35F2 JUMP JUMPDEST PUSH2 0x187F JUMP JUMPDEST PUSH2 0x38E PUSH2 0x6B0 CALLDATASIZE PUSH1 0x4 PUSH2 0x35F2 JUMP JUMPDEST PUSH2 0x1A05 JUMP JUMPDEST PUSH2 0x384 PUSH2 0x6C3 CALLDATASIZE PUSH1 0x4 PUSH2 0x3B8B JUMP JUMPDEST PUSH2 0x1A1C JUMP JUMPDEST PUSH2 0x38E PUSH1 0x0 DUP1 MLOAD PUSH1 0x20 PUSH2 0x4849 DUP4 CODECOPY DUP2 MLOAD SWAP2 MSTORE DUP2 JUMP JUMPDEST PUSH2 0x384 PUSH2 0x6EB CALLDATASIZE PUSH1 0x4 PUSH2 0x36AF JUMP JUMPDEST PUSH2 0x1ABD JUMP JUMPDEST PUSH2 0x351 PUSH2 0x1AE2 JUMP JUMPDEST PUSH2 0x70B PUSH2 0x706 CALLDATASIZE PUSH1 0x4 PUSH2 0x35F2 JUMP JUMPDEST PUSH2 0x1AEC JUMP JUMPDEST PUSH1 0x40 MLOAD PUSH2 0x31D SWAP2 SWAP1 PUSH2 0x3C33 JUMP JUMPDEST PUSH2 0x38E PUSH1 0x0 DUP1 MLOAD PUSH1 0x20 PUSH2 0x4829 DUP4 CODECOPY DUP2 MLOAD SWAP2 MSTORE DUP2 JUMP JUMPDEST PUSH2 0x339 PUSH2 0x73B CALLDATASIZE PUSH1 0x4 PUSH2 0x3CDF JUMP JUMPDEST PUSH1 0x1 PUSH1 0x1 PUSH1 0xA0 SHL SUB SWAP2 DUP3 AND PUSH1 0x0 SWAP1 DUP2 MSTORE PUSH1 0x7 PUSH1 0x20 SWAP1 DUP2 MSTORE PUSH1 0x40 DUP1 DUP4 KECCAK256 SWAP4 SWAP1 SWAP5 AND DUP3 MSTORE SWAP2 SWAP1 SWAP2 MSTORE KECCAK256 SLOAD PUSH1 0xFF AND SWAP1 JUMP JUMPDEST PUSH2 0x384 PUSH2 0x777 CALLDATASIZE PUSH1 0x4 PUSH2 0x37FC JUMP JUMPDEST PUSH2 0x2007 JUMP JUMPDEST PUSH1 0x13 SLOAD PUSH2 0x309 SWAP1 PUSH1 0x1 PUSH1 0x1 PUSH1 0xA0 SHL SUB AND DUP2 JUMP JUMPDEST PUSH1 0x0 PUSH2 0x79A DUP3 PUSH2 0x2116 JUMP JUMPDEST SWAP3 SWAP2 POP POP JUMP JUMPDEST PUSH1 0x60 PUSH1 0x19 DUP1 SLOAD PUSH2 0x7AF SWAP1 PUSH2 0x3D09 JUMP JUMPDEST DUP1 PUSH1 0x1F ADD PUSH1 0x20 DUP1 SWAP2 DIV MUL PUSH1 0x20 ADD PUSH1 0x40 MLOAD SWAP1 DUP2 ADD PUSH1 0x40 MSTORE DUP1 SWAP3 SWAP2 SWAP1 DUP2 DUP2 MSTORE PUSH1 0x20 ADD DUP3 DUP1 SLOAD PUSH2 0x7DB SWAP1 PUSH2 0x3D09 JUMP JUMPDEST DUP1 ISZERO PUSH2 0x828 JUMPI DUP1 PUSH1 0x1F LT PUSH2 0x7FD JUMPI PUSH2 0x100 DUP1 DUP4 SLOAD DIV MUL DUP4 MSTORE SWAP2 PUSH1 0x20 ADD SWAP2 PUSH2 0x828 JUMP JUMPDEST DUP3 ADD SWAP2 SWAP1 PUSH1 0x0 MSTORE PUSH1 0x20 PUSH1 0x0 KECCAK256 SWAP1 JUMPDEST DUP2 SLOAD DUP2 MSTORE SWAP1 PUSH1 0x1 ADD SWAP1 PUSH1 0x20 ADD DUP1 DUP4 GT PUSH2 0x80B JUMPI DUP3 SWAP1 SUB PUSH1 0x1F AND DUP3 ADD SWAP2 JUMPDEST POP POP POP POP POP SWAP1 POP SWAP1 JUMP JUMPDEST PUSH1 0x0 PUSH2 0x83D DUP3 PUSH2 0x213B JUMP JUMPDEST POP PUSH1 0x0 SWAP1 DUP2 MSTORE PUSH1 0x6 PUSH1 0x20 MSTORE PUSH1 0x40 SWAP1 KECCAK256 SLOAD PUSH1 0x1 PUSH1 0x1 PUSH1 0xA0 SHL SUB AND SWAP1 JUMP JUMPDEST PUSH1 0x0 PUSH2 0x864 DUP3 PUSH2 0xDAB JUMP JUMPDEST SWAP1 POP DUP1 PUSH1 0x1 PUSH1 0x1 PUSH1 0xA0 SHL SUB AND DUP4 PUSH1 0x1 PUSH1 0x1 PUSH1 0xA0 SHL SUB AND EQ ISZERO PUSH2 0x8D7 JUMPI PUSH1 0x40 MLOAD PUSH3 0x461BCD PUSH1 0xE5 SHL DUP2 MSTORE PUSH1 0x20 PUSH1 0x4 DUP3 ADD MSTORE PUSH1 0x21 PUSH1 0x24 DUP3 ADD MSTORE PUSH32 0x4552433732313A20617070726F76616C20746F2063757272656E74206F776E65 PUSH1 0x44 DUP3 ADD MSTORE PUSH1 0x39 PUSH1 0xF9 SHL PUSH1 0x64 DUP3 ADD MSTORE PUSH1 0x84 ADD JUMPDEST PUSH1 0x40 MLOAD DUP1 SWAP2 SUB SWAP1 REVERT JUMPDEST CALLER PUSH1 0x1 PUSH1 0x1 PUSH1 0xA0 SHL SUB DUP3 AND EQ DUP1 PUSH2 0x8F3 JUMPI POP PUSH2 0x8F3 DUP2 CALLER PUSH2 0x73B JUMP JUMPDEST PUSH2 0x965 JUMPI PUSH1 0x40 MLOAD PUSH3 0x461BCD PUSH1 0xE5 SHL DUP2 MSTORE PUSH1 0x20 PUSH1 0x4 DUP3 ADD MSTORE PUSH1 0x3E PUSH1 0x24 DUP3 ADD MSTORE PUSH32 0x4552433732313A20617070726F76652063616C6C6572206973206E6F7420746F PUSH1 0x44 DUP3 ADD MSTORE PUSH32 0x6B656E206F776E6572206E6F7220617070726F76656420666F7220616C6C0000 PUSH1 0x64 DUP3 ADD MSTORE PUSH1 0x84 ADD PUSH2 0x8CE JUMP JUMPDEST PUSH2 0x96F DUP4 DUP4 PUSH2 0x219A JUMP JUMPDEST POP POP POP JUMP JUMPDEST PUSH1 0x0 PUSH1 0x1 PUSH2 0x981 PUSH1 0x11 SLOAD SWAP1 JUMP JUMPDEST PUSH2 0x98B SWAP2 SWAP1 PUSH2 0x3D54 JUMP JUMPDEST SWAP1 POP SWAP1 JUMP JUMPDEST PUSH2 0x99B CALLER JUMPDEST DUP3 PUSH2 0x2208 JUMP JUMPDEST PUSH2 0x9B7 JUMPI PUSH1 0x40 MLOAD PUSH3 0x461BCD PUSH1 0xE5 SHL DUP2 MSTORE PUSH1 0x4 ADD PUSH2 0x8CE SWAP1 PUSH2 0x3D6B JUMP JUMPDEST PUSH2 0x96F DUP4 DUP4 DUP4 PUSH2 0x2287 JUMP JUMPDEST PUSH1 0x0 DUP3 DUP2 MSTORE PUSH1 0x1B PUSH1 0x20 SWAP1 DUP2 MSTORE PUSH1 0x40 DUP1 DUP4 KECCAK256 DUP2 MLOAD PUSH1 0x60 DUP2 ADD DUP4 MSTORE SWAP1 SLOAD PUSH1 0x1 PUSH1 0x1 PUSH1 0xA0 SHL SUB DUP2 AND DUP3 MSTORE PUSH1 0x1 PUSH1 0xA0 SHL DUP2 DIV PUSH3 0xFFFFFF AND SWAP4 DUP3 ADD SWAP4 SWAP1 SWAP4 MSTORE PUSH1 0x1 PUSH1 0xB8 SHL SWAP1 SWAP3 DIV PUSH1 0xFF AND ISZERO DUP1 ISZERO SWAP2 DUP4 ADD SWAP2 SWAP1 SWAP2 MSTORE DUP3 SWAP2 SWAP1 PUSH2 0xA46 JUMPI DUP1 MLOAD PUSH1 0x20 DUP3 ADD MLOAD SWAP1 SWAP4 POP PUSH2 0x2710 SWAP1 PUSH2 0xA35 SWAP1 PUSH3 0xFFFFFF AND DUP7 PUSH2 0x3DB9 JUMP JUMPDEST PUSH2 0xA3F SWAP2 SWAP1 PUSH2 0x3DEE JUMP JUMPDEST SWAP2 POP PUSH2 0xA7C JUMP JUMPDEST PUSH1 0x0 DUP6 DUP2 MSTORE PUSH1 0x18 PUSH1 0x20 MSTORE PUSH1 0x40 SWAP1 KECCAK256 SLOAD PUSH1 0x1 PUSH1 0x1 PUSH1 0xA0 SHL SUB AND SWAP3 POP PUSH2 0x2710 PUSH2 0xA6F DUP6 PUSH2 0x1F4 PUSH2 0x3DB9 JUMP JUMPDEST PUSH2 0xA79 SWAP2 SWAP1 PUSH2 0x3DEE JUMP JUMPDEST SWAP2 POP JUMPDEST POP SWAP3 POP SWAP3 SWAP1 POP JUMP JUMPDEST PUSH1 0x0 DUP3 DUP2 MSTORE PUSH1 0x20 DUP2 SWAP1 MSTORE PUSH1 0x40 SWAP1 KECCAK256 PUSH1 0x1 ADD SLOAD PUSH2 0xA9F DUP2 PUSH2 0x242E JUMP JUMPDEST PUSH2 0x96F DUP4 DUP4 PUSH2 0x2438 JUMP JUMPDEST PUSH1 0x0 PUSH2 0xAB4 DUP4 PUSH2 0xE0B JUMP JUMPDEST DUP3 LT PUSH2 0xB16 JUMPI PUSH1 0x40 MLOAD PUSH3 0x461BCD PUSH1 0xE5 SHL DUP2 MSTORE PUSH1 0x20 PUSH1 0x4 DUP3 ADD MSTORE PUSH1 0x2B PUSH1 0x24 DUP3 ADD MSTORE PUSH32 0x455243373231456E756D657261626C653A206F776E657220696E646578206F75 PUSH1 0x44 DUP3 ADD MSTORE PUSH11 0x74206F6620626F756E6473 PUSH1 0xA8 SHL PUSH1 0x64 DUP3 ADD MSTORE PUSH1 0x84 ADD PUSH2 0x8CE JUMP JUMPDEST POP PUSH1 0x1 PUSH1 0x1 PUSH1 0xA0 SHL SUB SWAP2 SWAP1 SWAP2 AND PUSH1 0x0 SWAP1 DUP2 MSTORE PUSH1 0x8 PUSH1 0x20 SWAP1 DUP2 MSTORE PUSH1 0x40 DUP1 DUP4 KECCAK256 SWAP4 DUP4 MSTORE SWAP3 SWAP1 MSTORE KECCAK256 SLOAD SWAP1 JUMP JUMPDEST PUSH1 0x1 PUSH1 0x1 PUSH1 0xA0 SHL SUB DUP2 AND CALLER EQ PUSH2 0xBAF JUMPI PUSH1 0x40 MLOAD PUSH3 0x461BCD PUSH1 0xE5 SHL DUP2 MSTORE PUSH1 0x20 PUSH1 0x4 DUP3 ADD MSTORE PUSH1 0x2F PUSH1 0x24 DUP3 ADD MSTORE PUSH32 0x416363657373436F6E74726F6C3A2063616E206F6E6C792072656E6F756E6365 PUSH1 0x44 DUP3 ADD MSTORE PUSH15 0x103937B632B9903337B91039B2B633 PUSH1 0x89 SHL PUSH1 0x64 DUP3 ADD MSTORE PUSH1 0x84 ADD PUSH2 0x8CE JUMP JUMPDEST PUSH2 0xBB9 DUP3 DUP3 PUSH2 0x245A JUMP JUMPDEST POP POP JUMP JUMPDEST PUSH1 0x0 DUP3 DUP2 MSTORE PUSH1 0x18 PUSH1 0x20 MSTORE PUSH1 0x40 SWAP1 KECCAK256 SLOAD DUP3 SWAP1 PUSH1 0x1 PUSH1 0x1 PUSH1 0xA0 SHL SUB AND CALLER EQ PUSH2 0xC14 JUMPI PUSH1 0x40 MLOAD PUSH3 0x461BCD PUSH1 0xE5 SHL DUP2 MSTORE PUSH1 0x20 PUSH1 0x4 DUP3 ADD MSTORE PUSH1 0xC PUSH1 0x24 DUP3 ADD MSTORE PUSH12 0x27A7262CAFA1A922A0AA27A9 PUSH1 0xA1 SHL PUSH1 0x44 DUP3 ADD MSTORE PUSH1 0x64 ADD PUSH2 0x8CE JUMP JUMPDEST PUSH1 0x0 DUP4 DUP2 MSTORE PUSH1 0x17 PUSH1 0x20 SWAP1 DUP2 MSTORE PUSH1 0x40 SWAP1 SWAP2 KECCAK256 DUP4 MLOAD PUSH2 0xC33 SWAP3 DUP6 ADD SWAP1 PUSH2 0x34BB JUMP JUMPDEST POP POP POP POP JUMP JUMPDEST PUSH2 0xC51 PUSH1 0x0 DUP1 MLOAD PUSH1 0x20 PUSH2 0x4829 DUP4 CODECOPY DUP2 MLOAD SWAP2 MSTORE CALLER PUSH2 0x147C JUMP JUMPDEST PUSH2 0xCC5 JUMPI PUSH1 0x40 DUP1 MLOAD PUSH3 0x461BCD PUSH1 0xE5 SHL DUP2 MSTORE PUSH1 0x20 PUSH1 0x4 DUP3 ADD MSTORE PUSH1 0x24 DUP2 ADD SWAP2 SWAP1 SWAP2 MSTORE PUSH32 0x4552433732315072657365744D696E7465725061757365724175746F49643A20 PUSH1 0x44 DUP3 ADD MSTORE PUSH32 0x6D75737420686176652070617573657220726F6C6520746F20756E7061757365 PUSH1 0x64 DUP3 ADD MSTORE PUSH1 0x84 ADD PUSH2 0x8CE JUMP JUMPDEST PUSH2 0xCCD PUSH2 0x247C JUMP JUMPDEST JUMP JUMPDEST PUSH2 0x96F DUP4 DUP4 DUP4 PUSH1 0x40 MLOAD DUP1 PUSH1 0x20 ADD PUSH1 0x40 MSTORE DUP1 PUSH1 0x0 DUP2 MSTORE POP PUSH2 0x16B7 JUMP JUMPDEST PUSH2 0xCF3 CALLER PUSH2 0x995 JUMP JUMPDEST PUSH2 0xD0F JUMPI PUSH1 0x40 MLOAD PUSH3 0x461BCD PUSH1 0xE5 SHL DUP2 MSTORE PUSH1 0x4 ADD PUSH2 0x8CE SWAP1 PUSH2 0x3D6B JUMP JUMPDEST PUSH2 0x4EF DUP2 PUSH2 0x24CE JUMP JUMPDEST PUSH1 0x0 PUSH2 0xD23 PUSH1 0xA SLOAD SWAP1 JUMP JUMPDEST DUP3 LT PUSH2 0xD86 JUMPI PUSH1 0x40 MLOAD PUSH3 0x461BCD PUSH1 0xE5 SHL DUP2 MSTORE PUSH1 0x20 PUSH1 0x4 DUP3 ADD MSTORE PUSH1 0x2C PUSH1 0x24 DUP3 ADD MSTORE PUSH32 0x455243373231456E756D657261626C653A20676C6F62616C20696E646578206F PUSH1 0x44 DUP3 ADD MSTORE PUSH12 0x7574206F6620626F756E6473 PUSH1 0xA0 SHL PUSH1 0x64 DUP3 ADD MSTORE PUSH1 0x84 ADD PUSH2 0x8CE JUMP JUMPDEST PUSH1 0xA DUP3 DUP2 SLOAD DUP2 LT PUSH2 0xD99 JUMPI PUSH2 0xD99 PUSH2 0x3E02 JUMP JUMPDEST SWAP1 PUSH1 0x0 MSTORE PUSH1 0x20 PUSH1 0x0 KECCAK256 ADD SLOAD SWAP1 POP SWAP2 SWAP1 POP JUMP JUMPDEST PUSH1 0x0 DUP2 DUP2 MSTORE PUSH1 0x4 PUSH1 0x20 MSTORE PUSH1 0x40 DUP2 KECCAK256 SLOAD PUSH1 0x1 PUSH1 0x1 PUSH1 0xA0 SHL SUB AND DUP1 PUSH2 0x79A JUMPI PUSH1 0x40 MLOAD PUSH3 0x461BCD PUSH1 0xE5 SHL DUP2 MSTORE PUSH1 0x20 PUSH1 0x4 DUP3 ADD MSTORE PUSH1 0x18 PUSH1 0x24 DUP3 ADD MSTORE PUSH24 0x115490CDCC8C4E881A5B9D985B1A59081D1BDAD95B881251 PUSH1 0x42 SHL PUSH1 0x44 DUP3 ADD MSTORE PUSH1 0x64 ADD PUSH2 0x8CE JUMP JUMPDEST PUSH1 0x0 PUSH1 0x1 PUSH1 0x1 PUSH1 0xA0 SHL SUB DUP3 AND PUSH2 0xE75 JUMPI PUSH1 0x40 MLOAD PUSH3 0x461BCD PUSH1 0xE5 SHL DUP2 MSTORE PUSH1 0x20 PUSH1 0x4 DUP3 ADD MSTORE PUSH1 0x29 PUSH1 0x24 DUP3 ADD MSTORE PUSH32 0x4552433732313A2061646472657373207A65726F206973206E6F742061207661 PUSH1 0x44 DUP3 ADD MSTORE PUSH9 0x3634B21037BBB732B9 PUSH1 0xB9 SHL PUSH1 0x64 DUP3 ADD MSTORE PUSH1 0x84 ADD PUSH2 0x8CE JUMP JUMPDEST POP PUSH1 0x1 PUSH1 0x1 PUSH1 0xA0 SHL SUB AND PUSH1 0x0 SWAP1 DUP2 MSTORE PUSH1 0x5 PUSH1 0x20 MSTORE PUSH1 0x40 SWAP1 KECCAK256 SLOAD SWAP1 JUMP JUMPDEST PUSH2 0xE99 PUSH2 0x2575 JUMP JUMPDEST PUSH2 0xCCD PUSH1 0x0 PUSH2 0x25F3 JUMP JUMPDEST PUSH1 0x13 SLOAD PUSH1 0x40 DUP1 MLOAD DUP1 DUP3 ADD SWAP1 SWAP2 MSTORE PUSH1 0x3 DUP2 MSTORE PUSH3 0x64607 PUSH1 0xEB SHL PUSH1 0x20 DUP3 ADD MSTORE SWAP1 PUSH1 0x1 PUSH1 0x1 PUSH1 0xA0 SHL SUB AND CALLER EQ PUSH2 0xEE9 JUMPI PUSH1 0x40 MLOAD PUSH3 0x461BCD PUSH1 0xE5 SHL DUP2 MSTORE PUSH1 0x4 ADD PUSH2 0x8CE SWAP2 SWAP1 PUSH2 0x35DF JUMP JUMPDEST POP PUSH1 0x13 SLOAD PUSH1 0x1 PUSH1 0x1 PUSH1 0xA0 SHL SUB AND ISZERO DUP1 ISZERO SWAP1 PUSH2 0xF06 JUMPI POP PUSH1 0x0 PUSH1 0x14 SLOAD GT JUMPDEST PUSH1 0x40 MLOAD DUP1 PUSH1 0x40 ADD PUSH1 0x40 MSTORE DUP1 PUSH1 0x3 DUP2 MSTORE PUSH1 0x20 ADD PUSH3 0x191819 PUSH1 0xE9 SHL DUP2 MSTORE POP SWAP1 PUSH2 0xF40 JUMPI PUSH1 0x40 MLOAD PUSH3 0x461BCD PUSH1 0xE5 SHL DUP2 MSTORE PUSH1 0x4 ADD PUSH2 0x8CE SWAP2 SWAP1 PUSH2 0x35DF JUMP JUMPDEST POP DUP1 CALLDATALOAD PUSH1 0x0 JUMPDEST PUSH2 0xF53 PUSH1 0x20 DUP5 ADD DUP5 PUSH2 0x3E18 JUMP JUMPDEST SWAP1 POP DUP2 LT ISZERO PUSH2 0x10A6 JUMPI PUSH1 0x0 PUSH2 0xF6B PUSH1 0x20 DUP6 ADD DUP6 PUSH2 0x3E18 JUMP JUMPDEST DUP4 DUP2 DUP2 LT PUSH2 0xF7B JUMPI PUSH2 0xF7B PUSH2 0x3E02 JUMP JUMPDEST SWAP1 POP PUSH1 0x20 MUL DUP2 ADD SWAP1 PUSH2 0xF8D SWAP2 SWAP1 PUSH2 0x3E68 JUMP JUMPDEST PUSH2 0xF96 SWAP1 PUSH2 0x3F2C JUMP JUMPDEST SWAP1 POP DUP1 PUSH1 0xC0 ADD MLOAD PUSH2 0x105B JUMPI PUSH1 0x80 DUP2 ADD MLOAD MLOAD PUSH2 0x1007 JUMPI DUP1 PUSH1 0xA0 ADD MLOAD PUSH2 0xFC6 DUP5 PUSH1 0x0 SHR DUP4 PUSH1 0x40 ADD MLOAD DUP5 PUSH1 0x20 ADD MLOAD PUSH2 0x2645 JUMP JUMPDEST EQ PUSH1 0x40 MLOAD DUP1 PUSH1 0x40 ADD PUSH1 0x40 MSTORE DUP1 PUSH1 0x3 DUP2 MSTORE PUSH1 0x20 ADD PUSH3 0x19181B PUSH1 0xE9 SHL DUP2 MSTORE POP SWAP1 PUSH2 0x1001 JUMPI PUSH1 0x40 MLOAD PUSH3 0x461BCD PUSH1 0xE5 SHL DUP2 MSTORE PUSH1 0x4 ADD PUSH2 0x8CE SWAP2 SWAP1 PUSH2 0x35DF JUMP JUMPDEST POP PUSH2 0x105B JUMP JUMPDEST DUP1 PUSH1 0xA0 ADD MLOAD PUSH2 0x101E DUP5 PUSH1 0x0 SHR DUP4 PUSH1 0x80 ADD MLOAD MLOAD PUSH2 0x2670 JUMP JUMPDEST EQ PUSH1 0x40 MLOAD DUP1 PUSH1 0x40 ADD PUSH1 0x40 MSTORE DUP1 PUSH1 0x3 DUP2 MSTORE PUSH1 0x20 ADD PUSH3 0x323037 PUSH1 0xE8 SHL DUP2 MSTORE POP SWAP1 PUSH2 0x1059 JUMPI PUSH1 0x40 MLOAD PUSH3 0x461BCD PUSH1 0xE5 SHL DUP2 MSTORE PUSH1 0x4 ADD PUSH2 0x8CE SWAP2 SWAP1 PUSH2 0x35DF JUMP JUMPDEST POP JUMPDEST PUSH1 0xA0 DUP2 ADD MLOAD PUSH1 0x40 MLOAD PUSH2 0x107A SWAP2 DUP6 SWAP2 PUSH1 0x20 ADD SWAP2 DUP3 MSTORE PUSH1 0x20 DUP3 ADD MSTORE PUSH1 0x40 ADD SWAP1 JUMP JUMPDEST PUSH1 0x40 MLOAD PUSH1 0x20 DUP2 DUP4 SUB SUB DUP2 MSTORE SWAP1 PUSH1 0x40 MSTORE DUP1 MLOAD SWAP1 PUSH1 0x20 ADD KECCAK256 SWAP3 POP POP DUP1 DUP1 PUSH2 0x109E SWAP1 PUSH2 0x3FC2 JUMP JUMPDEST SWAP2 POP POP PUSH2 0xF46 JUMP JUMPDEST POP PUSH1 0x13 SLOAD PUSH1 0x14 SLOAD PUSH1 0x40 MLOAD PUSH4 0x4F558E79 PUSH1 0xE0 SHL DUP2 MSTORE PUSH1 0x4 DUP2 ADD SWAP2 SWAP1 SWAP2 MSTORE PUSH1 0x1 PUSH1 0x1 PUSH1 0xA0 SHL SUB SWAP1 SWAP2 AND SWAP1 DUP2 SWAP1 PUSH4 0x4F558E79 SWAP1 PUSH1 0x24 ADD PUSH1 0x20 PUSH1 0x40 MLOAD DUP1 DUP4 SUB DUP2 DUP7 GAS STATICCALL ISZERO DUP1 ISZERO PUSH2 0x10F6 JUMPI RETURNDATASIZE PUSH1 0x0 DUP1 RETURNDATACOPY RETURNDATASIZE PUSH1 0x0 REVERT JUMPDEST POP POP POP POP PUSH1 0x40 MLOAD RETURNDATASIZE PUSH1 0x1F NOT PUSH1 0x1F DUP3 ADD AND DUP3 ADD DUP1 PUSH1 0x40 MSTORE POP DUP2 ADD SWAP1 PUSH2 0x111A SWAP2 SWAP1 PUSH2 0x3FDD JUMP JUMPDEST PUSH1 0x40 MLOAD DUP1 PUSH1 0x40 ADD PUSH1 0x40 MSTORE DUP1 PUSH1 0x3 DUP2 MSTORE PUSH1 0x20 ADD PUSH3 0x191819 PUSH1 0xE9 SHL DUP2 MSTORE POP SWAP1 PUSH2 0x1154 JUMPI PUSH1 0x40 MLOAD PUSH3 0x461BCD PUSH1 0xE5 SHL DUP2 MSTORE PUSH1 0x4 ADD PUSH2 0x8CE SWAP2 SWAP1 PUSH2 0x35DF JUMP JUMPDEST POP PUSH2 0x1163 PUSH1 0x11 DUP1 SLOAD PUSH1 0x1 ADD SWAP1 SSTORE JUMP JUMPDEST PUSH1 0x0 PUSH2 0x116E PUSH1 0x11 SLOAD SWAP1 JUMP JUMPDEST DUP6 MLOAD SWAP1 SWAP2 POP ISZERO PUSH2 0x1199 JUMPI PUSH1 0x0 DUP2 DUP2 MSTORE PUSH1 0x17 PUSH1 0x20 SWAP1 DUP2 MSTORE PUSH1 0x40 SWAP1 SWAP2 KECCAK256 DUP7 MLOAD PUSH2 0x1197 SWAP3 DUP9 ADD SWAP1 PUSH2 0x34BB JUMP JUMPDEST POP JUMPDEST PUSH1 0x0 DUP2 DUP2 MSTORE PUSH1 0x18 PUSH1 0x20 SWAP1 DUP2 MSTORE PUSH1 0x40 DUP1 DUP4 KECCAK256 DUP1 SLOAD PUSH1 0x1 PUSH1 0x1 PUSH1 0xA0 SHL SUB NOT AND PUSH1 0x1 PUSH1 0x1 PUSH1 0xA0 SHL SUB DUP12 AND OR SWAP1 SSTORE PUSH1 0x15 SWAP1 SWAP2 MSTORE SWAP1 KECCAK256 DUP5 SWAP1 PUSH2 0x11D6 DUP3 DUP3 PUSH2 0x430E JUMP JUMPDEST SWAP1 POP POP PUSH2 0x11E3 DUP8 DUP3 PUSH2 0x267C JUMP JUMPDEST PUSH32 0xBF83D3C95E3A6B6B6CAC45594A672C1D703818ADA1304CF6E235FDC0BD6E4371 DUP8 DUP8 DUP8 DUP5 PUSH1 0x40 MLOAD PUSH2 0x1218 SWAP5 SWAP4 SWAP3 SWAP2 SWAP1 PUSH2 0x442C JUMP JUMPDEST PUSH1 0x40 MLOAD DUP1 SWAP2 SUB SWAP1 LOG1 POP POP POP POP POP POP POP JUMP JUMPDEST PUSH1 0x12 SLOAD PUSH1 0x40 DUP1 MLOAD DUP1 DUP3 ADD SWAP1 SWAP2 MSTORE PUSH1 0x3 DUP2 MSTORE PUSH3 0x313031 PUSH1 0xE8 SHL PUSH1 0x20 DUP3 ADD MSTORE SWAP1 PUSH1 0x1 PUSH1 0x1 PUSH1 0xA0 SHL SUB AND CALLER EQ PUSH2 0x126F JUMPI PUSH1 0x40 MLOAD PUSH3 0x461BCD PUSH1 0xE5 SHL DUP2 MSTORE PUSH1 0x4 ADD PUSH2 0x8CE SWAP2 SWAP1 PUSH2 0x35DF JUMP JUMPDEST POP DUP1 PUSH1 0x16 PUSH2 0x96F DUP3 DUP3 PUSH2 0x451B JUMP JUMPDEST PUSH2 0x1295 PUSH1 0x0 DUP1 MLOAD PUSH1 0x20 PUSH2 0x4829 DUP4 CODECOPY DUP2 MLOAD SWAP2 MSTORE CALLER PUSH2 0x147C JUMP JUMPDEST PUSH2 0x1307 JUMPI PUSH1 0x40 MLOAD PUSH3 0x461BCD PUSH1 0xE5 SHL DUP2 MSTORE PUSH1 0x20 PUSH1 0x4 DUP3 ADD MSTORE PUSH1 0x3E PUSH1 0x24 DUP3 ADD MSTORE PUSH32 0x4552433732315072657365744D696E7465725061757365724175746F49643A20 PUSH1 0x44 DUP3 ADD MSTORE PUSH32 0x6D75737420686176652070617573657220726F6C6520746F2070617573650000 PUSH1 0x64 DUP3 ADD MSTORE PUSH1 0x84 ADD PUSH2 0x8CE JUMP JUMPDEST PUSH2 0xCCD PUSH2 0x2696 JUMP JUMPDEST PUSH1 0x12 SLOAD PUSH1 0x1 PUSH1 0x1 PUSH1 0xA0 SHL SUB AND CALLER PUSH1 0x1 PUSH1 0x1 PUSH1 0xA0 SHL SUB AND EQ PUSH2 0x1342 JUMPI PUSH1 0x40 MLOAD PUSH3 0x461BCD PUSH1 0xE5 SHL DUP2 MSTORE PUSH1 0x4 ADD PUSH2 0x8CE SWAP1 PUSH2 0x4612 JUMP JUMPDEST PUSH2 0x134D PUSH1 0x0 CALLER PUSH2 0x147C JUMP JUMPDEST PUSH2 0x1369 JUMPI PUSH1 0x40 MLOAD PUSH3 0x461BCD PUSH1 0xE5 SHL DUP2 MSTORE PUSH1 0x4 ADD PUSH2 0x8CE SWAP1 PUSH2 0x4612 JUMP JUMPDEST PUSH1 0x40 DUP1 MLOAD DUP1 DUP3 ADD SWAP1 SWAP2 MSTORE PUSH1 0x3 DUP2 MSTORE PUSH3 0x31303 PUSH1 0xEC SHL PUSH1 0x20 DUP3 ADD MSTORE PUSH1 0x1 PUSH1 0x1 PUSH1 0xA0 SHL SUB DUP3 AND PUSH2 0x13AA JUMPI PUSH1 0x40 MLOAD PUSH3 0x461BCD PUSH1 0xE5 SHL DUP2 MSTORE PUSH1 0x4 ADD PUSH2 0x8CE SWAP2 SWAP1 PUSH2 0x35DF JUMP JUMPDEST POP PUSH1 0x12 DUP1 SLOAD PUSH1 0x1 PUSH1 0x1 PUSH1 0xA0 SHL SUB DUP4 DUP2 AND PUSH1 0x1 PUSH1 0x1 PUSH1 0xA0 SHL SUB NOT DUP4 AND DUP2 OR SWAP1 SWAP4 SSTORE AND SWAP1 PUSH2 0x13D8 SWAP1 PUSH1 0x0 SWAP1 PUSH2 0xA84 JUMP JUMPDEST PUSH1 0x12 SLOAD PUSH2 0x13FD SWAP1 PUSH1 0x0 DUP1 MLOAD PUSH1 0x20 PUSH2 0x4849 DUP4 CODECOPY DUP2 MLOAD SWAP2 MSTORE SWAP1 PUSH1 0x1 PUSH1 0x1 PUSH1 0xA0 SHL SUB AND PUSH2 0xA84 JUMP JUMPDEST PUSH1 0x12 SLOAD PUSH2 0x1422 SWAP1 PUSH1 0x0 DUP1 MLOAD PUSH1 0x20 PUSH2 0x4829 DUP4 CODECOPY DUP2 MLOAD SWAP2 MSTORE SWAP1 PUSH1 0x1 PUSH1 0x1 PUSH1 0xA0 SHL SUB AND PUSH2 0xA84 JUMP JUMPDEST PUSH2 0x142D PUSH1 0x0 DUP3 PUSH2 0x1ABD JUMP JUMPDEST PUSH2 0x1445 PUSH1 0x0 DUP1 MLOAD PUSH1 0x20 PUSH2 0x4849 DUP4 CODECOPY DUP2 MLOAD SWAP2 MSTORE DUP3 PUSH2 0x1ABD JUMP JUMPDEST PUSH2 0xBB9 PUSH1 0x0 DUP1 MLOAD PUSH1 0x20 PUSH2 0x4829 DUP4 CODECOPY DUP2 MLOAD SWAP2 MSTORE DUP3 PUSH2 0x1ABD JUMP JUMPDEST PUSH1 0x0 DUP3 DUP2 MSTORE PUSH1 0x1 PUSH1 0x20 MSTORE PUSH1 0x40 DUP2 KECCAK256 PUSH2 0x1475 SWAP1 DUP4 PUSH2 0x26D3 JUMP JUMPDEST SWAP4 SWAP3 POP POP POP JUMP JUMPDEST PUSH1 0x0 SWAP2 DUP3 MSTORE PUSH1 0x20 DUP3 DUP2 MSTORE PUSH1 0x40 DUP1 DUP5 KECCAK256 PUSH1 0x1 PUSH1 0x1 PUSH1 0xA0 SHL SUB SWAP4 SWAP1 SWAP4 AND DUP5 MSTORE SWAP2 SWAP1 MSTORE SWAP1 KECCAK256 SLOAD PUSH1 0xFF AND SWAP1 JUMP JUMPDEST PUSH1 0x60 PUSH1 0x1A DUP1 SLOAD PUSH2 0x7AF SWAP1 PUSH2 0x3D09 JUMP JUMPDEST PUSH1 0x12 SLOAD PUSH1 0x1 PUSH1 0x1 PUSH1 0xA0 SHL SUB AND CALLER PUSH1 0x1 PUSH1 0x1 PUSH1 0xA0 SHL SUB AND EQ PUSH2 0x14E7 JUMPI PUSH1 0x40 MLOAD PUSH3 0x461BCD PUSH1 0xE5 SHL DUP2 MSTORE PUSH1 0x4 ADD PUSH2 0x8CE SWAP1 PUSH2 0x4612 JUMP JUMPDEST PUSH2 0x14F2 PUSH1 0x0 CALLER PUSH2 0x147C JUMP JUMPDEST PUSH2 0x150E JUMPI PUSH1 0x40 MLOAD PUSH3 0x461BCD PUSH1 0xE5 SHL DUP2 MSTORE PUSH1 0x4 ADD PUSH2 0x8CE SWAP1 PUSH2 0x4612 JUMP JUMPDEST PUSH1 0x40 DUP1 MLOAD DUP1 DUP3 ADD SWAP1 SWAP2 MSTORE PUSH1 0x3 DUP2 MSTORE PUSH3 0x323033 PUSH1 0xE8 SHL PUSH1 0x20 DUP3 ADD MSTORE PUSH2 0x2710 DUP3 GT ISZERO PUSH2 0x154B JUMPI PUSH1 0x40 MLOAD PUSH3 0x461BCD PUSH1 0xE5 SHL DUP2 MSTORE PUSH1 0x4 ADD PUSH2 0x8CE SWAP2 SWAP1 PUSH2 0x35DF JUMP JUMPDEST POP PUSH1 0x40 DUP1 MLOAD PUSH1 0x60 DUP2 ADD DUP3 MSTORE PUSH1 0x1 PUSH1 0x1 PUSH1 0xA0 SHL SUB SWAP4 DUP5 AND DUP2 MSTORE PUSH3 0xFFFFFF SWAP3 DUP4 AND PUSH1 0x20 DUP1 DUP4 ADD SWAP2 DUP3 MSTORE PUSH1 0x1 DUP4 DUP6 ADD SWAP1 DUP2 MSTORE PUSH1 0x0 SWAP8 DUP9 MSTORE PUSH1 0x1B SWAP1 SWAP2 MSTORE SWAP3 SWAP1 SWAP6 KECCAK256 SWAP1 MLOAD DUP2 SLOAD SWAP6 MLOAD SWAP3 MLOAD SWAP5 AND PUSH1 0x1 PUSH1 0x1 PUSH1 0xB8 SHL SUB NOT SWAP1 SWAP6 AND SWAP5 SWAP1 SWAP5 OR PUSH1 0x1 PUSH1 0xA0 SHL SWAP2 SWAP1 SWAP3 AND MUL OR PUSH1 0xFF PUSH1 0xB8 SHL NOT AND PUSH1 0x1 PUSH1 0xB8 SHL SWAP2 ISZERO ISZERO SWAP2 SWAP1 SWAP2 MUL OR SWAP1 SSTORE JUMP JUMPDEST PUSH2 0xBB9 CALLER DUP4 DUP4 PUSH2 0x26DF JUMP JUMPDEST PUSH1 0x1 PUSH1 0x1 PUSH1 0xA0 SHL SUB DUP3 AND PUSH2 0x15F6 JUMPI PUSH1 0x40 MLOAD PUSH3 0x461BCD PUSH1 0xE5 SHL DUP2 MSTORE PUSH1 0x4 ADD PUSH2 0x8CE SWAP1 PUSH2 0x463E JUMP JUMPDEST PUSH1 0x1 PUSH1 0x1 PUSH1 0xA0 SHL SUB DUP4 AND PUSH2 0x161C JUMPI PUSH1 0x40 MLOAD PUSH3 0x461BCD PUSH1 0xE5 SHL DUP2 MSTORE PUSH1 0x4 ADD PUSH2 0x8CE SWAP1 PUSH2 0x463E JUMP JUMPDEST PUSH1 0x14 SLOAD ISZERO PUSH2 0x1656 JUMPI PUSH1 0x40 MLOAD PUSH3 0x461BCD PUSH1 0xE5 SHL DUP2 MSTORE PUSH1 0x20 PUSH1 0x4 DUP3 ADD MSTORE PUSH1 0x7 PUSH1 0x24 DUP3 ADD MSTORE PUSH7 0x11561254D51151 PUSH1 0xCA SHL PUSH1 0x44 DUP3 ADD MSTORE PUSH1 0x64 ADD PUSH2 0x8CE JUMP JUMPDEST DUP5 MLOAD PUSH2 0x1669 SWAP1 PUSH1 0x19 SWAP1 PUSH1 0x20 DUP9 ADD SWAP1 PUSH2 0x34BB JUMP JUMPDEST POP DUP4 MLOAD PUSH2 0x167D SWAP1 PUSH1 0x1A SWAP1 PUSH1 0x20 DUP8 ADD SWAP1 PUSH2 0x34BB JUMP JUMPDEST POP PUSH1 0x13 DUP1 SLOAD PUSH1 0x1 PUSH1 0x1 PUSH1 0xA0 SHL SUB NOT AND PUSH1 0x1 PUSH1 0x1 PUSH1 0xA0 SHL SUB DUP5 AND OR SWAP1 SSTORE PUSH1 0x14 DUP2 SWAP1 SSTORE PUSH2 0x16A7 DUP4 PUSH2 0x27AE JUMP JUMPDEST PUSH2 0x16B0 DUP4 PUSH2 0x2007 JUMP JUMPDEST POP POP POP POP POP JUMP JUMPDEST PUSH2 0x16C1 CALLER DUP4 PUSH2 0x2208 JUMP JUMPDEST PUSH2 0x16DD JUMPI PUSH1 0x40 MLOAD PUSH3 0x461BCD PUSH1 0xE5 SHL DUP2 MSTORE PUSH1 0x4 ADD PUSH2 0x8CE SWAP1 PUSH2 0x3D6B JUMP JUMPDEST PUSH2 0xC33 DUP5 DUP5 DUP5 DUP5 PUSH2 0x289A JUMP JUMPDEST PUSH1 0x0 DUP2 DUP2 MSTORE PUSH1 0x15 PUSH1 0x20 SWAP1 DUP2 MSTORE PUSH1 0x40 DUP1 DUP4 KECCAK256 DUP1 SLOAD PUSH1 0x1 SWAP1 SWAP2 ADD DUP1 SLOAD DUP4 MLOAD DUP2 DUP7 MUL DUP2 ADD DUP7 ADD SWAP1 SWAP5 MSTORE DUP1 DUP5 MSTORE PUSH1 0x60 SWAP5 SWAP3 SWAP4 SWAP2 SWAP3 DUP4 SWAP2 SWAP1 DUP8 SWAP1 DUP5 ADD JUMPDEST DUP3 DUP3 LT ISZERO PUSH2 0x1870 JUMPI PUSH1 0x0 DUP5 DUP2 MSTORE PUSH1 0x20 DUP1 DUP3 KECCAK256 PUSH1 0x40 DUP1 MLOAD PUSH1 0xE0 DUP2 ADD DUP3 MSTORE PUSH1 0x7 DUP8 MUL SWAP1 SWAP3 ADD DUP1 SLOAD PUSH1 0xFF SWAP1 DUP2 AND DUP5 MSTORE PUSH1 0x1 DUP3 ADD SLOAD DUP5 DUP7 ADD MSTORE PUSH1 0x2 DUP3 ADD SLOAD DUP5 DUP5 ADD MSTORE PUSH1 0x3 DUP3 ADD SLOAD AND PUSH1 0x60 DUP5 ADD MSTORE PUSH1 0x4 DUP2 ADD DUP1 SLOAD DUP4 MLOAD DUP2 DUP8 MUL DUP2 ADD DUP8 ADD SWAP1 SWAP5 MSTORE DUP1 DUP5 MSTORE SWAP4 SWAP6 SWAP2 SWAP5 PUSH1 0x80 DUP8 ADD SWAP5 SWAP2 SWAP3 SWAP1 DUP5 ADD JUMPDEST DUP3 DUP3 LT ISZERO PUSH2 0x183A JUMPI DUP4 DUP3 SWAP1 PUSH1 0x0 MSTORE PUSH1 0x20 PUSH1 0x0 KECCAK256 ADD DUP1 SLOAD PUSH2 0x17AD SWAP1 PUSH2 0x3D09 JUMP JUMPDEST DUP1 PUSH1 0x1F ADD PUSH1 0x20 DUP1 SWAP2 DIV MUL PUSH1 0x20 ADD PUSH1 0x40 MLOAD SWAP1 DUP2 ADD PUSH1 0x40 MSTORE DUP1 SWAP3 SWAP2 SWAP1 DUP2 DUP2 MSTORE PUSH1 0x20 ADD DUP3 DUP1 SLOAD PUSH2 0x17D9 SWAP1 PUSH2 0x3D09 JUMP JUMPDEST DUP1 ISZERO PUSH2 0x1826 JUMPI DUP1 PUSH1 0x1F LT PUSH2 0x17FB JUMPI PUSH2 0x100 DUP1 DUP4 SLOAD DIV MUL DUP4 MSTORE SWAP2 PUSH1 0x20 ADD SWAP2 PUSH2 0x1826 JUMP JUMPDEST DUP3 ADD SWAP2 SWAP1 PUSH1 0x0 MSTORE PUSH1 0x20 PUSH1 0x0 KECCAK256 SWAP1 JUMPDEST DUP2 SLOAD DUP2 MSTORE SWAP1 PUSH1 0x1 ADD SWAP1 PUSH1 0x20 ADD DUP1 DUP4 GT PUSH2 0x1809 JUMPI DUP3 SWAP1 SUB PUSH1 0x1F AND DUP3 ADD SWAP2 JUMPDEST POP POP POP POP POP DUP2 MSTORE PUSH1 0x20 ADD SWAP1 PUSH1 0x1 ADD SWAP1 PUSH2 0x178E JUMP JUMPDEST POP POP POP SWAP1 DUP3 MSTORE POP PUSH1 0x5 DUP3 ADD SLOAD PUSH1 0x20 DUP1 DUP4 ADD SWAP2 SWAP1 SWAP2 MSTORE PUSH1 0x6 SWAP1 SWAP3 ADD SLOAD PUSH1 0xFF AND ISZERO ISZERO PUSH1 0x40 SWAP1 SWAP2 ADD MSTORE SWAP1 DUP3 MSTORE PUSH1 0x1 SWAP3 SWAP1 SWAP3 ADD SWAP2 ADD PUSH2 0x1721 JUMP JUMPDEST POP POP POP POP SWAP1 POP SWAP2 POP SWAP2 POP SWAP2 POP SWAP2 JUMP JUMPDEST PUSH1 0x0 DUP2 DUP2 MSTORE PUSH1 0x17 PUSH1 0x20 MSTORE PUSH1 0x40 DUP2 KECCAK256 DUP1 SLOAD PUSH1 0x60 SWAP3 SWAP2 SWAP1 PUSH2 0x189D SWAP1 PUSH2 0x3D09 JUMP JUMPDEST DUP1 PUSH1 0x1F ADD PUSH1 0x20 DUP1 SWAP2 DIV MUL PUSH1 0x20 ADD PUSH1 0x40 MLOAD SWAP1 DUP2 ADD PUSH1 0x40 MSTORE DUP1 SWAP3 SWAP2 SWAP1 DUP2 DUP2 MSTORE PUSH1 0x20 ADD DUP3 DUP1 SLOAD PUSH2 0x18C9 SWAP1 PUSH2 0x3D09 JUMP JUMPDEST DUP1 ISZERO PUSH2 0x1916 JUMPI DUP1 PUSH1 0x1F LT PUSH2 0x18EB JUMPI PUSH2 0x100 DUP1 DUP4 SLOAD DIV MUL DUP4 MSTORE SWAP2 PUSH1 0x20 ADD SWAP2 PUSH2 0x1916 JUMP JUMPDEST DUP3 ADD SWAP2 SWAP1 PUSH1 0x0 MSTORE PUSH1 0x20 PUSH1 0x0 KECCAK256 SWAP1 JUMPDEST DUP2 SLOAD DUP2 MSTORE SWAP1 PUSH1 0x1 ADD SWAP1 PUSH1 0x20 ADD DUP1 DUP4 GT PUSH2 0x18F9 JUMPI DUP3 SWAP1 SUB PUSH1 0x1F AND DUP3 ADD SWAP2 JUMPDEST POP POP POP POP POP SWAP1 POP PUSH1 0x0 DUP2 MLOAD GT ISZERO PUSH2 0x19C6 JUMPI PUSH1 0x0 DUP4 DUP2 MSTORE PUSH1 0x17 PUSH1 0x20 MSTORE PUSH1 0x40 SWAP1 KECCAK256 DUP1 SLOAD PUSH2 0x1940 SWAP1 PUSH2 0x3D09 JUMP JUMPDEST DUP1 PUSH1 0x1F ADD PUSH1 0x20 DUP1 SWAP2 DIV MUL PUSH1 0x20 ADD PUSH1 0x40 MLOAD SWAP1 DUP2 ADD PUSH1 0x40 MSTORE DUP1 SWAP3 SWAP2 SWAP1 DUP2 DUP2 MSTORE PUSH1 0x20 ADD DUP3 DUP1 SLOAD PUSH2 0x196C SWAP1 PUSH2 0x3D09 JUMP JUMPDEST DUP1 ISZERO PUSH2 0x19B9 JUMPI DUP1 PUSH1 0x1F LT PUSH2 0x198E JUMPI PUSH2 0x100 DUP1 DUP4 SLOAD DIV MUL DUP4 MSTORE SWAP2 PUSH1 0x20 ADD SWAP2 PUSH2 0x19B9 JUMP JUMPDEST DUP3 ADD SWAP2 SWAP1 PUSH1 0x0 MSTORE PUSH1 0x20 PUSH1 0x0 KECCAK256 SWAP1 JUMPDEST DUP2 SLOAD DUP2 MSTORE SWAP1 PUSH1 0x1 ADD SWAP1 PUSH1 0x20 ADD DUP1 DUP4 GT PUSH2 0x199C JUMPI DUP3 SWAP1 SUB PUSH1 0x1F AND DUP3 ADD SWAP2 JUMPDEST POP POP POP POP POP SWAP2 POP POP SWAP2 SWAP1 POP JUMP JUMPDEST PUSH2 0x19CE PUSH2 0x1AE2 JUMP JUMPDEST PUSH2 0x19D7 DUP5 PUSH2 0x28CD JUMP JUMPDEST PUSH1 0x40 MLOAD PUSH1 0x20 ADD PUSH2 0x19E8 SWAP3 SWAP2 SWAP1 PUSH2 0x465F JUMP JUMPDEST PUSH1 0x40 MLOAD PUSH1 0x20 DUP2 DUP4 SUB SUB DUP2 MSTORE SWAP1 PUSH1 0x40 MSTORE SWAP2 POP POP SWAP2 SWAP1 POP JUMP JUMPDEST POP SWAP2 SWAP1 POP JUMP JUMPDEST PUSH1 0x0 DUP2 DUP2 MSTORE PUSH1 0x1 PUSH1 0x20 MSTORE PUSH1 0x40 DUP2 KECCAK256 PUSH2 0x79A SWAP1 PUSH2 0x29CA JUMP JUMPDEST PUSH1 0x40 DUP1 MLOAD DUP1 DUP3 ADD SWAP1 SWAP2 MSTORE PUSH1 0x3 DUP2 MSTORE PUSH3 0x31303 PUSH1 0xEC SHL PUSH1 0x20 DUP3 ADD MSTORE PUSH1 0x1 PUSH1 0x1 PUSH1 0xA0 SHL SUB DUP4 AND PUSH2 0x1A5D JUMPI PUSH1 0x40 MLOAD PUSH3 0x461BCD PUSH1 0xE5 SHL DUP2 MSTORE PUSH1 0x4 ADD PUSH2 0x8CE SWAP2 SWAP1 PUSH2 0x35DF JUMP JUMPDEST POP PUSH2 0x1A76 PUSH1 0x0 DUP1 MLOAD PUSH1 0x20 PUSH2 0x4849 DUP4 CODECOPY DUP2 MLOAD SWAP2 MSTORE DUP4 PUSH2 0x2438 JUMP JUMPDEST PUSH1 0x0 JUMPDEST DUP2 MLOAD DUP2 LT ISZERO PUSH2 0x96F JUMPI PUSH1 0x0 DUP3 DUP3 DUP2 MLOAD DUP2 LT PUSH2 0x1A96 JUMPI PUSH2 0x1A96 PUSH2 0x3E02 JUMP JUMPDEST PUSH1 0x20 MUL PUSH1 0x20 ADD ADD MLOAD SWAP1 POP PUSH2 0x1AAA DUP5 DUP3 PUSH2 0x29D4 JUMP JUMPDEST POP DUP1 PUSH2 0x1AB5 DUP2 PUSH2 0x3FC2 JUMP JUMPDEST SWAP2 POP POP PUSH2 0x1A79 JUMP JUMPDEST PUSH1 0x0 DUP3 DUP2 MSTORE PUSH1 0x20 DUP2 SWAP1 MSTORE PUSH1 0x40 SWAP1 KECCAK256 PUSH1 0x1 ADD SLOAD PUSH2 0x1AD8 DUP2 PUSH2 0x242E JUMP JUMPDEST PUSH2 0x96F DUP4 DUP4 PUSH2 0x245A JUMP JUMPDEST PUSH1 0x60 PUSH2 0x98B PUSH2 0x2A5A JUMP JUMPDEST PUSH1 0x60 PUSH1 0x0 PUSH1 0x15 PUSH1 0x0 DUP5 DUP2 MSTORE PUSH1 0x20 ADD SWAP1 DUP2 MSTORE PUSH1 0x20 ADD PUSH1 0x0 KECCAK256 PUSH1 0x40 MLOAD DUP1 PUSH1 0x40 ADD PUSH1 0x40 MSTORE SWAP1 DUP2 PUSH1 0x0 DUP3 ADD SLOAD DUP2 MSTORE PUSH1 0x20 ADD PUSH1 0x1 DUP3 ADD DUP1 SLOAD DUP1 PUSH1 0x20 MUL PUSH1 0x20 ADD PUSH1 0x40 MLOAD SWAP1 DUP2 ADD PUSH1 0x40 MSTORE DUP1 SWAP3 SWAP2 SWAP1 DUP2 DUP2 MSTORE PUSH1 0x20 ADD PUSH1 0x0 SWAP1 JUMPDEST DUP3 DUP3 LT ISZERO PUSH2 0x1C8C JUMPI PUSH1 0x0 DUP5 DUP2 MSTORE PUSH1 0x20 DUP1 DUP3 KECCAK256 PUSH1 0x40 DUP1 MLOAD PUSH1 0xE0 DUP2 ADD DUP3 MSTORE PUSH1 0x7 DUP8 MUL SWAP1 SWAP3 ADD DUP1 SLOAD PUSH1 0xFF SWAP1 DUP2 AND DUP5 MSTORE PUSH1 0x1 DUP3 ADD SLOAD DUP5 DUP7 ADD MSTORE PUSH1 0x2 DUP3 ADD SLOAD DUP5 DUP5 ADD MSTORE PUSH1 0x3 DUP3 ADD SLOAD AND PUSH1 0x60 DUP5 ADD MSTORE PUSH1 0x4 DUP2 ADD DUP1 SLOAD DUP4 MLOAD DUP2 DUP8 MUL DUP2 ADD DUP8 ADD SWAP1 SWAP5 MSTORE DUP1 DUP5 MSTORE SWAP4 SWAP6 SWAP2 SWAP5 PUSH1 0x80 DUP8 ADD SWAP5 SWAP2 SWAP3 SWAP1 DUP5 ADD JUMPDEST DUP3 DUP3 LT ISZERO PUSH2 0x1C56 JUMPI DUP4 DUP3 SWAP1 PUSH1 0x0 MSTORE PUSH1 0x20 PUSH1 0x0 KECCAK256 ADD DUP1 SLOAD PUSH2 0x1BC9 SWAP1 PUSH2 0x3D09 JUMP JUMPDEST DUP1 PUSH1 0x1F ADD PUSH1 0x20 DUP1 SWAP2 DIV MUL PUSH1 0x20 ADD PUSH1 0x40 MLOAD SWAP1 DUP2 ADD PUSH1 0x40 MSTORE DUP1 SWAP3 SWAP2 SWAP1 DUP2 DUP2 MSTORE PUSH1 0x20 ADD DUP3 DUP1 SLOAD PUSH2 0x1BF5 SWAP1 PUSH2 0x3D09 JUMP JUMPDEST DUP1 ISZERO PUSH2 0x1C42 JUMPI DUP1 PUSH1 0x1F LT PUSH2 0x1C17 JUMPI PUSH2 0x100 DUP1 DUP4 SLOAD DIV MUL DUP4 MSTORE SWAP2 PUSH1 0x20 ADD SWAP2 PUSH2 0x1C42 JUMP JUMPDEST DUP3 ADD SWAP2 SWAP1 PUSH1 0x0 MSTORE PUSH1 0x20 PUSH1 0x0 KECCAK256 SWAP1 JUMPDEST DUP2 SLOAD DUP2 MSTORE SWAP1 PUSH1 0x1 ADD SWAP1 PUSH1 0x20 ADD DUP1 DUP4 GT PUSH2 0x1C25 JUMPI DUP3 SWAP1 SUB PUSH1 0x1F AND DUP3 ADD SWAP2 JUMPDEST POP POP POP POP POP DUP2 MSTORE PUSH1 0x20 ADD SWAP1 PUSH1 0x1 ADD SWAP1 PUSH2 0x1BAA JUMP JUMPDEST POP POP POP SWAP1 DUP3 MSTORE POP PUSH1 0x5 DUP3 ADD SLOAD PUSH1 0x20 DUP1 DUP4 ADD SWAP2 SWAP1 SWAP2 MSTORE PUSH1 0x6 SWAP1 SWAP3 ADD SLOAD PUSH1 0xFF AND ISZERO ISZERO PUSH1 0x40 SWAP1 SWAP2 ADD MSTORE SWAP1 DUP3 MSTORE PUSH1 0x1 SWAP3 SWAP1 SWAP3 ADD SWAP2 ADD PUSH2 0x1B3D JUMP JUMPDEST POP POP POP POP DUP2 MSTORE POP POP SWAP1 POP PUSH1 0x0 PUSH1 0x16 PUSH1 0x0 ADD DUP1 SLOAD DUP1 PUSH1 0x20 MUL PUSH1 0x20 ADD PUSH1 0x40 MLOAD SWAP1 DUP2 ADD PUSH1 0x40 MSTORE DUP1 SWAP3 SWAP2 SWAP1 DUP2 DUP2 MSTORE PUSH1 0x20 ADD PUSH1 0x0 SWAP1 JUMPDEST DUP3 DUP3 LT ISZERO PUSH2 0x1EF6 JUMPI DUP4 DUP3 SWAP1 PUSH1 0x0 MSTORE PUSH1 0x20 PUSH1 0x0 KECCAK256 SWAP1 PUSH1 0x4 MUL ADD PUSH1 0x40 MLOAD DUP1 PUSH1 0x80 ADD PUSH1 0x40 MSTORE SWAP1 DUP2 PUSH1 0x0 DUP3 ADD DUP1 SLOAD PUSH2 0x1CF0 SWAP1 PUSH2 0x3D09 JUMP JUMPDEST DUP1 PUSH1 0x1F ADD PUSH1 0x20 DUP1 SWAP2 DIV MUL PUSH1 0x20 ADD PUSH1 0x40 MLOAD SWAP1 DUP2 ADD PUSH1 0x40 MSTORE DUP1 SWAP3 SWAP2 SWAP1 DUP2 DUP2 MSTORE PUSH1 0x20 ADD DUP3 DUP1 SLOAD PUSH2 0x1D1C SWAP1 PUSH2 0x3D09 JUMP JUMPDEST DUP1 ISZERO PUSH2 0x1D69 JUMPI DUP1 PUSH1 0x1F LT PUSH2 0x1D3E JUMPI PUSH2 0x100 DUP1 DUP4 SLOAD DIV MUL DUP4 MSTORE SWAP2 PUSH1 0x20 ADD SWAP2 PUSH2 0x1D69 JUMP JUMPDEST DUP3 ADD SWAP2 SWAP1 PUSH1 0x0 MSTORE PUSH1 0x20 PUSH1 0x0 KECCAK256 SWAP1 JUMPDEST DUP2 SLOAD DUP2 MSTORE SWAP1 PUSH1 0x1 ADD SWAP1 PUSH1 0x20 ADD DUP1 DUP4 GT PUSH2 0x1D4C JUMPI DUP3 SWAP1 SUB PUSH1 0x1F AND DUP3 ADD SWAP2 JUMPDEST POP POP POP POP POP DUP2 MSTORE PUSH1 0x20 ADD PUSH1 0x1 DUP3 ADD DUP1 SLOAD DUP1 PUSH1 0x20 MUL PUSH1 0x20 ADD PUSH1 0x40 MLOAD SWAP1 DUP2 ADD PUSH1 0x40 MSTORE DUP1 SWAP3 SWAP2 SWAP1 DUP2 DUP2 MSTORE PUSH1 0x20 ADD PUSH1 0x0 SWAP1 JUMPDEST DUP3 DUP3 LT ISZERO PUSH2 0x1E43 JUMPI DUP4 DUP3 SWAP1 PUSH1 0x0 MSTORE PUSH1 0x20 PUSH1 0x0 KECCAK256 ADD DUP1 SLOAD PUSH2 0x1DB6 SWAP1 PUSH2 0x3D09 JUMP JUMPDEST DUP1 PUSH1 0x1F ADD PUSH1 0x20 DUP1 SWAP2 DIV MUL PUSH1 0x20 ADD PUSH1 0x40 MLOAD SWAP1 DUP2 ADD PUSH1 0x40 MSTORE DUP1 SWAP3 SWAP2 SWAP1 DUP2 DUP2 MSTORE PUSH1 0x20 ADD DUP3 DUP1 SLOAD PUSH2 0x1DE2 SWAP1 PUSH2 0x3D09 JUMP JUMPDEST DUP1 ISZERO PUSH2 0x1E2F JUMPI DUP1 PUSH1 0x1F LT PUSH2 0x1E04 JUMPI PUSH2 0x100 DUP1 DUP4 SLOAD DIV MUL DUP4 MSTORE SWAP2 PUSH1 0x20 ADD SWAP2 PUSH2 0x1E2F JUMP JUMPDEST DUP3 ADD SWAP2 SWAP1 PUSH1 0x0 MSTORE PUSH1 0x20 PUSH1 0x0 KECCAK256 SWAP1 JUMPDEST DUP2 SLOAD DUP2 MSTORE SWAP1 PUSH1 0x1 ADD SWAP1 PUSH1 0x20 ADD DUP1 DUP4 GT PUSH2 0x1E12 JUMPI DUP3 SWAP1 SUB PUSH1 0x1F AND DUP3 ADD SWAP2 JUMPDEST POP POP POP POP POP DUP2 MSTORE PUSH1 0x20 ADD SWAP1 PUSH1 0x1 ADD SWAP1 PUSH2 0x1D97 JUMP JUMPDEST POP POP POP POP DUP2 MSTORE PUSH1 0x20 ADD PUSH1 0x2 DUP3 ADD SLOAD DUP2 MSTORE PUSH1 0x20 ADD PUSH1 0x3 DUP3 ADD DUP1 SLOAD PUSH2 0x1E65 SWAP1 PUSH2 0x3D09 JUMP JUMPDEST DUP1 PUSH1 0x1F ADD PUSH1 0x20 DUP1 SWAP2 DIV MUL PUSH1 0x20 ADD PUSH1 0x40 MLOAD SWAP1 DUP2 ADD PUSH1 0x40 MSTORE DUP1 SWAP3 SWAP2 SWAP1 DUP2 DUP2 MSTORE PUSH1 0x20 ADD DUP3 DUP1 SLOAD PUSH2 0x1E91 SWAP1 PUSH2 0x3D09 JUMP JUMPDEST DUP1 ISZERO PUSH2 0x1EDE JUMPI DUP1 PUSH1 0x1F LT PUSH2 0x1EB3 JUMPI PUSH2 0x100 DUP1 DUP4 SLOAD DIV MUL DUP4 MSTORE SWAP2 PUSH1 0x20 ADD SWAP2 PUSH2 0x1EDE JUMP JUMPDEST DUP3 ADD SWAP2 SWAP1 PUSH1 0x0 MSTORE PUSH1 0x20 PUSH1 0x0 KECCAK256 SWAP1 JUMPDEST DUP2 SLOAD DUP2 MSTORE SWAP1 PUSH1 0x1 ADD SWAP1 PUSH1 0x20 ADD DUP1 DUP4 GT PUSH2 0x1EC1 JUMPI DUP3 SWAP1 SUB PUSH1 0x1F AND DUP3 ADD SWAP2 JUMPDEST POP POP POP POP POP DUP2 MSTORE POP POP DUP2 MSTORE PUSH1 0x20 ADD SWAP1 PUSH1 0x1 ADD SWAP1 PUSH2 0x1CBD JUMP JUMPDEST POP POP POP POP SWAP1 POP PUSH1 0x0 JUMPDEST DUP3 PUSH1 0x20 ADD MLOAD MLOAD DUP2 PUSH1 0xFF AND LT ISZERO PUSH2 0x1FFF JUMPI PUSH1 0x0 DUP4 PUSH1 0x20 ADD MLOAD DUP3 PUSH1 0xFF AND DUP2 MLOAD DUP2 LT PUSH2 0x1F2A JUMPI PUSH2 0x1F2A PUSH2 0x3E02 JUMP JUMPDEST PUSH1 0x20 MUL PUSH1 0x20 ADD ADD MLOAD PUSH1 0xA0 ADD MLOAD SWAP1 POP PUSH1 0x0 DUP4 DUP4 PUSH1 0xFF AND DUP2 MLOAD DUP2 LT PUSH2 0x1F4F JUMPI PUSH2 0x1F4F PUSH2 0x3E02 JUMP JUMPDEST PUSH1 0x20 MUL PUSH1 0x20 ADD ADD MLOAD PUSH1 0x20 ADD MLOAD MLOAD GT ISZERO PUSH2 0x1FC5 JUMPI DUP3 DUP3 PUSH1 0xFF AND DUP2 MLOAD DUP2 LT PUSH2 0x1F77 JUMPI PUSH2 0x1F77 PUSH2 0x3E02 JUMP JUMPDEST PUSH1 0x20 MUL PUSH1 0x20 ADD ADD MLOAD PUSH1 0x20 ADD MLOAD DUP2 DUP2 MLOAD DUP2 LT PUSH2 0x1F94 JUMPI PUSH2 0x1F94 PUSH2 0x3E02 JUMP JUMPDEST PUSH1 0x20 MUL PUSH1 0x20 ADD ADD MLOAD DUP4 DUP4 PUSH1 0xFF AND DUP2 MLOAD DUP2 LT PUSH2 0x1FB1 JUMPI PUSH2 0x1FB1 PUSH2 0x3E02 JUMP JUMPDEST PUSH1 0x20 MUL PUSH1 0x20 ADD ADD MLOAD PUSH1 0x60 ADD DUP2 SWAP1 MSTORE POP PUSH2 0x1FEC JUMP JUMPDEST DUP1 DUP4 DUP4 PUSH1 0xFF AND DUP2 MLOAD DUP2 LT PUSH2 0x1FDB JUMPI PUSH2 0x1FDB PUSH2 0x3E02 JUMP JUMPDEST PUSH1 0x20 MUL PUSH1 0x20 ADD ADD MLOAD PUSH1 0x40 ADD DUP2 DUP2 MSTORE POP POP JUMPDEST POP DUP1 PUSH2 0x1FF7 DUP2 PUSH2 0x468E JUMP JUMPDEST SWAP2 POP POP PUSH2 0x1EFF JUMP JUMPDEST POP SWAP4 SWAP3 POP POP POP JUMP JUMPDEST PUSH2 0x200F PUSH2 0x2575 JUMP JUMPDEST PUSH1 0x1 PUSH1 0x1 PUSH1 0xA0 SHL SUB DUP2 AND PUSH2 0x2074 JUMPI PUSH1 0x40 MLOAD PUSH3 0x461BCD PUSH1 0xE5 SHL DUP2 MSTORE PUSH1 0x20 PUSH1 0x4 DUP3 ADD MSTORE PUSH1 0x26 PUSH1 0x24 DUP3 ADD MSTORE PUSH32 0x4F776E61626C653A206E6577206F776E657220697320746865207A65726F2061 PUSH1 0x44 DUP3 ADD MSTORE PUSH6 0x646472657373 PUSH1 0xD0 SHL PUSH1 0x64 DUP3 ADD MSTORE PUSH1 0x84 ADD PUSH2 0x8CE JUMP JUMPDEST PUSH2 0x4EF DUP2 PUSH2 0x25F3 JUMP JUMPDEST PUSH2 0x2087 DUP3 DUP3 PUSH2 0x147C JUMP JUMPDEST PUSH2 0xBB9 JUMPI PUSH1 0x0 DUP3 DUP2 MSTORE PUSH1 0x20 DUP2 DUP2 MSTORE PUSH1 0x40 DUP1 DUP4 KECCAK256 PUSH1 0x1 PUSH1 0x1 PUSH1 0xA0 SHL SUB DUP6 AND DUP5 MSTORE SWAP1 SWAP2 MSTORE SWAP1 KECCAK256 DUP1 SLOAD PUSH1 0xFF NOT AND PUSH1 0x1 OR SWAP1 SSTORE PUSH2 0x20BD CALLER SWAP1 JUMP JUMPDEST PUSH1 0x1 PUSH1 0x1 PUSH1 0xA0 SHL SUB AND DUP2 PUSH1 0x1 PUSH1 0x1 PUSH1 0xA0 SHL SUB AND DUP4 PUSH32 0x2F8788117E7EFF1D82E926EC794901D17C78024A50270940304540A733656F0D PUSH1 0x40 MLOAD PUSH1 0x40 MLOAD DUP1 SWAP2 SUB SWAP1 LOG4 POP POP JUMP JUMPDEST PUSH1 0x0 PUSH2 0x1475 DUP4 PUSH1 0x1 PUSH1 0x1 PUSH1 0xA0 SHL SUB DUP5 AND PUSH2 0x2A69 JUMP JUMPDEST PUSH1 0x0 PUSH1 0x1 PUSH1 0x1 PUSH1 0xE0 SHL SUB NOT DUP3 AND PUSH4 0x780E9D63 PUSH1 0xE0 SHL EQ DUP1 PUSH2 0x79A JUMPI POP PUSH2 0x79A DUP3 PUSH2 0x2AB8 JUMP JUMPDEST PUSH1 0x0 DUP2 DUP2 MSTORE PUSH1 0x4 PUSH1 0x20 MSTORE PUSH1 0x40 SWAP1 KECCAK256 SLOAD PUSH1 0x1 PUSH1 0x1 PUSH1 0xA0 SHL SUB AND PUSH2 0x4EF JUMPI PUSH1 0x40 MLOAD PUSH3 0x461BCD PUSH1 0xE5 SHL DUP2 MSTORE PUSH1 0x20 PUSH1 0x4 DUP3 ADD MSTORE PUSH1 0x18 PUSH1 0x24 DUP3 ADD MSTORE PUSH24 0x115490CDCC8C4E881A5B9D985B1A59081D1BDAD95B881251 PUSH1 0x42 SHL PUSH1 0x44 DUP3 ADD MSTORE PUSH1 0x64 ADD PUSH2 0x8CE JUMP JUMPDEST PUSH1 0x0 DUP2 DUP2 MSTORE PUSH1 0x6 PUSH1 0x20 MSTORE PUSH1 0x40 SWAP1 KECCAK256 DUP1 SLOAD PUSH1 0x1 PUSH1 0x1 PUSH1 0xA0 SHL SUB NOT AND PUSH1 0x1 PUSH1 0x1 PUSH1 0xA0 SHL SUB DUP5 AND SWAP1 DUP2 OR SWAP1 SWAP2 SSTORE DUP2 SWAP1 PUSH2 0x21CF DUP3 PUSH2 0xDAB JUMP JUMPDEST PUSH1 0x1 PUSH1 0x1 PUSH1 0xA0 SHL SUB AND PUSH32 0x8C5BE1E5EBEC7D5BD14F71427D1E84F3DD0314C0F7B2291E5B200AC8C7C3B925 PUSH1 0x40 MLOAD PUSH1 0x40 MLOAD DUP1 SWAP2 SUB SWAP1 LOG4 POP POP JUMP JUMPDEST PUSH1 0x0 DUP1 PUSH2 0x2214 DUP4 PUSH2 0xDAB JUMP JUMPDEST SWAP1 POP DUP1 PUSH1 0x1 PUSH1 0x1 PUSH1 0xA0 SHL SUB AND DUP5 PUSH1 0x1 PUSH1 0x1 PUSH1 0xA0 SHL SUB AND EQ DUP1 PUSH2 0x225B JUMPI POP PUSH1 0x1 PUSH1 0x1 PUSH1 0xA0 SHL SUB DUP1 DUP3 AND PUSH1 0x0 SWAP1 DUP2 MSTORE PUSH1 0x7 PUSH1 0x20 SWAP1 DUP2 MSTORE PUSH1 0x40 DUP1 DUP4 KECCAK256 SWAP4 DUP9 AND DUP4 MSTORE SWAP3 SWAP1 MSTORE KECCAK256 SLOAD PUSH1 0xFF AND JUMPDEST DUP1 PUSH2 0x227F JUMPI POP DUP4 PUSH1 0x1 PUSH1 0x1 PUSH1 0xA0 SHL SUB AND PUSH2 0x2274 DUP5 PUSH2 0x832 JUMP JUMPDEST PUSH1 0x1 PUSH1 0x1 PUSH1 0xA0 SHL SUB AND EQ JUMPDEST SWAP5 SWAP4 POP POP POP POP JUMP JUMPDEST DUP3 PUSH1 0x1 PUSH1 0x1 PUSH1 0xA0 SHL SUB AND PUSH2 0x229A DUP3 PUSH2 0xDAB JUMP JUMPDEST PUSH1 0x1 PUSH1 0x1 PUSH1 0xA0 SHL SUB AND EQ PUSH2 0x22FE JUMPI PUSH1 0x40 MLOAD PUSH3 0x461BCD PUSH1 0xE5 SHL DUP2 MSTORE PUSH1 0x20 PUSH1 0x4 DUP3 ADD MSTORE PUSH1 0x25 PUSH1 0x24 DUP3 ADD MSTORE PUSH32 0x4552433732313A207472616E736665722066726F6D20696E636F727265637420 PUSH1 0x44 DUP3 ADD MSTORE PUSH5 0x37BBB732B9 PUSH1 0xD9 SHL PUSH1 0x64 DUP3 ADD MSTORE PUSH1 0x84 ADD PUSH2 0x8CE JUMP JUMPDEST PUSH1 0x1 PUSH1 0x1 PUSH1 0xA0 SHL SUB DUP3 AND PUSH2 0x2360 JUMPI PUSH1 0x40 MLOAD PUSH3 0x461BCD PUSH1 0xE5 SHL DUP2 MSTORE PUSH1 0x20 PUSH1 0x4 DUP3 ADD MSTORE PUSH1 0x24 DUP1 DUP3 ADD MSTORE PUSH32 0x4552433732313A207472616E7366657220746F20746865207A65726F20616464 PUSH1 0x44 DUP3 ADD MSTORE PUSH4 0x72657373 PUSH1 0xE0 SHL PUSH1 0x64 DUP3 ADD MSTORE PUSH1 0x84 ADD PUSH2 0x8CE JUMP JUMPDEST PUSH2 0x236B DUP4 DUP4 DUP4 PUSH2 0x2AF8 JUMP JUMPDEST PUSH2 0x2376 PUSH1 0x0 DUP3 PUSH2 0x219A JUMP JUMPDEST PUSH1 0x1 PUSH1 0x1 PUSH1 0xA0 SHL SUB DUP4 AND PUSH1 0x0 SWAP1 DUP2 MSTORE PUSH1 0x5 PUSH1 0x20 MSTORE PUSH1 0x40 DUP2 KECCAK256 DUP1 SLOAD PUSH1 0x1 SWAP3 SWAP1 PUSH2 0x239F SWAP1 DUP5 SWAP1 PUSH2 0x3D54 JUMP JUMPDEST SWAP1 SWAP2 SSTORE POP POP PUSH1 0x1 PUSH1 0x1 PUSH1 0xA0 SHL SUB DUP3 AND PUSH1 0x0 SWAP1 DUP2 MSTORE PUSH1 0x5 PUSH1 0x20 MSTORE PUSH1 0x40 DUP2 KECCAK256 DUP1 SLOAD PUSH1 0x1 SWAP3 SWAP1 PUSH2 0x23CD SWAP1 DUP5 SWAP1 PUSH2 0x46AE JUMP JUMPDEST SWAP1 SWAP2 SSTORE POP POP PUSH1 0x0 DUP2 DUP2 MSTORE PUSH1 0x4 PUSH1 0x20 MSTORE PUSH1 0x40 DUP1 DUP3 KECCAK256 DUP1 SLOAD PUSH1 0x1 PUSH1 0x1 PUSH1 0xA0 SHL SUB NOT AND PUSH1 0x1 PUSH1 0x1 PUSH1 0xA0 SHL SUB DUP7 DUP2 AND SWAP2 DUP3 OR SWAP1 SWAP3 SSTORE SWAP2 MLOAD DUP5 SWAP4 SWAP2 DUP8 AND SWAP2 PUSH32 0xDDF252AD1BE2C89B69C2B068FC378DAA952BA7F163C4A11628F55A4DF523B3EF SWAP2 LOG4 POP POP POP JUMP JUMPDEST PUSH2 0x4EF DUP2 CALLER PUSH2 0x2B03 JUMP JUMPDEST PUSH2 0x2442 DUP3 DUP3 PUSH2 0x207D JUMP JUMPDEST PUSH1 0x0 DUP3 DUP2 MSTORE PUSH1 0x1 PUSH1 0x20 MSTORE PUSH1 0x40 SWAP1 KECCAK256 PUSH2 0x96F SWAP1 DUP3 PUSH2 0x2101 JUMP JUMPDEST PUSH2 0x2464 DUP3 DUP3 PUSH2 0x2B67 JUMP JUMPDEST PUSH1 0x0 DUP3 DUP2 MSTORE PUSH1 0x1 PUSH1 0x20 MSTORE PUSH1 0x40 SWAP1 KECCAK256 PUSH2 0x96F SWAP1 DUP3 PUSH2 0x2BCC JUMP JUMPDEST PUSH2 0x2484 PUSH2 0x2BE1 JUMP JUMPDEST PUSH1 0xC DUP1 SLOAD PUSH1 0xFF NOT AND SWAP1 SSTORE PUSH32 0x5DB9EE0A495BF2E6FF9C91A7834C1BA4FDD244A5E8AA4E537BD38AEAE4B073AA CALLER JUMPDEST PUSH1 0x40 MLOAD PUSH1 0x1 PUSH1 0x1 PUSH1 0xA0 SHL SUB SWAP1 SWAP2 AND DUP2 MSTORE PUSH1 0x20 ADD PUSH1 0x40 MLOAD DUP1 SWAP2 SUB SWAP1 LOG1 JUMP JUMPDEST PUSH1 0x0 PUSH2 0x24D9 DUP3 PUSH2 0xDAB JUMP JUMPDEST SWAP1 POP PUSH2 0x24E7 DUP2 PUSH1 0x0 DUP5 PUSH2 0x2AF8 JUMP JUMPDEST PUSH2 0x24F2 PUSH1 0x0 DUP4 PUSH2 0x219A JUMP JUMPDEST PUSH1 0x1 PUSH1 0x1 PUSH1 0xA0 SHL SUB DUP2 AND PUSH1 0x0 SWAP1 DUP2 MSTORE PUSH1 0x5 PUSH1 0x20 MSTORE PUSH1 0x40 DUP2 KECCAK256 DUP1 SLOAD PUSH1 0x1 SWAP3 SWAP1 PUSH2 0x251B SWAP1 DUP5 SWAP1 PUSH2 0x3D54 JUMP JUMPDEST SWAP1 SWAP2 SSTORE POP POP PUSH1 0x0 DUP3 DUP2 MSTORE PUSH1 0x4 PUSH1 0x20 MSTORE PUSH1 0x40 DUP1 DUP3 KECCAK256 DUP1 SLOAD PUSH1 0x1 PUSH1 0x1 PUSH1 0xA0 SHL SUB NOT AND SWAP1 SSTORE MLOAD DUP4 SWAP2 SWAP1 PUSH1 0x1 PUSH1 0x1 PUSH1 0xA0 SHL SUB DUP5 AND SWAP1 PUSH32 0xDDF252AD1BE2C89B69C2B068FC378DAA952BA7F163C4A11628F55A4DF523B3EF SWAP1 DUP4 SWAP1 LOG4 POP POP JUMP JUMPDEST CALLER PUSH2 0x2588 PUSH1 0x12 SLOAD PUSH1 0x1 PUSH1 0x1 PUSH1 0xA0 SHL SUB AND SWAP1 JUMP JUMPDEST PUSH1 0x1 PUSH1 0x1 PUSH1 0xA0 SHL SUB AND EQ DUP1 PUSH2 0x25A7 JUMPI POP PUSH1 0x13 SLOAD PUSH1 0x1 PUSH1 0x1 PUSH1 0xA0 SHL SUB AND CALLER EQ JUMPDEST PUSH2 0xCCD JUMPI PUSH1 0x40 MLOAD PUSH3 0x461BCD PUSH1 0xE5 SHL DUP2 MSTORE PUSH1 0x20 PUSH1 0x4 DUP3 ADD DUP2 SWAP1 MSTORE PUSH1 0x24 DUP3 ADD MSTORE PUSH32 0x4F776E61626C653A2063616C6C6572206973206E6F7420746865206F776E6572 PUSH1 0x44 DUP3 ADD MSTORE PUSH1 0x64 ADD PUSH2 0x8CE JUMP JUMPDEST PUSH1 0x10 DUP1 SLOAD PUSH1 0x1 PUSH1 0x1 PUSH1 0xA0 SHL SUB DUP4 DUP2 AND PUSH1 0x1 PUSH1 0x1 PUSH1 0xA0 SHL SUB NOT DUP4 AND DUP2 OR SWAP1 SWAP4 SSTORE PUSH1 0x40 MLOAD SWAP2 AND SWAP2 SWAP1 DUP3 SWAP1 PUSH32 0x8BE0079C531659141344CD1FD0A4F28419497F9722A3DAAFE3B4186F6B6457E0 SWAP1 PUSH1 0x0 SWAP1 LOG3 POP POP JUMP JUMPDEST PUSH1 0x0 PUSH2 0x2651 DUP4 DUP4 PUSH2 0x3D54 JUMP JUMPDEST PUSH2 0x265C SWAP1 PUSH1 0x1 PUSH2 0x46AE JUMP JUMPDEST PUSH2 0x2666 SWAP1 DUP6 PUSH2 0x46C6 JUMP JUMPDEST PUSH2 0x227F SWAP1 DUP5 PUSH2 0x46AE JUMP JUMPDEST PUSH1 0x0 PUSH2 0x1475 DUP3 DUP5 PUSH2 0x46C6 JUMP JUMPDEST PUSH2 0xBB9 DUP3 DUP3 PUSH1 0x40 MLOAD DUP1 PUSH1 0x20 ADD PUSH1 0x40 MSTORE DUP1 PUSH1 0x0 DUP2 MSTORE POP PUSH2 0x2C2A JUMP JUMPDEST PUSH2 0x269E PUSH2 0x2C5D JUMP JUMPDEST PUSH1 0xC DUP1 SLOAD PUSH1 0xFF NOT AND PUSH1 0x1 OR SWAP1 SSTORE PUSH32 0x62E78CEA01BEE320CD4E420270B5EA74000D11B0C9F74754EBDBFC544B05A258 PUSH2 0x24B1 CALLER SWAP1 JUMP JUMPDEST PUSH1 0x0 PUSH2 0x1475 DUP4 DUP4 PUSH2 0x2CA3 JUMP JUMPDEST DUP2 PUSH1 0x1 PUSH1 0x1 PUSH1 0xA0 SHL SUB AND DUP4 PUSH1 0x1 PUSH1 0x1 PUSH1 0xA0 SHL SUB AND EQ ISZERO PUSH2 0x2741 JUMPI PUSH1 0x40 MLOAD PUSH3 0x461BCD PUSH1 0xE5 SHL DUP2 MSTORE PUSH1 0x20 PUSH1 0x4 DUP3 ADD MSTORE PUSH1 0x19 PUSH1 0x24 DUP3 ADD MSTORE PUSH32 0x4552433732313A20617070726F766520746F2063616C6C657200000000000000 PUSH1 0x44 DUP3 ADD MSTORE PUSH1 0x64 ADD PUSH2 0x8CE JUMP JUMPDEST PUSH1 0x1 PUSH1 0x1 PUSH1 0xA0 SHL SUB DUP4 DUP2 AND PUSH1 0x0 DUP2 DUP2 MSTORE PUSH1 0x7 PUSH1 0x20 SWAP1 DUP2 MSTORE PUSH1 0x40 DUP1 DUP4 KECCAK256 SWAP5 DUP8 AND DUP1 DUP5 MSTORE SWAP5 DUP3 MSTORE SWAP2 DUP3 SWAP1 KECCAK256 DUP1 SLOAD PUSH1 0xFF NOT AND DUP7 ISZERO ISZERO SWAP1 DUP2 OR SWAP1 SWAP2 SSTORE SWAP2 MLOAD SWAP2 DUP3 MSTORE PUSH32 0x17307EAB39AB6107E8899845AD3D59BD9653F200F220920489CA2B5937696C31 SWAP2 ADD PUSH1 0x40 MLOAD DUP1 SWAP2 SUB SWAP1 LOG3 POP POP POP JUMP JUMPDEST PUSH1 0x13 SLOAD PUSH1 0x1 PUSH1 0x1 PUSH1 0xA0 SHL SUB AND CALLER EQ PUSH2 0x2800 JUMPI PUSH1 0x40 MLOAD PUSH3 0x461BCD PUSH1 0xE5 SHL DUP2 MSTORE PUSH1 0x20 PUSH1 0x4 DUP3 ADD MSTORE PUSH1 0x15 PUSH1 0x24 DUP3 ADD MSTORE PUSH21 0x24A72B2FA9A2A72222A92FA4A724AA2FA0A226A4A7 PUSH1 0x59 SHL PUSH1 0x44 DUP3 ADD MSTORE PUSH1 0x64 ADD PUSH2 0x8CE JUMP JUMPDEST PUSH1 0x1 PUSH1 0x1 PUSH1 0xA0 SHL SUB DUP2 AND PUSH2 0x2826 JUMPI PUSH1 0x40 MLOAD PUSH3 0x461BCD PUSH1 0xE5 SHL DUP2 MSTORE PUSH1 0x4 ADD PUSH2 0x8CE SWAP1 PUSH2 0x463E JUMP JUMPDEST PUSH1 0x12 DUP1 SLOAD PUSH1 0x1 PUSH1 0x1 PUSH1 0xA0 SHL SUB NOT AND PUSH1 0x1 PUSH1 0x1 PUSH1 0xA0 SHL SUB DUP4 AND SWAP1 DUP2 OR SWAP1 SWAP2 SSTORE PUSH2 0x2850 SWAP1 PUSH1 0x0 SWAP1 PUSH2 0x2438 JUMP JUMPDEST PUSH1 0x12 SLOAD PUSH2 0x2875 SWAP1 PUSH1 0x0 DUP1 MLOAD PUSH1 0x20 PUSH2 0x4849 DUP4 CODECOPY DUP2 MLOAD SWAP2 MSTORE SWAP1 PUSH1 0x1 PUSH1 0x1 PUSH1 0xA0 SHL SUB AND PUSH2 0x2438 JUMP JUMPDEST PUSH1 0x12 SLOAD PUSH2 0x4EF SWAP1 PUSH1 0x0 DUP1 MLOAD PUSH1 0x20 PUSH2 0x4829 DUP4 CODECOPY DUP2 MLOAD SWAP2 MSTORE SWAP1 PUSH1 0x1 PUSH1 0x1 PUSH1 0xA0 SHL SUB AND PUSH2 0x2438 JUMP JUMPDEST PUSH2 0x28A5 DUP5 DUP5 DUP5 PUSH2 0x2287 JUMP JUMPDEST PUSH2 0x28B1 DUP5 DUP5 DUP5 DUP5 PUSH2 0x2CCD JUMP JUMPDEST PUSH2 0xC33 JUMPI PUSH1 0x40 MLOAD PUSH3 0x461BCD PUSH1 0xE5 SHL DUP2 MSTORE PUSH1 0x4 ADD PUSH2 0x8CE SWAP1 PUSH2 0x46DA JUMP JUMPDEST PUSH1 0x60 DUP2 PUSH2 0x28F1 JUMPI POP POP PUSH1 0x40 DUP1 MLOAD DUP1 DUP3 ADD SWAP1 SWAP2 MSTORE PUSH1 0x1 DUP2 MSTORE PUSH1 0x3 PUSH1 0xFC SHL PUSH1 0x20 DUP3 ADD MSTORE SWAP1 JUMP JUMPDEST DUP2 PUSH1 0x0 JUMPDEST DUP2 ISZERO PUSH2 0x291B JUMPI DUP1 PUSH2 0x2905 DUP2 PUSH2 0x3FC2 JUMP JUMPDEST SWAP2 POP PUSH2 0x2914 SWAP1 POP PUSH1 0xA DUP4 PUSH2 0x3DEE JUMP JUMPDEST SWAP2 POP PUSH2 0x28F5 JUMP JUMPDEST PUSH1 0x0 DUP2 PUSH1 0x1 PUSH1 0x1 PUSH1 0x40 SHL SUB DUP2 GT ISZERO PUSH2 0x2935 JUMPI PUSH2 0x2935 PUSH2 0x36DB JUMP JUMPDEST PUSH1 0x40 MLOAD SWAP1 DUP1 DUP3 MSTORE DUP1 PUSH1 0x1F ADD PUSH1 0x1F NOT AND PUSH1 0x20 ADD DUP3 ADD PUSH1 0x40 MSTORE DUP1 ISZERO PUSH2 0x295F JUMPI PUSH1 0x20 DUP3 ADD DUP2 DUP1 CALLDATASIZE DUP4 CALLDATACOPY ADD SWAP1 POP JUMPDEST POP SWAP1 POP JUMPDEST DUP5 ISZERO PUSH2 0x227F JUMPI PUSH2 0x2974 PUSH1 0x1 DUP4 PUSH2 0x3D54 JUMP JUMPDEST SWAP2 POP PUSH2 0x2981 PUSH1 0xA DUP7 PUSH2 0x46C6 JUMP JUMPDEST PUSH2 0x298C SWAP1 PUSH1 0x30 PUSH2 0x46AE JUMP JUMPDEST PUSH1 0xF8 SHL DUP2 DUP4 DUP2 MLOAD DUP2 LT PUSH2 0x29A1 JUMPI PUSH2 0x29A1 PUSH2 0x3E02 JUMP JUMPDEST PUSH1 0x20 ADD ADD SWAP1 PUSH1 0x1 PUSH1 0x1 PUSH1 0xF8 SHL SUB NOT AND SWAP1 DUP2 PUSH1 0x0 BYTE SWAP1 MSTORE8 POP PUSH2 0x29C3 PUSH1 0xA DUP7 PUSH2 0x3DEE JUMP JUMPDEST SWAP5 POP PUSH2 0x2963 JUMP JUMPDEST PUSH1 0x0 PUSH2 0x79A DUP3 SLOAD SWAP1 JUMP JUMPDEST PUSH1 0x0 DUP2 DUP2 MSTORE PUSH1 0x18 PUSH1 0x20 MSTORE PUSH1 0x40 SWAP1 KECCAK256 SLOAD DUP2 SWAP1 PUSH1 0x1 PUSH1 0x1 PUSH1 0xA0 SHL SUB AND CALLER EQ PUSH2 0x2A2B JUMPI PUSH1 0x40 MLOAD PUSH3 0x461BCD PUSH1 0xE5 SHL DUP2 MSTORE PUSH1 0x20 PUSH1 0x4 DUP3 ADD MSTORE PUSH1 0xC PUSH1 0x24 DUP3 ADD MSTORE PUSH12 0x27A7262CAFA1A922A0AA27A9 PUSH1 0xA1 SHL PUSH1 0x44 DUP3 ADD MSTORE PUSH1 0x64 ADD PUSH2 0x8CE JUMP JUMPDEST POP PUSH1 0x0 SWAP1 DUP2 MSTORE PUSH1 0x18 PUSH1 0x20 MSTORE PUSH1 0x40 SWAP1 KECCAK256 DUP1 SLOAD PUSH1 0x1 PUSH1 0x1 PUSH1 0xA0 SHL SUB NOT AND PUSH1 0x1 PUSH1 0x1 PUSH1 0xA0 SHL SUB SWAP3 SWAP1 SWAP3 AND SWAP2 SWAP1 SWAP2 OR SWAP1 SSTORE JUMP JUMPDEST PUSH1 0x60 PUSH1 0xE DUP1 SLOAD PUSH2 0x7AF SWAP1 PUSH2 0x3D09 JUMP JUMPDEST PUSH1 0x0 DUP2 DUP2 MSTORE PUSH1 0x1 DUP4 ADD PUSH1 0x20 MSTORE PUSH1 0x40 DUP2 KECCAK256 SLOAD PUSH2 0x2AB0 JUMPI POP DUP2 SLOAD PUSH1 0x1 DUP2 DUP2 ADD DUP5 SSTORE PUSH1 0x0 DUP5 DUP2 MSTORE PUSH1 0x20 DUP1 DUP3 KECCAK256 SWAP1 SWAP4 ADD DUP5 SWAP1 SSTORE DUP5 SLOAD DUP5 DUP3 MSTORE DUP3 DUP7 ADD SWAP1 SWAP4 MSTORE PUSH1 0x40 SWAP1 KECCAK256 SWAP2 SWAP1 SWAP2 SSTORE PUSH2 0x79A JUMP JUMPDEST POP PUSH1 0x0 PUSH2 0x79A JUMP JUMPDEST PUSH1 0x0 PUSH1 0x1 PUSH1 0x1 PUSH1 0xE0 SHL SUB NOT DUP3 AND PUSH4 0x80AC58CD PUSH1 0xE0 SHL EQ DUP1 PUSH2 0x2AE9 JUMPI POP PUSH1 0x1 PUSH1 0x1 PUSH1 0xE0 SHL SUB NOT DUP3 AND PUSH4 0x5B5E139F PUSH1 0xE0 SHL EQ JUMPDEST DUP1 PUSH2 0x79A JUMPI POP PUSH2 0x79A DUP3 PUSH2 0x2DCB JUMP JUMPDEST PUSH2 0x96F DUP4 DUP4 DUP4 PUSH2 0x2DF0 JUMP JUMPDEST PUSH2 0x2B0D DUP3 DUP3 PUSH2 0x147C JUMP JUMPDEST PUSH2 0xBB9 JUMPI PUSH2 0x2B25 DUP2 PUSH1 0x1 PUSH1 0x1 PUSH1 0xA0 SHL SUB AND PUSH1 0x14 PUSH2 0x2E62 JUMP JUMPDEST PUSH2 0x2B30 DUP4 PUSH1 0x20 PUSH2 0x2E62 JUMP JUMPDEST PUSH1 0x40 MLOAD PUSH1 0x20 ADD PUSH2 0x2B41 SWAP3 SWAP2 SWAP1 PUSH2 0x472C JUMP JUMPDEST PUSH1 0x40 DUP1 MLOAD PUSH1 0x1F NOT DUP2 DUP5 SUB ADD DUP2 MSTORE SWAP1 DUP3 SWAP1 MSTORE PUSH3 0x461BCD PUSH1 0xE5 SHL DUP3 MSTORE PUSH2 0x8CE SWAP2 PUSH1 0x4 ADD PUSH2 0x35DF JUMP JUMPDEST PUSH2 0x2B71 DUP3 DUP3 PUSH2 0x147C JUMP JUMPDEST ISZERO PUSH2 0xBB9 JUMPI PUSH1 0x0 DUP3 DUP2 MSTORE PUSH1 0x20 DUP2 DUP2 MSTORE PUSH1 0x40 DUP1 DUP4 KECCAK256 PUSH1 0x1 PUSH1 0x1 PUSH1 0xA0 SHL SUB DUP6 AND DUP1 DUP6 MSTORE SWAP3 MSTORE DUP1 DUP4 KECCAK256 DUP1 SLOAD PUSH1 0xFF NOT AND SWAP1 SSTORE MLOAD CALLER SWAP3 DUP6 SWAP2 PUSH32 0xF6391F5C32D9C69D2A47EA670B442974B53935D1EDC7FD64EB21E047A839171B SWAP2 SWAP1 LOG4 POP POP JUMP JUMPDEST PUSH1 0x0 PUSH2 0x1475 DUP4 PUSH1 0x1 PUSH1 0x1 PUSH1 0xA0 SHL SUB DUP5 AND PUSH2 0x2FFD JUMP JUMPDEST PUSH1 0xC SLOAD PUSH1 0xFF AND PUSH2 0xCCD JUMPI PUSH1 0x40 MLOAD PUSH3 0x461BCD PUSH1 0xE5 SHL DUP2 MSTORE PUSH1 0x20 PUSH1 0x4 DUP3 ADD MSTORE PUSH1 0x14 PUSH1 0x24 DUP3 ADD MSTORE PUSH20 0x14185D5CD8589B194E881B9BDD081C185D5CD959 PUSH1 0x62 SHL PUSH1 0x44 DUP3 ADD MSTORE PUSH1 0x64 ADD PUSH2 0x8CE JUMP JUMPDEST PUSH2 0x2C34 DUP4 DUP4 PUSH2 0x30F0 JUMP JUMPDEST PUSH2 0x2C41 PUSH1 0x0 DUP5 DUP5 DUP5 PUSH2 0x2CCD JUMP JUMPDEST PUSH2 0x96F JUMPI PUSH1 0x40 MLOAD PUSH3 0x461BCD PUSH1 0xE5 SHL DUP2 MSTORE PUSH1 0x4 ADD PUSH2 0x8CE SWAP1 PUSH2 0x46DA JUMP JUMPDEST PUSH1 0xC SLOAD PUSH1 0xFF AND ISZERO PUSH2 0xCCD JUMPI PUSH1 0x40 MLOAD PUSH3 0x461BCD PUSH1 0xE5 SHL DUP2 MSTORE PUSH1 0x20 PUSH1 0x4 DUP3 ADD MSTORE PUSH1 0x10 PUSH1 0x24 DUP3 ADD MSTORE PUSH16 0x14185D5CD8589B194E881C185D5CD959 PUSH1 0x82 SHL PUSH1 0x44 DUP3 ADD MSTORE PUSH1 0x64 ADD PUSH2 0x8CE JUMP JUMPDEST PUSH1 0x0 DUP3 PUSH1 0x0 ADD DUP3 DUP2 SLOAD DUP2 LT PUSH2 0x2CBA JUMPI PUSH2 0x2CBA PUSH2 0x3E02 JUMP JUMPDEST SWAP1 PUSH1 0x0 MSTORE PUSH1 0x20 PUSH1 0x0 KECCAK256 ADD SLOAD SWAP1 POP SWAP3 SWAP2 POP POP JUMP JUMPDEST PUSH1 0x0 PUSH1 0x1 PUSH1 0x1 PUSH1 0xA0 SHL SUB DUP5 AND EXTCODESIZE ISZERO PUSH2 0x2DC0 JUMPI PUSH1 0x40 MLOAD PUSH4 0xA85BD01 PUSH1 0xE1 SHL DUP2 MSTORE PUSH1 0x1 PUSH1 0x1 PUSH1 0xA0 SHL SUB DUP6 AND SWAP1 PUSH4 0x150B7A02 SWAP1 PUSH2 0x2D11 SWAP1 CALLER SWAP1 DUP10 SWAP1 DUP9 SWAP1 DUP9 SWAP1 PUSH1 0x4 ADD PUSH2 0x47A1 JUMP JUMPDEST PUSH1 0x20 PUSH1 0x40 MLOAD DUP1 DUP4 SUB DUP2 PUSH1 0x0 DUP8 GAS CALL SWAP3 POP POP POP DUP1 ISZERO PUSH2 0x2D4C JUMPI POP PUSH1 0x40 DUP1 MLOAD PUSH1 0x1F RETURNDATASIZE SWAP1 DUP2 ADD PUSH1 0x1F NOT AND DUP3 ADD SWAP1 SWAP3 MSTORE PUSH2 0x2D49 SWAP2 DUP2 ADD SWAP1 PUSH2 0x47DE JUMP JUMPDEST PUSH1 0x1 JUMPDEST PUSH2 0x2DA6 JUMPI RETURNDATASIZE DUP1 DUP1 ISZERO PUSH2 0x2D7A JUMPI PUSH1 0x40 MLOAD SWAP2 POP PUSH1 0x1F NOT PUSH1 0x3F RETURNDATASIZE ADD AND DUP3 ADD PUSH1 0x40 MSTORE RETURNDATASIZE DUP3 MSTORE RETURNDATASIZE PUSH1 0x0 PUSH1 0x20 DUP5 ADD RETURNDATACOPY PUSH2 0x2D7F JUMP JUMPDEST PUSH1 0x60 SWAP2 POP JUMPDEST POP DUP1 MLOAD PUSH2 0x2D9E JUMPI PUSH1 0x40 MLOAD PUSH3 0x461BCD PUSH1 0xE5 SHL DUP2 MSTORE PUSH1 0x4 ADD PUSH2 0x8CE SWAP1 PUSH2 0x46DA JUMP JUMPDEST DUP1 MLOAD DUP2 PUSH1 0x20 ADD REVERT JUMPDEST PUSH1 0x1 PUSH1 0x1 PUSH1 0xE0 SHL SUB NOT AND PUSH4 0xA85BD01 PUSH1 0xE1 SHL EQ SWAP1 POP PUSH2 0x227F JUMP JUMPDEST POP PUSH1 0x1 SWAP5 SWAP4 POP POP POP POP JUMP JUMPDEST PUSH1 0x0 PUSH1 0x1 PUSH1 0x1 PUSH1 0xE0 SHL SUB NOT DUP3 AND PUSH4 0x5A05180F PUSH1 0xE0 SHL EQ DUP1 PUSH2 0x79A JUMPI POP PUSH2 0x79A DUP3 PUSH2 0x323E JUMP JUMPDEST PUSH2 0x2DFB DUP4 DUP4 DUP4 PUSH2 0x3273 JUMP JUMPDEST PUSH1 0xC SLOAD PUSH1 0xFF AND ISZERO PUSH2 0x96F JUMPI PUSH1 0x40 MLOAD PUSH3 0x461BCD PUSH1 0xE5 SHL DUP2 MSTORE PUSH1 0x20 PUSH1 0x4 DUP3 ADD MSTORE PUSH1 0x2B PUSH1 0x24 DUP3 ADD MSTORE PUSH32 0x4552433732315061757361626C653A20746F6B656E207472616E736665722077 PUSH1 0x44 DUP3 ADD MSTORE PUSH11 0x1A1A5B19481C185D5CD959 PUSH1 0xAA SHL PUSH1 0x64 DUP3 ADD MSTORE PUSH1 0x84 ADD PUSH2 0x8CE JUMP JUMPDEST PUSH1 0x60 PUSH1 0x0 PUSH2 0x2E71 DUP4 PUSH1 0x2 PUSH2 0x3DB9 JUMP JUMPDEST PUSH2 0x2E7C SWAP1 PUSH1 0x2 PUSH2 0x46AE JUMP JUMPDEST PUSH1 0x1 PUSH1 0x1 PUSH1 0x40 SHL SUB DUP2 GT ISZERO PUSH2 0x2E93 JUMPI PUSH2 0x2E93 PUSH2 0x36DB JUMP JUMPDEST PUSH1 0x40 MLOAD SWAP1 DUP1 DUP3 MSTORE DUP1 PUSH1 0x1F ADD PUSH1 0x1F NOT AND PUSH1 0x20 ADD DUP3 ADD PUSH1 0x40 MSTORE DUP1 ISZERO PUSH2 0x2EBD JUMPI PUSH1 0x20 DUP3 ADD DUP2 DUP1 CALLDATASIZE DUP4 CALLDATACOPY ADD SWAP1 POP JUMPDEST POP SWAP1 POP PUSH1 0x3 PUSH1 0xFC SHL DUP2 PUSH1 0x0 DUP2 MLOAD DUP2 LT PUSH2 0x2ED8 JUMPI PUSH2 0x2ED8 PUSH2 0x3E02 JUMP JUMPDEST PUSH1 0x20 ADD ADD SWAP1 PUSH1 0x1 PUSH1 0x1 PUSH1 0xF8 SHL SUB NOT AND SWAP1 DUP2 PUSH1 0x0 BYTE SWAP1 MSTORE8 POP PUSH1 0xF PUSH1 0xFB SHL DUP2 PUSH1 0x1 DUP2 MLOAD DUP2 LT PUSH2 0x2F07 JUMPI PUSH2 0x2F07 PUSH2 0x3E02 JUMP JUMPDEST PUSH1 0x20 ADD ADD SWAP1 PUSH1 0x1 PUSH1 0x1 PUSH1 0xF8 SHL SUB NOT AND SWAP1 DUP2 PUSH1 0x0 BYTE SWAP1 MSTORE8 POP PUSH1 0x0 PUSH2 0x2F2B DUP5 PUSH1 0x2 PUSH2 0x3DB9 JUMP JUMPDEST PUSH2 0x2F36 SWAP1 PUSH1 0x1 PUSH2 0x46AE JUMP JUMPDEST SWAP1 POP JUMPDEST PUSH1 0x1 DUP2 GT ISZERO PUSH2 0x2FAE JUMPI PUSH16 0x181899199A1A9B1B9C1CB0B131B232B3 PUSH1 0x81 SHL DUP6 PUSH1 0xF AND PUSH1 0x10 DUP2 LT PUSH2 0x2F6A JUMPI PUSH2 0x2F6A PUSH2 0x3E02 JUMP JUMPDEST BYTE PUSH1 0xF8 SHL DUP3 DUP3 DUP2 MLOAD DUP2 LT PUSH2 0x2F80 JUMPI PUSH2 0x2F80 PUSH2 0x3E02 JUMP JUMPDEST PUSH1 0x20 ADD ADD SWAP1 PUSH1 0x1 PUSH1 0x1 PUSH1 0xF8 SHL SUB NOT AND SWAP1 DUP2 PUSH1 0x0 BYTE SWAP1 MSTORE8 POP PUSH1 0x4 SWAP5 SWAP1 SWAP5 SHR SWAP4 PUSH2 0x2FA7 DUP2 PUSH2 0x47FB JUMP JUMPDEST SWAP1 POP PUSH2 0x2F39 JUMP JUMPDEST POP DUP4 ISZERO PUSH2 0x1475 JUMPI PUSH1 0x40 MLOAD PUSH3 0x461BCD PUSH1 0xE5 SHL DUP2 MSTORE PUSH1 0x20 PUSH1 0x4 DUP3 ADD DUP2 SWAP1 MSTORE PUSH1 0x24 DUP3 ADD MSTORE PUSH32 0x537472696E67733A20686578206C656E67746820696E73756666696369656E74 PUSH1 0x44 DUP3 ADD MSTORE PUSH1 0x64 ADD PUSH2 0x8CE JUMP JUMPDEST PUSH1 0x0 DUP2 DUP2 MSTORE PUSH1 0x1 DUP4 ADD PUSH1 0x20 MSTORE PUSH1 0x40 DUP2 KECCAK256 SLOAD DUP1 ISZERO PUSH2 0x30E6 JUMPI PUSH1 0x0 PUSH2 0x3021 PUSH1 0x1 DUP4 PUSH2 0x3D54 JUMP JUMPDEST DUP6 SLOAD SWAP1 SWAP2 POP PUSH1 0x0 SWAP1 PUSH2 0x3035 SWAP1 PUSH1 0x1 SWAP1 PUSH2 0x3D54 JUMP JUMPDEST SWAP1 POP DUP2 DUP2 EQ PUSH2 0x309A JUMPI PUSH1 0x0 DUP7 PUSH1 0x0 ADD DUP3 DUP2 SLOAD DUP2 LT PUSH2 0x3055 JUMPI PUSH2 0x3055 PUSH2 0x3E02 JUMP JUMPDEST SWAP1 PUSH1 0x0 MSTORE PUSH1 0x20 PUSH1 0x0 KECCAK256 ADD SLOAD SWAP1 POP DUP1 DUP8 PUSH1 0x0 ADD DUP5 DUP2 SLOAD DUP2 LT PUSH2 0x3078 JUMPI PUSH2 0x3078 PUSH2 0x3E02 JUMP JUMPDEST PUSH1 0x0 SWAP2 DUP3 MSTORE PUSH1 0x20 DUP1 DUP4 KECCAK256 SWAP1 SWAP2 ADD SWAP3 SWAP1 SWAP3 SSTORE SWAP2 DUP3 MSTORE PUSH1 0x1 DUP9 ADD SWAP1 MSTORE PUSH1 0x40 SWAP1 KECCAK256 DUP4 SWAP1 SSTORE JUMPDEST DUP6 SLOAD DUP7 SWAP1 DUP1 PUSH2 0x30AB JUMPI PUSH2 0x30AB PUSH2 0x4812 JUMP JUMPDEST PUSH1 0x1 SWAP1 SUB DUP2 DUP2 SWAP1 PUSH1 0x0 MSTORE PUSH1 0x20 PUSH1 0x0 KECCAK256 ADD PUSH1 0x0 SWAP1 SSTORE SWAP1 SSTORE DUP6 PUSH1 0x1 ADD PUSH1 0x0 DUP7 DUP2 MSTORE PUSH1 0x20 ADD SWAP1 DUP2 MSTORE PUSH1 0x20 ADD PUSH1 0x0 KECCAK256 PUSH1 0x0 SWAP1 SSTORE PUSH1 0x1 SWAP4 POP POP POP POP PUSH2 0x79A JUMP JUMPDEST PUSH1 0x0 SWAP2 POP POP PUSH2 0x79A JUMP JUMPDEST PUSH1 0x1 PUSH1 0x1 PUSH1 0xA0 SHL SUB DUP3 AND PUSH2 0x3146 JUMPI PUSH1 0x40 MLOAD PUSH3 0x461BCD PUSH1 0xE5 SHL DUP2 MSTORE PUSH1 0x20 PUSH1 0x4 DUP3 ADD DUP2 SWAP1 MSTORE PUSH1 0x24 DUP3 ADD MSTORE PUSH32 0x4552433732313A206D696E7420746F20746865207A65726F2061646472657373 PUSH1 0x44 DUP3 ADD MSTORE PUSH1 0x64 ADD PUSH2 0x8CE JUMP JUMPDEST PUSH1 0x0 DUP2 DUP2 MSTORE PUSH1 0x4 PUSH1 0x20 MSTORE PUSH1 0x40 SWAP1 KECCAK256 SLOAD PUSH1 0x1 PUSH1 0x1 PUSH1 0xA0 SHL SUB AND ISZERO PUSH2 0x31AB JUMPI PUSH1 0x40 MLOAD PUSH3 0x461BCD PUSH1 0xE5 SHL DUP2 MSTORE PUSH1 0x20 PUSH1 0x4 DUP3 ADD MSTORE PUSH1 0x1C PUSH1 0x24 DUP3 ADD MSTORE PUSH32 0x4552433732313A20746F6B656E20616C7265616479206D696E74656400000000 PUSH1 0x44 DUP3 ADD MSTORE PUSH1 0x64 ADD PUSH2 0x8CE JUMP JUMPDEST PUSH2 0x31B7 PUSH1 0x0 DUP4 DUP4 PUSH2 0x2AF8 JUMP JUMPDEST PUSH1 0x1 PUSH1 0x1 PUSH1 0xA0 SHL SUB DUP3 AND PUSH1 0x0 SWAP1 DUP2 MSTORE PUSH1 0x5 PUSH1 0x20 MSTORE PUSH1 0x40 DUP2 KECCAK256 DUP1 SLOAD PUSH1 0x1 SWAP3 SWAP1 PUSH2 0x31E0 SWAP1 DUP5 SWAP1 PUSH2 0x46AE JUMP JUMPDEST SWAP1 SWAP2 SSTORE POP POP PUSH1 0x0 DUP2 DUP2 MSTORE PUSH1 0x4 PUSH1 0x20 MSTORE PUSH1 0x40 DUP1 DUP3 KECCAK256 DUP1 SLOAD PUSH1 0x1 PUSH1 0x1 PUSH1 0xA0 SHL SUB NOT AND PUSH1 0x1 PUSH1 0x1 PUSH1 0xA0 SHL SUB DUP7 AND SWAP1 DUP2 OR SWAP1 SWAP2 SSTORE SWAP1 MLOAD DUP4 SWAP3 SWAP1 PUSH32 0xDDF252AD1BE2C89B69C2B068FC378DAA952BA7F163C4A11628F55A4DF523B3EF SWAP1 DUP3 SWAP1 LOG4 POP POP JUMP JUMPDEST PUSH1 0x0 PUSH1 0x1 PUSH1 0x1 PUSH1 0xE0 SHL SUB NOT DUP3 AND PUSH4 0x7965DB0B PUSH1 0xE0 SHL EQ DUP1 PUSH2 0x79A JUMPI POP PUSH4 0x1FFC9A7 PUSH1 0xE0 SHL PUSH1 0x1 PUSH1 0x1 PUSH1 0xE0 SHL SUB NOT DUP4 AND EQ PUSH2 0x79A JUMP JUMPDEST PUSH1 0x1 PUSH1 0x1 PUSH1 0xA0 SHL SUB DUP4 AND PUSH2 0x32CE JUMPI PUSH2 0x32C9 DUP2 PUSH1 0xA DUP1 SLOAD PUSH1 0x0 DUP4 DUP2 MSTORE PUSH1 0xB PUSH1 0x20 MSTORE PUSH1 0x40 DUP2 KECCAK256 DUP3 SWAP1 SSTORE PUSH1 0x1 DUP3 ADD DUP4 SSTORE SWAP2 SWAP1 SWAP2 MSTORE PUSH32 0xC65A7BB8D6351C1CF70C95A316CC6A92839C986682D98BC35F958F4883F9D2A8 ADD SSTORE JUMP JUMPDEST PUSH2 0x32F1 JUMP JUMPDEST DUP2 PUSH1 0x1 PUSH1 0x1 PUSH1 0xA0 SHL SUB AND DUP4 PUSH1 0x1 PUSH1 0x1 PUSH1 0xA0 SHL SUB AND EQ PUSH2 0x32F1 JUMPI PUSH2 0x32F1 DUP4 DUP3 PUSH2 0x332B JUMP JUMPDEST PUSH1 0x1 PUSH1 0x1 PUSH1 0xA0 SHL SUB DUP3 AND PUSH2 0x3308 JUMPI PUSH2 0x96F DUP2 PUSH2 0x33C8 JUMP JUMPDEST DUP3 PUSH1 0x1 PUSH1 0x1 PUSH1 0xA0 SHL SUB AND DUP3 PUSH1 0x1 PUSH1 0x1 PUSH1 0xA0 SHL SUB AND EQ PUSH2 0x96F JUMPI PUSH2 0x96F DUP3 DUP3 PUSH2 0x3477 JUMP JUMPDEST PUSH1 0x0 PUSH1 0x1 PUSH2 0x3338 DUP5 PUSH2 0xE0B JUMP JUMPDEST PUSH2 0x3342 SWAP2 SWAP1 PUSH2 0x3D54 JUMP JUMPDEST PUSH1 0x0 DUP4 DUP2 MSTORE PUSH1 0x9 PUSH1 0x20 MSTORE PUSH1 0x40 SWAP1 KECCAK256 SLOAD SWAP1 SWAP2 POP DUP1 DUP3 EQ PUSH2 0x3395 JUMPI PUSH1 0x1 PUSH1 0x1 PUSH1 0xA0 SHL SUB DUP5 AND PUSH1 0x0 SWAP1 DUP2 MSTORE PUSH1 0x8 PUSH1 0x20 SWAP1 DUP2 MSTORE PUSH1 0x40 DUP1 DUP4 KECCAK256 DUP6 DUP5 MSTORE DUP3 MSTORE DUP1 DUP4 KECCAK256 SLOAD DUP5 DUP5 MSTORE DUP2 DUP5 KECCAK256 DUP2 SWAP1 SSTORE DUP4 MSTORE PUSH1 0x9 SWAP1 SWAP2 MSTORE SWAP1 KECCAK256 DUP2 SWAP1 SSTORE JUMPDEST POP PUSH1 0x0 SWAP2 DUP3 MSTORE PUSH1 0x9 PUSH1 0x20 SWAP1 DUP2 MSTORE PUSH1 0x40 DUP1 DUP5 KECCAK256 DUP5 SWAP1 SSTORE PUSH1 0x1 PUSH1 0x1 PUSH1 0xA0 SHL SUB SWAP1 SWAP5 AND DUP4 MSTORE PUSH1 0x8 DUP2 MSTORE DUP4 DUP4 KECCAK256 SWAP2 DUP4 MSTORE MSTORE SWAP1 DUP2 KECCAK256 SSTORE JUMP JUMPDEST PUSH1 0xA SLOAD PUSH1 0x0 SWAP1 PUSH2 0x33DA SWAP1 PUSH1 0x1 SWAP1 PUSH2 0x3D54 JUMP JUMPDEST PUSH1 0x0 DUP4 DUP2 MSTORE PUSH1 0xB PUSH1 0x20 MSTORE PUSH1 0x40 DUP2 KECCAK256 SLOAD PUSH1 0xA DUP1 SLOAD SWAP4 SWAP5 POP SWAP1 SWAP3 DUP5 SWAP1 DUP2 LT PUSH2 0x3402 JUMPI PUSH2 0x3402 PUSH2 0x3E02 JUMP JUMPDEST SWAP1 PUSH1 0x0 MSTORE PUSH1 0x20 PUSH1 0x0 KECCAK256 ADD SLOAD SWAP1 POP DUP1 PUSH1 0xA DUP4 DUP2 SLOAD DUP2 LT PUSH2 0x3423 JUMPI PUSH2 0x3423 PUSH2 0x3E02 JUMP JUMPDEST PUSH1 0x0 SWAP2 DUP3 MSTORE PUSH1 0x20 DUP1 DUP4 KECCAK256 SWAP1 SWAP2 ADD SWAP3 SWAP1 SWAP3 SSTORE DUP3 DUP2 MSTORE PUSH1 0xB SWAP1 SWAP2 MSTORE PUSH1 0x40 DUP1 DUP3 KECCAK256 DUP5 SWAP1 SSTORE DUP6 DUP3 MSTORE DUP2 KECCAK256 SSTORE PUSH1 0xA DUP1 SLOAD DUP1 PUSH2 0x345B JUMPI PUSH2 0x345B PUSH2 0x4812 JUMP JUMPDEST PUSH1 0x1 SWAP1 SUB DUP2 DUP2 SWAP1 PUSH1 0x0 MSTORE PUSH1 0x20 PUSH1 0x0 KECCAK256 ADD PUSH1 0x0 SWAP1 SSTORE SWAP1 SSTORE POP POP POP POP JUMP JUMPDEST PUSH1 0x0 PUSH2 0x3482 DUP4 PUSH2 0xE0B JUMP JUMPDEST PUSH1 0x1 PUSH1 0x1 PUSH1 0xA0 SHL SUB SWAP1 SWAP4 AND PUSH1 0x0 SWAP1 DUP2 MSTORE PUSH1 0x8 PUSH1 0x20 SWAP1 DUP2 MSTORE PUSH1 0x40 DUP1 DUP4 KECCAK256 DUP7 DUP5 MSTORE DUP3 MSTORE DUP1 DUP4 KECCAK256 DUP6 SWAP1 SSTORE SWAP4 DUP3 MSTORE PUSH1 0x9 SWAP1 MSTORE SWAP2 SWAP1 SWAP2 KECCAK256 SWAP2 SWAP1 SWAP2 SSTORE POP JUMP JUMPDEST DUP3 DUP1 SLOAD PUSH2 0x34C7 SWAP1 PUSH2 0x3D09 JUMP JUMPDEST SWAP1 PUSH1 0x0 MSTORE PUSH1 0x20 PUSH1 0x0 KECCAK256 SWAP1 PUSH1 0x1F ADD PUSH1 0x20 SWAP1 DIV DUP2 ADD SWAP3 DUP3 PUSH2 0x34E9 JUMPI PUSH1 0x0 DUP6 SSTORE PUSH2 0x352F JUMP JUMPDEST DUP3 PUSH1 0x1F LT PUSH2 0x3502 JUMPI DUP1 MLOAD PUSH1 0xFF NOT AND DUP4 DUP1 ADD OR DUP6 SSTORE PUSH2 0x352F JUMP JUMPDEST DUP3 DUP1 ADD PUSH1 0x1 ADD DUP6 SSTORE DUP3 ISZERO PUSH2 0x352F JUMPI SWAP2 DUP3 ADD JUMPDEST DUP3 DUP2 GT ISZERO PUSH2 0x352F JUMPI DUP3 MLOAD DUP3 SSTORE SWAP2 PUSH1 0x20 ADD SWAP2 SWAP1 PUSH1 0x1 ADD SWAP1 PUSH2 0x3514 JUMP JUMPDEST POP PUSH2 0x353B SWAP3 SWAP2 POP PUSH2 0x353F JUMP JUMPDEST POP SWAP1 JUMP JUMPDEST JUMPDEST DUP1 DUP3 GT ISZERO PUSH2 0x353B JUMPI PUSH1 0x0 DUP2 SSTORE PUSH1 0x1 ADD PUSH2 0x3540 JUMP JUMPDEST PUSH1 0x1 PUSH1 0x1 PUSH1 0xE0 SHL SUB NOT DUP2 AND DUP2 EQ PUSH2 0x4EF JUMPI PUSH1 0x0 DUP1 REVERT JUMPDEST PUSH1 0x0 PUSH1 0x20 DUP3 DUP5 SUB SLT ISZERO PUSH2 0x357C JUMPI PUSH1 0x0 DUP1 REVERT JUMPDEST DUP2 CALLDATALOAD PUSH2 0x1475 DUP2 PUSH2 0x3554 JUMP JUMPDEST PUSH1 0x0 JUMPDEST DUP4 DUP2 LT ISZERO PUSH2 0x35A2 JUMPI DUP2 DUP2 ADD MLOAD DUP4 DUP3 ADD MSTORE PUSH1 0x20 ADD PUSH2 0x358A JUMP JUMPDEST DUP4 DUP2 GT ISZERO PUSH2 0xC33 JUMPI POP POP PUSH1 0x0 SWAP2 ADD MSTORE JUMP JUMPDEST PUSH1 0x0 DUP2 MLOAD DUP1 DUP5 MSTORE PUSH2 0x35CB DUP2 PUSH1 0x20 DUP7 ADD PUSH1 0x20 DUP7 ADD PUSH2 0x3587 JUMP JUMPDEST PUSH1 0x1F ADD PUSH1 0x1F NOT AND SWAP3 SWAP1 SWAP3 ADD PUSH1 0x20 ADD SWAP3 SWAP2 POP POP JUMP JUMPDEST PUSH1 0x20 DUP2 MSTORE PUSH1 0x0 PUSH2 0x1475 PUSH1 0x20 DUP4 ADD DUP5 PUSH2 0x35B3 JUMP JUMPDEST PUSH1 0x0 PUSH1 0x20 DUP3 DUP5 SUB SLT ISZERO PUSH2 0x3604 JUMPI PUSH1 0x0 DUP1 REVERT JUMPDEST POP CALLDATALOAD SWAP2 SWAP1 POP JUMP JUMPDEST DUP1 CALLDATALOAD PUSH1 0x1 PUSH1 0x1 PUSH1 0xA0 SHL SUB DUP2 AND DUP2 EQ PUSH2 0x3622 JUMPI PUSH1 0x0 DUP1 REVERT JUMPDEST SWAP2 SWAP1 POP JUMP JUMPDEST PUSH1 0x0 DUP1 PUSH1 0x40 DUP4 DUP6 SUB SLT ISZERO PUSH2 0x363A JUMPI PUSH1 0x0 DUP1 REVERT JUMPDEST PUSH2 0x3643 DUP4 PUSH2 0x360B JUMP JUMPDEST SWAP5 PUSH1 0x20 SWAP4 SWAP1 SWAP4 ADD CALLDATALOAD SWAP4 POP POP POP JUMP JUMPDEST PUSH1 0x0 DUP1 PUSH1 0x0 PUSH1 0x60 DUP5 DUP7 SUB SLT ISZERO PUSH2 0x3666 JUMPI PUSH1 0x0 DUP1 REVERT JUMPDEST PUSH2 0x366F DUP5 PUSH2 0x360B JUMP JUMPDEST SWAP3 POP PUSH2 0x367D PUSH1 0x20 DUP6 ADD PUSH2 0x360B JUMP JUMPDEST SWAP2 POP PUSH1 0x40 DUP5 ADD CALLDATALOAD SWAP1 POP SWAP3 POP SWAP3 POP SWAP3 JUMP JUMPDEST PUSH1 0x0 DUP1 PUSH1 0x40 DUP4 DUP6 SUB SLT ISZERO PUSH2 0x36A0 JUMPI PUSH1 0x0 DUP1 REVERT JUMPDEST POP POP DUP1 CALLDATALOAD SWAP3 PUSH1 0x20 SWAP1 SWAP2 ADD CALLDATALOAD SWAP2 POP JUMP JUMPDEST PUSH1 0x0 DUP1 PUSH1 0x40 DUP4 DUP6 SUB SLT ISZERO PUSH2 0x36C2 JUMPI PUSH1 0x0 DUP1 REVERT JUMPDEST DUP3 CALLDATALOAD SWAP2 POP PUSH2 0x36D2 PUSH1 0x20 DUP5 ADD PUSH2 0x360B JUMP JUMPDEST SWAP1 POP SWAP3 POP SWAP3 SWAP1 POP JUMP JUMPDEST PUSH4 0x4E487B71 PUSH1 0xE0 SHL PUSH1 0x0 MSTORE PUSH1 0x41 PUSH1 0x4 MSTORE PUSH1 0x24 PUSH1 0x0 REVERT JUMPDEST PUSH1 0x40 MLOAD PUSH1 0xE0 DUP2 ADD PUSH1 0x1 PUSH1 0x1 PUSH1 0x40 SHL SUB DUP2 GT DUP3 DUP3 LT OR ISZERO PUSH2 0x3713 JUMPI PUSH2 0x3713 PUSH2 0x36DB JUMP JUMPDEST PUSH1 0x40 MSTORE SWAP1 JUMP JUMPDEST PUSH1 0x40 MLOAD PUSH1 0x1F DUP3 ADD PUSH1 0x1F NOT AND DUP2 ADD PUSH1 0x1 PUSH1 0x1 PUSH1 0x40 SHL SUB DUP2 GT DUP3 DUP3 LT OR ISZERO PUSH2 0x3741 JUMPI PUSH2 0x3741 PUSH2 0x36DB JUMP JUMPDEST PUSH1 0x40 MSTORE SWAP2 SWAP1 POP JUMP JUMPDEST PUSH1 0x0 PUSH1 0x1 PUSH1 0x1 PUSH1 0x40 SHL SUB DUP4 GT ISZERO PUSH2 0x3762 JUMPI PUSH2 0x3762 PUSH2 0x36DB JUMP JUMPDEST PUSH2 0x3775 PUSH1 0x1F DUP5 ADD PUSH1 0x1F NOT AND PUSH1 0x20 ADD PUSH2 0x3719 JUMP JUMPDEST SWAP1 POP DUP3 DUP2 MSTORE DUP4 DUP4 DUP4 ADD GT ISZERO PUSH2 0x3789 JUMPI PUSH1 0x0 DUP1 REVERT JUMPDEST DUP3 DUP3 PUSH1 0x20 DUP4 ADD CALLDATACOPY PUSH1 0x0 PUSH1 0x20 DUP5 DUP4 ADD ADD MSTORE SWAP4 SWAP3 POP POP POP JUMP JUMPDEST PUSH1 0x0 DUP3 PUSH1 0x1F DUP4 ADD SLT PUSH2 0x37B1 JUMPI PUSH1 0x0 DUP1 REVERT JUMPDEST PUSH2 0x1475 DUP4 DUP4 CALLDATALOAD PUSH1 0x20 DUP6 ADD PUSH2 0x3749 JUMP JUMPDEST PUSH1 0x0 DUP1 PUSH1 0x40 DUP4 DUP6 SUB SLT ISZERO PUSH2 0x37D3 JUMPI PUSH1 0x0 DUP1 REVERT JUMPDEST DUP3 CALLDATALOAD SWAP2 POP PUSH1 0x20 DUP4 ADD CALLDATALOAD PUSH1 0x1 PUSH1 0x1 PUSH1 0x40 SHL SUB DUP2 GT ISZERO PUSH2 0x37F0 JUMPI PUSH1 0x0 DUP1 REVERT JUMPDEST PUSH2 0xA79 DUP6 DUP3 DUP7 ADD PUSH2 0x37A0 JUMP JUMPDEST PUSH1 0x0 PUSH1 0x20 DUP3 DUP5 SUB SLT ISZERO PUSH2 0x380E JUMPI PUSH1 0x0 DUP1 REVERT JUMPDEST PUSH2 0x1475 DUP3 PUSH2 0x360B JUMP JUMPDEST PUSH1 0x0 DUP1 PUSH1 0x0 DUP1 PUSH1 0x80 DUP6 DUP8 SUB SLT ISZERO PUSH2 0x382D JUMPI PUSH1 0x0 DUP1 REVERT JUMPDEST PUSH2 0x3836 DUP6 PUSH2 0x360B JUMP JUMPDEST SWAP4 POP PUSH2 0x3844 PUSH1 0x20 DUP7 ADD PUSH2 0x360B JUMP JUMPDEST SWAP3 POP PUSH1 0x40 DUP6 ADD CALLDATALOAD PUSH1 0x1 PUSH1 0x1 PUSH1 0x40 SHL SUB DUP1 DUP3 GT ISZERO PUSH2 0x3860 JUMPI PUSH1 0x0 DUP1 REVERT JUMPDEST PUSH2 0x386C DUP9 DUP4 DUP10 ADD PUSH2 0x37A0 JUMP JUMPDEST SWAP4 POP PUSH1 0x60 DUP8 ADD CALLDATALOAD SWAP2 POP DUP1 DUP3 GT ISZERO PUSH2 0x3882 JUMPI PUSH1 0x0 DUP1 REVERT JUMPDEST POP DUP6 ADD PUSH1 0x40 DUP2 DUP9 SUB SLT ISZERO PUSH2 0x3895 JUMPI PUSH1 0x0 DUP1 REVERT JUMPDEST SWAP4 SWAP7 SWAP3 SWAP6 POP SWAP1 SWAP4 POP POP JUMP JUMPDEST PUSH1 0x0 PUSH1 0x20 DUP3 DUP5 SUB SLT ISZERO PUSH2 0x38B2 JUMPI PUSH1 0x0 DUP1 REVERT JUMPDEST DUP2 CALLDATALOAD PUSH1 0x1 PUSH1 0x1 PUSH1 0x40 SHL SUB DUP2 GT ISZERO PUSH2 0x38C8 JUMPI PUSH1 0x0 DUP1 REVERT JUMPDEST DUP3 ADD PUSH1 0x20 DUP2 DUP6 SUB SLT ISZERO PUSH2 0x1475 JUMPI PUSH1 0x0 DUP1 REVERT JUMPDEST PUSH1 0x0 DUP1 PUSH1 0x0 PUSH1 0x60 DUP5 DUP7 SUB SLT ISZERO PUSH2 0x38EF JUMPI PUSH1 0x0 DUP1 REVERT JUMPDEST DUP4 CALLDATALOAD SWAP3 POP PUSH2 0x367D PUSH1 0x20 DUP6 ADD PUSH2 0x360B JUMP JUMPDEST DUP1 ISZERO ISZERO DUP2 EQ PUSH2 0x4EF JUMPI PUSH1 0x0 DUP1 REVERT JUMPDEST DUP1 CALLDATALOAD PUSH2 0x3622 DUP2 PUSH2 0x38FF JUMP JUMPDEST PUSH1 0x0 DUP1 PUSH1 0x40 DUP4 DUP6 SUB SLT ISZERO PUSH2 0x392B JUMPI PUSH1 0x0 DUP1 REVERT JUMPDEST PUSH2 0x3934 DUP4 PUSH2 0x360B JUMP JUMPDEST SWAP2 POP PUSH1 0x20 DUP4 ADD CALLDATALOAD PUSH2 0x3944 DUP2 PUSH2 0x38FF JUMP JUMPDEST DUP1 SWAP2 POP POP SWAP3 POP SWAP3 SWAP1 POP JUMP JUMPDEST PUSH1 0x0 DUP1 PUSH1 0x0 DUP1 PUSH1 0x0 PUSH1 0xA0 DUP7 DUP9 SUB SLT ISZERO PUSH2 0x3967 JUMPI PUSH1 0x0 DUP1 REVERT JUMPDEST DUP6 CALLDATALOAD PUSH1 0x1 PUSH1 0x1 PUSH1 0x40 SHL SUB DUP1 DUP3 GT ISZERO PUSH2 0x397E JUMPI PUSH1 0x0 DUP1 REVERT JUMPDEST PUSH2 0x398A DUP10 DUP4 DUP11 ADD PUSH2 0x37A0 JUMP JUMPDEST SWAP7 POP PUSH1 0x20 DUP9 ADD CALLDATALOAD SWAP2 POP DUP1 DUP3 GT ISZERO PUSH2 0x39A0 JUMPI PUSH1 0x0 DUP1 REVERT JUMPDEST POP PUSH2 0x39AD DUP9 DUP3 DUP10 ADD PUSH2 0x37A0 JUMP JUMPDEST SWAP5 POP POP PUSH2 0x39BC PUSH1 0x40 DUP8 ADD PUSH2 0x360B JUMP JUMPDEST SWAP3 POP PUSH2 0x39CA PUSH1 0x60 DUP8 ADD PUSH2 0x360B JUMP JUMPDEST SWAP5 SWAP8 SWAP4 SWAP7 POP SWAP2 SWAP5 PUSH1 0x80 ADD CALLDATALOAD SWAP3 SWAP2 POP POP JUMP JUMPDEST PUSH1 0x0 DUP1 PUSH1 0x0 DUP1 PUSH1 0x80 DUP6 DUP8 SUB SLT ISZERO PUSH2 0x39F1 JUMPI PUSH1 0x0 DUP1 REVERT JUMPDEST PUSH2 0x39FA DUP6 PUSH2 0x360B JUMP JUMPDEST SWAP4 POP PUSH2 0x3A08 PUSH1 0x20 DUP7 ADD PUSH2 0x360B JUMP JUMPDEST SWAP3 POP PUSH1 0x40 DUP6 ADD CALLDATALOAD SWAP2 POP PUSH1 0x60 DUP6 ADD CALLDATALOAD PUSH1 0x1 PUSH1 0x1 PUSH1 0x40 SHL SUB DUP2 GT ISZERO PUSH2 0x3A2A JUMPI PUSH1 0x0 DUP1 REVERT JUMPDEST DUP6 ADD PUSH1 0x1F DUP2 ADD DUP8 SGT PUSH2 0x3A3B JUMPI PUSH1 0x0 DUP1 REVERT JUMPDEST PUSH2 0x3A4A DUP8 DUP3 CALLDATALOAD PUSH1 0x20 DUP5 ADD PUSH2 0x3749 JUMP JUMPDEST SWAP2 POP POP SWAP3 SWAP6 SWAP2 SWAP5 POP SWAP3 POP JUMP JUMPDEST PUSH1 0x0 DUP3 DUP3 MLOAD DUP1 DUP6 MSTORE PUSH1 0x20 DUP1 DUP7 ADD SWAP6 POP DUP1 DUP3 PUSH1 0x5 SHL DUP5 ADD ADD DUP2 DUP7 ADD PUSH1 0x0 JUMPDEST DUP5 DUP2 LT ISZERO PUSH2 0x3AA1 JUMPI PUSH1 0x1F NOT DUP7 DUP5 SUB ADD DUP10 MSTORE PUSH2 0x3A8F DUP4 DUP4 MLOAD PUSH2 0x35B3 JUMP JUMPDEST SWAP9 DUP5 ADD SWAP9 SWAP3 POP SWAP1 DUP4 ADD SWAP1 PUSH1 0x1 ADD PUSH2 0x3A73 JUMP JUMPDEST POP SWAP1 SWAP8 SWAP7 POP POP POP POP POP POP POP JUMP JUMPDEST PUSH1 0x0 PUSH1 0x40 DUP1 DUP4 ADD DUP6 DUP5 MSTORE PUSH1 0x20 DUP3 DUP2 DUP7 ADD MSTORE DUP2 DUP7 MLOAD DUP1 DUP5 MSTORE PUSH1 0x60 SWAP4 POP DUP4 DUP8 ADD SWAP2 POP DUP4 DUP2 PUSH1 0x5 SHL DUP9 ADD ADD DUP4 DUP10 ADD PUSH1 0x0 JUMPDEST DUP4 DUP2 LT ISZERO PUSH2 0x3B58 JUMPI PUSH1 0x5F NOT DUP11 DUP5 SUB ADD DUP6 MSTORE DUP2 MLOAD PUSH1 0xE0 PUSH1 0xFF DUP1 DUP4 MLOAD AND DUP7 MSTORE DUP9 DUP4 ADD MLOAD DUP10 DUP8 ADD MSTORE DUP11 DUP4 ADD MLOAD DUP12 DUP8 ADD MSTORE DUP1 DUP11 DUP5 ADD MLOAD AND DUP11 DUP8 ADD MSTORE POP PUSH1 0x80 DUP1 DUP4 ADD MLOAD DUP3 DUP3 DUP9 ADD MSTORE PUSH2 0x3B2B DUP4 DUP9 ADD DUP3 PUSH2 0x3A56 JUMP JUMPDEST PUSH1 0xA0 DUP6 DUP2 ADD MLOAD SWAP1 DUP10 ADD MSTORE PUSH1 0xC0 SWAP5 DUP6 ADD MLOAD ISZERO ISZERO SWAP5 SWAP1 SWAP8 ADD SWAP4 SWAP1 SWAP4 MSTORE POP POP POP SWAP4 DUP6 ADD SWAP4 SWAP1 DUP6 ADD SWAP1 PUSH1 0x1 ADD PUSH2 0x3ADC JUMP JUMPDEST POP SWAP1 SWAP11 SWAP10 POP POP POP POP POP POP POP POP POP POP JUMP JUMPDEST PUSH1 0x0 PUSH1 0x1 PUSH1 0x1 PUSH1 0x40 SHL SUB DUP3 GT ISZERO PUSH2 0x3B81 JUMPI PUSH2 0x3B81 PUSH2 0x36DB JUMP JUMPDEST POP PUSH1 0x5 SHL PUSH1 0x20 ADD SWAP1 JUMP JUMPDEST PUSH1 0x0 DUP1 PUSH1 0x40 DUP4 DUP6 SUB SLT ISZERO PUSH2 0x3B9E JUMPI PUSH1 0x0 DUP1 REVERT JUMPDEST PUSH2 0x3BA7 DUP4 PUSH2 0x360B JUMP JUMPDEST SWAP2 POP PUSH1 0x20 DUP1 DUP5 ADD CALLDATALOAD PUSH1 0x1 PUSH1 0x1 PUSH1 0x40 SHL SUB DUP2 GT ISZERO PUSH2 0x3BC3 JUMPI PUSH1 0x0 DUP1 REVERT JUMPDEST DUP5 ADD PUSH1 0x1F DUP2 ADD DUP7 SGT PUSH2 0x3BD4 JUMPI PUSH1 0x0 DUP1 REVERT JUMPDEST DUP1 CALLDATALOAD PUSH2 0x3BE7 PUSH2 0x3BE2 DUP3 PUSH2 0x3B68 JUMP JUMPDEST PUSH2 0x3719 JUMP JUMPDEST DUP2 DUP2 MSTORE PUSH1 0x5 SWAP2 SWAP1 SWAP2 SHL DUP3 ADD DUP4 ADD SWAP1 DUP4 DUP2 ADD SWAP1 DUP9 DUP4 GT ISZERO PUSH2 0x3C06 JUMPI PUSH1 0x0 DUP1 REVERT JUMPDEST SWAP3 DUP5 ADD SWAP3 JUMPDEST DUP3 DUP5 LT ISZERO PUSH2 0x3C24 JUMPI DUP4 CALLDATALOAD DUP3 MSTORE SWAP3 DUP5 ADD SWAP3 SWAP1 DUP5 ADD SWAP1 PUSH2 0x3C0B JUMP JUMPDEST DUP1 SWAP6 POP POP POP POP POP POP SWAP3 POP SWAP3 SWAP1 POP JUMP JUMPDEST PUSH1 0x0 PUSH1 0x20 DUP1 DUP4 ADD DUP2 DUP5 MSTORE DUP1 DUP6 MLOAD DUP1 DUP4 MSTORE PUSH1 0x40 SWAP3 POP DUP3 DUP7 ADD SWAP2 POP DUP3 DUP2 PUSH1 0x5 SHL DUP8 ADD ADD DUP5 DUP9 ADD PUSH1 0x0 JUMPDEST DUP4 DUP2 LT ISZERO PUSH2 0x3CD1 JUMPI PUSH1 0x3F NOT DUP10 DUP5 SUB ADD DUP6 MSTORE DUP2 MLOAD PUSH1 0x80 DUP2 MLOAD DUP2 DUP7 MSTORE PUSH2 0x3C80 DUP3 DUP8 ADD DUP3 PUSH2 0x35B3 JUMP JUMPDEST SWAP2 POP POP DUP9 DUP3 ADD MLOAD DUP6 DUP3 SUB DUP11 DUP8 ADD MSTORE PUSH2 0x3C98 DUP3 DUP3 PUSH2 0x3A56 JUMP JUMPDEST SWAP2 POP POP DUP8 DUP3 ADD MLOAD DUP9 DUP7 ADD MSTORE PUSH1 0x60 DUP1 DUP4 ADD MLOAD SWAP3 POP DUP6 DUP3 SUB DUP2 DUP8 ADD MSTORE POP PUSH2 0x3CBD DUP2 DUP4 PUSH2 0x35B3 JUMP JUMPDEST SWAP7 DUP10 ADD SWAP7 SWAP5 POP POP POP SWAP1 DUP7 ADD SWAP1 PUSH1 0x1 ADD PUSH2 0x3C5A JUMP JUMPDEST POP SWAP1 SWAP9 SWAP8 POP POP POP POP POP POP POP POP JUMP JUMPDEST PUSH1 0x0 DUP1 PUSH1 0x40 DUP4 DUP6 SUB SLT ISZERO PUSH2 0x3CF2 JUMPI PUSH1 0x0 DUP1 REVERT JUMPDEST PUSH2 0x3CFB DUP4 PUSH2 0x360B JUMP JUMPDEST SWAP2 POP PUSH2 0x36D2 PUSH1 0x20 DUP5 ADD PUSH2 0x360B JUMP JUMPDEST PUSH1 0x1 DUP2 DUP2 SHR SWAP1 DUP3 AND DUP1 PUSH2 0x3D1D JUMPI PUSH1 0x7F DUP3 AND SWAP2 POP JUMPDEST PUSH1 0x20 DUP3 LT DUP2 EQ ISZERO PUSH2 0x19FF JUMPI PUSH4 0x4E487B71 PUSH1 0xE0 SHL PUSH1 0x0 MSTORE PUSH1 0x22 PUSH1 0x4 MSTORE PUSH1 0x24 PUSH1 0x0 REVERT JUMPDEST PUSH4 0x4E487B71 PUSH1 0xE0 SHL PUSH1 0x0 MSTORE PUSH1 0x11 PUSH1 0x4 MSTORE PUSH1 0x24 PUSH1 0x0 REVERT JUMPDEST PUSH1 0x0 DUP3 DUP3 LT ISZERO PUSH2 0x3D66 JUMPI PUSH2 0x3D66 PUSH2 0x3D3E JUMP JUMPDEST POP SUB SWAP1 JUMP JUMPDEST PUSH1 0x20 DUP1 DUP3 MSTORE PUSH1 0x2E SWAP1 DUP3 ADD MSTORE PUSH32 0x4552433732313A2063616C6C6572206973206E6F7420746F6B656E206F776E65 PUSH1 0x40 DUP3 ADD MSTORE PUSH14 0x1C881B9BDC88185C1C1C9BDD9959 PUSH1 0x92 SHL PUSH1 0x60 DUP3 ADD MSTORE PUSH1 0x80 ADD SWAP1 JUMP JUMPDEST PUSH1 0x0 DUP2 PUSH1 0x0 NOT DIV DUP4 GT DUP3 ISZERO ISZERO AND ISZERO PUSH2 0x3DD3 JUMPI PUSH2 0x3DD3 PUSH2 0x3D3E JUMP JUMPDEST POP MUL SWAP1 JUMP JUMPDEST PUSH4 0x4E487B71 PUSH1 0xE0 SHL PUSH1 0x0 MSTORE PUSH1 0x12 PUSH1 0x4 MSTORE PUSH1 0x24 PUSH1 0x0 REVERT JUMPDEST PUSH1 0x0 DUP3 PUSH2 0x3DFD JUMPI PUSH2 0x3DFD PUSH2 0x3DD8 JUMP JUMPDEST POP DIV SWAP1 JUMP JUMPDEST PUSH4 0x4E487B71 PUSH1 0xE0 SHL PUSH1 0x0 MSTORE PUSH1 0x32 PUSH1 0x4 MSTORE PUSH1 0x24 PUSH1 0x0 REVERT JUMPDEST PUSH1 0x0 DUP1 DUP4 CALLDATALOAD PUSH1 0x1E NOT DUP5 CALLDATASIZE SUB ADD DUP2 SLT PUSH2 0x3E2F JUMPI PUSH1 0x0 DUP1 REVERT JUMPDEST DUP4 ADD DUP1 CALLDATALOAD SWAP2 POP PUSH1 0x1 PUSH1 0x1 PUSH1 0x40 SHL SUB DUP3 GT ISZERO PUSH2 0x3E49 JUMPI PUSH1 0x0 DUP1 REVERT JUMPDEST PUSH1 0x20 ADD SWAP2 POP PUSH1 0x5 DUP2 SWAP1 SHL CALLDATASIZE SUB DUP3 SGT ISZERO PUSH2 0x3E61 JUMPI PUSH1 0x0 DUP1 REVERT JUMPDEST SWAP3 POP SWAP3 SWAP1 POP JUMP JUMPDEST PUSH1 0x0 DUP3 CALLDATALOAD PUSH1 0xDE NOT DUP4 CALLDATASIZE SUB ADD DUP2 SLT PUSH2 0x3E7E JUMPI PUSH1 0x0 DUP1 REVERT JUMPDEST SWAP2 SWAP1 SWAP2 ADD SWAP3 SWAP2 POP POP JUMP JUMPDEST PUSH1 0xFF DUP2 AND DUP2 EQ PUSH2 0x4EF JUMPI PUSH1 0x0 DUP1 REVERT JUMPDEST DUP1 CALLDATALOAD PUSH2 0x3622 DUP2 PUSH2 0x3E88 JUMP JUMPDEST PUSH1 0x0 DUP3 PUSH1 0x1F DUP4 ADD SLT PUSH2 0x3EB3 JUMPI PUSH1 0x0 DUP1 REVERT JUMPDEST DUP2 CALLDATALOAD PUSH1 0x20 PUSH2 0x3EC3 PUSH2 0x3BE2 DUP4 PUSH2 0x3B68 JUMP JUMPDEST DUP3 DUP2 MSTORE PUSH1 0x5 SWAP3 SWAP1 SWAP3 SHL DUP5 ADD DUP2 ADD SWAP2 DUP2 DUP2 ADD SWAP1 DUP7 DUP5 GT ISZERO PUSH2 0x3EE2 JUMPI PUSH1 0x0 DUP1 REVERT JUMPDEST DUP3 DUP7 ADD JUMPDEST DUP5 DUP2 LT ISZERO PUSH2 0x3F21 JUMPI DUP1 CALLDATALOAD PUSH1 0x1 PUSH1 0x1 PUSH1 0x40 SHL SUB DUP2 GT ISZERO PUSH2 0x3F05 JUMPI PUSH1 0x0 DUP1 DUP2 REVERT JUMPDEST PUSH2 0x3F13 DUP10 DUP7 DUP4 DUP12 ADD ADD PUSH2 0x37A0 JUMP JUMPDEST DUP5 MSTORE POP SWAP2 DUP4 ADD SWAP2 DUP4 ADD PUSH2 0x3EE6 JUMP JUMPDEST POP SWAP7 SWAP6 POP POP POP POP POP POP JUMP JUMPDEST PUSH1 0x0 PUSH1 0xE0 DUP3 CALLDATASIZE SUB SLT ISZERO PUSH2 0x3F3E JUMPI PUSH1 0x0 DUP1 REVERT JUMPDEST PUSH2 0x3F46 PUSH2 0x36F1 JUMP JUMPDEST PUSH2 0x3F4F DUP4 PUSH2 0x3E97 JUMP JUMPDEST DUP2 MSTORE PUSH1 0x20 DUP4 ADD CALLDATALOAD PUSH1 0x20 DUP3 ADD MSTORE PUSH1 0x40 DUP4 ADD CALLDATALOAD PUSH1 0x40 DUP3 ADD MSTORE PUSH2 0x3F71 PUSH1 0x60 DUP5 ADD PUSH2 0x3E97 JUMP JUMPDEST PUSH1 0x60 DUP3 ADD MSTORE PUSH1 0x80 DUP4 ADD CALLDATALOAD PUSH1 0x1 PUSH1 0x1 PUSH1 0x40 SHL SUB DUP2 GT ISZERO PUSH2 0x3F8F JUMPI PUSH1 0x0 DUP1 REVERT JUMPDEST PUSH2 0x3F9B CALLDATASIZE DUP3 DUP7 ADD PUSH2 0x3EA2 JUMP JUMPDEST PUSH1 0x80 DUP4 ADD MSTORE POP PUSH1 0xA0 DUP4 ADD CALLDATALOAD PUSH1 0xA0 DUP3 ADD MSTORE PUSH2 0x3FB7 PUSH1 0xC0 DUP5 ADD PUSH2 0x390D JUMP JUMPDEST PUSH1 0xC0 DUP3 ADD MSTORE SWAP3 SWAP2 POP POP JUMP JUMPDEST PUSH1 0x0 PUSH1 0x0 NOT DUP3 EQ ISZERO PUSH2 0x3FD6 JUMPI PUSH2 0x3FD6 PUSH2 0x3D3E JUMP JUMPDEST POP PUSH1 0x1 ADD SWAP1 JUMP JUMPDEST PUSH1 0x0 PUSH1 0x20 DUP3 DUP5 SUB SLT ISZERO PUSH2 0x3FEF JUMPI PUSH1 0x0 DUP1 REVERT JUMPDEST DUP2 MLOAD PUSH2 0x1475 DUP2 PUSH2 0x38FF JUMP JUMPDEST JUMPDEST DUP2 DUP2 LT ISZERO PUSH2 0xBB9 JUMPI PUSH1 0x0 DUP2 SSTORE PUSH1 0x1 ADD PUSH2 0x3FFB JUMP JUMPDEST PUSH2 0x4019 DUP2 SLOAD PUSH2 0x3D09 JUMP JUMPDEST DUP1 ISZERO PUSH2 0xBB9 JUMPI PUSH1 0x1F DUP2 GT PUSH1 0x1 DUP2 EQ PUSH2 0x4033 JUMPI POP POP PUSH1 0x0 SWAP1 SSTORE JUMP JUMPDEST DUP3 PUSH1 0x0 MSTORE PUSH1 0x20 PUSH1 0x0 KECCAK256 PUSH2 0x4051 PUSH1 0x1F DUP5 ADD PUSH1 0x5 SHR DUP3 ADD PUSH1 0x1 DUP4 ADD PUSH2 0x3FFA JUMP JUMPDEST POP PUSH1 0x20 PUSH1 0x0 SWAP1 DUP2 KECCAK256 DUP2 DUP6 SSTORE SSTORE POP POP POP JUMP JUMPDEST DUP1 SLOAD PUSH1 0x0 DUP3 SSTORE DUP1 ISZERO PUSH2 0xBB9 JUMPI DUP2 PUSH1 0x0 MSTORE PUSH1 0x20 PUSH1 0x0 KECCAK256 DUP2 DUP2 ADD JUMPDEST DUP1 DUP3 LT ISZERO PUSH2 0xC33 JUMPI PUSH2 0x408C DUP3 PUSH2 0x400F JUMP JUMPDEST PUSH1 0x1 DUP3 ADD SWAP2 POP PUSH2 0x407B JUMP JUMPDEST PUSH1 0x1 PUSH1 0x40 SHL DUP3 GT ISZERO PUSH2 0x40AB JUMPI PUSH2 0x40AB PUSH2 0x36DB JUMP JUMPDEST DUP1 SLOAD DUP3 DUP3 SSTORE DUP1 DUP4 LT ISZERO PUSH2 0x96F JUMPI PUSH1 0x0 DUP3 DUP2 MSTORE PUSH1 0x20 SWAP1 KECCAK256 DUP4 DUP2 ADD SWAP1 DUP3 ADD JUMPDEST DUP1 DUP3 LT ISZERO PUSH2 0x16B0 JUMPI PUSH2 0x40D9 DUP3 PUSH2 0x400F JUMP JUMPDEST PUSH1 0x1 DUP3 ADD SWAP2 POP PUSH2 0x40C8 JUMP JUMPDEST PUSH1 0x0 DUP1 DUP4 CALLDATALOAD PUSH1 0x1E NOT DUP5 CALLDATASIZE SUB ADD DUP2 SLT PUSH2 0x40FB JUMPI PUSH1 0x0 DUP1 REVERT JUMPDEST DUP4 ADD DUP1 CALLDATALOAD SWAP2 POP PUSH1 0x1 PUSH1 0x1 PUSH1 0x40 SHL SUB DUP3 GT ISZERO PUSH2 0x4115 JUMPI PUSH1 0x0 DUP1 REVERT JUMPDEST PUSH1 0x20 ADD SWAP2 POP CALLDATASIZE DUP2 SWAP1 SUB DUP3 SGT ISZERO PUSH2 0x3E61 JUMPI PUSH1 0x0 DUP1 REVERT JUMPDEST PUSH1 0x1F DUP3 GT ISZERO PUSH2 0x96F JUMPI DUP1 PUSH1 0x0 MSTORE PUSH1 0x20 PUSH1 0x0 KECCAK256 PUSH1 0x1F DUP5 ADD PUSH1 0x5 SHR DUP2 ADD PUSH1 0x20 DUP6 LT ISZERO PUSH2 0x4151 JUMPI POP DUP1 JUMPDEST PUSH2 0x16B0 PUSH1 0x1F DUP6 ADD PUSH1 0x5 SHR DUP4 ADD DUP3 PUSH2 0x3FFA JUMP JUMPDEST PUSH1 0x1 PUSH1 0x1 PUSH1 0x40 SHL SUB DUP4 GT ISZERO PUSH2 0x417A JUMPI PUSH2 0x417A PUSH2 0x36DB JUMP JUMPDEST PUSH2 0x418E DUP4 PUSH2 0x4188 DUP4 SLOAD PUSH2 0x3D09 JUMP JUMPDEST DUP4 PUSH2 0x412A JUMP JUMPDEST PUSH1 0x0 PUSH1 0x1F DUP5 GT PUSH1 0x1 DUP2 EQ PUSH2 0x41C2 JUMPI PUSH1 0x0 DUP6 ISZERO PUSH2 0x41AA JUMPI POP DUP4 DUP3 ADD CALLDATALOAD JUMPDEST PUSH1 0x0 NOT PUSH1 0x3 DUP8 SWAP1 SHL SHR NOT AND PUSH1 0x1 DUP7 SWAP1 SHL OR DUP4 SSTORE PUSH2 0x16B0 JUMP JUMPDEST PUSH1 0x0 DUP4 DUP2 MSTORE PUSH1 0x20 SWAP1 KECCAK256 PUSH1 0x1F NOT DUP7 AND SWAP1 DUP4 JUMPDEST DUP3 DUP2 LT ISZERO PUSH2 0x41F3 JUMPI DUP7 DUP6 ADD CALLDATALOAD DUP3 SSTORE PUSH1 0x20 SWAP5 DUP6 ADD SWAP5 PUSH1 0x1 SWAP1 SWAP3 ADD SWAP2 ADD PUSH2 0x41D3 JUMP JUMPDEST POP DUP7 DUP3 LT ISZERO PUSH2 0x4210 JUMPI PUSH1 0x0 NOT PUSH1 0xF8 DUP9 PUSH1 0x3 SHL AND SHR NOT DUP5 DUP8 ADD CALLDATALOAD AND DUP2 SSTORE JUMPDEST POP POP PUSH1 0x1 DUP6 PUSH1 0x1 SHL ADD DUP4 SSTORE POP POP POP POP POP JUMP JUMPDEST PUSH1 0x0 DUP2 CALLDATALOAD PUSH2 0x79A DUP2 PUSH2 0x38FF JUMP JUMPDEST DUP2 CALLDATALOAD PUSH2 0x423A DUP2 PUSH2 0x3E88 JUMP JUMPDEST DUP2 SLOAD PUSH1 0xFF NOT AND PUSH1 0xFF DUP3 AND OR DUP3 SSTORE POP PUSH1 0x1 PUSH1 0x20 DUP1 DUP5 ADD CALLDATALOAD DUP3 DUP5 ADD SSTORE PUSH1 0x40 DUP5 ADD CALLDATALOAD PUSH1 0x2 DUP5 ADD SSTORE PUSH1 0x60 DUP5 ADD CALLDATALOAD PUSH2 0x426C DUP2 PUSH2 0x3E88 JUMP JUMPDEST PUSH1 0x3 DUP5 ADD DUP1 SLOAD PUSH1 0xFF NOT AND PUSH1 0xFF DUP4 AND OR SWAP1 SSTORE POP PUSH1 0x4 DUP4 ADD PUSH2 0x428F PUSH1 0x80 DUP7 ADD DUP7 PUSH2 0x3E18 JUMP JUMPDEST PUSH2 0x4299 DUP2 DUP5 PUSH2 0x4097 JUMP JUMPDEST DUP2 DUP4 PUSH1 0x0 MSTORE DUP5 PUSH1 0x0 KECCAK256 SWAP4 POP PUSH1 0x0 JUMPDEST DUP3 DUP2 LT ISZERO PUSH2 0x42D5 JUMPI PUSH2 0x42B9 DUP3 DUP6 PUSH2 0x40E4 JUMP JUMPDEST PUSH2 0x42C4 DUP2 DUP4 DUP10 PUSH2 0x4163 JUMP JUMPDEST POP POP SWAP4 DUP7 ADD SWAP4 SWAP1 DUP6 ADD SWAP1 DUP7 ADD PUSH2 0x42A7 JUMP JUMPDEST POP POP POP POP POP POP POP PUSH1 0xA0 DUP3 ADD CALLDATALOAD PUSH1 0x5 DUP3 ADD SSTORE PUSH2 0xBB9 PUSH2 0x42F5 PUSH1 0xC0 DUP5 ADD PUSH2 0x4222 JUMP JUMPDEST PUSH1 0x6 DUP4 ADD PUSH1 0xFF NOT DUP2 SLOAD AND PUSH1 0xFF DUP4 ISZERO ISZERO AND DUP2 OR DUP3 SSTORE POP POP POP JUMP JUMPDEST DUP2 CALLDATALOAD DUP2 SSTORE PUSH1 0x1 DUP1 DUP3 ADD PUSH1 0x20 PUSH2 0x4325 DUP2 DUP7 ADD DUP7 PUSH2 0x3E18 JUMP JUMPDEST PUSH1 0x1 PUSH1 0x40 SHL DUP2 GT ISZERO PUSH2 0x4339 JUMPI PUSH2 0x4339 PUSH2 0x36DB JUMP JUMPDEST DUP4 SLOAD DUP2 DUP6 SSTORE DUP1 DUP3 LT ISZERO PUSH2 0x43E6 JUMPI PUSH32 0x2492492492492492492492492492492492492492492492492492492492492492 DUP1 DUP3 GT DUP8 AND ISZERO PUSH2 0x4379 JUMPI PUSH2 0x4379 PUSH2 0x3D3E JUMP JUMPDEST PUSH1 0x7 DUP2 DUP5 GT DUP9 AND ISZERO PUSH2 0x438D JUMPI PUSH2 0x438D PUSH2 0x3D3E JUMP JUMPDEST PUSH1 0x0 DUP8 DUP2 MSTORE DUP7 DUP2 KECCAK256 SWAP1 SWAP3 POP DUP5 DUP3 MUL DUP2 ADD SWAP1 DUP3 DUP6 MUL ADD JUMPDEST DUP1 DUP3 LT ISZERO PUSH2 0x43E1 JUMPI DUP4 DUP3 SSTORE DUP4 DUP11 DUP4 ADD SSTORE DUP4 PUSH1 0x2 DUP4 ADD SSTORE DUP4 PUSH1 0x3 DUP4 ADD SSTORE PUSH2 0x43CB PUSH1 0x4 DUP4 ADD PUSH2 0x4062 JUMP JUMPDEST DUP4 PUSH1 0x5 DUP4 ADD SSTORE DUP4 PUSH1 0x6 DUP4 ADD SSTORE DUP3 DUP3 ADD SWAP2 POP PUSH2 0x43A3 JUMP JUMPDEST POP POP POP POP JUMPDEST POP PUSH1 0x0 SWAP4 DUP5 MSTORE PUSH1 0x20 DUP5 KECCAK256 SWAP4 DUP3 SWAP1 JUMPDEST DUP3 DUP2 LT ISZERO PUSH2 0x4421 JUMPI PUSH2 0x440F PUSH2 0x4409 DUP4 DUP7 PUSH2 0x3E68 JUMP JUMPDEST DUP8 PUSH2 0x422F JUMP JUMPDEST PUSH1 0x7 SWAP6 SWAP1 SWAP6 ADD SWAP5 SWAP1 DUP5 ADD SWAP1 DUP7 ADD PUSH2 0x43F4 JUMP JUMPDEST POP POP POP POP POP POP POP POP POP JUMP JUMPDEST PUSH1 0x1 PUSH1 0x1 PUSH1 0xA0 SHL SUB DUP6 DUP2 AND DUP3 MSTORE DUP5 AND PUSH1 0x20 DUP3 ADD MSTORE PUSH1 0x80 PUSH1 0x40 DUP3 ADD DUP2 SWAP1 MSTORE PUSH1 0x0 SWAP1 PUSH2 0x4458 SWAP1 DUP4 ADD DUP6 PUSH2 0x35B3 JUMP JUMPDEST SWAP1 POP DUP3 PUSH1 0x60 DUP4 ADD MSTORE SWAP6 SWAP5 POP POP POP POP POP JUMP JUMPDEST PUSH1 0x0 DUP3 CALLDATALOAD PUSH1 0x7E NOT DUP4 CALLDATASIZE SUB ADD DUP2 SLT PUSH2 0x3E7E JUMPI PUSH1 0x0 DUP1 REVERT JUMPDEST PUSH2 0x4489 DUP3 DUP4 PUSH2 0x40E4 JUMP JUMPDEST PUSH2 0x4494 DUP2 DUP4 DUP6 PUSH2 0x4163 JUMP JUMPDEST POP POP PUSH1 0x1 DUP1 DUP3 ADD PUSH1 0x20 PUSH2 0x44A9 DUP2 DUP7 ADD DUP7 PUSH2 0x3E18 JUMP JUMPDEST PUSH2 0x44B3 DUP2 DUP6 PUSH2 0x4097 JUMP JUMPDEST DUP2 DUP5 PUSH1 0x0 MSTORE DUP4 PUSH1 0x0 KECCAK256 SWAP5 POP PUSH1 0x0 JUMPDEST DUP3 DUP2 LT ISZERO PUSH2 0x44EF JUMPI PUSH2 0x44D3 DUP3 DUP6 PUSH2 0x40E4 JUMP JUMPDEST PUSH2 0x44DE DUP2 DUP4 DUP11 PUSH2 0x4163 JUMP JUMPDEST POP POP SWAP5 DUP7 ADD SWAP5 SWAP1 DUP5 ADD SWAP1 DUP7 ADD PUSH2 0x44C1 JUMP JUMPDEST POP POP POP POP POP POP POP PUSH1 0x40 DUP3 ADD CALLDATALOAD PUSH1 0x2 DUP3 ADD SSTORE PUSH2 0x450D PUSH1 0x60 DUP4 ADD DUP4 PUSH2 0x40E4 JUMP JUMPDEST PUSH2 0xC33 DUP2 DUP4 PUSH1 0x3 DUP7 ADD PUSH2 0x4163 JUMP JUMPDEST PUSH2 0x4525 DUP3 DUP4 PUSH2 0x3E18 JUMP JUMPDEST PUSH1 0x1 PUSH1 0x40 SHL DUP2 GT ISZERO PUSH2 0x4539 JUMPI PUSH2 0x4539 PUSH2 0x36DB JUMP JUMPDEST DUP3 SLOAD DUP2 DUP5 SSTORE DUP1 DUP3 LT ISZERO PUSH2 0x45CB JUMPI PUSH1 0x1 PUSH1 0x1 PUSH1 0xFE SHL SUB PUSH1 0x1 DUP2 DUP4 GT DUP2 AND ISZERO PUSH2 0x4562 JUMPI PUSH2 0x4562 PUSH2 0x3D3E JUMP JUMPDEST PUSH1 0x2 DUP3 DUP6 GT DUP3 AND ISZERO PUSH2 0x4576 JUMPI PUSH2 0x4576 PUSH2 0x3D3E JUMP JUMPDEST PUSH1 0x0 DUP8 DUP2 MSTORE PUSH1 0x20 DUP2 KECCAK256 SWAP1 SWAP4 POP DUP6 DUP3 SHL DUP2 ADD SWAP1 DUP6 DUP4 SHL ADD JUMPDEST DUP1 DUP3 LT ISZERO PUSH2 0x45C5 JUMPI PUSH2 0x459E DUP3 PUSH2 0x400F JUMP JUMPDEST PUSH2 0x45A9 DUP5 DUP4 ADD PUSH2 0x4062 JUMP JUMPDEST DUP5 DUP4 DUP4 ADD SSTORE PUSH2 0x45BA PUSH1 0x3 DUP4 ADD PUSH2 0x400F JUMP JUMPDEST PUSH1 0x4 DUP3 ADD SWAP2 POP PUSH2 0x458D JUMP JUMPDEST POP POP POP POP POP JUMPDEST POP PUSH1 0x0 DUP4 DUP2 MSTORE PUSH1 0x20 DUP2 KECCAK256 DUP4 SWAP2 JUMPDEST DUP4 DUP2 LT ISZERO PUSH2 0x4609 JUMPI PUSH2 0x45F3 PUSH2 0x45ED DUP5 DUP8 PUSH2 0x4469 JUMP JUMPDEST DUP4 PUSH2 0x447F JUMP JUMPDEST PUSH1 0x20 SWAP3 SWAP1 SWAP3 ADD SWAP2 PUSH1 0x4 SWAP2 SWAP1 SWAP2 ADD SWAP1 PUSH1 0x1 ADD PUSH2 0x45D8 JUMP JUMPDEST POP POP POP POP POP POP POP JUMP JUMPDEST PUSH1 0x20 DUP1 DUP3 MSTORE PUSH1 0x12 SWAP1 DUP3 ADD MSTORE PUSH18 0x13D3931657D05113525397D0531313D5D151 PUSH1 0x72 SHL PUSH1 0x40 DUP3 ADD MSTORE PUSH1 0x60 ADD SWAP1 JUMP JUMPDEST PUSH1 0x20 DUP1 DUP3 MSTORE PUSH1 0x7 SWAP1 DUP3 ADD MSTORE PUSH7 0x12539597D05111 PUSH1 0xCA SHL PUSH1 0x40 DUP3 ADD MSTORE PUSH1 0x60 ADD SWAP1 JUMP JUMPDEST PUSH1 0x0 DUP4 MLOAD PUSH2 0x4671 DUP2 DUP5 PUSH1 0x20 DUP9 ADD PUSH2 0x3587 JUMP JUMPDEST DUP4 MLOAD SWAP1 DUP4 ADD SWAP1 PUSH2 0x4685 DUP2 DUP4 PUSH1 0x20 DUP9 ADD PUSH2 0x3587 JUMP JUMPDEST ADD SWAP5 SWAP4 POP POP POP POP JUMP JUMPDEST PUSH1 0x0 PUSH1 0xFF DUP3 AND PUSH1 0xFF DUP2 EQ ISZERO PUSH2 0x46A5 JUMPI PUSH2 0x46A5 PUSH2 0x3D3E JUMP JUMPDEST PUSH1 0x1 ADD SWAP3 SWAP2 POP POP JUMP JUMPDEST PUSH1 0x0 DUP3 NOT DUP3 GT ISZERO PUSH2 0x46C1 JUMPI PUSH2 0x46C1 PUSH2 0x3D3E JUMP JUMPDEST POP ADD SWAP1 JUMP JUMPDEST PUSH1 0x0 DUP3 PUSH2 0x46D5 JUMPI PUSH2 0x46D5 PUSH2 0x3DD8 JUMP JUMPDEST POP MOD SWAP1 JUMP JUMPDEST PUSH1 0x20 DUP1 DUP3 MSTORE PUSH1 0x32 SWAP1 DUP3 ADD MSTORE PUSH32 0x4552433732313A207472616E7366657220746F206E6F6E204552433732315265 PUSH1 0x40 DUP3 ADD MSTORE PUSH18 0x31B2B4BB32B91034B6B83632B6B2B73A32B9 PUSH1 0x71 SHL PUSH1 0x60 DUP3 ADD MSTORE PUSH1 0x80 ADD SWAP1 JUMP JUMPDEST PUSH32 0x416363657373436F6E74726F6C3A206163636F756E7420000000000000000000 DUP2 MSTORE PUSH1 0x0 DUP4 MLOAD PUSH2 0x4764 DUP2 PUSH1 0x17 DUP6 ADD PUSH1 0x20 DUP9 ADD PUSH2 0x3587 JUMP JUMPDEST PUSH17 0x1034B99036B4B9B9B4B733903937B6329 PUSH1 0x7D SHL PUSH1 0x17 SWAP2 DUP5 ADD SWAP2 DUP3 ADD MSTORE DUP4 MLOAD PUSH2 0x4795 DUP2 PUSH1 0x28 DUP5 ADD PUSH1 0x20 DUP9 ADD PUSH2 0x3587 JUMP JUMPDEST ADD PUSH1 0x28 ADD SWAP5 SWAP4 POP POP POP POP JUMP JUMPDEST PUSH1 0x1 PUSH1 0x1 PUSH1 0xA0 SHL SUB DUP6 DUP2 AND DUP3 MSTORE DUP5 AND PUSH1 0x20 DUP3 ADD MSTORE PUSH1 0x40 DUP2 ADD DUP4 SWAP1 MSTORE PUSH1 0x80 PUSH1 0x60 DUP3 ADD DUP2 SWAP1 MSTORE PUSH1 0x0 SWAP1 PUSH2 0x47D4 SWAP1 DUP4 ADD DUP5 PUSH2 0x35B3 JUMP JUMPDEST SWAP7 SWAP6 POP POP POP POP POP POP JUMP JUMPDEST PUSH1 0x0 PUSH1 0x20 DUP3 DUP5 SUB SLT ISZERO PUSH2 0x47F0 JUMPI PUSH1 0x0 DUP1 REVERT JUMPDEST DUP2 MLOAD PUSH2 0x1475 DUP2 PUSH2 0x3554 JUMP JUMPDEST PUSH1 0x0 DUP2 PUSH2 0x480A JUMPI PUSH2 0x480A PUSH2 0x3D3E JUMP JUMPDEST POP PUSH1 0x0 NOT ADD SWAP1 JUMP JUMPDEST PUSH4 0x4E487B71 PUSH1 0xE0 SHL PUSH1 0x0 MSTORE PUSH1 0x31 PUSH1 0x4 MSTORE PUSH1 0x24 PUSH1 0x0 REVERT INVALID PUSH6 0xD7A28E3265B3 PUSH27 0x6474929F336521B332C1681B933F6CB9F3376673440D862A9F2DF0 INVALID 0xD2 0xC7 PUSH23 0x48DE5860A4CC508CD0818C85B8B8A1AB4CEEEF8D981C89 JUMP 0xA6 LOG2 PUSH5 0x6970667358 0x22 SLT KECCAK256 0xE2 SWAP16 0xD8 PUSH19 0xDDD01714C472F94B93A2547C4B0D4EEF010B88 0xE4 PUSH7 0x58D8E20AFC49CD PUSH5 0x736F6C6343 STOP ADDMOD 0xC STOP CALLER "},"methodIdentifiers":{"DEFAULT_ADMIN_ROLE()":"a217fddf","MINTER_ROLE()":"d5391393","PAUSER_ROLE()":"e63ab1e9","_admin()":"01bc45c9","_boilerplateAddr()":"f9ecc22c","_boilerplateId()":"531f7b53","_creators(uint256)":"4816edf4","_paramsValues(uint256)":"953cd246","approve(address,uint256)":"095ea7b3","balanceOf(address)":"70a08231","baseTokenURI()":"d547cfb7","burn(uint256)":"42966c68","changeAdmin(address)":"8f283970","getApproved(uint256)":"081812fc","getParamValues(uint256)":"c0dca239","getRoleAdmin(bytes32)":"248a9ca3","getRoleMember(bytes32,uint256)":"9010d07c","getRoleMemberCount(bytes32)":"ca15c873","getTraits(uint256)":"e1dc0761","grantRole(bytes32,address)":"2f2ff15d","hasRole(bytes32,address)":"91d14854","init(string,string,address,address,uint256)":"ae3dd095","isApprovedForAll(address,address)":"e985e9c5","mint(address)":"6a627842","mint(address,address,string,(bytes32,(uint8,uint256,uint256,uint8,string[],uint256,bool)[]))":"7d763613","name()":"06fdde03","owner()":"8da5cb5b","ownerOf(uint256)":"6352211e","pause()":"8456cb59","paused()":"5c975abb","renounceOwnership()":"715018a6","renounceRole(bytes32,address)":"36568abe","revokeRole(bytes32,address)":"d547741f","royalties(uint256)":"7f77f574","royaltyInfo(uint256,uint256)":"2a55205a","safeTransferFrom(address,address,uint256)":"42842e0e","safeTransferFrom(address,address,uint256,bytes)":"b88d4fde","setApprovalForAll(address,bool)":"a22cb465","setCreator(address,uint256[])":"d2a6b51a","setCustomURI(uint256,string)":"3adf80b4","setTokenRoyalty(uint256,address,uint256)":"9713c807","supportsInterface(bytes4)":"01ffc9a7","symbol()":"95d89b41","tokenByIndex(uint256)":"4f6ccce7","tokenOfOwnerByIndex(address,uint256)":"2f745c59","tokenURI(uint256)":"c87b56dd","totalSupply()":"18160ddd","transferFrom(address,address,uint256)":"23b872dd","transferOwnership(address)":"f2fde38b","unpause()":"3f4ba83a","updateTraits(((string,string[],uint256,string)[]))":"81d22564"}},"storageLayout":{"storage":[{"astId":336,"contract":"contracts/nft/GenerativeNFT.sol:GenerativeNFT","label":"_roles","offset":0,"slot":"0","type":"t_mapping(t_bytes32,t_struct(RoleData)331_storage)"},{"astId":650,"contract":"contracts/nft/GenerativeNFT.sol:GenerativeNFT","label":"_roleMembers","offset":0,"slot":"1","type":"t_mapping(t_bytes32,t_struct(AddressSet)3751_storage)"},{"astId":1160,"contract":"contracts/nft/GenerativeNFT.sol:GenerativeNFT","label":"_name","offset":0,"slot":"2","type":"t_string_storage"},{"astId":1162,"contract":"contracts/nft/GenerativeNFT.sol:GenerativeNFT","label":"_symbol","offset":0,"slot":"3","type":"t_string_storage"},{"astId":1166,"contract":"contracts/nft/GenerativeNFT.sol:GenerativeNFT","label":"_owners","offset":0,"slot":"4","type":"t_mapping(t_uint256,t_address)"},{"astId":1170,"contract":"contracts/nft/GenerativeNFT.sol:GenerativeNFT","label":"_balances","offset":0,"slot":"5","type":"t_mapping(t_address,t_uint256)"},{"astId":1174,"contract":"contracts/nft/GenerativeNFT.sol:GenerativeNFT","label":"_tokenApprovals","offset":0,"slot":"6","type":"t_mapping(t_uint256,t_address)"},{"astId":1180,"contract":"contracts/nft/GenerativeNFT.sol:GenerativeNFT","label":"_operatorApprovals","offset":0,"slot":"7","type":"t_mapping(t_address,t_mapping(t_address,t_bool))"},{"astId":2180,"contract":"contracts/nft/GenerativeNFT.sol:GenerativeNFT","label":"_ownedTokens","offset":0,"slot":"8","type":"t_mapping(t_address,t_mapping(t_uint256,t_uint256))"},{"astId":2184,"contract":"contracts/nft/GenerativeNFT.sol:GenerativeNFT","label":"_ownedTokensIndex","offset":0,"slot":"9","type":"t_mapping(t_uint256,t_uint256)"},{"astId":2187,"contract":"contracts/nft/GenerativeNFT.sol:GenerativeNFT","label":"_allTokens","offset":0,"slot":"10","type":"t_array(t_uint256)dyn_storage"},{"astId":2191,"contract":"contracts/nft/GenerativeNFT.sol:GenerativeNFT","label":"_allTokensIndex","offset":0,"slot":"11","type":"t_mapping(t_uint256,t_uint256)"},{"astId":1004,"contract":"contracts/nft/GenerativeNFT.sol:GenerativeNFT","label":"_paused","offset":0,"slot":"12","type":"t_bool"},{"astId":2635,"contract":"contracts/nft/GenerativeNFT.sol:GenerativeNFT","label":"_tokenIdTracker","offset":0,"slot":"13","type":"t_struct(Counter)3109_storage"},{"astId":2637,"contract":"contracts/nft/GenerativeNFT.sol:GenerativeNFT","label":"_baseTokenURI","offset":0,"slot":"14","type":"t_string_storage"},{"astId":1105,"contract":"contracts/nft/GenerativeNFT.sol:GenerativeNFT","label":"_status","offset":0,"slot":"15","type":"t_uint256"},{"astId":862,"contract":"contracts/nft/GenerativeNFT.sol:GenerativeNFT","label":"_owner","offset":0,"slot":"16","type":"t_address"},{"astId":4319,"contract":"contracts/nft/GenerativeNFT.sol:GenerativeNFT","label":"_nextTokenId","offset":0,"slot":"17","type":"t_struct(Counter)3109_storage"},{"astId":4321,"contract":"contracts/nft/GenerativeNFT.sol:GenerativeNFT","label":"_admin","offset":0,"slot":"18","type":"t_address"},{"astId":4323,"contract":"contracts/nft/GenerativeNFT.sol:GenerativeNFT","label":"_boilerplateAddr","offset":0,"slot":"19","type":"t_address"},{"astId":4325,"contract":"contracts/nft/GenerativeNFT.sol:GenerativeNFT","label":"_boilerplateId","offset":0,"slot":"20","type":"t_uint256"},{"astId":4330,"contract":"contracts/nft/GenerativeNFT.sol:GenerativeNFT","label":"_paramsValues","offset":0,"slot":"21","type":"t_mapping(t_uint256,t_struct(ParamsOfProject)4152_storage)"},{"astId":4333,"contract":"contracts/nft/GenerativeNFT.sol:GenerativeNFT","label":"_traits","offset":0,"slot":"22","type":"t_struct(Traits)4287_storage"},{"astId":4337,"contract":"contracts/nft/GenerativeNFT.sol:GenerativeNFT","label":"_customUri","offset":0,"slot":"23","type":"t_mapping(t_uint256,t_string_storage)"},{"astId":4341,"contract":"contracts/nft/GenerativeNFT.sol:GenerativeNFT","label":"_creators","offset":0,"slot":"24","type":"t_mapping(t_uint256,t_address)"},{"astId":4343,"contract":"contracts/nft/GenerativeNFT.sol:GenerativeNFT","label":"_nameColl","offset":0,"slot":"25","type":"t_string_storage"},{"astId":4345,"contract":"contracts/nft/GenerativeNFT.sol:GenerativeNFT","label":"_symbolColl","offset":0,"slot":"26","type":"t_string_storage"},{"astId":5096,"contract":"contracts/nft/GenerativeNFT.sol:GenerativeNFT","label":"royalties","offset":0,"slot":"27","type":"t_mapping(t_uint256,t_struct(RoyaltyInfo)5091_storage)"}],"types":{"t_address":{"encoding":"inplace","label":"address","numberOfBytes":"20"},"t_array(t_bytes32)dyn_storage":{"base":"t_bytes32","encoding":"dynamic_array","label":"bytes32[]","numberOfBytes":"32"},"t_array(t_string_storage)dyn_storage":{"base":"t_string_storage","encoding":"dynamic_array","label":"string[]","numberOfBytes":"32"},"t_array(t_struct(ParamTemplate)4145_storage)dyn_storage":{"base":"t_struct(ParamTemplate)4145_storage","encoding":"dynamic_array","label":"struct BoilerplateParam.ParamTemplate[]","numberOfBytes":"32"},"t_array(t_struct(Trait)4282_storage)dyn_storage":{"base":"t_struct(Trait)4282_storage","encoding":"dynamic_array","label":"struct TraitInfo.Trait[]","numberOfBytes":"32"},"t_array(t_uint256)dyn_storage":{"base":"t_uint256","encoding":"dynamic_array","label":"uint256[]","numberOfBytes":"32"},"t_bool":{"encoding":"inplace","label":"bool","numberOfBytes":"1"},"t_bytes32":{"encoding":"inplace","label":"bytes32","numberOfBytes":"32"},"t_mapping(t_address,t_bool)":{"encoding":"mapping","key":"t_address","label":"mapping(address => bool)","numberOfBytes":"32","value":"t_bool"},"t_mapping(t_address,t_mapping(t_address,t_bool))":{"encoding":"mapping","key":"t_address","label":"mapping(address => mapping(address => bool))","numberOfBytes":"32","value":"t_mapping(t_address,t_bool)"},"t_mapping(t_address,t_mapping(t_uint256,t_uint256))":{"encoding":"mapping","key":"t_address","label":"mapping(address => mapping(uint256 => uint256))","numberOfBytes":"32","value":"t_mapping(t_uint256,t_uint256)"},"t_mapping(t_address,t_uint256)":{"encoding":"mapping","key":"t_address","label":"mapping(address => uint256)","numberOfBytes":"32","value":"t_uint256"},"t_mapping(t_bytes32,t_struct(AddressSet)3751_storage)":{"encoding":"mapping","key":"t_bytes32","label":"mapping(bytes32 => struct EnumerableSet.AddressSet)","numberOfBytes":"32","value":"t_struct(AddressSet)3751_storage"},"t_mapping(t_bytes32,t_struct(RoleData)331_storage)":{"encoding":"mapping","key":"t_bytes32","label":"mapping(bytes32 => struct AccessControl.RoleData)","numberOfBytes":"32","value":"t_struct(RoleData)331_storage"},"t_mapping(t_bytes32,t_uint256)":{"encoding":"mapping","key":"t_bytes32","label":"mapping(bytes32 => uint256)","numberOfBytes":"32","value":"t_uint256"},"t_mapping(t_uint256,t_address)":{"encoding":"mapping","key":"t_uint256","label":"mapping(uint256 => address)","numberOfBytes":"32","value":"t_address"},"t_mapping(t_uint256,t_string_storage)":{"encoding":"mapping","key":"t_uint256","label":"mapping(uint256 => string)","numberOfBytes":"32","value":"t_string_storage"},"t_mapping(t_uint256,t_struct(ParamsOfProject)4152_storage)":{"encoding":"mapping","key":"t_uint256","label":"mapping(uint256 => struct BoilerplateParam.ParamsOfProject)","numberOfBytes":"32","value":"t_struct(ParamsOfProject)4152_storage"},"t_mapping(t_uint256,t_struct(RoyaltyInfo)5091_storage)":{"encoding":"mapping","key":"t_uint256","label":"mapping(uint256 => struct GenerativeNFT.RoyaltyInfo)","numberOfBytes":"32","value":"t_struct(RoyaltyInfo)5091_storage"},"t_mapping(t_uint256,t_uint256)":{"encoding":"mapping","key":"t_uint256","label":"mapping(uint256 => uint256)","numberOfBytes":"32","value":"t_uint256"},"t_string_storage":{"encoding":"bytes","label":"string","numberOfBytes":"32"},"t_struct(AddressSet)3751_storage":{"encoding":"inplace","label":"struct EnumerableSet.AddressSet","members":[{"astId":3750,"contract":"contracts/nft/GenerativeNFT.sol:GenerativeNFT","label":"_inner","offset":0,"slot":"0","type":"t_struct(Set)3450_storage"}],"numberOfBytes":"64"},"t_struct(Counter)3109_storage":{"encoding":"inplace","label":"struct Counters.Counter","members":[{"astId":3108,"contract":"contracts/nft/GenerativeNFT.sol:GenerativeNFT","label":"_value","offset":0,"slot":"0","type":"t_uint256"}],"numberOfBytes":"32"},"t_struct(ParamTemplate)4145_storage":{"encoding":"inplace","label":"struct BoilerplateParam.ParamTemplate","members":[{"astId":4131,"contract":"contracts/nft/GenerativeNFT.sol:GenerativeNFT","label":"_typeValue","offset":0,"slot":"0","type":"t_uint8"},{"astId":4133,"contract":"contracts/nft/GenerativeNFT.sol:GenerativeNFT","label":"_max","offset":0,"slot":"1","type":"t_uint256"},{"astId":4135,"contract":"contracts/nft/GenerativeNFT.sol:GenerativeNFT","label":"_min","offset":0,"slot":"2","type":"t_uint256"},{"astId":4137,"contract":"contracts/nft/GenerativeNFT.sol:GenerativeNFT","label":"_decimal","offset":0,"slot":"3","type":"t_uint8"},{"astId":4140,"contract":"contracts/nft/GenerativeNFT.sol:GenerativeNFT","label":"_availableValues","offset":0,"slot":"4","type":"t_array(t_string_storage)dyn_storage"},{"astId":4142,"contract":"contracts/nft/GenerativeNFT.sol:GenerativeNFT","label":"_value","offset":0,"slot":"5","type":"t_uint256"},{"astId":4144,"contract":"contracts/nft/GenerativeNFT.sol:GenerativeNFT","label":"_editable","offset":0,"slot":"6","type":"t_bool"}],"numberOfBytes":"224"},"t_struct(ParamsOfProject)4152_storage":{"encoding":"inplace","label":"struct BoilerplateParam.ParamsOfProject","members":[{"astId":4147,"contract":"contracts/nft/GenerativeNFT.sol:GenerativeNFT","label":"_seed","offset":0,"slot":"0","type":"t_bytes32"},{"astId":4151,"contract":"contracts/nft/GenerativeNFT.sol:GenerativeNFT","label":"_params","offset":0,"slot":"1","type":"t_array(t_struct(ParamTemplate)4145_storage)dyn_storage"}],"numberOfBytes":"64"},"t_struct(RoleData)331_storage":{"encoding":"inplace","label":"struct AccessControl.RoleData","members":[{"astId":328,"contract":"contracts/nft/GenerativeNFT.sol:GenerativeNFT","label":"members","offset":0,"slot":"0","type":"t_mapping(t_address,t_bool)"},{"astId":330,"contract":"contracts/nft/GenerativeNFT.sol:GenerativeNFT","label":"adminRole","offset":0,"slot":"1","type":"t_bytes32"}],"numberOfBytes":"64"},"t_struct(RoyaltyInfo)5091_storage":{"encoding":"inplace","label":"struct GenerativeNFT.RoyaltyInfo","members":[{"astId":5086,"contract":"contracts/nft/GenerativeNFT.sol:GenerativeNFT","label":"recipient","offset":0,"slot":"0","type":"t_address"},{"astId":5088,"contract":"contracts/nft/GenerativeNFT.sol:GenerativeNFT","label":"amount","offset":20,"slot":"0","type":"t_uint24"},{"astId":5090,"contract":"contracts/nft/GenerativeNFT.sol:GenerativeNFT","label":"isValue","offset":23,"slot":"0","type":"t_bool"}],"numberOfBytes":"32"},"t_struct(Set)3450_storage":{"encoding":"inplace","label":"struct EnumerableSet.Set","members":[{"astId":3445,"contract":"contracts/nft/GenerativeNFT.sol:GenerativeNFT","label":"_values","offset":0,"slot":"0","type":"t_array(t_bytes32)dyn_storage"},{"astId":3449,"contract":"contracts/nft/GenerativeNFT.sol:GenerativeNFT","label":"_indexes","offset":0,"slot":"1","type":"t_mapping(t_bytes32,t_uint256)"}],"numberOfBytes":"64"},"t_struct(Trait)4282_storage":{"encoding":"inplace","label":"struct TraitInfo.Trait","members":[{"astId":4274,"contract":"contracts/nft/GenerativeNFT.sol:GenerativeNFT","label":"name","offset":0,"slot":"0","type":"t_string_storage"},{"astId":4277,"contract":"contracts/nft/GenerativeNFT.sol:GenerativeNFT","label":"_availableValues","offset":0,"slot":"1","type":"t_array(t_string_storage)dyn_storage"},{"astId":4279,"contract":"contracts/nft/GenerativeNFT.sol:GenerativeNFT","label":"_value","offset":0,"slot":"2","type":"t_uint256"},{"astId":4281,"contract":"contracts/nft/GenerativeNFT.sol:GenerativeNFT","label":"_valueStr","offset":0,"slot":"3","type":"t_string_storage"}],"numberOfBytes":"128"},"t_struct(Traits)4287_storage":{"encoding":"inplace","label":"struct TraitInfo.Traits","members":[{"astId":4286,"contract":"contracts/nft/GenerativeNFT.sol:GenerativeNFT","label":"_traits","offset":0,"slot":"0","type":"t_array(t_struct(Trait)4282_storage)dyn_storage"}],"numberOfBytes":"32"},"t_uint24":{"encoding":"inplace","label":"uint24","numberOfBytes":"3"},"t_uint256":{"encoding":"inplace","label":"uint256","numberOfBytes":"32"},"t_uint8":{"encoding":"inplace","label":"uint8","numberOfBytes":"1"}}}}}}