{
  "_format": "hh-sol-artifact-1",
  "contractName": "GenerativeNFT",
  "sourceName": "contracts/nft/GenerativeNFT.sol",
  "abi": [
    {
      "inputs": [
        {
          "internalType": "string",
          "name": "_name",
          "type": "string"
        },
        {
          "internalType": "string",
          "name": "_symbol",
          "type": "string"
        },
        {
          "internalType": "string",
          "name": "_baseuri",
          "type": "string"
        },
        {
          "internalType": "address",
          "name": "admin",
          "type": "address"
        }
      ],
      "stateMutability": "nonpayable",
      "type": "constructor"
    },
    {
      "anonymous": false,
      "inputs": [
        {
          "indexed": true,
          "internalType": "address",
          "name": "owner",
          "type": "address"
        },
        {
          "indexed": true,
          "internalType": "address",
          "name": "approved",
          "type": "address"
        },
        {
          "indexed": true,
          "internalType": "uint256",
          "name": "tokenId",
          "type": "uint256"
        }
      ],
      "name": "Approval",
      "type": "event"
    },
    {
      "anonymous": false,
      "inputs": [
        {
          "indexed": true,
          "internalType": "address",
          "name": "owner",
          "type": "address"
        },
        {
          "indexed": true,
          "internalType": "address",
          "name": "operator",
          "type": "address"
        },
        {
          "indexed": false,
          "internalType": "bool",
          "name": "approved",
          "type": "bool"
        }
      ],
      "name": "ApprovalForAll",
      "type": "event"
    },
    {
      "anonymous": false,
      "inputs": [
        {
          "indexed": false,
          "internalType": "address",
          "name": "mintTo",
          "type": "address"
        },
        {
          "indexed": false,
          "internalType": "address",
          "name": "creator",
          "type": "address"
        },
        {
          "indexed": false,
          "internalType": "string",
          "name": "uri",
          "type": "string"
        },
        {
          "indexed": false,
          "internalType": "uint256",
          "name": "tokenId",
          "type": "uint256"
        }
      ],
      "name": "MintGenerativeNFT",
      "type": "event"
    },
    {
      "anonymous": false,
      "inputs": [
        {
          "indexed": true,
          "internalType": "address",
          "name": "previousOwner",
          "type": "address"
        },
        {
          "indexed": true,
          "internalType": "address",
          "name": "newOwner",
          "type": "address"
        }
      ],
      "name": "OwnershipTransferred",
      "type": "event"
    },
    {
      "anonymous": false,
      "inputs": [
        {
          "indexed": false,
          "internalType": "address",
          "name": "account",
          "type": "address"
        }
      ],
      "name": "Paused",
      "type": "event"
    },
    {
      "anonymous": false,
      "inputs": [
        {
          "indexed": true,
          "internalType": "bytes32",
          "name": "role",
          "type": "bytes32"
        },
        {
          "indexed": true,
          "internalType": "bytes32",
          "name": "previousAdminRole",
          "type": "bytes32"
        },
        {
          "indexed": true,
          "internalType": "bytes32",
          "name": "newAdminRole",
          "type": "bytes32"
        }
      ],
      "name": "RoleAdminChanged",
      "type": "event"
    },
    {
      "anonymous": false,
      "inputs": [
        {
          "indexed": true,
          "internalType": "bytes32",
          "name": "role",
          "type": "bytes32"
        },
        {
          "indexed": true,
          "internalType": "address",
          "name": "account",
          "type": "address"
        },
        {
          "indexed": true,
          "internalType": "address",
          "name": "sender",
          "type": "address"
        }
      ],
      "name": "RoleGranted",
      "type": "event"
    },
    {
      "anonymous": false,
      "inputs": [
        {
          "indexed": true,
          "internalType": "bytes32",
          "name": "role",
          "type": "bytes32"
        },
        {
          "indexed": true,
          "internalType": "address",
          "name": "account",
          "type": "address"
        },
        {
          "indexed": true,
          "internalType": "address",
          "name": "sender",
          "type": "address"
        }
      ],
      "name": "RoleRevoked",
      "type": "event"
    },
    {
      "anonymous": false,
      "inputs": [
        {
          "indexed": true,
          "internalType": "address",
          "name": "from",
          "type": "address"
        },
        {
          "indexed": true,
          "internalType": "address",
          "name": "to",
          "type": "address"
        },
        {
          "indexed": true,
          "internalType": "uint256",
          "name": "tokenId",
          "type": "uint256"
        }
      ],
      "name": "Transfer",
      "type": "event"
    },
    {
      "anonymous": false,
      "inputs": [
        {
          "indexed": false,
          "internalType": "address",
          "name": "account",
          "type": "address"
        }
      ],
      "name": "Unpaused",
      "type": "event"
    },
    {
      "inputs": [],
      "name": "DEFAULT_ADMIN_ROLE",
      "outputs": [
        {
          "internalType": "bytes32",
          "name": "",
          "type": "bytes32"
        }
      ],
      "stateMutability": "view",
      "type": "function"
    },
    {
      "inputs": [],
      "name": "MINTER_ROLE",
      "outputs": [
        {
          "internalType": "bytes32",
          "name": "",
          "type": "bytes32"
        }
      ],
      "stateMutability": "view",
      "type": "function"
    },
    {
      "inputs": [],
      "name": "PAUSER_ROLE",
      "outputs": [
        {
          "internalType": "bytes32",
          "name": "",
          "type": "bytes32"
        }
      ],
      "stateMutability": "view",
      "type": "function"
    },
    {
      "inputs": [],
      "name": "_admin",
      "outputs": [
        {
          "internalType": "address",
          "name": "",
          "type": "address"
        }
      ],
      "stateMutability": "view",
      "type": "function"
    },
    {
      "inputs": [],
      "name": "_boilerplateAddr",
      "outputs": [
        {
          "internalType": "address",
          "name": "",
          "type": "address"
        }
      ],
      "stateMutability": "view",
      "type": "function"
    },
    {
      "inputs": [],
      "name": "_boilerplateId",
      "outputs": [
        {
          "internalType": "uint256",
          "name": "",
          "type": "uint256"
        }
      ],
      "stateMutability": "view",
      "type": "function"
    },
    {
      "inputs": [
        {
          "internalType": "uint256",
          "name": "",
          "type": "uint256"
        }
      ],
      "name": "_creators",
      "outputs": [
        {
          "internalType": "address",
          "name": "",
          "type": "address"
        }
      ],
      "stateMutability": "view",
      "type": "function"
    },
    {
      "inputs": [
        {
          "internalType": "uint256",
          "name": "",
          "type": "uint256"
        }
      ],
      "name": "_paramsValues",
      "outputs": [
        {
          "internalType": "bytes32",
          "name": "_seed",
          "type": "bytes32"
        }
      ],
      "stateMutability": "view",
      "type": "function"
    },
    {
      "inputs": [
        {
          "internalType": "address",
          "name": "to",
          "type": "address"
        },
        {
          "internalType": "uint256",
          "name": "tokenId",
          "type": "uint256"
        }
      ],
      "name": "approve",
      "outputs": [],
      "stateMutability": "nonpayable",
      "type": "function"
    },
    {
      "inputs": [
        {
          "internalType": "address",
          "name": "owner",
          "type": "address"
        }
      ],
      "name": "balanceOf",
      "outputs": [
        {
          "internalType": "uint256",
          "name": "",
          "type": "uint256"
        }
      ],
      "stateMutability": "view",
      "type": "function"
    },
    {
      "inputs": [],
      "name": "baseTokenURI",
      "outputs": [
        {
          "internalType": "string",
          "name": "",
          "type": "string"
        }
      ],
      "stateMutability": "view",
      "type": "function"
    },
    {
      "inputs": [
        {
          "internalType": "uint256",
          "name": "tokenId",
          "type": "uint256"
        }
      ],
      "name": "burn",
      "outputs": [],
      "stateMutability": "nonpayable",
      "type": "function"
    },
    {
      "inputs": [
        {
          "internalType": "address",
          "name": "_newAdmin",
          "type": "address"
        }
      ],
      "name": "changeAdmin",
      "outputs": [],
      "stateMutability": "nonpayable",
      "type": "function"
    },
    {
      "inputs": [
        {
          "internalType": "address",
          "name": "newBoilerplate",
          "type": "address"
        },
        {
          "internalType": "uint256",
          "name": "newBoilerplateId",
          "type": "uint256"
        }
      ],
      "name": "changeBoilerplate",
      "outputs": [],
      "stateMutability": "nonpayable",
      "type": "function"
    },
    {
      "inputs": [
        {
          "internalType": "uint256",
          "name": "tokenId",
          "type": "uint256"
        }
      ],
      "name": "getApproved",
      "outputs": [
        {
          "internalType": "address",
          "name": "",
          "type": "address"
        }
      ],
      "stateMutability": "view",
      "type": "function"
    },
    {
      "inputs": [
        {
          "internalType": "uint256",
          "name": "tokenId",
          "type": "uint256"
        }
      ],
      "name": "getParamValues",
      "outputs": [
        {
          "internalType": "bytes32",
          "name": "",
          "type": "bytes32"
        },
        {
          "components": [
            {
              "internalType": "uint8",
              "name": "_typeValue",
              "type": "uint8"
            },
            {
              "internalType": "uint256",
              "name": "_max",
              "type": "uint256"
            },
            {
              "internalType": "uint256",
              "name": "_min",
              "type": "uint256"
            },
            {
              "internalType": "uint8",
              "name": "_decimal",
              "type": "uint8"
            },
            {
              "internalType": "string[]",
              "name": "_availableValues",
              "type": "string[]"
            },
            {
              "internalType": "uint256",
              "name": "_value",
              "type": "uint256"
            },
            {
              "internalType": "bool",
              "name": "_editable",
              "type": "bool"
            }
          ],
          "internalType": "struct BoilerplateParam.ParamTemplate[]",
          "name": "",
          "type": "tuple[]"
        }
      ],
      "stateMutability": "view",
      "type": "function"
    },
    {
      "inputs": [
        {
          "internalType": "bytes32",
          "name": "role",
          "type": "bytes32"
        }
      ],
      "name": "getRoleAdmin",
      "outputs": [
        {
          "internalType": "bytes32",
          "name": "",
          "type": "bytes32"
        }
      ],
      "stateMutability": "view",
      "type": "function"
    },
    {
      "inputs": [
        {
          "internalType": "bytes32",
          "name": "role",
          "type": "bytes32"
        },
        {
          "internalType": "uint256",
          "name": "index",
          "type": "uint256"
        }
      ],
      "name": "getRoleMember",
      "outputs": [
        {
          "internalType": "address",
          "name": "",
          "type": "address"
        }
      ],
      "stateMutability": "view",
      "type": "function"
    },
    {
      "inputs": [
        {
          "internalType": "bytes32",
          "name": "role",
          "type": "bytes32"
        }
      ],
      "name": "getRoleMemberCount",
      "outputs": [
        {
          "internalType": "uint256",
          "name": "",
          "type": "uint256"
        }
      ],
      "stateMutability": "view",
      "type": "function"
    },
    {
      "inputs": [
        {
          "internalType": "uint256",
          "name": "tokenId",
          "type": "uint256"
        }
      ],
      "name": "getTokenTraits",
      "outputs": [
        {
          "components": [
            {
              "internalType": "string",
              "name": "name",
              "type": "string"
            },
            {
              "internalType": "string[]",
              "name": "_availableValues",
              "type": "string[]"
            },
            {
              "internalType": "uint256",
              "name": "_value",
              "type": "uint256"
            },
            {
              "internalType": "string",
              "name": "_valueStr",
              "type": "string"
            }
          ],
          "internalType": "struct TraitInfo.Trait[]",
          "name": "",
          "type": "tuple[]"
        }
      ],
      "stateMutability": "view",
      "type": "function"
    },
    {
      "inputs": [],
      "name": "getTraits",
      "outputs": [
        {
          "components": [
            {
              "internalType": "string",
              "name": "name",
              "type": "string"
            },
            {
              "internalType": "string[]",
              "name": "_availableValues",
              "type": "string[]"
            },
            {
              "internalType": "uint256",
              "name": "_value",
              "type": "uint256"
            },
            {
              "internalType": "string",
              "name": "_valueStr",
              "type": "string"
            }
          ],
          "internalType": "struct TraitInfo.Trait[]",
          "name": "",
          "type": "tuple[]"
        }
      ],
      "stateMutability": "view",
      "type": "function"
    },
    {
      "inputs": [
        {
          "internalType": "bytes32",
          "name": "role",
          "type": "bytes32"
        },
        {
          "internalType": "address",
          "name": "account",
          "type": "address"
        }
      ],
      "name": "grantRole",
      "outputs": [],
      "stateMutability": "nonpayable",
      "type": "function"
    },
    {
      "inputs": [
        {
          "internalType": "bytes32",
          "name": "role",
          "type": "bytes32"
        },
        {
          "internalType": "address",
          "name": "account",
          "type": "address"
        }
      ],
      "name": "hasRole",
      "outputs": [
        {
          "internalType": "bool",
          "name": "",
          "type": "bool"
        }
      ],
      "stateMutability": "view",
      "type": "function"
    },
    {
      "inputs": [
        {
          "internalType": "string",
          "name": "name",
          "type": "string"
        },
        {
          "internalType": "string",
          "name": "symbol",
          "type": "string"
        },
        {
          "internalType": "address",
          "name": "admin",
          "type": "address"
        },
        {
          "internalType": "address",
          "name": "boilerplateAdd",
          "type": "address"
        },
        {
          "internalType": "uint256",
          "name": "boilerplateId",
          "type": "uint256"
        }
      ],
      "name": "init",
      "outputs": [],
      "stateMutability": "nonpayable",
      "type": "function"
    },
    {
      "inputs": [
        {
          "internalType": "address",
          "name": "owner",
          "type": "address"
        },
        {
          "internalType": "address",
          "name": "operator",
          "type": "address"
        }
      ],
      "name": "isApprovedForAll",
      "outputs": [
        {
          "internalType": "bool",
          "name": "",
          "type": "bool"
        }
      ],
      "stateMutability": "view",
      "type": "function"
    },
    {
      "inputs": [
        {
          "internalType": "address",
          "name": "mintTo",
          "type": "address"
        },
        {
          "internalType": "address",
          "name": "creator",
          "type": "address"
        },
        {
          "internalType": "string",
          "name": "uri",
          "type": "string"
        },
        {
          "components": [
            {
              "internalType": "bytes32",
              "name": "_seed",
              "type": "bytes32"
            },
            {
              "internalType": "uint256[]",
              "name": "_value",
              "type": "uint256[]"
            }
          ],
          "internalType": "struct BoilerplateParam.ParamsOfNFT",
          "name": "_paramsTemplateValue",
          "type": "tuple"
        }
      ],
      "name": "mint",
      "outputs": [],
      "stateMutability": "nonpayable",
      "type": "function"
    },
    {
      "inputs": [
        {
          "internalType": "address",
          "name": "to",
          "type": "address"
        }
      ],
      "name": "mint",
      "outputs": [],
      "stateMutability": "nonpayable",
      "type": "function"
    },
    {
      "inputs": [],
      "name": "name",
      "outputs": [
        {
          "internalType": "string",
          "name": "",
          "type": "string"
        }
      ],
      "stateMutability": "view",
      "type": "function"
    },
    {
      "inputs": [],
      "name": "owner",
      "outputs": [
        {
          "internalType": "address",
          "name": "",
          "type": "address"
        }
      ],
      "stateMutability": "view",
      "type": "function"
    },
    {
      "inputs": [
        {
          "internalType": "uint256",
          "name": "tokenId",
          "type": "uint256"
        }
      ],
      "name": "ownerOf",
      "outputs": [
        {
          "internalType": "address",
          "name": "",
          "type": "address"
        }
      ],
      "stateMutability": "view",
      "type": "function"
    },
    {
      "inputs": [],
      "name": "pause",
      "outputs": [],
      "stateMutability": "nonpayable",
      "type": "function"
    },
    {
      "inputs": [],
      "name": "paused",
      "outputs": [
        {
          "internalType": "bool",
          "name": "",
          "type": "bool"
        }
      ],
      "stateMutability": "view",
      "type": "function"
    },
    {
      "inputs": [],
      "name": "renounceOwnership",
      "outputs": [],
      "stateMutability": "nonpayable",
      "type": "function"
    },
    {
      "inputs": [
        {
          "internalType": "bytes32",
          "name": "role",
          "type": "bytes32"
        },
        {
          "internalType": "address",
          "name": "account",
          "type": "address"
        }
      ],
      "name": "renounceRole",
      "outputs": [],
      "stateMutability": "nonpayable",
      "type": "function"
    },
    {
      "inputs": [
        {
          "internalType": "bytes32",
          "name": "role",
          "type": "bytes32"
        },
        {
          "internalType": "address",
          "name": "account",
          "type": "address"
        }
      ],
      "name": "revokeRole",
      "outputs": [],
      "stateMutability": "nonpayable",
      "type": "function"
    },
    {
      "inputs": [
        {
          "internalType": "uint256",
          "name": "",
          "type": "uint256"
        }
      ],
      "name": "royalties",
      "outputs": [
        {
          "internalType": "address",
          "name": "recipient",
          "type": "address"
        },
        {
          "internalType": "uint24",
          "name": "amount",
          "type": "uint24"
        },
        {
          "internalType": "bool",
          "name": "isValue",
          "type": "bool"
        }
      ],
      "stateMutability": "view",
      "type": "function"
    },
    {
      "inputs": [
        {
          "internalType": "uint256",
          "name": "_tokenId",
          "type": "uint256"
        },
        {
          "internalType": "uint256",
          "name": "_salePrice",
          "type": "uint256"
        }
      ],
      "name": "royaltyInfo",
      "outputs": [
        {
          "internalType": "address",
          "name": "receiver",
          "type": "address"
        },
        {
          "internalType": "uint256",
          "name": "royaltyAmount",
          "type": "uint256"
        }
      ],
      "stateMutability": "view",
      "type": "function"
    },
    {
      "inputs": [
        {
          "internalType": "address",
          "name": "from",
          "type": "address"
        },
        {
          "internalType": "address",
          "name": "to",
          "type": "address"
        },
        {
          "internalType": "uint256",
          "name": "tokenId",
          "type": "uint256"
        }
      ],
      "name": "safeTransferFrom",
      "outputs": [],
      "stateMutability": "nonpayable",
      "type": "function"
    },
    {
      "inputs": [
        {
          "internalType": "address",
          "name": "from",
          "type": "address"
        },
        {
          "internalType": "address",
          "name": "to",
          "type": "address"
        },
        {
          "internalType": "uint256",
          "name": "tokenId",
          "type": "uint256"
        },
        {
          "internalType": "bytes",
          "name": "data",
          "type": "bytes"
        }
      ],
      "name": "safeTransferFrom",
      "outputs": [],
      "stateMutability": "nonpayable",
      "type": "function"
    },
    {
      "inputs": [
        {
          "internalType": "address",
          "name": "operator",
          "type": "address"
        },
        {
          "internalType": "bool",
          "name": "approved",
          "type": "bool"
        }
      ],
      "name": "setApprovalForAll",
      "outputs": [],
      "stateMutability": "nonpayable",
      "type": "function"
    },
    {
      "inputs": [
        {
          "internalType": "address",
          "name": "_to",
          "type": "address"
        },
        {
          "internalType": "uint256[]",
          "name": "_ids",
          "type": "uint256[]"
        }
      ],
      "name": "setCreator",
      "outputs": [],
      "stateMutability": "nonpayable",
      "type": "function"
    },
    {
      "inputs": [
        {
          "internalType": "uint256",
          "name": "_tokenId",
          "type": "uint256"
        },
        {
          "internalType": "string",
          "name": "_newURI",
          "type": "string"
        }
      ],
      "name": "setCustomURI",
      "outputs": [],
      "stateMutability": "nonpayable",
      "type": "function"
    },
    {
      "inputs": [
        {
          "internalType": "uint256",
          "name": "_tokenId",
          "type": "uint256"
        },
        {
          "internalType": "address",
          "name": "_recipient",
          "type": "address"
        },
        {
          "internalType": "uint256",
          "name": "_value",
          "type": "uint256"
        }
      ],
      "name": "setTokenRoyalty",
      "outputs": [],
      "stateMutability": "nonpayable",
      "type": "function"
    },
    {
      "inputs": [
        {
          "internalType": "bytes4",
          "name": "interfaceId",
          "type": "bytes4"
        }
      ],
      "name": "supportsInterface",
      "outputs": [
        {
          "internalType": "bool",
          "name": "",
          "type": "bool"
        }
      ],
      "stateMutability": "view",
      "type": "function"
    },
    {
      "inputs": [],
      "name": "symbol",
      "outputs": [
        {
          "internalType": "string",
          "name": "",
          "type": "string"
        }
      ],
      "stateMutability": "view",
      "type": "function"
    },
    {
      "inputs": [
        {
          "internalType": "uint256",
          "name": "index",
          "type": "uint256"
        }
      ],
      "name": "tokenByIndex",
      "outputs": [
        {
          "internalType": "uint256",
          "name": "",
          "type": "uint256"
        }
      ],
      "stateMutability": "view",
      "type": "function"
    },
    {
      "inputs": [
        {
          "internalType": "address",
          "name": "owner",
          "type": "address"
        },
        {
          "internalType": "uint256",
          "name": "index",
          "type": "uint256"
        }
      ],
      "name": "tokenOfOwnerByIndex",
      "outputs": [
        {
          "internalType": "uint256",
          "name": "",
          "type": "uint256"
        }
      ],
      "stateMutability": "view",
      "type": "function"
    },
    {
      "inputs": [
        {
          "internalType": "uint256",
          "name": "_tokenId",
          "type": "uint256"
        }
      ],
      "name": "tokenURI",
      "outputs": [
        {
          "internalType": "string",
          "name": "",
          "type": "string"
        }
      ],
      "stateMutability": "view",
      "type": "function"
    },
    {
      "inputs": [],
      "name": "totalSupply",
      "outputs": [
        {
          "internalType": "uint256",
          "name": "",
          "type": "uint256"
        }
      ],
      "stateMutability": "view",
      "type": "function"
    },
    {
      "inputs": [
        {
          "internalType": "address",
          "name": "from",
          "type": "address"
        },
        {
          "internalType": "address",
          "name": "to",
          "type": "address"
        },
        {
          "internalType": "uint256",
          "name": "tokenId",
          "type": "uint256"
        }
      ],
      "name": "transferFrom",
      "outputs": [],
      "stateMutability": "nonpayable",
      "type": "function"
    },
    {
      "inputs": [
        {
          "internalType": "address",
          "name": "newOwner",
          "type": "address"
        }
      ],
      "name": "transferOwnership",
      "outputs": [],
      "stateMutability": "nonpayable",
      "type": "function"
    },
    {
      "inputs": [],
      "name": "unpause",
      "outputs": [],
      "stateMutability": "nonpayable",
      "type": "function"
    },
    {
      "inputs": [
        {
          "components": [
            {
              "components": [
                {
                  "internalType": "string",
                  "name": "name",
                  "type": "string"
                },
                {
                  "internalType": "string[]",
                  "name": "_availableValues",
                  "type": "string[]"
                },
                {
                  "internalType": "uint256",
                  "name": "_value",
                  "type": "uint256"
                },
                {
                  "internalType": "string",
                  "name": "_valueStr",
                  "type": "string"
                }
              ],
              "internalType": "struct TraitInfo.Trait[]",
              "name": "_traits",
              "type": "tuple[]"
            }
          ],
          "internalType": "struct TraitInfo.Traits",
          "name": "traits",
          "type": "tuple"
        }
      ],
      "name": "updateTraits",
      "outputs": [],
      "stateMutability": "nonpayable",
      "type": "function"
    }
  ],
  "bytecode": "0x60806040523480156200001157600080fd5b5060405162004f8038038062004f80833981016040819052620000349162000456565b8383838282816002908051906020019062000051929190620002e3565b50805162000067906003906020840190620002e3565b5050600c805460ff191690555080516200008990600e906020840190620002e3565b50620000976000336200012c565b620000c37f9f2df0fed2c77648de5860a4cc508cd0818c85b8b8a1ab4ceeef8d981c8956a6336200012c565b620000ef7f65d7a28e3265b37a6474929f336521b332c1681b933f6cb9f3376673440d862a336200012c565b50506001600f555062000102336200013c565b601280546001600160a01b0319166001600160a01b03929092169190911790555062000546915050565b6200013882826200018e565b5050565b601080546001600160a01b038381166001600160a01b0319831681179093556040519116919082907f8be0079c531659141344cd1fd0a4f28419497f9722a3daafe3b4186f6b6457e090600090a35050565b620001a58282620001d160201b6200229a1760201c565b6000828152600160209081526040909120620001cc9183906200231e62000271821b17901c565b505050565b6000828152602081815260408083206001600160a01b038516845290915290205460ff1662000138576000828152602081815260408083206001600160a01b03851684529091529020805460ff191660011790556200022d3390565b6001600160a01b0316816001600160a01b0316837f2f8788117e7eff1d82e926ec794901d17c78024a50270940304540a733656f0d60405160405180910390a45050565b600062000288836001600160a01b03841662000291565b90505b92915050565b6000818152600183016020526040812054620002da575081546001818101845560008481526020808220909301849055845484825282860190935260409020919091556200028b565b5060006200028b565b828054620002f19062000509565b90600052602060002090601f01602090048101928262000315576000855562000360565b82601f106200033057805160ff191683800117855562000360565b8280016001018555821562000360579182015b828111156200036057825182559160200191906001019062000343565b506200036e92915062000372565b5090565b5b808211156200036e576000815560010162000373565b634e487b7160e01b600052604160045260246000fd5b600082601f830112620003b157600080fd5b81516001600160401b0380821115620003ce57620003ce62000389565b604051601f8301601f19908116603f01168101908282118183101715620003f957620003f962000389565b816040528381526020925086838588010111156200041657600080fd5b600091505b838210156200043a57858201830151818301840152908201906200041b565b838211156200044c5760008385830101525b9695505050505050565b600080600080608085870312156200046d57600080fd5b84516001600160401b03808211156200048557600080fd5b62000493888389016200039f565b95506020870151915080821115620004aa57600080fd5b620004b8888389016200039f565b94506040870151915080821115620004cf57600080fd5b50620004de878288016200039f565b606087015190935090506001600160a01b0381168114620004fe57600080fd5b939692955090935050565b600181811c908216806200051e57607f821691505b602082108114156200054057634e487b7160e01b600052602260045260246000fd5b50919050565b614a2a80620005566000396000f3fe608060405234801561001057600080fd5b50600436106103275760003560e01c80637f0429ef116101b8578063a22cb46511610104578063d5391393116100a2578063e63ab1e91161007c578063e63ab1e914610769578063e985e9c51461077e578063f2fde38b146107ba578063f9ecc22c146107cd57600080fd5b8063d539139314610739578063d547741f1461074e578063d547cfb71461076157600080fd5b8063c0dca239116100de578063c0dca239146106df578063c87b56dd14610700578063ca15c87314610713578063d2a6b51a1461072657600080fd5b8063a22cb465146106a6578063ae3dd095146106b9578063b88d4fde146106cc57600080fd5b80639010d07c11610171578063953cd2461161014b578063953cd2461461066357806395d89b41146106835780639713c8071461068b578063a217fddf1461069e57600080fd5b80639010d07c1461062a57806391d148541461063d57806394e568471461065057600080fd5b80637f0429ef146105695780637f77f5741461057e57806381d22564146105eb5780638456cb59146105fe5780638da5cb5b146106065780638f2839701461061757600080fd5b80633adf80b4116102775780634f6ccce7116102305780636352211e1161020a5780636352211e1461052a5780636a6278421461053d57806370a082311461054e578063715018a61461056157600080fd5b80634f6ccce714610503578063531f7b53146105165780635c975abb1461051f57600080fd5b80633adf80b4146104865780633f4ba83a1461049957806342842e0e146104a157806342966c68146104b4578063456c9504146104c75780634816edf4146104da57600080fd5b806323b872dd116102e45780632f19212f116102be5780632f19212f1461043a5780632f2ff15d1461044d5780632f745c591461046057806336568abe1461047357600080fd5b806323b872dd146103d2578063248a9ca3146103e55780632a55205a1461040857600080fd5b806301bc45c91461032c57806301ffc9a71461035c57806306fdde031461037f578063081812fc14610394578063095ea7b3146103a757806318160ddd146103bc575b600080fd5b60125461033f906001600160a01b031681565b6040516001600160a01b0390911681526020015b60405180910390f35b61036f61036a3660046137c1565b6107e0565b6040519015158152602001610353565b6103876107f1565b6040516103539190613836565b61033f6103a2366004613849565b610883565b6103ba6103b536600461387e565b6108aa565b005b6103c46109c5565b604051908152602001610353565b6103ba6103e03660046138a8565b6109e1565b6103c46103f3366004613849565b60009081526020819052604090206001015490565b61041b6104163660046138e4565b610a13565b604080516001600160a01b039093168352602083019190915201610353565b6103ba610448366004613aa4565b610ad5565b6103ba61045b366004613b60565b610d06565b6103c461046e36600461387e565b610d2b565b6103ba610481366004613b60565b610dc1565b6103ba610494366004613b8c565b610e3f565b6103ba610ebb565b6103ba6104af3660046138a8565b610f51565b6103ba6104c2366004613849565b610f6c565b6103ba6104d536600461387e565b610f9a565b61033f6104e8366004613849565b6018602052600090815260409020546001600160a01b031681565b6103c4610511366004613849565b61105c565b6103c460145481565b600c5460ff1661036f565b61033f610538366004613849565b6110ef565b6103ba61054b366004613bc8565b50565b6103c461055c366004613bc8565b61114f565b6103ba6111d5565b6105716111e7565b6040516103539190613c38565b6105c061058c366004613849565b601b602052600090815260409020546001600160a01b03811690600160a01b810462ffffff1690600160b81b900460ff1683565b604080516001600160a01b03909416845262ffffff9092166020840152151590820152606001610353565b6103ba6105f9366004613ce4565b611450565b6103ba6114bb565b6012546001600160a01b031661033f565b6103ba610625366004613bc8565b61154d565b61033f6106383660046138e4565b61169b565b61036f61064b366004613b60565b6116ba565b61057161065e366004613849565b6116e3565b6103c4610671366004613849565b60156020526000908152604090205481565b610387611a96565b6103ba610699366004613d1e565b611aa5565b6103c4600081565b6103ba6106b4366004613d51565b611bb6565b6103ba6106c7366004613d88565b611bc1565b6103ba6106da366004613e14565b611ca8565b6106f26106ed366004613849565b611cda565b604051610353929190613e8f565b61038761070e366004613849565b611fb7565b6103c4610721366004613849565b61213d565b6103ba610734366004613f49565b612154565b6103c46000805160206149d583398151915281565b6103ba61075c366004613b60565b6121f5565b61038761221a565b6103c46000805160206149b583398151915281565b61036f61078c366004613f8c565b6001600160a01b03918216600090815260076020908152604080832093909416825291909152205460ff1690565b6103ba6107c8366004613bc8565b612224565b60135461033f906001600160a01b031681565b60006107eb82612333565b92915050565b60606019805461080090613fb6565b80601f016020809104026020016040519081016040528092919081815260200182805461082c90613fb6565b80156108795780601f1061084e57610100808354040283529160200191610879565b820191906000526020600020905b81548152906001019060200180831161085c57829003601f168201915b5050505050905090565b600061088e82612358565b506000908152600660205260409020546001600160a01b031690565b60006108b5826110ef565b9050806001600160a01b0316836001600160a01b031614156109285760405162461bcd60e51b815260206004820152602160248201527f4552433732313a20617070726f76616c20746f2063757272656e74206f776e656044820152603960f91b60648201526084015b60405180910390fd5b336001600160a01b03821614806109445750610944813361078c565b6109b65760405162461bcd60e51b815260206004820152603e60248201527f4552433732313a20617070726f76652063616c6c6572206973206e6f7420746f60448201527f6b656e206f776e6572206e6f7220617070726f76656420666f7220616c6c0000606482015260840161091f565b6109c083836123b7565b505050565b600060016109d260115490565b6109dc9190614001565b905090565b6109ec335b82612425565b610a085760405162461bcd60e51b815260040161091f90614018565b6109c08383836124a4565b6000828152601b60209081526040808320815160608101835290546001600160a01b0381168252600160a01b810462ffffff1693820193909352600160b81b90920460ff1615801591830191909152829190610a97578051602082015190935061271090610a869062ffffff1686614066565b610a90919061409b565b9150610acd565b6000858152601860205260409020546001600160a01b03169250612710610ac0856101f4614066565b610aca919061409b565b91505b509250929050565b60135460408051808201909152600381526206460760eb1b6020820152906001600160a01b03163314610b1b5760405162461bcd60e51b815260040161091f9190613836565b506013546001600160a01b031615801590610b3857506000601454115b6040518060400160405280600381526020016219181960e91b81525090610b725760405162461bcd60e51b815260040161091f9190613836565b50601354601454604051634f558e7960e01b815260048101919091526001600160a01b03909116908190634f558e7990602401602060405180830381865afa158015610bc2573d6000803e3d6000fd5b505050506040513d601f19601f82011682018060405250810190610be691906140ba565b6040518060400160405280600381526020016219181960e91b81525090610c205760405162461bcd60e51b815260040161091f9190613836565b50610c2f601180546001019055565b6000610c3a60115490565b845190915015610c655760008181526017602090815260409091208551610c63928701906136d8565b505b600081815260186020908152604080832080546001600160a01b0319166001600160a01b038a1617905560158252909120845181558482015180518693610cb392600185019291019061375c565b50905050610cc1868261264b565b7fbf83d3c95e3a6b6b6cac45594a672c1d703818ada1304cf6e235fdc0bd6e437186868684604051610cf694939291906140d7565b60405180910390a1505050505050565b600082815260208190526040902060010154610d2181612665565b6109c0838361266f565b6000610d368361114f565b8210610d985760405162461bcd60e51b815260206004820152602b60248201527f455243373231456e756d657261626c653a206f776e657220696e646578206f7560448201526a74206f6620626f756e647360a81b606482015260840161091f565b506001600160a01b03919091166000908152600860209081526040808320938352929052205490565b6001600160a01b0381163314610e315760405162461bcd60e51b815260206004820152602f60248201527f416363657373436f6e74726f6c3a2063616e206f6e6c792072656e6f756e636560448201526e103937b632b9903337b91039b2b63360891b606482015260840161091f565b610e3b8282612691565b5050565b60008281526018602052604090205482906001600160a01b03163314610e965760405162461bcd60e51b815260206004820152600c60248201526b27a7262cafa1a922a0aa27a960a11b604482015260640161091f565b60008381526017602090815260409091208351610eb5928501906136d8565b50505050565b610ed36000805160206149b5833981519152336116ba565b610f47576040805162461bcd60e51b81526020600482015260248101919091527f4552433732315072657365744d696e7465725061757365724175746f49643a2060448201527f6d75737420686176652070617573657220726f6c6520746f20756e7061757365606482015260840161091f565b610f4f6126b3565b565b6109c083838360405180602001604052806000815250611ca8565b610f75336109e6565b610f915760405162461bcd60e51b815260040161091f90614018565b61054b81612705565b6012546001600160a01b0316336001600160a01b031614610fcd5760405162461bcd60e51b815260040161091f90614114565b610fd86000336116ba565b610ff45760405162461bcd60e51b815260040161091f90614114565b60408051808201909152600381526203130360ec1b60208201526001600160a01b0383166110355760405162461bcd60e51b815260040161091f9190613836565b50601380546001600160a01b0319166001600160a01b039390931692909217909155601455565b6000611067600a5490565b82106110ca5760405162461bcd60e51b815260206004820152602c60248201527f455243373231456e756d657261626c653a20676c6f62616c20696e646578206f60448201526b7574206f6620626f756e647360a01b606482015260840161091f565b600a82815481106110dd576110dd614140565b90600052602060002001549050919050565b6000818152600460205260408120546001600160a01b0316806107eb5760405162461bcd60e51b8152602060048201526018602482015277115490cdcc8c4e881a5b9d985b1a59081d1bdad95b88125160421b604482015260640161091f565b60006001600160a01b0382166111b95760405162461bcd60e51b815260206004820152602960248201527f4552433732313a2061646472657373207a65726f206973206e6f7420612076616044820152683634b21037bbb732b960b91b606482015260840161091f565b506001600160a01b031660009081526005602052604090205490565b6111dd6127ac565b610f4f600061282a565b60606016600001805480602002602001604051908101604052809291908181526020016000905b82821015611447578382906000526020600020906004020160405180608001604052908160008201805461124190613fb6565b80601f016020809104026020016040519081016040528092919081815260200182805461126d90613fb6565b80156112ba5780601f1061128f576101008083540402835291602001916112ba565b820191906000526020600020905b81548152906001019060200180831161129d57829003601f168201915b5050505050815260200160018201805480602002602001604051908101604052809291908181526020016000905b8282101561139457838290600052602060002001805461130790613fb6565b80601f016020809104026020016040519081016040528092919081815260200182805461133390613fb6565b80156113805780601f1061135557610100808354040283529160200191611380565b820191906000526020600020905b81548152906001019060200180831161136357829003601f168201915b5050505050815260200190600101906112e8565b505050508152602001600282015481526020016003820180546113b690613fb6565b80601f01602080910402602001604051908101604052809291908181526020018280546113e290613fb6565b801561142f5780601f106114045761010080835404028352916020019161142f565b820191906000526020600020905b81548152906001019060200180831161141257829003601f168201915b5050505050815250508152602001906001019061120e565b50505050905090565b6012546001600160a01b031633148061147357506013546001600160a01b031633145b6040518060400160405280600381526020016231303160e81b815250906114ad5760405162461bcd60e51b815260040161091f9190613836565b508060166109c08282614481565b6114d36000805160206149b5833981519152336116ba565b6115455760405162461bcd60e51b815260206004820152603e60248201527f4552433732315072657365744d696e7465725061757365724175746f49643a2060448201527f6d75737420686176652070617573657220726f6c6520746f2070617573650000606482015260840161091f565b610f4f61287c565b6012546001600160a01b0316336001600160a01b0316146115805760405162461bcd60e51b815260040161091f90614114565b61158b6000336116ba565b6115a75760405162461bcd60e51b815260040161091f90614114565b60408051808201909152600381526203130360ec1b60208201526001600160a01b0382166115e85760405162461bcd60e51b815260040161091f9190613836565b50601280546001600160a01b038381166001600160a01b031983168117909355169061161690600090610d06565b60125461163b906000805160206149d5833981519152906001600160a01b0316610d06565b601254611660906000805160206149b5833981519152906001600160a01b0316610d06565b61166b6000826121f5565b6116836000805160206149d5833981519152826121f5565b610e3b6000805160206149b5833981519152826121f5565b60008281526001602052604081206116b390836128b9565b9392505050565b6000918252602082815260408084206001600160a01b0393909316845291905290205460ff1690565b60606000806116f184611cda565b9150915060006016600001805480602002602001604051908101604052809291908181526020016000905b82821015611955578382906000526020600020906004020160405180608001604052908160008201805461174f90613fb6565b80601f016020809104026020016040519081016040528092919081815260200182805461177b90613fb6565b80156117c85780601f1061179d576101008083540402835291602001916117c8565b820191906000526020600020905b8154815290600101906020018083116117ab57829003601f168201915b5050505050815260200160018201805480602002602001604051908101604052809291908181526020016000905b828210156118a257838290600052602060002001805461181590613fb6565b80601f016020809104026020016040519081016040528092919081815260200182805461184190613fb6565b801561188e5780601f106118635761010080835404028352916020019161188e565b820191906000526020600020905b81548152906001019060200180831161187157829003601f168201915b5050505050815260200190600101906117f6565b505050508152602001600282015481526020016003820180546118c490613fb6565b80601f01602080910402602001604051908101604052809291908181526020018280546118f090613fb6565b801561193d5780601f106119125761010080835404028352916020019161193d565b820191906000526020600020905b81548152906001019060200180831161192057829003601f168201915b5050505050815250508152602001906001019061171c565b505050509050815181511461196c57949350505050565b60005b82518160ff161015611a8d576000838260ff168151811061199257611992614140565b602002602001015160a0015190506000838360ff16815181106119b7576119b7614140565b602002602001015160200151511115611a5357828260ff16815181106119df576119df614140565b60200260200101516020015181815181106119fc576119fc614140565b6020026020010151838360ff1681518110611a1957611a19614140565b60200260200101516060018190525080838360ff1681518110611a3e57611a3e614140565b60200260200101516040018181525050611a7a565b80838360ff1681518110611a6957611a69614140565b602002602001015160400181815250505b5080611a8581614578565b91505061196f565b50949350505050565b6060601a805461080090613fb6565b6012546001600160a01b0316336001600160a01b031614611ad85760405162461bcd60e51b815260040161091f90614114565b611ae36000336116ba565b611aff5760405162461bcd60e51b815260040161091f90614114565b60408051808201909152600381526232303360e81b6020820152612710821115611b3c5760405162461bcd60e51b815260040161091f9190613836565b50604080516060810182526001600160a01b03938416815262ffffff928316602080830191825260018385019081526000978852601b90915292909520905181549551925194166001600160b81b031990951694909417600160a01b91909216021760ff60b81b1916600160b81b91151591909102179055565b610e3b3383836128c5565b6001600160a01b038216611be75760405162461bcd60e51b815260040161091f90614598565b6001600160a01b038316611c0d5760405162461bcd60e51b815260040161091f90614598565b60145415611c475760405162461bcd60e51b815260206004820152600760248201526611561254d5115160ca1b604482015260640161091f565b8451611c5a9060199060208801906136d8565b508351611c6e90601a9060208701906136d8565b50601380546001600160a01b0319166001600160a01b0384161790556014819055611c9883612994565b611ca183612224565b5050505050565b611cb23383612425565b611cce5760405162461bcd60e51b815260040161091f90614018565b610eb584848484612a80565b600060606000601560008581526020019081526020016000206040518060400160405290816000820154815260200160018201805480602002602001604051908101604052809291908181526020018280548015611d5757602002820191906000526020600020905b815481526020019060010190808311611d43575b5050509190925250508151601354601454604051631389a8ab60e21b815294955091936001600160a01b0390911692506000918391634e26a2ac91611da29160040190815260200190565b600060405180830381865afa158015611dbf573d6000803e3d6000fd5b505050506040513d6000823e601f3d908101601f19168201604052611de79190810190614685565b905060005b816020015151811015611fa15781602001518181518110611e0f57611e0f614140565b602002602001015160c00151611ef45781602001518181518110611e3557611e35614140565b6020026020010151608001515160001415611ec557611e9a8460001c83602001518381518110611e6757611e67614140565b60200260200101516040015184602001518481518110611e8957611e89614140565b602002602001015160200151612ab3565b82602001518281518110611eb057611eb0614140565b602002602001015160a0018181525050611f39565b611e9a8460001c83602001518381518110611ee257611ee2614140565b60200260200101516080015151612ade565b84602001518181518110611f0a57611f0a614140565b602002602001015182602001518281518110611f2857611f28614140565b602002602001015160a00181815250505b8382602001518281518110611f5057611f50614140565b602002602001015160a00151604051602001611f76929190918252602082015260400190565b6040516020818303038152906040528051906020012093508080611f99906147f0565b915050611dec565b5092516020909301519296929550919350505050565b600081815260176020526040812080546060929190611fd590613fb6565b80601f016020809104026020016040519081016040528092919081815260200182805461200190613fb6565b801561204e5780601f106120235761010080835404028352916020019161204e565b820191906000526020600020905b81548152906001019060200180831161203157829003601f168201915b505050505090506000815111156120fe576000838152601760205260409020805461207890613fb6565b80601f01602080910402602001604051908101604052809291908181526020018280546120a490613fb6565b80156120f15780601f106120c6576101008083540402835291602001916120f1565b820191906000526020600020905b8154815290600101906020018083116120d457829003601f168201915b5050505050915050919050565b61210661221a565b61210f84612aea565b60405160200161212092919061480b565b604051602081830303815290604052915050919050565b50919050565b60008181526001602052604081206107eb90612be7565b60408051808201909152600381526203130360ec1b60208201526001600160a01b0383166121955760405162461bcd60e51b815260040161091f9190613836565b506121ae6000805160206149d58339815191528361266f565b60005b81518110156109c05760008282815181106121ce576121ce614140565b602002602001015190506121e28482612bf1565b50806121ed816147f0565b9150506121b1565b60008281526020819052604090206001015461221081612665565b6109c08383612691565b60606109dc612c77565b61222c6127ac565b6001600160a01b0381166122915760405162461bcd60e51b815260206004820152602660248201527f4f776e61626c653a206e6577206f776e657220697320746865207a65726f206160448201526564647265737360d01b606482015260840161091f565b61054b8161282a565b6122a482826116ba565b610e3b576000828152602081815260408083206001600160a01b03851684529091529020805460ff191660011790556122da3390565b6001600160a01b0316816001600160a01b0316837f2f8788117e7eff1d82e926ec794901d17c78024a50270940304540a733656f0d60405160405180910390a45050565b60006116b3836001600160a01b038416612c86565b60006001600160e01b0319821663780e9d6360e01b14806107eb57506107eb82612cd5565b6000818152600460205260409020546001600160a01b031661054b5760405162461bcd60e51b8152602060048201526018602482015277115490cdcc8c4e881a5b9d985b1a59081d1bdad95b88125160421b604482015260640161091f565b600081815260066020526040902080546001600160a01b0319166001600160a01b03841690811790915581906123ec826110ef565b6001600160a01b03167f8c5be1e5ebec7d5bd14f71427d1e84f3dd0314c0f7b2291e5b200ac8c7c3b92560405160405180910390a45050565b600080612431836110ef565b9050806001600160a01b0316846001600160a01b0316148061247857506001600160a01b0380821660009081526007602090815260408083209388168352929052205460ff165b8061249c5750836001600160a01b031661249184610883565b6001600160a01b0316145b949350505050565b826001600160a01b03166124b7826110ef565b6001600160a01b03161461251b5760405162461bcd60e51b815260206004820152602560248201527f4552433732313a207472616e736665722066726f6d20696e636f72726563742060448201526437bbb732b960d91b606482015260840161091f565b6001600160a01b03821661257d5760405162461bcd60e51b8152602060048201526024808201527f4552433732313a207472616e7366657220746f20746865207a65726f206164646044820152637265737360e01b606482015260840161091f565b612588838383612d15565b6125936000826123b7565b6001600160a01b03831660009081526005602052604081208054600192906125bc908490614001565b90915550506001600160a01b03821660009081526005602052604081208054600192906125ea90849061483a565b909155505060008181526004602052604080822080546001600160a01b0319166001600160a01b0386811691821790925591518493918716917fddf252ad1be2c89b69c2b068fc378daa952ba7f163c4a11628f55a4df523b3ef91a4505050565b610e3b828260405180602001604052806000815250612d20565b61054b8133612d53565b612679828261229a565b60008281526001602052604090206109c0908261231e565b61269b8282612db7565b60008281526001602052604090206109c09082612e1c565b6126bb612e31565b600c805460ff191690557f5db9ee0a495bf2e6ff9c91a7834c1ba4fdd244a5e8aa4e537bd38aeae4b073aa335b6040516001600160a01b03909116815260200160405180910390a1565b6000612710826110ef565b905061271e81600084612d15565b6127296000836123b7565b6001600160a01b0381166000908152600560205260408120805460019290612752908490614001565b909155505060008281526004602052604080822080546001600160a01b0319169055518391906001600160a01b038416907fddf252ad1be2c89b69c2b068fc378daa952ba7f163c4a11628f55a4df523b3ef908390a45050565b336127bf6012546001600160a01b031690565b6001600160a01b031614806127de57506013546001600160a01b031633145b610f4f5760405162461bcd60e51b815260206004820181905260248201527f4f776e61626c653a2063616c6c6572206973206e6f7420746865206f776e6572604482015260640161091f565b601080546001600160a01b038381166001600160a01b0319831681179093556040519116919082907f8be0079c531659141344cd1fd0a4f28419497f9722a3daafe3b4186f6b6457e090600090a35050565b612884612e7a565b600c805460ff191660011790557f62e78cea01bee320cd4e420270b5ea74000d11b0c9f74754ebdbfc544b05a2586126e83390565b60006116b38383612ec0565b816001600160a01b0316836001600160a01b031614156129275760405162461bcd60e51b815260206004820152601960248201527f4552433732313a20617070726f766520746f2063616c6c657200000000000000604482015260640161091f565b6001600160a01b03838116600081815260076020908152604080832094871680845294825291829020805460ff191686151590811790915591519182527f17307eab39ab6107e8899845ad3d59bd9653f200f220920489ca2b5937696c31910160405180910390a3505050565b6013546001600160a01b031633146129e65760405162461bcd60e51b815260206004820152601560248201527424a72b2fa9a2a72222a92fa4a724aa2fa0a226a4a760591b604482015260640161091f565b6001600160a01b038116612a0c5760405162461bcd60e51b815260040161091f90614598565b601280546001600160a01b0319166001600160a01b038316908117909155612a369060009061266f565b601254612a5b906000805160206149d5833981519152906001600160a01b031661266f565b60125461054b906000805160206149b5833981519152906001600160a01b031661266f565b612a8b8484846124a4565b612a9784848484612eea565b610eb55760405162461bcd60e51b815260040161091f90614852565b6000612abf8383614001565b612aca90600161483a565b612ad490856148a4565b61249c908461483a565b60006116b382846148a4565b606081612b0e5750506040805180820190915260018152600360fc1b602082015290565b8160005b8115612b385780612b22816147f0565b9150612b319050600a8361409b565b9150612b12565b6000816001600160401b03811115612b5257612b52613906565b6040519080825280601f01601f191660200182016040528015612b7c576020820181803683370190505b5090505b841561249c57612b91600183614001565b9150612b9e600a866148a4565b612ba990603061483a565b60f81b818381518110612bbe57612bbe614140565b60200101906001600160f81b031916908160001a905350612be0600a8661409b565b9450612b80565b60006107eb825490565b60008181526018602052604090205481906001600160a01b03163314612c485760405162461bcd60e51b815260206004820152600c60248201526b27a7262cafa1a922a0aa27a960a11b604482015260640161091f565b50600090815260186020526040902080546001600160a01b0319166001600160a01b0392909216919091179055565b6060600e805461080090613fb6565b6000818152600183016020526040812054612ccd575081546001818101845560008481526020808220909301849055845484825282860190935260409020919091556107eb565b5060006107eb565b60006001600160e01b031982166380ac58cd60e01b1480612d0657506001600160e01b03198216635b5e139f60e01b145b806107eb57506107eb82612fe8565b6109c083838361300d565b612d2a838361307f565b612d376000848484612eea565b6109c05760405162461bcd60e51b815260040161091f90614852565b612d5d82826116ba565b610e3b57612d75816001600160a01b031660146131cd565b612d808360206131cd565b604051602001612d919291906148b8565b60408051601f198184030181529082905262461bcd60e51b825261091f91600401613836565b612dc182826116ba565b15610e3b576000828152602081815260408083206001600160a01b0385168085529252808320805460ff1916905551339285917ff6391f5c32d9c69d2a47ea670b442974b53935d1edc7fd64eb21e047a839171b9190a45050565b60006116b3836001600160a01b038416613368565b600c5460ff16610f4f5760405162461bcd60e51b815260206004820152601460248201527314185d5cd8589b194e881b9bdd081c185d5cd95960621b604482015260640161091f565b600c5460ff1615610f4f5760405162461bcd60e51b815260206004820152601060248201526f14185d5cd8589b194e881c185d5cd95960821b604482015260640161091f565b6000826000018281548110612ed757612ed7614140565b9060005260206000200154905092915050565b60006001600160a01b0384163b15612fdd57604051630a85bd0160e11b81526001600160a01b0385169063150b7a0290612f2e90339089908890889060040161492d565b6020604051808303816000875af1925050508015612f69575060408051601f3d908101601f19168201909252612f669181019061496a565b60015b612fc3573d808015612f97576040519150601f19603f3d011682016040523d82523d6000602084013e612f9c565b606091505b508051612fbb5760405162461bcd60e51b815260040161091f90614852565b805181602001fd5b6001600160e01b031916630a85bd0160e11b14905061249c565b506001949350505050565b60006001600160e01b03198216635a05180f60e01b14806107eb57506107eb8261345b565b613018838383613490565b600c5460ff16156109c05760405162461bcd60e51b815260206004820152602b60248201527f4552433732315061757361626c653a20746f6b656e207472616e73666572207760448201526a1a1a5b19481c185d5cd95960aa1b606482015260840161091f565b6001600160a01b0382166130d55760405162461bcd60e51b815260206004820181905260248201527f4552433732313a206d696e7420746f20746865207a65726f2061646472657373604482015260640161091f565b6000818152600460205260409020546001600160a01b03161561313a5760405162461bcd60e51b815260206004820152601c60248201527f4552433732313a20746f6b656e20616c7265616479206d696e74656400000000604482015260640161091f565b61314660008383612d15565b6001600160a01b038216600090815260056020526040812080546001929061316f90849061483a565b909155505060008181526004602052604080822080546001600160a01b0319166001600160a01b03861690811790915590518392907fddf252ad1be2c89b69c2b068fc378daa952ba7f163c4a11628f55a4df523b3ef908290a45050565b606060006131dc836002614066565b6131e790600261483a565b6001600160401b038111156131fe576131fe613906565b6040519080825280601f01601f191660200182016040528015613228576020820181803683370190505b509050600360fc1b8160008151811061324357613243614140565b60200101906001600160f81b031916908160001a905350600f60fb1b8160018151811061327257613272614140565b60200101906001600160f81b031916908160001a9053506000613296846002614066565b6132a190600161483a565b90505b6001811115613319576f181899199a1a9b1b9c1cb0b131b232b360811b85600f16601081106132d5576132d5614140565b1a60f81b8282815181106132eb576132eb614140565b60200101906001600160f81b031916908160001a90535060049490941c9361331281614987565b90506132a4565b5083156116b35760405162461bcd60e51b815260206004820181905260248201527f537472696e67733a20686578206c656e67746820696e73756666696369656e74604482015260640161091f565b6000818152600183016020526040812054801561345157600061338c600183614001565b85549091506000906133a090600190614001565b90508181146134055760008660000182815481106133c0576133c0614140565b90600052602060002001549050808760000184815481106133e3576133e3614140565b6000918252602080832090910192909255918252600188019052604090208390555b85548690806134165761341661499e565b6001900381819060005260206000200160009055905585600101600086815260200190815260200160002060009055600193505050506107eb565b60009150506107eb565b60006001600160e01b03198216637965db0b60e01b14806107eb57506301ffc9a760e01b6001600160e01b03198316146107eb565b6001600160a01b0383166134eb576134e681600a80546000838152600b60205260408120829055600182018355919091527fc65a7bb8d6351c1cf70c95a316cc6a92839c986682d98bc35f958f4883f9d2a80155565b61350e565b816001600160a01b0316836001600160a01b03161461350e5761350e8382613548565b6001600160a01b038216613525576109c0816135e5565b826001600160a01b0316826001600160a01b0316146109c0576109c08282613694565b600060016135558461114f565b61355f9190614001565b6000838152600960205260409020549091508082146135b2576001600160a01b03841660009081526008602090815260408083208584528252808320548484528184208190558352600990915290208190555b5060009182526009602090815260408084208490556001600160a01b039094168352600881528383209183525290812055565b600a546000906135f790600190614001565b6000838152600b6020526040812054600a805493945090928490811061361f5761361f614140565b9060005260206000200154905080600a838154811061364057613640614140565b6000918252602080832090910192909255828152600b9091526040808220849055858252812055600a8054806136785761367861499e565b6001900381819060005260206000200160009055905550505050565b600061369f8361114f565b6001600160a01b039093166000908152600860209081526040808320868452825280832085905593825260099052919091209190915550565b8280546136e490613fb6565b90600052602060002090601f016020900481019282613706576000855561374c565b82601f1061371f57805160ff191683800117855561374c565b8280016001018555821561374c579182015b8281111561374c578251825591602001919060010190613731565b50613758929150613796565b5090565b82805482825590600052602060002090810192821561374c579160200282018281111561374c578251825591602001919060010190613731565b5b808211156137585760008155600101613797565b6001600160e01b03198116811461054b57600080fd5b6000602082840312156137d357600080fd5b81356116b3816137ab565b60005b838110156137f95781810151838201526020016137e1565b83811115610eb55750506000910152565b600081518084526138228160208601602086016137de565b601f01601f19169290920160200192915050565b6020815260006116b3602083018461380a565b60006020828403121561385b57600080fd5b5035919050565b80356001600160a01b038116811461387957600080fd5b919050565b6000806040838503121561389157600080fd5b61389a83613862565b946020939093013593505050565b6000806000606084860312156138bd57600080fd5b6138c684613862565b92506138d460208501613862565b9150604084013590509250925092565b600080604083850312156138f757600080fd5b50508035926020909101359150565b634e487b7160e01b600052604160045260246000fd5b604080519081016001600160401b038111828210171561393e5761393e613906565b60405290565b60405160e081016001600160401b038111828210171561393e5761393e613906565b604051601f8201601f191681016001600160401b038111828210171561398e5761398e613906565b604052919050565b60006001600160401b038211156139af576139af613906565b50601f01601f191660200190565b60006139d06139cb84613996565b613966565b90508281528383830111156139e457600080fd5b828260208301376000602084830101529392505050565b600082601f830112613a0c57600080fd5b6116b3838335602085016139bd565b60006001600160401b03821115613a3457613a34613906565b5060051b60200190565b600082601f830112613a4f57600080fd5b81356020613a5f6139cb83613a1b565b82815260059290921b84018101918181019086841115613a7e57600080fd5b8286015b84811015613a995780358352918301918301613a82565b509695505050505050565b60008060008060808587031215613aba57600080fd5b613ac385613862565b9350613ad160208601613862565b925060408501356001600160401b0380821115613aed57600080fd5b613af9888389016139fb565b93506060870135915080821115613b0f57600080fd5b9086019060408289031215613b2357600080fd5b613b2b61391c565b82358152602083013582811115613b4157600080fd5b613b4d8a828601613a3e565b6020830152509598949750929550505050565b60008060408385031215613b7357600080fd5b82359150613b8360208401613862565b90509250929050565b60008060408385031215613b9f57600080fd5b8235915060208301356001600160401b03811115613bbc57600080fd5b610aca858286016139fb565b600060208284031215613bda57600080fd5b6116b382613862565b600081518084526020808501808196508360051b8101915082860160005b85811015613c2b578284038952613c1984835161380a565b98850198935090840190600101613c01565b5091979650505050505050565b60006020808301818452808551808352604092508286019150828160051b87010184880160005b83811015613cd657603f19898403018552815160808151818652613c858287018261380a565b915050888201518582038a870152613c9d8282613be3565b915050878201518886015260608083015192508582038187015250613cc2818361380a565b968901969450505090860190600101613c5f565b509098975050505050505050565b600060208284031215613cf657600080fd5b81356001600160401b03811115613d0c57600080fd5b8201602081850312156116b357600080fd5b600080600060608486031215613d3357600080fd5b833592506138d460208501613862565b801515811461054b57600080fd5b60008060408385031215613d6457600080fd5b613d6d83613862565b91506020830135613d7d81613d43565b809150509250929050565b600080600080600060a08688031215613da057600080fd5b85356001600160401b0380821115613db757600080fd5b613dc389838a016139fb565b96506020880135915080821115613dd957600080fd5b50613de6888289016139fb565b945050613df560408701613862565b9250613e0360608701613862565b949793965091946080013592915050565b60008060008060808587031215613e2a57600080fd5b613e3385613862565b9350613e4160208601613862565b92506040850135915060608501356001600160401b03811115613e6357600080fd5b8501601f81018713613e7457600080fd5b613e83878235602084016139bd565b91505092959194509250565b6000604080830185845260208281860152818651808452606093508387019150838160051b88010183890160005b83811015613f3957605f198a8403018552815160e060ff80835116865288830151898701528a8301518b870152808a840151168a870152506080808301518282880152613f0c83880182613be3565b60a0858101519089015260c094850151151594909701939093525050509385019390850190600101613ebd565b50909a9950505050505050505050565b60008060408385031215613f5c57600080fd5b613f6583613862565b915060208301356001600160401b03811115613f8057600080fd5b610aca85828601613a3e565b60008060408385031215613f9f57600080fd5b613fa883613862565b9150613b8360208401613862565b600181811c90821680613fca57607f821691505b6020821081141561213757634e487b7160e01b600052602260045260246000fd5b634e487b7160e01b600052601160045260246000fd5b60008282101561401357614013613feb565b500390565b6020808252602e908201527f4552433732313a2063616c6c6572206973206e6f7420746f6b656e206f776e6560408201526d1c881b9bdc88185c1c1c9bdd995960921b606082015260800190565b600081600019048311821515161561408057614080613feb565b500290565b634e487b7160e01b600052601260045260246000fd5b6000826140aa576140aa614085565b500490565b805161387981613d43565b6000602082840312156140cc57600080fd5b81516116b381613d43565b6001600160a01b038581168252841660208201526080604082018190526000906141039083018561380a565b905082606083015295945050505050565b60208082526012908201527113d3931657d05113525397d0531313d5d15160721b604082015260600190565b634e487b7160e01b600052603260045260246000fd5b6000808335601e1984360301811261416d57600080fd5b8301803591506001600160401b0382111561418757600080fd5b6020019150600581901b360382131561419f57600080fd5b9250929050565b60008235607e198336030181126141bc57600080fd5b9190910192915050565b5b81811015610e3b57600081556001016141c7565b6141e58154613fb6565b8015610e3b57601f8111600181146141ff57505060009055565b82600052602060002061421d601f840160051c8201600183016141c6565b506020600090812081855555505050565b8054600082558015610e3b578160005260206000208181015b80821015610eb557614258826141db565b600182019150614247565b6000808335601e1984360301811261427a57600080fd5b8301803591506001600160401b0382111561429457600080fd5b60200191503681900382131561419f57600080fd5b601f8211156109c057806000526020600020601f840160051c810160208510156142d05750805b611ca1601f850160051c8301826141c6565b6001600160401b038311156142f9576142f9613906565b61430d836143078354613fb6565b836142a9565b6000601f84116001811461434157600085156143295750838201355b600019600387901b1c1916600186901b178355611ca1565b600083815260209020601f19861690835b828110156143725786850135825560209485019460019092019101614352565b508682101561438f5760001960f88860031b161c19848701351681555b505060018560011b0183555050505050565b6143ab8283614263565b6143b68183856142e2565b5050600180820160206143cb81860186614156565b600160401b8111156143df576143df613906565b8354818555808210156144185760008581528490208281019082015b808210156144155761440c826141db565b908701906143fb565b50505b50818460005283600020945060005b82811015614455576144398285614263565b61444481838a6142e2565b505094860194908401908601614427565b50505050505050604082013560028201556144736060830183614263565b610eb58183600386016142e2565b61448b8283614156565b600160401b81111561449f5761449f613906565b825481845580821015614531576001600160fe1b0360018183118116156144c8576144c8613feb565b60028285118216156144dc576144dc613feb565b60008781526020812090935085821b81019085831b015b8082101561452b57614504826141db565b61450f84830161422e565b8483830155614520600383016141db565b6004820191506144f3565b50505050505b5060008381526020812083915b8381101561456f5761455961455384876141a6565b836143a1565b602092909201916004919091019060010161453e565b50505050505050565b600060ff821660ff81141561458f5761458f613feb565b60010192915050565b60208082526007908201526612539597d0511160ca1b604082015260600190565b805160ff8116811461387957600080fd5b600082601f8301126145db57600080fd5b815160206145eb6139cb83613a1b565b82815260059290921b8401810191818101908684111561460a57600080fd5b8286015b84811015613a995780516001600160401b0381111561462d5760008081fd5b8701603f8101891361463f5760008081fd5b8481015160406146516139cb83613996565b8281528b828486010111156146665760008081fd5b614675838983018487016137de565b865250505091830191830161460e565b6000602080838503121561469857600080fd5b82516001600160401b03808211156146af57600080fd5b90840190604082870312156146c357600080fd5b6146cb61391c565b8251815283830151828111156146e057600080fd5b80840193505086601f8401126146f557600080fd5b82516147036139cb82613a1b565b81815260059190911b8401850190858101908983111561472257600080fd5b8686015b838110156147dd5780518681111561473d57600080fd5b870160e0818d03601f1901121561475357600080fd5b61475b613944565b6147668a83016145b9565b815260408201518a82015260608201516040820152614787608083016145b9565b606082015260a080830151898111156147a05760008081fd5b6147ae8f8d838701016145ca565b60808401525060c080840151828401526147ca60e085016140af565b9083015250845250918701918701614726565b5095830195909552509695505050505050565b600060001982141561480457614804613feb565b5060010190565b6000835161481d8184602088016137de565b8351908301906148318183602088016137de565b01949350505050565b6000821982111561484d5761484d613feb565b500190565b60208082526032908201527f4552433732313a207472616e7366657220746f206e6f6e20455243373231526560408201527131b2b4bb32b91034b6b83632b6b2b73a32b960711b606082015260800190565b6000826148b3576148b3614085565b500690565b7f416363657373436f6e74726f6c3a206163636f756e74200000000000000000008152600083516148f08160178501602088016137de565b7001034b99036b4b9b9b4b733903937b6329607d1b60179184019182015283516149218160288401602088016137de565b01602801949350505050565b6001600160a01b03858116825284166020820152604081018390526080606082018190526000906149609083018461380a565b9695505050505050565b60006020828403121561497c57600080fd5b81516116b3816137ab565b60008161499657614996613feb565b506000190190565b634e487b7160e01b600052603160045260246000fdfe65d7a28e3265b37a6474929f336521b332c1681b933f6cb9f3376673440d862a9f2df0fed2c77648de5860a4cc508cd0818c85b8b8a1ab4ceeef8d981c8956a6a2646970667358221220d928245023704ad90774a61f97f73f8d3edaa428cf698ac09162d36e8754236964736f6c634300080c0033",
  "linkReferences": {},
  "deployedLinkReferences": {}
}