{
  "_format": "hh-sol-artifact-1",
  "contractName": "GenerativeNFT",
  "sourceName": "contracts/nft/GenerativeNFT.sol",
  "abi": [
    {
      "inputs": [
        {
          "internalType": "string",
          "name": "_name",
          "type": "string"
        },
        {
          "internalType": "string",
          "name": "_symbol",
          "type": "string"
        },
        {
          "internalType": "string",
          "name": "_baseuri",
          "type": "string"
        }
      ],
      "stateMutability": "nonpayable",
      "type": "constructor"
    },
    {
      "anonymous": false,
      "inputs": [
        {
          "indexed": true,
          "internalType": "address",
          "name": "owner",
          "type": "address"
        },
        {
          "indexed": true,
          "internalType": "address",
          "name": "approved",
          "type": "address"
        },
        {
          "indexed": true,
          "internalType": "uint256",
          "name": "tokenId",
          "type": "uint256"
        }
      ],
      "name": "Approval",
      "type": "event"
    },
    {
      "anonymous": false,
      "inputs": [
        {
          "indexed": true,
          "internalType": "address",
          "name": "owner",
          "type": "address"
        },
        {
          "indexed": true,
          "internalType": "address",
          "name": "operator",
          "type": "address"
        },
        {
          "indexed": false,
          "internalType": "bool",
          "name": "approved",
          "type": "bool"
        }
      ],
      "name": "ApprovalForAll",
      "type": "event"
    },
    {
      "anonymous": false,
      "inputs": [
        {
          "indexed": false,
          "internalType": "address",
          "name": "account",
          "type": "address"
        }
      ],
      "name": "Paused",
      "type": "event"
    },
    {
      "anonymous": false,
      "inputs": [
        {
          "indexed": true,
          "internalType": "bytes32",
          "name": "role",
          "type": "bytes32"
        },
        {
          "indexed": true,
          "internalType": "bytes32",
          "name": "previousAdminRole",
          "type": "bytes32"
        },
        {
          "indexed": true,
          "internalType": "bytes32",
          "name": "newAdminRole",
          "type": "bytes32"
        }
      ],
      "name": "RoleAdminChanged",
      "type": "event"
    },
    {
      "anonymous": false,
      "inputs": [
        {
          "indexed": true,
          "internalType": "bytes32",
          "name": "role",
          "type": "bytes32"
        },
        {
          "indexed": true,
          "internalType": "address",
          "name": "account",
          "type": "address"
        },
        {
          "indexed": true,
          "internalType": "address",
          "name": "sender",
          "type": "address"
        }
      ],
      "name": "RoleGranted",
      "type": "event"
    },
    {
      "anonymous": false,
      "inputs": [
        {
          "indexed": true,
          "internalType": "bytes32",
          "name": "role",
          "type": "bytes32"
        },
        {
          "indexed": true,
          "internalType": "address",
          "name": "account",
          "type": "address"
        },
        {
          "indexed": true,
          "internalType": "address",
          "name": "sender",
          "type": "address"
        }
      ],
      "name": "RoleRevoked",
      "type": "event"
    },
    {
      "anonymous": false,
      "inputs": [
        {
          "indexed": true,
          "internalType": "address",
          "name": "from",
          "type": "address"
        },
        {
          "indexed": true,
          "internalType": "address",
          "name": "to",
          "type": "address"
        },
        {
          "indexed": true,
          "internalType": "uint256",
          "name": "tokenId",
          "type": "uint256"
        }
      ],
      "name": "Transfer",
      "type": "event"
    },
    {
      "anonymous": false,
      "inputs": [
        {
          "indexed": false,
          "internalType": "address",
          "name": "account",
          "type": "address"
        }
      ],
      "name": "Unpaused",
      "type": "event"
    },
    {
      "inputs": [],
      "name": "DEFAULT_ADMIN_ROLE",
      "outputs": [
        {
          "internalType": "bytes32",
          "name": "",
          "type": "bytes32"
        }
      ],
      "stateMutability": "view",
      "type": "function"
    },
    {
      "inputs": [],
      "name": "MINTER_ROLE",
      "outputs": [
        {
          "internalType": "bytes32",
          "name": "",
          "type": "bytes32"
        }
      ],
      "stateMutability": "view",
      "type": "function"
    },
    {
      "inputs": [],
      "name": "PAUSER_ROLE",
      "outputs": [
        {
          "internalType": "bytes32",
          "name": "",
          "type": "bytes32"
        }
      ],
      "stateMutability": "view",
      "type": "function"
    },
    {
      "inputs": [],
      "name": "_admin",
      "outputs": [
        {
          "internalType": "address",
          "name": "",
          "type": "address"
        }
      ],
      "stateMutability": "view",
      "type": "function"
    },
    {
      "inputs": [],
      "name": "_boilerplateAddr",
      "outputs": [
        {
          "internalType": "address",
          "name": "",
          "type": "address"
        }
      ],
      "stateMutability": "view",
      "type": "function"
    },
    {
      "inputs": [],
      "name": "_boilerplateId",
      "outputs": [
        {
          "internalType": "uint256",
          "name": "",
          "type": "uint256"
        }
      ],
      "stateMutability": "view",
      "type": "function"
    },
    {
      "inputs": [
        {
          "internalType": "uint256",
          "name": "",
          "type": "uint256"
        }
      ],
      "name": "_creators",
      "outputs": [
        {
          "internalType": "address",
          "name": "",
          "type": "address"
        }
      ],
      "stateMutability": "view",
      "type": "function"
    },
    {
      "inputs": [],
      "name": "_name",
      "outputs": [
        {
          "internalType": "string",
          "name": "",
          "type": "string"
        }
      ],
      "stateMutability": "view",
      "type": "function"
    },
    {
      "inputs": [
        {
          "internalType": "uint256",
          "name": "",
          "type": "uint256"
        }
      ],
      "name": "_paramsValues",
      "outputs": [
        {
          "internalType": "bytes32",
          "name": "_seed",
          "type": "bytes32"
        }
      ],
      "stateMutability": "view",
      "type": "function"
    },
    {
      "inputs": [],
      "name": "_symbol",
      "outputs": [
        {
          "internalType": "string",
          "name": "",
          "type": "string"
        }
      ],
      "stateMutability": "view",
      "type": "function"
    },
    {
      "inputs": [
        {
          "internalType": "address",
          "name": "to",
          "type": "address"
        },
        {
          "internalType": "uint256",
          "name": "tokenId",
          "type": "uint256"
        }
      ],
      "name": "approve",
      "outputs": [],
      "stateMutability": "nonpayable",
      "type": "function"
    },
    {
      "inputs": [
        {
          "internalType": "address",
          "name": "owner",
          "type": "address"
        }
      ],
      "name": "balanceOf",
      "outputs": [
        {
          "internalType": "uint256",
          "name": "",
          "type": "uint256"
        }
      ],
      "stateMutability": "view",
      "type": "function"
    },
    {
      "inputs": [],
      "name": "baseTokenURI",
      "outputs": [
        {
          "internalType": "string",
          "name": "",
          "type": "string"
        }
      ],
      "stateMutability": "view",
      "type": "function"
    },
    {
      "inputs": [
        {
          "internalType": "uint256",
          "name": "tokenId",
          "type": "uint256"
        }
      ],
      "name": "burn",
      "outputs": [],
      "stateMutability": "nonpayable",
      "type": "function"
    },
    {
      "inputs": [
        {
          "internalType": "address",
          "name": "_newAdmin",
          "type": "address"
        }
      ],
      "name": "changeAdmin",
      "outputs": [],
      "stateMutability": "nonpayable",
      "type": "function"
    },
    {
      "inputs": [
        {
          "internalType": "uint256",
          "name": "tokenId",
          "type": "uint256"
        }
      ],
      "name": "getApproved",
      "outputs": [
        {
          "internalType": "address",
          "name": "",
          "type": "address"
        }
      ],
      "stateMutability": "view",
      "type": "function"
    },
    {
      "inputs": [
        {
          "internalType": "bytes32",
          "name": "role",
          "type": "bytes32"
        }
      ],
      "name": "getRoleAdmin",
      "outputs": [
        {
          "internalType": "bytes32",
          "name": "",
          "type": "bytes32"
        }
      ],
      "stateMutability": "view",
      "type": "function"
    },
    {
      "inputs": [
        {
          "internalType": "bytes32",
          "name": "role",
          "type": "bytes32"
        },
        {
          "internalType": "uint256",
          "name": "index",
          "type": "uint256"
        }
      ],
      "name": "getRoleMember",
      "outputs": [
        {
          "internalType": "address",
          "name": "",
          "type": "address"
        }
      ],
      "stateMutability": "view",
      "type": "function"
    },
    {
      "inputs": [
        {
          "internalType": "bytes32",
          "name": "role",
          "type": "bytes32"
        }
      ],
      "name": "getRoleMemberCount",
      "outputs": [
        {
          "internalType": "uint256",
          "name": "",
          "type": "uint256"
        }
      ],
      "stateMutability": "view",
      "type": "function"
    },
    {
      "inputs": [
        {
          "internalType": "bytes32",
          "name": "role",
          "type": "bytes32"
        },
        {
          "internalType": "address",
          "name": "account",
          "type": "address"
        }
      ],
      "name": "grantRole",
      "outputs": [],
      "stateMutability": "nonpayable",
      "type": "function"
    },
    {
      "inputs": [
        {
          "internalType": "bytes32",
          "name": "role",
          "type": "bytes32"
        },
        {
          "internalType": "address",
          "name": "account",
          "type": "address"
        }
      ],
      "name": "hasRole",
      "outputs": [
        {
          "internalType": "bool",
          "name": "",
          "type": "bool"
        }
      ],
      "stateMutability": "view",
      "type": "function"
    },
    {
      "inputs": [
        {
          "internalType": "string",
          "name": "name",
          "type": "string"
        },
        {
          "internalType": "string",
          "name": "symbol",
          "type": "string"
        },
        {
          "internalType": "address",
          "name": "admin",
          "type": "address"
        },
        {
          "internalType": "address",
          "name": "boilerplateAdd",
          "type": "address"
        },
        {
          "internalType": "uint256",
          "name": "boilerplateId",
          "type": "uint256"
        }
      ],
      "name": "init",
      "outputs": [],
      "stateMutability": "nonpayable",
      "type": "function"
    },
    {
      "inputs": [
        {
          "internalType": "address",
          "name": "owner",
          "type": "address"
        },
        {
          "internalType": "address",
          "name": "operator",
          "type": "address"
        }
      ],
      "name": "isApprovedForAll",
      "outputs": [
        {
          "internalType": "bool",
          "name": "",
          "type": "bool"
        }
      ],
      "stateMutability": "view",
      "type": "function"
    },
    {
      "inputs": [
        {
          "internalType": "address",
          "name": "to",
          "type": "address"
        }
      ],
      "name": "mint",
      "outputs": [],
      "stateMutability": "nonpayable",
      "type": "function"
    },
    {
      "inputs": [
        {
          "internalType": "address",
          "name": "mintTo",
          "type": "address"
        },
        {
          "internalType": "address",
          "name": "creator",
          "type": "address"
        },
        {
          "internalType": "string",
          "name": "uri",
          "type": "string"
        },
        {
          "components": [
            {
              "internalType": "bytes32",
              "name": "_seed",
              "type": "bytes32"
            },
            {
              "components": [
                {
                  "internalType": "uint8",
                  "name": "_typeValue",
                  "type": "uint8"
                },
                {
                  "internalType": "uint256",
                  "name": "_max",
                  "type": "uint256"
                },
                {
                  "internalType": "uint256",
                  "name": "_min",
                  "type": "uint256"
                },
                {
                  "internalType": "uint8",
                  "name": "_decimal",
                  "type": "uint8"
                },
                {
                  "internalType": "string[]",
                  "name": "_availableValues",
                  "type": "string[]"
                },
                {
                  "internalType": "uint256",
                  "name": "_value",
                  "type": "uint256"
                },
                {
                  "internalType": "bool",
                  "name": "_editable",
                  "type": "bool"
                }
              ],
              "internalType": "struct BoilerplateParam.ParamTemplate[]",
              "name": "_params",
              "type": "tuple[]"
            }
          ],
          "internalType": "struct BoilerplateParam.ParamsOfProject",
          "name": "_paramsTemplateValue",
          "type": "tuple"
        },
        {
          "internalType": "bool",
          "name": "clientSeed",
          "type": "bool"
        }
      ],
      "name": "mint",
      "outputs": [],
      "stateMutability": "nonpayable",
      "type": "function"
    },
    {
      "inputs": [],
      "name": "name",
      "outputs": [
        {
          "internalType": "string",
          "name": "",
          "type": "string"
        }
      ],
      "stateMutability": "view",
      "type": "function"
    },
    {
      "inputs": [
        {
          "internalType": "uint256",
          "name": "tokenId",
          "type": "uint256"
        }
      ],
      "name": "ownerOf",
      "outputs": [
        {
          "internalType": "address",
          "name": "",
          "type": "address"
        }
      ],
      "stateMutability": "view",
      "type": "function"
    },
    {
      "inputs": [],
      "name": "pause",
      "outputs": [],
      "stateMutability": "nonpayable",
      "type": "function"
    },
    {
      "inputs": [],
      "name": "paused",
      "outputs": [
        {
          "internalType": "bool",
          "name": "",
          "type": "bool"
        }
      ],
      "stateMutability": "view",
      "type": "function"
    },
    {
      "inputs": [
        {
          "internalType": "bytes32",
          "name": "role",
          "type": "bytes32"
        },
        {
          "internalType": "address",
          "name": "account",
          "type": "address"
        }
      ],
      "name": "renounceRole",
      "outputs": [],
      "stateMutability": "nonpayable",
      "type": "function"
    },
    {
      "inputs": [
        {
          "internalType": "bytes32",
          "name": "role",
          "type": "bytes32"
        },
        {
          "internalType": "address",
          "name": "account",
          "type": "address"
        }
      ],
      "name": "revokeRole",
      "outputs": [],
      "stateMutability": "nonpayable",
      "type": "function"
    },
    {
      "inputs": [
        {
          "internalType": "uint256",
          "name": "",
          "type": "uint256"
        }
      ],
      "name": "royalties",
      "outputs": [
        {
          "internalType": "address",
          "name": "recipient",
          "type": "address"
        },
        {
          "internalType": "uint24",
          "name": "amount",
          "type": "uint24"
        },
        {
          "internalType": "bool",
          "name": "isValue",
          "type": "bool"
        }
      ],
      "stateMutability": "view",
      "type": "function"
    },
    {
      "inputs": [
        {
          "internalType": "uint256",
          "name": "_tokenId",
          "type": "uint256"
        },
        {
          "internalType": "uint256",
          "name": "_salePrice",
          "type": "uint256"
        }
      ],
      "name": "royaltyInfo",
      "outputs": [
        {
          "internalType": "address",
          "name": "receiver",
          "type": "address"
        },
        {
          "internalType": "uint256",
          "name": "royaltyAmount",
          "type": "uint256"
        }
      ],
      "stateMutability": "view",
      "type": "function"
    },
    {
      "inputs": [
        {
          "internalType": "address",
          "name": "from",
          "type": "address"
        },
        {
          "internalType": "address",
          "name": "to",
          "type": "address"
        },
        {
          "internalType": "uint256",
          "name": "tokenId",
          "type": "uint256"
        }
      ],
      "name": "safeTransferFrom",
      "outputs": [],
      "stateMutability": "nonpayable",
      "type": "function"
    },
    {
      "inputs": [
        {
          "internalType": "address",
          "name": "from",
          "type": "address"
        },
        {
          "internalType": "address",
          "name": "to",
          "type": "address"
        },
        {
          "internalType": "uint256",
          "name": "tokenId",
          "type": "uint256"
        },
        {
          "internalType": "bytes",
          "name": "data",
          "type": "bytes"
        }
      ],
      "name": "safeTransferFrom",
      "outputs": [],
      "stateMutability": "nonpayable",
      "type": "function"
    },
    {
      "inputs": [
        {
          "internalType": "address",
          "name": "operator",
          "type": "address"
        },
        {
          "internalType": "bool",
          "name": "approved",
          "type": "bool"
        }
      ],
      "name": "setApprovalForAll",
      "outputs": [],
      "stateMutability": "nonpayable",
      "type": "function"
    },
    {
      "inputs": [
        {
          "internalType": "address",
          "name": "_to",
          "type": "address"
        },
        {
          "internalType": "uint256[]",
          "name": "_ids",
          "type": "uint256[]"
        }
      ],
      "name": "setCreator",
      "outputs": [],
      "stateMutability": "nonpayable",
      "type": "function"
    },
    {
      "inputs": [
        {
          "internalType": "uint256",
          "name": "_tokenId",
          "type": "uint256"
        },
        {
          "internalType": "string",
          "name": "_newURI",
          "type": "string"
        }
      ],
      "name": "setCustomURI",
      "outputs": [],
      "stateMutability": "nonpayable",
      "type": "function"
    },
    {
      "inputs": [
        {
          "internalType": "uint256",
          "name": "_tokenId",
          "type": "uint256"
        },
        {
          "internalType": "address",
          "name": "_recipient",
          "type": "address"
        },
        {
          "internalType": "uint256",
          "name": "_value",
          "type": "uint256"
        }
      ],
      "name": "setTokenRoyalty",
      "outputs": [],
      "stateMutability": "nonpayable",
      "type": "function"
    },
    {
      "inputs": [
        {
          "internalType": "bytes4",
          "name": "interfaceId",
          "type": "bytes4"
        }
      ],
      "name": "supportsInterface",
      "outputs": [
        {
          "internalType": "bool",
          "name": "",
          "type": "bool"
        }
      ],
      "stateMutability": "view",
      "type": "function"
    },
    {
      "inputs": [],
      "name": "symbol",
      "outputs": [
        {
          "internalType": "string",
          "name": "",
          "type": "string"
        }
      ],
      "stateMutability": "view",
      "type": "function"
    },
    {
      "inputs": [
        {
          "internalType": "uint256",
          "name": "index",
          "type": "uint256"
        }
      ],
      "name": "tokenByIndex",
      "outputs": [
        {
          "internalType": "uint256",
          "name": "",
          "type": "uint256"
        }
      ],
      "stateMutability": "view",
      "type": "function"
    },
    {
      "inputs": [
        {
          "internalType": "address",
          "name": "owner",
          "type": "address"
        },
        {
          "internalType": "uint256",
          "name": "index",
          "type": "uint256"
        }
      ],
      "name": "tokenOfOwnerByIndex",
      "outputs": [
        {
          "internalType": "uint256",
          "name": "",
          "type": "uint256"
        }
      ],
      "stateMutability": "view",
      "type": "function"
    },
    {
      "inputs": [
        {
          "internalType": "uint256",
          "name": "_tokenId",
          "type": "uint256"
        }
      ],
      "name": "tokenURI",
      "outputs": [
        {
          "internalType": "string",
          "name": "",
          "type": "string"
        }
      ],
      "stateMutability": "view",
      "type": "function"
    },
    {
      "inputs": [],
      "name": "totalSupply",
      "outputs": [
        {
          "internalType": "uint256",
          "name": "",
          "type": "uint256"
        }
      ],
      "stateMutability": "view",
      "type": "function"
    },
    {
      "inputs": [
        {
          "internalType": "address",
          "name": "from",
          "type": "address"
        },
        {
          "internalType": "address",
          "name": "to",
          "type": "address"
        },
        {
          "internalType": "uint256",
          "name": "tokenId",
          "type": "uint256"
        }
      ],
      "name": "transferFrom",
      "outputs": [],
      "stateMutability": "nonpayable",
      "type": "function"
    },
    {
      "inputs": [],
      "name": "unpause",
      "outputs": [],
      "stateMutability": "nonpayable",
      "type": "function"
    }
  ],
  "bytecode": "0x60806040523480156200001157600080fd5b5060405162004231380380620042318339810160408190526200003491620003d9565b828282828281600290805190602001906200005192919062000266565b5080516200006790600390602084019062000266565b5050600c805460ff191690555080516200008990600e90602084019062000266565b506200009760003362000101565b620000c37f9f2df0fed2c77648de5860a4cc508cd0818c85b8b8a1ab4ceeef8d981c8956a63362000101565b620000ef7f65d7a28e3265b37a6474929f336521b332c1681b933f6cb9f3376673440d862a3362000101565b50506001600f5550620004a792505050565b6200010d828262000111565b5050565b6200012882826200015460201b620019cb1760201c565b60008281526001602090815260409091206200014f91839062001a4f620001f4821b17901c565b505050565b6000828152602081815260408083206001600160a01b038516845290915290205460ff166200010d576000828152602081815260408083206001600160a01b03851684529091529020805460ff19166001179055620001b03390565b6001600160a01b0316816001600160a01b0316837f2f8788117e7eff1d82e926ec794901d17c78024a50270940304540a733656f0d60405160405180910390a45050565b60006200020b836001600160a01b03841662000214565b90505b92915050565b60008181526001830160205260408120546200025d575081546001818101845560008481526020808220909301849055845484825282860190935260409020919091556200020e565b5060006200020e565b82805462000274906200046a565b90600052602060002090601f016020900481019282620002985760008555620002e3565b82601f10620002b357805160ff1916838001178555620002e3565b82800160010185558215620002e3579182015b82811115620002e3578251825591602001919060010190620002c6565b50620002f1929150620002f5565b5090565b5b80821115620002f15760008155600101620002f6565b634e487b7160e01b600052604160045260246000fd5b600082601f8301126200033457600080fd5b81516001600160401b03808211156200035157620003516200030c565b604051601f8301601f19908116603f011681019082821181831017156200037c576200037c6200030c565b816040528381526020925086838588010111156200039957600080fd5b600091505b83821015620003bd57858201830151818301840152908201906200039e565b83821115620003cf5760008385830101525b9695505050505050565b600080600060608486031215620003ef57600080fd5b83516001600160401b03808211156200040757600080fd5b620004158783880162000322565b945060208601519150808211156200042c57600080fd5b6200043a8783880162000322565b935060408601519150808211156200045157600080fd5b50620004608682870162000322565b9150509250925092565b600181811c908216806200047f57607f821691505b60208210811415620004a157634e487b7160e01b600052602260045260246000fd5b50919050565b613d7a80620004b76000396000f3fe608060405234801561001057600080fd5b50600436106102955760003560e01c80637f77f57411610167578063b09f1266116100ce578063d539139311610087578063d53913931461062f578063d547741f14610644578063d547cfb714610657578063e63ab1e91461065f578063e985e9c514610674578063f9ecc22c146106b057600080fd5b8063b09f1266146105d3578063b88d4fde146105db578063c87b56dd146105ee578063ca15c87314610601578063d28d885214610614578063d2a6b51a1461061c57600080fd5b8063953cd24611610120578063953cd2461461056a57806395d89b411461058a5780639713c80714610592578063a217fddf146105a5578063a22cb465146105ad578063ae3dd095146105c057600080fd5b80637f77f574146104a957806381aa7929146105165780638456cb59146105295780638f283970146105315780639010d07c1461054457806391d148541461055757600080fd5b806336568abe1161020b5780634f6ccce7116101c45780634f6ccce71461044b578063531f7b531461045e5780635c975abb146104675780636352211e146104725780636a6278421461048557806370a082311461049657600080fd5b806336568abe146103ce5780633adf80b4146103e15780633f4ba83a146103f457806342842e0e146103fc57806342966c681461040f5780634816edf41461042257600080fd5b806318160ddd1161025d57806318160ddd1461032a57806323b872dd14610340578063248a9ca3146103535780632a55205a146103765780632f2ff15d146103a85780632f745c59146103bb57600080fd5b806301bc45c91461029a57806301ffc9a7146102ca57806306fdde03146102ed578063081812fc14610302578063095ea7b314610315575b600080fd5b6011546102ad906001600160a01b031681565b6040516001600160a01b0390911681526020015b60405180910390f35b6102dd6102d8366004612de8565b6106c3565b60405190151581526020016102c1565b6102f56106d4565b6040516102c19190612e5d565b6102ad610310366004612e70565b610766565b610328610323366004612ea5565b61078d565b005b6103326108a8565b6040519081526020016102c1565b61032861034e366004612ecf565b6108c4565b610332610361366004612e70565b60009081526020819052604090206001015490565b610389610384366004612f0b565b6108f6565b604080516001600160a01b0390931683526020830191909152016102c1565b6103286103b6366004612f2d565b6109b8565b6103326103c9366004612ea5565b6109dd565b6103286103dc366004612f2d565b610a73565b6103286103ef36600461303e565b610af1565b610328610b6d565b61032861040a366004612ecf565b610c03565b61032861041d366004612e70565b610c1e565b6102ad610430366004612e70565b6016602052600090815260409020546001600160a01b031681565b610332610459366004612e70565b610c4c565b61033260135481565b600c5460ff166102dd565b6102ad610480366004612e70565b610cdf565b61032861049336600461307a565b50565b6103326104a436600461307a565b610d3f565b6104eb6104b7366004612e70565b6019602052600090815260409020546001600160a01b03811690600160a01b810462ffffff1690600160b81b900460ff1683565b604080516001600160a01b03909416845262ffffff90921660208401521515908201526060016102c1565b6103286105243660046130ae565b610dc5565b6103286112a2565b61032861053f36600461307a565b611334565b6102ad610552366004612f0b565b611440565b6102dd610565366004612f2d565b61145f565b610332610578366004612e70565b60146020526000908152604090205481565b6102f5611488565b6103286105a036600461314c565b611497565b610332600081565b6103286105bb366004613171565b6115a8565b6103286105ce3660046131a8565b6115b3565b6102f5611691565b6103286105e9366004613234565b61171f565b6102f56105fc366004612e70565b611751565b61033261060f366004612e70565b6118d7565b6102f56118ee565b61032861062a3660046132d2565b6118fb565b610332600080516020613d2583398151915281565b610328610652366004612f2d565b61199c565b6102f56119c1565b610332600080516020613d0583398151915281565b6102dd61068236600461337a565b6001600160a01b03918216600090815260076020908152604080832093909416825291909152205460ff1690565b6012546102ad906001600160a01b031681565b60006106ce82611a64565b92915050565b6060601780546106e3906133a4565b80601f016020809104026020016040519081016040528092919081815260200182805461070f906133a4565b801561075c5780601f106107315761010080835404028352916020019161075c565b820191906000526020600020905b81548152906001019060200180831161073f57829003601f168201915b5050505050905090565b600061077182611a89565b506000908152600660205260409020546001600160a01b031690565b600061079882610cdf565b9050806001600160a01b0316836001600160a01b0316141561080b5760405162461bcd60e51b815260206004820152602160248201527f4552433732313a20617070726f76616c20746f2063757272656e74206f776e656044820152603960f91b60648201526084015b60405180910390fd5b336001600160a01b038216148061082757506108278133610682565b6108995760405162461bcd60e51b815260206004820152603e60248201527f4552433732313a20617070726f76652063616c6c6572206973206e6f7420746f60448201527f6b656e206f776e6572206e6f7220617070726f76656420666f7220616c6c00006064820152608401610802565b6108a38383611ae8565b505050565b600060016108b560105490565b6108bf91906133ef565b905090565b6108cf335b82611b56565b6108eb5760405162461bcd60e51b815260040161080290613406565b6108a3838383611bd5565b6000828152601960209081526040808320815160608101835290546001600160a01b0381168252600160a01b810462ffffff1693820193909352600160b81b90920460ff161580159183019190915282919061097a5780516020820151909350612710906109699062ffffff1686613454565b6109739190613489565b91506109b0565b6000858152601660205260409020546001600160a01b031692506127106109a3856101f4613454565b6109ad9190613489565b91505b509250929050565b6000828152602081905260409020600101546109d381611d7c565b6108a38383611d86565b60006109e883610d3f565b8210610a4a5760405162461bcd60e51b815260206004820152602b60248201527f455243373231456e756d657261626c653a206f776e657220696e646578206f7560448201526a74206f6620626f756e647360a81b6064820152608401610802565b506001600160a01b03919091166000908152600860209081526040808320938352929052205490565b6001600160a01b0381163314610ae35760405162461bcd60e51b815260206004820152602f60248201527f416363657373436f6e74726f6c3a2063616e206f6e6c792072656e6f756e636560448201526e103937b632b9903337b91039b2b63360891b6064820152608401610802565b610aed8282611da8565b5050565b60008281526016602052604090205482906001600160a01b03163314610b485760405162461bcd60e51b815260206004820152600c60248201526b27a7262cafa1a922a0aa27a960a11b6044820152606401610802565b60008381526015602090815260409091208351610b6792850190612d39565b50505050565b610b85600080516020613d058339815191523361145f565b610bf9576040805162461bcd60e51b81526020600482015260248101919091527f4552433732315072657365744d696e7465725061757365724175746f49643a2060448201527f6d75737420686176652070617573657220726f6c6520746f20756e70617573656064820152608401610802565b610c01611dca565b565b6108a38383836040518060200160405280600081525061171f565b610c27336108c9565b610c435760405162461bcd60e51b815260040161080290613406565b61049381611e1c565b6000610c57600a5490565b8210610cba5760405162461bcd60e51b815260206004820152602c60248201527f455243373231456e756d657261626c653a20676c6f62616c20696e646578206f60448201526b7574206f6620626f756e647360a01b6064820152608401610802565b600a8281548110610ccd57610ccd61349d565b90600052602060002001549050919050565b6000818152600460205260408120546001600160a01b0316806106ce5760405162461bcd60e51b8152602060048201526018602482015277115490cdcc8c4e881a5b9d985b1a59081d1bdad95b88125160421b6044820152606401610802565b60006001600160a01b038216610da95760405162461bcd60e51b815260206004820152602960248201527f4552433732313a2061646472657373207a65726f206973206e6f7420612076616044820152683634b21037bbb732b960b91b6064820152608401610802565b506001600160a01b031660009081526005602052604090205490565b60125460408051808201909152600381526206460760eb1b6020820152906001600160a01b03163314610e0b5760405162461bcd60e51b81526004016108029190612e5d565b506012546001600160a01b031615801590610e2857506000601354115b6040518060400160405280600381526020016219181960e91b81525090610e625760405162461bcd60e51b81526004016108029190612e5d565b5080610fd257813560005b610e7a60208501856134b3565b9050811015610fcf576000610e9260208601866134b3565b83818110610ea257610ea261349d565b9050602002810190610eb49190613503565b610ebd906135c7565b805190915060ff1615610f8457608081015151610f30578060a00151610eef8460001c83604001518460200151611ec3565b146040518060400160405280600381526020016219181b60e91b81525090610f2a5760405162461bcd60e51b81526004016108029190612e5d565b50610f84565b8060a00151610f478460001c836080015151611eee565b146040518060400160405280600381526020016232303760e81b81525090610f825760405162461bcd60e51b81526004016108029190612e5d565b505b60a0810151604051610fa3918591602001918252602082015260400190565b604051602081830303815290604052805190602001209250508080610fc79061365d565b915050610e6d565b50505b601254601354604051634f558e7960e01b815260048101919091526001600160a01b03909116908190634f558e7990602401602060405180830381865afa158015611021573d6000803e3d6000fd5b505050506040513d601f19601f820116820180604052508101906110459190613678565b6040518060400160405280600381526020016219181960e91b8152509061107f5760405162461bcd60e51b81526004016108029190612e5d565b5060135460405163030595d760e01b815260048101919091526001600160a01b0382169063030595d790602401602060405180830381865afa1580156110c9573d6000803e3d6000fd5b505050506040513d601f19601f820116820180604052508101906110ed9190613695565b15806111d0575060135460405163030595d760e01b815260048101919091526001600160a01b0382169063030595d790602401602060405180830381865afa15801561113d573d6000803e3d6000fd5b505050506040513d601f19601f820116820180604052508101906111619190613695565b601354604051631fded86160e11b815260048101919091526001600160a01b03831690633fbdb0c290602401602060405180830381865afa1580156111aa573d6000803e3d6000fd5b505050506040513d601f19601f820116820180604052508101906111ce9190613695565b105b6040518060400160405280600381526020016232303360e81b8152509061120a5760405162461bcd60e51b81526004016108029190612e5d565b50611219601080546001019055565b600061122460105490565b85519091501561124f576000818152601560209081526040909120865161124d92880190612d39565b505b600081815260166020908152604080832080546001600160a01b0319166001600160a01b038b1617905560149091529020849061128c82826139f0565b9050506112998782611efa565b50505050505050565b6112ba600080516020613d058339815191523361145f565b61132c5760405162461bcd60e51b815260206004820152603e60248201527f4552433732315072657365744d696e7465725061757365724175746f49643a2060448201527f6d75737420686176652070617573657220726f6c6520746f20706175736500006064820152608401610802565b610c01611f14565b6011546001600160a01b0316336001600160a01b0316146113675760405162461bcd60e51b815260040161080290613b0e565b61137260003361145f565b61138e5760405162461bcd60e51b815260040161080290613b0e565b601180546001600160a01b038381166001600160a01b03198316811790935516906113bb906000906109b8565b6011546113e090600080516020613d25833981519152906001600160a01b03166109b8565b60115461140590600080516020613d05833981519152906001600160a01b03166109b8565b61141060008261199c565b611428600080516020613d258339815191528261199c565b610aed600080516020613d058339815191528261199c565b60008281526001602052604081206114589083611f51565b9392505050565b6000918252602082815260408084206001600160a01b0393909316845291905290205460ff1690565b6060601880546106e3906133a4565b6011546001600160a01b0316336001600160a01b0316146114ca5760405162461bcd60e51b815260040161080290613b0e565b6114d560003361145f565b6114f15760405162461bcd60e51b815260040161080290613b0e565b60408051808201909152600381526232303360e81b602082015261271082111561152e5760405162461bcd60e51b81526004016108029190612e5d565b50604080516060810182526001600160a01b03938416815262ffffff928316602080830191825260018385019081526000978852601990915292909520905181549551925194166001600160b81b031990951694909417600160a01b91909216021760ff60b81b1916600160b81b91151591909102179055565b610aed338383611f5d565b6001600160a01b0382166115d95760405162461bcd60e51b815260040161080290613b3a565b6001600160a01b0383166115ff5760405162461bcd60e51b815260040161080290613b3a565b601354156116395760405162461bcd60e51b815260206004820152600760248201526611561254d5115160ca1b6044820152606401610802565b845161164c906017906020880190612d39565b508351611660906018906020870190612d39565b50601280546001600160a01b0319166001600160a01b038416179055601381905561168a8361202c565b5050505050565b6018805461169e906133a4565b80601f01602080910402602001604051908101604052809291908181526020018280546116ca906133a4565b80156117175780601f106116ec57610100808354040283529160200191611717565b820191906000526020600020905b8154815290600101906020018083116116fa57829003601f168201915b505050505081565b6117293383611b56565b6117455760405162461bcd60e51b815260040161080290613406565b610b6784848484612118565b60008181526015602052604081208054606092919061176f906133a4565b80601f016020809104026020016040519081016040528092919081815260200182805461179b906133a4565b80156117e85780601f106117bd576101008083540402835291602001916117e8565b820191906000526020600020905b8154815290600101906020018083116117cb57829003601f168201915b505050505090506000815111156118985760008381526015602052604090208054611812906133a4565b80601f016020809104026020016040519081016040528092919081815260200182805461183e906133a4565b801561188b5780601f106118605761010080835404028352916020019161188b565b820191906000526020600020905b81548152906001019060200180831161186e57829003601f168201915b5050505050915050919050565b6118a06119c1565b6118a98461214b565b6040516020016118ba929190613b5b565b604051602081830303815290604052915050919050565b50919050565b60008181526001602052604081206106ce90612248565b6017805461169e906133a4565b60408051808201909152600381526203130360ec1b60208201526001600160a01b03831661193c5760405162461bcd60e51b81526004016108029190612e5d565b50611955600080516020613d2583398151915283611d86565b60005b81518110156108a35760008282815181106119755761197561349d565b602002602001015190506119898482612252565b50806119948161365d565b915050611958565b6000828152602081905260409020600101546119b781611d7c565b6108a38383611da8565b60606108bf6122d8565b6119d5828261145f565b610aed576000828152602081815260408083206001600160a01b03851684529091529020805460ff19166001179055611a0b3390565b6001600160a01b0316816001600160a01b0316837f2f8788117e7eff1d82e926ec794901d17c78024a50270940304540a733656f0d60405160405180910390a45050565b6000611458836001600160a01b0384166122e7565b60006001600160e01b0319821663780e9d6360e01b14806106ce57506106ce82612336565b6000818152600460205260409020546001600160a01b03166104935760405162461bcd60e51b8152602060048201526018602482015277115490cdcc8c4e881a5b9d985b1a59081d1bdad95b88125160421b6044820152606401610802565b600081815260066020526040902080546001600160a01b0319166001600160a01b0384169081179091558190611b1d82610cdf565b6001600160a01b03167f8c5be1e5ebec7d5bd14f71427d1e84f3dd0314c0f7b2291e5b200ac8c7c3b92560405160405180910390a45050565b600080611b6283610cdf565b9050806001600160a01b0316846001600160a01b03161480611ba957506001600160a01b0380821660009081526007602090815260408083209388168352929052205460ff165b80611bcd5750836001600160a01b0316611bc284610766565b6001600160a01b0316145b949350505050565b826001600160a01b0316611be882610cdf565b6001600160a01b031614611c4c5760405162461bcd60e51b815260206004820152602560248201527f4552433732313a207472616e736665722066726f6d20696e636f72726563742060448201526437bbb732b960d91b6064820152608401610802565b6001600160a01b038216611cae5760405162461bcd60e51b8152602060048201526024808201527f4552433732313a207472616e7366657220746f20746865207a65726f206164646044820152637265737360e01b6064820152608401610802565b611cb9838383612376565b611cc4600082611ae8565b6001600160a01b0383166000908152600560205260408120805460019290611ced9084906133ef565b90915550506001600160a01b0382166000908152600560205260408120805460019290611d1b908490613b8a565b909155505060008181526004602052604080822080546001600160a01b0319166001600160a01b0386811691821790925591518493918716917fddf252ad1be2c89b69c2b068fc378daa952ba7f163c4a11628f55a4df523b3ef91a4505050565b6104938133612381565b611d9082826119cb565b60008281526001602052604090206108a39082611a4f565b611db282826123e5565b60008281526001602052604090206108a3908261244a565b611dd261245f565b600c805460ff191690557f5db9ee0a495bf2e6ff9c91a7834c1ba4fdd244a5e8aa4e537bd38aeae4b073aa335b6040516001600160a01b03909116815260200160405180910390a1565b6000611e2782610cdf565b9050611e3581600084612376565b611e40600083611ae8565b6001600160a01b0381166000908152600560205260408120805460019290611e699084906133ef565b909155505060008281526004602052604080822080546001600160a01b0319169055518391906001600160a01b038416907fddf252ad1be2c89b69c2b068fc378daa952ba7f163c4a11628f55a4df523b3ef908390a45050565b6000611ecf83836133ef565b611eda906001613b8a565b611ee49085613ba2565b611bcd9084613b8a565b60006114588284613ba2565b610aed8282604051806020016040528060008152506124a8565b611f1c6124db565b600c805460ff191660011790557f62e78cea01bee320cd4e420270b5ea74000d11b0c9f74754ebdbfc544b05a258611dff3390565b60006114588383612521565b816001600160a01b0316836001600160a01b03161415611fbf5760405162461bcd60e51b815260206004820152601960248201527f4552433732313a20617070726f766520746f2063616c6c6572000000000000006044820152606401610802565b6001600160a01b03838116600081815260076020908152604080832094871680845294825291829020805460ff191686151590811790915591519182527f17307eab39ab6107e8899845ad3d59bd9653f200f220920489ca2b5937696c31910160405180910390a3505050565b6012546001600160a01b0316331461207e5760405162461bcd60e51b815260206004820152601560248201527424a72b2fa9a2a72222a92fa4a724aa2fa0a226a4a760591b6044820152606401610802565b6001600160a01b0381166120a45760405162461bcd60e51b815260040161080290613b3a565b601180546001600160a01b0319166001600160a01b0383169081179091556120ce90600090611d86565b6011546120f390600080516020613d25833981519152906001600160a01b0316611d86565b60115461049390600080516020613d05833981519152906001600160a01b0316611d86565b612123848484611bd5565b61212f8484848461254b565b610b675760405162461bcd60e51b815260040161080290613bb6565b60608161216f5750506040805180820190915260018152600360fc1b602082015290565b8160005b811561219957806121838161365d565b91506121929050600a83613489565b9150612173565b6000816001600160401b038111156121b3576121b3612f59565b6040519080825280601f01601f1916602001820160405280156121dd576020820181803683370190505b5090505b8415611bcd576121f26001836133ef565b91506121ff600a86613ba2565b61220a906030613b8a565b60f81b81838151811061221f5761221f61349d565b60200101906001600160f81b031916908160001a905350612241600a86613489565b94506121e1565b60006106ce825490565b60008181526016602052604090205481906001600160a01b031633146122a95760405162461bcd60e51b815260206004820152600c60248201526b27a7262cafa1a922a0aa27a960a11b6044820152606401610802565b50600090815260166020526040902080546001600160a01b0319166001600160a01b0392909216919091179055565b6060600e80546106e3906133a4565b600081815260018301602052604081205461232e575081546001818101845560008481526020808220909301849055845484825282860190935260409020919091556106ce565b5060006106ce565b60006001600160e01b031982166380ac58cd60e01b148061236757506001600160e01b03198216635b5e139f60e01b145b806106ce57506106ce82612649565b6108a383838361266e565b61238b828261145f565b610aed576123a3816001600160a01b031660146126e0565b6123ae8360206126e0565b6040516020016123bf929190613c08565b60408051601f198184030181529082905262461bcd60e51b825261080291600401612e5d565b6123ef828261145f565b15610aed576000828152602081815260408083206001600160a01b0385168085529252808320805460ff1916905551339285917ff6391f5c32d9c69d2a47ea670b442974b53935d1edc7fd64eb21e047a839171b9190a45050565b6000611458836001600160a01b03841661287b565b600c5460ff16610c015760405162461bcd60e51b815260206004820152601460248201527314185d5cd8589b194e881b9bdd081c185d5cd95960621b6044820152606401610802565b6124b2838361296e565b6124bf600084848461254b565b6108a35760405162461bcd60e51b815260040161080290613bb6565b600c5460ff1615610c015760405162461bcd60e51b815260206004820152601060248201526f14185d5cd8589b194e881c185d5cd95960821b6044820152606401610802565b60008260000182815481106125385761253861349d565b9060005260206000200154905092915050565b60006001600160a01b0384163b1561263e57604051630a85bd0160e11b81526001600160a01b0385169063150b7a029061258f903390899088908890600401613c7d565b6020604051808303816000875af19250505080156125ca575060408051601f3d908101601f191682019092526125c791810190613cba565b60015b612624573d8080156125f8576040519150601f19603f3d011682016040523d82523d6000602084013e6125fd565b606091505b50805161261c5760405162461bcd60e51b815260040161080290613bb6565b805181602001fd5b6001600160e01b031916630a85bd0160e11b149050611bcd565b506001949350505050565b60006001600160e01b03198216635a05180f60e01b14806106ce57506106ce82612abc565b612679838383612af1565b600c5460ff16156108a35760405162461bcd60e51b815260206004820152602b60248201527f4552433732315061757361626c653a20746f6b656e207472616e73666572207760448201526a1a1a5b19481c185d5cd95960aa1b6064820152608401610802565b606060006126ef836002613454565b6126fa906002613b8a565b6001600160401b0381111561271157612711612f59565b6040519080825280601f01601f19166020018201604052801561273b576020820181803683370190505b509050600360fc1b816000815181106127565761275661349d565b60200101906001600160f81b031916908160001a905350600f60fb1b816001815181106127855761278561349d565b60200101906001600160f81b031916908160001a90535060006127a9846002613454565b6127b4906001613b8a565b90505b600181111561282c576f181899199a1a9b1b9c1cb0b131b232b360811b85600f16601081106127e8576127e861349d565b1a60f81b8282815181106127fe576127fe61349d565b60200101906001600160f81b031916908160001a90535060049490941c9361282581613cd7565b90506127b7565b5083156114585760405162461bcd60e51b815260206004820181905260248201527f537472696e67733a20686578206c656e67746820696e73756666696369656e746044820152606401610802565b6000818152600183016020526040812054801561296457600061289f6001836133ef565b85549091506000906128b3906001906133ef565b90508181146129185760008660000182815481106128d3576128d361349d565b90600052602060002001549050808760000184815481106128f6576128f661349d565b6000918252602080832090910192909255918252600188019052604090208390555b855486908061292957612929613cee565b6001900381819060005260206000200160009055905585600101600086815260200190815260200160002060009055600193505050506106ce565b60009150506106ce565b6001600160a01b0382166129c45760405162461bcd60e51b815260206004820181905260248201527f4552433732313a206d696e7420746f20746865207a65726f20616464726573736044820152606401610802565b6000818152600460205260409020546001600160a01b031615612a295760405162461bcd60e51b815260206004820152601c60248201527f4552433732313a20746f6b656e20616c7265616479206d696e746564000000006044820152606401610802565b612a3560008383612376565b6001600160a01b0382166000908152600560205260408120805460019290612a5e908490613b8a565b909155505060008181526004602052604080822080546001600160a01b0319166001600160a01b03861690811790915590518392907fddf252ad1be2c89b69c2b068fc378daa952ba7f163c4a11628f55a4df523b3ef908290a45050565b60006001600160e01b03198216637965db0b60e01b14806106ce57506301ffc9a760e01b6001600160e01b03198316146106ce565b6001600160a01b038316612b4c57612b4781600a80546000838152600b60205260408120829055600182018355919091527fc65a7bb8d6351c1cf70c95a316cc6a92839c986682d98bc35f958f4883f9d2a80155565b612b6f565b816001600160a01b0316836001600160a01b031614612b6f57612b6f8382612ba9565b6001600160a01b038216612b86576108a381612c46565b826001600160a01b0316826001600160a01b0316146108a3576108a38282612cf5565b60006001612bb684610d3f565b612bc091906133ef565b600083815260096020526040902054909150808214612c13576001600160a01b03841660009081526008602090815260408083208584528252808320548484528184208190558352600990915290208190555b5060009182526009602090815260408084208490556001600160a01b039094168352600881528383209183525290812055565b600a54600090612c58906001906133ef565b6000838152600b6020526040812054600a8054939450909284908110612c8057612c8061349d565b9060005260206000200154905080600a8381548110612ca157612ca161349d565b6000918252602080832090910192909255828152600b9091526040808220849055858252812055600a805480612cd957612cd9613cee565b6001900381819060005260206000200160009055905550505050565b6000612d0083610d3f565b6001600160a01b039093166000908152600860209081526040808320868452825280832085905593825260099052919091209190915550565b828054612d45906133a4565b90600052602060002090601f016020900481019282612d675760008555612dad565b82601f10612d8057805160ff1916838001178555612dad565b82800160010185558215612dad579182015b82811115612dad578251825591602001919060010190612d92565b50612db9929150612dbd565b5090565b5b80821115612db95760008155600101612dbe565b6001600160e01b03198116811461049357600080fd5b600060208284031215612dfa57600080fd5b813561145881612dd2565b60005b83811015612e20578181015183820152602001612e08565b83811115610b675750506000910152565b60008151808452612e49816020860160208601612e05565b601f01601f19169290920160200192915050565b6020815260006114586020830184612e31565b600060208284031215612e8257600080fd5b5035919050565b80356001600160a01b0381168114612ea057600080fd5b919050565b60008060408385031215612eb857600080fd5b612ec183612e89565b946020939093013593505050565b600080600060608486031215612ee457600080fd5b612eed84612e89565b9250612efb60208501612e89565b9150604084013590509250925092565b60008060408385031215612f1e57600080fd5b50508035926020909101359150565b60008060408385031215612f4057600080fd5b82359150612f5060208401612e89565b90509250929050565b634e487b7160e01b600052604160045260246000fd5b60405160e081016001600160401b0381118282101715612f9157612f91612f59565b60405290565b604051601f8201601f191681016001600160401b0381118282101715612fbf57612fbf612f59565b604052919050565b60006001600160401b03831115612fe057612fe0612f59565b612ff3601f8401601f1916602001612f97565b905082815283838301111561300757600080fd5b828260208301376000602084830101529392505050565b600082601f83011261302f57600080fd5b61145883833560208501612fc7565b6000806040838503121561305157600080fd5b8235915060208301356001600160401b0381111561306e57600080fd5b6109ad8582860161301e565b60006020828403121561308c57600080fd5b61145882612e89565b801515811461049357600080fd5b8035612ea081613095565b600080600080600060a086880312156130c657600080fd5b6130cf86612e89565b94506130dd60208701612e89565b935060408601356001600160401b03808211156130f957600080fd5b61310589838a0161301e565b9450606088013591508082111561311b57600080fd5b5086016040818903121561312e57600080fd5b9150608086013561313e81613095565b809150509295509295909350565b60008060006060848603121561316157600080fd5b83359250612efb60208501612e89565b6000806040838503121561318457600080fd5b61318d83612e89565b9150602083013561319d81613095565b809150509250929050565b600080600080600060a086880312156131c057600080fd5b85356001600160401b03808211156131d757600080fd5b6131e389838a0161301e565b965060208801359150808211156131f957600080fd5b506132068882890161301e565b94505061321560408701612e89565b925061322360608701612e89565b949793965091946080013592915050565b6000806000806080858703121561324a57600080fd5b61325385612e89565b935061326160208601612e89565b92506040850135915060608501356001600160401b0381111561328357600080fd5b8501601f8101871361329457600080fd5b6132a387823560208401612fc7565b91505092959194509250565b60006001600160401b038211156132c8576132c8612f59565b5060051b60200190565b600080604083850312156132e557600080fd5b6132ee83612e89565b91506020808401356001600160401b0381111561330a57600080fd5b8401601f8101861361331b57600080fd5b803561332e613329826132af565b612f97565b81815260059190911b8201830190838101908883111561334d57600080fd5b928401925b8284101561336b57833582529284019290840190613352565b80955050505050509250929050565b6000806040838503121561338d57600080fd5b61339683612e89565b9150612f5060208401612e89565b600181811c908216806133b857607f821691505b602082108114156118d157634e487b7160e01b600052602260045260246000fd5b634e487b7160e01b600052601160045260246000fd5b600082821015613401576134016133d9565b500390565b6020808252602e908201527f4552433732313a2063616c6c6572206973206e6f7420746f6b656e206f776e6560408201526d1c881b9bdc88185c1c1c9bdd995960921b606082015260800190565b600081600019048311821515161561346e5761346e6133d9565b500290565b634e487b7160e01b600052601260045260246000fd5b60008261349857613498613473565b500490565b634e487b7160e01b600052603260045260246000fd5b6000808335601e198436030181126134ca57600080fd5b8301803591506001600160401b038211156134e457600080fd5b6020019150600581901b36038213156134fc57600080fd5b9250929050565b6000823560de1983360301811261351957600080fd5b9190910192915050565b60ff8116811461049357600080fd5b8035612ea081613523565b600082601f83011261354e57600080fd5b8135602061355e613329836132af565b82815260059290921b8401810191818101908684111561357d57600080fd5b8286015b848110156135bc5780356001600160401b038111156135a05760008081fd5b6135ae8986838b010161301e565b845250918301918301613581565b509695505050505050565b600060e082360312156135d957600080fd5b6135e1612f6f565b6135ea83613532565b8152602083013560208201526040830135604082015261360c60608401613532565b606082015260808301356001600160401b0381111561362a57600080fd5b6136363682860161353d565b60808301525060a083013560a082015261365260c084016130a3565b60c082015292915050565b6000600019821415613671576136716133d9565b5060010190565b60006020828403121561368a57600080fd5b815161145881613095565b6000602082840312156136a757600080fd5b5051919050565b5b81811015610aed57600081556001016136af565b8054600080835581156108a35782815260208082208381015b80821015613741576136ee82546133a4565b801561373557601f8082116001811461370957868555613732565b84875285872061372383850160051c8201600183016136ae565b50600085815260208120818755555b50505b506001820191506136dc565b505050505050565b601f8211156108a357806000526020600020601f840160051c810160208510156137705750805b61168a601f850160051c8301826136ae565b6001600160401b0383111561379957613799612f59565b6137ad836137a783546133a4565b83613749565b6000601f8411600181146137e157600085156137c95750838201355b600019600387901b1c1916600186901b17835561168a565b600083815260209020601f19861690835b8281101561381257868501358255602094850194600190920191016137f2565b508682101561382f5760001960f88860031b161c19848701351681555b505060018560011b0183555050505050565b600081356106ce81613095565b813561385981613523565b815460ff191660ff82161782555060016020808401358284015560408401356002840155606084013561388b81613523565b60038401805460ff191660ff831617905550600483016138ae60808601866134b3565b600160401b8111156138c2576138c2612f59565b8254818455808210156139475760008481528581208381019083015b80821015613943576138f082546133a4565b801561393957601f8082116001811461390b57858555613936565b60008581526020902061392783850160051c82018e83016136ae565b50600085815260208120818755555b50505b50908801906138de565b5050505b508160008481528581209450805b838110156139b6578235601e19863603018112613970578283fd5b850180356001600160401b03811115613987578384fd5b888201915080360382131561399a578384fd5b6139a581838a613782565b505094870194918601918701613955565b505050505050505060a08201356005820155610aed6139d760c08401613841565b6006830160ff1981541660ff8315151681178255505050565b8135815560018082016020613a07818601866134b3565b600160401b811115613a1b57613a1b612f59565b835481855580821015613ac8577f2492492492492492492492492492492492492492492492492492492492492492808211871615613a5b57613a5b6133d9565b6007818411881615613a6f57613a6f6133d9565b6000878152868120909250848202810190828502015b80821015613ac357838255838a830155836002830155836003830155613aad600483016136c3565b8360058301558360068301558282019150613a85565b505050505b506000938452602084209382905b82811015613b0357613af1613aeb8386613503565b8761384e565b60079590950194908401908601613ad6565b505050505050505050565b60208082526012908201527113d3931657d05113525397d0531313d5d15160721b604082015260600190565b60208082526007908201526612539597d0511160ca1b604082015260600190565b60008351613b6d818460208801612e05565b835190830190613b81818360208801612e05565b01949350505050565b60008219821115613b9d57613b9d6133d9565b500190565b600082613bb157613bb1613473565b500690565b60208082526032908201527f4552433732313a207472616e7366657220746f206e6f6e20455243373231526560408201527131b2b4bb32b91034b6b83632b6b2b73a32b960711b606082015260800190565b7f416363657373436f6e74726f6c3a206163636f756e7420000000000000000000815260008351613c40816017850160208801612e05565b7001034b99036b4b9b9b4b733903937b6329607d1b6017918401918201528351613c71816028840160208801612e05565b01602801949350505050565b6001600160a01b0385811682528416602082015260408101839052608060608201819052600090613cb090830184612e31565b9695505050505050565b600060208284031215613ccc57600080fd5b815161145881612dd2565b600081613ce657613ce66133d9565b506000190190565b634e487b7160e01b600052603160045260246000fdfe65d7a28e3265b37a6474929f336521b332c1681b933f6cb9f3376673440d862a9f2df0fed2c77648de5860a4cc508cd0818c85b8b8a1ab4ceeef8d981c8956a6a26469706673582212207239ba4eed0bfd744afc7de02036879ebffd9b0b458532f5ffa7525c17ea3f2264736f6c634300080c0033",
  "linkReferences": {},
  "deployedLinkReferences": {}
}