{
  "_format": "hh-sol-artifact-1",
  "contractName": "GenerativeNFT",
  "sourceName": "contracts/nft/GenerativeNFT.sol",
  "abi": [
    {
      "inputs": [
        {
          "internalType": "string",
          "name": "_name",
          "type": "string"
        },
        {
          "internalType": "string",
          "name": "_symbol",
          "type": "string"
        },
        {
          "internalType": "string",
          "name": "_baseuri",
          "type": "string"
        },
        {
          "internalType": "address",
          "name": "admin",
          "type": "address"
        }
      ],
      "stateMutability": "nonpayable",
      "type": "constructor"
    },
    {
      "anonymous": false,
      "inputs": [
        {
          "indexed": true,
          "internalType": "address",
          "name": "owner",
          "type": "address"
        },
        {
          "indexed": true,
          "internalType": "address",
          "name": "approved",
          "type": "address"
        },
        {
          "indexed": true,
          "internalType": "uint256",
          "name": "tokenId",
          "type": "uint256"
        }
      ],
      "name": "Approval",
      "type": "event"
    },
    {
      "anonymous": false,
      "inputs": [
        {
          "indexed": true,
          "internalType": "address",
          "name": "owner",
          "type": "address"
        },
        {
          "indexed": true,
          "internalType": "address",
          "name": "operator",
          "type": "address"
        },
        {
          "indexed": false,
          "internalType": "bool",
          "name": "approved",
          "type": "bool"
        }
      ],
      "name": "ApprovalForAll",
      "type": "event"
    },
    {
      "anonymous": false,
      "inputs": [
        {
          "indexed": false,
          "internalType": "address",
          "name": "mintTo",
          "type": "address"
        },
        {
          "indexed": false,
          "internalType": "address",
          "name": "creator",
          "type": "address"
        },
        {
          "indexed": false,
          "internalType": "string",
          "name": "uri",
          "type": "string"
        },
        {
          "indexed": false,
          "internalType": "uint256",
          "name": "tokenId",
          "type": "uint256"
        }
      ],
      "name": "MintGenerativeNFT",
      "type": "event"
    },
    {
      "anonymous": false,
      "inputs": [
        {
          "indexed": true,
          "internalType": "address",
          "name": "previousOwner",
          "type": "address"
        },
        {
          "indexed": true,
          "internalType": "address",
          "name": "newOwner",
          "type": "address"
        }
      ],
      "name": "OwnershipTransferred",
      "type": "event"
    },
    {
      "anonymous": false,
      "inputs": [
        {
          "indexed": false,
          "internalType": "address",
          "name": "account",
          "type": "address"
        }
      ],
      "name": "Paused",
      "type": "event"
    },
    {
      "anonymous": false,
      "inputs": [
        {
          "indexed": true,
          "internalType": "bytes32",
          "name": "role",
          "type": "bytes32"
        },
        {
          "indexed": true,
          "internalType": "bytes32",
          "name": "previousAdminRole",
          "type": "bytes32"
        },
        {
          "indexed": true,
          "internalType": "bytes32",
          "name": "newAdminRole",
          "type": "bytes32"
        }
      ],
      "name": "RoleAdminChanged",
      "type": "event"
    },
    {
      "anonymous": false,
      "inputs": [
        {
          "indexed": true,
          "internalType": "bytes32",
          "name": "role",
          "type": "bytes32"
        },
        {
          "indexed": true,
          "internalType": "address",
          "name": "account",
          "type": "address"
        },
        {
          "indexed": true,
          "internalType": "address",
          "name": "sender",
          "type": "address"
        }
      ],
      "name": "RoleGranted",
      "type": "event"
    },
    {
      "anonymous": false,
      "inputs": [
        {
          "indexed": true,
          "internalType": "bytes32",
          "name": "role",
          "type": "bytes32"
        },
        {
          "indexed": true,
          "internalType": "address",
          "name": "account",
          "type": "address"
        },
        {
          "indexed": true,
          "internalType": "address",
          "name": "sender",
          "type": "address"
        }
      ],
      "name": "RoleRevoked",
      "type": "event"
    },
    {
      "anonymous": false,
      "inputs": [
        {
          "indexed": true,
          "internalType": "address",
          "name": "from",
          "type": "address"
        },
        {
          "indexed": true,
          "internalType": "address",
          "name": "to",
          "type": "address"
        },
        {
          "indexed": true,
          "internalType": "uint256",
          "name": "tokenId",
          "type": "uint256"
        }
      ],
      "name": "Transfer",
      "type": "event"
    },
    {
      "anonymous": false,
      "inputs": [
        {
          "indexed": false,
          "internalType": "address",
          "name": "account",
          "type": "address"
        }
      ],
      "name": "Unpaused",
      "type": "event"
    },
    {
      "inputs": [],
      "name": "DEFAULT_ADMIN_ROLE",
      "outputs": [
        {
          "internalType": "bytes32",
          "name": "",
          "type": "bytes32"
        }
      ],
      "stateMutability": "view",
      "type": "function"
    },
    {
      "inputs": [],
      "name": "MINTER_ROLE",
      "outputs": [
        {
          "internalType": "bytes32",
          "name": "",
          "type": "bytes32"
        }
      ],
      "stateMutability": "view",
      "type": "function"
    },
    {
      "inputs": [],
      "name": "PAUSER_ROLE",
      "outputs": [
        {
          "internalType": "bytes32",
          "name": "",
          "type": "bytes32"
        }
      ],
      "stateMutability": "view",
      "type": "function"
    },
    {
      "inputs": [],
      "name": "_admin",
      "outputs": [
        {
          "internalType": "address",
          "name": "",
          "type": "address"
        }
      ],
      "stateMutability": "view",
      "type": "function"
    },
    {
      "inputs": [],
      "name": "_boilerplateAddr",
      "outputs": [
        {
          "internalType": "address",
          "name": "",
          "type": "address"
        }
      ],
      "stateMutability": "view",
      "type": "function"
    },
    {
      "inputs": [],
      "name": "_boilerplateId",
      "outputs": [
        {
          "internalType": "uint256",
          "name": "",
          "type": "uint256"
        }
      ],
      "stateMutability": "view",
      "type": "function"
    },
    {
      "inputs": [
        {
          "internalType": "uint256",
          "name": "",
          "type": "uint256"
        }
      ],
      "name": "_creators",
      "outputs": [
        {
          "internalType": "address",
          "name": "",
          "type": "address"
        }
      ],
      "stateMutability": "view",
      "type": "function"
    },
    {
      "inputs": [
        {
          "internalType": "uint256",
          "name": "",
          "type": "uint256"
        }
      ],
      "name": "_paramsValues",
      "outputs": [
        {
          "internalType": "bytes32",
          "name": "_seed",
          "type": "bytes32"
        }
      ],
      "stateMutability": "view",
      "type": "function"
    },
    {
      "inputs": [
        {
          "internalType": "address",
          "name": "to",
          "type": "address"
        },
        {
          "internalType": "uint256",
          "name": "tokenId",
          "type": "uint256"
        }
      ],
      "name": "approve",
      "outputs": [],
      "stateMutability": "nonpayable",
      "type": "function"
    },
    {
      "inputs": [
        {
          "internalType": "address",
          "name": "owner",
          "type": "address"
        }
      ],
      "name": "balanceOf",
      "outputs": [
        {
          "internalType": "uint256",
          "name": "",
          "type": "uint256"
        }
      ],
      "stateMutability": "view",
      "type": "function"
    },
    {
      "inputs": [],
      "name": "baseTokenURI",
      "outputs": [
        {
          "internalType": "string",
          "name": "",
          "type": "string"
        }
      ],
      "stateMutability": "view",
      "type": "function"
    },
    {
      "inputs": [
        {
          "internalType": "uint256",
          "name": "tokenId",
          "type": "uint256"
        }
      ],
      "name": "burn",
      "outputs": [],
      "stateMutability": "nonpayable",
      "type": "function"
    },
    {
      "inputs": [
        {
          "internalType": "address",
          "name": "_newAdmin",
          "type": "address"
        }
      ],
      "name": "changeAdmin",
      "outputs": [],
      "stateMutability": "nonpayable",
      "type": "function"
    },
    {
      "inputs": [
        {
          "internalType": "uint256",
          "name": "tokenId",
          "type": "uint256"
        }
      ],
      "name": "getApproved",
      "outputs": [
        {
          "internalType": "address",
          "name": "",
          "type": "address"
        }
      ],
      "stateMutability": "view",
      "type": "function"
    },
    {
      "inputs": [
        {
          "internalType": "uint256",
          "name": "tokenId",
          "type": "uint256"
        }
      ],
      "name": "getParamValues",
      "outputs": [
        {
          "internalType": "bytes32",
          "name": "",
          "type": "bytes32"
        },
        {
          "components": [
            {
              "internalType": "uint8",
              "name": "_typeValue",
              "type": "uint8"
            },
            {
              "internalType": "uint256",
              "name": "_max",
              "type": "uint256"
            },
            {
              "internalType": "uint256",
              "name": "_min",
              "type": "uint256"
            },
            {
              "internalType": "uint8",
              "name": "_decimal",
              "type": "uint8"
            },
            {
              "internalType": "string[]",
              "name": "_availableValues",
              "type": "string[]"
            },
            {
              "internalType": "uint256",
              "name": "_value",
              "type": "uint256"
            },
            {
              "internalType": "bool",
              "name": "_editable",
              "type": "bool"
            }
          ],
          "internalType": "struct BoilerplateParam.ParamTemplate[]",
          "name": "",
          "type": "tuple[]"
        }
      ],
      "stateMutability": "view",
      "type": "function"
    },
    {
      "inputs": [
        {
          "internalType": "bytes32",
          "name": "role",
          "type": "bytes32"
        }
      ],
      "name": "getRoleAdmin",
      "outputs": [
        {
          "internalType": "bytes32",
          "name": "",
          "type": "bytes32"
        }
      ],
      "stateMutability": "view",
      "type": "function"
    },
    {
      "inputs": [
        {
          "internalType": "bytes32",
          "name": "role",
          "type": "bytes32"
        },
        {
          "internalType": "uint256",
          "name": "index",
          "type": "uint256"
        }
      ],
      "name": "getRoleMember",
      "outputs": [
        {
          "internalType": "address",
          "name": "",
          "type": "address"
        }
      ],
      "stateMutability": "view",
      "type": "function"
    },
    {
      "inputs": [
        {
          "internalType": "bytes32",
          "name": "role",
          "type": "bytes32"
        }
      ],
      "name": "getRoleMemberCount",
      "outputs": [
        {
          "internalType": "uint256",
          "name": "",
          "type": "uint256"
        }
      ],
      "stateMutability": "view",
      "type": "function"
    },
    {
      "inputs": [
        {
          "internalType": "uint256",
          "name": "tokenId",
          "type": "uint256"
        }
      ],
      "name": "getTokenTraits",
      "outputs": [
        {
          "components": [
            {
              "internalType": "string",
              "name": "name",
              "type": "string"
            },
            {
              "internalType": "string[]",
              "name": "_availableValues",
              "type": "string[]"
            },
            {
              "internalType": "uint256",
              "name": "_value",
              "type": "uint256"
            },
            {
              "internalType": "string",
              "name": "_valueStr",
              "type": "string"
            }
          ],
          "internalType": "struct TraitInfo.Trait[]",
          "name": "",
          "type": "tuple[]"
        }
      ],
      "stateMutability": "view",
      "type": "function"
    },
    {
      "inputs": [],
      "name": "getTraits",
      "outputs": [
        {
          "components": [
            {
              "internalType": "string",
              "name": "name",
              "type": "string"
            },
            {
              "internalType": "string[]",
              "name": "_availableValues",
              "type": "string[]"
            },
            {
              "internalType": "uint256",
              "name": "_value",
              "type": "uint256"
            },
            {
              "internalType": "string",
              "name": "_valueStr",
              "type": "string"
            }
          ],
          "internalType": "struct TraitInfo.Trait[]",
          "name": "",
          "type": "tuple[]"
        }
      ],
      "stateMutability": "view",
      "type": "function"
    },
    {
      "inputs": [
        {
          "internalType": "bytes32",
          "name": "role",
          "type": "bytes32"
        },
        {
          "internalType": "address",
          "name": "account",
          "type": "address"
        }
      ],
      "name": "grantRole",
      "outputs": [],
      "stateMutability": "nonpayable",
      "type": "function"
    },
    {
      "inputs": [
        {
          "internalType": "bytes32",
          "name": "role",
          "type": "bytes32"
        },
        {
          "internalType": "address",
          "name": "account",
          "type": "address"
        }
      ],
      "name": "hasRole",
      "outputs": [
        {
          "internalType": "bool",
          "name": "",
          "type": "bool"
        }
      ],
      "stateMutability": "view",
      "type": "function"
    },
    {
      "inputs": [
        {
          "internalType": "string",
          "name": "name",
          "type": "string"
        },
        {
          "internalType": "string",
          "name": "symbol",
          "type": "string"
        },
        {
          "internalType": "address",
          "name": "admin",
          "type": "address"
        },
        {
          "internalType": "address",
          "name": "boilerplateAdd",
          "type": "address"
        },
        {
          "internalType": "uint256",
          "name": "boilerplateId",
          "type": "uint256"
        }
      ],
      "name": "init",
      "outputs": [],
      "stateMutability": "nonpayable",
      "type": "function"
    },
    {
      "inputs": [
        {
          "internalType": "address",
          "name": "owner",
          "type": "address"
        },
        {
          "internalType": "address",
          "name": "operator",
          "type": "address"
        }
      ],
      "name": "isApprovedForAll",
      "outputs": [
        {
          "internalType": "bool",
          "name": "",
          "type": "bool"
        }
      ],
      "stateMutability": "view",
      "type": "function"
    },
    {
      "inputs": [
        {
          "internalType": "address",
          "name": "to",
          "type": "address"
        }
      ],
      "name": "mint",
      "outputs": [],
      "stateMutability": "nonpayable",
      "type": "function"
    },
    {
      "inputs": [
        {
          "internalType": "address",
          "name": "mintTo",
          "type": "address"
        },
        {
          "internalType": "address",
          "name": "creator",
          "type": "address"
        },
        {
          "internalType": "string",
          "name": "uri",
          "type": "string"
        },
        {
          "components": [
            {
              "internalType": "bytes32",
              "name": "_seed",
              "type": "bytes32"
            },
            {
              "components": [
                {
                  "internalType": "uint8",
                  "name": "_typeValue",
                  "type": "uint8"
                },
                {
                  "internalType": "uint256",
                  "name": "_max",
                  "type": "uint256"
                },
                {
                  "internalType": "uint256",
                  "name": "_min",
                  "type": "uint256"
                },
                {
                  "internalType": "uint8",
                  "name": "_decimal",
                  "type": "uint8"
                },
                {
                  "internalType": "string[]",
                  "name": "_availableValues",
                  "type": "string[]"
                },
                {
                  "internalType": "uint256",
                  "name": "_value",
                  "type": "uint256"
                },
                {
                  "internalType": "bool",
                  "name": "_editable",
                  "type": "bool"
                }
              ],
              "internalType": "struct BoilerplateParam.ParamTemplate[]",
              "name": "_params",
              "type": "tuple[]"
            }
          ],
          "internalType": "struct BoilerplateParam.ParamsOfProject",
          "name": "_paramsTemplateValue",
          "type": "tuple"
        }
      ],
      "name": "mint",
      "outputs": [],
      "stateMutability": "nonpayable",
      "type": "function"
    },
    {
      "inputs": [],
      "name": "name",
      "outputs": [
        {
          "internalType": "string",
          "name": "",
          "type": "string"
        }
      ],
      "stateMutability": "view",
      "type": "function"
    },
    {
      "inputs": [],
      "name": "owner",
      "outputs": [
        {
          "internalType": "address",
          "name": "",
          "type": "address"
        }
      ],
      "stateMutability": "view",
      "type": "function"
    },
    {
      "inputs": [
        {
          "internalType": "uint256",
          "name": "tokenId",
          "type": "uint256"
        }
      ],
      "name": "ownerOf",
      "outputs": [
        {
          "internalType": "address",
          "name": "",
          "type": "address"
        }
      ],
      "stateMutability": "view",
      "type": "function"
    },
    {
      "inputs": [],
      "name": "pause",
      "outputs": [],
      "stateMutability": "nonpayable",
      "type": "function"
    },
    {
      "inputs": [],
      "name": "paused",
      "outputs": [
        {
          "internalType": "bool",
          "name": "",
          "type": "bool"
        }
      ],
      "stateMutability": "view",
      "type": "function"
    },
    {
      "inputs": [],
      "name": "renounceOwnership",
      "outputs": [],
      "stateMutability": "nonpayable",
      "type": "function"
    },
    {
      "inputs": [
        {
          "internalType": "bytes32",
          "name": "role",
          "type": "bytes32"
        },
        {
          "internalType": "address",
          "name": "account",
          "type": "address"
        }
      ],
      "name": "renounceRole",
      "outputs": [],
      "stateMutability": "nonpayable",
      "type": "function"
    },
    {
      "inputs": [
        {
          "internalType": "bytes32",
          "name": "role",
          "type": "bytes32"
        },
        {
          "internalType": "address",
          "name": "account",
          "type": "address"
        }
      ],
      "name": "revokeRole",
      "outputs": [],
      "stateMutability": "nonpayable",
      "type": "function"
    },
    {
      "inputs": [
        {
          "internalType": "uint256",
          "name": "",
          "type": "uint256"
        }
      ],
      "name": "royalties",
      "outputs": [
        {
          "internalType": "address",
          "name": "recipient",
          "type": "address"
        },
        {
          "internalType": "uint24",
          "name": "amount",
          "type": "uint24"
        },
        {
          "internalType": "bool",
          "name": "isValue",
          "type": "bool"
        }
      ],
      "stateMutability": "view",
      "type": "function"
    },
    {
      "inputs": [
        {
          "internalType": "uint256",
          "name": "_tokenId",
          "type": "uint256"
        },
        {
          "internalType": "uint256",
          "name": "_salePrice",
          "type": "uint256"
        }
      ],
      "name": "royaltyInfo",
      "outputs": [
        {
          "internalType": "address",
          "name": "receiver",
          "type": "address"
        },
        {
          "internalType": "uint256",
          "name": "royaltyAmount",
          "type": "uint256"
        }
      ],
      "stateMutability": "view",
      "type": "function"
    },
    {
      "inputs": [
        {
          "internalType": "address",
          "name": "from",
          "type": "address"
        },
        {
          "internalType": "address",
          "name": "to",
          "type": "address"
        },
        {
          "internalType": "uint256",
          "name": "tokenId",
          "type": "uint256"
        }
      ],
      "name": "safeTransferFrom",
      "outputs": [],
      "stateMutability": "nonpayable",
      "type": "function"
    },
    {
      "inputs": [
        {
          "internalType": "address",
          "name": "from",
          "type": "address"
        },
        {
          "internalType": "address",
          "name": "to",
          "type": "address"
        },
        {
          "internalType": "uint256",
          "name": "tokenId",
          "type": "uint256"
        },
        {
          "internalType": "bytes",
          "name": "data",
          "type": "bytes"
        }
      ],
      "name": "safeTransferFrom",
      "outputs": [],
      "stateMutability": "nonpayable",
      "type": "function"
    },
    {
      "inputs": [
        {
          "internalType": "address",
          "name": "operator",
          "type": "address"
        },
        {
          "internalType": "bool",
          "name": "approved",
          "type": "bool"
        }
      ],
      "name": "setApprovalForAll",
      "outputs": [],
      "stateMutability": "nonpayable",
      "type": "function"
    },
    {
      "inputs": [
        {
          "internalType": "address",
          "name": "_to",
          "type": "address"
        },
        {
          "internalType": "uint256[]",
          "name": "_ids",
          "type": "uint256[]"
        }
      ],
      "name": "setCreator",
      "outputs": [],
      "stateMutability": "nonpayable",
      "type": "function"
    },
    {
      "inputs": [
        {
          "internalType": "uint256",
          "name": "_tokenId",
          "type": "uint256"
        },
        {
          "internalType": "string",
          "name": "_newURI",
          "type": "string"
        }
      ],
      "name": "setCustomURI",
      "outputs": [],
      "stateMutability": "nonpayable",
      "type": "function"
    },
    {
      "inputs": [
        {
          "internalType": "uint256",
          "name": "_tokenId",
          "type": "uint256"
        },
        {
          "internalType": "address",
          "name": "_recipient",
          "type": "address"
        },
        {
          "internalType": "uint256",
          "name": "_value",
          "type": "uint256"
        }
      ],
      "name": "setTokenRoyalty",
      "outputs": [],
      "stateMutability": "nonpayable",
      "type": "function"
    },
    {
      "inputs": [
        {
          "internalType": "bytes4",
          "name": "interfaceId",
          "type": "bytes4"
        }
      ],
      "name": "supportsInterface",
      "outputs": [
        {
          "internalType": "bool",
          "name": "",
          "type": "bool"
        }
      ],
      "stateMutability": "view",
      "type": "function"
    },
    {
      "inputs": [],
      "name": "symbol",
      "outputs": [
        {
          "internalType": "string",
          "name": "",
          "type": "string"
        }
      ],
      "stateMutability": "view",
      "type": "function"
    },
    {
      "inputs": [
        {
          "internalType": "uint256",
          "name": "index",
          "type": "uint256"
        }
      ],
      "name": "tokenByIndex",
      "outputs": [
        {
          "internalType": "uint256",
          "name": "",
          "type": "uint256"
        }
      ],
      "stateMutability": "view",
      "type": "function"
    },
    {
      "inputs": [
        {
          "internalType": "address",
          "name": "owner",
          "type": "address"
        },
        {
          "internalType": "uint256",
          "name": "index",
          "type": "uint256"
        }
      ],
      "name": "tokenOfOwnerByIndex",
      "outputs": [
        {
          "internalType": "uint256",
          "name": "",
          "type": "uint256"
        }
      ],
      "stateMutability": "view",
      "type": "function"
    },
    {
      "inputs": [
        {
          "internalType": "uint256",
          "name": "_tokenId",
          "type": "uint256"
        }
      ],
      "name": "tokenURI",
      "outputs": [
        {
          "internalType": "string",
          "name": "",
          "type": "string"
        }
      ],
      "stateMutability": "view",
      "type": "function"
    },
    {
      "inputs": [],
      "name": "totalSupply",
      "outputs": [
        {
          "internalType": "uint256",
          "name": "",
          "type": "uint256"
        }
      ],
      "stateMutability": "view",
      "type": "function"
    },
    {
      "inputs": [
        {
          "internalType": "address",
          "name": "from",
          "type": "address"
        },
        {
          "internalType": "address",
          "name": "to",
          "type": "address"
        },
        {
          "internalType": "uint256",
          "name": "tokenId",
          "type": "uint256"
        }
      ],
      "name": "transferFrom",
      "outputs": [],
      "stateMutability": "nonpayable",
      "type": "function"
    },
    {
      "inputs": [
        {
          "internalType": "address",
          "name": "newOwner",
          "type": "address"
        }
      ],
      "name": "transferOwnership",
      "outputs": [],
      "stateMutability": "nonpayable",
      "type": "function"
    },
    {
      "inputs": [],
      "name": "unpause",
      "outputs": [],
      "stateMutability": "nonpayable",
      "type": "function"
    },
    {
      "inputs": [
        {
          "components": [
            {
              "components": [
                {
                  "internalType": "string",
                  "name": "name",
                  "type": "string"
                },
                {
                  "internalType": "string[]",
                  "name": "_availableValues",
                  "type": "string[]"
                },
                {
                  "internalType": "uint256",
                  "name": "_value",
                  "type": "uint256"
                },
                {
                  "internalType": "string",
                  "name": "_valueStr",
                  "type": "string"
                }
              ],
              "internalType": "struct TraitInfo.Trait[]",
              "name": "_traits",
              "type": "tuple[]"
            }
          ],
          "internalType": "struct TraitInfo.Traits",
          "name": "traits",
          "type": "tuple"
        }
      ],
      "name": "updateTraits",
      "outputs": [],
      "stateMutability": "nonpayable",
      "type": "function"
    }
  ],
  "bytecode": "0x60806040523480156200001157600080fd5b50604051620050a5380380620050a5833981016040819052620000349162000456565b8383838282816002908051906020019062000051929190620002e3565b50805162000067906003906020840190620002e3565b5050600c805460ff191690555080516200008990600e906020840190620002e3565b50620000976000336200012c565b620000c37f9f2df0fed2c77648de5860a4cc508cd0818c85b8b8a1ab4ceeef8d981c8956a6336200012c565b620000ef7f65d7a28e3265b37a6474929f336521b332c1681b933f6cb9f3376673440d862a336200012c565b50506001600f555062000102336200013c565b601280546001600160a01b0319166001600160a01b03929092169190911790555062000546915050565b6200013882826200018e565b5050565b601080546001600160a01b038381166001600160a01b0319831681179093556040519116919082907f8be0079c531659141344cd1fd0a4f28419497f9722a3daafe3b4186f6b6457e090600090a35050565b620001a58282620001d160201b620023341760201c565b6000828152600160209081526040909120620001cc918390620023b862000271821b17901c565b505050565b6000828152602081815260408083206001600160a01b038516845290915290205460ff1662000138576000828152602081815260408083206001600160a01b03851684529091529020805460ff191660011790556200022d3390565b6001600160a01b0316816001600160a01b0316837f2f8788117e7eff1d82e926ec794901d17c78024a50270940304540a733656f0d60405160405180910390a45050565b600062000288836001600160a01b03841662000291565b90505b92915050565b6000818152600183016020526040812054620002da575081546001818101845560008481526020808220909301849055845484825282860190935260409020919091556200028b565b5060006200028b565b828054620002f19062000509565b90600052602060002090601f01602090048101928262000315576000855562000360565b82601f106200033057805160ff191683800117855562000360565b8280016001018555821562000360579182015b828111156200036057825182559160200191906001019062000343565b506200036e92915062000372565b5090565b5b808211156200036e576000815560010162000373565b634e487b7160e01b600052604160045260246000fd5b600082601f830112620003b157600080fd5b81516001600160401b0380821115620003ce57620003ce62000389565b604051601f8301601f19908116603f01168101908282118183101715620003f957620003f962000389565b816040528381526020925086838588010111156200041657600080fd5b600091505b838210156200043a57858201830151818301840152908201906200041b565b838211156200044c5760008385830101525b9695505050505050565b600080600080608085870312156200046d57600080fd5b84516001600160401b03808211156200048557600080fd5b62000493888389016200039f565b95506020870151915080821115620004aa57600080fd5b620004b8888389016200039f565b94506040870151915080821115620004cf57600080fd5b50620004de878288016200039f565b606087015190935090506001600160a01b0381168114620004fe57600080fd5b939692955090935050565b600181811c908216806200051e57607f821691505b602082108114156200054057634e487b7160e01b600052602260045260246000fd5b50919050565b614b4f80620005566000396000f3fe608060405234801561001057600080fd5b506004361061030c5760003560e01c80637f77f5741161019d578063ae3dd095116100e9578063d5391393116100a2578063e63ab1e91161007c578063e63ab1e91461073b578063e985e9c514610750578063f2fde38b1461078c578063f9ecc22c1461079f57600080fd5b8063d53913931461070b578063d547741f14610720578063d547cfb71461073357600080fd5b8063ae3dd0951461068b578063b88d4fde1461069e578063c0dca239146106b1578063c87b56dd146106d2578063ca15c873146106e5578063d2a6b51a146106f857600080fd5b806391d148541161015657806395d89b411161013057806395d89b41146106555780639713c8071461065d578063a217fddf14610670578063a22cb4651461067857600080fd5b806391d148541461060f57806394e5684714610622578063953cd2461461063557600080fd5b80637f77f5741461055057806381d22564146105bd5780638456cb59146105d05780638da5cb5b146105d85780638f283970146105e95780639010d07c146105fc57600080fd5b80633f4ba83a1161025c5780635c975abb1161021557806370a08231116101ef57806370a082311461050d578063715018a6146105205780637d763613146105285780637f0429ef1461053b57600080fd5b80635c975abb146104de5780636352211e146104e95780636a627842146104fc57600080fd5b80633f4ba83a1461046b57806342842e0e1461047357806342966c68146104865780634816edf4146104995780634f6ccce7146104c2578063531f7b53146104d557600080fd5b806323b872dd116102c95780632f2ff15d116102a35780632f2ff15d1461041f5780632f745c591461043257806336568abe146104455780633adf80b41461045857600080fd5b806323b872dd146103b7578063248a9ca3146103ca5780632a55205a146103ed57600080fd5b806301bc45c91461031157806301ffc9a71461034157806306fdde0314610364578063081812fc14610379578063095ea7b31461038c57806318160ddd146103a1575b600080fd5b601254610324906001600160a01b031681565b6040516001600160a01b0390911681526020015b60405180910390f35b61035461034f366004613821565b6107b2565b6040519015158152602001610338565b61036c6107c3565b6040516103389190613896565b6103246103873660046138a9565b610855565b61039f61039a3660046138de565b61087c565b005b6103a9610997565b604051908152602001610338565b61039f6103c5366004613908565b6109b3565b6103a96103d83660046138a9565b60009081526020819052604090206001015490565b6104006103fb366004613944565b6109e5565b604080516001600160a01b039093168352602083019190915201610338565b61039f61042d366004613966565b610aa7565b6103a96104403660046138de565b610acc565b61039f610453366004613966565b610b62565b61039f610466366004613a77565b610be0565b61039f610c5c565b61039f610481366004613908565b610cf2565b61039f6104943660046138a9565b610d0d565b6103246104a73660046138a9565b6018602052600090815260409020546001600160a01b031681565b6103a96104d03660046138a9565b610d3b565b6103a960145481565b600c5460ff16610354565b6103246104f73660046138a9565b610dce565b61039f61050a366004613ab3565b50565b6103a961051b366004613ab3565b610e2e565b61039f610eb4565b61039f610536366004613ace565b610ec6565b61054361124c565b6040516103389190613ba9565b61059261055e3660046138a9565b601b602052600090815260409020546001600160a01b03811690600160a01b810462ffffff1690600160b81b900460ff1683565b604080516001600160a01b03909416845262ffffff9092166020840152151590820152606001610338565b61039f6105cb366004613c55565b6114b5565b61039f611520565b6012546001600160a01b0316610324565b61039f6105f7366004613ab3565b6115b2565b61032461060a366004613944565b611700565b61035461061d366004613966565b61171f565b6105436106303660046138a9565b611748565b6103a96106433660046138a9565b60156020526000908152604090205481565b61036c611c77565b61039f61066b366004613c8f565b611c86565b6103a9600081565b61039f610686366004613ccd565b611d97565b61039f610699366004613d04565b611da2565b61039f6106ac366004613d90565b611e89565b6106c46106bf3660046138a9565b611ebb565b604051610338929190613e0b565b61036c6106e03660046138a9565b612051565b6103a96106f33660046138a9565b6121d7565b61039f610706366004613ee8565b6121ee565b6103a9600080516020614afa83398151915281565b61039f61072e366004613966565b61228f565b61036c6122b4565b6103a9600080516020614ada83398151915281565b61035461075e366004613f90565b6001600160a01b03918216600090815260076020908152604080832093909416825291909152205460ff1690565b61039f61079a366004613ab3565b6122be565b601354610324906001600160a01b031681565b60006107bd826123cd565b92915050565b6060601980546107d290613fba565b80601f01602080910402602001604051908101604052809291908181526020018280546107fe90613fba565b801561084b5780601f106108205761010080835404028352916020019161084b565b820191906000526020600020905b81548152906001019060200180831161082e57829003601f168201915b5050505050905090565b6000610860826123f2565b506000908152600660205260409020546001600160a01b031690565b600061088782610dce565b9050806001600160a01b0316836001600160a01b031614156108fa5760405162461bcd60e51b815260206004820152602160248201527f4552433732313a20617070726f76616c20746f2063757272656e74206f776e656044820152603960f91b60648201526084015b60405180910390fd5b336001600160a01b03821614806109165750610916813361075e565b6109885760405162461bcd60e51b815260206004820152603e60248201527f4552433732313a20617070726f76652063616c6c6572206973206e6f7420746f60448201527f6b656e206f776e6572206e6f7220617070726f76656420666f7220616c6c000060648201526084016108f1565b6109928383612451565b505050565b600060016109a460115490565b6109ae9190614005565b905090565b6109be335b826124bf565b6109da5760405162461bcd60e51b81526004016108f19061401c565b61099283838361253e565b6000828152601b60209081526040808320815160608101835290546001600160a01b0381168252600160a01b810462ffffff1693820193909352600160b81b90920460ff1615801591830191909152829190610a69578051602082015190935061271090610a589062ffffff168661406a565b610a62919061409f565b9150610a9f565b6000858152601860205260409020546001600160a01b03169250612710610a92856101f461406a565b610a9c919061409f565b91505b509250929050565b600082815260208190526040902060010154610ac2816126e5565b61099283836126ef565b6000610ad783610e2e565b8210610b395760405162461bcd60e51b815260206004820152602b60248201527f455243373231456e756d657261626c653a206f776e657220696e646578206f7560448201526a74206f6620626f756e647360a81b60648201526084016108f1565b506001600160a01b03919091166000908152600860209081526040808320938352929052205490565b6001600160a01b0381163314610bd25760405162461bcd60e51b815260206004820152602f60248201527f416363657373436f6e74726f6c3a2063616e206f6e6c792072656e6f756e636560448201526e103937b632b9903337b91039b2b63360891b60648201526084016108f1565b610bdc8282612711565b5050565b60008281526018602052604090205482906001600160a01b03163314610c375760405162461bcd60e51b815260206004820152600c60248201526b27a7262cafa1a922a0aa27a960a11b60448201526064016108f1565b60008381526017602090815260409091208351610c5692850190613772565b50505050565b610c74600080516020614ada8339815191523361171f565b610ce8576040805162461bcd60e51b81526020600482015260248101919091527f4552433732315072657365744d696e7465725061757365724175746f49643a2060448201527f6d75737420686176652070617573657220726f6c6520746f20756e706175736560648201526084016108f1565b610cf0612733565b565b61099283838360405180602001604052806000815250611e89565b610d16336109b8565b610d325760405162461bcd60e51b81526004016108f19061401c565b61050a81612785565b6000610d46600a5490565b8210610da95760405162461bcd60e51b815260206004820152602c60248201527f455243373231456e756d657261626c653a20676c6f62616c20696e646578206f60448201526b7574206f6620626f756e647360a01b60648201526084016108f1565b600a8281548110610dbc57610dbc6140b3565b90600052602060002001549050919050565b6000818152600460205260408120546001600160a01b0316806107bd5760405162461bcd60e51b8152602060048201526018602482015277115490cdcc8c4e881a5b9d985b1a59081d1bdad95b88125160421b60448201526064016108f1565b60006001600160a01b038216610e985760405162461bcd60e51b815260206004820152602960248201527f4552433732313a2061646472657373207a65726f206973206e6f7420612076616044820152683634b21037bbb732b960b91b60648201526084016108f1565b506001600160a01b031660009081526005602052604090205490565b610ebc61282c565b610cf060006128aa565b60135460408051808201909152600381526206460760eb1b6020820152906001600160a01b03163314610f0c5760405162461bcd60e51b81526004016108f19190613896565b506013546001600160a01b031615801590610f2957506000601454115b6040518060400160405280600381526020016219181960e91b81525090610f635760405162461bcd60e51b81526004016108f19190613896565b50803560005b610f7660208401846140c9565b90508110156110c9576000610f8e60208501856140c9565b83818110610f9e57610f9e6140b3565b9050602002810190610fb09190614119565b610fb9906141dd565b90508060c0015161107e5760808101515161102a578060a00151610fe98460001c836040015184602001516128fc565b146040518060400160405280600381526020016219181b60e91b815250906110245760405162461bcd60e51b81526004016108f19190613896565b5061107e565b8060a001516110418460001c836080015151612927565b146040518060400160405280600381526020016232303760e81b8152509061107c5760405162461bcd60e51b81526004016108f19190613896565b505b60a081015160405161109d918591602001918252602082015260400190565b6040516020818303038152906040528051906020012092505080806110c190614273565b915050610f69565b50601354601454604051634f558e7960e01b815260048101919091526001600160a01b03909116908190634f558e7990602401602060405180830381865afa158015611119573d6000803e3d6000fd5b505050506040513d601f19601f8201168201806040525081019061113d919061428e565b6040518060400160405280600381526020016219181960e91b815250906111775760405162461bcd60e51b81526004016108f19190613896565b50611186601180546001019055565b600061119160115490565b8551909150156111bc57600081815260176020908152604090912086516111ba92880190613772565b505b600081815260186020908152604080832080546001600160a01b0319166001600160a01b038b161790556015909152902084906111f982826145bf565b9050506112068782612933565b7fbf83d3c95e3a6b6b6cac45594a672c1d703818ada1304cf6e235fdc0bd6e43718787878460405161123b94939291906146dd565b60405180910390a150505050505050565b60606016600001805480602002602001604051908101604052809291908181526020016000905b828210156114ac57838290600052602060002090600402016040518060800160405290816000820180546112a690613fba565b80601f01602080910402602001604051908101604052809291908181526020018280546112d290613fba565b801561131f5780601f106112f45761010080835404028352916020019161131f565b820191906000526020600020905b81548152906001019060200180831161130257829003601f168201915b5050505050815260200160018201805480602002602001604051908101604052809291908181526020016000905b828210156113f957838290600052602060002001805461136c90613fba565b80601f016020809104026020016040519081016040528092919081815260200182805461139890613fba565b80156113e55780601f106113ba576101008083540402835291602001916113e5565b820191906000526020600020905b8154815290600101906020018083116113c857829003601f168201915b50505050508152602001906001019061134d565b5050505081526020016002820154815260200160038201805461141b90613fba565b80601f016020809104026020016040519081016040528092919081815260200182805461144790613fba565b80156114945780601f1061146957610100808354040283529160200191611494565b820191906000526020600020905b81548152906001019060200180831161147757829003601f168201915b50505050508152505081526020019060010190611273565b50505050905090565b6012546001600160a01b03163314806114d857506013546001600160a01b031633145b6040518060400160405280600381526020016231303160e81b815250906115125760405162461bcd60e51b81526004016108f19190613896565b5080601661099282826147cc565b611538600080516020614ada8339815191523361171f565b6115aa5760405162461bcd60e51b815260206004820152603e60248201527f4552433732315072657365744d696e7465725061757365724175746f49643a2060448201527f6d75737420686176652070617573657220726f6c6520746f207061757365000060648201526084016108f1565b610cf061294d565b6012546001600160a01b0316336001600160a01b0316146115e55760405162461bcd60e51b81526004016108f1906148c3565b6115f060003361171f565b61160c5760405162461bcd60e51b81526004016108f1906148c3565b60408051808201909152600381526203130360ec1b60208201526001600160a01b03821661164d5760405162461bcd60e51b81526004016108f19190613896565b50601280546001600160a01b038381166001600160a01b031983168117909355169061167b90600090610aa7565b6012546116a090600080516020614afa833981519152906001600160a01b0316610aa7565b6012546116c590600080516020614ada833981519152906001600160a01b0316610aa7565b6116d060008261228f565b6116e8600080516020614afa8339815191528261228f565b610bdc600080516020614ada8339815191528261228f565b6000828152600160205260408120611718908361298a565b9392505050565b6000918252602082815260408084206001600160a01b0393909316845291905290205460ff1690565b60606000601560008481526020019081526020016000206040518060400160405290816000820154815260200160018201805480602002602001604051908101604052809291908181526020016000905b828210156118e857600084815260208082206040805160e08101825260078702909201805460ff9081168452600182015484860152600282015484840152600382015416606084015260048101805483518187028101870190945280845293959194608087019491929084015b828210156118b257838290600052602060002001805461182590613fba565b80601f016020809104026020016040519081016040528092919081815260200182805461185190613fba565b801561189e5780601f106118735761010080835404028352916020019161189e565b820191906000526020600020905b81548152906001019060200180831161188157829003601f168201915b505050505081526020019060010190611806565b50505090825250600582015460208083019190915260069092015460ff1615156040909101529082526001929092019101611799565b5050505081525050905060006016600001805480602002602001604051908101604052809291908181526020016000905b82821015611b52578382906000526020600020906004020160405180608001604052908160008201805461194c90613fba565b80601f016020809104026020016040519081016040528092919081815260200182805461197890613fba565b80156119c55780601f1061199a576101008083540402835291602001916119c5565b820191906000526020600020905b8154815290600101906020018083116119a857829003601f168201915b5050505050815260200160018201805480602002602001604051908101604052809291908181526020016000905b82821015611a9f578382906000526020600020018054611a1290613fba565b80601f0160208091040260200160405190810160405280929190818152602001828054611a3e90613fba565b8015611a8b5780601f10611a6057610100808354040283529160200191611a8b565b820191906000526020600020905b815481529060010190602001808311611a6e57829003601f168201915b5050505050815260200190600101906119f3565b50505050815260200160028201548152602001600382018054611ac190613fba565b80601f0160208091040260200160405190810160405280929190818152602001828054611aed90613fba565b8015611b3a5780601f10611b0f57610100808354040283529160200191611b3a565b820191906000526020600020905b815481529060010190602001808311611b1d57829003601f168201915b50505050508152505081526020019060010190611919565b505050509050816020015151815114611b6c579392505050565b60005b8260200151518160ff161015611c6f57600083602001518260ff1681518110611b9a57611b9a6140b3565b602002602001015160a0015190506000838360ff1681518110611bbf57611bbf6140b3565b602002602001015160200151511115611c3557828260ff1681518110611be757611be76140b3565b6020026020010151602001518181518110611c0457611c046140b3565b6020026020010151838360ff1681518110611c2157611c216140b3565b602002602001015160600181905250611c5c565b80838360ff1681518110611c4b57611c4b6140b3565b602002602001015160400181815250505b5080611c67816148ef565b915050611b6f565b509392505050565b6060601a80546107d290613fba565b6012546001600160a01b0316336001600160a01b031614611cb95760405162461bcd60e51b81526004016108f1906148c3565b611cc460003361171f565b611ce05760405162461bcd60e51b81526004016108f1906148c3565b60408051808201909152600381526232303360e81b6020820152612710821115611d1d5760405162461bcd60e51b81526004016108f19190613896565b50604080516060810182526001600160a01b03938416815262ffffff928316602080830191825260018385019081526000978852601b90915292909520905181549551925194166001600160b81b031990951694909417600160a01b91909216021760ff60b81b1916600160b81b91151591909102179055565b610bdc338383612996565b6001600160a01b038216611dc85760405162461bcd60e51b81526004016108f19061490f565b6001600160a01b038316611dee5760405162461bcd60e51b81526004016108f19061490f565b60145415611e285760405162461bcd60e51b815260206004820152600760248201526611561254d5115160ca1b60448201526064016108f1565b8451611e3b906019906020880190613772565b508351611e4f90601a906020870190613772565b50601380546001600160a01b0319166001600160a01b0384161790556014819055611e7983612a65565b611e82836122be565b5050505050565b611e9333836124bf565b611eaf5760405162461bcd60e51b81526004016108f19061401c565b610c5684848484612b51565b600081815260156020908152604080832080546001909101805483518186028101860190945280845260609492939192839190879084015b8282101561204257600084815260208082206040805160e08101825260078702909201805460ff9081168452600182015484860152600282015484840152600382015416606084015260048101805483518187028101870190945280845293959194608087019491929084015b8282101561200c578382906000526020600020018054611f7f90613fba565b80601f0160208091040260200160405190810160405280929190818152602001828054611fab90613fba565b8015611ff85780601f10611fcd57610100808354040283529160200191611ff8565b820191906000526020600020905b815481529060010190602001808311611fdb57829003601f168201915b505050505081526020019060010190611f60565b50505090825250600582015460208083019190915260069092015460ff1615156040909101529082526001929092019101611ef3565b50505050905091509150915091565b60008181526017602052604081208054606092919061206f90613fba565b80601f016020809104026020016040519081016040528092919081815260200182805461209b90613fba565b80156120e85780601f106120bd576101008083540402835291602001916120e8565b820191906000526020600020905b8154815290600101906020018083116120cb57829003601f168201915b50505050509050600081511115612198576000838152601760205260409020805461211290613fba565b80601f016020809104026020016040519081016040528092919081815260200182805461213e90613fba565b801561218b5780601f106121605761010080835404028352916020019161218b565b820191906000526020600020905b81548152906001019060200180831161216e57829003601f168201915b5050505050915050919050565b6121a06122b4565b6121a984612b84565b6040516020016121ba929190614930565b604051602081830303815290604052915050919050565b50919050565b60008181526001602052604081206107bd90612c81565b60408051808201909152600381526203130360ec1b60208201526001600160a01b03831661222f5760405162461bcd60e51b81526004016108f19190613896565b50612248600080516020614afa833981519152836126ef565b60005b8151811015610992576000828281518110612268576122686140b3565b6020026020010151905061227c8482612c8b565b508061228781614273565b91505061224b565b6000828152602081905260409020600101546122aa816126e5565b6109928383612711565b60606109ae612d11565b6122c661282c565b6001600160a01b03811661232b5760405162461bcd60e51b815260206004820152602660248201527f4f776e61626c653a206e6577206f776e657220697320746865207a65726f206160448201526564647265737360d01b60648201526084016108f1565b61050a816128aa565b61233e828261171f565b610bdc576000828152602081815260408083206001600160a01b03851684529091529020805460ff191660011790556123743390565b6001600160a01b0316816001600160a01b0316837f2f8788117e7eff1d82e926ec794901d17c78024a50270940304540a733656f0d60405160405180910390a45050565b6000611718836001600160a01b038416612d20565b60006001600160e01b0319821663780e9d6360e01b14806107bd57506107bd82612d6f565b6000818152600460205260409020546001600160a01b031661050a5760405162461bcd60e51b8152602060048201526018602482015277115490cdcc8c4e881a5b9d985b1a59081d1bdad95b88125160421b60448201526064016108f1565b600081815260066020526040902080546001600160a01b0319166001600160a01b038416908117909155819061248682610dce565b6001600160a01b03167f8c5be1e5ebec7d5bd14f71427d1e84f3dd0314c0f7b2291e5b200ac8c7c3b92560405160405180910390a45050565b6000806124cb83610dce565b9050806001600160a01b0316846001600160a01b0316148061251257506001600160a01b0380821660009081526007602090815260408083209388168352929052205460ff165b806125365750836001600160a01b031661252b84610855565b6001600160a01b0316145b949350505050565b826001600160a01b031661255182610dce565b6001600160a01b0316146125b55760405162461bcd60e51b815260206004820152602560248201527f4552433732313a207472616e736665722066726f6d20696e636f72726563742060448201526437bbb732b960d91b60648201526084016108f1565b6001600160a01b0382166126175760405162461bcd60e51b8152602060048201526024808201527f4552433732313a207472616e7366657220746f20746865207a65726f206164646044820152637265737360e01b60648201526084016108f1565b612622838383612daf565b61262d600082612451565b6001600160a01b0383166000908152600560205260408120805460019290612656908490614005565b90915550506001600160a01b038216600090815260056020526040812080546001929061268490849061495f565b909155505060008181526004602052604080822080546001600160a01b0319166001600160a01b0386811691821790925591518493918716917fddf252ad1be2c89b69c2b068fc378daa952ba7f163c4a11628f55a4df523b3ef91a4505050565b61050a8133612dba565b6126f98282612334565b600082815260016020526040902061099290826123b8565b61271b8282612e1e565b60008281526001602052604090206109929082612e83565b61273b612e98565b600c805460ff191690557f5db9ee0a495bf2e6ff9c91a7834c1ba4fdd244a5e8aa4e537bd38aeae4b073aa335b6040516001600160a01b03909116815260200160405180910390a1565b600061279082610dce565b905061279e81600084612daf565b6127a9600083612451565b6001600160a01b03811660009081526005602052604081208054600192906127d2908490614005565b909155505060008281526004602052604080822080546001600160a01b0319169055518391906001600160a01b038416907fddf252ad1be2c89b69c2b068fc378daa952ba7f163c4a11628f55a4df523b3ef908390a45050565b3361283f6012546001600160a01b031690565b6001600160a01b0316148061285e57506013546001600160a01b031633145b610cf05760405162461bcd60e51b815260206004820181905260248201527f4f776e61626c653a2063616c6c6572206973206e6f7420746865206f776e657260448201526064016108f1565b601080546001600160a01b038381166001600160a01b0319831681179093556040519116919082907f8be0079c531659141344cd1fd0a4f28419497f9722a3daafe3b4186f6b6457e090600090a35050565b60006129088383614005565b61291390600161495f565b61291d9085614977565b612536908461495f565b60006117188284614977565b610bdc828260405180602001604052806000815250612ee1565b612955612f14565b600c805460ff191660011790557f62e78cea01bee320cd4e420270b5ea74000d11b0c9f74754ebdbfc544b05a2586127683390565b60006117188383612f5a565b816001600160a01b0316836001600160a01b031614156129f85760405162461bcd60e51b815260206004820152601960248201527f4552433732313a20617070726f766520746f2063616c6c65720000000000000060448201526064016108f1565b6001600160a01b03838116600081815260076020908152604080832094871680845294825291829020805460ff191686151590811790915591519182527f17307eab39ab6107e8899845ad3d59bd9653f200f220920489ca2b5937696c31910160405180910390a3505050565b6013546001600160a01b03163314612ab75760405162461bcd60e51b815260206004820152601560248201527424a72b2fa9a2a72222a92fa4a724aa2fa0a226a4a760591b60448201526064016108f1565b6001600160a01b038116612add5760405162461bcd60e51b81526004016108f19061490f565b601280546001600160a01b0319166001600160a01b038316908117909155612b07906000906126ef565b601254612b2c90600080516020614afa833981519152906001600160a01b03166126ef565b60125461050a90600080516020614ada833981519152906001600160a01b03166126ef565b612b5c84848461253e565b612b6884848484612f84565b610c565760405162461bcd60e51b81526004016108f19061498b565b606081612ba85750506040805180820190915260018152600360fc1b602082015290565b8160005b8115612bd25780612bbc81614273565b9150612bcb9050600a8361409f565b9150612bac565b6000816001600160401b03811115612bec57612bec613992565b6040519080825280601f01601f191660200182016040528015612c16576020820181803683370190505b5090505b841561253657612c2b600183614005565b9150612c38600a86614977565b612c4390603061495f565b60f81b818381518110612c5857612c586140b3565b60200101906001600160f81b031916908160001a905350612c7a600a8661409f565b9450612c1a565b60006107bd825490565b60008181526018602052604090205481906001600160a01b03163314612ce25760405162461bcd60e51b815260206004820152600c60248201526b27a7262cafa1a922a0aa27a960a11b60448201526064016108f1565b50600090815260186020526040902080546001600160a01b0319166001600160a01b0392909216919091179055565b6060600e80546107d290613fba565b6000818152600183016020526040812054612d67575081546001818101845560008481526020808220909301849055845484825282860190935260409020919091556107bd565b5060006107bd565b60006001600160e01b031982166380ac58cd60e01b1480612da057506001600160e01b03198216635b5e139f60e01b145b806107bd57506107bd82613082565b6109928383836130a7565b612dc4828261171f565b610bdc57612ddc816001600160a01b03166014613119565b612de7836020613119565b604051602001612df89291906149dd565b60408051601f198184030181529082905262461bcd60e51b82526108f191600401613896565b612e28828261171f565b15610bdc576000828152602081815260408083206001600160a01b0385168085529252808320805460ff1916905551339285917ff6391f5c32d9c69d2a47ea670b442974b53935d1edc7fd64eb21e047a839171b9190a45050565b6000611718836001600160a01b0384166132b4565b600c5460ff16610cf05760405162461bcd60e51b815260206004820152601460248201527314185d5cd8589b194e881b9bdd081c185d5cd95960621b60448201526064016108f1565b612eeb83836133a7565b612ef86000848484612f84565b6109925760405162461bcd60e51b81526004016108f19061498b565b600c5460ff1615610cf05760405162461bcd60e51b815260206004820152601060248201526f14185d5cd8589b194e881c185d5cd95960821b60448201526064016108f1565b6000826000018281548110612f7157612f716140b3565b9060005260206000200154905092915050565b60006001600160a01b0384163b1561307757604051630a85bd0160e11b81526001600160a01b0385169063150b7a0290612fc8903390899088908890600401614a52565b6020604051808303816000875af1925050508015613003575060408051601f3d908101601f1916820190925261300091810190614a8f565b60015b61305d573d808015613031576040519150601f19603f3d011682016040523d82523d6000602084013e613036565b606091505b5080516130555760405162461bcd60e51b81526004016108f19061498b565b805181602001fd5b6001600160e01b031916630a85bd0160e11b149050612536565b506001949350505050565b60006001600160e01b03198216635a05180f60e01b14806107bd57506107bd826134f5565b6130b283838361352a565b600c5460ff16156109925760405162461bcd60e51b815260206004820152602b60248201527f4552433732315061757361626c653a20746f6b656e207472616e73666572207760448201526a1a1a5b19481c185d5cd95960aa1b60648201526084016108f1565b6060600061312883600261406a565b61313390600261495f565b6001600160401b0381111561314a5761314a613992565b6040519080825280601f01601f191660200182016040528015613174576020820181803683370190505b509050600360fc1b8160008151811061318f5761318f6140b3565b60200101906001600160f81b031916908160001a905350600f60fb1b816001815181106131be576131be6140b3565b60200101906001600160f81b031916908160001a90535060006131e284600261406a565b6131ed90600161495f565b90505b6001811115613265576f181899199a1a9b1b9c1cb0b131b232b360811b85600f1660108110613221576132216140b3565b1a60f81b828281518110613237576132376140b3565b60200101906001600160f81b031916908160001a90535060049490941c9361325e81614aac565b90506131f0565b5083156117185760405162461bcd60e51b815260206004820181905260248201527f537472696e67733a20686578206c656e67746820696e73756666696369656e7460448201526064016108f1565b6000818152600183016020526040812054801561339d5760006132d8600183614005565b85549091506000906132ec90600190614005565b905081811461335157600086600001828154811061330c5761330c6140b3565b906000526020600020015490508087600001848154811061332f5761332f6140b3565b6000918252602080832090910192909255918252600188019052604090208390555b855486908061336257613362614ac3565b6001900381819060005260206000200160009055905585600101600086815260200190815260200160002060009055600193505050506107bd565b60009150506107bd565b6001600160a01b0382166133fd5760405162461bcd60e51b815260206004820181905260248201527f4552433732313a206d696e7420746f20746865207a65726f206164647265737360448201526064016108f1565b6000818152600460205260409020546001600160a01b0316156134625760405162461bcd60e51b815260206004820152601c60248201527f4552433732313a20746f6b656e20616c7265616479206d696e7465640000000060448201526064016108f1565b61346e60008383612daf565b6001600160a01b038216600090815260056020526040812080546001929061349790849061495f565b909155505060008181526004602052604080822080546001600160a01b0319166001600160a01b03861690811790915590518392907fddf252ad1be2c89b69c2b068fc378daa952ba7f163c4a11628f55a4df523b3ef908290a45050565b60006001600160e01b03198216637965db0b60e01b14806107bd57506301ffc9a760e01b6001600160e01b03198316146107bd565b6001600160a01b0383166135855761358081600a80546000838152600b60205260408120829055600182018355919091527fc65a7bb8d6351c1cf70c95a316cc6a92839c986682d98bc35f958f4883f9d2a80155565b6135a8565b816001600160a01b0316836001600160a01b0316146135a8576135a883826135e2565b6001600160a01b0382166135bf576109928161367f565b826001600160a01b0316826001600160a01b03161461099257610992828261372e565b600060016135ef84610e2e565b6135f99190614005565b60008381526009602052604090205490915080821461364c576001600160a01b03841660009081526008602090815260408083208584528252808320548484528184208190558352600990915290208190555b5060009182526009602090815260408084208490556001600160a01b039094168352600881528383209183525290812055565b600a5460009061369190600190614005565b6000838152600b6020526040812054600a80549394509092849081106136b9576136b96140b3565b9060005260206000200154905080600a83815481106136da576136da6140b3565b6000918252602080832090910192909255828152600b9091526040808220849055858252812055600a80548061371257613712614ac3565b6001900381819060005260206000200160009055905550505050565b600061373983610e2e565b6001600160a01b039093166000908152600860209081526040808320868452825280832085905593825260099052919091209190915550565b82805461377e90613fba565b90600052602060002090601f0160209004810192826137a057600085556137e6565b82601f106137b957805160ff19168380011785556137e6565b828001600101855582156137e6579182015b828111156137e65782518255916020019190600101906137cb565b506137f29291506137f6565b5090565b5b808211156137f257600081556001016137f7565b6001600160e01b03198116811461050a57600080fd5b60006020828403121561383357600080fd5b81356117188161380b565b60005b83811015613859578181015183820152602001613841565b83811115610c565750506000910152565b6000815180845261388281602086016020860161383e565b601f01601f19169290920160200192915050565b602081526000611718602083018461386a565b6000602082840312156138bb57600080fd5b5035919050565b80356001600160a01b03811681146138d957600080fd5b919050565b600080604083850312156138f157600080fd5b6138fa836138c2565b946020939093013593505050565b60008060006060848603121561391d57600080fd5b613926846138c2565b9250613934602085016138c2565b9150604084013590509250925092565b6000806040838503121561395757600080fd5b50508035926020909101359150565b6000806040838503121561397957600080fd5b82359150613989602084016138c2565b90509250929050565b634e487b7160e01b600052604160045260246000fd5b60405160e081016001600160401b03811182821017156139ca576139ca613992565b60405290565b604051601f8201601f191681016001600160401b03811182821017156139f8576139f8613992565b604052919050565b60006001600160401b03831115613a1957613a19613992565b613a2c601f8401601f19166020016139d0565b9050828152838383011115613a4057600080fd5b828260208301376000602084830101529392505050565b600082601f830112613a6857600080fd5b61171883833560208501613a00565b60008060408385031215613a8a57600080fd5b8235915060208301356001600160401b03811115613aa757600080fd5b610a9c85828601613a57565b600060208284031215613ac557600080fd5b611718826138c2565b60008060008060808587031215613ae457600080fd5b613aed856138c2565b9350613afb602086016138c2565b925060408501356001600160401b0380821115613b1757600080fd5b613b2388838901613a57565b93506060870135915080821115613b3957600080fd5b50850160408188031215613b4c57600080fd5b939692955090935050565b6000815180845260208085019450848260051b860182860160005b85811015613b9c578383038952613b8a83835161386a565b98850198925090840190600101613b72565b5090979650505050505050565b60006020808301818452808551808352604092508286019150828160051b87010184880160005b83811015613c4757603f19898403018552815160808151818652613bf68287018261386a565b915050888201518582038a870152613c0e8282613b57565b915050878201518886015260608083015192508582038187015250613c33818361386a565b968901969450505090860190600101613bd0565b509098975050505050505050565b600060208284031215613c6757600080fd5b81356001600160401b03811115613c7d57600080fd5b82016020818503121561171857600080fd5b600080600060608486031215613ca457600080fd5b83359250613934602085016138c2565b801515811461050a57600080fd5b80356138d981613cb4565b60008060408385031215613ce057600080fd5b613ce9836138c2565b91506020830135613cf981613cb4565b809150509250929050565b600080600080600060a08688031215613d1c57600080fd5b85356001600160401b0380821115613d3357600080fd5b613d3f89838a01613a57565b96506020880135915080821115613d5557600080fd5b50613d6288828901613a57565b945050613d71604087016138c2565b9250613d7f606087016138c2565b949793965091946080013592915050565b60008060008060808587031215613da657600080fd5b613daf856138c2565b9350613dbd602086016138c2565b92506040850135915060608501356001600160401b03811115613ddf57600080fd5b8501601f81018713613df057600080fd5b613dff87823560208401613a00565b91505092959194509250565b6000604080830185845260208281860152818651808452606093508387019150838160051b88010183890160005b83811015613eb557605f198a8403018552815160e060ff80835116865288830151898701528a8301518b870152808a840151168a870152506080808301518282880152613e8883880182613b57565b60a0858101519089015260c094850151151594909701939093525050509385019390850190600101613e39565b50909a9950505050505050505050565b60006001600160401b03821115613ede57613ede613992565b5060051b60200190565b60008060408385031215613efb57600080fd5b613f04836138c2565b91506020808401356001600160401b03811115613f2057600080fd5b8401601f81018613613f3157600080fd5b8035613f44613f3f82613ec5565b6139d0565b81815260059190911b82018301908381019088831115613f6357600080fd5b928401925b82841015613f8157833582529284019290840190613f68565b80955050505050509250929050565b60008060408385031215613fa357600080fd5b613fac836138c2565b9150613989602084016138c2565b600181811c90821680613fce57607f821691505b602082108114156121d157634e487b7160e01b600052602260045260246000fd5b634e487b7160e01b600052601160045260246000fd5b60008282101561401757614017613fef565b500390565b6020808252602e908201527f4552433732313a2063616c6c6572206973206e6f7420746f6b656e206f776e6560408201526d1c881b9bdc88185c1c1c9bdd995960921b606082015260800190565b600081600019048311821515161561408457614084613fef565b500290565b634e487b7160e01b600052601260045260246000fd5b6000826140ae576140ae614089565b500490565b634e487b7160e01b600052603260045260246000fd5b6000808335601e198436030181126140e057600080fd5b8301803591506001600160401b038211156140fa57600080fd5b6020019150600581901b360382131561411257600080fd5b9250929050565b6000823560de1983360301811261412f57600080fd5b9190910192915050565b60ff8116811461050a57600080fd5b80356138d981614139565b600082601f83011261416457600080fd5b81356020614174613f3f83613ec5565b82815260059290921b8401810191818101908684111561419357600080fd5b8286015b848110156141d25780356001600160401b038111156141b65760008081fd5b6141c48986838b0101613a57565b845250918301918301614197565b509695505050505050565b600060e082360312156141ef57600080fd5b6141f76139a8565b61420083614148565b8152602083013560208201526040830135604082015261422260608401614148565b606082015260808301356001600160401b0381111561424057600080fd5b61424c36828601614153565b60808301525060a083013560a082015261426860c08401613cc2565b60c082015292915050565b600060001982141561428757614287613fef565b5060010190565b6000602082840312156142a057600080fd5b815161171881613cb4565b5b81811015610bdc57600081556001016142ac565b6142ca8154613fba565b8015610bdc57601f8111600181146142e457505060009055565b826000526020600020614302601f840160051c8201600183016142ab565b506020600090812081855555505050565b8054600082558015610bdc578160005260206000208181015b80821015610c565761433d826142c0565b60018201915061432c565b600160401b82111561435c5761435c613992565b805482825580831015610992576000828152602090208381019082015b80821015611e825761438a826142c0565b600182019150614379565b6000808335601e198436030181126143ac57600080fd5b8301803591506001600160401b038211156143c657600080fd5b60200191503681900382131561411257600080fd5b601f82111561099257806000526020600020601f840160051c810160208510156144025750805b611e82601f850160051c8301826142ab565b6001600160401b0383111561442b5761442b613992565b61443f836144398354613fba565b836143db565b6000601f841160018114614473576000851561445b5750838201355b600019600387901b1c1916600186901b178355611e82565b600083815260209020601f19861690835b828110156144a45786850135825560209485019460019092019101614484565b50868210156144c15760001960f88860031b161c19848701351681555b505060018560011b0183555050505050565b600081356107bd81613cb4565b81356144eb81614139565b815460ff191660ff82161782555060016020808401358284015560408401356002840155606084013561451d81614139565b60038401805460ff191660ff8316179055506004830161454060808601866140c9565b61454a8184614348565b818360005284600020935060005b828110156145865761456a8285614395565b614575818389614414565b505093860193908501908601614558565b5050505050505060a08201356005820155610bdc6145a660c084016144d3565b6006830160ff1981541660ff8315151681178255505050565b81358155600180820160206145d6818601866140c9565b600160401b8111156145ea576145ea613992565b835481855580821015614697577f249249249249249249249249249249249249249249249249249249249249249280821187161561462a5761462a613fef565b600781841188161561463e5761463e613fef565b6000878152868120909250848202810190828502015b8082101561469257838255838a83015583600283015583600383015561467c60048301614313565b8360058301558360068301558282019150614654565b505050505b506000938452602084209382905b828110156146d2576146c06146ba8386614119565b876144e0565b600795909501949084019086016146a5565b505050505050505050565b6001600160a01b038581168252841660208201526080604082018190526000906147099083018561386a565b905082606083015295945050505050565b60008235607e1983360301811261412f57600080fd5b61473a8283614395565b614745818385614414565b50506001808201602061475a818601866140c9565b6147648185614348565b818460005283600020945060005b828110156147a0576147848285614395565b61478f81838a614414565b505094860194908401908601614772565b50505050505050604082013560028201556147be6060830183614395565b610c56818360038601614414565b6147d682836140c9565b600160401b8111156147ea576147ea613992565b82548184558082101561487c576001600160fe1b03600181831181161561481357614813613fef565b600282851182161561482757614827613fef565b60008781526020812090935085821b81019085831b015b808210156148765761484f826142c0565b61485a848301614313565b848383015561486b600383016142c0565b60048201915061483e565b50505050505b5060008381526020812083915b838110156148ba576148a461489e848761471a565b83614730565b6020929092019160049190910190600101614889565b50505050505050565b60208082526012908201527113d3931657d05113525397d0531313d5d15160721b604082015260600190565b600060ff821660ff81141561490657614906613fef565b60010192915050565b60208082526007908201526612539597d0511160ca1b604082015260600190565b6000835161494281846020880161383e565b83519083019061495681836020880161383e565b01949350505050565b6000821982111561497257614972613fef565b500190565b60008261498657614986614089565b500690565b60208082526032908201527f4552433732313a207472616e7366657220746f206e6f6e20455243373231526560408201527131b2b4bb32b91034b6b83632b6b2b73a32b960711b606082015260800190565b7f416363657373436f6e74726f6c3a206163636f756e7420000000000000000000815260008351614a1581601785016020880161383e565b7001034b99036b4b9b9b4b733903937b6329607d1b6017918401918201528351614a4681602884016020880161383e565b01602801949350505050565b6001600160a01b0385811682528416602082015260408101839052608060608201819052600090614a859083018461386a565b9695505050505050565b600060208284031215614aa157600080fd5b81516117188161380b565b600081614abb57614abb613fef565b506000190190565b634e487b7160e01b600052603160045260246000fdfe65d7a28e3265b37a6474929f336521b332c1681b933f6cb9f3376673440d862a9f2df0fed2c77648de5860a4cc508cd0818c85b8b8a1ab4ceeef8d981c8956a6a2646970667358221220f3f65de355ec951ae627b2e4e8c2ffeff155bb8317983a6eba84a8566901f00f64736f6c634300080c0033",
  "linkReferences": {},
  "deployedLinkReferences": {}
}