{
  "_format": "hh-sol-artifact-1",
  "contractName": "GenerativeNFT",
  "sourceName": "contracts/nft/GenerativeNFT.sol",
  "abi": [
    {
      "inputs": [
        {
          "internalType": "string",
          "name": "name",
          "type": "string"
        },
        {
          "internalType": "string",
          "name": "symbol",
          "type": "string"
        },
        {
          "internalType": "address",
          "name": "admin",
          "type": "address"
        }
      ],
      "stateMutability": "nonpayable",
      "type": "constructor"
    },
    {
      "anonymous": false,
      "inputs": [
        {
          "indexed": true,
          "internalType": "address",
          "name": "owner",
          "type": "address"
        },
        {
          "indexed": true,
          "internalType": "address",
          "name": "approved",
          "type": "address"
        },
        {
          "indexed": true,
          "internalType": "uint256",
          "name": "tokenId",
          "type": "uint256"
        }
      ],
      "name": "Approval",
      "type": "event"
    },
    {
      "anonymous": false,
      "inputs": [
        {
          "indexed": true,
          "internalType": "address",
          "name": "owner",
          "type": "address"
        },
        {
          "indexed": true,
          "internalType": "address",
          "name": "operator",
          "type": "address"
        },
        {
          "indexed": false,
          "internalType": "bool",
          "name": "approved",
          "type": "bool"
        }
      ],
      "name": "ApprovalForAll",
      "type": "event"
    },
    {
      "anonymous": false,
      "inputs": [
        {
          "indexed": true,
          "internalType": "address",
          "name": "previousOwner",
          "type": "address"
        },
        {
          "indexed": true,
          "internalType": "address",
          "name": "newOwner",
          "type": "address"
        }
      ],
      "name": "OwnershipTransferred",
      "type": "event"
    },
    {
      "anonymous": false,
      "inputs": [
        {
          "indexed": false,
          "internalType": "address",
          "name": "account",
          "type": "address"
        }
      ],
      "name": "Paused",
      "type": "event"
    },
    {
      "anonymous": false,
      "inputs": [
        {
          "indexed": true,
          "internalType": "address",
          "name": "from",
          "type": "address"
        },
        {
          "indexed": true,
          "internalType": "address",
          "name": "to",
          "type": "address"
        },
        {
          "indexed": true,
          "internalType": "uint256",
          "name": "tokenId",
          "type": "uint256"
        }
      ],
      "name": "Transfer",
      "type": "event"
    },
    {
      "anonymous": false,
      "inputs": [
        {
          "indexed": false,
          "internalType": "address",
          "name": "account",
          "type": "address"
        }
      ],
      "name": "Unpaused",
      "type": "event"
    },
    {
      "inputs": [],
      "name": "_admin",
      "outputs": [
        {
          "internalType": "address",
          "name": "",
          "type": "address"
        }
      ],
      "stateMutability": "view",
      "type": "function"
    },
    {
      "inputs": [],
      "name": "_boilerplateAddr",
      "outputs": [
        {
          "internalType": "address",
          "name": "",
          "type": "address"
        }
      ],
      "stateMutability": "view",
      "type": "function"
    },
    {
      "inputs": [],
      "name": "_boilerplateId",
      "outputs": [
        {
          "internalType": "uint256",
          "name": "",
          "type": "uint256"
        }
      ],
      "stateMutability": "view",
      "type": "function"
    },
    {
      "inputs": [],
      "name": "_creator",
      "outputs": [
        {
          "internalType": "address",
          "name": "",
          "type": "address"
        }
      ],
      "stateMutability": "view",
      "type": "function"
    },
    {
      "inputs": [],
      "name": "_fee",
      "outputs": [
        {
          "internalType": "uint256",
          "name": "",
          "type": "uint256"
        }
      ],
      "stateMutability": "view",
      "type": "function"
    },
    {
      "inputs": [],
      "name": "_feeToken",
      "outputs": [
        {
          "internalType": "address",
          "name": "",
          "type": "address"
        }
      ],
      "stateMutability": "view",
      "type": "function"
    },
    {
      "inputs": [],
      "name": "_limit",
      "outputs": [
        {
          "internalType": "uint256",
          "name": "",
          "type": "uint256"
        }
      ],
      "stateMutability": "view",
      "type": "function"
    },
    {
      "inputs": [],
      "name": "_max",
      "outputs": [
        {
          "internalType": "uint256",
          "name": "",
          "type": "uint256"
        }
      ],
      "stateMutability": "view",
      "type": "function"
    },
    {
      "inputs": [],
      "name": "_paramsAddress",
      "outputs": [
        {
          "internalType": "address",
          "name": "",
          "type": "address"
        }
      ],
      "stateMutability": "view",
      "type": "function"
    },
    {
      "inputs": [
        {
          "internalType": "uint256",
          "name": "",
          "type": "uint256"
        }
      ],
      "name": "_paramsValues",
      "outputs": [
        {
          "internalType": "bytes32",
          "name": "_seed",
          "type": "bytes32"
        }
      ],
      "stateMutability": "view",
      "type": "function"
    },
    {
      "inputs": [
        {
          "internalType": "address",
          "name": "to",
          "type": "address"
        },
        {
          "internalType": "uint256",
          "name": "tokenId",
          "type": "uint256"
        }
      ],
      "name": "approve",
      "outputs": [],
      "stateMutability": "nonpayable",
      "type": "function"
    },
    {
      "inputs": [
        {
          "internalType": "address",
          "name": "owner",
          "type": "address"
        }
      ],
      "name": "balanceOf",
      "outputs": [
        {
          "internalType": "uint256",
          "name": "",
          "type": "uint256"
        }
      ],
      "stateMutability": "view",
      "type": "function"
    },
    {
      "inputs": [
        {
          "internalType": "address",
          "name": "_newAdmin",
          "type": "address"
        }
      ],
      "name": "changeAdmin",
      "outputs": [],
      "stateMutability": "nonpayable",
      "type": "function"
    },
    {
      "inputs": [
        {
          "internalType": "string",
          "name": "baseURI",
          "type": "string"
        }
      ],
      "name": "changeBaseURI",
      "outputs": [],
      "stateMutability": "nonpayable",
      "type": "function"
    },
    {
      "inputs": [
        {
          "internalType": "address",
          "name": "newBoilerplate",
          "type": "address"
        },
        {
          "internalType": "uint256",
          "name": "newBoilerplateId",
          "type": "uint256"
        }
      ],
      "name": "changeBoilerplate",
      "outputs": [],
      "stateMutability": "nonpayable",
      "type": "function"
    },
    {
      "inputs": [
        {
          "internalType": "uint256",
          "name": "tokenId",
          "type": "uint256"
        }
      ],
      "name": "getApproved",
      "outputs": [
        {
          "internalType": "address",
          "name": "",
          "type": "address"
        }
      ],
      "stateMutability": "view",
      "type": "function"
    },
    {
      "inputs": [
        {
          "internalType": "uint256",
          "name": "tokenId",
          "type": "uint256"
        }
      ],
      "name": "getParamValues",
      "outputs": [
        {
          "internalType": "bytes32",
          "name": "",
          "type": "bytes32"
        },
        {
          "components": [
            {
              "internalType": "uint8",
              "name": "_typeValue",
              "type": "uint8"
            },
            {
              "internalType": "uint256",
              "name": "_max",
              "type": "uint256"
            },
            {
              "internalType": "uint256",
              "name": "_min",
              "type": "uint256"
            },
            {
              "internalType": "uint8",
              "name": "_decimal",
              "type": "uint8"
            },
            {
              "internalType": "string[]",
              "name": "_availableValues",
              "type": "string[]"
            },
            {
              "internalType": "uint256",
              "name": "_value",
              "type": "uint256"
            },
            {
              "internalType": "bool",
              "name": "_editable",
              "type": "bool"
            }
          ],
          "internalType": "struct BoilerplateParam.ParamTemplate[]",
          "name": "",
          "type": "tuple[]"
        }
      ],
      "stateMutability": "view",
      "type": "function"
    },
    {
      "inputs": [
        {
          "internalType": "uint256",
          "name": "tokenId",
          "type": "uint256"
        }
      ],
      "name": "getTokenTraits",
      "outputs": [
        {
          "components": [
            {
              "internalType": "string",
              "name": "name",
              "type": "string"
            },
            {
              "internalType": "string[]",
              "name": "_availableValues",
              "type": "string[]"
            },
            {
              "internalType": "uint256",
              "name": "_value",
              "type": "uint256"
            },
            {
              "internalType": "string",
              "name": "_valueStr",
              "type": "string"
            }
          ],
          "internalType": "struct TraitInfo.Trait[]",
          "name": "",
          "type": "tuple[]"
        }
      ],
      "stateMutability": "view",
      "type": "function"
    },
    {
      "inputs": [],
      "name": "getTraits",
      "outputs": [
        {
          "components": [
            {
              "internalType": "string",
              "name": "name",
              "type": "string"
            },
            {
              "internalType": "string[]",
              "name": "_availableValues",
              "type": "string[]"
            },
            {
              "internalType": "uint256",
              "name": "_value",
              "type": "uint256"
            },
            {
              "internalType": "string",
              "name": "_valueStr",
              "type": "string"
            }
          ],
          "internalType": "struct TraitInfo.Trait[]",
          "name": "",
          "type": "tuple[]"
        }
      ],
      "stateMutability": "view",
      "type": "function"
    },
    {
      "inputs": [
        {
          "components": [
            {
              "internalType": "string",
              "name": "_name",
              "type": "string"
            },
            {
              "internalType": "string",
              "name": "_symbol",
              "type": "string"
            },
            {
              "internalType": "string",
              "name": "_uri",
              "type": "string"
            },
            {
              "internalType": "address",
              "name": "_admin",
              "type": "address"
            },
            {
              "internalType": "uint256",
              "name": "_max",
              "type": "uint256"
            },
            {
              "internalType": "uint256",
              "name": "_limit",
              "type": "uint256"
            },
            {
              "internalType": "uint256",
              "name": "_projectId",
              "type": "uint256"
            },
            {
              "internalType": "uint256",
              "name": "_fee",
              "type": "uint256"
            },
            {
              "internalType": "address",
              "name": "_feeToken",
              "type": "address"
            },
            {
              "internalType": "address",
              "name": "_creator",
              "type": "address"
            },
            {
              "internalType": "address",
              "name": "_paramsAddress",
              "type": "address"
            }
          ],
          "internalType": "struct BoilerplateParam.InitMinterNFTInfo",
          "name": "p",
          "type": "tuple"
        }
      ],
      "name": "init",
      "outputs": [],
      "stateMutability": "nonpayable",
      "type": "function"
    },
    {
      "inputs": [
        {
          "internalType": "address",
          "name": "owner",
          "type": "address"
        },
        {
          "internalType": "address",
          "name": "operator",
          "type": "address"
        }
      ],
      "name": "isApprovedForAll",
      "outputs": [
        {
          "internalType": "bool",
          "name": "",
          "type": "bool"
        }
      ],
      "stateMutability": "view",
      "type": "function"
    },
    {
      "inputs": [
        {
          "internalType": "address",
          "name": "mintTo",
          "type": "address"
        },
        {
          "components": [
            {
              "internalType": "bytes32",
              "name": "_seed",
              "type": "bytes32"
            },
            {
              "internalType": "uint256[]",
              "name": "_value",
              "type": "uint256[]"
            }
          ],
          "internalType": "struct BoilerplateParam.ParamsOfNFT",
          "name": "_paramsTemplateValue",
          "type": "tuple"
        }
      ],
      "name": "mint",
      "outputs": [],
      "stateMutability": "nonpayable",
      "type": "function"
    },
    {
      "inputs": [],
      "name": "n",
      "outputs": [
        {
          "internalType": "uint256",
          "name": "",
          "type": "uint256"
        }
      ],
      "stateMutability": "view",
      "type": "function"
    },
    {
      "inputs": [],
      "name": "name",
      "outputs": [
        {
          "internalType": "string",
          "name": "",
          "type": "string"
        }
      ],
      "stateMutability": "view",
      "type": "function"
    },
    {
      "inputs": [],
      "name": "owner",
      "outputs": [
        {
          "internalType": "address",
          "name": "",
          "type": "address"
        }
      ],
      "stateMutability": "view",
      "type": "function"
    },
    {
      "inputs": [
        {
          "internalType": "address",
          "name": "mintTo",
          "type": "address"
        },
        {
          "internalType": "uint256",
          "name": "tokenId",
          "type": "uint256"
        },
        {
          "components": [
            {
              "internalType": "bytes32",
              "name": "_seed",
              "type": "bytes32"
            },
            {
              "internalType": "uint256[]",
              "name": "_value",
              "type": "uint256[]"
            }
          ],
          "internalType": "struct BoilerplateParam.ParamsOfNFT",
          "name": "_paramsTemplateValue",
          "type": "tuple"
        }
      ],
      "name": "ownerMint",
      "outputs": [],
      "stateMutability": "nonpayable",
      "type": "function"
    },
    {
      "inputs": [
        {
          "internalType": "uint256",
          "name": "tokenId",
          "type": "uint256"
        }
      ],
      "name": "ownerOf",
      "outputs": [
        {
          "internalType": "address",
          "name": "",
          "type": "address"
        }
      ],
      "stateMutability": "view",
      "type": "function"
    },
    {
      "inputs": [],
      "name": "pause",
      "outputs": [],
      "stateMutability": "nonpayable",
      "type": "function"
    },
    {
      "inputs": [],
      "name": "paused",
      "outputs": [
        {
          "internalType": "bool",
          "name": "",
          "type": "bool"
        }
      ],
      "stateMutability": "view",
      "type": "function"
    },
    {
      "inputs": [],
      "name": "renounceOwnership",
      "outputs": [],
      "stateMutability": "nonpayable",
      "type": "function"
    },
    {
      "inputs": [
        {
          "internalType": "uint256",
          "name": "_tokenId",
          "type": "uint256"
        },
        {
          "internalType": "uint256",
          "name": "_salePrice",
          "type": "uint256"
        }
      ],
      "name": "royaltyInfo",
      "outputs": [
        {
          "internalType": "address",
          "name": "receiver",
          "type": "address"
        },
        {
          "internalType": "uint256",
          "name": "royaltyAmount",
          "type": "uint256"
        }
      ],
      "stateMutability": "view",
      "type": "function"
    },
    {
      "inputs": [
        {
          "internalType": "address",
          "name": "from",
          "type": "address"
        },
        {
          "internalType": "address",
          "name": "to",
          "type": "address"
        },
        {
          "internalType": "uint256",
          "name": "tokenId",
          "type": "uint256"
        }
      ],
      "name": "safeTransferFrom",
      "outputs": [],
      "stateMutability": "nonpayable",
      "type": "function"
    },
    {
      "inputs": [
        {
          "internalType": "address",
          "name": "from",
          "type": "address"
        },
        {
          "internalType": "address",
          "name": "to",
          "type": "address"
        },
        {
          "internalType": "uint256",
          "name": "tokenId",
          "type": "uint256"
        },
        {
          "internalType": "bytes",
          "name": "data",
          "type": "bytes"
        }
      ],
      "name": "safeTransferFrom",
      "outputs": [],
      "stateMutability": "nonpayable",
      "type": "function"
    },
    {
      "inputs": [
        {
          "internalType": "address",
          "name": "operator",
          "type": "address"
        },
        {
          "internalType": "bool",
          "name": "approved",
          "type": "bool"
        }
      ],
      "name": "setApprovalForAll",
      "outputs": [],
      "stateMutability": "nonpayable",
      "type": "function"
    },
    {
      "inputs": [
        {
          "internalType": "bytes4",
          "name": "interfaceId",
          "type": "bytes4"
        }
      ],
      "name": "supportsInterface",
      "outputs": [
        {
          "internalType": "bool",
          "name": "",
          "type": "bool"
        }
      ],
      "stateMutability": "view",
      "type": "function"
    },
    {
      "inputs": [],
      "name": "symbol",
      "outputs": [
        {
          "internalType": "string",
          "name": "",
          "type": "string"
        }
      ],
      "stateMutability": "view",
      "type": "function"
    },
    {
      "inputs": [
        {
          "internalType": "uint256",
          "name": "_tokenId",
          "type": "uint256"
        }
      ],
      "name": "tokenURI",
      "outputs": [
        {
          "internalType": "string",
          "name": "",
          "type": "string"
        }
      ],
      "stateMutability": "view",
      "type": "function"
    },
    {
      "inputs": [
        {
          "internalType": "address",
          "name": "from",
          "type": "address"
        },
        {
          "internalType": "address",
          "name": "to",
          "type": "address"
        },
        {
          "internalType": "uint256",
          "name": "tokenId",
          "type": "uint256"
        }
      ],
      "name": "transferFrom",
      "outputs": [],
      "stateMutability": "nonpayable",
      "type": "function"
    },
    {
      "inputs": [
        {
          "internalType": "address",
          "name": "newOwner",
          "type": "address"
        }
      ],
      "name": "transferOwnership",
      "outputs": [],
      "stateMutability": "nonpayable",
      "type": "function"
    },
    {
      "inputs": [],
      "name": "unpause",
      "outputs": [],
      "stateMutability": "nonpayable",
      "type": "function"
    },
    {
      "inputs": [
        {
          "components": [
            {
              "components": [
                {
                  "internalType": "string",
                  "name": "name",
                  "type": "string"
                },
                {
                  "internalType": "string[]",
                  "name": "_availableValues",
                  "type": "string[]"
                },
                {
                  "internalType": "uint256",
                  "name": "_value",
                  "type": "uint256"
                },
                {
                  "internalType": "string",
                  "name": "_valueStr",
                  "type": "string"
                }
              ],
              "internalType": "struct TraitInfo.Trait[]",
              "name": "_traits",
              "type": "tuple[]"
            }
          ],
          "internalType": "struct TraitInfo.Traits",
          "name": "traits",
          "type": "tuple"
        }
      ],
      "name": "updateTraits",
      "outputs": [],
      "stateMutability": "nonpayable",
      "type": "function"
    }
  ],
  "bytecode": "0x60806040523480156200001157600080fd5b5060405162003af638038062003af683398101604081905262000034916200026e565b8251839083906200004d906000906020850190620000fb565b50805162000063906001906020840190620000fb565b50506006805460ff191690555060016007556200008033620000a9565b600980546001600160a01b0319166001600160a01b039290921691909117905550620003389050565b600880546001600160a01b038381166001600160a01b0319831681179093556040519116919082907f8be0079c531659141344cd1fd0a4f28419497f9722a3daafe3b4186f6b6457e090600090a35050565b8280546200010990620002fb565b90600052602060002090601f0160209004810192826200012d576000855562000178565b82601f106200014857805160ff191683800117855562000178565b8280016001018555821562000178579182015b82811115620001785782518255916020019190600101906200015b565b50620001869291506200018a565b5090565b5b808211156200018657600081556001016200018b565b634e487b7160e01b600052604160045260246000fd5b600082601f830112620001c957600080fd5b81516001600160401b0380821115620001e657620001e6620001a1565b604051601f8301601f19908116603f01168101908282118183101715620002115762000211620001a1565b816040528381526020925086838588010111156200022e57600080fd5b600091505b8382101562000252578582018301518183018401529082019062000233565b83821115620002645760008385830101525b9695505050505050565b6000806000606084860312156200028457600080fd5b83516001600160401b03808211156200029c57600080fd5b620002aa87838801620001b7565b94506020860151915080821115620002c157600080fd5b50620002d086828701620001b7565b604086015190935090506001600160a01b0381168114620002f057600080fd5b809150509250925092565b600181811c908216806200031057607f821691505b602082108114156200033257634e487b7160e01b600052602260045260246000fd5b50919050565b6137ae80620003486000396000f3fe608060405234801561001057600080fd5b50600436106102535760003560e01c8063715018a611610146578063ab1ca979116100c3578063c5b37c2211610087578063c5b37c2214610518578063c87b56dd14610521578063df2fb92c14610534578063e985e9c51461053d578063f2fde38b14610579578063f9ecc22c1461058c57600080fd5b8063ab1ca979146104ab578063adfc7dae146104be578063b88d4fde146104d1578063bc8bde64146104e4578063c0dca239146104f757600080fd5b80638f2839701161010a5780638f2839701461044a57806394e568471461045d578063953cd2461461047057806395d89b4114610490578063a22cb4651461049857600080fd5b8063715018a6146104015780637f0429ef1461040957806381d225641461041e5780638456cb59146104315780638da5cb5b1461043957600080fd5b806339a0c6f9116101d45780634828eccc116101985780634828eccc146103b4578063531f7b53146103c75780635c975abb146103d05780636352211e146103db57806370a08231146103ee57600080fd5b806339a0c6f9146103605780633de95556146103735780633f4ba83a1461038657806342842e0e1461038e578063456c9504146103a157600080fd5b8063145065241161021b57806314506524146102e8578063214863cb146102ff57806323b872dd146103125780632a55205a146103255780632e52d6061461035757600080fd5b806301bc45c91461025857806301ffc9a71461028857806306fdde03146102ab578063081812fc146102c0578063095ea7b3146102d3575b600080fd5b60095461026b906001600160a01b031681565b6040516001600160a01b0390911681526020015b60405180910390f35b61029b610296366004612618565b61059f565b604051901515815260200161027f565b6102b36105f1565b60405161027f919061268d565b61026b6102ce3660046126a0565b610683565b6102e66102e13660046126d5565b6106aa565b005b6102f160125481565b60405190815260200161027f565b6102e661030d366004612880565b6107c5565b6102e66103203660046128cd565b6108ea565b610338610333366004612909565b61091b565b604080516001600160a01b03909316835260208301919091520161027f565b6102f160115481565b6102e661036e3660046129ab565b61094b565b6102e66103813660046129df565b610991565b6102e6610aa3565b6102e661039c3660046128cd565b610af4565b6102e66103af3660046126d5565b610b0f565b60155461026b906001600160a01b031681565b6102f1600b5481565b60065460ff1661029b565b61026b6103e93660046126a0565b610baa565b6102f16103fc366004612a35565b610c0a565b6102e6610c90565b610411610ca2565b60405161027f9190612aa5565b6102e661042c366004612b51565b610f0b565b6102e6610f76565b6009546001600160a01b031661026b565b6102e6610458366004612a35565b610fc5565b61041161046b3660046126a0565b61105c565b6102f161047e3660046126a0565b600c6020526000908152604090205481565b6102b361140f565b6102e66104a6366004612b99565b61141e565b6102e66104b9366004612bd0565b611429565b60175461026b906001600160a01b031681565b6102e66104df366004612cfc565b611586565b60165461026b906001600160a01b031681565b61050a6105053660046126a0565b6115be565b60405161027f929190612d77565b6102f160145481565b6102b361052f3660046126a0565b611893565b6102f160135481565b61029b61054b366004612e31565b6001600160a01b03918216600090815260056020908152604080832093909416825291909152205460ff1690565b6102e6610587366004612a35565b6118f1565b600a5461026b906001600160a01b031681565b60006001600160e01b031982166380ac58cd60e01b14806105d057506001600160e01b03198216635b5e139f60e01b145b806105eb57506301ffc9a760e01b6001600160e01b03198316145b92915050565b6060600e805461060090612e5b565b80601f016020809104026020016040519081016040528092919081815260200182805461062c90612e5b565b80156106795780601f1061064e57610100808354040283529160200191610679565b820191906000526020600020905b81548152906001019060200180831161065c57829003601f168201915b5050505050905090565b600061068e82611967565b506000908152600460205260409020546001600160a01b031690565b60006106b582610baa565b9050806001600160a01b0316836001600160a01b031614156107285760405162461bcd60e51b815260206004820152602160248201527f4552433732313a20617070726f76616c20746f2063757272656e74206f776e656044820152603960f91b60648201526084015b60405180910390fd5b336001600160a01b03821614806107445750610744813361054b565b6107b65760405162461bcd60e51b815260206004820152603e60248201527f4552433732313a20617070726f76652063616c6c6572206973206e6f7420746f60448201527f6b656e206f776e6572206e6f7220617070726f76656420666f7220616c6c0000606482015260840161071f565b6107c083836119c6565b505050565b600a5460408051808201909152600381526206460760eb1b6020820152906001600160a01b0316331461080b5760405162461bcd60e51b815260040161071f919061268d565b506000600b54116040518060400160405280600381526020016219181960e91b8152509061084c5760405162461bcd60e51b815260040161071f919061268d565b506011805490600061085d83612eac565b919050555060135460115411156040518060400160405280600381526020016232303360e81b815250906108a45760405162461bcd60e51b815260040161071f919061268d565b506011546000908152600c602090815260409091208251815581830151805184936108d692600185019291019061252f565b509050506108e682601154611a34565b5050565b6108f43382611a4e565b6109105760405162461bcd60e51b815260040161071f90612ec7565b6107c0838383611acd565b6009546001600160a01b03166000612710610938846101f4612f15565b6109429190612f4a565b90509250929050565b6009546001600160a01b0316336001600160a01b03161461097e5760405162461bcd60e51b815260040161071f90612f5e565b80516108e690601090602084019061257a565b600a5460408051808201909152600381526206460760eb1b6020820152906001600160a01b031633146109d75760405162461bcd60e51b815260040161071f919061268d565b506000600b54116040518060400160405280600381526020016219181960e91b81525090610a185760405162461bcd60e51b815260040161071f919061268d565b5060135482118015610a2c57506012548211155b6040518060400160405280600381526020016232303360e81b81525090610a665760405162461bcd60e51b815260040161071f919061268d565b506000828152600c60209081526040909120825181558183015180518493610a9592600185019291019061252f565b509050506107c08383611a34565b60095460408051808201909152600381526231303160e81b6020820152906001600160a01b03163314610ae95760405162461bcd60e51b815260040161071f919061268d565b50610af2611c74565b565b6107c083838360405180602001604052806000815250611586565b6009546001600160a01b0316336001600160a01b031614610b425760405162461bcd60e51b815260040161071f90612f5e565b60408051808201909152600381526203130360ec1b60208201526001600160a01b038316610b835760405162461bcd60e51b815260040161071f919061268d565b50600a80546001600160a01b0319166001600160a01b039390931692909217909155600b55565b6000818152600260205260408120546001600160a01b0316806105eb5760405162461bcd60e51b8152602060048201526018602482015277115490cdcc8c4e881a5b9d985b1a59081d1bdad95b88125160421b604482015260640161071f565b60006001600160a01b038216610c745760405162461bcd60e51b815260206004820152602960248201527f4552433732313a2061646472657373207a65726f206973206e6f7420612076616044820152683634b21037bbb732b960b91b606482015260840161071f565b506001600160a01b031660009081526003602052604090205490565b610c98611cc6565b610af26000611d44565b6060600d600001805480602002602001604051908101604052809291908181526020016000905b82821015610f025783829060005260206000209060040201604051806080016040529081600082018054610cfc90612e5b565b80601f0160208091040260200160405190810160405280929190818152602001828054610d2890612e5b565b8015610d755780601f10610d4a57610100808354040283529160200191610d75565b820191906000526020600020905b815481529060010190602001808311610d5857829003601f168201915b5050505050815260200160018201805480602002602001604051908101604052809291908181526020016000905b82821015610e4f578382906000526020600020018054610dc290612e5b565b80601f0160208091040260200160405190810160405280929190818152602001828054610dee90612e5b565b8015610e3b5780601f10610e1057610100808354040283529160200191610e3b565b820191906000526020600020905b815481529060010190602001808311610e1e57829003601f168201915b505050505081526020019060010190610da3565b50505050815260200160028201548152602001600382018054610e7190612e5b565b80601f0160208091040260200160405190810160405280929190818152602001828054610e9d90612e5b565b8015610eea5780601f10610ebf57610100808354040283529160200191610eea565b820191906000526020600020905b815481529060010190602001808311610ecd57829003601f168201915b50505050508152505081526020019060010190610cc9565b50505050905090565b6009546001600160a01b0316331480610f2e5750600a546001600160a01b031633145b6040518060400160405280600381526020016231303160e81b81525090610f685760405162461bcd60e51b815260040161071f919061268d565b5080600d6107c082826132bc565b60095460408051808201909152600381526231303160e81b6020820152906001600160a01b03163314610fbc5760405162461bcd60e51b815260040161071f919061268d565b50610af2611d96565b6009546001600160a01b0316336001600160a01b031614610ff85760405162461bcd60e51b815260040161071f90612f5e565b60408051808201909152600381526203130360ec1b60208201526001600160a01b0382166110395760405162461bcd60e51b815260040161071f919061268d565b50600980546001600160a01b0319166001600160a01b0392909216919091179055565b606060008061106a846115be565b915091506000600d600001805480602002602001604051908101604052809291908181526020016000905b828210156112ce57838290600052602060002090600402016040518060800160405290816000820180546110c890612e5b565b80601f01602080910402602001604051908101604052809291908181526020018280546110f490612e5b565b80156111415780601f1061111657610100808354040283529160200191611141565b820191906000526020600020905b81548152906001019060200180831161112457829003601f168201915b5050505050815260200160018201805480602002602001604051908101604052809291908181526020016000905b8282101561121b57838290600052602060002001805461118e90612e5b565b80601f01602080910402602001604051908101604052809291908181526020018280546111ba90612e5b565b80156112075780601f106111dc57610100808354040283529160200191611207565b820191906000526020600020905b8154815290600101906020018083116111ea57829003601f168201915b50505050508152602001906001019061116f565b5050505081526020016002820154815260200160038201805461123d90612e5b565b80601f016020809104026020016040519081016040528092919081815260200182805461126990612e5b565b80156112b65780601f1061128b576101008083540402835291602001916112b6565b820191906000526020600020905b81548152906001019060200180831161129957829003601f168201915b50505050508152505081526020019060010190611095565b50505050905081518151146112e557949350505050565b60005b82518160ff161015611406576000838260ff168151811061130b5761130b6133b3565b602002602001015160a0015190506000838360ff1681518110611330576113306133b3565b6020026020010151602001515111156113cc57828260ff1681518110611358576113586133b3565b6020026020010151602001518181518110611375576113756133b3565b6020026020010151838360ff1681518110611392576113926133b3565b60200260200101516060018190525080838360ff16815181106113b7576113b76133b3565b602002602001015160400181815250506113f3565b80838360ff16815181106113e2576113e26133b3565b602002602001015160400181815250505b50806113fe816133c9565b9150506112e8565b50949350505050565b6060600f805461060090612e5b565b6108e6338383611dd3565b60608101516001600160a01b031661146d5760405162461bcd60e51b815260206004820152600760248201526612539597d0511160ca1b604482015260640161071f565b600b54156114a75760405162461bcd60e51b815260206004820152600760248201526611561254d5115160ca1b604482015260640161071f565b805180516114bd91600e9160209091019061257a565b5060208082015180516114d492600f92019061257a565b50604081015180516114ee9160109160209091019061257a565b50600a8054336001600160a01b03199182161790915560c0820151600b55608082015160125560a082015160135560e08201516014556101008201516015805483166001600160a01b03928316179055606083015160098054841682841617905561012084015160168054851691841691909117905561014084015160178054909416921691909117909155611583906118f1565b50565b6115903383611a4e565b6115ac5760405162461bcd60e51b815260040161071f90612ec7565b6115b884848484611ea2565b50505050565b600060606000600c6000858152602001908152602001600020604051806040016040529081600082015481526020016001820180548060200260200160405190810160405280929190818152602001828054801561163b57602002820191906000526020600020905b815481526020019060010190808311611627575b505050919092525050600a54600b54604051631389a8ab60e21b815260048101919091529293506001600160a01b031691600091508290634e26a2ac90602401600060405180830381865afa158015611698573d6000803e3d6000fd5b505050506040513d6000823e601f3d908101601f191682016040526116c091908101906134cb565b835190915060005b8251811015611884578281815181106116e3576116e36133b3565b602002602001015160c001516117b457828181518110611705576117056133b3565b6020026020010151608001515160001415611789576117628260001c848381518110611733576117336133b3565b602002602001015160400151858481518110611751576117516133b3565b602002602001015160200151611ed5565b838281518110611774576117746133b3565b602002602001015160a0018181525050611820565b6117628260001c8483815181106117a2576117a26133b3565b60200260200101516080015151611f00565b60008560200151511180156117da575060018560200151516117d69190613603565b8111155b1561182057846020015181815181106117f5576117f56133b3565b602002602001015183828151811061180f5761180f6133b3565b602002602001015160a00181815250505b81838281518110611833576118336133b3565b602002602001015160a00151604051602001611859929190918252602082015260400190565b604051602081830303815290604052805190602001209150808061187c90612eac565b9150506116c8565b50509151959194509092505050565b606061189d611f13565b600a546118b4906001600160a01b03166014611f22565b6118bf600b546120bd565b6118c8856120bd565b6040516020016118db949392919061361a565b6040516020818303038152906040529050919050565b6118f9611cc6565b6001600160a01b03811661195e5760405162461bcd60e51b815260206004820152602660248201527f4f776e61626c653a206e6577206f776e657220697320746865207a65726f206160448201526564647265737360d01b606482015260840161071f565b61158381611d44565b6000818152600260205260409020546001600160a01b03166115835760405162461bcd60e51b8152602060048201526018602482015277115490cdcc8c4e881a5b9d985b1a59081d1bdad95b88125160421b604482015260640161071f565b600081815260046020526040902080546001600160a01b0319166001600160a01b03841690811790915581906119fb82610baa565b6001600160a01b03167f8c5be1e5ebec7d5bd14f71427d1e84f3dd0314c0f7b2291e5b200ac8c7c3b92560405160405180910390a45050565b6108e68282604051806020016040528060008152506121ba565b600080611a5a83610baa565b9050806001600160a01b0316846001600160a01b03161480611aa157506001600160a01b0380821660009081526005602090815260408083209388168352929052205460ff165b80611ac55750836001600160a01b0316611aba84610683565b6001600160a01b0316145b949350505050565b826001600160a01b0316611ae082610baa565b6001600160a01b031614611b445760405162461bcd60e51b815260206004820152602560248201527f4552433732313a207472616e736665722066726f6d20696e636f72726563742060448201526437bbb732b960d91b606482015260840161071f565b6001600160a01b038216611ba65760405162461bcd60e51b8152602060048201526024808201527f4552433732313a207472616e7366657220746f20746865207a65726f206164646044820152637265737360e01b606482015260840161071f565b611bb18383836121ed565b611bbc6000826119c6565b6001600160a01b0383166000908152600360205260408120805460019290611be5908490613603565b90915550506001600160a01b0382166000908152600360205260408120805460019290611c13908490613689565b909155505060008181526002602052604080822080546001600160a01b0319166001600160a01b0386811691821790925591518493918716917fddf252ad1be2c89b69c2b068fc378daa952ba7f163c4a11628f55a4df523b3ef91a4505050565b611c7c612254565b6006805460ff191690557f5db9ee0a495bf2e6ff9c91a7834c1ba4fdd244a5e8aa4e537bd38aeae4b073aa335b6040516001600160a01b03909116815260200160405180910390a1565b33611cd96009546001600160a01b031690565b6001600160a01b03161480611cf85750600a546001600160a01b031633145b610af25760405162461bcd60e51b815260206004820181905260248201527f4f776e61626c653a2063616c6c6572206973206e6f7420746865206f776e6572604482015260640161071f565b600880546001600160a01b038381166001600160a01b0319831681179093556040519116919082907f8be0079c531659141344cd1fd0a4f28419497f9722a3daafe3b4186f6b6457e090600090a35050565b611d9e61229d565b6006805460ff191660011790557f62e78cea01bee320cd4e420270b5ea74000d11b0c9f74754ebdbfc544b05a258611ca93390565b816001600160a01b0316836001600160a01b03161415611e355760405162461bcd60e51b815260206004820152601960248201527f4552433732313a20617070726f766520746f2063616c6c657200000000000000604482015260640161071f565b6001600160a01b03838116600081815260056020908152604080832094871680845294825291829020805460ff191686151590811790915591519182527f17307eab39ab6107e8899845ad3d59bd9653f200f220920489ca2b5937696c31910160405180910390a3505050565b611ead848484611acd565b611eb9848484846122e3565b6115b85760405162461bcd60e51b815260040161071f906136a1565b6000611ee18383613603565b611eec906001613689565b611ef690856136f3565b611ac59084613689565b6000611f0c82846136f3565b9392505050565b60606010805461060090612e5b565b60606000611f31836002612f15565b611f3c906002613689565b6001600160401b03811115611f5357611f536126ff565b6040519080825280601f01601f191660200182016040528015611f7d576020820181803683370190505b509050600360fc1b81600081518110611f9857611f986133b3565b60200101906001600160f81b031916908160001a905350600f60fb1b81600181518110611fc757611fc76133b3565b60200101906001600160f81b031916908160001a9053506000611feb846002612f15565b611ff6906001613689565b90505b600181111561206e576f181899199a1a9b1b9c1cb0b131b232b360811b85600f166010811061202a5761202a6133b3565b1a60f81b828281518110612040576120406133b3565b60200101906001600160f81b031916908160001a90535060049490941c9361206781613707565b9050611ff9565b508315611f0c5760405162461bcd60e51b815260206004820181905260248201527f537472696e67733a20686578206c656e67746820696e73756666696369656e74604482015260640161071f565b6060816120e15750506040805180820190915260018152600360fc1b602082015290565b8160005b811561210b57806120f581612eac565b91506121049050600a83612f4a565b91506120e5565b6000816001600160401b03811115612125576121256126ff565b6040519080825280601f01601f19166020018201604052801561214f576020820181803683370190505b5090505b8415611ac557612164600183613603565b9150612171600a866136f3565b61217c906030613689565b60f81b818381518110612191576121916133b3565b60200101906001600160f81b031916908160001a9053506121b3600a86612f4a565b9450612153565b6121c483836123e1565b6121d160008484846122e3565b6107c05760405162461bcd60e51b815260040161071f906136a1565b60065460ff16156107c05760405162461bcd60e51b815260206004820152602b60248201527f4552433732315061757361626c653a20746f6b656e207472616e73666572207760448201526a1a1a5b19481c185d5cd95960aa1b606482015260840161071f565b60065460ff16610af25760405162461bcd60e51b815260206004820152601460248201527314185d5cd8589b194e881b9bdd081c185d5cd95960621b604482015260640161071f565b60065460ff1615610af25760405162461bcd60e51b815260206004820152601060248201526f14185d5cd8589b194e881c185d5cd95960821b604482015260640161071f565b60006001600160a01b0384163b156123d657604051630a85bd0160e11b81526001600160a01b0385169063150b7a029061232790339089908890889060040161371e565b6020604051808303816000875af1925050508015612362575060408051601f3d908101601f1916820190925261235f9181019061375b565b60015b6123bc573d808015612390576040519150601f19603f3d011682016040523d82523d6000602084013e612395565b606091505b5080516123b45760405162461bcd60e51b815260040161071f906136a1565b805181602001fd5b6001600160e01b031916630a85bd0160e11b149050611ac5565b506001949350505050565b6001600160a01b0382166124375760405162461bcd60e51b815260206004820181905260248201527f4552433732313a206d696e7420746f20746865207a65726f2061646472657373604482015260640161071f565b6000818152600260205260409020546001600160a01b03161561249c5760405162461bcd60e51b815260206004820152601c60248201527f4552433732313a20746f6b656e20616c7265616479206d696e74656400000000604482015260640161071f565b6124a8600083836121ed565b6001600160a01b03821660009081526003602052604081208054600192906124d1908490613689565b909155505060008181526002602052604080822080546001600160a01b0319166001600160a01b03861690811790915590518392907fddf252ad1be2c89b69c2b068fc378daa952ba7f163c4a11628f55a4df523b3ef908290a45050565b82805482825590600052602060002090810192821561256a579160200282015b8281111561256a57825182559160200191906001019061254f565b506125769291506125ed565b5090565b82805461258690612e5b565b90600052602060002090601f0160209004810192826125a8576000855561256a565b82601f106125c157805160ff191683800117855561256a565b8280016001018555821561256a579182018281111561256a57825182559160200191906001019061254f565b5b8082111561257657600081556001016125ee565b6001600160e01b03198116811461158357600080fd5b60006020828403121561262a57600080fd5b8135611f0c81612602565b60005b83811015612650578181015183820152602001612638565b838111156115b85750506000910152565b60008151808452612679816020860160208601612635565b601f01601f19169290920160200192915050565b602081526000611f0c6020830184612661565b6000602082840312156126b257600080fd5b5035919050565b80356001600160a01b03811681146126d057600080fd5b919050565b600080604083850312156126e857600080fd5b6126f1836126b9565b946020939093013593505050565b634e487b7160e01b600052604160045260246000fd5b604080519081016001600160401b0381118282101715612737576127376126ff565b60405290565b60405161016081016001600160401b0381118282101715612737576127376126ff565b60405160e081016001600160401b0381118282101715612737576127376126ff565b604051601f8201601f191681016001600160401b03811182821017156127aa576127aa6126ff565b604052919050565b60006001600160401b038211156127cb576127cb6126ff565b5060051b60200190565b6000604082840312156127e757600080fd5b6127ef612715565b9050813581526020808301356001600160401b0381111561280f57600080fd5b8301601f8101851361282057600080fd5b803561283361282e826127b2565b612782565b81815260059190911b8201830190838101908783111561285257600080fd5b928401925b8284101561287057833582529284019290840190612857565b8085870152505050505092915050565b6000806040838503121561289357600080fd5b61289c836126b9565b915060208301356001600160401b038111156128b757600080fd5b6128c3858286016127d5565b9150509250929050565b6000806000606084860312156128e257600080fd5b6128eb846126b9565b92506128f9602085016126b9565b9150604084013590509250925092565b6000806040838503121561291c57600080fd5b50508035926020909101359150565b60006001600160401b03821115612944576129446126ff565b50601f01601f191660200190565b600061296061282e8461292b565b905082815283838301111561297457600080fd5b828260208301376000602084830101529392505050565b600082601f83011261299c57600080fd5b611f0c83833560208501612952565b6000602082840312156129bd57600080fd5b81356001600160401b038111156129d357600080fd5b611ac58482850161298b565b6000806000606084860312156129f457600080fd5b6129fd846126b9565b92506020840135915060408401356001600160401b03811115612a1f57600080fd5b612a2b868287016127d5565b9150509250925092565b600060208284031215612a4757600080fd5b611f0c826126b9565b600081518084526020808501808196508360051b8101915082860160005b85811015612a98578284038952612a86848351612661565b98850198935090840190600101612a6e565b5091979650505050505050565b60006020808301818452808551808352604092508286019150828160051b87010184880160005b83811015612b4357603f19898403018552815160808151818652612af282870182612661565b915050888201518582038a870152612b0a8282612a50565b915050878201518886015260608083015192508582038187015250612b2f8183612661565b968901969450505090860190600101612acc565b509098975050505050505050565b600060208284031215612b6357600080fd5b81356001600160401b03811115612b7957600080fd5b820160208185031215611f0c57600080fd5b801515811461158357600080fd5b60008060408385031215612bac57600080fd5b612bb5836126b9565b91506020830135612bc581612b8b565b809150509250929050565b600060208284031215612be257600080fd5b81356001600160401b0380821115612bf957600080fd5b908301906101608286031215612c0e57600080fd5b612c1661273d565b823582811115612c2557600080fd5b612c318782860161298b565b825250602083013582811115612c4657600080fd5b612c528782860161298b565b602083015250604083013582811115612c6a57600080fd5b612c768782860161298b565b604083015250612c88606084016126b9565b60608201526080830135608082015260a083013560a082015260c083013560c082015260e083013560e08201526101009150612cc58284016126b9565b828201526101209150612cd98284016126b9565b828201526101409150612ced8284016126b9565b91810191909152949350505050565b60008060008060808587031215612d1257600080fd5b612d1b856126b9565b9350612d29602086016126b9565b92506040850135915060608501356001600160401b03811115612d4b57600080fd5b8501601f81018713612d5c57600080fd5b612d6b87823560208401612952565b91505092959194509250565b6000604080830185845260208281860152818651808452606093508387019150838160051b88010183890160005b83811015612e2157605f198a8403018552815160e060ff80835116865288830151898701528a8301518b870152808a840151168a870152506080808301518282880152612df483880182612a50565b60a0858101519089015260c094850151151594909701939093525050509385019390850190600101612da5565b50909a9950505050505050505050565b60008060408385031215612e4457600080fd5b612e4d836126b9565b9150610942602084016126b9565b600181811c90821680612e6f57607f821691505b60208210811415612e9057634e487b7160e01b600052602260045260246000fd5b50919050565b634e487b7160e01b600052601160045260246000fd5b6000600019821415612ec057612ec0612e96565b5060010190565b6020808252602e908201527f4552433732313a2063616c6c6572206973206e6f7420746f6b656e206f776e6560408201526d1c881b9bdc88185c1c1c9bdd995960921b606082015260800190565b6000816000190483118215151615612f2f57612f2f612e96565b500290565b634e487b7160e01b600052601260045260246000fd5b600082612f5957612f59612f34565b500490565b60208082526012908201527113d3931657d05113525397d0531313d5d15160721b604082015260600190565b6000808335601e19843603018112612fa157600080fd5b8301803591506001600160401b03821115612fbb57600080fd5b6020019150600581901b3603821315612fd357600080fd5b9250929050565b60008235607e19833603018112612ff057600080fd5b9190910192915050565b5b818110156108e65760008155600101612ffb565b6130198154612e5b565b80156108e657601f81116001811461303357505060009055565b826000526020600020613051601f840160051c820160018301612ffa565b506020600090812081855555505050565b80546000825580156108e6578160005260206000208181015b808210156115b85761308c8261300f565b60018201915061307b565b6000808335601e198436030181126130ae57600080fd5b8301803591506001600160401b038211156130c857600080fd5b602001915036819003821315612fd357600080fd5b601f8211156107c057806000526020600020601f840160051c810160208510156131045750805b613116601f850160051c830182612ffa565b5050505050565b6001600160401b03831115613134576131346126ff565b613148836131428354612e5b565b836130dd565b6000601f84116001811461317c57600085156131645750838201355b600019600387901b1c1916600186901b178355613116565b600083815260209020601f19861690835b828110156131ad578685013582556020948501946001909201910161318d565b50868210156131ca5760001960f88860031b161c19848701351681555b505060018560011b0183555050505050565b6131e68283613097565b6131f181838561311d565b50506001808201602061320681860186612f8a565b600160401b81111561321a5761321a6126ff565b8354818555808210156132535760008581528490208281019082015b80821015613250576132478261300f565b90870190613236565b50505b50818460005283600020945060005b82811015613290576132748285613097565b61327f81838a61311d565b505094860194908401908601613262565b50505050505050604082013560028201556132ae6060830183613097565b6115b881836003860161311d565b6132c68283612f8a565b600160401b8111156132da576132da6126ff565b82548184558082101561336c576001600160fe1b03600181831181161561330357613303612e96565b600282851182161561331757613317612e96565b60008781526020812090935085821b81019085831b015b808210156133665761333f8261300f565b61334a848301613062565b848383015561335b6003830161300f565b60048201915061332e565b50505050505b5060008381526020812083915b838110156133aa5761339461338e8487612fda565b836131dc565b6020929092019160049190910190600101613379565b50505050505050565b634e487b7160e01b600052603260045260246000fd5b600060ff821660ff8114156133e0576133e0612e96565b60010192915050565b805160ff811681146126d057600080fd5b600082601f83011261340b57600080fd5b8151602061341b61282e836127b2565b82815260059290921b8401810191818101908684111561343a57600080fd5b8286015b848110156134b55780516001600160401b0381111561345d5760008081fd5b8701603f8101891361346f5760008081fd5b84810151604061348161282e8361292b565b8281528b828486010111156134965760008081fd5b6134a583898301848701612635565b865250505091830191830161343e565b509695505050505050565b80516126d081612b8b565b600060208083850312156134de57600080fd5b82516001600160401b03808211156134f557600080fd5b818501915085601f83011261350957600080fd5b815161351761282e826127b2565b81815260059190911b8301840190848101908883111561353657600080fd5b8585015b838110156135f65780518581111561355157600080fd5b860160e0818c03601f190112156135685760008081fd5b613570612760565b61357b8983016133e9565b81526040808301518a83015260608084015182840152608091506135a08285016133e9565b9083015260a083810151898111156135b85760008081fd5b6135c68f8d838801016133fa565b838501525060c091508184015181840152506135e460e084016134c0565b9082015284525091860191860161353a565b5098975050505050505050565b60008282101561361557613615612e96565b500390565b6000855161362c818460208a01612635565b855190830190613640818360208a01612635565b602f60f81b91018181528551909190613660816001850160208a01612635565b6001920191820152835161367b816002840160208801612635565b016002019695505050505050565b6000821982111561369c5761369c612e96565b500190565b60208082526032908201527f4552433732313a207472616e7366657220746f206e6f6e20455243373231526560408201527131b2b4bb32b91034b6b83632b6b2b73a32b960711b606082015260800190565b60008261370257613702612f34565b500690565b60008161371657613716612e96565b506000190190565b6001600160a01b038581168252841660208201526040810183905260806060820181905260009061375190830184612661565b9695505050505050565b60006020828403121561376d57600080fd5b8151611f0c8161260256fea2646970667358221220c43977e301e5474c776f8670f7e8ae50398fcbcf25e4ea2a0ab9b416835f389764736f6c634300080c0033",
  "linkReferences": {},
  "deployedLinkReferences": {}
}