{
  "_format": "hh-sol-artifact-1",
  "contractName": "GenerativeNFT",
  "sourceName": "contracts/nft/GenerativeNFT.sol",
  "abi": [
    {
      "inputs": [
        {
          "internalType": "string",
          "name": "_name",
          "type": "string"
        },
        {
          "internalType": "string",
          "name": "_symbol",
          "type": "string"
        },
        {
          "internalType": "string",
          "name": "_baseuri",
          "type": "string"
        },
        {
          "internalType": "address",
          "name": "admin",
          "type": "address"
        }
      ],
      "stateMutability": "nonpayable",
      "type": "constructor"
    },
    {
      "anonymous": false,
      "inputs": [
        {
          "indexed": true,
          "internalType": "address",
          "name": "owner",
          "type": "address"
        },
        {
          "indexed": true,
          "internalType": "address",
          "name": "approved",
          "type": "address"
        },
        {
          "indexed": true,
          "internalType": "uint256",
          "name": "tokenId",
          "type": "uint256"
        }
      ],
      "name": "Approval",
      "type": "event"
    },
    {
      "anonymous": false,
      "inputs": [
        {
          "indexed": true,
          "internalType": "address",
          "name": "owner",
          "type": "address"
        },
        {
          "indexed": true,
          "internalType": "address",
          "name": "operator",
          "type": "address"
        },
        {
          "indexed": false,
          "internalType": "bool",
          "name": "approved",
          "type": "bool"
        }
      ],
      "name": "ApprovalForAll",
      "type": "event"
    },
    {
      "anonymous": false,
      "inputs": [
        {
          "indexed": false,
          "internalType": "address",
          "name": "mintTo",
          "type": "address"
        },
        {
          "indexed": false,
          "internalType": "address",
          "name": "creator",
          "type": "address"
        },
        {
          "indexed": false,
          "internalType": "string",
          "name": "uri",
          "type": "string"
        },
        {
          "indexed": false,
          "internalType": "uint256",
          "name": "tokenId",
          "type": "uint256"
        }
      ],
      "name": "MintGenerativeNFT",
      "type": "event"
    },
    {
      "anonymous": false,
      "inputs": [
        {
          "indexed": true,
          "internalType": "address",
          "name": "previousOwner",
          "type": "address"
        },
        {
          "indexed": true,
          "internalType": "address",
          "name": "newOwner",
          "type": "address"
        }
      ],
      "name": "OwnershipTransferred",
      "type": "event"
    },
    {
      "anonymous": false,
      "inputs": [
        {
          "indexed": false,
          "internalType": "address",
          "name": "account",
          "type": "address"
        }
      ],
      "name": "Paused",
      "type": "event"
    },
    {
      "anonymous": false,
      "inputs": [
        {
          "indexed": true,
          "internalType": "bytes32",
          "name": "role",
          "type": "bytes32"
        },
        {
          "indexed": true,
          "internalType": "bytes32",
          "name": "previousAdminRole",
          "type": "bytes32"
        },
        {
          "indexed": true,
          "internalType": "bytes32",
          "name": "newAdminRole",
          "type": "bytes32"
        }
      ],
      "name": "RoleAdminChanged",
      "type": "event"
    },
    {
      "anonymous": false,
      "inputs": [
        {
          "indexed": true,
          "internalType": "bytes32",
          "name": "role",
          "type": "bytes32"
        },
        {
          "indexed": true,
          "internalType": "address",
          "name": "account",
          "type": "address"
        },
        {
          "indexed": true,
          "internalType": "address",
          "name": "sender",
          "type": "address"
        }
      ],
      "name": "RoleGranted",
      "type": "event"
    },
    {
      "anonymous": false,
      "inputs": [
        {
          "indexed": true,
          "internalType": "bytes32",
          "name": "role",
          "type": "bytes32"
        },
        {
          "indexed": true,
          "internalType": "address",
          "name": "account",
          "type": "address"
        },
        {
          "indexed": true,
          "internalType": "address",
          "name": "sender",
          "type": "address"
        }
      ],
      "name": "RoleRevoked",
      "type": "event"
    },
    {
      "anonymous": false,
      "inputs": [
        {
          "indexed": true,
          "internalType": "address",
          "name": "from",
          "type": "address"
        },
        {
          "indexed": true,
          "internalType": "address",
          "name": "to",
          "type": "address"
        },
        {
          "indexed": true,
          "internalType": "uint256",
          "name": "tokenId",
          "type": "uint256"
        }
      ],
      "name": "Transfer",
      "type": "event"
    },
    {
      "anonymous": false,
      "inputs": [
        {
          "indexed": false,
          "internalType": "address",
          "name": "account",
          "type": "address"
        }
      ],
      "name": "Unpaused",
      "type": "event"
    },
    {
      "inputs": [],
      "name": "DEFAULT_ADMIN_ROLE",
      "outputs": [
        {
          "internalType": "bytes32",
          "name": "",
          "type": "bytes32"
        }
      ],
      "stateMutability": "view",
      "type": "function"
    },
    {
      "inputs": [],
      "name": "MINTER_ROLE",
      "outputs": [
        {
          "internalType": "bytes32",
          "name": "",
          "type": "bytes32"
        }
      ],
      "stateMutability": "view",
      "type": "function"
    },
    {
      "inputs": [],
      "name": "PAUSER_ROLE",
      "outputs": [
        {
          "internalType": "bytes32",
          "name": "",
          "type": "bytes32"
        }
      ],
      "stateMutability": "view",
      "type": "function"
    },
    {
      "inputs": [],
      "name": "_admin",
      "outputs": [
        {
          "internalType": "address",
          "name": "",
          "type": "address"
        }
      ],
      "stateMutability": "view",
      "type": "function"
    },
    {
      "inputs": [],
      "name": "_boilerplateAddr",
      "outputs": [
        {
          "internalType": "address",
          "name": "",
          "type": "address"
        }
      ],
      "stateMutability": "view",
      "type": "function"
    },
    {
      "inputs": [],
      "name": "_boilerplateId",
      "outputs": [
        {
          "internalType": "uint256",
          "name": "",
          "type": "uint256"
        }
      ],
      "stateMutability": "view",
      "type": "function"
    },
    {
      "inputs": [
        {
          "internalType": "uint256",
          "name": "",
          "type": "uint256"
        }
      ],
      "name": "_creators",
      "outputs": [
        {
          "internalType": "address",
          "name": "",
          "type": "address"
        }
      ],
      "stateMutability": "view",
      "type": "function"
    },
    {
      "inputs": [
        {
          "internalType": "uint256",
          "name": "",
          "type": "uint256"
        }
      ],
      "name": "_paramsValues",
      "outputs": [
        {
          "internalType": "bytes32",
          "name": "_seed",
          "type": "bytes32"
        }
      ],
      "stateMutability": "view",
      "type": "function"
    },
    {
      "inputs": [
        {
          "internalType": "address",
          "name": "to",
          "type": "address"
        },
        {
          "internalType": "uint256",
          "name": "tokenId",
          "type": "uint256"
        }
      ],
      "name": "approve",
      "outputs": [],
      "stateMutability": "nonpayable",
      "type": "function"
    },
    {
      "inputs": [
        {
          "internalType": "address",
          "name": "owner",
          "type": "address"
        }
      ],
      "name": "balanceOf",
      "outputs": [
        {
          "internalType": "uint256",
          "name": "",
          "type": "uint256"
        }
      ],
      "stateMutability": "view",
      "type": "function"
    },
    {
      "inputs": [],
      "name": "baseTokenURI",
      "outputs": [
        {
          "internalType": "string",
          "name": "",
          "type": "string"
        }
      ],
      "stateMutability": "view",
      "type": "function"
    },
    {
      "inputs": [
        {
          "internalType": "uint256",
          "name": "tokenId",
          "type": "uint256"
        }
      ],
      "name": "burn",
      "outputs": [],
      "stateMutability": "nonpayable",
      "type": "function"
    },
    {
      "inputs": [
        {
          "internalType": "address",
          "name": "_newAdmin",
          "type": "address"
        }
      ],
      "name": "changeAdmin",
      "outputs": [],
      "stateMutability": "nonpayable",
      "type": "function"
    },
    {
      "inputs": [
        {
          "internalType": "uint256",
          "name": "tokenId",
          "type": "uint256"
        }
      ],
      "name": "getApproved",
      "outputs": [
        {
          "internalType": "address",
          "name": "",
          "type": "address"
        }
      ],
      "stateMutability": "view",
      "type": "function"
    },
    {
      "inputs": [
        {
          "internalType": "uint256",
          "name": "tokenId",
          "type": "uint256"
        }
      ],
      "name": "getParamValues",
      "outputs": [
        {
          "internalType": "bytes32",
          "name": "",
          "type": "bytes32"
        },
        {
          "components": [
            {
              "internalType": "uint8",
              "name": "_typeValue",
              "type": "uint8"
            },
            {
              "internalType": "uint256",
              "name": "_max",
              "type": "uint256"
            },
            {
              "internalType": "uint256",
              "name": "_min",
              "type": "uint256"
            },
            {
              "internalType": "uint8",
              "name": "_decimal",
              "type": "uint8"
            },
            {
              "internalType": "string[]",
              "name": "_availableValues",
              "type": "string[]"
            },
            {
              "internalType": "uint256",
              "name": "_value",
              "type": "uint256"
            },
            {
              "internalType": "bool",
              "name": "_editable",
              "type": "bool"
            }
          ],
          "internalType": "struct BoilerplateParam.ParamTemplate[]",
          "name": "",
          "type": "tuple[]"
        }
      ],
      "stateMutability": "view",
      "type": "function"
    },
    {
      "inputs": [
        {
          "internalType": "bytes32",
          "name": "role",
          "type": "bytes32"
        }
      ],
      "name": "getRoleAdmin",
      "outputs": [
        {
          "internalType": "bytes32",
          "name": "",
          "type": "bytes32"
        }
      ],
      "stateMutability": "view",
      "type": "function"
    },
    {
      "inputs": [
        {
          "internalType": "bytes32",
          "name": "role",
          "type": "bytes32"
        },
        {
          "internalType": "uint256",
          "name": "index",
          "type": "uint256"
        }
      ],
      "name": "getRoleMember",
      "outputs": [
        {
          "internalType": "address",
          "name": "",
          "type": "address"
        }
      ],
      "stateMutability": "view",
      "type": "function"
    },
    {
      "inputs": [
        {
          "internalType": "bytes32",
          "name": "role",
          "type": "bytes32"
        }
      ],
      "name": "getRoleMemberCount",
      "outputs": [
        {
          "internalType": "uint256",
          "name": "",
          "type": "uint256"
        }
      ],
      "stateMutability": "view",
      "type": "function"
    },
    {
      "inputs": [
        {
          "internalType": "uint256",
          "name": "tokenId",
          "type": "uint256"
        }
      ],
      "name": "getTokenTraits",
      "outputs": [
        {
          "components": [
            {
              "internalType": "string",
              "name": "name",
              "type": "string"
            },
            {
              "internalType": "string[]",
              "name": "_availableValues",
              "type": "string[]"
            },
            {
              "internalType": "uint256",
              "name": "_value",
              "type": "uint256"
            },
            {
              "internalType": "string",
              "name": "_valueStr",
              "type": "string"
            }
          ],
          "internalType": "struct TraitInfo.Trait[]",
          "name": "",
          "type": "tuple[]"
        }
      ],
      "stateMutability": "view",
      "type": "function"
    },
    {
      "inputs": [],
      "name": "getTraits",
      "outputs": [
        {
          "components": [
            {
              "internalType": "string",
              "name": "name",
              "type": "string"
            },
            {
              "internalType": "string[]",
              "name": "_availableValues",
              "type": "string[]"
            },
            {
              "internalType": "uint256",
              "name": "_value",
              "type": "uint256"
            },
            {
              "internalType": "string",
              "name": "_valueStr",
              "type": "string"
            }
          ],
          "internalType": "struct TraitInfo.Trait[]",
          "name": "",
          "type": "tuple[]"
        }
      ],
      "stateMutability": "view",
      "type": "function"
    },
    {
      "inputs": [
        {
          "internalType": "bytes32",
          "name": "role",
          "type": "bytes32"
        },
        {
          "internalType": "address",
          "name": "account",
          "type": "address"
        }
      ],
      "name": "grantRole",
      "outputs": [],
      "stateMutability": "nonpayable",
      "type": "function"
    },
    {
      "inputs": [
        {
          "internalType": "bytes32",
          "name": "role",
          "type": "bytes32"
        },
        {
          "internalType": "address",
          "name": "account",
          "type": "address"
        }
      ],
      "name": "hasRole",
      "outputs": [
        {
          "internalType": "bool",
          "name": "",
          "type": "bool"
        }
      ],
      "stateMutability": "view",
      "type": "function"
    },
    {
      "inputs": [
        {
          "internalType": "string",
          "name": "name",
          "type": "string"
        },
        {
          "internalType": "string",
          "name": "symbol",
          "type": "string"
        },
        {
          "internalType": "address",
          "name": "admin",
          "type": "address"
        },
        {
          "internalType": "address",
          "name": "boilerplateAdd",
          "type": "address"
        },
        {
          "internalType": "uint256",
          "name": "boilerplateId",
          "type": "uint256"
        }
      ],
      "name": "init",
      "outputs": [],
      "stateMutability": "nonpayable",
      "type": "function"
    },
    {
      "inputs": [
        {
          "internalType": "address",
          "name": "owner",
          "type": "address"
        },
        {
          "internalType": "address",
          "name": "operator",
          "type": "address"
        }
      ],
      "name": "isApprovedForAll",
      "outputs": [
        {
          "internalType": "bool",
          "name": "",
          "type": "bool"
        }
      ],
      "stateMutability": "view",
      "type": "function"
    },
    {
      "inputs": [
        {
          "internalType": "address",
          "name": "to",
          "type": "address"
        }
      ],
      "name": "mint",
      "outputs": [],
      "stateMutability": "nonpayable",
      "type": "function"
    },
    {
      "inputs": [
        {
          "internalType": "address",
          "name": "mintTo",
          "type": "address"
        },
        {
          "internalType": "address",
          "name": "creator",
          "type": "address"
        },
        {
          "internalType": "string",
          "name": "uri",
          "type": "string"
        },
        {
          "components": [
            {
              "internalType": "bytes32",
              "name": "_seed",
              "type": "bytes32"
            },
            {
              "components": [
                {
                  "internalType": "uint8",
                  "name": "_typeValue",
                  "type": "uint8"
                },
                {
                  "internalType": "uint256",
                  "name": "_max",
                  "type": "uint256"
                },
                {
                  "internalType": "uint256",
                  "name": "_min",
                  "type": "uint256"
                },
                {
                  "internalType": "uint8",
                  "name": "_decimal",
                  "type": "uint8"
                },
                {
                  "internalType": "string[]",
                  "name": "_availableValues",
                  "type": "string[]"
                },
                {
                  "internalType": "uint256",
                  "name": "_value",
                  "type": "uint256"
                },
                {
                  "internalType": "bool",
                  "name": "_editable",
                  "type": "bool"
                }
              ],
              "internalType": "struct BoilerplateParam.ParamTemplate[]",
              "name": "_params",
              "type": "tuple[]"
            }
          ],
          "internalType": "struct BoilerplateParam.ParamsOfProject",
          "name": "_paramsTemplateValue",
          "type": "tuple"
        }
      ],
      "name": "mint",
      "outputs": [],
      "stateMutability": "nonpayable",
      "type": "function"
    },
    {
      "inputs": [],
      "name": "name",
      "outputs": [
        {
          "internalType": "string",
          "name": "",
          "type": "string"
        }
      ],
      "stateMutability": "view",
      "type": "function"
    },
    {
      "inputs": [],
      "name": "owner",
      "outputs": [
        {
          "internalType": "address",
          "name": "",
          "type": "address"
        }
      ],
      "stateMutability": "view",
      "type": "function"
    },
    {
      "inputs": [
        {
          "internalType": "uint256",
          "name": "tokenId",
          "type": "uint256"
        }
      ],
      "name": "ownerOf",
      "outputs": [
        {
          "internalType": "address",
          "name": "",
          "type": "address"
        }
      ],
      "stateMutability": "view",
      "type": "function"
    },
    {
      "inputs": [],
      "name": "pause",
      "outputs": [],
      "stateMutability": "nonpayable",
      "type": "function"
    },
    {
      "inputs": [],
      "name": "paused",
      "outputs": [
        {
          "internalType": "bool",
          "name": "",
          "type": "bool"
        }
      ],
      "stateMutability": "view",
      "type": "function"
    },
    {
      "inputs": [],
      "name": "renounceOwnership",
      "outputs": [],
      "stateMutability": "nonpayable",
      "type": "function"
    },
    {
      "inputs": [
        {
          "internalType": "bytes32",
          "name": "role",
          "type": "bytes32"
        },
        {
          "internalType": "address",
          "name": "account",
          "type": "address"
        }
      ],
      "name": "renounceRole",
      "outputs": [],
      "stateMutability": "nonpayable",
      "type": "function"
    },
    {
      "inputs": [
        {
          "internalType": "bytes32",
          "name": "role",
          "type": "bytes32"
        },
        {
          "internalType": "address",
          "name": "account",
          "type": "address"
        }
      ],
      "name": "revokeRole",
      "outputs": [],
      "stateMutability": "nonpayable",
      "type": "function"
    },
    {
      "inputs": [
        {
          "internalType": "uint256",
          "name": "",
          "type": "uint256"
        }
      ],
      "name": "royalties",
      "outputs": [
        {
          "internalType": "address",
          "name": "recipient",
          "type": "address"
        },
        {
          "internalType": "uint24",
          "name": "amount",
          "type": "uint24"
        },
        {
          "internalType": "bool",
          "name": "isValue",
          "type": "bool"
        }
      ],
      "stateMutability": "view",
      "type": "function"
    },
    {
      "inputs": [
        {
          "internalType": "uint256",
          "name": "_tokenId",
          "type": "uint256"
        },
        {
          "internalType": "uint256",
          "name": "_salePrice",
          "type": "uint256"
        }
      ],
      "name": "royaltyInfo",
      "outputs": [
        {
          "internalType": "address",
          "name": "receiver",
          "type": "address"
        },
        {
          "internalType": "uint256",
          "name": "royaltyAmount",
          "type": "uint256"
        }
      ],
      "stateMutability": "view",
      "type": "function"
    },
    {
      "inputs": [
        {
          "internalType": "address",
          "name": "from",
          "type": "address"
        },
        {
          "internalType": "address",
          "name": "to",
          "type": "address"
        },
        {
          "internalType": "uint256",
          "name": "tokenId",
          "type": "uint256"
        }
      ],
      "name": "safeTransferFrom",
      "outputs": [],
      "stateMutability": "nonpayable",
      "type": "function"
    },
    {
      "inputs": [
        {
          "internalType": "address",
          "name": "from",
          "type": "address"
        },
        {
          "internalType": "address",
          "name": "to",
          "type": "address"
        },
        {
          "internalType": "uint256",
          "name": "tokenId",
          "type": "uint256"
        },
        {
          "internalType": "bytes",
          "name": "data",
          "type": "bytes"
        }
      ],
      "name": "safeTransferFrom",
      "outputs": [],
      "stateMutability": "nonpayable",
      "type": "function"
    },
    {
      "inputs": [
        {
          "internalType": "address",
          "name": "operator",
          "type": "address"
        },
        {
          "internalType": "bool",
          "name": "approved",
          "type": "bool"
        }
      ],
      "name": "setApprovalForAll",
      "outputs": [],
      "stateMutability": "nonpayable",
      "type": "function"
    },
    {
      "inputs": [
        {
          "internalType": "address",
          "name": "_to",
          "type": "address"
        },
        {
          "internalType": "uint256[]",
          "name": "_ids",
          "type": "uint256[]"
        }
      ],
      "name": "setCreator",
      "outputs": [],
      "stateMutability": "nonpayable",
      "type": "function"
    },
    {
      "inputs": [
        {
          "internalType": "uint256",
          "name": "_tokenId",
          "type": "uint256"
        },
        {
          "internalType": "string",
          "name": "_newURI",
          "type": "string"
        }
      ],
      "name": "setCustomURI",
      "outputs": [],
      "stateMutability": "nonpayable",
      "type": "function"
    },
    {
      "inputs": [
        {
          "internalType": "uint256",
          "name": "_tokenId",
          "type": "uint256"
        },
        {
          "internalType": "address",
          "name": "_recipient",
          "type": "address"
        },
        {
          "internalType": "uint256",
          "name": "_value",
          "type": "uint256"
        }
      ],
      "name": "setTokenRoyalty",
      "outputs": [],
      "stateMutability": "nonpayable",
      "type": "function"
    },
    {
      "inputs": [
        {
          "internalType": "bytes4",
          "name": "interfaceId",
          "type": "bytes4"
        }
      ],
      "name": "supportsInterface",
      "outputs": [
        {
          "internalType": "bool",
          "name": "",
          "type": "bool"
        }
      ],
      "stateMutability": "view",
      "type": "function"
    },
    {
      "inputs": [],
      "name": "symbol",
      "outputs": [
        {
          "internalType": "string",
          "name": "",
          "type": "string"
        }
      ],
      "stateMutability": "view",
      "type": "function"
    },
    {
      "inputs": [
        {
          "internalType": "uint256",
          "name": "index",
          "type": "uint256"
        }
      ],
      "name": "tokenByIndex",
      "outputs": [
        {
          "internalType": "uint256",
          "name": "",
          "type": "uint256"
        }
      ],
      "stateMutability": "view",
      "type": "function"
    },
    {
      "inputs": [
        {
          "internalType": "address",
          "name": "owner",
          "type": "address"
        },
        {
          "internalType": "uint256",
          "name": "index",
          "type": "uint256"
        }
      ],
      "name": "tokenOfOwnerByIndex",
      "outputs": [
        {
          "internalType": "uint256",
          "name": "",
          "type": "uint256"
        }
      ],
      "stateMutability": "view",
      "type": "function"
    },
    {
      "inputs": [
        {
          "internalType": "uint256",
          "name": "_tokenId",
          "type": "uint256"
        }
      ],
      "name": "tokenURI",
      "outputs": [
        {
          "internalType": "string",
          "name": "",
          "type": "string"
        }
      ],
      "stateMutability": "view",
      "type": "function"
    },
    {
      "inputs": [],
      "name": "totalSupply",
      "outputs": [
        {
          "internalType": "uint256",
          "name": "",
          "type": "uint256"
        }
      ],
      "stateMutability": "view",
      "type": "function"
    },
    {
      "inputs": [
        {
          "internalType": "address",
          "name": "from",
          "type": "address"
        },
        {
          "internalType": "address",
          "name": "to",
          "type": "address"
        },
        {
          "internalType": "uint256",
          "name": "tokenId",
          "type": "uint256"
        }
      ],
      "name": "transferFrom",
      "outputs": [],
      "stateMutability": "nonpayable",
      "type": "function"
    },
    {
      "inputs": [
        {
          "internalType": "address",
          "name": "newOwner",
          "type": "address"
        }
      ],
      "name": "transferOwnership",
      "outputs": [],
      "stateMutability": "nonpayable",
      "type": "function"
    },
    {
      "inputs": [],
      "name": "unpause",
      "outputs": [],
      "stateMutability": "nonpayable",
      "type": "function"
    },
    {
      "inputs": [
        {
          "components": [
            {
              "components": [
                {
                  "internalType": "string",
                  "name": "name",
                  "type": "string"
                },
                {
                  "internalType": "string[]",
                  "name": "_availableValues",
                  "type": "string[]"
                },
                {
                  "internalType": "uint256",
                  "name": "_value",
                  "type": "uint256"
                },
                {
                  "internalType": "string",
                  "name": "_valueStr",
                  "type": "string"
                }
              ],
              "internalType": "struct TraitInfo.Trait[]",
              "name": "_traits",
              "type": "tuple[]"
            }
          ],
          "internalType": "struct TraitInfo.Traits",
          "name": "traits",
          "type": "tuple"
        }
      ],
      "name": "updateTraits",
      "outputs": [],
      "stateMutability": "nonpayable",
      "type": "function"
    }
  ],
  "bytecode": "0x60806040523480156200001157600080fd5b50604051620050cb380380620050cb833981016040819052620000349162000456565b8383838282816002908051906020019062000051929190620002e3565b50805162000067906003906020840190620002e3565b5050600c805460ff191690555080516200008990600e906020840190620002e3565b50620000976000336200012c565b620000c37f9f2df0fed2c77648de5860a4cc508cd0818c85b8b8a1ab4ceeef8d981c8956a6336200012c565b620000ef7f65d7a28e3265b37a6474929f336521b332c1681b933f6cb9f3376673440d862a336200012c565b50506001600f555062000102336200013c565b601280546001600160a01b0319166001600160a01b03929092169190911790555062000546915050565b6200013882826200018e565b5050565b601080546001600160a01b038381166001600160a01b0319831681179093556040519116919082907f8be0079c531659141344cd1fd0a4f28419497f9722a3daafe3b4186f6b6457e090600090a35050565b620001a58282620001d160201b6200235a1760201c565b6000828152600160209081526040909120620001cc918390620023de62000271821b17901c565b505050565b6000828152602081815260408083206001600160a01b038516845290915290205460ff1662000138576000828152602081815260408083206001600160a01b03851684529091529020805460ff191660011790556200022d3390565b6001600160a01b0316816001600160a01b0316837f2f8788117e7eff1d82e926ec794901d17c78024a50270940304540a733656f0d60405160405180910390a45050565b600062000288836001600160a01b03841662000291565b90505b92915050565b6000818152600183016020526040812054620002da575081546001818101845560008481526020808220909301849055845484825282860190935260409020919091556200028b565b5060006200028b565b828054620002f19062000509565b90600052602060002090601f01602090048101928262000315576000855562000360565b82601f106200033057805160ff191683800117855562000360565b8280016001018555821562000360579182015b828111156200036057825182559160200191906001019062000343565b506200036e92915062000372565b5090565b5b808211156200036e576000815560010162000373565b634e487b7160e01b600052604160045260246000fd5b600082601f830112620003b157600080fd5b81516001600160401b0380821115620003ce57620003ce62000389565b604051601f8301601f19908116603f01168101908282118183101715620003f957620003f962000389565b816040528381526020925086838588010111156200041657600080fd5b600091505b838210156200043a57858201830151818301840152908201906200041b565b838211156200044c5760008385830101525b9695505050505050565b600080600080608085870312156200046d57600080fd5b84516001600160401b03808211156200048557600080fd5b62000493888389016200039f565b95506020870151915080821115620004aa57600080fd5b620004b8888389016200039f565b94506040870151915080821115620004cf57600080fd5b50620004de878288016200039f565b606087015190935090506001600160a01b0381168114620004fe57600080fd5b939692955090935050565b600181811c908216806200051e57607f821691505b602082108114156200054057634e487b7160e01b600052602260045260246000fd5b50919050565b614b7580620005566000396000f3fe608060405234801561001057600080fd5b506004361061030c5760003560e01c80637f77f5741161019d578063ae3dd095116100e9578063d5391393116100a2578063e63ab1e91161007c578063e63ab1e91461073b578063e985e9c514610750578063f2fde38b1461078c578063f9ecc22c1461079f57600080fd5b8063d53913931461070b578063d547741f14610720578063d547cfb71461073357600080fd5b8063ae3dd0951461068b578063b88d4fde1461069e578063c0dca239146106b1578063c87b56dd146106d2578063ca15c873146106e5578063d2a6b51a146106f857600080fd5b806391d148541161015657806395d89b411161013057806395d89b41146106555780639713c8071461065d578063a217fddf14610670578063a22cb4651461067857600080fd5b806391d148541461060f57806394e5684714610622578063953cd2461461063557600080fd5b80637f77f5741461055057806381d22564146105bd5780638456cb59146105d05780638da5cb5b146105d85780638f283970146105e95780639010d07c146105fc57600080fd5b80633f4ba83a1161025c5780635c975abb1161021557806370a08231116101ef57806370a082311461050d578063715018a6146105205780637d763613146105285780637f0429ef1461053b57600080fd5b80635c975abb146104de5780636352211e146104e95780636a627842146104fc57600080fd5b80633f4ba83a1461046b57806342842e0e1461047357806342966c68146104865780634816edf4146104995780634f6ccce7146104c2578063531f7b53146104d557600080fd5b806323b872dd116102c95780632f2ff15d116102a35780632f2ff15d1461041f5780632f745c591461043257806336568abe146104455780633adf80b41461045857600080fd5b806323b872dd146103b7578063248a9ca3146103ca5780632a55205a146103ed57600080fd5b806301bc45c91461031157806301ffc9a71461034157806306fdde0314610364578063081812fc14610379578063095ea7b31461038c57806318160ddd146103a1575b600080fd5b601254610324906001600160a01b031681565b6040516001600160a01b0390911681526020015b60405180910390f35b61035461034f366004613847565b6107b2565b6040519015158152602001610338565b61036c6107c3565b60405161033891906138bc565b6103246103873660046138cf565b610855565b61039f61039a366004613904565b61087c565b005b6103a9610997565b604051908152602001610338565b61039f6103c536600461392e565b6109b3565b6103a96103d83660046138cf565b60009081526020819052604090206001015490565b6104006103fb36600461396a565b6109e5565b604080516001600160a01b039093168352602083019190915201610338565b61039f61042d36600461398c565b610aa7565b6103a9610440366004613904565b610acc565b61039f61045336600461398c565b610b62565b61039f610466366004613a9d565b610be0565b61039f610c5c565b61039f61048136600461392e565b610cf2565b61039f6104943660046138cf565b610d0d565b6103246104a73660046138cf565b6018602052600090815260409020546001600160a01b031681565b6103a96104d03660046138cf565b610d3b565b6103a960145481565b600c5460ff16610354565b6103246104f73660046138cf565b610dce565b61039f61050a366004613ad9565b50565b6103a961051b366004613ad9565b610e2e565b61039f610eb4565b61039f610536366004613af4565b610ec6565b61054361124c565b6040516103389190613bcf565b61059261055e3660046138cf565b601b602052600090815260409020546001600160a01b03811690600160a01b810462ffffff1690600160b81b900460ff1683565b604080516001600160a01b03909416845262ffffff9092166020840152151590820152606001610338565b61039f6105cb366004613c7b565b6114b5565b61039f611520565b6012546001600160a01b0316610324565b61039f6105f7366004613ad9565b6115b2565b61032461060a36600461396a565b611700565b61035461061d36600461398c565b61171f565b6105436106303660046138cf565b611748565b6103a96106433660046138cf565b60156020526000908152604090205481565b61036c611c9d565b61039f61066b366004613cb5565b611cac565b6103a9600081565b61039f610686366004613cf3565b611dbd565b61039f610699366004613d2a565b611dc8565b61039f6106ac366004613db6565b611eaf565b6106c46106bf3660046138cf565b611ee1565b604051610338929190613e31565b61036c6106e03660046138cf565b612077565b6103a96106f33660046138cf565b6121fd565b61039f610706366004613f0e565b612214565b6103a9600080516020614b2083398151915281565b61039f61072e36600461398c565b6122b5565b61036c6122da565b6103a9600080516020614b0083398151915281565b61035461075e366004613fb6565b6001600160a01b03918216600090815260076020908152604080832093909416825291909152205460ff1690565b61039f61079a366004613ad9565b6122e4565b601354610324906001600160a01b031681565b60006107bd826123f3565b92915050565b6060601980546107d290613fe0565b80601f01602080910402602001604051908101604052809291908181526020018280546107fe90613fe0565b801561084b5780601f106108205761010080835404028352916020019161084b565b820191906000526020600020905b81548152906001019060200180831161082e57829003601f168201915b5050505050905090565b600061086082612418565b506000908152600660205260409020546001600160a01b031690565b600061088782610dce565b9050806001600160a01b0316836001600160a01b031614156108fa5760405162461bcd60e51b815260206004820152602160248201527f4552433732313a20617070726f76616c20746f2063757272656e74206f776e656044820152603960f91b60648201526084015b60405180910390fd5b336001600160a01b03821614806109165750610916813361075e565b6109885760405162461bcd60e51b815260206004820152603e60248201527f4552433732313a20617070726f76652063616c6c6572206973206e6f7420746f60448201527f6b656e206f776e6572206e6f7220617070726f76656420666f7220616c6c000060648201526084016108f1565b6109928383612477565b505050565b600060016109a460115490565b6109ae919061402b565b905090565b6109be335b826124e5565b6109da5760405162461bcd60e51b81526004016108f190614042565b610992838383612564565b6000828152601b60209081526040808320815160608101835290546001600160a01b0381168252600160a01b810462ffffff1693820193909352600160b81b90920460ff1615801591830191909152829190610a69578051602082015190935061271090610a589062ffffff1686614090565b610a6291906140c5565b9150610a9f565b6000858152601860205260409020546001600160a01b03169250612710610a92856101f4614090565b610a9c91906140c5565b91505b509250929050565b600082815260208190526040902060010154610ac28161270b565b6109928383612715565b6000610ad783610e2e565b8210610b395760405162461bcd60e51b815260206004820152602b60248201527f455243373231456e756d657261626c653a206f776e657220696e646578206f7560448201526a74206f6620626f756e647360a81b60648201526084016108f1565b506001600160a01b03919091166000908152600860209081526040808320938352929052205490565b6001600160a01b0381163314610bd25760405162461bcd60e51b815260206004820152602f60248201527f416363657373436f6e74726f6c3a2063616e206f6e6c792072656e6f756e636560448201526e103937b632b9903337b91039b2b63360891b60648201526084016108f1565b610bdc8282612737565b5050565b60008281526018602052604090205482906001600160a01b03163314610c375760405162461bcd60e51b815260206004820152600c60248201526b27a7262cafa1a922a0aa27a960a11b60448201526064016108f1565b60008381526017602090815260409091208351610c5692850190613798565b50505050565b610c74600080516020614b008339815191523361171f565b610ce8576040805162461bcd60e51b81526020600482015260248101919091527f4552433732315072657365744d696e7465725061757365724175746f49643a2060448201527f6d75737420686176652070617573657220726f6c6520746f20756e706175736560648201526084016108f1565b610cf0612759565b565b61099283838360405180602001604052806000815250611eaf565b610d16336109b8565b610d325760405162461bcd60e51b81526004016108f190614042565b61050a816127ab565b6000610d46600a5490565b8210610da95760405162461bcd60e51b815260206004820152602c60248201527f455243373231456e756d657261626c653a20676c6f62616c20696e646578206f60448201526b7574206f6620626f756e647360a01b60648201526084016108f1565b600a8281548110610dbc57610dbc6140d9565b90600052602060002001549050919050565b6000818152600460205260408120546001600160a01b0316806107bd5760405162461bcd60e51b8152602060048201526018602482015277115490cdcc8c4e881a5b9d985b1a59081d1bdad95b88125160421b60448201526064016108f1565b60006001600160a01b038216610e985760405162461bcd60e51b815260206004820152602960248201527f4552433732313a2061646472657373207a65726f206973206e6f7420612076616044820152683634b21037bbb732b960b91b60648201526084016108f1565b506001600160a01b031660009081526005602052604090205490565b610ebc612852565b610cf060006128d0565b60135460408051808201909152600381526206460760eb1b6020820152906001600160a01b03163314610f0c5760405162461bcd60e51b81526004016108f191906138bc565b506013546001600160a01b031615801590610f2957506000601454115b6040518060400160405280600381526020016219181960e91b81525090610f635760405162461bcd60e51b81526004016108f191906138bc565b50803560005b610f7660208401846140ef565b90508110156110c9576000610f8e60208501856140ef565b83818110610f9e57610f9e6140d9565b9050602002810190610fb0919061413f565b610fb990614203565b90508060c0015161107e5760808101515161102a578060a00151610fe98460001c83604001518460200151612922565b146040518060400160405280600381526020016219181b60e91b815250906110245760405162461bcd60e51b81526004016108f191906138bc565b5061107e565b8060a001516110418460001c83608001515161294d565b146040518060400160405280600381526020016232303760e81b8152509061107c5760405162461bcd60e51b81526004016108f191906138bc565b505b60a081015160405161109d918591602001918252602082015260400190565b6040516020818303038152906040528051906020012092505080806110c190614299565b915050610f69565b50601354601454604051634f558e7960e01b815260048101919091526001600160a01b03909116908190634f558e7990602401602060405180830381865afa158015611119573d6000803e3d6000fd5b505050506040513d601f19601f8201168201806040525081019061113d91906142b4565b6040518060400160405280600381526020016219181960e91b815250906111775760405162461bcd60e51b81526004016108f191906138bc565b50611186601180546001019055565b600061119160115490565b8551909150156111bc57600081815260176020908152604090912086516111ba92880190613798565b505b600081815260186020908152604080832080546001600160a01b0319166001600160a01b038b161790556015909152902084906111f982826145e5565b9050506112068782612959565b7fbf83d3c95e3a6b6b6cac45594a672c1d703818ada1304cf6e235fdc0bd6e43718787878460405161123b9493929190614703565b60405180910390a150505050505050565b60606016600001805480602002602001604051908101604052809291908181526020016000905b828210156114ac57838290600052602060002090600402016040518060800160405290816000820180546112a690613fe0565b80601f01602080910402602001604051908101604052809291908181526020018280546112d290613fe0565b801561131f5780601f106112f45761010080835404028352916020019161131f565b820191906000526020600020905b81548152906001019060200180831161130257829003601f168201915b5050505050815260200160018201805480602002602001604051908101604052809291908181526020016000905b828210156113f957838290600052602060002001805461136c90613fe0565b80601f016020809104026020016040519081016040528092919081815260200182805461139890613fe0565b80156113e55780601f106113ba576101008083540402835291602001916113e5565b820191906000526020600020905b8154815290600101906020018083116113c857829003601f168201915b50505050508152602001906001019061134d565b5050505081526020016002820154815260200160038201805461141b90613fe0565b80601f016020809104026020016040519081016040528092919081815260200182805461144790613fe0565b80156114945780601f1061146957610100808354040283529160200191611494565b820191906000526020600020905b81548152906001019060200180831161147757829003601f168201915b50505050508152505081526020019060010190611273565b50505050905090565b6012546001600160a01b03163314806114d857506013546001600160a01b031633145b6040518060400160405280600381526020016231303160e81b815250906115125760405162461bcd60e51b81526004016108f191906138bc565b5080601661099282826147f2565b611538600080516020614b008339815191523361171f565b6115aa5760405162461bcd60e51b815260206004820152603e60248201527f4552433732315072657365744d696e7465725061757365724175746f49643a2060448201527f6d75737420686176652070617573657220726f6c6520746f207061757365000060648201526084016108f1565b610cf0612973565b6012546001600160a01b0316336001600160a01b0316146115e55760405162461bcd60e51b81526004016108f1906148e9565b6115f060003361171f565b61160c5760405162461bcd60e51b81526004016108f1906148e9565b60408051808201909152600381526203130360ec1b60208201526001600160a01b03821661164d5760405162461bcd60e51b81526004016108f191906138bc565b50601280546001600160a01b038381166001600160a01b031983168117909355169061167b90600090610aa7565b6012546116a090600080516020614b20833981519152906001600160a01b0316610aa7565b6012546116c590600080516020614b00833981519152906001600160a01b0316610aa7565b6116d06000826122b5565b6116e8600080516020614b20833981519152826122b5565b610bdc600080516020614b00833981519152826122b5565b600082815260016020526040812061171890836129b0565b9392505050565b6000918252602082815260408084206001600160a01b0393909316845291905290205460ff1690565b60606000601560008481526020019081526020016000206040518060400160405290816000820154815260200160018201805480602002602001604051908101604052809291908181526020016000905b828210156118e857600084815260208082206040805160e08101825260078702909201805460ff9081168452600182015484860152600282015484840152600382015416606084015260048101805483518187028101870190945280845293959194608087019491929084015b828210156118b257838290600052602060002001805461182590613fe0565b80601f016020809104026020016040519081016040528092919081815260200182805461185190613fe0565b801561189e5780601f106118735761010080835404028352916020019161189e565b820191906000526020600020905b81548152906001019060200180831161188157829003601f168201915b505050505081526020019060010190611806565b50505090825250600582015460208083019190915260069092015460ff1615156040909101529082526001929092019101611799565b5050505081525050905060006016600001805480602002602001604051908101604052809291908181526020016000905b82821015611b52578382906000526020600020906004020160405180608001604052908160008201805461194c90613fe0565b80601f016020809104026020016040519081016040528092919081815260200182805461197890613fe0565b80156119c55780601f1061199a576101008083540402835291602001916119c5565b820191906000526020600020905b8154815290600101906020018083116119a857829003601f168201915b5050505050815260200160018201805480602002602001604051908101604052809291908181526020016000905b82821015611a9f578382906000526020600020018054611a1290613fe0565b80601f0160208091040260200160405190810160405280929190818152602001828054611a3e90613fe0565b8015611a8b5780601f10611a6057610100808354040283529160200191611a8b565b820191906000526020600020905b815481529060010190602001808311611a6e57829003601f168201915b5050505050815260200190600101906119f3565b50505050815260200160028201548152602001600382018054611ac190613fe0565b80601f0160208091040260200160405190810160405280929190818152602001828054611aed90613fe0565b8015611b3a5780601f10611b0f57610100808354040283529160200191611b3a565b820191906000526020600020905b815481529060010190602001808311611b1d57829003601f168201915b50505050508152505081526020019060010190611919565b505050509050816020015151815114611b6c579392505050565b60005b8260200151518160ff161015611c9557600083602001518260ff1681518110611b9a57611b9a6140d9565b602002602001015160a0015190506000838360ff1681518110611bbf57611bbf6140d9565b602002602001015160200151511115611c5b57828260ff1681518110611be757611be76140d9565b6020026020010151602001518181518110611c0457611c046140d9565b6020026020010151838360ff1681518110611c2157611c216140d9565b60200260200101516060018190525080838360ff1681518110611c4657611c466140d9565b60200260200101516040018181525050611c82565b80838360ff1681518110611c7157611c716140d9565b602002602001015160400181815250505b5080611c8d81614915565b915050611b6f565b509392505050565b6060601a80546107d290613fe0565b6012546001600160a01b0316336001600160a01b031614611cdf5760405162461bcd60e51b81526004016108f1906148e9565b611cea60003361171f565b611d065760405162461bcd60e51b81526004016108f1906148e9565b60408051808201909152600381526232303360e81b6020820152612710821115611d435760405162461bcd60e51b81526004016108f191906138bc565b50604080516060810182526001600160a01b03938416815262ffffff928316602080830191825260018385019081526000978852601b90915292909520905181549551925194166001600160b81b031990951694909417600160a01b91909216021760ff60b81b1916600160b81b91151591909102179055565b610bdc3383836129bc565b6001600160a01b038216611dee5760405162461bcd60e51b81526004016108f190614935565b6001600160a01b038316611e145760405162461bcd60e51b81526004016108f190614935565b60145415611e4e5760405162461bcd60e51b815260206004820152600760248201526611561254d5115160ca1b60448201526064016108f1565b8451611e61906019906020880190613798565b508351611e7590601a906020870190613798565b50601380546001600160a01b0319166001600160a01b0384161790556014819055611e9f83612a8b565b611ea8836122e4565b5050505050565b611eb933836124e5565b611ed55760405162461bcd60e51b81526004016108f190614042565b610c5684848484612b77565b600081815260156020908152604080832080546001909101805483518186028101860190945280845260609492939192839190879084015b8282101561206857600084815260208082206040805160e08101825260078702909201805460ff9081168452600182015484860152600282015484840152600382015416606084015260048101805483518187028101870190945280845293959194608087019491929084015b82821015612032578382906000526020600020018054611fa590613fe0565b80601f0160208091040260200160405190810160405280929190818152602001828054611fd190613fe0565b801561201e5780601f10611ff35761010080835404028352916020019161201e565b820191906000526020600020905b81548152906001019060200180831161200157829003601f168201915b505050505081526020019060010190611f86565b50505090825250600582015460208083019190915260069092015460ff1615156040909101529082526001929092019101611f19565b50505050905091509150915091565b60008181526017602052604081208054606092919061209590613fe0565b80601f01602080910402602001604051908101604052809291908181526020018280546120c190613fe0565b801561210e5780601f106120e35761010080835404028352916020019161210e565b820191906000526020600020905b8154815290600101906020018083116120f157829003601f168201915b505050505090506000815111156121be576000838152601760205260409020805461213890613fe0565b80601f016020809104026020016040519081016040528092919081815260200182805461216490613fe0565b80156121b15780601f10612186576101008083540402835291602001916121b1565b820191906000526020600020905b81548152906001019060200180831161219457829003601f168201915b5050505050915050919050565b6121c66122da565b6121cf84612baa565b6040516020016121e0929190614956565b604051602081830303815290604052915050919050565b50919050565b60008181526001602052604081206107bd90612ca7565b60408051808201909152600381526203130360ec1b60208201526001600160a01b0383166122555760405162461bcd60e51b81526004016108f191906138bc565b5061226e600080516020614b2083398151915283612715565b60005b815181101561099257600082828151811061228e5761228e6140d9565b602002602001015190506122a28482612cb1565b50806122ad81614299565b915050612271565b6000828152602081905260409020600101546122d08161270b565b6109928383612737565b60606109ae612d37565b6122ec612852565b6001600160a01b0381166123515760405162461bcd60e51b815260206004820152602660248201527f4f776e61626c653a206e6577206f776e657220697320746865207a65726f206160448201526564647265737360d01b60648201526084016108f1565b61050a816128d0565b612364828261171f565b610bdc576000828152602081815260408083206001600160a01b03851684529091529020805460ff1916600117905561239a3390565b6001600160a01b0316816001600160a01b0316837f2f8788117e7eff1d82e926ec794901d17c78024a50270940304540a733656f0d60405160405180910390a45050565b6000611718836001600160a01b038416612d46565b60006001600160e01b0319821663780e9d6360e01b14806107bd57506107bd82612d95565b6000818152600460205260409020546001600160a01b031661050a5760405162461bcd60e51b8152602060048201526018602482015277115490cdcc8c4e881a5b9d985b1a59081d1bdad95b88125160421b60448201526064016108f1565b600081815260066020526040902080546001600160a01b0319166001600160a01b03841690811790915581906124ac82610dce565b6001600160a01b03167f8c5be1e5ebec7d5bd14f71427d1e84f3dd0314c0f7b2291e5b200ac8c7c3b92560405160405180910390a45050565b6000806124f183610dce565b9050806001600160a01b0316846001600160a01b0316148061253857506001600160a01b0380821660009081526007602090815260408083209388168352929052205460ff165b8061255c5750836001600160a01b031661255184610855565b6001600160a01b0316145b949350505050565b826001600160a01b031661257782610dce565b6001600160a01b0316146125db5760405162461bcd60e51b815260206004820152602560248201527f4552433732313a207472616e736665722066726f6d20696e636f72726563742060448201526437bbb732b960d91b60648201526084016108f1565b6001600160a01b03821661263d5760405162461bcd60e51b8152602060048201526024808201527f4552433732313a207472616e7366657220746f20746865207a65726f206164646044820152637265737360e01b60648201526084016108f1565b612648838383612dd5565b612653600082612477565b6001600160a01b038316600090815260056020526040812080546001929061267c90849061402b565b90915550506001600160a01b03821660009081526005602052604081208054600192906126aa908490614985565b909155505060008181526004602052604080822080546001600160a01b0319166001600160a01b0386811691821790925591518493918716917fddf252ad1be2c89b69c2b068fc378daa952ba7f163c4a11628f55a4df523b3ef91a4505050565b61050a8133612de0565b61271f828261235a565b600082815260016020526040902061099290826123de565b6127418282612e44565b60008281526001602052604090206109929082612ea9565b612761612ebe565b600c805460ff191690557f5db9ee0a495bf2e6ff9c91a7834c1ba4fdd244a5e8aa4e537bd38aeae4b073aa335b6040516001600160a01b03909116815260200160405180910390a1565b60006127b682610dce565b90506127c481600084612dd5565b6127cf600083612477565b6001600160a01b03811660009081526005602052604081208054600192906127f890849061402b565b909155505060008281526004602052604080822080546001600160a01b0319169055518391906001600160a01b038416907fddf252ad1be2c89b69c2b068fc378daa952ba7f163c4a11628f55a4df523b3ef908390a45050565b336128656012546001600160a01b031690565b6001600160a01b0316148061288457506013546001600160a01b031633145b610cf05760405162461bcd60e51b815260206004820181905260248201527f4f776e61626c653a2063616c6c6572206973206e6f7420746865206f776e657260448201526064016108f1565b601080546001600160a01b038381166001600160a01b0319831681179093556040519116919082907f8be0079c531659141344cd1fd0a4f28419497f9722a3daafe3b4186f6b6457e090600090a35050565b600061292e838361402b565b612939906001614985565b612943908561499d565b61255c9084614985565b6000611718828461499d565b610bdc828260405180602001604052806000815250612f07565b61297b612f3a565b600c805460ff191660011790557f62e78cea01bee320cd4e420270b5ea74000d11b0c9f74754ebdbfc544b05a25861278e3390565b60006117188383612f80565b816001600160a01b0316836001600160a01b03161415612a1e5760405162461bcd60e51b815260206004820152601960248201527f4552433732313a20617070726f766520746f2063616c6c65720000000000000060448201526064016108f1565b6001600160a01b03838116600081815260076020908152604080832094871680845294825291829020805460ff191686151590811790915591519182527f17307eab39ab6107e8899845ad3d59bd9653f200f220920489ca2b5937696c31910160405180910390a3505050565b6013546001600160a01b03163314612add5760405162461bcd60e51b815260206004820152601560248201527424a72b2fa9a2a72222a92fa4a724aa2fa0a226a4a760591b60448201526064016108f1565b6001600160a01b038116612b035760405162461bcd60e51b81526004016108f190614935565b601280546001600160a01b0319166001600160a01b038316908117909155612b2d90600090612715565b601254612b5290600080516020614b20833981519152906001600160a01b0316612715565b60125461050a90600080516020614b00833981519152906001600160a01b0316612715565b612b82848484612564565b612b8e84848484612faa565b610c565760405162461bcd60e51b81526004016108f1906149b1565b606081612bce5750506040805180820190915260018152600360fc1b602082015290565b8160005b8115612bf85780612be281614299565b9150612bf19050600a836140c5565b9150612bd2565b6000816001600160401b03811115612c1257612c126139b8565b6040519080825280601f01601f191660200182016040528015612c3c576020820181803683370190505b5090505b841561255c57612c5160018361402b565b9150612c5e600a8661499d565b612c69906030614985565b60f81b818381518110612c7e57612c7e6140d9565b60200101906001600160f81b031916908160001a905350612ca0600a866140c5565b9450612c40565b60006107bd825490565b60008181526018602052604090205481906001600160a01b03163314612d085760405162461bcd60e51b815260206004820152600c60248201526b27a7262cafa1a922a0aa27a960a11b60448201526064016108f1565b50600090815260186020526040902080546001600160a01b0319166001600160a01b0392909216919091179055565b6060600e80546107d290613fe0565b6000818152600183016020526040812054612d8d575081546001818101845560008481526020808220909301849055845484825282860190935260409020919091556107bd565b5060006107bd565b60006001600160e01b031982166380ac58cd60e01b1480612dc657506001600160e01b03198216635b5e139f60e01b145b806107bd57506107bd826130a8565b6109928383836130cd565b612dea828261171f565b610bdc57612e02816001600160a01b0316601461313f565b612e0d83602061313f565b604051602001612e1e929190614a03565b60408051601f198184030181529082905262461bcd60e51b82526108f1916004016138bc565b612e4e828261171f565b15610bdc576000828152602081815260408083206001600160a01b0385168085529252808320805460ff1916905551339285917ff6391f5c32d9c69d2a47ea670b442974b53935d1edc7fd64eb21e047a839171b9190a45050565b6000611718836001600160a01b0384166132da565b600c5460ff16610cf05760405162461bcd60e51b815260206004820152601460248201527314185d5cd8589b194e881b9bdd081c185d5cd95960621b60448201526064016108f1565b612f1183836133cd565b612f1e6000848484612faa565b6109925760405162461bcd60e51b81526004016108f1906149b1565b600c5460ff1615610cf05760405162461bcd60e51b815260206004820152601060248201526f14185d5cd8589b194e881c185d5cd95960821b60448201526064016108f1565b6000826000018281548110612f9757612f976140d9565b9060005260206000200154905092915050565b60006001600160a01b0384163b1561309d57604051630a85bd0160e11b81526001600160a01b0385169063150b7a0290612fee903390899088908890600401614a78565b6020604051808303816000875af1925050508015613029575060408051601f3d908101601f1916820190925261302691810190614ab5565b60015b613083573d808015613057576040519150601f19603f3d011682016040523d82523d6000602084013e61305c565b606091505b50805161307b5760405162461bcd60e51b81526004016108f1906149b1565b805181602001fd5b6001600160e01b031916630a85bd0160e11b14905061255c565b506001949350505050565b60006001600160e01b03198216635a05180f60e01b14806107bd57506107bd8261351b565b6130d8838383613550565b600c5460ff16156109925760405162461bcd60e51b815260206004820152602b60248201527f4552433732315061757361626c653a20746f6b656e207472616e73666572207760448201526a1a1a5b19481c185d5cd95960aa1b60648201526084016108f1565b6060600061314e836002614090565b613159906002614985565b6001600160401b03811115613170576131706139b8565b6040519080825280601f01601f19166020018201604052801561319a576020820181803683370190505b509050600360fc1b816000815181106131b5576131b56140d9565b60200101906001600160f81b031916908160001a905350600f60fb1b816001815181106131e4576131e46140d9565b60200101906001600160f81b031916908160001a9053506000613208846002614090565b613213906001614985565b90505b600181111561328b576f181899199a1a9b1b9c1cb0b131b232b360811b85600f1660108110613247576132476140d9565b1a60f81b82828151811061325d5761325d6140d9565b60200101906001600160f81b031916908160001a90535060049490941c9361328481614ad2565b9050613216565b5083156117185760405162461bcd60e51b815260206004820181905260248201527f537472696e67733a20686578206c656e67746820696e73756666696369656e7460448201526064016108f1565b600081815260018301602052604081205480156133c35760006132fe60018361402b565b85549091506000906133129060019061402b565b9050818114613377576000866000018281548110613332576133326140d9565b9060005260206000200154905080876000018481548110613355576133556140d9565b6000918252602080832090910192909255918252600188019052604090208390555b855486908061338857613388614ae9565b6001900381819060005260206000200160009055905585600101600086815260200190815260200160002060009055600193505050506107bd565b60009150506107bd565b6001600160a01b0382166134235760405162461bcd60e51b815260206004820181905260248201527f4552433732313a206d696e7420746f20746865207a65726f206164647265737360448201526064016108f1565b6000818152600460205260409020546001600160a01b0316156134885760405162461bcd60e51b815260206004820152601c60248201527f4552433732313a20746f6b656e20616c7265616479206d696e7465640000000060448201526064016108f1565b61349460008383612dd5565b6001600160a01b03821660009081526005602052604081208054600192906134bd908490614985565b909155505060008181526004602052604080822080546001600160a01b0319166001600160a01b03861690811790915590518392907fddf252ad1be2c89b69c2b068fc378daa952ba7f163c4a11628f55a4df523b3ef908290a45050565b60006001600160e01b03198216637965db0b60e01b14806107bd57506301ffc9a760e01b6001600160e01b03198316146107bd565b6001600160a01b0383166135ab576135a681600a80546000838152600b60205260408120829055600182018355919091527fc65a7bb8d6351c1cf70c95a316cc6a92839c986682d98bc35f958f4883f9d2a80155565b6135ce565b816001600160a01b0316836001600160a01b0316146135ce576135ce8382613608565b6001600160a01b0382166135e557610992816136a5565b826001600160a01b0316826001600160a01b031614610992576109928282613754565b6000600161361584610e2e565b61361f919061402b565b600083815260096020526040902054909150808214613672576001600160a01b03841660009081526008602090815260408083208584528252808320548484528184208190558352600990915290208190555b5060009182526009602090815260408084208490556001600160a01b039094168352600881528383209183525290812055565b600a546000906136b79060019061402b565b6000838152600b6020526040812054600a80549394509092849081106136df576136df6140d9565b9060005260206000200154905080600a8381548110613700576137006140d9565b6000918252602080832090910192909255828152600b9091526040808220849055858252812055600a80548061373857613738614ae9565b6001900381819060005260206000200160009055905550505050565b600061375f83610e2e565b6001600160a01b039093166000908152600860209081526040808320868452825280832085905593825260099052919091209190915550565b8280546137a490613fe0565b90600052602060002090601f0160209004810192826137c6576000855561380c565b82601f106137df57805160ff191683800117855561380c565b8280016001018555821561380c579182015b8281111561380c5782518255916020019190600101906137f1565b5061381892915061381c565b5090565b5b80821115613818576000815560010161381d565b6001600160e01b03198116811461050a57600080fd5b60006020828403121561385957600080fd5b813561171881613831565b60005b8381101561387f578181015183820152602001613867565b83811115610c565750506000910152565b600081518084526138a8816020860160208601613864565b601f01601f19169290920160200192915050565b6020815260006117186020830184613890565b6000602082840312156138e157600080fd5b5035919050565b80356001600160a01b03811681146138ff57600080fd5b919050565b6000806040838503121561391757600080fd5b613920836138e8565b946020939093013593505050565b60008060006060848603121561394357600080fd5b61394c846138e8565b925061395a602085016138e8565b9150604084013590509250925092565b6000806040838503121561397d57600080fd5b50508035926020909101359150565b6000806040838503121561399f57600080fd5b823591506139af602084016138e8565b90509250929050565b634e487b7160e01b600052604160045260246000fd5b60405160e081016001600160401b03811182821017156139f0576139f06139b8565b60405290565b604051601f8201601f191681016001600160401b0381118282101715613a1e57613a1e6139b8565b604052919050565b60006001600160401b03831115613a3f57613a3f6139b8565b613a52601f8401601f19166020016139f6565b9050828152838383011115613a6657600080fd5b828260208301376000602084830101529392505050565b600082601f830112613a8e57600080fd5b61171883833560208501613a26565b60008060408385031215613ab057600080fd5b8235915060208301356001600160401b03811115613acd57600080fd5b610a9c85828601613a7d565b600060208284031215613aeb57600080fd5b611718826138e8565b60008060008060808587031215613b0a57600080fd5b613b13856138e8565b9350613b21602086016138e8565b925060408501356001600160401b0380821115613b3d57600080fd5b613b4988838901613a7d565b93506060870135915080821115613b5f57600080fd5b50850160408188031215613b7257600080fd5b939692955090935050565b6000815180845260208085019450848260051b860182860160005b85811015613bc2578383038952613bb0838351613890565b98850198925090840190600101613b98565b5090979650505050505050565b60006020808301818452808551808352604092508286019150828160051b87010184880160005b83811015613c6d57603f19898403018552815160808151818652613c1c82870182613890565b915050888201518582038a870152613c348282613b7d565b915050878201518886015260608083015192508582038187015250613c598183613890565b968901969450505090860190600101613bf6565b509098975050505050505050565b600060208284031215613c8d57600080fd5b81356001600160401b03811115613ca357600080fd5b82016020818503121561171857600080fd5b600080600060608486031215613cca57600080fd5b8335925061395a602085016138e8565b801515811461050a57600080fd5b80356138ff81613cda565b60008060408385031215613d0657600080fd5b613d0f836138e8565b91506020830135613d1f81613cda565b809150509250929050565b600080600080600060a08688031215613d4257600080fd5b85356001600160401b0380821115613d5957600080fd5b613d6589838a01613a7d565b96506020880135915080821115613d7b57600080fd5b50613d8888828901613a7d565b945050613d97604087016138e8565b9250613da5606087016138e8565b949793965091946080013592915050565b60008060008060808587031215613dcc57600080fd5b613dd5856138e8565b9350613de3602086016138e8565b92506040850135915060608501356001600160401b03811115613e0557600080fd5b8501601f81018713613e1657600080fd5b613e2587823560208401613a26565b91505092959194509250565b6000604080830185845260208281860152818651808452606093508387019150838160051b88010183890160005b83811015613edb57605f198a8403018552815160e060ff80835116865288830151898701528a8301518b870152808a840151168a870152506080808301518282880152613eae83880182613b7d565b60a0858101519089015260c094850151151594909701939093525050509385019390850190600101613e5f565b50909a9950505050505050505050565b60006001600160401b03821115613f0457613f046139b8565b5060051b60200190565b60008060408385031215613f2157600080fd5b613f2a836138e8565b91506020808401356001600160401b03811115613f4657600080fd5b8401601f81018613613f5757600080fd5b8035613f6a613f6582613eeb565b6139f6565b81815260059190911b82018301908381019088831115613f8957600080fd5b928401925b82841015613fa757833582529284019290840190613f8e565b80955050505050509250929050565b60008060408385031215613fc957600080fd5b613fd2836138e8565b91506139af602084016138e8565b600181811c90821680613ff457607f821691505b602082108114156121f757634e487b7160e01b600052602260045260246000fd5b634e487b7160e01b600052601160045260246000fd5b60008282101561403d5761403d614015565b500390565b6020808252602e908201527f4552433732313a2063616c6c6572206973206e6f7420746f6b656e206f776e6560408201526d1c881b9bdc88185c1c1c9bdd995960921b606082015260800190565b60008160001904831182151516156140aa576140aa614015565b500290565b634e487b7160e01b600052601260045260246000fd5b6000826140d4576140d46140af565b500490565b634e487b7160e01b600052603260045260246000fd5b6000808335601e1984360301811261410657600080fd5b8301803591506001600160401b0382111561412057600080fd5b6020019150600581901b360382131561413857600080fd5b9250929050565b6000823560de1983360301811261415557600080fd5b9190910192915050565b60ff8116811461050a57600080fd5b80356138ff8161415f565b600082601f83011261418a57600080fd5b8135602061419a613f6583613eeb565b82815260059290921b840181019181810190868411156141b957600080fd5b8286015b848110156141f85780356001600160401b038111156141dc5760008081fd5b6141ea8986838b0101613a7d565b8452509183019183016141bd565b509695505050505050565b600060e0823603121561421557600080fd5b61421d6139ce565b6142268361416e565b815260208301356020820152604083013560408201526142486060840161416e565b606082015260808301356001600160401b0381111561426657600080fd5b61427236828601614179565b60808301525060a083013560a082015261428e60c08401613ce8565b60c082015292915050565b60006000198214156142ad576142ad614015565b5060010190565b6000602082840312156142c657600080fd5b815161171881613cda565b5b81811015610bdc57600081556001016142d2565b6142f08154613fe0565b8015610bdc57601f81116001811461430a57505060009055565b826000526020600020614328601f840160051c8201600183016142d1565b506020600090812081855555505050565b8054600082558015610bdc578160005260206000208181015b80821015610c5657614363826142e6565b600182019150614352565b600160401b821115614382576143826139b8565b805482825580831015610992576000828152602090208381019082015b80821015611ea8576143b0826142e6565b60018201915061439f565b6000808335601e198436030181126143d257600080fd5b8301803591506001600160401b038211156143ec57600080fd5b60200191503681900382131561413857600080fd5b601f82111561099257806000526020600020601f840160051c810160208510156144285750805b611ea8601f850160051c8301826142d1565b6001600160401b03831115614451576144516139b8565b6144658361445f8354613fe0565b83614401565b6000601f84116001811461449957600085156144815750838201355b600019600387901b1c1916600186901b178355611ea8565b600083815260209020601f19861690835b828110156144ca57868501358255602094850194600190920191016144aa565b50868210156144e75760001960f88860031b161c19848701351681555b505060018560011b0183555050505050565b600081356107bd81613cda565b81356145118161415f565b815460ff191660ff8216178255506001602080840135828401556040840135600284015560608401356145438161415f565b60038401805460ff191660ff8316179055506004830161456660808601866140ef565b614570818461436e565b818360005284600020935060005b828110156145ac5761459082856143bb565b61459b81838961443a565b50509386019390850190860161457e565b5050505050505060a08201356005820155610bdc6145cc60c084016144f9565b6006830160ff1981541660ff8315151681178255505050565b81358155600180820160206145fc818601866140ef565b600160401b811115614610576146106139b8565b8354818555808210156146bd577f249249249249249249249249249249249249249249249249249249249249249280821187161561465057614650614015565b600781841188161561466457614664614015565b6000878152868120909250848202810190828502015b808210156146b857838255838a8301558360028301558360038301556146a260048301614339565b836005830155836006830155828201915061467a565b505050505b506000938452602084209382905b828110156146f8576146e66146e0838661413f565b87614506565b600795909501949084019086016146cb565b505050505050505050565b6001600160a01b0385811682528416602082015260806040820181905260009061472f90830185613890565b905082606083015295945050505050565b60008235607e1983360301811261415557600080fd5b61476082836143bb565b61476b81838561443a565b505060018082016020614780818601866140ef565b61478a818561436e565b818460005283600020945060005b828110156147c6576147aa82856143bb565b6147b581838a61443a565b505094860194908401908601614798565b50505050505050604082013560028201556147e460608301836143bb565b610c5681836003860161443a565b6147fc82836140ef565b600160401b811115614810576148106139b8565b8254818455808210156148a2576001600160fe1b03600181831181161561483957614839614015565b600282851182161561484d5761484d614015565b60008781526020812090935085821b81019085831b015b8082101561489c57614875826142e6565b614880848301614339565b8483830155614891600383016142e6565b600482019150614864565b50505050505b5060008381526020812083915b838110156148e0576148ca6148c48487614740565b83614756565b60209290920191600491909101906001016148af565b50505050505050565b60208082526012908201527113d3931657d05113525397d0531313d5d15160721b604082015260600190565b600060ff821660ff81141561492c5761492c614015565b60010192915050565b60208082526007908201526612539597d0511160ca1b604082015260600190565b60008351614968818460208801613864565b83519083019061497c818360208801613864565b01949350505050565b6000821982111561499857614998614015565b500190565b6000826149ac576149ac6140af565b500690565b60208082526032908201527f4552433732313a207472616e7366657220746f206e6f6e20455243373231526560408201527131b2b4bb32b91034b6b83632b6b2b73a32b960711b606082015260800190565b7f416363657373436f6e74726f6c3a206163636f756e7420000000000000000000815260008351614a3b816017850160208801613864565b7001034b99036b4b9b9b4b733903937b6329607d1b6017918401918201528351614a6c816028840160208801613864565b01602801949350505050565b6001600160a01b0385811682528416602082015260408101839052608060608201819052600090614aab90830184613890565b9695505050505050565b600060208284031215614ac757600080fd5b815161171881613831565b600081614ae157614ae1614015565b506000190190565b634e487b7160e01b600052603160045260246000fdfe65d7a28e3265b37a6474929f336521b332c1681b933f6cb9f3376673440d862a9f2df0fed2c77648de5860a4cc508cd0818c85b8b8a1ab4ceeef8d981c8956a6a264697066735822122027fa1601e62f5a9346a4c3602727640ebebc7f6fbee010b404d4dd7c6801c98964736f6c634300080c0033",
  "linkReferences": {},
  "deployedLinkReferences": {}
}