{
  "_format": "hh-sol-artifact-1",
  "contractName": "GenerativeNFT",
  "sourceName": "contracts/nft/GenerativeNFT.sol",
  "abi": [
    {
      "inputs": [
        {
          "internalType": "string",
          "name": "name",
          "type": "string"
        },
        {
          "internalType": "string",
          "name": "symbol",
          "type": "string"
        },
        {
          "internalType": "address",
          "name": "admin",
          "type": "address"
        }
      ],
      "stateMutability": "nonpayable",
      "type": "constructor"
    },
    {
      "anonymous": false,
      "inputs": [
        {
          "indexed": true,
          "internalType": "address",
          "name": "owner",
          "type": "address"
        },
        {
          "indexed": true,
          "internalType": "address",
          "name": "approved",
          "type": "address"
        },
        {
          "indexed": true,
          "internalType": "uint256",
          "name": "tokenId",
          "type": "uint256"
        }
      ],
      "name": "Approval",
      "type": "event"
    },
    {
      "anonymous": false,
      "inputs": [
        {
          "indexed": true,
          "internalType": "address",
          "name": "owner",
          "type": "address"
        },
        {
          "indexed": true,
          "internalType": "address",
          "name": "operator",
          "type": "address"
        },
        {
          "indexed": false,
          "internalType": "bool",
          "name": "approved",
          "type": "bool"
        }
      ],
      "name": "ApprovalForAll",
      "type": "event"
    },
    {
      "anonymous": false,
      "inputs": [
        {
          "indexed": true,
          "internalType": "address",
          "name": "previousOwner",
          "type": "address"
        },
        {
          "indexed": true,
          "internalType": "address",
          "name": "newOwner",
          "type": "address"
        }
      ],
      "name": "OwnershipTransferred",
      "type": "event"
    },
    {
      "anonymous": false,
      "inputs": [
        {
          "indexed": false,
          "internalType": "address",
          "name": "account",
          "type": "address"
        }
      ],
      "name": "Paused",
      "type": "event"
    },
    {
      "anonymous": false,
      "inputs": [
        {
          "indexed": true,
          "internalType": "address",
          "name": "from",
          "type": "address"
        },
        {
          "indexed": true,
          "internalType": "address",
          "name": "to",
          "type": "address"
        },
        {
          "indexed": true,
          "internalType": "uint256",
          "name": "tokenId",
          "type": "uint256"
        }
      ],
      "name": "Transfer",
      "type": "event"
    },
    {
      "anonymous": false,
      "inputs": [
        {
          "indexed": false,
          "internalType": "address",
          "name": "account",
          "type": "address"
        }
      ],
      "name": "Unpaused",
      "type": "event"
    },
    {
      "inputs": [],
      "name": "_admin",
      "outputs": [
        {
          "internalType": "address",
          "name": "",
          "type": "address"
        }
      ],
      "stateMutability": "view",
      "type": "function"
    },
    {
      "inputs": [],
      "name": "_boilerplateAddr",
      "outputs": [
        {
          "internalType": "address",
          "name": "",
          "type": "address"
        }
      ],
      "stateMutability": "view",
      "type": "function"
    },
    {
      "inputs": [],
      "name": "_boilerplateId",
      "outputs": [
        {
          "internalType": "uint256",
          "name": "",
          "type": "uint256"
        }
      ],
      "stateMutability": "view",
      "type": "function"
    },
    {
      "inputs": [],
      "name": "_limit",
      "outputs": [
        {
          "internalType": "uint256",
          "name": "",
          "type": "uint256"
        }
      ],
      "stateMutability": "view",
      "type": "function"
    },
    {
      "inputs": [],
      "name": "_max",
      "outputs": [
        {
          "internalType": "uint256",
          "name": "",
          "type": "uint256"
        }
      ],
      "stateMutability": "view",
      "type": "function"
    },
    {
      "inputs": [
        {
          "internalType": "uint256",
          "name": "",
          "type": "uint256"
        }
      ],
      "name": "_paramsValues",
      "outputs": [
        {
          "internalType": "bytes32",
          "name": "_seed",
          "type": "bytes32"
        }
      ],
      "stateMutability": "view",
      "type": "function"
    },
    {
      "inputs": [
        {
          "internalType": "address",
          "name": "to",
          "type": "address"
        },
        {
          "internalType": "uint256",
          "name": "tokenId",
          "type": "uint256"
        }
      ],
      "name": "approve",
      "outputs": [],
      "stateMutability": "nonpayable",
      "type": "function"
    },
    {
      "inputs": [
        {
          "internalType": "address",
          "name": "owner",
          "type": "address"
        }
      ],
      "name": "balanceOf",
      "outputs": [
        {
          "internalType": "uint256",
          "name": "",
          "type": "uint256"
        }
      ],
      "stateMutability": "view",
      "type": "function"
    },
    {
      "inputs": [
        {
          "internalType": "address",
          "name": "_newAdmin",
          "type": "address"
        }
      ],
      "name": "changeAdmin",
      "outputs": [],
      "stateMutability": "nonpayable",
      "type": "function"
    },
    {
      "inputs": [
        {
          "internalType": "string",
          "name": "baseURI",
          "type": "string"
        }
      ],
      "name": "changeBaseURI",
      "outputs": [],
      "stateMutability": "nonpayable",
      "type": "function"
    },
    {
      "inputs": [
        {
          "internalType": "address",
          "name": "newBoilerplate",
          "type": "address"
        },
        {
          "internalType": "uint256",
          "name": "newBoilerplateId",
          "type": "uint256"
        }
      ],
      "name": "changeBoilerplate",
      "outputs": [],
      "stateMutability": "nonpayable",
      "type": "function"
    },
    {
      "inputs": [
        {
          "internalType": "uint256",
          "name": "tokenId",
          "type": "uint256"
        }
      ],
      "name": "getApproved",
      "outputs": [
        {
          "internalType": "address",
          "name": "",
          "type": "address"
        }
      ],
      "stateMutability": "view",
      "type": "function"
    },
    {
      "inputs": [
        {
          "internalType": "uint256",
          "name": "tokenId",
          "type": "uint256"
        }
      ],
      "name": "getParamValues",
      "outputs": [
        {
          "internalType": "bytes32",
          "name": "",
          "type": "bytes32"
        },
        {
          "components": [
            {
              "internalType": "uint8",
              "name": "_typeValue",
              "type": "uint8"
            },
            {
              "internalType": "uint256",
              "name": "_max",
              "type": "uint256"
            },
            {
              "internalType": "uint256",
              "name": "_min",
              "type": "uint256"
            },
            {
              "internalType": "uint8",
              "name": "_decimal",
              "type": "uint8"
            },
            {
              "internalType": "string[]",
              "name": "_availableValues",
              "type": "string[]"
            },
            {
              "internalType": "uint256",
              "name": "_value",
              "type": "uint256"
            },
            {
              "internalType": "bool",
              "name": "_editable",
              "type": "bool"
            }
          ],
          "internalType": "struct BoilerplateParam.ParamTemplate[]",
          "name": "",
          "type": "tuple[]"
        }
      ],
      "stateMutability": "view",
      "type": "function"
    },
    {
      "inputs": [
        {
          "internalType": "uint256",
          "name": "tokenId",
          "type": "uint256"
        }
      ],
      "name": "getTokenTraits",
      "outputs": [
        {
          "components": [
            {
              "internalType": "string",
              "name": "name",
              "type": "string"
            },
            {
              "internalType": "string[]",
              "name": "_availableValues",
              "type": "string[]"
            },
            {
              "internalType": "uint256",
              "name": "_value",
              "type": "uint256"
            },
            {
              "internalType": "string",
              "name": "_valueStr",
              "type": "string"
            }
          ],
          "internalType": "struct TraitInfo.Trait[]",
          "name": "",
          "type": "tuple[]"
        }
      ],
      "stateMutability": "view",
      "type": "function"
    },
    {
      "inputs": [],
      "name": "getTraits",
      "outputs": [
        {
          "components": [
            {
              "internalType": "string",
              "name": "name",
              "type": "string"
            },
            {
              "internalType": "string[]",
              "name": "_availableValues",
              "type": "string[]"
            },
            {
              "internalType": "uint256",
              "name": "_value",
              "type": "uint256"
            },
            {
              "internalType": "string",
              "name": "_valueStr",
              "type": "string"
            }
          ],
          "internalType": "struct TraitInfo.Trait[]",
          "name": "",
          "type": "tuple[]"
        }
      ],
      "stateMutability": "view",
      "type": "function"
    },
    {
      "inputs": [
        {
          "components": [
            {
              "internalType": "string",
              "name": "_name",
              "type": "string"
            },
            {
              "internalType": "string",
              "name": "_symbol",
              "type": "string"
            },
            {
              "internalType": "string",
              "name": "_uri",
              "type": "string"
            },
            {
              "internalType": "address",
              "name": "_admin",
              "type": "address"
            },
            {
              "internalType": "uint256",
              "name": "_max",
              "type": "uint256"
            },
            {
              "internalType": "uint256",
              "name": "_limit",
              "type": "uint256"
            },
            {
              "internalType": "uint256",
              "name": "_projectId",
              "type": "uint256"
            }
          ],
          "internalType": "struct BoilerplateParam.InitMinterNFTInfo",
          "name": "p",
          "type": "tuple"
        }
      ],
      "name": "init",
      "outputs": [],
      "stateMutability": "nonpayable",
      "type": "function"
    },
    {
      "inputs": [
        {
          "internalType": "address",
          "name": "owner",
          "type": "address"
        },
        {
          "internalType": "address",
          "name": "operator",
          "type": "address"
        }
      ],
      "name": "isApprovedForAll",
      "outputs": [
        {
          "internalType": "bool",
          "name": "",
          "type": "bool"
        }
      ],
      "stateMutability": "view",
      "type": "function"
    },
    {
      "inputs": [
        {
          "internalType": "address",
          "name": "mintTo",
          "type": "address"
        },
        {
          "components": [
            {
              "internalType": "bytes32",
              "name": "_seed",
              "type": "bytes32"
            },
            {
              "internalType": "uint256[]",
              "name": "_value",
              "type": "uint256[]"
            }
          ],
          "internalType": "struct BoilerplateParam.ParamsOfNFT",
          "name": "_paramsTemplateValue",
          "type": "tuple"
        }
      ],
      "name": "mint",
      "outputs": [],
      "stateMutability": "nonpayable",
      "type": "function"
    },
    {
      "inputs": [],
      "name": "n",
      "outputs": [
        {
          "internalType": "uint256",
          "name": "",
          "type": "uint256"
        }
      ],
      "stateMutability": "view",
      "type": "function"
    },
    {
      "inputs": [],
      "name": "name",
      "outputs": [
        {
          "internalType": "string",
          "name": "",
          "type": "string"
        }
      ],
      "stateMutability": "view",
      "type": "function"
    },
    {
      "inputs": [],
      "name": "owner",
      "outputs": [
        {
          "internalType": "address",
          "name": "",
          "type": "address"
        }
      ],
      "stateMutability": "view",
      "type": "function"
    },
    {
      "inputs": [
        {
          "internalType": "address",
          "name": "mintTo",
          "type": "address"
        },
        {
          "internalType": "uint256",
          "name": "tokenId",
          "type": "uint256"
        },
        {
          "components": [
            {
              "internalType": "bytes32",
              "name": "_seed",
              "type": "bytes32"
            },
            {
              "internalType": "uint256[]",
              "name": "_value",
              "type": "uint256[]"
            }
          ],
          "internalType": "struct BoilerplateParam.ParamsOfNFT",
          "name": "_paramsTemplateValue",
          "type": "tuple"
        }
      ],
      "name": "ownerMint",
      "outputs": [],
      "stateMutability": "nonpayable",
      "type": "function"
    },
    {
      "inputs": [
        {
          "internalType": "uint256",
          "name": "tokenId",
          "type": "uint256"
        }
      ],
      "name": "ownerOf",
      "outputs": [
        {
          "internalType": "address",
          "name": "",
          "type": "address"
        }
      ],
      "stateMutability": "view",
      "type": "function"
    },
    {
      "inputs": [],
      "name": "pause",
      "outputs": [],
      "stateMutability": "nonpayable",
      "type": "function"
    },
    {
      "inputs": [],
      "name": "paused",
      "outputs": [
        {
          "internalType": "bool",
          "name": "",
          "type": "bool"
        }
      ],
      "stateMutability": "view",
      "type": "function"
    },
    {
      "inputs": [],
      "name": "renounceOwnership",
      "outputs": [],
      "stateMutability": "nonpayable",
      "type": "function"
    },
    {
      "inputs": [
        {
          "internalType": "uint256",
          "name": "_tokenId",
          "type": "uint256"
        },
        {
          "internalType": "uint256",
          "name": "_salePrice",
          "type": "uint256"
        }
      ],
      "name": "royaltyInfo",
      "outputs": [
        {
          "internalType": "address",
          "name": "receiver",
          "type": "address"
        },
        {
          "internalType": "uint256",
          "name": "royaltyAmount",
          "type": "uint256"
        }
      ],
      "stateMutability": "view",
      "type": "function"
    },
    {
      "inputs": [
        {
          "internalType": "address",
          "name": "from",
          "type": "address"
        },
        {
          "internalType": "address",
          "name": "to",
          "type": "address"
        },
        {
          "internalType": "uint256",
          "name": "tokenId",
          "type": "uint256"
        }
      ],
      "name": "safeTransferFrom",
      "outputs": [],
      "stateMutability": "nonpayable",
      "type": "function"
    },
    {
      "inputs": [
        {
          "internalType": "address",
          "name": "from",
          "type": "address"
        },
        {
          "internalType": "address",
          "name": "to",
          "type": "address"
        },
        {
          "internalType": "uint256",
          "name": "tokenId",
          "type": "uint256"
        },
        {
          "internalType": "bytes",
          "name": "data",
          "type": "bytes"
        }
      ],
      "name": "safeTransferFrom",
      "outputs": [],
      "stateMutability": "nonpayable",
      "type": "function"
    },
    {
      "inputs": [
        {
          "internalType": "address",
          "name": "operator",
          "type": "address"
        },
        {
          "internalType": "bool",
          "name": "approved",
          "type": "bool"
        }
      ],
      "name": "setApprovalForAll",
      "outputs": [],
      "stateMutability": "nonpayable",
      "type": "function"
    },
    {
      "inputs": [
        {
          "internalType": "bytes4",
          "name": "interfaceId",
          "type": "bytes4"
        }
      ],
      "name": "supportsInterface",
      "outputs": [
        {
          "internalType": "bool",
          "name": "",
          "type": "bool"
        }
      ],
      "stateMutability": "view",
      "type": "function"
    },
    {
      "inputs": [],
      "name": "symbol",
      "outputs": [
        {
          "internalType": "string",
          "name": "",
          "type": "string"
        }
      ],
      "stateMutability": "view",
      "type": "function"
    },
    {
      "inputs": [
        {
          "internalType": "uint256",
          "name": "_tokenId",
          "type": "uint256"
        }
      ],
      "name": "tokenURI",
      "outputs": [
        {
          "internalType": "string",
          "name": "",
          "type": "string"
        }
      ],
      "stateMutability": "view",
      "type": "function"
    },
    {
      "inputs": [
        {
          "internalType": "address",
          "name": "from",
          "type": "address"
        },
        {
          "internalType": "address",
          "name": "to",
          "type": "address"
        },
        {
          "internalType": "uint256",
          "name": "tokenId",
          "type": "uint256"
        }
      ],
      "name": "transferFrom",
      "outputs": [],
      "stateMutability": "nonpayable",
      "type": "function"
    },
    {
      "inputs": [
        {
          "internalType": "address",
          "name": "newOwner",
          "type": "address"
        }
      ],
      "name": "transferOwnership",
      "outputs": [],
      "stateMutability": "nonpayable",
      "type": "function"
    },
    {
      "inputs": [],
      "name": "unpause",
      "outputs": [],
      "stateMutability": "nonpayable",
      "type": "function"
    },
    {
      "inputs": [
        {
          "components": [
            {
              "components": [
                {
                  "internalType": "string",
                  "name": "name",
                  "type": "string"
                },
                {
                  "internalType": "string[]",
                  "name": "_availableValues",
                  "type": "string[]"
                },
                {
                  "internalType": "uint256",
                  "name": "_value",
                  "type": "uint256"
                },
                {
                  "internalType": "string",
                  "name": "_valueStr",
                  "type": "string"
                }
              ],
              "internalType": "struct TraitInfo.Trait[]",
              "name": "_traits",
              "type": "tuple[]"
            }
          ],
          "internalType": "struct TraitInfo.Traits",
          "name": "traits",
          "type": "tuple"
        }
      ],
      "name": "updateTraits",
      "outputs": [],
      "stateMutability": "nonpayable",
      "type": "function"
    }
  ],
  "bytecode": "0x60806040523480156200001157600080fd5b50604051620039e4380380620039e483398101604081905262000034916200026e565b8251839083906200004d906000906020850190620000fb565b50805162000063906001906020840190620000fb565b50506006805460ff191690555060016007556200008033620000a9565b600980546001600160a01b0319166001600160a01b039290921691909117905550620003389050565b600880546001600160a01b038381166001600160a01b0319831681179093556040519116919082907f8be0079c531659141344cd1fd0a4f28419497f9722a3daafe3b4186f6b6457e090600090a35050565b8280546200010990620002fb565b90600052602060002090601f0160209004810192826200012d576000855562000178565b82601f106200014857805160ff191683800117855562000178565b8280016001018555821562000178579182015b82811115620001785782518255916020019190600101906200015b565b50620001869291506200018a565b5090565b5b808211156200018657600081556001016200018b565b634e487b7160e01b600052604160045260246000fd5b600082601f830112620001c957600080fd5b81516001600160401b0380821115620001e657620001e6620001a1565b604051601f8301601f19908116603f01168101908282118183101715620002115762000211620001a1565b816040528381526020925086838588010111156200022e57600080fd5b600091505b8382101562000252578582018301518183018401529082019062000233565b83821115620002645760008385830101525b9695505050505050565b6000806000606084860312156200028457600080fd5b83516001600160401b03808211156200029c57600080fd5b620002aa87838801620001b7565b94506020860151915080821115620002c157600080fd5b50620002d086828701620001b7565b604086015190935090506001600160a01b0381168114620002f057600080fd5b809150509250925092565b600181811c908216806200031057607f821691505b602082108114156200033257634e487b7160e01b600052602260045260246000fd5b50919050565b61369c80620003486000396000f3fe608060405234801561001057600080fd5b50600436106102275760003560e01c80636352211e11610130578063953cd246116100b8578063c87b56dd1161007c578063c87b56dd146104b3578063df2fb92c146104c6578063e985e9c5146104cf578063f2fde38b1461050b578063f9ecc22c1461051e57600080fd5b8063953cd2461461044457806395d89b4114610464578063a22cb4651461046c578063b88d4fde1461047f578063c0dca2391461049257600080fd5b806381d22564116100ff57806381d22564146103f25780638456cb59146104055780638da5cb5b1461040d5780638f2839701461041e57806394e568471461043157600080fd5b80636352211e146103af57806370a08231146103c2578063715018a6146103d55780637f0429ef146103dd57600080fd5b80632bbcd3ce116101b35780633f4ba83a116101825780633f4ba83a1461036d57806342842e0e14610375578063456c950414610388578063531f7b531461039b5780635c975abb146103a457600080fd5b80632bbcd3ce1461032b5780632e52d6061461033e57806339a0c6f9146103475780633de955561461035a57600080fd5b8063095ea7b3116101fa578063095ea7b3146102a757806314506524146102bc578063214863cb146102d357806323b872dd146102e65780632a55205a146102f957600080fd5b806301bc45c91461022c57806301ffc9a71461025c57806306fdde031461027f578063081812fc14610294575b600080fd5b60095461023f906001600160a01b031681565b6040516001600160a01b0390911681526020015b60405180910390f35b61026f61026a36600461256f565b610531565b6040519015158152602001610253565b610287610583565b60405161025391906125e4565b61023f6102a23660046125f7565b610615565b6102ba6102b536600461262c565b61063c565b005b6102c560125481565b604051908152602001610253565b6102ba6102e13660046127b4565b610757565b6102ba6102f4366004612801565b610892565b61030c61030736600461283d565b6108c3565b604080516001600160a01b039093168352602083019190915201610253565b6102ba6103393660046128df565b6108f3565b6102c560115481565b6102ba6103553660046129c5565b610a0c565b6102ba6103683660046129f9565b610a52565b6102ba610b7a565b6102ba610383366004612801565b610bcb565b6102ba61039636600461262c565b610be6565b6102c5600b5481565b60065460ff1661026f565b61023f6103bd3660046125f7565b610c81565b6102c56103d0366004612a4f565b610ce1565b6102ba610d67565b6103e5610d79565b6040516102539190612abf565b6102ba610400366004612b6b565b610fe2565b6102ba61104d565b6009546001600160a01b031661023f565b6102ba61042c366004612a4f565b61109c565b6103e561043f3660046125f7565b611133565b6102c56104523660046125f7565b600c6020526000908152604090205481565b6102876114e6565b6102ba61047a366004612bb3565b6114f5565b6102ba61048d366004612bea565b611500565b6104a56104a03660046125f7565b611538565b604051610253929190612c65565b6102876104c13660046125f7565b6117ea565b6102c560135481565b61026f6104dd366004612d1f565b6001600160a01b03918216600090815260056020908152604080832093909416825291909152205460ff1690565b6102ba610519366004612a4f565b611848565b600a5461023f906001600160a01b031681565b60006001600160e01b031982166380ac58cd60e01b148061056257506001600160e01b03198216635b5e139f60e01b145b8061057d57506301ffc9a760e01b6001600160e01b03198316145b92915050565b6060600e805461059290612d49565b80601f01602080910402602001604051908101604052809291908181526020018280546105be90612d49565b801561060b5780601f106105e05761010080835404028352916020019161060b565b820191906000526020600020905b8154815290600101906020018083116105ee57829003601f168201915b5050505050905090565b6000610620826118be565b506000908152600460205260409020546001600160a01b031690565b600061064782610c81565b9050806001600160a01b0316836001600160a01b031614156106ba5760405162461bcd60e51b815260206004820152602160248201527f4552433732313a20617070726f76616c20746f2063757272656e74206f776e656044820152603960f91b60648201526084015b60405180910390fd5b336001600160a01b03821614806106d657506106d681336104dd565b6107485760405162461bcd60e51b815260206004820152603e60248201527f4552433732313a20617070726f76652063616c6c6572206973206e6f7420746f60448201527f6b656e206f776e6572206e6f7220617070726f76656420666f7220616c6c000060648201526084016106b1565b610752838361191d565b505050565b600a5460408051808201909152600381526206460760eb1b6020820152906001600160a01b0316331461079d5760405162461bcd60e51b81526004016106b191906125e4565b50600a546001600160a01b0316158015906107ba57506000600b54115b6040518060400160405280600381526020016219181960e91b815250906107f45760405162461bcd60e51b81526004016106b191906125e4565b506011805490600061080583612d9a565b919050555060135460115411156040518060400160405280600381526020016232303360e81b8152509061084c5760405162461bcd60e51b81526004016106b191906125e4565b506011546000908152600c6020908152604090912082518155818301518051849361087e926001850192910190612486565b5090505061088e8260115461198b565b5050565b61089c33826119a5565b6108b85760405162461bcd60e51b81526004016106b190612db5565b610752838383611a24565b6009546001600160a01b031660006127106108e0846101f4612e03565b6108ea9190612e38565b90509250929050565b60608101516001600160a01b03166109375760405162461bcd60e51b815260206004820152600760248201526612539597d0511160ca1b60448201526064016106b1565b600b54156109715760405162461bcd60e51b815260206004820152600760248201526611561254d5115160ca1b60448201526064016106b1565b8051805161098791600e916020909101906124d1565b50602080820151805161099e92600f9201906124d1565b50604081015180516109b8916010916020909101906124d1565b50600a8054336001600160a01b03199182161790915560c0820151600b55608082015160125560a08201516013556060820151600980549092166001600160a01b03821617909155610a0990611848565b50565b6009546001600160a01b0316336001600160a01b031614610a3f5760405162461bcd60e51b81526004016106b190612e4c565b805161088e9060109060208401906124d1565b600a5460408051808201909152600381526206460760eb1b6020820152906001600160a01b03163314610a985760405162461bcd60e51b81526004016106b191906125e4565b50600a546001600160a01b031615801590610ab557506000600b54115b6040518060400160405280600381526020016219181960e91b81525090610aef5760405162461bcd60e51b81526004016106b191906125e4565b5060135482118015610b0357506012548211155b6040518060400160405280600381526020016232303360e81b81525090610b3d5760405162461bcd60e51b81526004016106b191906125e4565b506000828152600c60209081526040909120825181558183015180518493610b6c926001850192910190612486565b50905050610752838361198b565b60095460408051808201909152600381526231303160e81b6020820152906001600160a01b03163314610bc05760405162461bcd60e51b81526004016106b191906125e4565b50610bc9611bcb565b565b61075283838360405180602001604052806000815250611500565b6009546001600160a01b0316336001600160a01b031614610c195760405162461bcd60e51b81526004016106b190612e4c565b60408051808201909152600381526203130360ec1b60208201526001600160a01b038316610c5a5760405162461bcd60e51b81526004016106b191906125e4565b50600a80546001600160a01b0319166001600160a01b039390931692909217909155600b55565b6000818152600260205260408120546001600160a01b03168061057d5760405162461bcd60e51b8152602060048201526018602482015277115490cdcc8c4e881a5b9d985b1a59081d1bdad95b88125160421b60448201526064016106b1565b60006001600160a01b038216610d4b5760405162461bcd60e51b815260206004820152602960248201527f4552433732313a2061646472657373207a65726f206973206e6f7420612076616044820152683634b21037bbb732b960b91b60648201526084016106b1565b506001600160a01b031660009081526003602052604090205490565b610d6f611c1d565b610bc96000611c9b565b6060600d600001805480602002602001604051908101604052809291908181526020016000905b82821015610fd95783829060005260206000209060040201604051806080016040529081600082018054610dd390612d49565b80601f0160208091040260200160405190810160405280929190818152602001828054610dff90612d49565b8015610e4c5780601f10610e2157610100808354040283529160200191610e4c565b820191906000526020600020905b815481529060010190602001808311610e2f57829003601f168201915b5050505050815260200160018201805480602002602001604051908101604052809291908181526020016000905b82821015610f26578382906000526020600020018054610e9990612d49565b80601f0160208091040260200160405190810160405280929190818152602001828054610ec590612d49565b8015610f125780601f10610ee757610100808354040283529160200191610f12565b820191906000526020600020905b815481529060010190602001808311610ef557829003601f168201915b505050505081526020019060010190610e7a565b50505050815260200160028201548152602001600382018054610f4890612d49565b80601f0160208091040260200160405190810160405280929190818152602001828054610f7490612d49565b8015610fc15780601f10610f9657610100808354040283529160200191610fc1565b820191906000526020600020905b815481529060010190602001808311610fa457829003601f168201915b50505050508152505081526020019060010190610da0565b50505050905090565b6009546001600160a01b03163314806110055750600a546001600160a01b031633145b6040518060400160405280600381526020016231303160e81b8152509061103f5760405162461bcd60e51b81526004016106b191906125e4565b5080600d61075282826131aa565b60095460408051808201909152600381526231303160e81b6020820152906001600160a01b031633146110935760405162461bcd60e51b81526004016106b191906125e4565b50610bc9611ced565b6009546001600160a01b0316336001600160a01b0316146110cf5760405162461bcd60e51b81526004016106b190612e4c565b60408051808201909152600381526203130360ec1b60208201526001600160a01b0382166111105760405162461bcd60e51b81526004016106b191906125e4565b50600980546001600160a01b0319166001600160a01b0392909216919091179055565b606060008061114184611538565b915091506000600d600001805480602002602001604051908101604052809291908181526020016000905b828210156113a5578382906000526020600020906004020160405180608001604052908160008201805461119f90612d49565b80601f01602080910402602001604051908101604052809291908181526020018280546111cb90612d49565b80156112185780601f106111ed57610100808354040283529160200191611218565b820191906000526020600020905b8154815290600101906020018083116111fb57829003601f168201915b5050505050815260200160018201805480602002602001604051908101604052809291908181526020016000905b828210156112f257838290600052602060002001805461126590612d49565b80601f016020809104026020016040519081016040528092919081815260200182805461129190612d49565b80156112de5780601f106112b3576101008083540402835291602001916112de565b820191906000526020600020905b8154815290600101906020018083116112c157829003601f168201915b505050505081526020019060010190611246565b5050505081526020016002820154815260200160038201805461131490612d49565b80601f016020809104026020016040519081016040528092919081815260200182805461134090612d49565b801561138d5780601f106113625761010080835404028352916020019161138d565b820191906000526020600020905b81548152906001019060200180831161137057829003601f168201915b5050505050815250508152602001906001019061116c565b50505050905081518151146113bc57949350505050565b60005b82518160ff1610156114dd576000838260ff16815181106113e2576113e26132a1565b602002602001015160a0015190506000838360ff1681518110611407576114076132a1565b6020026020010151602001515111156114a357828260ff168151811061142f5761142f6132a1565b602002602001015160200151818151811061144c5761144c6132a1565b6020026020010151838360ff1681518110611469576114696132a1565b60200260200101516060018190525080838360ff168151811061148e5761148e6132a1565b602002602001015160400181815250506114ca565b80838360ff16815181106114b9576114b96132a1565b602002602001015160400181815250505b50806114d5816132b7565b9150506113bf565b50949350505050565b6060600f805461059290612d49565b61088e338383611d2a565b61150a33836119a5565b6115265760405162461bcd60e51b81526004016106b190612db5565b61153284848484611df9565b50505050565b600060606000600c600085815260200190815260200160002060405180604001604052908160008201548152602001600182018054806020026020016040519081016040528092919081815260200182805480156115b557602002820191906000526020600020905b8154815260200190600101908083116115a1575b5050509190925250508151600a54600b54604051631389a8ab60e21b815294955091936001600160a01b0390911692506000918391634e26a2ac916116009160040190815260200190565b600060405180830381865afa15801561161d573d6000803e3d6000fd5b505050506040513d6000823e601f3d908101601f1916820160405261164591908101906133b9565b905060005b81518110156117db57818181518110611665576116656132a1565b602002602001015160c0015161173657818181518110611687576116876132a1565b602002602001015160800151516000141561170b576116e48460001c8383815181106116b5576116b56132a1565b6020026020010151604001518484815181106116d3576116d36132a1565b602002602001015160200151611e2c565b8282815181106116f6576116f66132a1565b602002602001015160a0018181525050611777565b6116e48460001c838381518110611724576117246132a1565b60200260200101516080015151611e57565b8460200151818151811061174c5761174c6132a1565b6020026020010151828281518110611766576117666132a1565b602002602001015160a00181815250505b8382828151811061178a5761178a6132a1565b602002602001015160a001516040516020016117b0929190918252602082015260400190565b60405160208183030381529060405280519060200120935080806117d390612d9a565b91505061164a565b50925196929550919350505050565b60606117f4611e6a565b600a5461180b906001600160a01b03166014611e79565b611816600b54612014565b61181f85612014565b60405160200161183294939291906134f1565b6040516020818303038152906040529050919050565b611850611c1d565b6001600160a01b0381166118b55760405162461bcd60e51b815260206004820152602660248201527f4f776e61626c653a206e6577206f776e657220697320746865207a65726f206160448201526564647265737360d01b60648201526084016106b1565b610a0981611c9b565b6000818152600260205260409020546001600160a01b0316610a095760405162461bcd60e51b8152602060048201526018602482015277115490cdcc8c4e881a5b9d985b1a59081d1bdad95b88125160421b60448201526064016106b1565b600081815260046020526040902080546001600160a01b0319166001600160a01b038416908117909155819061195282610c81565b6001600160a01b03167f8c5be1e5ebec7d5bd14f71427d1e84f3dd0314c0f7b2291e5b200ac8c7c3b92560405160405180910390a45050565b61088e828260405180602001604052806000815250612111565b6000806119b183610c81565b9050806001600160a01b0316846001600160a01b031614806119f857506001600160a01b0380821660009081526005602090815260408083209388168352929052205460ff165b80611a1c5750836001600160a01b0316611a1184610615565b6001600160a01b0316145b949350505050565b826001600160a01b0316611a3782610c81565b6001600160a01b031614611a9b5760405162461bcd60e51b815260206004820152602560248201527f4552433732313a207472616e736665722066726f6d20696e636f72726563742060448201526437bbb732b960d91b60648201526084016106b1565b6001600160a01b038216611afd5760405162461bcd60e51b8152602060048201526024808201527f4552433732313a207472616e7366657220746f20746865207a65726f206164646044820152637265737360e01b60648201526084016106b1565b611b08838383612144565b611b1360008261191d565b6001600160a01b0383166000908152600360205260408120805460019290611b3c908490613560565b90915550506001600160a01b0382166000908152600360205260408120805460019290611b6a908490613577565b909155505060008181526002602052604080822080546001600160a01b0319166001600160a01b0386811691821790925591518493918716917fddf252ad1be2c89b69c2b068fc378daa952ba7f163c4a11628f55a4df523b3ef91a4505050565b611bd36121ab565b6006805460ff191690557f5db9ee0a495bf2e6ff9c91a7834c1ba4fdd244a5e8aa4e537bd38aeae4b073aa335b6040516001600160a01b03909116815260200160405180910390a1565b33611c306009546001600160a01b031690565b6001600160a01b03161480611c4f5750600a546001600160a01b031633145b610bc95760405162461bcd60e51b815260206004820181905260248201527f4f776e61626c653a2063616c6c6572206973206e6f7420746865206f776e657260448201526064016106b1565b600880546001600160a01b038381166001600160a01b0319831681179093556040519116919082907f8be0079c531659141344cd1fd0a4f28419497f9722a3daafe3b4186f6b6457e090600090a35050565b611cf56121f4565b6006805460ff191660011790557f62e78cea01bee320cd4e420270b5ea74000d11b0c9f74754ebdbfc544b05a258611c003390565b816001600160a01b0316836001600160a01b03161415611d8c5760405162461bcd60e51b815260206004820152601960248201527f4552433732313a20617070726f766520746f2063616c6c65720000000000000060448201526064016106b1565b6001600160a01b03838116600081815260056020908152604080832094871680845294825291829020805460ff191686151590811790915591519182527f17307eab39ab6107e8899845ad3d59bd9653f200f220920489ca2b5937696c31910160405180910390a3505050565b611e04848484611a24565b611e108484848461223a565b6115325760405162461bcd60e51b81526004016106b19061358f565b6000611e388383613560565b611e43906001613577565b611e4d90856135e1565b611a1c9084613577565b6000611e6382846135e1565b9392505050565b60606010805461059290612d49565b60606000611e88836002612e03565b611e93906002613577565b6001600160401b03811115611eaa57611eaa612656565b6040519080825280601f01601f191660200182016040528015611ed4576020820181803683370190505b509050600360fc1b81600081518110611eef57611eef6132a1565b60200101906001600160f81b031916908160001a905350600f60fb1b81600181518110611f1e57611f1e6132a1565b60200101906001600160f81b031916908160001a9053506000611f42846002612e03565b611f4d906001613577565b90505b6001811115611fc5576f181899199a1a9b1b9c1cb0b131b232b360811b85600f1660108110611f8157611f816132a1565b1a60f81b828281518110611f9757611f976132a1565b60200101906001600160f81b031916908160001a90535060049490941c93611fbe816135f5565b9050611f50565b508315611e635760405162461bcd60e51b815260206004820181905260248201527f537472696e67733a20686578206c656e67746820696e73756666696369656e7460448201526064016106b1565b6060816120385750506040805180820190915260018152600360fc1b602082015290565b8160005b8115612062578061204c81612d9a565b915061205b9050600a83612e38565b915061203c565b6000816001600160401b0381111561207c5761207c612656565b6040519080825280601f01601f1916602001820160405280156120a6576020820181803683370190505b5090505b8415611a1c576120bb600183613560565b91506120c8600a866135e1565b6120d3906030613577565b60f81b8183815181106120e8576120e86132a1565b60200101906001600160f81b031916908160001a90535061210a600a86612e38565b94506120aa565b61211b8383612338565b612128600084848461223a565b6107525760405162461bcd60e51b81526004016106b19061358f565b60065460ff16156107525760405162461bcd60e51b815260206004820152602b60248201527f4552433732315061757361626c653a20746f6b656e207472616e73666572207760448201526a1a1a5b19481c185d5cd95960aa1b60648201526084016106b1565b60065460ff16610bc95760405162461bcd60e51b815260206004820152601460248201527314185d5cd8589b194e881b9bdd081c185d5cd95960621b60448201526064016106b1565b60065460ff1615610bc95760405162461bcd60e51b815260206004820152601060248201526f14185d5cd8589b194e881c185d5cd95960821b60448201526064016106b1565b60006001600160a01b0384163b1561232d57604051630a85bd0160e11b81526001600160a01b0385169063150b7a029061227e90339089908890889060040161360c565b6020604051808303816000875af19250505080156122b9575060408051601f3d908101601f191682019092526122b691810190613649565b60015b612313573d8080156122e7576040519150601f19603f3d011682016040523d82523d6000602084013e6122ec565b606091505b50805161230b5760405162461bcd60e51b81526004016106b19061358f565b805181602001fd5b6001600160e01b031916630a85bd0160e11b149050611a1c565b506001949350505050565b6001600160a01b03821661238e5760405162461bcd60e51b815260206004820181905260248201527f4552433732313a206d696e7420746f20746865207a65726f206164647265737360448201526064016106b1565b6000818152600260205260409020546001600160a01b0316156123f35760405162461bcd60e51b815260206004820152601c60248201527f4552433732313a20746f6b656e20616c7265616479206d696e7465640000000060448201526064016106b1565b6123ff60008383612144565b6001600160a01b0382166000908152600360205260408120805460019290612428908490613577565b909155505060008181526002602052604080822080546001600160a01b0319166001600160a01b03861690811790915590518392907fddf252ad1be2c89b69c2b068fc378daa952ba7f163c4a11628f55a4df523b3ef908290a45050565b8280548282559060005260206000209081019282156124c1579160200282015b828111156124c15782518255916020019190600101906124a6565b506124cd929150612544565b5090565b8280546124dd90612d49565b90600052602060002090601f0160209004810192826124ff57600085556124c1565b82601f1061251857805160ff19168380011785556124c1565b828001600101855582156124c157918201828111156124c15782518255916020019190600101906124a6565b5b808211156124cd5760008155600101612545565b6001600160e01b031981168114610a0957600080fd5b60006020828403121561258157600080fd5b8135611e6381612559565b60005b838110156125a757818101518382015260200161258f565b838111156115325750506000910152565b600081518084526125d081602086016020860161258c565b601f01601f19169290920160200192915050565b602081526000611e6360208301846125b8565b60006020828403121561260957600080fd5b5035919050565b80356001600160a01b038116811461262757600080fd5b919050565b6000806040838503121561263f57600080fd5b61264883612610565b946020939093013593505050565b634e487b7160e01b600052604160045260246000fd5b604080519081016001600160401b038111828210171561268e5761268e612656565b60405290565b60405160e081016001600160401b038111828210171561268e5761268e612656565b604051601f8201601f191681016001600160401b03811182821017156126de576126de612656565b604052919050565b60006001600160401b038211156126ff576126ff612656565b5060051b60200190565b60006040828403121561271b57600080fd5b61272361266c565b9050813581526020808301356001600160401b0381111561274357600080fd5b8301601f8101851361275457600080fd5b8035612767612762826126e6565b6126b6565b81815260059190911b8201830190838101908783111561278657600080fd5b928401925b828410156127a45783358252928401929084019061278b565b8085870152505050505092915050565b600080604083850312156127c757600080fd5b6127d083612610565b915060208301356001600160401b038111156127eb57600080fd5b6127f785828601612709565b9150509250929050565b60008060006060848603121561281657600080fd5b61281f84612610565b925061282d60208501612610565b9150604084013590509250925092565b6000806040838503121561285057600080fd5b50508035926020909101359150565b60006001600160401b0382111561287857612878612656565b50601f01601f191660200190565b60006128946127628461285f565b90508281528383830111156128a857600080fd5b828260208301376000602084830101529392505050565b600082601f8301126128d057600080fd5b611e6383833560208501612886565b6000602082840312156128f157600080fd5b81356001600160401b038082111561290857600080fd5b9083019060e0828603121561291c57600080fd5b612924612694565b82358281111561293357600080fd5b61293f878286016128bf565b82525060208301358281111561295457600080fd5b612960878286016128bf565b60208301525060408301358281111561297857600080fd5b612984878286016128bf565b60408301525061299660608401612610565b60608201526080830135608082015260a083013560a082015260c083013560c082015280935050505092915050565b6000602082840312156129d757600080fd5b81356001600160401b038111156129ed57600080fd5b611a1c848285016128bf565b600080600060608486031215612a0e57600080fd5b612a1784612610565b92506020840135915060408401356001600160401b03811115612a3957600080fd5b612a4586828701612709565b9150509250925092565b600060208284031215612a6157600080fd5b611e6382612610565b600081518084526020808501808196508360051b8101915082860160005b85811015612ab2578284038952612aa08483516125b8565b98850198935090840190600101612a88565b5091979650505050505050565b60006020808301818452808551808352604092508286019150828160051b87010184880160005b83811015612b5d57603f19898403018552815160808151818652612b0c828701826125b8565b915050888201518582038a870152612b248282612a6a565b915050878201518886015260608083015192508582038187015250612b4981836125b8565b968901969450505090860190600101612ae6565b509098975050505050505050565b600060208284031215612b7d57600080fd5b81356001600160401b03811115612b9357600080fd5b820160208185031215611e6357600080fd5b8015158114610a0957600080fd5b60008060408385031215612bc657600080fd5b612bcf83612610565b91506020830135612bdf81612ba5565b809150509250929050565b60008060008060808587031215612c0057600080fd5b612c0985612610565b9350612c1760208601612610565b92506040850135915060608501356001600160401b03811115612c3957600080fd5b8501601f81018713612c4a57600080fd5b612c5987823560208401612886565b91505092959194509250565b6000604080830185845260208281860152818651808452606093508387019150838160051b88010183890160005b83811015612d0f57605f198a8403018552815160e060ff80835116865288830151898701528a8301518b870152808a840151168a870152506080808301518282880152612ce283880182612a6a565b60a0858101519089015260c094850151151594909701939093525050509385019390850190600101612c93565b50909a9950505050505050505050565b60008060408385031215612d3257600080fd5b612d3b83612610565b91506108ea60208401612610565b600181811c90821680612d5d57607f821691505b60208210811415612d7e57634e487b7160e01b600052602260045260246000fd5b50919050565b634e487b7160e01b600052601160045260246000fd5b6000600019821415612dae57612dae612d84565b5060010190565b6020808252602e908201527f4552433732313a2063616c6c6572206973206e6f7420746f6b656e206f776e6560408201526d1c881b9bdc88185c1c1c9bdd995960921b606082015260800190565b6000816000190483118215151615612e1d57612e1d612d84565b500290565b634e487b7160e01b600052601260045260246000fd5b600082612e4757612e47612e22565b500490565b60208082526012908201527113d3931657d05113525397d0531313d5d15160721b604082015260600190565b6000808335601e19843603018112612e8f57600080fd5b8301803591506001600160401b03821115612ea957600080fd5b6020019150600581901b3603821315612ec157600080fd5b9250929050565b60008235607e19833603018112612ede57600080fd5b9190910192915050565b5b8181101561088e5760008155600101612ee9565b612f078154612d49565b801561088e57601f811160018114612f2157505060009055565b826000526020600020612f3f601f840160051c820160018301612ee8565b506020600090812081855555505050565b805460008255801561088e578160005260206000208181015b8082101561153257612f7a82612efd565b600182019150612f69565b6000808335601e19843603018112612f9c57600080fd5b8301803591506001600160401b03821115612fb657600080fd5b602001915036819003821315612ec157600080fd5b601f82111561075257806000526020600020601f840160051c81016020851015612ff25750805b613004601f850160051c830182612ee8565b5050505050565b6001600160401b0383111561302257613022612656565b613036836130308354612d49565b83612fcb565b6000601f84116001811461306a57600085156130525750838201355b600019600387901b1c1916600186901b178355613004565b600083815260209020601f19861690835b8281101561309b578685013582556020948501946001909201910161307b565b50868210156130b85760001960f88860031b161c19848701351681555b505060018560011b0183555050505050565b6130d48283612f85565b6130df81838561300b565b5050600180820160206130f481860186612e78565b600160401b81111561310857613108612656565b8354818555808210156131415760008581528490208281019082015b8082101561313e5761313582612efd565b90870190613124565b50505b50818460005283600020945060005b8281101561317e576131628285612f85565b61316d81838a61300b565b505094860194908401908601613150565b505050505050506040820135600282015561319c6060830183612f85565b61153281836003860161300b565b6131b48283612e78565b600160401b8111156131c8576131c8612656565b82548184558082101561325a576001600160fe1b0360018183118116156131f1576131f1612d84565b600282851182161561320557613205612d84565b60008781526020812090935085821b81019085831b015b808210156132545761322d82612efd565b613238848301612f50565b848383015561324960038301612efd565b60048201915061321c565b50505050505b5060008381526020812083915b838110156132985761328261327c8487612ec8565b836130ca565b6020929092019160049190910190600101613267565b50505050505050565b634e487b7160e01b600052603260045260246000fd5b600060ff821660ff8114156132ce576132ce612d84565b60010192915050565b805160ff8116811461262757600080fd5b600082601f8301126132f957600080fd5b81516020613309612762836126e6565b82815260059290921b8401810191818101908684111561332857600080fd5b8286015b848110156133a35780516001600160401b0381111561334b5760008081fd5b8701603f8101891361335d5760008081fd5b84810151604061336f6127628361285f565b8281528b828486010111156133845760008081fd5b6133938389830184870161258c565b865250505091830191830161332c565b509695505050505050565b805161262781612ba5565b600060208083850312156133cc57600080fd5b82516001600160401b03808211156133e357600080fd5b818501915085601f8301126133f757600080fd5b8151613405612762826126e6565b81815260059190911b8301840190848101908883111561342457600080fd5b8585015b838110156134e45780518581111561343f57600080fd5b860160e0818c03601f190112156134565760008081fd5b61345e612694565b6134698983016132d7565b81526040808301518a830152606080840151828401526080915061348e8285016132d7565b9083015260a083810151898111156134a65760008081fd5b6134b48f8d838801016132e8565b838501525060c091508184015181840152506134d260e084016133ae565b90820152845250918601918601613428565b5098975050505050505050565b60008551613503818460208a0161258c565b855190830190613517818360208a0161258c565b602f60f81b91018181528551909190613537816001850160208a0161258c565b6001920191820152835161355281600284016020880161258c565b016002019695505050505050565b60008282101561357257613572612d84565b500390565b6000821982111561358a5761358a612d84565b500190565b60208082526032908201527f4552433732313a207472616e7366657220746f206e6f6e20455243373231526560408201527131b2b4bb32b91034b6b83632b6b2b73a32b960711b606082015260800190565b6000826135f0576135f0612e22565b500690565b60008161360457613604612d84565b506000190190565b6001600160a01b038581168252841660208201526040810183905260806060820181905260009061363f908301846125b8565b9695505050505050565b60006020828403121561365b57600080fd5b8151611e638161255956fea2646970667358221220c8f46dcc0419f615b0c029a735a86af87320f5de1bf874ff3ad0faa3e55199f864736f6c634300080c0033",
  "linkReferences": {},
  "deployedLinkReferences": {}
}