{
  "_format": "hh-sol-artifact-1",
  "contractName": "GenerativeNFT",
  "sourceName": "contracts/nft/GenerativeNFT.sol",
  "abi": [
    {
      "inputs": [
        {
          "internalType": "string",
          "name": "name",
          "type": "string"
        },
        {
          "internalType": "string",
          "name": "symbol",
          "type": "string"
        },
        {
          "internalType": "address",
          "name": "admin",
          "type": "address"
        }
      ],
      "stateMutability": "nonpayable",
      "type": "constructor"
    },
    {
      "anonymous": false,
      "inputs": [
        {
          "indexed": true,
          "internalType": "address",
          "name": "owner",
          "type": "address"
        },
        {
          "indexed": true,
          "internalType": "address",
          "name": "approved",
          "type": "address"
        },
        {
          "indexed": true,
          "internalType": "uint256",
          "name": "tokenId",
          "type": "uint256"
        }
      ],
      "name": "Approval",
      "type": "event"
    },
    {
      "anonymous": false,
      "inputs": [
        {
          "indexed": true,
          "internalType": "address",
          "name": "owner",
          "type": "address"
        },
        {
          "indexed": true,
          "internalType": "address",
          "name": "operator",
          "type": "address"
        },
        {
          "indexed": false,
          "internalType": "bool",
          "name": "approved",
          "type": "bool"
        }
      ],
      "name": "ApprovalForAll",
      "type": "event"
    },
    {
      "anonymous": false,
      "inputs": [
        {
          "indexed": true,
          "internalType": "address",
          "name": "previousOwner",
          "type": "address"
        },
        {
          "indexed": true,
          "internalType": "address",
          "name": "newOwner",
          "type": "address"
        }
      ],
      "name": "OwnershipTransferred",
      "type": "event"
    },
    {
      "anonymous": false,
      "inputs": [
        {
          "indexed": false,
          "internalType": "address",
          "name": "account",
          "type": "address"
        }
      ],
      "name": "Paused",
      "type": "event"
    },
    {
      "anonymous": false,
      "inputs": [
        {
          "indexed": true,
          "internalType": "address",
          "name": "from",
          "type": "address"
        },
        {
          "indexed": true,
          "internalType": "address",
          "name": "to",
          "type": "address"
        },
        {
          "indexed": true,
          "internalType": "uint256",
          "name": "tokenId",
          "type": "uint256"
        }
      ],
      "name": "Transfer",
      "type": "event"
    },
    {
      "anonymous": false,
      "inputs": [
        {
          "indexed": false,
          "internalType": "address",
          "name": "account",
          "type": "address"
        }
      ],
      "name": "Unpaused",
      "type": "event"
    },
    {
      "inputs": [],
      "name": "_admin",
      "outputs": [
        {
          "internalType": "address",
          "name": "",
          "type": "address"
        }
      ],
      "stateMutability": "view",
      "type": "function"
    },
    {
      "inputs": [],
      "name": "_boilerplateAddr",
      "outputs": [
        {
          "internalType": "address",
          "name": "",
          "type": "address"
        }
      ],
      "stateMutability": "view",
      "type": "function"
    },
    {
      "inputs": [],
      "name": "_boilerplateId",
      "outputs": [
        {
          "internalType": "uint256",
          "name": "",
          "type": "uint256"
        }
      ],
      "stateMutability": "view",
      "type": "function"
    },
    {
      "inputs": [],
      "name": "_limit",
      "outputs": [
        {
          "internalType": "uint256",
          "name": "",
          "type": "uint256"
        }
      ],
      "stateMutability": "view",
      "type": "function"
    },
    {
      "inputs": [],
      "name": "_max",
      "outputs": [
        {
          "internalType": "uint256",
          "name": "",
          "type": "uint256"
        }
      ],
      "stateMutability": "view",
      "type": "function"
    },
    {
      "inputs": [
        {
          "internalType": "uint256",
          "name": "",
          "type": "uint256"
        }
      ],
      "name": "_paramsValues",
      "outputs": [
        {
          "internalType": "bytes32",
          "name": "_seed",
          "type": "bytes32"
        }
      ],
      "stateMutability": "view",
      "type": "function"
    },
    {
      "inputs": [
        {
          "internalType": "address",
          "name": "to",
          "type": "address"
        },
        {
          "internalType": "uint256",
          "name": "tokenId",
          "type": "uint256"
        }
      ],
      "name": "approve",
      "outputs": [],
      "stateMutability": "nonpayable",
      "type": "function"
    },
    {
      "inputs": [
        {
          "internalType": "address",
          "name": "owner",
          "type": "address"
        }
      ],
      "name": "balanceOf",
      "outputs": [
        {
          "internalType": "uint256",
          "name": "",
          "type": "uint256"
        }
      ],
      "stateMutability": "view",
      "type": "function"
    },
    {
      "inputs": [
        {
          "internalType": "address",
          "name": "_newAdmin",
          "type": "address"
        }
      ],
      "name": "changeAdmin",
      "outputs": [],
      "stateMutability": "nonpayable",
      "type": "function"
    },
    {
      "inputs": [
        {
          "internalType": "string",
          "name": "baseURI",
          "type": "string"
        }
      ],
      "name": "changeBaseURI",
      "outputs": [],
      "stateMutability": "nonpayable",
      "type": "function"
    },
    {
      "inputs": [
        {
          "internalType": "address",
          "name": "newBoilerplate",
          "type": "address"
        },
        {
          "internalType": "uint256",
          "name": "newBoilerplateId",
          "type": "uint256"
        }
      ],
      "name": "changeBoilerplate",
      "outputs": [],
      "stateMutability": "nonpayable",
      "type": "function"
    },
    {
      "inputs": [
        {
          "internalType": "uint256",
          "name": "tokenId",
          "type": "uint256"
        }
      ],
      "name": "getApproved",
      "outputs": [
        {
          "internalType": "address",
          "name": "",
          "type": "address"
        }
      ],
      "stateMutability": "view",
      "type": "function"
    },
    {
      "inputs": [
        {
          "internalType": "uint256",
          "name": "tokenId",
          "type": "uint256"
        }
      ],
      "name": "getParamValues",
      "outputs": [
        {
          "internalType": "bytes32",
          "name": "",
          "type": "bytes32"
        },
        {
          "components": [
            {
              "internalType": "uint8",
              "name": "_typeValue",
              "type": "uint8"
            },
            {
              "internalType": "uint256",
              "name": "_max",
              "type": "uint256"
            },
            {
              "internalType": "uint256",
              "name": "_min",
              "type": "uint256"
            },
            {
              "internalType": "uint8",
              "name": "_decimal",
              "type": "uint8"
            },
            {
              "internalType": "string[]",
              "name": "_availableValues",
              "type": "string[]"
            },
            {
              "internalType": "uint256",
              "name": "_value",
              "type": "uint256"
            },
            {
              "internalType": "bool",
              "name": "_editable",
              "type": "bool"
            }
          ],
          "internalType": "struct BoilerplateParam.ParamTemplate[]",
          "name": "",
          "type": "tuple[]"
        }
      ],
      "stateMutability": "view",
      "type": "function"
    },
    {
      "inputs": [
        {
          "internalType": "uint256",
          "name": "tokenId",
          "type": "uint256"
        }
      ],
      "name": "getTokenTraits",
      "outputs": [
        {
          "components": [
            {
              "internalType": "string",
              "name": "name",
              "type": "string"
            },
            {
              "internalType": "string[]",
              "name": "_availableValues",
              "type": "string[]"
            },
            {
              "internalType": "uint256",
              "name": "_value",
              "type": "uint256"
            },
            {
              "internalType": "string",
              "name": "_valueStr",
              "type": "string"
            }
          ],
          "internalType": "struct TraitInfo.Trait[]",
          "name": "",
          "type": "tuple[]"
        }
      ],
      "stateMutability": "view",
      "type": "function"
    },
    {
      "inputs": [],
      "name": "getTraits",
      "outputs": [
        {
          "components": [
            {
              "internalType": "string",
              "name": "name",
              "type": "string"
            },
            {
              "internalType": "string[]",
              "name": "_availableValues",
              "type": "string[]"
            },
            {
              "internalType": "uint256",
              "name": "_value",
              "type": "uint256"
            },
            {
              "internalType": "string",
              "name": "_valueStr",
              "type": "string"
            }
          ],
          "internalType": "struct TraitInfo.Trait[]",
          "name": "",
          "type": "tuple[]"
        }
      ],
      "stateMutability": "view",
      "type": "function"
    },
    {
      "inputs": [
        {
          "components": [
            {
              "internalType": "string",
              "name": "_name",
              "type": "string"
            },
            {
              "internalType": "string",
              "name": "_symbol",
              "type": "string"
            },
            {
              "internalType": "string",
              "name": "_uri",
              "type": "string"
            },
            {
              "internalType": "address",
              "name": "_admin",
              "type": "address"
            },
            {
              "internalType": "uint256",
              "name": "_max",
              "type": "uint256"
            },
            {
              "internalType": "uint256",
              "name": "_limit",
              "type": "uint256"
            },
            {
              "internalType": "uint256",
              "name": "_projectId",
              "type": "uint256"
            }
          ],
          "internalType": "struct BoilerplateParam.InitMinterNFTInfo",
          "name": "p",
          "type": "tuple"
        }
      ],
      "name": "init",
      "outputs": [],
      "stateMutability": "nonpayable",
      "type": "function"
    },
    {
      "inputs": [
        {
          "internalType": "address",
          "name": "owner",
          "type": "address"
        },
        {
          "internalType": "address",
          "name": "operator",
          "type": "address"
        }
      ],
      "name": "isApprovedForAll",
      "outputs": [
        {
          "internalType": "bool",
          "name": "",
          "type": "bool"
        }
      ],
      "stateMutability": "view",
      "type": "function"
    },
    {
      "inputs": [
        {
          "internalType": "address",
          "name": "mintTo",
          "type": "address"
        },
        {
          "components": [
            {
              "internalType": "bytes32",
              "name": "_seed",
              "type": "bytes32"
            },
            {
              "internalType": "uint256[]",
              "name": "_value",
              "type": "uint256[]"
            }
          ],
          "internalType": "struct BoilerplateParam.ParamsOfNFT",
          "name": "_paramsTemplateValue",
          "type": "tuple"
        }
      ],
      "name": "mint",
      "outputs": [],
      "stateMutability": "nonpayable",
      "type": "function"
    },
    {
      "inputs": [],
      "name": "n",
      "outputs": [
        {
          "internalType": "uint256",
          "name": "",
          "type": "uint256"
        }
      ],
      "stateMutability": "view",
      "type": "function"
    },
    {
      "inputs": [],
      "name": "name",
      "outputs": [
        {
          "internalType": "string",
          "name": "",
          "type": "string"
        }
      ],
      "stateMutability": "view",
      "type": "function"
    },
    {
      "inputs": [],
      "name": "owner",
      "outputs": [
        {
          "internalType": "address",
          "name": "",
          "type": "address"
        }
      ],
      "stateMutability": "view",
      "type": "function"
    },
    {
      "inputs": [
        {
          "internalType": "address",
          "name": "mintTo",
          "type": "address"
        },
        {
          "internalType": "uint256",
          "name": "tokenId",
          "type": "uint256"
        },
        {
          "components": [
            {
              "internalType": "bytes32",
              "name": "_seed",
              "type": "bytes32"
            },
            {
              "internalType": "uint256[]",
              "name": "_value",
              "type": "uint256[]"
            }
          ],
          "internalType": "struct BoilerplateParam.ParamsOfNFT",
          "name": "_paramsTemplateValue",
          "type": "tuple"
        }
      ],
      "name": "ownerMint",
      "outputs": [],
      "stateMutability": "nonpayable",
      "type": "function"
    },
    {
      "inputs": [
        {
          "internalType": "uint256",
          "name": "tokenId",
          "type": "uint256"
        }
      ],
      "name": "ownerOf",
      "outputs": [
        {
          "internalType": "address",
          "name": "",
          "type": "address"
        }
      ],
      "stateMutability": "view",
      "type": "function"
    },
    {
      "inputs": [],
      "name": "pause",
      "outputs": [],
      "stateMutability": "nonpayable",
      "type": "function"
    },
    {
      "inputs": [],
      "name": "paused",
      "outputs": [
        {
          "internalType": "bool",
          "name": "",
          "type": "bool"
        }
      ],
      "stateMutability": "view",
      "type": "function"
    },
    {
      "inputs": [],
      "name": "renounceOwnership",
      "outputs": [],
      "stateMutability": "nonpayable",
      "type": "function"
    },
    {
      "inputs": [
        {
          "internalType": "uint256",
          "name": "_tokenId",
          "type": "uint256"
        },
        {
          "internalType": "uint256",
          "name": "_salePrice",
          "type": "uint256"
        }
      ],
      "name": "royaltyInfo",
      "outputs": [
        {
          "internalType": "address",
          "name": "receiver",
          "type": "address"
        },
        {
          "internalType": "uint256",
          "name": "royaltyAmount",
          "type": "uint256"
        }
      ],
      "stateMutability": "view",
      "type": "function"
    },
    {
      "inputs": [
        {
          "internalType": "address",
          "name": "from",
          "type": "address"
        },
        {
          "internalType": "address",
          "name": "to",
          "type": "address"
        },
        {
          "internalType": "uint256",
          "name": "tokenId",
          "type": "uint256"
        }
      ],
      "name": "safeTransferFrom",
      "outputs": [],
      "stateMutability": "nonpayable",
      "type": "function"
    },
    {
      "inputs": [
        {
          "internalType": "address",
          "name": "from",
          "type": "address"
        },
        {
          "internalType": "address",
          "name": "to",
          "type": "address"
        },
        {
          "internalType": "uint256",
          "name": "tokenId",
          "type": "uint256"
        },
        {
          "internalType": "bytes",
          "name": "data",
          "type": "bytes"
        }
      ],
      "name": "safeTransferFrom",
      "outputs": [],
      "stateMutability": "nonpayable",
      "type": "function"
    },
    {
      "inputs": [
        {
          "internalType": "address",
          "name": "operator",
          "type": "address"
        },
        {
          "internalType": "bool",
          "name": "approved",
          "type": "bool"
        }
      ],
      "name": "setApprovalForAll",
      "outputs": [],
      "stateMutability": "nonpayable",
      "type": "function"
    },
    {
      "inputs": [
        {
          "internalType": "bytes4",
          "name": "interfaceId",
          "type": "bytes4"
        }
      ],
      "name": "supportsInterface",
      "outputs": [
        {
          "internalType": "bool",
          "name": "",
          "type": "bool"
        }
      ],
      "stateMutability": "view",
      "type": "function"
    },
    {
      "inputs": [],
      "name": "symbol",
      "outputs": [
        {
          "internalType": "string",
          "name": "",
          "type": "string"
        }
      ],
      "stateMutability": "view",
      "type": "function"
    },
    {
      "inputs": [
        {
          "internalType": "uint256",
          "name": "_tokenId",
          "type": "uint256"
        }
      ],
      "name": "tokenURI",
      "outputs": [
        {
          "internalType": "string",
          "name": "",
          "type": "string"
        }
      ],
      "stateMutability": "view",
      "type": "function"
    },
    {
      "inputs": [
        {
          "internalType": "address",
          "name": "from",
          "type": "address"
        },
        {
          "internalType": "address",
          "name": "to",
          "type": "address"
        },
        {
          "internalType": "uint256",
          "name": "tokenId",
          "type": "uint256"
        }
      ],
      "name": "transferFrom",
      "outputs": [],
      "stateMutability": "nonpayable",
      "type": "function"
    },
    {
      "inputs": [
        {
          "internalType": "address",
          "name": "newOwner",
          "type": "address"
        }
      ],
      "name": "transferOwnership",
      "outputs": [],
      "stateMutability": "nonpayable",
      "type": "function"
    },
    {
      "inputs": [],
      "name": "unpause",
      "outputs": [],
      "stateMutability": "nonpayable",
      "type": "function"
    },
    {
      "inputs": [
        {
          "components": [
            {
              "components": [
                {
                  "internalType": "string",
                  "name": "name",
                  "type": "string"
                },
                {
                  "internalType": "string[]",
                  "name": "_availableValues",
                  "type": "string[]"
                },
                {
                  "internalType": "uint256",
                  "name": "_value",
                  "type": "uint256"
                },
                {
                  "internalType": "string",
                  "name": "_valueStr",
                  "type": "string"
                }
              ],
              "internalType": "struct TraitInfo.Trait[]",
              "name": "_traits",
              "type": "tuple[]"
            }
          ],
          "internalType": "struct TraitInfo.Traits",
          "name": "traits",
          "type": "tuple"
        }
      ],
      "name": "updateTraits",
      "outputs": [],
      "stateMutability": "nonpayable",
      "type": "function"
    }
  ],
  "bytecode": "0x60806040523480156200001157600080fd5b50604051620039db380380620039db83398101604081905262000034916200026e565b8251839083906200004d906000906020850190620000fb565b50805162000063906001906020840190620000fb565b50506006805460ff191690555060016007556200008033620000a9565b600980546001600160a01b0319166001600160a01b039290921691909117905550620003389050565b600880546001600160a01b038381166001600160a01b0319831681179093556040519116919082907f8be0079c531659141344cd1fd0a4f28419497f9722a3daafe3b4186f6b6457e090600090a35050565b8280546200010990620002fb565b90600052602060002090601f0160209004810192826200012d576000855562000178565b82601f106200014857805160ff191683800117855562000178565b8280016001018555821562000178579182015b82811115620001785782518255916020019190600101906200015b565b50620001869291506200018a565b5090565b5b808211156200018657600081556001016200018b565b634e487b7160e01b600052604160045260246000fd5b600082601f830112620001c957600080fd5b81516001600160401b0380821115620001e657620001e6620001a1565b604051601f8301601f19908116603f01168101908282118183101715620002115762000211620001a1565b816040528381526020925086838588010111156200022e57600080fd5b600091505b8382101562000252578582018301518183018401529082019062000233565b83821115620002645760008385830101525b9695505050505050565b6000806000606084860312156200028457600080fd5b83516001600160401b03808211156200029c57600080fd5b620002aa87838801620001b7565b94506020860151915080821115620002c157600080fd5b50620002d086828701620001b7565b604086015190935090506001600160a01b0381168114620002f057600080fd5b809150509250925092565b600181811c908216806200031057607f821691505b602082108114156200033257634e487b7160e01b600052602260045260246000fd5b50919050565b61369380620003486000396000f3fe608060405234801561001057600080fd5b50600436106102275760003560e01c80636352211e11610130578063953cd246116100b8578063c87b56dd1161007c578063c87b56dd146104b3578063df2fb92c146104c6578063e985e9c5146104cf578063f2fde38b1461050b578063f9ecc22c1461051e57600080fd5b8063953cd2461461044457806395d89b4114610464578063a22cb4651461046c578063b88d4fde1461047f578063c0dca2391461049257600080fd5b806381d22564116100ff57806381d22564146103f25780638456cb59146104055780638da5cb5b1461040d5780638f2839701461041e57806394e568471461043157600080fd5b80636352211e146103af57806370a08231146103c2578063715018a6146103d55780637f0429ef146103dd57600080fd5b80632bbcd3ce116101b35780633f4ba83a116101825780633f4ba83a1461036d57806342842e0e14610375578063456c950414610388578063531f7b531461039b5780635c975abb146103a457600080fd5b80632bbcd3ce1461032b5780632e52d6061461033e57806339a0c6f9146103475780633de955561461035a57600080fd5b8063095ea7b3116101fa578063095ea7b3146102a757806314506524146102bc578063214863cb146102d357806323b872dd146102e65780632a55205a146102f957600080fd5b806301bc45c91461022c57806301ffc9a71461025c57806306fdde031461027f578063081812fc14610294575b600080fd5b60095461023f906001600160a01b031681565b6040516001600160a01b0390911681526020015b60405180910390f35b61026f61026a366004612566565b610531565b6040519015158152602001610253565b610287610583565b60405161025391906125db565b61023f6102a23660046125ee565b610615565b6102ba6102b5366004612623565b61063c565b005b6102c560125481565b604051908152602001610253565b6102ba6102e13660046127ab565b610757565b6102ba6102f43660046127f8565b61087c565b61030c610307366004612834565b6108ad565b604080516001600160a01b039093168352602083019190915201610253565b6102ba6103393660046128d6565b6108dd565b6102c560115481565b6102ba6103553660046129bc565b6109f6565b6102ba6103683660046129f0565b610a3c565b6102ba610b4e565b6102ba6103833660046127f8565b610b9f565b6102ba610396366004612623565b610bba565b6102c5600b5481565b60065460ff1661026f565b61023f6103bd3660046125ee565b610c55565b6102c56103d0366004612a46565b610cb5565b6102ba610d3b565b6103e5610d4d565b6040516102539190612ab6565b6102ba610400366004612b62565b610fb6565b6102ba611021565b6009546001600160a01b031661023f565b6102ba61042c366004612a46565b611070565b6103e561043f3660046125ee565b611107565b6102c56104523660046125ee565b600c6020526000908152604090205481565b6102876114ba565b6102ba61047a366004612baa565b6114c9565b6102ba61048d366004612be1565b6114d4565b6104a56104a03660046125ee565b61150c565b604051610253929190612c5c565b6102876104c13660046125ee565b6117e1565b6102c560135481565b61026f6104dd366004612d16565b6001600160a01b03918216600090815260056020908152604080832093909416825291909152205460ff1690565b6102ba610519366004612a46565b61183f565b600a5461023f906001600160a01b031681565b60006001600160e01b031982166380ac58cd60e01b148061056257506001600160e01b03198216635b5e139f60e01b145b8061057d57506301ffc9a760e01b6001600160e01b03198316145b92915050565b6060600e805461059290612d40565b80601f01602080910402602001604051908101604052809291908181526020018280546105be90612d40565b801561060b5780601f106105e05761010080835404028352916020019161060b565b820191906000526020600020905b8154815290600101906020018083116105ee57829003601f168201915b5050505050905090565b6000610620826118b5565b506000908152600460205260409020546001600160a01b031690565b600061064782610c55565b9050806001600160a01b0316836001600160a01b031614156106ba5760405162461bcd60e51b815260206004820152602160248201527f4552433732313a20617070726f76616c20746f2063757272656e74206f776e656044820152603960f91b60648201526084015b60405180910390fd5b336001600160a01b03821614806106d657506106d681336104dd565b6107485760405162461bcd60e51b815260206004820152603e60248201527f4552433732313a20617070726f76652063616c6c6572206973206e6f7420746f60448201527f6b656e206f776e6572206e6f7220617070726f76656420666f7220616c6c000060648201526084016106b1565b6107528383611914565b505050565b600a5460408051808201909152600381526206460760eb1b6020820152906001600160a01b0316331461079d5760405162461bcd60e51b81526004016106b191906125db565b506000600b54116040518060400160405280600381526020016219181960e91b815250906107de5760405162461bcd60e51b81526004016106b191906125db565b50601180549060006107ef83612d91565b919050555060135460115411156040518060400160405280600381526020016232303360e81b815250906108365760405162461bcd60e51b81526004016106b191906125db565b506011546000908152600c6020908152604090912082518155818301518051849361086892600185019291019061247d565b5090505061087882601154611982565b5050565b610886338261199c565b6108a25760405162461bcd60e51b81526004016106b190612dac565b610752838383611a1b565b6009546001600160a01b031660006127106108ca846101f4612dfa565b6108d49190612e2f565b90509250929050565b60608101516001600160a01b03166109215760405162461bcd60e51b815260206004820152600760248201526612539597d0511160ca1b60448201526064016106b1565b600b541561095b5760405162461bcd60e51b815260206004820152600760248201526611561254d5115160ca1b60448201526064016106b1565b8051805161097191600e916020909101906124c8565b50602080820151805161098892600f9201906124c8565b50604081015180516109a2916010916020909101906124c8565b50600a8054336001600160a01b03199182161790915560c0820151600b55608082015160125560a08201516013556060820151600980549092166001600160a01b038216179091556109f39061183f565b50565b6009546001600160a01b0316336001600160a01b031614610a295760405162461bcd60e51b81526004016106b190612e43565b80516108789060109060208401906124c8565b600a5460408051808201909152600381526206460760eb1b6020820152906001600160a01b03163314610a825760405162461bcd60e51b81526004016106b191906125db565b506000600b54116040518060400160405280600381526020016219181960e91b81525090610ac35760405162461bcd60e51b81526004016106b191906125db565b5060135482118015610ad757506012548211155b6040518060400160405280600381526020016232303360e81b81525090610b115760405162461bcd60e51b81526004016106b191906125db565b506000828152600c60209081526040909120825181558183015180518493610b4092600185019291019061247d565b509050506107528383611982565b60095460408051808201909152600381526231303160e81b6020820152906001600160a01b03163314610b945760405162461bcd60e51b81526004016106b191906125db565b50610b9d611bc2565b565b610752838383604051806020016040528060008152506114d4565b6009546001600160a01b0316336001600160a01b031614610bed5760405162461bcd60e51b81526004016106b190612e43565b60408051808201909152600381526203130360ec1b60208201526001600160a01b038316610c2e5760405162461bcd60e51b81526004016106b191906125db565b50600a80546001600160a01b0319166001600160a01b039390931692909217909155600b55565b6000818152600260205260408120546001600160a01b03168061057d5760405162461bcd60e51b8152602060048201526018602482015277115490cdcc8c4e881a5b9d985b1a59081d1bdad95b88125160421b60448201526064016106b1565b60006001600160a01b038216610d1f5760405162461bcd60e51b815260206004820152602960248201527f4552433732313a2061646472657373207a65726f206973206e6f7420612076616044820152683634b21037bbb732b960b91b60648201526084016106b1565b506001600160a01b031660009081526003602052604090205490565b610d43611c14565b610b9d6000611c92565b6060600d600001805480602002602001604051908101604052809291908181526020016000905b82821015610fad5783829060005260206000209060040201604051806080016040529081600082018054610da790612d40565b80601f0160208091040260200160405190810160405280929190818152602001828054610dd390612d40565b8015610e205780601f10610df557610100808354040283529160200191610e20565b820191906000526020600020905b815481529060010190602001808311610e0357829003601f168201915b5050505050815260200160018201805480602002602001604051908101604052809291908181526020016000905b82821015610efa578382906000526020600020018054610e6d90612d40565b80601f0160208091040260200160405190810160405280929190818152602001828054610e9990612d40565b8015610ee65780601f10610ebb57610100808354040283529160200191610ee6565b820191906000526020600020905b815481529060010190602001808311610ec957829003601f168201915b505050505081526020019060010190610e4e565b50505050815260200160028201548152602001600382018054610f1c90612d40565b80601f0160208091040260200160405190810160405280929190818152602001828054610f4890612d40565b8015610f955780601f10610f6a57610100808354040283529160200191610f95565b820191906000526020600020905b815481529060010190602001808311610f7857829003601f168201915b50505050508152505081526020019060010190610d74565b50505050905090565b6009546001600160a01b0316331480610fd95750600a546001600160a01b031633145b6040518060400160405280600381526020016231303160e81b815250906110135760405162461bcd60e51b81526004016106b191906125db565b5080600d61075282826131a1565b60095460408051808201909152600381526231303160e81b6020820152906001600160a01b031633146110675760405162461bcd60e51b81526004016106b191906125db565b50610b9d611ce4565b6009546001600160a01b0316336001600160a01b0316146110a35760405162461bcd60e51b81526004016106b190612e43565b60408051808201909152600381526203130360ec1b60208201526001600160a01b0382166110e45760405162461bcd60e51b81526004016106b191906125db565b50600980546001600160a01b0319166001600160a01b0392909216919091179055565b60606000806111158461150c565b915091506000600d600001805480602002602001604051908101604052809291908181526020016000905b82821015611379578382906000526020600020906004020160405180608001604052908160008201805461117390612d40565b80601f016020809104026020016040519081016040528092919081815260200182805461119f90612d40565b80156111ec5780601f106111c1576101008083540402835291602001916111ec565b820191906000526020600020905b8154815290600101906020018083116111cf57829003601f168201915b5050505050815260200160018201805480602002602001604051908101604052809291908181526020016000905b828210156112c657838290600052602060002001805461123990612d40565b80601f016020809104026020016040519081016040528092919081815260200182805461126590612d40565b80156112b25780601f10611287576101008083540402835291602001916112b2565b820191906000526020600020905b81548152906001019060200180831161129557829003601f168201915b50505050508152602001906001019061121a565b505050508152602001600282015481526020016003820180546112e890612d40565b80601f016020809104026020016040519081016040528092919081815260200182805461131490612d40565b80156113615780601f1061133657610100808354040283529160200191611361565b820191906000526020600020905b81548152906001019060200180831161134457829003601f168201915b50505050508152505081526020019060010190611140565b505050509050815181511461139057949350505050565b60005b82518160ff1610156114b1576000838260ff16815181106113b6576113b6613298565b602002602001015160a0015190506000838360ff16815181106113db576113db613298565b60200260200101516020015151111561147757828260ff168151811061140357611403613298565b602002602001015160200151818151811061142057611420613298565b6020026020010151838360ff168151811061143d5761143d613298565b60200260200101516060018190525080838360ff168151811061146257611462613298565b6020026020010151604001818152505061149e565b80838360ff168151811061148d5761148d613298565b602002602001015160400181815250505b50806114a9816132ae565b915050611393565b50949350505050565b6060600f805461059290612d40565b610878338383611d21565b6114de338361199c565b6114fa5760405162461bcd60e51b81526004016106b190612dac565b61150684848484611df0565b50505050565b600060606000600c6000858152602001908152602001600020604051806040016040529081600082015481526020016001820180548060200260200160405190810160405280929190818152602001828054801561158957602002820191906000526020600020905b815481526020019060010190808311611575575b505050919092525050600a54600b54604051631389a8ab60e21b815260048101919091529293506001600160a01b031691600091508290634e26a2ac90602401600060405180830381865afa1580156115e6573d6000803e3d6000fd5b505050506040513d6000823e601f3d908101601f1916820160405261160e91908101906133b0565b835190915060005b82518110156117d25782818151811061163157611631613298565b602002602001015160c001516117025782818151811061165357611653613298565b60200260200101516080015151600014156116d7576116b08260001c84838151811061168157611681613298565b60200260200101516040015185848151811061169f5761169f613298565b602002602001015160200151611e23565b8382815181106116c2576116c2613298565b602002602001015160a001818152505061176e565b6116b08260001c8483815181106116f0576116f0613298565b60200260200101516080015151611e4e565b60008560200151511180156117285750600185602001515161172491906134e8565b8111155b1561176e578460200151818151811061174357611743613298565b602002602001015183828151811061175d5761175d613298565b602002602001015160a00181815250505b8183828151811061178157611781613298565b602002602001015160a001516040516020016117a7929190918252602082015260400190565b60405160208183030381529060405280519060200120915080806117ca90612d91565b915050611616565b50509151959194509092505050565b60606117eb611e61565b600a54611802906001600160a01b03166014611e70565b61180d600b5461200b565b6118168561200b565b60405160200161182994939291906134ff565b6040516020818303038152906040529050919050565b611847611c14565b6001600160a01b0381166118ac5760405162461bcd60e51b815260206004820152602660248201527f4f776e61626c653a206e6577206f776e657220697320746865207a65726f206160448201526564647265737360d01b60648201526084016106b1565b6109f381611c92565b6000818152600260205260409020546001600160a01b03166109f35760405162461bcd60e51b8152602060048201526018602482015277115490cdcc8c4e881a5b9d985b1a59081d1bdad95b88125160421b60448201526064016106b1565b600081815260046020526040902080546001600160a01b0319166001600160a01b038416908117909155819061194982610c55565b6001600160a01b03167f8c5be1e5ebec7d5bd14f71427d1e84f3dd0314c0f7b2291e5b200ac8c7c3b92560405160405180910390a45050565b610878828260405180602001604052806000815250612108565b6000806119a883610c55565b9050806001600160a01b0316846001600160a01b031614806119ef57506001600160a01b0380821660009081526005602090815260408083209388168352929052205460ff165b80611a135750836001600160a01b0316611a0884610615565b6001600160a01b0316145b949350505050565b826001600160a01b0316611a2e82610c55565b6001600160a01b031614611a925760405162461bcd60e51b815260206004820152602560248201527f4552433732313a207472616e736665722066726f6d20696e636f72726563742060448201526437bbb732b960d91b60648201526084016106b1565b6001600160a01b038216611af45760405162461bcd60e51b8152602060048201526024808201527f4552433732313a207472616e7366657220746f20746865207a65726f206164646044820152637265737360e01b60648201526084016106b1565b611aff83838361213b565b611b0a600082611914565b6001600160a01b0383166000908152600360205260408120805460019290611b339084906134e8565b90915550506001600160a01b0382166000908152600360205260408120805460019290611b6190849061356e565b909155505060008181526002602052604080822080546001600160a01b0319166001600160a01b0386811691821790925591518493918716917fddf252ad1be2c89b69c2b068fc378daa952ba7f163c4a11628f55a4df523b3ef91a4505050565b611bca6121a2565b6006805460ff191690557f5db9ee0a495bf2e6ff9c91a7834c1ba4fdd244a5e8aa4e537bd38aeae4b073aa335b6040516001600160a01b03909116815260200160405180910390a1565b33611c276009546001600160a01b031690565b6001600160a01b03161480611c465750600a546001600160a01b031633145b610b9d5760405162461bcd60e51b815260206004820181905260248201527f4f776e61626c653a2063616c6c6572206973206e6f7420746865206f776e657260448201526064016106b1565b600880546001600160a01b038381166001600160a01b0319831681179093556040519116919082907f8be0079c531659141344cd1fd0a4f28419497f9722a3daafe3b4186f6b6457e090600090a35050565b611cec6121eb565b6006805460ff191660011790557f62e78cea01bee320cd4e420270b5ea74000d11b0c9f74754ebdbfc544b05a258611bf73390565b816001600160a01b0316836001600160a01b03161415611d835760405162461bcd60e51b815260206004820152601960248201527f4552433732313a20617070726f766520746f2063616c6c65720000000000000060448201526064016106b1565b6001600160a01b03838116600081815260056020908152604080832094871680845294825291829020805460ff191686151590811790915591519182527f17307eab39ab6107e8899845ad3d59bd9653f200f220920489ca2b5937696c31910160405180910390a3505050565b611dfb848484611a1b565b611e0784848484612231565b6115065760405162461bcd60e51b81526004016106b190613586565b6000611e2f83836134e8565b611e3a90600161356e565b611e4490856135d8565b611a13908461356e565b6000611e5a82846135d8565b9392505050565b60606010805461059290612d40565b60606000611e7f836002612dfa565b611e8a90600261356e565b6001600160401b03811115611ea157611ea161264d565b6040519080825280601f01601f191660200182016040528015611ecb576020820181803683370190505b509050600360fc1b81600081518110611ee657611ee6613298565b60200101906001600160f81b031916908160001a905350600f60fb1b81600181518110611f1557611f15613298565b60200101906001600160f81b031916908160001a9053506000611f39846002612dfa565b611f4490600161356e565b90505b6001811115611fbc576f181899199a1a9b1b9c1cb0b131b232b360811b85600f1660108110611f7857611f78613298565b1a60f81b828281518110611f8e57611f8e613298565b60200101906001600160f81b031916908160001a90535060049490941c93611fb5816135ec565b9050611f47565b508315611e5a5760405162461bcd60e51b815260206004820181905260248201527f537472696e67733a20686578206c656e67746820696e73756666696369656e7460448201526064016106b1565b60608161202f5750506040805180820190915260018152600360fc1b602082015290565b8160005b8115612059578061204381612d91565b91506120529050600a83612e2f565b9150612033565b6000816001600160401b038111156120735761207361264d565b6040519080825280601f01601f19166020018201604052801561209d576020820181803683370190505b5090505b8415611a13576120b26001836134e8565b91506120bf600a866135d8565b6120ca90603061356e565b60f81b8183815181106120df576120df613298565b60200101906001600160f81b031916908160001a905350612101600a86612e2f565b94506120a1565b612112838361232f565b61211f6000848484612231565b6107525760405162461bcd60e51b81526004016106b190613586565b60065460ff16156107525760405162461bcd60e51b815260206004820152602b60248201527f4552433732315061757361626c653a20746f6b656e207472616e73666572207760448201526a1a1a5b19481c185d5cd95960aa1b60648201526084016106b1565b60065460ff16610b9d5760405162461bcd60e51b815260206004820152601460248201527314185d5cd8589b194e881b9bdd081c185d5cd95960621b60448201526064016106b1565b60065460ff1615610b9d5760405162461bcd60e51b815260206004820152601060248201526f14185d5cd8589b194e881c185d5cd95960821b60448201526064016106b1565b60006001600160a01b0384163b1561232457604051630a85bd0160e11b81526001600160a01b0385169063150b7a0290612275903390899088908890600401613603565b6020604051808303816000875af19250505080156122b0575060408051601f3d908101601f191682019092526122ad91810190613640565b60015b61230a573d8080156122de576040519150601f19603f3d011682016040523d82523d6000602084013e6122e3565b606091505b5080516123025760405162461bcd60e51b81526004016106b190613586565b805181602001fd5b6001600160e01b031916630a85bd0160e11b149050611a13565b506001949350505050565b6001600160a01b0382166123855760405162461bcd60e51b815260206004820181905260248201527f4552433732313a206d696e7420746f20746865207a65726f206164647265737360448201526064016106b1565b6000818152600260205260409020546001600160a01b0316156123ea5760405162461bcd60e51b815260206004820152601c60248201527f4552433732313a20746f6b656e20616c7265616479206d696e7465640000000060448201526064016106b1565b6123f66000838361213b565b6001600160a01b038216600090815260036020526040812080546001929061241f90849061356e565b909155505060008181526002602052604080822080546001600160a01b0319166001600160a01b03861690811790915590518392907fddf252ad1be2c89b69c2b068fc378daa952ba7f163c4a11628f55a4df523b3ef908290a45050565b8280548282559060005260206000209081019282156124b8579160200282015b828111156124b857825182559160200191906001019061249d565b506124c492915061253b565b5090565b8280546124d490612d40565b90600052602060002090601f0160209004810192826124f657600085556124b8565b82601f1061250f57805160ff19168380011785556124b8565b828001600101855582156124b857918201828111156124b857825182559160200191906001019061249d565b5b808211156124c4576000815560010161253c565b6001600160e01b0319811681146109f357600080fd5b60006020828403121561257857600080fd5b8135611e5a81612550565b60005b8381101561259e578181015183820152602001612586565b838111156115065750506000910152565b600081518084526125c7816020860160208601612583565b601f01601f19169290920160200192915050565b602081526000611e5a60208301846125af565b60006020828403121561260057600080fd5b5035919050565b80356001600160a01b038116811461261e57600080fd5b919050565b6000806040838503121561263657600080fd5b61263f83612607565b946020939093013593505050565b634e487b7160e01b600052604160045260246000fd5b604080519081016001600160401b03811182821017156126855761268561264d565b60405290565b60405160e081016001600160401b03811182821017156126855761268561264d565b604051601f8201601f191681016001600160401b03811182821017156126d5576126d561264d565b604052919050565b60006001600160401b038211156126f6576126f661264d565b5060051b60200190565b60006040828403121561271257600080fd5b61271a612663565b9050813581526020808301356001600160401b0381111561273a57600080fd5b8301601f8101851361274b57600080fd5b803561275e612759826126dd565b6126ad565b81815260059190911b8201830190838101908783111561277d57600080fd5b928401925b8284101561279b57833582529284019290840190612782565b8085870152505050505092915050565b600080604083850312156127be57600080fd5b6127c783612607565b915060208301356001600160401b038111156127e257600080fd5b6127ee85828601612700565b9150509250929050565b60008060006060848603121561280d57600080fd5b61281684612607565b925061282460208501612607565b9150604084013590509250925092565b6000806040838503121561284757600080fd5b50508035926020909101359150565b60006001600160401b0382111561286f5761286f61264d565b50601f01601f191660200190565b600061288b61275984612856565b905082815283838301111561289f57600080fd5b828260208301376000602084830101529392505050565b600082601f8301126128c757600080fd5b611e5a8383356020850161287d565b6000602082840312156128e857600080fd5b81356001600160401b03808211156128ff57600080fd5b9083019060e0828603121561291357600080fd5b61291b61268b565b82358281111561292a57600080fd5b612936878286016128b6565b82525060208301358281111561294b57600080fd5b612957878286016128b6565b60208301525060408301358281111561296f57600080fd5b61297b878286016128b6565b60408301525061298d60608401612607565b60608201526080830135608082015260a083013560a082015260c083013560c082015280935050505092915050565b6000602082840312156129ce57600080fd5b81356001600160401b038111156129e457600080fd5b611a13848285016128b6565b600080600060608486031215612a0557600080fd5b612a0e84612607565b92506020840135915060408401356001600160401b03811115612a3057600080fd5b612a3c86828701612700565b9150509250925092565b600060208284031215612a5857600080fd5b611e5a82612607565b600081518084526020808501808196508360051b8101915082860160005b85811015612aa9578284038952612a978483516125af565b98850198935090840190600101612a7f565b5091979650505050505050565b60006020808301818452808551808352604092508286019150828160051b87010184880160005b83811015612b5457603f19898403018552815160808151818652612b03828701826125af565b915050888201518582038a870152612b1b8282612a61565b915050878201518886015260608083015192508582038187015250612b4081836125af565b968901969450505090860190600101612add565b509098975050505050505050565b600060208284031215612b7457600080fd5b81356001600160401b03811115612b8a57600080fd5b820160208185031215611e5a57600080fd5b80151581146109f357600080fd5b60008060408385031215612bbd57600080fd5b612bc683612607565b91506020830135612bd681612b9c565b809150509250929050565b60008060008060808587031215612bf757600080fd5b612c0085612607565b9350612c0e60208601612607565b92506040850135915060608501356001600160401b03811115612c3057600080fd5b8501601f81018713612c4157600080fd5b612c508782356020840161287d565b91505092959194509250565b6000604080830185845260208281860152818651808452606093508387019150838160051b88010183890160005b83811015612d0657605f198a8403018552815160e060ff80835116865288830151898701528a8301518b870152808a840151168a870152506080808301518282880152612cd983880182612a61565b60a0858101519089015260c094850151151594909701939093525050509385019390850190600101612c8a565b50909a9950505050505050505050565b60008060408385031215612d2957600080fd5b612d3283612607565b91506108d460208401612607565b600181811c90821680612d5457607f821691505b60208210811415612d7557634e487b7160e01b600052602260045260246000fd5b50919050565b634e487b7160e01b600052601160045260246000fd5b6000600019821415612da557612da5612d7b565b5060010190565b6020808252602e908201527f4552433732313a2063616c6c6572206973206e6f7420746f6b656e206f776e6560408201526d1c881b9bdc88185c1c1c9bdd995960921b606082015260800190565b6000816000190483118215151615612e1457612e14612d7b565b500290565b634e487b7160e01b600052601260045260246000fd5b600082612e3e57612e3e612e19565b500490565b60208082526012908201527113d3931657d05113525397d0531313d5d15160721b604082015260600190565b6000808335601e19843603018112612e8657600080fd5b8301803591506001600160401b03821115612ea057600080fd5b6020019150600581901b3603821315612eb857600080fd5b9250929050565b60008235607e19833603018112612ed557600080fd5b9190910192915050565b5b818110156108785760008155600101612ee0565b612efe8154612d40565b801561087857601f811160018114612f1857505060009055565b826000526020600020612f36601f840160051c820160018301612edf565b506020600090812081855555505050565b8054600082558015610878578160005260206000208181015b8082101561150657612f7182612ef4565b600182019150612f60565b6000808335601e19843603018112612f9357600080fd5b8301803591506001600160401b03821115612fad57600080fd5b602001915036819003821315612eb857600080fd5b601f82111561075257806000526020600020601f840160051c81016020851015612fe95750805b612ffb601f850160051c830182612edf565b5050505050565b6001600160401b038311156130195761301961264d565b61302d836130278354612d40565b83612fc2565b6000601f84116001811461306157600085156130495750838201355b600019600387901b1c1916600186901b178355612ffb565b600083815260209020601f19861690835b828110156130925786850135825560209485019460019092019101613072565b50868210156130af5760001960f88860031b161c19848701351681555b505060018560011b0183555050505050565b6130cb8283612f7c565b6130d6818385613002565b5050600180820160206130eb81860186612e6f565b600160401b8111156130ff576130ff61264d565b8354818555808210156131385760008581528490208281019082015b808210156131355761312c82612ef4565b9087019061311b565b50505b50818460005283600020945060005b82811015613175576131598285612f7c565b61316481838a613002565b505094860194908401908601613147565b50505050505050604082013560028201556131936060830183612f7c565b611506818360038601613002565b6131ab8283612e6f565b600160401b8111156131bf576131bf61264d565b825481845580821015613251576001600160fe1b0360018183118116156131e8576131e8612d7b565b60028285118216156131fc576131fc612d7b565b60008781526020812090935085821b81019085831b015b8082101561324b5761322482612ef4565b61322f848301612f47565b848383015561324060038301612ef4565b600482019150613213565b50505050505b5060008381526020812083915b8381101561328f576132796132738487612ebf565b836130c1565b602092909201916004919091019060010161325e565b50505050505050565b634e487b7160e01b600052603260045260246000fd5b600060ff821660ff8114156132c5576132c5612d7b565b60010192915050565b805160ff8116811461261e57600080fd5b600082601f8301126132f057600080fd5b81516020613300612759836126dd565b82815260059290921b8401810191818101908684111561331f57600080fd5b8286015b8481101561339a5780516001600160401b038111156133425760008081fd5b8701603f810189136133545760008081fd5b84810151604061336661275983612856565b8281528b8284860101111561337b5760008081fd5b61338a83898301848701612583565b8652505050918301918301613323565b509695505050505050565b805161261e81612b9c565b600060208083850312156133c357600080fd5b82516001600160401b03808211156133da57600080fd5b818501915085601f8301126133ee57600080fd5b81516133fc612759826126dd565b81815260059190911b8301840190848101908883111561341b57600080fd5b8585015b838110156134db5780518581111561343657600080fd5b860160e0818c03601f1901121561344d5760008081fd5b61345561268b565b6134608983016132ce565b81526040808301518a83015260608084015182840152608091506134858285016132ce565b9083015260a0838101518981111561349d5760008081fd5b6134ab8f8d838801016132df565b838501525060c091508184015181840152506134c960e084016133a5565b9082015284525091860191860161341f565b5098975050505050505050565b6000828210156134fa576134fa612d7b565b500390565b60008551613511818460208a01612583565b855190830190613525818360208a01612583565b602f60f81b91018181528551909190613545816001850160208a01612583565b60019201918201528351613560816002840160208801612583565b016002019695505050505050565b6000821982111561358157613581612d7b565b500190565b60208082526032908201527f4552433732313a207472616e7366657220746f206e6f6e20455243373231526560408201527131b2b4bb32b91034b6b83632b6b2b73a32b960711b606082015260800190565b6000826135e7576135e7612e19565b500690565b6000816135fb576135fb612d7b565b506000190190565b6001600160a01b0385811682528416602082015260408101839052608060608201819052600090613636908301846125af565b9695505050505050565b60006020828403121561365257600080fd5b8151611e5a8161255056fea2646970667358221220bda3353b9b50405cd6d5aa319bf79c526c865b18d812f404c8fbb5882fcd4d1464736f6c634300080c0033",
  "linkReferences": {},
  "deployedLinkReferences": {}
}