{
  "_format": "hh-sol-artifact-1",
  "contractName": "GenerativeNFT",
  "sourceName": "contracts/nft/GenerativeNFT.sol",
  "abi": [
    {
      "inputs": [
        {
          "internalType": "string",
          "name": "_name",
          "type": "string"
        },
        {
          "internalType": "string",
          "name": "_symbol",
          "type": "string"
        },
        {
          "internalType": "string",
          "name": "_baseuri",
          "type": "string"
        },
        {
          "internalType": "address",
          "name": "admin",
          "type": "address"
        }
      ],
      "stateMutability": "nonpayable",
      "type": "constructor"
    },
    {
      "anonymous": false,
      "inputs": [
        {
          "indexed": true,
          "internalType": "address",
          "name": "owner",
          "type": "address"
        },
        {
          "indexed": true,
          "internalType": "address",
          "name": "approved",
          "type": "address"
        },
        {
          "indexed": true,
          "internalType": "uint256",
          "name": "tokenId",
          "type": "uint256"
        }
      ],
      "name": "Approval",
      "type": "event"
    },
    {
      "anonymous": false,
      "inputs": [
        {
          "indexed": true,
          "internalType": "address",
          "name": "owner",
          "type": "address"
        },
        {
          "indexed": true,
          "internalType": "address",
          "name": "operator",
          "type": "address"
        },
        {
          "indexed": false,
          "internalType": "bool",
          "name": "approved",
          "type": "bool"
        }
      ],
      "name": "ApprovalForAll",
      "type": "event"
    },
    {
      "anonymous": false,
      "inputs": [
        {
          "indexed": true,
          "internalType": "address",
          "name": "previousOwner",
          "type": "address"
        },
        {
          "indexed": true,
          "internalType": "address",
          "name": "newOwner",
          "type": "address"
        }
      ],
      "name": "OwnershipTransferred",
      "type": "event"
    },
    {
      "anonymous": false,
      "inputs": [
        {
          "indexed": false,
          "internalType": "address",
          "name": "account",
          "type": "address"
        }
      ],
      "name": "Paused",
      "type": "event"
    },
    {
      "anonymous": false,
      "inputs": [
        {
          "indexed": true,
          "internalType": "bytes32",
          "name": "role",
          "type": "bytes32"
        },
        {
          "indexed": true,
          "internalType": "bytes32",
          "name": "previousAdminRole",
          "type": "bytes32"
        },
        {
          "indexed": true,
          "internalType": "bytes32",
          "name": "newAdminRole",
          "type": "bytes32"
        }
      ],
      "name": "RoleAdminChanged",
      "type": "event"
    },
    {
      "anonymous": false,
      "inputs": [
        {
          "indexed": true,
          "internalType": "bytes32",
          "name": "role",
          "type": "bytes32"
        },
        {
          "indexed": true,
          "internalType": "address",
          "name": "account",
          "type": "address"
        },
        {
          "indexed": true,
          "internalType": "address",
          "name": "sender",
          "type": "address"
        }
      ],
      "name": "RoleGranted",
      "type": "event"
    },
    {
      "anonymous": false,
      "inputs": [
        {
          "indexed": true,
          "internalType": "bytes32",
          "name": "role",
          "type": "bytes32"
        },
        {
          "indexed": true,
          "internalType": "address",
          "name": "account",
          "type": "address"
        },
        {
          "indexed": true,
          "internalType": "address",
          "name": "sender",
          "type": "address"
        }
      ],
      "name": "RoleRevoked",
      "type": "event"
    },
    {
      "anonymous": false,
      "inputs": [
        {
          "indexed": true,
          "internalType": "address",
          "name": "from",
          "type": "address"
        },
        {
          "indexed": true,
          "internalType": "address",
          "name": "to",
          "type": "address"
        },
        {
          "indexed": true,
          "internalType": "uint256",
          "name": "tokenId",
          "type": "uint256"
        }
      ],
      "name": "Transfer",
      "type": "event"
    },
    {
      "anonymous": false,
      "inputs": [
        {
          "indexed": false,
          "internalType": "address",
          "name": "account",
          "type": "address"
        }
      ],
      "name": "Unpaused",
      "type": "event"
    },
    {
      "inputs": [],
      "name": "DEFAULT_ADMIN_ROLE",
      "outputs": [
        {
          "internalType": "bytes32",
          "name": "",
          "type": "bytes32"
        }
      ],
      "stateMutability": "view",
      "type": "function"
    },
    {
      "inputs": [],
      "name": "MINTER_ROLE",
      "outputs": [
        {
          "internalType": "bytes32",
          "name": "",
          "type": "bytes32"
        }
      ],
      "stateMutability": "view",
      "type": "function"
    },
    {
      "inputs": [],
      "name": "PAUSER_ROLE",
      "outputs": [
        {
          "internalType": "bytes32",
          "name": "",
          "type": "bytes32"
        }
      ],
      "stateMutability": "view",
      "type": "function"
    },
    {
      "inputs": [],
      "name": "_admin",
      "outputs": [
        {
          "internalType": "address",
          "name": "",
          "type": "address"
        }
      ],
      "stateMutability": "view",
      "type": "function"
    },
    {
      "inputs": [],
      "name": "_boilerplateAddr",
      "outputs": [
        {
          "internalType": "address",
          "name": "",
          "type": "address"
        }
      ],
      "stateMutability": "view",
      "type": "function"
    },
    {
      "inputs": [],
      "name": "_boilerplateId",
      "outputs": [
        {
          "internalType": "uint256",
          "name": "",
          "type": "uint256"
        }
      ],
      "stateMutability": "view",
      "type": "function"
    },
    {
      "inputs": [
        {
          "internalType": "uint256",
          "name": "",
          "type": "uint256"
        }
      ],
      "name": "_creators",
      "outputs": [
        {
          "internalType": "address",
          "name": "",
          "type": "address"
        }
      ],
      "stateMutability": "view",
      "type": "function"
    },
    {
      "inputs": [
        {
          "internalType": "uint256",
          "name": "",
          "type": "uint256"
        }
      ],
      "name": "_paramsValues",
      "outputs": [
        {
          "internalType": "bytes32",
          "name": "_seed",
          "type": "bytes32"
        }
      ],
      "stateMutability": "view",
      "type": "function"
    },
    {
      "inputs": [
        {
          "internalType": "address",
          "name": "to",
          "type": "address"
        },
        {
          "internalType": "uint256",
          "name": "tokenId",
          "type": "uint256"
        }
      ],
      "name": "approve",
      "outputs": [],
      "stateMutability": "nonpayable",
      "type": "function"
    },
    {
      "inputs": [
        {
          "internalType": "address",
          "name": "owner",
          "type": "address"
        }
      ],
      "name": "balanceOf",
      "outputs": [
        {
          "internalType": "uint256",
          "name": "",
          "type": "uint256"
        }
      ],
      "stateMutability": "view",
      "type": "function"
    },
    {
      "inputs": [],
      "name": "baseTokenURI",
      "outputs": [
        {
          "internalType": "string",
          "name": "",
          "type": "string"
        }
      ],
      "stateMutability": "view",
      "type": "function"
    },
    {
      "inputs": [
        {
          "internalType": "uint256",
          "name": "tokenId",
          "type": "uint256"
        }
      ],
      "name": "burn",
      "outputs": [],
      "stateMutability": "nonpayable",
      "type": "function"
    },
    {
      "inputs": [
        {
          "internalType": "address",
          "name": "_newAdmin",
          "type": "address"
        }
      ],
      "name": "changeAdmin",
      "outputs": [],
      "stateMutability": "nonpayable",
      "type": "function"
    },
    {
      "inputs": [
        {
          "internalType": "uint256",
          "name": "tokenId",
          "type": "uint256"
        }
      ],
      "name": "getApproved",
      "outputs": [
        {
          "internalType": "address",
          "name": "",
          "type": "address"
        }
      ],
      "stateMutability": "view",
      "type": "function"
    },
    {
      "inputs": [
        {
          "internalType": "bytes32",
          "name": "role",
          "type": "bytes32"
        }
      ],
      "name": "getRoleAdmin",
      "outputs": [
        {
          "internalType": "bytes32",
          "name": "",
          "type": "bytes32"
        }
      ],
      "stateMutability": "view",
      "type": "function"
    },
    {
      "inputs": [
        {
          "internalType": "bytes32",
          "name": "role",
          "type": "bytes32"
        },
        {
          "internalType": "uint256",
          "name": "index",
          "type": "uint256"
        }
      ],
      "name": "getRoleMember",
      "outputs": [
        {
          "internalType": "address",
          "name": "",
          "type": "address"
        }
      ],
      "stateMutability": "view",
      "type": "function"
    },
    {
      "inputs": [
        {
          "internalType": "bytes32",
          "name": "role",
          "type": "bytes32"
        }
      ],
      "name": "getRoleMemberCount",
      "outputs": [
        {
          "internalType": "uint256",
          "name": "",
          "type": "uint256"
        }
      ],
      "stateMutability": "view",
      "type": "function"
    },
    {
      "inputs": [
        {
          "internalType": "bytes32",
          "name": "role",
          "type": "bytes32"
        },
        {
          "internalType": "address",
          "name": "account",
          "type": "address"
        }
      ],
      "name": "grantRole",
      "outputs": [],
      "stateMutability": "nonpayable",
      "type": "function"
    },
    {
      "inputs": [
        {
          "internalType": "bytes32",
          "name": "role",
          "type": "bytes32"
        },
        {
          "internalType": "address",
          "name": "account",
          "type": "address"
        }
      ],
      "name": "hasRole",
      "outputs": [
        {
          "internalType": "bool",
          "name": "",
          "type": "bool"
        }
      ],
      "stateMutability": "view",
      "type": "function"
    },
    {
      "inputs": [
        {
          "internalType": "string",
          "name": "name",
          "type": "string"
        },
        {
          "internalType": "string",
          "name": "symbol",
          "type": "string"
        },
        {
          "internalType": "address",
          "name": "admin",
          "type": "address"
        },
        {
          "internalType": "address",
          "name": "boilerplateAdd",
          "type": "address"
        },
        {
          "internalType": "uint256",
          "name": "boilerplateId",
          "type": "uint256"
        }
      ],
      "name": "init",
      "outputs": [],
      "stateMutability": "nonpayable",
      "type": "function"
    },
    {
      "inputs": [
        {
          "internalType": "address",
          "name": "owner",
          "type": "address"
        },
        {
          "internalType": "address",
          "name": "operator",
          "type": "address"
        }
      ],
      "name": "isApprovedForAll",
      "outputs": [
        {
          "internalType": "bool",
          "name": "",
          "type": "bool"
        }
      ],
      "stateMutability": "view",
      "type": "function"
    },
    {
      "inputs": [
        {
          "internalType": "address",
          "name": "to",
          "type": "address"
        }
      ],
      "name": "mint",
      "outputs": [],
      "stateMutability": "nonpayable",
      "type": "function"
    },
    {
      "inputs": [
        {
          "internalType": "address",
          "name": "mintTo",
          "type": "address"
        },
        {
          "internalType": "address",
          "name": "creator",
          "type": "address"
        },
        {
          "internalType": "string",
          "name": "uri",
          "type": "string"
        },
        {
          "components": [
            {
              "internalType": "bytes32",
              "name": "_seed",
              "type": "bytes32"
            },
            {
              "components": [
                {
                  "internalType": "uint8",
                  "name": "_typeValue",
                  "type": "uint8"
                },
                {
                  "internalType": "uint256",
                  "name": "_max",
                  "type": "uint256"
                },
                {
                  "internalType": "uint256",
                  "name": "_min",
                  "type": "uint256"
                },
                {
                  "internalType": "uint8",
                  "name": "_decimal",
                  "type": "uint8"
                },
                {
                  "internalType": "string[]",
                  "name": "_availableValues",
                  "type": "string[]"
                },
                {
                  "internalType": "uint256",
                  "name": "_value",
                  "type": "uint256"
                },
                {
                  "internalType": "bool",
                  "name": "_editable",
                  "type": "bool"
                }
              ],
              "internalType": "struct BoilerplateParam.ParamTemplate[]",
              "name": "_params",
              "type": "tuple[]"
            }
          ],
          "internalType": "struct BoilerplateParam.ParamsOfProject",
          "name": "_paramsTemplateValue",
          "type": "tuple"
        },
        {
          "internalType": "bool",
          "name": "clientSeed",
          "type": "bool"
        }
      ],
      "name": "mint",
      "outputs": [],
      "stateMutability": "nonpayable",
      "type": "function"
    },
    {
      "inputs": [],
      "name": "name",
      "outputs": [
        {
          "internalType": "string",
          "name": "",
          "type": "string"
        }
      ],
      "stateMutability": "view",
      "type": "function"
    },
    {
      "inputs": [],
      "name": "owner",
      "outputs": [
        {
          "internalType": "address",
          "name": "",
          "type": "address"
        }
      ],
      "stateMutability": "view",
      "type": "function"
    },
    {
      "inputs": [
        {
          "internalType": "uint256",
          "name": "tokenId",
          "type": "uint256"
        }
      ],
      "name": "ownerOf",
      "outputs": [
        {
          "internalType": "address",
          "name": "",
          "type": "address"
        }
      ],
      "stateMutability": "view",
      "type": "function"
    },
    {
      "inputs": [],
      "name": "pause",
      "outputs": [],
      "stateMutability": "nonpayable",
      "type": "function"
    },
    {
      "inputs": [],
      "name": "paused",
      "outputs": [
        {
          "internalType": "bool",
          "name": "",
          "type": "bool"
        }
      ],
      "stateMutability": "view",
      "type": "function"
    },
    {
      "inputs": [],
      "name": "renounceOwnership",
      "outputs": [],
      "stateMutability": "nonpayable",
      "type": "function"
    },
    {
      "inputs": [
        {
          "internalType": "bytes32",
          "name": "role",
          "type": "bytes32"
        },
        {
          "internalType": "address",
          "name": "account",
          "type": "address"
        }
      ],
      "name": "renounceRole",
      "outputs": [],
      "stateMutability": "nonpayable",
      "type": "function"
    },
    {
      "inputs": [
        {
          "internalType": "bytes32",
          "name": "role",
          "type": "bytes32"
        },
        {
          "internalType": "address",
          "name": "account",
          "type": "address"
        }
      ],
      "name": "revokeRole",
      "outputs": [],
      "stateMutability": "nonpayable",
      "type": "function"
    },
    {
      "inputs": [
        {
          "internalType": "uint256",
          "name": "",
          "type": "uint256"
        }
      ],
      "name": "royalties",
      "outputs": [
        {
          "internalType": "address",
          "name": "recipient",
          "type": "address"
        },
        {
          "internalType": "uint24",
          "name": "amount",
          "type": "uint24"
        },
        {
          "internalType": "bool",
          "name": "isValue",
          "type": "bool"
        }
      ],
      "stateMutability": "view",
      "type": "function"
    },
    {
      "inputs": [
        {
          "internalType": "uint256",
          "name": "_tokenId",
          "type": "uint256"
        },
        {
          "internalType": "uint256",
          "name": "_salePrice",
          "type": "uint256"
        }
      ],
      "name": "royaltyInfo",
      "outputs": [
        {
          "internalType": "address",
          "name": "receiver",
          "type": "address"
        },
        {
          "internalType": "uint256",
          "name": "royaltyAmount",
          "type": "uint256"
        }
      ],
      "stateMutability": "view",
      "type": "function"
    },
    {
      "inputs": [
        {
          "internalType": "address",
          "name": "from",
          "type": "address"
        },
        {
          "internalType": "address",
          "name": "to",
          "type": "address"
        },
        {
          "internalType": "uint256",
          "name": "tokenId",
          "type": "uint256"
        }
      ],
      "name": "safeTransferFrom",
      "outputs": [],
      "stateMutability": "nonpayable",
      "type": "function"
    },
    {
      "inputs": [
        {
          "internalType": "address",
          "name": "from",
          "type": "address"
        },
        {
          "internalType": "address",
          "name": "to",
          "type": "address"
        },
        {
          "internalType": "uint256",
          "name": "tokenId",
          "type": "uint256"
        },
        {
          "internalType": "bytes",
          "name": "data",
          "type": "bytes"
        }
      ],
      "name": "safeTransferFrom",
      "outputs": [],
      "stateMutability": "nonpayable",
      "type": "function"
    },
    {
      "inputs": [
        {
          "internalType": "address",
          "name": "operator",
          "type": "address"
        },
        {
          "internalType": "bool",
          "name": "approved",
          "type": "bool"
        }
      ],
      "name": "setApprovalForAll",
      "outputs": [],
      "stateMutability": "nonpayable",
      "type": "function"
    },
    {
      "inputs": [
        {
          "internalType": "address",
          "name": "_to",
          "type": "address"
        },
        {
          "internalType": "uint256[]",
          "name": "_ids",
          "type": "uint256[]"
        }
      ],
      "name": "setCreator",
      "outputs": [],
      "stateMutability": "nonpayable",
      "type": "function"
    },
    {
      "inputs": [
        {
          "internalType": "uint256",
          "name": "_tokenId",
          "type": "uint256"
        },
        {
          "internalType": "string",
          "name": "_newURI",
          "type": "string"
        }
      ],
      "name": "setCustomURI",
      "outputs": [],
      "stateMutability": "nonpayable",
      "type": "function"
    },
    {
      "inputs": [
        {
          "internalType": "uint256",
          "name": "_tokenId",
          "type": "uint256"
        },
        {
          "internalType": "address",
          "name": "_recipient",
          "type": "address"
        },
        {
          "internalType": "uint256",
          "name": "_value",
          "type": "uint256"
        }
      ],
      "name": "setTokenRoyalty",
      "outputs": [],
      "stateMutability": "nonpayable",
      "type": "function"
    },
    {
      "inputs": [
        {
          "internalType": "bytes4",
          "name": "interfaceId",
          "type": "bytes4"
        }
      ],
      "name": "supportsInterface",
      "outputs": [
        {
          "internalType": "bool",
          "name": "",
          "type": "bool"
        }
      ],
      "stateMutability": "view",
      "type": "function"
    },
    {
      "inputs": [],
      "name": "symbol",
      "outputs": [
        {
          "internalType": "string",
          "name": "",
          "type": "string"
        }
      ],
      "stateMutability": "view",
      "type": "function"
    },
    {
      "inputs": [
        {
          "internalType": "uint256",
          "name": "index",
          "type": "uint256"
        }
      ],
      "name": "tokenByIndex",
      "outputs": [
        {
          "internalType": "uint256",
          "name": "",
          "type": "uint256"
        }
      ],
      "stateMutability": "view",
      "type": "function"
    },
    {
      "inputs": [
        {
          "internalType": "address",
          "name": "owner",
          "type": "address"
        },
        {
          "internalType": "uint256",
          "name": "index",
          "type": "uint256"
        }
      ],
      "name": "tokenOfOwnerByIndex",
      "outputs": [
        {
          "internalType": "uint256",
          "name": "",
          "type": "uint256"
        }
      ],
      "stateMutability": "view",
      "type": "function"
    },
    {
      "inputs": [
        {
          "internalType": "uint256",
          "name": "_tokenId",
          "type": "uint256"
        }
      ],
      "name": "tokenURI",
      "outputs": [
        {
          "internalType": "string",
          "name": "",
          "type": "string"
        }
      ],
      "stateMutability": "view",
      "type": "function"
    },
    {
      "inputs": [],
      "name": "totalSupply",
      "outputs": [
        {
          "internalType": "uint256",
          "name": "",
          "type": "uint256"
        }
      ],
      "stateMutability": "view",
      "type": "function"
    },
    {
      "inputs": [
        {
          "internalType": "address",
          "name": "from",
          "type": "address"
        },
        {
          "internalType": "address",
          "name": "to",
          "type": "address"
        },
        {
          "internalType": "uint256",
          "name": "tokenId",
          "type": "uint256"
        }
      ],
      "name": "transferFrom",
      "outputs": [],
      "stateMutability": "nonpayable",
      "type": "function"
    },
    {
      "inputs": [
        {
          "internalType": "address",
          "name": "newOwner",
          "type": "address"
        }
      ],
      "name": "transferOwnership",
      "outputs": [],
      "stateMutability": "nonpayable",
      "type": "function"
    },
    {
      "inputs": [],
      "name": "unpause",
      "outputs": [],
      "stateMutability": "nonpayable",
      "type": "function"
    }
  ],
  "bytecode": "0x60806040523480156200001157600080fd5b50604051620043ff380380620043ff833981016040819052620000349162000456565b8383838282816002908051906020019062000051929190620002e3565b50805162000067906003906020840190620002e3565b5050600c805460ff191690555080516200008990600e906020840190620002e3565b50620000976000336200012c565b620000c37f9f2df0fed2c77648de5860a4cc508cd0818c85b8b8a1ab4ceeef8d981c8956a6336200012c565b620000ef7f65d7a28e3265b37a6474929f336521b332c1681b933f6cb9f3376673440d862a336200012c565b50506001600f555062000102336200013c565b601280546001600160a01b0319166001600160a01b03929092169190911790555062000546915050565b6200013882826200018e565b5050565b601080546001600160a01b038381166001600160a01b0319831681179093556040519116919082907f8be0079c531659141344cd1fd0a4f28419497f9722a3daafe3b4186f6b6457e090600090a35050565b620001a58282620001d160201b62001a2a1760201c565b6000828152600160209081526040909120620001cc91839062001aae62000271821b17901c565b505050565b6000828152602081815260408083206001600160a01b038516845290915290205460ff1662000138576000828152602081815260408083206001600160a01b03851684529091529020805460ff191660011790556200022d3390565b6001600160a01b0316816001600160a01b0316837f2f8788117e7eff1d82e926ec794901d17c78024a50270940304540a733656f0d60405160405180910390a45050565b600062000288836001600160a01b03841662000291565b90505b92915050565b6000818152600183016020526040812054620002da575081546001818101845560008481526020808220909301849055845484825282860190935260409020919091556200028b565b5060006200028b565b828054620002f19062000509565b90600052602060002090601f01602090048101928262000315576000855562000360565b82601f106200033057805160ff191683800117855562000360565b8280016001018555821562000360579182015b828111156200036057825182559160200191906001019062000343565b506200036e92915062000372565b5090565b5b808211156200036e576000815560010162000373565b634e487b7160e01b600052604160045260246000fd5b600082601f830112620003b157600080fd5b81516001600160401b0380821115620003ce57620003ce62000389565b604051601f8301601f19908116603f01168101908282118183101715620003f957620003f962000389565b816040528381526020925086838588010111156200041657600080fd5b600091505b838210156200043a57858201830151818301840152908201906200041b565b838211156200044c5760008385830101525b9695505050505050565b600080600080608085870312156200046d57600080fd5b84516001600160401b03808211156200048557600080fd5b62000493888389016200039f565b95506020870151915080821115620004aa57600080fd5b620004b8888389016200039f565b94506040870151915080821115620004cf57600080fd5b50620004de878288016200039f565b606087015190935090506001600160a01b0381168114620004fe57600080fd5b939692955090935050565b600181811c908216806200051e57607f821691505b602082108114156200054057634e487b7160e01b600052602260045260246000fd5b50919050565b613ea980620005566000396000f3fe608060405234801561001057600080fd5b50600436106102a05760003560e01c80637f77f57411610167578063ae3dd095116100ce578063d547741f11610087578063d547741f14610658578063d547cfb71461066b578063e63ab1e914610673578063e985e9c514610688578063f2fde38b146106c4578063f9ecc22c146106d757600080fd5b8063ae3dd095146105e4578063b88d4fde146105f7578063c87b56dd1461060a578063ca15c8731461061d578063d2a6b51a14610630578063d53913931461064357600080fd5b806391d148541161012057806391d148541461057b578063953cd2461461058e57806395d89b41146105ae5780639713c807146105b6578063a217fddf146105c9578063a22cb465146105d157600080fd5b80637f77f574146104bc57806381aa7929146105295780638456cb591461053c5780638da5cb5b146105445780638f283970146105555780639010d07c1461056857600080fd5b80633adf80b41161020b578063531f7b53116101c4578063531f7b53146104695780635c975abb146104725780636352211e1461047d5780636a6278421461049057806370a08231146104a1578063715018a6146104b457600080fd5b80633adf80b4146103ec5780633f4ba83a146103ff57806342842e0e1461040757806342966c681461041a5780634816edf41461042d5780634f6ccce71461045657600080fd5b806323b872dd1161025d57806323b872dd1461034b578063248a9ca31461035e5780632a55205a146103815780632f2ff15d146103b35780632f745c59146103c657806336568abe146103d957600080fd5b806301bc45c9146102a557806301ffc9a7146102d557806306fdde03146102f8578063081812fc1461030d578063095ea7b31461032057806318160ddd14610335575b600080fd5b6012546102b8906001600160a01b031681565b6040516001600160a01b0390911681526020015b60405180910390f35b6102e86102e3366004612f17565b6106ea565b60405190151581526020016102cc565b6103006106fb565b6040516102cc9190612f8c565b6102b861031b366004612f9f565b61078d565b61033361032e366004612fd4565b6107b4565b005b61033d6108cf565b6040519081526020016102cc565b610333610359366004612ffe565b6108eb565b61033d61036c366004612f9f565b60009081526020819052604090206001015490565b61039461038f36600461303a565b61091d565b604080516001600160a01b0390931683526020830191909152016102cc565b6103336103c136600461305c565b6109df565b61033d6103d4366004612fd4565b610a04565b6103336103e736600461305c565b610a9a565b6103336103fa36600461316d565b610b18565b610333610b94565b610333610415366004612ffe565b610c2a565b610333610428366004612f9f565b610c45565b6102b861043b366004612f9f565b6017602052600090815260409020546001600160a01b031681565b61033d610464366004612f9f565b610c73565b61033d60145481565b600c5460ff166102e8565b6102b861048b366004612f9f565b610d06565b61033361049e3660046131a9565b50565b61033d6104af3660046131a9565b610d66565b610333610dec565b6104fe6104ca366004612f9f565b601a602052600090815260409020546001600160a01b03811690600160a01b810462ffffff1690600160b81b900460ff1683565b604080516001600160a01b03909416845262ffffff90921660208401521515908201526060016102cc565b6103336105373660046131dd565b610dfe565b6103336112db565b6012546001600160a01b03166102b8565b6103336105633660046131a9565b61136d565b6102b861057636600461303a565b6114bb565b6102e861058936600461305c565b6114da565b61033d61059c366004612f9f565b60156020526000908152604090205481565b610300611503565b6103336105c436600461327b565b611512565b61033d600081565b6103336105df3660046132a0565b611623565b6103336105f23660046132d7565b61162e565b610333610605366004613363565b611715565b610300610618366004612f9f565b611747565b61033d61062b366004612f9f565b6118cd565b61033361063e366004613401565b6118e4565b61033d600080516020613e5483398151915281565b61033361066636600461305c565b611985565b6103006119aa565b61033d600080516020613e3483398151915281565b6102e86106963660046134a9565b6001600160a01b03918216600090815260076020908152604080832093909416825291909152205460ff1690565b6103336106d23660046131a9565b6119b4565b6013546102b8906001600160a01b031681565b60006106f582611ac3565b92915050565b60606018805461070a906134d3565b80601f0160208091040260200160405190810160405280929190818152602001828054610736906134d3565b80156107835780601f1061075857610100808354040283529160200191610783565b820191906000526020600020905b81548152906001019060200180831161076657829003601f168201915b5050505050905090565b600061079882611ae8565b506000908152600660205260409020546001600160a01b031690565b60006107bf82610d06565b9050806001600160a01b0316836001600160a01b031614156108325760405162461bcd60e51b815260206004820152602160248201527f4552433732313a20617070726f76616c20746f2063757272656e74206f776e656044820152603960f91b60648201526084015b60405180910390fd5b336001600160a01b038216148061084e575061084e8133610696565b6108c05760405162461bcd60e51b815260206004820152603e60248201527f4552433732313a20617070726f76652063616c6c6572206973206e6f7420746f60448201527f6b656e206f776e6572206e6f7220617070726f76656420666f7220616c6c00006064820152608401610829565b6108ca8383611b47565b505050565b600060016108dc60115490565b6108e6919061351e565b905090565b6108f6335b82611bb5565b6109125760405162461bcd60e51b815260040161082990613535565b6108ca838383611c34565b6000828152601a60209081526040808320815160608101835290546001600160a01b0381168252600160a01b810462ffffff1693820193909352600160b81b90920460ff16158015918301919091528291906109a15780516020820151909350612710906109909062ffffff1686613583565b61099a91906135b8565b91506109d7565b6000858152601760205260409020546001600160a01b031692506127106109ca856101f4613583565b6109d491906135b8565b91505b509250929050565b6000828152602081905260409020600101546109fa81611ddb565b6108ca8383611de5565b6000610a0f83610d66565b8210610a715760405162461bcd60e51b815260206004820152602b60248201527f455243373231456e756d657261626c653a206f776e657220696e646578206f7560448201526a74206f6620626f756e647360a81b6064820152608401610829565b506001600160a01b03919091166000908152600860209081526040808320938352929052205490565b6001600160a01b0381163314610b0a5760405162461bcd60e51b815260206004820152602f60248201527f416363657373436f6e74726f6c3a2063616e206f6e6c792072656e6f756e636560448201526e103937b632b9903337b91039b2b63360891b6064820152608401610829565b610b148282611e07565b5050565b60008281526017602052604090205482906001600160a01b03163314610b6f5760405162461bcd60e51b815260206004820152600c60248201526b27a7262cafa1a922a0aa27a960a11b6044820152606401610829565b60008381526016602090815260409091208351610b8e92850190612e68565b50505050565b610bac600080516020613e34833981519152336114da565b610c20576040805162461bcd60e51b81526020600482015260248101919091527f4552433732315072657365744d696e7465725061757365724175746f49643a2060448201527f6d75737420686176652070617573657220726f6c6520746f20756e70617573656064820152608401610829565b610c28611e29565b565b6108ca83838360405180602001604052806000815250611715565b610c4e336108f0565b610c6a5760405162461bcd60e51b815260040161082990613535565b61049e81611e7b565b6000610c7e600a5490565b8210610ce15760405162461bcd60e51b815260206004820152602c60248201527f455243373231456e756d657261626c653a20676c6f62616c20696e646578206f60448201526b7574206f6620626f756e647360a01b6064820152608401610829565b600a8281548110610cf457610cf46135cc565b90600052602060002001549050919050565b6000818152600460205260408120546001600160a01b0316806106f55760405162461bcd60e51b8152602060048201526018602482015277115490cdcc8c4e881a5b9d985b1a59081d1bdad95b88125160421b6044820152606401610829565b60006001600160a01b038216610dd05760405162461bcd60e51b815260206004820152602960248201527f4552433732313a2061646472657373207a65726f206973206e6f7420612076616044820152683634b21037bbb732b960b91b6064820152608401610829565b506001600160a01b031660009081526005602052604090205490565b610df4611f22565b610c286000611fa0565b60135460408051808201909152600381526206460760eb1b6020820152906001600160a01b03163314610e445760405162461bcd60e51b81526004016108299190612f8c565b506013546001600160a01b031615801590610e6157506000601454115b6040518060400160405280600381526020016219181960e91b81525090610e9b5760405162461bcd60e51b81526004016108299190612f8c565b508061100b57813560005b610eb360208501856135e2565b9050811015611008576000610ecb60208601866135e2565b83818110610edb57610edb6135cc565b9050602002810190610eed9190613632565b610ef6906136f6565b805190915060ff1615610fbd57608081015151610f69578060a00151610f288460001c83604001518460200151611ff2565b146040518060400160405280600381526020016219181b60e91b81525090610f635760405162461bcd60e51b81526004016108299190612f8c565b50610fbd565b8060a00151610f808460001c83608001515161201d565b146040518060400160405280600381526020016232303760e81b81525090610fbb5760405162461bcd60e51b81526004016108299190612f8c565b505b60a0810151604051610fdc918591602001918252602082015260400190565b6040516020818303038152906040528051906020012092505080806110009061378c565b915050610ea6565b50505b601354601454604051634f558e7960e01b815260048101919091526001600160a01b03909116908190634f558e7990602401602060405180830381865afa15801561105a573d6000803e3d6000fd5b505050506040513d601f19601f8201168201806040525081019061107e91906137a7565b6040518060400160405280600381526020016219181960e91b815250906110b85760405162461bcd60e51b81526004016108299190612f8c565b5060145460405163030595d760e01b815260048101919091526001600160a01b0382169063030595d790602401602060405180830381865afa158015611102573d6000803e3d6000fd5b505050506040513d601f19601f8201168201806040525081019061112691906137c4565b1580611209575060145460405163030595d760e01b815260048101919091526001600160a01b0382169063030595d790602401602060405180830381865afa158015611176573d6000803e3d6000fd5b505050506040513d601f19601f8201168201806040525081019061119a91906137c4565b601454604051631fded86160e11b815260048101919091526001600160a01b03831690633fbdb0c290602401602060405180830381865afa1580156111e3573d6000803e3d6000fd5b505050506040513d601f19601f8201168201806040525081019061120791906137c4565b105b6040518060400160405280600381526020016232303360e81b815250906112435760405162461bcd60e51b81526004016108299190612f8c565b50611252601180546001019055565b600061125d60115490565b855190915015611288576000818152601660209081526040909120865161128692880190612e68565b505b600081815260176020908152604080832080546001600160a01b0319166001600160a01b038b161790556015909152902084906112c58282613b1f565b9050506112d28782612029565b50505050505050565b6112f3600080516020613e34833981519152336114da565b6113655760405162461bcd60e51b815260206004820152603e60248201527f4552433732315072657365744d696e7465725061757365724175746f49643a2060448201527f6d75737420686176652070617573657220726f6c6520746f20706175736500006064820152608401610829565b610c28612043565b6012546001600160a01b0316336001600160a01b0316146113a05760405162461bcd60e51b815260040161082990613c3d565b6113ab6000336114da565b6113c75760405162461bcd60e51b815260040161082990613c3d565b60408051808201909152600381526203130360ec1b60208201526001600160a01b0382166114085760405162461bcd60e51b81526004016108299190612f8c565b50601280546001600160a01b038381166001600160a01b0319831681179093551690611436906000906109df565b60125461145b90600080516020613e54833981519152906001600160a01b03166109df565b60125461148090600080516020613e34833981519152906001600160a01b03166109df565b61148b600082611985565b6114a3600080516020613e5483398151915282611985565b610b14600080516020613e3483398151915282611985565b60008281526001602052604081206114d39083612080565b9392505050565b6000918252602082815260408084206001600160a01b0393909316845291905290205460ff1690565b60606019805461070a906134d3565b6012546001600160a01b0316336001600160a01b0316146115455760405162461bcd60e51b815260040161082990613c3d565b6115506000336114da565b61156c5760405162461bcd60e51b815260040161082990613c3d565b60408051808201909152600381526232303360e81b60208201526127108211156115a95760405162461bcd60e51b81526004016108299190612f8c565b50604080516060810182526001600160a01b03938416815262ffffff928316602080830191825260018385019081526000978852601a90915292909520905181549551925194166001600160b81b031990951694909417600160a01b91909216021760ff60b81b1916600160b81b91151591909102179055565b610b1433838361208c565b6001600160a01b0382166116545760405162461bcd60e51b815260040161082990613c69565b6001600160a01b03831661167a5760405162461bcd60e51b815260040161082990613c69565b601454156116b45760405162461bcd60e51b815260206004820152600760248201526611561254d5115160ca1b6044820152606401610829565b84516116c7906018906020880190612e68565b5083516116db906019906020870190612e68565b50601380546001600160a01b0319166001600160a01b03841617905560148190556117058361215b565b61170e836119b4565b5050505050565b61171f3383611bb5565b61173b5760405162461bcd60e51b815260040161082990613535565b610b8e84848484612247565b600081815260166020526040812080546060929190611765906134d3565b80601f0160208091040260200160405190810160405280929190818152602001828054611791906134d3565b80156117de5780601f106117b3576101008083540402835291602001916117de565b820191906000526020600020905b8154815290600101906020018083116117c157829003601f168201915b5050505050905060008151111561188e5760008381526016602052604090208054611808906134d3565b80601f0160208091040260200160405190810160405280929190818152602001828054611834906134d3565b80156118815780601f1061185657610100808354040283529160200191611881565b820191906000526020600020905b81548152906001019060200180831161186457829003601f168201915b5050505050915050919050565b6118966119aa565b61189f8461227a565b6040516020016118b0929190613c8a565b604051602081830303815290604052915050919050565b50919050565b60008181526001602052604081206106f590612377565b60408051808201909152600381526203130360ec1b60208201526001600160a01b0383166119255760405162461bcd60e51b81526004016108299190612f8c565b5061193e600080516020613e5483398151915283611de5565b60005b81518110156108ca57600082828151811061195e5761195e6135cc565b602002602001015190506119728482612381565b508061197d8161378c565b915050611941565b6000828152602081905260409020600101546119a081611ddb565b6108ca8383611e07565b60606108e6612407565b6119bc611f22565b6001600160a01b038116611a215760405162461bcd60e51b815260206004820152602660248201527f4f776e61626c653a206e6577206f776e657220697320746865207a65726f206160448201526564647265737360d01b6064820152608401610829565b61049e81611fa0565b611a3482826114da565b610b14576000828152602081815260408083206001600160a01b03851684529091529020805460ff19166001179055611a6a3390565b6001600160a01b0316816001600160a01b0316837f2f8788117e7eff1d82e926ec794901d17c78024a50270940304540a733656f0d60405160405180910390a45050565b60006114d3836001600160a01b038416612416565b60006001600160e01b0319821663780e9d6360e01b14806106f557506106f582612465565b6000818152600460205260409020546001600160a01b031661049e5760405162461bcd60e51b8152602060048201526018602482015277115490cdcc8c4e881a5b9d985b1a59081d1bdad95b88125160421b6044820152606401610829565b600081815260066020526040902080546001600160a01b0319166001600160a01b0384169081179091558190611b7c82610d06565b6001600160a01b03167f8c5be1e5ebec7d5bd14f71427d1e84f3dd0314c0f7b2291e5b200ac8c7c3b92560405160405180910390a45050565b600080611bc183610d06565b9050806001600160a01b0316846001600160a01b03161480611c0857506001600160a01b0380821660009081526007602090815260408083209388168352929052205460ff165b80611c2c5750836001600160a01b0316611c218461078d565b6001600160a01b0316145b949350505050565b826001600160a01b0316611c4782610d06565b6001600160a01b031614611cab5760405162461bcd60e51b815260206004820152602560248201527f4552433732313a207472616e736665722066726f6d20696e636f72726563742060448201526437bbb732b960d91b6064820152608401610829565b6001600160a01b038216611d0d5760405162461bcd60e51b8152602060048201526024808201527f4552433732313a207472616e7366657220746f20746865207a65726f206164646044820152637265737360e01b6064820152608401610829565b611d188383836124a5565b611d23600082611b47565b6001600160a01b0383166000908152600560205260408120805460019290611d4c90849061351e565b90915550506001600160a01b0382166000908152600560205260408120805460019290611d7a908490613cb9565b909155505060008181526004602052604080822080546001600160a01b0319166001600160a01b0386811691821790925591518493918716917fddf252ad1be2c89b69c2b068fc378daa952ba7f163c4a11628f55a4df523b3ef91a4505050565b61049e81336124b0565b611def8282611a2a565b60008281526001602052604090206108ca9082611aae565b611e118282612514565b60008281526001602052604090206108ca9082612579565b611e3161258e565b600c805460ff191690557f5db9ee0a495bf2e6ff9c91a7834c1ba4fdd244a5e8aa4e537bd38aeae4b073aa335b6040516001600160a01b03909116815260200160405180910390a1565b6000611e8682610d06565b9050611e94816000846124a5565b611e9f600083611b47565b6001600160a01b0381166000908152600560205260408120805460019290611ec890849061351e565b909155505060008281526004602052604080822080546001600160a01b0319169055518391906001600160a01b038416907fddf252ad1be2c89b69c2b068fc378daa952ba7f163c4a11628f55a4df523b3ef908390a45050565b33611f356012546001600160a01b031690565b6001600160a01b03161480611f5457506013546001600160a01b031633145b610c285760405162461bcd60e51b815260206004820181905260248201527f4f776e61626c653a2063616c6c6572206973206e6f7420746865206f776e65726044820152606401610829565b601080546001600160a01b038381166001600160a01b0319831681179093556040519116919082907f8be0079c531659141344cd1fd0a4f28419497f9722a3daafe3b4186f6b6457e090600090a35050565b6000611ffe838361351e565b612009906001613cb9565b6120139085613cd1565b611c2c9084613cb9565b60006114d38284613cd1565b610b148282604051806020016040528060008152506125d7565b61204b61260a565b600c805460ff191660011790557f62e78cea01bee320cd4e420270b5ea74000d11b0c9f74754ebdbfc544b05a258611e5e3390565b60006114d38383612650565b816001600160a01b0316836001600160a01b031614156120ee5760405162461bcd60e51b815260206004820152601960248201527f4552433732313a20617070726f766520746f2063616c6c6572000000000000006044820152606401610829565b6001600160a01b03838116600081815260076020908152604080832094871680845294825291829020805460ff191686151590811790915591519182527f17307eab39ab6107e8899845ad3d59bd9653f200f220920489ca2b5937696c31910160405180910390a3505050565b6013546001600160a01b031633146121ad5760405162461bcd60e51b815260206004820152601560248201527424a72b2fa9a2a72222a92fa4a724aa2fa0a226a4a760591b6044820152606401610829565b6001600160a01b0381166121d35760405162461bcd60e51b815260040161082990613c69565b601280546001600160a01b0319166001600160a01b0383169081179091556121fd90600090611de5565b60125461222290600080516020613e54833981519152906001600160a01b0316611de5565b60125461049e90600080516020613e34833981519152906001600160a01b0316611de5565b612252848484611c34565b61225e8484848461267a565b610b8e5760405162461bcd60e51b815260040161082990613ce5565b60608161229e5750506040805180820190915260018152600360fc1b602082015290565b8160005b81156122c857806122b28161378c565b91506122c19050600a836135b8565b91506122a2565b6000816001600160401b038111156122e2576122e2613088565b6040519080825280601f01601f19166020018201604052801561230c576020820181803683370190505b5090505b8415611c2c5761232160018361351e565b915061232e600a86613cd1565b612339906030613cb9565b60f81b81838151811061234e5761234e6135cc565b60200101906001600160f81b031916908160001a905350612370600a866135b8565b9450612310565b60006106f5825490565b60008181526017602052604090205481906001600160a01b031633146123d85760405162461bcd60e51b815260206004820152600c60248201526b27a7262cafa1a922a0aa27a960a11b6044820152606401610829565b50600090815260176020526040902080546001600160a01b0319166001600160a01b0392909216919091179055565b6060600e805461070a906134d3565b600081815260018301602052604081205461245d575081546001818101845560008481526020808220909301849055845484825282860190935260409020919091556106f5565b5060006106f5565b60006001600160e01b031982166380ac58cd60e01b148061249657506001600160e01b03198216635b5e139f60e01b145b806106f557506106f582612778565b6108ca83838361279d565b6124ba82826114da565b610b14576124d2816001600160a01b0316601461280f565b6124dd83602061280f565b6040516020016124ee929190613d37565b60408051601f198184030181529082905262461bcd60e51b825261082991600401612f8c565b61251e82826114da565b15610b14576000828152602081815260408083206001600160a01b0385168085529252808320805460ff1916905551339285917ff6391f5c32d9c69d2a47ea670b442974b53935d1edc7fd64eb21e047a839171b9190a45050565b60006114d3836001600160a01b0384166129aa565b600c5460ff16610c285760405162461bcd60e51b815260206004820152601460248201527314185d5cd8589b194e881b9bdd081c185d5cd95960621b6044820152606401610829565b6125e18383612a9d565b6125ee600084848461267a565b6108ca5760405162461bcd60e51b815260040161082990613ce5565b600c5460ff1615610c285760405162461bcd60e51b815260206004820152601060248201526f14185d5cd8589b194e881c185d5cd95960821b6044820152606401610829565b6000826000018281548110612667576126676135cc565b9060005260206000200154905092915050565b60006001600160a01b0384163b1561276d57604051630a85bd0160e11b81526001600160a01b0385169063150b7a02906126be903390899088908890600401613dac565b6020604051808303816000875af19250505080156126f9575060408051601f3d908101601f191682019092526126f691810190613de9565b60015b612753573d808015612727576040519150601f19603f3d011682016040523d82523d6000602084013e61272c565b606091505b50805161274b5760405162461bcd60e51b815260040161082990613ce5565b805181602001fd5b6001600160e01b031916630a85bd0160e11b149050611c2c565b506001949350505050565b60006001600160e01b03198216635a05180f60e01b14806106f557506106f582612beb565b6127a8838383612c20565b600c5460ff16156108ca5760405162461bcd60e51b815260206004820152602b60248201527f4552433732315061757361626c653a20746f6b656e207472616e73666572207760448201526a1a1a5b19481c185d5cd95960aa1b6064820152608401610829565b6060600061281e836002613583565b612829906002613cb9565b6001600160401b0381111561284057612840613088565b6040519080825280601f01601f19166020018201604052801561286a576020820181803683370190505b509050600360fc1b81600081518110612885576128856135cc565b60200101906001600160f81b031916908160001a905350600f60fb1b816001815181106128b4576128b46135cc565b60200101906001600160f81b031916908160001a90535060006128d8846002613583565b6128e3906001613cb9565b90505b600181111561295b576f181899199a1a9b1b9c1cb0b131b232b360811b85600f1660108110612917576129176135cc565b1a60f81b82828151811061292d5761292d6135cc565b60200101906001600160f81b031916908160001a90535060049490941c9361295481613e06565b90506128e6565b5083156114d35760405162461bcd60e51b815260206004820181905260248201527f537472696e67733a20686578206c656e67746820696e73756666696369656e746044820152606401610829565b60008181526001830160205260408120548015612a935760006129ce60018361351e565b85549091506000906129e29060019061351e565b9050818114612a47576000866000018281548110612a0257612a026135cc565b9060005260206000200154905080876000018481548110612a2557612a256135cc565b6000918252602080832090910192909255918252600188019052604090208390555b8554869080612a5857612a58613e1d565b6001900381819060005260206000200160009055905585600101600086815260200190815260200160002060009055600193505050506106f5565b60009150506106f5565b6001600160a01b038216612af35760405162461bcd60e51b815260206004820181905260248201527f4552433732313a206d696e7420746f20746865207a65726f20616464726573736044820152606401610829565b6000818152600460205260409020546001600160a01b031615612b585760405162461bcd60e51b815260206004820152601c60248201527f4552433732313a20746f6b656e20616c7265616479206d696e746564000000006044820152606401610829565b612b64600083836124a5565b6001600160a01b0382166000908152600560205260408120805460019290612b8d908490613cb9565b909155505060008181526004602052604080822080546001600160a01b0319166001600160a01b03861690811790915590518392907fddf252ad1be2c89b69c2b068fc378daa952ba7f163c4a11628f55a4df523b3ef908290a45050565b60006001600160e01b03198216637965db0b60e01b14806106f557506301ffc9a760e01b6001600160e01b03198316146106f5565b6001600160a01b038316612c7b57612c7681600a80546000838152600b60205260408120829055600182018355919091527fc65a7bb8d6351c1cf70c95a316cc6a92839c986682d98bc35f958f4883f9d2a80155565b612c9e565b816001600160a01b0316836001600160a01b031614612c9e57612c9e8382612cd8565b6001600160a01b038216612cb5576108ca81612d75565b826001600160a01b0316826001600160a01b0316146108ca576108ca8282612e24565b60006001612ce584610d66565b612cef919061351e565b600083815260096020526040902054909150808214612d42576001600160a01b03841660009081526008602090815260408083208584528252808320548484528184208190558352600990915290208190555b5060009182526009602090815260408084208490556001600160a01b039094168352600881528383209183525290812055565b600a54600090612d879060019061351e565b6000838152600b6020526040812054600a8054939450909284908110612daf57612daf6135cc565b9060005260206000200154905080600a8381548110612dd057612dd06135cc565b6000918252602080832090910192909255828152600b9091526040808220849055858252812055600a805480612e0857612e08613e1d565b6001900381819060005260206000200160009055905550505050565b6000612e2f83610d66565b6001600160a01b039093166000908152600860209081526040808320868452825280832085905593825260099052919091209190915550565b828054612e74906134d3565b90600052602060002090601f016020900481019282612e965760008555612edc565b82601f10612eaf57805160ff1916838001178555612edc565b82800160010185558215612edc579182015b82811115612edc578251825591602001919060010190612ec1565b50612ee8929150612eec565b5090565b5b80821115612ee85760008155600101612eed565b6001600160e01b03198116811461049e57600080fd5b600060208284031215612f2957600080fd5b81356114d381612f01565b60005b83811015612f4f578181015183820152602001612f37565b83811115610b8e5750506000910152565b60008151808452612f78816020860160208601612f34565b601f01601f19169290920160200192915050565b6020815260006114d36020830184612f60565b600060208284031215612fb157600080fd5b5035919050565b80356001600160a01b0381168114612fcf57600080fd5b919050565b60008060408385031215612fe757600080fd5b612ff083612fb8565b946020939093013593505050565b60008060006060848603121561301357600080fd5b61301c84612fb8565b925061302a60208501612fb8565b9150604084013590509250925092565b6000806040838503121561304d57600080fd5b50508035926020909101359150565b6000806040838503121561306f57600080fd5b8235915061307f60208401612fb8565b90509250929050565b634e487b7160e01b600052604160045260246000fd5b60405160e081016001600160401b03811182821017156130c0576130c0613088565b60405290565b604051601f8201601f191681016001600160401b03811182821017156130ee576130ee613088565b604052919050565b60006001600160401b0383111561310f5761310f613088565b613122601f8401601f19166020016130c6565b905082815283838301111561313657600080fd5b828260208301376000602084830101529392505050565b600082601f83011261315e57600080fd5b6114d3838335602085016130f6565b6000806040838503121561318057600080fd5b8235915060208301356001600160401b0381111561319d57600080fd5b6109d48582860161314d565b6000602082840312156131bb57600080fd5b6114d382612fb8565b801515811461049e57600080fd5b8035612fcf816131c4565b600080600080600060a086880312156131f557600080fd5b6131fe86612fb8565b945061320c60208701612fb8565b935060408601356001600160401b038082111561322857600080fd5b61323489838a0161314d565b9450606088013591508082111561324a57600080fd5b5086016040818903121561325d57600080fd5b9150608086013561326d816131c4565b809150509295509295909350565b60008060006060848603121561329057600080fd5b8335925061302a60208501612fb8565b600080604083850312156132b357600080fd5b6132bc83612fb8565b915060208301356132cc816131c4565b809150509250929050565b600080600080600060a086880312156132ef57600080fd5b85356001600160401b038082111561330657600080fd5b61331289838a0161314d565b9650602088013591508082111561332857600080fd5b506133358882890161314d565b94505061334460408701612fb8565b925061335260608701612fb8565b949793965091946080013592915050565b6000806000806080858703121561337957600080fd5b61338285612fb8565b935061339060208601612fb8565b92506040850135915060608501356001600160401b038111156133b257600080fd5b8501601f810187136133c357600080fd5b6133d2878235602084016130f6565b91505092959194509250565b60006001600160401b038211156133f7576133f7613088565b5060051b60200190565b6000806040838503121561341457600080fd5b61341d83612fb8565b91506020808401356001600160401b0381111561343957600080fd5b8401601f8101861361344a57600080fd5b803561345d613458826133de565b6130c6565b81815260059190911b8201830190838101908883111561347c57600080fd5b928401925b8284101561349a57833582529284019290840190613481565b80955050505050509250929050565b600080604083850312156134bc57600080fd5b6134c583612fb8565b915061307f60208401612fb8565b600181811c908216806134e757607f821691505b602082108114156118c757634e487b7160e01b600052602260045260246000fd5b634e487b7160e01b600052601160045260246000fd5b60008282101561353057613530613508565b500390565b6020808252602e908201527f4552433732313a2063616c6c6572206973206e6f7420746f6b656e206f776e6560408201526d1c881b9bdc88185c1c1c9bdd995960921b606082015260800190565b600081600019048311821515161561359d5761359d613508565b500290565b634e487b7160e01b600052601260045260246000fd5b6000826135c7576135c76135a2565b500490565b634e487b7160e01b600052603260045260246000fd5b6000808335601e198436030181126135f957600080fd5b8301803591506001600160401b0382111561361357600080fd5b6020019150600581901b360382131561362b57600080fd5b9250929050565b6000823560de1983360301811261364857600080fd5b9190910192915050565b60ff8116811461049e57600080fd5b8035612fcf81613652565b600082601f83011261367d57600080fd5b8135602061368d613458836133de565b82815260059290921b840181019181810190868411156136ac57600080fd5b8286015b848110156136eb5780356001600160401b038111156136cf5760008081fd5b6136dd8986838b010161314d565b8452509183019183016136b0565b509695505050505050565b600060e0823603121561370857600080fd5b61371061309e565b61371983613661565b8152602083013560208201526040830135604082015261373b60608401613661565b606082015260808301356001600160401b0381111561375957600080fd5b6137653682860161366c565b60808301525060a083013560a082015261378160c084016131d2565b60c082015292915050565b60006000198214156137a0576137a0613508565b5060010190565b6000602082840312156137b957600080fd5b81516114d3816131c4565b6000602082840312156137d657600080fd5b5051919050565b5b81811015610b1457600081556001016137de565b8054600080835581156108ca5782815260208082208381015b808210156138705761381d82546134d3565b801561386457601f8082116001811461383857868555613861565b84875285872061385283850160051c8201600183016137dd565b50600085815260208120818755555b50505b5060018201915061380b565b505050505050565b601f8211156108ca57806000526020600020601f840160051c8101602085101561389f5750805b61170e601f850160051c8301826137dd565b6001600160401b038311156138c8576138c8613088565b6138dc836138d683546134d3565b83613878565b6000601f84116001811461391057600085156138f85750838201355b600019600387901b1c1916600186901b17835561170e565b600083815260209020601f19861690835b828110156139415786850135825560209485019460019092019101613921565b508682101561395e5760001960f88860031b161c19848701351681555b505060018560011b0183555050505050565b600081356106f5816131c4565b813561398881613652565b815460ff191660ff8216178255506001602080840135828401556040840135600284015560608401356139ba81613652565b60038401805460ff191660ff831617905550600483016139dd60808601866135e2565b600160401b8111156139f1576139f1613088565b825481845580821015613a765760008481528581208381019083015b80821015613a7257613a1f82546134d3565b8015613a6857601f80821160018114613a3a57858555613a65565b600085815260209020613a5683850160051c82018e83016137dd565b50600085815260208120818755555b50505b5090880190613a0d565b5050505b508160008481528581209450805b83811015613ae5578235601e19863603018112613a9f578283fd5b850180356001600160401b03811115613ab6578384fd5b8882019150803603821315613ac9578384fd5b613ad481838a6138b1565b505094870194918601918701613a84565b505050505050505060a08201356005820155610b14613b0660c08401613970565b6006830160ff1981541660ff8315151681178255505050565b8135815560018082016020613b36818601866135e2565b600160401b811115613b4a57613b4a613088565b835481855580821015613bf7577f2492492492492492492492492492492492492492492492492492492492492492808211871615613b8a57613b8a613508565b6007818411881615613b9e57613b9e613508565b6000878152868120909250848202810190828502015b80821015613bf257838255838a830155836002830155836003830155613bdc600483016137f2565b8360058301558360068301558282019150613bb4565b505050505b506000938452602084209382905b82811015613c3257613c20613c1a8386613632565b8761397d565b60079590950194908401908601613c05565b505050505050505050565b60208082526012908201527113d3931657d05113525397d0531313d5d15160721b604082015260600190565b60208082526007908201526612539597d0511160ca1b604082015260600190565b60008351613c9c818460208801612f34565b835190830190613cb0818360208801612f34565b01949350505050565b60008219821115613ccc57613ccc613508565b500190565b600082613ce057613ce06135a2565b500690565b60208082526032908201527f4552433732313a207472616e7366657220746f206e6f6e20455243373231526560408201527131b2b4bb32b91034b6b83632b6b2b73a32b960711b606082015260800190565b7f416363657373436f6e74726f6c3a206163636f756e7420000000000000000000815260008351613d6f816017850160208801612f34565b7001034b99036b4b9b9b4b733903937b6329607d1b6017918401918201528351613da0816028840160208801612f34565b01602801949350505050565b6001600160a01b0385811682528416602082015260408101839052608060608201819052600090613ddf90830184612f60565b9695505050505050565b600060208284031215613dfb57600080fd5b81516114d381612f01565b600081613e1557613e15613508565b506000190190565b634e487b7160e01b600052603160045260246000fdfe65d7a28e3265b37a6474929f336521b332c1681b933f6cb9f3376673440d862a9f2df0fed2c77648de5860a4cc508cd0818c85b8b8a1ab4ceeef8d981c8956a6a26469706673582212208ac5034bae5b4976db5cf3a2272d320ced2673cc2eb96c323f985ddf6b1b0ed364736f6c634300080c0033",
  "linkReferences": {},
  "deployedLinkReferences": {}
}