{
  "_format": "hh-sol-artifact-1",
  "contractName": "GenerativeNFT",
  "sourceName": "contracts/nft/GenerativeNFT.sol",
  "abi": [
    {
      "inputs": [
        {
          "internalType": "string",
          "name": "_name",
          "type": "string"
        },
        {
          "internalType": "string",
          "name": "_symbol",
          "type": "string"
        },
        {
          "internalType": "string",
          "name": "_baseuri",
          "type": "string"
        },
        {
          "internalType": "address",
          "name": "admin",
          "type": "address"
        }
      ],
      "stateMutability": "nonpayable",
      "type": "constructor"
    },
    {
      "anonymous": false,
      "inputs": [
        {
          "indexed": true,
          "internalType": "address",
          "name": "owner",
          "type": "address"
        },
        {
          "indexed": true,
          "internalType": "address",
          "name": "approved",
          "type": "address"
        },
        {
          "indexed": true,
          "internalType": "uint256",
          "name": "tokenId",
          "type": "uint256"
        }
      ],
      "name": "Approval",
      "type": "event"
    },
    {
      "anonymous": false,
      "inputs": [
        {
          "indexed": true,
          "internalType": "address",
          "name": "owner",
          "type": "address"
        },
        {
          "indexed": true,
          "internalType": "address",
          "name": "operator",
          "type": "address"
        },
        {
          "indexed": false,
          "internalType": "bool",
          "name": "approved",
          "type": "bool"
        }
      ],
      "name": "ApprovalForAll",
      "type": "event"
    },
    {
      "anonymous": false,
      "inputs": [
        {
          "indexed": false,
          "internalType": "address",
          "name": "mintTo",
          "type": "address"
        },
        {
          "indexed": false,
          "internalType": "address",
          "name": "creator",
          "type": "address"
        },
        {
          "indexed": false,
          "internalType": "string",
          "name": "uri",
          "type": "string"
        },
        {
          "indexed": false,
          "internalType": "uint256",
          "name": "tokenId",
          "type": "uint256"
        }
      ],
      "name": "MintGenerativeNFT",
      "type": "event"
    },
    {
      "anonymous": false,
      "inputs": [
        {
          "indexed": true,
          "internalType": "address",
          "name": "previousOwner",
          "type": "address"
        },
        {
          "indexed": true,
          "internalType": "address",
          "name": "newOwner",
          "type": "address"
        }
      ],
      "name": "OwnershipTransferred",
      "type": "event"
    },
    {
      "anonymous": false,
      "inputs": [
        {
          "indexed": false,
          "internalType": "address",
          "name": "account",
          "type": "address"
        }
      ],
      "name": "Paused",
      "type": "event"
    },
    {
      "anonymous": false,
      "inputs": [
        {
          "indexed": true,
          "internalType": "bytes32",
          "name": "role",
          "type": "bytes32"
        },
        {
          "indexed": true,
          "internalType": "bytes32",
          "name": "previousAdminRole",
          "type": "bytes32"
        },
        {
          "indexed": true,
          "internalType": "bytes32",
          "name": "newAdminRole",
          "type": "bytes32"
        }
      ],
      "name": "RoleAdminChanged",
      "type": "event"
    },
    {
      "anonymous": false,
      "inputs": [
        {
          "indexed": true,
          "internalType": "bytes32",
          "name": "role",
          "type": "bytes32"
        },
        {
          "indexed": true,
          "internalType": "address",
          "name": "account",
          "type": "address"
        },
        {
          "indexed": true,
          "internalType": "address",
          "name": "sender",
          "type": "address"
        }
      ],
      "name": "RoleGranted",
      "type": "event"
    },
    {
      "anonymous": false,
      "inputs": [
        {
          "indexed": true,
          "internalType": "bytes32",
          "name": "role",
          "type": "bytes32"
        },
        {
          "indexed": true,
          "internalType": "address",
          "name": "account",
          "type": "address"
        },
        {
          "indexed": true,
          "internalType": "address",
          "name": "sender",
          "type": "address"
        }
      ],
      "name": "RoleRevoked",
      "type": "event"
    },
    {
      "anonymous": false,
      "inputs": [
        {
          "indexed": true,
          "internalType": "address",
          "name": "from",
          "type": "address"
        },
        {
          "indexed": true,
          "internalType": "address",
          "name": "to",
          "type": "address"
        },
        {
          "indexed": true,
          "internalType": "uint256",
          "name": "tokenId",
          "type": "uint256"
        }
      ],
      "name": "Transfer",
      "type": "event"
    },
    {
      "anonymous": false,
      "inputs": [
        {
          "indexed": false,
          "internalType": "address",
          "name": "account",
          "type": "address"
        }
      ],
      "name": "Unpaused",
      "type": "event"
    },
    {
      "inputs": [],
      "name": "DEFAULT_ADMIN_ROLE",
      "outputs": [
        {
          "internalType": "bytes32",
          "name": "",
          "type": "bytes32"
        }
      ],
      "stateMutability": "view",
      "type": "function"
    },
    {
      "inputs": [],
      "name": "MINTER_ROLE",
      "outputs": [
        {
          "internalType": "bytes32",
          "name": "",
          "type": "bytes32"
        }
      ],
      "stateMutability": "view",
      "type": "function"
    },
    {
      "inputs": [],
      "name": "PAUSER_ROLE",
      "outputs": [
        {
          "internalType": "bytes32",
          "name": "",
          "type": "bytes32"
        }
      ],
      "stateMutability": "view",
      "type": "function"
    },
    {
      "inputs": [],
      "name": "_admin",
      "outputs": [
        {
          "internalType": "address",
          "name": "",
          "type": "address"
        }
      ],
      "stateMutability": "view",
      "type": "function"
    },
    {
      "inputs": [],
      "name": "_boilerplateAddr",
      "outputs": [
        {
          "internalType": "address",
          "name": "",
          "type": "address"
        }
      ],
      "stateMutability": "view",
      "type": "function"
    },
    {
      "inputs": [],
      "name": "_boilerplateId",
      "outputs": [
        {
          "internalType": "uint256",
          "name": "",
          "type": "uint256"
        }
      ],
      "stateMutability": "view",
      "type": "function"
    },
    {
      "inputs": [
        {
          "internalType": "uint256",
          "name": "",
          "type": "uint256"
        }
      ],
      "name": "_creators",
      "outputs": [
        {
          "internalType": "address",
          "name": "",
          "type": "address"
        }
      ],
      "stateMutability": "view",
      "type": "function"
    },
    {
      "inputs": [
        {
          "internalType": "uint256",
          "name": "",
          "type": "uint256"
        }
      ],
      "name": "_paramsValues",
      "outputs": [
        {
          "internalType": "bytes32",
          "name": "_seed",
          "type": "bytes32"
        }
      ],
      "stateMutability": "view",
      "type": "function"
    },
    {
      "inputs": [
        {
          "internalType": "address",
          "name": "to",
          "type": "address"
        },
        {
          "internalType": "uint256",
          "name": "tokenId",
          "type": "uint256"
        }
      ],
      "name": "approve",
      "outputs": [],
      "stateMutability": "nonpayable",
      "type": "function"
    },
    {
      "inputs": [
        {
          "internalType": "address",
          "name": "owner",
          "type": "address"
        }
      ],
      "name": "balanceOf",
      "outputs": [
        {
          "internalType": "uint256",
          "name": "",
          "type": "uint256"
        }
      ],
      "stateMutability": "view",
      "type": "function"
    },
    {
      "inputs": [],
      "name": "baseTokenURI",
      "outputs": [
        {
          "internalType": "string",
          "name": "",
          "type": "string"
        }
      ],
      "stateMutability": "view",
      "type": "function"
    },
    {
      "inputs": [
        {
          "internalType": "uint256",
          "name": "tokenId",
          "type": "uint256"
        }
      ],
      "name": "burn",
      "outputs": [],
      "stateMutability": "nonpayable",
      "type": "function"
    },
    {
      "inputs": [
        {
          "internalType": "address",
          "name": "_newAdmin",
          "type": "address"
        }
      ],
      "name": "changeAdmin",
      "outputs": [],
      "stateMutability": "nonpayable",
      "type": "function"
    },
    {
      "inputs": [
        {
          "internalType": "uint256",
          "name": "tokenId",
          "type": "uint256"
        }
      ],
      "name": "getApproved",
      "outputs": [
        {
          "internalType": "address",
          "name": "",
          "type": "address"
        }
      ],
      "stateMutability": "view",
      "type": "function"
    },
    {
      "inputs": [
        {
          "internalType": "uint256",
          "name": "tokenId",
          "type": "uint256"
        }
      ],
      "name": "getParamValues",
      "outputs": [
        {
          "internalType": "bytes32",
          "name": "",
          "type": "bytes32"
        },
        {
          "components": [
            {
              "internalType": "uint8",
              "name": "_typeValue",
              "type": "uint8"
            },
            {
              "internalType": "uint256",
              "name": "_max",
              "type": "uint256"
            },
            {
              "internalType": "uint256",
              "name": "_min",
              "type": "uint256"
            },
            {
              "internalType": "uint8",
              "name": "_decimal",
              "type": "uint8"
            },
            {
              "internalType": "string[]",
              "name": "_availableValues",
              "type": "string[]"
            },
            {
              "internalType": "uint256",
              "name": "_value",
              "type": "uint256"
            },
            {
              "internalType": "bool",
              "name": "_editable",
              "type": "bool"
            }
          ],
          "internalType": "struct BoilerplateParam.ParamTemplate[]",
          "name": "",
          "type": "tuple[]"
        }
      ],
      "stateMutability": "view",
      "type": "function"
    },
    {
      "inputs": [
        {
          "internalType": "bytes32",
          "name": "role",
          "type": "bytes32"
        }
      ],
      "name": "getRoleAdmin",
      "outputs": [
        {
          "internalType": "bytes32",
          "name": "",
          "type": "bytes32"
        }
      ],
      "stateMutability": "view",
      "type": "function"
    },
    {
      "inputs": [
        {
          "internalType": "bytes32",
          "name": "role",
          "type": "bytes32"
        },
        {
          "internalType": "uint256",
          "name": "index",
          "type": "uint256"
        }
      ],
      "name": "getRoleMember",
      "outputs": [
        {
          "internalType": "address",
          "name": "",
          "type": "address"
        }
      ],
      "stateMutability": "view",
      "type": "function"
    },
    {
      "inputs": [
        {
          "internalType": "bytes32",
          "name": "role",
          "type": "bytes32"
        }
      ],
      "name": "getRoleMemberCount",
      "outputs": [
        {
          "internalType": "uint256",
          "name": "",
          "type": "uint256"
        }
      ],
      "stateMutability": "view",
      "type": "function"
    },
    {
      "inputs": [
        {
          "internalType": "bytes32",
          "name": "role",
          "type": "bytes32"
        },
        {
          "internalType": "address",
          "name": "account",
          "type": "address"
        }
      ],
      "name": "grantRole",
      "outputs": [],
      "stateMutability": "nonpayable",
      "type": "function"
    },
    {
      "inputs": [
        {
          "internalType": "bytes32",
          "name": "role",
          "type": "bytes32"
        },
        {
          "internalType": "address",
          "name": "account",
          "type": "address"
        }
      ],
      "name": "hasRole",
      "outputs": [
        {
          "internalType": "bool",
          "name": "",
          "type": "bool"
        }
      ],
      "stateMutability": "view",
      "type": "function"
    },
    {
      "inputs": [
        {
          "internalType": "string",
          "name": "name",
          "type": "string"
        },
        {
          "internalType": "string",
          "name": "symbol",
          "type": "string"
        },
        {
          "internalType": "address",
          "name": "admin",
          "type": "address"
        },
        {
          "internalType": "address",
          "name": "boilerplateAdd",
          "type": "address"
        },
        {
          "internalType": "uint256",
          "name": "boilerplateId",
          "type": "uint256"
        }
      ],
      "name": "init",
      "outputs": [],
      "stateMutability": "nonpayable",
      "type": "function"
    },
    {
      "inputs": [
        {
          "internalType": "address",
          "name": "owner",
          "type": "address"
        },
        {
          "internalType": "address",
          "name": "operator",
          "type": "address"
        }
      ],
      "name": "isApprovedForAll",
      "outputs": [
        {
          "internalType": "bool",
          "name": "",
          "type": "bool"
        }
      ],
      "stateMutability": "view",
      "type": "function"
    },
    {
      "inputs": [
        {
          "internalType": "address",
          "name": "to",
          "type": "address"
        }
      ],
      "name": "mint",
      "outputs": [],
      "stateMutability": "nonpayable",
      "type": "function"
    },
    {
      "inputs": [
        {
          "internalType": "address",
          "name": "mintTo",
          "type": "address"
        },
        {
          "internalType": "address",
          "name": "creator",
          "type": "address"
        },
        {
          "internalType": "string",
          "name": "uri",
          "type": "string"
        },
        {
          "components": [
            {
              "internalType": "bytes32",
              "name": "_seed",
              "type": "bytes32"
            },
            {
              "components": [
                {
                  "internalType": "uint8",
                  "name": "_typeValue",
                  "type": "uint8"
                },
                {
                  "internalType": "uint256",
                  "name": "_max",
                  "type": "uint256"
                },
                {
                  "internalType": "uint256",
                  "name": "_min",
                  "type": "uint256"
                },
                {
                  "internalType": "uint8",
                  "name": "_decimal",
                  "type": "uint8"
                },
                {
                  "internalType": "string[]",
                  "name": "_availableValues",
                  "type": "string[]"
                },
                {
                  "internalType": "uint256",
                  "name": "_value",
                  "type": "uint256"
                },
                {
                  "internalType": "bool",
                  "name": "_editable",
                  "type": "bool"
                }
              ],
              "internalType": "struct BoilerplateParam.ParamTemplate[]",
              "name": "_params",
              "type": "tuple[]"
            }
          ],
          "internalType": "struct BoilerplateParam.ParamsOfProject",
          "name": "_paramsTemplateValue",
          "type": "tuple"
        }
      ],
      "name": "mint",
      "outputs": [],
      "stateMutability": "nonpayable",
      "type": "function"
    },
    {
      "inputs": [],
      "name": "name",
      "outputs": [
        {
          "internalType": "string",
          "name": "",
          "type": "string"
        }
      ],
      "stateMutability": "view",
      "type": "function"
    },
    {
      "inputs": [],
      "name": "owner",
      "outputs": [
        {
          "internalType": "address",
          "name": "",
          "type": "address"
        }
      ],
      "stateMutability": "view",
      "type": "function"
    },
    {
      "inputs": [
        {
          "internalType": "uint256",
          "name": "tokenId",
          "type": "uint256"
        }
      ],
      "name": "ownerOf",
      "outputs": [
        {
          "internalType": "address",
          "name": "",
          "type": "address"
        }
      ],
      "stateMutability": "view",
      "type": "function"
    },
    {
      "inputs": [],
      "name": "pause",
      "outputs": [],
      "stateMutability": "nonpayable",
      "type": "function"
    },
    {
      "inputs": [],
      "name": "paused",
      "outputs": [
        {
          "internalType": "bool",
          "name": "",
          "type": "bool"
        }
      ],
      "stateMutability": "view",
      "type": "function"
    },
    {
      "inputs": [],
      "name": "renounceOwnership",
      "outputs": [],
      "stateMutability": "nonpayable",
      "type": "function"
    },
    {
      "inputs": [
        {
          "internalType": "bytes32",
          "name": "role",
          "type": "bytes32"
        },
        {
          "internalType": "address",
          "name": "account",
          "type": "address"
        }
      ],
      "name": "renounceRole",
      "outputs": [],
      "stateMutability": "nonpayable",
      "type": "function"
    },
    {
      "inputs": [
        {
          "internalType": "bytes32",
          "name": "role",
          "type": "bytes32"
        },
        {
          "internalType": "address",
          "name": "account",
          "type": "address"
        }
      ],
      "name": "revokeRole",
      "outputs": [],
      "stateMutability": "nonpayable",
      "type": "function"
    },
    {
      "inputs": [
        {
          "internalType": "uint256",
          "name": "",
          "type": "uint256"
        }
      ],
      "name": "royalties",
      "outputs": [
        {
          "internalType": "address",
          "name": "recipient",
          "type": "address"
        },
        {
          "internalType": "uint24",
          "name": "amount",
          "type": "uint24"
        },
        {
          "internalType": "bool",
          "name": "isValue",
          "type": "bool"
        }
      ],
      "stateMutability": "view",
      "type": "function"
    },
    {
      "inputs": [
        {
          "internalType": "uint256",
          "name": "_tokenId",
          "type": "uint256"
        },
        {
          "internalType": "uint256",
          "name": "_salePrice",
          "type": "uint256"
        }
      ],
      "name": "royaltyInfo",
      "outputs": [
        {
          "internalType": "address",
          "name": "receiver",
          "type": "address"
        },
        {
          "internalType": "uint256",
          "name": "royaltyAmount",
          "type": "uint256"
        }
      ],
      "stateMutability": "view",
      "type": "function"
    },
    {
      "inputs": [
        {
          "internalType": "address",
          "name": "from",
          "type": "address"
        },
        {
          "internalType": "address",
          "name": "to",
          "type": "address"
        },
        {
          "internalType": "uint256",
          "name": "tokenId",
          "type": "uint256"
        }
      ],
      "name": "safeTransferFrom",
      "outputs": [],
      "stateMutability": "nonpayable",
      "type": "function"
    },
    {
      "inputs": [
        {
          "internalType": "address",
          "name": "from",
          "type": "address"
        },
        {
          "internalType": "address",
          "name": "to",
          "type": "address"
        },
        {
          "internalType": "uint256",
          "name": "tokenId",
          "type": "uint256"
        },
        {
          "internalType": "bytes",
          "name": "data",
          "type": "bytes"
        }
      ],
      "name": "safeTransferFrom",
      "outputs": [],
      "stateMutability": "nonpayable",
      "type": "function"
    },
    {
      "inputs": [
        {
          "internalType": "address",
          "name": "operator",
          "type": "address"
        },
        {
          "internalType": "bool",
          "name": "approved",
          "type": "bool"
        }
      ],
      "name": "setApprovalForAll",
      "outputs": [],
      "stateMutability": "nonpayable",
      "type": "function"
    },
    {
      "inputs": [
        {
          "internalType": "address",
          "name": "_to",
          "type": "address"
        },
        {
          "internalType": "uint256[]",
          "name": "_ids",
          "type": "uint256[]"
        }
      ],
      "name": "setCreator",
      "outputs": [],
      "stateMutability": "nonpayable",
      "type": "function"
    },
    {
      "inputs": [
        {
          "internalType": "uint256",
          "name": "_tokenId",
          "type": "uint256"
        },
        {
          "internalType": "string",
          "name": "_newURI",
          "type": "string"
        }
      ],
      "name": "setCustomURI",
      "outputs": [],
      "stateMutability": "nonpayable",
      "type": "function"
    },
    {
      "inputs": [
        {
          "internalType": "uint256",
          "name": "_tokenId",
          "type": "uint256"
        },
        {
          "internalType": "address",
          "name": "_recipient",
          "type": "address"
        },
        {
          "internalType": "uint256",
          "name": "_value",
          "type": "uint256"
        }
      ],
      "name": "setTokenRoyalty",
      "outputs": [],
      "stateMutability": "nonpayable",
      "type": "function"
    },
    {
      "inputs": [
        {
          "internalType": "bytes4",
          "name": "interfaceId",
          "type": "bytes4"
        }
      ],
      "name": "supportsInterface",
      "outputs": [
        {
          "internalType": "bool",
          "name": "",
          "type": "bool"
        }
      ],
      "stateMutability": "view",
      "type": "function"
    },
    {
      "inputs": [],
      "name": "symbol",
      "outputs": [
        {
          "internalType": "string",
          "name": "",
          "type": "string"
        }
      ],
      "stateMutability": "view",
      "type": "function"
    },
    {
      "inputs": [
        {
          "internalType": "uint256",
          "name": "index",
          "type": "uint256"
        }
      ],
      "name": "tokenByIndex",
      "outputs": [
        {
          "internalType": "uint256",
          "name": "",
          "type": "uint256"
        }
      ],
      "stateMutability": "view",
      "type": "function"
    },
    {
      "inputs": [
        {
          "internalType": "address",
          "name": "owner",
          "type": "address"
        },
        {
          "internalType": "uint256",
          "name": "index",
          "type": "uint256"
        }
      ],
      "name": "tokenOfOwnerByIndex",
      "outputs": [
        {
          "internalType": "uint256",
          "name": "",
          "type": "uint256"
        }
      ],
      "stateMutability": "view",
      "type": "function"
    },
    {
      "inputs": [
        {
          "internalType": "uint256",
          "name": "_tokenId",
          "type": "uint256"
        }
      ],
      "name": "tokenURI",
      "outputs": [
        {
          "internalType": "string",
          "name": "",
          "type": "string"
        }
      ],
      "stateMutability": "view",
      "type": "function"
    },
    {
      "inputs": [],
      "name": "totalSupply",
      "outputs": [
        {
          "internalType": "uint256",
          "name": "",
          "type": "uint256"
        }
      ],
      "stateMutability": "view",
      "type": "function"
    },
    {
      "inputs": [
        {
          "internalType": "address",
          "name": "from",
          "type": "address"
        },
        {
          "internalType": "address",
          "name": "to",
          "type": "address"
        },
        {
          "internalType": "uint256",
          "name": "tokenId",
          "type": "uint256"
        }
      ],
      "name": "transferFrom",
      "outputs": [],
      "stateMutability": "nonpayable",
      "type": "function"
    },
    {
      "inputs": [
        {
          "internalType": "address",
          "name": "newOwner",
          "type": "address"
        }
      ],
      "name": "transferOwnership",
      "outputs": [],
      "stateMutability": "nonpayable",
      "type": "function"
    },
    {
      "inputs": [],
      "name": "unpause",
      "outputs": [],
      "stateMutability": "nonpayable",
      "type": "function"
    }
  ],
  "bytecode": "0x60806040523480156200001157600080fd5b506040516200458638038062004586833981016040819052620000349162000456565b8383838282816002908051906020019062000051929190620002e3565b50805162000067906003906020840190620002e3565b5050600c805460ff191690555080516200008990600e906020840190620002e3565b50620000976000336200012c565b620000c37f9f2df0fed2c77648de5860a4cc508cd0818c85b8b8a1ab4ceeef8d981c8956a6336200012c565b620000ef7f65d7a28e3265b37a6474929f336521b332c1681b933f6cb9f3376673440d862a336200012c565b50506001600f555062000102336200013c565b601280546001600160a01b0319166001600160a01b03929092169190911790555062000546915050565b6200013882826200018e565b5050565b601080546001600160a01b038381166001600160a01b0319831681179093556040519116919082907f8be0079c531659141344cd1fd0a4f28419497f9722a3daafe3b4186f6b6457e090600090a35050565b620001a58282620001d160201b62001aa51760201c565b6000828152600160209081526040909120620001cc91839062001b2962000271821b17901c565b505050565b6000828152602081815260408083206001600160a01b038516845290915290205460ff1662000138576000828152602081815260408083206001600160a01b03851684529091529020805460ff191660011790556200022d3390565b6001600160a01b0316816001600160a01b0316837f2f8788117e7eff1d82e926ec794901d17c78024a50270940304540a733656f0d60405160405180910390a45050565b600062000288836001600160a01b03841662000291565b90505b92915050565b6000818152600183016020526040812054620002da575081546001818101845560008481526020808220909301849055845484825282860190935260409020919091556200028b565b5060006200028b565b828054620002f19062000509565b90600052602060002090601f01602090048101928262000315576000855562000360565b82601f106200033057805160ff191683800117855562000360565b8280016001018555821562000360579182015b828111156200036057825182559160200191906001019062000343565b506200036e92915062000372565b5090565b5b808211156200036e576000815560010162000373565b634e487b7160e01b600052604160045260246000fd5b600082601f830112620003b157600080fd5b81516001600160401b0380821115620003ce57620003ce62000389565b604051601f8301601f19908116603f01168101908282118183101715620003f957620003f962000389565b816040528381526020925086838588010111156200041657600080fd5b600091505b838210156200043a57858201830151818301840152908201906200041b565b838211156200044c5760008385830101525b9695505050505050565b600080600080608085870312156200046d57600080fd5b84516001600160401b03808211156200048557600080fd5b62000493888389016200039f565b95506020870151915080821115620004aa57600080fd5b620004b8888389016200039f565b94506040870151915080821115620004cf57600080fd5b50620004de878288016200039f565b606087015190935090506001600160a01b0381168114620004fe57600080fd5b939692955090935050565b600181811c908216806200051e57607f821691505b602082108114156200054057634e487b7160e01b600052602260045260246000fd5b50919050565b61403080620005566000396000f3fe608060405234801561001057600080fd5b50600436106102bb5760003560e01c80637d76361311610182578063ae3dd095116100e9578063d5391393116100a2578063e63ab1e91161007c578063e63ab1e9146106af578063e985e9c5146106c4578063f2fde38b14610700578063f9ecc22c1461071357600080fd5b8063d53913931461067f578063d547741f14610694578063d547cfb7146106a757600080fd5b8063ae3dd095146105ff578063b88d4fde14610612578063c0dca23914610625578063c87b56dd14610646578063ca15c87314610659578063d2a6b51a1461066c57600080fd5b806391d148541161013b57806391d1485414610596578063953cd246146105a957806395d89b41146105c95780639713c807146105d1578063a217fddf146105e4578063a22cb465146105ec57600080fd5b80637d763613146104d75780637f77f574146104ea5780638456cb59146105575780638da5cb5b1461055f5780638f283970146105705780639010d07c1461058357600080fd5b80633adf80b411610226578063531f7b53116101df578063531f7b53146104845780635c975abb1461048d5780636352211e146104985780636a627842146104ab57806370a08231146104bc578063715018a6146104cf57600080fd5b80633adf80b4146104075780633f4ba83a1461041a57806342842e0e1461042257806342966c68146104355780634816edf4146104485780634f6ccce71461047157600080fd5b806323b872dd1161027857806323b872dd14610366578063248a9ca3146103795780632a55205a1461039c5780632f2ff15d146103ce5780632f745c59146103e157806336568abe146103f457600080fd5b806301bc45c9146102c057806301ffc9a7146102f057806306fdde0314610313578063081812fc14610328578063095ea7b31461033b57806318160ddd14610350575b600080fd5b6012546102d3906001600160a01b031681565b6040516001600160a01b0390911681526020015b60405180910390f35b6103036102fe366004612f92565b610726565b60405190151581526020016102e7565b61031b610737565b6040516102e79190613007565b6102d361033636600461301a565b6107c9565b61034e61034936600461304f565b6107f0565b005b61035861090b565b6040519081526020016102e7565b61034e610374366004613079565b610927565b61035861038736600461301a565b60009081526020819052604090206001015490565b6103af6103aa3660046130b5565b610959565b604080516001600160a01b0390931683526020830191909152016102e7565b61034e6103dc3660046130d7565b610a1b565b6103586103ef36600461304f565b610a40565b61034e6104023660046130d7565b610ad6565b61034e6104153660046131e8565b610b54565b61034e610bd0565b61034e610430366004613079565b610c66565b61034e61044336600461301a565b610c81565b6102d361045636600461301a565b6017602052600090815260409020546001600160a01b031681565b61035861047f36600461301a565b610caf565b61035860145481565b600c5460ff16610303565b6102d36104a636600461301a565b610d42565b61034e6104b9366004613224565b50565b6103586104ca366004613224565b610da2565b61034e610e28565b61034e6104e536600461323f565b610e3a565b61052c6104f836600461301a565b601a602052600090815260409020546001600160a01b03811690600160a01b810462ffffff1690600160b81b900460ff1683565b604080516001600160a01b03909416845262ffffff90921660208401521515908201526060016102e7565b61034e6111c0565b6012546001600160a01b03166102d3565b61034e61057e366004613224565b611252565b6102d36105913660046130b5565b6113a0565b6103036105a43660046130d7565b6113bf565b6103586105b736600461301a565b60156020526000908152604090205481565b61031b6113e8565b61034e6105df3660046132c8565b6113f7565b610358600081565b61034e6105fa366004613306565b611508565b61034e61060d36600461333d565b611513565b61034e6106203660046133c9565b6115fa565b61063861063336600461301a565b61162c565b6040516102e7929190613444565b61031b61065436600461301a565b6117c2565b61035861066736600461301a565b611948565b61034e61067a366004613564565b61195f565b610358600080516020613fdb83398151915281565b61034e6106a23660046130d7565b611a00565b61031b611a25565b610358600080516020613fbb83398151915281565b6103036106d236600461360c565b6001600160a01b03918216600090815260076020908152604080832093909416825291909152205460ff1690565b61034e61070e366004613224565b611a2f565b6013546102d3906001600160a01b031681565b600061073182611b3e565b92915050565b60606018805461074690613636565b80601f016020809104026020016040519081016040528092919081815260200182805461077290613636565b80156107bf5780601f10610794576101008083540402835291602001916107bf565b820191906000526020600020905b8154815290600101906020018083116107a257829003601f168201915b5050505050905090565b60006107d482611b63565b506000908152600660205260409020546001600160a01b031690565b60006107fb82610d42565b9050806001600160a01b0316836001600160a01b0316141561086e5760405162461bcd60e51b815260206004820152602160248201527f4552433732313a20617070726f76616c20746f2063757272656e74206f776e656044820152603960f91b60648201526084015b60405180910390fd5b336001600160a01b038216148061088a575061088a81336106d2565b6108fc5760405162461bcd60e51b815260206004820152603e60248201527f4552433732313a20617070726f76652063616c6c6572206973206e6f7420746f60448201527f6b656e206f776e6572206e6f7220617070726f76656420666f7220616c6c00006064820152608401610865565b6109068383611bc2565b505050565b6000600161091860115490565b6109229190613681565b905090565b610932335b82611c30565b61094e5760405162461bcd60e51b815260040161086590613698565b610906838383611caf565b6000828152601a60209081526040808320815160608101835290546001600160a01b0381168252600160a01b810462ffffff1693820193909352600160b81b90920460ff16158015918301919091528291906109dd5780516020820151909350612710906109cc9062ffffff16866136e6565b6109d6919061371b565b9150610a13565b6000858152601760205260409020546001600160a01b03169250612710610a06856101f46136e6565b610a10919061371b565b91505b509250929050565b600082815260208190526040902060010154610a3681611e56565b6109068383611e60565b6000610a4b83610da2565b8210610aad5760405162461bcd60e51b815260206004820152602b60248201527f455243373231456e756d657261626c653a206f776e657220696e646578206f7560448201526a74206f6620626f756e647360a81b6064820152608401610865565b506001600160a01b03919091166000908152600860209081526040808320938352929052205490565b6001600160a01b0381163314610b465760405162461bcd60e51b815260206004820152602f60248201527f416363657373436f6e74726f6c3a2063616e206f6e6c792072656e6f756e636560448201526e103937b632b9903337b91039b2b63360891b6064820152608401610865565b610b508282611e82565b5050565b60008281526017602052604090205482906001600160a01b03163314610bab5760405162461bcd60e51b815260206004820152600c60248201526b27a7262cafa1a922a0aa27a960a11b6044820152606401610865565b60008381526016602090815260409091208351610bca92850190612ee3565b50505050565b610be8600080516020613fbb833981519152336113bf565b610c5c576040805162461bcd60e51b81526020600482015260248101919091527f4552433732315072657365744d696e7465725061757365724175746f49643a2060448201527f6d75737420686176652070617573657220726f6c6520746f20756e70617573656064820152608401610865565b610c64611ea4565b565b610906838383604051806020016040528060008152506115fa565b610c8a3361092c565b610ca65760405162461bcd60e51b815260040161086590613698565b6104b981611ef6565b6000610cba600a5490565b8210610d1d5760405162461bcd60e51b815260206004820152602c60248201527f455243373231456e756d657261626c653a20676c6f62616c20696e646578206f60448201526b7574206f6620626f756e647360a01b6064820152608401610865565b600a8281548110610d3057610d3061372f565b90600052602060002001549050919050565b6000818152600460205260408120546001600160a01b0316806107315760405162461bcd60e51b8152602060048201526018602482015277115490cdcc8c4e881a5b9d985b1a59081d1bdad95b88125160421b6044820152606401610865565b60006001600160a01b038216610e0c5760405162461bcd60e51b815260206004820152602960248201527f4552433732313a2061646472657373207a65726f206973206e6f7420612076616044820152683634b21037bbb732b960b91b6064820152608401610865565b506001600160a01b031660009081526005602052604090205490565b610e30611f9d565b610c64600061201b565b60135460408051808201909152600381526206460760eb1b6020820152906001600160a01b03163314610e805760405162461bcd60e51b81526004016108659190613007565b506013546001600160a01b031615801590610e9d57506000601454115b6040518060400160405280600381526020016219181960e91b81525090610ed75760405162461bcd60e51b81526004016108659190613007565b50803560005b610eea6020840184613745565b905081101561103d576000610f026020850185613745565b83818110610f1257610f1261372f565b9050602002810190610f249190613795565b610f2d90613859565b90508060c00151610ff257608081015151610f9e578060a00151610f5d8460001c8360400151846020015161206d565b146040518060400160405280600381526020016219181b60e91b81525090610f985760405162461bcd60e51b81526004016108659190613007565b50610ff2565b8060a00151610fb58460001c836080015151612098565b146040518060400160405280600381526020016232303760e81b81525090610ff05760405162461bcd60e51b81526004016108659190613007565b505b60a0810151604051611011918591602001918252602082015260400190565b604051602081830303815290604052805190602001209250508080611035906138ef565b915050610edd565b50601354601454604051634f558e7960e01b815260048101919091526001600160a01b03909116908190634f558e7990602401602060405180830381865afa15801561108d573d6000803e3d6000fd5b505050506040513d601f19601f820116820180604052508101906110b1919061390a565b6040518060400160405280600381526020016219181960e91b815250906110eb5760405162461bcd60e51b81526004016108659190613007565b506110fa601180546001019055565b600061110560115490565b855190915015611130576000818152601660209081526040909120865161112e92880190612ee3565b505b600081815260176020908152604080832080546001600160a01b0319166001600160a01b038b1617905560159091529020849061116d8282613c69565b90505061117a87826120a4565b7fbf83d3c95e3a6b6b6cac45594a672c1d703818ada1304cf6e235fdc0bd6e4371878787846040516111af9493929190613d87565b60405180910390a150505050505050565b6111d8600080516020613fbb833981519152336113bf565b61124a5760405162461bcd60e51b815260206004820152603e60248201527f4552433732315072657365744d696e7465725061757365724175746f49643a2060448201527f6d75737420686176652070617573657220726f6c6520746f20706175736500006064820152608401610865565b610c646120be565b6012546001600160a01b0316336001600160a01b0316146112855760405162461bcd60e51b815260040161086590613dc4565b6112906000336113bf565b6112ac5760405162461bcd60e51b815260040161086590613dc4565b60408051808201909152600381526203130360ec1b60208201526001600160a01b0382166112ed5760405162461bcd60e51b81526004016108659190613007565b50601280546001600160a01b038381166001600160a01b031983168117909355169061131b90600090610a1b565b60125461134090600080516020613fdb833981519152906001600160a01b0316610a1b565b60125461136590600080516020613fbb833981519152906001600160a01b0316610a1b565b611370600082611a00565b611388600080516020613fdb83398151915282611a00565b610b50600080516020613fbb83398151915282611a00565b60008281526001602052604081206113b890836120fb565b9392505050565b6000918252602082815260408084206001600160a01b0393909316845291905290205460ff1690565b60606019805461074690613636565b6012546001600160a01b0316336001600160a01b03161461142a5760405162461bcd60e51b815260040161086590613dc4565b6114356000336113bf565b6114515760405162461bcd60e51b815260040161086590613dc4565b60408051808201909152600381526232303360e81b602082015261271082111561148e5760405162461bcd60e51b81526004016108659190613007565b50604080516060810182526001600160a01b03938416815262ffffff928316602080830191825260018385019081526000978852601a90915292909520905181549551925194166001600160b81b031990951694909417600160a01b91909216021760ff60b81b1916600160b81b91151591909102179055565b610b50338383612107565b6001600160a01b0382166115395760405162461bcd60e51b815260040161086590613df0565b6001600160a01b03831661155f5760405162461bcd60e51b815260040161086590613df0565b601454156115995760405162461bcd60e51b815260206004820152600760248201526611561254d5115160ca1b6044820152606401610865565b84516115ac906018906020880190612ee3565b5083516115c0906019906020870190612ee3565b50601380546001600160a01b0319166001600160a01b03841617905560148190556115ea836121d6565b6115f383611a2f565b5050505050565b6116043383611c30565b6116205760405162461bcd60e51b815260040161086590613698565b610bca848484846122c2565b600081815260156020908152604080832080546001909101805483518186028101860190945280845260609492939192839190879084015b828210156117b357600084815260208082206040805160e08101825260078702909201805460ff9081168452600182015484860152600282015484840152600382015416606084015260048101805483518187028101870190945280845293959194608087019491929084015b8282101561177d5783829060005260206000200180546116f090613636565b80601f016020809104026020016040519081016040528092919081815260200182805461171c90613636565b80156117695780601f1061173e57610100808354040283529160200191611769565b820191906000526020600020905b81548152906001019060200180831161174c57829003601f168201915b5050505050815260200190600101906116d1565b50505090825250600582015460208083019190915260069092015460ff1615156040909101529082526001929092019101611664565b50505050905091509150915091565b6000818152601660205260408120805460609291906117e090613636565b80601f016020809104026020016040519081016040528092919081815260200182805461180c90613636565b80156118595780601f1061182e57610100808354040283529160200191611859565b820191906000526020600020905b81548152906001019060200180831161183c57829003601f168201915b50505050509050600081511115611909576000838152601660205260409020805461188390613636565b80601f01602080910402602001604051908101604052809291908181526020018280546118af90613636565b80156118fc5780601f106118d1576101008083540402835291602001916118fc565b820191906000526020600020905b8154815290600101906020018083116118df57829003601f168201915b5050505050915050919050565b611911611a25565b61191a846122f5565b60405160200161192b929190613e11565b604051602081830303815290604052915050919050565b50919050565b6000818152600160205260408120610731906123f2565b60408051808201909152600381526203130360ec1b60208201526001600160a01b0383166119a05760405162461bcd60e51b81526004016108659190613007565b506119b9600080516020613fdb83398151915283611e60565b60005b81518110156109065760008282815181106119d9576119d961372f565b602002602001015190506119ed84826123fc565b50806119f8816138ef565b9150506119bc565b600082815260208190526040902060010154611a1b81611e56565b6109068383611e82565b6060610922612482565b611a37611f9d565b6001600160a01b038116611a9c5760405162461bcd60e51b815260206004820152602660248201527f4f776e61626c653a206e6577206f776e657220697320746865207a65726f206160448201526564647265737360d01b6064820152608401610865565b6104b98161201b565b611aaf82826113bf565b610b50576000828152602081815260408083206001600160a01b03851684529091529020805460ff19166001179055611ae53390565b6001600160a01b0316816001600160a01b0316837f2f8788117e7eff1d82e926ec794901d17c78024a50270940304540a733656f0d60405160405180910390a45050565b60006113b8836001600160a01b038416612491565b60006001600160e01b0319821663780e9d6360e01b14806107315750610731826124e0565b6000818152600460205260409020546001600160a01b03166104b95760405162461bcd60e51b8152602060048201526018602482015277115490cdcc8c4e881a5b9d985b1a59081d1bdad95b88125160421b6044820152606401610865565b600081815260066020526040902080546001600160a01b0319166001600160a01b0384169081179091558190611bf782610d42565b6001600160a01b03167f8c5be1e5ebec7d5bd14f71427d1e84f3dd0314c0f7b2291e5b200ac8c7c3b92560405160405180910390a45050565b600080611c3c83610d42565b9050806001600160a01b0316846001600160a01b03161480611c8357506001600160a01b0380821660009081526007602090815260408083209388168352929052205460ff165b80611ca75750836001600160a01b0316611c9c846107c9565b6001600160a01b0316145b949350505050565b826001600160a01b0316611cc282610d42565b6001600160a01b031614611d265760405162461bcd60e51b815260206004820152602560248201527f4552433732313a207472616e736665722066726f6d20696e636f72726563742060448201526437bbb732b960d91b6064820152608401610865565b6001600160a01b038216611d885760405162461bcd60e51b8152602060048201526024808201527f4552433732313a207472616e7366657220746f20746865207a65726f206164646044820152637265737360e01b6064820152608401610865565b611d93838383612520565b611d9e600082611bc2565b6001600160a01b0383166000908152600560205260408120805460019290611dc7908490613681565b90915550506001600160a01b0382166000908152600560205260408120805460019290611df5908490613e40565b909155505060008181526004602052604080822080546001600160a01b0319166001600160a01b0386811691821790925591518493918716917fddf252ad1be2c89b69c2b068fc378daa952ba7f163c4a11628f55a4df523b3ef91a4505050565b6104b9813361252b565b611e6a8282611aa5565b60008281526001602052604090206109069082611b29565b611e8c828261258f565b600082815260016020526040902061090690826125f4565b611eac612609565b600c805460ff191690557f5db9ee0a495bf2e6ff9c91a7834c1ba4fdd244a5e8aa4e537bd38aeae4b073aa335b6040516001600160a01b03909116815260200160405180910390a1565b6000611f0182610d42565b9050611f0f81600084612520565b611f1a600083611bc2565b6001600160a01b0381166000908152600560205260408120805460019290611f43908490613681565b909155505060008281526004602052604080822080546001600160a01b0319169055518391906001600160a01b038416907fddf252ad1be2c89b69c2b068fc378daa952ba7f163c4a11628f55a4df523b3ef908390a45050565b33611fb06012546001600160a01b031690565b6001600160a01b03161480611fcf57506013546001600160a01b031633145b610c645760405162461bcd60e51b815260206004820181905260248201527f4f776e61626c653a2063616c6c6572206973206e6f7420746865206f776e65726044820152606401610865565b601080546001600160a01b038381166001600160a01b0319831681179093556040519116919082907f8be0079c531659141344cd1fd0a4f28419497f9722a3daafe3b4186f6b6457e090600090a35050565b60006120798383613681565b612084906001613e40565b61208e9085613e58565b611ca79084613e40565b60006113b88284613e58565b610b50828260405180602001604052806000815250612652565b6120c6612685565b600c805460ff191660011790557f62e78cea01bee320cd4e420270b5ea74000d11b0c9f74754ebdbfc544b05a258611ed93390565b60006113b883836126cb565b816001600160a01b0316836001600160a01b031614156121695760405162461bcd60e51b815260206004820152601960248201527f4552433732313a20617070726f766520746f2063616c6c6572000000000000006044820152606401610865565b6001600160a01b03838116600081815260076020908152604080832094871680845294825291829020805460ff191686151590811790915591519182527f17307eab39ab6107e8899845ad3d59bd9653f200f220920489ca2b5937696c31910160405180910390a3505050565b6013546001600160a01b031633146122285760405162461bcd60e51b815260206004820152601560248201527424a72b2fa9a2a72222a92fa4a724aa2fa0a226a4a760591b6044820152606401610865565b6001600160a01b03811661224e5760405162461bcd60e51b815260040161086590613df0565b601280546001600160a01b0319166001600160a01b03831690811790915561227890600090611e60565b60125461229d90600080516020613fdb833981519152906001600160a01b0316611e60565b6012546104b990600080516020613fbb833981519152906001600160a01b0316611e60565b6122cd848484611caf565b6122d9848484846126f5565b610bca5760405162461bcd60e51b815260040161086590613e6c565b6060816123195750506040805180820190915260018152600360fc1b602082015290565b8160005b8115612343578061232d816138ef565b915061233c9050600a8361371b565b915061231d565b6000816001600160401b0381111561235d5761235d613103565b6040519080825280601f01601f191660200182016040528015612387576020820181803683370190505b5090505b8415611ca75761239c600183613681565b91506123a9600a86613e58565b6123b4906030613e40565b60f81b8183815181106123c9576123c961372f565b60200101906001600160f81b031916908160001a9053506123eb600a8661371b565b945061238b565b6000610731825490565b60008181526017602052604090205481906001600160a01b031633146124535760405162461bcd60e51b815260206004820152600c60248201526b27a7262cafa1a922a0aa27a960a11b6044820152606401610865565b50600090815260176020526040902080546001600160a01b0319166001600160a01b0392909216919091179055565b6060600e805461074690613636565b60008181526001830160205260408120546124d857508154600181810184556000848152602080822090930184905584548482528286019093526040902091909155610731565b506000610731565b60006001600160e01b031982166380ac58cd60e01b148061251157506001600160e01b03198216635b5e139f60e01b145b806107315750610731826127f3565b610906838383612818565b61253582826113bf565b610b505761254d816001600160a01b0316601461288a565b61255883602061288a565b604051602001612569929190613ebe565b60408051601f198184030181529082905262461bcd60e51b825261086591600401613007565b61259982826113bf565b15610b50576000828152602081815260408083206001600160a01b0385168085529252808320805460ff1916905551339285917ff6391f5c32d9c69d2a47ea670b442974b53935d1edc7fd64eb21e047a839171b9190a45050565b60006113b8836001600160a01b038416612a25565b600c5460ff16610c645760405162461bcd60e51b815260206004820152601460248201527314185d5cd8589b194e881b9bdd081c185d5cd95960621b6044820152606401610865565b61265c8383612b18565b61266960008484846126f5565b6109065760405162461bcd60e51b815260040161086590613e6c565b600c5460ff1615610c645760405162461bcd60e51b815260206004820152601060248201526f14185d5cd8589b194e881c185d5cd95960821b6044820152606401610865565b60008260000182815481106126e2576126e261372f565b9060005260206000200154905092915050565b60006001600160a01b0384163b156127e857604051630a85bd0160e11b81526001600160a01b0385169063150b7a0290612739903390899088908890600401613f33565b6020604051808303816000875af1925050508015612774575060408051601f3d908101601f1916820190925261277191810190613f70565b60015b6127ce573d8080156127a2576040519150601f19603f3d011682016040523d82523d6000602084013e6127a7565b606091505b5080516127c65760405162461bcd60e51b815260040161086590613e6c565b805181602001fd5b6001600160e01b031916630a85bd0160e11b149050611ca7565b506001949350505050565b60006001600160e01b03198216635a05180f60e01b1480610731575061073182612c66565b612823838383612c9b565b600c5460ff16156109065760405162461bcd60e51b815260206004820152602b60248201527f4552433732315061757361626c653a20746f6b656e207472616e73666572207760448201526a1a1a5b19481c185d5cd95960aa1b6064820152608401610865565b606060006128998360026136e6565b6128a4906002613e40565b6001600160401b038111156128bb576128bb613103565b6040519080825280601f01601f1916602001820160405280156128e5576020820181803683370190505b509050600360fc1b816000815181106129005761290061372f565b60200101906001600160f81b031916908160001a905350600f60fb1b8160018151811061292f5761292f61372f565b60200101906001600160f81b031916908160001a90535060006129538460026136e6565b61295e906001613e40565b90505b60018111156129d6576f181899199a1a9b1b9c1cb0b131b232b360811b85600f16601081106129925761299261372f565b1a60f81b8282815181106129a8576129a861372f565b60200101906001600160f81b031916908160001a90535060049490941c936129cf81613f8d565b9050612961565b5083156113b85760405162461bcd60e51b815260206004820181905260248201527f537472696e67733a20686578206c656e67746820696e73756666696369656e746044820152606401610865565b60008181526001830160205260408120548015612b0e576000612a49600183613681565b8554909150600090612a5d90600190613681565b9050818114612ac2576000866000018281548110612a7d57612a7d61372f565b9060005260206000200154905080876000018481548110612aa057612aa061372f565b6000918252602080832090910192909255918252600188019052604090208390555b8554869080612ad357612ad3613fa4565b600190038181906000526020600020016000905590558560010160008681526020019081526020016000206000905560019350505050610731565b6000915050610731565b6001600160a01b038216612b6e5760405162461bcd60e51b815260206004820181905260248201527f4552433732313a206d696e7420746f20746865207a65726f20616464726573736044820152606401610865565b6000818152600460205260409020546001600160a01b031615612bd35760405162461bcd60e51b815260206004820152601c60248201527f4552433732313a20746f6b656e20616c7265616479206d696e746564000000006044820152606401610865565b612bdf60008383612520565b6001600160a01b0382166000908152600560205260408120805460019290612c08908490613e40565b909155505060008181526004602052604080822080546001600160a01b0319166001600160a01b03861690811790915590518392907fddf252ad1be2c89b69c2b068fc378daa952ba7f163c4a11628f55a4df523b3ef908290a45050565b60006001600160e01b03198216637965db0b60e01b148061073157506301ffc9a760e01b6001600160e01b0319831614610731565b6001600160a01b038316612cf657612cf181600a80546000838152600b60205260408120829055600182018355919091527fc65a7bb8d6351c1cf70c95a316cc6a92839c986682d98bc35f958f4883f9d2a80155565b612d19565b816001600160a01b0316836001600160a01b031614612d1957612d198382612d53565b6001600160a01b038216612d305761090681612df0565b826001600160a01b0316826001600160a01b031614610906576109068282612e9f565b60006001612d6084610da2565b612d6a9190613681565b600083815260096020526040902054909150808214612dbd576001600160a01b03841660009081526008602090815260408083208584528252808320548484528184208190558352600990915290208190555b5060009182526009602090815260408084208490556001600160a01b039094168352600881528383209183525290812055565b600a54600090612e0290600190613681565b6000838152600b6020526040812054600a8054939450909284908110612e2a57612e2a61372f565b9060005260206000200154905080600a8381548110612e4b57612e4b61372f565b6000918252602080832090910192909255828152600b9091526040808220849055858252812055600a805480612e8357612e83613fa4565b6001900381819060005260206000200160009055905550505050565b6000612eaa83610da2565b6001600160a01b039093166000908152600860209081526040808320868452825280832085905593825260099052919091209190915550565b828054612eef90613636565b90600052602060002090601f016020900481019282612f115760008555612f57565b82601f10612f2a57805160ff1916838001178555612f57565b82800160010185558215612f57579182015b82811115612f57578251825591602001919060010190612f3c565b50612f63929150612f67565b5090565b5b80821115612f635760008155600101612f68565b6001600160e01b0319811681146104b957600080fd5b600060208284031215612fa457600080fd5b81356113b881612f7c565b60005b83811015612fca578181015183820152602001612fb2565b83811115610bca5750506000910152565b60008151808452612ff3816020860160208601612faf565b601f01601f19169290920160200192915050565b6020815260006113b86020830184612fdb565b60006020828403121561302c57600080fd5b5035919050565b80356001600160a01b038116811461304a57600080fd5b919050565b6000806040838503121561306257600080fd5b61306b83613033565b946020939093013593505050565b60008060006060848603121561308e57600080fd5b61309784613033565b92506130a560208501613033565b9150604084013590509250925092565b600080604083850312156130c857600080fd5b50508035926020909101359150565b600080604083850312156130ea57600080fd5b823591506130fa60208401613033565b90509250929050565b634e487b7160e01b600052604160045260246000fd5b60405160e081016001600160401b038111828210171561313b5761313b613103565b60405290565b604051601f8201601f191681016001600160401b038111828210171561316957613169613103565b604052919050565b60006001600160401b0383111561318a5761318a613103565b61319d601f8401601f1916602001613141565b90508281528383830111156131b157600080fd5b828260208301376000602084830101529392505050565b600082601f8301126131d957600080fd5b6113b883833560208501613171565b600080604083850312156131fb57600080fd5b8235915060208301356001600160401b0381111561321857600080fd5b610a10858286016131c8565b60006020828403121561323657600080fd5b6113b882613033565b6000806000806080858703121561325557600080fd5b61325e85613033565b935061326c60208601613033565b925060408501356001600160401b038082111561328857600080fd5b613294888389016131c8565b935060608701359150808211156132aa57600080fd5b508501604081880312156132bd57600080fd5b939692955090935050565b6000806000606084860312156132dd57600080fd5b833592506130a560208501613033565b80151581146104b957600080fd5b803561304a816132ed565b6000806040838503121561331957600080fd5b61332283613033565b91506020830135613332816132ed565b809150509250929050565b600080600080600060a0868803121561335557600080fd5b85356001600160401b038082111561336c57600080fd5b61337889838a016131c8565b9650602088013591508082111561338e57600080fd5b5061339b888289016131c8565b9450506133aa60408701613033565b92506133b860608701613033565b949793965091946080013592915050565b600080600080608085870312156133df57600080fd5b6133e885613033565b93506133f660208601613033565b92506040850135915060608501356001600160401b0381111561341857600080fd5b8501601f8101871361342957600080fd5b61343887823560208401613171565b91505092959194509250565b600060408083018584526020828186015281865180845260609350838701915060058482821b890101848a016000805b8581101561352f578b8403605f190187528251805160ff9081168652898201518a8701528b8201518c8701528a820151168a86015260808082015160e0918701829052805191870182905261010080880192808a1b8901909101918c01865b828110156135015760ff198a85030185526134ef848351612fdb565b948e01949350908d01906001016134d3565b50505060a0838101519088015260c09283015115159290960191909152509587019591870191600101613474565b50919c9b505050505050505050505050565b60006001600160401b0382111561355a5761355a613103565b5060051b60200190565b6000806040838503121561357757600080fd5b61358083613033565b91506020808401356001600160401b0381111561359c57600080fd5b8401601f810186136135ad57600080fd5b80356135c06135bb82613541565b613141565b81815260059190911b820183019083810190888311156135df57600080fd5b928401925b828410156135fd578335825292840192908401906135e4565b80955050505050509250929050565b6000806040838503121561361f57600080fd5b61362883613033565b91506130fa60208401613033565b600181811c9082168061364a57607f821691505b6020821081141561194257634e487b7160e01b600052602260045260246000fd5b634e487b7160e01b600052601160045260246000fd5b6000828210156136935761369361366b565b500390565b6020808252602e908201527f4552433732313a2063616c6c6572206973206e6f7420746f6b656e206f776e6560408201526d1c881b9bdc88185c1c1c9bdd995960921b606082015260800190565b60008160001904831182151516156137005761370061366b565b500290565b634e487b7160e01b600052601260045260246000fd5b60008261372a5761372a613705565b500490565b634e487b7160e01b600052603260045260246000fd5b6000808335601e1984360301811261375c57600080fd5b8301803591506001600160401b0382111561377657600080fd5b6020019150600581901b360382131561378e57600080fd5b9250929050565b6000823560de198336030181126137ab57600080fd5b9190910192915050565b60ff811681146104b957600080fd5b803561304a816137b5565b600082601f8301126137e057600080fd5b813560206137f06135bb83613541565b82815260059290921b8401810191818101908684111561380f57600080fd5b8286015b8481101561384e5780356001600160401b038111156138325760008081fd5b6138408986838b01016131c8565b845250918301918301613813565b509695505050505050565b600060e0823603121561386b57600080fd5b613873613119565b61387c836137c4565b8152602083013560208201526040830135604082015261389e606084016137c4565b606082015260808301356001600160401b038111156138bc57600080fd5b6138c8368286016137cf565b60808301525060a083013560a08201526138e460c084016132fb565b60c082015292915050565b60006000198214156139035761390361366b565b5060010190565b60006020828403121561391c57600080fd5b81516113b8816132ed565b5b81811015610b505760008155600101613928565b8054600080835581156109065782815260208082208381015b808210156139ba576139678254613636565b80156139ae57601f80821160018114613982578685556139ab565b84875285872061399c83850160051c820160018301613927565b50600085815260208120818755555b50505b50600182019150613955565b505050505050565b601f82111561090657806000526020600020601f840160051c810160208510156139e95750805b6115f3601f850160051c830182613927565b6001600160401b03831115613a1257613a12613103565b613a2683613a208354613636565b836139c2565b6000601f841160018114613a5a5760008515613a425750838201355b600019600387901b1c1916600186901b1783556115f3565b600083815260209020601f19861690835b82811015613a8b5786850135825560209485019460019092019101613a6b565b5086821015613aa85760001960f88860031b161c19848701351681555b505060018560011b0183555050505050565b60008135610731816132ed565b8135613ad2816137b5565b815460ff191660ff821617825550600160208084013582840155604084013560028401556060840135613b04816137b5565b60038401805460ff191660ff83161790555060048301613b276080860186613745565b600160401b811115613b3b57613b3b613103565b825481845580821015613bc05760008481528581208381019083015b80821015613bbc57613b698254613636565b8015613bb257601f80821160018114613b8457858555613baf565b600085815260209020613ba083850160051c82018e8301613927565b50600085815260208120818755555b50505b5090880190613b57565b5050505b508160008481528581209450805b83811015613c2f578235601e19863603018112613be9578283fd5b850180356001600160401b03811115613c00578384fd5b8882019150803603821315613c13578384fd5b613c1e81838a6139fb565b505094870194918601918701613bce565b505050505050505060a08201356005820155610b50613c5060c08401613aba565b6006830160ff1981541660ff8315151681178255505050565b8135815560018082016020613c8081860186613745565b600160401b811115613c9457613c94613103565b835481855580821015613d41577f2492492492492492492492492492492492492492492492492492492492492492808211871615613cd457613cd461366b565b6007818411881615613ce857613ce861366b565b6000878152868120909250848202810190828502015b80821015613d3c57838255838a830155836002830155836003830155613d266004830161393c565b8360058301558360068301558282019150613cfe565b505050505b506000938452602084209382905b82811015613d7c57613d6a613d648386613795565b87613ac7565b60079590950194908401908601613d4f565b505050505050505050565b6001600160a01b03858116825284166020820152608060408201819052600090613db390830185612fdb565b905082606083015295945050505050565b60208082526012908201527113d3931657d05113525397d0531313d5d15160721b604082015260600190565b60208082526007908201526612539597d0511160ca1b604082015260600190565b60008351613e23818460208801612faf565b835190830190613e37818360208801612faf565b01949350505050565b60008219821115613e5357613e5361366b565b500190565b600082613e6757613e67613705565b500690565b60208082526032908201527f4552433732313a207472616e7366657220746f206e6f6e20455243373231526560408201527131b2b4bb32b91034b6b83632b6b2b73a32b960711b606082015260800190565b7f416363657373436f6e74726f6c3a206163636f756e7420000000000000000000815260008351613ef6816017850160208801612faf565b7001034b99036b4b9b9b4b733903937b6329607d1b6017918401918201528351613f27816028840160208801612faf565b01602801949350505050565b6001600160a01b0385811682528416602082015260408101839052608060608201819052600090613f6690830184612fdb565b9695505050505050565b600060208284031215613f8257600080fd5b81516113b881612f7c565b600081613f9c57613f9c61366b565b506000190190565b634e487b7160e01b600052603160045260246000fdfe65d7a28e3265b37a6474929f336521b332c1681b933f6cb9f3376673440d862a9f2df0fed2c77648de5860a4cc508cd0818c85b8b8a1ab4ceeef8d981c8956a6a264697066735822122067ed2ac550a33c0e65ad8b372658d29d24ef90cc2ee92b3e0122dbd2237421f864736f6c634300080c0033",
  "linkReferences": {},
  "deployedLinkReferences": {}
}