{
  "_format": "hh-sol-artifact-1",
  "contractName": "GenerativeNFT",
  "sourceName": "contracts/nft/GenerativeNFT.sol",
  "abi": [
    {
      "inputs": [
        {
          "internalType": "string",
          "name": "_name",
          "type": "string"
        },
        {
          "internalType": "string",
          "name": "_symbol",
          "type": "string"
        },
        {
          "internalType": "string",
          "name": "_baseuri",
          "type": "string"
        },
        {
          "internalType": "address",
          "name": "admin",
          "type": "address"
        }
      ],
      "stateMutability": "nonpayable",
      "type": "constructor"
    },
    {
      "anonymous": false,
      "inputs": [
        {
          "indexed": true,
          "internalType": "address",
          "name": "owner",
          "type": "address"
        },
        {
          "indexed": true,
          "internalType": "address",
          "name": "approved",
          "type": "address"
        },
        {
          "indexed": true,
          "internalType": "uint256",
          "name": "tokenId",
          "type": "uint256"
        }
      ],
      "name": "Approval",
      "type": "event"
    },
    {
      "anonymous": false,
      "inputs": [
        {
          "indexed": true,
          "internalType": "address",
          "name": "owner",
          "type": "address"
        },
        {
          "indexed": true,
          "internalType": "address",
          "name": "operator",
          "type": "address"
        },
        {
          "indexed": false,
          "internalType": "bool",
          "name": "approved",
          "type": "bool"
        }
      ],
      "name": "ApprovalForAll",
      "type": "event"
    },
    {
      "anonymous": false,
      "inputs": [
        {
          "indexed": true,
          "internalType": "address",
          "name": "previousOwner",
          "type": "address"
        },
        {
          "indexed": true,
          "internalType": "address",
          "name": "newOwner",
          "type": "address"
        }
      ],
      "name": "OwnershipTransferred",
      "type": "event"
    },
    {
      "anonymous": false,
      "inputs": [
        {
          "indexed": false,
          "internalType": "address",
          "name": "account",
          "type": "address"
        }
      ],
      "name": "Paused",
      "type": "event"
    },
    {
      "anonymous": false,
      "inputs": [
        {
          "indexed": true,
          "internalType": "bytes32",
          "name": "role",
          "type": "bytes32"
        },
        {
          "indexed": true,
          "internalType": "bytes32",
          "name": "previousAdminRole",
          "type": "bytes32"
        },
        {
          "indexed": true,
          "internalType": "bytes32",
          "name": "newAdminRole",
          "type": "bytes32"
        }
      ],
      "name": "RoleAdminChanged",
      "type": "event"
    },
    {
      "anonymous": false,
      "inputs": [
        {
          "indexed": true,
          "internalType": "bytes32",
          "name": "role",
          "type": "bytes32"
        },
        {
          "indexed": true,
          "internalType": "address",
          "name": "account",
          "type": "address"
        },
        {
          "indexed": true,
          "internalType": "address",
          "name": "sender",
          "type": "address"
        }
      ],
      "name": "RoleGranted",
      "type": "event"
    },
    {
      "anonymous": false,
      "inputs": [
        {
          "indexed": true,
          "internalType": "bytes32",
          "name": "role",
          "type": "bytes32"
        },
        {
          "indexed": true,
          "internalType": "address",
          "name": "account",
          "type": "address"
        },
        {
          "indexed": true,
          "internalType": "address",
          "name": "sender",
          "type": "address"
        }
      ],
      "name": "RoleRevoked",
      "type": "event"
    },
    {
      "anonymous": false,
      "inputs": [
        {
          "indexed": true,
          "internalType": "address",
          "name": "from",
          "type": "address"
        },
        {
          "indexed": true,
          "internalType": "address",
          "name": "to",
          "type": "address"
        },
        {
          "indexed": true,
          "internalType": "uint256",
          "name": "tokenId",
          "type": "uint256"
        }
      ],
      "name": "Transfer",
      "type": "event"
    },
    {
      "anonymous": false,
      "inputs": [
        {
          "indexed": false,
          "internalType": "address",
          "name": "account",
          "type": "address"
        }
      ],
      "name": "Unpaused",
      "type": "event"
    },
    {
      "inputs": [],
      "name": "DEFAULT_ADMIN_ROLE",
      "outputs": [
        {
          "internalType": "bytes32",
          "name": "",
          "type": "bytes32"
        }
      ],
      "stateMutability": "view",
      "type": "function"
    },
    {
      "inputs": [],
      "name": "MINTER_ROLE",
      "outputs": [
        {
          "internalType": "bytes32",
          "name": "",
          "type": "bytes32"
        }
      ],
      "stateMutability": "view",
      "type": "function"
    },
    {
      "inputs": [],
      "name": "PAUSER_ROLE",
      "outputs": [
        {
          "internalType": "bytes32",
          "name": "",
          "type": "bytes32"
        }
      ],
      "stateMutability": "view",
      "type": "function"
    },
    {
      "inputs": [],
      "name": "_admin",
      "outputs": [
        {
          "internalType": "address",
          "name": "",
          "type": "address"
        }
      ],
      "stateMutability": "view",
      "type": "function"
    },
    {
      "inputs": [],
      "name": "_boilerplateAddr",
      "outputs": [
        {
          "internalType": "address",
          "name": "",
          "type": "address"
        }
      ],
      "stateMutability": "view",
      "type": "function"
    },
    {
      "inputs": [],
      "name": "_boilerplateId",
      "outputs": [
        {
          "internalType": "uint256",
          "name": "",
          "type": "uint256"
        }
      ],
      "stateMutability": "view",
      "type": "function"
    },
    {
      "inputs": [
        {
          "internalType": "uint256",
          "name": "",
          "type": "uint256"
        }
      ],
      "name": "_creators",
      "outputs": [
        {
          "internalType": "address",
          "name": "",
          "type": "address"
        }
      ],
      "stateMutability": "view",
      "type": "function"
    },
    {
      "inputs": [
        {
          "internalType": "uint256",
          "name": "",
          "type": "uint256"
        }
      ],
      "name": "_paramsValues",
      "outputs": [
        {
          "internalType": "bytes32",
          "name": "_seed",
          "type": "bytes32"
        }
      ],
      "stateMutability": "view",
      "type": "function"
    },
    {
      "inputs": [
        {
          "internalType": "address",
          "name": "to",
          "type": "address"
        },
        {
          "internalType": "uint256",
          "name": "tokenId",
          "type": "uint256"
        }
      ],
      "name": "approve",
      "outputs": [],
      "stateMutability": "nonpayable",
      "type": "function"
    },
    {
      "inputs": [
        {
          "internalType": "address",
          "name": "owner",
          "type": "address"
        }
      ],
      "name": "balanceOf",
      "outputs": [
        {
          "internalType": "uint256",
          "name": "",
          "type": "uint256"
        }
      ],
      "stateMutability": "view",
      "type": "function"
    },
    {
      "inputs": [],
      "name": "baseTokenURI",
      "outputs": [
        {
          "internalType": "string",
          "name": "",
          "type": "string"
        }
      ],
      "stateMutability": "view",
      "type": "function"
    },
    {
      "inputs": [
        {
          "internalType": "uint256",
          "name": "tokenId",
          "type": "uint256"
        }
      ],
      "name": "burn",
      "outputs": [],
      "stateMutability": "nonpayable",
      "type": "function"
    },
    {
      "inputs": [
        {
          "internalType": "address",
          "name": "_newAdmin",
          "type": "address"
        }
      ],
      "name": "changeAdmin",
      "outputs": [],
      "stateMutability": "nonpayable",
      "type": "function"
    },
    {
      "inputs": [
        {
          "internalType": "uint256",
          "name": "tokenId",
          "type": "uint256"
        }
      ],
      "name": "getApproved",
      "outputs": [
        {
          "internalType": "address",
          "name": "",
          "type": "address"
        }
      ],
      "stateMutability": "view",
      "type": "function"
    },
    {
      "inputs": [
        {
          "internalType": "uint256",
          "name": "tokenId",
          "type": "uint256"
        }
      ],
      "name": "getParamValues",
      "outputs": [
        {
          "internalType": "bytes32",
          "name": "",
          "type": "bytes32"
        },
        {
          "components": [
            {
              "internalType": "uint8",
              "name": "_typeValue",
              "type": "uint8"
            },
            {
              "internalType": "uint256",
              "name": "_max",
              "type": "uint256"
            },
            {
              "internalType": "uint256",
              "name": "_min",
              "type": "uint256"
            },
            {
              "internalType": "uint8",
              "name": "_decimal",
              "type": "uint8"
            },
            {
              "internalType": "string[]",
              "name": "_availableValues",
              "type": "string[]"
            },
            {
              "internalType": "uint256",
              "name": "_value",
              "type": "uint256"
            },
            {
              "internalType": "bool",
              "name": "_editable",
              "type": "bool"
            }
          ],
          "internalType": "struct BoilerplateParam.ParamTemplate[]",
          "name": "",
          "type": "tuple[]"
        }
      ],
      "stateMutability": "view",
      "type": "function"
    },
    {
      "inputs": [
        {
          "internalType": "bytes32",
          "name": "role",
          "type": "bytes32"
        }
      ],
      "name": "getRoleAdmin",
      "outputs": [
        {
          "internalType": "bytes32",
          "name": "",
          "type": "bytes32"
        }
      ],
      "stateMutability": "view",
      "type": "function"
    },
    {
      "inputs": [
        {
          "internalType": "bytes32",
          "name": "role",
          "type": "bytes32"
        },
        {
          "internalType": "uint256",
          "name": "index",
          "type": "uint256"
        }
      ],
      "name": "getRoleMember",
      "outputs": [
        {
          "internalType": "address",
          "name": "",
          "type": "address"
        }
      ],
      "stateMutability": "view",
      "type": "function"
    },
    {
      "inputs": [
        {
          "internalType": "bytes32",
          "name": "role",
          "type": "bytes32"
        }
      ],
      "name": "getRoleMemberCount",
      "outputs": [
        {
          "internalType": "uint256",
          "name": "",
          "type": "uint256"
        }
      ],
      "stateMutability": "view",
      "type": "function"
    },
    {
      "inputs": [
        {
          "internalType": "bytes32",
          "name": "role",
          "type": "bytes32"
        },
        {
          "internalType": "address",
          "name": "account",
          "type": "address"
        }
      ],
      "name": "grantRole",
      "outputs": [],
      "stateMutability": "nonpayable",
      "type": "function"
    },
    {
      "inputs": [
        {
          "internalType": "bytes32",
          "name": "role",
          "type": "bytes32"
        },
        {
          "internalType": "address",
          "name": "account",
          "type": "address"
        }
      ],
      "name": "hasRole",
      "outputs": [
        {
          "internalType": "bool",
          "name": "",
          "type": "bool"
        }
      ],
      "stateMutability": "view",
      "type": "function"
    },
    {
      "inputs": [
        {
          "internalType": "string",
          "name": "name",
          "type": "string"
        },
        {
          "internalType": "string",
          "name": "symbol",
          "type": "string"
        },
        {
          "internalType": "address",
          "name": "admin",
          "type": "address"
        },
        {
          "internalType": "address",
          "name": "boilerplateAdd",
          "type": "address"
        },
        {
          "internalType": "uint256",
          "name": "boilerplateId",
          "type": "uint256"
        }
      ],
      "name": "init",
      "outputs": [],
      "stateMutability": "nonpayable",
      "type": "function"
    },
    {
      "inputs": [
        {
          "internalType": "address",
          "name": "owner",
          "type": "address"
        },
        {
          "internalType": "address",
          "name": "operator",
          "type": "address"
        }
      ],
      "name": "isApprovedForAll",
      "outputs": [
        {
          "internalType": "bool",
          "name": "",
          "type": "bool"
        }
      ],
      "stateMutability": "view",
      "type": "function"
    },
    {
      "inputs": [
        {
          "internalType": "address",
          "name": "to",
          "type": "address"
        }
      ],
      "name": "mint",
      "outputs": [],
      "stateMutability": "nonpayable",
      "type": "function"
    },
    {
      "inputs": [
        {
          "internalType": "address",
          "name": "mintTo",
          "type": "address"
        },
        {
          "internalType": "address",
          "name": "creator",
          "type": "address"
        },
        {
          "internalType": "string",
          "name": "uri",
          "type": "string"
        },
        {
          "components": [
            {
              "internalType": "bytes32",
              "name": "_seed",
              "type": "bytes32"
            },
            {
              "components": [
                {
                  "internalType": "uint8",
                  "name": "_typeValue",
                  "type": "uint8"
                },
                {
                  "internalType": "uint256",
                  "name": "_max",
                  "type": "uint256"
                },
                {
                  "internalType": "uint256",
                  "name": "_min",
                  "type": "uint256"
                },
                {
                  "internalType": "uint8",
                  "name": "_decimal",
                  "type": "uint8"
                },
                {
                  "internalType": "string[]",
                  "name": "_availableValues",
                  "type": "string[]"
                },
                {
                  "internalType": "uint256",
                  "name": "_value",
                  "type": "uint256"
                },
                {
                  "internalType": "bool",
                  "name": "_editable",
                  "type": "bool"
                }
              ],
              "internalType": "struct BoilerplateParam.ParamTemplate[]",
              "name": "_params",
              "type": "tuple[]"
            }
          ],
          "internalType": "struct BoilerplateParam.ParamsOfProject",
          "name": "_paramsTemplateValue",
          "type": "tuple"
        },
        {
          "internalType": "bool",
          "name": "clientSeed",
          "type": "bool"
        }
      ],
      "name": "mint",
      "outputs": [],
      "stateMutability": "nonpayable",
      "type": "function"
    },
    {
      "inputs": [],
      "name": "name",
      "outputs": [
        {
          "internalType": "string",
          "name": "",
          "type": "string"
        }
      ],
      "stateMutability": "view",
      "type": "function"
    },
    {
      "inputs": [],
      "name": "owner",
      "outputs": [
        {
          "internalType": "address",
          "name": "",
          "type": "address"
        }
      ],
      "stateMutability": "view",
      "type": "function"
    },
    {
      "inputs": [
        {
          "internalType": "uint256",
          "name": "tokenId",
          "type": "uint256"
        }
      ],
      "name": "ownerOf",
      "outputs": [
        {
          "internalType": "address",
          "name": "",
          "type": "address"
        }
      ],
      "stateMutability": "view",
      "type": "function"
    },
    {
      "inputs": [],
      "name": "pause",
      "outputs": [],
      "stateMutability": "nonpayable",
      "type": "function"
    },
    {
      "inputs": [],
      "name": "paused",
      "outputs": [
        {
          "internalType": "bool",
          "name": "",
          "type": "bool"
        }
      ],
      "stateMutability": "view",
      "type": "function"
    },
    {
      "inputs": [],
      "name": "renounceOwnership",
      "outputs": [],
      "stateMutability": "nonpayable",
      "type": "function"
    },
    {
      "inputs": [
        {
          "internalType": "bytes32",
          "name": "role",
          "type": "bytes32"
        },
        {
          "internalType": "address",
          "name": "account",
          "type": "address"
        }
      ],
      "name": "renounceRole",
      "outputs": [],
      "stateMutability": "nonpayable",
      "type": "function"
    },
    {
      "inputs": [
        {
          "internalType": "bytes32",
          "name": "role",
          "type": "bytes32"
        },
        {
          "internalType": "address",
          "name": "account",
          "type": "address"
        }
      ],
      "name": "revokeRole",
      "outputs": [],
      "stateMutability": "nonpayable",
      "type": "function"
    },
    {
      "inputs": [
        {
          "internalType": "uint256",
          "name": "",
          "type": "uint256"
        }
      ],
      "name": "royalties",
      "outputs": [
        {
          "internalType": "address",
          "name": "recipient",
          "type": "address"
        },
        {
          "internalType": "uint24",
          "name": "amount",
          "type": "uint24"
        },
        {
          "internalType": "bool",
          "name": "isValue",
          "type": "bool"
        }
      ],
      "stateMutability": "view",
      "type": "function"
    },
    {
      "inputs": [
        {
          "internalType": "uint256",
          "name": "_tokenId",
          "type": "uint256"
        },
        {
          "internalType": "uint256",
          "name": "_salePrice",
          "type": "uint256"
        }
      ],
      "name": "royaltyInfo",
      "outputs": [
        {
          "internalType": "address",
          "name": "receiver",
          "type": "address"
        },
        {
          "internalType": "uint256",
          "name": "royaltyAmount",
          "type": "uint256"
        }
      ],
      "stateMutability": "view",
      "type": "function"
    },
    {
      "inputs": [
        {
          "internalType": "address",
          "name": "from",
          "type": "address"
        },
        {
          "internalType": "address",
          "name": "to",
          "type": "address"
        },
        {
          "internalType": "uint256",
          "name": "tokenId",
          "type": "uint256"
        }
      ],
      "name": "safeTransferFrom",
      "outputs": [],
      "stateMutability": "nonpayable",
      "type": "function"
    },
    {
      "inputs": [
        {
          "internalType": "address",
          "name": "from",
          "type": "address"
        },
        {
          "internalType": "address",
          "name": "to",
          "type": "address"
        },
        {
          "internalType": "uint256",
          "name": "tokenId",
          "type": "uint256"
        },
        {
          "internalType": "bytes",
          "name": "data",
          "type": "bytes"
        }
      ],
      "name": "safeTransferFrom",
      "outputs": [],
      "stateMutability": "nonpayable",
      "type": "function"
    },
    {
      "inputs": [
        {
          "internalType": "address",
          "name": "operator",
          "type": "address"
        },
        {
          "internalType": "bool",
          "name": "approved",
          "type": "bool"
        }
      ],
      "name": "setApprovalForAll",
      "outputs": [],
      "stateMutability": "nonpayable",
      "type": "function"
    },
    {
      "inputs": [
        {
          "internalType": "address",
          "name": "_to",
          "type": "address"
        },
        {
          "internalType": "uint256[]",
          "name": "_ids",
          "type": "uint256[]"
        }
      ],
      "name": "setCreator",
      "outputs": [],
      "stateMutability": "nonpayable",
      "type": "function"
    },
    {
      "inputs": [
        {
          "internalType": "uint256",
          "name": "_tokenId",
          "type": "uint256"
        },
        {
          "internalType": "string",
          "name": "_newURI",
          "type": "string"
        }
      ],
      "name": "setCustomURI",
      "outputs": [],
      "stateMutability": "nonpayable",
      "type": "function"
    },
    {
      "inputs": [
        {
          "internalType": "uint256",
          "name": "_tokenId",
          "type": "uint256"
        },
        {
          "internalType": "address",
          "name": "_recipient",
          "type": "address"
        },
        {
          "internalType": "uint256",
          "name": "_value",
          "type": "uint256"
        }
      ],
      "name": "setTokenRoyalty",
      "outputs": [],
      "stateMutability": "nonpayable",
      "type": "function"
    },
    {
      "inputs": [
        {
          "internalType": "bytes4",
          "name": "interfaceId",
          "type": "bytes4"
        }
      ],
      "name": "supportsInterface",
      "outputs": [
        {
          "internalType": "bool",
          "name": "",
          "type": "bool"
        }
      ],
      "stateMutability": "view",
      "type": "function"
    },
    {
      "inputs": [],
      "name": "symbol",
      "outputs": [
        {
          "internalType": "string",
          "name": "",
          "type": "string"
        }
      ],
      "stateMutability": "view",
      "type": "function"
    },
    {
      "inputs": [
        {
          "internalType": "uint256",
          "name": "index",
          "type": "uint256"
        }
      ],
      "name": "tokenByIndex",
      "outputs": [
        {
          "internalType": "uint256",
          "name": "",
          "type": "uint256"
        }
      ],
      "stateMutability": "view",
      "type": "function"
    },
    {
      "inputs": [
        {
          "internalType": "address",
          "name": "owner",
          "type": "address"
        },
        {
          "internalType": "uint256",
          "name": "index",
          "type": "uint256"
        }
      ],
      "name": "tokenOfOwnerByIndex",
      "outputs": [
        {
          "internalType": "uint256",
          "name": "",
          "type": "uint256"
        }
      ],
      "stateMutability": "view",
      "type": "function"
    },
    {
      "inputs": [
        {
          "internalType": "uint256",
          "name": "_tokenId",
          "type": "uint256"
        }
      ],
      "name": "tokenURI",
      "outputs": [
        {
          "internalType": "string",
          "name": "",
          "type": "string"
        }
      ],
      "stateMutability": "view",
      "type": "function"
    },
    {
      "inputs": [],
      "name": "totalSupply",
      "outputs": [
        {
          "internalType": "uint256",
          "name": "",
          "type": "uint256"
        }
      ],
      "stateMutability": "view",
      "type": "function"
    },
    {
      "inputs": [
        {
          "internalType": "address",
          "name": "from",
          "type": "address"
        },
        {
          "internalType": "address",
          "name": "to",
          "type": "address"
        },
        {
          "internalType": "uint256",
          "name": "tokenId",
          "type": "uint256"
        }
      ],
      "name": "transferFrom",
      "outputs": [],
      "stateMutability": "nonpayable",
      "type": "function"
    },
    {
      "inputs": [
        {
          "internalType": "address",
          "name": "newOwner",
          "type": "address"
        }
      ],
      "name": "transferOwnership",
      "outputs": [],
      "stateMutability": "nonpayable",
      "type": "function"
    },
    {
      "inputs": [],
      "name": "unpause",
      "outputs": [],
      "stateMutability": "nonpayable",
      "type": "function"
    }
  ],
  "bytecode": "0x60806040523480156200001157600080fd5b50604051620046ce380380620046ce833981016040819052620000349162000456565b8383838282816002908051906020019062000051929190620002e3565b50805162000067906003906020840190620002e3565b5050600c805460ff191690555080516200008990600e906020840190620002e3565b50620000976000336200012c565b620000c37f9f2df0fed2c77648de5860a4cc508cd0818c85b8b8a1ab4ceeef8d981c8956a6336200012c565b620000ef7f65d7a28e3265b37a6474929f336521b332c1681b933f6cb9f3376673440d862a336200012c565b50506001600f555062000102336200013c565b601280546001600160a01b0319166001600160a01b03929092169190911790555062000546915050565b6200013882826200018e565b5050565b601080546001600160a01b038381166001600160a01b0319831681179093556040519116919082907f8be0079c531659141344cd1fd0a4f28419497f9722a3daafe3b4186f6b6457e090600090a35050565b620001a58282620001d160201b62001bfc1760201c565b6000828152600160209081526040909120620001cc91839062001c8062000271821b17901c565b505050565b6000828152602081815260408083206001600160a01b038516845290915290205460ff1662000138576000828152602081815260408083206001600160a01b03851684529091529020805460ff191660011790556200022d3390565b6001600160a01b0316816001600160a01b0316837f2f8788117e7eff1d82e926ec794901d17c78024a50270940304540a733656f0d60405160405180910390a45050565b600062000288836001600160a01b03841662000291565b90505b92915050565b6000818152600183016020526040812054620002da575081546001818101845560008481526020808220909301849055845484825282860190935260409020919091556200028b565b5060006200028b565b828054620002f19062000509565b90600052602060002090601f01602090048101928262000315576000855562000360565b82601f106200033057805160ff191683800117855562000360565b8280016001018555821562000360579182015b828111156200036057825182559160200191906001019062000343565b506200036e92915062000372565b5090565b5b808211156200036e576000815560010162000373565b634e487b7160e01b600052604160045260246000fd5b600082601f830112620003b157600080fd5b81516001600160401b0380821115620003ce57620003ce62000389565b604051601f8301601f19908116603f01168101908282118183101715620003f957620003f962000389565b816040528381526020925086838588010111156200041657600080fd5b600091505b838210156200043a57858201830151818301840152908201906200041b565b838211156200044c5760008385830101525b9695505050505050565b600080600080608085870312156200046d57600080fd5b84516001600160401b03808211156200048557600080fd5b62000493888389016200039f565b95506020870151915080821115620004aa57600080fd5b620004b8888389016200039f565b94506040870151915080821115620004cf57600080fd5b50620004de878288016200039f565b606087015190935090506001600160a01b0381168114620004fe57600080fd5b939692955090935050565b600181811c908216806200051e57607f821691505b602082108114156200054057634e487b7160e01b600052602260045260246000fd5b50919050565b61417880620005566000396000f3fe608060405234801561001057600080fd5b50600436106102bb5760003560e01c80637f77f57411610182578063ae3dd095116100e9578063d5391393116100a2578063e63ab1e91161007c578063e63ab1e9146106af578063e985e9c5146106c4578063f2fde38b14610700578063f9ecc22c1461071357600080fd5b8063d53913931461067f578063d547741f14610694578063d547cfb7146106a757600080fd5b8063ae3dd095146105ff578063b88d4fde14610612578063c0dca23914610625578063c87b56dd14610646578063ca15c87314610659578063d2a6b51a1461066c57600080fd5b806391d148541161013b57806391d1485414610596578063953cd246146105a957806395d89b41146105c95780639713c807146105d1578063a217fddf146105e4578063a22cb465146105ec57600080fd5b80637f77f574146104d757806381aa7929146105445780638456cb59146105575780638da5cb5b1461055f5780638f283970146105705780639010d07c1461058357600080fd5b80633adf80b411610226578063531f7b53116101df578063531f7b53146104845780635c975abb1461048d5780636352211e146104985780636a627842146104ab57806370a08231146104bc578063715018a6146104cf57600080fd5b80633adf80b4146104075780633f4ba83a1461041a57806342842e0e1461042257806342966c68146104355780634816edf4146104485780634f6ccce71461047157600080fd5b806323b872dd1161027857806323b872dd14610366578063248a9ca3146103795780632a55205a1461039c5780632f2ff15d146103ce5780632f745c59146103e157806336568abe146103f457600080fd5b806301bc45c9146102c057806301ffc9a7146102f057806306fdde0314610313578063081812fc14610328578063095ea7b31461033b57806318160ddd14610350575b600080fd5b6012546102d3906001600160a01b031681565b6040516001600160a01b0390911681526020015b60405180910390f35b6103036102fe3660046130e9565b610726565b60405190151581526020016102e7565b61031b610737565b6040516102e7919061315e565b6102d3610336366004613171565b6107c9565b61034e6103493660046131a6565b6107f0565b005b61035861090b565b6040519081526020016102e7565b61034e6103743660046131d0565b610927565b610358610387366004613171565b60009081526020819052604090206001015490565b6103af6103aa36600461320c565b610959565b604080516001600160a01b0390931683526020830191909152016102e7565b61034e6103dc36600461322e565b610a1b565b6103586103ef3660046131a6565b610a40565b61034e61040236600461322e565b610ad6565b61034e61041536600461333f565b610b54565b61034e610bd0565b61034e6104303660046131d0565b610c66565b61034e610443366004613171565b610c81565b6102d3610456366004613171565b6017602052600090815260409020546001600160a01b031681565b61035861047f366004613171565b610caf565b61035860145481565b600c5460ff16610303565b6102d36104a6366004613171565b610d42565b61034e6104b936600461337b565b50565b6103586104ca36600461337b565b610da2565b61034e610e28565b6105196104e5366004613171565b601a602052600090815260409020546001600160a01b03811690600160a01b810462ffffff1690600160b81b900460ff1683565b604080516001600160a01b03909416845262ffffff90921660208401521515908201526060016102e7565b61034e6105523660046133af565b610e3a565b61034e611317565b6012546001600160a01b03166102d3565b61034e61057e36600461337b565b6113a9565b6102d361059136600461320c565b6114f7565b6103036105a436600461322e565b611516565b6103586105b7366004613171565b60156020526000908152604090205481565b61031b61153f565b61034e6105df36600461344d565b61154e565b610358600081565b61034e6105fa366004613472565b61165f565b61034e61060d3660046134a9565b61166a565b61034e610620366004613535565b611751565b610638610633366004613171565b611783565b6040516102e79291906135b0565b61031b610654366004613171565b611919565b610358610667366004613171565b611a9f565b61034e61067a3660046136d0565b611ab6565b61035860008051602061412383398151915281565b61034e6106a236600461322e565b611b57565b61031b611b7c565b61035860008051602061410383398151915281565b6103036106d2366004613778565b6001600160a01b03918216600090815260076020908152604080832093909416825291909152205460ff1690565b61034e61070e36600461337b565b611b86565b6013546102d3906001600160a01b031681565b600061073182611c95565b92915050565b606060188054610746906137a2565b80601f0160208091040260200160405190810160405280929190818152602001828054610772906137a2565b80156107bf5780601f10610794576101008083540402835291602001916107bf565b820191906000526020600020905b8154815290600101906020018083116107a257829003601f168201915b5050505050905090565b60006107d482611cba565b506000908152600660205260409020546001600160a01b031690565b60006107fb82610d42565b9050806001600160a01b0316836001600160a01b0316141561086e5760405162461bcd60e51b815260206004820152602160248201527f4552433732313a20617070726f76616c20746f2063757272656e74206f776e656044820152603960f91b60648201526084015b60405180910390fd5b336001600160a01b038216148061088a575061088a81336106d2565b6108fc5760405162461bcd60e51b815260206004820152603e60248201527f4552433732313a20617070726f76652063616c6c6572206973206e6f7420746f60448201527f6b656e206f776e6572206e6f7220617070726f76656420666f7220616c6c00006064820152608401610865565b6109068383611d19565b505050565b6000600161091860115490565b61092291906137ed565b905090565b610932335b82611d87565b61094e5760405162461bcd60e51b815260040161086590613804565b610906838383611e06565b6000828152601a60209081526040808320815160608101835290546001600160a01b0381168252600160a01b810462ffffff1693820193909352600160b81b90920460ff16158015918301919091528291906109dd5780516020820151909350612710906109cc9062ffffff1686613852565b6109d69190613887565b9150610a13565b6000858152601760205260409020546001600160a01b03169250612710610a06856101f4613852565b610a109190613887565b91505b509250929050565b600082815260208190526040902060010154610a3681611fad565b6109068383611fb7565b6000610a4b83610da2565b8210610aad5760405162461bcd60e51b815260206004820152602b60248201527f455243373231456e756d657261626c653a206f776e657220696e646578206f7560448201526a74206f6620626f756e647360a81b6064820152608401610865565b506001600160a01b03919091166000908152600860209081526040808320938352929052205490565b6001600160a01b0381163314610b465760405162461bcd60e51b815260206004820152602f60248201527f416363657373436f6e74726f6c3a2063616e206f6e6c792072656e6f756e636560448201526e103937b632b9903337b91039b2b63360891b6064820152608401610865565b610b508282611fd9565b5050565b60008281526017602052604090205482906001600160a01b03163314610bab5760405162461bcd60e51b815260206004820152600c60248201526b27a7262cafa1a922a0aa27a960a11b6044820152606401610865565b60008381526016602090815260409091208351610bca9285019061303a565b50505050565b610be860008051602061410383398151915233611516565b610c5c576040805162461bcd60e51b81526020600482015260248101919091527f4552433732315072657365744d696e7465725061757365724175746f49643a2060448201527f6d75737420686176652070617573657220726f6c6520746f20756e70617573656064820152608401610865565b610c64611ffb565b565b61090683838360405180602001604052806000815250611751565b610c8a3361092c565b610ca65760405162461bcd60e51b815260040161086590613804565b6104b98161204d565b6000610cba600a5490565b8210610d1d5760405162461bcd60e51b815260206004820152602c60248201527f455243373231456e756d657261626c653a20676c6f62616c20696e646578206f60448201526b7574206f6620626f756e647360a01b6064820152608401610865565b600a8281548110610d3057610d3061389b565b90600052602060002001549050919050565b6000818152600460205260408120546001600160a01b0316806107315760405162461bcd60e51b8152602060048201526018602482015277115490cdcc8c4e881a5b9d985b1a59081d1bdad95b88125160421b6044820152606401610865565b60006001600160a01b038216610e0c5760405162461bcd60e51b815260206004820152602960248201527f4552433732313a2061646472657373207a65726f206973206e6f7420612076616044820152683634b21037bbb732b960b91b6064820152608401610865565b506001600160a01b031660009081526005602052604090205490565b610e306120f4565b610c646000612172565b60135460408051808201909152600381526206460760eb1b6020820152906001600160a01b03163314610e805760405162461bcd60e51b8152600401610865919061315e565b506013546001600160a01b031615801590610e9d57506000601454115b6040518060400160405280600381526020016219181960e91b81525090610ed75760405162461bcd60e51b8152600401610865919061315e565b508061104757813560005b610eef60208501856138b1565b9050811015611044576000610f0760208601866138b1565b83818110610f1757610f1761389b565b9050602002810190610f299190613901565b610f32906139c5565b805190915060ff1615610ff957608081015151610fa5578060a00151610f648460001c836040015184602001516121c4565b146040518060400160405280600381526020016219181b60e91b81525090610f9f5760405162461bcd60e51b8152600401610865919061315e565b50610ff9565b8060a00151610fbc8460001c8360800151516121ef565b146040518060400160405280600381526020016232303760e81b81525090610ff75760405162461bcd60e51b8152600401610865919061315e565b505b60a0810151604051611018918591602001918252602082015260400190565b60405160208183030381529060405280519060200120925050808061103c90613a5b565b915050610ee2565b50505b601354601454604051634f558e7960e01b815260048101919091526001600160a01b03909116908190634f558e7990602401602060405180830381865afa158015611096573d6000803e3d6000fd5b505050506040513d601f19601f820116820180604052508101906110ba9190613a76565b6040518060400160405280600381526020016219181960e91b815250906110f45760405162461bcd60e51b8152600401610865919061315e565b5060145460405163030595d760e01b815260048101919091526001600160a01b0382169063030595d790602401602060405180830381865afa15801561113e573d6000803e3d6000fd5b505050506040513d601f19601f820116820180604052508101906111629190613a93565b1580611245575060145460405163030595d760e01b815260048101919091526001600160a01b0382169063030595d790602401602060405180830381865afa1580156111b2573d6000803e3d6000fd5b505050506040513d601f19601f820116820180604052508101906111d69190613a93565b601454604051631fded86160e11b815260048101919091526001600160a01b03831690633fbdb0c290602401602060405180830381865afa15801561121f573d6000803e3d6000fd5b505050506040513d601f19601f820116820180604052508101906112439190613a93565b105b6040518060400160405280600381526020016232303360e81b8152509061127f5760405162461bcd60e51b8152600401610865919061315e565b5061128e601180546001019055565b600061129960115490565b8551909150156112c457600081815260166020908152604090912086516112c29288019061303a565b505b600081815260176020908152604080832080546001600160a01b0319166001600160a01b038b161790556015909152902084906113018282613dee565b90505061130e87826121fb565b50505050505050565b61132f60008051602061410383398151915233611516565b6113a15760405162461bcd60e51b815260206004820152603e60248201527f4552433732315072657365744d696e7465725061757365724175746f49643a2060448201527f6d75737420686176652070617573657220726f6c6520746f20706175736500006064820152608401610865565b610c64612215565b6012546001600160a01b0316336001600160a01b0316146113dc5760405162461bcd60e51b815260040161086590613f0c565b6113e7600033611516565b6114035760405162461bcd60e51b815260040161086590613f0c565b60408051808201909152600381526203130360ec1b60208201526001600160a01b0382166114445760405162461bcd60e51b8152600401610865919061315e565b50601280546001600160a01b038381166001600160a01b031983168117909355169061147290600090610a1b565b60125461149790600080516020614123833981519152906001600160a01b0316610a1b565b6012546114bc90600080516020614103833981519152906001600160a01b0316610a1b565b6114c7600082611b57565b6114df60008051602061412383398151915282611b57565b610b5060008051602061410383398151915282611b57565b600082815260016020526040812061150f9083612252565b9392505050565b6000918252602082815260408084206001600160a01b0393909316845291905290205460ff1690565b606060198054610746906137a2565b6012546001600160a01b0316336001600160a01b0316146115815760405162461bcd60e51b815260040161086590613f0c565b61158c600033611516565b6115a85760405162461bcd60e51b815260040161086590613f0c565b60408051808201909152600381526232303360e81b60208201526127108211156115e55760405162461bcd60e51b8152600401610865919061315e565b50604080516060810182526001600160a01b03938416815262ffffff928316602080830191825260018385019081526000978852601a90915292909520905181549551925194166001600160b81b031990951694909417600160a01b91909216021760ff60b81b1916600160b81b91151591909102179055565b610b5033838361225e565b6001600160a01b0382166116905760405162461bcd60e51b815260040161086590613f38565b6001600160a01b0383166116b65760405162461bcd60e51b815260040161086590613f38565b601454156116f05760405162461bcd60e51b815260206004820152600760248201526611561254d5115160ca1b6044820152606401610865565b845161170390601890602088019061303a565b50835161171790601990602087019061303a565b50601380546001600160a01b0319166001600160a01b03841617905560148190556117418361232d565b61174a83611b86565b5050505050565b61175b3383611d87565b6117775760405162461bcd60e51b815260040161086590613804565b610bca84848484612419565b600081815260156020908152604080832080546001909101805483518186028101860190945280845260609492939192839190879084015b8282101561190a57600084815260208082206040805160e08101825260078702909201805460ff9081168452600182015484860152600282015484840152600382015416606084015260048101805483518187028101870190945280845293959194608087019491929084015b828210156118d4578382906000526020600020018054611847906137a2565b80601f0160208091040260200160405190810160405280929190818152602001828054611873906137a2565b80156118c05780601f10611895576101008083540402835291602001916118c0565b820191906000526020600020905b8154815290600101906020018083116118a357829003601f168201915b505050505081526020019060010190611828565b50505090825250600582015460208083019190915260069092015460ff16151560409091015290825260019290920191016117bb565b50505050905091509150915091565b600081815260166020526040812080546060929190611937906137a2565b80601f0160208091040260200160405190810160405280929190818152602001828054611963906137a2565b80156119b05780601f10611985576101008083540402835291602001916119b0565b820191906000526020600020905b81548152906001019060200180831161199357829003601f168201915b50505050509050600081511115611a6057600083815260166020526040902080546119da906137a2565b80601f0160208091040260200160405190810160405280929190818152602001828054611a06906137a2565b8015611a535780601f10611a2857610100808354040283529160200191611a53565b820191906000526020600020905b815481529060010190602001808311611a3657829003601f168201915b5050505050915050919050565b611a68611b7c565b611a718461244c565b604051602001611a82929190613f59565b604051602081830303815290604052915050919050565b50919050565b600081815260016020526040812061073190612549565b60408051808201909152600381526203130360ec1b60208201526001600160a01b038316611af75760405162461bcd60e51b8152600401610865919061315e565b50611b1060008051602061412383398151915283611fb7565b60005b8151811015610906576000828281518110611b3057611b3061389b565b60200260200101519050611b448482612553565b5080611b4f81613a5b565b915050611b13565b600082815260208190526040902060010154611b7281611fad565b6109068383611fd9565b60606109226125d9565b611b8e6120f4565b6001600160a01b038116611bf35760405162461bcd60e51b815260206004820152602660248201527f4f776e61626c653a206e6577206f776e657220697320746865207a65726f206160448201526564647265737360d01b6064820152608401610865565b6104b981612172565b611c068282611516565b610b50576000828152602081815260408083206001600160a01b03851684529091529020805460ff19166001179055611c3c3390565b6001600160a01b0316816001600160a01b0316837f2f8788117e7eff1d82e926ec794901d17c78024a50270940304540a733656f0d60405160405180910390a45050565b600061150f836001600160a01b0384166125e8565b60006001600160e01b0319821663780e9d6360e01b1480610731575061073182612637565b6000818152600460205260409020546001600160a01b03166104b95760405162461bcd60e51b8152602060048201526018602482015277115490cdcc8c4e881a5b9d985b1a59081d1bdad95b88125160421b6044820152606401610865565b600081815260066020526040902080546001600160a01b0319166001600160a01b0384169081179091558190611d4e82610d42565b6001600160a01b03167f8c5be1e5ebec7d5bd14f71427d1e84f3dd0314c0f7b2291e5b200ac8c7c3b92560405160405180910390a45050565b600080611d9383610d42565b9050806001600160a01b0316846001600160a01b03161480611dda57506001600160a01b0380821660009081526007602090815260408083209388168352929052205460ff165b80611dfe5750836001600160a01b0316611df3846107c9565b6001600160a01b0316145b949350505050565b826001600160a01b0316611e1982610d42565b6001600160a01b031614611e7d5760405162461bcd60e51b815260206004820152602560248201527f4552433732313a207472616e736665722066726f6d20696e636f72726563742060448201526437bbb732b960d91b6064820152608401610865565b6001600160a01b038216611edf5760405162461bcd60e51b8152602060048201526024808201527f4552433732313a207472616e7366657220746f20746865207a65726f206164646044820152637265737360e01b6064820152608401610865565b611eea838383612677565b611ef5600082611d19565b6001600160a01b0383166000908152600560205260408120805460019290611f1e9084906137ed565b90915550506001600160a01b0382166000908152600560205260408120805460019290611f4c908490613f88565b909155505060008181526004602052604080822080546001600160a01b0319166001600160a01b0386811691821790925591518493918716917fddf252ad1be2c89b69c2b068fc378daa952ba7f163c4a11628f55a4df523b3ef91a4505050565b6104b98133612682565b611fc18282611bfc565b60008281526001602052604090206109069082611c80565b611fe382826126e6565b6000828152600160205260409020610906908261274b565b612003612760565b600c805460ff191690557f5db9ee0a495bf2e6ff9c91a7834c1ba4fdd244a5e8aa4e537bd38aeae4b073aa335b6040516001600160a01b03909116815260200160405180910390a1565b600061205882610d42565b905061206681600084612677565b612071600083611d19565b6001600160a01b038116600090815260056020526040812080546001929061209a9084906137ed565b909155505060008281526004602052604080822080546001600160a01b0319169055518391906001600160a01b038416907fddf252ad1be2c89b69c2b068fc378daa952ba7f163c4a11628f55a4df523b3ef908390a45050565b336121076012546001600160a01b031690565b6001600160a01b0316148061212657506013546001600160a01b031633145b610c645760405162461bcd60e51b815260206004820181905260248201527f4f776e61626c653a2063616c6c6572206973206e6f7420746865206f776e65726044820152606401610865565b601080546001600160a01b038381166001600160a01b0319831681179093556040519116919082907f8be0079c531659141344cd1fd0a4f28419497f9722a3daafe3b4186f6b6457e090600090a35050565b60006121d083836137ed565b6121db906001613f88565b6121e59085613fa0565b611dfe9084613f88565b600061150f8284613fa0565b610b508282604051806020016040528060008152506127a9565b61221d6127dc565b600c805460ff191660011790557f62e78cea01bee320cd4e420270b5ea74000d11b0c9f74754ebdbfc544b05a2586120303390565b600061150f8383612822565b816001600160a01b0316836001600160a01b031614156122c05760405162461bcd60e51b815260206004820152601960248201527f4552433732313a20617070726f766520746f2063616c6c6572000000000000006044820152606401610865565b6001600160a01b03838116600081815260076020908152604080832094871680845294825291829020805460ff191686151590811790915591519182527f17307eab39ab6107e8899845ad3d59bd9653f200f220920489ca2b5937696c31910160405180910390a3505050565b6013546001600160a01b0316331461237f5760405162461bcd60e51b815260206004820152601560248201527424a72b2fa9a2a72222a92fa4a724aa2fa0a226a4a760591b6044820152606401610865565b6001600160a01b0381166123a55760405162461bcd60e51b815260040161086590613f38565b601280546001600160a01b0319166001600160a01b0383169081179091556123cf90600090611fb7565b6012546123f490600080516020614123833981519152906001600160a01b0316611fb7565b6012546104b990600080516020614103833981519152906001600160a01b0316611fb7565b612424848484611e06565b6124308484848461284c565b610bca5760405162461bcd60e51b815260040161086590613fb4565b6060816124705750506040805180820190915260018152600360fc1b602082015290565b8160005b811561249a578061248481613a5b565b91506124939050600a83613887565b9150612474565b6000816001600160401b038111156124b4576124b461325a565b6040519080825280601f01601f1916602001820160405280156124de576020820181803683370190505b5090505b8415611dfe576124f36001836137ed565b9150612500600a86613fa0565b61250b906030613f88565b60f81b8183815181106125205761252061389b565b60200101906001600160f81b031916908160001a905350612542600a86613887565b94506124e2565b6000610731825490565b60008181526017602052604090205481906001600160a01b031633146125aa5760405162461bcd60e51b815260206004820152600c60248201526b27a7262cafa1a922a0aa27a960a11b6044820152606401610865565b50600090815260176020526040902080546001600160a01b0319166001600160a01b0392909216919091179055565b6060600e8054610746906137a2565b600081815260018301602052604081205461262f57508154600181810184556000848152602080822090930184905584548482528286019093526040902091909155610731565b506000610731565b60006001600160e01b031982166380ac58cd60e01b148061266857506001600160e01b03198216635b5e139f60e01b145b8061073157506107318261294a565b61090683838361296f565b61268c8282611516565b610b50576126a4816001600160a01b031660146129e1565b6126af8360206129e1565b6040516020016126c0929190614006565b60408051601f198184030181529082905262461bcd60e51b82526108659160040161315e565b6126f08282611516565b15610b50576000828152602081815260408083206001600160a01b0385168085529252808320805460ff1916905551339285917ff6391f5c32d9c69d2a47ea670b442974b53935d1edc7fd64eb21e047a839171b9190a45050565b600061150f836001600160a01b038416612b7c565b600c5460ff16610c645760405162461bcd60e51b815260206004820152601460248201527314185d5cd8589b194e881b9bdd081c185d5cd95960621b6044820152606401610865565b6127b38383612c6f565b6127c0600084848461284c565b6109065760405162461bcd60e51b815260040161086590613fb4565b600c5460ff1615610c645760405162461bcd60e51b815260206004820152601060248201526f14185d5cd8589b194e881c185d5cd95960821b6044820152606401610865565b60008260000182815481106128395761283961389b565b9060005260206000200154905092915050565b60006001600160a01b0384163b1561293f57604051630a85bd0160e11b81526001600160a01b0385169063150b7a029061289090339089908890889060040161407b565b6020604051808303816000875af19250505080156128cb575060408051601f3d908101601f191682019092526128c8918101906140b8565b60015b612925573d8080156128f9576040519150601f19603f3d011682016040523d82523d6000602084013e6128fe565b606091505b50805161291d5760405162461bcd60e51b815260040161086590613fb4565b805181602001fd5b6001600160e01b031916630a85bd0160e11b149050611dfe565b506001949350505050565b60006001600160e01b03198216635a05180f60e01b1480610731575061073182612dbd565b61297a838383612df2565b600c5460ff16156109065760405162461bcd60e51b815260206004820152602b60248201527f4552433732315061757361626c653a20746f6b656e207472616e73666572207760448201526a1a1a5b19481c185d5cd95960aa1b6064820152608401610865565b606060006129f0836002613852565b6129fb906002613f88565b6001600160401b03811115612a1257612a1261325a565b6040519080825280601f01601f191660200182016040528015612a3c576020820181803683370190505b509050600360fc1b81600081518110612a5757612a5761389b565b60200101906001600160f81b031916908160001a905350600f60fb1b81600181518110612a8657612a8661389b565b60200101906001600160f81b031916908160001a9053506000612aaa846002613852565b612ab5906001613f88565b90505b6001811115612b2d576f181899199a1a9b1b9c1cb0b131b232b360811b85600f1660108110612ae957612ae961389b565b1a60f81b828281518110612aff57612aff61389b565b60200101906001600160f81b031916908160001a90535060049490941c93612b26816140d5565b9050612ab8565b50831561150f5760405162461bcd60e51b815260206004820181905260248201527f537472696e67733a20686578206c656e67746820696e73756666696369656e746044820152606401610865565b60008181526001830160205260408120548015612c65576000612ba06001836137ed565b8554909150600090612bb4906001906137ed565b9050818114612c19576000866000018281548110612bd457612bd461389b565b9060005260206000200154905080876000018481548110612bf757612bf761389b565b6000918252602080832090910192909255918252600188019052604090208390555b8554869080612c2a57612c2a6140ec565b600190038181906000526020600020016000905590558560010160008681526020019081526020016000206000905560019350505050610731565b6000915050610731565b6001600160a01b038216612cc55760405162461bcd60e51b815260206004820181905260248201527f4552433732313a206d696e7420746f20746865207a65726f20616464726573736044820152606401610865565b6000818152600460205260409020546001600160a01b031615612d2a5760405162461bcd60e51b815260206004820152601c60248201527f4552433732313a20746f6b656e20616c7265616479206d696e746564000000006044820152606401610865565b612d3660008383612677565b6001600160a01b0382166000908152600560205260408120805460019290612d5f908490613f88565b909155505060008181526004602052604080822080546001600160a01b0319166001600160a01b03861690811790915590518392907fddf252ad1be2c89b69c2b068fc378daa952ba7f163c4a11628f55a4df523b3ef908290a45050565b60006001600160e01b03198216637965db0b60e01b148061073157506301ffc9a760e01b6001600160e01b0319831614610731565b6001600160a01b038316612e4d57612e4881600a80546000838152600b60205260408120829055600182018355919091527fc65a7bb8d6351c1cf70c95a316cc6a92839c986682d98bc35f958f4883f9d2a80155565b612e70565b816001600160a01b0316836001600160a01b031614612e7057612e708382612eaa565b6001600160a01b038216612e875761090681612f47565b826001600160a01b0316826001600160a01b031614610906576109068282612ff6565b60006001612eb784610da2565b612ec191906137ed565b600083815260096020526040902054909150808214612f14576001600160a01b03841660009081526008602090815260408083208584528252808320548484528184208190558352600990915290208190555b5060009182526009602090815260408084208490556001600160a01b039094168352600881528383209183525290812055565b600a54600090612f59906001906137ed565b6000838152600b6020526040812054600a8054939450909284908110612f8157612f8161389b565b9060005260206000200154905080600a8381548110612fa257612fa261389b565b6000918252602080832090910192909255828152600b9091526040808220849055858252812055600a805480612fda57612fda6140ec565b6001900381819060005260206000200160009055905550505050565b600061300183610da2565b6001600160a01b039093166000908152600860209081526040808320868452825280832085905593825260099052919091209190915550565b828054613046906137a2565b90600052602060002090601f01602090048101928261306857600085556130ae565b82601f1061308157805160ff19168380011785556130ae565b828001600101855582156130ae579182015b828111156130ae578251825591602001919060010190613093565b506130ba9291506130be565b5090565b5b808211156130ba57600081556001016130bf565b6001600160e01b0319811681146104b957600080fd5b6000602082840312156130fb57600080fd5b813561150f816130d3565b60005b83811015613121578181015183820152602001613109565b83811115610bca5750506000910152565b6000815180845261314a816020860160208601613106565b601f01601f19169290920160200192915050565b60208152600061150f6020830184613132565b60006020828403121561318357600080fd5b5035919050565b80356001600160a01b03811681146131a157600080fd5b919050565b600080604083850312156131b957600080fd5b6131c28361318a565b946020939093013593505050565b6000806000606084860312156131e557600080fd5b6131ee8461318a565b92506131fc6020850161318a565b9150604084013590509250925092565b6000806040838503121561321f57600080fd5b50508035926020909101359150565b6000806040838503121561324157600080fd5b823591506132516020840161318a565b90509250929050565b634e487b7160e01b600052604160045260246000fd5b60405160e081016001600160401b03811182821017156132925761329261325a565b60405290565b604051601f8201601f191681016001600160401b03811182821017156132c0576132c061325a565b604052919050565b60006001600160401b038311156132e1576132e161325a565b6132f4601f8401601f1916602001613298565b905082815283838301111561330857600080fd5b828260208301376000602084830101529392505050565b600082601f83011261333057600080fd5b61150f838335602085016132c8565b6000806040838503121561335257600080fd5b8235915060208301356001600160401b0381111561336f57600080fd5b610a108582860161331f565b60006020828403121561338d57600080fd5b61150f8261318a565b80151581146104b957600080fd5b80356131a181613396565b600080600080600060a086880312156133c757600080fd5b6133d08661318a565b94506133de6020870161318a565b935060408601356001600160401b03808211156133fa57600080fd5b61340689838a0161331f565b9450606088013591508082111561341c57600080fd5b5086016040818903121561342f57600080fd5b9150608086013561343f81613396565b809150509295509295909350565b60008060006060848603121561346257600080fd5b833592506131fc6020850161318a565b6000806040838503121561348557600080fd5b61348e8361318a565b9150602083013561349e81613396565b809150509250929050565b600080600080600060a086880312156134c157600080fd5b85356001600160401b03808211156134d857600080fd5b6134e489838a0161331f565b965060208801359150808211156134fa57600080fd5b506135078882890161331f565b9450506135166040870161318a565b92506135246060870161318a565b949793965091946080013592915050565b6000806000806080858703121561354b57600080fd5b6135548561318a565b93506135626020860161318a565b92506040850135915060608501356001600160401b0381111561358457600080fd5b8501601f8101871361359557600080fd5b6135a4878235602084016132c8565b91505092959194509250565b600060408083018584526020828186015281865180845260609350838701915060058482821b890101848a016000805b8581101561369b578b8403605f190187528251805160ff9081168652898201518a8701528b8201518c8701528a820151168a86015260808082015160e0918701829052805191870182905261010080880192808a1b8901909101918c01865b8281101561366d5760ff198a850301855261365b848351613132565b948e01949350908d019060010161363f565b50505060a0838101519088015260c092830151151592909601919091525095870195918701916001016135e0565b50919c9b505050505050505050505050565b60006001600160401b038211156136c6576136c661325a565b5060051b60200190565b600080604083850312156136e357600080fd5b6136ec8361318a565b91506020808401356001600160401b0381111561370857600080fd5b8401601f8101861361371957600080fd5b803561372c613727826136ad565b613298565b81815260059190911b8201830190838101908883111561374b57600080fd5b928401925b8284101561376957833582529284019290840190613750565b80955050505050509250929050565b6000806040838503121561378b57600080fd5b6137948361318a565b91506132516020840161318a565b600181811c908216806137b657607f821691505b60208210811415611a9957634e487b7160e01b600052602260045260246000fd5b634e487b7160e01b600052601160045260246000fd5b6000828210156137ff576137ff6137d7565b500390565b6020808252602e908201527f4552433732313a2063616c6c6572206973206e6f7420746f6b656e206f776e6560408201526d1c881b9bdc88185c1c1c9bdd995960921b606082015260800190565b600081600019048311821515161561386c5761386c6137d7565b500290565b634e487b7160e01b600052601260045260246000fd5b60008261389657613896613871565b500490565b634e487b7160e01b600052603260045260246000fd5b6000808335601e198436030181126138c857600080fd5b8301803591506001600160401b038211156138e257600080fd5b6020019150600581901b36038213156138fa57600080fd5b9250929050565b6000823560de1983360301811261391757600080fd5b9190910192915050565b60ff811681146104b957600080fd5b80356131a181613921565b600082601f83011261394c57600080fd5b8135602061395c613727836136ad565b82815260059290921b8401810191818101908684111561397b57600080fd5b8286015b848110156139ba5780356001600160401b0381111561399e5760008081fd5b6139ac8986838b010161331f565b84525091830191830161397f565b509695505050505050565b600060e082360312156139d757600080fd5b6139df613270565b6139e883613930565b81526020830135602082015260408301356040820152613a0a60608401613930565b606082015260808301356001600160401b03811115613a2857600080fd5b613a343682860161393b565b60808301525060a083013560a0820152613a5060c084016133a4565b60c082015292915050565b6000600019821415613a6f57613a6f6137d7565b5060010190565b600060208284031215613a8857600080fd5b815161150f81613396565b600060208284031215613aa557600080fd5b5051919050565b5b81811015610b505760008155600101613aad565b8054600080835581156109065782815260208082208381015b80821015613b3f57613aec82546137a2565b8015613b3357601f80821160018114613b0757868555613b30565b848752858720613b2183850160051c820160018301613aac565b50600085815260208120818755555b50505b50600182019150613ada565b505050505050565b601f82111561090657806000526020600020601f840160051c81016020851015613b6e5750805b61174a601f850160051c830182613aac565b6001600160401b03831115613b9757613b9761325a565b613bab83613ba583546137a2565b83613b47565b6000601f841160018114613bdf5760008515613bc75750838201355b600019600387901b1c1916600186901b17835561174a565b600083815260209020601f19861690835b82811015613c105786850135825560209485019460019092019101613bf0565b5086821015613c2d5760001960f88860031b161c19848701351681555b505060018560011b0183555050505050565b6000813561073181613396565b8135613c5781613921565b815460ff191660ff821617825550600160208084013582840155604084013560028401556060840135613c8981613921565b60038401805460ff191660ff83161790555060048301613cac60808601866138b1565b600160401b811115613cc057613cc061325a565b825481845580821015613d455760008481528581208381019083015b80821015613d4157613cee82546137a2565b8015613d3757601f80821160018114613d0957858555613d34565b600085815260209020613d2583850160051c82018e8301613aac565b50600085815260208120818755555b50505b5090880190613cdc565b5050505b508160008481528581209450805b83811015613db4578235601e19863603018112613d6e578283fd5b850180356001600160401b03811115613d85578384fd5b8882019150803603821315613d98578384fd5b613da381838a613b80565b505094870194918601918701613d53565b505050505050505060a08201356005820155610b50613dd560c08401613c3f565b6006830160ff1981541660ff8315151681178255505050565b8135815560018082016020613e05818601866138b1565b600160401b811115613e1957613e1961325a565b835481855580821015613ec6577f2492492492492492492492492492492492492492492492492492492492492492808211871615613e5957613e596137d7565b6007818411881615613e6d57613e6d6137d7565b6000878152868120909250848202810190828502015b80821015613ec157838255838a830155836002830155836003830155613eab60048301613ac1565b8360058301558360068301558282019150613e83565b505050505b506000938452602084209382905b82811015613f0157613eef613ee98386613901565b87613c4c565b60079590950194908401908601613ed4565b505050505050505050565b60208082526012908201527113d3931657d05113525397d0531313d5d15160721b604082015260600190565b60208082526007908201526612539597d0511160ca1b604082015260600190565b60008351613f6b818460208801613106565b835190830190613f7f818360208801613106565b01949350505050565b60008219821115613f9b57613f9b6137d7565b500190565b600082613faf57613faf613871565b500690565b60208082526032908201527f4552433732313a207472616e7366657220746f206e6f6e20455243373231526560408201527131b2b4bb32b91034b6b83632b6b2b73a32b960711b606082015260800190565b7f416363657373436f6e74726f6c3a206163636f756e742000000000000000000081526000835161403e816017850160208801613106565b7001034b99036b4b9b9b4b733903937b6329607d1b601791840191820152835161406f816028840160208801613106565b01602801949350505050565b6001600160a01b03858116825284166020820152604081018390526080606082018190526000906140ae90830184613132565b9695505050505050565b6000602082840312156140ca57600080fd5b815161150f816130d3565b6000816140e4576140e46137d7565b506000190190565b634e487b7160e01b600052603160045260246000fdfe65d7a28e3265b37a6474929f336521b332c1681b933f6cb9f3376673440d862a9f2df0fed2c77648de5860a4cc508cd0818c85b8b8a1ab4ceeef8d981c8956a6a26469706673582212207db5b1a97dfa4015a9486eb506634ba451b4dfdb60da2ac4be9c37f9486bb7c464736f6c634300080c0033",
  "linkReferences": {},
  "deployedLinkReferences": {}
}