{
  "_format": "hh-sol-artifact-1",
  "contractName": "AVATARSOracle",
  "sourceName": "contracts/services/AVATARSOracle.sol",
  "abi": [
    {
      "inputs": [
        {
          "internalType": "address",
          "name": "admin",
          "type": "address"
        },
        {
          "internalType": "address",
          "name": "be",
          "type": "address"
        },
        {
          "internalType": "address",
          "name": "LINK_TOKEN",
          "type": "address"
        },
        {
          "internalType": "address",
          "name": "ORACLE",
          "type": "address"
        }
      ],
      "stateMutability": "nonpayable",
      "type": "constructor"
    },
    {
      "anonymous": false,
      "inputs": [
        {
          "indexed": true,
          "internalType": "bytes32",
          "name": "id",
          "type": "bytes32"
        }
      ],
      "name": "ChainlinkCancelled",
      "type": "event"
    },
    {
      "anonymous": false,
      "inputs": [
        {
          "indexed": true,
          "internalType": "bytes32",
          "name": "id",
          "type": "bytes32"
        }
      ],
      "name": "ChainlinkFulfilled",
      "type": "event"
    },
    {
      "anonymous": false,
      "inputs": [
        {
          "indexed": true,
          "internalType": "bytes32",
          "name": "id",
          "type": "bytes32"
        }
      ],
      "name": "ChainlinkRequested",
      "type": "event"
    },
    {
      "anonymous": false,
      "inputs": [
        {
          "indexed": true,
          "internalType": "address",
          "name": "previousOwner",
          "type": "address"
        },
        {
          "indexed": true,
          "internalType": "address",
          "name": "newOwner",
          "type": "address"
        }
      ],
      "name": "OwnershipTransferred",
      "type": "event"
    },
    {
      "anonymous": false,
      "inputs": [
        {
          "indexed": true,
          "internalType": "bytes32",
          "name": "requestId",
          "type": "bytes32"
        },
        {
          "indexed": true,
          "internalType": "bytes[]",
          "name": "data",
          "type": "bytes[]"
        }
      ],
      "name": "RequestFulfilled",
      "type": "event"
    },
    {
      "anonymous": false,
      "inputs": [
        {
          "indexed": true,
          "internalType": "bytes32",
          "name": "requestId",
          "type": "bytes32"
        },
        {
          "indexed": true,
          "internalType": "bytes",
          "name": "data",
          "type": "bytes"
        }
      ],
      "name": "RequestFulfilledData",
      "type": "event"
    },
    {
      "inputs": [],
      "name": "_admin",
      "outputs": [
        {
          "internalType": "address",
          "name": "",
          "type": "address"
        }
      ],
      "stateMutability": "view",
      "type": "function"
    },
    {
      "inputs": [],
      "name": "_be",
      "outputs": [
        {
          "internalType": "address",
          "name": "",
          "type": "address"
        }
      ],
      "stateMutability": "view",
      "type": "function"
    },
    {
      "inputs": [],
      "name": "_callbackAddress",
      "outputs": [
        {
          "internalType": "address",
          "name": "",
          "type": "address"
        }
      ],
      "stateMutability": "view",
      "type": "function"
    },
    {
      "inputs": [],
      "name": "_getOracleAddress",
      "outputs": [
        {
          "internalType": "address",
          "name": "",
          "type": "address"
        }
      ],
      "stateMutability": "view",
      "type": "function"
    },
    {
      "inputs": [
        {
          "internalType": "bytes32",
          "name": "_requestId",
          "type": "bytes32"
        },
        {
          "internalType": "uint256",
          "name": "_payment",
          "type": "uint256"
        },
        {
          "internalType": "bytes4",
          "name": "_callbackFunctionId",
          "type": "bytes4"
        },
        {
          "internalType": "uint256",
          "name": "_expiration",
          "type": "uint256"
        }
      ],
      "name": "cancelRequest",
      "outputs": [],
      "stateMutability": "nonpayable",
      "type": "function"
    },
    {
      "inputs": [
        {
          "internalType": "address",
          "name": "newAdm",
          "type": "address"
        }
      ],
      "name": "changeAdmin",
      "outputs": [],
      "stateMutability": "nonpayable",
      "type": "function"
    },
    {
      "inputs": [
        {
          "internalType": "address",
          "name": "be",
          "type": "address"
        }
      ],
      "name": "changeBE",
      "outputs": [],
      "stateMutability": "nonpayable",
      "type": "function"
    },
    {
      "inputs": [
        {
          "internalType": "address",
          "name": "add",
          "type": "address"
        }
      ],
      "name": "changeCallbackAddress",
      "outputs": [],
      "stateMutability": "nonpayable",
      "type": "function"
    },
    {
      "inputs": [
        {
          "internalType": "address",
          "name": "oracle",
          "type": "address"
        }
      ],
      "name": "changeOracle",
      "outputs": [],
      "stateMutability": "nonpayable",
      "type": "function"
    },
    {
      "inputs": [
        {
          "internalType": "bytes32",
          "name": "requestId",
          "type": "bytes32"
        },
        {
          "internalType": "bytes",
          "name": "gameData",
          "type": "bytes"
        }
      ],
      "name": "fulfill",
      "outputs": [],
      "stateMutability": "nonpayable",
      "type": "function"
    },
    {
      "inputs": [
        {
          "internalType": "bytes32",
          "name": "requestId",
          "type": "bytes32"
        },
        {
          "internalType": "bytes[]",
          "name": "result",
          "type": "bytes[]"
        }
      ],
      "name": "fulfillSchedule",
      "outputs": [],
      "stateMutability": "nonpayable",
      "type": "function"
    },
    {
      "inputs": [
        {
          "internalType": "uint32",
          "name": "",
          "type": "uint32"
        }
      ],
      "name": "games",
      "outputs": [
        {
          "internalType": "uint32",
          "name": "gameId",
          "type": "uint32"
        },
        {
          "internalType": "uint40",
          "name": "startTime",
          "type": "uint40"
        },
        {
          "internalType": "string",
          "name": "homeTeam",
          "type": "string"
        },
        {
          "internalType": "string",
          "name": "awayTeam",
          "type": "string"
        },
        {
          "internalType": "uint8",
          "name": "homeScore",
          "type": "uint8"
        },
        {
          "internalType": "uint8",
          "name": "awayScore",
          "type": "uint8"
        },
        {
          "internalType": "string",
          "name": "status",
          "type": "string"
        }
      ],
      "stateMutability": "view",
      "type": "function"
    },
    {
      "inputs": [
        {
          "internalType": "bytes32",
          "name": "_requestId",
          "type": "bytes32"
        },
        {
          "internalType": "uint256",
          "name": "_idx",
          "type": "uint256"
        }
      ],
      "name": "getGameCreate",
      "outputs": [
        {
          "components": [
            {
              "internalType": "uint32",
              "name": "gameId",
              "type": "uint32"
            },
            {
              "internalType": "uint40",
              "name": "startTime",
              "type": "uint40"
            },
            {
              "internalType": "string",
              "name": "homeTeam",
              "type": "string"
            },
            {
              "internalType": "string",
              "name": "awayTeam",
              "type": "string"
            }
          ],
          "internalType": "struct AVATARSOracle.GameCreate",
          "name": "",
          "type": "tuple"
        }
      ],
      "stateMutability": "view",
      "type": "function"
    },
    {
      "inputs": [
        {
          "internalType": "bytes32",
          "name": "_requestId",
          "type": "bytes32"
        },
        {
          "internalType": "uint256",
          "name": "_idx",
          "type": "uint256"
        }
      ],
      "name": "getGameResolve",
      "outputs": [
        {
          "components": [
            {
              "internalType": "uint32",
              "name": "gameId",
              "type": "uint32"
            },
            {
              "internalType": "uint8",
              "name": "homeScore",
              "type": "uint8"
            },
            {
              "internalType": "uint8",
              "name": "awayScore",
              "type": "uint8"
            },
            {
              "internalType": "string",
              "name": "status",
              "type": "string"
            }
          ],
          "internalType": "struct AVATARSOracle.GameResolve",
          "name": "",
          "type": "tuple"
        }
      ],
      "stateMutability": "view",
      "type": "function"
    },
    {
      "inputs": [],
      "name": "owner",
      "outputs": [
        {
          "internalType": "address",
          "name": "",
          "type": "address"
        }
      ],
      "stateMutability": "view",
      "type": "function"
    },
    {
      "inputs": [],
      "name": "renounceOwnership",
      "outputs": [],
      "stateMutability": "nonpayable",
      "type": "function"
    },
    {
      "inputs": [
        {
          "internalType": "string",
          "name": "jobId",
          "type": "string"
        },
        {
          "internalType": "uint256",
          "name": "fee",
          "type": "uint256"
        },
        {
          "internalType": "string",
          "name": "url",
          "type": "string"
        },
        {
          "internalType": "string",
          "name": "path",
          "type": "string"
        }
      ],
      "name": "requestData",
      "outputs": [
        {
          "internalType": "bytes32",
          "name": "requestId",
          "type": "bytes32"
        }
      ],
      "stateMutability": "nonpayable",
      "type": "function"
    },
    {
      "inputs": [
        {
          "internalType": "bytes32",
          "name": "",
          "type": "bytes32"
        },
        {
          "internalType": "uint256",
          "name": "",
          "type": "uint256"
        }
      ],
      "name": "requestIdGames",
      "outputs": [
        {
          "internalType": "bytes",
          "name": "",
          "type": "bytes"
        }
      ],
      "stateMutability": "view",
      "type": "function"
    },
    {
      "inputs": [
        {
          "internalType": "bytes32",
          "name": "",
          "type": "bytes32"
        }
      ],
      "name": "requestIdGamesData",
      "outputs": [
        {
          "internalType": "bytes",
          "name": "",
          "type": "bytes"
        }
      ],
      "stateMutability": "view",
      "type": "function"
    },
    {
      "inputs": [
        {
          "internalType": "bytes32",
          "name": "_specId",
          "type": "bytes32"
        },
        {
          "internalType": "uint256",
          "name": "_payment",
          "type": "uint256"
        },
        {
          "internalType": "uint256",
          "name": "_market",
          "type": "uint256"
        },
        {
          "internalType": "uint256",
          "name": "_leagueId",
          "type": "uint256"
        },
        {
          "internalType": "uint256",
          "name": "_date",
          "type": "uint256"
        },
        {
          "internalType": "uint256[]",
          "name": "_gameIds",
          "type": "uint256[]"
        }
      ],
      "name": "requestSchedule",
      "outputs": [],
      "stateMutability": "nonpayable",
      "type": "function"
    },
    {
      "inputs": [
        {
          "internalType": "string",
          "name": "jobId",
          "type": "string"
        },
        {
          "internalType": "uint256",
          "name": "fee",
          "type": "uint256"
        },
        {
          "internalType": "uint256",
          "name": "market",
          "type": "uint256"
        },
        {
          "internalType": "uint256",
          "name": "leagueId",
          "type": "uint256"
        },
        {
          "internalType": "uint256",
          "name": "date",
          "type": "uint256"
        }
      ],
      "name": "requestSchedule",
      "outputs": [],
      "stateMutability": "nonpayable",
      "type": "function"
    },
    {
      "inputs": [
        {
          "internalType": "address",
          "name": "_oracle",
          "type": "address"
        }
      ],
      "name": "setOracle",
      "outputs": [],
      "stateMutability": "nonpayable",
      "type": "function"
    },
    {
      "inputs": [
        {
          "internalType": "bytes32",
          "name": "_requestId",
          "type": "bytes32"
        },
        {
          "internalType": "bytes[]",
          "name": "_games",
          "type": "bytes[]"
        }
      ],
      "name": "setRequestIdGames",
      "outputs": [],
      "stateMutability": "nonpayable",
      "type": "function"
    },
    {
      "inputs": [
        {
          "internalType": "address",
          "name": "newOwner",
          "type": "address"
        }
      ],
      "name": "transferOwnership",
      "outputs": [],
      "stateMutability": "nonpayable",
      "type": "function"
    },
    {
      "inputs": [
        {
          "internalType": "uint256",
          "name": "amount",
          "type": "uint256"
        }
      ],
      "name": "withdraw",
      "outputs": [],
      "stateMutability": "nonpayable",
      "type": "function"
    },
    {
      "inputs": [],
      "name": "withdrawLink",
      "outputs": [],
      "stateMutability": "nonpayable",
      "type": "function"
    }
  ],
  "bytecode": "0x60806040523480156200001157600080fd5b50604051620033ce380380620033ce833981016040819052620000349162000114565b60016000556200004433620000a5565b600880546001600160a01b038681166001600160a01b0319928316179092556009805486841690831617905560048054909116918416919091179055600580546001600160a01b0319166001600160a01b0383161790555050505062000171565b600180546001600160a01b038381166001600160a01b0319831681179093556040519116919082907f8be0079c531659141344cd1fd0a4f28419497f9722a3daafe3b4186f6b6457e090600090a35050565b80516001600160a01b03811681146200010f57600080fd5b919050565b600080600080608085870312156200012b57600080fd5b6200013685620000f7565b93506200014660208601620000f7565b92506200015660408601620000f7565b91506200016660608601620000f7565b905092959194509250565b61324d80620001816000396000f3fe608060405234801561001057600080fd5b506004361061018e5760003560e01c80638f283970116100de578063c646c7be11610097578063de00d10711610071578063de00d1071461034c578063e3c046a71461036c578063ec65d0f81461038c578063f2fde38b1461039f57600080fd5b8063c646c7be14610300578063cc72c53b14610313578063da5d2fac1461032657600080fd5b80638f2839701461029957806393d07072146102ac578063a2943608146102bf578063a3ab06cf146102d2578063a9bbf3fd146102e5578063b075f532146102f857600080fd5b806349687cca1161014b5780637adbf973116101255780637adbf9731461022c5780637c1de7e11461026d5780638da5cb5b146102805780638dc654a21461029157600080fd5b806349687cca1461023f5780636d0257e214610252578063715018a61461026557600080fd5b806301bc45c91461019357806303599a70146101c35780632a2fd7d7146101e45780632e1a7d4d14610204578063303a712f1461021957806347c421b51461022c575b600080fd5b6008546101a6906001600160a01b031681565b6040516001600160a01b0390911681526020015b60405180910390f35b6101d66101d1366004612683565b6103b2565b6040519081526020016101ba565b6101f76101f2366004612714565b61049e565b6040516101ba9190612785565b610217610212366004612714565b610538565b005b610217610227366004612798565b610635565b61021761023a366004612866565b6106b7565b61021761024d366004612896565b610721565b6009546101a6906001600160a01b031681565b610217610882565b61021761027b36600461293b565b610896565b6001546001600160a01b03166101a6565b610217610b5c565b6102176102a7366004612866565b610cdc565b6102176102ba366004612798565b610d75565b6101f76102cd366004612981565b611288565b6102176102e0366004612866565b6112c0565b6102176102f3366004612866565b611329565b6101a6611392565b61021761030e3660046129a3565b6113ab565b600a546101a6906001600160a01b031681565b610339610334366004612a11565b6114b5565b6040516101ba9796959493929190612a2e565b61035f61035a366004612981565b6116a3565b6040516101ba9190612aa0565b61037f61037a366004612981565b6116f4565b6040516101ba9190612ae5565b61021761039a366004612b3f565b61173c565b6102176103ad366004612866565b6117a6565b6008546000906001600160a01b03163314806103d857506009546001600160a01b031633145b6040518060400160405280600381526020016231303160e81b8152509061041b5760405162461bcd60e51b81526004016104129190612785565b60405180910390fd5b50600061043861042a8761181c565b30637c1de7e160e01b611839565b60408051808201909152600381526219d95d60ea1b60208201529091506104619082908661185e565b6040805180820190915260048152630e0c2e8d60e31b60208201526104889082908561185e565b610492818661187c565b9150505b949350505050565b600c60205260009081526040902080546104b790612b8b565b80601f01602080910402602001604051908101604052809291908181526020018280546104e390612b8b565b80156105305780601f1061050557610100808354040283529160200191610530565b820191906000526020600020905b81548152906001019060200180831161051357829003601f168201915b505050505081565b6002600054141561058b5760405162461bcd60e51b815260206004820152601f60248201527f5265656e7472616e637947756172643a207265656e7472616e742063616c6c006044820152606401610412565b600260005560085460408051808201909152600381526231303160e81b6020820152906001600160a01b031633146105d65760405162461bcd60e51b81526004016104129190612785565b50604051600090339047908381818185875af1925050503d8060008114610619576040519150601f19603f3d011682016040523d82523d6000602084013e61061e565b606091505b505090508061062c57600080fd5b50506001600055565b6008546001600160a01b031633148061065857506009546001600160a01b031633145b6040518060400160405280600381526020016231303160e81b815250906106925760405162461bcd60e51b81526004016104129190612785565b506000828152600b6020908152604090912082516106b29284019061243c565b505050565b60085460408051808201909152600381526231303160e81b6020820152906001600160a01b031633146106fd5760405162461bcd60e51b81526004016104129190612785565b50600580546001600160a01b0383166001600160a01b031990911617905550565b50565b6008546001600160a01b031633148061074457506009546001600160a01b031633145b6040518060400160405280600381526020016231303160e81b8152509061077e5760405162461bcd60e51b81526004016104129190612785565b506000610792886349e8383960e11b611896565b6040805180820190915260068152651b585c9ad95d60d21b60208201529091506107be908290886118b2565b6040805180820190915260088152671b195859dd59525960c21b60208201526107e9908290876118b2565b6040805180820190915260048152636461746560e01b6020820152610810908290866118b2565b61086d816040518060400160405280600781526020016667616d6549647360c81b8152508585808060200260200160405190810160405280939291908181526020018383602002808284376000920191909152506118d092505050565b6108778188611941565b505050505050505050565b61088a61195b565b61089460006119b5565b565b60008281526007602052604090205482906001600160a01b031633146108ce5760405162461bcd60e51b815260040161041290612bc0565b60008181526007602052604080822080546001600160a01b03191690555182917f7cc135e0cebb02c3480ae5d74d377283180a2601f8f644edf7987b009316c63a91a28160405161091f9190612c08565b6040519081900381209084907fc6ef1c5f8f954d0251e9620ce4908018f1c31f432eb9b44fd9efb2ca569453f190600090a36000838152600c60209081526040909120835161097092850190612499565b506000806000806000806000888060200190518101906109909190612c7f565b96509650965096509650965096506040518060e001604052808863ffffffff1681526020018764ffffffffff1681526020018681526020018581526020018460ff1681526020018360ff16815260200182815250600d60008963ffffffff1663ffffffff16815260200190815260200160002060008201518160000160006101000a81548163ffffffff021916908363ffffffff16021790555060208201518160000160046101000a81548164ffffffffff021916908364ffffffffff1602179055506040820151816001019080519060200190610a6f929190612499565b5060608201518051610a8b916002840191602090910190612499565b50608082015160038201805460a085015160ff9081166101000261ffff1990921693169290921791909117905560c08201518051610ad3916004840191602090910190612499565b5050600a546001600160a01b0316159050610b5057600a54604051637c1de7e160e01b81526001600160a01b03909116908190637c1de7e190610b1c908e908e90600401612d59565b600060405180830381600087803b158015610b3657600080fd5b505af1158015610b4a573d6000803e3d6000fd5b50505050505b50505050505050505050565b60085460408051808201909152600381526231303160e81b6020820152906001600160a01b03163314610ba25760405162461bcd60e51b81526004016104129190612785565b506000610bb76004546001600160a01b031690565b6040516370a0823160e01b81523060048201529091506001600160a01b0382169063a9059cbb90339083906370a0823190602401602060405180830381865afa158015610c08573d6000803e3d6000fd5b505050506040513d601f19601f82011682018060405250810190610c2c9190612d72565b6040516001600160e01b031960e085901b1681526001600160a01b03909216600483015260248201526044016020604051808303816000875af1158015610c77573d6000803e3d6000fd5b505050506040513d601f19601f82011682018060405250810190610c9b9190612d8b565b61071e5760405162461bcd60e51b81526020600482015260126024820152712ab730b13632903a37903a3930b739b332b960711b6044820152606401610412565b6008546001600160a01b031633148015610cfe57506001600160a01b03811615155b8015610d1857506008546001600160a01b03828116911614155b6040518060400160405280600381526020016231303160e81b81525090610d525760405162461bcd60e51b81526004016104129190612785565b50600880546001600160a01b0319166001600160a01b0392909216919091179055565b60008281526007602052604090205482906001600160a01b03163314610dad5760405162461bcd60e51b815260040161041290612bc0565b60008181526007602052604080822080546001600160a01b03191690555182917f7cc135e0cebb02c3480ae5d74d377283180a2601f8f644edf7987b009316c63a91a281604051610dfe9190612dad565b6040519081900381209084907ff5b641a355461fb962e21752d6243c31a8312268065ab21efde58f7a3df8848a90600090a36000838152600b602090815260409091208351610e4f9285019061243c565b506000610e796000600485600081518110610e6c57610e6c612df9565b6020026020010151611a07565b610e8290612e0f565b60e01c6000818152600d6020526040902054909150640100000000900464ffffffffff16611083576000848152600b602052604081208054610f6591908390610ecd57610ecd612df9565b906000526020600020018054610ee290612b8b565b80601f0160208091040260200160405190810160405280929190818152602001828054610f0e90612b8b565b8015610f5b5780601f10610f3057610100808354040283529160200191610f5b565b820191906000526020600020905b815481529060010190602001808311610f3e57829003601f168201915b5050505050611ad5565b6040805160e081018252825163ffffffff908116825260208085015164ffffffffff908116828501908152858701518587019081526060808901519087015260006080870181905260a087018190528751808601895281815260c08801528a86168152600d8552969096208551815492519093166401000000000268ffffffffffffffffff1990921692909416919091171782559251805194955091939092611015926001850192910190612499565b5060608201518051611031916002840191602090910190612499565b50608082015160038201805460a085015160ff9081166101000261ffff1990921693169290921791909117905560c08201518051611079916004840191602090910190612499565b5090505050611282565b6000848152600b60205260408120805461113e919083906110a6576110a6612df9565b9060005260206000200180546110bb90612b8b565b80601f01602080910402602001604051908101604052809291908181526020018280546110e790612b8b565b80156111345780601f1061110957610100808354040283529160200191611134565b820191906000526020600020905b81548152906001019060200180831161111757829003601f168201915b5050505050611bb8565b60208082015163ffffffff85166000908152600d83526040908190206003810180549286015160ff9081166101000261ffff19909416941693909317919091179091556060830151805193945061119c936004909201920190612499565b50600a546001600160a01b03161561128057600a5463ffffffff8381166000908152600d60209081526040918290208054600382015493516001600160a01b03909616958695637c1de7e1958d956112269592851694640100000000900464ffffffffff16936001840193600281019360ff80821694610100909204169260049092019101612ee6565b6040516020818303038152906040526040518363ffffffff1660e01b8152600401611252929190612d59565b600060405180830381600087803b15801561126c57600080fd5b505af1158015610b50573d6000803e3d6000fd5b505b50505050565b600b60205281600052604060002081815481106112a457600080fd5b906000526020600020016000915091505080546104b790612b8b565b60085460408051808201909152600381526231303160e81b6020820152906001600160a01b031633146113065760405162461bcd60e51b81526004016104129190612785565b50600980546001600160a01b0319166001600160a01b0392909216919091179055565b60085460408051808201909152600381526231303160e81b6020820152906001600160a01b0316331461136f5760405162461bcd60e51b81526004016104129190612785565b50600a80546001600160a01b0319166001600160a01b0392909216919091179055565b60006113a66005546001600160a01b031690565b905090565b6008546001600160a01b03163314806113ce57506009546001600160a01b031633145b6040518060400160405280600381526020016231303160e81b815250906114085760405162461bcd60e51b81526004016104129190612785565b5060006114246114178761181c565b6349e8383960e11b611896565b6040805180820190915260068152651b585c9ad95d60d21b6020820152909150611450908290866118b2565b6040805180820190915260088152671b195859dd59525960c21b602082015261147b908290856118b2565b6040805180820190915260048152636461746560e01b60208201526114a2908290846118b2565b6114ac8186611941565b50505050505050565b600d602052600090815260409020805460018201805463ffffffff83169364010000000090930464ffffffffff169291906114ef90612b8b565b80601f016020809104026020016040519081016040528092919081815260200182805461151b90612b8b565b80156115685780601f1061153d57610100808354040283529160200191611568565b820191906000526020600020905b81548152906001019060200180831161154b57829003601f168201915b50505050509080600201805461157d90612b8b565b80601f01602080910402602001604051908101604052809291908181526020018280546115a990612b8b565b80156115f65780601f106115cb576101008083540402835291602001916115f6565b820191906000526020600020905b8154815290600101906020018083116115d957829003601f168201915b505050506003830154600484018054939460ff808416956101009094041693509161162090612b8b565b80601f016020809104026020016040519081016040528092919081815260200182805461164c90612b8b565b80156116995780601f1061166e57610100808354040283529160200191611699565b820191906000526020600020905b81548152906001019060200180831161167c57829003601f168201915b5050505050905087565b60408051608081018252600080825260208201819052918101919091526060808201526000838152600b6020526040902080546116eb9190849081106110a6576110a6612df9565b90505b92915050565b60408051608081018252600080825260208201526060918101829052818101919091526000838152600b6020526040902080546116eb919084908110610ecd57610ecd612df9565b6008546001600160a01b031633148061175f57506009546001600160a01b031633145b6040518060400160405280600381526020016231303160e81b815250906117995760405162461bcd60e51b81526004016104129190612785565b5061128284848484611c83565b6117ae61195b565b6001600160a01b0381166118135760405162461bcd60e51b815260206004820152602660248201527f4f776e61626c653a206e6577206f776e657220697320746865207a65726f206160448201526564647265737360d01b6064820152608401610412565b61071e816119b5565b805160009082906118305750600092915050565b50506020015190565b611841612519565b611849612519565b61185581868686611d4a565b95945050505050565b608083015161186d9083611d87565b60808301516106b29082611d87565b6005546000906116eb906001600160a01b03168484611d9e565b61189e612519565b6118a6612519565b61049681853086611d4a565b60808301516118c19083611d87565b60808301516106b29082611e31565b608083015183906118e19084611d87565b6118ee8160800151611e5a565b815160005b818110156119335761192b84828151811061191057611910612df9565b60200260200101518460800151611e3190919063ffffffff16565b6001016118f3565b506112808260800151611e65565b6005546000906116eb906001600160a01b03168484611e70565b6001546001600160a01b031633146108945760405162461bcd60e51b815260206004820181905260248201527f4f776e61626c653a2063616c6c6572206973206e6f7420746865206f776e65726044820152606401610412565b600180546001600160a01b038381166001600160a01b0319831681179093556040519116919082907f8be0079c531659141344cd1fd0a4f28419497f9722a3daafe3b4186f6b6457e090600090a35050565b60606000611a158585612f60565b6001600160401b03811115611a2c57611a2c6125c0565b6040519080825280601f01601f191660200182016040528015611a56576020820181803683370190505b50905060005b611a668686612f60565b811015611acc5783611a788288612f77565b81518110611a8857611a88612df9565b602001015160f81c60f81b828281518110611aa557611aa5612df9565b60200101906001600160f81b031916908160001a905350611ac581612f8f565b9050611a5c565b50949350505050565b60408051608081018252600080825260208201526060918101829052818101919091526000611b076000600485611a07565b611b1090612e0f565b60e01c90506000611b246004600986611a07565b611b2d90612faa565b60d81c9050600084600981518110611b4757611b47612df9565b016020015160f81c90506000611b5e82600a612fdd565b60ff1690506000611b71600a8389611a07565b90506000611b818389518a611a07565b6040805160808101825263ffffffff909816885264ffffffffff909616602088015294860191909152505050606082015292915050565b6040805160808101825260008082526020820181905291810182905260608082015290611be781600485611a07565b611bf090612e0f565b60e01c9050600083600481518110611c0a57611c0a612df9565b602001015160f81c60f81b60f81c9050600084600581518110611c2f57611c2f612df9565b602001015160f81c60f81b60f81c90506000611c4e6006875188611a07565b6040805160808101825263ffffffff909616865260ff9485166020870152929093169184019190915250606082015292915050565b60008481526007602052604080822080546001600160a01b0319811690915590516001600160a01b039091169186917fe1fe3afa0f7f761ff0a8b89086790efd5140d2907ebd5b7ff6bfcb5e075fd4c59190a2604051636ee4d55360e01b815260048101869052602481018590526001600160e01b031984166044820152606481018390526001600160a01b03821690636ee4d55390608401600060405180830381600087803b158015611d3657600080fd5b505af1158015610877573d6000803e3d6000fd5b611d52612519565b611d628560800151610100611eb7565b50509183526001600160a01b031660208301526001600160e01b031916604082015290565b611d948260038351611f1c565b6106b28282612023565b600654600090611daf816001612f77565b600655835160408086015160808701515191516000936320214ca360e11b93611de79386938493923092918a91600191602401613002565b60408051601f198184030181529190526020810180516001600160e01b03166001600160e01b0319909316929092179091529050611e278683868461204a565b9695505050505050565b6001600160401b03811115611e4e57611e4a82826121a7565b5050565b611e4a82600083611f1c565b61071e8160046121de565b61071e8160076121de565b600654600090611e81816001612f77565b60065583516040808601516080870151519151600093633c6d41b960e01b93611de793869384939289916002919060240161306a565b604080518082019091526060815260006020820152611ed76020836130bf565b15611eff57611ee76020836130bf565b611ef2906020612f60565b611efc9083612f77565b91505b506020828101829052604080518085526000815290920101905290565b6017816001600160401b031611611f40576112828360e0600585901b1683176121ef565b60ff816001600160401b031611611f7c57611f66836018611fe0600586901b16176121ef565b50611282836001600160401b0383166001612214565b61ffff816001600160401b031611611fb957611fa3836019611fe0600586901b16176121ef565b50611282836001600160401b0383166002612214565b63ffffffff816001600160401b031611611ff857611fe283601a611fe0600586901b16176121ef565b50611282836001600160401b0383166004612214565b61200d83601b611fe0600586901b16176121ef565b50611282836001600160401b0383166008612214565b6040805180820190915260608152600060208201526116eb8384600001515184855161223a565b6040516bffffffffffffffffffffffff193060601b1660208201526034810184905260009060540160408051808303601f1901815282825280516020918201206000818152600790925291812080546001600160a01b0319166001600160a01b038a1617905590925082917fb5e6e01e79f91267dc17b4e6314d5d4d03593d2ceee0fbb452b750bd70ea5af99190a260048054604051630200057560e51b81526001600160a01b0390911691634000aea09161210c91899188918891016130e1565b6020604051808303816000875af115801561212b573d6000803e3d6000fd5b505050506040513d601f19601f8201168201806040525081019061214f9190612d8b565b6104965760405162461bcd60e51b815260206004820152602360248201527f756e61626c6520746f207472616e73666572416e6443616c6c20746f206f7261604482015262636c6560e81b6064820152608401610412565b6121b28260c26121ef565b50611e4a82826040516020016121ca91815260200190565b604051602081830303815290604052612324565b6106b282601f611fe0600585901b16175b6040805180820190915260608152600060208201526116eb8384600001515184612331565b60408051808201909152606081526000602082015261049684856000015151858561238d565b604080518082019091526060815260006020820152825182111561225d57600080fd5b602085015161226c8386612f77565b111561229f5761229f8561228f8760200151878661228a9190612f77565b61240e565b61229a906002613108565b612425565b6000808651805187602083010193508088870111156122be5787860182525b505050602084015b602084106122fe57805182526122dd602083612f77565b91506122ea602082612f77565b90506122f7602085612f60565b93506122c6565b51815160001960208690036101000a019081169019919091161790525083949350505050565b611d948260028351611f1c565b6040805180820190915260608152600060208201528360200151831061236657612366848560200151600261229a9190613108565b835180516020858301018481535080851415612383576001810182525b5093949350505050565b60408051808201909152606081526000602082015260208501516123b18584612f77565b11156123c5576123c58561228f8685612f77565b600060016123d58461010061320b565b6123df9190612f60565b90508551838682010185831982511617815250805184870111156124035783860181525b509495945050505050565b60008183111561241f5750816116ee565b50919050565b81516124318383611eb7565b506112828382612023565b828054828255906000526020600020908101928215612489579160200282015b828111156124895782518051612479918491602090910190612499565b509160200191906001019061245c565b50612495929150612554565b5090565b8280546124a590612b8b565b90600052602060002090601f0160209004810192826124c7576000855561250d565b82601f106124e057805160ff191683800117855561250d565b8280016001018555821561250d579182015b8281111561250d5782518255916020019190600101906124f2565b50612495929150612571565b6040805160a0810182526000808252602080830182905282840182905260608084018390528451808601909552845283015290608082015290565b808211156124955760006125688282612586565b50600101612554565b5b808211156124955760008155600101612572565b50805461259290612b8b565b6000825580601f106125a2575050565b601f01602090049060005260206000209081019061071e9190612571565b634e487b7160e01b600052604160045260246000fd5b604051601f8201601f191681016001600160401b03811182821017156125fe576125fe6125c0565b604052919050565b60006001600160401b0382111561261f5761261f6125c0565b50601f01601f191660200190565b600082601f83011261263e57600080fd5b813561265161264c82612606565b6125d6565b81815284602083860101111561266657600080fd5b816020850160208301376000918101602001919091529392505050565b6000806000806080858703121561269957600080fd5b84356001600160401b03808211156126b057600080fd5b6126bc8883890161262d565b95506020870135945060408701359150808211156126d957600080fd5b6126e58883890161262d565b935060608701359150808211156126fb57600080fd5b506127088782880161262d565b91505092959194509250565b60006020828403121561272657600080fd5b5035919050565b60005b83811015612748578181015183820152602001612730565b838111156112825750506000910152565b6000815180845261277181602086016020860161272d565b601f01601f19169290920160200192915050565b6020815260006116eb6020830184612759565b600080604083850312156127ab57600080fd5b823591506020808401356001600160401b03808211156127ca57600080fd5b818601915086601f8301126127de57600080fd5b8135818111156127f0576127f06125c0565b8060051b6127ff8582016125d6565b918252838101850191858101908a84111561281957600080fd5b86860192505b83831015612855578235858111156128375760008081fd5b6128458c89838a010161262d565b835250918601919086019061281f565b809750505050505050509250929050565b60006020828403121561287857600080fd5b81356001600160a01b038116811461288f57600080fd5b9392505050565b600080600080600080600060c0888a0312156128b157600080fd5b873596506020880135955060408801359450606088013593506080880135925060a08801356001600160401b03808211156128eb57600080fd5b818a0191508a601f8301126128ff57600080fd5b81358181111561290e57600080fd5b8b60208260051b850101111561292357600080fd5b60208301945080935050505092959891949750929550565b6000806040838503121561294e57600080fd5b8235915060208301356001600160401b0381111561296b57600080fd5b6129778582860161262d565b9150509250929050565b6000806040838503121561299457600080fd5b50508035926020909101359150565b600080600080600060a086880312156129bb57600080fd5b85356001600160401b038111156129d157600080fd5b6129dd8882890161262d565b9860208801359850604088013597606081013597506080013595509350505050565b63ffffffff8116811461071e57600080fd5b600060208284031215612a2357600080fd5b813561288f816129ff565b63ffffffff8816815264ffffffffff8716602082015260e060408201526000612a5a60e0830188612759565b8281036060840152612a6c8188612759565b905060ff8616608084015260ff851660a084015282810360c0840152612a928185612759565b9a9950505050505050505050565b6020815263ffffffff825116602082015260ff602083015116604082015260ff60408301511660608201526000606083015160808084015261049660a0840182612759565b6020815263ffffffff825116602082015264ffffffffff60208301511660408201526000604083015160806060840152612b2260a0840182612759565b90506060840151601f198483030160808501526118558282612759565b60008060008060808587031215612b5557600080fd5b843593506020850135925060408501356001600160e01b031981168114612b7b57600080fd5b9396929550929360600135925050565b600181811c90821680612b9f57607f821691505b6020821081141561241f57634e487b7160e01b600052602260045260246000fd5b60208082526028908201527f536f75726365206d75737420626520746865206f7261636c65206f6620746865604082015267081c995c5d595cdd60c21b606082015260800190565b60008251612c1a81846020870161272d565b9190910192915050565b600082601f830112612c3557600080fd5b8151612c4361264c82612606565b818152846020838601011115612c5857600080fd5b61049682602083016020870161272d565b805160ff81168114612c7a57600080fd5b919050565b600080600080600080600060e0888a031215612c9a57600080fd5b8751612ca5816129ff565b602089015190975064ffffffffff81168114612cc057600080fd5b60408901519096506001600160401b0380821115612cdd57600080fd5b612ce98b838c01612c24565b965060608a0151915080821115612cff57600080fd5b612d0b8b838c01612c24565b9550612d1960808b01612c69565b9450612d2760a08b01612c69565b935060c08a0151915080821115612d3d57600080fd5b50612d4a8a828b01612c24565b91505092959891949750929550565b8281526040602082015260006104966040830184612759565b600060208284031215612d8457600080fd5b5051919050565b600060208284031215612d9d57600080fd5b8151801515811461288f57600080fd5b815160009082906020808601845b83811015612ded5781518051612dd4818887850161272d565b601f01601f191695909501945090820190600101612dbb565b50929695505050505050565b634e487b7160e01b600052603260045260246000fd5b805160208201516001600160e01b03198082169291906004831015612e3e5780818460040360031b1b83161693505b505050919050565b8054600090600181811c9080831680612e6057607f831692505b6020808410821415612e8257634e487b7160e01b600052602260045260246000fd5b83885260208801828015612e9d5760018114612eae57612ed9565b60ff19871682528282019750612ed9565b60008981526020902060005b87811015612ed357815484820152908601908401612eba565b83019850505b5050505050505092915050565b63ffffffff8816815264ffffffffff8716602082015260e060408201526000612f1260e0830188612e46565b8281036060840152612f248188612e46565b905060ff8616608084015260ff851660a084015282810360c0840152612a928185612e46565b634e487b7160e01b600052601160045260246000fd5b600082821015612f7257612f72612f4a565b500390565b60008219821115612f8a57612f8a612f4a565b500190565b6000600019821415612fa357612fa3612f4a565b5060010190565b805160208201516001600160d81b03198082169291906005831015612e3e5760059290920360031b82901b161692915050565b600060ff821660ff84168060ff03821115612ffa57612ffa612f4a565b019392505050565b6001600160a01b0389811682526020820189905260408201889052861660608201526001600160e01b03198516608082015260a0810184905260c0810183905261010060e0820181905260009061305b83820185612759565b9b9a5050505050505050505050565b60018060a01b038816815286602082015285604082015263ffffffff60e01b851660608201528360808201528260a082015260e060c082015260006130b260e0830184612759565b9998505050505050505050565b6000826130dc57634e487b7160e01b600052601260045260246000fd5b500690565b60018060a01b03841681528260208201526060604082015260006118556060830184612759565b600081600019048311821515161561312257613122612f4a565b500290565b600181815b8085111561316257816000190482111561314857613148612f4a565b8085161561315557918102915b93841c939080029061312c565b509250929050565b600082613179575060016116ee565b81613186575060006116ee565b816001811461319c57600281146131a6576131c2565b60019150506116ee565b60ff8411156131b7576131b7612f4a565b50506001821b6116ee565b5060208310610133831016604e8410600b84101617156131e5575081810a6116ee565b6131ef8383613127565b806000190482111561320357613203612f4a565b029392505050565b60006116eb838361316a56fea2646970667358221220da07e92c99b1be8a679f511e6fb8ba744e35ec088d7d5983a4ccd061ed2ff4af64736f6c634300080c0033",
  "linkReferences": {},
  "deployedLinkReferences": {}
}