{
  "_format": "hh-sol-artifact-1",
  "contractName": "AVATARSOracle",
  "sourceName": "contracts/services/AVATARSOracle.sol",
  "abi": [
    {
      "inputs": [
        {
          "internalType": "address",
          "name": "admin",
          "type": "address"
        },
        {
          "internalType": "address",
          "name": "be",
          "type": "address"
        },
        {
          "internalType": "address",
          "name": "LINK_TOKEN",
          "type": "address"
        },
        {
          "internalType": "address",
          "name": "ORACLE",
          "type": "address"
        }
      ],
      "stateMutability": "nonpayable",
      "type": "constructor"
    },
    {
      "anonymous": false,
      "inputs": [
        {
          "indexed": true,
          "internalType": "bytes32",
          "name": "id",
          "type": "bytes32"
        }
      ],
      "name": "ChainlinkCancelled",
      "type": "event"
    },
    {
      "anonymous": false,
      "inputs": [
        {
          "indexed": true,
          "internalType": "bytes32",
          "name": "id",
          "type": "bytes32"
        }
      ],
      "name": "ChainlinkFulfilled",
      "type": "event"
    },
    {
      "anonymous": false,
      "inputs": [
        {
          "indexed": true,
          "internalType": "bytes32",
          "name": "id",
          "type": "bytes32"
        }
      ],
      "name": "ChainlinkRequested",
      "type": "event"
    },
    {
      "anonymous": false,
      "inputs": [
        {
          "indexed": true,
          "internalType": "address",
          "name": "previousOwner",
          "type": "address"
        },
        {
          "indexed": true,
          "internalType": "address",
          "name": "newOwner",
          "type": "address"
        }
      ],
      "name": "OwnershipTransferred",
      "type": "event"
    },
    {
      "anonymous": false,
      "inputs": [
        {
          "indexed": true,
          "internalType": "bytes32",
          "name": "requestId",
          "type": "bytes32"
        },
        {
          "indexed": true,
          "internalType": "bytes[]",
          "name": "data",
          "type": "bytes[]"
        }
      ],
      "name": "RequestFulfilled",
      "type": "event"
    },
    {
      "anonymous": false,
      "inputs": [
        {
          "indexed": true,
          "internalType": "bytes32",
          "name": "requestId",
          "type": "bytes32"
        },
        {
          "indexed": true,
          "internalType": "bytes",
          "name": "data",
          "type": "bytes"
        }
      ],
      "name": "RequestFulfilledData",
      "type": "event"
    },
    {
      "inputs": [],
      "name": "_admin",
      "outputs": [
        {
          "internalType": "address",
          "name": "",
          "type": "address"
        }
      ],
      "stateMutability": "view",
      "type": "function"
    },
    {
      "inputs": [],
      "name": "_be",
      "outputs": [
        {
          "internalType": "address",
          "name": "",
          "type": "address"
        }
      ],
      "stateMutability": "view",
      "type": "function"
    },
    {
      "inputs": [],
      "name": "_callbackAddress",
      "outputs": [
        {
          "internalType": "address",
          "name": "",
          "type": "address"
        }
      ],
      "stateMutability": "view",
      "type": "function"
    },
    {
      "inputs": [],
      "name": "_getOracleAddress",
      "outputs": [
        {
          "internalType": "address",
          "name": "",
          "type": "address"
        }
      ],
      "stateMutability": "view",
      "type": "function"
    },
    {
      "inputs": [
        {
          "internalType": "bytes32",
          "name": "_requestId",
          "type": "bytes32"
        },
        {
          "internalType": "uint256",
          "name": "_payment",
          "type": "uint256"
        },
        {
          "internalType": "bytes4",
          "name": "_callbackFunctionId",
          "type": "bytes4"
        },
        {
          "internalType": "uint256",
          "name": "_expiration",
          "type": "uint256"
        }
      ],
      "name": "cancelRequest",
      "outputs": [],
      "stateMutability": "nonpayable",
      "type": "function"
    },
    {
      "inputs": [
        {
          "internalType": "address",
          "name": "newAdm",
          "type": "address"
        }
      ],
      "name": "changeAdmin",
      "outputs": [],
      "stateMutability": "nonpayable",
      "type": "function"
    },
    {
      "inputs": [
        {
          "internalType": "address",
          "name": "be",
          "type": "address"
        }
      ],
      "name": "changeBE",
      "outputs": [],
      "stateMutability": "nonpayable",
      "type": "function"
    },
    {
      "inputs": [
        {
          "internalType": "address",
          "name": "add",
          "type": "address"
        }
      ],
      "name": "changeCallbackAddress",
      "outputs": [],
      "stateMutability": "nonpayable",
      "type": "function"
    },
    {
      "inputs": [
        {
          "internalType": "address",
          "name": "LINK_TOKEN",
          "type": "address"
        }
      ],
      "name": "changeLINKToken",
      "outputs": [],
      "stateMutability": "nonpayable",
      "type": "function"
    },
    {
      "inputs": [
        {
          "internalType": "address",
          "name": "oracle",
          "type": "address"
        }
      ],
      "name": "changeOracle",
      "outputs": [],
      "stateMutability": "nonpayable",
      "type": "function"
    },
    {
      "inputs": [
        {
          "internalType": "bytes32",
          "name": "requestId",
          "type": "bytes32"
        },
        {
          "internalType": "bytes",
          "name": "gameData",
          "type": "bytes"
        }
      ],
      "name": "fulfill",
      "outputs": [],
      "stateMutability": "nonpayable",
      "type": "function"
    },
    {
      "inputs": [
        {
          "internalType": "bytes32",
          "name": "requestId",
          "type": "bytes32"
        },
        {
          "internalType": "bytes[]",
          "name": "result",
          "type": "bytes[]"
        }
      ],
      "name": "fulfillSchedule",
      "outputs": [],
      "stateMutability": "nonpayable",
      "type": "function"
    },
    {
      "inputs": [
        {
          "internalType": "uint32",
          "name": "",
          "type": "uint32"
        }
      ],
      "name": "games",
      "outputs": [
        {
          "internalType": "uint32",
          "name": "gameId",
          "type": "uint32"
        },
        {
          "internalType": "uint40",
          "name": "startTime",
          "type": "uint40"
        },
        {
          "internalType": "string",
          "name": "homeTeam",
          "type": "string"
        },
        {
          "internalType": "string",
          "name": "awayTeam",
          "type": "string"
        },
        {
          "internalType": "uint8",
          "name": "homeScore",
          "type": "uint8"
        },
        {
          "internalType": "uint8",
          "name": "awayScore",
          "type": "uint8"
        },
        {
          "internalType": "string",
          "name": "status",
          "type": "string"
        }
      ],
      "stateMutability": "view",
      "type": "function"
    },
    {
      "inputs": [
        {
          "internalType": "bytes32",
          "name": "_requestId",
          "type": "bytes32"
        },
        {
          "internalType": "uint256",
          "name": "_idx",
          "type": "uint256"
        }
      ],
      "name": "getGameCreate",
      "outputs": [
        {
          "components": [
            {
              "internalType": "uint32",
              "name": "gameId",
              "type": "uint32"
            },
            {
              "internalType": "uint40",
              "name": "startTime",
              "type": "uint40"
            },
            {
              "internalType": "string",
              "name": "homeTeam",
              "type": "string"
            },
            {
              "internalType": "string",
              "name": "awayTeam",
              "type": "string"
            }
          ],
          "internalType": "struct AVATARSOracle.GameCreate",
          "name": "",
          "type": "tuple"
        }
      ],
      "stateMutability": "view",
      "type": "function"
    },
    {
      "inputs": [
        {
          "internalType": "bytes32",
          "name": "_requestId",
          "type": "bytes32"
        },
        {
          "internalType": "uint256",
          "name": "_idx",
          "type": "uint256"
        }
      ],
      "name": "getGameResolve",
      "outputs": [
        {
          "components": [
            {
              "internalType": "uint32",
              "name": "gameId",
              "type": "uint32"
            },
            {
              "internalType": "uint8",
              "name": "homeScore",
              "type": "uint8"
            },
            {
              "internalType": "uint8",
              "name": "awayScore",
              "type": "uint8"
            },
            {
              "internalType": "string",
              "name": "status",
              "type": "string"
            }
          ],
          "internalType": "struct AVATARSOracle.GameResolve",
          "name": "",
          "type": "tuple"
        }
      ],
      "stateMutability": "view",
      "type": "function"
    },
    {
      "inputs": [],
      "name": "owner",
      "outputs": [
        {
          "internalType": "address",
          "name": "",
          "type": "address"
        }
      ],
      "stateMutability": "view",
      "type": "function"
    },
    {
      "inputs": [],
      "name": "renounceOwnership",
      "outputs": [],
      "stateMutability": "nonpayable",
      "type": "function"
    },
    {
      "inputs": [
        {
          "internalType": "string",
          "name": "jobId",
          "type": "string"
        },
        {
          "internalType": "uint256",
          "name": "fee",
          "type": "uint256"
        },
        {
          "internalType": "string",
          "name": "url",
          "type": "string"
        },
        {
          "internalType": "string",
          "name": "path",
          "type": "string"
        }
      ],
      "name": "requestData",
      "outputs": [
        {
          "internalType": "bytes32",
          "name": "requestId",
          "type": "bytes32"
        }
      ],
      "stateMutability": "nonpayable",
      "type": "function"
    },
    {
      "inputs": [
        {
          "internalType": "bytes32",
          "name": "",
          "type": "bytes32"
        },
        {
          "internalType": "uint256",
          "name": "",
          "type": "uint256"
        }
      ],
      "name": "requestIdGames",
      "outputs": [
        {
          "internalType": "bytes",
          "name": "",
          "type": "bytes"
        }
      ],
      "stateMutability": "view",
      "type": "function"
    },
    {
      "inputs": [
        {
          "internalType": "bytes32",
          "name": "",
          "type": "bytes32"
        }
      ],
      "name": "requestIdGamesData",
      "outputs": [
        {
          "internalType": "bytes",
          "name": "",
          "type": "bytes"
        }
      ],
      "stateMutability": "view",
      "type": "function"
    },
    {
      "inputs": [
        {
          "internalType": "bytes32",
          "name": "_specId",
          "type": "bytes32"
        },
        {
          "internalType": "uint256",
          "name": "_payment",
          "type": "uint256"
        },
        {
          "internalType": "uint256",
          "name": "_market",
          "type": "uint256"
        },
        {
          "internalType": "uint256",
          "name": "_leagueId",
          "type": "uint256"
        },
        {
          "internalType": "uint256",
          "name": "_date",
          "type": "uint256"
        },
        {
          "internalType": "uint256[]",
          "name": "_gameIds",
          "type": "uint256[]"
        }
      ],
      "name": "requestSchedule",
      "outputs": [],
      "stateMutability": "nonpayable",
      "type": "function"
    },
    {
      "inputs": [
        {
          "internalType": "string",
          "name": "jobId",
          "type": "string"
        },
        {
          "internalType": "uint256",
          "name": "fee",
          "type": "uint256"
        },
        {
          "internalType": "uint256",
          "name": "market",
          "type": "uint256"
        },
        {
          "internalType": "uint256",
          "name": "leagueId",
          "type": "uint256"
        },
        {
          "internalType": "uint256",
          "name": "date",
          "type": "uint256"
        }
      ],
      "name": "requestSchedule",
      "outputs": [],
      "stateMutability": "nonpayable",
      "type": "function"
    },
    {
      "inputs": [
        {
          "internalType": "bytes32",
          "name": "_requestId",
          "type": "bytes32"
        },
        {
          "internalType": "bytes[]",
          "name": "_games",
          "type": "bytes[]"
        }
      ],
      "name": "setRequestIdGames",
      "outputs": [],
      "stateMutability": "nonpayable",
      "type": "function"
    },
    {
      "inputs": [
        {
          "internalType": "address",
          "name": "newOwner",
          "type": "address"
        }
      ],
      "name": "transferOwnership",
      "outputs": [],
      "stateMutability": "nonpayable",
      "type": "function"
    },
    {
      "inputs": [
        {
          "internalType": "uint256",
          "name": "amount",
          "type": "uint256"
        }
      ],
      "name": "withdraw",
      "outputs": [],
      "stateMutability": "nonpayable",
      "type": "function"
    },
    {
      "inputs": [],
      "name": "withdrawLink",
      "outputs": [],
      "stateMutability": "nonpayable",
      "type": "function"
    }
  ],
  "bytecode": "0x60806040523480156200001157600080fd5b506040516200344438038062003444833981016040819052620000349162000114565b60016000556200004433620000a5565b600880546001600160a01b038681166001600160a01b0319928316179092556009805486841690831617905560048054909116918416919091179055600580546001600160a01b0319166001600160a01b0383161790555050505062000171565b600180546001600160a01b038381166001600160a01b0319831681179093556040519116919082907f8be0079c531659141344cd1fd0a4f28419497f9722a3daafe3b4186f6b6457e090600090a35050565b80516001600160a01b03811681146200010f57600080fd5b919050565b600080600080608085870312156200012b57600080fd5b6200013685620000f7565b93506200014660208601620000f7565b92506200015660408601620000f7565b91506200016660608601620000f7565b905092959194509250565b6132c380620001816000396000f3fe608060405234801561001057600080fd5b506004361061018e5760003560e01c80638f283970116100de578063c646c7be11610097578063de00d10711610071578063de00d1071461035f578063e3c046a71461037f578063ec65d0f81461039f578063f2fde38b146103b257600080fd5b8063c646c7be14610313578063cc72c53b14610326578063da5d2fac1461033957600080fd5b80638f283970146102ac57806393d07072146102bf578063a2943608146102d2578063a3ab06cf146102e5578063a9bbf3fd146102f8578063b075f5321461030b57600080fd5b806349687cca1161014b5780637c1de7e1116101255780637c1de7e11461026d578063827b7ee4146102805780638da5cb5b146102935780638dc654a2146102a457600080fd5b806349687cca1461023f5780636d0257e214610252578063715018a61461026557600080fd5b806301bc45c91461019357806303599a70146101c35780632a2fd7d7146101e45780632e1a7d4d14610204578063303a712f1461021957806347c421b51461022c575b600080fd5b6008546101a6906001600160a01b031681565b6040516001600160a01b0390911681526020015b60405180910390f35b6101d66101d13660046126f9565b6103c5565b6040519081526020016101ba565b6101f76101f236600461278a565b6104b1565b6040516101ba91906127fb565b61021761021236600461278a565b61054b565b005b61021761022736600461280e565b610648565b61021761023a3660046128dc565b6106ca565b61021761024d36600461290c565b610732565b6009546101a6906001600160a01b031681565b610217610893565b61021761027b3660046129b1565b6108a7565b61021761028e3660046128dc565b610b6d565b6001546001600160a01b03166101a6565b610217610bd2565b6102176102ba3660046128dc565b610d52565b6102176102cd36600461280e565b610deb565b6101f76102e03660046129f7565b6112fe565b6102176102f33660046128dc565b611336565b6102176103063660046128dc565b61139f565b6101a6611408565b610217610321366004612a19565b611421565b600a546101a6906001600160a01b031681565b61034c610347366004612a87565b61152b565b6040516101ba9796959493929190612aa4565b61037261036d3660046129f7565b611719565b6040516101ba9190612b16565b61039261038d3660046129f7565b61176a565b6040516101ba9190612b5b565b6102176103ad366004612bb5565b6117b2565b6102176103c03660046128dc565b61181c565b6008546000906001600160a01b03163314806103eb57506009546001600160a01b031633145b6040518060400160405280600381526020016231303160e81b8152509061042e5760405162461bcd60e51b815260040161042591906127fb565b60405180910390fd5b50600061044b61043d87611892565b30637c1de7e160e01b6118af565b60408051808201909152600381526219d95d60ea1b6020820152909150610474908290866118d4565b6040805180820190915260048152630e0c2e8d60e31b602082015261049b908290856118d4565b6104a581866118f2565b9150505b949350505050565b600c60205260009081526040902080546104ca90612c01565b80601f01602080910402602001604051908101604052809291908181526020018280546104f690612c01565b80156105435780601f1061051857610100808354040283529160200191610543565b820191906000526020600020905b81548152906001019060200180831161052657829003601f168201915b505050505081565b6002600054141561059e5760405162461bcd60e51b815260206004820152601f60248201527f5265656e7472616e637947756172643a207265656e7472616e742063616c6c006044820152606401610425565b600260005560085460408051808201909152600381526231303160e81b6020820152906001600160a01b031633146105e95760405162461bcd60e51b815260040161042591906127fb565b50604051600090339047908381818185875af1925050503d806000811461062c576040519150601f19603f3d011682016040523d82523d6000602084013e610631565b606091505b505090508061063f57600080fd5b50506001600055565b6008546001600160a01b031633148061066b57506009546001600160a01b031633145b6040518060400160405280600381526020016231303160e81b815250906106a55760405162461bcd60e51b815260040161042591906127fb565b506000828152600b6020908152604090912082516106c5928401906124b2565b505050565b60085460408051808201909152600381526231303160e81b6020820152906001600160a01b031633146107105760405162461bcd60e51b815260040161042591906127fb565b50600580546001600160a01b0319166001600160a01b03831617905550565b50565b6008546001600160a01b031633148061075557506009546001600160a01b031633145b6040518060400160405280600381526020016231303160e81b8152509061078f5760405162461bcd60e51b815260040161042591906127fb565b5060006107a3886349e8383960e11b61190c565b6040805180820190915260068152651b585c9ad95d60d21b60208201529091506107cf90829088611928565b6040805180820190915260088152671b195859dd59525960c21b60208201526107fa90829087611928565b6040805180820190915260048152636461746560e01b602082015261082190829086611928565b61087e816040518060400160405280600781526020016667616d6549647360c81b81525085858080602002602001604051908101604052809392919081815260200183836020028082843760009201919091525061194692505050565b61088881886119b7565b505050505050505050565b61089b6119d1565b6108a56000611a2b565b565b60008281526007602052604090205482906001600160a01b031633146108df5760405162461bcd60e51b815260040161042590612c36565b60008181526007602052604080822080546001600160a01b03191690555182917f7cc135e0cebb02c3480ae5d74d377283180a2601f8f644edf7987b009316c63a91a2816040516109309190612c7e565b6040519081900381209084907fc6ef1c5f8f954d0251e9620ce4908018f1c31f432eb9b44fd9efb2ca569453f190600090a36000838152600c6020908152604090912083516109819285019061250f565b506000806000806000806000888060200190518101906109a19190612cf5565b96509650965096509650965096506040518060e001604052808863ffffffff1681526020018764ffffffffff1681526020018681526020018581526020018460ff1681526020018360ff16815260200182815250600d60008963ffffffff1663ffffffff16815260200190815260200160002060008201518160000160006101000a81548163ffffffff021916908363ffffffff16021790555060208201518160000160046101000a81548164ffffffffff021916908364ffffffffff1602179055506040820151816001019080519060200190610a8092919061250f565b5060608201518051610a9c91600284019160209091019061250f565b50608082015160038201805460a085015160ff9081166101000261ffff1990921693169290921791909117905560c08201518051610ae491600484019160209091019061250f565b5050600a546001600160a01b0316159050610b6157600a54604051637c1de7e160e01b81526001600160a01b03909116908190637c1de7e190610b2d908e908e90600401612dcf565b600060405180830381600087803b158015610b4757600080fd5b505af1158015610b5b573d6000803e3d6000fd5b50505050505b50505050505050505050565b60085460408051808201909152600381526231303160e81b6020820152906001600160a01b03163314610bb35760405162461bcd60e51b815260040161042591906127fb565b50600480546001600160a01b0319166001600160a01b03831617905550565b60085460408051808201909152600381526231303160e81b6020820152906001600160a01b03163314610c185760405162461bcd60e51b815260040161042591906127fb565b506000610c2d6004546001600160a01b031690565b6040516370a0823160e01b81523060048201529091506001600160a01b0382169063a9059cbb90339083906370a0823190602401602060405180830381865afa158015610c7e573d6000803e3d6000fd5b505050506040513d601f19601f82011682018060405250810190610ca29190612de8565b6040516001600160e01b031960e085901b1681526001600160a01b03909216600483015260248201526044016020604051808303816000875af1158015610ced573d6000803e3d6000fd5b505050506040513d601f19601f82011682018060405250810190610d119190612e01565b61072f5760405162461bcd60e51b81526020600482015260126024820152712ab730b13632903a37903a3930b739b332b960711b6044820152606401610425565b6008546001600160a01b031633148015610d7457506001600160a01b03811615155b8015610d8e57506008546001600160a01b03828116911614155b6040518060400160405280600381526020016231303160e81b81525090610dc85760405162461bcd60e51b815260040161042591906127fb565b50600880546001600160a01b0319166001600160a01b0392909216919091179055565b60008281526007602052604090205482906001600160a01b03163314610e235760405162461bcd60e51b815260040161042590612c36565b60008181526007602052604080822080546001600160a01b03191690555182917f7cc135e0cebb02c3480ae5d74d377283180a2601f8f644edf7987b009316c63a91a281604051610e749190612e23565b6040519081900381209084907ff5b641a355461fb962e21752d6243c31a8312268065ab21efde58f7a3df8848a90600090a36000838152600b602090815260409091208351610ec5928501906124b2565b506000610eef6000600485600081518110610ee257610ee2612e6f565b6020026020010151611a7d565b610ef890612e85565b60e01c6000818152600d6020526040902054909150640100000000900464ffffffffff166110f9576000848152600b602052604081208054610fdb91908390610f4357610f43612e6f565b906000526020600020018054610f5890612c01565b80601f0160208091040260200160405190810160405280929190818152602001828054610f8490612c01565b8015610fd15780601f10610fa657610100808354040283529160200191610fd1565b820191906000526020600020905b815481529060010190602001808311610fb457829003601f168201915b5050505050611b4b565b6040805160e081018252825163ffffffff908116825260208085015164ffffffffff908116828501908152858701518587019081526060808901519087015260006080870181905260a087018190528751808601895281815260c08801528a86168152600d8552969096208551815492519093166401000000000268ffffffffffffffffff199092169290941691909117178255925180519495509193909261108b92600185019291019061250f565b50606082015180516110a791600284019160209091019061250f565b50608082015160038201805460a085015160ff9081166101000261ffff1990921693169290921791909117905560c082015180516110ef91600484019160209091019061250f565b50905050506112f8565b6000848152600b6020526040812080546111b49190839061111c5761111c612e6f565b90600052602060002001805461113190612c01565b80601f016020809104026020016040519081016040528092919081815260200182805461115d90612c01565b80156111aa5780601f1061117f576101008083540402835291602001916111aa565b820191906000526020600020905b81548152906001019060200180831161118d57829003601f168201915b5050505050611c2e565b60208082015163ffffffff85166000908152600d83526040908190206003810180549286015160ff9081166101000261ffff19909416941693909317919091179091556060830151805193945061121293600490920192019061250f565b50600a546001600160a01b0316156112f657600a5463ffffffff8381166000908152600d60209081526040918290208054600382015493516001600160a01b03909616958695637c1de7e1958d9561129c9592851694640100000000900464ffffffffff16936001840193600281019360ff80821694610100909204169260049092019101612f5c565b6040516020818303038152906040526040518363ffffffff1660e01b81526004016112c8929190612dcf565b600060405180830381600087803b1580156112e257600080fd5b505af1158015610b61573d6000803e3d6000fd5b505b50505050565b600b602052816000526040600020818154811061131a57600080fd5b906000526020600020016000915091505080546104ca90612c01565b60085460408051808201909152600381526231303160e81b6020820152906001600160a01b0316331461137c5760405162461bcd60e51b815260040161042591906127fb565b50600980546001600160a01b0319166001600160a01b0392909216919091179055565b60085460408051808201909152600381526231303160e81b6020820152906001600160a01b031633146113e55760405162461bcd60e51b815260040161042591906127fb565b50600a80546001600160a01b0319166001600160a01b0392909216919091179055565b600061141c6005546001600160a01b031690565b905090565b6008546001600160a01b031633148061144457506009546001600160a01b031633145b6040518060400160405280600381526020016231303160e81b8152509061147e5760405162461bcd60e51b815260040161042591906127fb565b50600061149a61148d87611892565b6349e8383960e11b61190c565b6040805180820190915260068152651b585c9ad95d60d21b60208201529091506114c690829086611928565b6040805180820190915260088152671b195859dd59525960c21b60208201526114f190829085611928565b6040805180820190915260048152636461746560e01b602082015261151890829084611928565b61152281866119b7565b50505050505050565b600d602052600090815260409020805460018201805463ffffffff83169364010000000090930464ffffffffff1692919061156590612c01565b80601f016020809104026020016040519081016040528092919081815260200182805461159190612c01565b80156115de5780601f106115b3576101008083540402835291602001916115de565b820191906000526020600020905b8154815290600101906020018083116115c157829003601f168201915b5050505050908060020180546115f390612c01565b80601f016020809104026020016040519081016040528092919081815260200182805461161f90612c01565b801561166c5780601f106116415761010080835404028352916020019161166c565b820191906000526020600020905b81548152906001019060200180831161164f57829003601f168201915b505050506003830154600484018054939460ff808416956101009094041693509161169690612c01565b80601f01602080910402602001604051908101604052809291908181526020018280546116c290612c01565b801561170f5780601f106116e45761010080835404028352916020019161170f565b820191906000526020600020905b8154815290600101906020018083116116f257829003601f168201915b5050505050905087565b60408051608081018252600080825260208201819052918101919091526060808201526000838152600b60205260409020805461176191908490811061111c5761111c612e6f565b90505b92915050565b60408051608081018252600080825260208201526060918101829052818101919091526000838152600b602052604090208054611761919084908110610f4357610f43612e6f565b6008546001600160a01b03163314806117d557506009546001600160a01b031633145b6040518060400160405280600381526020016231303160e81b8152509061180f5760405162461bcd60e51b815260040161042591906127fb565b506112f884848484611cf9565b6118246119d1565b6001600160a01b0381166118895760405162461bcd60e51b815260206004820152602660248201527f4f776e61626c653a206e6577206f776e657220697320746865207a65726f206160448201526564647265737360d01b6064820152608401610425565b61072f81611a2b565b805160009082906118a65750600092915050565b50506020015190565b6118b761258f565b6118bf61258f565b6118cb81868686611dc0565b95945050505050565b60808301516118e39083611dfd565b60808301516106c59082611dfd565b600554600090611761906001600160a01b03168484611e14565b61191461258f565b61191c61258f565b6104a981853086611dc0565b60808301516119379083611dfd565b60808301516106c59082611ea7565b608083015183906119579084611dfd565b6119648160800151611ed0565b815160005b818110156119a9576119a184828151811061198657611986612e6f565b60200260200101518460800151611ea790919063ffffffff16565b600101611969565b506112f68260800151611edb565b600554600090611761906001600160a01b03168484611ee6565b6001546001600160a01b031633146108a55760405162461bcd60e51b815260206004820181905260248201527f4f776e61626c653a2063616c6c6572206973206e6f7420746865206f776e65726044820152606401610425565b600180546001600160a01b038381166001600160a01b0319831681179093556040519116919082907f8be0079c531659141344cd1fd0a4f28419497f9722a3daafe3b4186f6b6457e090600090a35050565b60606000611a8b8585612fd6565b6001600160401b03811115611aa257611aa2612636565b6040519080825280601f01601f191660200182016040528015611acc576020820181803683370190505b50905060005b611adc8686612fd6565b811015611b425783611aee8288612fed565b81518110611afe57611afe612e6f565b602001015160f81c60f81b828281518110611b1b57611b1b612e6f565b60200101906001600160f81b031916908160001a905350611b3b81613005565b9050611ad2565b50949350505050565b60408051608081018252600080825260208201526060918101829052818101919091526000611b7d6000600485611a7d565b611b8690612e85565b60e01c90506000611b9a6004600986611a7d565b611ba390613020565b60d81c9050600084600981518110611bbd57611bbd612e6f565b016020015160f81c90506000611bd482600a613053565b60ff1690506000611be7600a8389611a7d565b90506000611bf78389518a611a7d565b6040805160808101825263ffffffff909816885264ffffffffff909616602088015294860191909152505050606082015292915050565b6040805160808101825260008082526020820181905291810182905260608082015290611c5d81600485611a7d565b611c6690612e85565b60e01c9050600083600481518110611c8057611c80612e6f565b602001015160f81c60f81b60f81c9050600084600581518110611ca557611ca5612e6f565b602001015160f81c60f81b60f81c90506000611cc46006875188611a7d565b6040805160808101825263ffffffff909616865260ff9485166020870152929093169184019190915250606082015292915050565b60008481526007602052604080822080546001600160a01b0319811690915590516001600160a01b039091169186917fe1fe3afa0f7f761ff0a8b89086790efd5140d2907ebd5b7ff6bfcb5e075fd4c59190a2604051636ee4d55360e01b815260048101869052602481018590526001600160e01b031984166044820152606481018390526001600160a01b03821690636ee4d55390608401600060405180830381600087803b158015611dac57600080fd5b505af1158015610888573d6000803e3d6000fd5b611dc861258f565b611dd88560800151610100611f2d565b50509183526001600160a01b031660208301526001600160e01b031916604082015290565b611e0a8260038351611f92565b6106c58282612099565b600654600090611e25816001612fed565b600655835160408086015160808701515191516000936320214ca360e11b93611e5d9386938493923092918a91600191602401613078565b60408051601f198184030181529190526020810180516001600160e01b03166001600160e01b0319909316929092179091529050611e9d868386846120c0565b9695505050505050565b6001600160401b03811115611ec457611ec0828261221d565b5050565b611ec082600083611f92565b61072f816004612254565b61072f816007612254565b600654600090611ef7816001612fed565b60065583516040808601516080870151519151600093633c6d41b960e01b93611e5d9386938493928991600291906024016130e0565b604080518082019091526060815260006020820152611f4d602083613135565b15611f7557611f5d602083613135565b611f68906020612fd6565b611f729083612fed565b91505b506020828101829052604080518085526000815290920101905290565b6017816001600160401b031611611fb6576112f88360e0600585901b168317612265565b60ff816001600160401b031611611ff257611fdc836018611fe0600586901b1617612265565b506112f8836001600160401b038316600161228a565b61ffff816001600160401b03161161202f57612019836019611fe0600586901b1617612265565b506112f8836001600160401b038316600261228a565b63ffffffff816001600160401b03161161206e5761205883601a611fe0600586901b1617612265565b506112f8836001600160401b038316600461228a565b61208383601b611fe0600586901b1617612265565b506112f8836001600160401b038316600861228a565b604080518082019091526060815260006020820152611761838460000151518485516122b0565b6040516bffffffffffffffffffffffff193060601b1660208201526034810184905260009060540160408051808303601f1901815282825280516020918201206000818152600790925291812080546001600160a01b0319166001600160a01b038a1617905590925082917fb5e6e01e79f91267dc17b4e6314d5d4d03593d2ceee0fbb452b750bd70ea5af99190a260048054604051630200057560e51b81526001600160a01b0390911691634000aea0916121829189918891889101613157565b6020604051808303816000875af11580156121a1573d6000803e3d6000fd5b505050506040513d601f19601f820116820180604052508101906121c59190612e01565b6104a95760405162461bcd60e51b815260206004820152602360248201527f756e61626c6520746f207472616e73666572416e6443616c6c20746f206f7261604482015262636c6560e81b6064820152608401610425565b6122288260c2612265565b50611ec0828260405160200161224091815260200190565b60405160208183030381529060405261239a565b6106c582601f611fe0600585901b16175b60408051808201909152606081526000602082015261176183846000015151846123a7565b6040805180820190915260608152600060208201526104a9848560000151518585612403565b60408051808201909152606081526000602082015282518211156122d357600080fd5b60208501516122e28386612fed565b11156123155761231585612305876020015187866123009190612fed565b612484565b61231090600261317e565b61249b565b6000808651805187602083010193508088870111156123345787860182525b505050602084015b602084106123745780518252612353602083612fed565b9150612360602082612fed565b905061236d602085612fd6565b935061233c565b51815160001960208690036101000a019081169019919091161790525083949350505050565b611e0a8260028351611f92565b604080518082019091526060815260006020820152836020015183106123dc576123dc8485602001516002612310919061317e565b8351805160208583010184815350808514156123f9576001810182525b5093949350505050565b60408051808201909152606081526000602082015260208501516124278584612fed565b111561243b5761243b856123058685612fed565b6000600161244b84610100613281565b6124559190612fd6565b90508551838682010185831982511617815250805184870111156124795783860181525b509495945050505050565b600081831115612495575081611764565b50919050565b81516124a78383611f2d565b506112f88382612099565b8280548282559060005260206000209081019282156124ff579160200282015b828111156124ff57825180516124ef91849160209091019061250f565b50916020019190600101906124d2565b5061250b9291506125ca565b5090565b82805461251b90612c01565b90600052602060002090601f01602090048101928261253d5760008555612583565b82601f1061255657805160ff1916838001178555612583565b82800160010185558215612583579182015b82811115612583578251825591602001919060010190612568565b5061250b9291506125e7565b6040805160a0810182526000808252602080830182905282840182905260608084018390528451808601909552845283015290608082015290565b8082111561250b5760006125de82826125fc565b506001016125ca565b5b8082111561250b57600081556001016125e8565b50805461260890612c01565b6000825580601f10612618575050565b601f01602090049060005260206000209081019061072f91906125e7565b634e487b7160e01b600052604160045260246000fd5b604051601f8201601f191681016001600160401b038111828210171561267457612674612636565b604052919050565b60006001600160401b0382111561269557612695612636565b50601f01601f191660200190565b600082601f8301126126b457600080fd5b81356126c76126c28261267c565b61264c565b8181528460208386010111156126dc57600080fd5b816020850160208301376000918101602001919091529392505050565b6000806000806080858703121561270f57600080fd5b84356001600160401b038082111561272657600080fd5b612732888389016126a3565b955060208701359450604087013591508082111561274f57600080fd5b61275b888389016126a3565b9350606087013591508082111561277157600080fd5b5061277e878288016126a3565b91505092959194509250565b60006020828403121561279c57600080fd5b5035919050565b60005b838110156127be5781810151838201526020016127a6565b838111156112f85750506000910152565b600081518084526127e78160208601602086016127a3565b601f01601f19169290920160200192915050565b60208152600061176160208301846127cf565b6000806040838503121561282157600080fd5b823591506020808401356001600160401b038082111561284057600080fd5b818601915086601f83011261285457600080fd5b81358181111561286657612866612636565b8060051b61287585820161264c565b918252838101850191858101908a84111561288f57600080fd5b86860192505b838310156128cb578235858111156128ad5760008081fd5b6128bb8c89838a01016126a3565b8352509186019190860190612895565b809750505050505050509250929050565b6000602082840312156128ee57600080fd5b81356001600160a01b038116811461290557600080fd5b9392505050565b600080600080600080600060c0888a03121561292757600080fd5b873596506020880135955060408801359450606088013593506080880135925060a08801356001600160401b038082111561296157600080fd5b818a0191508a601f83011261297557600080fd5b81358181111561298457600080fd5b8b60208260051b850101111561299957600080fd5b60208301945080935050505092959891949750929550565b600080604083850312156129c457600080fd5b8235915060208301356001600160401b038111156129e157600080fd5b6129ed858286016126a3565b9150509250929050565b60008060408385031215612a0a57600080fd5b50508035926020909101359150565b600080600080600060a08688031215612a3157600080fd5b85356001600160401b03811115612a4757600080fd5b612a53888289016126a3565b9860208801359850604088013597606081013597506080013595509350505050565b63ffffffff8116811461072f57600080fd5b600060208284031215612a9957600080fd5b813561290581612a75565b63ffffffff8816815264ffffffffff8716602082015260e060408201526000612ad060e08301886127cf565b8281036060840152612ae281886127cf565b905060ff8616608084015260ff851660a084015282810360c0840152612b0881856127cf565b9a9950505050505050505050565b6020815263ffffffff825116602082015260ff602083015116604082015260ff6040830151166060820152600060608301516080808401526104a960a08401826127cf565b6020815263ffffffff825116602082015264ffffffffff60208301511660408201526000604083015160806060840152612b9860a08401826127cf565b90506060840151601f198483030160808501526118cb82826127cf565b60008060008060808587031215612bcb57600080fd5b843593506020850135925060408501356001600160e01b031981168114612bf157600080fd5b9396929550929360600135925050565b600181811c90821680612c1557607f821691505b6020821081141561249557634e487b7160e01b600052602260045260246000fd5b60208082526028908201527f536f75726365206d75737420626520746865206f7261636c65206f6620746865604082015267081c995c5d595cdd60c21b606082015260800190565b60008251612c908184602087016127a3565b9190910192915050565b600082601f830112612cab57600080fd5b8151612cb96126c28261267c565b818152846020838601011115612cce57600080fd5b6104a98260208301602087016127a3565b805160ff81168114612cf057600080fd5b919050565b600080600080600080600060e0888a031215612d1057600080fd5b8751612d1b81612a75565b602089015190975064ffffffffff81168114612d3657600080fd5b60408901519096506001600160401b0380821115612d5357600080fd5b612d5f8b838c01612c9a565b965060608a0151915080821115612d7557600080fd5b612d818b838c01612c9a565b9550612d8f60808b01612cdf565b9450612d9d60a08b01612cdf565b935060c08a0151915080821115612db357600080fd5b50612dc08a828b01612c9a565b91505092959891949750929550565b8281526040602082015260006104a960408301846127cf565b600060208284031215612dfa57600080fd5b5051919050565b600060208284031215612e1357600080fd5b8151801515811461290557600080fd5b815160009082906020808601845b83811015612e635781518051612e4a81888785016127a3565b601f01601f191695909501945090820190600101612e31565b50929695505050505050565b634e487b7160e01b600052603260045260246000fd5b805160208201516001600160e01b03198082169291906004831015612eb45780818460040360031b1b83161693505b505050919050565b8054600090600181811c9080831680612ed657607f831692505b6020808410821415612ef857634e487b7160e01b600052602260045260246000fd5b83885260208801828015612f135760018114612f2457612f4f565b60ff19871682528282019750612f4f565b60008981526020902060005b87811015612f4957815484820152908601908401612f30565b83019850505b5050505050505092915050565b63ffffffff8816815264ffffffffff8716602082015260e060408201526000612f8860e0830188612ebc565b8281036060840152612f9a8188612ebc565b905060ff8616608084015260ff851660a084015282810360c0840152612b088185612ebc565b634e487b7160e01b600052601160045260246000fd5b600082821015612fe857612fe8612fc0565b500390565b6000821982111561300057613000612fc0565b500190565b600060001982141561301957613019612fc0565b5060010190565b805160208201516001600160d81b03198082169291906005831015612eb45760059290920360031b82901b161692915050565b600060ff821660ff84168060ff0382111561307057613070612fc0565b019392505050565b6001600160a01b0389811682526020820189905260408201889052861660608201526001600160e01b03198516608082015260a0810184905260c0810183905261010060e082018190526000906130d1838201856127cf565b9b9a5050505050505050505050565b60018060a01b038816815286602082015285604082015263ffffffff60e01b851660608201528360808201528260a082015260e060c0820152600061312860e08301846127cf565b9998505050505050505050565b60008261315257634e487b7160e01b600052601260045260246000fd5b500690565b60018060a01b03841681528260208201526060604082015260006118cb60608301846127cf565b600081600019048311821515161561319857613198612fc0565b500290565b600181815b808511156131d85781600019048211156131be576131be612fc0565b808516156131cb57918102915b93841c93908002906131a2565b509250929050565b6000826131ef57506001611764565b816131fc57506000611764565b8160018114613212576002811461321c57613238565b6001915050611764565b60ff84111561322d5761322d612fc0565b50506001821b611764565b5060208310610133831016604e8410600b841016171561325b575081810a611764565b613265838361319d565b806000190482111561327957613279612fc0565b029392505050565b600061176183836131e056fea26469706673582212206aeb31c2e9028412c62c7997bd5aa0dd875de85289495d4d04043c4f9d95900064736f6c634300080c0033",
  "linkReferences": {},
  "deployedLinkReferences": {}
}