{
  "_format": "hh-sol-artifact-1",
  "contractName": "AVATARSOracle",
  "sourceName": "contracts/services/AVATARSOracle.sol",
  "abi": [
    {
      "inputs": [
        {
          "internalType": "address",
          "name": "admin",
          "type": "address"
        },
        {
          "internalType": "address",
          "name": "be",
          "type": "address"
        },
        {
          "internalType": "address",
          "name": "LINK_TOKEN",
          "type": "address"
        },
        {
          "internalType": "address",
          "name": "ORACLE",
          "type": "address"
        }
      ],
      "stateMutability": "nonpayable",
      "type": "constructor"
    },
    {
      "anonymous": false,
      "inputs": [
        {
          "indexed": true,
          "internalType": "bytes32",
          "name": "id",
          "type": "bytes32"
        }
      ],
      "name": "ChainlinkCancelled",
      "type": "event"
    },
    {
      "anonymous": false,
      "inputs": [
        {
          "indexed": true,
          "internalType": "bytes32",
          "name": "id",
          "type": "bytes32"
        }
      ],
      "name": "ChainlinkFulfilled",
      "type": "event"
    },
    {
      "anonymous": false,
      "inputs": [
        {
          "indexed": true,
          "internalType": "bytes32",
          "name": "id",
          "type": "bytes32"
        }
      ],
      "name": "ChainlinkRequested",
      "type": "event"
    },
    {
      "anonymous": false,
      "inputs": [
        {
          "indexed": true,
          "internalType": "address",
          "name": "previousOwner",
          "type": "address"
        },
        {
          "indexed": true,
          "internalType": "address",
          "name": "newOwner",
          "type": "address"
        }
      ],
      "name": "OwnershipTransferred",
      "type": "event"
    },
    {
      "anonymous": false,
      "inputs": [
        {
          "indexed": true,
          "internalType": "bytes32",
          "name": "requestId",
          "type": "bytes32"
        },
        {
          "indexed": true,
          "internalType": "bytes[]",
          "name": "data",
          "type": "bytes[]"
        }
      ],
      "name": "RequestFulfilled",
      "type": "event"
    },
    {
      "anonymous": false,
      "inputs": [
        {
          "indexed": true,
          "internalType": "bytes32",
          "name": "requestId",
          "type": "bytes32"
        },
        {
          "indexed": true,
          "internalType": "bytes",
          "name": "data",
          "type": "bytes"
        }
      ],
      "name": "RequestFulfilledData",
      "type": "event"
    },
    {
      "inputs": [],
      "name": "_admin",
      "outputs": [
        {
          "internalType": "address",
          "name": "",
          "type": "address"
        }
      ],
      "stateMutability": "view",
      "type": "function"
    },
    {
      "inputs": [],
      "name": "_be",
      "outputs": [
        {
          "internalType": "address",
          "name": "",
          "type": "address"
        }
      ],
      "stateMutability": "view",
      "type": "function"
    },
    {
      "inputs": [],
      "name": "_callbackAddress",
      "outputs": [
        {
          "internalType": "address",
          "name": "",
          "type": "address"
        }
      ],
      "stateMutability": "view",
      "type": "function"
    },
    {
      "inputs": [],
      "name": "_getOracleAddress",
      "outputs": [
        {
          "internalType": "address",
          "name": "",
          "type": "address"
        }
      ],
      "stateMutability": "view",
      "type": "function"
    },
    {
      "inputs": [
        {
          "internalType": "bytes32",
          "name": "_requestId",
          "type": "bytes32"
        },
        {
          "internalType": "uint256",
          "name": "_payment",
          "type": "uint256"
        },
        {
          "internalType": "bytes4",
          "name": "_callbackFunctionId",
          "type": "bytes4"
        },
        {
          "internalType": "uint256",
          "name": "_expiration",
          "type": "uint256"
        }
      ],
      "name": "cancelRequest",
      "outputs": [],
      "stateMutability": "nonpayable",
      "type": "function"
    },
    {
      "inputs": [
        {
          "internalType": "address",
          "name": "newAdm",
          "type": "address"
        }
      ],
      "name": "changeAdmin",
      "outputs": [],
      "stateMutability": "nonpayable",
      "type": "function"
    },
    {
      "inputs": [
        {
          "internalType": "address",
          "name": "be",
          "type": "address"
        }
      ],
      "name": "changeBE",
      "outputs": [],
      "stateMutability": "nonpayable",
      "type": "function"
    },
    {
      "inputs": [
        {
          "internalType": "address",
          "name": "add",
          "type": "address"
        }
      ],
      "name": "changeCallbackAddress",
      "outputs": [],
      "stateMutability": "nonpayable",
      "type": "function"
    },
    {
      "inputs": [
        {
          "internalType": "address",
          "name": "oracle",
          "type": "address"
        }
      ],
      "name": "changeOracle",
      "outputs": [],
      "stateMutability": "nonpayable",
      "type": "function"
    },
    {
      "inputs": [
        {
          "internalType": "bytes32",
          "name": "requestId",
          "type": "bytes32"
        },
        {
          "internalType": "bytes",
          "name": "gameData",
          "type": "bytes"
        }
      ],
      "name": "fulfill",
      "outputs": [],
      "stateMutability": "nonpayable",
      "type": "function"
    },
    {
      "inputs": [
        {
          "internalType": "bytes32",
          "name": "requestId",
          "type": "bytes32"
        },
        {
          "internalType": "bytes[]",
          "name": "result",
          "type": "bytes[]"
        }
      ],
      "name": "fulfillSchedule",
      "outputs": [],
      "stateMutability": "nonpayable",
      "type": "function"
    },
    {
      "inputs": [
        {
          "internalType": "uint32",
          "name": "",
          "type": "uint32"
        }
      ],
      "name": "games",
      "outputs": [
        {
          "internalType": "uint32",
          "name": "gameId",
          "type": "uint32"
        },
        {
          "internalType": "uint40",
          "name": "startTime",
          "type": "uint40"
        },
        {
          "internalType": "string",
          "name": "homeTeam",
          "type": "string"
        },
        {
          "internalType": "string",
          "name": "awayTeam",
          "type": "string"
        },
        {
          "internalType": "uint8",
          "name": "homeScore",
          "type": "uint8"
        },
        {
          "internalType": "uint8",
          "name": "awayScore",
          "type": "uint8"
        },
        {
          "internalType": "string",
          "name": "status",
          "type": "string"
        }
      ],
      "stateMutability": "view",
      "type": "function"
    },
    {
      "inputs": [
        {
          "internalType": "bytes32",
          "name": "_requestId",
          "type": "bytes32"
        },
        {
          "internalType": "uint256",
          "name": "_idx",
          "type": "uint256"
        }
      ],
      "name": "getGameCreate",
      "outputs": [
        {
          "components": [
            {
              "internalType": "uint32",
              "name": "gameId",
              "type": "uint32"
            },
            {
              "internalType": "uint40",
              "name": "startTime",
              "type": "uint40"
            },
            {
              "internalType": "string",
              "name": "homeTeam",
              "type": "string"
            },
            {
              "internalType": "string",
              "name": "awayTeam",
              "type": "string"
            }
          ],
          "internalType": "struct AVATARSOracle.GameCreate",
          "name": "",
          "type": "tuple"
        }
      ],
      "stateMutability": "view",
      "type": "function"
    },
    {
      "inputs": [
        {
          "internalType": "bytes32",
          "name": "_requestId",
          "type": "bytes32"
        },
        {
          "internalType": "uint256",
          "name": "_idx",
          "type": "uint256"
        }
      ],
      "name": "getGameResolve",
      "outputs": [
        {
          "components": [
            {
              "internalType": "uint32",
              "name": "gameId",
              "type": "uint32"
            },
            {
              "internalType": "uint8",
              "name": "homeScore",
              "type": "uint8"
            },
            {
              "internalType": "uint8",
              "name": "awayScore",
              "type": "uint8"
            },
            {
              "internalType": "string",
              "name": "status",
              "type": "string"
            }
          ],
          "internalType": "struct AVATARSOracle.GameResolve",
          "name": "",
          "type": "tuple"
        }
      ],
      "stateMutability": "view",
      "type": "function"
    },
    {
      "inputs": [],
      "name": "owner",
      "outputs": [
        {
          "internalType": "address",
          "name": "",
          "type": "address"
        }
      ],
      "stateMutability": "view",
      "type": "function"
    },
    {
      "inputs": [],
      "name": "renounceOwnership",
      "outputs": [],
      "stateMutability": "nonpayable",
      "type": "function"
    },
    {
      "inputs": [
        {
          "internalType": "string",
          "name": "jobId",
          "type": "string"
        },
        {
          "internalType": "uint256",
          "name": "fee",
          "type": "uint256"
        },
        {
          "internalType": "string",
          "name": "url",
          "type": "string"
        },
        {
          "internalType": "string",
          "name": "path",
          "type": "string"
        }
      ],
      "name": "requestData",
      "outputs": [
        {
          "internalType": "bytes32",
          "name": "requestId",
          "type": "bytes32"
        }
      ],
      "stateMutability": "nonpayable",
      "type": "function"
    },
    {
      "inputs": [
        {
          "internalType": "bytes32",
          "name": "",
          "type": "bytes32"
        },
        {
          "internalType": "uint256",
          "name": "",
          "type": "uint256"
        }
      ],
      "name": "requestIdGames",
      "outputs": [
        {
          "internalType": "bytes",
          "name": "",
          "type": "bytes"
        }
      ],
      "stateMutability": "view",
      "type": "function"
    },
    {
      "inputs": [
        {
          "internalType": "bytes32",
          "name": "",
          "type": "bytes32"
        }
      ],
      "name": "requestIdGamesData",
      "outputs": [
        {
          "internalType": "bytes",
          "name": "",
          "type": "bytes"
        }
      ],
      "stateMutability": "view",
      "type": "function"
    },
    {
      "inputs": [
        {
          "internalType": "bytes32",
          "name": "_specId",
          "type": "bytes32"
        },
        {
          "internalType": "uint256",
          "name": "_payment",
          "type": "uint256"
        },
        {
          "internalType": "uint256",
          "name": "_market",
          "type": "uint256"
        },
        {
          "internalType": "uint256",
          "name": "_leagueId",
          "type": "uint256"
        },
        {
          "internalType": "uint256",
          "name": "_date",
          "type": "uint256"
        },
        {
          "internalType": "uint256[]",
          "name": "_gameIds",
          "type": "uint256[]"
        }
      ],
      "name": "requestSchedule",
      "outputs": [],
      "stateMutability": "nonpayable",
      "type": "function"
    },
    {
      "inputs": [
        {
          "internalType": "string",
          "name": "jobId",
          "type": "string"
        },
        {
          "internalType": "uint256",
          "name": "fee",
          "type": "uint256"
        },
        {
          "internalType": "uint256",
          "name": "market",
          "type": "uint256"
        },
        {
          "internalType": "uint256",
          "name": "leagueId",
          "type": "uint256"
        },
        {
          "internalType": "uint256",
          "name": "date",
          "type": "uint256"
        }
      ],
      "name": "requestSchedule",
      "outputs": [],
      "stateMutability": "nonpayable",
      "type": "function"
    },
    {
      "inputs": [
        {
          "internalType": "bytes32",
          "name": "_requestId",
          "type": "bytes32"
        },
        {
          "internalType": "bytes[]",
          "name": "_games",
          "type": "bytes[]"
        }
      ],
      "name": "setRequestIdGames",
      "outputs": [],
      "stateMutability": "nonpayable",
      "type": "function"
    },
    {
      "inputs": [
        {
          "internalType": "address",
          "name": "newOwner",
          "type": "address"
        }
      ],
      "name": "transferOwnership",
      "outputs": [],
      "stateMutability": "nonpayable",
      "type": "function"
    },
    {
      "inputs": [
        {
          "internalType": "uint256",
          "name": "amount",
          "type": "uint256"
        }
      ],
      "name": "withdraw",
      "outputs": [],
      "stateMutability": "nonpayable",
      "type": "function"
    },
    {
      "inputs": [],
      "name": "withdrawLink",
      "outputs": [],
      "stateMutability": "nonpayable",
      "type": "function"
    }
  ],
  "bytecode": "0x60806040523480156200001157600080fd5b50604051620033b1380380620033b1833981016040819052620000349162000114565b60016000556200004433620000a5565b600880546001600160a01b038681166001600160a01b0319928316179092556009805486841690831617905560048054909116918416919091179055600580546001600160a01b0319166001600160a01b0383161790555050505062000171565b600180546001600160a01b038381166001600160a01b0319831681179093556040519116919082907f8be0079c531659141344cd1fd0a4f28419497f9722a3daafe3b4186f6b6457e090600090a35050565b80516001600160a01b03811681146200010f57600080fd5b919050565b600080600080608085870312156200012b57600080fd5b6200013685620000f7565b93506200014660208601620000f7565b92506200015660408601620000f7565b91506200016660608601620000f7565b905092959194509250565b61323080620001816000396000f3fe608060405234801561001057600080fd5b50600436106101735760003560e01c80638f283970116100de578063c646c7be11610097578063de00d10711610071578063de00d10714610331578063e3c046a714610351578063ec65d0f814610371578063f2fde38b1461038457600080fd5b8063c646c7be146102e5578063cc72c53b146102f8578063da5d2fac1461030b57600080fd5b80638f2839701461027e57806393d0707214610291578063a2943608146102a4578063a3ab06cf146102b7578063a9bbf3fd146102ca578063b075f532146102dd57600080fd5b806349687cca1161013057806349687cca146102245780636d0257e214610237578063715018a61461024a5780637c1de7e1146102525780638da5cb5b146102655780638dc654a21461027657600080fd5b806301bc45c91461017857806303599a70146101a85780632a2fd7d7146101c95780632e1a7d4d146101e9578063303a712f146101fe57806347c421b514610211575b600080fd5b60085461018b906001600160a01b031681565b6040516001600160a01b0390911681526020015b60405180910390f35b6101bb6101b6366004612666565b610397565b60405190815260200161019f565b6101dc6101d73660046126f7565b610483565b60405161019f9190612768565b6101fc6101f73660046126f7565b61051d565b005b6101fc61020c36600461277b565b61061a565b6101fc61021f366004612849565b61069c565b6101fc610232366004612879565b610704565b60095461018b906001600160a01b031681565b6101fc610865565b6101fc61026036600461291e565b610879565b6001546001600160a01b031661018b565b6101fc610b3f565b6101fc61028c366004612849565b610cbf565b6101fc61029f36600461277b565b610d58565b6101dc6102b2366004612964565b61126b565b6101fc6102c5366004612849565b6112a3565b6101fc6102d8366004612849565b61130c565b61018b611375565b6101fc6102f3366004612986565b61138e565b600a5461018b906001600160a01b031681565b61031e6103193660046129f4565b611498565b60405161019f9796959493929190612a11565b61034461033f366004612964565b611686565b60405161019f9190612a83565b61036461035f366004612964565b6116d7565b60405161019f9190612ac8565b6101fc61037f366004612b22565b61171f565b6101fc610392366004612849565b611789565b6008546000906001600160a01b03163314806103bd57506009546001600160a01b031633145b6040518060400160405280600381526020016231303160e81b815250906104005760405162461bcd60e51b81526004016103f79190612768565b60405180910390fd5b50600061041d61040f876117ff565b30637c1de7e160e01b61181c565b60408051808201909152600381526219d95d60ea1b602082015290915061044690829086611841565b6040805180820190915260048152630e0c2e8d60e31b602082015261046d90829085611841565b610477818661185f565b9150505b949350505050565b600c602052600090815260409020805461049c90612b6e565b80601f01602080910402602001604051908101604052809291908181526020018280546104c890612b6e565b80156105155780601f106104ea57610100808354040283529160200191610515565b820191906000526020600020905b8154815290600101906020018083116104f857829003601f168201915b505050505081565b600260005414156105705760405162461bcd60e51b815260206004820152601f60248201527f5265656e7472616e637947756172643a207265656e7472616e742063616c6c0060448201526064016103f7565b600260005560085460408051808201909152600381526231303160e81b6020820152906001600160a01b031633146105bb5760405162461bcd60e51b81526004016103f79190612768565b50604051600090339047908381818185875af1925050503d80600081146105fe576040519150601f19603f3d011682016040523d82523d6000602084013e610603565b606091505b505090508061061157600080fd5b50506001600055565b6008546001600160a01b031633148061063d57506009546001600160a01b031633145b6040518060400160405280600381526020016231303160e81b815250906106775760405162461bcd60e51b81526004016103f79190612768565b506000828152600b6020908152604090912082516106979284019061241f565b505050565b60085460408051808201909152600381526231303160e81b6020820152906001600160a01b031633146106e25760405162461bcd60e51b81526004016103f79190612768565b50600580546001600160a01b0319166001600160a01b03831617905550565b50565b6008546001600160a01b031633148061072757506009546001600160a01b031633145b6040518060400160405280600381526020016231303160e81b815250906107615760405162461bcd60e51b81526004016103f79190612768565b506000610775886349e8383960e11b611879565b6040805180820190915260068152651b585c9ad95d60d21b60208201529091506107a190829088611895565b6040805180820190915260088152671b195859dd59525960c21b60208201526107cc90829087611895565b6040805180820190915260048152636461746560e01b60208201526107f390829086611895565b610850816040518060400160405280600781526020016667616d6549647360c81b8152508585808060200260200160405190810160405280939291908181526020018383602002808284376000920191909152506118b392505050565b61085a8188611924565b505050505050505050565b61086d61193e565b6108776000611998565b565b60008281526007602052604090205482906001600160a01b031633146108b15760405162461bcd60e51b81526004016103f790612ba3565b60008181526007602052604080822080546001600160a01b03191690555182917f7cc135e0cebb02c3480ae5d74d377283180a2601f8f644edf7987b009316c63a91a2816040516109029190612beb565b6040519081900381209084907fc6ef1c5f8f954d0251e9620ce4908018f1c31f432eb9b44fd9efb2ca569453f190600090a36000838152600c6020908152604090912083516109539285019061247c565b506000806000806000806000888060200190518101906109739190612c62565b96509650965096509650965096506040518060e001604052808863ffffffff1681526020018764ffffffffff1681526020018681526020018581526020018460ff1681526020018360ff16815260200182815250600d60008963ffffffff1663ffffffff16815260200190815260200160002060008201518160000160006101000a81548163ffffffff021916908363ffffffff16021790555060208201518160000160046101000a81548164ffffffffff021916908364ffffffffff1602179055506040820151816001019080519060200190610a5292919061247c565b5060608201518051610a6e91600284019160209091019061247c565b50608082015160038201805460a085015160ff9081166101000261ffff1990921693169290921791909117905560c08201518051610ab691600484019160209091019061247c565b5050600a546001600160a01b0316159050610b3357600a54604051637c1de7e160e01b81526001600160a01b03909116908190637c1de7e190610aff908e908e90600401612d3c565b600060405180830381600087803b158015610b1957600080fd5b505af1158015610b2d573d6000803e3d6000fd5b50505050505b50505050505050505050565b60085460408051808201909152600381526231303160e81b6020820152906001600160a01b03163314610b855760405162461bcd60e51b81526004016103f79190612768565b506000610b9a6004546001600160a01b031690565b6040516370a0823160e01b81523060048201529091506001600160a01b0382169063a9059cbb90339083906370a0823190602401602060405180830381865afa158015610beb573d6000803e3d6000fd5b505050506040513d601f19601f82011682018060405250810190610c0f9190612d55565b6040516001600160e01b031960e085901b1681526001600160a01b03909216600483015260248201526044016020604051808303816000875af1158015610c5a573d6000803e3d6000fd5b505050506040513d601f19601f82011682018060405250810190610c7e9190612d6e565b6107015760405162461bcd60e51b81526020600482015260126024820152712ab730b13632903a37903a3930b739b332b960711b60448201526064016103f7565b6008546001600160a01b031633148015610ce157506001600160a01b03811615155b8015610cfb57506008546001600160a01b03828116911614155b6040518060400160405280600381526020016231303160e81b81525090610d355760405162461bcd60e51b81526004016103f79190612768565b50600880546001600160a01b0319166001600160a01b0392909216919091179055565b60008281526007602052604090205482906001600160a01b03163314610d905760405162461bcd60e51b81526004016103f790612ba3565b60008181526007602052604080822080546001600160a01b03191690555182917f7cc135e0cebb02c3480ae5d74d377283180a2601f8f644edf7987b009316c63a91a281604051610de19190612d90565b6040519081900381209084907ff5b641a355461fb962e21752d6243c31a8312268065ab21efde58f7a3df8848a90600090a36000838152600b602090815260409091208351610e329285019061241f565b506000610e5c6000600485600081518110610e4f57610e4f612ddc565b60200260200101516119ea565b610e6590612df2565b60e01c6000818152600d6020526040902054909150640100000000900464ffffffffff16611066576000848152600b602052604081208054610f4891908390610eb057610eb0612ddc565b906000526020600020018054610ec590612b6e565b80601f0160208091040260200160405190810160405280929190818152602001828054610ef190612b6e565b8015610f3e5780601f10610f1357610100808354040283529160200191610f3e565b820191906000526020600020905b815481529060010190602001808311610f2157829003601f168201915b5050505050611ab8565b6040805160e081018252825163ffffffff908116825260208085015164ffffffffff908116828501908152858701518587019081526060808901519087015260006080870181905260a087018190528751808601895281815260c08801528a86168152600d8552969096208551815492519093166401000000000268ffffffffffffffffff1990921692909416919091171782559251805194955091939092610ff892600185019291019061247c565b506060820151805161101491600284019160209091019061247c565b50608082015160038201805460a085015160ff9081166101000261ffff1990921693169290921791909117905560c0820151805161105c91600484019160209091019061247c565b5090505050611265565b6000848152600b6020526040812080546111219190839061108957611089612ddc565b90600052602060002001805461109e90612b6e565b80601f01602080910402602001604051908101604052809291908181526020018280546110ca90612b6e565b80156111175780601f106110ec57610100808354040283529160200191611117565b820191906000526020600020905b8154815290600101906020018083116110fa57829003601f168201915b5050505050611b9b565b60208082015163ffffffff85166000908152600d83526040908190206003810180549286015160ff9081166101000261ffff19909416941693909317919091179091556060830151805193945061117f93600490920192019061247c565b50600a546001600160a01b03161561126357600a5463ffffffff8381166000908152600d60209081526040918290208054600382015493516001600160a01b03909616958695637c1de7e1958d956112099592851694640100000000900464ffffffffff16936001840193600281019360ff80821694610100909204169260049092019101612ec9565b6040516020818303038152906040526040518363ffffffff1660e01b8152600401611235929190612d3c565b600060405180830381600087803b15801561124f57600080fd5b505af1158015610b33573d6000803e3d6000fd5b505b50505050565b600b602052816000526040600020818154811061128757600080fd5b9060005260206000200160009150915050805461049c90612b6e565b60085460408051808201909152600381526231303160e81b6020820152906001600160a01b031633146112e95760405162461bcd60e51b81526004016103f79190612768565b50600980546001600160a01b0319166001600160a01b0392909216919091179055565b60085460408051808201909152600381526231303160e81b6020820152906001600160a01b031633146113525760405162461bcd60e51b81526004016103f79190612768565b50600a80546001600160a01b0319166001600160a01b0392909216919091179055565b60006113896005546001600160a01b031690565b905090565b6008546001600160a01b03163314806113b157506009546001600160a01b031633145b6040518060400160405280600381526020016231303160e81b815250906113eb5760405162461bcd60e51b81526004016103f79190612768565b5060006114076113fa876117ff565b6349e8383960e11b611879565b6040805180820190915260068152651b585c9ad95d60d21b602082015290915061143390829086611895565b6040805180820190915260088152671b195859dd59525960c21b602082015261145e90829085611895565b6040805180820190915260048152636461746560e01b602082015261148590829084611895565b61148f8186611924565b50505050505050565b600d602052600090815260409020805460018201805463ffffffff83169364010000000090930464ffffffffff169291906114d290612b6e565b80601f01602080910402602001604051908101604052809291908181526020018280546114fe90612b6e565b801561154b5780601f106115205761010080835404028352916020019161154b565b820191906000526020600020905b81548152906001019060200180831161152e57829003601f168201915b50505050509080600201805461156090612b6e565b80601f016020809104026020016040519081016040528092919081815260200182805461158c90612b6e565b80156115d95780601f106115ae576101008083540402835291602001916115d9565b820191906000526020600020905b8154815290600101906020018083116115bc57829003601f168201915b505050506003830154600484018054939460ff808416956101009094041693509161160390612b6e565b80601f016020809104026020016040519081016040528092919081815260200182805461162f90612b6e565b801561167c5780601f106116515761010080835404028352916020019161167c565b820191906000526020600020905b81548152906001019060200180831161165f57829003601f168201915b5050505050905087565b60408051608081018252600080825260208201819052918101919091526060808201526000838152600b6020526040902080546116ce91908490811061108957611089612ddc565b90505b92915050565b60408051608081018252600080825260208201526060918101829052818101919091526000838152600b6020526040902080546116ce919084908110610eb057610eb0612ddc565b6008546001600160a01b031633148061174257506009546001600160a01b031633145b6040518060400160405280600381526020016231303160e81b8152509061177c5760405162461bcd60e51b81526004016103f79190612768565b5061126584848484611c66565b61179161193e565b6001600160a01b0381166117f65760405162461bcd60e51b815260206004820152602660248201527f4f776e61626c653a206e6577206f776e657220697320746865207a65726f206160448201526564647265737360d01b60648201526084016103f7565b61070181611998565b805160009082906118135750600092915050565b50506020015190565b6118246124fc565b61182c6124fc565b61183881868686611d2d565b95945050505050565b60808301516118509083611d6a565b60808301516106979082611d6a565b6005546000906116ce906001600160a01b03168484611d81565b6118816124fc565b6118896124fc565b61047b81853086611d2d565b60808301516118a49083611d6a565b60808301516106979082611e14565b608083015183906118c49084611d6a565b6118d18160800151611e3d565b815160005b818110156119165761190e8482815181106118f3576118f3612ddc565b60200260200101518460800151611e1490919063ffffffff16565b6001016118d6565b506112638260800151611e48565b6005546000906116ce906001600160a01b03168484611e53565b6001546001600160a01b031633146108775760405162461bcd60e51b815260206004820181905260248201527f4f776e61626c653a2063616c6c6572206973206e6f7420746865206f776e657260448201526064016103f7565b600180546001600160a01b038381166001600160a01b0319831681179093556040519116919082907f8be0079c531659141344cd1fd0a4f28419497f9722a3daafe3b4186f6b6457e090600090a35050565b606060006119f88585612f43565b6001600160401b03811115611a0f57611a0f6125a3565b6040519080825280601f01601f191660200182016040528015611a39576020820181803683370190505b50905060005b611a498686612f43565b811015611aaf5783611a5b8288612f5a565b81518110611a6b57611a6b612ddc565b602001015160f81c60f81b828281518110611a8857611a88612ddc565b60200101906001600160f81b031916908160001a905350611aa881612f72565b9050611a3f565b50949350505050565b60408051608081018252600080825260208201526060918101829052818101919091526000611aea60006004856119ea565b611af390612df2565b60e01c90506000611b0760046009866119ea565b611b1090612f8d565b60d81c9050600084600981518110611b2a57611b2a612ddc565b016020015160f81c90506000611b4182600a612fc0565b60ff1690506000611b54600a83896119ea565b90506000611b648389518a6119ea565b6040805160808101825263ffffffff909816885264ffffffffff909616602088015294860191909152505050606082015292915050565b6040805160808101825260008082526020820181905291810182905260608082015290611bca816004856119ea565b611bd390612df2565b60e01c9050600083600481518110611bed57611bed612ddc565b602001015160f81c60f81b60f81c9050600084600581518110611c1257611c12612ddc565b602001015160f81c60f81b60f81c90506000611c3160068751886119ea565b6040805160808101825263ffffffff909616865260ff9485166020870152929093169184019190915250606082015292915050565b60008481526007602052604080822080546001600160a01b0319811690915590516001600160a01b039091169186917fe1fe3afa0f7f761ff0a8b89086790efd5140d2907ebd5b7ff6bfcb5e075fd4c59190a2604051636ee4d55360e01b815260048101869052602481018590526001600160e01b031984166044820152606481018390526001600160a01b03821690636ee4d55390608401600060405180830381600087803b158015611d1957600080fd5b505af115801561085a573d6000803e3d6000fd5b611d356124fc565b611d458560800151610100611e9a565b50509183526001600160a01b031660208301526001600160e01b031916604082015290565b611d778260038351611eff565b6106978282612006565b600654600090611d92816001612f5a565b600655835160408086015160808701515191516000936320214ca360e11b93611dca9386938493923092918a91600191602401612fe5565b60408051601f198184030181529190526020810180516001600160e01b03166001600160e01b0319909316929092179091529050611e0a8683868461202d565b9695505050505050565b6001600160401b03811115611e3157611e2d828261218a565b5050565b611e2d82600083611eff565b6107018160046121c1565b6107018160076121c1565b600654600090611e64816001612f5a565b60065583516040808601516080870151519151600093633c6d41b960e01b93611dca93869384939289916002919060240161304d565b604080518082019091526060815260006020820152611eba6020836130a2565b15611ee257611eca6020836130a2565b611ed5906020612f43565b611edf9083612f5a565b91505b506020828101829052604080518085526000815290920101905290565b6017816001600160401b031611611f23576112658360e0600585901b1683176121d2565b60ff816001600160401b031611611f5f57611f49836018611fe0600586901b16176121d2565b50611265836001600160401b03831660016121f7565b61ffff816001600160401b031611611f9c57611f86836019611fe0600586901b16176121d2565b50611265836001600160401b03831660026121f7565b63ffffffff816001600160401b031611611fdb57611fc583601a611fe0600586901b16176121d2565b50611265836001600160401b03831660046121f7565b611ff083601b611fe0600586901b16176121d2565b50611265836001600160401b03831660086121f7565b6040805180820190915260608152600060208201526116ce8384600001515184855161221d565b6040516bffffffffffffffffffffffff193060601b1660208201526034810184905260009060540160408051808303601f1901815282825280516020918201206000818152600790925291812080546001600160a01b0319166001600160a01b038a1617905590925082917fb5e6e01e79f91267dc17b4e6314d5d4d03593d2ceee0fbb452b750bd70ea5af99190a260048054604051630200057560e51b81526001600160a01b0390911691634000aea0916120ef91899188918891016130c4565b6020604051808303816000875af115801561210e573d6000803e3d6000fd5b505050506040513d601f19601f820116820180604052508101906121329190612d6e565b61047b5760405162461bcd60e51b815260206004820152602360248201527f756e61626c6520746f207472616e73666572416e6443616c6c20746f206f7261604482015262636c6560e81b60648201526084016103f7565b6121958260c26121d2565b50611e2d82826040516020016121ad91815260200190565b604051602081830303815290604052612307565b61069782601f611fe0600585901b16175b6040805180820190915260608152600060208201526116ce8384600001515184612314565b60408051808201909152606081526000602082015261047b848560000151518585612370565b604080518082019091526060815260006020820152825182111561224057600080fd5b602085015161224f8386612f5a565b111561228257612282856122728760200151878661226d9190612f5a565b6123f1565b61227d9060026130eb565b612408565b6000808651805187602083010193508088870111156122a15787860182525b505050602084015b602084106122e157805182526122c0602083612f5a565b91506122cd602082612f5a565b90506122da602085612f43565b93506122a9565b51815160001960208690036101000a019081169019919091161790525083949350505050565b611d778260028351611eff565b6040805180820190915260608152600060208201528360200151831061234957612349848560200151600261227d91906130eb565b835180516020858301018481535080851415612366576001810182525b5093949350505050565b60408051808201909152606081526000602082015260208501516123948584612f5a565b11156123a8576123a8856122728685612f5a565b600060016123b8846101006131ee565b6123c29190612f43565b90508551838682010185831982511617815250805184870111156123e65783860181525b509495945050505050565b6000818311156124025750816116d1565b50919050565b81516124148383611e9a565b506112658382612006565b82805482825590600052602060002090810192821561246c579160200282015b8281111561246c578251805161245c91849160209091019061247c565b509160200191906001019061243f565b50612478929150612537565b5090565b82805461248890612b6e565b90600052602060002090601f0160209004810192826124aa57600085556124f0565b82601f106124c357805160ff19168380011785556124f0565b828001600101855582156124f0579182015b828111156124f05782518255916020019190600101906124d5565b50612478929150612554565b6040805160a0810182526000808252602080830182905282840182905260608084018390528451808601909552845283015290608082015290565b8082111561247857600061254b8282612569565b50600101612537565b5b808211156124785760008155600101612555565b50805461257590612b6e565b6000825580601f10612585575050565b601f0160209004906000526020600020908101906107019190612554565b634e487b7160e01b600052604160045260246000fd5b604051601f8201601f191681016001600160401b03811182821017156125e1576125e16125a3565b604052919050565b60006001600160401b03821115612602576126026125a3565b50601f01601f191660200190565b600082601f83011261262157600080fd5b813561263461262f826125e9565b6125b9565b81815284602083860101111561264957600080fd5b816020850160208301376000918101602001919091529392505050565b6000806000806080858703121561267c57600080fd5b84356001600160401b038082111561269357600080fd5b61269f88838901612610565b95506020870135945060408701359150808211156126bc57600080fd5b6126c888838901612610565b935060608701359150808211156126de57600080fd5b506126eb87828801612610565b91505092959194509250565b60006020828403121561270957600080fd5b5035919050565b60005b8381101561272b578181015183820152602001612713565b838111156112655750506000910152565b60008151808452612754816020860160208601612710565b601f01601f19169290920160200192915050565b6020815260006116ce602083018461273c565b6000806040838503121561278e57600080fd5b823591506020808401356001600160401b03808211156127ad57600080fd5b818601915086601f8301126127c157600080fd5b8135818111156127d3576127d36125a3565b8060051b6127e28582016125b9565b918252838101850191858101908a8411156127fc57600080fd5b86860192505b838310156128385782358581111561281a5760008081fd5b6128288c89838a0101612610565b8352509186019190860190612802565b809750505050505050509250929050565b60006020828403121561285b57600080fd5b81356001600160a01b038116811461287257600080fd5b9392505050565b600080600080600080600060c0888a03121561289457600080fd5b873596506020880135955060408801359450606088013593506080880135925060a08801356001600160401b03808211156128ce57600080fd5b818a0191508a601f8301126128e257600080fd5b8135818111156128f157600080fd5b8b60208260051b850101111561290657600080fd5b60208301945080935050505092959891949750929550565b6000806040838503121561293157600080fd5b8235915060208301356001600160401b0381111561294e57600080fd5b61295a85828601612610565b9150509250929050565b6000806040838503121561297757600080fd5b50508035926020909101359150565b600080600080600060a0868803121561299e57600080fd5b85356001600160401b038111156129b457600080fd5b6129c088828901612610565b9860208801359850604088013597606081013597506080013595509350505050565b63ffffffff8116811461070157600080fd5b600060208284031215612a0657600080fd5b8135612872816129e2565b63ffffffff8816815264ffffffffff8716602082015260e060408201526000612a3d60e083018861273c565b8281036060840152612a4f818861273c565b905060ff8616608084015260ff851660a084015282810360c0840152612a75818561273c565b9a9950505050505050505050565b6020815263ffffffff825116602082015260ff602083015116604082015260ff60408301511660608201526000606083015160808084015261047b60a084018261273c565b6020815263ffffffff825116602082015264ffffffffff60208301511660408201526000604083015160806060840152612b0560a084018261273c565b90506060840151601f19848303016080850152611838828261273c565b60008060008060808587031215612b3857600080fd5b843593506020850135925060408501356001600160e01b031981168114612b5e57600080fd5b9396929550929360600135925050565b600181811c90821680612b8257607f821691505b6020821081141561240257634e487b7160e01b600052602260045260246000fd5b60208082526028908201527f536f75726365206d75737420626520746865206f7261636c65206f6620746865604082015267081c995c5d595cdd60c21b606082015260800190565b60008251612bfd818460208701612710565b9190910192915050565b600082601f830112612c1857600080fd5b8151612c2661262f826125e9565b818152846020838601011115612c3b57600080fd5b61047b826020830160208701612710565b805160ff81168114612c5d57600080fd5b919050565b600080600080600080600060e0888a031215612c7d57600080fd5b8751612c88816129e2565b602089015190975064ffffffffff81168114612ca357600080fd5b60408901519096506001600160401b0380821115612cc057600080fd5b612ccc8b838c01612c07565b965060608a0151915080821115612ce257600080fd5b612cee8b838c01612c07565b9550612cfc60808b01612c4c565b9450612d0a60a08b01612c4c565b935060c08a0151915080821115612d2057600080fd5b50612d2d8a828b01612c07565b91505092959891949750929550565b82815260406020820152600061047b604083018461273c565b600060208284031215612d6757600080fd5b5051919050565b600060208284031215612d8057600080fd5b8151801515811461287257600080fd5b815160009082906020808601845b83811015612dd05781518051612db78188878501612710565b601f01601f191695909501945090820190600101612d9e565b50929695505050505050565b634e487b7160e01b600052603260045260246000fd5b805160208201516001600160e01b03198082169291906004831015612e215780818460040360031b1b83161693505b505050919050565b8054600090600181811c9080831680612e4357607f831692505b6020808410821415612e6557634e487b7160e01b600052602260045260246000fd5b83885260208801828015612e805760018114612e9157612ebc565b60ff19871682528282019750612ebc565b60008981526020902060005b87811015612eb657815484820152908601908401612e9d565b83019850505b5050505050505092915050565b63ffffffff8816815264ffffffffff8716602082015260e060408201526000612ef560e0830188612e29565b8281036060840152612f078188612e29565b905060ff8616608084015260ff851660a084015282810360c0840152612a758185612e29565b634e487b7160e01b600052601160045260246000fd5b600082821015612f5557612f55612f2d565b500390565b60008219821115612f6d57612f6d612f2d565b500190565b6000600019821415612f8657612f86612f2d565b5060010190565b805160208201516001600160d81b03198082169291906005831015612e215760059290920360031b82901b161692915050565b600060ff821660ff84168060ff03821115612fdd57612fdd612f2d565b019392505050565b6001600160a01b0389811682526020820189905260408201889052861660608201526001600160e01b03198516608082015260a0810184905260c0810183905261010060e0820181905260009061303e8382018561273c565b9b9a5050505050505050505050565b60018060a01b038816815286602082015285604082015263ffffffff60e01b851660608201528360808201528260a082015260e060c0820152600061309560e083018461273c565b9998505050505050505050565b6000826130bf57634e487b7160e01b600052601260045260246000fd5b500690565b60018060a01b0384168152826020820152606060408201526000611838606083018461273c565b600081600019048311821515161561310557613105612f2d565b500290565b600181815b8085111561314557816000190482111561312b5761312b612f2d565b8085161561313857918102915b93841c939080029061310f565b509250929050565b60008261315c575060016116d1565b81613169575060006116d1565b816001811461317f5760028114613189576131a5565b60019150506116d1565b60ff84111561319a5761319a612f2d565b50506001821b6116d1565b5060208310610133831016604e8410600b84101617156131c8575081810a6116d1565b6131d2838361310a565b80600019048211156131e6576131e6612f2d565b029392505050565b60006116ce838361314d56fea2646970667358221220ca67cce5b67b58a7b6e3612eddc6bb104415be74a8ae3f80fc73aca7ae14766464736f6c634300080c0033",
  "linkReferences": {},
  "deployedLinkReferences": {}
}