{
  "_format": "hh-sol-artifact-1",
  "contractName": "ParameterControl",
  "sourceName": "contracts/governance/ParameterControl.sol",
  "abi": [
    {
      "inputs": [
        {
          "internalType": "address",
          "name": "admin_",
          "type": "address"
        }
      ],
      "stateMutability": "nonpayable",
      "type": "constructor"
    },
    {
      "anonymous": false,
      "inputs": [
        {
          "indexed": false,
          "internalType": "address",
          "name": "previousAdmin",
          "type": "address"
        },
        {
          "indexed": false,
          "internalType": "address",
          "name": "newAdmin",
          "type": "address"
        }
      ],
      "name": "AdminChanged",
      "type": "event"
    },
    {
      "anonymous": false,
      "inputs": [
        {
          "indexed": true,
          "internalType": "bytes32",
          "name": "role",
          "type": "bytes32"
        },
        {
          "indexed": true,
          "internalType": "bytes32",
          "name": "previousAdminRole",
          "type": "bytes32"
        },
        {
          "indexed": true,
          "internalType": "bytes32",
          "name": "newAdminRole",
          "type": "bytes32"
        }
      ],
      "name": "RoleAdminChanged",
      "type": "event"
    },
    {
      "anonymous": false,
      "inputs": [
        {
          "indexed": true,
          "internalType": "bytes32",
          "name": "role",
          "type": "bytes32"
        },
        {
          "indexed": true,
          "internalType": "address",
          "name": "account",
          "type": "address"
        },
        {
          "indexed": true,
          "internalType": "address",
          "name": "sender",
          "type": "address"
        }
      ],
      "name": "RoleGranted",
      "type": "event"
    },
    {
      "anonymous": false,
      "inputs": [
        {
          "indexed": true,
          "internalType": "bytes32",
          "name": "role",
          "type": "bytes32"
        },
        {
          "indexed": true,
          "internalType": "address",
          "name": "account",
          "type": "address"
        },
        {
          "indexed": true,
          "internalType": "address",
          "name": "sender",
          "type": "address"
        }
      ],
      "name": "RoleRevoked",
      "type": "event"
    },
    {
      "anonymous": false,
      "inputs": [
        {
          "indexed": false,
          "internalType": "string",
          "name": "key",
          "type": "string"
        },
        {
          "indexed": false,
          "internalType": "string",
          "name": "value",
          "type": "string"
        }
      ],
      "name": "SetEvent",
      "type": "event"
    },
    {
      "inputs": [],
      "name": "DEFAULT_ADMIN_ROLE",
      "outputs": [
        {
          "internalType": "bytes32",
          "name": "",
          "type": "bytes32"
        }
      ],
      "stateMutability": "view",
      "type": "function"
    },
    {
      "inputs": [],
      "name": "admin",
      "outputs": [
        {
          "internalType": "address",
          "name": "",
          "type": "address"
        }
      ],
      "stateMutability": "view",
      "type": "function"
    },
    {
      "inputs": [
        {
          "internalType": "string",
          "name": "key",
          "type": "string"
        }
      ],
      "name": "get",
      "outputs": [
        {
          "internalType": "string",
          "name": "",
          "type": "string"
        }
      ],
      "stateMutability": "view",
      "type": "function"
    },
    {
      "inputs": [
        {
          "internalType": "string",
          "name": "key",
          "type": "string"
        }
      ],
      "name": "getAddress",
      "outputs": [
        {
          "internalType": "address",
          "name": "",
          "type": "address"
        }
      ],
      "stateMutability": "view",
      "type": "function"
    },
    {
      "inputs": [
        {
          "internalType": "string",
          "name": "key",
          "type": "string"
        }
      ],
      "name": "getInt",
      "outputs": [
        {
          "internalType": "int256",
          "name": "",
          "type": "int256"
        }
      ],
      "stateMutability": "view",
      "type": "function"
    },
    {
      "inputs": [
        {
          "internalType": "bytes32",
          "name": "role",
          "type": "bytes32"
        }
      ],
      "name": "getRoleAdmin",
      "outputs": [
        {
          "internalType": "bytes32",
          "name": "",
          "type": "bytes32"
        }
      ],
      "stateMutability": "view",
      "type": "function"
    },
    {
      "inputs": [
        {
          "internalType": "string",
          "name": "key",
          "type": "string"
        }
      ],
      "name": "getUInt256",
      "outputs": [
        {
          "internalType": "uint256",
          "name": "",
          "type": "uint256"
        }
      ],
      "stateMutability": "view",
      "type": "function"
    },
    {
      "inputs": [
        {
          "internalType": "bytes32",
          "name": "role",
          "type": "bytes32"
        },
        {
          "internalType": "address",
          "name": "account",
          "type": "address"
        }
      ],
      "name": "grantRole",
      "outputs": [],
      "stateMutability": "nonpayable",
      "type": "function"
    },
    {
      "inputs": [
        {
          "internalType": "bytes32",
          "name": "role",
          "type": "bytes32"
        },
        {
          "internalType": "address",
          "name": "account",
          "type": "address"
        }
      ],
      "name": "hasRole",
      "outputs": [
        {
          "internalType": "bool",
          "name": "",
          "type": "bool"
        }
      ],
      "stateMutability": "view",
      "type": "function"
    },
    {
      "inputs": [
        {
          "internalType": "bytes32",
          "name": "role",
          "type": "bytes32"
        },
        {
          "internalType": "address",
          "name": "account",
          "type": "address"
        }
      ],
      "name": "renounceRole",
      "outputs": [],
      "stateMutability": "nonpayable",
      "type": "function"
    },
    {
      "inputs": [
        {
          "internalType": "bytes32",
          "name": "role",
          "type": "bytes32"
        },
        {
          "internalType": "address",
          "name": "account",
          "type": "address"
        }
      ],
      "name": "revokeRole",
      "outputs": [],
      "stateMutability": "nonpayable",
      "type": "function"
    },
    {
      "inputs": [
        {
          "internalType": "string",
          "name": "key",
          "type": "string"
        },
        {
          "internalType": "string",
          "name": "value",
          "type": "string"
        }
      ],
      "name": "set",
      "outputs": [],
      "stateMutability": "nonpayable",
      "type": "function"
    },
    {
      "inputs": [
        {
          "internalType": "string",
          "name": "key",
          "type": "string"
        },
        {
          "internalType": "address",
          "name": "value",
          "type": "address"
        }
      ],
      "name": "setAddress",
      "outputs": [],
      "stateMutability": "nonpayable",
      "type": "function"
    },
    {
      "inputs": [
        {
          "internalType": "string",
          "name": "key",
          "type": "string"
        },
        {
          "internalType": "int256",
          "name": "value",
          "type": "int256"
        }
      ],
      "name": "setInt",
      "outputs": [],
      "stateMutability": "nonpayable",
      "type": "function"
    },
    {
      "inputs": [
        {
          "internalType": "string",
          "name": "key",
          "type": "string"
        },
        {
          "internalType": "uint256",
          "name": "value",
          "type": "uint256"
        }
      ],
      "name": "setUInt256",
      "outputs": [],
      "stateMutability": "nonpayable",
      "type": "function"
    },
    {
      "inputs": [
        {
          "internalType": "bytes4",
          "name": "interfaceId",
          "type": "bytes4"
        }
      ],
      "name": "supportsInterface",
      "outputs": [
        {
          "internalType": "bool",
          "name": "",
          "type": "bool"
        }
      ],
      "stateMutability": "view",
      "type": "function"
    },
    {
      "inputs": [
        {
          "internalType": "address",
          "name": "admin_",
          "type": "address"
        }
      ],
      "name": "updateAdmin",
      "outputs": [],
      "stateMutability": "nonpayable",
      "type": "function"
    }
  ],
  "bytecode": "0x60806040523480156200001157600080fd5b506040516200128638038062001286833981016040819052620000349162000165565b60408051808201909152600381526203130360ec1b60208201526001600160a01b038216620000815760405162461bcd60e51b815260040162000078919062000197565b60405180910390fd5b50600180546001600160a01b0319166001600160a01b038316908117909155620000ae90600090620000b5565b50620001ef565b620000c18282620000c5565b5050565b6000828152602081815260408083206001600160a01b038516845290915290205460ff16620000c1576000828152602081815260408083206001600160a01b03851684529091529020805460ff19166001179055620001213390565b6001600160a01b0316816001600160a01b0316837f2f8788117e7eff1d82e926ec794901d17c78024a50270940304540a733656f0d60405160405180910390a45050565b6000602082840312156200017857600080fd5b81516001600160a01b03811681146200019057600080fd5b9392505050565b600060208083528351808285015260005b81811015620001c657858101830151858201604001528201620001a8565b81811115620001d9576000604083870101525b50601f01601f1916929092016040019392505050565b61108780620001ff6000396000f3fe608060405234801561001057600080fd5b506004361061010b5760003560e01c80639b2ea4bd116100a2578063d547741f11610071578063d547741f14610243578063e2f273bd14610256578063e942b51614610269578063f851a4401461027c578063fda69fae1461028f57600080fd5b80639b2ea4bd146101ea578063a217fddf146101fd578063bf40fac114610205578063c2c5b9f11461023057600080fd5b80634a4fe0db116100de5780634a4fe0db14610191578063693ec85e146101a45780636d12dce1146101c457806391d14854146101d757600080fd5b806301ffc9a714610110578063248a9ca3146101385780632f2ff15d1461016957806336568abe1461017e575b600080fd5b61012361011e366004610bfa565b6102a2565b60405190151581526020015b60405180910390f35b61015b610146366004610c24565b60009081526020819052604090206001015490565b60405190815260200161012f565b61017c610177366004610c59565b6102d9565b005b61017c61018c366004610c59565b610303565b61017c61019f366004610d28565b610386565b6101b76101b2366004610d6d565b610406565b60405161012f9190610e06565b61015b6101d2366004610d6d565b6104b6565b6101236101e5366004610c59565b6104de565b61017c6101f8366004610e19565b610507565b61015b600081565b610218610213366004610d6d565b6105a6565b6040516001600160a01b03909116815260200161012f565b61017c61023e366004610d28565b6105d7565b61017c610251366004610c59565b610643565b61017c610264366004610e5e565b610668565b61017c610277366004610e79565b610789565b600154610218906001600160a01b031681565b61015b61029d366004610d6d565b610848565b60006001600160e01b03198216637965db0b60e01b14806102d357506301ffc9a760e01b6001600160e01b03198316145b92915050565b6000828152602081905260409020600101546102f48161085a565b6102fe8383610867565b505050565b6001600160a01b03811633146103785760405162461bcd60e51b815260206004820152602f60248201527f416363657373436f6e74726f6c3a2063616e206f6e6c792072656e6f756e636560448201526e103937b632b9903337b91039b2b63360891b60648201526084015b60405180910390fd5b61038282826108eb565b5050565b6001546001600160a01b0316331480156103a657506103a66000336104de565b6040518060400160405280600381526020016231303160e81b815250906103e05760405162461bcd60e51b815260040161036f9190610e06565b50806004836040516103f29190610edd565b908152604051908190036020019020555050565b60606002826040516104189190610edd565b9081526020016040518091039020805461043190610ef9565b80601f016020809104026020016040519081016040528092919081815260200182805461045d90610ef9565b80156104aa5780601f1061047f576101008083540402835291602001916104aa565b820191906000526020600020905b81548152906001019060200180831161048d57829003601f168201915b50505050509050919050565b60006004826040516104c89190610edd565b9081526020016040518091039020549050919050565b6000918252602082815260408084206001600160a01b0393909316845291905290205460ff1690565b6001546001600160a01b03163314801561052757506105276000336104de565b6040518060400160405280600381526020016231303160e81b815250906105615760405162461bcd60e51b815260040161036f9190610e06565b50806005836040516105739190610edd565b90815260405190819003602001902080546001600160a01b03929092166001600160a01b03199092169190911790555050565b60006005826040516105b89190610edd565b908152604051908190036020019020546001600160a01b031692915050565b6001546001600160a01b0316331480156105f757506105f76000336104de565b6040518060400160405280600381526020016231303160e81b815250906106315760405162461bcd60e51b815260040161036f9190610e06565b50806003836040516103f29190610edd565b60008281526020819052604090206001015461065e8161085a565b6102fe83836108eb565b6001546001600160a01b03163314801561068857506106886000336104de565b6040518060400160405280600381526020016231303160e81b815250906106c25760405162461bcd60e51b815260040161036f9190610e06565b5060408051808201909152600381526203130360ec1b60208201526001600160a01b0382166107045760405162461bcd60e51b815260040161036f9190610e06565b50600180546001600160a01b038381166001600160a01b031983168117909355169061073290600090610950565b61073d6000826108eb565b600154604080516001600160a01b03808516825290921660208301527f7e644d79422f17c01e4894b5f4f588d331ebfa28653d42ae832dc59e38c9798f91015b60405180910390a15050565b6001546001600160a01b0316331480156107a957506107a96000336104de565b6040518060400160405280600381526020016231303160e81b815250906107e35760405162461bcd60e51b815260040161036f9190610e06565b50806002836040516107f59190610edd565b90815260200160405180910390209080519060200190610816929190610b61565b507f8c9a5175c563a8f3b2a18163077ed9533438dfb7b8f52dd83bdbe5a5bd314cb1828260405161077d929190610f34565b60006003826040516104c89190610edd565b610864813361095a565b50565b61087182826104de565b610382576000828152602081815260408083206001600160a01b03851684529091529020805460ff191660011790556108a73390565b6001600160a01b0316816001600160a01b0316837f2f8788117e7eff1d82e926ec794901d17c78024a50270940304540a733656f0d60405160405180910390a45050565b6108f582826104de565b15610382576000828152602081815260408083206001600160a01b0385168085529252808320805460ff1916905551339285917ff6391f5c32d9c69d2a47ea670b442974b53935d1edc7fd64eb21e047a839171b9190a45050565b6103828282610867565b61096482826104de565b6103825761097c816001600160a01b031660146109be565b6109878360206109be565b604051602001610998929190610f62565b60408051601f198184030181529082905262461bcd60e51b825261036f91600401610e06565b606060006109cd836002610fed565b6109d890600261100c565b67ffffffffffffffff8111156109f0576109f0610c85565b6040519080825280601f01601f191660200182016040528015610a1a576020820181803683370190505b509050600360fc1b81600081518110610a3557610a35611024565b60200101906001600160f81b031916908160001a905350600f60fb1b81600181518110610a6457610a64611024565b60200101906001600160f81b031916908160001a9053506000610a88846002610fed565b610a9390600161100c565b90505b6001811115610b0b576f181899199a1a9b1b9c1cb0b131b232b360811b85600f1660108110610ac757610ac7611024565b1a60f81b828281518110610add57610add611024565b60200101906001600160f81b031916908160001a90535060049490941c93610b048161103a565b9050610a96565b508315610b5a5760405162461bcd60e51b815260206004820181905260248201527f537472696e67733a20686578206c656e67746820696e73756666696369656e74604482015260640161036f565b9392505050565b828054610b6d90610ef9565b90600052602060002090601f016020900481019282610b8f5760008555610bd5565b82601f10610ba857805160ff1916838001178555610bd5565b82800160010185558215610bd5579182015b82811115610bd5578251825591602001919060010190610bba565b50610be1929150610be5565b5090565b5b80821115610be15760008155600101610be6565b600060208284031215610c0c57600080fd5b81356001600160e01b031981168114610b5a57600080fd5b600060208284031215610c3657600080fd5b5035919050565b80356001600160a01b0381168114610c5457600080fd5b919050565b60008060408385031215610c6c57600080fd5b82359150610c7c60208401610c3d565b90509250929050565b634e487b7160e01b600052604160045260246000fd5b600082601f830112610cac57600080fd5b813567ffffffffffffffff80821115610cc757610cc7610c85565b604051601f8301601f19908116603f01168101908282118183101715610cef57610cef610c85565b81604052838152866020858801011115610d0857600080fd5b836020870160208301376000602085830101528094505050505092915050565b60008060408385031215610d3b57600080fd5b823567ffffffffffffffff811115610d5257600080fd5b610d5e85828601610c9b565b95602094909401359450505050565b600060208284031215610d7f57600080fd5b813567ffffffffffffffff811115610d9657600080fd5b610da284828501610c9b565b949350505050565b60005b83811015610dc5578181015183820152602001610dad565b83811115610dd4576000848401525b50505050565b60008151808452610df2816020860160208601610daa565b601f01601f19169290920160200192915050565b602081526000610b5a6020830184610dda565b60008060408385031215610e2c57600080fd5b823567ffffffffffffffff811115610e4357600080fd5b610e4f85828601610c9b565b925050610c7c60208401610c3d565b600060208284031215610e7057600080fd5b610b5a82610c3d565b60008060408385031215610e8c57600080fd5b823567ffffffffffffffff80821115610ea457600080fd5b610eb086838701610c9b565b93506020850135915080821115610ec657600080fd5b50610ed385828601610c9b565b9150509250929050565b60008251610eef818460208701610daa565b9190910192915050565b600181811c90821680610f0d57607f821691505b60208210811415610f2e57634e487b7160e01b600052602260045260246000fd5b50919050565b604081526000610f476040830185610dda565b8281036020840152610f598185610dda565b95945050505050565b7f416363657373436f6e74726f6c3a206163636f756e7420000000000000000000815260008351610f9a816017850160208801610daa565b7001034b99036b4b9b9b4b733903937b6329607d1b6017918401918201528351610fcb816028840160208801610daa565b01602801949350505050565b634e487b7160e01b600052601160045260246000fd5b600081600019048311821515161561100757611007610fd7565b500290565b6000821982111561101f5761101f610fd7565b500190565b634e487b7160e01b600052603260045260246000fd5b60008161104957611049610fd7565b50600019019056fea2646970667358221220d7764c82bcdcabcec1cbc89b50bb14b1e247fa1c512cadb14d771235ad37bc0264736f6c634300080c0033",
  "linkReferences": {},
  "deployedLinkReferences": {}
}