{
  "_format": "hh-sol-artifact-1",
  "contractName": "AVATARS",
  "sourceName": "contracts/nft/AVATARS.sol",
  "abi": [
    {
      "anonymous": false,
      "inputs": [
        {
          "indexed": true,
          "internalType": "address",
          "name": "owner",
          "type": "address"
        },
        {
          "indexed": true,
          "internalType": "address",
          "name": "approved",
          "type": "address"
        },
        {
          "indexed": true,
          "internalType": "uint256",
          "name": "tokenId",
          "type": "uint256"
        }
      ],
      "name": "Approval",
      "type": "event"
    },
    {
      "anonymous": false,
      "inputs": [
        {
          "indexed": true,
          "internalType": "address",
          "name": "owner",
          "type": "address"
        },
        {
          "indexed": true,
          "internalType": "address",
          "name": "operator",
          "type": "address"
        },
        {
          "indexed": false,
          "internalType": "bool",
          "name": "approved",
          "type": "bool"
        }
      ],
      "name": "ApprovalForAll",
      "type": "event"
    },
    {
      "anonymous": false,
      "inputs": [
        {
          "indexed": false,
          "internalType": "uint8",
          "name": "version",
          "type": "uint8"
        }
      ],
      "name": "Initialized",
      "type": "event"
    },
    {
      "anonymous": false,
      "inputs": [
        {
          "indexed": true,
          "internalType": "address",
          "name": "previousOwner",
          "type": "address"
        },
        {
          "indexed": true,
          "internalType": "address",
          "name": "newOwner",
          "type": "address"
        }
      ],
      "name": "OwnershipTransferred",
      "type": "event"
    },
    {
      "anonymous": false,
      "inputs": [
        {
          "indexed": false,
          "internalType": "address",
          "name": "account",
          "type": "address"
        }
      ],
      "name": "Paused",
      "type": "event"
    },
    {
      "anonymous": false,
      "inputs": [
        {
          "indexed": true,
          "internalType": "bytes32",
          "name": "requestId",
          "type": "bytes32"
        },
        {
          "indexed": true,
          "internalType": "bytes",
          "name": "data",
          "type": "bytes"
        }
      ],
      "name": "RequestFulfilledData",
      "type": "event"
    },
    {
      "anonymous": false,
      "inputs": [
        {
          "indexed": true,
          "internalType": "address",
          "name": "from",
          "type": "address"
        },
        {
          "indexed": true,
          "internalType": "address",
          "name": "to",
          "type": "address"
        },
        {
          "indexed": true,
          "internalType": "uint256",
          "name": "tokenId",
          "type": "uint256"
        }
      ],
      "name": "Transfer",
      "type": "event"
    },
    {
      "anonymous": false,
      "inputs": [
        {
          "indexed": false,
          "internalType": "address",
          "name": "account",
          "type": "address"
        }
      ],
      "name": "Unpaused",
      "type": "event"
    },
    {
      "inputs": [],
      "name": "_admin",
      "outputs": [
        {
          "internalType": "address",
          "name": "",
          "type": "address"
        }
      ],
      "stateMutability": "view",
      "type": "function"
    },
    {
      "inputs": [],
      "name": "_algorithm",
      "outputs": [
        {
          "internalType": "string",
          "name": "",
          "type": "string"
        }
      ],
      "stateMutability": "view",
      "type": "function"
    },
    {
      "inputs": [],
      "name": "_counter",
      "outputs": [
        {
          "internalType": "uint256",
          "name": "",
          "type": "uint256"
        }
      ],
      "stateMutability": "view",
      "type": "function"
    },
    {
      "inputs": [],
      "name": "_fee",
      "outputs": [
        {
          "internalType": "uint256",
          "name": "",
          "type": "uint256"
        }
      ],
      "stateMutability": "view",
      "type": "function"
    },
    {
      "inputs": [],
      "name": "_oracle",
      "outputs": [
        {
          "internalType": "address",
          "name": "",
          "type": "address"
        }
      ],
      "stateMutability": "view",
      "type": "function"
    },
    {
      "inputs": [],
      "name": "_paramsAddress",
      "outputs": [
        {
          "internalType": "address",
          "name": "",
          "type": "address"
        }
      ],
      "stateMutability": "view",
      "type": "function"
    },
    {
      "inputs": [
        {
          "internalType": "bytes32",
          "name": "",
          "type": "bytes32"
        }
      ],
      "name": "_requestIdData",
      "outputs": [
        {
          "internalType": "bytes",
          "name": "",
          "type": "bytes"
        }
      ],
      "stateMutability": "view",
      "type": "function"
    },
    {
      "inputs": [],
      "name": "_tokenAddrErc721",
      "outputs": [
        {
          "internalType": "address",
          "name": "",
          "type": "address"
        }
      ],
      "stateMutability": "view",
      "type": "function"
    },
    {
      "inputs": [],
      "name": "_uri",
      "outputs": [
        {
          "internalType": "string",
          "name": "",
          "type": "string"
        }
      ],
      "stateMutability": "view",
      "type": "function"
    },
    {
      "inputs": [],
      "name": "_whitelistFee",
      "outputs": [
        {
          "internalType": "uint256",
          "name": "",
          "type": "uint256"
        }
      ],
      "stateMutability": "view",
      "type": "function"
    },
    {
      "inputs": [
        {
          "internalType": "address",
          "name": "to",
          "type": "address"
        },
        {
          "internalType": "uint256",
          "name": "tokenId",
          "type": "uint256"
        }
      ],
      "name": "approve",
      "outputs": [],
      "stateMutability": "nonpayable",
      "type": "function"
    },
    {
      "inputs": [
        {
          "internalType": "address",
          "name": "owner",
          "type": "address"
        }
      ],
      "name": "balanceOf",
      "outputs": [
        {
          "internalType": "uint256",
          "name": "",
          "type": "uint256"
        }
      ],
      "stateMutability": "view",
      "type": "function"
    },
    {
      "inputs": [
        {
          "internalType": "address",
          "name": "newAdm",
          "type": "address"
        }
      ],
      "name": "changeAdmin",
      "outputs": [],
      "stateMutability": "nonpayable",
      "type": "function"
    },
    {
      "inputs": [
        {
          "internalType": "string",
          "name": "baseURI",
          "type": "string"
        }
      ],
      "name": "changeBaseURI",
      "outputs": [],
      "stateMutability": "nonpayable",
      "type": "function"
    },
    {
      "inputs": [
        {
          "internalType": "address",
          "name": "oracle",
          "type": "address"
        }
      ],
      "name": "changeOracle",
      "outputs": [],
      "stateMutability": "nonpayable",
      "type": "function"
    },
    {
      "inputs": [
        {
          "internalType": "address",
          "name": "sweet",
          "type": "address"
        }
      ],
      "name": "changeToken",
      "outputs": [],
      "stateMutability": "nonpayable",
      "type": "function"
    },
    {
      "inputs": [
        {
          "internalType": "bytes32",
          "name": "requestId",
          "type": "bytes32"
        },
        {
          "internalType": "bytes",
          "name": "gameData",
          "type": "bytes"
        }
      ],
      "name": "fulfill",
      "outputs": [],
      "stateMutability": "nonpayable",
      "type": "function"
    },
    {
      "inputs": [
        {
          "internalType": "uint256",
          "name": "tokenId",
          "type": "uint256"
        }
      ],
      "name": "getApproved",
      "outputs": [
        {
          "internalType": "address",
          "name": "",
          "type": "address"
        }
      ],
      "stateMutability": "view",
      "type": "function"
    },
    {
      "inputs": [
        {
          "internalType": "uint256",
          "name": "tokenId",
          "type": "uint256"
        }
      ],
      "name": "getParamValues",
      "outputs": [
        {
          "components": [
            {
              "internalType": "string",
              "name": "_emotion",
              "type": "string"
            },
            {
              "internalType": "string",
              "name": "_emotionTime",
              "type": "string"
            },
            {
              "internalType": "string",
              "name": "_nation",
              "type": "string"
            },
            {
              "internalType": "string",
              "name": "_dna",
              "type": "string"
            },
            {
              "internalType": "string",
              "name": "_beard",
              "type": "string"
            },
            {
              "internalType": "string",
              "name": "_hair",
              "type": "string"
            },
            {
              "internalType": "string",
              "name": "_undershirt",
              "type": "string"
            },
            {
              "internalType": "string",
              "name": "_shoes",
              "type": "string"
            },
            {
              "internalType": "string",
              "name": "_top",
              "type": "string"
            },
            {
              "internalType": "string",
              "name": "_bottom",
              "type": "string"
            },
            {
              "internalType": "uint256",
              "name": "_number",
              "type": "uint256"
            },
            {
              "internalType": "string",
              "name": "_tatoo",
              "type": "string"
            },
            {
              "internalType": "string",
              "name": "_glasses",
              "type": "string"
            },
            {
              "internalType": "string",
              "name": "_captain",
              "type": "string"
            },
            {
              "internalType": "string",
              "name": "_facePaint",
              "type": "string"
            }
          ],
          "internalType": "struct AVATARS.Player",
          "name": "player",
          "type": "tuple"
        }
      ],
      "stateMutability": "view",
      "type": "function"
    },
    {
      "inputs": [
        {
          "internalType": "string",
          "name": "name",
          "type": "string"
        },
        {
          "internalType": "string",
          "name": "symbol",
          "type": "string"
        },
        {
          "internalType": "address",
          "name": "admin",
          "type": "address"
        },
        {
          "internalType": "address",
          "name": "paramsAddress",
          "type": "address"
        }
      ],
      "name": "initialize",
      "outputs": [],
      "stateMutability": "nonpayable",
      "type": "function"
    },
    {
      "inputs": [
        {
          "internalType": "address",
          "name": "owner",
          "type": "address"
        },
        {
          "internalType": "address",
          "name": "operator",
          "type": "address"
        }
      ],
      "name": "isApprovedForAll",
      "outputs": [
        {
          "internalType": "bool",
          "name": "",
          "type": "bool"
        }
      ],
      "stateMutability": "view",
      "type": "function"
    },
    {
      "inputs": [],
      "name": "mint",
      "outputs": [],
      "stateMutability": "payable",
      "type": "function"
    },
    {
      "inputs": [
        {
          "internalType": "uint256",
          "name": "tokenIdGated",
          "type": "uint256"
        }
      ],
      "name": "mintByToken",
      "outputs": [],
      "stateMutability": "nonpayable",
      "type": "function"
    },
    {
      "inputs": [],
      "name": "mintWhitelist",
      "outputs": [],
      "stateMutability": "payable",
      "type": "function"
    },
    {
      "inputs": [],
      "name": "name",
      "outputs": [
        {
          "internalType": "string",
          "name": "",
          "type": "string"
        }
      ],
      "stateMutability": "view",
      "type": "function"
    },
    {
      "inputs": [],
      "name": "owner",
      "outputs": [
        {
          "internalType": "address",
          "name": "",
          "type": "address"
        }
      ],
      "stateMutability": "view",
      "type": "function"
    },
    {
      "inputs": [
        {
          "internalType": "uint256",
          "name": "id",
          "type": "uint256"
        }
      ],
      "name": "ownerMint",
      "outputs": [],
      "stateMutability": "nonpayable",
      "type": "function"
    },
    {
      "inputs": [
        {
          "internalType": "uint256",
          "name": "tokenId",
          "type": "uint256"
        }
      ],
      "name": "ownerOf",
      "outputs": [
        {
          "internalType": "address",
          "name": "",
          "type": "address"
        }
      ],
      "stateMutability": "view",
      "type": "function"
    },
    {
      "inputs": [],
      "name": "pause",
      "outputs": [],
      "stateMutability": "nonpayable",
      "type": "function"
    },
    {
      "inputs": [],
      "name": "paused",
      "outputs": [
        {
          "internalType": "bool",
          "name": "",
          "type": "bool"
        }
      ],
      "stateMutability": "view",
      "type": "function"
    },
    {
      "inputs": [],
      "name": "renounceOwnership",
      "outputs": [],
      "stateMutability": "nonpayable",
      "type": "function"
    },
    {
      "inputs": [
        {
          "internalType": "uint256",
          "name": "_tokenId",
          "type": "uint256"
        },
        {
          "internalType": "uint256",
          "name": "_salePrice",
          "type": "uint256"
        }
      ],
      "name": "royaltyInfo",
      "outputs": [
        {
          "internalType": "address",
          "name": "receiver",
          "type": "address"
        },
        {
          "internalType": "uint256",
          "name": "royaltyAmount",
          "type": "uint256"
        }
      ],
      "stateMutability": "view",
      "type": "function"
    },
    {
      "inputs": [
        {
          "internalType": "address",
          "name": "from",
          "type": "address"
        },
        {
          "internalType": "address",
          "name": "to",
          "type": "address"
        },
        {
          "internalType": "uint256",
          "name": "tokenId",
          "type": "uint256"
        }
      ],
      "name": "safeTransferFrom",
      "outputs": [],
      "stateMutability": "nonpayable",
      "type": "function"
    },
    {
      "inputs": [
        {
          "internalType": "address",
          "name": "from",
          "type": "address"
        },
        {
          "internalType": "address",
          "name": "to",
          "type": "address"
        },
        {
          "internalType": "uint256",
          "name": "tokenId",
          "type": "uint256"
        },
        {
          "internalType": "bytes",
          "name": "data",
          "type": "bytes"
        }
      ],
      "name": "safeTransferFrom",
      "outputs": [],
      "stateMutability": "nonpayable",
      "type": "function"
    },
    {
      "inputs": [
        {
          "internalType": "string",
          "name": "algo",
          "type": "string"
        }
      ],
      "name": "setAlgo",
      "outputs": [],
      "stateMutability": "nonpayable",
      "type": "function"
    },
    {
      "inputs": [
        {
          "internalType": "address",
          "name": "operator",
          "type": "address"
        },
        {
          "internalType": "bool",
          "name": "approved",
          "type": "bool"
        }
      ],
      "name": "setApprovalForAll",
      "outputs": [],
      "stateMutability": "nonpayable",
      "type": "function"
    },
    {
      "inputs": [
        {
          "internalType": "uint256",
          "name": "fee",
          "type": "uint256"
        }
      ],
      "name": "setFee",
      "outputs": [],
      "stateMutability": "nonpayable",
      "type": "function"
    },
    {
      "inputs": [
        {
          "internalType": "uint256",
          "name": "whitelistFee",
          "type": "uint256"
        }
      ],
      "name": "setWhitelistFee",
      "outputs": [],
      "stateMutability": "nonpayable",
      "type": "function"
    },
    {
      "inputs": [
        {
          "internalType": "bytes4",
          "name": "interfaceId",
          "type": "bytes4"
        }
      ],
      "name": "supportsInterface",
      "outputs": [
        {
          "internalType": "bool",
          "name": "",
          "type": "bool"
        }
      ],
      "stateMutability": "view",
      "type": "function"
    },
    {
      "inputs": [],
      "name": "symbol",
      "outputs": [
        {
          "internalType": "string",
          "name": "",
          "type": "string"
        }
      ],
      "stateMutability": "view",
      "type": "function"
    },
    {
      "inputs": [
        {
          "internalType": "uint256",
          "name": "tokenId",
          "type": "uint256"
        }
      ],
      "name": "tokenURI",
      "outputs": [
        {
          "internalType": "string",
          "name": "",
          "type": "string"
        }
      ],
      "stateMutability": "view",
      "type": "function"
    },
    {
      "inputs": [
        {
          "internalType": "address",
          "name": "from",
          "type": "address"
        },
        {
          "internalType": "address",
          "name": "to",
          "type": "address"
        },
        {
          "internalType": "uint256",
          "name": "tokenId",
          "type": "uint256"
        }
      ],
      "name": "transferFrom",
      "outputs": [],
      "stateMutability": "nonpayable",
      "type": "function"
    },
    {
      "inputs": [
        {
          "internalType": "address",
          "name": "newOwner",
          "type": "address"
        }
      ],
      "name": "transferOwnership",
      "outputs": [],
      "stateMutability": "nonpayable",
      "type": "function"
    },
    {
      "inputs": [],
      "name": "unpause",
      "outputs": [],
      "stateMutability": "nonpayable",
      "type": "function"
    },
    {
      "inputs": [
        {
          "internalType": "uint256",
          "name": "amount",
          "type": "uint256"
        }
      ],
      "name": "withdraw",
      "outputs": [],
      "stateMutability": "nonpayable",
      "type": "function"
    }
  ],
  "bytecode": "0x608060405234801561001057600080fd5b506147e8806100206000396000f3fe6080604052600436106102725760003560e01c806370a082311161014f578063a22cb465116100c1578063c87b56dd1161007a578063c87b56dd1461072f578063d59783141461074f578063e653c6501461076f578063e985e9c514610790578063f19e75d4146107b0578063f2fde38b146107d057600080fd5b8063a22cb4651461066a578063adfc7dae1461068a578063b88d4fde146106ab578063c0dca239146106cb578063c5b37c22146106f8578063c6283c381461070f57600080fd5b80638456cb59116101135780638456cb59146105cc5780638da5cb5b146105e15780638f15b414146106005780638f2839701461062057806395d89b4114610640578063a1bb1fcc1461065557600080fd5b806370a0823114610540578063715018a6146105605780637c1de7e1146105755780637cd49fde1461059557806380d953dd146105ac57600080fd5b80632d3df31f116101e857806347c421b5116101ac57806347c421b5146104835780635275f37a146104a35780635c975abb146104c85780636352211e146104e057806366829b161461050057806369fe0e2d1461052057600080fd5b80632d3df31f146104065780632e1a7d4d1461040e57806339a0c6f91461042e5780633f4ba83a1461044e57806342842e0e1461046357600080fd5b8063095ea7b31161023a578063095ea7b3146103495780630dccc9ad146103695780631249c58b1461037e57806323b872dd14610386578063247ac063146103a65780632a55205a146103c757600080fd5b806301bc45c91461027757806301ffc9a7146102b557806306fdde03146102e55780630764da1d14610307578063081812fc14610329575b600080fd5b34801561028357600080fd5b5061015f54610298906001600160a01b031681565b6040516001600160a01b0390911681526020015b60405180910390f35b3480156102c157600080fd5b506102d56102d0366004613e16565b6107f0565b60405190151581526020016102ac565b3480156102f157600080fd5b506102fa610842565b6040516102ac9190613e8b565b34801561031357600080fd5b50610327610322366004613f63565b6108d4565b005b34801561033557600080fd5b50610298610344366004613f98565b61093d565b34801561035557600080fd5b50610327610364366004613fcd565b610964565b34801561037557600080fd5b506102fa610a7a565b610327610b09565b34801561039257600080fd5b506103276103a1366004613ff7565b610b90565b3480156103b257600080fd5b5061016154610298906001600160a01b031681565b3480156103d357600080fd5b506103e76103e2366004614033565b610bc1565b604080516001600160a01b0390931683526020830191909152016102ac565b610327610bf2565b34801561041a57600080fd5b50610327610429366004613f98565b610c41565b34801561043a57600080fd5b50610327610449366004613f63565b610d3f565b34801561045a57600080fd5b50610327610d9b565b34801561046f57600080fd5b5061032761047e366004613ff7565b610deb565b34801561048f57600080fd5b5061032761049e366004614055565b610e06565b3480156104af57600080fd5b506104ba6101695481565b6040519081526020016102ac565b3480156104d457600080fd5b5060975460ff166102d5565b3480156104ec57600080fd5b506102986104fb366004613f98565b610eb3565b34801561050c57600080fd5b5061032761051b366004614055565b610f13565b34801561052c57600080fd5b5061032761053b366004613f98565b610f7e565b34801561054c57600080fd5b506104ba61055b366004614055565b610fcc565b34801561056c57600080fd5b50610327611052565b34801561058157600080fd5b50610327610590366004614070565b611064565b3480156105a157600080fd5b506104ba6101645481565b3480156105b857600080fd5b506103276105c7366004613f98565b6113c3565b3480156105d857600080fd5b5061032761151b565b3480156105ed57600080fd5b5061012d546001600160a01b0316610298565b34801561060c57600080fd5b5061032761061b3660046140b7565b61156b565b34801561062c57600080fd5b5061032761063b366004614055565b61170f565b34801561064c57600080fd5b506102fa6117ab565b34801561066157600080fd5b506102fa6117ba565b34801561067657600080fd5b5061032761068536600461413c565b6117c8565b34801561069657600080fd5b5061016054610298906001600160a01b031681565b3480156106b757600080fd5b506103276106c6366004614178565b6117d3565b3480156106d757600080fd5b506106eb6106e6366004613f98565b61180b565b6040516102ac91906141e0565b34801561070457600080fd5b506104ba6101675481565b34801561071b57600080fd5b5061032761072a366004613f98565b611b00565b34801561073b57600080fd5b506102fa61074a366004613f98565b611b4e565b34801561075b57600080fd5b506102fa61076a366004613f98565b611bb5565b34801561077b57600080fd5b5061016654610298906001600160a01b031681565b34801561079c57600080fd5b506102d56107ab36600461439d565b611bcf565b3480156107bc57600080fd5b506103276107cb366004613f98565b611bfd565b3480156107dc57600080fd5b506103276107eb366004614055565b611c6e565b60006001600160e01b031982166380ac58cd60e01b148061082157506001600160e01b03198216635b5e139f60e01b145b8061083c57506301ffc9a760e01b6001600160e01b03198316145b92915050565b606060658054610851906143c7565b80601f016020809104026020016040519081016040528092919081815260200182805461087d906143c7565b80156108ca5780601f1061089f576101008083540402835291602001916108ca565b820191906000526020600020905b8154815290600101906020018083116108ad57829003601f168201915b5050505050905090565b61015f5460408051808201909152600381526231303160e81b6020820152906001600160a01b031633146109245760405162461bcd60e51b815260040161091b9190613e8b565b60405180910390fd5b50805161093990610163906020840190613d40565b5050565b600061094882611ce4565b506000908152606960205260409020546001600160a01b031690565b600061096f82610eb3565b9050806001600160a01b0316836001600160a01b031614156109dd5760405162461bcd60e51b815260206004820152602160248201527f4552433732313a20617070726f76616c20746f2063757272656e74206f776e656044820152603960f91b606482015260840161091b565b336001600160a01b03821614806109f957506109f98133611bcf565b610a6b5760405162461bcd60e51b815260206004820152603e60248201527f4552433732313a20617070726f76652063616c6c6572206973206e6f7420746f60448201527f6b656e206f776e6572206e6f7220617070726f76656420666f7220616c6c0000606482015260840161091b565b610a758383611d43565b505050565b6101658054610a88906143c7565b80601f0160208091040260200160405190810160405280929190818152602001828054610ab4906143c7565b8015610b015780601f10610ad657610100808354040283529160200191610b01565b820191906000526020600020905b815481529060010190602001808311610ae457829003601f168201915b505050505081565b600061016754118015610b1f5750610167543410155b6040518060400160405280600381526020016232303160e81b81525090610b595760405162461bcd60e51b815260040161091b9190613e8b565b506123286101645410610b6b57600080fd5b6101648054906000610b7c83614418565b9190505550610b8e3361016454611db1565b565b610b9a3382611dcb565b610bb65760405162461bcd60e51b815260040161091b90614433565b610a75838383611e2a565b61015f546001600160a01b03166000612710610bdf846101f4614481565b610be991906144b6565b90509250929050565b600061016954118015610b1f5750610169543410156040518060400160405280600381526020016232303160e81b81525090610b595760405162461bcd60e51b815260040161091b9190613e8b565b600260fb541415610c945760405162461bcd60e51b815260206004820152601f60248201527f5265656e7472616e637947756172643a207265656e7472616e742063616c6c00604482015260640161091b565b600260fb5561015f5460408051808201909152600381526231303160e81b6020820152906001600160a01b03163314610ce05760405162461bcd60e51b815260040161091b9190613e8b565b50604051600090339047908381818185875af1925050503d8060008114610d23576040519150601f19603f3d011682016040523d82523d6000602084013e610d28565b606091505b5050905080610d3657600080fd5b5050600160fb55565b61015f5460408051808201909152600381526231303160e81b6020820152906001600160a01b03163314610d865760405162461bcd60e51b815260040161091b9190613e8b565b50805161093990610165906020840190613d40565b61015f5460408051808201909152600381526231303160e81b6020820152906001600160a01b03163314610de25760405162461bcd60e51b815260040161091b9190613e8b565b50610b8e611fd1565b610a75838383604051806020016040528060008152506117d3565b61015f5460408051808201909152600381526231303160e81b6020820152906001600160a01b03163314610e4d5760405162461bcd60e51b815260040161091b9190613e8b565b5060408051808201909152600381526203130360ec1b60208201526001600160a01b038216610e8f5760405162461bcd60e51b815260040161091b9190613e8b565b5061016180546001600160a01b0319166001600160a01b0392909216919091179055565b6000818152606760205260408120546001600160a01b03168061083c5760405162461bcd60e51b8152602060048201526018602482015277115490cdcc8c4e881a5b9d985b1a59081d1bdad95b88125160421b604482015260640161091b565b61015f5460408051808201909152600381526231303160e81b6020820152906001600160a01b03163314610f5a5760405162461bcd60e51b815260040161091b9190613e8b565b5061016680546001600160a01b0319166001600160a01b0392909216919091179055565b61015f5460408051808201909152600381526231303160e81b6020820152906001600160a01b03163314610fc55760405162461bcd60e51b815260040161091b9190613e8b565b5061016755565b60006001600160a01b0382166110365760405162461bcd60e51b815260206004820152602960248201527f4552433732313a2061646472657373207a65726f206973206e6f7420612076616044820152683634b21037bbb732b960b91b606482015260840161091b565b506001600160a01b031660009081526068602052604090205490565b61105a612023565b610b8e600061207e565b6101615460408051808201909152600381526203130360ec1b6020820152906001600160a01b031633146110ab5760405162461bcd60e51b815260040161091b9190613e8b565b50806040516110ba91906144ca565b6040519081900381209083907fc6ef1c5f8f954d0251e9620ce4908018f1c31f432eb9b44fd9efb2ca569453f190600090a36000828152610162602052604090208054611106906143c7565b6040805180820190915260038152620c8c0d60ea1b60208201529150156111405760405162461bcd60e51b815260040161091b9190613e8b565b50600082815261016260209081526040909120825161116192840190613d40565b506000806000806000806000878060200190518101906111819190614551565b965096509650965096509650965060006111a18460ff168460ff166120d1565b6040805160a081018252600160608201818152603160f81b6080840152825282518084018452818152601960f91b6020828101919091528084019190915283518085018552828152603360f81b918101919091529282019290925291925082600381111561121157611211614627565b141561129957806002602002015161016a8860405161123091906144ca565b90815260200160405180910390206000019080519060200190611254929190613d40565b508060015b602002015161016a8760405161126f91906144ca565b90815260200160405180910390206000019080519060200190611293929190613d40565b5061136a565b60028260038111156112ad576112ad614627565b14156112f757602081015160405161016a906112ca908a906144ca565b908152602001604051809103902060000190805190602001906112ee929190613d40565b50806002611259565b805160405161016a9061130b908a906144ca565b9081526020016040518091039020600001908051906020019061132f929190613d40565b50805160405161016a906113449089906144ca565b90815260200160405180910390206000019080519060200190611368929190613d40565b505b4261016a8860405161137c91906144ca565b9081526020016040518091039020600101819055504261016a876040516113a391906144ca565b908152604051908190036020019020600101555050505050505050505050565b6101665460408051808201909152600381526203130360ec1b6020820152906001600160a01b03166114085760405162461bcd60e51b815260040161091b9190613e8b565b50612328610164541061141a57600080fd5b610164805490600061142b83614418565b919050555061143d3361016454611db1565b60076114668260405180604001604052806005815260200164736861706560d81b8152506120fc565b6114709190614653565b6040805180820190915260038152620c8c0d60ea1b602082015290156114a95760405162461bcd60e51b815260040161091b9190613e8b565b50610166546040516323b872dd60e01b8152336004820152306024820152604481018390526001600160a01b039091169081906323b872dd90606401600060405180830381600087803b1580156114ff57600080fd5b505af1158015611513573d6000803e3d6000fd5b505050505050565b61015f5460408051808201909152600381526231303160e81b6020820152906001600160a01b031633146115625760405162461bcd60e51b815260040161091b9190613e8b565b50610b8e612138565b600054610100900460ff161580801561158b5750600054600160ff909116105b806115a55750303b1580156115a5575060005460ff166001145b6116085760405162461bcd60e51b815260206004820152602e60248201527f496e697469616c697a61626c653a20636f6e747261637420697320616c72656160448201526d191e481a5b9a5d1a585b1a5e995960921b606482015260840161091b565b6000805460ff19166001179055801561162b576000805461ff0019166101001790555b6001600160a01b0383161580159061164b57506001600160a01b03821615155b6040518060400160405280600381526020016203130360ec1b815250906116855760405162461bcd60e51b815260040161091b9190613e8b565b506116908585612175565b61016080546001600160a01b038085166001600160a01b03199283161790925561015f8054928616929091169190911790558015611708576000805461ff0019169055604051600181527f7f26b83ff96e1f2b6a682f133852f6798a09c465da95921460cefb38474024989060200160405180910390a15b5050505050565b61015f546001600160a01b03163314801561173257506001600160a01b03811615155b801561174d575061015f546001600160a01b03828116911614155b6040518060400160405280600381526020016231303160e81b815250906117875760405162461bcd60e51b815260040161091b9190613e8b565b5061015f80546001600160a01b0319166001600160a01b0392909216919091179055565b606060668054610851906143c7565b6101638054610a88906143c7565b6109393383836121a6565b6117dd3383611dcb565b6117f95760405162461bcd60e51b815260040161091b90614433565b61180584848484612275565b50505050565b611884604051806101e001604052806060815260200160608152602001606081526020016060815260200160608152602001606081526020016060815260200160608152602001606081526020016060815260200160008152602001606081526020016060815260200160608152602001606081525090565b6040805160a081018252600160608201818152603160f81b6080840152825282518084018452818152601960f91b6020828101919091528084019190915283518085018552918252603360f81b908201529181019190915260006118e7846122a8565b90506000806118f58661270f565b91509150600061016a8460405161190c91906144ca565b9081526040519081900360200190208054611926906143c7565b80601f0160208091040260200160405190810160405280929190818152602001828054611952906143c7565b801561199f5780601f106119745761010080835404028352916020019161199f565b820191906000526020600020905b81548152906001019060200180831161198257829003601f168201915b509394506201518093506119c1925086915085905060025b60200201516127db565b156119d8576119d181601e614481565b90506119f7565b6119e4848460016119b7565b156119f7576119f4816007614481565b90505b8061016a86604051611a0991906144ca565b90815260200160405180910390206001015442611a269190614667565b1115611a3157855191505b604051806101e00160405280838152602001858152602001868152602001611a588a612834565b8152602001611a668a6129aa565b8152602001611a748a612a99565b8152602001611a828a612dd7565b8152602001611a908a613097565b8152602001611a9e8a613146565b8152602001611aac8a613282565b8152602001611aba8a61339d565b8152602001611ac88a6134ec565b8152602001611ad68a6135a1565b8152602001611ae48a61368c565b8152602001611af28a61379c565b905298975050505050505050565b61015f5460408051808201909152600381526231303160e81b6020820152906001600160a01b03163314611b475760405162461bcd60e51b815260040161091b9190613e8b565b5061016955565b6060611b5982611ce4565b6000611b63613831565b90506000815111611b835760405180602001604052806000815250611bae565b80611b8d84613841565b604051602001611b9e92919061467e565b6040516020818303038152906040525b9392505050565b6101626020526000908152604090208054610a88906143c7565b6001600160a01b039182166000908152606a6020908152604080832093909416825291909152205460ff1690565b61015f5460408051808201909152600381526231303160e81b6020820152906001600160a01b03163314611c445760405162461bcd60e51b815260040161091b9190613e8b565b5061232881118015611c5857506127108111155b611c6157600080fd5b611c6b3382611db1565b50565b611c76612023565b6001600160a01b038116611cdb5760405162461bcd60e51b815260206004820152602660248201527f4f776e61626c653a206e6577206f776e657220697320746865207a65726f206160448201526564647265737360d01b606482015260840161091b565b611c6b8161207e565b6000818152606760205260409020546001600160a01b0316611c6b5760405162461bcd60e51b8152602060048201526018602482015277115490cdcc8c4e881a5b9d985b1a59081d1bdad95b88125160421b604482015260640161091b565b600081815260696020526040902080546001600160a01b0319166001600160a01b0384169081179091558190611d7882610eb3565b6001600160a01b03167f8c5be1e5ebec7d5bd14f71427d1e84f3dd0314c0f7b2291e5b200ac8c7c3b92560405160405180910390a45050565b61093982826040518060200160405280600081525061393f565b600080611dd783610eb3565b9050806001600160a01b0316846001600160a01b03161480611dfe5750611dfe8185611bcf565b80611e225750836001600160a01b0316611e178461093d565b6001600160a01b0316145b949350505050565b826001600160a01b0316611e3d82610eb3565b6001600160a01b031614611ea15760405162461bcd60e51b815260206004820152602560248201527f4552433732313a207472616e736665722066726f6d20696e636f72726563742060448201526437bbb732b960d91b606482015260840161091b565b6001600160a01b038216611f035760405162461bcd60e51b8152602060048201526024808201527f4552433732313a207472616e7366657220746f20746865207a65726f206164646044820152637265737360e01b606482015260840161091b565b611f0e838383613972565b611f19600082611d43565b6001600160a01b0383166000908152606860205260408120805460019290611f42908490614667565b90915550506001600160a01b0382166000908152606860205260408120805460019290611f709084906146ad565b909155505060008181526067602052604080822080546001600160a01b0319166001600160a01b0386811691821790925591518493918716917fddf252ad1be2c89b69c2b068fc378daa952ba7f163c4a11628f55a4df523b3ef91a4505050565b611fd96139d9565b6097805460ff191690557f5db9ee0a495bf2e6ff9c91a7834c1ba4fdd244a5e8aa4e537bd38aeae4b073aa335b6040516001600160a01b03909116815260200160405180910390a1565b61012d546001600160a01b03163314610b8e5760405162461bcd60e51b815260206004820181905260248201527f4f776e61626c653a2063616c6c6572206973206e6f7420746865206f776e6572604482015260640161091b565b61012d80546001600160a01b038381166001600160a01b0319831681179093556040519116919082907f8be0079c531659141344cd1fd0a4f28419497f9722a3daafe3b4186f6b6457e090600090a35050565b6000818311156120e35750600161083c565b818314156120f35750600361083c565b50600292915050565b60008161210884613841565b60405160200161211992919061467e565b60408051601f1981840301815291905280516020909101209392505050565b612140613a22565b6097805460ff191660011790557f62e78cea01bee320cd4e420270b5ea74000d11b0c9f74754ebdbfc544b05a2586120063390565b600054610100900460ff1661219c5760405162461bcd60e51b815260040161091b906146c5565b6109398282613a68565b816001600160a01b0316836001600160a01b031614156122085760405162461bcd60e51b815260206004820152601960248201527f4552433732313a20617070726f766520746f2063616c6c657200000000000000604482015260640161091b565b6001600160a01b038381166000818152606a6020908152604080832094871680845294825291829020805460ff191686151590811790915591519182527f17307eab39ab6107e8899845ad3d59bd9653f200f220920489ca2b5937696c31910160405180910390a3505050565b612280848484611e2a565b61228c84848484613ab6565b6118055760405162461bcd60e51b815260040161091b90614710565b6040805161044081018252600561040082018181526428b0ba30b960d91b61042084015282528251808401845260078082526622b1bab0b237b960c91b60208381019190915280850192909252845180860186528181526614d95b9959d85b60ca1b818401528486015284518086018652600b8082526a4e65746865726c616e647360a81b828501526060868101929092528651808801885283815266115b99db185b9960ca1b818601526080870152865180880188528381526624a91024b930b760c91b8186015260a087015286518088018852600381526255534160e81b8186015260c0870152865180880188528581526457616c657360d81b8186015260e087015286518088018852600980825268417267656e74696e6160b81b8287015261010088019190915287518089018952600c81526b53617564692041726162696160a01b81870152610120880152875180890189526006808252654d657869636f60d01b828801526101408901919091528851808a018a5281815265141bdb185b9960d21b818801526101608901528851808a018a52818152654672616e636560d01b818801526101808901528851808a018a52918252684175737472616c696160b81b828701526101a0880191909152875180890189528481526644656e6d61726b60c81b818701526101c0880152875180890189528481526654756e6973696160c81b818701526101e0880152875180890189528681526429b830b4b760d91b8187015261020088015287518089018952600a815269436f737461205269636160b01b8187015261022088015287518089018952848152664765726d616e7960c81b8187015261024088015287518089018952868152642530b830b760d91b81870152610260880152875180890189528481526642656c6769756d60c81b81870152610280880152875180890189528181526543616e61646160d01b818701526102a088015287518089018952848152664d6f726f63636f60c81b818701526102c0880152875180890189528481526643726f6174696160c81b818701526102e08801528751808901895281815265109c985e9a5b60d21b81870152610300880152875180890189528181526553657262696160d01b81870152610320880152875180890189529182526a14ddda5d1e995c9b185b9960aa1b828601526103408701919091528651808801885260088082526721b0b6b2b937b7b760c11b828701526103608801919091528751808901895290815267141bdc9d1d59d85b60c21b8186015261038087015286518088018852948552644768616e6160d81b858501526103a086019490945285518087018752918252665572756775617960c81b828401526103c085019190915284518086018652600e81526d4b6f7265612052657075626c696360901b818401526103e08501528451808601909552918452653730ba34b7b760d11b8482015290928291906126e99086906120fc565b6126f39190614653565b602081106127035761270361463d565b60200201519392505050565b6060612719613dc4565b60006040518060600160405280604051806040016040528060018152602001603160f81b8152508152602001604051806040016040528060018152602001601960f91b8152508152602001604051806040016040528060018152602001603360f81b81525081525090508060036127b3866040518060400160405280600b81526020016a656d6f74696f6e54696d6560a81b8152506120fc565b6127bd9190614653565b600381106127cd576127cd61463d565b602002015194909350915050565b6000816040516020016127ee91906144ca565b604051602081830303815290604052805190602001208360405160200161281591906144ca565b6040516020818303038152906040528051906020012014905092915050565b6040805161010081018252600160c08201818152603160f81b60e0840152825282518084018452818152601960f91b6020828101919091528084019190915283518085018552828152603360f81b818301528385015283518085018552828152600d60fa1b8183015260608481019190915284518086018652838152603560f81b81840152608085015284518086018652838152601b60f91b8184015260a085015284518086019095526003855262646e6160e81b9185019190915292600091612902918691612710613bb4565b9050610bb881111561291f578160005b6020020151949350505050565b6001811015801561293257506107d08111155b1561293f57816001612912565b6107d181101580156129535750610a288111155b1561296057816002612912565b610a2981101580156129745750610b548111155b1561298157816003612912565b610b5581101580156129955750610bae8111155b156129a257816004612912565b816005612912565b6040805160a08101825260016060828101828152600360fc1b6080850152835283518085018552828152603160f81b6020828101919091528085019190915284518086018652928352601960f91b90830152928201526000612a0b84612834565b9050612a3081604051806040016040528060018152602001603160f81b8152506127db565b15612a7957816003612a5f86604051806040016040528060058152602001641899585c9960da1b8152506120fc565b612a699190614653565b600381106129125761291261463d565b50506040805180820190915260018152600360fc1b602082015292915050565b60606000604051806101400160405280604051806040016040528060018152602001600360fc1b8152508152602001604051806040016040528060018152602001603160f81b8152508152602001604051806040016040528060018152602001601960f91b8152508152602001604051806040016040528060018152602001603360f81b8152508152602001604051806040016040528060018152602001600d60fa1b8152508152602001604051806040016040528060018152602001603560f81b8152508152602001604051806040016040528060018152602001601b60f91b8152508152602001604051806040016040528060018152602001603760f81b8152508152602001604051806040016040528060018152602001600760fb1b8152508152602001604051806040016040528060018152602001603960f81b815250815250905060006040518060e00160405280604051806040016040528060018152602001603160f81b8152508152602001604051806040016040528060018152602001601960f91b8152508152602001604051806040016040528060018152602001603360f81b8152508152602001604051806040016040528060018152602001600d60fa1b8152508152602001604051806040016040528060018152602001603560f81b8152508152602001604051806040016040528060018152602001601b60f91b8152508152602001604051806040016040528060018152602001603760f81b81525081525090506000612cd085612834565b9050612cf581604051806040016040528060018152602001601960f91b8152506127db565b15612d4b57816007612d2387604051806040016040528060048152602001633430b4b960e11b8152506120fc565b612d2d9190614653565b60078110612d3d57612d3d61463d565b602002015195945050505050565b612d6e81604051806040016040528060018152602001603160f81b8152506127db565b15612db65782600a612d9c87604051806040016040528060048152602001633430b4b960e11b8152506120fc565b612da69190614653565b600a8110612d3d57612d3d61463d565b50506040805180820190915260018152600360fc1b60208201529392505050565b604080516102608101825260016102208201818152603160f81b610240840152825282518084018452818152601960f91b6020828101919091528084019190915283518085018552828152603360f81b818301528385015283518085018552828152600d60fa1b8183015260608481019190915284518086018652838152603560f81b81840152608085015284518086018652838152601b60f91b8184015260a085015284518086018652838152603760f81b8184015260c085015284518086018652838152600760fb1b8184015260e085015284518086018652928352603960f81b8383015261010084019290925283518085018552600280825261031360f41b828401526101208501919091528451808601865281815261313160f01b818401526101408501528451808601865281815261189960f11b818401526101608501528451808601865281815261313360f01b8184015261018085015284518086018652818152610c4d60f21b818401526101a08501528451808601865281815261313560f01b818401526101c08501528451808601865281815261189b60f11b818401526101e08501528451808601909552845261313760f01b908401526102008201929092526000612faa84612834565b9050612fcf81604051806040016040528060018152602001603160f81b8152506127db565b15612a79576000612fdf85613146565b905061300481604051806040016040528060018152602001603160f81b8152506127db565b156130765760006130148661339d565b905080156130745783601161304b886040518060400160405280600a8152602001691d5b99195c9cda1a5c9d60b21b8152506120fc565b6130559190614653565b601181106130655761306561463d565b60200201519695505050505050565b505b5050506040805180820190915260018152600360fc1b602082015292915050565b606060006040518060600160405280604051806040016040528060018152602001603160f81b8152508152602001604051806040016040528060018152602001601960f91b8152508152602001604051806040016040528060018152602001603360f81b815250815250905080600361312c856040518060400160405280600481526020016373686f6560e01b8152506120fc565b6131369190614653565b600381106127035761270361463d565b6040805160a0808201835260016060838101828152603160f81b608080870182905291865286518088018852848152601960f91b6020828101829052808901929092528851808a018a52868152603360f81b81840152888a0152885196870189528685018681529387019290925291855286518088018852848152808301919091528482015285518087018752928352600d60fa1b908301529382015260006131ee85612834565b905061321381604051806040016040528060018152602001601960f91b8152506127db565b1561325a5781600361324087604051806040016040528060038152602001620746f760ec1b8152506120fc565b61324a9190614653565b60038110612d3d57612d3d61463d565b82600361324087604051806040016040528060038152602001620746f760ec1b8152506120fc565b60408051608080820183526001828401818152603360f81b60608581019190915290845284518086018652828152600d60fa1b6020828101919091528086019190915285519384018652838601838152603160f81b8584015284528551808701909652918552601960f91b8583015290820193909352600061330385612834565b905061332881604051806040016040528060018152602001601960f91b8152506127db565b15613372578260026133588760405180604001604052806006815260200165626f74746f6d60d01b8152506120fc565b6133629190614653565b60028110612d3d57612d3d61463d565b8160026133588760405180604001604052806006815260200165626f74746f6d60d01b8152506120fc565b600080604051806103400160405280600181526020016002815260200160038152602001600481526020016005815260200160068152602001600781526020016008815260200160098152602001600a8152602001600b8152602001600c8152602001600d8152602001600e8152602001600f815260200160108152602001601181526020016012815260200160138152602001601481526020016015815260200160168152602001601781526020016018815260200160198152602001601a815250905060006134918460405180604001604052806006815260200165373ab6b132b960d11b8152506001612710613bb4565b9050611e788111156134a7575060009392505050565b81601a6134d28660405180604001604052806006815260200165373ab6b132b960d11b8152506120fc565b6134dc9190614653565b601a81106129125761291261463d565b6040805160c081018252600160808201818152600360fc1b60a0840152825282518084018452818152603160f81b6020828101919091528084019190915283518085018552828152601960f91b818301528385015283518085018552918252603360f81b82820152606083810192909252835180850190945260058452647461746f6f60d81b908401529181906004906135879086906120fc565b6135919190614653565b600481106127035761270361463d565b6040805161010081018252600160c08201818152600360fc1b60e0840152825282518084018452818152603160f81b6020828101919091528084019190915283518085018552828152601960f91b818301528385015283518085018552828152603360f81b8183015260608481019190915284518086018652838152600d60fa1b81840152608085015284518086018652928352603560f81b8383015260a084019290925283518085019094526007845266676c617373657360c81b908401529181906006906136729086906120fc565b61367c9190614653565b600681106127035761270361463d565b606060006040518060400160405280604051806040016040528060018152602001600360fc1b8152508152602001604051806040016040528060018152602001603160f81b815250815250905060006136e484612834565b905061370981604051806040016040528060018152602001603160f81b8152506127db565b15612a7957600061371985613146565b905061373e81604051806040016040528060018152602001603160f81b8152506127db565b1561307657600061374e8661339d565b9050801561307457836002613782886040518060400160405280600781526020016631b0b83a30b4b760c91b8152506120fc565b61378c9190614653565b600281106130655761306561463d565b606060006040518060400160405280604051806040016040528060018152602001600360fc1b8152508152602001604051806040016040528060018152602001603160f81b81525081525090508060026138178560405180604001604052806009815260200168199858d95c185a5b9d60ba1b8152506120fc565b6138219190614653565b600281106127035761270361463d565b60606101658054610851906143c7565b6060816138655750506040805180820190915260018152600360fc1b602082015290565b8160005b811561388f578061387981614418565b91506138889050600a836144b6565b9150613869565b60008167ffffffffffffffff8111156138aa576138aa613e9e565b6040519080825280601f01601f1916602001820160405280156138d4576020820181803683370190505b5090505b8415611e22576138e9600183614667565b91506138f6600a86614653565b6139019060306146ad565b60f81b8183815181106139165761391661463d565b60200101906001600160f81b031916908160001a905350613938600a866144b6565b94506138d8565b6139498383613bf2565b6139566000848484613ab6565b610a755760405162461bcd60e51b815260040161091b90614710565b60975460ff1615610a755760405162461bcd60e51b815260206004820152602b60248201527f4552433732315061757361626c653a20746f6b656e207472616e73666572207760448201526a1a1a5b19481c185d5cd95960aa1b606482015260840161091b565b60975460ff16610b8e5760405162461bcd60e51b815260206004820152601460248201527314185d5cd8589b194e881b9bdd081c185d5cd95960621b604482015260640161091b565b60975460ff1615610b8e5760405162461bcd60e51b815260206004820152601060248201526f14185d5cd8589b194e881c185d5cd95960821b604482015260640161091b565b600054610100900460ff16613a8f5760405162461bcd60e51b815260040161091b906146c5565b8151613aa2906065906020850190613d40565b508051610a75906066906020840190613d40565b60006001600160a01b0384163b15613ba957604051630a85bd0160e11b81526001600160a01b0385169063150b7a0290613afa903390899088908890600401614762565b6020604051808303816000875af1925050508015613b35575060408051601f3d908101601f19168201909252613b3291810190614795565b60015b613b8f573d808015613b63576040519150601f19603f3d011682016040523d82523d6000602084013e613b68565b606091505b508051613b875760405162461bcd60e51b815260040161091b90614710565b805181602001fd5b6001600160e01b031916630a85bd0160e11b149050611e22565b506001949350505050565b6000613bc08383614667565b613bcb9060016146ad565b613bd586866120fc565b613bdf9190614653565b613be990846146ad565b95945050505050565b6001600160a01b038216613c485760405162461bcd60e51b815260206004820181905260248201527f4552433732313a206d696e7420746f20746865207a65726f2061646472657373604482015260640161091b565b6000818152606760205260409020546001600160a01b031615613cad5760405162461bcd60e51b815260206004820152601c60248201527f4552433732313a20746f6b656e20616c7265616479206d696e74656400000000604482015260640161091b565b613cb960008383613972565b6001600160a01b0382166000908152606860205260408120805460019290613ce29084906146ad565b909155505060008181526067602052604080822080546001600160a01b0319166001600160a01b03861690811790915590518392907fddf252ad1be2c89b69c2b068fc378daa952ba7f163c4a11628f55a4df523b3ef908290a45050565b828054613d4c906143c7565b90600052602060002090601f016020900481019282613d6e5760008555613db4565b82601f10613d8757805160ff1916838001178555613db4565b82800160010185558215613db4579182015b82811115613db4578251825591602001919060010190613d99565b50613dc0929150613deb565b5090565b60405180606001604052806003905b6060815260200190600190039081613dd35790505090565b5b80821115613dc05760008155600101613dec565b6001600160e01b031981168114611c6b57600080fd5b600060208284031215613e2857600080fd5b8135611bae81613e00565b60005b83811015613e4e578181015183820152602001613e36565b838111156118055750506000910152565b60008151808452613e77816020860160208601613e33565b601f01601f19169290920160200192915050565b602081526000611bae6020830184613e5f565b634e487b7160e01b600052604160045260246000fd5b604051601f8201601f1916810167ffffffffffffffff81118282101715613edd57613edd613e9e565b604052919050565b600067ffffffffffffffff821115613eff57613eff613e9e565b50601f01601f191660200190565b600082601f830112613f1e57600080fd5b8135613f31613f2c82613ee5565b613eb4565b818152846020838601011115613f4657600080fd5b816020850160208301376000918101602001919091529392505050565b600060208284031215613f7557600080fd5b813567ffffffffffffffff811115613f8c57600080fd5b611e2284828501613f0d565b600060208284031215613faa57600080fd5b5035919050565b80356001600160a01b0381168114613fc857600080fd5b919050565b60008060408385031215613fe057600080fd5b613fe983613fb1565b946020939093013593505050565b60008060006060848603121561400c57600080fd5b61401584613fb1565b925061402360208501613fb1565b9150604084013590509250925092565b6000806040838503121561404657600080fd5b50508035926020909101359150565b60006020828403121561406757600080fd5b611bae82613fb1565b6000806040838503121561408357600080fd5b82359150602083013567ffffffffffffffff8111156140a157600080fd5b6140ad85828601613f0d565b9150509250929050565b600080600080608085870312156140cd57600080fd5b843567ffffffffffffffff808211156140e557600080fd5b6140f188838901613f0d565b9550602087013591508082111561410757600080fd5b5061411487828801613f0d565b93505061412360408601613fb1565b915061413160608601613fb1565b905092959194509250565b6000806040838503121561414f57600080fd5b61415883613fb1565b91506020830135801515811461416d57600080fd5b809150509250929050565b6000806000806080858703121561418e57600080fd5b61419785613fb1565b93506141a560208601613fb1565b925060408501359150606085013567ffffffffffffffff8111156141c857600080fd5b6141d487828801613f0d565b91505092959194509250565b60208152600082516101e08060208501526141ff610200850183613e5f565b91506020850151601f198086850301604087015261421d8483613e5f565b9350604087015191508086850301606087015261423a8483613e5f565b935060608701519150808685030160808701526142578483613e5f565b935060808701519150808685030160a08701526142748483613e5f565b935060a08701519150808685030160c08701526142918483613e5f565b935060c08701519150808685030160e08701526142ae8483613e5f565b935060e087015191506101008187860301818801526142cd8584613e5f565b9450808801519250506101208187860301818801526142ec8584613e5f565b94508088015192505061014081878603018188015261430b8584613e5f565b9450808801519250506101608281880152808801519250506101808187860301818801526143398584613e5f565b9450808801519250506101a08187860301818801526143588584613e5f565b9450808801519250506101c08187860301818801526143778584613e5f565b9088015187820390920184880152935090506143938382613e5f565b9695505050505050565b600080604083850312156143b057600080fd5b6143b983613fb1565b9150610be960208401613fb1565b600181811c908216806143db57607f821691505b602082108114156143fc57634e487b7160e01b600052602260045260246000fd5b50919050565b634e487b7160e01b600052601160045260246000fd5b600060001982141561442c5761442c614402565b5060010190565b6020808252602e908201527f4552433732313a2063616c6c6572206973206e6f7420746f6b656e206f776e6560408201526d1c881b9bdc88185c1c1c9bdd995960921b606082015260800190565b600081600019048311821515161561449b5761449b614402565b500290565b634e487b7160e01b600052601260045260246000fd5b6000826144c5576144c56144a0565b500490565b600082516144dc818460208701613e33565b9190910192915050565b805164ffffffffff81168114613fc857600080fd5b600082601f83011261450c57600080fd5b815161451a613f2c82613ee5565b81815284602083860101111561452f57600080fd5b611e22826020830160208701613e33565b805160ff81168114613fc857600080fd5b600080600080600080600060e0888a03121561456c57600080fd5b875163ffffffff8116811461458057600080fd5b965061458e602089016144e6565b9550604088015167ffffffffffffffff808211156145ab57600080fd5b6145b78b838c016144fb565b965060608a01519150808211156145cd57600080fd5b6145d98b838c016144fb565b95506145e760808b01614540565b94506145f560a08b01614540565b935060c08a015191508082111561460b57600080fd5b506146188a828b016144fb565b91505092959891949750929550565b634e487b7160e01b600052602160045260246000fd5b634e487b7160e01b600052603260045260246000fd5b600082614662576146626144a0565b500690565b60008282101561467957614679614402565b500390565b60008351614690818460208801613e33565b8351908301906146a4818360208801613e33565b01949350505050565b600082198211156146c0576146c0614402565b500190565b6020808252602b908201527f496e697469616c697a61626c653a20636f6e7472616374206973206e6f74206960408201526a6e697469616c697a696e6760a81b606082015260800190565b60208082526032908201527f4552433732313a207472616e7366657220746f206e6f6e20455243373231526560408201527131b2b4bb32b91034b6b83632b6b2b73a32b960711b606082015260800190565b6001600160a01b038581168252841660208201526040810183905260806060820181905260009061439390830184613e5f565b6000602082840312156147a757600080fd5b8151611bae81613e0056fea2646970667358221220be40471696235a483b802421053bcfdde80f643a294c950c1c85cf897a315bd064736f6c634300080c0033",
  "linkReferences": {},
  "deployedLinkReferences": {}
}