{
  "_format": "hh-sol-artifact-1",
  "contractName": "AVATARS",
  "sourceName": "contracts/nft/AVATARS.sol",
  "abi": [
    {
      "anonymous": false,
      "inputs": [
        {
          "indexed": true,
          "internalType": "address",
          "name": "owner",
          "type": "address"
        },
        {
          "indexed": true,
          "internalType": "address",
          "name": "approved",
          "type": "address"
        },
        {
          "indexed": true,
          "internalType": "uint256",
          "name": "tokenId",
          "type": "uint256"
        }
      ],
      "name": "Approval",
      "type": "event"
    },
    {
      "anonymous": false,
      "inputs": [
        {
          "indexed": true,
          "internalType": "address",
          "name": "owner",
          "type": "address"
        },
        {
          "indexed": true,
          "internalType": "address",
          "name": "operator",
          "type": "address"
        },
        {
          "indexed": false,
          "internalType": "bool",
          "name": "approved",
          "type": "bool"
        }
      ],
      "name": "ApprovalForAll",
      "type": "event"
    },
    {
      "anonymous": false,
      "inputs": [
        {
          "indexed": false,
          "internalType": "uint8",
          "name": "version",
          "type": "uint8"
        }
      ],
      "name": "Initialized",
      "type": "event"
    },
    {
      "anonymous": false,
      "inputs": [
        {
          "indexed": true,
          "internalType": "address",
          "name": "previousOwner",
          "type": "address"
        },
        {
          "indexed": true,
          "internalType": "address",
          "name": "newOwner",
          "type": "address"
        }
      ],
      "name": "OwnershipTransferred",
      "type": "event"
    },
    {
      "anonymous": false,
      "inputs": [
        {
          "indexed": false,
          "internalType": "address",
          "name": "account",
          "type": "address"
        }
      ],
      "name": "Paused",
      "type": "event"
    },
    {
      "anonymous": false,
      "inputs": [
        {
          "indexed": true,
          "internalType": "bytes32",
          "name": "requestId",
          "type": "bytes32"
        },
        {
          "indexed": true,
          "internalType": "bytes",
          "name": "data",
          "type": "bytes"
        }
      ],
      "name": "RequestFulfilledData",
      "type": "event"
    },
    {
      "anonymous": false,
      "inputs": [
        {
          "indexed": true,
          "internalType": "address",
          "name": "from",
          "type": "address"
        },
        {
          "indexed": true,
          "internalType": "address",
          "name": "to",
          "type": "address"
        },
        {
          "indexed": true,
          "internalType": "uint256",
          "name": "tokenId",
          "type": "uint256"
        }
      ],
      "name": "Transfer",
      "type": "event"
    },
    {
      "anonymous": false,
      "inputs": [
        {
          "indexed": false,
          "internalType": "address",
          "name": "account",
          "type": "address"
        }
      ],
      "name": "Unpaused",
      "type": "event"
    },
    {
      "inputs": [],
      "name": "_admin",
      "outputs": [
        {
          "internalType": "address",
          "name": "",
          "type": "address"
        }
      ],
      "stateMutability": "view",
      "type": "function"
    },
    {
      "inputs": [],
      "name": "_algorithm",
      "outputs": [
        {
          "internalType": "string",
          "name": "",
          "type": "string"
        }
      ],
      "stateMutability": "view",
      "type": "function"
    },
    {
      "inputs": [],
      "name": "_counter",
      "outputs": [
        {
          "internalType": "uint256",
          "name": "",
          "type": "uint256"
        }
      ],
      "stateMutability": "view",
      "type": "function"
    },
    {
      "inputs": [],
      "name": "_fee",
      "outputs": [
        {
          "internalType": "uint256",
          "name": "",
          "type": "uint256"
        }
      ],
      "stateMutability": "view",
      "type": "function"
    },
    {
      "inputs": [
        {
          "internalType": "string",
          "name": "",
          "type": "string"
        }
      ],
      "name": "_moods",
      "outputs": [
        {
          "internalType": "string",
          "name": "tempEmo",
          "type": "string"
        },
        {
          "internalType": "uint256",
          "name": "tempLastTime",
          "type": "uint256"
        }
      ],
      "stateMutability": "view",
      "type": "function"
    },
    {
      "inputs": [],
      "name": "_oracle",
      "outputs": [
        {
          "internalType": "address",
          "name": "",
          "type": "address"
        }
      ],
      "stateMutability": "view",
      "type": "function"
    },
    {
      "inputs": [],
      "name": "_paramsAddress",
      "outputs": [
        {
          "internalType": "address",
          "name": "",
          "type": "address"
        }
      ],
      "stateMutability": "view",
      "type": "function"
    },
    {
      "inputs": [
        {
          "internalType": "bytes32",
          "name": "",
          "type": "bytes32"
        }
      ],
      "name": "_requestIdData",
      "outputs": [
        {
          "internalType": "bytes",
          "name": "",
          "type": "bytes"
        }
      ],
      "stateMutability": "view",
      "type": "function"
    },
    {
      "inputs": [],
      "name": "_tokenAddrErc721",
      "outputs": [
        {
          "internalType": "address",
          "name": "",
          "type": "address"
        }
      ],
      "stateMutability": "view",
      "type": "function"
    },
    {
      "inputs": [],
      "name": "_uri",
      "outputs": [
        {
          "internalType": "string",
          "name": "",
          "type": "string"
        }
      ],
      "stateMutability": "view",
      "type": "function"
    },
    {
      "inputs": [],
      "name": "_whitelistFee",
      "outputs": [
        {
          "internalType": "uint256",
          "name": "",
          "type": "uint256"
        }
      ],
      "stateMutability": "view",
      "type": "function"
    },
    {
      "inputs": [
        {
          "internalType": "address",
          "name": "to",
          "type": "address"
        },
        {
          "internalType": "uint256",
          "name": "tokenId",
          "type": "uint256"
        }
      ],
      "name": "approve",
      "outputs": [],
      "stateMutability": "nonpayable",
      "type": "function"
    },
    {
      "inputs": [
        {
          "internalType": "address",
          "name": "owner",
          "type": "address"
        }
      ],
      "name": "balanceOf",
      "outputs": [
        {
          "internalType": "uint256",
          "name": "",
          "type": "uint256"
        }
      ],
      "stateMutability": "view",
      "type": "function"
    },
    {
      "inputs": [
        {
          "internalType": "address",
          "name": "newAdm",
          "type": "address"
        }
      ],
      "name": "changeAdmin",
      "outputs": [],
      "stateMutability": "nonpayable",
      "type": "function"
    },
    {
      "inputs": [
        {
          "internalType": "string",
          "name": "baseURI",
          "type": "string"
        }
      ],
      "name": "changeBaseURI",
      "outputs": [],
      "stateMutability": "nonpayable",
      "type": "function"
    },
    {
      "inputs": [
        {
          "internalType": "address",
          "name": "oracle",
          "type": "address"
        }
      ],
      "name": "changeOracle",
      "outputs": [],
      "stateMutability": "nonpayable",
      "type": "function"
    },
    {
      "inputs": [
        {
          "internalType": "address",
          "name": "newP",
          "type": "address"
        }
      ],
      "name": "changeParam",
      "outputs": [],
      "stateMutability": "nonpayable",
      "type": "function"
    },
    {
      "inputs": [
        {
          "internalType": "address",
          "name": "sweet",
          "type": "address"
        }
      ],
      "name": "changeToken",
      "outputs": [],
      "stateMutability": "nonpayable",
      "type": "function"
    },
    {
      "inputs": [
        {
          "internalType": "bytes32",
          "name": "requestId",
          "type": "bytes32"
        },
        {
          "internalType": "bytes",
          "name": "gameData",
          "type": "bytes"
        }
      ],
      "name": "fulfill",
      "outputs": [],
      "stateMutability": "nonpayable",
      "type": "function"
    },
    {
      "inputs": [
        {
          "internalType": "uint256",
          "name": "tokenId",
          "type": "uint256"
        }
      ],
      "name": "getApproved",
      "outputs": [
        {
          "internalType": "address",
          "name": "",
          "type": "address"
        }
      ],
      "stateMutability": "view",
      "type": "function"
    },
    {
      "inputs": [
        {
          "internalType": "uint256",
          "name": "tokenId",
          "type": "uint256"
        }
      ],
      "name": "getParamValues",
      "outputs": [
        {
          "components": [
            {
              "internalType": "string",
              "name": "_emotion",
              "type": "string"
            },
            {
              "internalType": "string",
              "name": "_emotionTime",
              "type": "string"
            },
            {
              "internalType": "string",
              "name": "_nation",
              "type": "string"
            },
            {
              "internalType": "string",
              "name": "_dna",
              "type": "string"
            },
            {
              "internalType": "string",
              "name": "_beard",
              "type": "string"
            },
            {
              "internalType": "string",
              "name": "_hair",
              "type": "string"
            },
            {
              "internalType": "string",
              "name": "_undershirt",
              "type": "string"
            },
            {
              "internalType": "string",
              "name": "_shoes",
              "type": "string"
            },
            {
              "internalType": "string",
              "name": "_top",
              "type": "string"
            },
            {
              "internalType": "string",
              "name": "_bottom",
              "type": "string"
            },
            {
              "internalType": "uint256",
              "name": "_number",
              "type": "uint256"
            },
            {
              "internalType": "string",
              "name": "_tattoo",
              "type": "string"
            },
            {
              "internalType": "string",
              "name": "_glasses",
              "type": "string"
            },
            {
              "internalType": "string",
              "name": "_captain",
              "type": "string"
            },
            {
              "internalType": "string",
              "name": "_facePaint",
              "type": "string"
            }
          ],
          "internalType": "struct AVATARS.Player",
          "name": "player",
          "type": "tuple"
        }
      ],
      "stateMutability": "view",
      "type": "function"
    },
    {
      "inputs": [
        {
          "internalType": "string",
          "name": "name",
          "type": "string"
        },
        {
          "internalType": "string",
          "name": "symbol",
          "type": "string"
        },
        {
          "internalType": "address",
          "name": "admin",
          "type": "address"
        },
        {
          "internalType": "address",
          "name": "paramsAddress",
          "type": "address"
        }
      ],
      "name": "initialize",
      "outputs": [],
      "stateMutability": "nonpayable",
      "type": "function"
    },
    {
      "inputs": [
        {
          "internalType": "address",
          "name": "owner",
          "type": "address"
        },
        {
          "internalType": "address",
          "name": "operator",
          "type": "address"
        }
      ],
      "name": "isApprovedForAll",
      "outputs": [
        {
          "internalType": "bool",
          "name": "",
          "type": "bool"
        }
      ],
      "stateMutability": "view",
      "type": "function"
    },
    {
      "inputs": [],
      "name": "mint",
      "outputs": [],
      "stateMutability": "payable",
      "type": "function"
    },
    {
      "inputs": [
        {
          "internalType": "uint256",
          "name": "tokenIdGated",
          "type": "uint256"
        }
      ],
      "name": "mintByToken",
      "outputs": [],
      "stateMutability": "nonpayable",
      "type": "function"
    },
    {
      "inputs": [],
      "name": "mintWhitelist",
      "outputs": [],
      "stateMutability": "payable",
      "type": "function"
    },
    {
      "inputs": [],
      "name": "name",
      "outputs": [
        {
          "internalType": "string",
          "name": "",
          "type": "string"
        }
      ],
      "stateMutability": "view",
      "type": "function"
    },
    {
      "inputs": [],
      "name": "owner",
      "outputs": [
        {
          "internalType": "address",
          "name": "",
          "type": "address"
        }
      ],
      "stateMutability": "view",
      "type": "function"
    },
    {
      "inputs": [
        {
          "internalType": "uint256",
          "name": "id",
          "type": "uint256"
        }
      ],
      "name": "ownerMint",
      "outputs": [],
      "stateMutability": "nonpayable",
      "type": "function"
    },
    {
      "inputs": [
        {
          "internalType": "uint256",
          "name": "tokenId",
          "type": "uint256"
        }
      ],
      "name": "ownerOf",
      "outputs": [
        {
          "internalType": "address",
          "name": "",
          "type": "address"
        }
      ],
      "stateMutability": "view",
      "type": "function"
    },
    {
      "inputs": [],
      "name": "pause",
      "outputs": [],
      "stateMutability": "nonpayable",
      "type": "function"
    },
    {
      "inputs": [],
      "name": "paused",
      "outputs": [
        {
          "internalType": "bool",
          "name": "",
          "type": "bool"
        }
      ],
      "stateMutability": "view",
      "type": "function"
    },
    {
      "inputs": [],
      "name": "renounceOwnership",
      "outputs": [],
      "stateMutability": "nonpayable",
      "type": "function"
    },
    {
      "inputs": [
        {
          "internalType": "uint256",
          "name": "_tokenId",
          "type": "uint256"
        },
        {
          "internalType": "uint256",
          "name": "_salePrice",
          "type": "uint256"
        }
      ],
      "name": "royaltyInfo",
      "outputs": [
        {
          "internalType": "address",
          "name": "receiver",
          "type": "address"
        },
        {
          "internalType": "uint256",
          "name": "royaltyAmount",
          "type": "uint256"
        }
      ],
      "stateMutability": "view",
      "type": "function"
    },
    {
      "inputs": [
        {
          "internalType": "address",
          "name": "from",
          "type": "address"
        },
        {
          "internalType": "address",
          "name": "to",
          "type": "address"
        },
        {
          "internalType": "uint256",
          "name": "tokenId",
          "type": "uint256"
        }
      ],
      "name": "safeTransferFrom",
      "outputs": [],
      "stateMutability": "nonpayable",
      "type": "function"
    },
    {
      "inputs": [
        {
          "internalType": "address",
          "name": "from",
          "type": "address"
        },
        {
          "internalType": "address",
          "name": "to",
          "type": "address"
        },
        {
          "internalType": "uint256",
          "name": "tokenId",
          "type": "uint256"
        },
        {
          "internalType": "bytes",
          "name": "data",
          "type": "bytes"
        }
      ],
      "name": "safeTransferFrom",
      "outputs": [],
      "stateMutability": "nonpayable",
      "type": "function"
    },
    {
      "inputs": [
        {
          "internalType": "string",
          "name": "algo",
          "type": "string"
        }
      ],
      "name": "setAlgo",
      "outputs": [],
      "stateMutability": "nonpayable",
      "type": "function"
    },
    {
      "inputs": [
        {
          "internalType": "address",
          "name": "operator",
          "type": "address"
        },
        {
          "internalType": "bool",
          "name": "approved",
          "type": "bool"
        }
      ],
      "name": "setApprovalForAll",
      "outputs": [],
      "stateMutability": "nonpayable",
      "type": "function"
    },
    {
      "inputs": [
        {
          "internalType": "uint256",
          "name": "fee",
          "type": "uint256"
        }
      ],
      "name": "setFee",
      "outputs": [],
      "stateMutability": "nonpayable",
      "type": "function"
    },
    {
      "inputs": [
        {
          "internalType": "uint256",
          "name": "whitelistFee",
          "type": "uint256"
        }
      ],
      "name": "setWhitelistFee",
      "outputs": [],
      "stateMutability": "nonpayable",
      "type": "function"
    },
    {
      "inputs": [
        {
          "internalType": "bytes4",
          "name": "interfaceId",
          "type": "bytes4"
        }
      ],
      "name": "supportsInterface",
      "outputs": [
        {
          "internalType": "bool",
          "name": "",
          "type": "bool"
        }
      ],
      "stateMutability": "view",
      "type": "function"
    },
    {
      "inputs": [],
      "name": "symbol",
      "outputs": [
        {
          "internalType": "string",
          "name": "",
          "type": "string"
        }
      ],
      "stateMutability": "view",
      "type": "function"
    },
    {
      "inputs": [
        {
          "internalType": "uint256",
          "name": "tokenId",
          "type": "uint256"
        }
      ],
      "name": "tokenURI",
      "outputs": [
        {
          "internalType": "string",
          "name": "",
          "type": "string"
        }
      ],
      "stateMutability": "view",
      "type": "function"
    },
    {
      "inputs": [
        {
          "internalType": "address",
          "name": "from",
          "type": "address"
        },
        {
          "internalType": "address",
          "name": "to",
          "type": "address"
        },
        {
          "internalType": "uint256",
          "name": "tokenId",
          "type": "uint256"
        }
      ],
      "name": "transferFrom",
      "outputs": [],
      "stateMutability": "nonpayable",
      "type": "function"
    },
    {
      "inputs": [
        {
          "internalType": "address",
          "name": "newOwner",
          "type": "address"
        }
      ],
      "name": "transferOwnership",
      "outputs": [],
      "stateMutability": "nonpayable",
      "type": "function"
    },
    {
      "inputs": [],
      "name": "unpause",
      "outputs": [],
      "stateMutability": "nonpayable",
      "type": "function"
    },
    {
      "inputs": [
        {
          "internalType": "uint256",
          "name": "amount",
          "type": "uint256"
        }
      ],
      "name": "withdraw",
      "outputs": [],
      "stateMutability": "nonpayable",
      "type": "function"
    }
  ],
  "bytecode": "0x608060405234801561001057600080fd5b50614c9c806100206000396000f3fe6080604052600436106102885760003560e01c806370a082311161015a578063a22cb465116100c1578063c87b56dd1161007a578063c87b56dd14610793578063d5978314146107b3578063e653c650146107d3578063e985e9c5146107f4578063f19e75d414610814578063f2fde38b1461083457600080fd5b8063a22cb465146106ce578063adfc7dae146106ee578063b88d4fde1461070f578063c0dca2391461072f578063c5b37c221461075c578063c6283c381461077357600080fd5b80638456cb59116101135780638456cb59146106305780638da5cb5b146106455780638f15b414146106645780638f2839701461068457806395d89b41146106a4578063a1bb1fcc146106b957600080fd5b806370a0823114610584578063715018a6146105a4578063741149b1146105b95780637c1de7e1146105d95780637cd49fde146105f957806380d953dd1461061057600080fd5b80632a55205a116101fe57806347c421b5116101b757806347c421b5146104c75780635275f37a146104e75780635c975abb1461050c5780636352211e1461052457806366829b161461054457806369fe0e2d1461056457600080fd5b80632a55205a1461040b5780632d3df31f1461044a5780632e1a7d4d1461045257806339a0c6f9146104725780633f4ba83a1461049257806342842e0e146104a757600080fd5b8063081812fc11610250578063081812fc1461036d578063095ea7b31461038d5780630dccc9ad146103ad5780631249c58b146103c257806323b872dd146103ca578063247ac063146103ea57600080fd5b806301bc45c91461028d57806301ffc9a7146102cb57806303f119ed146102fb57806306fdde03146103295780630764da1d1461034b575b600080fd5b34801561029957600080fd5b5061015f546102ae906001600160a01b031681565b6040516001600160a01b0390911681526020015b60405180910390f35b3480156102d757600080fd5b506102eb6102e63660046142a8565b610854565b60405190151581526020016102c2565b34801561030757600080fd5b5061031b61031636600461438a565b6108a6565b6040516102c2929190614417565b34801561033557600080fd5b5061033e610956565b6040516102c29190614439565b34801561035757600080fd5b5061036b61036636600461438a565b6109e8565b005b34801561037957600080fd5b506102ae61038836600461444c565b610a51565b34801561039957600080fd5b5061036b6103a8366004614481565b610a78565b3480156103b957600080fd5b5061033e610b8e565b61036b610c1d565b3480156103d657600080fd5b5061036b6103e53660046144ab565b610ca4565b3480156103f657600080fd5b50610161546102ae906001600160a01b031681565b34801561041757600080fd5b5061042b6104263660046144e7565b610cd5565b604080516001600160a01b0390931683526020830191909152016102c2565b61036b610d06565b34801561045e57600080fd5b5061036b61046d36600461444c565b610d55565b34801561047e57600080fd5b5061036b61048d36600461438a565b610e53565b34801561049e57600080fd5b5061036b610eaf565b3480156104b357600080fd5b5061036b6104c23660046144ab565b610eff565b3480156104d357600080fd5b5061036b6104e2366004614509565b610f1a565b3480156104f357600080fd5b506104fe6101695481565b6040519081526020016102c2565b34801561051857600080fd5b5060975460ff166102eb565b34801561053057600080fd5b506102ae61053f36600461444c565b610fc7565b34801561055057600080fd5b5061036b61055f366004614509565b611027565b34801561057057600080fd5b5061036b61057f36600461444c565b611092565b34801561059057600080fd5b506104fe61059f366004614509565b6110e0565b3480156105b057600080fd5b5061036b611166565b3480156105c557600080fd5b5061036b6105d4366004614509565b611178565b3480156105e557600080fd5b5061036b6105f4366004614524565b611214565b34801561060557600080fd5b506104fe6101645481565b34801561061c57600080fd5b5061036b61062b36600461444c565b611573565b34801561063c57600080fd5b5061036b6116cb565b34801561065157600080fd5b5061012d546001600160a01b03166102ae565b34801561067057600080fd5b5061036b61067f36600461456b565b61171b565b34801561069057600080fd5b5061036b61069f366004614509565b6118bf565b3480156106b057600080fd5b5061033e61195b565b3480156106c557600080fd5b5061033e61196a565b3480156106da57600080fd5b5061036b6106e93660046145f0565b611978565b3480156106fa57600080fd5b50610160546102ae906001600160a01b031681565b34801561071b57600080fd5b5061036b61072a36600461462c565b611983565b34801561073b57600080fd5b5061074f61074a36600461444c565b6119bb565b6040516102c29190614694565b34801561076857600080fd5b506104fe6101675481565b34801561077f57600080fd5b5061036b61078e36600461444c565b611cb0565b34801561079f57600080fd5b5061033e6107ae36600461444c565b611cfe565b3480156107bf57600080fd5b5061033e6107ce36600461444c565b611d65565b3480156107df57600080fd5b50610166546102ae906001600160a01b031681565b34801561080057600080fd5b506102eb61080f366004614851565b611d7f565b34801561082057600080fd5b5061036b61082f36600461444c565b611dad565b34801561084057600080fd5b5061036b61084f366004614509565b611e1e565b60006001600160e01b031982166380ac58cd60e01b148061088557506001600160e01b03198216635b5e139f60e01b145b806108a057506301ffc9a760e01b6001600160e01b03198316145b92915050565b805160208183018101805161016a825292820191909301209152805481906108cd9061487b565b80601f01602080910402602001604051908101604052809291908181526020018280546108f99061487b565b80156109465780601f1061091b57610100808354040283529160200191610946565b820191906000526020600020905b81548152906001019060200180831161092957829003601f168201915b5050505050908060010154905082565b6060606580546109659061487b565b80601f01602080910402602001604051908101604052809291908181526020018280546109919061487b565b80156109de5780601f106109b3576101008083540402835291602001916109de565b820191906000526020600020905b8154815290600101906020018083116109c157829003601f168201915b5050505050905090565b61015f5460408051808201909152600381526231303160e81b6020820152906001600160a01b03163314610a385760405162461bcd60e51b8152600401610a2f9190614439565b60405180910390fd5b508051610a4d906101639060208401906141d2565b5050565b6000610a5c82611e94565b506000908152606960205260409020546001600160a01b031690565b6000610a8382610fc7565b9050806001600160a01b0316836001600160a01b03161415610af15760405162461bcd60e51b815260206004820152602160248201527f4552433732313a20617070726f76616c20746f2063757272656e74206f776e656044820152603960f91b6064820152608401610a2f565b336001600160a01b0382161480610b0d5750610b0d8133611d7f565b610b7f5760405162461bcd60e51b815260206004820152603e60248201527f4552433732313a20617070726f76652063616c6c6572206973206e6f7420746f60448201527f6b656e206f776e6572206e6f7220617070726f76656420666f7220616c6c00006064820152608401610a2f565b610b898383611ef3565b505050565b6101658054610b9c9061487b565b80601f0160208091040260200160405190810160405280929190818152602001828054610bc89061487b565b8015610c155780601f10610bea57610100808354040283529160200191610c15565b820191906000526020600020905b815481529060010190602001808311610bf857829003601f168201915b505050505081565b600061016754118015610c335750610167543410155b6040518060400160405280600381526020016232303160e81b81525090610c6d5760405162461bcd60e51b8152600401610a2f9190614439565b506123286101645410610c7f57600080fd5b6101648054906000610c90836148cc565b9190505550610ca23361016454611f61565b565b610cae3382611f7b565b610cca5760405162461bcd60e51b8152600401610a2f906148e7565b610b89838383611fda565b61015f546001600160a01b03166000612710610cf3846101f4614935565b610cfd919061496a565b90509250929050565b600061016954118015610c335750610169543410156040518060400160405280600381526020016232303160e81b81525090610c6d5760405162461bcd60e51b8152600401610a2f9190614439565b600260fb541415610da85760405162461bcd60e51b815260206004820152601f60248201527f5265656e7472616e637947756172643a207265656e7472616e742063616c6c006044820152606401610a2f565b600260fb5561015f5460408051808201909152600381526231303160e81b6020820152906001600160a01b03163314610df45760405162461bcd60e51b8152600401610a2f9190614439565b50604051600090339047908381818185875af1925050503d8060008114610e37576040519150601f19603f3d011682016040523d82523d6000602084013e610e3c565b606091505b5050905080610e4a57600080fd5b5050600160fb55565b61015f5460408051808201909152600381526231303160e81b6020820152906001600160a01b03163314610e9a5760405162461bcd60e51b8152600401610a2f9190614439565b508051610a4d906101659060208401906141d2565b61015f5460408051808201909152600381526231303160e81b6020820152906001600160a01b03163314610ef65760405162461bcd60e51b8152600401610a2f9190614439565b50610ca2612181565b610b8983838360405180602001604052806000815250611983565b61015f5460408051808201909152600381526231303160e81b6020820152906001600160a01b03163314610f615760405162461bcd60e51b8152600401610a2f9190614439565b5060408051808201909152600381526203130360ec1b60208201526001600160a01b038216610fa35760405162461bcd60e51b8152600401610a2f9190614439565b5061016180546001600160a01b0319166001600160a01b0392909216919091179055565b6000818152606760205260408120546001600160a01b0316806108a05760405162461bcd60e51b8152602060048201526018602482015277115490cdcc8c4e881a5b9d985b1a59081d1bdad95b88125160421b6044820152606401610a2f565b61015f5460408051808201909152600381526231303160e81b6020820152906001600160a01b0316331461106e5760405162461bcd60e51b8152600401610a2f9190614439565b5061016680546001600160a01b0319166001600160a01b0392909216919091179055565b61015f5460408051808201909152600381526231303160e81b6020820152906001600160a01b031633146110d95760405162461bcd60e51b8152600401610a2f9190614439565b5061016755565b60006001600160a01b03821661114a5760405162461bcd60e51b815260206004820152602960248201527f4552433732313a2061646472657373207a65726f206973206e6f7420612076616044820152683634b21037bbb732b960b91b6064820152608401610a2f565b506001600160a01b031660009081526068602052604090205490565b61116e6121d3565b610ca2600061222e565b61015f546001600160a01b03163314801561119b57506001600160a01b03811615155b80156111b65750610160546001600160a01b03828116911614155b6040518060400160405280600381526020016231303160e81b815250906111f05760405162461bcd60e51b8152600401610a2f9190614439565b5061016080546001600160a01b0319166001600160a01b0392909216919091179055565b6101615460408051808201909152600381526203130360ec1b6020820152906001600160a01b0316331461125b5760405162461bcd60e51b8152600401610a2f9190614439565b508060405161126a919061497e565b6040519081900381209083907fc6ef1c5f8f954d0251e9620ce4908018f1c31f432eb9b44fd9efb2ca569453f190600090a360008281526101626020526040902080546112b69061487b565b6040805180820190915260038152620c8c0d60ea1b60208201529150156112f05760405162461bcd60e51b8152600401610a2f9190614439565b506000828152610162602090815260409091208251611311928401906141d2565b506000806000806000806000878060200190518101906113319190614a05565b965096509650965096509650965060006113518460ff168460ff16612281565b6040805160a081018252600160608201818152603160f81b6080840152825282518084018452818152601960f91b6020828101919091528084019190915283518085018552828152603360f81b91810191909152928201929092529192508260038111156113c1576113c1614adb565b141561144957806002602002015161016a886040516113e0919061497e565b908152602001604051809103902060000190805190602001906114049291906141d2565b508060015b602002015161016a8760405161141f919061497e565b908152602001604051809103902060000190805190602001906114439291906141d2565b5061151a565b600282600381111561145d5761145d614adb565b14156114a757602081015160405161016a9061147a908a9061497e565b9081526020016040518091039020600001908051906020019061149e9291906141d2565b50806002611409565b805160405161016a906114bb908a9061497e565b908152602001604051809103902060000190805190602001906114df9291906141d2565b50805160405161016a906114f490899061497e565b908152602001604051809103902060000190805190602001906115189291906141d2565b505b4261016a8860405161152c919061497e565b9081526020016040518091039020600101819055504261016a87604051611553919061497e565b908152604051908190036020019020600101555050505050505050505050565b6101665460408051808201909152600381526203130360ec1b6020820152906001600160a01b03166115b85760405162461bcd60e51b8152600401610a2f9190614439565b5061232861016454106115ca57600080fd5b61016480549060006115db836148cc565b91905055506115ed3361016454611f61565b60076116168260405180604001604052806005815260200164736861706560d81b8152506122ac565b6116209190614b07565b6040805180820190915260038152620c8c0d60ea1b602082015290156116595760405162461bcd60e51b8152600401610a2f9190614439565b50610166546040516323b872dd60e01b8152336004820152306024820152604481018390526001600160a01b039091169081906323b872dd90606401600060405180830381600087803b1580156116af57600080fd5b505af11580156116c3573d6000803e3d6000fd5b505050505050565b61015f5460408051808201909152600381526231303160e81b6020820152906001600160a01b031633146117125760405162461bcd60e51b8152600401610a2f9190614439565b50610ca26122e8565b600054610100900460ff161580801561173b5750600054600160ff909116105b806117555750303b158015611755575060005460ff166001145b6117b85760405162461bcd60e51b815260206004820152602e60248201527f496e697469616c697a61626c653a20636f6e747261637420697320616c72656160448201526d191e481a5b9a5d1a585b1a5e995960921b6064820152608401610a2f565b6000805460ff1916600117905580156117db576000805461ff0019166101001790555b6001600160a01b038316158015906117fb57506001600160a01b03821615155b6040518060400160405280600381526020016203130360ec1b815250906118355760405162461bcd60e51b8152600401610a2f9190614439565b506118408585612325565b61016080546001600160a01b038085166001600160a01b03199283161790925561015f80549286169290911691909117905580156118b8576000805461ff0019169055604051600181527f7f26b83ff96e1f2b6a682f133852f6798a09c465da95921460cefb38474024989060200160405180910390a15b5050505050565b61015f546001600160a01b0316331480156118e257506001600160a01b03811615155b80156118fd575061015f546001600160a01b03828116911614155b6040518060400160405280600381526020016231303160e81b815250906119375760405162461bcd60e51b8152600401610a2f9190614439565b5061015f80546001600160a01b0319166001600160a01b0392909216919091179055565b6060606680546109659061487b565b6101638054610b9c9061487b565b610a4d338383612356565b61198d3383611f7b565b6119a95760405162461bcd60e51b8152600401610a2f906148e7565b6119b584848484612425565b50505050565b611a34604051806101e001604052806060815260200160608152602001606081526020016060815260200160608152602001606081526020016060815260200160608152602001606081526020016060815260200160008152602001606081526020016060815260200160608152602001606081525090565b6040805160a081018252600160608201818152603160f81b6080840152825282518084018452818152601960f91b6020828101919091528084019190915283518085018552918252603360f81b90820152918101919091526000611a9784612458565b9050600080611aa5866128bf565b91509150600061016a84604051611abc919061497e565b9081526040519081900360200190208054611ad69061487b565b80601f0160208091040260200160405190810160405280929190818152602001828054611b029061487b565b8015611b4f5780601f10611b2457610100808354040283529160200191611b4f565b820191906000526020600020905b815481529060010190602001808311611b3257829003601f168201915b50939450620151809350611b71925086915085905060025b60200201516129a3565b15611b8857611b8181601e614935565b9050611ba7565b611b9484846001611b67565b15611ba757611ba4816007614935565b90505b8061016a86604051611bb9919061497e565b90815260200160405180910390206001015442611bd69190614b1b565b1115611be157855191505b604051806101e00160405280838152602001858152602001868152602001611c088a6129fc565b8152602001611c168a612b72565b8152602001611c248a612c93565b8152602001611c328a61300e565b8152602001611c408a6133a1565b8152602001611c4e8a61345e565b8152602001611c5c8a613600565b8152602001611c6a8a61371b565b8152602001611c788a61386a565b8152602001611c868a61397f565b8152602001611c948a613ae5565b8152602001611ca28a613c28565b905298975050505050505050565b61015f5460408051808201909152600381526231303160e81b6020820152906001600160a01b03163314611cf75760405162461bcd60e51b8152600401610a2f9190614439565b5061016955565b6060611d0982611e94565b6000611d13613cc3565b90506000815111611d335760405180602001604052806000815250611d5e565b80611d3d84613cd3565b604051602001611d4e929190614b32565b6040516020818303038152906040525b9392505050565b6101626020526000908152604090208054610b9c9061487b565b6001600160a01b039182166000908152606a6020908152604080832093909416825291909152205460ff1690565b61015f5460408051808201909152600381526231303160e81b6020820152906001600160a01b03163314611df45760405162461bcd60e51b8152600401610a2f9190614439565b5061232881118015611e0857506127108111155b611e1157600080fd5b611e1b3382611f61565b50565b611e266121d3565b6001600160a01b038116611e8b5760405162461bcd60e51b815260206004820152602660248201527f4f776e61626c653a206e6577206f776e657220697320746865207a65726f206160448201526564647265737360d01b6064820152608401610a2f565b611e1b8161222e565b6000818152606760205260409020546001600160a01b0316611e1b5760405162461bcd60e51b8152602060048201526018602482015277115490cdcc8c4e881a5b9d985b1a59081d1bdad95b88125160421b6044820152606401610a2f565b600081815260696020526040902080546001600160a01b0319166001600160a01b0384169081179091558190611f2882610fc7565b6001600160a01b03167f8c5be1e5ebec7d5bd14f71427d1e84f3dd0314c0f7b2291e5b200ac8c7c3b92560405160405180910390a45050565b610a4d828260405180602001604052806000815250613dd1565b600080611f8783610fc7565b9050806001600160a01b0316846001600160a01b03161480611fae5750611fae8185611d7f565b80611fd25750836001600160a01b0316611fc784610a51565b6001600160a01b0316145b949350505050565b826001600160a01b0316611fed82610fc7565b6001600160a01b0316146120515760405162461bcd60e51b815260206004820152602560248201527f4552433732313a207472616e736665722066726f6d20696e636f72726563742060448201526437bbb732b960d91b6064820152608401610a2f565b6001600160a01b0382166120b35760405162461bcd60e51b8152602060048201526024808201527f4552433732313a207472616e7366657220746f20746865207a65726f206164646044820152637265737360e01b6064820152608401610a2f565b6120be838383613e04565b6120c9600082611ef3565b6001600160a01b03831660009081526068602052604081208054600192906120f2908490614b1b565b90915550506001600160a01b0382166000908152606860205260408120805460019290612120908490614b61565b909155505060008181526067602052604080822080546001600160a01b0319166001600160a01b0386811691821790925591518493918716917fddf252ad1be2c89b69c2b068fc378daa952ba7f163c4a11628f55a4df523b3ef91a4505050565b612189613e6b565b6097805460ff191690557f5db9ee0a495bf2e6ff9c91a7834c1ba4fdd244a5e8aa4e537bd38aeae4b073aa335b6040516001600160a01b03909116815260200160405180910390a1565b61012d546001600160a01b03163314610ca25760405162461bcd60e51b815260206004820181905260248201527f4f776e61626c653a2063616c6c6572206973206e6f7420746865206f776e65726044820152606401610a2f565b61012d80546001600160a01b038381166001600160a01b0319831681179093556040519116919082907f8be0079c531659141344cd1fd0a4f28419497f9722a3daafe3b4186f6b6457e090600090a35050565b600081831115612293575060016108a0565b818314156122a3575060036108a0565b50600292915050565b6000816122b884613cd3565b6040516020016122c9929190614b32565b60408051601f1981840301815291905280516020909101209392505050565b6122f0613eb4565b6097805460ff191660011790557f62e78cea01bee320cd4e420270b5ea74000d11b0c9f74754ebdbfc544b05a2586121b63390565b600054610100900460ff1661234c5760405162461bcd60e51b8152600401610a2f90614b79565b610a4d8282613efa565b816001600160a01b0316836001600160a01b031614156123b85760405162461bcd60e51b815260206004820152601960248201527f4552433732313a20617070726f766520746f2063616c6c6572000000000000006044820152606401610a2f565b6001600160a01b038381166000818152606a6020908152604080832094871680845294825291829020805460ff191686151590811790915591519182527f17307eab39ab6107e8899845ad3d59bd9653f200f220920489ca2b5937696c31910160405180910390a3505050565b612430848484611fda565b61243c84848484613f48565b6119b55760405162461bcd60e51b8152600401610a2f90614bc4565b6040805161044081018252600561040082018181526428b0ba30b960d91b61042084015282528251808401845260078082526622b1bab0b237b960c91b60208381019190915280850192909252845180860186528181526614d95b9959d85b60ca1b818401528486015284518086018652600b8082526a4e65746865726c616e647360a81b828501526060868101929092528651808801885283815266115b99db185b9960ca1b818601526080870152865180880188528381526624a91024b930b760c91b8186015260a087015286518088018852600381526255534160e81b8186015260c0870152865180880188528581526457616c657360d81b8186015260e087015286518088018852600980825268417267656e74696e6160b81b8287015261010088019190915287518089018952600c81526b53617564692041726162696160a01b81870152610120880152875180890189526006808252654d657869636f60d01b828801526101408901919091528851808a018a5281815265141bdb185b9960d21b818801526101608901528851808a018a52818152654672616e636560d01b818801526101808901528851808a018a52918252684175737472616c696160b81b828701526101a0880191909152875180890189528481526644656e6d61726b60c81b818701526101c0880152875180890189528481526654756e6973696160c81b818701526101e0880152875180890189528681526429b830b4b760d91b8187015261020088015287518089018952600a815269436f737461205269636160b01b8187015261022088015287518089018952848152664765726d616e7960c81b8187015261024088015287518089018952868152642530b830b760d91b81870152610260880152875180890189528481526642656c6769756d60c81b81870152610280880152875180890189528181526543616e61646160d01b818701526102a088015287518089018952848152664d6f726f63636f60c81b818701526102c0880152875180890189528481526643726f6174696160c81b818701526102e08801528751808901895281815265109c985e9a5b60d21b81870152610300880152875180890189528181526553657262696160d01b81870152610320880152875180890189529182526a14ddda5d1e995c9b185b9960aa1b828601526103408701919091528651808801885260088082526721b0b6b2b937b7b760c11b828701526103608801919091528751808901895290815267141bdc9d1d59d85b60c21b8186015261038087015286518088018852948552644768616e6160d81b858501526103a086019490945285518087018752918252665572756775617960c81b828401526103c085019190915284518086018652600e81526d4b6f7265612052657075626c696360901b818401526103e08501528451808601909552918452653730ba34b7b760d11b8482015290928291906128999086906122ac565b6128a39190614b07565b602081106128b3576128b3614af1565b60200201519392505050565b60606128c9614256565b6040805160a081018252600160608201818152603160f81b6080840152825282518084018452818152601960f91b6020828101919091528084019190915283518085018552828152603360f81b81830152838501528351808501909452600b84526a656d6f74696f6e54696d6560a81b908401529091600091612950918791612710614046565b82519091506001821080159061296857506107d08211155b1561297857506020820151612998565b6107d1821015801561298c5750610bb88211155b15612998575060408201515b959194509092505050565b6000816040516020016129b6919061497e565b60405160208183030381529060405280519060200120836040516020016129dd919061497e565b6040516020818303038152906040528051906020012014905092915050565b6040805161010081018252600160c08201818152603160f81b60e0840152825282518084018452818152601960f91b6020828101919091528084019190915283518085018552828152603360f81b818301528385015283518085018552828152600d60fa1b8183015260608481019190915284518086018652838152603560f81b81840152608085015284518086018652838152601b60f91b8184015260a085015284518086019095526003855262646e6160e81b9185019190915292600091612aca918691612710614046565b9050610bb8811115612ae7578160005b6020020151949350505050565b60018110158015612afa57506107d08111155b15612b0757816001612ada565b6107d18110158015612b1b5750610a288111155b15612b2857816002612ada565b610a298110158015612b3c5750610b548111155b15612b4957816003612ada565b610b558110158015612b5d5750610bae8111155b15612b6a57816004612ada565b816005612ada565b6040805160a08101825260016060828101828152600360fc1b6080850152835283518085018552828152603160f81b6020828101919091528085019190915284518086018652928352601960f91b90830152928201526000612bd3846129fc565b9050612bf881604051806040016040528060018152602001603160f81b8152506129a3565b15612c73576000612c2b85604051806040016040528060058152602001641899585c9960da1b8152506001611b58614046565b90506102bc811115612c49578260005b602002015195945050505050565b60018110158015612c5c57506102308111155b15612c6957826001612c3b565b826002612c3b565b505b50506040805180820190915260018152600360fc1b602082015292915050565b60606000604051806101200160405280604051806040016040528060018152602001603160f81b8152508152602001604051806040016040528060018152602001601960f91b8152508152602001604051806040016040528060018152602001603360f81b8152508152602001604051806040016040528060018152602001600d60fa1b8152508152602001604051806040016040528060018152602001603560f81b8152508152602001604051806040016040528060018152602001601b60f91b8152508152602001604051806040016040528060018152602001603760f81b8152508152602001604051806040016040528060018152602001600760fb1b8152508152602001604051806040016040528060018152602001603960f81b815250815250905060006040518060e00160405280604051806040016040528060018152602001603160f81b8152508152602001604051806040016040528060018152602001601960f91b8152508152602001604051806040016040528060018152602001603360f81b8152508152602001604051806040016040528060018152602001600d60fa1b8152508152602001604051806040016040528060018152602001603560f81b8152508152602001604051806040016040528060018152602001601b60f91b8152508152602001604051806040016040528060018152602001603760f81b81525081525090506000612eab856129fc565b9050612ed081604051806040016040528060018152602001601960f91b8152506129a3565b15612f1857816007612efe87604051806040016040528060048152602001633430b4b960e11b8152506122ac565b612f089190614b07565b60078110612c3b57612c3b614af1565b612f3b81604051806040016040528060018152602001603160f81b8152506129a3565b15612fed576000612f6d86604051806040016040528060048152602001633430b4b960e11b8152506001611b58614046565b9050611acc811115612f9b5750506040805180820190915260018152600360fc1b6020820152949350505050565b836009612fc488604051806040016040528060048152602001633430b4b960e11b8152506122ac565b612fce9190614b07565b60098110612fde57612fde614af1565b60200201519695505050505050565b50506040805180820190915260018152600360fc1b60208201529392505050565b604080516101c08101825260016101808201818152603160f81b6101a0840152825282518084018452818152601960f91b6020828101919091528084019190915283518085018552828152603360f81b818301528385015283518085018552828152600d60fa1b8183015260608481019190915284518086018652838152603560f81b8184015260808086019190915285518087018752848152601b60f91b8185015260a08087019190915286518088018852858152603760f81b8186015260c08088019190915287518089018952868152600760fb1b8187015260e0808901919091528851808a018a52968752603960f81b8787015261010088019690965287518089018952600280825261031360f41b828801526101208901919091528851808a018a5281815261313160f01b818801526101408901528851808a018a5281815261189960f11b818801526101608901528851968701895291860182815261313360f01b91870191909152855286518088018852818152610c4d60f21b81860152858501528651808801885281815261313560f01b81860152858801528651808801885281815261189b60f11b81860152858401528651808801909752865261313760f01b928601929092529082019390935260006131ee856129fc565b905061321381604051806040016040528060018152602001603160f81b8152506129a3565b15612fed5760006132238661345e565b905061324881604051806040016040528060018152602001603160f81b8152506129a3565b1561337f5760006132588761371b565b9050801561337d576000613293886040518060400160405280600a8152602001691d5b99195c9cda1a5c9d60b21b8152506001610ccc614046565b905061051e81106132c25750506040805180820190915260018152600360fc1b60208201529695505050505050565b600181101580156132d557506103d68111155b156133345785600c6133098a6040518060400160405280600a8152602001691d5b99195c9cda1a5c9d60b21b8152506122ac565b6133139190614b07565b600c811061332357613323614af1565b602002015198975050505050505050565b8460056133638a6040518060400160405280600a8152602001691d5b99195c9cda1a5c9d60b21b8152506122ac565b61336d9190614b07565b6005811061332357613323614af1565b505b5050506040805180820190915260018152600360fc1b60208201529392505050565b6040805160a08101825260016060828101828152603160f81b6080850152835283518085018552828152601960f91b6020828101919091528085019190915284518086018652838152603360f81b81830152848601528451808601909552600585526473686f657360d81b9085015292600091613422918691612710614046565b90506103e881111561343657816000612ada565b6001811015801561344957506103848111155b1561345657816001612ada565b816002612ada565b6040805160a0808201835260016060838101828152603160f81b608080870182905291865286518088018852848152601960f91b6020828101829052808901929092528851808a018a52868152603360f81b81840152888a0152885196870189528685018681529387019290925291855286518088018852848152808301919091528482015285518087018752928352600d60fa1b90830152938201526000613506856129fc565b905061352b81604051806040016040528060018152602001601960f91b8152506129a3565b1561359857600061355c86604051806040016040528060038152602001620746f760ec1b81525060016107d0614046565b905061032081111561357057826000612fde565b6001811015801561358357506102588111155b1561359057826001612fde565b826002612fde565b60006135c486604051806040016040528060038152602001620746f760ec1b8152506001611f40614046565b9050610c808111156135d857836000612fde565b600181101580156135eb57506109608111155b156135f857836001612fde565b836002612fde565b60408051608080820183526001828401818152603360f81b60608581019190915290845284518086018652828152600d60fa1b6020828101919091528086019190915285519384018652838601838152603160f81b8584015284528551808701909652918552601960f91b85830152908201939093526000613681856129fc565b90506136a681604051806040016040528060018152602001601960f91b8152506129a3565b156136f0578260026136d68760405180604001604052806006815260200165626f74746f6d60d01b8152506122ac565b6136e09190614b07565b60028110612c3b57612c3b614af1565b8160026136d68760405180604001604052806006815260200165626f74746f6d60d01b8152506122ac565b600080604051806103400160405280600181526020016002815260200160038152602001600481526020016005815260200160068152602001600781526020016008815260200160098152602001600a8152602001600b8152602001600c8152602001600d8152602001600e8152602001600f815260200160108152602001601181526020016012815260200160138152602001601481526020016015815260200160168152602001601781526020016018815260200160198152602001601a8152509050600061380f8460405180604001604052806006815260200165373ab6b132b960d11b8152506001612710614046565b9050611e78811115613825575060009392505050565b81601a6138508660405180604001604052806006815260200165373ab6b132b960d11b8152506122ac565b61385a9190614b07565b601a8110612ada57612ada614af1565b606060006040518060800160405280604051806040016040528060018152602001600360fc1b8152508152602001604051806040016040528060018152602001603160f81b8152508152602001604051806040016040528060018152602001601960f91b8152508152602001604051806040016040528060018152602001603360f81b815250815250905060006139248460405180604001604052806006815260200165746174746f6f60d01b8152506001612710614046565b90506109c481111561393857816000612ada565b6001811015801561394a575060648111155b1561395757816001612ada565b6065811015801561396a57506101f48111155b1561397757816002612ada565b816003612ada565b6040805161010081018252600160c08201818152600360fc1b60e0840152825282518084018452818152603160f81b6020828101919091528084019190915283518085018552828152601960f91b818301528385015283518085018552828152603360f81b8183015260608481019190915284518086018652838152600d60fa1b81840152608085015284518086018652838152603560f81b8184015260a085015284518086019095526007855266676c617373657360c81b9185019190915292600091613a51918691612710614046565b9050610fa0811115613a6557816000612ada565b60018110158015613a7857506107d08111155b15613a8557816001612ada565b6107d18110158015613a995750610bb88111155b15613aa657816002612ada565b610bb98110158015613aba5750610dac8111155b15613ac757816003612ada565b610dad8110158015612b5d5750610f3c8111612b6a57816004612ada565b606060006040518060400160405280604051806040016040528060018152602001600360fc1b8152508152602001604051806040016040528060018152602001603160f81b81525081525090506000613b3d846129fc565b9050613b6281604051806040016040528060018152602001603160f81b8152506129a3565b15612c73576000613b728561345e565b9050613b9781604051806040016040528060018152602001603160f81b8152506129a3565b15612c71576000613ba78661371b565b90508015613c06576000613bdf876040518060400160405280600781526020016631b0b83a30b4b760c91b8152506001610ccc614046565b90506101478110613bfe578460005b6020020151979650505050505050565b846001613bee565b505050506040805180820190915260018152600360fc1b602082015292915050565b606060006040518060400160405280604051806040016040528060018152602001600360fc1b8152508152602001604051806040016040528060018152602001603160f81b81525081525090506000613ca78460405180604001604052806009815260200168199858d95c185a5b9d60ba1b8152506001612710614046565b90506103e8811115613cbb57816000612ada565b816001612ada565b606061016580546109659061487b565b606081613cf75750506040805180820190915260018152600360fc1b602082015290565b8160005b8115613d215780613d0b816148cc565b9150613d1a9050600a8361496a565b9150613cfb565b60008167ffffffffffffffff811115613d3c57613d3c6142c5565b6040519080825280601f01601f191660200182016040528015613d66576020820181803683370190505b5090505b8415611fd257613d7b600183614b1b565b9150613d88600a86614b07565b613d93906030614b61565b60f81b818381518110613da857613da8614af1565b60200101906001600160f81b031916908160001a905350613dca600a8661496a565b9450613d6a565b613ddb8383614084565b613de86000848484613f48565b610b895760405162461bcd60e51b8152600401610a2f90614bc4565b60975460ff1615610b895760405162461bcd60e51b815260206004820152602b60248201527f4552433732315061757361626c653a20746f6b656e207472616e73666572207760448201526a1a1a5b19481c185d5cd95960aa1b6064820152608401610a2f565b60975460ff16610ca25760405162461bcd60e51b815260206004820152601460248201527314185d5cd8589b194e881b9bdd081c185d5cd95960621b6044820152606401610a2f565b60975460ff1615610ca25760405162461bcd60e51b815260206004820152601060248201526f14185d5cd8589b194e881c185d5cd95960821b6044820152606401610a2f565b600054610100900460ff16613f215760405162461bcd60e51b8152600401610a2f90614b79565b8151613f349060659060208501906141d2565b508051610b899060669060208401906141d2565b60006001600160a01b0384163b1561403b57604051630a85bd0160e11b81526001600160a01b0385169063150b7a0290613f8c903390899088908890600401614c16565b6020604051808303816000875af1925050508015613fc7575060408051601f3d908101601f19168201909252613fc491810190614c49565b60015b614021573d808015613ff5576040519150601f19603f3d011682016040523d82523d6000602084013e613ffa565b606091505b5080516140195760405162461bcd60e51b8152600401610a2f90614bc4565b805181602001fd5b6001600160e01b031916630a85bd0160e11b149050611fd2565b506001949350505050565b60006140528383614b1b565b61405d906001614b61565b61406786866122ac565b6140719190614b07565b61407b9084614b61565b95945050505050565b6001600160a01b0382166140da5760405162461bcd60e51b815260206004820181905260248201527f4552433732313a206d696e7420746f20746865207a65726f20616464726573736044820152606401610a2f565b6000818152606760205260409020546001600160a01b03161561413f5760405162461bcd60e51b815260206004820152601c60248201527f4552433732313a20746f6b656e20616c7265616479206d696e746564000000006044820152606401610a2f565b61414b60008383613e04565b6001600160a01b0382166000908152606860205260408120805460019290614174908490614b61565b909155505060008181526067602052604080822080546001600160a01b0319166001600160a01b03861690811790915590518392907fddf252ad1be2c89b69c2b068fc378daa952ba7f163c4a11628f55a4df523b3ef908290a45050565b8280546141de9061487b565b90600052602060002090601f0160209004810192826142005760008555614246565b82601f1061421957805160ff1916838001178555614246565b82800160010185558215614246579182015b8281111561424657825182559160200191906001019061422b565b5061425292915061427d565b5090565b60405180606001604052806003905b60608152602001906001900390816142655790505090565b5b80821115614252576000815560010161427e565b6001600160e01b031981168114611e1b57600080fd5b6000602082840312156142ba57600080fd5b8135611d5e81614292565b634e487b7160e01b600052604160045260246000fd5b604051601f8201601f1916810167ffffffffffffffff81118282101715614304576143046142c5565b604052919050565b600067ffffffffffffffff821115614326576143266142c5565b50601f01601f191660200190565b600082601f83011261434557600080fd5b81356143586143538261430c565b6142db565b81815284602083860101111561436d57600080fd5b816020850160208301376000918101602001919091529392505050565b60006020828403121561439c57600080fd5b813567ffffffffffffffff8111156143b357600080fd5b611fd284828501614334565b60005b838110156143da5781810151838201526020016143c2565b838111156119b55750506000910152565b600081518084526144038160208601602086016143bf565b601f01601f19169290920160200192915050565b60408152600061442a60408301856143eb565b90508260208301529392505050565b602081526000611d5e60208301846143eb565b60006020828403121561445e57600080fd5b5035919050565b80356001600160a01b038116811461447c57600080fd5b919050565b6000806040838503121561449457600080fd5b61449d83614465565b946020939093013593505050565b6000806000606084860312156144c057600080fd5b6144c984614465565b92506144d760208501614465565b9150604084013590509250925092565b600080604083850312156144fa57600080fd5b50508035926020909101359150565b60006020828403121561451b57600080fd5b611d5e82614465565b6000806040838503121561453757600080fd5b82359150602083013567ffffffffffffffff81111561455557600080fd5b61456185828601614334565b9150509250929050565b6000806000806080858703121561458157600080fd5b843567ffffffffffffffff8082111561459957600080fd5b6145a588838901614334565b955060208701359150808211156145bb57600080fd5b506145c887828801614334565b9350506145d760408601614465565b91506145e560608601614465565b905092959194509250565b6000806040838503121561460357600080fd5b61460c83614465565b91506020830135801515811461462157600080fd5b809150509250929050565b6000806000806080858703121561464257600080fd5b61464b85614465565b935061465960208601614465565b925060408501359150606085013567ffffffffffffffff81111561467c57600080fd5b61468887828801614334565b91505092959194509250565b60208152600082516101e08060208501526146b36102008501836143eb565b91506020850151601f19808685030160408701526146d184836143eb565b935060408701519150808685030160608701526146ee84836143eb565b9350606087015191508086850301608087015261470b84836143eb565b935060808701519150808685030160a087015261472884836143eb565b935060a08701519150808685030160c087015261474584836143eb565b935060c08701519150808685030160e087015261476284836143eb565b935060e0870151915061010081878603018188015261478185846143eb565b9450808801519250506101208187860301818801526147a085846143eb565b9450808801519250506101408187860301818801526147bf85846143eb565b9450808801519250506101608281880152808801519250506101808187860301818801526147ed85846143eb565b9450808801519250506101a081878603018188015261480c85846143eb565b9450808801519250506101c081878603018188015261482b85846143eb565b90880151878203909201848801529350905061484783826143eb565b9695505050505050565b6000806040838503121561486457600080fd5b61486d83614465565b9150610cfd60208401614465565b600181811c9082168061488f57607f821691505b602082108114156148b057634e487b7160e01b600052602260045260246000fd5b50919050565b634e487b7160e01b600052601160045260246000fd5b60006000198214156148e0576148e06148b6565b5060010190565b6020808252602e908201527f4552433732313a2063616c6c6572206973206e6f7420746f6b656e206f776e6560408201526d1c881b9bdc88185c1c1c9bdd995960921b606082015260800190565b600081600019048311821515161561494f5761494f6148b6565b500290565b634e487b7160e01b600052601260045260246000fd5b60008261497957614979614954565b500490565b600082516149908184602087016143bf565b9190910192915050565b805164ffffffffff8116811461447c57600080fd5b600082601f8301126149c057600080fd5b81516149ce6143538261430c565b8181528460208386010111156149e357600080fd5b611fd28260208301602087016143bf565b805160ff8116811461447c57600080fd5b600080600080600080600060e0888a031215614a2057600080fd5b875163ffffffff81168114614a3457600080fd5b9650614a426020890161499a565b9550604088015167ffffffffffffffff80821115614a5f57600080fd5b614a6b8b838c016149af565b965060608a0151915080821115614a8157600080fd5b614a8d8b838c016149af565b9550614a9b60808b016149f4565b9450614aa960a08b016149f4565b935060c08a0151915080821115614abf57600080fd5b50614acc8a828b016149af565b91505092959891949750929550565b634e487b7160e01b600052602160045260246000fd5b634e487b7160e01b600052603260045260246000fd5b600082614b1657614b16614954565b500690565b600082821015614b2d57614b2d6148b6565b500390565b60008351614b448184602088016143bf565b835190830190614b588183602088016143bf565b01949350505050565b60008219821115614b7457614b746148b6565b500190565b6020808252602b908201527f496e697469616c697a61626c653a20636f6e7472616374206973206e6f74206960408201526a6e697469616c697a696e6760a81b606082015260800190565b60208082526032908201527f4552433732313a207472616e7366657220746f206e6f6e20455243373231526560408201527131b2b4bb32b91034b6b83632b6b2b73a32b960711b606082015260800190565b6001600160a01b0385811682528416602082015260408101839052608060608201819052600090614847908301846143eb565b600060208284031215614c5b57600080fd5b8151611d5e8161429256fea26469706673582212204d70f24fe4249818873f67ca22314a7af82dec5c8222b3226c417e93293c843a64736f6c634300080c0033",
  "linkReferences": {},
  "deployedLinkReferences": {}
}