{
  "_format": "hh-sol-artifact-1",
  "contractName": "AVATARS",
  "sourceName": "contracts/nft/AVATARS.sol",
  "abi": [
    {
      "anonymous": false,
      "inputs": [
        {
          "indexed": true,
          "internalType": "address",
          "name": "owner",
          "type": "address"
        },
        {
          "indexed": true,
          "internalType": "address",
          "name": "approved",
          "type": "address"
        },
        {
          "indexed": true,
          "internalType": "uint256",
          "name": "tokenId",
          "type": "uint256"
        }
      ],
      "name": "Approval",
      "type": "event"
    },
    {
      "anonymous": false,
      "inputs": [
        {
          "indexed": true,
          "internalType": "address",
          "name": "owner",
          "type": "address"
        },
        {
          "indexed": true,
          "internalType": "address",
          "name": "operator",
          "type": "address"
        },
        {
          "indexed": false,
          "internalType": "bool",
          "name": "approved",
          "type": "bool"
        }
      ],
      "name": "ApprovalForAll",
      "type": "event"
    },
    {
      "anonymous": false,
      "inputs": [
        {
          "indexed": false,
          "internalType": "uint8",
          "name": "version",
          "type": "uint8"
        }
      ],
      "name": "Initialized",
      "type": "event"
    },
    {
      "anonymous": false,
      "inputs": [
        {
          "indexed": true,
          "internalType": "address",
          "name": "previousOwner",
          "type": "address"
        },
        {
          "indexed": true,
          "internalType": "address",
          "name": "newOwner",
          "type": "address"
        }
      ],
      "name": "OwnershipTransferred",
      "type": "event"
    },
    {
      "anonymous": false,
      "inputs": [
        {
          "indexed": false,
          "internalType": "address",
          "name": "account",
          "type": "address"
        }
      ],
      "name": "Paused",
      "type": "event"
    },
    {
      "anonymous": false,
      "inputs": [
        {
          "indexed": true,
          "internalType": "bytes32",
          "name": "requestId",
          "type": "bytes32"
        },
        {
          "indexed": true,
          "internalType": "bytes",
          "name": "data",
          "type": "bytes"
        }
      ],
      "name": "RequestFulfilledData",
      "type": "event"
    },
    {
      "anonymous": false,
      "inputs": [
        {
          "indexed": true,
          "internalType": "address",
          "name": "from",
          "type": "address"
        },
        {
          "indexed": true,
          "internalType": "address",
          "name": "to",
          "type": "address"
        },
        {
          "indexed": true,
          "internalType": "uint256",
          "name": "tokenId",
          "type": "uint256"
        }
      ],
      "name": "Transfer",
      "type": "event"
    },
    {
      "anonymous": false,
      "inputs": [
        {
          "indexed": false,
          "internalType": "address",
          "name": "account",
          "type": "address"
        }
      ],
      "name": "Unpaused",
      "type": "event"
    },
    {
      "inputs": [],
      "name": "_admin",
      "outputs": [
        {
          "internalType": "address",
          "name": "",
          "type": "address"
        }
      ],
      "stateMutability": "view",
      "type": "function"
    },
    {
      "inputs": [],
      "name": "_algorithm",
      "outputs": [
        {
          "internalType": "string",
          "name": "",
          "type": "string"
        }
      ],
      "stateMutability": "view",
      "type": "function"
    },
    {
      "inputs": [],
      "name": "_counter",
      "outputs": [
        {
          "internalType": "uint256",
          "name": "",
          "type": "uint256"
        }
      ],
      "stateMutability": "view",
      "type": "function"
    },
    {
      "inputs": [],
      "name": "_fee",
      "outputs": [
        {
          "internalType": "uint256",
          "name": "",
          "type": "uint256"
        }
      ],
      "stateMutability": "view",
      "type": "function"
    },
    {
      "inputs": [
        {
          "internalType": "string",
          "name": "",
          "type": "string"
        }
      ],
      "name": "_moods",
      "outputs": [
        {
          "internalType": "string",
          "name": "tempEmo",
          "type": "string"
        },
        {
          "internalType": "uint256",
          "name": "tempLastTime",
          "type": "uint256"
        }
      ],
      "stateMutability": "view",
      "type": "function"
    },
    {
      "inputs": [],
      "name": "_oracle",
      "outputs": [
        {
          "internalType": "address",
          "name": "",
          "type": "address"
        }
      ],
      "stateMutability": "view",
      "type": "function"
    },
    {
      "inputs": [],
      "name": "_paramsAddress",
      "outputs": [
        {
          "internalType": "address",
          "name": "",
          "type": "address"
        }
      ],
      "stateMutability": "view",
      "type": "function"
    },
    {
      "inputs": [
        {
          "internalType": "bytes32",
          "name": "",
          "type": "bytes32"
        }
      ],
      "name": "_requestIdData",
      "outputs": [
        {
          "internalType": "bytes",
          "name": "",
          "type": "bytes"
        }
      ],
      "stateMutability": "view",
      "type": "function"
    },
    {
      "inputs": [],
      "name": "_tokenAddrErc721",
      "outputs": [
        {
          "internalType": "address",
          "name": "",
          "type": "address"
        }
      ],
      "stateMutability": "view",
      "type": "function"
    },
    {
      "inputs": [],
      "name": "_uri",
      "outputs": [
        {
          "internalType": "string",
          "name": "",
          "type": "string"
        }
      ],
      "stateMutability": "view",
      "type": "function"
    },
    {
      "inputs": [],
      "name": "_whitelistFee",
      "outputs": [
        {
          "internalType": "uint256",
          "name": "",
          "type": "uint256"
        }
      ],
      "stateMutability": "view",
      "type": "function"
    },
    {
      "inputs": [
        {
          "internalType": "address",
          "name": "to",
          "type": "address"
        },
        {
          "internalType": "uint256",
          "name": "tokenId",
          "type": "uint256"
        }
      ],
      "name": "approve",
      "outputs": [],
      "stateMutability": "nonpayable",
      "type": "function"
    },
    {
      "inputs": [
        {
          "internalType": "address",
          "name": "owner",
          "type": "address"
        }
      ],
      "name": "balanceOf",
      "outputs": [
        {
          "internalType": "uint256",
          "name": "",
          "type": "uint256"
        }
      ],
      "stateMutability": "view",
      "type": "function"
    },
    {
      "inputs": [
        {
          "internalType": "address",
          "name": "newAdm",
          "type": "address"
        }
      ],
      "name": "changeAdmin",
      "outputs": [],
      "stateMutability": "nonpayable",
      "type": "function"
    },
    {
      "inputs": [
        {
          "internalType": "string",
          "name": "baseURI",
          "type": "string"
        }
      ],
      "name": "changeBaseURI",
      "outputs": [],
      "stateMutability": "nonpayable",
      "type": "function"
    },
    {
      "inputs": [
        {
          "internalType": "address",
          "name": "oracle",
          "type": "address"
        }
      ],
      "name": "changeOracle",
      "outputs": [],
      "stateMutability": "nonpayable",
      "type": "function"
    },
    {
      "inputs": [
        {
          "internalType": "address",
          "name": "sweet",
          "type": "address"
        }
      ],
      "name": "changeToken",
      "outputs": [],
      "stateMutability": "nonpayable",
      "type": "function"
    },
    {
      "inputs": [
        {
          "internalType": "bytes32",
          "name": "requestId",
          "type": "bytes32"
        },
        {
          "internalType": "bytes",
          "name": "gameData",
          "type": "bytes"
        }
      ],
      "name": "fulfill",
      "outputs": [],
      "stateMutability": "nonpayable",
      "type": "function"
    },
    {
      "inputs": [
        {
          "internalType": "uint256",
          "name": "tokenId",
          "type": "uint256"
        }
      ],
      "name": "getApproved",
      "outputs": [
        {
          "internalType": "address",
          "name": "",
          "type": "address"
        }
      ],
      "stateMutability": "view",
      "type": "function"
    },
    {
      "inputs": [
        {
          "internalType": "uint256",
          "name": "tokenId",
          "type": "uint256"
        }
      ],
      "name": "getParamValues",
      "outputs": [
        {
          "components": [
            {
              "internalType": "string",
              "name": "_emotion",
              "type": "string"
            },
            {
              "internalType": "string",
              "name": "_emotionTime",
              "type": "string"
            },
            {
              "internalType": "string",
              "name": "_nation",
              "type": "string"
            },
            {
              "internalType": "string",
              "name": "_dna",
              "type": "string"
            },
            {
              "internalType": "string",
              "name": "_beard",
              "type": "string"
            },
            {
              "internalType": "string",
              "name": "_hair",
              "type": "string"
            },
            {
              "internalType": "string",
              "name": "_undershirt",
              "type": "string"
            },
            {
              "internalType": "string",
              "name": "_shoes",
              "type": "string"
            },
            {
              "internalType": "string",
              "name": "_top",
              "type": "string"
            },
            {
              "internalType": "string",
              "name": "_bottom",
              "type": "string"
            },
            {
              "internalType": "uint256",
              "name": "_number",
              "type": "uint256"
            },
            {
              "internalType": "string",
              "name": "_tattoo",
              "type": "string"
            },
            {
              "internalType": "string",
              "name": "_glasses",
              "type": "string"
            },
            {
              "internalType": "string",
              "name": "_captain",
              "type": "string"
            },
            {
              "internalType": "string",
              "name": "_facePaint",
              "type": "string"
            }
          ],
          "internalType": "struct AVATARS.Player",
          "name": "player",
          "type": "tuple"
        }
      ],
      "stateMutability": "view",
      "type": "function"
    },
    {
      "inputs": [
        {
          "internalType": "string",
          "name": "name",
          "type": "string"
        },
        {
          "internalType": "string",
          "name": "symbol",
          "type": "string"
        },
        {
          "internalType": "address",
          "name": "admin",
          "type": "address"
        },
        {
          "internalType": "address",
          "name": "paramsAddress",
          "type": "address"
        }
      ],
      "name": "initialize",
      "outputs": [],
      "stateMutability": "nonpayable",
      "type": "function"
    },
    {
      "inputs": [
        {
          "internalType": "address",
          "name": "owner",
          "type": "address"
        },
        {
          "internalType": "address",
          "name": "operator",
          "type": "address"
        }
      ],
      "name": "isApprovedForAll",
      "outputs": [
        {
          "internalType": "bool",
          "name": "",
          "type": "bool"
        }
      ],
      "stateMutability": "view",
      "type": "function"
    },
    {
      "inputs": [],
      "name": "mint",
      "outputs": [],
      "stateMutability": "payable",
      "type": "function"
    },
    {
      "inputs": [
        {
          "internalType": "uint256",
          "name": "tokenIdGated",
          "type": "uint256"
        }
      ],
      "name": "mintByToken",
      "outputs": [],
      "stateMutability": "nonpayable",
      "type": "function"
    },
    {
      "inputs": [],
      "name": "mintWhitelist",
      "outputs": [],
      "stateMutability": "payable",
      "type": "function"
    },
    {
      "inputs": [],
      "name": "name",
      "outputs": [
        {
          "internalType": "string",
          "name": "",
          "type": "string"
        }
      ],
      "stateMutability": "view",
      "type": "function"
    },
    {
      "inputs": [],
      "name": "owner",
      "outputs": [
        {
          "internalType": "address",
          "name": "",
          "type": "address"
        }
      ],
      "stateMutability": "view",
      "type": "function"
    },
    {
      "inputs": [
        {
          "internalType": "uint256",
          "name": "id",
          "type": "uint256"
        }
      ],
      "name": "ownerMint",
      "outputs": [],
      "stateMutability": "nonpayable",
      "type": "function"
    },
    {
      "inputs": [
        {
          "internalType": "uint256",
          "name": "tokenId",
          "type": "uint256"
        }
      ],
      "name": "ownerOf",
      "outputs": [
        {
          "internalType": "address",
          "name": "",
          "type": "address"
        }
      ],
      "stateMutability": "view",
      "type": "function"
    },
    {
      "inputs": [],
      "name": "pause",
      "outputs": [],
      "stateMutability": "nonpayable",
      "type": "function"
    },
    {
      "inputs": [],
      "name": "paused",
      "outputs": [
        {
          "internalType": "bool",
          "name": "",
          "type": "bool"
        }
      ],
      "stateMutability": "view",
      "type": "function"
    },
    {
      "inputs": [],
      "name": "renounceOwnership",
      "outputs": [],
      "stateMutability": "nonpayable",
      "type": "function"
    },
    {
      "inputs": [
        {
          "internalType": "uint256",
          "name": "_tokenId",
          "type": "uint256"
        },
        {
          "internalType": "uint256",
          "name": "_salePrice",
          "type": "uint256"
        }
      ],
      "name": "royaltyInfo",
      "outputs": [
        {
          "internalType": "address",
          "name": "receiver",
          "type": "address"
        },
        {
          "internalType": "uint256",
          "name": "royaltyAmount",
          "type": "uint256"
        }
      ],
      "stateMutability": "view",
      "type": "function"
    },
    {
      "inputs": [
        {
          "internalType": "address",
          "name": "from",
          "type": "address"
        },
        {
          "internalType": "address",
          "name": "to",
          "type": "address"
        },
        {
          "internalType": "uint256",
          "name": "tokenId",
          "type": "uint256"
        }
      ],
      "name": "safeTransferFrom",
      "outputs": [],
      "stateMutability": "nonpayable",
      "type": "function"
    },
    {
      "inputs": [
        {
          "internalType": "address",
          "name": "from",
          "type": "address"
        },
        {
          "internalType": "address",
          "name": "to",
          "type": "address"
        },
        {
          "internalType": "uint256",
          "name": "tokenId",
          "type": "uint256"
        },
        {
          "internalType": "bytes",
          "name": "data",
          "type": "bytes"
        }
      ],
      "name": "safeTransferFrom",
      "outputs": [],
      "stateMutability": "nonpayable",
      "type": "function"
    },
    {
      "inputs": [
        {
          "internalType": "string",
          "name": "algo",
          "type": "string"
        }
      ],
      "name": "setAlgo",
      "outputs": [],
      "stateMutability": "nonpayable",
      "type": "function"
    },
    {
      "inputs": [
        {
          "internalType": "address",
          "name": "operator",
          "type": "address"
        },
        {
          "internalType": "bool",
          "name": "approved",
          "type": "bool"
        }
      ],
      "name": "setApprovalForAll",
      "outputs": [],
      "stateMutability": "nonpayable",
      "type": "function"
    },
    {
      "inputs": [
        {
          "internalType": "uint256",
          "name": "fee",
          "type": "uint256"
        }
      ],
      "name": "setFee",
      "outputs": [],
      "stateMutability": "nonpayable",
      "type": "function"
    },
    {
      "inputs": [
        {
          "internalType": "uint256",
          "name": "whitelistFee",
          "type": "uint256"
        }
      ],
      "name": "setWhitelistFee",
      "outputs": [],
      "stateMutability": "nonpayable",
      "type": "function"
    },
    {
      "inputs": [
        {
          "internalType": "bytes4",
          "name": "interfaceId",
          "type": "bytes4"
        }
      ],
      "name": "supportsInterface",
      "outputs": [
        {
          "internalType": "bool",
          "name": "",
          "type": "bool"
        }
      ],
      "stateMutability": "view",
      "type": "function"
    },
    {
      "inputs": [],
      "name": "symbol",
      "outputs": [
        {
          "internalType": "string",
          "name": "",
          "type": "string"
        }
      ],
      "stateMutability": "view",
      "type": "function"
    },
    {
      "inputs": [
        {
          "internalType": "uint256",
          "name": "tokenId",
          "type": "uint256"
        }
      ],
      "name": "tokenURI",
      "outputs": [
        {
          "internalType": "string",
          "name": "",
          "type": "string"
        }
      ],
      "stateMutability": "view",
      "type": "function"
    },
    {
      "inputs": [
        {
          "internalType": "address",
          "name": "from",
          "type": "address"
        },
        {
          "internalType": "address",
          "name": "to",
          "type": "address"
        },
        {
          "internalType": "uint256",
          "name": "tokenId",
          "type": "uint256"
        }
      ],
      "name": "transferFrom",
      "outputs": [],
      "stateMutability": "nonpayable",
      "type": "function"
    },
    {
      "inputs": [
        {
          "internalType": "address",
          "name": "newOwner",
          "type": "address"
        }
      ],
      "name": "transferOwnership",
      "outputs": [],
      "stateMutability": "nonpayable",
      "type": "function"
    },
    {
      "inputs": [],
      "name": "unpause",
      "outputs": [],
      "stateMutability": "nonpayable",
      "type": "function"
    },
    {
      "inputs": [
        {
          "internalType": "uint256",
          "name": "amount",
          "type": "uint256"
        }
      ],
      "name": "withdraw",
      "outputs": [],
      "stateMutability": "nonpayable",
      "type": "function"
    }
  ],
  "bytecode": "0x608060405234801561001057600080fd5b50614bd5806100206000396000f3fe60806040526004361061027d5760003560e01c806370a082311161014f578063a22cb465116100c1578063c87b56dd1161007a578063c87b56dd14610768578063d597831414610788578063e653c650146107a8578063e985e9c5146107c9578063f19e75d4146107e9578063f2fde38b1461080957600080fd5b8063a22cb465146106a3578063adfc7dae146106c3578063b88d4fde146106e4578063c0dca23914610704578063c5b37c2214610731578063c6283c381461074857600080fd5b80638456cb59116101135780638456cb59146106055780638da5cb5b1461061a5780638f15b414146106395780638f2839701461065957806395d89b4114610679578063a1bb1fcc1461068e57600080fd5b806370a0823114610579578063715018a6146105995780637c1de7e1146105ae5780637cd49fde146105ce57806380d953dd146105e557600080fd5b80632a55205a116101f357806347c421b5116101ac57806347c421b5146104bc5780635275f37a146104dc5780635c975abb146105015780636352211e1461051957806366829b161461053957806369fe0e2d1461055957600080fd5b80632a55205a146104005780632d3df31f1461043f5780632e1a7d4d1461044757806339a0c6f9146104675780633f4ba83a1461048757806342842e0e1461049c57600080fd5b8063081812fc11610245578063081812fc14610362578063095ea7b3146103825780630dccc9ad146103a25780631249c58b146103b757806323b872dd146103bf578063247ac063146103df57600080fd5b806301bc45c91461028257806301ffc9a7146102c057806303f119ed146102f057806306fdde031461031e5780630764da1d14610340575b600080fd5b34801561028e57600080fd5b5061015f546102a3906001600160a01b031681565b6040516001600160a01b0390911681526020015b60405180910390f35b3480156102cc57600080fd5b506102e06102db3660046141e1565b610829565b60405190151581526020016102b7565b3480156102fc57600080fd5b5061031061030b3660046142c3565b61087b565b6040516102b7929190614350565b34801561032a57600080fd5b5061033361092b565b6040516102b79190614372565b34801561034c57600080fd5b5061036061035b3660046142c3565b6109bd565b005b34801561036e57600080fd5b506102a361037d366004614385565b610a26565b34801561038e57600080fd5b5061036061039d3660046143ba565b610a4d565b3480156103ae57600080fd5b50610333610b63565b610360610bf2565b3480156103cb57600080fd5b506103606103da3660046143e4565b610c79565b3480156103eb57600080fd5b50610161546102a3906001600160a01b031681565b34801561040c57600080fd5b5061042061041b366004614420565b610caa565b604080516001600160a01b0390931683526020830191909152016102b7565b610360610cdb565b34801561045357600080fd5b50610360610462366004614385565b610d2a565b34801561047357600080fd5b506103606104823660046142c3565b610e28565b34801561049357600080fd5b50610360610e84565b3480156104a857600080fd5b506103606104b73660046143e4565b610ed4565b3480156104c857600080fd5b506103606104d7366004614442565b610eef565b3480156104e857600080fd5b506104f36101695481565b6040519081526020016102b7565b34801561050d57600080fd5b5060975460ff166102e0565b34801561052557600080fd5b506102a3610534366004614385565b610f9c565b34801561054557600080fd5b50610360610554366004614442565b610ffc565b34801561056557600080fd5b50610360610574366004614385565b611067565b34801561058557600080fd5b506104f3610594366004614442565b6110b5565b3480156105a557600080fd5b5061036061113b565b3480156105ba57600080fd5b506103606105c936600461445d565b61114d565b3480156105da57600080fd5b506104f36101645481565b3480156105f157600080fd5b50610360610600366004614385565b6114ac565b34801561061157600080fd5b50610360611604565b34801561062657600080fd5b5061012d546001600160a01b03166102a3565b34801561064557600080fd5b506103606106543660046144a4565b611654565b34801561066557600080fd5b50610360610674366004614442565b6117f8565b34801561068557600080fd5b50610333611894565b34801561069a57600080fd5b506103336118a3565b3480156106af57600080fd5b506103606106be366004614529565b6118b1565b3480156106cf57600080fd5b50610160546102a3906001600160a01b031681565b3480156106f057600080fd5b506103606106ff366004614565565b6118bc565b34801561071057600080fd5b5061072461071f366004614385565b6118f4565b6040516102b791906145cd565b34801561073d57600080fd5b506104f36101675481565b34801561075457600080fd5b50610360610763366004614385565b611be9565b34801561077457600080fd5b50610333610783366004614385565b611c37565b34801561079457600080fd5b506103336107a3366004614385565b611c9e565b3480156107b457600080fd5b50610166546102a3906001600160a01b031681565b3480156107d557600080fd5b506102e06107e436600461478a565b611cb8565b3480156107f557600080fd5b50610360610804366004614385565b611ce6565b34801561081557600080fd5b50610360610824366004614442565b611d57565b60006001600160e01b031982166380ac58cd60e01b148061085a57506001600160e01b03198216635b5e139f60e01b145b8061087557506301ffc9a760e01b6001600160e01b03198316145b92915050565b805160208183018101805161016a825292820191909301209152805481906108a2906147b4565b80601f01602080910402602001604051908101604052809291908181526020018280546108ce906147b4565b801561091b5780601f106108f05761010080835404028352916020019161091b565b820191906000526020600020905b8154815290600101906020018083116108fe57829003601f168201915b5050505050908060010154905082565b60606065805461093a906147b4565b80601f0160208091040260200160405190810160405280929190818152602001828054610966906147b4565b80156109b35780601f10610988576101008083540402835291602001916109b3565b820191906000526020600020905b81548152906001019060200180831161099657829003601f168201915b5050505050905090565b61015f5460408051808201909152600381526231303160e81b6020820152906001600160a01b03163314610a0d5760405162461bcd60e51b8152600401610a049190614372565b60405180910390fd5b508051610a229061016390602084019061410b565b5050565b6000610a3182611dcd565b506000908152606960205260409020546001600160a01b031690565b6000610a5882610f9c565b9050806001600160a01b0316836001600160a01b03161415610ac65760405162461bcd60e51b815260206004820152602160248201527f4552433732313a20617070726f76616c20746f2063757272656e74206f776e656044820152603960f91b6064820152608401610a04565b336001600160a01b0382161480610ae25750610ae28133611cb8565b610b545760405162461bcd60e51b815260206004820152603e60248201527f4552433732313a20617070726f76652063616c6c6572206973206e6f7420746f60448201527f6b656e206f776e6572206e6f7220617070726f76656420666f7220616c6c00006064820152608401610a04565b610b5e8383611e2c565b505050565b6101658054610b71906147b4565b80601f0160208091040260200160405190810160405280929190818152602001828054610b9d906147b4565b8015610bea5780601f10610bbf57610100808354040283529160200191610bea565b820191906000526020600020905b815481529060010190602001808311610bcd57829003601f168201915b505050505081565b600061016754118015610c085750610167543410155b6040518060400160405280600381526020016232303160e81b81525090610c425760405162461bcd60e51b8152600401610a049190614372565b506123286101645410610c5457600080fd5b6101648054906000610c6583614805565b9190505550610c773361016454611e9a565b565b610c833382611eb4565b610c9f5760405162461bcd60e51b8152600401610a0490614820565b610b5e838383611f13565b61015f546001600160a01b03166000612710610cc8846101f461486e565b610cd291906148a3565b90509250929050565b600061016954118015610c085750610169543410156040518060400160405280600381526020016232303160e81b81525090610c425760405162461bcd60e51b8152600401610a049190614372565b600260fb541415610d7d5760405162461bcd60e51b815260206004820152601f60248201527f5265656e7472616e637947756172643a207265656e7472616e742063616c6c006044820152606401610a04565b600260fb5561015f5460408051808201909152600381526231303160e81b6020820152906001600160a01b03163314610dc95760405162461bcd60e51b8152600401610a049190614372565b50604051600090339047908381818185875af1925050503d8060008114610e0c576040519150601f19603f3d011682016040523d82523d6000602084013e610e11565b606091505b5050905080610e1f57600080fd5b5050600160fb55565b61015f5460408051808201909152600381526231303160e81b6020820152906001600160a01b03163314610e6f5760405162461bcd60e51b8152600401610a049190614372565b508051610a229061016590602084019061410b565b61015f5460408051808201909152600381526231303160e81b6020820152906001600160a01b03163314610ecb5760405162461bcd60e51b8152600401610a049190614372565b50610c776120ba565b610b5e838383604051806020016040528060008152506118bc565b61015f5460408051808201909152600381526231303160e81b6020820152906001600160a01b03163314610f365760405162461bcd60e51b8152600401610a049190614372565b5060408051808201909152600381526203130360ec1b60208201526001600160a01b038216610f785760405162461bcd60e51b8152600401610a049190614372565b5061016180546001600160a01b0319166001600160a01b0392909216919091179055565b6000818152606760205260408120546001600160a01b0316806108755760405162461bcd60e51b8152602060048201526018602482015277115490cdcc8c4e881a5b9d985b1a59081d1bdad95b88125160421b6044820152606401610a04565b61015f5460408051808201909152600381526231303160e81b6020820152906001600160a01b031633146110435760405162461bcd60e51b8152600401610a049190614372565b5061016680546001600160a01b0319166001600160a01b0392909216919091179055565b61015f5460408051808201909152600381526231303160e81b6020820152906001600160a01b031633146110ae5760405162461bcd60e51b8152600401610a049190614372565b5061016755565b60006001600160a01b03821661111f5760405162461bcd60e51b815260206004820152602960248201527f4552433732313a2061646472657373207a65726f206973206e6f7420612076616044820152683634b21037bbb732b960b91b6064820152608401610a04565b506001600160a01b031660009081526068602052604090205490565b61114361210c565b610c776000612167565b6101615460408051808201909152600381526203130360ec1b6020820152906001600160a01b031633146111945760405162461bcd60e51b8152600401610a049190614372565b50806040516111a391906148b7565b6040519081900381209083907fc6ef1c5f8f954d0251e9620ce4908018f1c31f432eb9b44fd9efb2ca569453f190600090a360008281526101626020526040902080546111ef906147b4565b6040805180820190915260038152620c8c0d60ea1b60208201529150156112295760405162461bcd60e51b8152600401610a049190614372565b50600082815261016260209081526040909120825161124a9284019061410b565b5060008060008060008060008780602001905181019061126a919061493e565b9650965096509650965096509650600061128a8460ff168460ff166121ba565b6040805160a081018252600160608201818152603160f81b6080840152825282518084018452818152601960f91b6020828101919091528084019190915283518085018552828152603360f81b91810191909152928201929092529192508260038111156112fa576112fa614a14565b141561138257806002602002015161016a8860405161131991906148b7565b9081526020016040518091039020600001908051906020019061133d92919061410b565b508060015b602002015161016a8760405161135891906148b7565b9081526020016040518091039020600001908051906020019061137c92919061410b565b50611453565b600282600381111561139657611396614a14565b14156113e057602081015160405161016a906113b3908a906148b7565b908152602001604051809103902060000190805190602001906113d792919061410b565b50806002611342565b805160405161016a906113f4908a906148b7565b9081526020016040518091039020600001908051906020019061141892919061410b565b50805160405161016a9061142d9089906148b7565b9081526020016040518091039020600001908051906020019061145192919061410b565b505b4261016a8860405161146591906148b7565b9081526020016040518091039020600101819055504261016a8760405161148c91906148b7565b908152604051908190036020019020600101555050505050505050505050565b6101665460408051808201909152600381526203130360ec1b6020820152906001600160a01b03166114f15760405162461bcd60e51b8152600401610a049190614372565b50612328610164541061150357600080fd5b610164805490600061151483614805565b91905055506115263361016454611e9a565b600761154f8260405180604001604052806005815260200164736861706560d81b8152506121e5565b6115599190614a40565b6040805180820190915260038152620c8c0d60ea1b602082015290156115925760405162461bcd60e51b8152600401610a049190614372565b50610166546040516323b872dd60e01b8152336004820152306024820152604481018390526001600160a01b039091169081906323b872dd90606401600060405180830381600087803b1580156115e857600080fd5b505af11580156115fc573d6000803e3d6000fd5b505050505050565b61015f5460408051808201909152600381526231303160e81b6020820152906001600160a01b0316331461164b5760405162461bcd60e51b8152600401610a049190614372565b50610c77612221565b600054610100900460ff16158080156116745750600054600160ff909116105b8061168e5750303b15801561168e575060005460ff166001145b6116f15760405162461bcd60e51b815260206004820152602e60248201527f496e697469616c697a61626c653a20636f6e747261637420697320616c72656160448201526d191e481a5b9a5d1a585b1a5e995960921b6064820152608401610a04565b6000805460ff191660011790558015611714576000805461ff0019166101001790555b6001600160a01b0383161580159061173457506001600160a01b03821615155b6040518060400160405280600381526020016203130360ec1b8152509061176e5760405162461bcd60e51b8152600401610a049190614372565b50611779858561225e565b61016080546001600160a01b038085166001600160a01b03199283161790925561015f80549286169290911691909117905580156117f1576000805461ff0019169055604051600181527f7f26b83ff96e1f2b6a682f133852f6798a09c465da95921460cefb38474024989060200160405180910390a15b5050505050565b61015f546001600160a01b03163314801561181b57506001600160a01b03811615155b8015611836575061015f546001600160a01b03828116911614155b6040518060400160405280600381526020016231303160e81b815250906118705760405162461bcd60e51b8152600401610a049190614372565b5061015f80546001600160a01b0319166001600160a01b0392909216919091179055565b60606066805461093a906147b4565b6101638054610b71906147b4565b610a2233838361228f565b6118c63383611eb4565b6118e25760405162461bcd60e51b8152600401610a0490614820565b6118ee8484848461235e565b50505050565b61196d604051806101e001604052806060815260200160608152602001606081526020016060815260200160608152602001606081526020016060815260200160608152602001606081526020016060815260200160008152602001606081526020016060815260200160608152602001606081525090565b6040805160a081018252600160608201818152603160f81b6080840152825282518084018452818152601960f91b6020828101919091528084019190915283518085018552918252603360f81b908201529181019190915260006119d084612391565b90506000806119de866127f8565b91509150600061016a846040516119f591906148b7565b9081526040519081900360200190208054611a0f906147b4565b80601f0160208091040260200160405190810160405280929190818152602001828054611a3b906147b4565b8015611a885780601f10611a5d57610100808354040283529160200191611a88565b820191906000526020600020905b815481529060010190602001808311611a6b57829003601f168201915b50939450620151809350611aaa925086915085905060025b60200201516128dc565b15611ac157611aba81601e61486e565b9050611ae0565b611acd84846001611aa0565b15611ae057611add81600761486e565b90505b8061016a86604051611af291906148b7565b90815260200160405180910390206001015442611b0f9190614a54565b1115611b1a57855191505b604051806101e00160405280838152602001858152602001868152602001611b418a612935565b8152602001611b4f8a612aab565b8152602001611b5d8a612bcc565b8152602001611b6b8a612f47565b8152602001611b798a6132da565b8152602001611b878a613397565b8152602001611b958a613539565b8152602001611ba38a613654565b8152602001611bb18a6137a3565b8152602001611bbf8a6138b8565b8152602001611bcd8a613a1e565b8152602001611bdb8a613b61565b905298975050505050505050565b61015f5460408051808201909152600381526231303160e81b6020820152906001600160a01b03163314611c305760405162461bcd60e51b8152600401610a049190614372565b5061016955565b6060611c4282611dcd565b6000611c4c613bfc565b90506000815111611c6c5760405180602001604052806000815250611c97565b80611c7684613c0c565b604051602001611c87929190614a6b565b6040516020818303038152906040525b9392505050565b6101626020526000908152604090208054610b71906147b4565b6001600160a01b039182166000908152606a6020908152604080832093909416825291909152205460ff1690565b61015f5460408051808201909152600381526231303160e81b6020820152906001600160a01b03163314611d2d5760405162461bcd60e51b8152600401610a049190614372565b5061232881118015611d4157506127108111155b611d4a57600080fd5b611d543382611e9a565b50565b611d5f61210c565b6001600160a01b038116611dc45760405162461bcd60e51b815260206004820152602660248201527f4f776e61626c653a206e6577206f776e657220697320746865207a65726f206160448201526564647265737360d01b6064820152608401610a04565b611d5481612167565b6000818152606760205260409020546001600160a01b0316611d545760405162461bcd60e51b8152602060048201526018602482015277115490cdcc8c4e881a5b9d985b1a59081d1bdad95b88125160421b6044820152606401610a04565b600081815260696020526040902080546001600160a01b0319166001600160a01b0384169081179091558190611e6182610f9c565b6001600160a01b03167f8c5be1e5ebec7d5bd14f71427d1e84f3dd0314c0f7b2291e5b200ac8c7c3b92560405160405180910390a45050565b610a22828260405180602001604052806000815250613d0a565b600080611ec083610f9c565b9050806001600160a01b0316846001600160a01b03161480611ee75750611ee78185611cb8565b80611f0b5750836001600160a01b0316611f0084610a26565b6001600160a01b0316145b949350505050565b826001600160a01b0316611f2682610f9c565b6001600160a01b031614611f8a5760405162461bcd60e51b815260206004820152602560248201527f4552433732313a207472616e736665722066726f6d20696e636f72726563742060448201526437bbb732b960d91b6064820152608401610a04565b6001600160a01b038216611fec5760405162461bcd60e51b8152602060048201526024808201527f4552433732313a207472616e7366657220746f20746865207a65726f206164646044820152637265737360e01b6064820152608401610a04565b611ff7838383613d3d565b612002600082611e2c565b6001600160a01b038316600090815260686020526040812080546001929061202b908490614a54565b90915550506001600160a01b0382166000908152606860205260408120805460019290612059908490614a9a565b909155505060008181526067602052604080822080546001600160a01b0319166001600160a01b0386811691821790925591518493918716917fddf252ad1be2c89b69c2b068fc378daa952ba7f163c4a11628f55a4df523b3ef91a4505050565b6120c2613da4565b6097805460ff191690557f5db9ee0a495bf2e6ff9c91a7834c1ba4fdd244a5e8aa4e537bd38aeae4b073aa335b6040516001600160a01b03909116815260200160405180910390a1565b61012d546001600160a01b03163314610c775760405162461bcd60e51b815260206004820181905260248201527f4f776e61626c653a2063616c6c6572206973206e6f7420746865206f776e65726044820152606401610a04565b61012d80546001600160a01b038381166001600160a01b0319831681179093556040519116919082907f8be0079c531659141344cd1fd0a4f28419497f9722a3daafe3b4186f6b6457e090600090a35050565b6000818311156121cc57506001610875565b818314156121dc57506003610875565b50600292915050565b6000816121f184613c0c565b604051602001612202929190614a6b565b60408051601f1981840301815291905280516020909101209392505050565b612229613ded565b6097805460ff191660011790557f62e78cea01bee320cd4e420270b5ea74000d11b0c9f74754ebdbfc544b05a2586120ef3390565b600054610100900460ff166122855760405162461bcd60e51b8152600401610a0490614ab2565b610a228282613e33565b816001600160a01b0316836001600160a01b031614156122f15760405162461bcd60e51b815260206004820152601960248201527f4552433732313a20617070726f766520746f2063616c6c6572000000000000006044820152606401610a04565b6001600160a01b038381166000818152606a6020908152604080832094871680845294825291829020805460ff191686151590811790915591519182527f17307eab39ab6107e8899845ad3d59bd9653f200f220920489ca2b5937696c31910160405180910390a3505050565b612369848484611f13565b61237584848484613e81565b6118ee5760405162461bcd60e51b8152600401610a0490614afd565b6040805161044081018252600561040082018181526428b0ba30b960d91b61042084015282528251808401845260078082526622b1bab0b237b960c91b60208381019190915280850192909252845180860186528181526614d95b9959d85b60ca1b818401528486015284518086018652600b8082526a4e65746865726c616e647360a81b828501526060868101929092528651808801885283815266115b99db185b9960ca1b818601526080870152865180880188528381526624a91024b930b760c91b8186015260a087015286518088018852600381526255534160e81b8186015260c0870152865180880188528581526457616c657360d81b8186015260e087015286518088018852600980825268417267656e74696e6160b81b8287015261010088019190915287518089018952600c81526b53617564692041726162696160a01b81870152610120880152875180890189526006808252654d657869636f60d01b828801526101408901919091528851808a018a5281815265141bdb185b9960d21b818801526101608901528851808a018a52818152654672616e636560d01b818801526101808901528851808a018a52918252684175737472616c696160b81b828701526101a0880191909152875180890189528481526644656e6d61726b60c81b818701526101c0880152875180890189528481526654756e6973696160c81b818701526101e0880152875180890189528681526429b830b4b760d91b8187015261020088015287518089018952600a815269436f737461205269636160b01b8187015261022088015287518089018952848152664765726d616e7960c81b8187015261024088015287518089018952868152642530b830b760d91b81870152610260880152875180890189528481526642656c6769756d60c81b81870152610280880152875180890189528181526543616e61646160d01b818701526102a088015287518089018952848152664d6f726f63636f60c81b818701526102c0880152875180890189528481526643726f6174696160c81b818701526102e08801528751808901895281815265109c985e9a5b60d21b81870152610300880152875180890189528181526553657262696160d01b81870152610320880152875180890189529182526a14ddda5d1e995c9b185b9960aa1b828601526103408701919091528651808801885260088082526721b0b6b2b937b7b760c11b828701526103608801919091528751808901895290815267141bdc9d1d59d85b60c21b8186015261038087015286518088018852948552644768616e6160d81b858501526103a086019490945285518087018752918252665572756775617960c81b828401526103c085019190915284518086018652600e81526d4b6f7265612052657075626c696360901b818401526103e08501528451808601909552918452653730ba34b7b760d11b8482015290928291906127d29086906121e5565b6127dc9190614a40565b602081106127ec576127ec614a2a565b60200201519392505050565b606061280261418f565b6040805160a081018252600160608201818152603160f81b6080840152825282518084018452818152601960f91b6020828101919091528084019190915283518085018552828152603360f81b81830152838501528351808501909452600b84526a656d6f74696f6e54696d6560a81b908401529091600091612889918791612710613f7f565b8251909150600182108015906128a157506107d08211155b156128b1575060208201516128d1565b6107d182101580156128c55750610bb88211155b156128d1575060408201515b959194509092505050565b6000816040516020016128ef91906148b7565b604051602081830303815290604052805190602001208360405160200161291691906148b7565b6040516020818303038152906040528051906020012014905092915050565b6040805161010081018252600160c08201818152603160f81b60e0840152825282518084018452818152601960f91b6020828101919091528084019190915283518085018552828152603360f81b818301528385015283518085018552828152600d60fa1b8183015260608481019190915284518086018652838152603560f81b81840152608085015284518086018652838152601b60f91b8184015260a085015284518086019095526003855262646e6160e81b9185019190915292600091612a03918691612710613f7f565b9050610bb8811115612a20578160005b6020020151949350505050565b60018110158015612a3357506107d08111155b15612a4057816001612a13565b6107d18110158015612a545750610a288111155b15612a6157816002612a13565b610a298110158015612a755750610b548111155b15612a8257816003612a13565b610b558110158015612a965750610bae8111155b15612aa357816004612a13565b816005612a13565b6040805160a08101825260016060828101828152600360fc1b6080850152835283518085018552828152603160f81b6020828101919091528085019190915284518086018652928352601960f91b90830152928201526000612b0c84612935565b9050612b3181604051806040016040528060018152602001603160f81b8152506128dc565b15612bac576000612b6485604051806040016040528060058152602001641899585c9960da1b8152506001611b58613f7f565b90506102bc811115612b82578260005b602002015195945050505050565b60018110158015612b9557506102308111155b15612ba257826001612b74565b826002612b74565b505b50506040805180820190915260018152600360fc1b602082015292915050565b60606000604051806101200160405280604051806040016040528060018152602001603160f81b8152508152602001604051806040016040528060018152602001601960f91b8152508152602001604051806040016040528060018152602001603360f81b8152508152602001604051806040016040528060018152602001600d60fa1b8152508152602001604051806040016040528060018152602001603560f81b8152508152602001604051806040016040528060018152602001601b60f91b8152508152602001604051806040016040528060018152602001603760f81b8152508152602001604051806040016040528060018152602001600760fb1b8152508152602001604051806040016040528060018152602001603960f81b815250815250905060006040518060e00160405280604051806040016040528060018152602001603160f81b8152508152602001604051806040016040528060018152602001601960f91b8152508152602001604051806040016040528060018152602001603360f81b8152508152602001604051806040016040528060018152602001600d60fa1b8152508152602001604051806040016040528060018152602001603560f81b8152508152602001604051806040016040528060018152602001601b60f91b8152508152602001604051806040016040528060018152602001603760f81b81525081525090506000612de485612935565b9050612e0981604051806040016040528060018152602001601960f91b8152506128dc565b15612e5157816007612e3787604051806040016040528060048152602001633430b4b960e11b8152506121e5565b612e419190614a40565b60078110612b7457612b74614a2a565b612e7481604051806040016040528060018152602001603160f81b8152506128dc565b15612f26576000612ea686604051806040016040528060048152602001633430b4b960e11b8152506001611b58613f7f565b9050611acc811115612ed45750506040805180820190915260018152600360fc1b6020820152949350505050565b836009612efd88604051806040016040528060048152602001633430b4b960e11b8152506121e5565b612f079190614a40565b60098110612f1757612f17614a2a565b60200201519695505050505050565b50506040805180820190915260018152600360fc1b60208201529392505050565b604080516101c08101825260016101808201818152603160f81b6101a0840152825282518084018452818152601960f91b6020828101919091528084019190915283518085018552828152603360f81b818301528385015283518085018552828152600d60fa1b8183015260608481019190915284518086018652838152603560f81b8184015260808086019190915285518087018752848152601b60f91b8185015260a08087019190915286518088018852858152603760f81b8186015260c08088019190915287518089018952868152600760fb1b8187015260e0808901919091528851808a018a52968752603960f81b8787015261010088019690965287518089018952600280825261031360f41b828801526101208901919091528851808a018a5281815261313160f01b818801526101408901528851808a018a5281815261189960f11b818801526101608901528851968701895291860182815261313360f01b91870191909152855286518088018852818152610c4d60f21b81860152858501528651808801885281815261313560f01b81860152858801528651808801885281815261189b60f11b81860152858401528651808801909752865261313760f01b9286019290925290820193909352600061312785612935565b905061314c81604051806040016040528060018152602001603160f81b8152506128dc565b15612f2657600061315c86613397565b905061318181604051806040016040528060018152602001603160f81b8152506128dc565b156132b857600061319187613654565b905080156132b65760006131cc886040518060400160405280600a8152602001691d5b99195c9cda1a5c9d60b21b8152506001610ccc613f7f565b905061051e81106131fb5750506040805180820190915260018152600360fc1b60208201529695505050505050565b6001811015801561320e57506103d68111155b1561326d5785600c6132428a6040518060400160405280600a8152602001691d5b99195c9cda1a5c9d60b21b8152506121e5565b61324c9190614a40565b600c811061325c5761325c614a2a565b602002015198975050505050505050565b84600561329c8a6040518060400160405280600a8152602001691d5b99195c9cda1a5c9d60b21b8152506121e5565b6132a69190614a40565b6005811061325c5761325c614a2a565b505b5050506040805180820190915260018152600360fc1b60208201529392505050565b6040805160a08101825260016060828101828152603160f81b6080850152835283518085018552828152601960f91b6020828101919091528085019190915284518086018652838152603360f81b81830152848601528451808601909552600585526473686f657360d81b908501529260009161335b918691612710613f7f565b90506103e881111561336f57816000612a13565b6001811015801561338257506103848111155b1561338f57816001612a13565b816002612a13565b6040805160a0808201835260016060838101828152603160f81b608080870182905291865286518088018852848152601960f91b6020828101829052808901929092528851808a018a52868152603360f81b81840152888a0152885196870189528685018681529387019290925291855286518088018852848152808301919091528482015285518087018752928352600d60fa1b9083015293820152600061343f85612935565b905061346481604051806040016040528060018152602001601960f91b8152506128dc565b156134d157600061349586604051806040016040528060038152602001620746f760ec1b81525060016107d0613f7f565b90506103208111156134a957826000612f17565b600181101580156134bc57506102588111155b156134c957826001612f17565b826002612f17565b60006134fd86604051806040016040528060038152602001620746f760ec1b8152506001611f40613f7f565b9050610c8081111561351157836000612f17565b6001811015801561352457506109608111155b1561353157836001612f17565b836002612f17565b60408051608080820183526001828401818152603360f81b60608581019190915290845284518086018652828152600d60fa1b6020828101919091528086019190915285519384018652838601838152603160f81b8584015284528551808701909652918552601960f91b858301529082019390935260006135ba85612935565b90506135df81604051806040016040528060018152602001601960f91b8152506128dc565b156136295782600261360f8760405180604001604052806006815260200165626f74746f6d60d01b8152506121e5565b6136199190614a40565b60028110612b7457612b74614a2a565b81600261360f8760405180604001604052806006815260200165626f74746f6d60d01b8152506121e5565b600080604051806103400160405280600181526020016002815260200160038152602001600481526020016005815260200160068152602001600781526020016008815260200160098152602001600a8152602001600b8152602001600c8152602001600d8152602001600e8152602001600f815260200160108152602001601181526020016012815260200160138152602001601481526020016015815260200160168152602001601781526020016018815260200160198152602001601a815250905060006137488460405180604001604052806006815260200165373ab6b132b960d11b8152506001612710613f7f565b9050611e7881111561375e575060009392505050565b81601a6137898660405180604001604052806006815260200165373ab6b132b960d11b8152506121e5565b6137939190614a40565b601a8110612a1357612a13614a2a565b606060006040518060800160405280604051806040016040528060018152602001600360fc1b8152508152602001604051806040016040528060018152602001603160f81b8152508152602001604051806040016040528060018152602001601960f91b8152508152602001604051806040016040528060018152602001603360f81b8152508152509050600061385d8460405180604001604052806006815260200165746174746f6f60d01b8152506001612710613f7f565b90506109c481111561387157816000612a13565b60018110158015613883575060648111155b1561389057816001612a13565b606581101580156138a357506101f48111155b156138b057816002612a13565b816003612a13565b6040805161010081018252600160c08201818152600360fc1b60e0840152825282518084018452818152603160f81b6020828101919091528084019190915283518085018552828152601960f91b818301528385015283518085018552828152603360f81b8183015260608481019190915284518086018652838152600d60fa1b81840152608085015284518086018652838152603560f81b8184015260a085015284518086019095526007855266676c617373657360c81b918501919091529260009161398a918691612710613f7f565b9050610fa081111561399e57816000612a13565b600181101580156139b157506107d08111155b156139be57816001612a13565b6107d181101580156139d25750610bb88111155b156139df57816002612a13565b610bb981101580156139f35750610dac8111155b15613a0057816003612a13565b610dad8110158015612a965750610f3c8111612aa357816004612a13565b606060006040518060400160405280604051806040016040528060018152602001600360fc1b8152508152602001604051806040016040528060018152602001603160f81b81525081525090506000613a7684612935565b9050613a9b81604051806040016040528060018152602001603160f81b8152506128dc565b15612bac576000613aab85613397565b9050613ad081604051806040016040528060018152602001603160f81b8152506128dc565b15612baa576000613ae086613654565b90508015613b3f576000613b18876040518060400160405280600781526020016631b0b83a30b4b760c91b8152506001610ccc613f7f565b90506101478110613b37578460005b6020020151979650505050505050565b846001613b27565b505050506040805180820190915260018152600360fc1b602082015292915050565b606060006040518060400160405280604051806040016040528060018152602001600360fc1b8152508152602001604051806040016040528060018152602001603160f81b81525081525090506000613be08460405180604001604052806009815260200168199858d95c185a5b9d60ba1b8152506001612710613f7f565b90506103e8811115613bf457816000612a13565b816001612a13565b6060610165805461093a906147b4565b606081613c305750506040805180820190915260018152600360fc1b602082015290565b8160005b8115613c5a5780613c4481614805565b9150613c539050600a836148a3565b9150613c34565b60008167ffffffffffffffff811115613c7557613c756141fe565b6040519080825280601f01601f191660200182016040528015613c9f576020820181803683370190505b5090505b8415611f0b57613cb4600183614a54565b9150613cc1600a86614a40565b613ccc906030614a9a565b60f81b818381518110613ce157613ce1614a2a565b60200101906001600160f81b031916908160001a905350613d03600a866148a3565b9450613ca3565b613d148383613fbd565b613d216000848484613e81565b610b5e5760405162461bcd60e51b8152600401610a0490614afd565b60975460ff1615610b5e5760405162461bcd60e51b815260206004820152602b60248201527f4552433732315061757361626c653a20746f6b656e207472616e73666572207760448201526a1a1a5b19481c185d5cd95960aa1b6064820152608401610a04565b60975460ff16610c775760405162461bcd60e51b815260206004820152601460248201527314185d5cd8589b194e881b9bdd081c185d5cd95960621b6044820152606401610a04565b60975460ff1615610c775760405162461bcd60e51b815260206004820152601060248201526f14185d5cd8589b194e881c185d5cd95960821b6044820152606401610a04565b600054610100900460ff16613e5a5760405162461bcd60e51b8152600401610a0490614ab2565b8151613e6d90606590602085019061410b565b508051610b5e90606690602084019061410b565b60006001600160a01b0384163b15613f7457604051630a85bd0160e11b81526001600160a01b0385169063150b7a0290613ec5903390899088908890600401614b4f565b6020604051808303816000875af1925050508015613f00575060408051601f3d908101601f19168201909252613efd91810190614b82565b60015b613f5a573d808015613f2e576040519150601f19603f3d011682016040523d82523d6000602084013e613f33565b606091505b508051613f525760405162461bcd60e51b8152600401610a0490614afd565b805181602001fd5b6001600160e01b031916630a85bd0160e11b149050611f0b565b506001949350505050565b6000613f8b8383614a54565b613f96906001614a9a565b613fa086866121e5565b613faa9190614a40565b613fb49084614a9a565b95945050505050565b6001600160a01b0382166140135760405162461bcd60e51b815260206004820181905260248201527f4552433732313a206d696e7420746f20746865207a65726f20616464726573736044820152606401610a04565b6000818152606760205260409020546001600160a01b0316156140785760405162461bcd60e51b815260206004820152601c60248201527f4552433732313a20746f6b656e20616c7265616479206d696e746564000000006044820152606401610a04565b61408460008383613d3d565b6001600160a01b03821660009081526068602052604081208054600192906140ad908490614a9a565b909155505060008181526067602052604080822080546001600160a01b0319166001600160a01b03861690811790915590518392907fddf252ad1be2c89b69c2b068fc378daa952ba7f163c4a11628f55a4df523b3ef908290a45050565b828054614117906147b4565b90600052602060002090601f016020900481019282614139576000855561417f565b82601f1061415257805160ff191683800117855561417f565b8280016001018555821561417f579182015b8281111561417f578251825591602001919060010190614164565b5061418b9291506141b6565b5090565b60405180606001604052806003905b606081526020019060019003908161419e5790505090565b5b8082111561418b57600081556001016141b7565b6001600160e01b031981168114611d5457600080fd5b6000602082840312156141f357600080fd5b8135611c97816141cb565b634e487b7160e01b600052604160045260246000fd5b604051601f8201601f1916810167ffffffffffffffff8111828210171561423d5761423d6141fe565b604052919050565b600067ffffffffffffffff82111561425f5761425f6141fe565b50601f01601f191660200190565b600082601f83011261427e57600080fd5b813561429161428c82614245565b614214565b8181528460208386010111156142a657600080fd5b816020850160208301376000918101602001919091529392505050565b6000602082840312156142d557600080fd5b813567ffffffffffffffff8111156142ec57600080fd5b611f0b8482850161426d565b60005b838110156143135781810151838201526020016142fb565b838111156118ee5750506000910152565b6000815180845261433c8160208601602086016142f8565b601f01601f19169290920160200192915050565b6040815260006143636040830185614324565b90508260208301529392505050565b602081526000611c976020830184614324565b60006020828403121561439757600080fd5b5035919050565b80356001600160a01b03811681146143b557600080fd5b919050565b600080604083850312156143cd57600080fd5b6143d68361439e565b946020939093013593505050565b6000806000606084860312156143f957600080fd5b6144028461439e565b92506144106020850161439e565b9150604084013590509250925092565b6000806040838503121561443357600080fd5b50508035926020909101359150565b60006020828403121561445457600080fd5b611c978261439e565b6000806040838503121561447057600080fd5b82359150602083013567ffffffffffffffff81111561448e57600080fd5b61449a8582860161426d565b9150509250929050565b600080600080608085870312156144ba57600080fd5b843567ffffffffffffffff808211156144d257600080fd5b6144de8883890161426d565b955060208701359150808211156144f457600080fd5b506145018782880161426d565b9350506145106040860161439e565b915061451e6060860161439e565b905092959194509250565b6000806040838503121561453c57600080fd5b6145458361439e565b91506020830135801515811461455a57600080fd5b809150509250929050565b6000806000806080858703121561457b57600080fd5b6145848561439e565b93506145926020860161439e565b925060408501359150606085013567ffffffffffffffff8111156145b557600080fd5b6145c18782880161426d565b91505092959194509250565b60208152600082516101e08060208501526145ec610200850183614324565b91506020850151601f198086850301604087015261460a8483614324565b935060408701519150808685030160608701526146278483614324565b935060608701519150808685030160808701526146448483614324565b935060808701519150808685030160a08701526146618483614324565b935060a08701519150808685030160c087015261467e8483614324565b935060c08701519150808685030160e087015261469b8483614324565b935060e087015191506101008187860301818801526146ba8584614324565b9450808801519250506101208187860301818801526146d98584614324565b9450808801519250506101408187860301818801526146f88584614324565b9450808801519250506101608281880152808801519250506101808187860301818801526147268584614324565b9450808801519250506101a08187860301818801526147458584614324565b9450808801519250506101c08187860301818801526147648584614324565b9088015187820390920184880152935090506147808382614324565b9695505050505050565b6000806040838503121561479d57600080fd5b6147a68361439e565b9150610cd26020840161439e565b600181811c908216806147c857607f821691505b602082108114156147e957634e487b7160e01b600052602260045260246000fd5b50919050565b634e487b7160e01b600052601160045260246000fd5b6000600019821415614819576148196147ef565b5060010190565b6020808252602e908201527f4552433732313a2063616c6c6572206973206e6f7420746f6b656e206f776e6560408201526d1c881b9bdc88185c1c1c9bdd995960921b606082015260800190565b6000816000190483118215151615614888576148886147ef565b500290565b634e487b7160e01b600052601260045260246000fd5b6000826148b2576148b261488d565b500490565b600082516148c98184602087016142f8565b9190910192915050565b805164ffffffffff811681146143b557600080fd5b600082601f8301126148f957600080fd5b815161490761428c82614245565b81815284602083860101111561491c57600080fd5b611f0b8260208301602087016142f8565b805160ff811681146143b557600080fd5b600080600080600080600060e0888a03121561495957600080fd5b875163ffffffff8116811461496d57600080fd5b965061497b602089016148d3565b9550604088015167ffffffffffffffff8082111561499857600080fd5b6149a48b838c016148e8565b965060608a01519150808211156149ba57600080fd5b6149c68b838c016148e8565b95506149d460808b0161492d565b94506149e260a08b0161492d565b935060c08a01519150808211156149f857600080fd5b50614a058a828b016148e8565b91505092959891949750929550565b634e487b7160e01b600052602160045260246000fd5b634e487b7160e01b600052603260045260246000fd5b600082614a4f57614a4f61488d565b500690565b600082821015614a6657614a666147ef565b500390565b60008351614a7d8184602088016142f8565b835190830190614a918183602088016142f8565b01949350505050565b60008219821115614aad57614aad6147ef565b500190565b6020808252602b908201527f496e697469616c697a61626c653a20636f6e7472616374206973206e6f74206960408201526a6e697469616c697a696e6760a81b606082015260800190565b60208082526032908201527f4552433732313a207472616e7366657220746f206e6f6e20455243373231526560408201527131b2b4bb32b91034b6b83632b6b2b73a32b960711b606082015260800190565b6001600160a01b038581168252841660208201526040810183905260806060820181905260009061478090830184614324565b600060208284031215614b9457600080fd5b8151611c97816141cb56fea26469706673582212207a44c31188206357f756fd555191790da8efd1569066eda5648456b5ed2d185f64736f6c634300080c0033",
  "linkReferences": {},
  "deployedLinkReferences": {}
}