{
  "_format": "hh-sol-artifact-1",
  "contractName": "AVATARS",
  "sourceName": "contracts/nft/AVATARS.sol",
  "abi": [
    {
      "inputs": [
        {
          "internalType": "address",
          "name": "operator",
          "type": "address"
        }
      ],
      "name": "OperatorNotAllowed",
      "type": "error"
    },
    {
      "anonymous": false,
      "inputs": [
        {
          "indexed": true,
          "internalType": "address",
          "name": "owner",
          "type": "address"
        },
        {
          "indexed": true,
          "internalType": "address",
          "name": "approved",
          "type": "address"
        },
        {
          "indexed": true,
          "internalType": "uint256",
          "name": "tokenId",
          "type": "uint256"
        }
      ],
      "name": "Approval",
      "type": "event"
    },
    {
      "anonymous": false,
      "inputs": [
        {
          "indexed": true,
          "internalType": "address",
          "name": "owner",
          "type": "address"
        },
        {
          "indexed": true,
          "internalType": "address",
          "name": "operator",
          "type": "address"
        },
        {
          "indexed": false,
          "internalType": "bool",
          "name": "approved",
          "type": "bool"
        }
      ],
      "name": "ApprovalForAll",
      "type": "event"
    },
    {
      "anonymous": false,
      "inputs": [
        {
          "indexed": false,
          "internalType": "uint8",
          "name": "version",
          "type": "uint8"
        }
      ],
      "name": "Initialized",
      "type": "event"
    },
    {
      "anonymous": false,
      "inputs": [
        {
          "indexed": true,
          "internalType": "address",
          "name": "previousOwner",
          "type": "address"
        },
        {
          "indexed": true,
          "internalType": "address",
          "name": "newOwner",
          "type": "address"
        }
      ],
      "name": "OwnershipTransferred",
      "type": "event"
    },
    {
      "anonymous": false,
      "inputs": [
        {
          "indexed": false,
          "internalType": "address",
          "name": "account",
          "type": "address"
        }
      ],
      "name": "Paused",
      "type": "event"
    },
    {
      "anonymous": false,
      "inputs": [
        {
          "indexed": true,
          "internalType": "bytes32",
          "name": "requestId",
          "type": "bytes32"
        },
        {
          "indexed": true,
          "internalType": "bytes",
          "name": "data",
          "type": "bytes"
        }
      ],
      "name": "RequestFulfilledData",
      "type": "event"
    },
    {
      "anonymous": false,
      "inputs": [
        {
          "indexed": true,
          "internalType": "address",
          "name": "from",
          "type": "address"
        },
        {
          "indexed": true,
          "internalType": "address",
          "name": "to",
          "type": "address"
        },
        {
          "indexed": true,
          "internalType": "uint256",
          "name": "tokenId",
          "type": "uint256"
        }
      ],
      "name": "Transfer",
      "type": "event"
    },
    {
      "anonymous": false,
      "inputs": [
        {
          "indexed": false,
          "internalType": "address",
          "name": "account",
          "type": "address"
        }
      ],
      "name": "Unpaused",
      "type": "event"
    },
    {
      "inputs": [],
      "name": "_admin",
      "outputs": [
        {
          "internalType": "address",
          "name": "",
          "type": "address"
        }
      ],
      "stateMutability": "view",
      "type": "function"
    },
    {
      "inputs": [],
      "name": "_algorithm",
      "outputs": [
        {
          "internalType": "string",
          "name": "",
          "type": "string"
        }
      ],
      "stateMutability": "view",
      "type": "function"
    },
    {
      "inputs": [],
      "name": "_counter",
      "outputs": [
        {
          "internalType": "uint256",
          "name": "",
          "type": "uint256"
        }
      ],
      "stateMutability": "view",
      "type": "function"
    },
    {
      "inputs": [],
      "name": "_fee",
      "outputs": [
        {
          "internalType": "uint256",
          "name": "",
          "type": "uint256"
        }
      ],
      "stateMutability": "view",
      "type": "function"
    },
    {
      "inputs": [],
      "name": "_limit",
      "outputs": [
        {
          "internalType": "uint256",
          "name": "",
          "type": "uint256"
        }
      ],
      "stateMutability": "view",
      "type": "function"
    },
    {
      "inputs": [
        {
          "internalType": "string",
          "name": "",
          "type": "string"
        }
      ],
      "name": "_moods",
      "outputs": [
        {
          "internalType": "string",
          "name": "tempEmo",
          "type": "string"
        },
        {
          "internalType": "uint256",
          "name": "tempLastTime",
          "type": "uint256"
        }
      ],
      "stateMutability": "view",
      "type": "function"
    },
    {
      "inputs": [],
      "name": "_oracle",
      "outputs": [
        {
          "internalType": "address",
          "name": "",
          "type": "address"
        }
      ],
      "stateMutability": "view",
      "type": "function"
    },
    {
      "inputs": [],
      "name": "_paramsAddress",
      "outputs": [
        {
          "internalType": "address",
          "name": "",
          "type": "address"
        }
      ],
      "stateMutability": "view",
      "type": "function"
    },
    {
      "inputs": [
        {
          "internalType": "bytes32",
          "name": "",
          "type": "bytes32"
        }
      ],
      "name": "_requestIdData",
      "outputs": [
        {
          "internalType": "bytes",
          "name": "",
          "type": "bytes"
        }
      ],
      "stateMutability": "view",
      "type": "function"
    },
    {
      "inputs": [],
      "name": "_tokenAddrErc721",
      "outputs": [
        {
          "internalType": "address",
          "name": "",
          "type": "address"
        }
      ],
      "stateMutability": "view",
      "type": "function"
    },
    {
      "inputs": [],
      "name": "_uri",
      "outputs": [
        {
          "internalType": "string",
          "name": "",
          "type": "string"
        }
      ],
      "stateMutability": "view",
      "type": "function"
    },
    {
      "inputs": [],
      "name": "_whitelistFee",
      "outputs": [
        {
          "internalType": "uint256",
          "name": "",
          "type": "uint256"
        }
      ],
      "stateMutability": "view",
      "type": "function"
    },
    {
      "inputs": [
        {
          "internalType": "address",
          "name": "to",
          "type": "address"
        },
        {
          "internalType": "uint256",
          "name": "tokenId",
          "type": "uint256"
        }
      ],
      "name": "approve",
      "outputs": [],
      "stateMutability": "nonpayable",
      "type": "function"
    },
    {
      "inputs": [
        {
          "internalType": "address",
          "name": "owner",
          "type": "address"
        }
      ],
      "name": "balanceOf",
      "outputs": [
        {
          "internalType": "uint256",
          "name": "",
          "type": "uint256"
        }
      ],
      "stateMutability": "view",
      "type": "function"
    },
    {
      "inputs": [
        {
          "internalType": "address",
          "name": "newAdm",
          "type": "address"
        }
      ],
      "name": "changeAdmin",
      "outputs": [],
      "stateMutability": "nonpayable",
      "type": "function"
    },
    {
      "inputs": [
        {
          "internalType": "string",
          "name": "baseURI",
          "type": "string"
        }
      ],
      "name": "changeBaseURI",
      "outputs": [],
      "stateMutability": "nonpayable",
      "type": "function"
    },
    {
      "inputs": [
        {
          "internalType": "address",
          "name": "oracle",
          "type": "address"
        }
      ],
      "name": "changeOracle",
      "outputs": [],
      "stateMutability": "nonpayable",
      "type": "function"
    },
    {
      "inputs": [
        {
          "internalType": "address",
          "name": "newP",
          "type": "address"
        }
      ],
      "name": "changeParam",
      "outputs": [],
      "stateMutability": "nonpayable",
      "type": "function"
    },
    {
      "inputs": [
        {
          "internalType": "address",
          "name": "sweet",
          "type": "address"
        }
      ],
      "name": "changeToken",
      "outputs": [],
      "stateMutability": "nonpayable",
      "type": "function"
    },
    {
      "inputs": [
        {
          "internalType": "bytes32",
          "name": "requestId",
          "type": "bytes32"
        },
        {
          "internalType": "bytes",
          "name": "gameData",
          "type": "bytes"
        }
      ],
      "name": "fulfill",
      "outputs": [],
      "stateMutability": "nonpayable",
      "type": "function"
    },
    {
      "inputs": [
        {
          "internalType": "uint256",
          "name": "tokenId",
          "type": "uint256"
        }
      ],
      "name": "getApproved",
      "outputs": [
        {
          "internalType": "address",
          "name": "",
          "type": "address"
        }
      ],
      "stateMutability": "view",
      "type": "function"
    },
    {
      "inputs": [
        {
          "internalType": "uint256",
          "name": "tokenId",
          "type": "uint256"
        }
      ],
      "name": "getParamValues",
      "outputs": [
        {
          "components": [
            {
              "internalType": "string",
              "name": "_emotion",
              "type": "string"
            },
            {
              "internalType": "string",
              "name": "_emotionTime",
              "type": "string"
            },
            {
              "internalType": "string",
              "name": "_nation",
              "type": "string"
            },
            {
              "internalType": "string",
              "name": "_dna",
              "type": "string"
            },
            {
              "internalType": "string",
              "name": "_beard",
              "type": "string"
            },
            {
              "internalType": "string",
              "name": "_hair",
              "type": "string"
            },
            {
              "internalType": "string",
              "name": "_undershirt",
              "type": "string"
            },
            {
              "internalType": "string",
              "name": "_shoes",
              "type": "string"
            },
            {
              "internalType": "string",
              "name": "_top",
              "type": "string"
            },
            {
              "internalType": "string",
              "name": "_bottom",
              "type": "string"
            },
            {
              "internalType": "uint256",
              "name": "_number",
              "type": "uint256"
            },
            {
              "internalType": "string",
              "name": "_tattoo",
              "type": "string"
            },
            {
              "internalType": "string",
              "name": "_glasses",
              "type": "string"
            },
            {
              "internalType": "string",
              "name": "_captain",
              "type": "string"
            },
            {
              "internalType": "string",
              "name": "_facePaint",
              "type": "string"
            }
          ],
          "internalType": "struct AVATARS.Player",
          "name": "player",
          "type": "tuple"
        }
      ],
      "stateMutability": "view",
      "type": "function"
    },
    {
      "inputs": [
        {
          "internalType": "string",
          "name": "name",
          "type": "string"
        },
        {
          "internalType": "string",
          "name": "symbol",
          "type": "string"
        },
        {
          "internalType": "address",
          "name": "admin",
          "type": "address"
        },
        {
          "internalType": "address",
          "name": "paramsAddress",
          "type": "address"
        }
      ],
      "name": "initialize",
      "outputs": [],
      "stateMutability": "nonpayable",
      "type": "function"
    },
    {
      "inputs": [
        {
          "internalType": "address",
          "name": "owner",
          "type": "address"
        },
        {
          "internalType": "address",
          "name": "operator",
          "type": "address"
        }
      ],
      "name": "isApprovedForAll",
      "outputs": [
        {
          "internalType": "bool",
          "name": "",
          "type": "bool"
        }
      ],
      "stateMutability": "view",
      "type": "function"
    },
    {
      "inputs": [],
      "name": "mint",
      "outputs": [],
      "stateMutability": "payable",
      "type": "function"
    },
    {
      "inputs": [
        {
          "internalType": "uint256",
          "name": "tokenIdGated",
          "type": "uint256"
        }
      ],
      "name": "mintByToken",
      "outputs": [],
      "stateMutability": "nonpayable",
      "type": "function"
    },
    {
      "inputs": [],
      "name": "mintWhitelist",
      "outputs": [],
      "stateMutability": "payable",
      "type": "function"
    },
    {
      "inputs": [],
      "name": "name",
      "outputs": [
        {
          "internalType": "string",
          "name": "",
          "type": "string"
        }
      ],
      "stateMutability": "view",
      "type": "function"
    },
    {
      "inputs": [],
      "name": "owner",
      "outputs": [
        {
          "internalType": "address",
          "name": "",
          "type": "address"
        }
      ],
      "stateMutability": "view",
      "type": "function"
    },
    {
      "inputs": [
        {
          "internalType": "uint256",
          "name": "id",
          "type": "uint256"
        }
      ],
      "name": "ownerMint",
      "outputs": [],
      "stateMutability": "nonpayable",
      "type": "function"
    },
    {
      "inputs": [
        {
          "internalType": "uint256",
          "name": "tokenId",
          "type": "uint256"
        }
      ],
      "name": "ownerOf",
      "outputs": [
        {
          "internalType": "address",
          "name": "",
          "type": "address"
        }
      ],
      "stateMutability": "view",
      "type": "function"
    },
    {
      "inputs": [],
      "name": "pause",
      "outputs": [],
      "stateMutability": "nonpayable",
      "type": "function"
    },
    {
      "inputs": [],
      "name": "paused",
      "outputs": [
        {
          "internalType": "bool",
          "name": "",
          "type": "bool"
        }
      ],
      "stateMutability": "view",
      "type": "function"
    },
    {
      "inputs": [],
      "name": "renounceOwnership",
      "outputs": [],
      "stateMutability": "nonpayable",
      "type": "function"
    },
    {
      "inputs": [
        {
          "internalType": "uint256",
          "name": "_tokenId",
          "type": "uint256"
        },
        {
          "internalType": "uint256",
          "name": "_salePrice",
          "type": "uint256"
        }
      ],
      "name": "royaltyInfo",
      "outputs": [
        {
          "internalType": "address",
          "name": "receiver",
          "type": "address"
        },
        {
          "internalType": "uint256",
          "name": "royaltyAmount",
          "type": "uint256"
        }
      ],
      "stateMutability": "view",
      "type": "function"
    },
    {
      "inputs": [
        {
          "internalType": "address",
          "name": "from",
          "type": "address"
        },
        {
          "internalType": "address",
          "name": "to",
          "type": "address"
        },
        {
          "internalType": "uint256",
          "name": "tokenId",
          "type": "uint256"
        }
      ],
      "name": "safeTransferFrom",
      "outputs": [],
      "stateMutability": "nonpayable",
      "type": "function"
    },
    {
      "inputs": [
        {
          "internalType": "address",
          "name": "from",
          "type": "address"
        },
        {
          "internalType": "address",
          "name": "to",
          "type": "address"
        },
        {
          "internalType": "uint256",
          "name": "tokenId",
          "type": "uint256"
        },
        {
          "internalType": "bytes",
          "name": "data",
          "type": "bytes"
        }
      ],
      "name": "safeTransferFrom",
      "outputs": [],
      "stateMutability": "nonpayable",
      "type": "function"
    },
    {
      "inputs": [
        {
          "internalType": "string",
          "name": "algo",
          "type": "string"
        }
      ],
      "name": "setAlgo",
      "outputs": [],
      "stateMutability": "nonpayable",
      "type": "function"
    },
    {
      "inputs": [
        {
          "internalType": "address",
          "name": "operator",
          "type": "address"
        },
        {
          "internalType": "bool",
          "name": "approved",
          "type": "bool"
        }
      ],
      "name": "setApprovalForAll",
      "outputs": [],
      "stateMutability": "nonpayable",
      "type": "function"
    },
    {
      "inputs": [
        {
          "internalType": "uint256",
          "name": "fee",
          "type": "uint256"
        }
      ],
      "name": "setFee",
      "outputs": [],
      "stateMutability": "nonpayable",
      "type": "function"
    },
    {
      "inputs": [
        {
          "internalType": "uint256",
          "name": "limit",
          "type": "uint256"
        }
      ],
      "name": "setLimit",
      "outputs": [],
      "stateMutability": "nonpayable",
      "type": "function"
    },
    {
      "inputs": [
        {
          "internalType": "uint256",
          "name": "whitelistFee",
          "type": "uint256"
        }
      ],
      "name": "setWhitelistFee",
      "outputs": [],
      "stateMutability": "nonpayable",
      "type": "function"
    },
    {
      "inputs": [
        {
          "internalType": "bytes4",
          "name": "interfaceId",
          "type": "bytes4"
        }
      ],
      "name": "supportsInterface",
      "outputs": [
        {
          "internalType": "bool",
          "name": "",
          "type": "bool"
        }
      ],
      "stateMutability": "view",
      "type": "function"
    },
    {
      "inputs": [],
      "name": "symbol",
      "outputs": [
        {
          "internalType": "string",
          "name": "",
          "type": "string"
        }
      ],
      "stateMutability": "view",
      "type": "function"
    },
    {
      "inputs": [
        {
          "internalType": "uint256",
          "name": "tokenId",
          "type": "uint256"
        }
      ],
      "name": "tokenURI",
      "outputs": [
        {
          "internalType": "string",
          "name": "",
          "type": "string"
        }
      ],
      "stateMutability": "view",
      "type": "function"
    },
    {
      "inputs": [
        {
          "internalType": "address",
          "name": "from",
          "type": "address"
        },
        {
          "internalType": "address",
          "name": "to",
          "type": "address"
        },
        {
          "internalType": "uint256",
          "name": "tokenId",
          "type": "uint256"
        }
      ],
      "name": "transferFrom",
      "outputs": [],
      "stateMutability": "nonpayable",
      "type": "function"
    },
    {
      "inputs": [
        {
          "internalType": "address",
          "name": "newOwner",
          "type": "address"
        }
      ],
      "name": "transferOwnership",
      "outputs": [],
      "stateMutability": "nonpayable",
      "type": "function"
    },
    {
      "inputs": [],
      "name": "unpause",
      "outputs": [],
      "stateMutability": "nonpayable",
      "type": "function"
    },
    {
      "inputs": [
        {
          "internalType": "uint256",
          "name": "amount",
          "type": "uint256"
        }
      ],
      "name": "withdraw",
      "outputs": [],
      "stateMutability": "nonpayable",
      "type": "function"
    }
  ],
  "bytecode": "0x608060405234801561001057600080fd5b506154b1806100206000396000f3fe6080604052600436106102ae5760003560e01c806370a0823111610175578063a22cb465116100dc578063c87b56dd11610095578063e653c6501161006f578063e653c65014610830578063e985e9c514610851578063f19e75d414610871578063f2fde38b1461089157600080fd5b8063c87b56dd146107d9578063d5978314146107f9578063df2fb92c1461081957600080fd5b8063a22cb46514610714578063adfc7dae14610734578063b88d4fde14610755578063c0dca23914610775578063c5b37c22146107a2578063c6283c38146107b957600080fd5b80638456cb591161012e5780638456cb59146106765780638da5cb5b1461068b5780638f15b414146106aa5780638f283970146106ca57806395d89b41146106ea578063a1bb1fcc146106ff57600080fd5b806370a08231146105ca578063715018a6146105ea578063741149b1146105ff5780637c1de7e11461061f5780637cd49fde1461063f57806380d953dd1461065657600080fd5b80632a55205a1161021957806347c421b5116101d257806347c421b51461050d5780635275f37a1461052d5780635c975abb146105525780636352211e1461056a57806366829b161461058a57806369fe0e2d146105aa57600080fd5b80632a55205a146104515780632d3df31f146104905780632e1a7d4d1461049857806339a0c6f9146104b85780633f4ba83a146104d857806342842e0e146104ed57600080fd5b8063095ea7b31161026b578063095ea7b3146103b35780630dccc9ad146103d35780631249c58b146103e857806323b872dd146103f0578063247ac0631461041057806327ea6f2b1461043157600080fd5b806301bc45c9146102b357806301ffc9a7146102f157806303f119ed1461032157806306fdde031461034f5780630764da1d14610371578063081812fc14610393575b600080fd5b3480156102bf57600080fd5b5061015f546102d4906001600160a01b031681565b6040516001600160a01b0390911681526020015b60405180910390f35b3480156102fd57600080fd5b5061031161030c366004614a7d565b6108b1565b60405190151581526020016102e8565b34801561032d57600080fd5b5061034161033c366004614b5f565b610903565b6040516102e8929190614bec565b34801561035b57600080fd5b506103646109b3565b6040516102e89190614c0e565b34801561037d57600080fd5b5061039161038c366004614b5f565b610a45565b005b34801561039f57600080fd5b506102d46103ae366004614c21565b610aae565b3480156103bf57600080fd5b506103916103ce366004614c56565b610ad5565b3480156103df57600080fd5b50610364610beb565b610391610c7a565b3480156103fc57600080fd5b5061039161040b366004614c80565b610d21565b34801561041c57600080fd5b50610161546102d4906001600160a01b031681565b34801561043d57600080fd5b5061039161044c366004614c21565b610e77565b34801561045d57600080fd5b5061047161046c366004614cbc565b610ec5565b604080516001600160a01b0390931683526020830191909152016102e8565b610391610ef6565b3480156104a457600080fd5b506103916104b3366004614c21565b610f53565b3480156104c457600080fd5b506103916104d3366004614b5f565b611051565b3480156104e457600080fd5b506103916110ad565b3480156104f957600080fd5b50610391610508366004614c80565b6110fd565b34801561051957600080fd5b50610391610528366004614cde565b611248565b34801561053957600080fd5b506105446101695481565b6040519081526020016102e8565b34801561055e57600080fd5b5060975460ff16610311565b34801561057657600080fd5b506102d4610585366004614c21565b6112f5565b34801561059657600080fd5b506103916105a5366004614cde565b611355565b3480156105b657600080fd5b506103916105c5366004614c21565b6113c0565b3480156105d657600080fd5b506105446105e5366004614cde565b61140e565b3480156105f657600080fd5b50610391611494565b34801561060b57600080fd5b5061039161061a366004614cde565b6114a6565b34801561062b57600080fd5b5061039161063a366004614cf9565b611542565b34801561064b57600080fd5b506105446101645481565b34801561066257600080fd5b50610391610671366004614c21565b6118a1565b34801561068257600080fd5b50610391611a1e565b34801561069757600080fd5b5061012d546001600160a01b03166102d4565b3480156106b657600080fd5b506103916106c5366004614d40565b611a6e565b3480156106d657600080fd5b506103916106e5366004614cde565b611c39565b3480156106f657600080fd5b50610364611cd5565b34801561070b57600080fd5b50610364611ce4565b34801561072057600080fd5b5061039161072f366004614dd3565b611cf2565b34801561074057600080fd5b50610160546102d4906001600160a01b031681565b34801561076157600080fd5b50610391610770366004614e0a565b611cfd565b34801561078157600080fd5b50610795610790366004614c21565b611e4f565b6040516102e89190614e72565b3480156107ae57600080fd5b506105446101675481565b3480156107c557600080fd5b506103916107d4366004614c21565b612144565b3480156107e557600080fd5b506103646107f4366004614c21565b612192565b34801561080557600080fd5b50610364610814366004614c21565b6121f9565b34801561082557600080fd5b5061054461016b5481565b34801561083c57600080fd5b50610166546102d4906001600160a01b031681565b34801561085d57600080fd5b5061031161086c36600461502f565b612213565b34801561087d57600080fd5b5061039161088c366004614c21565b612241565b34801561089d57600080fd5b506103916108ac366004614cde565b6122b2565b60006001600160e01b031982166380ac58cd60e01b14806108e257506001600160e01b03198216635b5e139f60e01b145b806108fd57506301ffc9a760e01b6001600160e01b03198316145b92915050565b805160208183018101805161016a8252928201919093012091528054819061092a90615059565b80601f016020809104026020016040519081016040528092919081815260200182805461095690615059565b80156109a35780601f10610978576101008083540402835291602001916109a3565b820191906000526020600020905b81548152906001019060200180831161098657829003601f168201915b5050505050908060010154905082565b6060606580546109c290615059565b80601f01602080910402602001604051908101604052809291908181526020018280546109ee90615059565b8015610a3b5780601f10610a1057610100808354040283529160200191610a3b565b820191906000526020600020905b815481529060010190602001808311610a1e57829003601f168201915b5050505050905090565b61015f5460408051808201909152600381526231303160e81b6020820152906001600160a01b03163314610a955760405162461bcd60e51b8152600401610a8c9190614c0e565b60405180910390fd5b508051610aaa906101639060208401906149a7565b5050565b6000610ab982612328565b506000908152606960205260409020546001600160a01b031690565b6000610ae0826112f5565b9050806001600160a01b0316836001600160a01b03161415610b4e5760405162461bcd60e51b815260206004820152602160248201527f4552433732313a20617070726f76616c20746f2063757272656e74206f776e656044820152603960f91b6064820152608401610a8c565b336001600160a01b0382161480610b6a5750610b6a8133612213565b610bdc5760405162461bcd60e51b815260206004820152603e60248201527f4552433732313a20617070726f76652063616c6c6572206973206e6f7420746f60448201527f6b656e206f776e6572206e6f7220617070726f76656420666f7220616c6c00006064820152608401610a8c565b610be68383612387565b505050565b6101658054610bf990615059565b80601f0160208091040260200160405190810160405280929190818152602001828054610c2590615059565b8015610c725780601f10610c4757610100808354040283529160200191610c72565b820191906000526020600020905b815481529060010190602001808311610c5557829003601f168201915b505050505081565b600061016754118015610c905750610167543410155b8015610c9f5750600061016b54115b6040518060400160405280600381526020016232303160e81b81525090610cd95760405162461bcd60e51b8152600401610a8c9190614c0e565b5061232861016454108015610cf3575061016b5461016454105b610cfc57600080fd5b6101648054906000610d0d836150aa565b9190505550610d1f33610164546123f5565b565b826daaeb6d7670e522a718067333cd4e3b15610e66576001600160a01b038116331415610d5857610d5384848461240f565b610e71565b604051633185c44d60e21b81526daaeb6d7670e522a718067333cd4e9063c617113490610d8b90309033906004016150c5565b602060405180830381865afa158015610da8573d6000803e3d6000fd5b505050506040513d601f19601f82011682018060405250810190610dcc91906150df565b8015610e475750604051633185c44d60e21b81526daaeb6d7670e522a718067333cd4e9063c617113490610e0690309085906004016150c5565b602060405180830381865afa158015610e23573d6000803e3d6000fd5b505050506040513d601f19601f82011682018060405250810190610e4791906150df565b610e6657604051633b79c77360e21b8152336004820152602401610a8c565b610e7184848461240f565b50505050565b61015f5460408051808201909152600381526231303160e81b6020820152906001600160a01b03163314610ebe5760405162461bcd60e51b8152600401610a8c9190614c0e565b5061016b55565b61015f546001600160a01b03166000612710610ee3846101f46150fc565b610eed9190615131565b90509250929050565b600061016954118015610c905750610169543410158015610c9f5750600061016b54116040518060400160405280600381526020016232303160e81b81525090610cd95760405162461bcd60e51b8152600401610a8c9190614c0e565b600260fb541415610fa65760405162461bcd60e51b815260206004820152601f60248201527f5265656e7472616e637947756172643a207265656e7472616e742063616c6c006044820152606401610a8c565b600260fb5561015f5460408051808201909152600381526231303160e81b6020820152906001600160a01b03163314610ff25760405162461bcd60e51b8152600401610a8c9190614c0e565b50604051600090339047908381818185875af1925050503d8060008114611035576040519150601f19603f3d011682016040523d82523d6000602084013e61103a565b606091505b505090508061104857600080fd5b5050600160fb55565b61015f5460408051808201909152600381526231303160e81b6020820152906001600160a01b031633146110985760405162461bcd60e51b8152600401610a8c9190614c0e565b508051610aaa906101659060208401906149a7565b61015f5460408051808201909152600381526231303160e81b6020820152906001600160a01b031633146110f45760405162461bcd60e51b8152600401610a8c9190614c0e565b50610d1f612440565b826daaeb6d7670e522a718067333cd4e3b1561123d576001600160a01b03811633141561112f57610d53848484612492565b604051633185c44d60e21b81526daaeb6d7670e522a718067333cd4e9063c61711349061116290309033906004016150c5565b602060405180830381865afa15801561117f573d6000803e3d6000fd5b505050506040513d601f19601f820116820180604052508101906111a391906150df565b801561121e5750604051633185c44d60e21b81526daaeb6d7670e522a718067333cd4e9063c6171134906111dd90309085906004016150c5565b602060405180830381865afa1580156111fa573d6000803e3d6000fd5b505050506040513d601f19601f8201168201806040525081019061121e91906150df565b61123d57604051633b79c77360e21b8152336004820152602401610a8c565b610e71848484612492565b61015f5460408051808201909152600381526231303160e81b6020820152906001600160a01b0316331461128f5760405162461bcd60e51b8152600401610a8c9190614c0e565b5060408051808201909152600381526203130360ec1b60208201526001600160a01b0382166112d15760405162461bcd60e51b8152600401610a8c9190614c0e565b5061016180546001600160a01b0319166001600160a01b0392909216919091179055565b6000818152606760205260408120546001600160a01b0316806108fd5760405162461bcd60e51b8152602060048201526018602482015277115490cdcc8c4e881a5b9d985b1a59081d1bdad95b88125160421b6044820152606401610a8c565b61015f5460408051808201909152600381526231303160e81b6020820152906001600160a01b0316331461139c5760405162461bcd60e51b8152600401610a8c9190614c0e565b5061016680546001600160a01b0319166001600160a01b0392909216919091179055565b61015f5460408051808201909152600381526231303160e81b6020820152906001600160a01b031633146114075760405162461bcd60e51b8152600401610a8c9190614c0e565b5061016755565b60006001600160a01b0382166114785760405162461bcd60e51b815260206004820152602960248201527f4552433732313a2061646472657373207a65726f206973206e6f7420612076616044820152683634b21037bbb732b960b91b6064820152608401610a8c565b506001600160a01b031660009081526068602052604090205490565b61149c6124ad565b610d1f6000612508565b61015f546001600160a01b0316331480156114c957506001600160a01b03811615155b80156114e45750610160546001600160a01b03828116911614155b6040518060400160405280600381526020016231303160e81b8152509061151e5760405162461bcd60e51b8152600401610a8c9190614c0e565b5061016080546001600160a01b0319166001600160a01b0392909216919091179055565b6101615460408051808201909152600381526203130360ec1b6020820152906001600160a01b031633146115895760405162461bcd60e51b8152600401610a8c9190614c0e565b50806040516115989190615145565b6040519081900381209083907fc6ef1c5f8f954d0251e9620ce4908018f1c31f432eb9b44fd9efb2ca569453f190600090a360008281526101626020526040902080546115e490615059565b6040805180820190915260038152620c8c0d60ea1b602082015291501561161e5760405162461bcd60e51b8152600401610a8c9190614c0e565b50600082815261016260209081526040909120825161163f928401906149a7565b5060008060008060008060008780602001905181019061165f91906151cc565b9650965096509650965096509650600061167f8460ff168460ff1661255b565b6040805160a081018252600160608201818152603160f81b6080840152825282518084018452818152601960f91b6020828101919091528084019190915283518085018552828152603360f81b91810191909152928201929092529192508260038111156116ef576116ef6152a2565b141561177757806002602002015161016a8860405161170e9190615145565b908152602001604051809103902060000190805190602001906117329291906149a7565b508060015b602002015161016a8760405161174d9190615145565b908152602001604051809103902060000190805190602001906117719291906149a7565b50611848565b600282600381111561178b5761178b6152a2565b14156117d557602081015160405161016a906117a8908a90615145565b908152602001604051809103902060000190805190602001906117cc9291906149a7565b50806002611737565b805160405161016a906117e9908a90615145565b9081526020016040518091039020600001908051906020019061180d9291906149a7565b50805160405161016a90611822908990615145565b908152602001604051809103902060000190805190602001906118469291906149a7565b505b4261016a8860405161185a9190615145565b9081526020016040518091039020600101819055504261016a876040516118819190615145565b908152604051908190036020019020600101555050505050505050505050565b610166546001600160a01b0316158015906118bf5750600061016b54115b6040518060400160405280600381526020016203130360ec1b815250906118f95760405162461bcd60e51b8152600401610a8c9190614c0e565b5061232861016454108015611913575061016b5461016454105b61191c57600080fd5b610164805490600061192d836150aa565b919050555061193f33610164546123f5565b60076119688260405180604001604052806005815260200164736861706560d81b815250612586565b61197291906152ce565b6040805180820190915260038152620c8c0d60ea1b602082015290156119ab5760405162461bcd60e51b8152600401610a8c9190614c0e565b50610166546040516323b872dd60e01b8152336004820152306024820152604481018390526001600160a01b039091169081906323b872dd906064015b600060405180830381600087803b158015611a0257600080fd5b505af1158015611a16573d6000803e3d6000fd5b505050505050565b61015f5460408051808201909152600381526231303160e81b6020820152906001600160a01b03163314611a655760405162461bcd60e51b8152600401610a8c9190614c0e565b50610d1f6125c2565b600054610100900460ff1615808015611a8e5750600054600160ff909116105b80611aa85750303b158015611aa8575060005460ff166001145b611b0b5760405162461bcd60e51b815260206004820152602e60248201527f496e697469616c697a61626c653a20636f6e747261637420697320616c72656160448201526d191e481a5b9a5d1a585b1a5e995960921b6064820152608401610a8c565b6000805460ff191660011790558015611b2e576000805461ff0019166101001790555b6001600160a01b03831615801590611b4e57506001600160a01b03821615155b6040518060400160405280600381526020016203130360ec1b81525090611b885760405162461bcd60e51b8152600401610a8c9190614c0e565b50611b9385856125ff565b61016080546001600160a01b038085166001600160a01b03199283161790925561015f8054928616929091169190911790556107d061016b55611bd4612630565b611bdc61265f565b611be46126a5565b611bec6126d4565b8015611c32576000805461ff0019169055604051600181527f7f26b83ff96e1f2b6a682f133852f6798a09c465da95921460cefb38474024989060200160405180910390a15b5050505050565b61015f546001600160a01b031633148015611c5c57506001600160a01b03811615155b8015611c77575061015f546001600160a01b03828116911614155b6040518060400160405280600381526020016231303160e81b81525090611cb15760405162461bcd60e51b8152600401610a8c9190614c0e565b5061015f80546001600160a01b0319166001600160a01b0392909216919091179055565b6060606680546109c290615059565b6101638054610bf990615059565b610aaa338383612703565b836daaeb6d7670e522a718067333cd4e3b15611e43576001600160a01b038116331415611d3557611d30858585856127d2565b611c32565b604051633185c44d60e21b81526daaeb6d7670e522a718067333cd4e9063c617113490611d6890309033906004016150c5565b602060405180830381865afa158015611d85573d6000803e3d6000fd5b505050506040513d601f19601f82011682018060405250810190611da991906150df565b8015611e245750604051633185c44d60e21b81526daaeb6d7670e522a718067333cd4e9063c617113490611de390309085906004016150c5565b602060405180830381865afa158015611e00573d6000803e3d6000fd5b505050506040513d601f19601f82011682018060405250810190611e2491906150df565b611e4357604051633b79c77360e21b8152336004820152602401610a8c565b611c32858585856127d2565b611ec8604051806101e001604052806060815260200160608152602001606081526020016060815260200160608152602001606081526020016060815260200160608152602001606081526020016060815260200160008152602001606081526020016060815260200160608152602001606081525090565b6040805160a081018252600160608201818152603160f81b6080840152825282518084018452818152601960f91b6020828101919091528084019190915283518085018552918252603360f81b90820152918101919091526000611f2b84612804565b9050600080611f3986612c6b565b91509150600061016a84604051611f509190615145565b9081526040519081900360200190208054611f6a90615059565b80601f0160208091040260200160405190810160405280929190818152602001828054611f9690615059565b8015611fe35780601f10611fb857610100808354040283529160200191611fe3565b820191906000526020600020905b815481529060010190602001808311611fc657829003601f168201915b50939450620151809350612005925086915085905060025b6020020151612d4f565b1561201c5761201581601e6150fc565b905061203b565b61202884846001611ffb565b1561203b576120388160076150fc565b90505b8061016a8660405161204d9190615145565b9081526020016040518091039020600101544261206a91906152e2565b111561207557855191505b604051806101e0016040528083815260200185815260200186815260200161209c8a612da8565b81526020016120aa8a612f1e565b81526020016120b88a61303f565b81526020016120c68a6133ba565b81526020016120d48a61374d565b81526020016120e28a61380a565b81526020016120f08a6139ac565b81526020016120fe8a613ac7565b815260200161210c8a613c16565b815260200161211a8a613d2b565b81526020016121288a613e91565b81526020016121368a613fd4565b905298975050505050505050565b61015f5460408051808201909152600381526231303160e81b6020820152906001600160a01b0316331461218b5760405162461bcd60e51b8152600401610a8c9190614c0e565b5061016955565b606061219d82612328565b60006121a761406f565b905060008151116121c757604051806020016040528060008152506121f2565b806121d18461407f565b6040516020016121e29291906152f9565b6040516020818303038152906040525b9392505050565b6101626020526000908152604090208054610bf990615059565b6001600160a01b039182166000908152606a6020908152604080832093909416825291909152205460ff1690565b61015f5460408051808201909152600381526231303160e81b6020820152906001600160a01b031633146122885760405162461bcd60e51b8152600401610a8c9190614c0e565b506123288111801561229c57506127108111155b6122a557600080fd5b6122af33826123f5565b50565b6122ba6124ad565b6001600160a01b03811661231f5760405162461bcd60e51b815260206004820152602660248201527f4f776e61626c653a206e6577206f776e657220697320746865207a65726f206160448201526564647265737360d01b6064820152608401610a8c565b6122af81612508565b6000818152606760205260409020546001600160a01b03166122af5760405162461bcd60e51b8152602060048201526018602482015277115490cdcc8c4e881a5b9d985b1a59081d1bdad95b88125160421b6044820152606401610a8c565b600081815260696020526040902080546001600160a01b0319166001600160a01b03841690811790915581906123bc826112f5565b6001600160a01b03167f8c5be1e5ebec7d5bd14f71427d1e84f3dd0314c0f7b2291e5b200ac8c7c3b92560405160405180910390a45050565b610aaa828260405180602001604052806000815250614185565b61241933826141b8565b6124355760405162461bcd60e51b8152600401610a8c90615328565b610be6838383614216565b6124486143bd565b6097805460ff191690557f5db9ee0a495bf2e6ff9c91a7834c1ba4fdd244a5e8aa4e537bd38aeae4b073aa335b6040516001600160a01b03909116815260200160405180910390a1565b610be683838360405180602001604052806000815250611cfd565b61012d546001600160a01b03163314610d1f5760405162461bcd60e51b815260206004820181905260248201527f4f776e61626c653a2063616c6c6572206973206e6f7420746865206f776e65726044820152606401610a8c565b61012d80546001600160a01b038381166001600160a01b0319831681179093556040519116919082907f8be0079c531659141344cd1fd0a4f28419497f9722a3daafe3b4186f6b6457e090600090a35050565b60008183111561256d575060016108fd565b8183141561257d575060036108fd565b50600292915050565b6000816125928461407f565b6040516020016125a39291906152f9565b60408051601f1981840301815291905280516020909101209392505050565b6125ca614406565b6097805460ff191660011790557f62e78cea01bee320cd4e420270b5ea74000d11b0c9f74754ebdbfc544b05a2586124753390565b600054610100900460ff166126265760405162461bcd60e51b8152600401610a8c90615376565b610aaa828261444c565b600054610100900460ff166126575760405162461bcd60e51b8152600401610a8c90615376565b610d1f61449a565b600054610100900460ff166126865760405162461bcd60e51b8152600401610a8c90615376565b610d1f733cc6cdda760b79bafa08df41ecfa224f810dceb660016144ca565b600054610100900460ff166126cc5760405162461bcd60e51b8152600401610a8c90615376565b610d1f614625565b600054610100900460ff166126fb5760405162461bcd60e51b8152600401610a8c90615376565b610d1f614653565b816001600160a01b0316836001600160a01b031614156127655760405162461bcd60e51b815260206004820152601960248201527f4552433732313a20617070726f766520746f2063616c6c6572000000000000006044820152606401610a8c565b6001600160a01b038381166000818152606a6020908152604080832094871680845294825291829020805460ff191686151590811790915591519182527f17307eab39ab6107e8899845ad3d59bd9653f200f220920489ca2b5937696c31910160405180910390a3505050565b6127dc33836141b8565b6127f85760405162461bcd60e51b8152600401610a8c90615328565b610e7184848484614686565b6040805161044081018252600561040082018181526428b0ba30b960d91b61042084015282528251808401845260078082526622b1bab0b237b960c91b60208381019190915280850192909252845180860186528181526614d95b9959d85b60ca1b818401528486015284518086018652600b8082526a4e65746865726c616e647360a81b828501526060868101929092528651808801885283815266115b99db185b9960ca1b818601526080870152865180880188528381526624a91024b930b760c91b8186015260a087015286518088018852600381526255534160e81b8186015260c0870152865180880188528581526457616c657360d81b8186015260e087015286518088018852600980825268417267656e74696e6160b81b8287015261010088019190915287518089018952600c81526b53617564692041726162696160a01b81870152610120880152875180890189526006808252654d657869636f60d01b828801526101408901919091528851808a018a5281815265141bdb185b9960d21b818801526101608901528851808a018a52818152654672616e636560d01b818801526101808901528851808a018a52918252684175737472616c696160b81b828701526101a0880191909152875180890189528481526644656e6d61726b60c81b818701526101c0880152875180890189528481526654756e6973696160c81b818701526101e0880152875180890189528681526429b830b4b760d91b8187015261020088015287518089018952600a815269436f737461205269636160b01b8187015261022088015287518089018952848152664765726d616e7960c81b8187015261024088015287518089018952868152642530b830b760d91b81870152610260880152875180890189528481526642656c6769756d60c81b81870152610280880152875180890189528181526543616e61646160d01b818701526102a088015287518089018952848152664d6f726f63636f60c81b818701526102c0880152875180890189528481526643726f6174696160c81b818701526102e08801528751808901895281815265109c985e9a5b60d21b81870152610300880152875180890189528181526553657262696160d01b81870152610320880152875180890189529182526a14ddda5d1e995c9b185b9960aa1b828601526103408701919091528651808801885260088082526721b0b6b2b937b7b760c11b828701526103608801919091528751808901895290815267141bdc9d1d59d85b60c21b8186015261038087015286518088018852948552644768616e6160d81b858501526103a086019490945285518087018752918252665572756775617960c81b828401526103c085019190915284518086018652600e81526d4b6f7265612052657075626c696360901b818401526103e08501528451808601909552918452653730ba34b7b760d11b848201529092829190612c45908690612586565b612c4f91906152ce565b60208110612c5f57612c5f6152b8565b60200201519392505050565b6060612c75614a2b565b6040805160a081018252600160608201818152603160f81b6080840152825282518084018452818152601960f91b6020828101919091528084019190915283518085018552828152603360f81b81830152838501528351808501909452600b84526a656d6f74696f6e54696d6560a81b908401529091600091612cfc9187916127106146b9565b825190915060018210801590612d1457506107d08211155b15612d2457506020820151612d44565b6107d18210158015612d385750610bb88211155b15612d44575060408201515b959194509092505050565b600081604051602001612d629190615145565b6040516020818303038152906040528051906020012083604051602001612d899190615145565b6040516020818303038152906040528051906020012014905092915050565b6040805161010081018252600160c08201818152603160f81b60e0840152825282518084018452818152601960f91b6020828101919091528084019190915283518085018552828152603360f81b818301528385015283518085018552828152600d60fa1b8183015260608481019190915284518086018652838152603560f81b81840152608085015284518086018652838152601b60f91b8184015260a085015284518086019095526003855262646e6160e81b9185019190915292600091612e769186916127106146b9565b9050610bb8811115612e93578160005b6020020151949350505050565b60018110158015612ea657506107d08111155b15612eb357816001612e86565b6107d18110158015612ec75750610a288111155b15612ed457816002612e86565b610a298110158015612ee85750610b548111155b15612ef557816003612e86565b610b558110158015612f095750610bae8111155b15612f1657816004612e86565b816005612e86565b6040805160a08101825260016060828101828152600360fc1b6080850152835283518085018552828152603160f81b6020828101919091528085019190915284518086018652928352601960f91b90830152928201526000612f7f84612da8565b9050612fa481604051806040016040528060018152602001603160f81b815250612d4f565b1561301f576000612fd785604051806040016040528060058152602001641899585c9960da1b8152506001611b586146b9565b90506102bc811115612ff5578260005b602002015195945050505050565b6001811015801561300857506102308111155b1561301557826001612fe7565b826002612fe7565b505b50506040805180820190915260018152600360fc1b602082015292915050565b60606000604051806101200160405280604051806040016040528060018152602001603160f81b8152508152602001604051806040016040528060018152602001601960f91b8152508152602001604051806040016040528060018152602001603360f81b8152508152602001604051806040016040528060018152602001600d60fa1b8152508152602001604051806040016040528060018152602001603560f81b8152508152602001604051806040016040528060018152602001601b60f91b8152508152602001604051806040016040528060018152602001603760f81b8152508152602001604051806040016040528060018152602001600760fb1b8152508152602001604051806040016040528060018152602001603960f81b815250815250905060006040518060e00160405280604051806040016040528060018152602001603160f81b8152508152602001604051806040016040528060018152602001601960f91b8152508152602001604051806040016040528060018152602001603360f81b8152508152602001604051806040016040528060018152602001600d60fa1b8152508152602001604051806040016040528060018152602001603560f81b8152508152602001604051806040016040528060018152602001601b60f91b8152508152602001604051806040016040528060018152602001603760f81b8152508152509050600061325785612da8565b905061327c81604051806040016040528060018152602001601960f91b815250612d4f565b156132c4578160076132aa87604051806040016040528060048152602001633430b4b960e11b815250612586565b6132b491906152ce565b60078110612fe757612fe76152b8565b6132e781604051806040016040528060018152602001603160f81b815250612d4f565b1561339957600061331986604051806040016040528060048152602001633430b4b960e11b8152506001611b586146b9565b9050611acc8111156133475750506040805180820190915260018152600360fc1b6020820152949350505050565b83600961337088604051806040016040528060048152602001633430b4b960e11b815250612586565b61337a91906152ce565b6009811061338a5761338a6152b8565b60200201519695505050505050565b50506040805180820190915260018152600360fc1b60208201529392505050565b604080516101c08101825260016101808201818152603160f81b6101a0840152825282518084018452818152601960f91b6020828101919091528084019190915283518085018552828152603360f81b818301528385015283518085018552828152600d60fa1b8183015260608481019190915284518086018652838152603560f81b8184015260808086019190915285518087018752848152601b60f91b8185015260a08087019190915286518088018852858152603760f81b8186015260c08088019190915287518089018952868152600760fb1b8187015260e0808901919091528851808a018a52968752603960f81b8787015261010088019690965287518089018952600280825261031360f41b828801526101208901919091528851808a018a5281815261313160f01b818801526101408901528851808a018a5281815261189960f11b818801526101608901528851968701895291860182815261313360f01b91870191909152855286518088018852818152610c4d60f21b81860152858501528651808801885281815261313560f01b81860152858801528651808801885281815261189b60f11b81860152858401528651808801909752865261313760f01b9286019290925290820193909352600061359a85612da8565b90506135bf81604051806040016040528060018152602001603160f81b815250612d4f565b156133995760006135cf8661380a565b90506135f481604051806040016040528060018152602001603160f81b815250612d4f565b1561372b57600061360487613ac7565b9050801561372957600061363f886040518060400160405280600a8152602001691d5b99195c9cda1a5c9d60b21b8152506001610ccc6146b9565b905061051e811061366e5750506040805180820190915260018152600360fc1b60208201529695505050505050565b6001811015801561368157506103d68111155b156136e05785600c6136b58a6040518060400160405280600a8152602001691d5b99195c9cda1a5c9d60b21b815250612586565b6136bf91906152ce565b600c81106136cf576136cf6152b8565b602002015198975050505050505050565b84600561370f8a6040518060400160405280600a8152602001691d5b99195c9cda1a5c9d60b21b815250612586565b61371991906152ce565b600581106136cf576136cf6152b8565b505b5050506040805180820190915260018152600360fc1b60208201529392505050565b6040805160a08101825260016060828101828152603160f81b6080850152835283518085018552828152601960f91b6020828101919091528085019190915284518086018652838152603360f81b81830152848601528451808601909552600585526473686f657360d81b90850152926000916137ce9186916127106146b9565b90506103e88111156137e257816000612e86565b600181101580156137f557506103848111155b1561380257816001612e86565b816002612e86565b6040805160a0808201835260016060838101828152603160f81b608080870182905291865286518088018852848152601960f91b6020828101829052808901929092528851808a018a52868152603360f81b81840152888a0152885196870189528685018681529387019290925291855286518088018852848152808301919091528482015285518087018752928352600d60fa1b908301529382015260006138b285612da8565b90506138d781604051806040016040528060018152602001601960f91b815250612d4f565b1561394457600061390886604051806040016040528060038152602001620746f760ec1b81525060016107d06146b9565b905061032081111561391c5782600061338a565b6001811015801561392f57506102588111155b1561393c5782600161338a565b82600261338a565b600061397086604051806040016040528060038152602001620746f760ec1b8152506001611f406146b9565b9050610c808111156139845783600061338a565b6001811015801561399757506109608111155b156139a45783600161338a565b83600261338a565b60408051608080820183526001828401818152603360f81b60608581019190915290845284518086018652828152600d60fa1b6020828101919091528086019190915285519384018652838601838152603160f81b8584015284528551808701909652918552601960f91b85830152908201939093526000613a2d85612da8565b9050613a5281604051806040016040528060018152602001601960f91b815250612d4f565b15613a9c57826002613a828760405180604001604052806006815260200165626f74746f6d60d01b815250612586565b613a8c91906152ce565b60028110612fe757612fe76152b8565b816002613a828760405180604001604052806006815260200165626f74746f6d60d01b815250612586565b600080604051806103400160405280600181526020016002815260200160038152602001600481526020016005815260200160068152602001600781526020016008815260200160098152602001600a8152602001600b8152602001600c8152602001600d8152602001600e8152602001600f815260200160108152602001601181526020016012815260200160138152602001601481526020016015815260200160168152602001601781526020016018815260200160198152602001601a81525090506000613bbb8460405180604001604052806006815260200165373ab6b132b960d11b81525060016127106146b9565b9050611e78811115613bd1575060009392505050565b81601a613bfc8660405180604001604052806006815260200165373ab6b132b960d11b815250612586565b613c0691906152ce565b601a8110612e8657612e866152b8565b606060006040518060800160405280604051806040016040528060018152602001600360fc1b8152508152602001604051806040016040528060018152602001603160f81b8152508152602001604051806040016040528060018152602001601960f91b8152508152602001604051806040016040528060018152602001603360f81b81525081525090506000613cd08460405180604001604052806006815260200165746174746f6f60d01b81525060016127106146b9565b90506109c4811115613ce457816000612e86565b60018110158015613cf6575060648111155b15613d0357816001612e86565b60658110158015613d1657506101f48111155b15613d2357816002612e86565b816003612e86565b6040805161010081018252600160c08201818152600360fc1b60e0840152825282518084018452818152603160f81b6020828101919091528084019190915283518085018552828152601960f91b818301528385015283518085018552828152603360f81b8183015260608481019190915284518086018652838152600d60fa1b81840152608085015284518086018652838152603560f81b8184015260a085015284518086019095526007855266676c617373657360c81b9185019190915292600091613dfd9186916127106146b9565b9050610fa0811115613e1157816000612e86565b60018110158015613e2457506107d08111155b15613e3157816001612e86565b6107d18110158015613e455750610bb88111155b15613e5257816002612e86565b610bb98110158015613e665750610dac8111155b15613e7357816003612e86565b610dad8110158015612f095750610f3c8111612f1657816004612e86565b606060006040518060400160405280604051806040016040528060018152602001600360fc1b8152508152602001604051806040016040528060018152602001603160f81b81525081525090506000613ee984612da8565b9050613f0e81604051806040016040528060018152602001603160f81b815250612d4f565b1561301f576000613f1e8561380a565b9050613f4381604051806040016040528060018152602001603160f81b815250612d4f565b1561301d576000613f5386613ac7565b90508015613fb2576000613f8b876040518060400160405280600781526020016631b0b83a30b4b760c91b8152506001610ccc6146b9565b90506101478110613faa578460005b6020020151979650505050505050565b846001613f9a565b505050506040805180820190915260018152600360fc1b602082015292915050565b606060006040518060400160405280604051806040016040528060018152602001600360fc1b8152508152602001604051806040016040528060018152602001603160f81b815250815250905060006140538460405180604001604052806009815260200168199858d95c185a5b9d60ba1b81525060016127106146b9565b90506103e881111561406757816000612e86565b816001612e86565b606061016580546109c290615059565b6060816140a35750506040805180820190915260018152600360fc1b602082015290565b8160005b81156140cd57806140b7816150aa565b91506140c69050600a83615131565b91506140a7565b60008167ffffffffffffffff8111156140e8576140e8614a9a565b6040519080825280601f01601f191660200182016040528015614112576020820181803683370190505b5090505b841561417d576141276001836152e2565b9150614134600a866152ce565b61413f9060306153c1565b60f81b818381518110614154576141546152b8565b60200101906001600160f81b031916908160001a905350614176600a86615131565b9450614116565b949350505050565b61418f83836146f7565b61419c6000848484614845565b610be65760405162461bcd60e51b8152600401610a8c906153d9565b6000806141c4836112f5565b9050806001600160a01b0316846001600160a01b031614806141eb57506141eb8185612213565b8061417d5750836001600160a01b031661420484610aae565b6001600160a01b031614949350505050565b826001600160a01b0316614229826112f5565b6001600160a01b03161461428d5760405162461bcd60e51b815260206004820152602560248201527f4552433732313a207472616e736665722066726f6d20696e636f72726563742060448201526437bbb732b960d91b6064820152608401610a8c565b6001600160a01b0382166142ef5760405162461bcd60e51b8152602060048201526024808201527f4552433732313a207472616e7366657220746f20746865207a65726f206164646044820152637265737360e01b6064820152608401610a8c565b6142fa838383614940565b614305600082612387565b6001600160a01b038316600090815260686020526040812080546001929061432e9084906152e2565b90915550506001600160a01b038216600090815260686020526040812080546001929061435c9084906153c1565b909155505060008181526067602052604080822080546001600160a01b0319166001600160a01b0386811691821790925591518493918716917fddf252ad1be2c89b69c2b068fc378daa952ba7f163c4a11628f55a4df523b3ef91a4505050565b60975460ff16610d1f5760405162461bcd60e51b815260206004820152601460248201527314185d5cd8589b194e881b9bdd081c185d5cd95960621b6044820152606401610a8c565b60975460ff1615610d1f5760405162461bcd60e51b815260206004820152601060248201526f14185d5cd8589b194e881c185d5cd95960821b6044820152606401610a8c565b600054610100900460ff166144735760405162461bcd60e51b8152600401610a8c90615376565b81516144869060659060208501906149a7565b508051610be69060669060208401906149a7565b600054610100900460ff166144c15760405162461bcd60e51b8152600401610a8c90615376565b610d1f33612508565b600054610100900460ff166144f15760405162461bcd60e51b8152600401610a8c90615376565b6daaeb6d7670e522a718067333cd4e3b15610aaa5760405163c3c5a54760e01b81523060048201526daaeb6d7670e522a718067333cd4e9063c3c5a547906024016020604051808303816000875af1158015614551573d6000803e3d6000fd5b505050506040513d601f19601f8201168201806040525081019061457591906150df565b610aaa5780156145b257604051633e9f1edf60e11b81526daaeb6d7670e522a718067333cd4e90637d3e3dbe906119e890309086906004016150c5565b6001600160a01b038216156145f45760405163a0af290360e01b81526daaeb6d7670e522a718067333cd4e9063a0af2903906119e890309086906004016150c5565b604051632210724360e11b81523060048201526daaeb6d7670e522a718067333cd4e90634420e486906024016119e8565b600054610100900460ff1661464c5760405162461bcd60e51b8152600401610a8c90615376565b600160fb55565b600054610100900460ff1661467a5760405162461bcd60e51b8152600401610a8c90615376565b6097805460ff19169055565b614691848484614216565b61469d84848484614845565b610e715760405162461bcd60e51b8152600401610a8c906153d9565b60006146c583836152e2565b6146d09060016153c1565b6146da8686612586565b6146e491906152ce565b6146ee90846153c1565b95945050505050565b6001600160a01b03821661474d5760405162461bcd60e51b815260206004820181905260248201527f4552433732313a206d696e7420746f20746865207a65726f20616464726573736044820152606401610a8c565b6000818152606760205260409020546001600160a01b0316156147b25760405162461bcd60e51b815260206004820152601c60248201527f4552433732313a20746f6b656e20616c7265616479206d696e746564000000006044820152606401610a8c565b6147be60008383614940565b6001600160a01b03821660009081526068602052604081208054600192906147e79084906153c1565b909155505060008181526067602052604080822080546001600160a01b0319166001600160a01b03861690811790915590518392907fddf252ad1be2c89b69c2b068fc378daa952ba7f163c4a11628f55a4df523b3ef908290a45050565b60006001600160a01b0384163b1561493857604051630a85bd0160e11b81526001600160a01b0385169063150b7a029061488990339089908890889060040161542b565b6020604051808303816000875af19250505080156148c4575060408051601f3d908101601f191682019092526148c19181019061545e565b60015b61491e573d8080156148f2576040519150601f19603f3d011682016040523d82523d6000602084013e6148f7565b606091505b5080516149165760405162461bcd60e51b8152600401610a8c906153d9565b805181602001fd5b6001600160e01b031916630a85bd0160e11b14905061417d565b50600161417d565b60975460ff1615610be65760405162461bcd60e51b815260206004820152602b60248201527f4552433732315061757361626c653a20746f6b656e207472616e73666572207760448201526a1a1a5b19481c185d5cd95960aa1b6064820152608401610a8c565b8280546149b390615059565b90600052602060002090601f0160209004810192826149d55760008555614a1b565b82601f106149ee57805160ff1916838001178555614a1b565b82800160010185558215614a1b579182015b82811115614a1b578251825591602001919060010190614a00565b50614a27929150614a52565b5090565b60405180606001604052806003905b6060815260200190600190039081614a3a5790505090565b5b80821115614a275760008155600101614a53565b6001600160e01b0319811681146122af57600080fd5b600060208284031215614a8f57600080fd5b81356121f281614a67565b634e487b7160e01b600052604160045260246000fd5b604051601f8201601f1916810167ffffffffffffffff81118282101715614ad957614ad9614a9a565b604052919050565b600067ffffffffffffffff821115614afb57614afb614a9a565b50601f01601f191660200190565b600082601f830112614b1a57600080fd5b8135614b2d614b2882614ae1565b614ab0565b818152846020838601011115614b4257600080fd5b816020850160208301376000918101602001919091529392505050565b600060208284031215614b7157600080fd5b813567ffffffffffffffff811115614b8857600080fd5b61417d84828501614b09565b60005b83811015614baf578181015183820152602001614b97565b83811115610e715750506000910152565b60008151808452614bd8816020860160208601614b94565b601f01601f19169290920160200192915050565b604081526000614bff6040830185614bc0565b90508260208301529392505050565b6020815260006121f26020830184614bc0565b600060208284031215614c3357600080fd5b5035919050565b80356001600160a01b0381168114614c5157600080fd5b919050565b60008060408385031215614c6957600080fd5b614c7283614c3a565b946020939093013593505050565b600080600060608486031215614c9557600080fd5b614c9e84614c3a565b9250614cac60208501614c3a565b9150604084013590509250925092565b60008060408385031215614ccf57600080fd5b50508035926020909101359150565b600060208284031215614cf057600080fd5b6121f282614c3a565b60008060408385031215614d0c57600080fd5b82359150602083013567ffffffffffffffff811115614d2a57600080fd5b614d3685828601614b09565b9150509250929050565b60008060008060808587031215614d5657600080fd5b843567ffffffffffffffff80821115614d6e57600080fd5b614d7a88838901614b09565b95506020870135915080821115614d9057600080fd5b50614d9d87828801614b09565b935050614dac60408601614c3a565b9150614dba60608601614c3a565b905092959194509250565b80151581146122af57600080fd5b60008060408385031215614de657600080fd5b614def83614c3a565b91506020830135614dff81614dc5565b809150509250929050565b60008060008060808587031215614e2057600080fd5b614e2985614c3a565b9350614e3760208601614c3a565b925060408501359150606085013567ffffffffffffffff811115614e5a57600080fd5b614e6687828801614b09565b91505092959194509250565b60208152600082516101e0806020850152614e91610200850183614bc0565b91506020850151601f1980868503016040870152614eaf8483614bc0565b93506040870151915080868503016060870152614ecc8483614bc0565b93506060870151915080868503016080870152614ee98483614bc0565b935060808701519150808685030160a0870152614f068483614bc0565b935060a08701519150808685030160c0870152614f238483614bc0565b935060c08701519150808685030160e0870152614f408483614bc0565b935060e08701519150610100818786030181880152614f5f8584614bc0565b945080880151925050610120818786030181880152614f7e8584614bc0565b945080880151925050610140818786030181880152614f9d8584614bc0565b945080880151925050610160828188015280880151925050610180818786030181880152614fcb8584614bc0565b9450808801519250506101a0818786030181880152614fea8584614bc0565b9450808801519250506101c08187860301818801526150098584614bc0565b9088015187820390920184880152935090506150258382614bc0565b9695505050505050565b6000806040838503121561504257600080fd5b61504b83614c3a565b9150610eed60208401614c3a565b600181811c9082168061506d57607f821691505b6020821081141561508e57634e487b7160e01b600052602260045260246000fd5b50919050565b634e487b7160e01b600052601160045260246000fd5b60006000198214156150be576150be615094565b5060010190565b6001600160a01b0392831681529116602082015260400190565b6000602082840312156150f157600080fd5b81516121f281614dc5565b600081600019048311821515161561511657615116615094565b500290565b634e487b7160e01b600052601260045260246000fd5b6000826151405761514061511b565b500490565b60008251615157818460208701614b94565b9190910192915050565b805164ffffffffff81168114614c5157600080fd5b600082601f83011261518757600080fd5b8151615195614b2882614ae1565b8181528460208386010111156151aa57600080fd5b61417d826020830160208701614b94565b805160ff81168114614c5157600080fd5b600080600080600080600060e0888a0312156151e757600080fd5b875163ffffffff811681146151fb57600080fd5b965061520960208901615161565b9550604088015167ffffffffffffffff8082111561522657600080fd5b6152328b838c01615176565b965060608a015191508082111561524857600080fd5b6152548b838c01615176565b955061526260808b016151bb565b945061527060a08b016151bb565b935060c08a015191508082111561528657600080fd5b506152938a828b01615176565b91505092959891949750929550565b634e487b7160e01b600052602160045260246000fd5b634e487b7160e01b600052603260045260246000fd5b6000826152dd576152dd61511b565b500690565b6000828210156152f4576152f4615094565b500390565b6000835161530b818460208801614b94565b83519083019061531f818360208801614b94565b01949350505050565b6020808252602e908201527f4552433732313a2063616c6c6572206973206e6f7420746f6b656e206f776e6560408201526d1c881b9bdc88185c1c1c9bdd995960921b606082015260800190565b6020808252602b908201527f496e697469616c697a61626c653a20636f6e7472616374206973206e6f74206960408201526a6e697469616c697a696e6760a81b606082015260800190565b600082198211156153d4576153d4615094565b500190565b60208082526032908201527f4552433732313a207472616e7366657220746f206e6f6e20455243373231526560408201527131b2b4bb32b91034b6b83632b6b2b73a32b960711b606082015260800190565b6001600160a01b038581168252841660208201526040810183905260806060820181905260009061502590830184614bc0565b60006020828403121561547057600080fd5b81516121f281614a6756fea2646970667358221220861925722056b22105ed77ac770495b1fa1aaff4393fb138b8e281a2feb81a3764736f6c634300080c0033",
  "linkReferences": {},
  "deployedLinkReferences": {}
}