{
  "_format": "hh-sol-artifact-1",
  "contractName": "AVATARS",
  "sourceName": "contracts/nft/AVATARS.sol",
  "abi": [
    {
      "anonymous": false,
      "inputs": [
        {
          "indexed": true,
          "internalType": "address",
          "name": "owner",
          "type": "address"
        },
        {
          "indexed": true,
          "internalType": "address",
          "name": "approved",
          "type": "address"
        },
        {
          "indexed": true,
          "internalType": "uint256",
          "name": "tokenId",
          "type": "uint256"
        }
      ],
      "name": "Approval",
      "type": "event"
    },
    {
      "anonymous": false,
      "inputs": [
        {
          "indexed": true,
          "internalType": "address",
          "name": "owner",
          "type": "address"
        },
        {
          "indexed": true,
          "internalType": "address",
          "name": "operator",
          "type": "address"
        },
        {
          "indexed": false,
          "internalType": "bool",
          "name": "approved",
          "type": "bool"
        }
      ],
      "name": "ApprovalForAll",
      "type": "event"
    },
    {
      "anonymous": false,
      "inputs": [
        {
          "indexed": false,
          "internalType": "uint8",
          "name": "version",
          "type": "uint8"
        }
      ],
      "name": "Initialized",
      "type": "event"
    },
    {
      "anonymous": false,
      "inputs": [
        {
          "indexed": true,
          "internalType": "address",
          "name": "previousOwner",
          "type": "address"
        },
        {
          "indexed": true,
          "internalType": "address",
          "name": "newOwner",
          "type": "address"
        }
      ],
      "name": "OwnershipTransferred",
      "type": "event"
    },
    {
      "anonymous": false,
      "inputs": [
        {
          "indexed": false,
          "internalType": "address",
          "name": "account",
          "type": "address"
        }
      ],
      "name": "Paused",
      "type": "event"
    },
    {
      "anonymous": false,
      "inputs": [
        {
          "indexed": true,
          "internalType": "bytes32",
          "name": "requestId",
          "type": "bytes32"
        },
        {
          "indexed": true,
          "internalType": "bytes",
          "name": "data",
          "type": "bytes"
        }
      ],
      "name": "RequestFulfilledData",
      "type": "event"
    },
    {
      "anonymous": false,
      "inputs": [
        {
          "indexed": true,
          "internalType": "address",
          "name": "from",
          "type": "address"
        },
        {
          "indexed": true,
          "internalType": "address",
          "name": "to",
          "type": "address"
        },
        {
          "indexed": true,
          "internalType": "uint256",
          "name": "tokenId",
          "type": "uint256"
        }
      ],
      "name": "Transfer",
      "type": "event"
    },
    {
      "anonymous": false,
      "inputs": [
        {
          "indexed": false,
          "internalType": "address",
          "name": "account",
          "type": "address"
        }
      ],
      "name": "Unpaused",
      "type": "event"
    },
    {
      "inputs": [],
      "name": "_admin",
      "outputs": [
        {
          "internalType": "address",
          "name": "",
          "type": "address"
        }
      ],
      "stateMutability": "view",
      "type": "function"
    },
    {
      "inputs": [],
      "name": "_algorithm",
      "outputs": [
        {
          "internalType": "string",
          "name": "",
          "type": "string"
        }
      ],
      "stateMutability": "view",
      "type": "function"
    },
    {
      "inputs": [],
      "name": "_counter",
      "outputs": [
        {
          "internalType": "uint256",
          "name": "",
          "type": "uint256"
        }
      ],
      "stateMutability": "view",
      "type": "function"
    },
    {
      "inputs": [],
      "name": "_fee",
      "outputs": [
        {
          "internalType": "uint256",
          "name": "",
          "type": "uint256"
        }
      ],
      "stateMutability": "view",
      "type": "function"
    },
    {
      "inputs": [],
      "name": "_oracle",
      "outputs": [
        {
          "internalType": "address",
          "name": "",
          "type": "address"
        }
      ],
      "stateMutability": "view",
      "type": "function"
    },
    {
      "inputs": [],
      "name": "_paramsAddress",
      "outputs": [
        {
          "internalType": "address",
          "name": "",
          "type": "address"
        }
      ],
      "stateMutability": "view",
      "type": "function"
    },
    {
      "inputs": [
        {
          "internalType": "bytes32",
          "name": "",
          "type": "bytes32"
        }
      ],
      "name": "_requestIdData",
      "outputs": [
        {
          "internalType": "bytes",
          "name": "",
          "type": "bytes"
        }
      ],
      "stateMutability": "view",
      "type": "function"
    },
    {
      "inputs": [],
      "name": "_tokenAddrErc721",
      "outputs": [
        {
          "internalType": "address",
          "name": "",
          "type": "address"
        }
      ],
      "stateMutability": "view",
      "type": "function"
    },
    {
      "inputs": [],
      "name": "_uri",
      "outputs": [
        {
          "internalType": "string",
          "name": "",
          "type": "string"
        }
      ],
      "stateMutability": "view",
      "type": "function"
    },
    {
      "inputs": [],
      "name": "_whitelistFee",
      "outputs": [
        {
          "internalType": "uint256",
          "name": "",
          "type": "uint256"
        }
      ],
      "stateMutability": "view",
      "type": "function"
    },
    {
      "inputs": [
        {
          "internalType": "address[]",
          "name": "addrs",
          "type": "address[]"
        },
        {
          "internalType": "uint256",
          "name": "count",
          "type": "uint256"
        }
      ],
      "name": "addWhitelist",
      "outputs": [],
      "stateMutability": "nonpayable",
      "type": "function"
    },
    {
      "inputs": [
        {
          "internalType": "address",
          "name": "to",
          "type": "address"
        },
        {
          "internalType": "uint256",
          "name": "tokenId",
          "type": "uint256"
        }
      ],
      "name": "approve",
      "outputs": [],
      "stateMutability": "nonpayable",
      "type": "function"
    },
    {
      "inputs": [
        {
          "internalType": "address",
          "name": "owner",
          "type": "address"
        }
      ],
      "name": "balanceOf",
      "outputs": [
        {
          "internalType": "uint256",
          "name": "",
          "type": "uint256"
        }
      ],
      "stateMutability": "view",
      "type": "function"
    },
    {
      "inputs": [
        {
          "internalType": "address",
          "name": "newAdm",
          "type": "address"
        }
      ],
      "name": "changeAdmin",
      "outputs": [],
      "stateMutability": "nonpayable",
      "type": "function"
    },
    {
      "inputs": [
        {
          "internalType": "string",
          "name": "baseURI",
          "type": "string"
        }
      ],
      "name": "changeBaseURI",
      "outputs": [],
      "stateMutability": "nonpayable",
      "type": "function"
    },
    {
      "inputs": [
        {
          "internalType": "address",
          "name": "oracle",
          "type": "address"
        }
      ],
      "name": "changeOracle",
      "outputs": [],
      "stateMutability": "nonpayable",
      "type": "function"
    },
    {
      "inputs": [
        {
          "internalType": "address",
          "name": "sweet",
          "type": "address"
        }
      ],
      "name": "changeToken",
      "outputs": [],
      "stateMutability": "nonpayable",
      "type": "function"
    },
    {
      "inputs": [
        {
          "internalType": "bytes32",
          "name": "requestId",
          "type": "bytes32"
        },
        {
          "internalType": "bytes",
          "name": "gameData",
          "type": "bytes"
        }
      ],
      "name": "fulfill",
      "outputs": [],
      "stateMutability": "nonpayable",
      "type": "function"
    },
    {
      "inputs": [
        {
          "internalType": "uint256",
          "name": "tokenId",
          "type": "uint256"
        }
      ],
      "name": "getApproved",
      "outputs": [
        {
          "internalType": "address",
          "name": "",
          "type": "address"
        }
      ],
      "stateMutability": "view",
      "type": "function"
    },
    {
      "inputs": [
        {
          "internalType": "uint256",
          "name": "tokenId",
          "type": "uint256"
        }
      ],
      "name": "getParamValues",
      "outputs": [
        {
          "components": [
            {
              "internalType": "string",
              "name": "_emotion",
              "type": "string"
            },
            {
              "internalType": "string",
              "name": "_emotionTime",
              "type": "string"
            },
            {
              "internalType": "string",
              "name": "_nation",
              "type": "string"
            },
            {
              "internalType": "string",
              "name": "_dna",
              "type": "string"
            },
            {
              "internalType": "string",
              "name": "_beard",
              "type": "string"
            },
            {
              "internalType": "string",
              "name": "_hair",
              "type": "string"
            },
            {
              "internalType": "string",
              "name": "_undershirt",
              "type": "string"
            },
            {
              "internalType": "string",
              "name": "_shoes",
              "type": "string"
            },
            {
              "internalType": "string",
              "name": "_top",
              "type": "string"
            },
            {
              "internalType": "string",
              "name": "_bottom",
              "type": "string"
            },
            {
              "internalType": "uint256",
              "name": "_number",
              "type": "uint256"
            },
            {
              "internalType": "string",
              "name": "_tatoo",
              "type": "string"
            },
            {
              "internalType": "string",
              "name": "_glasses",
              "type": "string"
            },
            {
              "internalType": "string",
              "name": "_captain",
              "type": "string"
            }
          ],
          "internalType": "struct AVATARS.Player",
          "name": "player",
          "type": "tuple"
        }
      ],
      "stateMutability": "view",
      "type": "function"
    },
    {
      "inputs": [
        {
          "internalType": "string",
          "name": "name",
          "type": "string"
        },
        {
          "internalType": "string",
          "name": "symbol",
          "type": "string"
        },
        {
          "internalType": "address",
          "name": "admin",
          "type": "address"
        },
        {
          "internalType": "address",
          "name": "paramsAddress",
          "type": "address"
        }
      ],
      "name": "initialize",
      "outputs": [],
      "stateMutability": "nonpayable",
      "type": "function"
    },
    {
      "inputs": [
        {
          "internalType": "address",
          "name": "owner",
          "type": "address"
        },
        {
          "internalType": "address",
          "name": "operator",
          "type": "address"
        }
      ],
      "name": "isApprovedForAll",
      "outputs": [
        {
          "internalType": "bool",
          "name": "",
          "type": "bool"
        }
      ],
      "stateMutability": "view",
      "type": "function"
    },
    {
      "inputs": [],
      "name": "mint",
      "outputs": [],
      "stateMutability": "payable",
      "type": "function"
    },
    {
      "inputs": [
        {
          "internalType": "uint256",
          "name": "tokenIdGated",
          "type": "uint256"
        }
      ],
      "name": "mintByToken",
      "outputs": [],
      "stateMutability": "nonpayable",
      "type": "function"
    },
    {
      "inputs": [],
      "name": "mintWhitelist",
      "outputs": [],
      "stateMutability": "payable",
      "type": "function"
    },
    {
      "inputs": [],
      "name": "name",
      "outputs": [
        {
          "internalType": "string",
          "name": "",
          "type": "string"
        }
      ],
      "stateMutability": "view",
      "type": "function"
    },
    {
      "inputs": [],
      "name": "owner",
      "outputs": [
        {
          "internalType": "address",
          "name": "",
          "type": "address"
        }
      ],
      "stateMutability": "view",
      "type": "function"
    },
    {
      "inputs": [
        {
          "internalType": "uint256",
          "name": "id",
          "type": "uint256"
        }
      ],
      "name": "ownerMint",
      "outputs": [],
      "stateMutability": "nonpayable",
      "type": "function"
    },
    {
      "inputs": [
        {
          "internalType": "uint256",
          "name": "tokenId",
          "type": "uint256"
        }
      ],
      "name": "ownerOf",
      "outputs": [
        {
          "internalType": "address",
          "name": "",
          "type": "address"
        }
      ],
      "stateMutability": "view",
      "type": "function"
    },
    {
      "inputs": [],
      "name": "pause",
      "outputs": [],
      "stateMutability": "nonpayable",
      "type": "function"
    },
    {
      "inputs": [],
      "name": "paused",
      "outputs": [
        {
          "internalType": "bool",
          "name": "",
          "type": "bool"
        }
      ],
      "stateMutability": "view",
      "type": "function"
    },
    {
      "inputs": [],
      "name": "renounceOwnership",
      "outputs": [],
      "stateMutability": "nonpayable",
      "type": "function"
    },
    {
      "inputs": [
        {
          "internalType": "uint256",
          "name": "_tokenId",
          "type": "uint256"
        },
        {
          "internalType": "uint256",
          "name": "_salePrice",
          "type": "uint256"
        }
      ],
      "name": "royaltyInfo",
      "outputs": [
        {
          "internalType": "address",
          "name": "receiver",
          "type": "address"
        },
        {
          "internalType": "uint256",
          "name": "royaltyAmount",
          "type": "uint256"
        }
      ],
      "stateMutability": "view",
      "type": "function"
    },
    {
      "inputs": [
        {
          "internalType": "address",
          "name": "from",
          "type": "address"
        },
        {
          "internalType": "address",
          "name": "to",
          "type": "address"
        },
        {
          "internalType": "uint256",
          "name": "tokenId",
          "type": "uint256"
        }
      ],
      "name": "safeTransferFrom",
      "outputs": [],
      "stateMutability": "nonpayable",
      "type": "function"
    },
    {
      "inputs": [
        {
          "internalType": "address",
          "name": "from",
          "type": "address"
        },
        {
          "internalType": "address",
          "name": "to",
          "type": "address"
        },
        {
          "internalType": "uint256",
          "name": "tokenId",
          "type": "uint256"
        },
        {
          "internalType": "bytes",
          "name": "data",
          "type": "bytes"
        }
      ],
      "name": "safeTransferFrom",
      "outputs": [],
      "stateMutability": "nonpayable",
      "type": "function"
    },
    {
      "inputs": [
        {
          "internalType": "string",
          "name": "algo",
          "type": "string"
        }
      ],
      "name": "setAlgo",
      "outputs": [],
      "stateMutability": "nonpayable",
      "type": "function"
    },
    {
      "inputs": [
        {
          "internalType": "address",
          "name": "operator",
          "type": "address"
        },
        {
          "internalType": "bool",
          "name": "approved",
          "type": "bool"
        }
      ],
      "name": "setApprovalForAll",
      "outputs": [],
      "stateMutability": "nonpayable",
      "type": "function"
    },
    {
      "inputs": [
        {
          "internalType": "uint256",
          "name": "fee",
          "type": "uint256"
        }
      ],
      "name": "setFee",
      "outputs": [],
      "stateMutability": "nonpayable",
      "type": "function"
    },
    {
      "inputs": [
        {
          "internalType": "uint256",
          "name": "whitelistFee",
          "type": "uint256"
        }
      ],
      "name": "setWhitelistFee",
      "outputs": [],
      "stateMutability": "nonpayable",
      "type": "function"
    },
    {
      "inputs": [
        {
          "internalType": "bytes4",
          "name": "interfaceId",
          "type": "bytes4"
        }
      ],
      "name": "supportsInterface",
      "outputs": [
        {
          "internalType": "bool",
          "name": "",
          "type": "bool"
        }
      ],
      "stateMutability": "view",
      "type": "function"
    },
    {
      "inputs": [],
      "name": "symbol",
      "outputs": [
        {
          "internalType": "string",
          "name": "",
          "type": "string"
        }
      ],
      "stateMutability": "view",
      "type": "function"
    },
    {
      "inputs": [
        {
          "internalType": "uint256",
          "name": "tokenId",
          "type": "uint256"
        }
      ],
      "name": "tokenURI",
      "outputs": [
        {
          "internalType": "string",
          "name": "",
          "type": "string"
        }
      ],
      "stateMutability": "view",
      "type": "function"
    },
    {
      "inputs": [
        {
          "internalType": "address",
          "name": "from",
          "type": "address"
        },
        {
          "internalType": "address",
          "name": "to",
          "type": "address"
        },
        {
          "internalType": "uint256",
          "name": "tokenId",
          "type": "uint256"
        }
      ],
      "name": "transferFrom",
      "outputs": [],
      "stateMutability": "nonpayable",
      "type": "function"
    },
    {
      "inputs": [
        {
          "internalType": "address",
          "name": "newOwner",
          "type": "address"
        }
      ],
      "name": "transferOwnership",
      "outputs": [],
      "stateMutability": "nonpayable",
      "type": "function"
    },
    {
      "inputs": [],
      "name": "unpause",
      "outputs": [],
      "stateMutability": "nonpayable",
      "type": "function"
    },
    {
      "inputs": [
        {
          "internalType": "uint256",
          "name": "amount",
          "type": "uint256"
        }
      ],
      "name": "withdraw",
      "outputs": [],
      "stateMutability": "nonpayable",
      "type": "function"
    }
  ],
  "bytecode": "0x608060405234801561001057600080fd5b50614937806100206000396000f3fe60806040526004361061027d5760003560e01c806370a082311161014f578063a22cb465116100c1578063c87b56dd1161007a578063c87b56dd1461075a578063d59783141461077a578063e653c6501461079a578063e985e9c5146107bb578063f19e75d4146107db578063f2fde38b146107fb57600080fd5b8063a22cb46514610695578063adfc7dae146106b5578063b88d4fde146106d6578063c0dca239146106f6578063c5b37c2214610723578063c6283c381461073a57600080fd5b80638456cb59116101135780638456cb59146105f75780638da5cb5b1461060c5780638f15b4141461062b5780638f2839701461064b57806395d89b411461066b578063a1bb1fcc1461068057600080fd5b806370a082311461056b578063715018a61461058b5780637c1de7e1146105a05780637cd49fde146105c057806380d953dd146105d757600080fd5b80632d3df31f116101f35780635275f37a116101ac5780635275f37a146104ae5780635c975abb146104d35780636352211e146104eb578063645b67011461050b57806366829b161461052b57806369fe0e2d1461054b57600080fd5b80632d3df31f146104115780632e1a7d4d1461041957806339a0c6f9146104395780633f4ba83a1461045957806342842e0e1461046e57806347c421b51461048e57600080fd5b8063095ea7b311610245578063095ea7b3146103545780630dccc9ad146103745780631249c58b1461038957806323b872dd14610391578063247ac063146103b15780632a55205a146103d257600080fd5b806301bc45c91461028257806301ffc9a7146102c057806306fdde03146102f05780630764da1d14610312578063081812fc14610334575b600080fd5b34801561028e57600080fd5b5061015f546102a3906001600160a01b031681565b6040516001600160a01b0390911681526020015b60405180910390f35b3480156102cc57600080fd5b506102e06102db366004613e9a565b61081b565b60405190151581526020016102b7565b3480156102fc57600080fd5b5061030561086d565b6040516102b79190613f0f565b34801561031e57600080fd5b5061033261032d366004613fe7565b6108ff565b005b34801561034057600080fd5b506102a361034f36600461401c565b610968565b34801561036057600080fd5b5061033261036f366004614051565b61098f565b34801561038057600080fd5b50610305610aa5565b610332610b34565b34801561039d57600080fd5b506103326103ac36600461407b565b610be7565b3480156103bd57600080fd5b50610161546102a3906001600160a01b031681565b3480156103de57600080fd5b506103f26103ed3660046140b7565b610c18565b604080516001600160a01b0390931683526020830191909152016102b7565b610332610c49565b34801561042557600080fd5b5061033261043436600461401c565b610d70565b34801561044557600080fd5b50610332610454366004613fe7565b610e3e565b34801561046557600080fd5b50610332610e9a565b34801561047a57600080fd5b5061033261048936600461407b565b610eec565b34801561049a57600080fd5b506103326104a93660046140d9565b610f07565b3480156104ba57600080fd5b506104c56101695481565b6040519081526020016102b7565b3480156104df57600080fd5b5060975460ff166102e0565b3480156104f757600080fd5b506102a361050636600461401c565b610fb4565b34801561051757600080fd5b506103326105263660046140f4565b611014565b34801561053757600080fd5b506103326105463660046140d9565b6110bf565b34801561055757600080fd5b5061033261056636600461401c565b61112a565b34801561057757600080fd5b506104c56105863660046140d9565b611178565b34801561059757600080fd5b506103326111fe565b3480156105ac57600080fd5b506103326105bb3660046141a7565b611210565b3480156105cc57600080fd5b506104c56101645481565b3480156105e357600080fd5b506103326105f236600461401c565b61151a565b34801561060357600080fd5b50610332611696565b34801561061857600080fd5b5061012d546001600160a01b03166102a3565b34801561063757600080fd5b506103326106463660046141ee565b6116e6565b34801561065757600080fd5b506103326106663660046140d9565b61188a565b34801561067757600080fd5b50610305611926565b34801561068c57600080fd5b50610305611935565b3480156106a157600080fd5b506103326106b0366004614273565b611943565b3480156106c157600080fd5b50610160546102a3906001600160a01b031681565b3480156106e257600080fd5b506103326106f13660046142af565b61194e565b34801561070257600080fd5b5061071661071136600461401c565b611986565b6040516102b79190614317565b34801561072f57600080fd5b506104c56101675481565b34801561074657600080fd5b5061033261075536600461401c565b611c66565b34801561076657600080fd5b5061030561077536600461401c565b611cb4565b34801561078657600080fd5b5061030561079536600461401c565b611d1b565b3480156107a657600080fd5b50610166546102a3906001600160a01b031681565b3480156107c757600080fd5b506102e06107d63660046144b5565b611d35565b3480156107e757600080fd5b506103326107f636600461401c565b611d63565b34801561080757600080fd5b506103326108163660046140d9565b611e01565b60006001600160e01b031982166380ac58cd60e01b148061084c57506001600160e01b03198216635b5e139f60e01b145b8061086757506301ffc9a760e01b6001600160e01b03198316145b92915050565b60606065805461087c906144df565b80601f01602080910402602001604051908101604052809291908181526020018280546108a8906144df565b80156108f55780601f106108ca576101008083540402835291602001916108f5565b820191906000526020600020905b8154815290600101906020018083116108d857829003601f168201915b5050505050905090565b61015f5460408051808201909152600381526231303160e81b6020820152906001600160a01b0316331461094f5760405162461bcd60e51b81526004016109469190613f0f565b60405180910390fd5b50805161096490610163906020840190613dc4565b5050565b600061097382611e7a565b506000908152606960205260409020546001600160a01b031690565b600061099a82610fb4565b9050806001600160a01b0316836001600160a01b03161415610a085760405162461bcd60e51b815260206004820152602160248201527f4552433732313a20617070726f76616c20746f2063757272656e74206f776e656044820152603960f91b6064820152608401610946565b336001600160a01b0382161480610a245750610a248133611d35565b610a965760405162461bcd60e51b815260206004820152603e60248201527f4552433732313a20617070726f76652063616c6c6572206973206e6f7420746f60448201527f6b656e206f776e6572206e6f7220617070726f76656420666f7220616c6c00006064820152608401610946565b610aa08383611ed9565b505050565b6101658054610ab3906144df565b80601f0160208091040260200160405190810160405280929190818152602001828054610adf906144df565b8015610b2c5780601f10610b0157610100808354040283529160200191610b2c565b820191906000526020600020905b815481529060010190602001808311610b0f57829003601f168201915b505050505081565b600260fb541415610b575760405162461bcd60e51b81526004016109469061451a565b600260fb556101675415801590610b715750610167543410155b6040518060400160405280600381526020016232303160e81b81525090610bab5760405162461bcd60e51b81526004016109469190613f0f565b506123286101645410610bbd57600080fd5b6101648054906000610bce83614567565b9190505550610be03361016454611f47565b600160fb55565b610bf13382611f61565b610c0d5760405162461bcd60e51b815260040161094690614582565b610aa0838383611fc0565b61015f546001600160a01b03166000612710610c36846101f46145d0565b610c409190614605565b90509250929050565b600260fb541415610c6c5760405162461bcd60e51b81526004016109469061451a565b600260fb553360009081526101686020908152604091829020548251808401909352600383526203130360ec1b91830191909152610cbd5760405162461bcd60e51b81526004016109469190613f0f565b50600061016954118015610cd45750610169543410155b6040518060400160405280600381526020016232303160e81b81525090610d0e5760405162461bcd60e51b81526004016109469190613f0f565b506123286101645410610d2057600080fd5b6101648054906000610d3183614567565b9190505550610d433361016454611f47565b33600090815261016860205260408120805460019290610d64908490614619565b9091555050600160fb55565b600260fb541415610d935760405162461bcd60e51b81526004016109469061451a565b600260fb5561015f5460408051808201909152600381526231303160e81b6020820152906001600160a01b03163314610ddf5760405162461bcd60e51b81526004016109469190613f0f565b50604051600090339047908381818185875af1925050503d8060008114610e22576040519150601f19603f3d011682016040523d82523d6000602084013e610e27565b606091505b5050905080610e3557600080fd5b5050600160fb55565b61015f5460408051808201909152600381526231303160e81b6020820152906001600160a01b03163314610e855760405162461bcd60e51b81526004016109469190613f0f565b50805161096490610165906020840190613dc4565b61015f5460408051808201909152600381526231303160e81b6020820152906001600160a01b03163314610ee15760405162461bcd60e51b81526004016109469190613f0f565b50610eea612167565b565b610aa08383836040518060200160405280600081525061194e565b61015f5460408051808201909152600381526231303160e81b6020820152906001600160a01b03163314610f4e5760405162461bcd60e51b81526004016109469190613f0f565b5060408051808201909152600381526203130360ec1b60208201526001600160a01b038216610f905760405162461bcd60e51b81526004016109469190613f0f565b5061016180546001600160a01b0319166001600160a01b0392909216919091179055565b6000818152606760205260408120546001600160a01b0316806108675760405162461bcd60e51b8152602060048201526018602482015277115490cdcc8c4e881a5b9d985b1a59081d1bdad95b88125160421b6044820152606401610946565b61015f5460408051808201909152600381526231303160e81b6020820152906001600160a01b0316331461105b5760405162461bcd60e51b81526004016109469190613f0f565b5060005b8251811015610aa05781610168600085848151811061108057611080614630565b60200260200101516001600160a01b03166001600160a01b031681526020019081526020016000208190555080806110b790614567565b91505061105f565b61015f5460408051808201909152600381526231303160e81b6020820152906001600160a01b031633146111065760405162461bcd60e51b81526004016109469190613f0f565b5061016680546001600160a01b0319166001600160a01b0392909216919091179055565b61015f5460408051808201909152600381526231303160e81b6020820152906001600160a01b031633146111715760405162461bcd60e51b81526004016109469190613f0f565b5061016755565b60006001600160a01b0382166111e25760405162461bcd60e51b815260206004820152602960248201527f4552433732313a2061646472657373207a65726f206973206e6f7420612076616044820152683634b21037bbb732b960b91b6064820152608401610946565b506001600160a01b031660009081526068602052604090205490565b6112066121b9565b610eea6000612214565b6101615460408051808201909152600381526203130360ec1b6020820152906001600160a01b031633146112575760405162461bcd60e51b81526004016109469190613f0f565b50806040516112669190614646565b6040519081900381209083907fc6ef1c5f8f954d0251e9620ce4908018f1c31f432eb9b44fd9efb2ca569453f190600090a360008281526101626020908152604090912082516112b892840190613dc4565b506000806000806000806000878060200190518101906112d891906146cd565b965096509650965096509650965060006112f88460ff168460ff16612267565b6040805160a081018252600160608201818152603160f81b6080840152825282518084018452818152601960f91b6020828101919091528084019190915283518085018552828152603360f81b9181019190915292820192909252919250826003811115611368576113686147a3565b14156113f057806002602002015161016a886040516113879190614646565b908152602001604051809103902060000190805190602001906113ab929190613dc4565b508060015b602002015161016a876040516113c69190614646565b908152602001604051809103902060000190805190602001906113ea929190613dc4565b506114c1565b6002826003811115611404576114046147a3565b141561144e57602081015160405161016a90611421908a90614646565b90815260200160405180910390206000019080519060200190611445929190613dc4565b508060026113b0565b805160405161016a90611462908a90614646565b90815260200160405180910390206000019080519060200190611486929190613dc4565b50805160405161016a9061149b908990614646565b908152602001604051809103902060000190805190602001906114bf929190613dc4565b505b4261016a886040516114d39190614646565b9081526020016040518091039020600101819055504261016a876040516114fa9190614646565b908152604051908190036020019020600101555050505050505050505050565b600260fb54141561153d5760405162461bcd60e51b81526004016109469061451a565b600260fb556101665460408051808201909152600381526203130360ec1b6020820152906001600160a01b03166115875760405162461bcd60e51b81526004016109469190613f0f565b5060076115b18260405180604001604052806005815260200164736861706560d81b815250612292565b6115bb91906147b9565b6040805180820190915260038152620c8c0d60ea1b602082015290156115f45760405162461bcd60e51b81526004016109469190613f0f565b50610166546040516323b872dd60e01b8152336004820152306024820152604481018390526001600160a01b039091169081906323b872dd90606401600060405180830381600087803b15801561164a57600080fd5b505af115801561165e573d6000803e3d6000fd5b50505050612328610164541061167357600080fd5b610164805490600061168483614567565b9190505550610e353361016454611f47565b61015f5460408051808201909152600381526231303160e81b6020820152906001600160a01b031633146116dd5760405162461bcd60e51b81526004016109469190613f0f565b50610eea6122ce565b600054610100900460ff16158080156117065750600054600160ff909116105b806117205750303b158015611720575060005460ff166001145b6117835760405162461bcd60e51b815260206004820152602e60248201527f496e697469616c697a61626c653a20636f6e747261637420697320616c72656160448201526d191e481a5b9a5d1a585b1a5e995960921b6064820152608401610946565b6000805460ff1916600117905580156117a6576000805461ff0019166101001790555b6001600160a01b038316158015906117c657506001600160a01b03821615155b6040518060400160405280600381526020016203130360ec1b815250906118005760405162461bcd60e51b81526004016109469190613f0f565b5061180b858561230b565b61016080546001600160a01b038085166001600160a01b03199283161790925561015f8054928616929091169190911790558015611883576000805461ff0019169055604051600181527f7f26b83ff96e1f2b6a682f133852f6798a09c465da95921460cefb38474024989060200160405180910390a15b5050505050565b61015f546001600160a01b0316331480156118ad57506001600160a01b03811615155b80156118c8575061015f546001600160a01b03828116911614155b6040518060400160405280600381526020016231303160e81b815250906119025760405162461bcd60e51b81526004016109469190613f0f565b5061015f80546001600160a01b0319166001600160a01b0392909216919091179055565b60606066805461087c906144df565b6101638054610ab3906144df565b61096433838361233c565b6119583383611f61565b6119745760405162461bcd60e51b815260040161094690614582565b6119808484848461240b565b50505050565b6119f8604051806101c0016040528060608152602001606081526020016060815260200160608152602001606081526020016060815260200160608152602001606081526020016060815260200160608152602001600081526020016060815260200160608152602001606081525090565b6040805160a081018252600160608201818152603160f81b6080840152825282518084018452818152601960f91b6020828101919091528084019190915283518085018552918252603360f81b90820152918101919091526000611a5b8461243e565b9050600080611a69866128a5565b91509150600061016a84604051611a809190614646565b9081526040519081900360200190208054611a9a906144df565b80601f0160208091040260200160405190810160405280929190818152602001828054611ac6906144df565b8015611b135780601f10611ae857610100808354040283529160200191611b13565b820191906000526020600020905b815481529060010190602001808311611af657829003601f168201915b50939450620151809350611b35925086915085905060025b6020020151612971565b15611b4c57611b4581601e6145d0565b9050611b6b565b611b5884846001611b2b565b15611b6b57611b688160076145d0565b90505b8061016a86604051611b7d9190614646565b90815260200160405180910390206001015442611b9a9190614619565b1115611ba557855191505b604051806101c00160405280838152602001858152602001868152602001611bcc8a6129ca565b8152602001611bda8a612b40565b8152602001611be88a612c2f565b8152602001611bf68a612f6d565b8152602001611c048a61322d565b8152602001611c128a6132dc565b8152602001611c208a613418565b8152602001611c2e8a613533565b8152602001611c3c8a613682565b8152602001611c4a8a613737565b8152602001611c588a613822565b905298975050505050505050565b61015f5460408051808201909152600381526231303160e81b6020820152906001600160a01b03163314611cad5760405162461bcd60e51b81526004016109469190613f0f565b5061016955565b6060611cbf82611e7a565b6000611cc96138b5565b90506000815111611ce95760405180602001604052806000815250611d14565b80611cf3846138c5565b604051602001611d049291906147cd565b6040516020818303038152906040525b9392505050565b6101626020526000908152604090208054610ab3906144df565b6001600160a01b039182166000908152606a6020908152604080832093909416825291909152205460ff1690565b600260fb541415611d865760405162461bcd60e51b81526004016109469061451a565b600260fb5561015f5460408051808201909152600381526231303160e81b6020820152906001600160a01b03163314611dd25760405162461bcd60e51b81526004016109469190613f0f565b5061232881118015611de657506127108111155b611def57600080fd5b611df93382611f47565b50600160fb55565b611e096121b9565b6001600160a01b038116611e6e5760405162461bcd60e51b815260206004820152602660248201527f4f776e61626c653a206e6577206f776e657220697320746865207a65726f206160448201526564647265737360d01b6064820152608401610946565b611e7781612214565b50565b6000818152606760205260409020546001600160a01b0316611e775760405162461bcd60e51b8152602060048201526018602482015277115490cdcc8c4e881a5b9d985b1a59081d1bdad95b88125160421b6044820152606401610946565b600081815260696020526040902080546001600160a01b0319166001600160a01b0384169081179091558190611f0e82610fb4565b6001600160a01b03167f8c5be1e5ebec7d5bd14f71427d1e84f3dd0314c0f7b2291e5b200ac8c7c3b92560405160405180910390a45050565b6109648282604051806020016040528060008152506139c3565b600080611f6d83610fb4565b9050806001600160a01b0316846001600160a01b03161480611f945750611f948185611d35565b80611fb85750836001600160a01b0316611fad84610968565b6001600160a01b0316145b949350505050565b826001600160a01b0316611fd382610fb4565b6001600160a01b0316146120375760405162461bcd60e51b815260206004820152602560248201527f4552433732313a207472616e736665722066726f6d20696e636f72726563742060448201526437bbb732b960d91b6064820152608401610946565b6001600160a01b0382166120995760405162461bcd60e51b8152602060048201526024808201527f4552433732313a207472616e7366657220746f20746865207a65726f206164646044820152637265737360e01b6064820152608401610946565b6120a48383836139f6565b6120af600082611ed9565b6001600160a01b03831660009081526068602052604081208054600192906120d8908490614619565b90915550506001600160a01b03821660009081526068602052604081208054600192906121069084906147fc565b909155505060008181526067602052604080822080546001600160a01b0319166001600160a01b0386811691821790925591518493918716917fddf252ad1be2c89b69c2b068fc378daa952ba7f163c4a11628f55a4df523b3ef91a4505050565b61216f613a5d565b6097805460ff191690557f5db9ee0a495bf2e6ff9c91a7834c1ba4fdd244a5e8aa4e537bd38aeae4b073aa335b6040516001600160a01b03909116815260200160405180910390a1565b61012d546001600160a01b03163314610eea5760405162461bcd60e51b815260206004820181905260248201527f4f776e61626c653a2063616c6c6572206973206e6f7420746865206f776e65726044820152606401610946565b61012d80546001600160a01b038381166001600160a01b0319831681179093556040519116919082907f8be0079c531659141344cd1fd0a4f28419497f9722a3daafe3b4186f6b6457e090600090a35050565b60008183111561227957506001610867565b8183141561228957506003610867565b50600292915050565b60008161229e846138c5565b6040516020016122af9291906147cd565b60408051601f1981840301815291905280516020909101209392505050565b6122d6613aa6565b6097805460ff191660011790557f62e78cea01bee320cd4e420270b5ea74000d11b0c9f74754ebdbfc544b05a25861219c3390565b600054610100900460ff166123325760405162461bcd60e51b815260040161094690614814565b6109648282613aec565b816001600160a01b0316836001600160a01b0316141561239e5760405162461bcd60e51b815260206004820152601960248201527f4552433732313a20617070726f766520746f2063616c6c6572000000000000006044820152606401610946565b6001600160a01b038381166000818152606a6020908152604080832094871680845294825291829020805460ff191686151590811790915591519182527f17307eab39ab6107e8899845ad3d59bd9653f200f220920489ca2b5937696c31910160405180910390a3505050565b612416848484611fc0565b61242284848484613b3a565b6119805760405162461bcd60e51b81526004016109469061485f565b6040805161044081018252600561040082018181526428b0ba30b960d91b61042084015282528251808401845260078082526622b1bab0b237b960c91b60208381019190915280850192909252845180860186528181526614d95b9959d85b60ca1b818401528486015284518086018652600b8082526a4e65746865726c616e647360a81b828501526060868101929092528651808801885283815266115b99db185b9960ca1b818601526080870152865180880188528381526624a91024b930b760c91b8186015260a087015286518088018852600381526255534160e81b8186015260c0870152865180880188528581526457616c657360d81b8186015260e087015286518088018852600980825268417267656e74696e6160b81b8287015261010088019190915287518089018952600c81526b53617564692041726162696160a01b81870152610120880152875180890189526006808252654d657869636f60d01b828801526101408901919091528851808a018a5281815265141bdb185b9960d21b818801526101608901528851808a018a52818152654672616e636560d01b818801526101808901528851808a018a52918252684175737472616c696160b81b828701526101a0880191909152875180890189528481526644656e6d61726b60c81b818701526101c0880152875180890189528481526654756e6973696160c81b818701526101e0880152875180890189528681526429b830b4b760d91b8187015261020088015287518089018952600a815269436f737461205269636160b01b8187015261022088015287518089018952848152664765726d616e7960c81b8187015261024088015287518089018952868152642530b830b760d91b81870152610260880152875180890189528481526642656c6769756d60c81b81870152610280880152875180890189528181526543616e61646160d01b818701526102a088015287518089018952848152664d6f726f63636f60c81b818701526102c0880152875180890189528481526643726f6174696160c81b818701526102e08801528751808901895281815265109c985e9a5b60d21b81870152610300880152875180890189528181526553657262696160d01b81870152610320880152875180890189529182526a14ddda5d1e995c9b185b9960aa1b828601526103408701919091528651808801885260088082526721b0b6b2b937b7b760c11b828701526103608801919091528751808901895290815267141bdc9d1d59d85b60c21b8186015261038087015286518088018852948552644768616e6160d81b858501526103a086019490945285518087018752918252665572756775617960c81b828401526103c085019190915284518086018652600e81526d4b6f7265612052657075626c696360901b818401526103e08501528451808601909552918452653730ba34b7b760d11b84820152909282919061287f908690612292565b61288991906147b9565b6020811061289957612899614630565b60200201519392505050565b60606128af613e48565b60006040518060600160405280604051806040016040528060018152602001603160f81b8152508152602001604051806040016040528060018152602001601960f91b8152508152602001604051806040016040528060018152602001603360f81b8152508152509050806003612949866040518060400160405280600b81526020016a656d6f74696f6e54696d6560a81b815250612292565b61295391906147b9565b6003811061296357612963614630565b602002015194909350915050565b6000816040516020016129849190614646565b60405160208183030381529060405280519060200120836040516020016129ab9190614646565b6040516020818303038152906040528051906020012014905092915050565b6040805161010081018252600160c08201818152603160f81b60e0840152825282518084018452818152601960f91b6020828101919091528084019190915283518085018552828152603360f81b818301528385015283518085018552828152600d60fa1b8183015260608481019190915284518086018652838152603560f81b81840152608085015284518086018652838152601b60f91b8184015260a085015284518086019095526003855262646e6160e81b9185019190915292600091612a98918691612710613c38565b9050610bb8811115612ab5578160005b6020020151949350505050565b60018110158015612ac857506107d08111155b15612ad557816001612aa8565b6107d18110158015612ae95750610a288111155b15612af657816002612aa8565b610a298110158015612b0a5750610b548111155b15612b1757816003612aa8565b610b558110158015612b2b5750610bae8111155b15612b3857816004612aa8565b816005612aa8565b6040805160a08101825260016060828101828152600360fc1b6080850152835283518085018552828152603160f81b6020828101919091528085019190915284518086018652928352601960f91b90830152928201526000612ba1846129ca565b9050612bc681604051806040016040528060018152602001603160f81b815250612971565b15612c0f57816003612bf586604051806040016040528060058152602001641899585c9960da1b815250612292565b612bff91906147b9565b60038110612aa857612aa8614630565b50506040805180820190915260018152600360fc1b602082015292915050565b60606000604051806101400160405280604051806040016040528060018152602001600360fc1b8152508152602001604051806040016040528060018152602001603160f81b8152508152602001604051806040016040528060018152602001601960f91b8152508152602001604051806040016040528060018152602001603360f81b8152508152602001604051806040016040528060018152602001600d60fa1b8152508152602001604051806040016040528060018152602001603560f81b8152508152602001604051806040016040528060018152602001601b60f91b8152508152602001604051806040016040528060018152602001603760f81b8152508152602001604051806040016040528060018152602001600760fb1b8152508152602001604051806040016040528060018152602001603960f81b815250815250905060006040518060e00160405280604051806040016040528060018152602001603160f81b8152508152602001604051806040016040528060018152602001601960f91b8152508152602001604051806040016040528060018152602001603360f81b8152508152602001604051806040016040528060018152602001600d60fa1b8152508152602001604051806040016040528060018152602001603560f81b8152508152602001604051806040016040528060018152602001601b60f91b8152508152602001604051806040016040528060018152602001603760f81b81525081525090506000612e66856129ca565b9050612e8b81604051806040016040528060018152602001601960f91b815250612971565b15612ee157816007612eb987604051806040016040528060048152602001633430b4b960e11b815250612292565b612ec391906147b9565b60078110612ed357612ed3614630565b602002015195945050505050565b612f0481604051806040016040528060018152602001603160f81b815250612971565b15612f4c5782600a612f3287604051806040016040528060048152602001633430b4b960e11b815250612292565b612f3c91906147b9565b600a8110612ed357612ed3614630565b50506040805180820190915260018152600360fc1b60208201529392505050565b604080516102608101825260016102208201818152603160f81b610240840152825282518084018452818152601960f91b6020828101919091528084019190915283518085018552828152603360f81b818301528385015283518085018552828152600d60fa1b8183015260608481019190915284518086018652838152603560f81b81840152608085015284518086018652838152601b60f91b8184015260a085015284518086018652838152603760f81b8184015260c085015284518086018652838152600760fb1b8184015260e085015284518086018652928352603960f81b8383015261010084019290925283518085018552600280825261031360f41b828401526101208501919091528451808601865281815261313160f01b818401526101408501528451808601865281815261189960f11b818401526101608501528451808601865281815261313360f01b8184015261018085015284518086018652818152610c4d60f21b818401526101a08501528451808601865281815261313560f01b818401526101c08501528451808601865281815261189b60f11b818401526101e08501528451808601909552845261313760f01b908401526102008201929092526000613140846129ca565b905061316581604051806040016040528060018152602001603160f81b815250612971565b15612c0f576000613175856132dc565b905061319a81604051806040016040528060018152602001603160f81b815250612971565b1561320c5760006131aa86613533565b9050801561320a578360116131e1886040518060400160405280600a8152602001691d5b99195c9cda1a5c9d60b21b815250612292565b6131eb91906147b9565b601181106131fb576131fb614630565b60200201519695505050505050565b505b5050506040805180820190915260018152600360fc1b602082015292915050565b606060006040518060600160405280604051806040016040528060018152602001603160f81b8152508152602001604051806040016040528060018152602001601960f91b8152508152602001604051806040016040528060018152602001603360f81b81525081525090508060036132c2856040518060400160405280600481526020016373686f6560e01b815250612292565b6132cc91906147b9565b6003811061289957612899614630565b6040805160a0808201835260016060838101828152603160f81b608080870182905291865286518088018852848152601960f91b6020828101829052808901929092528851808a018a52868152603360f81b81840152888a0152885196870189528685018681529387019290925291855286518088018852848152808301919091528482015285518087018752928352600d60fa1b90830152938201526000613384856129ca565b90506133a981604051806040016040528060018152602001601960f91b815250612971565b156133f0578160036133d687604051806040016040528060038152602001620746f760ec1b815250612292565b6133e091906147b9565b60038110612ed357612ed3614630565b8260036133d687604051806040016040528060038152602001620746f760ec1b815250612292565b60408051608080820183526001828401818152603360f81b60608581019190915290845284518086018652828152600d60fa1b6020828101919091528086019190915285519384018652838601838152603160f81b8584015284528551808701909652918552601960f91b85830152908201939093526000613499856129ca565b90506134be81604051806040016040528060018152602001601960f91b815250612971565b15613508578260026134ee8760405180604001604052806006815260200165626f74746f6d60d01b815250612292565b6134f891906147b9565b60028110612ed357612ed3614630565b8160026134ee8760405180604001604052806006815260200165626f74746f6d60d01b815250612292565b600080604051806103400160405280600181526020016002815260200160038152602001600481526020016005815260200160068152602001600781526020016008815260200160098152602001600a8152602001600b8152602001600c8152602001600d8152602001600e8152602001600f815260200160108152602001601181526020016012815260200160138152602001601481526020016015815260200160168152602001601781526020016018815260200160198152602001601a815250905060006136278460405180604001604052806006815260200165373ab6b132b960d11b8152506001612710613c38565b9050611e7881111561363d575060009392505050565b81601a6136688660405180604001604052806006815260200165373ab6b132b960d11b815250612292565b61367291906147b9565b601a8110612aa857612aa8614630565b6040805160c081018252600160808201818152600360fc1b60a0840152825282518084018452818152603160f81b6020828101919091528084019190915283518085018552828152601960f91b818301528385015283518085018552918252603360f81b82820152606083810192909252835180850190945260058452647461746f6f60d81b9084015291819060049061371d908690612292565b61372791906147b9565b6004811061289957612899614630565b6040805161010081018252600160c08201818152600360fc1b60e0840152825282518084018452818152603160f81b6020828101919091528084019190915283518085018552828152601960f91b818301528385015283518085018552828152603360f81b8183015260608481019190915284518086018652838152600d60fa1b81840152608085015284518086018652928352603560f81b8383015260a084019290925283518085019094526007845266676c617373657360c81b90840152918190600690613808908690612292565b61381291906147b9565b6006811061289957612899614630565b606060006040518060400160405280604051806040016040528060018152602001600360fc1b8152508152602001604051806040016040528060018152602001603160f81b815250815250905080600261389b856040518060400160405280600781526020016631b0b83a30b4b760c91b815250612292565b6138a591906147b9565b6002811061289957612899614630565b6060610165805461087c906144df565b6060816138e95750506040805180820190915260018152600360fc1b602082015290565b8160005b811561391357806138fd81614567565b915061390c9050600a83614605565b91506138ed565b60008167ffffffffffffffff81111561392e5761392e613f22565b6040519080825280601f01601f191660200182016040528015613958576020820181803683370190505b5090505b8415611fb85761396d600183614619565b915061397a600a866147b9565b6139859060306147fc565b60f81b81838151811061399a5761399a614630565b60200101906001600160f81b031916908160001a9053506139bc600a86614605565b945061395c565b6139cd8383613c76565b6139da6000848484613b3a565b610aa05760405162461bcd60e51b81526004016109469061485f565b60975460ff1615610aa05760405162461bcd60e51b815260206004820152602b60248201527f4552433732315061757361626c653a20746f6b656e207472616e73666572207760448201526a1a1a5b19481c185d5cd95960aa1b6064820152608401610946565b60975460ff16610eea5760405162461bcd60e51b815260206004820152601460248201527314185d5cd8589b194e881b9bdd081c185d5cd95960621b6044820152606401610946565b60975460ff1615610eea5760405162461bcd60e51b815260206004820152601060248201526f14185d5cd8589b194e881c185d5cd95960821b6044820152606401610946565b600054610100900460ff16613b135760405162461bcd60e51b815260040161094690614814565b8151613b26906065906020850190613dc4565b508051610aa0906066906020840190613dc4565b60006001600160a01b0384163b15613c2d57604051630a85bd0160e11b81526001600160a01b0385169063150b7a0290613b7e9033908990889088906004016148b1565b6020604051808303816000875af1925050508015613bb9575060408051601f3d908101601f19168201909252613bb6918101906148e4565b60015b613c13573d808015613be7576040519150601f19603f3d011682016040523d82523d6000602084013e613bec565b606091505b508051613c0b5760405162461bcd60e51b81526004016109469061485f565b805181602001fd5b6001600160e01b031916630a85bd0160e11b149050611fb8565b506001949350505050565b6000613c448383614619565b613c4f9060016147fc565b613c598686612292565b613c6391906147b9565b613c6d90846147fc565b95945050505050565b6001600160a01b038216613ccc5760405162461bcd60e51b815260206004820181905260248201527f4552433732313a206d696e7420746f20746865207a65726f20616464726573736044820152606401610946565b6000818152606760205260409020546001600160a01b031615613d315760405162461bcd60e51b815260206004820152601c60248201527f4552433732313a20746f6b656e20616c7265616479206d696e746564000000006044820152606401610946565b613d3d600083836139f6565b6001600160a01b0382166000908152606860205260408120805460019290613d669084906147fc565b909155505060008181526067602052604080822080546001600160a01b0319166001600160a01b03861690811790915590518392907fddf252ad1be2c89b69c2b068fc378daa952ba7f163c4a11628f55a4df523b3ef908290a45050565b828054613dd0906144df565b90600052602060002090601f016020900481019282613df25760008555613e38565b82601f10613e0b57805160ff1916838001178555613e38565b82800160010185558215613e38579182015b82811115613e38578251825591602001919060010190613e1d565b50613e44929150613e6f565b5090565b60405180606001604052806003905b6060815260200190600190039081613e575790505090565b5b80821115613e445760008155600101613e70565b6001600160e01b031981168114611e7757600080fd5b600060208284031215613eac57600080fd5b8135611d1481613e84565b60005b83811015613ed2578181015183820152602001613eba565b838111156119805750506000910152565b60008151808452613efb816020860160208601613eb7565b601f01601f19169290920160200192915050565b602081526000611d146020830184613ee3565b634e487b7160e01b600052604160045260246000fd5b604051601f8201601f1916810167ffffffffffffffff81118282101715613f6157613f61613f22565b604052919050565b600067ffffffffffffffff821115613f8357613f83613f22565b50601f01601f191660200190565b600082601f830112613fa257600080fd5b8135613fb5613fb082613f69565b613f38565b818152846020838601011115613fca57600080fd5b816020850160208301376000918101602001919091529392505050565b600060208284031215613ff957600080fd5b813567ffffffffffffffff81111561401057600080fd5b611fb884828501613f91565b60006020828403121561402e57600080fd5b5035919050565b80356001600160a01b038116811461404c57600080fd5b919050565b6000806040838503121561406457600080fd5b61406d83614035565b946020939093013593505050565b60008060006060848603121561409057600080fd5b61409984614035565b92506140a760208501614035565b9150604084013590509250925092565b600080604083850312156140ca57600080fd5b50508035926020909101359150565b6000602082840312156140eb57600080fd5b611d1482614035565b6000806040838503121561410757600080fd5b823567ffffffffffffffff8082111561411f57600080fd5b818501915085601f83011261413357600080fd5b813560208282111561414757614147613f22565b8160051b9250614158818401613f38565b828152928401810192818101908985111561417257600080fd5b948201945b848610156141975761418886614035565b82529482019490820190614177565b9997909101359750505050505050565b600080604083850312156141ba57600080fd5b82359150602083013567ffffffffffffffff8111156141d857600080fd5b6141e485828601613f91565b9150509250929050565b6000806000806080858703121561420457600080fd5b843567ffffffffffffffff8082111561421c57600080fd5b61422888838901613f91565b9550602087013591508082111561423e57600080fd5b5061424b87828801613f91565b93505061425a60408601614035565b915061426860608601614035565b905092959194509250565b6000806040838503121561428657600080fd5b61428f83614035565b9150602083013580151581146142a457600080fd5b809150509250929050565b600080600080608085870312156142c557600080fd5b6142ce85614035565b93506142dc60208601614035565b925060408501359150606085013567ffffffffffffffff8111156142ff57600080fd5b61430b87828801613f91565b91505092959194509250565b60208152600082516101c08060208501526143366101e0850183613ee3565b91506020850151601f19808685030160408701526143548483613ee3565b935060408701519150808685030160608701526143718483613ee3565b9350606087015191508086850301608087015261438e8483613ee3565b935060808701519150808685030160a08701526143ab8483613ee3565b935060a08701519150808685030160c08701526143c88483613ee3565b935060c08701519150808685030160e08701526143e58483613ee3565b935060e087015191506101008187860301818801526144048584613ee3565b9450808801519250506101208187860301818801526144238584613ee3565b9450808801519250506101408187860301818801526144428584613ee3565b9450808801519250506101608281880152808801519250506101808187860301818801526144708584613ee3565b9450808801519250506101a081878603018188015261448f8584613ee3565b9088015187820390920184880152935090506144ab8382613ee3565b9695505050505050565b600080604083850312156144c857600080fd5b6144d183614035565b9150610c4060208401614035565b600181811c908216806144f357607f821691505b6020821081141561451457634e487b7160e01b600052602260045260246000fd5b50919050565b6020808252601f908201527f5265656e7472616e637947756172643a207265656e7472616e742063616c6c00604082015260600190565b634e487b7160e01b600052601160045260246000fd5b600060001982141561457b5761457b614551565b5060010190565b6020808252602e908201527f4552433732313a2063616c6c6572206973206e6f7420746f6b656e206f776e6560408201526d1c881b9bdc88185c1c1c9bdd995960921b606082015260800190565b60008160001904831182151516156145ea576145ea614551565b500290565b634e487b7160e01b600052601260045260246000fd5b600082614614576146146145ef565b500490565b60008282101561462b5761462b614551565b500390565b634e487b7160e01b600052603260045260246000fd5b60008251614658818460208701613eb7565b9190910192915050565b805164ffffffffff8116811461404c57600080fd5b600082601f83011261468857600080fd5b8151614696613fb082613f69565b8181528460208386010111156146ab57600080fd5b611fb8826020830160208701613eb7565b805160ff8116811461404c57600080fd5b600080600080600080600060e0888a0312156146e857600080fd5b875163ffffffff811681146146fc57600080fd5b965061470a60208901614662565b9550604088015167ffffffffffffffff8082111561472757600080fd5b6147338b838c01614677565b965060608a015191508082111561474957600080fd5b6147558b838c01614677565b955061476360808b016146bc565b945061477160a08b016146bc565b935060c08a015191508082111561478757600080fd5b506147948a828b01614677565b91505092959891949750929550565b634e487b7160e01b600052602160045260246000fd5b6000826147c8576147c86145ef565b500690565b600083516147df818460208801613eb7565b8351908301906147f3818360208801613eb7565b01949350505050565b6000821982111561480f5761480f614551565b500190565b6020808252602b908201527f496e697469616c697a61626c653a20636f6e7472616374206973206e6f74206960408201526a6e697469616c697a696e6760a81b606082015260800190565b60208082526032908201527f4552433732313a207472616e7366657220746f206e6f6e20455243373231526560408201527131b2b4bb32b91034b6b83632b6b2b73a32b960711b606082015260800190565b6001600160a01b03858116825284166020820152604081018390526080606082018190526000906144ab90830184613ee3565b6000602082840312156148f657600080fd5b8151611d1481613e8456fea2646970667358221220ab9c625227d49ecd8ba6153cc52336040e35dd67fa2f5f4b241f55cba410048564736f6c634300080c0033",
  "linkReferences": {},
  "deployedLinkReferences": {}
}