{
  "_format": "hh-sol-artifact-1",
  "contractName": "AVATARS",
  "sourceName": "contracts/nft/AVATARS.sol",
  "abi": [
    {
      "anonymous": false,
      "inputs": [
        {
          "indexed": true,
          "internalType": "address",
          "name": "owner",
          "type": "address"
        },
        {
          "indexed": true,
          "internalType": "address",
          "name": "approved",
          "type": "address"
        },
        {
          "indexed": true,
          "internalType": "uint256",
          "name": "tokenId",
          "type": "uint256"
        }
      ],
      "name": "Approval",
      "type": "event"
    },
    {
      "anonymous": false,
      "inputs": [
        {
          "indexed": true,
          "internalType": "address",
          "name": "owner",
          "type": "address"
        },
        {
          "indexed": true,
          "internalType": "address",
          "name": "operator",
          "type": "address"
        },
        {
          "indexed": false,
          "internalType": "bool",
          "name": "approved",
          "type": "bool"
        }
      ],
      "name": "ApprovalForAll",
      "type": "event"
    },
    {
      "anonymous": false,
      "inputs": [
        {
          "indexed": false,
          "internalType": "uint8",
          "name": "version",
          "type": "uint8"
        }
      ],
      "name": "Initialized",
      "type": "event"
    },
    {
      "anonymous": false,
      "inputs": [
        {
          "indexed": true,
          "internalType": "address",
          "name": "previousOwner",
          "type": "address"
        },
        {
          "indexed": true,
          "internalType": "address",
          "name": "newOwner",
          "type": "address"
        }
      ],
      "name": "OwnershipTransferred",
      "type": "event"
    },
    {
      "anonymous": false,
      "inputs": [
        {
          "indexed": false,
          "internalType": "address",
          "name": "account",
          "type": "address"
        }
      ],
      "name": "Paused",
      "type": "event"
    },
    {
      "anonymous": false,
      "inputs": [
        {
          "indexed": true,
          "internalType": "bytes32",
          "name": "requestId",
          "type": "bytes32"
        },
        {
          "indexed": true,
          "internalType": "bytes",
          "name": "data",
          "type": "bytes"
        }
      ],
      "name": "RequestFulfilledData",
      "type": "event"
    },
    {
      "anonymous": false,
      "inputs": [
        {
          "indexed": true,
          "internalType": "address",
          "name": "from",
          "type": "address"
        },
        {
          "indexed": true,
          "internalType": "address",
          "name": "to",
          "type": "address"
        },
        {
          "indexed": true,
          "internalType": "uint256",
          "name": "tokenId",
          "type": "uint256"
        }
      ],
      "name": "Transfer",
      "type": "event"
    },
    {
      "anonymous": false,
      "inputs": [
        {
          "indexed": false,
          "internalType": "address",
          "name": "account",
          "type": "address"
        }
      ],
      "name": "Unpaused",
      "type": "event"
    },
    {
      "inputs": [],
      "name": "_admin",
      "outputs": [
        {
          "internalType": "address",
          "name": "",
          "type": "address"
        }
      ],
      "stateMutability": "view",
      "type": "function"
    },
    {
      "inputs": [],
      "name": "_algorithm",
      "outputs": [
        {
          "internalType": "string",
          "name": "",
          "type": "string"
        }
      ],
      "stateMutability": "view",
      "type": "function"
    },
    {
      "inputs": [],
      "name": "_counter",
      "outputs": [
        {
          "internalType": "uint256",
          "name": "",
          "type": "uint256"
        }
      ],
      "stateMutability": "view",
      "type": "function"
    },
    {
      "inputs": [],
      "name": "_fee",
      "outputs": [
        {
          "internalType": "uint256",
          "name": "",
          "type": "uint256"
        }
      ],
      "stateMutability": "view",
      "type": "function"
    },
    {
      "inputs": [],
      "name": "_oracle",
      "outputs": [
        {
          "internalType": "address",
          "name": "",
          "type": "address"
        }
      ],
      "stateMutability": "view",
      "type": "function"
    },
    {
      "inputs": [],
      "name": "_paramsAddress",
      "outputs": [
        {
          "internalType": "address",
          "name": "",
          "type": "address"
        }
      ],
      "stateMutability": "view",
      "type": "function"
    },
    {
      "inputs": [
        {
          "internalType": "bytes32",
          "name": "",
          "type": "bytes32"
        }
      ],
      "name": "_requestIdData",
      "outputs": [
        {
          "internalType": "bytes",
          "name": "",
          "type": "bytes"
        }
      ],
      "stateMutability": "view",
      "type": "function"
    },
    {
      "inputs": [],
      "name": "_tokenAddrErc721",
      "outputs": [
        {
          "internalType": "address",
          "name": "",
          "type": "address"
        }
      ],
      "stateMutability": "view",
      "type": "function"
    },
    {
      "inputs": [],
      "name": "_uri",
      "outputs": [
        {
          "internalType": "string",
          "name": "",
          "type": "string"
        }
      ],
      "stateMutability": "view",
      "type": "function"
    },
    {
      "inputs": [],
      "name": "_whitelistFee",
      "outputs": [
        {
          "internalType": "uint256",
          "name": "",
          "type": "uint256"
        }
      ],
      "stateMutability": "view",
      "type": "function"
    },
    {
      "inputs": [
        {
          "internalType": "address",
          "name": "to",
          "type": "address"
        },
        {
          "internalType": "uint256",
          "name": "tokenId",
          "type": "uint256"
        }
      ],
      "name": "approve",
      "outputs": [],
      "stateMutability": "nonpayable",
      "type": "function"
    },
    {
      "inputs": [
        {
          "internalType": "address",
          "name": "owner",
          "type": "address"
        }
      ],
      "name": "balanceOf",
      "outputs": [
        {
          "internalType": "uint256",
          "name": "",
          "type": "uint256"
        }
      ],
      "stateMutability": "view",
      "type": "function"
    },
    {
      "inputs": [
        {
          "internalType": "address",
          "name": "newAdm",
          "type": "address"
        }
      ],
      "name": "changeAdmin",
      "outputs": [],
      "stateMutability": "nonpayable",
      "type": "function"
    },
    {
      "inputs": [
        {
          "internalType": "string",
          "name": "baseURI",
          "type": "string"
        }
      ],
      "name": "changeBaseURI",
      "outputs": [],
      "stateMutability": "nonpayable",
      "type": "function"
    },
    {
      "inputs": [
        {
          "internalType": "address",
          "name": "oracle",
          "type": "address"
        }
      ],
      "name": "changeOracle",
      "outputs": [],
      "stateMutability": "nonpayable",
      "type": "function"
    },
    {
      "inputs": [
        {
          "internalType": "address",
          "name": "sweet",
          "type": "address"
        }
      ],
      "name": "changeToken",
      "outputs": [],
      "stateMutability": "nonpayable",
      "type": "function"
    },
    {
      "inputs": [
        {
          "internalType": "bytes32",
          "name": "requestId",
          "type": "bytes32"
        },
        {
          "internalType": "bytes",
          "name": "gameData",
          "type": "bytes"
        }
      ],
      "name": "fulfill",
      "outputs": [],
      "stateMutability": "nonpayable",
      "type": "function"
    },
    {
      "inputs": [
        {
          "internalType": "uint256",
          "name": "tokenId",
          "type": "uint256"
        }
      ],
      "name": "getApproved",
      "outputs": [
        {
          "internalType": "address",
          "name": "",
          "type": "address"
        }
      ],
      "stateMutability": "view",
      "type": "function"
    },
    {
      "inputs": [
        {
          "internalType": "uint256",
          "name": "tokenId",
          "type": "uint256"
        }
      ],
      "name": "getParamValues",
      "outputs": [
        {
          "components": [
            {
              "internalType": "string",
              "name": "_emotion",
              "type": "string"
            },
            {
              "internalType": "string",
              "name": "_emotionTime",
              "type": "string"
            },
            {
              "internalType": "string",
              "name": "_nation",
              "type": "string"
            },
            {
              "internalType": "string",
              "name": "_dna",
              "type": "string"
            },
            {
              "internalType": "string",
              "name": "_beard",
              "type": "string"
            },
            {
              "internalType": "string",
              "name": "_hair",
              "type": "string"
            },
            {
              "internalType": "string",
              "name": "_undershirt",
              "type": "string"
            },
            {
              "internalType": "string",
              "name": "_shoes",
              "type": "string"
            },
            {
              "internalType": "string",
              "name": "_top",
              "type": "string"
            },
            {
              "internalType": "string",
              "name": "_bottom",
              "type": "string"
            },
            {
              "internalType": "uint256",
              "name": "_number",
              "type": "uint256"
            },
            {
              "internalType": "string",
              "name": "_tatoo",
              "type": "string"
            },
            {
              "internalType": "string",
              "name": "_glasses",
              "type": "string"
            },
            {
              "internalType": "string",
              "name": "_captain",
              "type": "string"
            },
            {
              "internalType": "string",
              "name": "_facePaint",
              "type": "string"
            }
          ],
          "internalType": "struct AVATARS.Player",
          "name": "player",
          "type": "tuple"
        }
      ],
      "stateMutability": "view",
      "type": "function"
    },
    {
      "inputs": [
        {
          "internalType": "string",
          "name": "name",
          "type": "string"
        },
        {
          "internalType": "string",
          "name": "symbol",
          "type": "string"
        },
        {
          "internalType": "address",
          "name": "admin",
          "type": "address"
        },
        {
          "internalType": "address",
          "name": "paramsAddress",
          "type": "address"
        }
      ],
      "name": "initialize",
      "outputs": [],
      "stateMutability": "nonpayable",
      "type": "function"
    },
    {
      "inputs": [
        {
          "internalType": "address",
          "name": "owner",
          "type": "address"
        },
        {
          "internalType": "address",
          "name": "operator",
          "type": "address"
        }
      ],
      "name": "isApprovedForAll",
      "outputs": [
        {
          "internalType": "bool",
          "name": "",
          "type": "bool"
        }
      ],
      "stateMutability": "view",
      "type": "function"
    },
    {
      "inputs": [],
      "name": "mint",
      "outputs": [],
      "stateMutability": "payable",
      "type": "function"
    },
    {
      "inputs": [
        {
          "internalType": "uint256",
          "name": "tokenIdGated",
          "type": "uint256"
        }
      ],
      "name": "mintByToken",
      "outputs": [],
      "stateMutability": "nonpayable",
      "type": "function"
    },
    {
      "inputs": [],
      "name": "mintWhitelist",
      "outputs": [],
      "stateMutability": "payable",
      "type": "function"
    },
    {
      "inputs": [],
      "name": "name",
      "outputs": [
        {
          "internalType": "string",
          "name": "",
          "type": "string"
        }
      ],
      "stateMutability": "view",
      "type": "function"
    },
    {
      "inputs": [],
      "name": "owner",
      "outputs": [
        {
          "internalType": "address",
          "name": "",
          "type": "address"
        }
      ],
      "stateMutability": "view",
      "type": "function"
    },
    {
      "inputs": [
        {
          "internalType": "uint256",
          "name": "id",
          "type": "uint256"
        }
      ],
      "name": "ownerMint",
      "outputs": [],
      "stateMutability": "nonpayable",
      "type": "function"
    },
    {
      "inputs": [
        {
          "internalType": "uint256",
          "name": "tokenId",
          "type": "uint256"
        }
      ],
      "name": "ownerOf",
      "outputs": [
        {
          "internalType": "address",
          "name": "",
          "type": "address"
        }
      ],
      "stateMutability": "view",
      "type": "function"
    },
    {
      "inputs": [],
      "name": "pause",
      "outputs": [],
      "stateMutability": "nonpayable",
      "type": "function"
    },
    {
      "inputs": [],
      "name": "paused",
      "outputs": [
        {
          "internalType": "bool",
          "name": "",
          "type": "bool"
        }
      ],
      "stateMutability": "view",
      "type": "function"
    },
    {
      "inputs": [],
      "name": "renounceOwnership",
      "outputs": [],
      "stateMutability": "nonpayable",
      "type": "function"
    },
    {
      "inputs": [
        {
          "internalType": "uint256",
          "name": "_tokenId",
          "type": "uint256"
        },
        {
          "internalType": "uint256",
          "name": "_salePrice",
          "type": "uint256"
        }
      ],
      "name": "royaltyInfo",
      "outputs": [
        {
          "internalType": "address",
          "name": "receiver",
          "type": "address"
        },
        {
          "internalType": "uint256",
          "name": "royaltyAmount",
          "type": "uint256"
        }
      ],
      "stateMutability": "view",
      "type": "function"
    },
    {
      "inputs": [
        {
          "internalType": "address",
          "name": "from",
          "type": "address"
        },
        {
          "internalType": "address",
          "name": "to",
          "type": "address"
        },
        {
          "internalType": "uint256",
          "name": "tokenId",
          "type": "uint256"
        }
      ],
      "name": "safeTransferFrom",
      "outputs": [],
      "stateMutability": "nonpayable",
      "type": "function"
    },
    {
      "inputs": [
        {
          "internalType": "address",
          "name": "from",
          "type": "address"
        },
        {
          "internalType": "address",
          "name": "to",
          "type": "address"
        },
        {
          "internalType": "uint256",
          "name": "tokenId",
          "type": "uint256"
        },
        {
          "internalType": "bytes",
          "name": "data",
          "type": "bytes"
        }
      ],
      "name": "safeTransferFrom",
      "outputs": [],
      "stateMutability": "nonpayable",
      "type": "function"
    },
    {
      "inputs": [
        {
          "internalType": "string",
          "name": "algo",
          "type": "string"
        }
      ],
      "name": "setAlgo",
      "outputs": [],
      "stateMutability": "nonpayable",
      "type": "function"
    },
    {
      "inputs": [
        {
          "internalType": "address",
          "name": "operator",
          "type": "address"
        },
        {
          "internalType": "bool",
          "name": "approved",
          "type": "bool"
        }
      ],
      "name": "setApprovalForAll",
      "outputs": [],
      "stateMutability": "nonpayable",
      "type": "function"
    },
    {
      "inputs": [
        {
          "internalType": "uint256",
          "name": "fee",
          "type": "uint256"
        }
      ],
      "name": "setFee",
      "outputs": [],
      "stateMutability": "nonpayable",
      "type": "function"
    },
    {
      "inputs": [
        {
          "internalType": "uint256",
          "name": "whitelistFee",
          "type": "uint256"
        }
      ],
      "name": "setWhitelistFee",
      "outputs": [],
      "stateMutability": "nonpayable",
      "type": "function"
    },
    {
      "inputs": [
        {
          "internalType": "bytes4",
          "name": "interfaceId",
          "type": "bytes4"
        }
      ],
      "name": "supportsInterface",
      "outputs": [
        {
          "internalType": "bool",
          "name": "",
          "type": "bool"
        }
      ],
      "stateMutability": "view",
      "type": "function"
    },
    {
      "inputs": [],
      "name": "symbol",
      "outputs": [
        {
          "internalType": "string",
          "name": "",
          "type": "string"
        }
      ],
      "stateMutability": "view",
      "type": "function"
    },
    {
      "inputs": [
        {
          "internalType": "uint256",
          "name": "tokenId",
          "type": "uint256"
        }
      ],
      "name": "tokenURI",
      "outputs": [
        {
          "internalType": "string",
          "name": "",
          "type": "string"
        }
      ],
      "stateMutability": "view",
      "type": "function"
    },
    {
      "inputs": [
        {
          "internalType": "address",
          "name": "from",
          "type": "address"
        },
        {
          "internalType": "address",
          "name": "to",
          "type": "address"
        },
        {
          "internalType": "uint256",
          "name": "tokenId",
          "type": "uint256"
        }
      ],
      "name": "transferFrom",
      "outputs": [],
      "stateMutability": "nonpayable",
      "type": "function"
    },
    {
      "inputs": [
        {
          "internalType": "address",
          "name": "newOwner",
          "type": "address"
        }
      ],
      "name": "transferOwnership",
      "outputs": [],
      "stateMutability": "nonpayable",
      "type": "function"
    },
    {
      "inputs": [],
      "name": "unpause",
      "outputs": [],
      "stateMutability": "nonpayable",
      "type": "function"
    },
    {
      "inputs": [
        {
          "internalType": "uint256",
          "name": "amount",
          "type": "uint256"
        }
      ],
      "name": "withdraw",
      "outputs": [],
      "stateMutability": "nonpayable",
      "type": "function"
    }
  ],
  "bytecode": "0x608060405234801561001057600080fd5b50614898806100206000396000f3fe6080604052600436106102725760003560e01c806370a082311161014f578063a22cb465116100c1578063c87b56dd1161007a578063c87b56dd1461072f578063d59783141461074f578063e653c6501461076f578063e985e9c514610790578063f19e75d4146107b0578063f2fde38b146107d057600080fd5b8063a22cb4651461066a578063adfc7dae1461068a578063b88d4fde146106ab578063c0dca239146106cb578063c5b37c22146106f8578063c6283c381461070f57600080fd5b80638456cb59116101135780638456cb59146105cc5780638da5cb5b146105e15780638f15b414146106005780638f2839701461062057806395d89b4114610640578063a1bb1fcc1461065557600080fd5b806370a0823114610540578063715018a6146105605780637c1de7e1146105755780637cd49fde1461059557806380d953dd146105ac57600080fd5b80632d3df31f116101e857806347c421b5116101ac57806347c421b5146104835780635275f37a146104a35780635c975abb146104c85780636352211e146104e057806366829b161461050057806369fe0e2d1461052057600080fd5b80632d3df31f146104065780632e1a7d4d1461040e57806339a0c6f91461042e5780633f4ba83a1461044e57806342842e0e1461046357600080fd5b8063095ea7b31161023a578063095ea7b3146103495780630dccc9ad146103695780631249c58b1461037e57806323b872dd14610386578063247ac063146103a65780632a55205a146103c757600080fd5b806301bc45c91461027757806301ffc9a7146102b557806306fdde03146102e55780630764da1d14610307578063081812fc14610329575b600080fd5b34801561028357600080fd5b5061015f54610298906001600160a01b031681565b6040516001600160a01b0390911681526020015b60405180910390f35b3480156102c157600080fd5b506102d56102d0366004613e8f565b6107f0565b60405190151581526020016102ac565b3480156102f157600080fd5b506102fa610842565b6040516102ac9190613f04565b34801561031357600080fd5b50610327610322366004613fdc565b6108d4565b005b34801561033557600080fd5b50610298610344366004614011565b61093d565b34801561035557600080fd5b50610327610364366004614046565b610964565b34801561037557600080fd5b506102fa610a7a565b610327610b09565b34801561039257600080fd5b506103276103a1366004614070565b610bbc565b3480156103b257600080fd5b5061016154610298906001600160a01b031681565b3480156103d357600080fd5b506103e76103e23660046140ac565b610bed565b604080516001600160a01b0390931683526020830191909152016102ac565b610327610c1e565b34801561041a57600080fd5b50610327610429366004614011565b610c94565b34801561043a57600080fd5b50610327610449366004613fdc565b610d62565b34801561045a57600080fd5b50610327610dbe565b34801561046f57600080fd5b5061032761047e366004614070565b610e10565b34801561048f57600080fd5b5061032761049e3660046140ce565b610e2b565b3480156104af57600080fd5b506104ba6101695481565b6040519081526020016102ac565b3480156104d457600080fd5b5060975460ff166102d5565b3480156104ec57600080fd5b506102986104fb366004614011565b610ed8565b34801561050c57600080fd5b5061032761051b3660046140ce565b610f38565b34801561052c57600080fd5b5061032761053b366004614011565b610fa3565b34801561054c57600080fd5b506104ba61055b3660046140ce565b610ff1565b34801561056c57600080fd5b50610327611077565b34801561058157600080fd5b506103276105903660046140e9565b611089565b3480156105a157600080fd5b506104ba6101645481565b3480156105b857600080fd5b506103276105c7366004614011565b6113e8565b3480156105d857600080fd5b50610327611564565b3480156105ed57600080fd5b5061012d546001600160a01b0316610298565b34801561060c57600080fd5b5061032761061b366004614130565b6115b4565b34801561062c57600080fd5b5061032761063b3660046140ce565b611758565b34801561064c57600080fd5b506102fa6117f4565b34801561066157600080fd5b506102fa611803565b34801561067657600080fd5b506103276106853660046141b5565b611811565b34801561069657600080fd5b5061016054610298906001600160a01b031681565b3480156106b757600080fd5b506103276106c63660046141f1565b61181c565b3480156106d757600080fd5b506106eb6106e6366004614011565b611854565b6040516102ac9190614259565b34801561070457600080fd5b506104ba6101675481565b34801561071b57600080fd5b5061032761072a366004614011565b611b49565b34801561073b57600080fd5b506102fa61074a366004614011565b611b97565b34801561075b57600080fd5b506102fa61076a366004614011565b611bfe565b34801561077b57600080fd5b5061016654610298906001600160a01b031681565b34801561079c57600080fd5b506102d56107ab366004614416565b611c18565b3480156107bc57600080fd5b506103276107cb366004614011565b611c46565b3480156107dc57600080fd5b506103276107eb3660046140ce565b611ce4565b60006001600160e01b031982166380ac58cd60e01b148061082157506001600160e01b03198216635b5e139f60e01b145b8061083c57506301ffc9a760e01b6001600160e01b03198316145b92915050565b60606065805461085190614440565b80601f016020809104026020016040519081016040528092919081815260200182805461087d90614440565b80156108ca5780601f1061089f576101008083540402835291602001916108ca565b820191906000526020600020905b8154815290600101906020018083116108ad57829003601f168201915b5050505050905090565b61015f5460408051808201909152600381526231303160e81b6020820152906001600160a01b031633146109245760405162461bcd60e51b815260040161091b9190613f04565b60405180910390fd5b50805161093990610163906020840190613db9565b5050565b600061094882611d5d565b506000908152606960205260409020546001600160a01b031690565b600061096f82610ed8565b9050806001600160a01b0316836001600160a01b031614156109dd5760405162461bcd60e51b815260206004820152602160248201527f4552433732313a20617070726f76616c20746f2063757272656e74206f776e656044820152603960f91b606482015260840161091b565b336001600160a01b03821614806109f957506109f98133611c18565b610a6b5760405162461bcd60e51b815260206004820152603e60248201527f4552433732313a20617070726f76652063616c6c6572206973206e6f7420746f60448201527f6b656e206f776e6572206e6f7220617070726f76656420666f7220616c6c0000606482015260840161091b565b610a758383611dbc565b505050565b6101658054610a8890614440565b80601f0160208091040260200160405190810160405280929190818152602001828054610ab490614440565b8015610b015780601f10610ad657610100808354040283529160200191610b01565b820191906000526020600020905b815481529060010190602001808311610ae457829003601f168201915b505050505081565b600260fb541415610b2c5760405162461bcd60e51b815260040161091b9061447b565b600260fb556101675415801590610b465750610167543410155b6040518060400160405280600381526020016232303160e81b81525090610b805760405162461bcd60e51b815260040161091b9190613f04565b506123286101645410610b9257600080fd5b6101648054906000610ba3836144c8565b9190505550610bb53361016454611e2a565b600160fb55565b610bc63382611e44565b610be25760405162461bcd60e51b815260040161091b906144e3565b610a75838383611ea3565b61015f546001600160a01b03166000612710610c0b846101f4614531565b610c159190614566565b90509250929050565b600260fb541415610c415760405162461bcd60e51b815260040161091b9061447b565b600260fb556101695415801590610b465750610169543410156040518060400160405280600381526020016232303160e81b81525090610b805760405162461bcd60e51b815260040161091b9190613f04565b600260fb541415610cb75760405162461bcd60e51b815260040161091b9061447b565b600260fb5561015f5460408051808201909152600381526231303160e81b6020820152906001600160a01b03163314610d035760405162461bcd60e51b815260040161091b9190613f04565b50604051600090339047908381818185875af1925050503d8060008114610d46576040519150601f19603f3d011682016040523d82523d6000602084013e610d4b565b606091505b5050905080610d5957600080fd5b5050600160fb55565b61015f5460408051808201909152600381526231303160e81b6020820152906001600160a01b03163314610da95760405162461bcd60e51b815260040161091b9190613f04565b50805161093990610165906020840190613db9565b61015f5460408051808201909152600381526231303160e81b6020820152906001600160a01b03163314610e055760405162461bcd60e51b815260040161091b9190613f04565b50610e0e61204a565b565b610a758383836040518060200160405280600081525061181c565b61015f5460408051808201909152600381526231303160e81b6020820152906001600160a01b03163314610e725760405162461bcd60e51b815260040161091b9190613f04565b5060408051808201909152600381526203130360ec1b60208201526001600160a01b038216610eb45760405162461bcd60e51b815260040161091b9190613f04565b5061016180546001600160a01b0319166001600160a01b0392909216919091179055565b6000818152606760205260408120546001600160a01b03168061083c5760405162461bcd60e51b8152602060048201526018602482015277115490cdcc8c4e881a5b9d985b1a59081d1bdad95b88125160421b604482015260640161091b565b61015f5460408051808201909152600381526231303160e81b6020820152906001600160a01b03163314610f7f5760405162461bcd60e51b815260040161091b9190613f04565b5061016680546001600160a01b0319166001600160a01b0392909216919091179055565b61015f5460408051808201909152600381526231303160e81b6020820152906001600160a01b03163314610fea5760405162461bcd60e51b815260040161091b9190613f04565b5061016755565b60006001600160a01b03821661105b5760405162461bcd60e51b815260206004820152602960248201527f4552433732313a2061646472657373207a65726f206973206e6f7420612076616044820152683634b21037bbb732b960b91b606482015260840161091b565b506001600160a01b031660009081526068602052604090205490565b61107f61209c565b610e0e60006120f7565b6101615460408051808201909152600381526203130360ec1b6020820152906001600160a01b031633146110d05760405162461bcd60e51b815260040161091b9190613f04565b50806040516110df919061457a565b6040519081900381209083907fc6ef1c5f8f954d0251e9620ce4908018f1c31f432eb9b44fd9efb2ca569453f190600090a3600082815261016260205260409020805461112b90614440565b6040805180820190915260038152620c8c0d60ea1b60208201529150156111655760405162461bcd60e51b815260040161091b9190613f04565b50600082815261016260209081526040909120825161118692840190613db9565b506000806000806000806000878060200190518101906111a69190614601565b965096509650965096509650965060006111c68460ff168460ff1661214a565b6040805160a081018252600160608201818152603160f81b6080840152825282518084018452818152601960f91b6020828101919091528084019190915283518085018552828152603360f81b9181019190915292820192909252919250826003811115611236576112366146d7565b14156112be57806002602002015161016a88604051611255919061457a565b90815260200160405180910390206000019080519060200190611279929190613db9565b508060015b602002015161016a87604051611294919061457a565b908152602001604051809103902060000190805190602001906112b8929190613db9565b5061138f565b60028260038111156112d2576112d26146d7565b141561131c57602081015160405161016a906112ef908a9061457a565b90815260200160405180910390206000019080519060200190611313929190613db9565b5080600261127e565b805160405161016a90611330908a9061457a565b90815260200160405180910390206000019080519060200190611354929190613db9565b50805160405161016a9061136990899061457a565b9081526020016040518091039020600001908051906020019061138d929190613db9565b505b4261016a886040516113a1919061457a565b9081526020016040518091039020600101819055504261016a876040516113c8919061457a565b908152604051908190036020019020600101555050505050505050505050565b600260fb54141561140b5760405162461bcd60e51b815260040161091b9061447b565b600260fb556101665460408051808201909152600381526203130360ec1b6020820152906001600160a01b03166114555760405162461bcd60e51b815260040161091b9190613f04565b50600761147f8260405180604001604052806005815260200164736861706560d81b815250612175565b6114899190614703565b6040805180820190915260038152620c8c0d60ea1b602082015290156114c25760405162461bcd60e51b815260040161091b9190613f04565b50610166546040516323b872dd60e01b8152336004820152306024820152604481018390526001600160a01b039091169081906323b872dd90606401600060405180830381600087803b15801561151857600080fd5b505af115801561152c573d6000803e3d6000fd5b50505050612328610164541061154157600080fd5b6101648054906000611552836144c8565b9190505550610d593361016454611e2a565b61015f5460408051808201909152600381526231303160e81b6020820152906001600160a01b031633146115ab5760405162461bcd60e51b815260040161091b9190613f04565b50610e0e6121b1565b600054610100900460ff16158080156115d45750600054600160ff909116105b806115ee5750303b1580156115ee575060005460ff166001145b6116515760405162461bcd60e51b815260206004820152602e60248201527f496e697469616c697a61626c653a20636f6e747261637420697320616c72656160448201526d191e481a5b9a5d1a585b1a5e995960921b606482015260840161091b565b6000805460ff191660011790558015611674576000805461ff0019166101001790555b6001600160a01b0383161580159061169457506001600160a01b03821615155b6040518060400160405280600381526020016203130360ec1b815250906116ce5760405162461bcd60e51b815260040161091b9190613f04565b506116d985856121ee565b61016080546001600160a01b038085166001600160a01b03199283161790925561015f8054928616929091169190911790558015611751576000805461ff0019169055604051600181527f7f26b83ff96e1f2b6a682f133852f6798a09c465da95921460cefb38474024989060200160405180910390a15b5050505050565b61015f546001600160a01b03163314801561177b57506001600160a01b03811615155b8015611796575061015f546001600160a01b03828116911614155b6040518060400160405280600381526020016231303160e81b815250906117d05760405162461bcd60e51b815260040161091b9190613f04565b5061015f80546001600160a01b0319166001600160a01b0392909216919091179055565b60606066805461085190614440565b6101638054610a8890614440565b61093933838361221f565b6118263383611e44565b6118425760405162461bcd60e51b815260040161091b906144e3565b61184e848484846122ee565b50505050565b6118cd604051806101e001604052806060815260200160608152602001606081526020016060815260200160608152602001606081526020016060815260200160608152602001606081526020016060815260200160008152602001606081526020016060815260200160608152602001606081525090565b6040805160a081018252600160608201818152603160f81b6080840152825282518084018452818152601960f91b6020828101919091528084019190915283518085018552918252603360f81b9082015291810191909152600061193084612321565b905060008061193e86612788565b91509150600061016a84604051611955919061457a565b908152604051908190036020019020805461196f90614440565b80601f016020809104026020016040519081016040528092919081815260200182805461199b90614440565b80156119e85780601f106119bd576101008083540402835291602001916119e8565b820191906000526020600020905b8154815290600101906020018083116119cb57829003601f168201915b50939450620151809350611a0a925086915085905060025b6020020151612854565b15611a2157611a1a81601e614531565b9050611a40565b611a2d84846001611a00565b15611a4057611a3d816007614531565b90505b8061016a86604051611a52919061457a565b90815260200160405180910390206001015442611a6f9190614717565b1115611a7a57855191505b604051806101e00160405280838152602001858152602001868152602001611aa18a6128ad565b8152602001611aaf8a612a23565b8152602001611abd8a612b12565b8152602001611acb8a612e50565b8152602001611ad98a613110565b8152602001611ae78a6131bf565b8152602001611af58a6132fb565b8152602001611b038a613416565b8152602001611b118a613565565b8152602001611b1f8a61361a565b8152602001611b2d8a613705565b8152602001611b3b8a613815565b905298975050505050505050565b61015f5460408051808201909152600381526231303160e81b6020820152906001600160a01b03163314611b905760405162461bcd60e51b815260040161091b9190613f04565b5061016955565b6060611ba282611d5d565b6000611bac6138aa565b90506000815111611bcc5760405180602001604052806000815250611bf7565b80611bd6846138ba565b604051602001611be792919061472e565b6040516020818303038152906040525b9392505050565b6101626020526000908152604090208054610a8890614440565b6001600160a01b039182166000908152606a6020908152604080832093909416825291909152205460ff1690565b600260fb541415611c695760405162461bcd60e51b815260040161091b9061447b565b600260fb5561015f5460408051808201909152600381526231303160e81b6020820152906001600160a01b03163314611cb55760405162461bcd60e51b815260040161091b9190613f04565b5061232881118015611cc957506127108111155b611cd257600080fd5b611cdc3382611e2a565b50600160fb55565b611cec61209c565b6001600160a01b038116611d515760405162461bcd60e51b815260206004820152602660248201527f4f776e61626c653a206e6577206f776e657220697320746865207a65726f206160448201526564647265737360d01b606482015260840161091b565b611d5a816120f7565b50565b6000818152606760205260409020546001600160a01b0316611d5a5760405162461bcd60e51b8152602060048201526018602482015277115490cdcc8c4e881a5b9d985b1a59081d1bdad95b88125160421b604482015260640161091b565b600081815260696020526040902080546001600160a01b0319166001600160a01b0384169081179091558190611df182610ed8565b6001600160a01b03167f8c5be1e5ebec7d5bd14f71427d1e84f3dd0314c0f7b2291e5b200ac8c7c3b92560405160405180910390a45050565b6109398282604051806020016040528060008152506139b8565b600080611e5083610ed8565b9050806001600160a01b0316846001600160a01b03161480611e775750611e778185611c18565b80611e9b5750836001600160a01b0316611e908461093d565b6001600160a01b0316145b949350505050565b826001600160a01b0316611eb682610ed8565b6001600160a01b031614611f1a5760405162461bcd60e51b815260206004820152602560248201527f4552433732313a207472616e736665722066726f6d20696e636f72726563742060448201526437bbb732b960d91b606482015260840161091b565b6001600160a01b038216611f7c5760405162461bcd60e51b8152602060048201526024808201527f4552433732313a207472616e7366657220746f20746865207a65726f206164646044820152637265737360e01b606482015260840161091b565b611f878383836139eb565b611f92600082611dbc565b6001600160a01b0383166000908152606860205260408120805460019290611fbb908490614717565b90915550506001600160a01b0382166000908152606860205260408120805460019290611fe990849061475d565b909155505060008181526067602052604080822080546001600160a01b0319166001600160a01b0386811691821790925591518493918716917fddf252ad1be2c89b69c2b068fc378daa952ba7f163c4a11628f55a4df523b3ef91a4505050565b612052613a52565b6097805460ff191690557f5db9ee0a495bf2e6ff9c91a7834c1ba4fdd244a5e8aa4e537bd38aeae4b073aa335b6040516001600160a01b03909116815260200160405180910390a1565b61012d546001600160a01b03163314610e0e5760405162461bcd60e51b815260206004820181905260248201527f4f776e61626c653a2063616c6c6572206973206e6f7420746865206f776e6572604482015260640161091b565b61012d80546001600160a01b038381166001600160a01b0319831681179093556040519116919082907f8be0079c531659141344cd1fd0a4f28419497f9722a3daafe3b4186f6b6457e090600090a35050565b60008183111561215c5750600161083c565b8183141561216c5750600361083c565b50600292915050565b600081612181846138ba565b60405160200161219292919061472e565b60408051601f1981840301815291905280516020909101209392505050565b6121b9613a9b565b6097805460ff191660011790557f62e78cea01bee320cd4e420270b5ea74000d11b0c9f74754ebdbfc544b05a25861207f3390565b600054610100900460ff166122155760405162461bcd60e51b815260040161091b90614775565b6109398282613ae1565b816001600160a01b0316836001600160a01b031614156122815760405162461bcd60e51b815260206004820152601960248201527f4552433732313a20617070726f766520746f2063616c6c657200000000000000604482015260640161091b565b6001600160a01b038381166000818152606a6020908152604080832094871680845294825291829020805460ff191686151590811790915591519182527f17307eab39ab6107e8899845ad3d59bd9653f200f220920489ca2b5937696c31910160405180910390a3505050565b6122f9848484611ea3565b61230584848484613b2f565b61184e5760405162461bcd60e51b815260040161091b906147c0565b6040805161044081018252600561040082018181526428b0ba30b960d91b61042084015282528251808401845260078082526622b1bab0b237b960c91b60208381019190915280850192909252845180860186528181526614d95b9959d85b60ca1b818401528486015284518086018652600b8082526a4e65746865726c616e647360a81b828501526060868101929092528651808801885283815266115b99db185b9960ca1b818601526080870152865180880188528381526624a91024b930b760c91b8186015260a087015286518088018852600381526255534160e81b8186015260c0870152865180880188528581526457616c657360d81b8186015260e087015286518088018852600980825268417267656e74696e6160b81b8287015261010088019190915287518089018952600c81526b53617564692041726162696160a01b81870152610120880152875180890189526006808252654d657869636f60d01b828801526101408901919091528851808a018a5281815265141bdb185b9960d21b818801526101608901528851808a018a52818152654672616e636560d01b818801526101808901528851808a018a52918252684175737472616c696160b81b828701526101a0880191909152875180890189528481526644656e6d61726b60c81b818701526101c0880152875180890189528481526654756e6973696160c81b818701526101e0880152875180890189528681526429b830b4b760d91b8187015261020088015287518089018952600a815269436f737461205269636160b01b8187015261022088015287518089018952848152664765726d616e7960c81b8187015261024088015287518089018952868152642530b830b760d91b81870152610260880152875180890189528481526642656c6769756d60c81b81870152610280880152875180890189528181526543616e61646160d01b818701526102a088015287518089018952848152664d6f726f63636f60c81b818701526102c0880152875180890189528481526643726f6174696160c81b818701526102e08801528751808901895281815265109c985e9a5b60d21b81870152610300880152875180890189528181526553657262696160d01b81870152610320880152875180890189529182526a14ddda5d1e995c9b185b9960aa1b828601526103408701919091528651808801885260088082526721b0b6b2b937b7b760c11b828701526103608801919091528751808901895290815267141bdc9d1d59d85b60c21b8186015261038087015286518088018852948552644768616e6160d81b858501526103a086019490945285518087018752918252665572756775617960c81b828401526103c085019190915284518086018652600e81526d4b6f7265612052657075626c696360901b818401526103e08501528451808601909552918452653730ba34b7b760d11b848201529092829190612762908690612175565b61276c9190614703565b6020811061277c5761277c6146ed565b60200201519392505050565b6060612792613e3d565b60006040518060600160405280604051806040016040528060018152602001603160f81b8152508152602001604051806040016040528060018152602001601960f91b8152508152602001604051806040016040528060018152602001603360f81b815250815250905080600361282c866040518060400160405280600b81526020016a656d6f74696f6e54696d6560a81b815250612175565b6128369190614703565b60038110612846576128466146ed565b602002015194909350915050565b600081604051602001612867919061457a565b604051602081830303815290604052805190602001208360405160200161288e919061457a565b6040516020818303038152906040528051906020012014905092915050565b6040805161010081018252600160c08201818152603160f81b60e0840152825282518084018452818152601960f91b6020828101919091528084019190915283518085018552828152603360f81b818301528385015283518085018552828152600d60fa1b8183015260608481019190915284518086018652838152603560f81b81840152608085015284518086018652838152601b60f91b8184015260a085015284518086019095526003855262646e6160e81b918501919091529260009161297b918691612710613c2d565b9050610bb8811115612998578160005b6020020151949350505050565b600181101580156129ab57506107d08111155b156129b85781600161298b565b6107d181101580156129cc5750610a288111155b156129d95781600261298b565b610a2981101580156129ed5750610b548111155b156129fa5781600361298b565b610b558110158015612a0e5750610bae8111155b15612a1b5781600461298b565b81600561298b565b6040805160a08101825260016060828101828152600360fc1b6080850152835283518085018552828152603160f81b6020828101919091528085019190915284518086018652928352601960f91b90830152928201526000612a84846128ad565b9050612aa981604051806040016040528060018152602001603160f81b815250612854565b15612af257816003612ad886604051806040016040528060058152602001641899585c9960da1b815250612175565b612ae29190614703565b6003811061298b5761298b6146ed565b50506040805180820190915260018152600360fc1b602082015292915050565b60606000604051806101400160405280604051806040016040528060018152602001600360fc1b8152508152602001604051806040016040528060018152602001603160f81b8152508152602001604051806040016040528060018152602001601960f91b8152508152602001604051806040016040528060018152602001603360f81b8152508152602001604051806040016040528060018152602001600d60fa1b8152508152602001604051806040016040528060018152602001603560f81b8152508152602001604051806040016040528060018152602001601b60f91b8152508152602001604051806040016040528060018152602001603760f81b8152508152602001604051806040016040528060018152602001600760fb1b8152508152602001604051806040016040528060018152602001603960f81b815250815250905060006040518060e00160405280604051806040016040528060018152602001603160f81b8152508152602001604051806040016040528060018152602001601960f91b8152508152602001604051806040016040528060018152602001603360f81b8152508152602001604051806040016040528060018152602001600d60fa1b8152508152602001604051806040016040528060018152602001603560f81b8152508152602001604051806040016040528060018152602001601b60f91b8152508152602001604051806040016040528060018152602001603760f81b81525081525090506000612d49856128ad565b9050612d6e81604051806040016040528060018152602001601960f91b815250612854565b15612dc457816007612d9c87604051806040016040528060048152602001633430b4b960e11b815250612175565b612da69190614703565b60078110612db657612db66146ed565b602002015195945050505050565b612de781604051806040016040528060018152602001603160f81b815250612854565b15612e2f5782600a612e1587604051806040016040528060048152602001633430b4b960e11b815250612175565b612e1f9190614703565b600a8110612db657612db66146ed565b50506040805180820190915260018152600360fc1b60208201529392505050565b604080516102608101825260016102208201818152603160f81b610240840152825282518084018452818152601960f91b6020828101919091528084019190915283518085018552828152603360f81b818301528385015283518085018552828152600d60fa1b8183015260608481019190915284518086018652838152603560f81b81840152608085015284518086018652838152601b60f91b8184015260a085015284518086018652838152603760f81b8184015260c085015284518086018652838152600760fb1b8184015260e085015284518086018652928352603960f81b8383015261010084019290925283518085018552600280825261031360f41b828401526101208501919091528451808601865281815261313160f01b818401526101408501528451808601865281815261189960f11b818401526101608501528451808601865281815261313360f01b8184015261018085015284518086018652818152610c4d60f21b818401526101a08501528451808601865281815261313560f01b818401526101c08501528451808601865281815261189b60f11b818401526101e08501528451808601909552845261313760f01b908401526102008201929092526000613023846128ad565b905061304881604051806040016040528060018152602001603160f81b815250612854565b15612af2576000613058856131bf565b905061307d81604051806040016040528060018152602001603160f81b815250612854565b156130ef57600061308d86613416565b905080156130ed578360116130c4886040518060400160405280600a8152602001691d5b99195c9cda1a5c9d60b21b815250612175565b6130ce9190614703565b601181106130de576130de6146ed565b60200201519695505050505050565b505b5050506040805180820190915260018152600360fc1b602082015292915050565b606060006040518060600160405280604051806040016040528060018152602001603160f81b8152508152602001604051806040016040528060018152602001601960f91b8152508152602001604051806040016040528060018152602001603360f81b81525081525090508060036131a5856040518060400160405280600481526020016373686f6560e01b815250612175565b6131af9190614703565b6003811061277c5761277c6146ed565b6040805160a0808201835260016060838101828152603160f81b608080870182905291865286518088018852848152601960f91b6020828101829052808901929092528851808a018a52868152603360f81b81840152888a0152885196870189528685018681529387019290925291855286518088018852848152808301919091528482015285518087018752928352600d60fa1b90830152938201526000613267856128ad565b905061328c81604051806040016040528060018152602001601960f91b815250612854565b156132d3578160036132b987604051806040016040528060038152602001620746f760ec1b815250612175565b6132c39190614703565b60038110612db657612db66146ed565b8260036132b987604051806040016040528060038152602001620746f760ec1b815250612175565b60408051608080820183526001828401818152603360f81b60608581019190915290845284518086018652828152600d60fa1b6020828101919091528086019190915285519384018652838601838152603160f81b8584015284528551808701909652918552601960f91b8583015290820193909352600061337c856128ad565b90506133a181604051806040016040528060018152602001601960f91b815250612854565b156133eb578260026133d18760405180604001604052806006815260200165626f74746f6d60d01b815250612175565b6133db9190614703565b60028110612db657612db66146ed565b8160026133d18760405180604001604052806006815260200165626f74746f6d60d01b815250612175565b600080604051806103400160405280600181526020016002815260200160038152602001600481526020016005815260200160068152602001600781526020016008815260200160098152602001600a8152602001600b8152602001600c8152602001600d8152602001600e8152602001600f815260200160108152602001601181526020016012815260200160138152602001601481526020016015815260200160168152602001601781526020016018815260200160198152602001601a8152509050600061350a8460405180604001604052806006815260200165373ab6b132b960d11b8152506001612710613c2d565b9050611e78811115613520575060009392505050565b81601a61354b8660405180604001604052806006815260200165373ab6b132b960d11b815250612175565b6135559190614703565b601a811061298b5761298b6146ed565b6040805160c081018252600160808201818152600360fc1b60a0840152825282518084018452818152603160f81b6020828101919091528084019190915283518085018552828152601960f91b818301528385015283518085018552918252603360f81b82820152606083810192909252835180850190945260058452647461746f6f60d81b90840152918190600490613600908690612175565b61360a9190614703565b6004811061277c5761277c6146ed565b6040805161010081018252600160c08201818152600360fc1b60e0840152825282518084018452818152603160f81b6020828101919091528084019190915283518085018552828152601960f91b818301528385015283518085018552828152603360f81b8183015260608481019190915284518086018652838152600d60fa1b81840152608085015284518086018652928352603560f81b8383015260a084019290925283518085019094526007845266676c617373657360c81b908401529181906006906136eb908690612175565b6136f59190614703565b6006811061277c5761277c6146ed565b606060006040518060400160405280604051806040016040528060018152602001600360fc1b8152508152602001604051806040016040528060018152602001603160f81b8152508152509050600061375d846128ad565b905061378281604051806040016040528060018152602001603160f81b815250612854565b15612af2576000613792856131bf565b90506137b781604051806040016040528060018152602001603160f81b815250612854565b156130ef5760006137c786613416565b905080156130ed578360026137fb886040518060400160405280600781526020016631b0b83a30b4b760c91b815250612175565b6138059190614703565b600281106130de576130de6146ed565b606060006040518060400160405280604051806040016040528060018152602001600360fc1b8152508152602001604051806040016040528060018152602001603160f81b81525081525090508060026138908560405180604001604052806009815260200168199858d95c185a5b9d60ba1b815250612175565b61389a9190614703565b6002811061277c5761277c6146ed565b6060610165805461085190614440565b6060816138de5750506040805180820190915260018152600360fc1b602082015290565b8160005b811561390857806138f2816144c8565b91506139019050600a83614566565b91506138e2565b60008167ffffffffffffffff81111561392357613923613f17565b6040519080825280601f01601f19166020018201604052801561394d576020820181803683370190505b5090505b8415611e9b57613962600183614717565b915061396f600a86614703565b61397a90603061475d565b60f81b81838151811061398f5761398f6146ed565b60200101906001600160f81b031916908160001a9053506139b1600a86614566565b9450613951565b6139c28383613c6b565b6139cf6000848484613b2f565b610a755760405162461bcd60e51b815260040161091b906147c0565b60975460ff1615610a755760405162461bcd60e51b815260206004820152602b60248201527f4552433732315061757361626c653a20746f6b656e207472616e73666572207760448201526a1a1a5b19481c185d5cd95960aa1b606482015260840161091b565b60975460ff16610e0e5760405162461bcd60e51b815260206004820152601460248201527314185d5cd8589b194e881b9bdd081c185d5cd95960621b604482015260640161091b565b60975460ff1615610e0e5760405162461bcd60e51b815260206004820152601060248201526f14185d5cd8589b194e881c185d5cd95960821b604482015260640161091b565b600054610100900460ff16613b085760405162461bcd60e51b815260040161091b90614775565b8151613b1b906065906020850190613db9565b508051610a75906066906020840190613db9565b60006001600160a01b0384163b15613c2257604051630a85bd0160e11b81526001600160a01b0385169063150b7a0290613b73903390899088908890600401614812565b6020604051808303816000875af1925050508015613bae575060408051601f3d908101601f19168201909252613bab91810190614845565b60015b613c08573d808015613bdc576040519150601f19603f3d011682016040523d82523d6000602084013e613be1565b606091505b508051613c005760405162461bcd60e51b815260040161091b906147c0565b805181602001fd5b6001600160e01b031916630a85bd0160e11b149050611e9b565b506001949350505050565b6000613c398383614717565b613c4490600161475d565b613c4e8686612175565b613c589190614703565b613c62908461475d565b95945050505050565b6001600160a01b038216613cc15760405162461bcd60e51b815260206004820181905260248201527f4552433732313a206d696e7420746f20746865207a65726f2061646472657373604482015260640161091b565b6000818152606760205260409020546001600160a01b031615613d265760405162461bcd60e51b815260206004820152601c60248201527f4552433732313a20746f6b656e20616c7265616479206d696e74656400000000604482015260640161091b565b613d32600083836139eb565b6001600160a01b0382166000908152606860205260408120805460019290613d5b90849061475d565b909155505060008181526067602052604080822080546001600160a01b0319166001600160a01b03861690811790915590518392907fddf252ad1be2c89b69c2b068fc378daa952ba7f163c4a11628f55a4df523b3ef908290a45050565b828054613dc590614440565b90600052602060002090601f016020900481019282613de75760008555613e2d565b82601f10613e0057805160ff1916838001178555613e2d565b82800160010185558215613e2d579182015b82811115613e2d578251825591602001919060010190613e12565b50613e39929150613e64565b5090565b60405180606001604052806003905b6060815260200190600190039081613e4c5790505090565b5b80821115613e395760008155600101613e65565b6001600160e01b031981168114611d5a57600080fd5b600060208284031215613ea157600080fd5b8135611bf781613e79565b60005b83811015613ec7578181015183820152602001613eaf565b8381111561184e5750506000910152565b60008151808452613ef0816020860160208601613eac565b601f01601f19169290920160200192915050565b602081526000611bf76020830184613ed8565b634e487b7160e01b600052604160045260246000fd5b604051601f8201601f1916810167ffffffffffffffff81118282101715613f5657613f56613f17565b604052919050565b600067ffffffffffffffff821115613f7857613f78613f17565b50601f01601f191660200190565b600082601f830112613f9757600080fd5b8135613faa613fa582613f5e565b613f2d565b818152846020838601011115613fbf57600080fd5b816020850160208301376000918101602001919091529392505050565b600060208284031215613fee57600080fd5b813567ffffffffffffffff81111561400557600080fd5b611e9b84828501613f86565b60006020828403121561402357600080fd5b5035919050565b80356001600160a01b038116811461404157600080fd5b919050565b6000806040838503121561405957600080fd5b6140628361402a565b946020939093013593505050565b60008060006060848603121561408557600080fd5b61408e8461402a565b925061409c6020850161402a565b9150604084013590509250925092565b600080604083850312156140bf57600080fd5b50508035926020909101359150565b6000602082840312156140e057600080fd5b611bf78261402a565b600080604083850312156140fc57600080fd5b82359150602083013567ffffffffffffffff81111561411a57600080fd5b61412685828601613f86565b9150509250929050565b6000806000806080858703121561414657600080fd5b843567ffffffffffffffff8082111561415e57600080fd5b61416a88838901613f86565b9550602087013591508082111561418057600080fd5b5061418d87828801613f86565b93505061419c6040860161402a565b91506141aa6060860161402a565b905092959194509250565b600080604083850312156141c857600080fd5b6141d18361402a565b9150602083013580151581146141e657600080fd5b809150509250929050565b6000806000806080858703121561420757600080fd5b6142108561402a565b935061421e6020860161402a565b925060408501359150606085013567ffffffffffffffff81111561424157600080fd5b61424d87828801613f86565b91505092959194509250565b60208152600082516101e0806020850152614278610200850183613ed8565b91506020850151601f19808685030160408701526142968483613ed8565b935060408701519150808685030160608701526142b38483613ed8565b935060608701519150808685030160808701526142d08483613ed8565b935060808701519150808685030160a08701526142ed8483613ed8565b935060a08701519150808685030160c087015261430a8483613ed8565b935060c08701519150808685030160e08701526143278483613ed8565b935060e087015191506101008187860301818801526143468584613ed8565b9450808801519250506101208187860301818801526143658584613ed8565b9450808801519250506101408187860301818801526143848584613ed8565b9450808801519250506101608281880152808801519250506101808187860301818801526143b28584613ed8565b9450808801519250506101a08187860301818801526143d18584613ed8565b9450808801519250506101c08187860301818801526143f08584613ed8565b90880151878203909201848801529350905061440c8382613ed8565b9695505050505050565b6000806040838503121561442957600080fd5b6144328361402a565b9150610c156020840161402a565b600181811c9082168061445457607f821691505b6020821081141561447557634e487b7160e01b600052602260045260246000fd5b50919050565b6020808252601f908201527f5265656e7472616e637947756172643a207265656e7472616e742063616c6c00604082015260600190565b634e487b7160e01b600052601160045260246000fd5b60006000198214156144dc576144dc6144b2565b5060010190565b6020808252602e908201527f4552433732313a2063616c6c6572206973206e6f7420746f6b656e206f776e6560408201526d1c881b9bdc88185c1c1c9bdd995960921b606082015260800190565b600081600019048311821515161561454b5761454b6144b2565b500290565b634e487b7160e01b600052601260045260246000fd5b60008261457557614575614550565b500490565b6000825161458c818460208701613eac565b9190910192915050565b805164ffffffffff8116811461404157600080fd5b600082601f8301126145bc57600080fd5b81516145ca613fa582613f5e565b8181528460208386010111156145df57600080fd5b611e9b826020830160208701613eac565b805160ff8116811461404157600080fd5b600080600080600080600060e0888a03121561461c57600080fd5b875163ffffffff8116811461463057600080fd5b965061463e60208901614596565b9550604088015167ffffffffffffffff8082111561465b57600080fd5b6146678b838c016145ab565b965060608a015191508082111561467d57600080fd5b6146898b838c016145ab565b955061469760808b016145f0565b94506146a560a08b016145f0565b935060c08a01519150808211156146bb57600080fd5b506146c88a828b016145ab565b91505092959891949750929550565b634e487b7160e01b600052602160045260246000fd5b634e487b7160e01b600052603260045260246000fd5b60008261471257614712614550565b500690565b600082821015614729576147296144b2565b500390565b60008351614740818460208801613eac565b835190830190614754818360208801613eac565b01949350505050565b60008219821115614770576147706144b2565b500190565b6020808252602b908201527f496e697469616c697a61626c653a20636f6e7472616374206973206e6f74206960408201526a6e697469616c697a696e6760a81b606082015260800190565b60208082526032908201527f4552433732313a207472616e7366657220746f206e6f6e20455243373231526560408201527131b2b4bb32b91034b6b83632b6b2b73a32b960711b606082015260800190565b6001600160a01b038581168252841660208201526040810183905260806060820181905260009061440c90830184613ed8565b60006020828403121561485757600080fd5b8151611bf781613e7956fea2646970667358221220fa08d1f3e0af283694093630dcd12f8a1c06161016f2d105f6e48f56ebff091864736f6c634300080c0033",
  "linkReferences": {},
  "deployedLinkReferences": {}
}