{
  "_format": "hh-sol-artifact-1",
  "contractName": "AVATARS",
  "sourceName": "contracts/nft/AVATARS.sol",
  "abi": [
    {
      "inputs": [
        {
          "internalType": "address",
          "name": "operator",
          "type": "address"
        }
      ],
      "name": "OperatorNotAllowed",
      "type": "error"
    },
    {
      "anonymous": false,
      "inputs": [
        {
          "indexed": true,
          "internalType": "address",
          "name": "owner",
          "type": "address"
        },
        {
          "indexed": true,
          "internalType": "address",
          "name": "approved",
          "type": "address"
        },
        {
          "indexed": true,
          "internalType": "uint256",
          "name": "tokenId",
          "type": "uint256"
        }
      ],
      "name": "Approval",
      "type": "event"
    },
    {
      "anonymous": false,
      "inputs": [
        {
          "indexed": true,
          "internalType": "address",
          "name": "owner",
          "type": "address"
        },
        {
          "indexed": true,
          "internalType": "address",
          "name": "operator",
          "type": "address"
        },
        {
          "indexed": false,
          "internalType": "bool",
          "name": "approved",
          "type": "bool"
        }
      ],
      "name": "ApprovalForAll",
      "type": "event"
    },
    {
      "anonymous": false,
      "inputs": [
        {
          "indexed": false,
          "internalType": "uint8",
          "name": "version",
          "type": "uint8"
        }
      ],
      "name": "Initialized",
      "type": "event"
    },
    {
      "anonymous": false,
      "inputs": [
        {
          "indexed": true,
          "internalType": "address",
          "name": "previousOwner",
          "type": "address"
        },
        {
          "indexed": true,
          "internalType": "address",
          "name": "newOwner",
          "type": "address"
        }
      ],
      "name": "OwnershipTransferred",
      "type": "event"
    },
    {
      "anonymous": false,
      "inputs": [
        {
          "indexed": false,
          "internalType": "address",
          "name": "account",
          "type": "address"
        }
      ],
      "name": "Paused",
      "type": "event"
    },
    {
      "anonymous": false,
      "inputs": [
        {
          "indexed": true,
          "internalType": "bytes32",
          "name": "requestId",
          "type": "bytes32"
        },
        {
          "indexed": true,
          "internalType": "bytes",
          "name": "data",
          "type": "bytes"
        }
      ],
      "name": "RequestFulfilledData",
      "type": "event"
    },
    {
      "anonymous": false,
      "inputs": [
        {
          "indexed": true,
          "internalType": "address",
          "name": "from",
          "type": "address"
        },
        {
          "indexed": true,
          "internalType": "address",
          "name": "to",
          "type": "address"
        },
        {
          "indexed": true,
          "internalType": "uint256",
          "name": "tokenId",
          "type": "uint256"
        }
      ],
      "name": "Transfer",
      "type": "event"
    },
    {
      "anonymous": false,
      "inputs": [
        {
          "indexed": false,
          "internalType": "address",
          "name": "account",
          "type": "address"
        }
      ],
      "name": "Unpaused",
      "type": "event"
    },
    {
      "inputs": [],
      "name": "_admin",
      "outputs": [
        {
          "internalType": "address",
          "name": "",
          "type": "address"
        }
      ],
      "stateMutability": "view",
      "type": "function"
    },
    {
      "inputs": [],
      "name": "_algorithm",
      "outputs": [
        {
          "internalType": "string",
          "name": "",
          "type": "string"
        }
      ],
      "stateMutability": "view",
      "type": "function"
    },
    {
      "inputs": [],
      "name": "_counter",
      "outputs": [
        {
          "internalType": "uint256",
          "name": "",
          "type": "uint256"
        }
      ],
      "stateMutability": "view",
      "type": "function"
    },
    {
      "inputs": [],
      "name": "_fee",
      "outputs": [
        {
          "internalType": "uint256",
          "name": "",
          "type": "uint256"
        }
      ],
      "stateMutability": "view",
      "type": "function"
    },
    {
      "inputs": [
        {
          "internalType": "string",
          "name": "",
          "type": "string"
        }
      ],
      "name": "_moods",
      "outputs": [
        {
          "internalType": "string",
          "name": "tempEmo",
          "type": "string"
        },
        {
          "internalType": "uint256",
          "name": "tempLastTime",
          "type": "uint256"
        }
      ],
      "stateMutability": "view",
      "type": "function"
    },
    {
      "inputs": [],
      "name": "_oracle",
      "outputs": [
        {
          "internalType": "address",
          "name": "",
          "type": "address"
        }
      ],
      "stateMutability": "view",
      "type": "function"
    },
    {
      "inputs": [],
      "name": "_paramsAddress",
      "outputs": [
        {
          "internalType": "address",
          "name": "",
          "type": "address"
        }
      ],
      "stateMutability": "view",
      "type": "function"
    },
    {
      "inputs": [
        {
          "internalType": "bytes32",
          "name": "",
          "type": "bytes32"
        }
      ],
      "name": "_requestIdData",
      "outputs": [
        {
          "internalType": "bytes",
          "name": "",
          "type": "bytes"
        }
      ],
      "stateMutability": "view",
      "type": "function"
    },
    {
      "inputs": [],
      "name": "_tokenAddrErc721",
      "outputs": [
        {
          "internalType": "address",
          "name": "",
          "type": "address"
        }
      ],
      "stateMutability": "view",
      "type": "function"
    },
    {
      "inputs": [],
      "name": "_uri",
      "outputs": [
        {
          "internalType": "string",
          "name": "",
          "type": "string"
        }
      ],
      "stateMutability": "view",
      "type": "function"
    },
    {
      "inputs": [],
      "name": "_whitelistFee",
      "outputs": [
        {
          "internalType": "uint256",
          "name": "",
          "type": "uint256"
        }
      ],
      "stateMutability": "view",
      "type": "function"
    },
    {
      "inputs": [
        {
          "internalType": "address",
          "name": "to",
          "type": "address"
        },
        {
          "internalType": "uint256",
          "name": "tokenId",
          "type": "uint256"
        }
      ],
      "name": "approve",
      "outputs": [],
      "stateMutability": "nonpayable",
      "type": "function"
    },
    {
      "inputs": [
        {
          "internalType": "address",
          "name": "owner",
          "type": "address"
        }
      ],
      "name": "balanceOf",
      "outputs": [
        {
          "internalType": "uint256",
          "name": "",
          "type": "uint256"
        }
      ],
      "stateMutability": "view",
      "type": "function"
    },
    {
      "inputs": [
        {
          "internalType": "address",
          "name": "newAdm",
          "type": "address"
        }
      ],
      "name": "changeAdmin",
      "outputs": [],
      "stateMutability": "nonpayable",
      "type": "function"
    },
    {
      "inputs": [
        {
          "internalType": "string",
          "name": "baseURI",
          "type": "string"
        }
      ],
      "name": "changeBaseURI",
      "outputs": [],
      "stateMutability": "nonpayable",
      "type": "function"
    },
    {
      "inputs": [
        {
          "internalType": "address",
          "name": "oracle",
          "type": "address"
        }
      ],
      "name": "changeOracle",
      "outputs": [],
      "stateMutability": "nonpayable",
      "type": "function"
    },
    {
      "inputs": [
        {
          "internalType": "address",
          "name": "newP",
          "type": "address"
        }
      ],
      "name": "changeParam",
      "outputs": [],
      "stateMutability": "nonpayable",
      "type": "function"
    },
    {
      "inputs": [
        {
          "internalType": "address",
          "name": "sweet",
          "type": "address"
        }
      ],
      "name": "changeToken",
      "outputs": [],
      "stateMutability": "nonpayable",
      "type": "function"
    },
    {
      "inputs": [
        {
          "internalType": "bytes32",
          "name": "requestId",
          "type": "bytes32"
        },
        {
          "internalType": "bytes",
          "name": "gameData",
          "type": "bytes"
        }
      ],
      "name": "fulfill",
      "outputs": [],
      "stateMutability": "nonpayable",
      "type": "function"
    },
    {
      "inputs": [
        {
          "internalType": "uint256",
          "name": "tokenId",
          "type": "uint256"
        }
      ],
      "name": "getApproved",
      "outputs": [
        {
          "internalType": "address",
          "name": "",
          "type": "address"
        }
      ],
      "stateMutability": "view",
      "type": "function"
    },
    {
      "inputs": [
        {
          "internalType": "uint256",
          "name": "tokenId",
          "type": "uint256"
        }
      ],
      "name": "getParamValues",
      "outputs": [
        {
          "components": [
            {
              "internalType": "string",
              "name": "_emotion",
              "type": "string"
            },
            {
              "internalType": "string",
              "name": "_emotionTime",
              "type": "string"
            },
            {
              "internalType": "string",
              "name": "_nation",
              "type": "string"
            },
            {
              "internalType": "string",
              "name": "_dna",
              "type": "string"
            },
            {
              "internalType": "string",
              "name": "_beard",
              "type": "string"
            },
            {
              "internalType": "string",
              "name": "_hair",
              "type": "string"
            },
            {
              "internalType": "string",
              "name": "_undershirt",
              "type": "string"
            },
            {
              "internalType": "string",
              "name": "_shoes",
              "type": "string"
            },
            {
              "internalType": "string",
              "name": "_top",
              "type": "string"
            },
            {
              "internalType": "string",
              "name": "_bottom",
              "type": "string"
            },
            {
              "internalType": "uint256",
              "name": "_number",
              "type": "uint256"
            },
            {
              "internalType": "string",
              "name": "_tattoo",
              "type": "string"
            },
            {
              "internalType": "string",
              "name": "_glasses",
              "type": "string"
            },
            {
              "internalType": "string",
              "name": "_captain",
              "type": "string"
            },
            {
              "internalType": "string",
              "name": "_facePaint",
              "type": "string"
            }
          ],
          "internalType": "struct AVATARS.Player",
          "name": "player",
          "type": "tuple"
        }
      ],
      "stateMutability": "view",
      "type": "function"
    },
    {
      "inputs": [
        {
          "internalType": "string",
          "name": "name",
          "type": "string"
        },
        {
          "internalType": "string",
          "name": "symbol",
          "type": "string"
        },
        {
          "internalType": "address",
          "name": "admin",
          "type": "address"
        },
        {
          "internalType": "address",
          "name": "paramsAddress",
          "type": "address"
        }
      ],
      "name": "initialize",
      "outputs": [],
      "stateMutability": "nonpayable",
      "type": "function"
    },
    {
      "inputs": [
        {
          "internalType": "address",
          "name": "owner",
          "type": "address"
        },
        {
          "internalType": "address",
          "name": "operator",
          "type": "address"
        }
      ],
      "name": "isApprovedForAll",
      "outputs": [
        {
          "internalType": "bool",
          "name": "",
          "type": "bool"
        }
      ],
      "stateMutability": "view",
      "type": "function"
    },
    {
      "inputs": [],
      "name": "mint",
      "outputs": [],
      "stateMutability": "payable",
      "type": "function"
    },
    {
      "inputs": [
        {
          "internalType": "uint256",
          "name": "tokenIdGated",
          "type": "uint256"
        }
      ],
      "name": "mintByToken",
      "outputs": [],
      "stateMutability": "nonpayable",
      "type": "function"
    },
    {
      "inputs": [],
      "name": "mintWhitelist",
      "outputs": [],
      "stateMutability": "payable",
      "type": "function"
    },
    {
      "inputs": [],
      "name": "name",
      "outputs": [
        {
          "internalType": "string",
          "name": "",
          "type": "string"
        }
      ],
      "stateMutability": "view",
      "type": "function"
    },
    {
      "inputs": [],
      "name": "owner",
      "outputs": [
        {
          "internalType": "address",
          "name": "",
          "type": "address"
        }
      ],
      "stateMutability": "view",
      "type": "function"
    },
    {
      "inputs": [
        {
          "internalType": "uint256",
          "name": "id",
          "type": "uint256"
        }
      ],
      "name": "ownerMint",
      "outputs": [],
      "stateMutability": "nonpayable",
      "type": "function"
    },
    {
      "inputs": [
        {
          "internalType": "uint256",
          "name": "tokenId",
          "type": "uint256"
        }
      ],
      "name": "ownerOf",
      "outputs": [
        {
          "internalType": "address",
          "name": "",
          "type": "address"
        }
      ],
      "stateMutability": "view",
      "type": "function"
    },
    {
      "inputs": [],
      "name": "pause",
      "outputs": [],
      "stateMutability": "nonpayable",
      "type": "function"
    },
    {
      "inputs": [],
      "name": "paused",
      "outputs": [
        {
          "internalType": "bool",
          "name": "",
          "type": "bool"
        }
      ],
      "stateMutability": "view",
      "type": "function"
    },
    {
      "inputs": [],
      "name": "renounceOwnership",
      "outputs": [],
      "stateMutability": "nonpayable",
      "type": "function"
    },
    {
      "inputs": [
        {
          "internalType": "uint256",
          "name": "_tokenId",
          "type": "uint256"
        },
        {
          "internalType": "uint256",
          "name": "_salePrice",
          "type": "uint256"
        }
      ],
      "name": "royaltyInfo",
      "outputs": [
        {
          "internalType": "address",
          "name": "receiver",
          "type": "address"
        },
        {
          "internalType": "uint256",
          "name": "royaltyAmount",
          "type": "uint256"
        }
      ],
      "stateMutability": "view",
      "type": "function"
    },
    {
      "inputs": [
        {
          "internalType": "address",
          "name": "from",
          "type": "address"
        },
        {
          "internalType": "address",
          "name": "to",
          "type": "address"
        },
        {
          "internalType": "uint256",
          "name": "tokenId",
          "type": "uint256"
        }
      ],
      "name": "safeTransferFrom",
      "outputs": [],
      "stateMutability": "nonpayable",
      "type": "function"
    },
    {
      "inputs": [
        {
          "internalType": "address",
          "name": "from",
          "type": "address"
        },
        {
          "internalType": "address",
          "name": "to",
          "type": "address"
        },
        {
          "internalType": "uint256",
          "name": "tokenId",
          "type": "uint256"
        },
        {
          "internalType": "bytes",
          "name": "data",
          "type": "bytes"
        }
      ],
      "name": "safeTransferFrom",
      "outputs": [],
      "stateMutability": "nonpayable",
      "type": "function"
    },
    {
      "inputs": [
        {
          "internalType": "string",
          "name": "algo",
          "type": "string"
        }
      ],
      "name": "setAlgo",
      "outputs": [],
      "stateMutability": "nonpayable",
      "type": "function"
    },
    {
      "inputs": [
        {
          "internalType": "address",
          "name": "operator",
          "type": "address"
        },
        {
          "internalType": "bool",
          "name": "approved",
          "type": "bool"
        }
      ],
      "name": "setApprovalForAll",
      "outputs": [],
      "stateMutability": "nonpayable",
      "type": "function"
    },
    {
      "inputs": [
        {
          "internalType": "uint256",
          "name": "fee",
          "type": "uint256"
        }
      ],
      "name": "setFee",
      "outputs": [],
      "stateMutability": "nonpayable",
      "type": "function"
    },
    {
      "inputs": [
        {
          "internalType": "uint256",
          "name": "whitelistFee",
          "type": "uint256"
        }
      ],
      "name": "setWhitelistFee",
      "outputs": [],
      "stateMutability": "nonpayable",
      "type": "function"
    },
    {
      "inputs": [
        {
          "internalType": "bytes4",
          "name": "interfaceId",
          "type": "bytes4"
        }
      ],
      "name": "supportsInterface",
      "outputs": [
        {
          "internalType": "bool",
          "name": "",
          "type": "bool"
        }
      ],
      "stateMutability": "view",
      "type": "function"
    },
    {
      "inputs": [],
      "name": "symbol",
      "outputs": [
        {
          "internalType": "string",
          "name": "",
          "type": "string"
        }
      ],
      "stateMutability": "view",
      "type": "function"
    },
    {
      "inputs": [
        {
          "internalType": "uint256",
          "name": "tokenId",
          "type": "uint256"
        }
      ],
      "name": "tokenURI",
      "outputs": [
        {
          "internalType": "string",
          "name": "",
          "type": "string"
        }
      ],
      "stateMutability": "view",
      "type": "function"
    },
    {
      "inputs": [
        {
          "internalType": "address",
          "name": "from",
          "type": "address"
        },
        {
          "internalType": "address",
          "name": "to",
          "type": "address"
        },
        {
          "internalType": "uint256",
          "name": "tokenId",
          "type": "uint256"
        }
      ],
      "name": "transferFrom",
      "outputs": [],
      "stateMutability": "nonpayable",
      "type": "function"
    },
    {
      "inputs": [
        {
          "internalType": "address",
          "name": "newOwner",
          "type": "address"
        }
      ],
      "name": "transferOwnership",
      "outputs": [],
      "stateMutability": "nonpayable",
      "type": "function"
    },
    {
      "inputs": [],
      "name": "unpause",
      "outputs": [],
      "stateMutability": "nonpayable",
      "type": "function"
    },
    {
      "inputs": [
        {
          "internalType": "uint256",
          "name": "amount",
          "type": "uint256"
        }
      ],
      "name": "withdraw",
      "outputs": [],
      "stateMutability": "nonpayable",
      "type": "function"
    }
  ],
  "bytecode": "0x608060405234801561001057600080fd5b50615271806100206000396000f3fe6080604052600436106102885760003560e01c806370a082311161015a578063a22cb465116100c1578063c87b56dd1161007a578063c87b56dd14610793578063d5978314146107b3578063e653c650146107d3578063e985e9c5146107f4578063f19e75d414610814578063f2fde38b1461083457600080fd5b8063a22cb465146106ce578063adfc7dae146106ee578063b88d4fde1461070f578063c0dca2391461072f578063c5b37c221461075c578063c6283c381461077357600080fd5b80638456cb59116101135780638456cb59146106305780638da5cb5b146106455780638f15b414146106645780638f2839701461068457806395d89b41146106a4578063a1bb1fcc146106b957600080fd5b806370a0823114610584578063715018a6146105a4578063741149b1146105b95780637c1de7e1146105d95780637cd49fde146105f957806380d953dd1461061057600080fd5b80632a55205a116101fe57806347c421b5116101b757806347c421b5146104c75780635275f37a146104e75780635c975abb1461050c5780636352211e1461052457806366829b161461054457806369fe0e2d1461056457600080fd5b80632a55205a1461040b5780632d3df31f1461044a5780632e1a7d4d1461045257806339a0c6f9146104725780633f4ba83a1461049257806342842e0e146104a757600080fd5b8063081812fc11610250578063081812fc1461036d578063095ea7b31461038d5780630dccc9ad146103ad5780631249c58b146103c257806323b872dd146103ca578063247ac063146103ea57600080fd5b806301bc45c91461028d57806301ffc9a7146102cb57806303f119ed146102fb57806306fdde03146103295780630764da1d1461034b575b600080fd5b34801561029957600080fd5b5061015f546102ae906001600160a01b031681565b6040516001600160a01b0390911681526020015b60405180910390f35b3480156102d757600080fd5b506102eb6102e636600461483d565b610854565b60405190151581526020016102c2565b34801561030757600080fd5b5061031b61031636600461491f565b6108a6565b6040516102c29291906149ac565b34801561033557600080fd5b5061033e610956565b6040516102c291906149ce565b34801561035757600080fd5b5061036b61036636600461491f565b6109e8565b005b34801561037957600080fd5b506102ae6103883660046149e1565b610a51565b34801561039957600080fd5b5061036b6103a8366004614a16565b610a78565b3480156103b957600080fd5b5061033e610b8e565b61036b610c1d565b3480156103d657600080fd5b5061036b6103e5366004614a40565b610ca4565b3480156103f657600080fd5b50610161546102ae906001600160a01b031681565b34801561041757600080fd5b5061042b610426366004614a7c565b610dfa565b604080516001600160a01b0390931683526020830191909152016102c2565b61036b610e2b565b34801561045e57600080fd5b5061036b61046d3660046149e1565b610e7a565b34801561047e57600080fd5b5061036b61048d36600461491f565b610f78565b34801561049e57600080fd5b5061036b610fd4565b3480156104b357600080fd5b5061036b6104c2366004614a40565b611024565b3480156104d357600080fd5b5061036b6104e2366004614a9e565b61116f565b3480156104f357600080fd5b506104fe6101695481565b6040519081526020016102c2565b34801561051857600080fd5b5060975460ff166102eb565b34801561053057600080fd5b506102ae61053f3660046149e1565b61121c565b34801561055057600080fd5b5061036b61055f366004614a9e565b61127c565b34801561057057600080fd5b5061036b61057f3660046149e1565b6112e7565b34801561059057600080fd5b506104fe61059f366004614a9e565b611335565b3480156105b057600080fd5b5061036b6113bb565b3480156105c557600080fd5b5061036b6105d4366004614a9e565b6113cd565b3480156105e557600080fd5b5061036b6105f4366004614ab9565b611469565b34801561060557600080fd5b506104fe6101645481565b34801561061c57600080fd5b5061036b61062b3660046149e1565b6117c8565b34801561063c57600080fd5b5061036b6118b4565b34801561065157600080fd5b5061012d546001600160a01b03166102ae565b34801561067057600080fd5b5061036b61067f366004614b00565b611904565b34801561069057600080fd5b5061036b61069f366004614a9e565b611ab8565b3480156106b057600080fd5b5061033e611b54565b3480156106c557600080fd5b5061033e611b63565b3480156106da57600080fd5b5061036b6106e9366004614b93565b611b71565b3480156106fa57600080fd5b50610160546102ae906001600160a01b031681565b34801561071b57600080fd5b5061036b61072a366004614bca565b611b7c565b34801561073b57600080fd5b5061074f61074a3660046149e1565b611cce565b6040516102c29190614c32565b34801561076857600080fd5b506104fe6101675481565b34801561077f57600080fd5b5061036b61078e3660046149e1565b611fc3565b34801561079f57600080fd5b5061033e6107ae3660046149e1565b612011565b3480156107bf57600080fd5b5061033e6107ce3660046149e1565b612078565b3480156107df57600080fd5b50610166546102ae906001600160a01b031681565b34801561080057600080fd5b506102eb61080f366004614def565b612092565b34801561082057600080fd5b5061036b61082f3660046149e1565b6120c0565b34801561084057600080fd5b5061036b61084f366004614a9e565b612131565b60006001600160e01b031982166380ac58cd60e01b148061088557506001600160e01b03198216635b5e139f60e01b145b806108a057506301ffc9a760e01b6001600160e01b03198316145b92915050565b805160208183018101805161016a825292820191909301209152805481906108cd90614e19565b80601f01602080910402602001604051908101604052809291908181526020018280546108f990614e19565b80156109465780601f1061091b57610100808354040283529160200191610946565b820191906000526020600020905b81548152906001019060200180831161092957829003601f168201915b5050505050908060010154905082565b60606065805461096590614e19565b80601f016020809104026020016040519081016040528092919081815260200182805461099190614e19565b80156109de5780601f106109b3576101008083540402835291602001916109de565b820191906000526020600020905b8154815290600101906020018083116109c157829003601f168201915b5050505050905090565b61015f5460408051808201909152600381526231303160e81b6020820152906001600160a01b03163314610a385760405162461bcd60e51b8152600401610a2f91906149ce565b60405180910390fd5b508051610a4d90610163906020840190614767565b5050565b6000610a5c826121a7565b506000908152606960205260409020546001600160a01b031690565b6000610a838261121c565b9050806001600160a01b0316836001600160a01b03161415610af15760405162461bcd60e51b815260206004820152602160248201527f4552433732313a20617070726f76616c20746f2063757272656e74206f776e656044820152603960f91b6064820152608401610a2f565b336001600160a01b0382161480610b0d5750610b0d8133612092565b610b7f5760405162461bcd60e51b815260206004820152603e60248201527f4552433732313a20617070726f76652063616c6c6572206973206e6f7420746f60448201527f6b656e206f776e6572206e6f7220617070726f76656420666f7220616c6c00006064820152608401610a2f565b610b898383612206565b505050565b6101658054610b9c90614e19565b80601f0160208091040260200160405190810160405280929190818152602001828054610bc890614e19565b8015610c155780601f10610bea57610100808354040283529160200191610c15565b820191906000526020600020905b815481529060010190602001808311610bf857829003601f168201915b505050505081565b600061016754118015610c335750610167543410155b6040518060400160405280600381526020016232303160e81b81525090610c6d5760405162461bcd60e51b8152600401610a2f91906149ce565b506123286101645410610c7f57600080fd5b6101648054906000610c9083614e6a565b9190505550610ca23361016454612274565b565b826daaeb6d7670e522a718067333cd4e3b15610de9576001600160a01b038116331415610cdb57610cd684848461228e565b610df4565b604051633185c44d60e21b81526daaeb6d7670e522a718067333cd4e9063c617113490610d0e9030903390600401614e85565b602060405180830381865afa158015610d2b573d6000803e3d6000fd5b505050506040513d601f19601f82011682018060405250810190610d4f9190614e9f565b8015610dca5750604051633185c44d60e21b81526daaeb6d7670e522a718067333cd4e9063c617113490610d899030908590600401614e85565b602060405180830381865afa158015610da6573d6000803e3d6000fd5b505050506040513d601f19601f82011682018060405250810190610dca9190614e9f565b610de957604051633b79c77360e21b8152336004820152602401610a2f565b610df484848461228e565b50505050565b61015f546001600160a01b03166000612710610e18846101f4614ebc565b610e229190614ef1565b90509250929050565b600061016954118015610c335750610169543410156040518060400160405280600381526020016232303160e81b81525090610c6d5760405162461bcd60e51b8152600401610a2f91906149ce565b600260fb541415610ecd5760405162461bcd60e51b815260206004820152601f60248201527f5265656e7472616e637947756172643a207265656e7472616e742063616c6c006044820152606401610a2f565b600260fb5561015f5460408051808201909152600381526231303160e81b6020820152906001600160a01b03163314610f195760405162461bcd60e51b8152600401610a2f91906149ce565b50604051600090339047908381818185875af1925050503d8060008114610f5c576040519150601f19603f3d011682016040523d82523d6000602084013e610f61565b606091505b5050905080610f6f57600080fd5b5050600160fb55565b61015f5460408051808201909152600381526231303160e81b6020820152906001600160a01b03163314610fbf5760405162461bcd60e51b8152600401610a2f91906149ce565b508051610a4d90610165906020840190614767565b61015f5460408051808201909152600381526231303160e81b6020820152906001600160a01b0316331461101b5760405162461bcd60e51b8152600401610a2f91906149ce565b50610ca26122bf565b826daaeb6d7670e522a718067333cd4e3b15611164576001600160a01b03811633141561105657610cd6848484612311565b604051633185c44d60e21b81526daaeb6d7670e522a718067333cd4e9063c6171134906110899030903390600401614e85565b602060405180830381865afa1580156110a6573d6000803e3d6000fd5b505050506040513d601f19601f820116820180604052508101906110ca9190614e9f565b80156111455750604051633185c44d60e21b81526daaeb6d7670e522a718067333cd4e9063c6171134906111049030908590600401614e85565b602060405180830381865afa158015611121573d6000803e3d6000fd5b505050506040513d601f19601f820116820180604052508101906111459190614e9f565b61116457604051633b79c77360e21b8152336004820152602401610a2f565b610df4848484612311565b61015f5460408051808201909152600381526231303160e81b6020820152906001600160a01b031633146111b65760405162461bcd60e51b8152600401610a2f91906149ce565b5060408051808201909152600381526203130360ec1b60208201526001600160a01b0382166111f85760405162461bcd60e51b8152600401610a2f91906149ce565b5061016180546001600160a01b0319166001600160a01b0392909216919091179055565b6000818152606760205260408120546001600160a01b0316806108a05760405162461bcd60e51b8152602060048201526018602482015277115490cdcc8c4e881a5b9d985b1a59081d1bdad95b88125160421b6044820152606401610a2f565b61015f5460408051808201909152600381526231303160e81b6020820152906001600160a01b031633146112c35760405162461bcd60e51b8152600401610a2f91906149ce565b5061016680546001600160a01b0319166001600160a01b0392909216919091179055565b61015f5460408051808201909152600381526231303160e81b6020820152906001600160a01b0316331461132e5760405162461bcd60e51b8152600401610a2f91906149ce565b5061016755565b60006001600160a01b03821661139f5760405162461bcd60e51b815260206004820152602960248201527f4552433732313a2061646472657373207a65726f206973206e6f7420612076616044820152683634b21037bbb732b960b91b6064820152608401610a2f565b506001600160a01b031660009081526068602052604090205490565b6113c361232c565b610ca26000612387565b61015f546001600160a01b0316331480156113f057506001600160a01b03811615155b801561140b5750610160546001600160a01b03828116911614155b6040518060400160405280600381526020016231303160e81b815250906114455760405162461bcd60e51b8152600401610a2f91906149ce565b5061016080546001600160a01b0319166001600160a01b0392909216919091179055565b6101615460408051808201909152600381526203130360ec1b6020820152906001600160a01b031633146114b05760405162461bcd60e51b8152600401610a2f91906149ce565b50806040516114bf9190614f05565b6040519081900381209083907fc6ef1c5f8f954d0251e9620ce4908018f1c31f432eb9b44fd9efb2ca569453f190600090a3600082815261016260205260409020805461150b90614e19565b6040805180820190915260038152620c8c0d60ea1b60208201529150156115455760405162461bcd60e51b8152600401610a2f91906149ce565b50600082815261016260209081526040909120825161156692840190614767565b506000806000806000806000878060200190518101906115869190614f8c565b965096509650965096509650965060006115a68460ff168460ff166123da565b6040805160a081018252600160608201818152603160f81b6080840152825282518084018452818152601960f91b6020828101919091528084019190915283518085018552828152603360f81b918101919091529282019290925291925082600381111561161657611616615062565b141561169e57806002602002015161016a886040516116359190614f05565b90815260200160405180910390206000019080519060200190611659929190614767565b508060015b602002015161016a876040516116749190614f05565b90815260200160405180910390206000019080519060200190611698929190614767565b5061176f565b60028260038111156116b2576116b2615062565b14156116fc57602081015160405161016a906116cf908a90614f05565b908152602001604051809103902060000190805190602001906116f3929190614767565b5080600261165e565b805160405161016a90611710908a90614f05565b90815260200160405180910390206000019080519060200190611734929190614767565b50805160405161016a90611749908990614f05565b9081526020016040518091039020600001908051906020019061176d929190614767565b505b4261016a886040516117819190614f05565b9081526020016040518091039020600101819055504261016a876040516117a89190614f05565b908152604051908190036020019020600101555050505050505050505050565b6101665460408051808201909152600381526203130360ec1b6020820152906001600160a01b031661180d5760405162461bcd60e51b8152600401610a2f91906149ce565b50612328610164541061181f57600080fd5b610164805490600061183083614e6a565b91905055506118423361016454612274565b610166546040516323b872dd60e01b8152336004820152306024820152604481018390526001600160a01b039091169081906323b872dd906064015b600060405180830381600087803b15801561189857600080fd5b505af11580156118ac573d6000803e3d6000fd5b505050505050565b61015f5460408051808201909152600381526231303160e81b6020820152906001600160a01b031633146118fb5760405162461bcd60e51b8152600401610a2f91906149ce565b50610ca2612405565b600054610100900460ff16158080156119245750600054600160ff909116105b8061193e5750303b15801561193e575060005460ff166001145b6119a15760405162461bcd60e51b815260206004820152602e60248201527f496e697469616c697a61626c653a20636f6e747261637420697320616c72656160448201526d191e481a5b9a5d1a585b1a5e995960921b6064820152608401610a2f565b6000805460ff1916600117905580156119c4576000805461ff0019166101001790555b6001600160a01b038316158015906119e457506001600160a01b03821615155b6040518060400160405280600381526020016203130360ec1b81525090611a1e5760405162461bcd60e51b8152600401610a2f91906149ce565b50611a298585612442565b61016080546001600160a01b038085166001600160a01b03199283161790925561015f805492861692909116919091179055611a63612473565b611a6b6124a2565b8015611ab1576000805461ff0019169055604051600181527f7f26b83ff96e1f2b6a682f133852f6798a09c465da95921460cefb38474024989060200160405180910390a15b5050505050565b61015f546001600160a01b031633148015611adb57506001600160a01b03811615155b8015611af6575061015f546001600160a01b03828116911614155b6040518060400160405280600381526020016231303160e81b81525090611b305760405162461bcd60e51b8152600401610a2f91906149ce565b5061015f80546001600160a01b0319166001600160a01b0392909216919091179055565b60606066805461096590614e19565b6101638054610b9c90614e19565b610a4d3383836124e8565b836daaeb6d7670e522a718067333cd4e3b15611cc2576001600160a01b038116331415611bb457611baf858585856125b7565b611ab1565b604051633185c44d60e21b81526daaeb6d7670e522a718067333cd4e9063c617113490611be79030903390600401614e85565b602060405180830381865afa158015611c04573d6000803e3d6000fd5b505050506040513d601f19601f82011682018060405250810190611c289190614e9f565b8015611ca35750604051633185c44d60e21b81526daaeb6d7670e522a718067333cd4e9063c617113490611c629030908590600401614e85565b602060405180830381865afa158015611c7f573d6000803e3d6000fd5b505050506040513d601f19601f82011682018060405250810190611ca39190614e9f565b611cc257604051633b79c77360e21b8152336004820152602401610a2f565b611ab1858585856125b7565b611d47604051806101e001604052806060815260200160608152602001606081526020016060815260200160608152602001606081526020016060815260200160608152602001606081526020016060815260200160008152602001606081526020016060815260200160608152602001606081525090565b6040805160a081018252600160608201818152603160f81b6080840152825282518084018452818152601960f91b6020828101919091528084019190915283518085018552918252603360f81b90820152918101919091526000611daa846125e9565b9050600080611db886612a50565b91509150600061016a84604051611dcf9190614f05565b9081526040519081900360200190208054611de990614e19565b80601f0160208091040260200160405190810160405280929190818152602001828054611e1590614e19565b8015611e625780601f10611e3757610100808354040283529160200191611e62565b820191906000526020600020905b815481529060010190602001808311611e4557829003601f168201915b50939450620151809350611e84925086915085905060025b6020020151612b34565b15611e9b57611e9481601e614ebc565b9050611eba565b611ea784846001611e7a565b15611eba57611eb7816007614ebc565b90505b8061016a86604051611ecc9190614f05565b90815260200160405180910390206001015442611ee9919061508e565b1115611ef457855191505b604051806101e00160405280838152602001858152602001868152602001611f1b8a612b8d565b8152602001611f298a612d03565b8152602001611f378a612e24565b8152602001611f458a61319f565b8152602001611f538a613532565b8152602001611f618a6135ef565b8152602001611f6f8a613791565b8152602001611f7d8a6138ac565b8152602001611f8b8a6139fb565b8152602001611f998a613b10565b8152602001611fa78a613c76565b8152602001611fb58a613db9565b905298975050505050505050565b61015f5460408051808201909152600381526231303160e81b6020820152906001600160a01b0316331461200a5760405162461bcd60e51b8152600401610a2f91906149ce565b5061016955565b606061201c826121a7565b6000612026613e54565b905060008151116120465760405180602001604052806000815250612071565b8061205084613e64565b6040516020016120619291906150a5565b6040516020818303038152906040525b9392505050565b6101626020526000908152604090208054610b9c90614e19565b6001600160a01b039182166000908152606a6020908152604080832093909416825291909152205460ff1690565b61015f5460408051808201909152600381526231303160e81b6020820152906001600160a01b031633146121075760405162461bcd60e51b8152600401610a2f91906149ce565b506123288111801561211b57506127108111155b61212457600080fd5b61212e3382612274565b50565b61213961232c565b6001600160a01b03811661219e5760405162461bcd60e51b815260206004820152602660248201527f4f776e61626c653a206e6577206f776e657220697320746865207a65726f206160448201526564647265737360d01b6064820152608401610a2f565b61212e81612387565b6000818152606760205260409020546001600160a01b031661212e5760405162461bcd60e51b8152602060048201526018602482015277115490cdcc8c4e881a5b9d985b1a59081d1bdad95b88125160421b6044820152606401610a2f565b600081815260696020526040902080546001600160a01b0319166001600160a01b038416908117909155819061223b8261121c565b6001600160a01b03167f8c5be1e5ebec7d5bd14f71427d1e84f3dd0314c0f7b2291e5b200ac8c7c3b92560405160405180910390a45050565b610a4d828260405180602001604052806000815250613f6a565b6122983382613f9d565b6122b45760405162461bcd60e51b8152600401610a2f906150d4565b610b89838383613ffb565b6122c76141a2565b6097805460ff191690557f5db9ee0a495bf2e6ff9c91a7834c1ba4fdd244a5e8aa4e537bd38aeae4b073aa335b6040516001600160a01b03909116815260200160405180910390a1565b610b8983838360405180602001604052806000815250611b7c565b61012d546001600160a01b03163314610ca25760405162461bcd60e51b815260206004820181905260248201527f4f776e61626c653a2063616c6c6572206973206e6f7420746865206f776e65726044820152606401610a2f565b61012d80546001600160a01b038381166001600160a01b0319831681179093556040519116919082907f8be0079c531659141344cd1fd0a4f28419497f9722a3daafe3b4186f6b6457e090600090a35050565b6000818311156123ec575060016108a0565b818314156123fc575060036108a0565b50600292915050565b61240d6141eb565b6097805460ff191660011790557f62e78cea01bee320cd4e420270b5ea74000d11b0c9f74754ebdbfc544b05a2586122f43390565b600054610100900460ff166124695760405162461bcd60e51b8152600401610a2f90615122565b610a4d8282614231565b600054610100900460ff1661249a5760405162461bcd60e51b8152600401610a2f90615122565b610ca261427f565b600054610100900460ff166124c95760405162461bcd60e51b8152600401610a2f90615122565b610ca2733cc6cdda760b79bafa08df41ecfa224f810dceb660016142af565b816001600160a01b0316836001600160a01b0316141561254a5760405162461bcd60e51b815260206004820152601960248201527f4552433732313a20617070726f766520746f2063616c6c6572000000000000006044820152606401610a2f565b6001600160a01b038381166000818152606a6020908152604080832094871680845294825291829020805460ff191686151590811790915591519182527f17307eab39ab6107e8899845ad3d59bd9653f200f220920489ca2b5937696c31910160405180910390a3505050565b6125c13383613f9d565b6125dd5760405162461bcd60e51b8152600401610a2f906150d4565b610df48484848461440a565b6040805161044081018252600561040082018181526428b0ba30b960d91b61042084015282528251808401845260078082526622b1bab0b237b960c91b60208381019190915280850192909252845180860186528181526614d95b9959d85b60ca1b818401528486015284518086018652600b8082526a4e65746865726c616e647360a81b828501526060868101929092528651808801885283815266115b99db185b9960ca1b818601526080870152865180880188528381526624a91024b930b760c91b8186015260a087015286518088018852600381526255534160e81b8186015260c0870152865180880188528581526457616c657360d81b8186015260e087015286518088018852600980825268417267656e74696e6160b81b8287015261010088019190915287518089018952600c81526b53617564692041726162696160a01b81870152610120880152875180890189526006808252654d657869636f60d01b828801526101408901919091528851808a018a5281815265141bdb185b9960d21b818801526101608901528851808a018a52818152654672616e636560d01b818801526101808901528851808a018a52918252684175737472616c696160b81b828701526101a0880191909152875180890189528481526644656e6d61726b60c81b818701526101c0880152875180890189528481526654756e6973696160c81b818701526101e0880152875180890189528681526429b830b4b760d91b8187015261020088015287518089018952600a815269436f737461205269636160b01b8187015261022088015287518089018952848152664765726d616e7960c81b8187015261024088015287518089018952868152642530b830b760d91b81870152610260880152875180890189528481526642656c6769756d60c81b81870152610280880152875180890189528181526543616e61646160d01b818701526102a088015287518089018952848152664d6f726f63636f60c81b818701526102c0880152875180890189528481526643726f6174696160c81b818701526102e08801528751808901895281815265109c985e9a5b60d21b81870152610300880152875180890189528181526553657262696160d01b81870152610320880152875180890189529182526a14ddda5d1e995c9b185b9960aa1b828601526103408701919091528651808801885260088082526721b0b6b2b937b7b760c11b828701526103608801919091528751808901895290815267141bdc9d1d59d85b60c21b8186015261038087015286518088018852948552644768616e6160d81b858501526103a086019490945285518087018752918252665572756775617960c81b828401526103c085019190915284518086018652600e81526d4b6f7265612052657075626c696360901b818401526103e08501528451808601909552918452653730ba34b7b760d11b848201529092829190612a2a90869061443d565b612a34919061516d565b60208110612a4457612a44615078565b60200201519392505050565b6060612a5a6147eb565b6040805160a081018252600160608201818152603160f81b6080840152825282518084018452818152601960f91b6020828101919091528084019190915283518085018552828152603360f81b81830152838501528351808501909452600b84526a656d6f74696f6e54696d6560a81b908401529091600091612ae1918791612710614479565b825190915060018210801590612af957506107d08211155b15612b0957506020820151612b29565b6107d18210158015612b1d5750610bb88211155b15612b29575060408201515b959194509092505050565b600081604051602001612b479190614f05565b6040516020818303038152906040528051906020012083604051602001612b6e9190614f05565b6040516020818303038152906040528051906020012014905092915050565b6040805161010081018252600160c08201818152603160f81b60e0840152825282518084018452818152601960f91b6020828101919091528084019190915283518085018552828152603360f81b818301528385015283518085018552828152600d60fa1b8183015260608481019190915284518086018652838152603560f81b81840152608085015284518086018652838152601b60f91b8184015260a085015284518086019095526003855262646e6160e81b9185019190915292600091612c5b918691612710614479565b9050610bb8811115612c78578160005b6020020151949350505050565b60018110158015612c8b57506107d08111155b15612c9857816001612c6b565b6107d18110158015612cac5750610a288111155b15612cb957816002612c6b565b610a298110158015612ccd5750610b548111155b15612cda57816003612c6b565b610b558110158015612cee5750610bae8111155b15612cfb57816004612c6b565b816005612c6b565b6040805160a08101825260016060828101828152600360fc1b6080850152835283518085018552828152603160f81b6020828101919091528085019190915284518086018652928352601960f91b90830152928201526000612d6484612b8d565b9050612d8981604051806040016040528060018152602001603160f81b815250612b34565b15612e04576000612dbc85604051806040016040528060058152602001641899585c9960da1b8152506001611b58614479565b90506102bc811115612dda578260005b602002015195945050505050565b60018110158015612ded57506102308111155b15612dfa57826001612dcc565b826002612dcc565b505b50506040805180820190915260018152600360fc1b602082015292915050565b60606000604051806101200160405280604051806040016040528060018152602001603160f81b8152508152602001604051806040016040528060018152602001601960f91b8152508152602001604051806040016040528060018152602001603360f81b8152508152602001604051806040016040528060018152602001600d60fa1b8152508152602001604051806040016040528060018152602001603560f81b8152508152602001604051806040016040528060018152602001601b60f91b8152508152602001604051806040016040528060018152602001603760f81b8152508152602001604051806040016040528060018152602001600760fb1b8152508152602001604051806040016040528060018152602001603960f81b815250815250905060006040518060e00160405280604051806040016040528060018152602001603160f81b8152508152602001604051806040016040528060018152602001601960f91b8152508152602001604051806040016040528060018152602001603360f81b8152508152602001604051806040016040528060018152602001600d60fa1b8152508152602001604051806040016040528060018152602001603560f81b8152508152602001604051806040016040528060018152602001601b60f91b8152508152602001604051806040016040528060018152602001603760f81b8152508152509050600061303c85612b8d565b905061306181604051806040016040528060018152602001601960f91b815250612b34565b156130a95781600761308f87604051806040016040528060048152602001633430b4b960e11b81525061443d565b613099919061516d565b60078110612dcc57612dcc615078565b6130cc81604051806040016040528060018152602001603160f81b815250612b34565b1561317e5760006130fe86604051806040016040528060048152602001633430b4b960e11b8152506001611b58614479565b9050611acc81111561312c5750506040805180820190915260018152600360fc1b6020820152949350505050565b83600961315588604051806040016040528060048152602001633430b4b960e11b81525061443d565b61315f919061516d565b6009811061316f5761316f615078565b60200201519695505050505050565b50506040805180820190915260018152600360fc1b60208201529392505050565b604080516101c08101825260016101808201818152603160f81b6101a0840152825282518084018452818152601960f91b6020828101919091528084019190915283518085018552828152603360f81b818301528385015283518085018552828152600d60fa1b8183015260608481019190915284518086018652838152603560f81b8184015260808086019190915285518087018752848152601b60f91b8185015260a08087019190915286518088018852858152603760f81b8186015260c08088019190915287518089018952868152600760fb1b8187015260e0808901919091528851808a018a52968752603960f81b8787015261010088019690965287518089018952600280825261031360f41b828801526101208901919091528851808a018a5281815261313160f01b818801526101408901528851808a018a5281815261189960f11b818801526101608901528851968701895291860182815261313360f01b91870191909152855286518088018852818152610c4d60f21b81860152858501528651808801885281815261313560f01b81860152858801528651808801885281815261189b60f11b81860152858401528651808801909752865261313760f01b9286019290925290820193909352600061337f85612b8d565b90506133a481604051806040016040528060018152602001603160f81b815250612b34565b1561317e5760006133b4866135ef565b90506133d981604051806040016040528060018152602001603160f81b815250612b34565b156135105760006133e9876138ac565b9050801561350e576000613424886040518060400160405280600a8152602001691d5b99195c9cda1a5c9d60b21b8152506001610ccc614479565b905061051e81106134535750506040805180820190915260018152600360fc1b60208201529695505050505050565b6001811015801561346657506103d68111155b156134c55785600c61349a8a6040518060400160405280600a8152602001691d5b99195c9cda1a5c9d60b21b81525061443d565b6134a4919061516d565b600c81106134b4576134b4615078565b602002015198975050505050505050565b8460056134f48a6040518060400160405280600a8152602001691d5b99195c9cda1a5c9d60b21b81525061443d565b6134fe919061516d565b600581106134b4576134b4615078565b505b5050506040805180820190915260018152600360fc1b60208201529392505050565b6040805160a08101825260016060828101828152603160f81b6080850152835283518085018552828152601960f91b6020828101919091528085019190915284518086018652838152603360f81b81830152848601528451808601909552600585526473686f657360d81b90850152926000916135b3918691612710614479565b90506103e88111156135c757816000612c6b565b600181101580156135da57506103848111155b156135e757816001612c6b565b816002612c6b565b6040805160a0808201835260016060838101828152603160f81b608080870182905291865286518088018852848152601960f91b6020828101829052808901929092528851808a018a52868152603360f81b81840152888a0152885196870189528685018681529387019290925291855286518088018852848152808301919091528482015285518087018752928352600d60fa1b9083015293820152600061369785612b8d565b90506136bc81604051806040016040528060018152602001601960f91b815250612b34565b156137295760006136ed86604051806040016040528060038152602001620746f760ec1b81525060016107d0614479565b90506103208111156137015782600061316f565b6001811015801561371457506102588111155b156137215782600161316f565b82600261316f565b600061375586604051806040016040528060038152602001620746f760ec1b8152506001611f40614479565b9050610c808111156137695783600061316f565b6001811015801561377c57506109608111155b156137895783600161316f565b83600261316f565b60408051608080820183526001828401818152603360f81b60608581019190915290845284518086018652828152600d60fa1b6020828101919091528086019190915285519384018652838601838152603160f81b8584015284528551808701909652918552601960f91b8583015290820193909352600061381285612b8d565b905061383781604051806040016040528060018152602001601960f91b815250612b34565b15613881578260026138678760405180604001604052806006815260200165626f74746f6d60d01b81525061443d565b613871919061516d565b60028110612dcc57612dcc615078565b8160026138678760405180604001604052806006815260200165626f74746f6d60d01b81525061443d565b600080604051806103400160405280600181526020016002815260200160038152602001600481526020016005815260200160068152602001600781526020016008815260200160098152602001600a8152602001600b8152602001600c8152602001600d8152602001600e8152602001600f815260200160108152602001601181526020016012815260200160138152602001601481526020016015815260200160168152602001601781526020016018815260200160198152602001601a815250905060006139a08460405180604001604052806006815260200165373ab6b132b960d11b8152506001612710614479565b9050611e788111156139b6575060009392505050565b81601a6139e18660405180604001604052806006815260200165373ab6b132b960d11b81525061443d565b6139eb919061516d565b601a8110612c6b57612c6b615078565b606060006040518060800160405280604051806040016040528060018152602001600360fc1b8152508152602001604051806040016040528060018152602001603160f81b8152508152602001604051806040016040528060018152602001601960f91b8152508152602001604051806040016040528060018152602001603360f81b81525081525090506000613ab58460405180604001604052806006815260200165746174746f6f60d01b8152506001612710614479565b90506109c4811115613ac957816000612c6b565b60018110158015613adb575060648111155b15613ae857816001612c6b565b60658110158015613afb57506101f48111155b15613b0857816002612c6b565b816003612c6b565b6040805161010081018252600160c08201818152600360fc1b60e0840152825282518084018452818152603160f81b6020828101919091528084019190915283518085018552828152601960f91b818301528385015283518085018552828152603360f81b8183015260608481019190915284518086018652838152600d60fa1b81840152608085015284518086018652838152603560f81b8184015260a085015284518086019095526007855266676c617373657360c81b9185019190915292600091613be2918691612710614479565b9050610fa0811115613bf657816000612c6b565b60018110158015613c0957506107d08111155b15613c1657816001612c6b565b6107d18110158015613c2a5750610bb88111155b15613c3757816002612c6b565b610bb98110158015613c4b5750610dac8111155b15613c5857816003612c6b565b610dad8110158015612cee5750610f3c8111612cfb57816004612c6b565b606060006040518060400160405280604051806040016040528060018152602001600360fc1b8152508152602001604051806040016040528060018152602001603160f81b81525081525090506000613cce84612b8d565b9050613cf381604051806040016040528060018152602001603160f81b815250612b34565b15612e04576000613d03856135ef565b9050613d2881604051806040016040528060018152602001603160f81b815250612b34565b15612e02576000613d38866138ac565b90508015613d97576000613d70876040518060400160405280600781526020016631b0b83a30b4b760c91b8152506001610ccc614479565b90506101478110613d8f578460005b6020020151979650505050505050565b846001613d7f565b505050506040805180820190915260018152600360fc1b602082015292915050565b606060006040518060400160405280604051806040016040528060018152602001600360fc1b8152508152602001604051806040016040528060018152602001603160f81b81525081525090506000613e388460405180604001604052806009815260200168199858d95c185a5b9d60ba1b8152506001612710614479565b90506103e8811115613e4c57816000612c6b565b816001612c6b565b6060610165805461096590614e19565b606081613e885750506040805180820190915260018152600360fc1b602082015290565b8160005b8115613eb25780613e9c81614e6a565b9150613eab9050600a83614ef1565b9150613e8c565b60008167ffffffffffffffff811115613ecd57613ecd61485a565b6040519080825280601f01601f191660200182016040528015613ef7576020820181803683370190505b5090505b8415613f6257613f0c60018361508e565b9150613f19600a8661516d565b613f24906030615181565b60f81b818381518110613f3957613f39615078565b60200101906001600160f81b031916908160001a905350613f5b600a86614ef1565b9450613efb565b949350505050565b613f7483836144b7565b613f816000848484614605565b610b895760405162461bcd60e51b8152600401610a2f90615199565b600080613fa98361121c565b9050806001600160a01b0316846001600160a01b03161480613fd05750613fd08185612092565b80613f625750836001600160a01b0316613fe984610a51565b6001600160a01b031614949350505050565b826001600160a01b031661400e8261121c565b6001600160a01b0316146140725760405162461bcd60e51b815260206004820152602560248201527f4552433732313a207472616e736665722066726f6d20696e636f72726563742060448201526437bbb732b960d91b6064820152608401610a2f565b6001600160a01b0382166140d45760405162461bcd60e51b8152602060048201526024808201527f4552433732313a207472616e7366657220746f20746865207a65726f206164646044820152637265737360e01b6064820152608401610a2f565b6140df838383614700565b6140ea600082612206565b6001600160a01b038316600090815260686020526040812080546001929061411390849061508e565b90915550506001600160a01b0382166000908152606860205260408120805460019290614141908490615181565b909155505060008181526067602052604080822080546001600160a01b0319166001600160a01b0386811691821790925591518493918716917fddf252ad1be2c89b69c2b068fc378daa952ba7f163c4a11628f55a4df523b3ef91a4505050565b60975460ff16610ca25760405162461bcd60e51b815260206004820152601460248201527314185d5cd8589b194e881b9bdd081c185d5cd95960621b6044820152606401610a2f565b60975460ff1615610ca25760405162461bcd60e51b815260206004820152601060248201526f14185d5cd8589b194e881c185d5cd95960821b6044820152606401610a2f565b600054610100900460ff166142585760405162461bcd60e51b8152600401610a2f90615122565b815161426b906065906020850190614767565b508051610b89906066906020840190614767565b600054610100900460ff166142a65760405162461bcd60e51b8152600401610a2f90615122565b610ca233612387565b600054610100900460ff166142d65760405162461bcd60e51b8152600401610a2f90615122565b6daaeb6d7670e522a718067333cd4e3b15610a4d5760405163c3c5a54760e01b81523060048201526daaeb6d7670e522a718067333cd4e9063c3c5a547906024016020604051808303816000875af1158015614336573d6000803e3d6000fd5b505050506040513d601f19601f8201168201806040525081019061435a9190614e9f565b610a4d57801561439757604051633e9f1edf60e11b81526daaeb6d7670e522a718067333cd4e90637d3e3dbe9061187e9030908690600401614e85565b6001600160a01b038216156143d95760405163a0af290360e01b81526daaeb6d7670e522a718067333cd4e9063a0af29039061187e9030908690600401614e85565b604051632210724360e11b81523060048201526daaeb6d7670e522a718067333cd4e90634420e4869060240161187e565b614415848484613ffb565b61442184848484614605565b610df45760405162461bcd60e51b8152600401610a2f90615199565b60008161444984613e64565b60405160200161445a9291906150a5565b60408051601f1981840301815291905280516020909101209392505050565b6000614485838361508e565b614490906001615181565b61449a868661443d565b6144a4919061516d565b6144ae9084615181565b95945050505050565b6001600160a01b03821661450d5760405162461bcd60e51b815260206004820181905260248201527f4552433732313a206d696e7420746f20746865207a65726f20616464726573736044820152606401610a2f565b6000818152606760205260409020546001600160a01b0316156145725760405162461bcd60e51b815260206004820152601c60248201527f4552433732313a20746f6b656e20616c7265616479206d696e746564000000006044820152606401610a2f565b61457e60008383614700565b6001600160a01b03821660009081526068602052604081208054600192906145a7908490615181565b909155505060008181526067602052604080822080546001600160a01b0319166001600160a01b03861690811790915590518392907fddf252ad1be2c89b69c2b068fc378daa952ba7f163c4a11628f55a4df523b3ef908290a45050565b60006001600160a01b0384163b156146f857604051630a85bd0160e11b81526001600160a01b0385169063150b7a02906146499033908990889088906004016151eb565b6020604051808303816000875af1925050508015614684575060408051601f3d908101601f191682019092526146819181019061521e565b60015b6146de573d8080156146b2576040519150601f19603f3d011682016040523d82523d6000602084013e6146b7565b606091505b5080516146d65760405162461bcd60e51b8152600401610a2f90615199565b805181602001fd5b6001600160e01b031916630a85bd0160e11b149050613f62565b506001613f62565b60975460ff1615610b895760405162461bcd60e51b815260206004820152602b60248201527f4552433732315061757361626c653a20746f6b656e207472616e73666572207760448201526a1a1a5b19481c185d5cd95960aa1b6064820152608401610a2f565b82805461477390614e19565b90600052602060002090601f01602090048101928261479557600085556147db565b82601f106147ae57805160ff19168380011785556147db565b828001600101855582156147db579182015b828111156147db5782518255916020019190600101906147c0565b506147e7929150614812565b5090565b60405180606001604052806003905b60608152602001906001900390816147fa5790505090565b5b808211156147e75760008155600101614813565b6001600160e01b03198116811461212e57600080fd5b60006020828403121561484f57600080fd5b813561207181614827565b634e487b7160e01b600052604160045260246000fd5b604051601f8201601f1916810167ffffffffffffffff811182821017156148995761489961485a565b604052919050565b600067ffffffffffffffff8211156148bb576148bb61485a565b50601f01601f191660200190565b600082601f8301126148da57600080fd5b81356148ed6148e8826148a1565b614870565b81815284602083860101111561490257600080fd5b816020850160208301376000918101602001919091529392505050565b60006020828403121561493157600080fd5b813567ffffffffffffffff81111561494857600080fd5b613f62848285016148c9565b60005b8381101561496f578181015183820152602001614957565b83811115610df45750506000910152565b60008151808452614998816020860160208601614954565b601f01601f19169290920160200192915050565b6040815260006149bf6040830185614980565b90508260208301529392505050565b6020815260006120716020830184614980565b6000602082840312156149f357600080fd5b5035919050565b80356001600160a01b0381168114614a1157600080fd5b919050565b60008060408385031215614a2957600080fd5b614a32836149fa565b946020939093013593505050565b600080600060608486031215614a5557600080fd5b614a5e846149fa565b9250614a6c602085016149fa565b9150604084013590509250925092565b60008060408385031215614a8f57600080fd5b50508035926020909101359150565b600060208284031215614ab057600080fd5b612071826149fa565b60008060408385031215614acc57600080fd5b82359150602083013567ffffffffffffffff811115614aea57600080fd5b614af6858286016148c9565b9150509250929050565b60008060008060808587031215614b1657600080fd5b843567ffffffffffffffff80821115614b2e57600080fd5b614b3a888389016148c9565b95506020870135915080821115614b5057600080fd5b50614b5d878288016148c9565b935050614b6c604086016149fa565b9150614b7a606086016149fa565b905092959194509250565b801515811461212e57600080fd5b60008060408385031215614ba657600080fd5b614baf836149fa565b91506020830135614bbf81614b85565b809150509250929050565b60008060008060808587031215614be057600080fd5b614be9856149fa565b9350614bf7602086016149fa565b925060408501359150606085013567ffffffffffffffff811115614c1a57600080fd5b614c26878288016148c9565b91505092959194509250565b60208152600082516101e0806020850152614c51610200850183614980565b91506020850151601f1980868503016040870152614c6f8483614980565b93506040870151915080868503016060870152614c8c8483614980565b93506060870151915080868503016080870152614ca98483614980565b935060808701519150808685030160a0870152614cc68483614980565b935060a08701519150808685030160c0870152614ce38483614980565b935060c08701519150808685030160e0870152614d008483614980565b935060e08701519150610100818786030181880152614d1f8584614980565b945080880151925050610120818786030181880152614d3e8584614980565b945080880151925050610140818786030181880152614d5d8584614980565b945080880151925050610160828188015280880151925050610180818786030181880152614d8b8584614980565b9450808801519250506101a0818786030181880152614daa8584614980565b9450808801519250506101c0818786030181880152614dc98584614980565b908801518782039092018488015293509050614de58382614980565b9695505050505050565b60008060408385031215614e0257600080fd5b614e0b836149fa565b9150610e22602084016149fa565b600181811c90821680614e2d57607f821691505b60208210811415614e4e57634e487b7160e01b600052602260045260246000fd5b50919050565b634e487b7160e01b600052601160045260246000fd5b6000600019821415614e7e57614e7e614e54565b5060010190565b6001600160a01b0392831681529116602082015260400190565b600060208284031215614eb157600080fd5b815161207181614b85565b6000816000190483118215151615614ed657614ed6614e54565b500290565b634e487b7160e01b600052601260045260246000fd5b600082614f0057614f00614edb565b500490565b60008251614f17818460208701614954565b9190910192915050565b805164ffffffffff81168114614a1157600080fd5b600082601f830112614f4757600080fd5b8151614f556148e8826148a1565b818152846020838601011115614f6a57600080fd5b613f62826020830160208701614954565b805160ff81168114614a1157600080fd5b600080600080600080600060e0888a031215614fa757600080fd5b875163ffffffff81168114614fbb57600080fd5b9650614fc960208901614f21565b9550604088015167ffffffffffffffff80821115614fe657600080fd5b614ff28b838c01614f36565b965060608a015191508082111561500857600080fd5b6150148b838c01614f36565b955061502260808b01614f7b565b945061503060a08b01614f7b565b935060c08a015191508082111561504657600080fd5b506150538a828b01614f36565b91505092959891949750929550565b634e487b7160e01b600052602160045260246000fd5b634e487b7160e01b600052603260045260246000fd5b6000828210156150a0576150a0614e54565b500390565b600083516150b7818460208801614954565b8351908301906150cb818360208801614954565b01949350505050565b6020808252602e908201527f4552433732313a2063616c6c6572206973206e6f7420746f6b656e206f776e6560408201526d1c881b9bdc88185c1c1c9bdd995960921b606082015260800190565b6020808252602b908201527f496e697469616c697a61626c653a20636f6e7472616374206973206e6f74206960408201526a6e697469616c697a696e6760a81b606082015260800190565b60008261517c5761517c614edb565b500690565b6000821982111561519457615194614e54565b500190565b60208082526032908201527f4552433732313a207472616e7366657220746f206e6f6e20455243373231526560408201527131b2b4bb32b91034b6b83632b6b2b73a32b960711b606082015260800190565b6001600160a01b0385811682528416602082015260408101839052608060608201819052600090614de590830184614980565b60006020828403121561523057600080fd5b81516120718161482756fea264697066735822122095cb000c69cf126c2494e8412c0d066f13558d279f3295e25739e884e5c69d5b64736f6c634300080c0033",
  "linkReferences": {},
  "deployedLinkReferences": {}
}