{
  "_format": "hh-sol-artifact-1",
  "contractName": "GenerativeBoilerplateNFTConfiguration",
  "sourceName": "contracts/lib/configurations/GenerativeBoilerplateNFTConfiguration.sol",
  "abi": [
    {
      "inputs": [],
      "name": "CREATE_PROJECT_FEE",
      "outputs": [
        {
          "internalType": "string",
          "name": "",
          "type": "string"
        }
      ],
      "stateMutability": "view",
      "type": "function"
    },
    {
      "inputs": [],
      "name": "FEE_TOKEN",
      "outputs": [
        {
          "internalType": "string",
          "name": "",
          "type": "string"
        }
      ],
      "stateMutability": "view",
      "type": "function"
    },
    {
      "inputs": [],
      "name": "GENERATIVE_NFT_TEMPLATE",
      "outputs": [
        {
          "internalType": "string",
          "name": "",
          "type": "string"
        }
      ],
      "stateMutability": "view",
      "type": "function"
    },
    {
      "inputs": [],
      "name": "MINT_NFT_FEE",
      "outputs": [
        {
          "internalType": "string",
          "name": "",
          "type": "string"
        }
      ],
      "stateMutability": "view",
      "type": "function"
    },
    {
      "inputs": [],
      "name": "NFT_BASE_URI",
      "outputs": [
        {
          "internalType": "string",
          "name": "",
          "type": "string"
        }
      ],
      "stateMutability": "view",
      "type": "function"
    },
    {
      "inputs": [],
      "name": "SEPERATE_URI",
      "outputs": [
        {
          "internalType": "string",
          "name": "",
          "type": "string"
        }
      ],
      "stateMutability": "view",
      "type": "function"
    }
  ],
  "bytecode": "0x61021c61003a600b82828239805160001a60731461002d57634e487b7160e01b600052600060045260246000fd5b30600052607381538281f3fe730000000000000000000000000000000000000000301460806040526004361061006b5760003560e01c8062bd3894146100705780630c5136d1146100c257806373717b08146100e257806390f4806b1461010a578063da41f3381461013b578063f9fb223914610166575b600080fd5b6100ac6040518060400160405280601781526020017f47454e455241544956455f4e46545f54454d504c41544500000000000000000081525081565b6040516100b99190610191565b60405180910390f35b6100ac604051806040016040528060018152602001602f60f81b81525081565b6100ac604051806040016040528060098152602001682322a2afaa27a5a2a760b91b81525081565b6100ac604051806040016040528060128152602001714352454154455f50524f4a4543545f46454560701b81525081565b6100ac6040518060400160405280600c81526020016b4d494e545f4e46545f46454560a01b81525081565b6100ac6040518060400160405280600c81526020016b4e46545f424153455f55524960a01b81525081565b600060208083528351808285015260005b818110156101be578581018301518582016040015282016101a2565b818111156101d0576000604083870101525b50601f01601f191692909201604001939250505056fea264697066735822122067b17461db20fc860a979ce88db43ccdaa1f45f11eccd90620bc3ef1b42a110164736f6c634300080c0033",
  "linkReferences": {},
  "deployedLinkReferences": {}
}