{
  "_format": "hh-sol-artifact-1",
  "contractName": "GenerativeBoilerplateNFTConfiguration",
  "sourceName": "contracts/lib/configurations/GenerativeBoilerplateNFTConfiguration.sol",
  "abi": [
    {
      "inputs": [],
      "name": "CREATE_PROJECT_FEE",
      "outputs": [
        {
          "internalType": "string",
          "name": "",
          "type": "string"
        }
      ],
      "stateMutability": "view",
      "type": "function"
    },
    {
      "inputs": [],
      "name": "FEE_TOKEN",
      "outputs": [
        {
          "internalType": "string",
          "name": "",
          "type": "string"
        }
      ],
      "stateMutability": "view",
      "type": "function"
    },
    {
      "inputs": [],
      "name": "GENERATIVE_NFT_TEMPLATE",
      "outputs": [
        {
          "internalType": "string",
          "name": "",
          "type": "string"
        }
      ],
      "stateMutability": "view",
      "type": "function"
    },
    {
      "inputs": [],
      "name": "MINT_NFT_FEE",
      "outputs": [
        {
          "internalType": "string",
          "name": "",
          "type": "string"
        }
      ],
      "stateMutability": "view",
      "type": "function"
    }
  ],
  "bytecode": "0x6101bb61003a600b82828239805160001a60731461002d57634e487b7160e01b600052600060045260246000fd5b30600052607381538281f3fe73000000000000000000000000000000000000000030146080604052600436106100555760003560e01c8062bd38941461005a57806373717b08146100ac57806390f4806b146100d4578063da41f33814610105575b600080fd5b6100966040518060400160405280601781526020017f47454e455241544956455f4e46545f54454d504c41544500000000000000000081525081565b6040516100a39190610130565b60405180910390f35b610096604051806040016040528060098152602001682322a2afaa27a5a2a760b91b81525081565b610096604051806040016040528060128152602001714352454154455f50524f4a4543545f46454560701b81525081565b6100966040518060400160405280600c81526020016b4d494e545f4e46545f46454560a01b81525081565b600060208083528351808285015260005b8181101561015d57858101830151858201604001528201610141565b8181111561016f576000604083870101525b50601f01601f191692909201604001939250505056fea2646970667358221220101e1385ee45814128388a389cd2c95244089240a247260db8d23268b3cfa7dd64736f6c634300080c0033",
  "linkReferences": {},
  "deployedLinkReferences": {}
}