{
  "_format": "hh-sol-artifact-1",
  "contractName": "GenerativeBoilerplateNFTConfiguration",
  "sourceName": "contracts/lib/configurations/GenerativeBoilerplateNFTConfiguration.sol",
  "abi": [
    {
      "inputs": [],
      "name": "CREATE_PROJECT_FEE",
      "outputs": [
        {
          "internalType": "string",
          "name": "",
          "type": "string"
        }
      ],
      "stateMutability": "view",
      "type": "function"
    },
    {
      "inputs": [],
      "name": "FEE_TOKEN",
      "outputs": [
        {
          "internalType": "string",
          "name": "",
          "type": "string"
        }
      ],
      "stateMutability": "view",
      "type": "function"
    },
    {
      "inputs": [],
      "name": "GENERATIVE_NFT_TEMPLATE",
      "outputs": [
        {
          "internalType": "string",
          "name": "",
          "type": "string"
        }
      ],
      "stateMutability": "view",
      "type": "function"
    },
    {
      "inputs": [],
      "name": "GENERATIVE_NFT_TEMPLATE2",
      "outputs": [
        {
          "internalType": "string",
          "name": "",
          "type": "string"
        }
      ],
      "stateMutability": "view",
      "type": "function"
    },
    {
      "inputs": [],
      "name": "MINT_NFT_FEE",
      "outputs": [
        {
          "internalType": "string",
          "name": "",
          "type": "string"
        }
      ],
      "stateMutability": "view",
      "type": "function"
    },
    {
      "inputs": [],
      "name": "NFT_BASE_URI",
      "outputs": [
        {
          "internalType": "string",
          "name": "",
          "type": "string"
        }
      ],
      "stateMutability": "view",
      "type": "function"
    },
    {
      "inputs": [],
      "name": "SEPERATE_URI",
      "outputs": [
        {
          "internalType": "string",
          "name": "",
          "type": "string"
        }
      ],
      "stateMutability": "view",
      "type": "function"
    }
  ],
  "bytecode": "0x61027361003a600b82828239805160001a60731461002d57634e487b7160e01b600052600060045260246000fd5b30600052607381538281f3fe73000000000000000000000000000000000000000030146080604052600436106100865760003560e01c806373717b081161006557806373717b081461013957806390f4806b14610161578063da41f33814610192578063f9fb2239146101bd57600080fd5b8062bd38941461008b5780630c5136d1146100dd57806315d56965146100fd575b600080fd5b6100c76040518060400160405280601781526020017f47454e455241544956455f4e46545f54454d504c41544500000000000000000081525081565b6040516100d491906101e8565b60405180910390f35b6100c7604051806040016040528060018152602001602f60f81b81525081565b6100c76040518060400160405280601881526020017f47454e455241544956455f4e46545f54454d504c41544532000000000000000081525081565b6100c7604051806040016040528060098152602001682322a2afaa27a5a2a760b91b81525081565b6100c7604051806040016040528060128152602001714352454154455f50524f4a4543545f46454560701b81525081565b6100c76040518060400160405280600c81526020016b4d494e545f4e46545f46454560a01b81525081565b6100c76040518060400160405280600c81526020016b4e46545f424153455f55524960a01b81525081565b600060208083528351808285015260005b81811015610215578581018301518582016040015282016101f9565b81811115610227576000604083870101525b50601f01601f191692909201604001939250505056fea264697066735822122074419be22d80785b27c262046862625ac5eff5bcfe484ee4ae9917dd7d8973e564736f6c634300080c0033",
  "linkReferences": {},
  "deployedLinkReferences": {}
}