{
  "_format": "hh-sol-artifact-1",
  "contractName": "AVATARSOracle",
  "sourceName": "contracts/nft/AVATARSOracle.sol",
  "abi": [
    {
      "inputs": [
        {
          "internalType": "address",
          "name": "admin",
          "type": "address"
        },
        {
          "internalType": "address",
          "name": "be",
          "type": "address"
        },
        {
          "internalType": "address",
          "name": "LINK_TOKEN",
          "type": "address"
        },
        {
          "internalType": "address",
          "name": "ORACLE",
          "type": "address"
        }
      ],
      "stateMutability": "nonpayable",
      "type": "constructor"
    },
    {
      "anonymous": false,
      "inputs": [
        {
          "indexed": true,
          "internalType": "bytes32",
          "name": "id",
          "type": "bytes32"
        }
      ],
      "name": "ChainlinkCancelled",
      "type": "event"
    },
    {
      "anonymous": false,
      "inputs": [
        {
          "indexed": true,
          "internalType": "bytes32",
          "name": "id",
          "type": "bytes32"
        }
      ],
      "name": "ChainlinkFulfilled",
      "type": "event"
    },
    {
      "anonymous": false,
      "inputs": [
        {
          "indexed": true,
          "internalType": "bytes32",
          "name": "id",
          "type": "bytes32"
        }
      ],
      "name": "ChainlinkRequested",
      "type": "event"
    },
    {
      "anonymous": false,
      "inputs": [
        {
          "indexed": true,
          "internalType": "address",
          "name": "previousOwner",
          "type": "address"
        },
        {
          "indexed": true,
          "internalType": "address",
          "name": "newOwner",
          "type": "address"
        }
      ],
      "name": "OwnershipTransferred",
      "type": "event"
    },
    {
      "anonymous": false,
      "inputs": [
        {
          "indexed": true,
          "internalType": "bytes32",
          "name": "requestId",
          "type": "bytes32"
        },
        {
          "indexed": true,
          "internalType": "bytes[]",
          "name": "data",
          "type": "bytes[]"
        }
      ],
      "name": "RequestFulfilled",
      "type": "event"
    },
    {
      "anonymous": false,
      "inputs": [
        {
          "indexed": true,
          "internalType": "bytes32",
          "name": "requestId",
          "type": "bytes32"
        },
        {
          "indexed": true,
          "internalType": "bytes",
          "name": "data",
          "type": "bytes"
        }
      ],
      "name": "RequestFulfilledData",
      "type": "event"
    },
    {
      "inputs": [],
      "name": "_admin",
      "outputs": [
        {
          "internalType": "address",
          "name": "",
          "type": "address"
        }
      ],
      "stateMutability": "view",
      "type": "function"
    },
    {
      "inputs": [],
      "name": "_be",
      "outputs": [
        {
          "internalType": "address",
          "name": "",
          "type": "address"
        }
      ],
      "stateMutability": "view",
      "type": "function"
    },
    {
      "inputs": [],
      "name": "_callbackAddress",
      "outputs": [
        {
          "internalType": "address",
          "name": "",
          "type": "address"
        }
      ],
      "stateMutability": "view",
      "type": "function"
    },
    {
      "inputs": [],
      "name": "_getOracleAddress",
      "outputs": [
        {
          "internalType": "address",
          "name": "",
          "type": "address"
        }
      ],
      "stateMutability": "view",
      "type": "function"
    },
    {
      "inputs": [
        {
          "internalType": "bytes32",
          "name": "_requestId",
          "type": "bytes32"
        },
        {
          "internalType": "uint256",
          "name": "_payment",
          "type": "uint256"
        },
        {
          "internalType": "bytes4",
          "name": "_callbackFunctionId",
          "type": "bytes4"
        },
        {
          "internalType": "uint256",
          "name": "_expiration",
          "type": "uint256"
        }
      ],
      "name": "cancelRequest",
      "outputs": [],
      "stateMutability": "nonpayable",
      "type": "function"
    },
    {
      "inputs": [
        {
          "internalType": "address",
          "name": "newAdm",
          "type": "address"
        }
      ],
      "name": "changeAdmin",
      "outputs": [],
      "stateMutability": "nonpayable",
      "type": "function"
    },
    {
      "inputs": [
        {
          "internalType": "address",
          "name": "be",
          "type": "address"
        }
      ],
      "name": "changeBE",
      "outputs": [],
      "stateMutability": "nonpayable",
      "type": "function"
    },
    {
      "inputs": [
        {
          "internalType": "address",
          "name": "add",
          "type": "address"
        }
      ],
      "name": "changeCallbackAddress",
      "outputs": [],
      "stateMutability": "nonpayable",
      "type": "function"
    },
    {
      "inputs": [
        {
          "internalType": "address",
          "name": "oracle",
          "type": "address"
        }
      ],
      "name": "changeOracle",
      "outputs": [],
      "stateMutability": "nonpayable",
      "type": "function"
    },
    {
      "inputs": [
        {
          "internalType": "bytes32",
          "name": "requestId",
          "type": "bytes32"
        },
        {
          "internalType": "bytes",
          "name": "gameData",
          "type": "bytes"
        }
      ],
      "name": "fulfill",
      "outputs": [],
      "stateMutability": "nonpayable",
      "type": "function"
    },
    {
      "inputs": [
        {
          "internalType": "bytes32",
          "name": "requestId",
          "type": "bytes32"
        },
        {
          "internalType": "bytes[]",
          "name": "result",
          "type": "bytes[]"
        }
      ],
      "name": "fulfillSchedule",
      "outputs": [],
      "stateMutability": "nonpayable",
      "type": "function"
    },
    {
      "inputs": [
        {
          "internalType": "uint32",
          "name": "",
          "type": "uint32"
        }
      ],
      "name": "games",
      "outputs": [
        {
          "internalType": "uint32",
          "name": "gameId",
          "type": "uint32"
        },
        {
          "internalType": "uint40",
          "name": "startTime",
          "type": "uint40"
        },
        {
          "internalType": "string",
          "name": "homeTeam",
          "type": "string"
        },
        {
          "internalType": "string",
          "name": "awayTeam",
          "type": "string"
        },
        {
          "internalType": "uint8",
          "name": "homeScore",
          "type": "uint8"
        },
        {
          "internalType": "uint8",
          "name": "awayScore",
          "type": "uint8"
        },
        {
          "internalType": "string",
          "name": "status",
          "type": "string"
        }
      ],
      "stateMutability": "view",
      "type": "function"
    },
    {
      "inputs": [
        {
          "internalType": "bytes32",
          "name": "_requestId",
          "type": "bytes32"
        },
        {
          "internalType": "uint256",
          "name": "_idx",
          "type": "uint256"
        }
      ],
      "name": "getGameCreate",
      "outputs": [
        {
          "components": [
            {
              "internalType": "uint32",
              "name": "gameId",
              "type": "uint32"
            },
            {
              "internalType": "uint40",
              "name": "startTime",
              "type": "uint40"
            },
            {
              "internalType": "string",
              "name": "homeTeam",
              "type": "string"
            },
            {
              "internalType": "string",
              "name": "awayTeam",
              "type": "string"
            }
          ],
          "internalType": "struct AVATARSOracle.GameCreate",
          "name": "",
          "type": "tuple"
        }
      ],
      "stateMutability": "view",
      "type": "function"
    },
    {
      "inputs": [
        {
          "internalType": "bytes32",
          "name": "_requestId",
          "type": "bytes32"
        },
        {
          "internalType": "uint256",
          "name": "_idx",
          "type": "uint256"
        }
      ],
      "name": "getGameResolve",
      "outputs": [
        {
          "components": [
            {
              "internalType": "uint32",
              "name": "gameId",
              "type": "uint32"
            },
            {
              "internalType": "uint8",
              "name": "homeScore",
              "type": "uint8"
            },
            {
              "internalType": "uint8",
              "name": "awayScore",
              "type": "uint8"
            },
            {
              "internalType": "string",
              "name": "status",
              "type": "string"
            }
          ],
          "internalType": "struct AVATARSOracle.GameResolve",
          "name": "",
          "type": "tuple"
        }
      ],
      "stateMutability": "view",
      "type": "function"
    },
    {
      "inputs": [],
      "name": "owner",
      "outputs": [
        {
          "internalType": "address",
          "name": "",
          "type": "address"
        }
      ],
      "stateMutability": "view",
      "type": "function"
    },
    {
      "inputs": [],
      "name": "renounceOwnership",
      "outputs": [],
      "stateMutability": "nonpayable",
      "type": "function"
    },
    {
      "inputs": [
        {
          "internalType": "string",
          "name": "jobId",
          "type": "string"
        },
        {
          "internalType": "uint256",
          "name": "fee",
          "type": "uint256"
        },
        {
          "internalType": "string",
          "name": "url",
          "type": "string"
        },
        {
          "internalType": "string",
          "name": "path",
          "type": "string"
        }
      ],
      "name": "requestData",
      "outputs": [
        {
          "internalType": "bytes32",
          "name": "requestId",
          "type": "bytes32"
        }
      ],
      "stateMutability": "nonpayable",
      "type": "function"
    },
    {
      "inputs": [
        {
          "internalType": "bytes32",
          "name": "",
          "type": "bytes32"
        },
        {
          "internalType": "uint256",
          "name": "",
          "type": "uint256"
        }
      ],
      "name": "requestIdGames",
      "outputs": [
        {
          "internalType": "bytes",
          "name": "",
          "type": "bytes"
        }
      ],
      "stateMutability": "view",
      "type": "function"
    },
    {
      "inputs": [
        {
          "internalType": "bytes32",
          "name": "",
          "type": "bytes32"
        }
      ],
      "name": "requestIdGamesData",
      "outputs": [
        {
          "internalType": "bytes",
          "name": "",
          "type": "bytes"
        }
      ],
      "stateMutability": "view",
      "type": "function"
    },
    {
      "inputs": [
        {
          "internalType": "bytes32",
          "name": "_specId",
          "type": "bytes32"
        },
        {
          "internalType": "uint256",
          "name": "_payment",
          "type": "uint256"
        },
        {
          "internalType": "uint256",
          "name": "_market",
          "type": "uint256"
        },
        {
          "internalType": "uint256",
          "name": "_leagueId",
          "type": "uint256"
        },
        {
          "internalType": "uint256",
          "name": "_date",
          "type": "uint256"
        },
        {
          "internalType": "uint256[]",
          "name": "_gameIds",
          "type": "uint256[]"
        }
      ],
      "name": "requestSchedule",
      "outputs": [],
      "stateMutability": "nonpayable",
      "type": "function"
    },
    {
      "inputs": [
        {
          "internalType": "string",
          "name": "jobId",
          "type": "string"
        },
        {
          "internalType": "uint256",
          "name": "fee",
          "type": "uint256"
        },
        {
          "internalType": "uint256",
          "name": "market",
          "type": "uint256"
        },
        {
          "internalType": "uint256",
          "name": "leagueId",
          "type": "uint256"
        },
        {
          "internalType": "uint256",
          "name": "date",
          "type": "uint256"
        }
      ],
      "name": "requestSchedule",
      "outputs": [],
      "stateMutability": "nonpayable",
      "type": "function"
    },
    {
      "inputs": [
        {
          "internalType": "address",
          "name": "_oracle",
          "type": "address"
        }
      ],
      "name": "setOracle",
      "outputs": [],
      "stateMutability": "nonpayable",
      "type": "function"
    },
    {
      "inputs": [
        {
          "internalType": "bytes32",
          "name": "_requestId",
          "type": "bytes32"
        },
        {
          "internalType": "bytes[]",
          "name": "_games",
          "type": "bytes[]"
        }
      ],
      "name": "setRequestIdGames",
      "outputs": [],
      "stateMutability": "nonpayable",
      "type": "function"
    },
    {
      "inputs": [
        {
          "internalType": "address",
          "name": "newOwner",
          "type": "address"
        }
      ],
      "name": "transferOwnership",
      "outputs": [],
      "stateMutability": "nonpayable",
      "type": "function"
    },
    {
      "inputs": [],
      "name": "withdrawLink",
      "outputs": [],
      "stateMutability": "nonpayable",
      "type": "function"
    }
  ],
  "bytecode": "0x60806040523480156200001157600080fd5b506040516200319938038062003199833981016040819052620000349162000114565b60016000556200004433620000a5565b600880546001600160a01b038681166001600160a01b0319928316179092556009805486841690831617905560048054909116918416919091179055600580546001600160a01b0319166001600160a01b0383161790555050505062000171565b600180546001600160a01b038381166001600160a01b0319831681179093556040519116919082907f8be0079c531659141344cd1fd0a4f28419497f9722a3daafe3b4186f6b6457e090600090a35050565b80516001600160a01b03811681146200010f57600080fd5b919050565b600080600080608085870312156200012b57600080fd5b6200013685620000f7565b93506200014660208601620000f7565b92506200015660408601620000f7565b91506200016660608601620000f7565b905092959194509250565b61301880620001816000396000f3fe608060405234801561001057600080fd5b50600436106101735760003560e01c80638f283970116100de578063c646c7be11610097578063de00d10711610071578063de00d10714610331578063e3c046a714610351578063ec65d0f814610371578063f2fde38b1461038457600080fd5b8063c646c7be146102e5578063cc72c53b146102f8578063da5d2fac1461030b57600080fd5b80638f2839701461027e57806393d0707214610291578063a2943608146102a4578063a3ab06cf146102b7578063a9bbf3fd146102ca578063b075f532146102dd57600080fd5b80636d0257e2116101305780636d0257e214610224578063715018a6146102375780637adbf9731461023f5780637c1de7e1146102525780638da5cb5b146102655780638dc654a21461027657600080fd5b806301bc45c91461017857806303599a70146101a85780632a2fd7d7146101c9578063303a712f146101e957806347c421b5146101fe57806349687cca14610211575b600080fd5b60085461018b906001600160a01b031681565b6040516001600160a01b0390911681526020015b60405180910390f35b6101bb6101b636600461244e565b610397565b60405190815260200161019f565b6101dc6101d73660046124df565b610483565b60405161019f9190612550565b6101fc6101f7366004612563565b61051d565b005b6101fc61020c366004612631565b610541565b6101fc61021f366004612661565b610594565b60095461018b906001600160a01b031681565b6101fc610697565b6101fc61024d366004612631565b6106ab565b6101fc610260366004612706565b6106b4565b6001546001600160a01b031661018b565b6101fc61097a565b6101fc61028c366004612631565b610afa565b6101fc61029f366004612563565b610b93565b6101dc6102b236600461274c565b6110a6565b6101fc6102c5366004612631565b6110de565b6101fc6102d8366004612631565b611147565b61018b6111b0565b6101fc6102f336600461276e565b6111c9565b600a5461018b906001600160a01b031681565b61031e6103193660046127dc565b6112bc565b60405161019f97969594939291906127f9565b61034461033f36600461274c565b6114aa565b60405161019f919061286b565b61036461035f36600461274c565b6114fb565b60405161019f91906128b0565b6101fc61037f36600461290a565b611543565b6101fc610392366004612631565b61154f565b6008546000906001600160a01b03163314806103bd57506009546001600160a01b031633145b6040518060400160405280600381526020016231303160e81b815250906104005760405162461bcd60e51b81526004016103f79190612550565b60405180910390fd5b50600061041d61040f876115c5565b30637c1de7e160e01b6115e2565b60408051808201909152600381526219d95d60ea1b602082015290915061044690829086611607565b6040805180820190915260048152630e0c2e8d60e31b602082015261046d90829085611607565b6104778186611625565b9150505b949350505050565b600c602052600090815260409020805461049c90612956565b80601f01602080910402602001604051908101604052809291908181526020018280546104c890612956565b80156105155780601f106104ea57610100808354040283529160200191610515565b820191906000526020600020905b8154815290600101906020018083116104f857829003601f168201915b505050505081565b6000828152600b60209081526040909120825161053c92840190612207565b505050565b60085460408051808201909152600381526231303160e81b6020820152906001600160a01b031633146105875760405162461bcd60e51b81526004016103f79190612550565b506105918161163f565b50565b60006105a7886349e8383960e11b611661565b6040805180820190915260068152651b585c9ad95d60d21b60208201529091506105d39082908861167d565b6040805180820190915260088152671b195859dd59525960c21b60208201526105fe9082908761167d565b6040805180820190915260048152636461746560e01b60208201526106259082908661167d565b610682816040518060400160405280600781526020016667616d6549647360c81b81525085858080602002602001604051908101604052809392919081815260200183836020028082843760009201919091525061169b92505050565b61068c818861170c565b505050505050505050565b61069f611726565b6106a96000611780565b565b6105918161163f565b60008281526007602052604090205482906001600160a01b031633146106ec5760405162461bcd60e51b81526004016103f79061298b565b60008181526007602052604080822080546001600160a01b03191690555182917f7cc135e0cebb02c3480ae5d74d377283180a2601f8f644edf7987b009316c63a91a28160405161073d91906129d3565b6040519081900381209084907fc6ef1c5f8f954d0251e9620ce4908018f1c31f432eb9b44fd9efb2ca569453f190600090a36000838152600c60209081526040909120835161078e92850190612264565b506000806000806000806000888060200190518101906107ae9190612a4a565b96509650965096509650965096506040518060e001604052808863ffffffff1681526020018764ffffffffff1681526020018681526020018581526020018460ff1681526020018360ff16815260200182815250600d60008963ffffffff1663ffffffff16815260200190815260200160002060008201518160000160006101000a81548163ffffffff021916908363ffffffff16021790555060208201518160000160046101000a81548164ffffffffff021916908364ffffffffff160217905550604082015181600101908051906020019061088d929190612264565b50606082015180516108a9916002840191602090910190612264565b50608082015160038201805460a085015160ff9081166101000261ffff1990921693169290921791909117905560c082015180516108f1916004840191602090910190612264565b5050600a546001600160a01b031615905061096e57600a54604051637c1de7e160e01b81526001600160a01b03909116908190637c1de7e19061093a908e908e90600401612b24565b600060405180830381600087803b15801561095457600080fd5b505af1158015610968573d6000803e3d6000fd5b50505050505b50505050505050505050565b60085460408051808201909152600381526231303160e81b6020820152906001600160a01b031633146109c05760405162461bcd60e51b81526004016103f79190612550565b5060006109d56004546001600160a01b031690565b6040516370a0823160e01b81523060048201529091506001600160a01b0382169063a9059cbb90339083906370a0823190602401602060405180830381865afa158015610a26573d6000803e3d6000fd5b505050506040513d601f19601f82011682018060405250810190610a4a9190612b3d565b6040516001600160e01b031960e085901b1681526001600160a01b03909216600483015260248201526044016020604051808303816000875af1158015610a95573d6000803e3d6000fd5b505050506040513d601f19601f82011682018060405250810190610ab99190612b56565b6105915760405162461bcd60e51b81526020600482015260126024820152712ab730b13632903a37903a3930b739b332b960711b60448201526064016103f7565b6008546001600160a01b031633148015610b1c57506001600160a01b03811615155b8015610b3657506008546001600160a01b03828116911614155b6040518060400160405280600381526020016231303160e81b81525090610b705760405162461bcd60e51b81526004016103f79190612550565b50600880546001600160a01b0319166001600160a01b0392909216919091179055565b60008281526007602052604090205482906001600160a01b03163314610bcb5760405162461bcd60e51b81526004016103f79061298b565b60008181526007602052604080822080546001600160a01b03191690555182917f7cc135e0cebb02c3480ae5d74d377283180a2601f8f644edf7987b009316c63a91a281604051610c1c9190612b78565b6040519081900381209084907ff5b641a355461fb962e21752d6243c31a8312268065ab21efde58f7a3df8848a90600090a36000838152600b602090815260409091208351610c6d92850190612207565b506000610c976000600485600081518110610c8a57610c8a612bc4565b60200260200101516117d2565b610ca090612bda565b60e01c6000818152600d6020526040902054909150640100000000900464ffffffffff16610ea1576000848152600b602052604081208054610d8391908390610ceb57610ceb612bc4565b906000526020600020018054610d0090612956565b80601f0160208091040260200160405190810160405280929190818152602001828054610d2c90612956565b8015610d795780601f10610d4e57610100808354040283529160200191610d79565b820191906000526020600020905b815481529060010190602001808311610d5c57829003601f168201915b50505050506118a0565b6040805160e081018252825163ffffffff908116825260208085015164ffffffffff908116828501908152858701518587019081526060808901519087015260006080870181905260a087018190528751808601895281815260c08801528a86168152600d8552969096208551815492519093166401000000000268ffffffffffffffffff1990921692909416919091171782559251805194955091939092610e33926001850192910190612264565b5060608201518051610e4f916002840191602090910190612264565b50608082015160038201805460a085015160ff9081166101000261ffff1990921693169290921791909117905560c08201518051610e97916004840191602090910190612264565b50905050506110a0565b6000848152600b602052604081208054610f5c91908390610ec457610ec4612bc4565b906000526020600020018054610ed990612956565b80601f0160208091040260200160405190810160405280929190818152602001828054610f0590612956565b8015610f525780601f10610f2757610100808354040283529160200191610f52565b820191906000526020600020905b815481529060010190602001808311610f3557829003601f168201915b5050505050611983565b60208082015163ffffffff85166000908152600d83526040908190206003810180549286015160ff9081166101000261ffff199094169416939093179190911790915560608301518051939450610fba936004909201920190612264565b50600a546001600160a01b03161561109e57600a5463ffffffff8381166000908152600d60209081526040918290208054600382015493516001600160a01b03909616958695637c1de7e1958d956110449592851694640100000000900464ffffffffff16936001840193600281019360ff80821694610100909204169260049092019101612cb1565b6040516020818303038152906040526040518363ffffffff1660e01b8152600401611070929190612b24565b600060405180830381600087803b15801561108a57600080fd5b505af115801561096e573d6000803e3d6000fd5b505b50505050565b600b60205281600052604060002081815481106110c257600080fd5b9060005260206000200160009150915050805461049c90612956565b60085460408051808201909152600381526231303160e81b6020820152906001600160a01b031633146111245760405162461bcd60e51b81526004016103f79190612550565b50600980546001600160a01b0319166001600160a01b0392909216919091179055565b60085460408051808201909152600381526231303160e81b6020820152906001600160a01b0316331461118d5760405162461bcd60e51b81526004016103f79190612550565b50600a80546001600160a01b0319166001600160a01b0392909216919091179055565b60006111c46005546001600160a01b031690565b905090565b60085460408051808201909152600381526231303160e81b6020820152906001600160a01b0316331461120f5760405162461bcd60e51b81526004016103f79190612550565b50600061122b61121e876115c5565b6349e8383960e11b611661565b6040805180820190915260068152651b585c9ad95d60d21b60208201529091506112579082908661167d565b6040805180820190915260088152671b195859dd59525960c21b60208201526112829082908561167d565b6040805180820190915260048152636461746560e01b60208201526112a99082908461167d565b6112b3818661170c565b50505050505050565b600d602052600090815260409020805460018201805463ffffffff83169364010000000090930464ffffffffff169291906112f690612956565b80601f016020809104026020016040519081016040528092919081815260200182805461132290612956565b801561136f5780601f106113445761010080835404028352916020019161136f565b820191906000526020600020905b81548152906001019060200180831161135257829003601f168201915b50505050509080600201805461138490612956565b80601f01602080910402602001604051908101604052809291908181526020018280546113b090612956565b80156113fd5780601f106113d2576101008083540402835291602001916113fd565b820191906000526020600020905b8154815290600101906020018083116113e057829003601f168201915b505050506003830154600484018054939460ff808416956101009094041693509161142790612956565b80601f016020809104026020016040519081016040528092919081815260200182805461145390612956565b80156114a05780601f10611475576101008083540402835291602001916114a0565b820191906000526020600020905b81548152906001019060200180831161148357829003601f168201915b5050505050905087565b60408051608081018252600080825260208201819052918101919091526060808201526000838152600b6020526040902080546114f2919084908110610ec457610ec4612bc4565b90505b92915050565b60408051608081018252600080825260208201526060918101829052818101919091526000838152600b6020526040902080546114f2919084908110610ceb57610ceb612bc4565b6110a084848484611a4e565b611557611726565b6001600160a01b0381166115bc5760405162461bcd60e51b815260206004820152602660248201527f4f776e61626c653a206e6577206f776e657220697320746865207a65726f206160448201526564647265737360d01b60648201526084016103f7565b61059181611780565b805160009082906115d95750600092915050565b50506020015190565b6115ea6122e4565b6115f26122e4565b6115fe81868686611b15565b95945050505050565b60808301516116169083611b52565b608083015161053c9082611b52565b6005546000906114f2906001600160a01b03168484611b69565b600580546001600160a01b0319166001600160a01b0392909216919091179055565b6116696122e4565b6116716122e4565b61047b81853086611b15565b608083015161168c9083611b52565b608083015161053c9082611bfc565b608083015183906116ac9084611b52565b6116b98160800151611c25565b815160005b818110156116fe576116f68482815181106116db576116db612bc4565b60200260200101518460800151611bfc90919063ffffffff16565b6001016116be565b5061109e8260800151611c30565b6005546000906114f2906001600160a01b03168484611c3b565b6001546001600160a01b031633146106a95760405162461bcd60e51b815260206004820181905260248201527f4f776e61626c653a2063616c6c6572206973206e6f7420746865206f776e657260448201526064016103f7565b600180546001600160a01b038381166001600160a01b0319831681179093556040519116919082907f8be0079c531659141344cd1fd0a4f28419497f9722a3daafe3b4186f6b6457e090600090a35050565b606060006117e08585612d2b565b6001600160401b038111156117f7576117f761238b565b6040519080825280601f01601f191660200182016040528015611821576020820181803683370190505b50905060005b6118318686612d2b565b81101561189757836118438288612d42565b8151811061185357611853612bc4565b602001015160f81c60f81b82828151811061187057611870612bc4565b60200101906001600160f81b031916908160001a90535061189081612d5a565b9050611827565b50949350505050565b604080516080810182526000808252602082015260609181018290528181019190915260006118d260006004856117d2565b6118db90612bda565b60e01c905060006118ef60046009866117d2565b6118f890612d75565b60d81c905060008460098151811061191257611912612bc4565b016020015160f81c9050600061192982600a612da8565b60ff169050600061193c600a83896117d2565b9050600061194c8389518a6117d2565b6040805160808101825263ffffffff909816885264ffffffffff909616602088015294860191909152505050606082015292915050565b60408051608081018252600080825260208201819052918101829052606080820152906119b2816004856117d2565b6119bb90612bda565b60e01c90506000836004815181106119d5576119d5612bc4565b602001015160f81c60f81b60f81c90506000846005815181106119fa576119fa612bc4565b602001015160f81c60f81b60f81c90506000611a1960068751886117d2565b6040805160808101825263ffffffff909616865260ff9485166020870152929093169184019190915250606082015292915050565b60008481526007602052604080822080546001600160a01b0319811690915590516001600160a01b039091169186917fe1fe3afa0f7f761ff0a8b89086790efd5140d2907ebd5b7ff6bfcb5e075fd4c59190a2604051636ee4d55360e01b815260048101869052602481018590526001600160e01b031984166044820152606481018390526001600160a01b03821690636ee4d55390608401600060405180830381600087803b158015611b0157600080fd5b505af115801561068c573d6000803e3d6000fd5b611b1d6122e4565b611b2d8560800151610100611c82565b50509183526001600160a01b031660208301526001600160e01b031916604082015290565b611b5f8260038351611ce7565b61053c8282611dee565b600654600090611b7a816001612d42565b600655835160408086015160808701515191516000936320214ca360e11b93611bb29386938493923092918a91600191602401612dcd565b60408051601f198184030181529190526020810180516001600160e01b03166001600160e01b0319909316929092179091529050611bf286838684611e15565b9695505050505050565b6001600160401b03811115611c1957611c158282611f72565b5050565b611c1582600083611ce7565b610591816004611fa9565b610591816007611fa9565b600654600090611c4c816001612d42565b60065583516040808601516080870151519151600093633c6d41b960e01b93611bb2938693849392899160029190602401612e35565b604080518082019091526060815260006020820152611ca2602083612e8a565b15611cca57611cb2602083612e8a565b611cbd906020612d2b565b611cc79083612d42565b91505b506020828101829052604080518085526000815290920101905290565b6017816001600160401b031611611d0b576110a08360e0600585901b168317611fba565b60ff816001600160401b031611611d4757611d31836018611fe0600586901b1617611fba565b506110a0836001600160401b0383166001611fdf565b61ffff816001600160401b031611611d8457611d6e836019611fe0600586901b1617611fba565b506110a0836001600160401b0383166002611fdf565b63ffffffff816001600160401b031611611dc357611dad83601a611fe0600586901b1617611fba565b506110a0836001600160401b0383166004611fdf565b611dd883601b611fe0600586901b1617611fba565b506110a0836001600160401b0383166008611fdf565b6040805180820190915260608152600060208201526114f283846000015151848551612005565b6040516bffffffffffffffffffffffff193060601b1660208201526034810184905260009060540160408051808303601f1901815282825280516020918201206000818152600790925291812080546001600160a01b0319166001600160a01b038a1617905590925082917fb5e6e01e79f91267dc17b4e6314d5d4d03593d2ceee0fbb452b750bd70ea5af99190a260048054604051630200057560e51b81526001600160a01b0390911691634000aea091611ed79189918891889101612eac565b6020604051808303816000875af1158015611ef6573d6000803e3d6000fd5b505050506040513d601f19601f82011682018060405250810190611f1a9190612b56565b61047b5760405162461bcd60e51b815260206004820152602360248201527f756e61626c6520746f207472616e73666572416e6443616c6c20746f206f7261604482015262636c6560e81b60648201526084016103f7565b611f7d8260c2611fba565b50611c158282604051602001611f9591815260200190565b6040516020818303038152906040526120ef565b61053c82601f611fe0600585901b16175b6040805180820190915260608152600060208201526114f283846000015151846120fc565b60408051808201909152606081526000602082015261047b848560000151518585612158565b604080518082019091526060815260006020820152825182111561202857600080fd5b60208501516120378386612d42565b111561206a5761206a8561205a876020015187866120559190612d42565b6121d9565b612065906002612ed3565b6121f0565b6000808651805187602083010193508088870111156120895787860182525b505050602084015b602084106120c957805182526120a8602083612d42565b91506120b5602082612d42565b90506120c2602085612d2b565b9350612091565b51815160001960208690036101000a019081169019919091161790525083949350505050565b611b5f8260028351611ce7565b604080518082019091526060815260006020820152836020015183106121315761213184856020015160026120659190612ed3565b83518051602085830101848153508085141561214e576001810182525b5093949350505050565b604080518082019091526060815260006020820152602085015161217c8584612d42565b1115612190576121908561205a8685612d42565b600060016121a084610100612fd6565b6121aa9190612d2b565b90508551838682010185831982511617815250805184870111156121ce5783860181525b509495945050505050565b6000818311156121ea5750816114f5565b50919050565b81516121fc8383611c82565b506110a08382611dee565b828054828255906000526020600020908101928215612254579160200282015b828111156122545782518051612244918491602090910190612264565b5091602001919060010190612227565b5061226092915061231f565b5090565b82805461227090612956565b90600052602060002090601f01602090048101928261229257600085556122d8565b82601f106122ab57805160ff19168380011785556122d8565b828001600101855582156122d8579182015b828111156122d85782518255916020019190600101906122bd565b5061226092915061233c565b6040805160a0810182526000808252602080830182905282840182905260608084018390528451808601909552845283015290608082015290565b808211156122605760006123338282612351565b5060010161231f565b5b80821115612260576000815560010161233d565b50805461235d90612956565b6000825580601f1061236d575050565b601f016020900490600052602060002090810190610591919061233c565b634e487b7160e01b600052604160045260246000fd5b604051601f8201601f191681016001600160401b03811182821017156123c9576123c961238b565b604052919050565b60006001600160401b038211156123ea576123ea61238b565b50601f01601f191660200190565b600082601f83011261240957600080fd5b813561241c612417826123d1565b6123a1565b81815284602083860101111561243157600080fd5b816020850160208301376000918101602001919091529392505050565b6000806000806080858703121561246457600080fd5b84356001600160401b038082111561247b57600080fd5b612487888389016123f8565b95506020870135945060408701359150808211156124a457600080fd5b6124b0888389016123f8565b935060608701359150808211156124c657600080fd5b506124d3878288016123f8565b91505092959194509250565b6000602082840312156124f157600080fd5b5035919050565b60005b838110156125135781810151838201526020016124fb565b838111156110a05750506000910152565b6000815180845261253c8160208601602086016124f8565b601f01601f19169290920160200192915050565b6020815260006114f26020830184612524565b6000806040838503121561257657600080fd5b823591506020808401356001600160401b038082111561259557600080fd5b818601915086601f8301126125a957600080fd5b8135818111156125bb576125bb61238b565b8060051b6125ca8582016123a1565b918252838101850191858101908a8411156125e457600080fd5b86860192505b83831015612620578235858111156126025760008081fd5b6126108c89838a01016123f8565b83525091860191908601906125ea565b809750505050505050509250929050565b60006020828403121561264357600080fd5b81356001600160a01b038116811461265a57600080fd5b9392505050565b600080600080600080600060c0888a03121561267c57600080fd5b873596506020880135955060408801359450606088013593506080880135925060a08801356001600160401b03808211156126b657600080fd5b818a0191508a601f8301126126ca57600080fd5b8135818111156126d957600080fd5b8b60208260051b85010111156126ee57600080fd5b60208301945080935050505092959891949750929550565b6000806040838503121561271957600080fd5b8235915060208301356001600160401b0381111561273657600080fd5b612742858286016123f8565b9150509250929050565b6000806040838503121561275f57600080fd5b50508035926020909101359150565b600080600080600060a0868803121561278657600080fd5b85356001600160401b0381111561279c57600080fd5b6127a8888289016123f8565b9860208801359850604088013597606081013597506080013595509350505050565b63ffffffff8116811461059157600080fd5b6000602082840312156127ee57600080fd5b813561265a816127ca565b63ffffffff8816815264ffffffffff8716602082015260e06040820152600061282560e0830188612524565b82810360608401526128378188612524565b905060ff8616608084015260ff851660a084015282810360c084015261285d8185612524565b9a9950505050505050505050565b6020815263ffffffff825116602082015260ff602083015116604082015260ff60408301511660608201526000606083015160808084015261047b60a0840182612524565b6020815263ffffffff825116602082015264ffffffffff602083015116604082015260006040830151608060608401526128ed60a0840182612524565b90506060840151601f198483030160808501526115fe8282612524565b6000806000806080858703121561292057600080fd5b843593506020850135925060408501356001600160e01b03198116811461294657600080fd5b9396929550929360600135925050565b600181811c9082168061296a57607f821691505b602082108114156121ea57634e487b7160e01b600052602260045260246000fd5b60208082526028908201527f536f75726365206d75737420626520746865206f7261636c65206f6620746865604082015267081c995c5d595cdd60c21b606082015260800190565b600082516129e58184602087016124f8565b9190910192915050565b600082601f830112612a0057600080fd5b8151612a0e612417826123d1565b818152846020838601011115612a2357600080fd5b61047b8260208301602087016124f8565b805160ff81168114612a4557600080fd5b919050565b600080600080600080600060e0888a031215612a6557600080fd5b8751612a70816127ca565b602089015190975064ffffffffff81168114612a8b57600080fd5b60408901519096506001600160401b0380821115612aa857600080fd5b612ab48b838c016129ef565b965060608a0151915080821115612aca57600080fd5b612ad68b838c016129ef565b9550612ae460808b01612a34565b9450612af260a08b01612a34565b935060c08a0151915080821115612b0857600080fd5b50612b158a828b016129ef565b91505092959891949750929550565b82815260406020820152600061047b6040830184612524565b600060208284031215612b4f57600080fd5b5051919050565b600060208284031215612b6857600080fd5b8151801515811461265a57600080fd5b815160009082906020808601845b83811015612bb85781518051612b9f81888785016124f8565b601f01601f191695909501945090820190600101612b86565b50929695505050505050565b634e487b7160e01b600052603260045260246000fd5b805160208201516001600160e01b03198082169291906004831015612c095780818460040360031b1b83161693505b505050919050565b8054600090600181811c9080831680612c2b57607f831692505b6020808410821415612c4d57634e487b7160e01b600052602260045260246000fd5b83885260208801828015612c685760018114612c7957612ca4565b60ff19871682528282019750612ca4565b60008981526020902060005b87811015612c9e57815484820152908601908401612c85565b83019850505b5050505050505092915050565b63ffffffff8816815264ffffffffff8716602082015260e060408201526000612cdd60e0830188612c11565b8281036060840152612cef8188612c11565b905060ff8616608084015260ff851660a084015282810360c084015261285d8185612c11565b634e487b7160e01b600052601160045260246000fd5b600082821015612d3d57612d3d612d15565b500390565b60008219821115612d5557612d55612d15565b500190565b6000600019821415612d6e57612d6e612d15565b5060010190565b805160208201516001600160d81b03198082169291906005831015612c095760059290920360031b82901b161692915050565b600060ff821660ff84168060ff03821115612dc557612dc5612d15565b019392505050565b6001600160a01b0389811682526020820189905260408201889052861660608201526001600160e01b03198516608082015260a0810184905260c0810183905261010060e08201819052600090612e2683820185612524565b9b9a5050505050505050505050565b60018060a01b038816815286602082015285604082015263ffffffff60e01b851660608201528360808201528260a082015260e060c08201526000612e7d60e0830184612524565b9998505050505050505050565b600082612ea757634e487b7160e01b600052601260045260246000fd5b500690565b60018060a01b03841681528260208201526060604082015260006115fe6060830184612524565b6000816000190483118215151615612eed57612eed612d15565b500290565b600181815b80851115612f2d578160001904821115612f1357612f13612d15565b80851615612f2057918102915b93841c9390800290612ef7565b509250929050565b600082612f44575060016114f5565b81612f51575060006114f5565b8160018114612f675760028114612f7157612f8d565b60019150506114f5565b60ff841115612f8257612f82612d15565b50506001821b6114f5565b5060208310610133831016604e8410600b8410161715612fb0575081810a6114f5565b612fba8383612ef2565b8060001904821115612fce57612fce612d15565b029392505050565b60006114f28383612f3556fea264697066735822122000ec4188d8c47b4f4ce6f23eb07a4869e7403e65c7eb45739f97df2dedddbbd564736f6c634300080c0033",
  "linkReferences": {},
  "deployedLinkReferences": {}
}