{
  "_format": "hh-sol-artifact-1",
  "contractName": "GenerativeBoilerplateNFT",
  "sourceName": "contracts/nft/GenerativeBoilerplateNFT.sol",
  "abi": [
    {
      "anonymous": false,
      "inputs": [
        {
          "indexed": true,
          "internalType": "address",
          "name": "owner",
          "type": "address"
        },
        {
          "indexed": true,
          "internalType": "address",
          "name": "approved",
          "type": "address"
        },
        {
          "indexed": true,
          "internalType": "uint256",
          "name": "tokenId",
          "type": "uint256"
        }
      ],
      "name": "Approval",
      "type": "event"
    },
    {
      "anonymous": false,
      "inputs": [
        {
          "indexed": true,
          "internalType": "address",
          "name": "owner",
          "type": "address"
        },
        {
          "indexed": true,
          "internalType": "address",
          "name": "operator",
          "type": "address"
        },
        {
          "indexed": false,
          "internalType": "bool",
          "name": "approved",
          "type": "bool"
        }
      ],
      "name": "ApprovalForAll",
      "type": "event"
    },
    {
      "anonymous": false,
      "inputs": [
        {
          "indexed": false,
          "internalType": "address",
          "name": "sender",
          "type": "address"
        },
        {
          "indexed": false,
          "internalType": "uint256",
          "name": "projectId",
          "type": "uint256"
        },
        {
          "indexed": false,
          "internalType": "bytes32[]",
          "name": "seeds",
          "type": "bytes32[]"
        }
      ],
      "name": "GenerateSeeds",
      "type": "event"
    },
    {
      "anonymous": false,
      "inputs": [
        {
          "indexed": false,
          "internalType": "uint8",
          "name": "version",
          "type": "uint8"
        }
      ],
      "name": "Initialized",
      "type": "event"
    },
    {
      "anonymous": false,
      "inputs": [
        {
          "indexed": false,
          "internalType": "address",
          "name": "sender",
          "type": "address"
        },
        {
          "components": [
            {
              "internalType": "uint256",
              "name": "_fromProjectId",
              "type": "uint256"
            },
            {
              "internalType": "address",
              "name": "_mintTo",
              "type": "address"
            },
            {
              "internalType": "string[]",
              "name": "_uriBatch",
              "type": "string[]"
            },
            {
              "components": [
                {
                  "internalType": "bytes32",
                  "name": "_seed",
                  "type": "bytes32"
                },
                {
                  "components": [
                    {
                      "internalType": "uint8",
                      "name": "_typeValue",
                      "type": "uint8"
                    },
                    {
                      "internalType": "uint256",
                      "name": "_max",
                      "type": "uint256"
                    },
                    {
                      "internalType": "uint256",
                      "name": "_min",
                      "type": "uint256"
                    },
                    {
                      "internalType": "uint8",
                      "name": "_decimal",
                      "type": "uint8"
                    },
                    {
                      "internalType": "string[]",
                      "name": "_availableValues",
                      "type": "string[]"
                    },
                    {
                      "internalType": "uint256",
                      "name": "_value",
                      "type": "uint256"
                    },
                    {
                      "internalType": "bool",
                      "name": "_editable",
                      "type": "bool"
                    }
                  ],
                  "internalType": "struct BoilerplateParam.ParamTemplate[]",
                  "name": "_params",
                  "type": "tuple[]"
                }
              ],
              "internalType": "struct BoilerplateParam.ParamsOfProject[]",
              "name": "_paramsBatch",
              "type": "tuple[]"
            }
          ],
          "indexed": false,
          "internalType": "struct IGenerativeBoilerplateNFT.MintRequest",
          "name": "request",
          "type": "tuple"
        }
      ],
      "name": "MintBatchNFT",
      "type": "event"
    },
    {
      "anonymous": false,
      "inputs": [
        {
          "indexed": false,
          "internalType": "address",
          "name": "account",
          "type": "address"
        }
      ],
      "name": "Paused",
      "type": "event"
    },
    {
      "anonymous": false,
      "inputs": [
        {
          "indexed": true,
          "internalType": "bytes32",
          "name": "role",
          "type": "bytes32"
        },
        {
          "indexed": true,
          "internalType": "bytes32",
          "name": "previousAdminRole",
          "type": "bytes32"
        },
        {
          "indexed": true,
          "internalType": "bytes32",
          "name": "newAdminRole",
          "type": "bytes32"
        }
      ],
      "name": "RoleAdminChanged",
      "type": "event"
    },
    {
      "anonymous": false,
      "inputs": [
        {
          "indexed": true,
          "internalType": "bytes32",
          "name": "role",
          "type": "bytes32"
        },
        {
          "indexed": true,
          "internalType": "address",
          "name": "account",
          "type": "address"
        },
        {
          "indexed": true,
          "internalType": "address",
          "name": "sender",
          "type": "address"
        }
      ],
      "name": "RoleGranted",
      "type": "event"
    },
    {
      "anonymous": false,
      "inputs": [
        {
          "indexed": true,
          "internalType": "bytes32",
          "name": "role",
          "type": "bytes32"
        },
        {
          "indexed": true,
          "internalType": "address",
          "name": "account",
          "type": "address"
        },
        {
          "indexed": true,
          "internalType": "address",
          "name": "sender",
          "type": "address"
        }
      ],
      "name": "RoleRevoked",
      "type": "event"
    },
    {
      "anonymous": false,
      "inputs": [
        {
          "indexed": true,
          "internalType": "address",
          "name": "from",
          "type": "address"
        },
        {
          "indexed": true,
          "internalType": "address",
          "name": "to",
          "type": "address"
        },
        {
          "indexed": true,
          "internalType": "uint256",
          "name": "tokenId",
          "type": "uint256"
        }
      ],
      "name": "Transfer",
      "type": "event"
    },
    {
      "anonymous": false,
      "inputs": [
        {
          "indexed": false,
          "internalType": "address",
          "name": "account",
          "type": "address"
        }
      ],
      "name": "Unpaused",
      "type": "event"
    },
    {
      "inputs": [],
      "name": "DEFAULT_ADMIN_ROLE",
      "outputs": [
        {
          "internalType": "bytes32",
          "name": "",
          "type": "bytes32"
        }
      ],
      "stateMutability": "view",
      "type": "function"
    },
    {
      "inputs": [],
      "name": "MINTER_ROLE",
      "outputs": [
        {
          "internalType": "bytes32",
          "name": "",
          "type": "bytes32"
        }
      ],
      "stateMutability": "view",
      "type": "function"
    },
    {
      "inputs": [],
      "name": "PAUSER_ROLE",
      "outputs": [
        {
          "internalType": "bytes32",
          "name": "",
          "type": "bytes32"
        }
      ],
      "stateMutability": "view",
      "type": "function"
    },
    {
      "inputs": [],
      "name": "_admin",
      "outputs": [
        {
          "internalType": "address",
          "name": "",
          "type": "address"
        }
      ],
      "stateMutability": "view",
      "type": "function"
    },
    {
      "inputs": [
        {
          "internalType": "address",
          "name": "",
          "type": "address"
        },
        {
          "internalType": "address",
          "name": "",
          "type": "address"
        }
      ],
      "name": "_approvalForAllSeeds",
      "outputs": [
        {
          "internalType": "uint256",
          "name": "",
          "type": "uint256"
        }
      ],
      "stateMutability": "view",
      "type": "function"
    },
    {
      "inputs": [],
      "name": "_paramsAddress",
      "outputs": [
        {
          "internalType": "address",
          "name": "",
          "type": "address"
        }
      ],
      "stateMutability": "view",
      "type": "function"
    },
    {
      "inputs": [
        {
          "internalType": "uint256",
          "name": "",
          "type": "uint256"
        }
      ],
      "name": "_projects",
      "outputs": [
        {
          "internalType": "uint256",
          "name": "_fee",
          "type": "uint256"
        },
        {
          "internalType": "address",
          "name": "_feeToken",
          "type": "address"
        },
        {
          "internalType": "uint256",
          "name": "_mintMaxSupply",
          "type": "uint256"
        },
        {
          "internalType": "uint256",
          "name": "_mintTotalSupply",
          "type": "uint256"
        },
        {
          "internalType": "string",
          "name": "_script",
          "type": "string"
        },
        {
          "internalType": "uint32",
          "name": "_scriptType",
          "type": "uint32"
        },
        {
          "internalType": "address",
          "name": "_creator",
          "type": "address"
        },
        {
          "internalType": "string",
          "name": "_customUri",
          "type": "string"
        },
        {
          "internalType": "string",
          "name": "_projectName",
          "type": "string"
        },
        {
          "internalType": "bool",
          "name": "_clientSeed",
          "type": "bool"
        },
        {
          "components": [
            {
              "internalType": "bytes32",
              "name": "_seed",
              "type": "bytes32"
            },
            {
              "components": [
                {
                  "internalType": "uint8",
                  "name": "_typeValue",
                  "type": "uint8"
                },
                {
                  "internalType": "uint256",
                  "name": "_max",
                  "type": "uint256"
                },
                {
                  "internalType": "uint256",
                  "name": "_min",
                  "type": "uint256"
                },
                {
                  "internalType": "uint8",
                  "name": "_decimal",
                  "type": "uint8"
                },
                {
                  "internalType": "string[]",
                  "name": "_availableValues",
                  "type": "string[]"
                },
                {
                  "internalType": "uint256",
                  "name": "_value",
                  "type": "uint256"
                },
                {
                  "internalType": "bool",
                  "name": "_editable",
                  "type": "bool"
                }
              ],
              "internalType": "struct BoilerplateParam.ParamTemplate[]",
              "name": "_params",
              "type": "tuple[]"
            }
          ],
          "internalType": "struct BoilerplateParam.ParamsOfProject",
          "name": "_paramsTemplate",
          "type": "tuple"
        },
        {
          "internalType": "address",
          "name": "_minterNFTInfo",
          "type": "address"
        }
      ],
      "stateMutability": "view",
      "type": "function"
    },
    {
      "inputs": [
        {
          "internalType": "address",
          "name": "to",
          "type": "address"
        },
        {
          "internalType": "uint256",
          "name": "tokenId",
          "type": "uint256"
        }
      ],
      "name": "approve",
      "outputs": [],
      "stateMutability": "nonpayable",
      "type": "function"
    },
    {
      "inputs": [
        {
          "internalType": "address",
          "name": "operator",
          "type": "address"
        },
        {
          "internalType": "uint256",
          "name": "projectId",
          "type": "uint256"
        }
      ],
      "name": "approveForAllSeeds",
      "outputs": [],
      "stateMutability": "nonpayable",
      "type": "function"
    },
    {
      "inputs": [
        {
          "internalType": "address",
          "name": "owner",
          "type": "address"
        }
      ],
      "name": "balanceOf",
      "outputs": [
        {
          "internalType": "uint256",
          "name": "",
          "type": "uint256"
        }
      ],
      "stateMutability": "view",
      "type": "function"
    },
    {
      "inputs": [],
      "name": "baseTokenURI",
      "outputs": [
        {
          "internalType": "string",
          "name": "",
          "type": "string"
        }
      ],
      "stateMutability": "view",
      "type": "function"
    },
    {
      "inputs": [
        {
          "internalType": "uint256",
          "name": "tokenId",
          "type": "uint256"
        }
      ],
      "name": "burn",
      "outputs": [],
      "stateMutability": "nonpayable",
      "type": "function"
    },
    {
      "inputs": [
        {
          "internalType": "address",
          "name": "newAdm",
          "type": "address"
        }
      ],
      "name": "changeAdmin",
      "outputs": [],
      "stateMutability": "nonpayable",
      "type": "function"
    },
    {
      "inputs": [
        {
          "internalType": "uint256",
          "name": "_id",
          "type": "uint256"
        }
      ],
      "name": "exists",
      "outputs": [
        {
          "internalType": "bool",
          "name": "",
          "type": "bool"
        }
      ],
      "stateMutability": "view",
      "type": "function"
    },
    {
      "inputs": [
        {
          "internalType": "uint256",
          "name": "projectId",
          "type": "uint256"
        },
        {
          "internalType": "uint256",
          "name": "amount",
          "type": "uint256"
        }
      ],
      "name": "generateSeeds",
      "outputs": [],
      "stateMutability": "nonpayable",
      "type": "function"
    },
    {
      "inputs": [
        {
          "internalType": "uint256",
          "name": "tokenId",
          "type": "uint256"
        }
      ],
      "name": "getApproved",
      "outputs": [
        {
          "internalType": "address",
          "name": "",
          "type": "address"
        }
      ],
      "stateMutability": "view",
      "type": "function"
    },
    {
      "inputs": [
        {
          "internalType": "bytes32",
          "name": "role",
          "type": "bytes32"
        }
      ],
      "name": "getRoleAdmin",
      "outputs": [
        {
          "internalType": "bytes32",
          "name": "",
          "type": "bytes32"
        }
      ],
      "stateMutability": "view",
      "type": "function"
    },
    {
      "inputs": [
        {
          "internalType": "bytes32",
          "name": "role",
          "type": "bytes32"
        },
        {
          "internalType": "uint256",
          "name": "index",
          "type": "uint256"
        }
      ],
      "name": "getRoleMember",
      "outputs": [
        {
          "internalType": "address",
          "name": "",
          "type": "address"
        }
      ],
      "stateMutability": "view",
      "type": "function"
    },
    {
      "inputs": [
        {
          "internalType": "bytes32",
          "name": "role",
          "type": "bytes32"
        }
      ],
      "name": "getRoleMemberCount",
      "outputs": [
        {
          "internalType": "uint256",
          "name": "",
          "type": "uint256"
        }
      ],
      "stateMutability": "view",
      "type": "function"
    },
    {
      "inputs": [
        {
          "internalType": "bytes32",
          "name": "role",
          "type": "bytes32"
        },
        {
          "internalType": "address",
          "name": "account",
          "type": "address"
        }
      ],
      "name": "grantRole",
      "outputs": [],
      "stateMutability": "nonpayable",
      "type": "function"
    },
    {
      "inputs": [
        {
          "internalType": "bytes32",
          "name": "role",
          "type": "bytes32"
        },
        {
          "internalType": "address",
          "name": "account",
          "type": "address"
        }
      ],
      "name": "hasRole",
      "outputs": [
        {
          "internalType": "bool",
          "name": "",
          "type": "bool"
        }
      ],
      "stateMutability": "view",
      "type": "function"
    },
    {
      "inputs": [
        {
          "internalType": "string",
          "name": "name",
          "type": "string"
        },
        {
          "internalType": "string",
          "name": "symbol",
          "type": "string"
        },
        {
          "internalType": "string",
          "name": "baseTokenURI",
          "type": "string"
        }
      ],
      "name": "initialize",
      "outputs": [],
      "stateMutability": "nonpayable",
      "type": "function"
    },
    {
      "inputs": [
        {
          "internalType": "string",
          "name": "name",
          "type": "string"
        },
        {
          "internalType": "string",
          "name": "symbol",
          "type": "string"
        },
        {
          "internalType": "string",
          "name": "baseUri",
          "type": "string"
        },
        {
          "internalType": "address",
          "name": "admin",
          "type": "address"
        },
        {
          "internalType": "address",
          "name": "paramsAddress",
          "type": "address"
        }
      ],
      "name": "initialize",
      "outputs": [],
      "stateMutability": "nonpayable",
      "type": "function"
    },
    {
      "inputs": [
        {
          "internalType": "address",
          "name": "owner",
          "type": "address"
        },
        {
          "internalType": "address",
          "name": "operator",
          "type": "address"
        }
      ],
      "name": "isApprovedForAll",
      "outputs": [
        {
          "internalType": "bool",
          "name": "",
          "type": "bool"
        }
      ],
      "stateMutability": "view",
      "type": "function"
    },
    {
      "inputs": [
        {
          "internalType": "address",
          "name": "operator",
          "type": "address"
        },
        {
          "internalType": "bytes32",
          "name": "seed",
          "type": "bytes32"
        },
        {
          "internalType": "uint256",
          "name": "projectId",
          "type": "uint256"
        }
      ],
      "name": "isApprovedOrOwnerForSeed",
      "outputs": [
        {
          "internalType": "bool",
          "name": "",
          "type": "bool"
        }
      ],
      "stateMutability": "view",
      "type": "function"
    },
    {
      "inputs": [
        {
          "internalType": "address",
          "name": "to",
          "type": "address"
        }
      ],
      "name": "mint",
      "outputs": [],
      "stateMutability": "nonpayable",
      "type": "function"
    },
    {
      "inputs": [
        {
          "components": [
            {
              "internalType": "uint256",
              "name": "_fromProjectId",
              "type": "uint256"
            },
            {
              "internalType": "address",
              "name": "_mintTo",
              "type": "address"
            },
            {
              "internalType": "string[]",
              "name": "_uriBatch",
              "type": "string[]"
            },
            {
              "components": [
                {
                  "internalType": "bytes32",
                  "name": "_seed",
                  "type": "bytes32"
                },
                {
                  "components": [
                    {
                      "internalType": "uint8",
                      "name": "_typeValue",
                      "type": "uint8"
                    },
                    {
                      "internalType": "uint256",
                      "name": "_max",
                      "type": "uint256"
                    },
                    {
                      "internalType": "uint256",
                      "name": "_min",
                      "type": "uint256"
                    },
                    {
                      "internalType": "uint8",
                      "name": "_decimal",
                      "type": "uint8"
                    },
                    {
                      "internalType": "string[]",
                      "name": "_availableValues",
                      "type": "string[]"
                    },
                    {
                      "internalType": "uint256",
                      "name": "_value",
                      "type": "uint256"
                    },
                    {
                      "internalType": "bool",
                      "name": "_editable",
                      "type": "bool"
                    }
                  ],
                  "internalType": "struct BoilerplateParam.ParamTemplate[]",
                  "name": "_params",
                  "type": "tuple[]"
                }
              ],
              "internalType": "struct BoilerplateParam.ParamsOfProject[]",
              "name": "_paramsBatch",
              "type": "tuple[]"
            }
          ],
          "internalType": "struct IGenerativeBoilerplateNFT.MintRequest",
          "name": "mintBatch",
          "type": "tuple"
        }
      ],
      "name": "mintBatchUniqueNFT",
      "outputs": [],
      "stateMutability": "payable",
      "type": "function"
    },
    {
      "inputs": [
        {
          "internalType": "uint256",
          "name": "_tokenID",
          "type": "uint256"
        }
      ],
      "name": "mintMaxSupply",
      "outputs": [
        {
          "internalType": "uint256",
          "name": "",
          "type": "uint256"
        }
      ],
      "stateMutability": "view",
      "type": "function"
    },
    {
      "inputs": [
        {
          "internalType": "address",
          "name": "to",
          "type": "address"
        },
        {
          "internalType": "string",
          "name": "projectName",
          "type": "string"
        },
        {
          "internalType": "uint256",
          "name": "maxSupply",
          "type": "uint256"
        },
        {
          "internalType": "string",
          "name": "script",
          "type": "string"
        },
        {
          "internalType": "uint32",
          "name": "scriptType",
          "type": "uint32"
        },
        {
          "internalType": "bool",
          "name": "clientSeed",
          "type": "bool"
        },
        {
          "internalType": "string",
          "name": "uri",
          "type": "string"
        },
        {
          "internalType": "uint256",
          "name": "fee",
          "type": "uint256"
        },
        {
          "internalType": "address",
          "name": "feeAdd",
          "type": "address"
        },
        {
          "components": [
            {
              "internalType": "bytes32",
              "name": "_seed",
              "type": "bytes32"
            },
            {
              "components": [
                {
                  "internalType": "uint8",
                  "name": "_typeValue",
                  "type": "uint8"
                },
                {
                  "internalType": "uint256",
                  "name": "_max",
                  "type": "uint256"
                },
                {
                  "internalType": "uint256",
                  "name": "_min",
                  "type": "uint256"
                },
                {
                  "internalType": "uint8",
                  "name": "_decimal",
                  "type": "uint8"
                },
                {
                  "internalType": "string[]",
                  "name": "_availableValues",
                  "type": "string[]"
                },
                {
                  "internalType": "uint256",
                  "name": "_value",
                  "type": "uint256"
                },
                {
                  "internalType": "bool",
                  "name": "_editable",
                  "type": "bool"
                }
              ],
              "internalType": "struct BoilerplateParam.ParamTemplate[]",
              "name": "_params",
              "type": "tuple[]"
            }
          ],
          "internalType": "struct BoilerplateParam.ParamsOfProject",
          "name": "paramsTemplate",
          "type": "tuple"
        }
      ],
      "name": "mintProject",
      "outputs": [
        {
          "internalType": "uint256",
          "name": "",
          "type": "uint256"
        }
      ],
      "stateMutability": "payable",
      "type": "function"
    },
    {
      "inputs": [
        {
          "internalType": "uint256",
          "name": "_tokenID",
          "type": "uint256"
        }
      ],
      "name": "mintTotalSupply",
      "outputs": [
        {
          "internalType": "uint256",
          "name": "",
          "type": "uint256"
        }
      ],
      "stateMutability": "view",
      "type": "function"
    },
    {
      "inputs": [],
      "name": "name",
      "outputs": [
        {
          "internalType": "string",
          "name": "",
          "type": "string"
        }
      ],
      "stateMutability": "view",
      "type": "function"
    },
    {
      "inputs": [
        {
          "internalType": "uint256",
          "name": "tokenId",
          "type": "uint256"
        }
      ],
      "name": "ownerOf",
      "outputs": [
        {
          "internalType": "address",
          "name": "",
          "type": "address"
        }
      ],
      "stateMutability": "view",
      "type": "function"
    },
    {
      "inputs": [
        {
          "internalType": "bytes32",
          "name": "seed",
          "type": "bytes32"
        },
        {
          "internalType": "uint256",
          "name": "projectId",
          "type": "uint256"
        }
      ],
      "name": "ownerOfSeed",
      "outputs": [
        {
          "internalType": "address",
          "name": "",
          "type": "address"
        }
      ],
      "stateMutability": "view",
      "type": "function"
    },
    {
      "inputs": [],
      "name": "pause",
      "outputs": [],
      "stateMutability": "nonpayable",
      "type": "function"
    },
    {
      "inputs": [],
      "name": "paused",
      "outputs": [
        {
          "internalType": "bool",
          "name": "",
          "type": "bool"
        }
      ],
      "stateMutability": "view",
      "type": "function"
    },
    {
      "inputs": [
        {
          "internalType": "uint256",
          "name": "projectId",
          "type": "uint256"
        },
        {
          "internalType": "bytes32[]",
          "name": "seeds",
          "type": "bytes32[]"
        }
      ],
      "name": "registerSeeds",
      "outputs": [],
      "stateMutability": "nonpayable",
      "type": "function"
    },
    {
      "inputs": [
        {
          "internalType": "bytes32",
          "name": "role",
          "type": "bytes32"
        },
        {
          "internalType": "address",
          "name": "account",
          "type": "address"
        }
      ],
      "name": "renounceRole",
      "outputs": [],
      "stateMutability": "nonpayable",
      "type": "function"
    },
    {
      "inputs": [
        {
          "internalType": "bytes32",
          "name": "role",
          "type": "bytes32"
        },
        {
          "internalType": "address",
          "name": "account",
          "type": "address"
        }
      ],
      "name": "revokeRole",
      "outputs": [],
      "stateMutability": "nonpayable",
      "type": "function"
    },
    {
      "inputs": [
        {
          "internalType": "uint256",
          "name": "",
          "type": "uint256"
        }
      ],
      "name": "royalties",
      "outputs": [
        {
          "internalType": "address",
          "name": "recipient",
          "type": "address"
        },
        {
          "internalType": "uint24",
          "name": "amount",
          "type": "uint24"
        },
        {
          "internalType": "bool",
          "name": "isValue",
          "type": "bool"
        }
      ],
      "stateMutability": "view",
      "type": "function"
    },
    {
      "inputs": [
        {
          "internalType": "uint256",
          "name": "_tokenId",
          "type": "uint256"
        },
        {
          "internalType": "uint256",
          "name": "_salePrice",
          "type": "uint256"
        }
      ],
      "name": "royaltyInfo",
      "outputs": [
        {
          "internalType": "address",
          "name": "receiver",
          "type": "address"
        },
        {
          "internalType": "uint256",
          "name": "royaltyAmount",
          "type": "uint256"
        }
      ],
      "stateMutability": "view",
      "type": "function"
    },
    {
      "inputs": [
        {
          "internalType": "address",
          "name": "from",
          "type": "address"
        },
        {
          "internalType": "address",
          "name": "to",
          "type": "address"
        },
        {
          "internalType": "uint256",
          "name": "tokenId",
          "type": "uint256"
        }
      ],
      "name": "safeTransferFrom",
      "outputs": [],
      "stateMutability": "nonpayable",
      "type": "function"
    },
    {
      "inputs": [
        {
          "internalType": "address",
          "name": "from",
          "type": "address"
        },
        {
          "internalType": "address",
          "name": "to",
          "type": "address"
        },
        {
          "internalType": "uint256",
          "name": "tokenId",
          "type": "uint256"
        },
        {
          "internalType": "bytes",
          "name": "data",
          "type": "bytes"
        }
      ],
      "name": "safeTransferFrom",
      "outputs": [],
      "stateMutability": "nonpayable",
      "type": "function"
    },
    {
      "inputs": [
        {
          "internalType": "address",
          "name": "operator",
          "type": "address"
        },
        {
          "internalType": "bool",
          "name": "approved",
          "type": "bool"
        }
      ],
      "name": "setApprovalForAll",
      "outputs": [],
      "stateMutability": "nonpayable",
      "type": "function"
    },
    {
      "inputs": [
        {
          "internalType": "address",
          "name": "_to",
          "type": "address"
        },
        {
          "internalType": "uint256[]",
          "name": "_ids",
          "type": "uint256[]"
        }
      ],
      "name": "setCreator",
      "outputs": [],
      "stateMutability": "nonpayable",
      "type": "function"
    },
    {
      "inputs": [
        {
          "internalType": "uint256",
          "name": "_id",
          "type": "uint256"
        },
        {
          "internalType": "string",
          "name": "_newURI",
          "type": "string"
        }
      ],
      "name": "setCustomURI",
      "outputs": [],
      "stateMutability": "nonpayable",
      "type": "function"
    },
    {
      "inputs": [
        {
          "internalType": "uint256",
          "name": "_tokenId",
          "type": "uint256"
        },
        {
          "internalType": "address",
          "name": "_recipient",
          "type": "address"
        },
        {
          "internalType": "uint256",
          "name": "_value",
          "type": "uint256"
        }
      ],
      "name": "setTokenRoyalty",
      "outputs": [],
      "stateMutability": "nonpayable",
      "type": "function"
    },
    {
      "inputs": [
        {
          "internalType": "bytes4",
          "name": "interfaceId",
          "type": "bytes4"
        }
      ],
      "name": "supportsInterface",
      "outputs": [
        {
          "internalType": "bool",
          "name": "",
          "type": "bool"
        }
      ],
      "stateMutability": "view",
      "type": "function"
    },
    {
      "inputs": [],
      "name": "symbol",
      "outputs": [
        {
          "internalType": "string",
          "name": "",
          "type": "string"
        }
      ],
      "stateMutability": "view",
      "type": "function"
    },
    {
      "inputs": [
        {
          "internalType": "uint256",
          "name": "index",
          "type": "uint256"
        }
      ],
      "name": "tokenByIndex",
      "outputs": [
        {
          "internalType": "uint256",
          "name": "",
          "type": "uint256"
        }
      ],
      "stateMutability": "view",
      "type": "function"
    },
    {
      "inputs": [
        {
          "internalType": "address",
          "name": "owner",
          "type": "address"
        },
        {
          "internalType": "uint256",
          "name": "index",
          "type": "uint256"
        }
      ],
      "name": "tokenOfOwnerByIndex",
      "outputs": [
        {
          "internalType": "uint256",
          "name": "",
          "type": "uint256"
        }
      ],
      "stateMutability": "view",
      "type": "function"
    },
    {
      "inputs": [
        {
          "internalType": "uint256",
          "name": "_tokenId",
          "type": "uint256"
        }
      ],
      "name": "tokenURI",
      "outputs": [
        {
          "internalType": "string",
          "name": "",
          "type": "string"
        }
      ],
      "stateMutability": "view",
      "type": "function"
    },
    {
      "inputs": [],
      "name": "totalSupply",
      "outputs": [
        {
          "internalType": "uint256",
          "name": "",
          "type": "uint256"
        }
      ],
      "stateMutability": "view",
      "type": "function"
    },
    {
      "inputs": [
        {
          "internalType": "address",
          "name": "from",
          "type": "address"
        },
        {
          "internalType": "address",
          "name": "to",
          "type": "address"
        },
        {
          "internalType": "uint256",
          "name": "tokenId",
          "type": "uint256"
        }
      ],
      "name": "transferFrom",
      "outputs": [],
      "stateMutability": "nonpayable",
      "type": "function"
    },
    {
      "inputs": [
        {
          "internalType": "address",
          "name": "from",
          "type": "address"
        },
        {
          "internalType": "address",
          "name": "to",
          "type": "address"
        },
        {
          "internalType": "bytes32",
          "name": "seed",
          "type": "bytes32"
        },
        {
          "internalType": "uint256",
          "name": "projectId",
          "type": "uint256"
        }
      ],
      "name": "transferSeed",
      "outputs": [],
      "stateMutability": "nonpayable",
      "type": "function"
    },
    {
      "inputs": [],
      "name": "unpause",
      "outputs": [],
      "stateMutability": "nonpayable",
      "type": "function"
    },
    {
      "inputs": [
        {
          "internalType": "address",
          "name": "receiver",
          "type": "address"
        },
        {
          "internalType": "address",
          "name": "erc20Addr",
          "type": "address"
        },
        {
          "internalType": "uint256",
          "name": "amount",
          "type": "uint256"
        }
      ],
      "name": "withdraw",
      "outputs": [],
      "stateMutability": "nonpayable",
      "type": "function"
    }
  ],
  "bytecode": "0x608060405234801561001057600080fd5b50615fb980620000216000396000f3fe60806040526004361061036b5760003560e01c80636a627842116101c6578063a6487c53116100f7578063d539139311610095578063d6d0faee1161006f578063d6d0faee14610ac3578063d9caed1214610ae3578063e63ab1e914610b03578063e985e9c514610b3757600080fd5b8063d539139314610a5a578063d547741f14610a8e578063d547cfb714610aae57600080fd5b8063b88d4fde116100d1578063b88d4fde146109da578063c87b56dd146109fa578063ca15c87314610a1a578063d2a6b51a14610a3a57600080fd5b8063a6487c5314610979578063adfc7dae14610999578063b0f4cf93146109ba57600080fd5b80638f2839701161016457806395d89b411161013e57806395d89b411461090f5780639713c80714610924578063a217fddf14610944578063a22cb4651461095957600080fd5b80638f283970146108af5780639010d07c146108cf57806391d14854146108ef57600080fd5b8063716013fe116101a0578063716013fe146107e95780637f77f574146107fc578063821f9dc9146108775780638456cb591461061e57600080fd5b80636a6278421461078e5780636e4d0fe6146107a957806370a08231146107c957600080fd5b806336568abe116102a0578063463981391161023e5780635c975abb116102185780635c975abb146106fc5780636006e9ef1461071557806362fe4e4a146107285780636352211e1461076e57600080fd5b8063463981391461069c5780634f558e79146106bc5780634f6ccce7146106dc57600080fd5b80633f4ba83a1161027a5780633f4ba83a1461061e5780633fbdb0c21461062d57806342842e0e1461065e57806342966c681461067e57600080fd5b806336568abe146105a557806336bd9e63146105c55780633adf80b4146105fe57600080fd5b806318160ddd1161030d578063248a9ca3116102e7578063248a9ca3146104f65780632a55205a146105265780632f2ff15d146105655780632f745c591461058557600080fd5b806318160ddd146104a1578063189c168d146104b657806323b872dd146104d657600080fd5b806306fdde031161034957806306fdde031461041d578063081812fc1461043f578063095ea7b31461045f5780631697eccf1461048157600080fd5b806301bc45c91461037057806301ffc9a7146103ae578063030595d7146103de575b600080fd5b34801561037c57600080fd5b5061022754610391906001600160a01b031681565b6040516001600160a01b0390911681526020015b60405180910390f35b3480156103ba57600080fd5b506103ce6103c9366004614777565b610b80565b60405190151581526020016103a5565b3480156103ea57600080fd5b5061040f6103f9366004614794565b600090815261022a602052604090206002015490565b6040519081526020016103a5565b34801561042957600080fd5b50610432610b91565b6040516103a59190614805565b34801561044b57600080fd5b5061039161045a366004614794565b610c23565b34801561046b57600080fd5b5061047f61047a366004614838565b610c4a565b005b34801561048d57600080fd5b5061039161049c366004614864565b610d65565b3480156104ad57600080fd5b5061040f610da1565b3480156104c257600080fd5b5061047f6104d136600461495b565b610db2565b3480156104e257600080fd5b5061047f6104f13660046149fc565b610ec0565b34801561050257600080fd5b5061040f610511366004614794565b60009081526065602052604090206001015490565b34801561053257600080fd5b50610546610541366004614864565b610ef1565b604080516001600160a01b0390931683526020830191909152016103a5565b34801561057157600080fd5b5061047f610580366004614a3d565b610fbf565b34801561059157600080fd5b5061040f6105a0366004614838565b610fe4565b3480156105b157600080fd5b5061047f6105c0366004614a3d565b61107a565b3480156105d157600080fd5b5061040f6105e0366004614a6d565b61022c60209081526000928352604080842090915290825290205481565b34801561060a57600080fd5b5061047f610619366004614b12565b6110f8565b34801561062a57600080fd5b50005b34801561063957600080fd5b5061040f610648366004614794565b600090815261022a602052604090206003015490565b34801561066a57600080fd5b5061047f6106793660046149fc565b61117f565b34801561068a57600080fd5b5061047f610699366004614794565b50565b3480156106a857600080fd5b5061047f6106b7366004614864565b61119a565b3480156106c857600080fd5b506103ce6106d7366004614794565b6112f7565b3480156106e857600080fd5b5061040f6106f7366004614794565b611302565b34801561070857600080fd5b5061015f5460ff166103ce565b61047f610723366004614c0b565b611395565b34801561073457600080fd5b5061047f610743366004614838565b33600090815261022c602090815260408083206001600160a01b039590951683529390529190912055565b34801561077a57600080fd5b50610391610789366004614794565b611e73565b34801561079a57600080fd5b5061047f610699366004614ece565b3480156107b557600080fd5b5061047f6107c4366004614eeb565b611ed3565b3480156107d557600080fd5b5061040f6107e4366004614ece565b611f81565b61040f6107f7366004614f5d565b612007565b34801561080857600080fd5b5061084c610817366004614794565b61022e602052600090815260409020546001600160a01b03811690600160a01b810462ffffff1690600160b81b900460ff1683565b604080516001600160a01b03909416845262ffffff90921660208401521515908201526060016103a5565b34801561088357600080fd5b50610897610892366004614794565b6125f8565b6040516103a59c9b9a99989796959493929190615175565b3480156108bb57600080fd5b5061047f6108ca366004614ece565b6129ae565b3480156108db57600080fd5b506103916108ea366004614864565b612a80565b3480156108fb57600080fd5b506103ce61090a366004614a3d565b612a98565b34801561091b57600080fd5b50610432612ac3565b34801561093057600080fd5b5061047f61093f366004615235565b612ad2565b34801561095057600080fd5b5061040f600081565b34801561096557600080fd5b5061047f61097436600461525c565b612c23565b34801561098557600080fd5b5061047f61099436600461528a565b612c2e565b3480156109a557600080fd5b5061022854610391906001600160a01b031681565b3480156109c657600080fd5b506103ce6109d5366004615311565b612cfa565b3480156109e657600080fd5b5061047f6109f5366004615346565b612d6b565b348015610a0657600080fd5b50610432610a15366004614794565b612d9d565b348015610a2657600080fd5b5061040f610a35366004614794565b612ea6565b348015610a4657600080fd5b5061047f610a553660046153c5565b612ebd565b348015610a6657600080fd5b5061040f7f9f2df0fed2c77648de5860a4cc508cd0818c85b8b8a1ab4ceeef8d981c8956a681565b348015610a9a57600080fd5b5061047f610aa9366004614a3d565b612f40565b348015610aba57600080fd5b50610432612f65565b348015610acf57600080fd5b5061047f610ade3660046153ff565b612f6f565b348015610aef57600080fd5b5061047f610afe3660046149fc565b61310c565b348015610b0f57600080fd5b5061040f7f65d7a28e3265b37a6474929f336521b332c1681b933f6cb9f3376673440d862a81565b348015610b4357600080fd5b506103ce610b52366004614a6d565b6001600160a01b03918216600090815260ce6020908152604080832093909416825291909152205460ff1690565b6000610b8b826132dc565b92915050565b606060c98054610ba0906154ae565b80601f0160208091040260200160405190810160405280929190818152602001828054610bcc906154ae565b8015610c195780601f10610bee57610100808354040283529160200191610c19565b820191906000526020600020905b815481529060010190602001808311610bfc57829003601f168201915b5050505050905090565b6000610c2e82613301565b50600090815260cd60205260409020546001600160a01b031690565b6000610c5582611e73565b9050806001600160a01b0316836001600160a01b03161415610cc85760405162461bcd60e51b815260206004820152602160248201527f4552433732313a20617070726f76616c20746f2063757272656e74206f776e656044820152603960f91b60648201526084015b60405180910390fd5b336001600160a01b0382161480610ce45750610ce48133610b52565b610d565760405162461bcd60e51b815260206004820152603e60248201527f4552433732313a20617070726f76652063616c6c6572206973206e6f7420746f60448201527f6b656e206f776e6572206e6f7220617070726f76656420666f7220616c6c00006064820152608401610cbf565b610d608383613351565b505050565b600082815261022b602090815260408083208484529091528120546001600160a01b031680610d9a578360601c915050610b8b565b9392505050565b6000610dad6102295490565b905090565b600082815261022a602052604090206008015460ff168015610dd85750610dd8826133bf565b610de157600080fd5b60005b8151811015610d605760006001600160a01b031661022b6000848481518110610e0f57610e0f6154e3565b602090810291909101810151825281810192909252604090810160009081208782529092529020546001600160a01b031614610e4a57600080fd5b3361022b6000848481518110610e6257610e626154e3565b60200260200101518152602001908152602001600020600085815260200190815260200160002060006101000a8154816001600160a01b0302191690836001600160a01b031602179055508080610eb89061550f565b915050610de4565b610eca33826133dc565b610ee65760405162461bcd60e51b8152600401610cbf9061552a565b610d6083838361345b565b600082815261022e60209081526040808320815160608101835290546001600160a01b0381168252600160a01b810462ffffff1693820193909352600160b81b90920460ff1615801591830191909152829190610f76578051602082015190935061271090610f659062ffffff1686615578565b610f6f91906155ad565b9150610fb7565b600085815261022a6020526040902060050154600160201b90046001600160a01b03169250612710610faa856101f4615578565b610fb491906155ad565b91505b509250929050565b600082815260656020526040902060010154610fda81613602565b610d60838361360c565b6000610fef83611f81565b82106110515760405162461bcd60e51b815260206004820152602b60248201527f455243373231456e756d657261626c653a206f776e657220696e646578206f7560448201526a74206f6620626f756e647360a81b6064820152608401610cbf565b506001600160a01b0391909116600090815260fb60209081526040808320938352929052205490565b6001600160a01b03811633146110ea5760405162461bcd60e51b815260206004820152602f60248201527f416363657373436f6e74726f6c3a2063616e206f6e6c792072656e6f756e636560448201526e103937b632b9903337b91039b2b63360891b6064820152608401610cbf565b6110f4828261362e565b5050565b600082815261022a6020908152604091829020600501548251808401909352600383526218981960e91b91830191909152600160201b90046001600160a01b031633146111585760405162461bcd60e51b8152600401610cbf9190614805565b50600082815261022a602090815260409091208251610d60926006909201918401906146c8565b610d6083838360405180602001604052806000815250612d6b565b600082815261022a602052604090206008015460ff161580156111c157506111c1826133bf565b6111ca57600080fd5b600080826001600160401b038111156111e5576111e5614886565b60405190808252806020026020018201604052801561120e578160200160208202803683370190505b50905060005b838110156112b557611227338683613650565b600081815261022b602090815260408083208984529091529020549093506001600160a01b03161561125857600080fd5b600083815261022b60209081526040808320888452909152902080546001600160a01b0319163317905581518390839083908110611298576112986154e3565b6020908102919091010152806112ad8161550f565b915050611214565b507feac055ed8b84f6ed7b96c917e1a500965c90467998c41630ebabcc5bc99b306b3385836040516112e9939291906155c1565b60405180910390a150505050565b6000610b8b826133bf565b600061130d60fd5490565b82106113705760405162461bcd60e51b815260206004820152602c60248201527f455243373231456e756d657261626c653a20676c6f62616c20696e646578206f60448201526b7574206f6620626f756e647360a01b6064820152608401610cbf565b60fd8281548110611383576113836154e3565b90600052602060002001549050919050565b60026101f55414156113b95760405162461bcd60e51b8152600401610cbf9061561e565b60026101f58190558151600090815261022a602090815260408083208151610180810183528154815260018201546001600160a01b03169381019390935293840154908201526003830154606082015260048301805492939192608084019190611422906154ae565b80601f016020809104026020016040519081016040528092919081815260200182805461144e906154ae565b801561149b5780601f106114705761010080835404028352916020019161149b565b820191906000526020600020905b81548152906001019060200180831161147e57829003601f168201915b5050509183525050600582015463ffffffff81166020830152600160201b90046001600160a01b031660408201526006820180546060909201916114de906154ae565b80601f016020809104026020016040519081016040528092919081815260200182805461150a906154ae565b80156115575780601f1061152c57610100808354040283529160200191611557565b820191906000526020600020905b81548152906001019060200180831161153a57829003601f168201915b50505050508152602001600782018054611570906154ae565b80601f016020809104026020016040519081016040528092919081815260200182805461159c906154ae565b80156115e95780601f106115be576101008083540402835291602001916115e9565b820191906000526020600020905b8154815290600101906020018083116115cc57829003601f168201915b5050509183525050600882015460ff1615156020808301919091526040805180820182526009850180548252600a86018054845181870281018701865281815294909601959294919385830193909260009084015b8282101561178d57600084815260208082206040805160e08101825260078702909201805460ff9081168452600182015484860152600282015484840152600382015416606084015260048101805483518187028101870190945280845293959194608087019491929084015b828210156117575783829060005260206000200180546116ca906154ae565b80601f01602080910402602001604051908101604052809291908181526020018280546116f6906154ae565b80156117435780601f1061171857610100808354040283529160200191611743565b820191906000526020600020905b81548152906001019060200180831161172657829003601f168201915b5050505050815260200190600101906116ab565b50505090825250600582015460208083019190915260069092015460ff161515604090910152908252600192909201910161163e565b505050915250508152600b91909101546001600160a01b0316602090910152604083015151909150158015906117cc5750816060015151826040015151145b604051806040016040528060038152602001620c8c0d60ea1b815250906118065760405162461bcd60e51b8152600401610cbf9190614805565b506040810151158061183057508060400151826040015151826060015161182d9190615655565b11155b6040518060400160405280600381526020016232303360e81b8152509061186a5760405162461bcd60e51b8152600401610cbf9190614805565b506102285481516001600160a01b03909116906000908015611b1d576040850151516118969082615578565b604080518082018252600c81526b4d494e545f4e46545f46454560a01b60208201529051636d12dce160e01b81529192506000916001600160a01b03861691636d12dce1916118e89190600401614805565b602060405180830381865afa158015611905573d6000803e3d6000fd5b505050506040513d601f19601f82011682018060405250810190611929919061566d565b90508061193557506101f45b60208501516001600160a01b03166119df578134101561195457600080fd5b855161195f90611e73565b6001600160a01b03166127106119758385615578565b61197f91906155ad565b6119899084615686565b604051600081818185875af1925050503d80600081146119c5576040519150601f19603f3d011682016040523d82523d6000602084013e6119ca565b606091505b505080935050826119da57600080fd5b611b1b565b60208501516040516323b872dd60e01b8152336004820152306024820152604481018490526001600160a01b038216906323b872dd906064016020604051808303816000875af1158015611a37573d6000803e3d6000fd5b505050506040513d601f19601f82011682018060405250810190611a5b919061569d565b611a6457600080fd5b806001600160a01b031663a9059cbb611a808960000151611e73565b612710611a8d8688615578565b611a9791906155ad565b611aa19087615686565b6040516001600160e01b031960e085901b1681526001600160a01b03909216600483015260248201526044016020604051808303816000875af1158015611aec573d6000803e3d6000fd5b505050506040513d601f19601f82011682018060405250810190611b10919061569d565b611b1957600080fd5b505b505b8451600090815261022a60205260408120600b01546001600160a01b0316905b866060015151811015611e2b5786606001518181518110611b6057611b606154e3565b602090810291909101810151810151518851600090815261022a8352604090819020600a0154815180830190925260038252620c8c0d60ea1b938201939093529114611bbf5760405162461bcd60e51b8152600401610cbf9190614805565b50600087606001518281518110611bd857611bd86154e3565b60209081029190910181015151600081815261022d835260408082208c518352845290819020548151808301909252600382526232303560e81b938201939093529092509015611c3b5760405162461bcd60e51b8152600401610cbf9190614805565b508751600090815261022a602052604090206008015460ff16611cb15787513390611c67908390610d65565b6001600160a01b0316146040518060400160405280600381526020016232303560e81b81525090611cab5760405162461bcd60e51b8152600401610cbf9190614805565b50611d0c565b600081815261022b602090815260408083208b5184529091529020546001600160a01b031615611ce057600080fd5b600081815261022b602090815260408083208b518452909152902080546001600160a01b031916331790555b826001600160a01b03166381aa7929896020015161022760009054906101000a90046001600160a01b03168b604001518681518110611d4d57611d4d6154e3565b60200260200101518c606001518781518110611d6b57611d6b6154e3565b60200260200101518c61012001516040518663ffffffff1660e01b8152600401611d999594939291906156ba565b600060405180830381600087803b158015611db357600080fd5b505af1158015611dc7573d6000803e3d6000fd5b50505050600187606001818151611dde9190615655565b9052506060870180518951600090815261022a6020908152604080832060030193909355925193815261022d83528181208b51825290925290205580611e238161550f565b915050611b3d565b507f67175103d209cf669be17e253aba378479477b5a1ef3b1e9eaedce52f0ebab543387604051611e5d92919061570d565b60405180910390a1505060016101f55550505050565b600081815260cb60205260408120546001600160a01b031680610b8b5760405162461bcd60e51b8152602060048201526018602482015277115490cdcc8c4e881a5b9d985b1a59081d1bdad95b88125160421b6044820152606401610cbf565b600082815261022d6020908152604080832084845290915290205415801590611f025750611f02338383612cfa565b8015611f295750836001600160a01b0316611f1d8383610d65565b6001600160a01b031614155b8015611f3d57506001600160a01b03831615155b611f4657600080fd5b600091825261022b60209081526040808420928452919052902080546001600160a01b0319166001600160a01b039290921691909117905550565b60006001600160a01b038216611feb5760405162461bcd60e51b815260206004820152602960248201527f4552433732313a2061646472657373207a65726f206973206e6f7420612076616044820152683634b21037bbb732b960b91b6064820152608401610cbf565b506001600160a01b0316600090815260cc602052604090205490565b600060026101f554141561202d5760405162461bcd60e51b8152600401610cbf9061561e565b60026101f55589516040805180820190915260038082526203230360ec1b60208301529091116120705760405162461bcd60e51b8152600401610cbf9190614805565b5061208061022980546001019055565b600061208c6102295490565b9050612097816133bf565b156040518060400160405280600381526020016219181960e91b815250906120d25760405162461bcd60e51b8152600401610cbf9190614805565b506102285460408051808201825260128152714352454154455f50524f4a4543545f46454560701b60208201529051636d12dce160e01b81526001600160a01b03909216916000918391636d12dce19161212e91600401614805565b602060405180830381865afa15801561214b573d6000803e3d6000fd5b505050506040513d601f19601f8201168201806040525081019061216f919061566d565b905080156122ab5760408051808201825260098152682322a2afaa27a5a2a760b91b6020820152905163bf40fac160e01b81526000916001600160a01b0385169163bf40fac1916121c291600401614805565b602060405180830381865afa1580156121df573d6000803e3d6000fd5b505050506040513d601f19601f8201168201806040525081019061220391906157a9565b90506001600160a01b0381161561229c576040516323b872dd60e01b81523360048201523060248201526044810183905281906001600160a01b038216906323b872dd906064016020604051808303816000875af1158015612269573d6000803e3d6000fd5b505050506040513d601f19601f8201168201806040525081019061228d919061569d565b61229657600080fd5b506122a9565b813410156122a957600080fd5b505b8751156122da57600083815261022a6020908152604090912089516122d8926006909201918b01906146c8565b505b8c61022a600085815260200190815260200160002060070190805190602001906123059291906146c8565b5061022754600084815261022a60205260409020600581018054640100000000600160c01b0319166001600160a01b03938416600160201b02179055600281018e90558881556001810180546001600160a01b0319169289169290921790915585906009016123748282615b77565b5050600083815261022a602090815260409091208c5161239c926004909201918e01906146c8565b50600083815261022a6020526040902060058101805463ffffffff191663ffffffff8d16179055600801805460ff19168a15151790556123dc8e846136b0565b604080518082018252601781527f47454e455241544956455f4e46545f54454d504c4154450000000000000000006020820152905163bf40fac160e01b8152600091612486916001600160a01b0386169163bf40fac1916124409190600401614805565b602060405180830381865afa15801561245d573d6000803e3d6000fd5b505050506040513d601f19601f8201168201806040525081019061248191906157a9565b6136ca565b600085815261022a60205260409020600701805491925082916001600160a01b0383169163ae3dd095916125489060019060039084906124c5906154ae565b80601f01602080910402602001604051908101604052809291908181526020018280546124f1906154ae565b801561253e5780601f106125135761010080835404028352916020019161253e565b820191906000526020600020905b81548152906001019060200180831161252157829003601f168201915b5050505050613762565b610227546040516001600160e01b031960e086901b16815261257c9392916001600160a01b03169030908c90600401615c95565b600060405180830381600087803b15801561259657600080fd5b505af11580156125aa573d6000803e3d6000fd5b505050600086815261022a60205260409020600b0180546001600160a01b0319166001600160a01b039490941693909317909255505060016101f55550909c9b505050505050505050505050565b61022a602052600090815260409020805460018201546002830154600384015460048501805494956001600160a01b039094169492939192612639906154ae565b80601f0160208091040260200160405190810160405280929190818152602001828054612665906154ae565b80156126b25780601f10612687576101008083540402835291602001916126b2565b820191906000526020600020905b81548152906001019060200180831161269557829003601f168201915b505050506005830154600684018054939463ffffffff831694600160201b9093046001600160a01b03169350916126e8906154ae565b80601f0160208091040260200160405190810160405280929190818152602001828054612714906154ae565b80156127615780601f1061273657610100808354040283529160200191612761565b820191906000526020600020905b81548152906001019060200180831161274457829003601f168201915b505050505090806007018054612776906154ae565b80601f01602080910402602001604051908101604052809291908181526020018280546127a2906154ae565b80156127ef5780601f106127c4576101008083540402835291602001916127ef565b820191906000526020600020905b8154815290600101906020018083116127d257829003601f168201915b5050505050908060080160009054906101000a900460ff1690806009016040518060400160405290816000820154815260200160018201805480602002602001604051908101604052809291908181526020016000905b8282101561299557600084815260208082206040805160e08101825260078702909201805460ff9081168452600182015484860152600282015484840152600382015416606084015260048101805483518187028101870190945280845293959194608087019491929084015b8282101561295f5783829060005260206000200180546128d2906154ae565b80601f01602080910402602001604051908101604052809291908181526020018280546128fe906154ae565b801561294b5780601f106129205761010080835404028352916020019161294b565b820191906000526020600020905b81548152906001019060200180831161292e57829003601f168201915b5050505050815260200190600101906128b3565b50505090825250600582015460208083019190915260069092015460ff1615156040909101529082526001929092019101612846565b50505091525050600b909101546001600160a01b03168c565b610227546001600160a01b0316336001600160a01b0316146040518060400160405280600381526020016231303160e81b81525090612a005760405162461bcd60e51b8152600401610cbf9190614805565b50612a0c600033612a98565b6040518060400160405280600381526020016231303160e81b81525090612a465760405162461bcd60e51b8152600401610cbf9190614805565b5061022780546001600160a01b038381166001600160a01b0319831681179093551690612a7590600090610fbf565b6110f4600082612f40565b6000828152609760205260408120610d9a9083613848565b60009182526065602090815260408084206001600160a01b0393909316845291905290205460ff1690565b606060ca8054610ba0906154ae565b610227546001600160a01b0316336001600160a01b0316146040518060400160405280600381526020016231303160e81b81525090612b245760405162461bcd60e51b8152600401610cbf9190614805565b50612b30600033612a98565b6040518060400160405280600381526020016231303160e81b81525090612b6a5760405162461bcd60e51b8152600401610cbf9190614805565b5060408051808201909152600381526232303360e81b6020820152612710821115612ba85760405162461bcd60e51b8152600401610cbf9190614805565b50604080516060810182526001600160a01b03938416815262ffffff92831660208083019182526001838501908152600097885261022e90915292909520905181549551925194166001600160b81b031990951694909417600160a01b91909216021760ff60b81b1916600160b81b91151591909102179055565b6110f4338383613854565b600054610100900460ff1615808015612c4e5750600054600160ff909116105b80612c685750303b158015612c68575060005460ff166001145b612c845760405162461bcd60e51b8152600401610cbf90615d59565b6000805460ff191660011790558015612ca7576000805461ff0019166101001790555b612cb2848484613923565b8015612cf4576000805461ff0019169055604051600181527f7f26b83ff96e1f2b6a682f133852f6798a09c465da95921460cefb3847402498906020016112e9565b50505050565b6000836001600160a01b0316612d108484610d65565b6001600160a01b03161415612d2757506001610d9a565b8161022c6000612d378686610d65565b6001600160a01b03908116825260208083019390935260409182016000908120918916815292529020541490509392505050565b612d7533836133dc565b612d915760405162461bcd60e51b8152600401610cbf9061552a565b612cf484848484613967565b600081815261022a6020526040812060060180546060929190612dbf906154ae565b90501115612e6957600082815261022a602052604090206006018054612de4906154ae565b80601f0160208091040260200160405190810160405280929190818152602001828054612e10906154ae565b8015612e5d5780601f10612e3257610100808354040283529160200191612e5d565b820191906000526020600020905b815481529060010190602001808311612e4057829003601f168201915b50505050509050919050565b612e71612f65565b612e7a8361399a565b604051602001612e8b929190615da7565b6040516020818303038152906040529050919050565b919050565b6000818152609760205260408120610b8b90613a97565b60408051808201909152600381526203130360ec1b60208201526001600160a01b038316612efe5760405162461bcd60e51b8152600401610cbf9190614805565b5060005b8151811015610d6057612f2e83838381518110612f2157612f216154e3565b6020026020010151613aa1565b80612f388161550f565b915050612f02565b600082815260656020526040902060010154612f5b81613602565b610d60838361362e565b6060610dad613b3f565b600054610100900460ff1615808015612f8f5750600054600160ff909116105b80612fa95750303b158015612fa9575060005460ff166001145b612fc55760405162461bcd60e51b8152600401610cbf90615d59565b6000805460ff191660011790558015612fe8576000805461ff0019166101001790555b60408051808201909152600381526203130360ec1b60208201526001600160a01b0384166130295760405162461bcd60e51b8152600401610cbf9190614805565b5060408051808201909152600381526203130360ec1b60208201526001600160a01b03831661306b5760405162461bcd60e51b8152600401610cbf9190614805565b50613077868686613923565b61022880546001600160a01b038085166001600160a01b031992831617909255610227805492861692909116821790556130b390600090610fbf565b6130be600033612f40565b8015613104576000805461ff0019169055604051600181527f7f26b83ff96e1f2b6a682f133852f6798a09c465da95921460cefb38474024989060200160405180910390a15b505050505050565b60026101f55414156131305760405162461bcd60e51b8152600401610cbf9061561e565b60026101f555610227546001600160a01b0316336001600160a01b0316146040518060400160405280600381526020016231303160e81b815250906131885760405162461bcd60e51b8152600401610cbf9190614805565b50613194600033612a98565b6040518060400160405280600381526020016231303160e81b815250906131ce5760405162461bcd60e51b8152600401610cbf9190614805565b5060006001600160a01b03831661324f57814710156131ec57600080fd5b6040516001600160a01b038516908390600081818185875af1925050503d8060008114613235576040519150601f19603f3d011682016040523d82523d6000602084013e61323a565b606091505b5050809150508061324a57600080fd5b6132d0565b60405163a9059cbb60e01b81526001600160a01b0385811660048301526024820184905284919082169063a9059cbb906044016020604051808303816000875af11580156132a1573d6000803e3d6000fd5b505050506040513d601f19601f820116820180604052508101906132c5919061569d565b6132ce57600080fd5b505b505060016101f5555050565b60006001600160e01b0319821663780e9d6360e01b1480610b8b5750610b8b82613b4f565b61330a816133bf565b6106995760405162461bcd60e51b8152602060048201526018602482015277115490cdcc8c4e881a5b9d985b1a59081d1bdad95b88125160421b6044820152606401610cbf565b600081815260cd6020526040902080546001600160a01b0319166001600160a01b038416908117909155819061338682611e73565b6001600160a01b03167f8c5be1e5ebec7d5bd14f71427d1e84f3dd0314c0f7b2291e5b200ac8c7c3b92560405160405180910390a45050565b600090815260cb60205260409020546001600160a01b0316151590565b6000806133e883611e73565b9050806001600160a01b0316846001600160a01b0316148061342f57506001600160a01b03808216600090815260ce602090815260408083209388168352929052205460ff165b806134535750836001600160a01b031661344884610c23565b6001600160a01b0316145b949350505050565b826001600160a01b031661346e82611e73565b6001600160a01b0316146134d25760405162461bcd60e51b815260206004820152602560248201527f4552433732313a207472616e736665722066726f6d20696e636f72726563742060448201526437bbb732b960d91b6064820152608401610cbf565b6001600160a01b0382166135345760405162461bcd60e51b8152602060048201526024808201527f4552433732313a207472616e7366657220746f20746865207a65726f206164646044820152637265737360e01b6064820152608401610cbf565b61353f838383613b8f565b61354a600082613351565b6001600160a01b038316600090815260cc60205260408120805460019290613573908490615686565b90915550506001600160a01b038216600090815260cc602052604081208054600192906135a1908490615655565b9091555050600081815260cb602052604080822080546001600160a01b0319166001600160a01b0386811691821790925591518493918716917fddf252ad1be2c89b69c2b068fc378daa952ba7f163c4a11628f55a4df523b3ef91a4505050565b6106998133613b9a565b6136168282613bfe565b6000828152609760205260409020610d609082613c84565b6136388282613c99565b6000828152609760205260409020610d609082613d00565b600061365d600143615686565b60408051914060208301526bffffffffffffffffffffffff19606087901b169082015260548101849052607481018390526094016040516020818303038152906040528051906020012090509392505050565b6110f4828260405180602001604052806000815250613d15565b6000604051733d602d80600a3d3981f3363d3d373d3d3d363d7360601b81528260601b60148201526e5af43d82803e903d91602b57fd5bf360881b60288201526037816000f09150506001600160a01b038116612ea15760405162461bcd60e51b8152602060048201526016602482015275115490cc4c4d8dce8818dc99585d194819985a5b195960521b6044820152606401610cbf565b606060006137708585615686565b61377b906001615655565b6001600160401b0381111561379257613792614886565b6040519080825280601f01601f1916602001820160405280156137bc576020820181803683370190505b50905060005b6137cc8686615686565b811161383f578360016137df8884615655565b6137e99190615686565b815181106137f9576137f96154e3565b602001015160f81c60f81b828281518110613816576138166154e3565b60200101906001600160f81b031916908160001a905350806138378161550f565b9150506137c2565b50949350505050565b6000610d9a8383613d48565b816001600160a01b0316836001600160a01b031614156138b65760405162461bcd60e51b815260206004820152601960248201527f4552433732313a20617070726f766520746f2063616c6c6572000000000000006044820152606401610cbf565b6001600160a01b03838116600081815260ce6020908152604080832094871680845294825291829020805460ff191686151590811790915591519182527f17307eab39ab6107e8899845ad3d59bd9653f200f220920489ca2b5937696c31910160405180910390a3505050565b600054610100900460ff1661394a5760405162461bcd60e51b8152600401610cbf90615dd6565b6139548383613d72565b61395c613dc0565b610d60838383613df4565b61397284848461345b565b61397e84848484613e8f565b612cf45760405162461bcd60e51b8152600401610cbf90615e21565b6060816139be5750506040805180820190915260018152600360fc1b602082015290565b8160005b81156139e857806139d28161550f565b91506139e19050600a836155ad565b91506139c2565b6000816001600160401b03811115613a0257613a02614886565b6040519080825280601f01601f191660200182016040528015613a2c576020820181803683370190505b5090505b841561345357613a41600183615686565b9150613a4e600a86615e73565b613a59906030615655565b60f81b818381518110613a6e57613a6e6154e3565b60200101906001600160f81b031916908160001a905350613a90600a866155ad565b9450613a30565b6000610b8b825490565b600081815261022a6020908152604091829020600501548251808401909352600383526218981960e91b91830191909152600160201b90046001600160a01b03163314613b015760405162461bcd60e51b8152600401610cbf9190614805565b50600090815261022a6020526040902060050180546001600160a01b03909216600160201b02640100000000600160c01b0319909216919091179055565b60606101c48054610ba0906154ae565b60006001600160e01b031982166380ac58cd60e01b1480613b8057506001600160e01b03198216635b5e139f60e01b145b80610b8b5750610b8b82613f8d565b610d60838383613fb2565b613ba48282612a98565b6110f457613bbc816001600160a01b03166014614025565b613bc7836020614025565b604051602001613bd8929190615e87565b60408051601f198184030181529082905262461bcd60e51b8252610cbf91600401614805565b613c088282612a98565b6110f45760008281526065602090815260408083206001600160a01b03851684529091529020805460ff19166001179055613c403390565b6001600160a01b0316816001600160a01b0316837f2f8788117e7eff1d82e926ec794901d17c78024a50270940304540a733656f0d60405160405180910390a45050565b6000610d9a836001600160a01b0384166141c0565b613ca38282612a98565b156110f45760008281526065602090815260408083206001600160a01b0385168085529252808320805460ff1916905551339285917ff6391f5c32d9c69d2a47ea670b442974b53935d1edc7fd64eb21e047a839171b9190a45050565b6000610d9a836001600160a01b03841661420f565b613d1f8383614302565b613d2c6000848484613e8f565b610d605760405162461bcd60e51b8152600401610cbf90615e21565b6000826000018281548110613d5f57613d5f6154e3565b9060005260206000200154905092915050565b600054610100900460ff16613d995760405162461bcd60e51b8152600401610cbf90615dd6565b8151613dac9060c99060208501906146c8565b508051610d609060ca9060208401906146c8565b600054610100900460ff16613de75760405162461bcd60e51b8152600401610cbf90615dd6565b61015f805460ff19169055565b600054610100900460ff16613e1b5760405162461bcd60e51b8152600401610cbf90615dd6565b8051613e2f906101c49060208401906146c8565b50613e3b600033614441565b613e657f9f2df0fed2c77648de5860a4cc508cd0818c85b8b8a1ab4ceeef8d981c8956a633614441565b610d607f65d7a28e3265b37a6474929f336521b332c1681b933f6cb9f3376673440d862a33614441565b60006001600160a01b0384163b15613f8257604051630a85bd0160e11b81526001600160a01b0385169063150b7a0290613ed3903390899088908890600401615efc565b6020604051808303816000875af1925050508015613f0e575060408051601f3d908101601f19168201909252613f0b91810190615f39565b60015b613f68573d808015613f3c576040519150601f19603f3d011682016040523d82523d6000602084013e613f41565b606091505b508051613f605760405162461bcd60e51b8152600401610cbf90615e21565b805181602001fd5b6001600160e01b031916630a85bd0160e11b149050613453565b506001949350505050565b60006001600160e01b03198216635a05180f60e01b1480610b8b5750610b8b8261444b565b613fbd838383614480565b61015f5460ff1615610d605760405162461bcd60e51b815260206004820152602b60248201527f4552433732315061757361626c653a20746f6b656e207472616e73666572207760448201526a1a1a5b19481c185d5cd95960aa1b6064820152608401610cbf565b60606000614034836002615578565b61403f906002615655565b6001600160401b0381111561405657614056614886565b6040519080825280601f01601f191660200182016040528015614080576020820181803683370190505b509050600360fc1b8160008151811061409b5761409b6154e3565b60200101906001600160f81b031916908160001a905350600f60fb1b816001815181106140ca576140ca6154e3565b60200101906001600160f81b031916908160001a90535060006140ee846002615578565b6140f9906001615655565b90505b6001811115614171576f181899199a1a9b1b9c1cb0b131b232b360811b85600f166010811061412d5761412d6154e3565b1a60f81b828281518110614143576141436154e3565b60200101906001600160f81b031916908160001a90535060049490941c9361416a81615f56565b90506140fc565b508315610d9a5760405162461bcd60e51b815260206004820181905260248201527f537472696e67733a20686578206c656e67746820696e73756666696369656e746044820152606401610cbf565b600081815260018301602052604081205461420757508154600181810184556000848152602080822090930184905584548482528286019093526040902091909155610b8b565b506000610b8b565b600081815260018301602052604081205480156142f8576000614233600183615686565b855490915060009061424790600190615686565b90508181146142ac576000866000018281548110614267576142676154e3565b906000526020600020015490508087600001848154811061428a5761428a6154e3565b6000918252602080832090910192909255918252600188019052604090208390555b85548690806142bd576142bd615f6d565b600190038181906000526020600020016000905590558560010160008681526020019081526020016000206000905560019350505050610b8b565b6000915050610b8b565b6001600160a01b0382166143585760405162461bcd60e51b815260206004820181905260248201527f4552433732313a206d696e7420746f20746865207a65726f20616464726573736044820152606401610cbf565b614361816133bf565b156143ae5760405162461bcd60e51b815260206004820152601c60248201527f4552433732313a20746f6b656e20616c7265616479206d696e746564000000006044820152606401610cbf565b6143ba60008383613b8f565b6001600160a01b038216600090815260cc602052604081208054600192906143e3908490615655565b9091555050600081815260cb602052604080822080546001600160a01b0319166001600160a01b03861690811790915590518392907fddf252ad1be2c89b69c2b068fc378daa952ba7f163c4a11628f55a4df523b3ef908290a45050565b6110f4828261360c565b60006001600160e01b03198216637965db0b60e01b1480610b8b57506301ffc9a760e01b6001600160e01b0319831614610b8b565b6001600160a01b0383166144db576144d68160fd8054600083815260fe60205260408120829055600182018355919091527f9346ac6dd7de6b96975fec380d4d994c4c12e6a8897544f22915316cc6cca2800155565b6144fe565b816001600160a01b0316836001600160a01b0316146144fe576144fe8382614538565b6001600160a01b03821661451557610d60816145d5565b826001600160a01b0316826001600160a01b031614610d6057610d608282614684565b6000600161454584611f81565b61454f9190615686565b600083815260fc60205260409020549091508082146145a2576001600160a01b038416600090815260fb60209081526040808320858452825280832054848452818420819055835260fc90915290208190555b50600091825260fc602090815260408084208490556001600160a01b03909416835260fb81528383209183525290812055565b60fd546000906145e790600190615686565b600083815260fe602052604081205460fd805493945090928490811061460f5761460f6154e3565b906000526020600020015490508060fd8381548110614630576146306154e3565b600091825260208083209091019290925582815260fe909152604080822084905585825281205560fd80548061466857614668615f6d565b6001900381819060005260206000200160009055905550505050565b600061468f83611f81565b6001600160a01b03909316600090815260fb60209081526040808320868452825280832085905593825260fc9052919091209190915550565b8280546146d4906154ae565b90600052602060002090601f0160209004810192826146f6576000855561473c565b82601f1061470f57805160ff191683800117855561473c565b8280016001018555821561473c579182015b8281111561473c578251825591602001919060010190614721565b5061474892915061474c565b5090565b5b80821115614748576000815560010161474d565b6001600160e01b03198116811461069957600080fd5b60006020828403121561478957600080fd5b8135610d9a81614761565b6000602082840312156147a657600080fd5b5035919050565b60005b838110156147c85781810151838201526020016147b0565b83811115612cf45750506000910152565b600081518084526147f18160208601602086016147ad565b601f01601f19169290920160200192915050565b602081526000610d9a60208301846147d9565b6001600160a01b038116811461069957600080fd5b8035612ea181614818565b6000806040838503121561484b57600080fd5b823561485681614818565b946020939093013593505050565b6000806040838503121561487757600080fd5b50508035926020909101359150565b634e487b7160e01b600052604160045260246000fd5b604051608081016001600160401b03811182821017156148be576148be614886565b60405290565b604080519081016001600160401b03811182821017156148be576148be614886565b60405160e081016001600160401b03811182821017156148be576148be614886565b604051601f8201601f191681016001600160401b038111828210171561493057614930614886565b604052919050565b60006001600160401b0382111561495157614951614886565b5060051b60200190565b6000806040838503121561496e57600080fd5b823591506020808401356001600160401b0381111561498c57600080fd5b8401601f8101861361499d57600080fd5b80356149b06149ab82614938565b614908565b81815260059190911b820183019083810190888311156149cf57600080fd5b928401925b828410156149ed578335825292840192908401906149d4565b80955050505050509250929050565b600080600060608486031215614a1157600080fd5b8335614a1c81614818565b92506020840135614a2c81614818565b929592945050506040919091013590565b60008060408385031215614a5057600080fd5b823591506020830135614a6281614818565b809150509250929050565b60008060408385031215614a8057600080fd5b8235614a8b81614818565b91506020830135614a6281614818565b60006001600160401b03831115614ab457614ab4614886565b614ac7601f8401601f1916602001614908565b9050828152838383011115614adb57600080fd5b828260208301376000602084830101529392505050565b600082601f830112614b0357600080fd5b610d9a83833560208501614a9b565b60008060408385031215614b2557600080fd5b8235915060208301356001600160401b03811115614b4257600080fd5b610fb485828601614af2565b600082601f830112614b5f57600080fd5b81356020614b6f6149ab83614938565b82815260059290921b84018101918181019086841115614b8e57600080fd5b8286015b84811015614bcd5780356001600160401b03811115614bb15760008081fd5b614bbf8986838b0101614af2565b845250918301918301614b92565b509695505050505050565b60ff8116811461069957600080fd5b8035612ea181614bd8565b801515811461069957600080fd5b8035612ea181614bf2565b600060208284031215614c1d57600080fd5b6001600160401b0382351115614c3257600080fd5b60808235830184031215614c4557600080fd5b614c4d61489c565b8235830180358252614c629060200135614818565b602083358401013560208201526001600160401b0360408435850101351115614c8a57600080fd5b614c9d8484358501604081013501614b4e565b60408201526001600160401b0360608435850101351115614cbd57600080fd5b82358301606081013501601f81018513614cd657600080fd5b614ce36149ab8235614938565b81358082526020808301929160051b840101871015614d0157600080fd5b602083015b6020843560051b850101811015614ebe576001600160401b0381351115614d2c57600080fd5b6040813585018903601f19011215614d4357600080fd5b614d4b6148c4565b81358501602081013582526001600160401b036040909101351115614d6f57600080fd5b81358501604081013501603f81018a13614d8857600080fd5b614d986149ab6020830135614938565b602082810135808352908201919060051b83016040018c1015614dba57600080fd5b604083015b6040602085013560051b850101811015614ea5576001600160401b0381351115614de857600080fd5b60e0813585018e03603f19011215614dff57600080fd5b614e076148e6565b614e1660408335870101614be7565b8152813585016060810135602083015260808101356040830152614e3c9060a001614be7565b60608201526001600160401b0360c08335870101351115614e5c57600080fd5b614e728e8335870160c081013501604001614b4e565b60808201528135850160e081013560a0830152614e929061010001614c00565b60c0820152835260209283019201614dbf565b5060208481019190915292865250509283019201614d06565b5060608401525090949350505050565b600060208284031215614ee057600080fd5b8135610d9a81614818565b60008060008060808587031215614f0157600080fd5b8435614f0c81614818565b93506020850135614f1c81614818565b93969395505050506040820135916060013590565b803563ffffffff81168114612ea157600080fd5b600060408284031215614f5757600080fd5b50919050565b6000806000806000806000806000806101408b8d031215614f7d57600080fd5b614f868b61482d565b995060208b01356001600160401b0380821115614fa257600080fd5b614fae8e838f01614af2565b9a5060408d0135995060608d0135915080821115614fcb57600080fd5b614fd78e838f01614af2565b9850614fe560808e01614f31565b9750614ff360a08e01614c00565b965060c08d013591508082111561500957600080fd5b6150158e838f01614af2565b955060e08d0135945061502b6101008e0161482d565b93506101208d013591508082111561504257600080fd5b5061504f8d828e01614f45565b9150509295989b9194979a5092959850565b600081518084526020808501808196508360051b8101915082860160005b858110156150a95782840389526150978483516147d9565b9885019893509084019060010161507f565b5091979650505050505050565b60006040808401835185526020808501518382880152828151808552606094508489019150848160051b8a0101848401935060005b8281101561516757605f198b8303018452845160e060ff80835116855288830151898601528a8301518b860152808a840151168a86015250608080830151828287015261513a83870182615061565b60a0858101519088015260c0948501511515949096019390935250505093850193928501926001016150eb565b509998505050505050505050565b60006101808e835260018060a01b038e1660208401528c60408401528b60608401528060808401526151a98184018c6147d9565b63ffffffff8b1660a08501526001600160a01b038a1660c0850152905082810360e08401526151d881896147d9565b90508281036101008401526151ed81886147d9565b861515610120850152905082810361014084015261520b81866150b6565b9150506152246101608301846001600160a01b03169052565b9d9c50505050505050505050505050565b60008060006060848603121561524a57600080fd5b833592506020840135614a2c81614818565b6000806040838503121561526f57600080fd5b823561527a81614818565b91506020830135614a6281614bf2565b60008060006060848603121561529f57600080fd5b83356001600160401b03808211156152b657600080fd5b6152c287838801614af2565b945060208601359150808211156152d857600080fd5b6152e487838801614af2565b935060408601359150808211156152fa57600080fd5b5061530786828701614af2565b9150509250925092565b60008060006060848603121561532657600080fd5b833561533181614818565b95602085013595506040909401359392505050565b6000806000806080858703121561535c57600080fd5b843561536781614818565b9350602085013561537781614818565b92506040850135915060608501356001600160401b0381111561539957600080fd5b8501601f810187136153aa57600080fd5b6153b987823560208401614a9b565b91505092959194509250565b600080604083850312156153d857600080fd5b82356153e381614818565b91506020838101356001600160401b0381111561498c57600080fd5b600080600080600060a0868803121561541757600080fd5b85356001600160401b038082111561542e57600080fd5b61543a89838a01614af2565b9650602088013591508082111561545057600080fd5b61545c89838a01614af2565b9550604088013591508082111561547257600080fd5b5061547f88828901614af2565b935050606086013561549081614818565b915060808601356154a081614818565b809150509295509295909350565b600181811c908216806154c257607f821691505b60208210811415614f5757634e487b7160e01b600052602260045260246000fd5b634e487b7160e01b600052603260045260246000fd5b634e487b7160e01b600052601160045260246000fd5b6000600019821415615523576155236154f9565b5060010190565b6020808252602e908201527f4552433732313a2063616c6c6572206973206e6f7420746f6b656e206f776e6560408201526d1c881b9bdc88185c1c1c9bdd995960921b606082015260800190565b6000816000190483118215151615615592576155926154f9565b500290565b634e487b7160e01b600052601260045260246000fd5b6000826155bc576155bc615597565b500490565b6001600160a01b038416815260208082018490526060604083018190528351908301819052600091848101916080850190845b81811015615610578451835293830193918301916001016155f4565b509098975050505050505050565b6020808252601f908201527f5265656e7472616e637947756172643a207265656e7472616e742063616c6c00604082015260600190565b60008219821115615668576156686154f9565b500190565b60006020828403121561567f57600080fd5b5051919050565b600082821015615698576156986154f9565b500390565b6000602082840312156156af57600080fd5b8151610d9a81614bf2565b6001600160a01b0386811682528516602082015260a0604082018190526000906156e6908301866147d9565b82810360608401526156f881866150b6565b91505082151560808301529695505050505050565b6001600160a01b0383811682526040602080840182905284518285015284810151909216606084015283015160808084015260009161574f60c0850183615061565b6060860151858203603f190160a0870152805180835291935082019082840190600581901b8501840160005b8281101561516757601f198783030184526157978286516150b6565b9486019493860193915060010161577b565b6000602082840312156157bb57600080fd5b8151610d9a81614818565b6000808335601e198436030181126157dd57600080fd5b8301803591506001600160401b038211156157f757600080fd5b6020019150600581901b360382131561580f57600080fd5b9250929050565b6000823560de1983360301811261582c57600080fd5b9190910192915050565b5b818110156110f45760008155600101615837565b805460008083558115610d605782815260208082208381015b808210156131045761587682546154ae565b80156158bd57601f80821160018114615891578685556158ba565b8487528587206158ab83850160051c820160018301615836565b50600085815260208120818755555b50505b50600182019150615864565b601f821115610d6057806000526020600020601f840160051c810160208510156158f05750805b615902601f850160051c830182615836565b5050505050565b6001600160401b0383111561592057615920614886565b6159348361592e83546154ae565b836158c9565b6000601f84116001811461596857600085156159505750838201355b600019600387901b1c1916600186901b178355615902565b600083815260209020601f19861690835b828110156159995786850135825560209485019460019092019101615979565b50868210156159b65760001960f88860031b161c19848701351681555b505060018560011b0183555050505050565b60008135610b8b81614bf2565b81356159e081614bd8565b815460ff191660ff821617825550600160208084013582840155604084013560028401556060840135615a1281614bd8565b60038401805460ff191660ff83161790555060048301615a3560808601866157c6565b600160401b811115615a4957615a49614886565b825481845580821015615ace5760008481528581208381019083015b80821015615aca57615a7782546154ae565b8015615ac057601f80821160018114615a9257858555615abd565b600085815260209020615aae83850160051c82018e8301615836565b50600085815260208120818755555b50505b5090880190615a65565b5050505b508160008481528581209450805b83811015615b3d578235601e19863603018112615af7578283fd5b850180356001600160401b03811115615b0e578384fd5b8882019150803603821315615b21578384fd5b615b2c81838a615909565b505094870194918601918701615adc565b505050505050505060a082013560058201556110f4615b5e60c084016159c8565b6006830160ff1981541660ff8315151681178255505050565b8135815560018082016020615b8e818601866157c6565b600160401b811115615ba257615ba2614886565b835481855580821015615c4f577f2492492492492492492492492492492492492492492492492492492492492492808211871615615be257615be26154f9565b6007818411881615615bf657615bf66154f9565b6000878152868120909250848202810190828502015b80821015615c4a57838255838a830155836002830155836003830155615c346004830161584b565b8360058301558360068301558282019150615c0c565b505050505b506000938452602084209382905b82811015615c8a57615c78615c728386615816565b876159d5565b60079590950194908401908601615c5d565b505050505050505050565b60a081526000808754615ca7816154ae565b8060a086015260c0600180841660008114615cc95760018114615cdd57615d0e565b60ff1985168884015260e088019550615d0e565b8c60005260208060002060005b86811015615d055781548b8201870152908401908201615cea565b8a018501975050505b50505050508281036020840152615d2581886147d9565b915050615d3d60408301866001600160a01b03169052565b6001600160a01b03939093166060820152608001529392505050565b6020808252602e908201527f496e697469616c697a61626c653a20636f6e747261637420697320616c72656160408201526d191e481a5b9a5d1a585b1a5e995960921b606082015260800190565b60008351615db98184602088016147ad565b835190830190615dcd8183602088016147ad565b01949350505050565b6020808252602b908201527f496e697469616c697a61626c653a20636f6e7472616374206973206e6f74206960408201526a6e697469616c697a696e6760a81b606082015260800190565b60208082526032908201527f4552433732313a207472616e7366657220746f206e6f6e20455243373231526560408201527131b2b4bb32b91034b6b83632b6b2b73a32b960711b606082015260800190565b600082615e8257615e82615597565b500690565b7f416363657373436f6e74726f6c3a206163636f756e7420000000000000000000815260008351615ebf8160178501602088016147ad565b7001034b99036b4b9b9b4b733903937b6329607d1b6017918401918201528351615ef08160288401602088016147ad565b01602801949350505050565b6001600160a01b0385811682528416602082015260408101839052608060608201819052600090615f2f908301846147d9565b9695505050505050565b600060208284031215615f4b57600080fd5b8151610d9a81614761565b600081615f6557615f656154f9565b506000190190565b634e487b7160e01b600052603160045260246000fdfea2646970667358221220662df13c84bf3082ad75446133e8aa4646547ab5b63b1fc83a49c139d8e41f3e64736f6c634300080c0033",
  "linkReferences": {},
  "deployedLinkReferences": {}
}