{
  "_format": "hh-sol-artifact-1",
  "contractName": "GenerativeBoilerplateNFT",
  "sourceName": "contracts/nft/GenerativeBoilerplateNFT.sol",
  "abi": [
    {
      "anonymous": false,
      "inputs": [
        {
          "indexed": true,
          "internalType": "address",
          "name": "owner",
          "type": "address"
        },
        {
          "indexed": true,
          "internalType": "address",
          "name": "approved",
          "type": "address"
        },
        {
          "indexed": true,
          "internalType": "uint256",
          "name": "tokenId",
          "type": "uint256"
        }
      ],
      "name": "Approval",
      "type": "event"
    },
    {
      "anonymous": false,
      "inputs": [
        {
          "indexed": true,
          "internalType": "address",
          "name": "owner",
          "type": "address"
        },
        {
          "indexed": true,
          "internalType": "address",
          "name": "operator",
          "type": "address"
        },
        {
          "indexed": false,
          "internalType": "bool",
          "name": "approved",
          "type": "bool"
        }
      ],
      "name": "ApprovalForAll",
      "type": "event"
    },
    {
      "anonymous": false,
      "inputs": [
        {
          "indexed": false,
          "internalType": "address",
          "name": "sender",
          "type": "address"
        },
        {
          "indexed": false,
          "internalType": "uint256",
          "name": "projectId",
          "type": "uint256"
        },
        {
          "indexed": false,
          "internalType": "bytes32[]",
          "name": "seeds",
          "type": "bytes32[]"
        }
      ],
      "name": "GenerateSeeds",
      "type": "event"
    },
    {
      "anonymous": false,
      "inputs": [
        {
          "indexed": false,
          "internalType": "uint8",
          "name": "version",
          "type": "uint8"
        }
      ],
      "name": "Initialized",
      "type": "event"
    },
    {
      "anonymous": false,
      "inputs": [
        {
          "indexed": false,
          "internalType": "address",
          "name": "sender",
          "type": "address"
        },
        {
          "components": [
            {
              "internalType": "uint256",
              "name": "_fromProjectId",
              "type": "uint256"
            },
            {
              "internalType": "address",
              "name": "_mintTo",
              "type": "address"
            },
            {
              "internalType": "string[]",
              "name": "_uriBatch",
              "type": "string[]"
            },
            {
              "components": [
                {
                  "internalType": "bytes32",
                  "name": "_seed",
                  "type": "bytes32"
                },
                {
                  "components": [
                    {
                      "internalType": "uint8",
                      "name": "_typeValue",
                      "type": "uint8"
                    },
                    {
                      "internalType": "uint256",
                      "name": "_max",
                      "type": "uint256"
                    },
                    {
                      "internalType": "uint256",
                      "name": "_min",
                      "type": "uint256"
                    },
                    {
                      "internalType": "uint8",
                      "name": "_decimal",
                      "type": "uint8"
                    },
                    {
                      "internalType": "string[]",
                      "name": "_availableValues",
                      "type": "string[]"
                    },
                    {
                      "internalType": "uint256",
                      "name": "_value",
                      "type": "uint256"
                    },
                    {
                      "internalType": "bool",
                      "name": "_editable",
                      "type": "bool"
                    }
                  ],
                  "internalType": "struct BoilerplateParam.ParamTemplate[]",
                  "name": "_params",
                  "type": "tuple[]"
                }
              ],
              "internalType": "struct BoilerplateParam.ParamsOfProject[]",
              "name": "_paramsBatch",
              "type": "tuple[]"
            }
          ],
          "indexed": false,
          "internalType": "struct IGenerativeBoilerplateNFT.MintRequest",
          "name": "request",
          "type": "tuple"
        }
      ],
      "name": "MintBatchNFT",
      "type": "event"
    },
    {
      "anonymous": false,
      "inputs": [
        {
          "indexed": false,
          "internalType": "address",
          "name": "account",
          "type": "address"
        }
      ],
      "name": "Paused",
      "type": "event"
    },
    {
      "anonymous": false,
      "inputs": [
        {
          "indexed": true,
          "internalType": "bytes32",
          "name": "role",
          "type": "bytes32"
        },
        {
          "indexed": true,
          "internalType": "bytes32",
          "name": "previousAdminRole",
          "type": "bytes32"
        },
        {
          "indexed": true,
          "internalType": "bytes32",
          "name": "newAdminRole",
          "type": "bytes32"
        }
      ],
      "name": "RoleAdminChanged",
      "type": "event"
    },
    {
      "anonymous": false,
      "inputs": [
        {
          "indexed": true,
          "internalType": "bytes32",
          "name": "role",
          "type": "bytes32"
        },
        {
          "indexed": true,
          "internalType": "address",
          "name": "account",
          "type": "address"
        },
        {
          "indexed": true,
          "internalType": "address",
          "name": "sender",
          "type": "address"
        }
      ],
      "name": "RoleGranted",
      "type": "event"
    },
    {
      "anonymous": false,
      "inputs": [
        {
          "indexed": true,
          "internalType": "bytes32",
          "name": "role",
          "type": "bytes32"
        },
        {
          "indexed": true,
          "internalType": "address",
          "name": "account",
          "type": "address"
        },
        {
          "indexed": true,
          "internalType": "address",
          "name": "sender",
          "type": "address"
        }
      ],
      "name": "RoleRevoked",
      "type": "event"
    },
    {
      "anonymous": false,
      "inputs": [
        {
          "indexed": true,
          "internalType": "address",
          "name": "from",
          "type": "address"
        },
        {
          "indexed": true,
          "internalType": "address",
          "name": "to",
          "type": "address"
        },
        {
          "indexed": true,
          "internalType": "uint256",
          "name": "tokenId",
          "type": "uint256"
        }
      ],
      "name": "Transfer",
      "type": "event"
    },
    {
      "anonymous": false,
      "inputs": [
        {
          "indexed": false,
          "internalType": "address",
          "name": "account",
          "type": "address"
        }
      ],
      "name": "Unpaused",
      "type": "event"
    },
    {
      "inputs": [],
      "name": "DEFAULT_ADMIN_ROLE",
      "outputs": [
        {
          "internalType": "bytes32",
          "name": "",
          "type": "bytes32"
        }
      ],
      "stateMutability": "view",
      "type": "function"
    },
    {
      "inputs": [],
      "name": "MINTER_ROLE",
      "outputs": [
        {
          "internalType": "bytes32",
          "name": "",
          "type": "bytes32"
        }
      ],
      "stateMutability": "view",
      "type": "function"
    },
    {
      "inputs": [],
      "name": "PAUSER_ROLE",
      "outputs": [
        {
          "internalType": "bytes32",
          "name": "",
          "type": "bytes32"
        }
      ],
      "stateMutability": "view",
      "type": "function"
    },
    {
      "inputs": [],
      "name": "_admin",
      "outputs": [
        {
          "internalType": "address",
          "name": "",
          "type": "address"
        }
      ],
      "stateMutability": "view",
      "type": "function"
    },
    {
      "inputs": [
        {
          "internalType": "address",
          "name": "",
          "type": "address"
        },
        {
          "internalType": "address",
          "name": "",
          "type": "address"
        }
      ],
      "name": "_approvalForAllSeeds",
      "outputs": [
        {
          "internalType": "uint256",
          "name": "",
          "type": "uint256"
        }
      ],
      "stateMutability": "view",
      "type": "function"
    },
    {
      "inputs": [],
      "name": "_paramsAddress",
      "outputs": [
        {
          "internalType": "address",
          "name": "",
          "type": "address"
        }
      ],
      "stateMutability": "view",
      "type": "function"
    },
    {
      "inputs": [
        {
          "internalType": "uint256",
          "name": "",
          "type": "uint256"
        }
      ],
      "name": "_projects",
      "outputs": [
        {
          "internalType": "uint256",
          "name": "_fee",
          "type": "uint256"
        },
        {
          "internalType": "address",
          "name": "_feeToken",
          "type": "address"
        },
        {
          "internalType": "uint256",
          "name": "_mintMaxSupply",
          "type": "uint256"
        },
        {
          "internalType": "uint256",
          "name": "_mintTotalSupply",
          "type": "uint256"
        },
        {
          "internalType": "string",
          "name": "_script",
          "type": "string"
        },
        {
          "internalType": "uint32",
          "name": "_scriptType",
          "type": "uint32"
        },
        {
          "internalType": "address",
          "name": "_creator",
          "type": "address"
        },
        {
          "internalType": "string",
          "name": "_customUri",
          "type": "string"
        },
        {
          "internalType": "string",
          "name": "_projectName",
          "type": "string"
        },
        {
          "internalType": "bool",
          "name": "_clientSeed",
          "type": "bool"
        },
        {
          "components": [
            {
              "internalType": "bytes32",
              "name": "_seed",
              "type": "bytes32"
            },
            {
              "components": [
                {
                  "internalType": "uint8",
                  "name": "_typeValue",
                  "type": "uint8"
                },
                {
                  "internalType": "uint256",
                  "name": "_max",
                  "type": "uint256"
                },
                {
                  "internalType": "uint256",
                  "name": "_min",
                  "type": "uint256"
                },
                {
                  "internalType": "uint8",
                  "name": "_decimal",
                  "type": "uint8"
                },
                {
                  "internalType": "string[]",
                  "name": "_availableValues",
                  "type": "string[]"
                },
                {
                  "internalType": "uint256",
                  "name": "_value",
                  "type": "uint256"
                },
                {
                  "internalType": "bool",
                  "name": "_editable",
                  "type": "bool"
                }
              ],
              "internalType": "struct BoilerplateParam.ParamTemplate[]",
              "name": "_params",
              "type": "tuple[]"
            }
          ],
          "internalType": "struct BoilerplateParam.ParamsOfProject",
          "name": "_paramsTemplate",
          "type": "tuple"
        },
        {
          "internalType": "address",
          "name": "_minterNFTInfo",
          "type": "address"
        },
        {
          "internalType": "uint256",
          "name": "_mintNotOwnerProjectMaxSupply",
          "type": "uint256"
        },
        {
          "internalType": "uint256",
          "name": "_mintNotOnwerProjectTotalSupply",
          "type": "uint256"
        }
      ],
      "stateMutability": "view",
      "type": "function"
    },
    {
      "inputs": [
        {
          "internalType": "address",
          "name": "to",
          "type": "address"
        },
        {
          "internalType": "uint256",
          "name": "tokenId",
          "type": "uint256"
        }
      ],
      "name": "approve",
      "outputs": [],
      "stateMutability": "nonpayable",
      "type": "function"
    },
    {
      "inputs": [
        {
          "internalType": "address",
          "name": "operator",
          "type": "address"
        },
        {
          "internalType": "uint256",
          "name": "projectId",
          "type": "uint256"
        }
      ],
      "name": "approveForAllSeeds",
      "outputs": [],
      "stateMutability": "nonpayable",
      "type": "function"
    },
    {
      "inputs": [
        {
          "internalType": "address",
          "name": "owner",
          "type": "address"
        }
      ],
      "name": "balanceOf",
      "outputs": [
        {
          "internalType": "uint256",
          "name": "",
          "type": "uint256"
        }
      ],
      "stateMutability": "view",
      "type": "function"
    },
    {
      "inputs": [],
      "name": "baseTokenURI",
      "outputs": [
        {
          "internalType": "string",
          "name": "",
          "type": "string"
        }
      ],
      "stateMutability": "view",
      "type": "function"
    },
    {
      "inputs": [
        {
          "internalType": "uint256",
          "name": "tokenId",
          "type": "uint256"
        }
      ],
      "name": "burn",
      "outputs": [],
      "stateMutability": "nonpayable",
      "type": "function"
    },
    {
      "inputs": [
        {
          "internalType": "address",
          "name": "newAdm",
          "type": "address"
        },
        {
          "internalType": "address",
          "name": "newParam",
          "type": "address"
        }
      ],
      "name": "changeAdmin",
      "outputs": [],
      "stateMutability": "nonpayable",
      "type": "function"
    },
    {
      "inputs": [
        {
          "internalType": "uint256",
          "name": "_id",
          "type": "uint256"
        }
      ],
      "name": "exists",
      "outputs": [
        {
          "internalType": "bool",
          "name": "",
          "type": "bool"
        }
      ],
      "stateMutability": "view",
      "type": "function"
    },
    {
      "inputs": [
        {
          "internalType": "uint256",
          "name": "projectId",
          "type": "uint256"
        },
        {
          "internalType": "uint256",
          "name": "amount",
          "type": "uint256"
        }
      ],
      "name": "generateSeeds",
      "outputs": [],
      "stateMutability": "nonpayable",
      "type": "function"
    },
    {
      "inputs": [
        {
          "internalType": "uint256",
          "name": "tokenId",
          "type": "uint256"
        }
      ],
      "name": "getApproved",
      "outputs": [
        {
          "internalType": "address",
          "name": "",
          "type": "address"
        }
      ],
      "stateMutability": "view",
      "type": "function"
    },
    {
      "inputs": [
        {
          "internalType": "bytes32",
          "name": "role",
          "type": "bytes32"
        }
      ],
      "name": "getRoleAdmin",
      "outputs": [
        {
          "internalType": "bytes32",
          "name": "",
          "type": "bytes32"
        }
      ],
      "stateMutability": "view",
      "type": "function"
    },
    {
      "inputs": [
        {
          "internalType": "bytes32",
          "name": "role",
          "type": "bytes32"
        },
        {
          "internalType": "uint256",
          "name": "index",
          "type": "uint256"
        }
      ],
      "name": "getRoleMember",
      "outputs": [
        {
          "internalType": "address",
          "name": "",
          "type": "address"
        }
      ],
      "stateMutability": "view",
      "type": "function"
    },
    {
      "inputs": [
        {
          "internalType": "bytes32",
          "name": "role",
          "type": "bytes32"
        }
      ],
      "name": "getRoleMemberCount",
      "outputs": [
        {
          "internalType": "uint256",
          "name": "",
          "type": "uint256"
        }
      ],
      "stateMutability": "view",
      "type": "function"
    },
    {
      "inputs": [
        {
          "internalType": "bytes32",
          "name": "role",
          "type": "bytes32"
        },
        {
          "internalType": "address",
          "name": "account",
          "type": "address"
        }
      ],
      "name": "grantRole",
      "outputs": [],
      "stateMutability": "nonpayable",
      "type": "function"
    },
    {
      "inputs": [
        {
          "internalType": "bytes32",
          "name": "role",
          "type": "bytes32"
        },
        {
          "internalType": "address",
          "name": "account",
          "type": "address"
        }
      ],
      "name": "hasRole",
      "outputs": [
        {
          "internalType": "bool",
          "name": "",
          "type": "bool"
        }
      ],
      "stateMutability": "view",
      "type": "function"
    },
    {
      "inputs": [
        {
          "internalType": "string",
          "name": "name",
          "type": "string"
        },
        {
          "internalType": "string",
          "name": "symbol",
          "type": "string"
        },
        {
          "internalType": "string",
          "name": "baseTokenURI",
          "type": "string"
        }
      ],
      "name": "initialize",
      "outputs": [],
      "stateMutability": "nonpayable",
      "type": "function"
    },
    {
      "inputs": [
        {
          "internalType": "string",
          "name": "name",
          "type": "string"
        },
        {
          "internalType": "string",
          "name": "symbol",
          "type": "string"
        },
        {
          "internalType": "string",
          "name": "baseUri",
          "type": "string"
        },
        {
          "internalType": "address",
          "name": "admin",
          "type": "address"
        },
        {
          "internalType": "address",
          "name": "paramsAddress",
          "type": "address"
        }
      ],
      "name": "initialize",
      "outputs": [],
      "stateMutability": "nonpayable",
      "type": "function"
    },
    {
      "inputs": [
        {
          "internalType": "address",
          "name": "owner",
          "type": "address"
        },
        {
          "internalType": "address",
          "name": "operator",
          "type": "address"
        }
      ],
      "name": "isApprovedForAll",
      "outputs": [
        {
          "internalType": "bool",
          "name": "",
          "type": "bool"
        }
      ],
      "stateMutability": "view",
      "type": "function"
    },
    {
      "inputs": [
        {
          "internalType": "address",
          "name": "operator",
          "type": "address"
        },
        {
          "internalType": "bytes32",
          "name": "seed",
          "type": "bytes32"
        },
        {
          "internalType": "uint256",
          "name": "projectId",
          "type": "uint256"
        }
      ],
      "name": "isApprovedOrOwnerForSeed",
      "outputs": [
        {
          "internalType": "bool",
          "name": "",
          "type": "bool"
        }
      ],
      "stateMutability": "view",
      "type": "function"
    },
    {
      "inputs": [
        {
          "internalType": "address",
          "name": "to",
          "type": "address"
        }
      ],
      "name": "mint",
      "outputs": [],
      "stateMutability": "nonpayable",
      "type": "function"
    },
    {
      "inputs": [
        {
          "components": [
            {
              "internalType": "uint256",
              "name": "_fromProjectId",
              "type": "uint256"
            },
            {
              "internalType": "address",
              "name": "_mintTo",
              "type": "address"
            },
            {
              "internalType": "string[]",
              "name": "_uriBatch",
              "type": "string[]"
            },
            {
              "components": [
                {
                  "internalType": "bytes32",
                  "name": "_seed",
                  "type": "bytes32"
                },
                {
                  "components": [
                    {
                      "internalType": "uint8",
                      "name": "_typeValue",
                      "type": "uint8"
                    },
                    {
                      "internalType": "uint256",
                      "name": "_max",
                      "type": "uint256"
                    },
                    {
                      "internalType": "uint256",
                      "name": "_min",
                      "type": "uint256"
                    },
                    {
                      "internalType": "uint8",
                      "name": "_decimal",
                      "type": "uint8"
                    },
                    {
                      "internalType": "string[]",
                      "name": "_availableValues",
                      "type": "string[]"
                    },
                    {
                      "internalType": "uint256",
                      "name": "_value",
                      "type": "uint256"
                    },
                    {
                      "internalType": "bool",
                      "name": "_editable",
                      "type": "bool"
                    }
                  ],
                  "internalType": "struct BoilerplateParam.ParamTemplate[]",
                  "name": "_params",
                  "type": "tuple[]"
                }
              ],
              "internalType": "struct BoilerplateParam.ParamsOfProject[]",
              "name": "_paramsBatch",
              "type": "tuple[]"
            }
          ],
          "internalType": "struct IGenerativeBoilerplateNFT.MintRequest",
          "name": "mintBatch",
          "type": "tuple"
        }
      ],
      "name": "mintBatchUniqueNFT",
      "outputs": [],
      "stateMutability": "payable",
      "type": "function"
    },
    {
      "inputs": [
        {
          "internalType": "address",
          "name": "to",
          "type": "address"
        },
        {
          "internalType": "string",
          "name": "projectName",
          "type": "string"
        },
        {
          "internalType": "uint256",
          "name": "maxSupply",
          "type": "uint256"
        },
        {
          "internalType": "uint256",
          "name": "maxNotOwner",
          "type": "uint256"
        },
        {
          "internalType": "string",
          "name": "script",
          "type": "string"
        },
        {
          "internalType": "uint32",
          "name": "scriptType",
          "type": "uint32"
        },
        {
          "internalType": "bool",
          "name": "clientSeed",
          "type": "bool"
        },
        {
          "internalType": "string",
          "name": "uri",
          "type": "string"
        },
        {
          "internalType": "uint256",
          "name": "fee",
          "type": "uint256"
        },
        {
          "internalType": "address",
          "name": "feeAdd",
          "type": "address"
        },
        {
          "components": [
            {
              "internalType": "bytes32",
              "name": "_seed",
              "type": "bytes32"
            },
            {
              "components": [
                {
                  "internalType": "uint8",
                  "name": "_typeValue",
                  "type": "uint8"
                },
                {
                  "internalType": "uint256",
                  "name": "_max",
                  "type": "uint256"
                },
                {
                  "internalType": "uint256",
                  "name": "_min",
                  "type": "uint256"
                },
                {
                  "internalType": "uint8",
                  "name": "_decimal",
                  "type": "uint8"
                },
                {
                  "internalType": "string[]",
                  "name": "_availableValues",
                  "type": "string[]"
                },
                {
                  "internalType": "uint256",
                  "name": "_value",
                  "type": "uint256"
                },
                {
                  "internalType": "bool",
                  "name": "_editable",
                  "type": "bool"
                }
              ],
              "internalType": "struct BoilerplateParam.ParamTemplate[]",
              "name": "_params",
              "type": "tuple[]"
            }
          ],
          "internalType": "struct BoilerplateParam.ParamsOfProject",
          "name": "paramsTemplate",
          "type": "tuple"
        }
      ],
      "name": "mintProject",
      "outputs": [
        {
          "internalType": "uint256",
          "name": "",
          "type": "uint256"
        }
      ],
      "stateMutability": "payable",
      "type": "function"
    },
    {
      "inputs": [],
      "name": "name",
      "outputs": [
        {
          "internalType": "string",
          "name": "",
          "type": "string"
        }
      ],
      "stateMutability": "view",
      "type": "function"
    },
    {
      "inputs": [
        {
          "internalType": "uint256",
          "name": "tokenId",
          "type": "uint256"
        }
      ],
      "name": "ownerOf",
      "outputs": [
        {
          "internalType": "address",
          "name": "",
          "type": "address"
        }
      ],
      "stateMutability": "view",
      "type": "function"
    },
    {
      "inputs": [
        {
          "internalType": "bytes32",
          "name": "seed",
          "type": "bytes32"
        },
        {
          "internalType": "uint256",
          "name": "projectId",
          "type": "uint256"
        }
      ],
      "name": "ownerOfSeed",
      "outputs": [
        {
          "internalType": "address",
          "name": "",
          "type": "address"
        }
      ],
      "stateMutability": "view",
      "type": "function"
    },
    {
      "inputs": [],
      "name": "pause",
      "outputs": [],
      "stateMutability": "nonpayable",
      "type": "function"
    },
    {
      "inputs": [],
      "name": "paused",
      "outputs": [
        {
          "internalType": "bool",
          "name": "",
          "type": "bool"
        }
      ],
      "stateMutability": "view",
      "type": "function"
    },
    {
      "inputs": [
        {
          "internalType": "uint256",
          "name": "projectId",
          "type": "uint256"
        },
        {
          "internalType": "bytes32[]",
          "name": "seeds",
          "type": "bytes32[]"
        }
      ],
      "name": "registerSeeds",
      "outputs": [],
      "stateMutability": "nonpayable",
      "type": "function"
    },
    {
      "inputs": [
        {
          "internalType": "bytes32",
          "name": "role",
          "type": "bytes32"
        },
        {
          "internalType": "address",
          "name": "account",
          "type": "address"
        }
      ],
      "name": "renounceRole",
      "outputs": [],
      "stateMutability": "nonpayable",
      "type": "function"
    },
    {
      "inputs": [
        {
          "internalType": "bytes32",
          "name": "role",
          "type": "bytes32"
        },
        {
          "internalType": "address",
          "name": "account",
          "type": "address"
        }
      ],
      "name": "revokeRole",
      "outputs": [],
      "stateMutability": "nonpayable",
      "type": "function"
    },
    {
      "inputs": [
        {
          "internalType": "uint256",
          "name": "",
          "type": "uint256"
        }
      ],
      "name": "royalties",
      "outputs": [
        {
          "internalType": "address",
          "name": "recipient",
          "type": "address"
        },
        {
          "internalType": "uint24",
          "name": "amount",
          "type": "uint24"
        },
        {
          "internalType": "bool",
          "name": "isValue",
          "type": "bool"
        }
      ],
      "stateMutability": "view",
      "type": "function"
    },
    {
      "inputs": [
        {
          "internalType": "uint256",
          "name": "_tokenId",
          "type": "uint256"
        },
        {
          "internalType": "uint256",
          "name": "_salePrice",
          "type": "uint256"
        }
      ],
      "name": "royaltyInfo",
      "outputs": [
        {
          "internalType": "address",
          "name": "receiver",
          "type": "address"
        },
        {
          "internalType": "uint256",
          "name": "royaltyAmount",
          "type": "uint256"
        }
      ],
      "stateMutability": "view",
      "type": "function"
    },
    {
      "inputs": [
        {
          "internalType": "address",
          "name": "from",
          "type": "address"
        },
        {
          "internalType": "address",
          "name": "to",
          "type": "address"
        },
        {
          "internalType": "uint256",
          "name": "tokenId",
          "type": "uint256"
        }
      ],
      "name": "safeTransferFrom",
      "outputs": [],
      "stateMutability": "nonpayable",
      "type": "function"
    },
    {
      "inputs": [
        {
          "internalType": "address",
          "name": "from",
          "type": "address"
        },
        {
          "internalType": "address",
          "name": "to",
          "type": "address"
        },
        {
          "internalType": "uint256",
          "name": "tokenId",
          "type": "uint256"
        },
        {
          "internalType": "bytes",
          "name": "data",
          "type": "bytes"
        }
      ],
      "name": "safeTransferFrom",
      "outputs": [],
      "stateMutability": "nonpayable",
      "type": "function"
    },
    {
      "inputs": [
        {
          "internalType": "address",
          "name": "operator",
          "type": "address"
        },
        {
          "internalType": "bool",
          "name": "approved",
          "type": "bool"
        }
      ],
      "name": "setApprovalForAll",
      "outputs": [],
      "stateMutability": "nonpayable",
      "type": "function"
    },
    {
      "inputs": [
        {
          "internalType": "address",
          "name": "_to",
          "type": "address"
        },
        {
          "internalType": "uint256",
          "name": "_id",
          "type": "uint256"
        }
      ],
      "name": "setCreator",
      "outputs": [],
      "stateMutability": "nonpayable",
      "type": "function"
    },
    {
      "inputs": [
        {
          "internalType": "uint256",
          "name": "_tokenId",
          "type": "uint256"
        },
        {
          "internalType": "address",
          "name": "_recipient",
          "type": "address"
        },
        {
          "internalType": "uint256",
          "name": "_value",
          "type": "uint256"
        }
      ],
      "name": "setTokenRoyalty",
      "outputs": [],
      "stateMutability": "nonpayable",
      "type": "function"
    },
    {
      "inputs": [
        {
          "internalType": "bytes4",
          "name": "interfaceId",
          "type": "bytes4"
        }
      ],
      "name": "supportsInterface",
      "outputs": [
        {
          "internalType": "bool",
          "name": "",
          "type": "bool"
        }
      ],
      "stateMutability": "view",
      "type": "function"
    },
    {
      "inputs": [],
      "name": "symbol",
      "outputs": [
        {
          "internalType": "string",
          "name": "",
          "type": "string"
        }
      ],
      "stateMutability": "view",
      "type": "function"
    },
    {
      "inputs": [
        {
          "internalType": "uint256",
          "name": "index",
          "type": "uint256"
        }
      ],
      "name": "tokenByIndex",
      "outputs": [
        {
          "internalType": "uint256",
          "name": "",
          "type": "uint256"
        }
      ],
      "stateMutability": "view",
      "type": "function"
    },
    {
      "inputs": [
        {
          "internalType": "address",
          "name": "owner",
          "type": "address"
        },
        {
          "internalType": "uint256",
          "name": "index",
          "type": "uint256"
        }
      ],
      "name": "tokenOfOwnerByIndex",
      "outputs": [
        {
          "internalType": "uint256",
          "name": "",
          "type": "uint256"
        }
      ],
      "stateMutability": "view",
      "type": "function"
    },
    {
      "inputs": [
        {
          "internalType": "uint256",
          "name": "_tokenId",
          "type": "uint256"
        }
      ],
      "name": "tokenURI",
      "outputs": [
        {
          "internalType": "string",
          "name": "",
          "type": "string"
        }
      ],
      "stateMutability": "view",
      "type": "function"
    },
    {
      "inputs": [],
      "name": "totalSupply",
      "outputs": [
        {
          "internalType": "uint256",
          "name": "",
          "type": "uint256"
        }
      ],
      "stateMutability": "view",
      "type": "function"
    },
    {
      "inputs": [
        {
          "internalType": "address",
          "name": "from",
          "type": "address"
        },
        {
          "internalType": "address",
          "name": "to",
          "type": "address"
        },
        {
          "internalType": "uint256",
          "name": "tokenId",
          "type": "uint256"
        }
      ],
      "name": "transferFrom",
      "outputs": [],
      "stateMutability": "nonpayable",
      "type": "function"
    },
    {
      "inputs": [
        {
          "internalType": "address",
          "name": "from",
          "type": "address"
        },
        {
          "internalType": "address",
          "name": "to",
          "type": "address"
        },
        {
          "internalType": "bytes32",
          "name": "seed",
          "type": "bytes32"
        },
        {
          "internalType": "uint256",
          "name": "projectId",
          "type": "uint256"
        }
      ],
      "name": "transferSeed",
      "outputs": [],
      "stateMutability": "nonpayable",
      "type": "function"
    },
    {
      "inputs": [],
      "name": "unpause",
      "outputs": [],
      "stateMutability": "nonpayable",
      "type": "function"
    },
    {
      "inputs": [
        {
          "internalType": "uint256",
          "name": "projectId",
          "type": "uint256"
        },
        {
          "internalType": "uint256",
          "name": "newFee",
          "type": "uint256"
        },
        {
          "internalType": "address",
          "name": "newFeeAddr",
          "type": "address"
        },
        {
          "internalType": "string",
          "name": "newURI",
          "type": "string"
        },
        {
          "internalType": "string",
          "name": "script",
          "type": "string"
        }
      ],
      "name": "updateProject",
      "outputs": [],
      "stateMutability": "nonpayable",
      "type": "function"
    },
    {
      "inputs": [
        {
          "internalType": "address",
          "name": "receiver",
          "type": "address"
        },
        {
          "internalType": "address",
          "name": "erc20Addr",
          "type": "address"
        },
        {
          "internalType": "uint256",
          "name": "amount",
          "type": "uint256"
        }
      ],
      "name": "withdraw",
      "outputs": [],
      "stateMutability": "nonpayable",
      "type": "function"
    }
  ],
  "bytecode": "0x608060405234801561001057600080fd5b50615fd780620000216000396000f3fe6080604052600436106103355760003560e01c80636a627842116101ab578063adfc7dae116100f7578063d539139311610095578063d6d0faee1161006f578063d6d0faee14610a2d578063d9caed1214610a4d578063e63ab1e914610a6d578063e985e9c514610aa157600080fd5b8063d5391393146109c4578063d547741f146109f8578063d547cfb714610a1857600080fd5b8063b88d4fde116100d1578063b88d4fde14610944578063c87b56dd14610964578063c8cb8a7514610984578063ca15c873146109a457600080fd5b8063adfc7dae146108e3578063afdc94db14610904578063b0f4cf931461092457600080fd5b80639010d07c116101645780639713c8071161013e5780639713c8071461086e578063a217fddf1461088e578063a22cb465146108a3578063a6487c53146108c357600080fd5b80639010d07c1461081957806391d148541461083957806395d89b411461085957600080fd5b80636a627842146107095780636e4d0fe61461072457806370a08231146107445780637f77f57414610764578063821f9dc9146107df5780638456cb59146105ca57600080fd5b80632f745c591161028557806346398139116102235780635c975abb116101fd5780635c975abb146106775780636006e9ef1461069057806362fe4e4a146106a35780636352211e146106e957600080fd5b806346398139146106175780634f558e79146106375780634f6ccce71461065757600080fd5b806336bd9e631161025f57806336bd9e63146105915780633f4ba83a146105ca57806342842e0e146105d957806342966c68146105f957600080fd5b80632f745c591461053e57806335055e901461055e57806336568abe1461057157600080fd5b806318160ddd116102f257806323b872dd116102cc57806323b872dd1461048f578063248a9ca3146104af5780632a55205a146104df5780632f2ff15d1461051e57600080fd5b806318160ddd1461042c578063189c168d1461044f5780631acfd02a1461046f57600080fd5b806301bc45c91461033a57806301ffc9a71461037857806306fdde03146103a8578063081812fc146103ca578063095ea7b3146103ea5780631697eccf1461040c575b600080fd5b34801561034657600080fd5b506102275461035b906001600160a01b031681565b6040516001600160a01b0390911681526020015b60405180910390f35b34801561038457600080fd5b5061039861039336600461476e565b610aea565b604051901515815260200161036f565b3480156103b457600080fd5b506103bd610afb565b60405161036f91906147e3565b3480156103d657600080fd5b5061035b6103e53660046147f6565b610b8d565b3480156103f657600080fd5b5061040a61040536600461482f565b610bb4565b005b34801561041857600080fd5b5061035b61042736600461485b565b610ccf565b34801561043857600080fd5b50610441610d0b565b60405190815260200161036f565b34801561045b57600080fd5b5061040a61046a366004614952565b610d1c565b34801561047b57600080fd5b5061040a61048a3660046149f3565b610e2a565b34801561049b57600080fd5b5061040a6104aa366004614a2c565b610f0b565b3480156104bb57600080fd5b506104416104ca3660046147f6565b60009081526065602052604090206001015490565b3480156104eb57600080fd5b506104ff6104fa36600461485b565b610f3c565b604080516001600160a01b03909316835260208301919091520161036f565b34801561052a57600080fd5b5061040a610539366004614a6d565b61100a565b34801561054a57600080fd5b5061044161055936600461482f565b61102f565b61044161056c366004614b4e565b6110c5565b34801561057d57600080fd5b5061040a61058c366004614a6d565b6116d2565b34801561059d57600080fd5b506104416105ac3660046149f3565b61022c60209081526000928352604080842090915290825290205481565b3480156105d657600080fd5b50005b3480156105e557600080fd5b5061040a6105f4366004614a2c565b611750565b34801561060557600080fd5b5061040a6106143660046147f6565b50565b34801561062357600080fd5b5061040a61063236600461485b565b61176b565b34801561064357600080fd5b506103986106523660046147f6565b6118c8565b34801561066357600080fd5b506104416106723660046147f6565b6118d3565b34801561068357600080fd5b5061015f5460ff16610398565b61040a61069e366004614d07565b611966565b3480156106af57600080fd5b5061040a6106be36600461482f565b33600090815261022c602090815260408083206001600160a01b039590951683529390529190912055565b3480156106f557600080fd5b5061035b6107043660046147f6565b6124cc565b34801561071557600080fd5b5061040a610614366004614fca565b34801561073057600080fd5b5061040a61073f366004614fe7565b61252c565b34801561075057600080fd5b5061044161075f366004614fca565b6125da565b34801561077057600080fd5b506107b461077f3660046147f6565b61022e602052600090815260409020546001600160a01b03811690600160a01b810462ffffff1690600160b81b900460ff1683565b604080516001600160a01b03909416845262ffffff909216602084015215159082015260600161036f565b3480156107eb57600080fd5b506107ff6107fa3660046147f6565b612660565b60405161036f9e9d9c9b9a99989796959493929190615141565b34801561082557600080fd5b5061035b61083436600461485b565b612a25565b34801561084557600080fd5b50610398610854366004614a6d565b612a3d565b34801561086557600080fd5b506103bd612a68565b34801561087a57600080fd5b5061040a61088936600461520e565b612a77565b34801561089a57600080fd5b50610441600081565b3480156108af57600080fd5b5061040a6108be366004615235565b612bc8565b3480156108cf57600080fd5b5061040a6108de366004615263565b612bd3565b3480156108ef57600080fd5b506102285461035b906001600160a01b031681565b34801561091057600080fd5b5061040a61091f3660046152ea565b612c9f565b34801561093057600080fd5b5061039861093f366004615373565b612d75565b34801561095057600080fd5b5061040a61095f3660046153a8565b612de6565b34801561097057600080fd5b506103bd61097f3660046147f6565b612e18565b34801561099057600080fd5b5061040a61099f36600461482f565b612f21565b3480156109b057600080fd5b506104416109bf3660046147f6565b612fbf565b3480156109d057600080fd5b506104417f9f2df0fed2c77648de5860a4cc508cd0818c85b8b8a1ab4ceeef8d981c8956a681565b348015610a0457600080fd5b5061040a610a13366004614a6d565b612fd6565b348015610a2457600080fd5b506103bd612ffb565b348015610a3957600080fd5b5061040a610a48366004615427565b613005565b348015610a5957600080fd5b5061040a610a68366004614a2c565b6131a1565b348015610a7957600080fd5b506104417f65d7a28e3265b37a6474929f336521b332c1681b933f6cb9f3376673440d862a81565b348015610aad57600080fd5b50610398610abc3660046149f3565b6001600160a01b03918216600090815260ce6020908152604080832093909416825291909152205460ff1690565b6000610af582613371565b92915050565b606060c98054610b0a906154d6565b80601f0160208091040260200160405190810160405280929190818152602001828054610b36906154d6565b8015610b835780601f10610b5857610100808354040283529160200191610b83565b820191906000526020600020905b815481529060010190602001808311610b6657829003601f168201915b5050505050905090565b6000610b9882613396565b50600090815260cd60205260409020546001600160a01b031690565b6000610bbf826124cc565b9050806001600160a01b0316836001600160a01b03161415610c325760405162461bcd60e51b815260206004820152602160248201527f4552433732313a20617070726f76616c20746f2063757272656e74206f776e656044820152603960f91b60648201526084015b60405180910390fd5b336001600160a01b0382161480610c4e5750610c4e8133610abc565b610cc05760405162461bcd60e51b815260206004820152603e60248201527f4552433732313a20617070726f76652063616c6c6572206973206e6f7420746f60448201527f6b656e206f776e6572206e6f7220617070726f76656420666f7220616c6c00006064820152608401610c29565b610cca83836133e6565b505050565b600082815261022b602090815260408083208484529091528120546001600160a01b031680610d04578360601c915050610af5565b9392505050565b6000610d176102295490565b905090565b600082815261022a602052604090206008015460ff168015610d425750610d4282613454565b610d4b57600080fd5b60005b8151811015610cca5760006001600160a01b031661022b6000848481518110610d7957610d7961550b565b602090810291909101810151825281810192909252604090810160009081208782529092529020546001600160a01b031614610db457600080fd5b3361022b6000848481518110610dcc57610dcc61550b565b60200260200101518152602001908152602001600020600085815260200190815260200160002060006101000a8154816001600160a01b0302191690836001600160a01b031602179055508080610e2290615537565b915050610d4e565b610227546001600160a01b031633148015610e4b5750610e4b600033612a3d565b8015610e5f57506001600160a01b03821615155b6040518060400160405280600381526020016231303160e81b81525090610e995760405162461bcd60e51b8152600401610c2991906147e3565b5061022780546001600160a01b038481166001600160a01b0319831681179093551690610ec89060009061100a565b610ed3600082612fd6565b6001600160a01b038216610ee657600080fd5b5061022880546001600160a01b0319166001600160a01b039290921691909117905550565b610f153382613471565b610f315760405162461bcd60e51b8152600401610c2990615552565b610cca8383836134f0565b600082815261022e60209081526040808320815160608101835290546001600160a01b0381168252600160a01b810462ffffff1693820193909352600160b81b90920460ff1615801591830191909152829190610fc1578051602082015190935061271090610fb09062ffffff16866155a0565b610fba91906155d5565b9150611002565b600085815261022a6020526040902060050154600160201b90046001600160a01b03169250612710610ff5856101f46155a0565b610fff91906155d5565b91505b509250929050565b60008281526065602052604090206001015461102581613697565b610cca83836136a1565b600061103a836125da565b821061109c5760405162461bcd60e51b815260206004820152602b60248201527f455243373231456e756d657261626c653a206f776e657220696e646578206f7560448201526a74206f6620626f756e647360a81b6064820152608401610c29565b506001600160a01b0391909116600090815260fb60209081526040808320938352929052205490565b600060026101f55414156110eb5760405162461bcd60e51b8152600401610c29906155e9565b60026101f5558a516040805180820190915260038082526203230360ec1b602083015290911161112e5760405162461bcd60e51b8152600401610c2991906147e3565b5061113e61022980546001019055565b600061114a6102295490565b905061115581613454565b156040518060400160405280600381526020016219181960e91b815250906111905760405162461bcd60e51b8152600401610c2991906147e3565b5061022854610227546001600160a01b039182169116331461137f5760408051808201825260128152714352454154455f50524f4a4543545f46454560701b60208201529051636d12dce160e01b81526000916001600160a01b03841691636d12dce191611200916004016147e3565b602060405180830381865afa15801561121d573d6000803e3d6000fd5b505050506040513d601f19601f820116820180604052508101906112419190615620565b9050801561137d5760408051808201825260098152682322a2afaa27a5a2a760b91b6020820152905163bf40fac160e01b81526000916001600160a01b0385169163bf40fac191611294916004016147e3565b602060405180830381865afa1580156112b1573d6000803e3d6000fd5b505050506040513d601f19601f820116820180604052508101906112d59190615639565b90506001600160a01b0381161561136e576040516323b872dd60e01b81523360048201523060248201526044810183905281906001600160a01b038216906323b872dd906064016020604051808303816000875af115801561133b573d6000803e3d6000fd5b505050506040513d601f19601f8201168201806040525081019061135f9190615656565b61136857600080fd5b5061137b565b8134101561137b57600080fd5b505b505b8651156113ae57600082815261022a6020908152604090912088516113ac926006909201918a01906146bf565b505b8c61022a600084815260200190815260200160002060070190805190602001906113d99291906146bf565b5061022754600083815261022a60205260409020600581018054640100000000600160c01b0319166001600160a01b03938416600160201b02179055600281018e9055600c81018d90558781556001810180546001600160a01b03191692881692909217909155849060090161144f8282615a24565b5050600082815261022a602090815260409091208b51611477926004909201918d01906146bf565b50600082815261022a6020526040902060058101805463ffffffff191663ffffffff8c16179055600801805460ff19168915151790556114b78e836136c3565b604080518082018252601781527f47454e455241544956455f4e46545f54454d504c4154450000000000000000006020820152905163bf40fac160e01b8152600091611561916001600160a01b0385169163bf40fac19161151b91906004016147e3565b602060405180830381865afa158015611538573d6000803e3d6000fd5b505050506040513d601f19601f8201168201806040525081019061155c9190615639565b6136dd565b600084815261022a60205260409020600701805491925082916001600160a01b0383169163ae3dd095916116239060019060039084906115a0906154d6565b80601f01602080910402602001604051908101604052809291908181526020018280546115cc906154d6565b80156116195780601f106115ee57610100808354040283529160200191611619565b820191906000526020600020905b8154815290600101906020018083116115fc57829003601f168201915b5050505050613775565b610227546040516001600160e01b031960e086901b1681526116579392916001600160a01b03169030908b90600401615b42565b600060405180830381600087803b15801561167157600080fd5b505af1158015611685573d6000803e3d6000fd5b505050600085815261022a60205260409020600b0180546001600160a01b0319166001600160a01b039490941693909317909255505060016101f555509c9b505050505050505050505050565b6001600160a01b03811633146117425760405162461bcd60e51b815260206004820152602f60248201527f416363657373436f6e74726f6c3a2063616e206f6e6c792072656e6f756e636560448201526e103937b632b9903337b91039b2b63360891b6064820152608401610c29565b61174c828261385b565b5050565b610cca83838360405180602001604052806000815250612de6565b600082815261022a602052604090206008015460ff16158015611792575061179282613454565b61179b57600080fd5b600080826001600160401b038111156117b6576117b661487d565b6040519080825280602002602001820160405280156117df578160200160208202803683370190505b50905060005b83811015611886576117f833868361387d565b600081815261022b602090815260408083208984529091529020549093506001600160a01b03161561182957600080fd5b600083815261022b60209081526040808320888452909152902080546001600160a01b03191633179055815183908390839081106118695761186961550b565b60209081029190910101528061187e81615537565b9150506117e5565b507feac055ed8b84f6ed7b96c917e1a500965c90467998c41630ebabcc5bc99b306b3385836040516118ba93929190615c06565b60405180910390a150505050565b6000610af582613454565b60006118de60fd5490565b82106119415760405162461bcd60e51b815260206004820152602c60248201527f455243373231456e756d657261626c653a20676c6f62616c20696e646578206f60448201526b7574206f6620626f756e647360a01b6064820152608401610c29565b60fd82815481106119545761195461550b565b90600052602060002001549050919050565b60026101f554141561198a5760405162461bcd60e51b8152600401610c29906155e9565b60026101f58190558151600090815261022a6020908152604080832081516101c0810183528154815260018201546001600160a01b031693810193909352938401549082015260038301546060820152600483018054929391926080840191906119f3906154d6565b80601f0160208091040260200160405190810160405280929190818152602001828054611a1f906154d6565b8015611a6c5780601f10611a4157610100808354040283529160200191611a6c565b820191906000526020600020905b815481529060010190602001808311611a4f57829003601f168201915b5050509183525050600582015463ffffffff81166020830152600160201b90046001600160a01b03166040820152600682018054606090920191611aaf906154d6565b80601f0160208091040260200160405190810160405280929190818152602001828054611adb906154d6565b8015611b285780601f10611afd57610100808354040283529160200191611b28565b820191906000526020600020905b815481529060010190602001808311611b0b57829003601f168201915b50505050508152602001600782018054611b41906154d6565b80601f0160208091040260200160405190810160405280929190818152602001828054611b6d906154d6565b8015611bba5780601f10611b8f57610100808354040283529160200191611bba565b820191906000526020600020905b815481529060010190602001808311611b9d57829003601f168201915b5050509183525050600882015460ff1615156020808301919091526040805180820182526009850180548252600a86018054845181870281018701865281815294909601959294919385830193909260009084015b82821015611d5e57600084815260208082206040805160e08101825260078702909201805460ff9081168452600182015484860152600282015484840152600382015416606084015260048101805483518187028101870190945280845293959194608087019491929084015b82821015611d28578382906000526020600020018054611c9b906154d6565b80601f0160208091040260200160405190810160405280929190818152602001828054611cc7906154d6565b8015611d145780601f10611ce957610100808354040283529160200191611d14565b820191906000526020600020905b815481529060010190602001808311611cf757829003601f168201915b505050505081526020019060010190611c7c565b50505090825250600582015460208083019190915260069092015460ff1615156040909101529082526001929092019101611c0f565b505050915250508152600b8201546001600160a01b03166020820152600c820154604080830191909152600d909201546060909101528301515190915015801590611db25750816060015151826040015151145b604051806040016040528060038152602001620c8c0d60ea1b81525090611dec5760405162461bcd60e51b8152600401610c2991906147e3565b5060408101511580611e16575080604001518260400151518260600151611e139190615c63565b11155b6040518060400160405280600381526020016232303360e81b81525090611e505760405162461bcd60e51b8152600401610c2991906147e3565b5061018081015115611eb1578151611e67906124cc565b6001600160a01b0316336001600160a01b031614611eb157816040015151816101a001818151611e979190615c63565b9052506101808101516101a08201511115611eb157600080fd5b8051801561217f5782513390611ec6906124cc565b6001600160a01b03161461217f57610228546040840151516001600160a01b0390911690611ef490836155a0565b604080518082018252600c81526b4d494e545f4e46545f46454560a01b60208201529051636d12dce160e01b81529193506000916001600160a01b03841691636d12dce191611f4691906004016147e3565b602060405180830381865afa158015611f63573d6000803e3d6000fd5b505050506040513d601f19601f82011682018060405250810190611f879190615620565b905080611f9357506101f45b60208401516001600160a01b03166120405782341015611fb257600080fd5b6000611fc186600001516124cc565b6001600160a01b0316612710611fd784876155a0565b611fe191906155d5565b611feb9086615c7b565b604051600081818185875af1925050503d8060008114612027576040519150601f19603f3d011682016040523d82523d6000602084013e61202c565b606091505b505090508061203a57600080fd5b5061217c565b60208401516040516323b872dd60e01b8152336004820152306024820152604481018590526001600160a01b038216906323b872dd906064016020604051808303816000875af1158015612098573d6000803e3d6000fd5b505050506040513d601f19601f820116820180604052508101906120bc9190615656565b6120c557600080fd5b806001600160a01b031663a9059cbb6120e188600001516124cc565b6127106120ee86896155a0565b6120f891906155d5565b6121029088615c7b565b6040516001600160e01b031960e085901b1681526001600160a01b03909216600483015260248201526044016020604051808303816000875af115801561214d573d6000803e3d6000fd5b505050506040513d601f19601f820116820180604052508101906121719190615656565b61217a57600080fd5b505b50505b8251600090815261022a60205260408120600b01546001600160a01b0316905b84606001515181101561248657846060015181815181106121c2576121c261550b565b602090810291909101810151810151518651600090815261022a8352604090819020600a0154815180830190925260038252620c8c0d60ea1b9382019390935291146122215760405162461bcd60e51b8152600401610c2991906147e3565b5060008560600151828151811061223a5761223a61550b565b60209081029190910181015151600081815261022d835260408082208a518352845290819020548151808301909252600382526232303560e81b93820193909352909250901561229d5760405162461bcd60e51b8152600401610c2991906147e3565b508551600090815261022a602052604090206008015460ff1661231357855133906122c9908390610ccf565b6001600160a01b0316146040518060400160405280600381526020016232303560e81b8152509061230d5760405162461bcd60e51b8152600401610c2991906147e3565b5061236e565b600081815261022b60209081526040808320895184529091529020546001600160a01b03161561234257600080fd5b600081815261022b6020908152604080832089518452909152902080546001600160a01b031916331790555b826001600160a01b0316637d763613876020015161022760009054906101000a90046001600160a01b0316896040015186815181106123af576123af61550b565b60200260200101518a6060015187815181106123cd576123cd61550b565b60200260200101516040518563ffffffff1660e01b81526004016123f49493929190615c92565b600060405180830381600087803b15801561240e57600080fd5b505af1158015612422573d6000803e3d6000fd5b505050506001856060018181516124399190615c63565b9052506060850180518751600090815261022a6020908152604080832060030193909355925193815261022d8352818120895182529092529020558061247e81615537565b91505061219f565b507f67175103d209cf669be17e253aba378479477b5a1ef3b1e9eaedce52f0ebab5433856040516124b8929190615cdb565b60405180910390a1505060016101f5555050565b600081815260cb60205260408120546001600160a01b031680610af55760405162461bcd60e51b8152602060048201526018602482015277115490cdcc8c4e881a5b9d985b1a59081d1bdad95b88125160421b6044820152606401610c29565b600082815261022d602090815260408083208484529091529020541580159061255b575061255b338383612d75565b80156125825750836001600160a01b03166125768383610ccf565b6001600160a01b031614155b801561259657506001600160a01b03831615155b61259f57600080fd5b600091825261022b60209081526040808420928452919052902080546001600160a01b0319166001600160a01b039290921691909117905550565b60006001600160a01b0382166126445760405162461bcd60e51b815260206004820152602960248201527f4552433732313a2061646472657373207a65726f206973206e6f7420612076616044820152683634b21037bbb732b960b91b6064820152608401610c29565b506001600160a01b0316600090815260cc602052604090205490565b61022a602052600090815260409020805460018201546002830154600384015460048501805494956001600160a01b0390941694929391926126a1906154d6565b80601f01602080910402602001604051908101604052809291908181526020018280546126cd906154d6565b801561271a5780601f106126ef5761010080835404028352916020019161271a565b820191906000526020600020905b8154815290600101906020018083116126fd57829003601f168201915b505050506005830154600684018054939463ffffffff831694600160201b9093046001600160a01b0316935091612750906154d6565b80601f016020809104026020016040519081016040528092919081815260200182805461277c906154d6565b80156127c95780601f1061279e576101008083540402835291602001916127c9565b820191906000526020600020905b8154815290600101906020018083116127ac57829003601f168201915b5050505050908060070180546127de906154d6565b80601f016020809104026020016040519081016040528092919081815260200182805461280a906154d6565b80156128575780601f1061282c57610100808354040283529160200191612857565b820191906000526020600020905b81548152906001019060200180831161283a57829003601f168201915b5050505050908060080160009054906101000a900460ff1690806009016040518060400160405290816000820154815260200160018201805480602002602001604051908101604052809291908181526020016000905b828210156129fd57600084815260208082206040805160e08101825260078702909201805460ff9081168452600182015484860152600282015484840152600382015416606084015260048101805483518187028101870190945280845293959194608087019491929084015b828210156129c757838290600052602060002001805461293a906154d6565b80601f0160208091040260200160405190810160405280929190818152602001828054612966906154d6565b80156129b35780601f10612988576101008083540402835291602001916129b3565b820191906000526020600020905b81548152906001019060200180831161299657829003601f168201915b50505050508152602001906001019061291b565b50505090825250600582015460208083019190915260069092015460ff16151560409091015290825260019290920191016128ae565b50505091525050600b820154600c830154600d9093015491926001600160a01b03909116918e565b6000828152609760205260408120610d0490836138dd565b60009182526065602090815260408084206001600160a01b0393909316845291905290205460ff1690565b606060ca8054610b0a906154d6565b610227546001600160a01b0316336001600160a01b0316146040518060400160405280600381526020016231303160e81b81525090612ac95760405162461bcd60e51b8152600401610c2991906147e3565b50612ad5600033612a3d565b6040518060400160405280600381526020016231303160e81b81525090612b0f5760405162461bcd60e51b8152600401610c2991906147e3565b5060408051808201909152600381526232303360e81b6020820152612710821115612b4d5760405162461bcd60e51b8152600401610c2991906147e3565b50604080516060810182526001600160a01b03938416815262ffffff92831660208083019182526001838501908152600097885261022e90915292909520905181549551925194166001600160b81b031990951694909417600160a01b91909216021760ff60b81b1916600160b81b91151591909102179055565b61174c3383836138e9565b600054610100900460ff1615808015612bf35750600054600160ff909116105b80612c0d5750303b158015612c0d575060005460ff166001145b612c295760405162461bcd60e51b8152600401610c2990615d77565b6000805460ff191660011790558015612c4c576000805461ff0019166101001790555b612c578484846139b8565b8015612c99576000805461ff0019169055604051600181527f7f26b83ff96e1f2b6a682f133852f6798a09c465da95921460cefb3847402498906020016118ba565b50505050565b600085815261022a6020908152604091829020600501548251808401909352600383526218981960e91b91830191909152600160201b90046001600160a01b03163314612cff5760405162461bcd60e51b8152600401610c2991906147e3565b50600085815261022a602090815260409091208581556001810180546001600160a01b0319166001600160a01b0387161790558351612d46926006909201918501906146bf565b50600085815261022a602090815260409091208251612d6d926004909201918401906146bf565b505050505050565b6000836001600160a01b0316612d8b8484610ccf565b6001600160a01b03161415612da257506001610d04565b8161022c6000612db28686610ccf565b6001600160a01b03908116825260208083019390935260409182016000908120918916815292529020541490509392505050565b612df03383613471565b612e0c5760405162461bcd60e51b8152600401610c2990615552565b612c99848484846139fc565b600081815261022a6020526040812060060180546060929190612e3a906154d6565b90501115612ee457600082815261022a602052604090206006018054612e5f906154d6565b80601f0160208091040260200160405190810160405280929190818152602001828054612e8b906154d6565b8015612ed85780601f10612ead57610100808354040283529160200191612ed8565b820191906000526020600020905b815481529060010190602001808311612ebb57829003601f168201915b50505050509050919050565b612eec612ffb565b612ef583613a2f565b604051602001612f06929190615dc5565b6040516020818303038152906040529050919050565b919050565b600081815261022a6020908152604091829020600501548251808401909352600383526218981960e91b91830191909152600160201b90046001600160a01b03163314612f815760405162461bcd60e51b8152600401610c2991906147e3565b50600090815261022a6020526040902060050180546001600160a01b03909216600160201b02640100000000600160c01b0319909216919091179055565b6000818152609760205260408120610af590613b2c565b600082815260656020526040902060010154612ff181613697565b610cca838361385b565b6060610d17613b36565b600054610100900460ff16158080156130255750600054600160ff909116105b8061303f5750303b15801561303f575060005460ff166001145b61305b5760405162461bcd60e51b8152600401610c2990615d77565b6000805460ff19166001179055801561307e576000805461ff0019166101001790555b60408051808201909152600381526203130360ec1b60208201526001600160a01b0384166130bf5760405162461bcd60e51b8152600401610c2991906147e3565b5060408051808201909152600381526203130360ec1b60208201526001600160a01b0383166131015760405162461bcd60e51b8152600401610c2991906147e3565b5061310d8686866139b8565b61022880546001600160a01b038085166001600160a01b031992831617909255610227805492861692909116821790556131499060009061100a565b613154600033612fd6565b8015612d6d576000805461ff0019169055604051600181527f7f26b83ff96e1f2b6a682f133852f6798a09c465da95921460cefb38474024989060200160405180910390a1505050505050565b60026101f55414156131c55760405162461bcd60e51b8152600401610c29906155e9565b60026101f555610227546001600160a01b0316336001600160a01b0316146040518060400160405280600381526020016231303160e81b8152509061321d5760405162461bcd60e51b8152600401610c2991906147e3565b50613229600033612a3d565b6040518060400160405280600381526020016231303160e81b815250906132635760405162461bcd60e51b8152600401610c2991906147e3565b5060006001600160a01b0383166132e4578147101561328157600080fd5b6040516001600160a01b038516908390600081818185875af1925050503d80600081146132ca576040519150601f19603f3d011682016040523d82523d6000602084013e6132cf565b606091505b505080915050806132df57600080fd5b613365565b60405163a9059cbb60e01b81526001600160a01b0385811660048301526024820184905284919082169063a9059cbb906044016020604051808303816000875af1158015613336573d6000803e3d6000fd5b505050506040513d601f19601f8201168201806040525081019061335a9190615656565b61336357600080fd5b505b505060016101f5555050565b60006001600160e01b0319821663780e9d6360e01b1480610af55750610af582613b46565b61339f81613454565b6106145760405162461bcd60e51b8152602060048201526018602482015277115490cdcc8c4e881a5b9d985b1a59081d1bdad95b88125160421b6044820152606401610c29565b600081815260cd6020526040902080546001600160a01b0319166001600160a01b038416908117909155819061341b826124cc565b6001600160a01b03167f8c5be1e5ebec7d5bd14f71427d1e84f3dd0314c0f7b2291e5b200ac8c7c3b92560405160405180910390a45050565b600090815260cb60205260409020546001600160a01b0316151590565b60008061347d836124cc565b9050806001600160a01b0316846001600160a01b031614806134c457506001600160a01b03808216600090815260ce602090815260408083209388168352929052205460ff165b806134e85750836001600160a01b03166134dd84610b8d565b6001600160a01b0316145b949350505050565b826001600160a01b0316613503826124cc565b6001600160a01b0316146135675760405162461bcd60e51b815260206004820152602560248201527f4552433732313a207472616e736665722066726f6d20696e636f72726563742060448201526437bbb732b960d91b6064820152608401610c29565b6001600160a01b0382166135c95760405162461bcd60e51b8152602060048201526024808201527f4552433732313a207472616e7366657220746f20746865207a65726f206164646044820152637265737360e01b6064820152608401610c29565b6135d4838383613b86565b6135df6000826133e6565b6001600160a01b038316600090815260cc60205260408120805460019290613608908490615c7b565b90915550506001600160a01b038216600090815260cc60205260408120805460019290613636908490615c63565b9091555050600081815260cb602052604080822080546001600160a01b0319166001600160a01b0386811691821790925591518493918716917fddf252ad1be2c89b69c2b068fc378daa952ba7f163c4a11628f55a4df523b3ef91a4505050565b6106148133613b91565b6136ab8282613bf5565b6000828152609760205260409020610cca9082613c7b565b61174c828260405180602001604052806000815250613c90565b6000604051733d602d80600a3d3981f3363d3d373d3d3d363d7360601b81528260601b60148201526e5af43d82803e903d91602b57fd5bf360881b60288201526037816000f09150506001600160a01b038116612f1c5760405162461bcd60e51b8152602060048201526016602482015275115490cc4c4d8dce8818dc99585d194819985a5b195960521b6044820152606401610c29565b606060006137838585615c7b565b61378e906001615c63565b6001600160401b038111156137a5576137a561487d565b6040519080825280601f01601f1916602001820160405280156137cf576020820181803683370190505b50905060005b6137df8686615c7b565b8111613852578360016137f28884615c63565b6137fc9190615c7b565b8151811061380c5761380c61550b565b602001015160f81c60f81b8282815181106138295761382961550b565b60200101906001600160f81b031916908160001a9053508061384a81615537565b9150506137d5565b50949350505050565b6138658282613cc3565b6000828152609760205260409020610cca9082613d2a565b600061388a600143615c7b565b60408051914060208301526bffffffffffffffffffffffff19606087901b169082015260548101849052607481018390526094016040516020818303038152906040528051906020012090509392505050565b6000610d048383613d3f565b816001600160a01b0316836001600160a01b0316141561394b5760405162461bcd60e51b815260206004820152601960248201527f4552433732313a20617070726f766520746f2063616c6c6572000000000000006044820152606401610c29565b6001600160a01b03838116600081815260ce6020908152604080832094871680845294825291829020805460ff191686151590811790915591519182527f17307eab39ab6107e8899845ad3d59bd9653f200f220920489ca2b5937696c31910160405180910390a3505050565b600054610100900460ff166139df5760405162461bcd60e51b8152600401610c2990615df4565b6139e98383613d69565b6139f1613db7565b610cca838383613deb565b613a078484846134f0565b613a1384848484613e86565b612c995760405162461bcd60e51b8152600401610c2990615e3f565b606081613a535750506040805180820190915260018152600360fc1b602082015290565b8160005b8115613a7d5780613a6781615537565b9150613a769050600a836155d5565b9150613a57565b6000816001600160401b03811115613a9757613a9761487d565b6040519080825280601f01601f191660200182016040528015613ac1576020820181803683370190505b5090505b84156134e857613ad6600183615c7b565b9150613ae3600a86615e91565b613aee906030615c63565b60f81b818381518110613b0357613b0361550b565b60200101906001600160f81b031916908160001a905350613b25600a866155d5565b9450613ac5565b6000610af5825490565b60606101c48054610b0a906154d6565b60006001600160e01b031982166380ac58cd60e01b1480613b7757506001600160e01b03198216635b5e139f60e01b145b80610af55750610af582613f84565b610cca838383613fa9565b613b9b8282612a3d565b61174c57613bb3816001600160a01b0316601461401c565b613bbe83602061401c565b604051602001613bcf929190615ea5565b60408051601f198184030181529082905262461bcd60e51b8252610c29916004016147e3565b613bff8282612a3d565b61174c5760008281526065602090815260408083206001600160a01b03851684529091529020805460ff19166001179055613c373390565b6001600160a01b0316816001600160a01b0316837f2f8788117e7eff1d82e926ec794901d17c78024a50270940304540a733656f0d60405160405180910390a45050565b6000610d04836001600160a01b0384166141b7565b613c9a8383614206565b613ca76000848484613e86565b610cca5760405162461bcd60e51b8152600401610c2990615e3f565b613ccd8282612a3d565b1561174c5760008281526065602090815260408083206001600160a01b0385168085529252808320805460ff1916905551339285917ff6391f5c32d9c69d2a47ea670b442974b53935d1edc7fd64eb21e047a839171b9190a45050565b6000610d04836001600160a01b038416614345565b6000826000018281548110613d5657613d5661550b565b9060005260206000200154905092915050565b600054610100900460ff16613d905760405162461bcd60e51b8152600401610c2990615df4565b8151613da39060c99060208501906146bf565b508051610cca9060ca9060208401906146bf565b600054610100900460ff16613dde5760405162461bcd60e51b8152600401610c2990615df4565b61015f805460ff19169055565b600054610100900460ff16613e125760405162461bcd60e51b8152600401610c2990615df4565b8051613e26906101c49060208401906146bf565b50613e32600033614438565b613e5c7f9f2df0fed2c77648de5860a4cc508cd0818c85b8b8a1ab4ceeef8d981c8956a633614438565b610cca7f65d7a28e3265b37a6474929f336521b332c1681b933f6cb9f3376673440d862a33614438565b60006001600160a01b0384163b15613f7957604051630a85bd0160e11b81526001600160a01b0385169063150b7a0290613eca903390899088908890600401615f1a565b6020604051808303816000875af1925050508015613f05575060408051601f3d908101601f19168201909252613f0291810190615f57565b60015b613f5f573d808015613f33576040519150601f19603f3d011682016040523d82523d6000602084013e613f38565b606091505b508051613f575760405162461bcd60e51b8152600401610c2990615e3f565b805181602001fd5b6001600160e01b031916630a85bd0160e11b1490506134e8565b506001949350505050565b60006001600160e01b03198216635a05180f60e01b1480610af55750610af582614442565b613fb4838383614477565b61015f5460ff1615610cca5760405162461bcd60e51b815260206004820152602b60248201527f4552433732315061757361626c653a20746f6b656e207472616e73666572207760448201526a1a1a5b19481c185d5cd95960aa1b6064820152608401610c29565b6060600061402b8360026155a0565b614036906002615c63565b6001600160401b0381111561404d5761404d61487d565b6040519080825280601f01601f191660200182016040528015614077576020820181803683370190505b509050600360fc1b816000815181106140925761409261550b565b60200101906001600160f81b031916908160001a905350600f60fb1b816001815181106140c1576140c161550b565b60200101906001600160f81b031916908160001a90535060006140e58460026155a0565b6140f0906001615c63565b90505b6001811115614168576f181899199a1a9b1b9c1cb0b131b232b360811b85600f16601081106141245761412461550b565b1a60f81b82828151811061413a5761413a61550b565b60200101906001600160f81b031916908160001a90535060049490941c9361416181615f74565b90506140f3565b508315610d045760405162461bcd60e51b815260206004820181905260248201527f537472696e67733a20686578206c656e67746820696e73756666696369656e746044820152606401610c29565b60008181526001830160205260408120546141fe57508154600181810184556000848152602080822090930184905584548482528286019093526040902091909155610af5565b506000610af5565b6001600160a01b03821661425c5760405162461bcd60e51b815260206004820181905260248201527f4552433732313a206d696e7420746f20746865207a65726f20616464726573736044820152606401610c29565b61426581613454565b156142b25760405162461bcd60e51b815260206004820152601c60248201527f4552433732313a20746f6b656e20616c7265616479206d696e746564000000006044820152606401610c29565b6142be60008383613b86565b6001600160a01b038216600090815260cc602052604081208054600192906142e7908490615c63565b9091555050600081815260cb602052604080822080546001600160a01b0319166001600160a01b03861690811790915590518392907fddf252ad1be2c89b69c2b068fc378daa952ba7f163c4a11628f55a4df523b3ef908290a45050565b6000818152600183016020526040812054801561442e576000614369600183615c7b565b855490915060009061437d90600190615c7b565b90508181146143e257600086600001828154811061439d5761439d61550b565b90600052602060002001549050808760000184815481106143c0576143c061550b565b6000918252602080832090910192909255918252600188019052604090208390555b85548690806143f3576143f3615f8b565b600190038181906000526020600020016000905590558560010160008681526020019081526020016000206000905560019350505050610af5565b6000915050610af5565b61174c82826136a1565b60006001600160e01b03198216637965db0b60e01b1480610af557506301ffc9a760e01b6001600160e01b0319831614610af5565b6001600160a01b0383166144d2576144cd8160fd8054600083815260fe60205260408120829055600182018355919091527f9346ac6dd7de6b96975fec380d4d994c4c12e6a8897544f22915316cc6cca2800155565b6144f5565b816001600160a01b0316836001600160a01b0316146144f5576144f5838261452f565b6001600160a01b03821661450c57610cca816145cc565b826001600160a01b0316826001600160a01b031614610cca57610cca828261467b565b6000600161453c846125da565b6145469190615c7b565b600083815260fc6020526040902054909150808214614599576001600160a01b038416600090815260fb60209081526040808320858452825280832054848452818420819055835260fc90915290208190555b50600091825260fc602090815260408084208490556001600160a01b03909416835260fb81528383209183525290812055565b60fd546000906145de90600190615c7b565b600083815260fe602052604081205460fd80549394509092849081106146065761460661550b565b906000526020600020015490508060fd83815481106146275761462761550b565b600091825260208083209091019290925582815260fe909152604080822084905585825281205560fd80548061465f5761465f615f8b565b6001900381819060005260206000200160009055905550505050565b6000614686836125da565b6001600160a01b03909316600090815260fb60209081526040808320868452825280832085905593825260fc9052919091209190915550565b8280546146cb906154d6565b90600052602060002090601f0160209004810192826146ed5760008555614733565b82601f1061470657805160ff1916838001178555614733565b82800160010185558215614733579182015b82811115614733578251825591602001919060010190614718565b5061473f929150614743565b5090565b5b8082111561473f5760008155600101614744565b6001600160e01b03198116811461061457600080fd5b60006020828403121561478057600080fd5b8135610d0481614758565b60005b838110156147a657818101518382015260200161478e565b83811115612c995750506000910152565b600081518084526147cf81602086016020860161478b565b601f01601f19169290920160200192915050565b602081526000610d0460208301846147b7565b60006020828403121561480857600080fd5b5035919050565b6001600160a01b038116811461061457600080fd5b8035612f1c8161480f565b6000806040838503121561484257600080fd5b823561484d8161480f565b946020939093013593505050565b6000806040838503121561486e57600080fd5b50508035926020909101359150565b634e487b7160e01b600052604160045260246000fd5b604051608081016001600160401b03811182821017156148b5576148b561487d565b60405290565b604080519081016001600160401b03811182821017156148b5576148b561487d565b60405160e081016001600160401b03811182821017156148b5576148b561487d565b604051601f8201601f191681016001600160401b03811182821017156149275761492761487d565b604052919050565b60006001600160401b038211156149485761494861487d565b5060051b60200190565b6000806040838503121561496557600080fd5b823591506020808401356001600160401b0381111561498357600080fd5b8401601f8101861361499457600080fd5b80356149a76149a28261492f565b6148ff565b81815260059190911b820183019083810190888311156149c657600080fd5b928401925b828410156149e4578335825292840192908401906149cb565b80955050505050509250929050565b60008060408385031215614a0657600080fd5b8235614a118161480f565b91506020830135614a218161480f565b809150509250929050565b600080600060608486031215614a4157600080fd5b8335614a4c8161480f565b92506020840135614a5c8161480f565b929592945050506040919091013590565b60008060408385031215614a8057600080fd5b823591506020830135614a218161480f565b60006001600160401b03831115614aab57614aab61487d565b614abe601f8401601f19166020016148ff565b9050828152838383011115614ad257600080fd5b828260208301376000602084830101529392505050565b600082601f830112614afa57600080fd5b610d0483833560208501614a92565b803563ffffffff81168114612f1c57600080fd5b801515811461061457600080fd5b8035612f1c81614b1d565b600060408284031215614b4857600080fd5b50919050565b60008060008060008060008060008060006101608c8e031215614b7057600080fd5b614b798c614824565b9a506001600160401b038060208e01351115614b9457600080fd5b614ba48e60208f01358f01614ae9565b9a5060408d0135995060608d013598508060808e01351115614bc557600080fd5b614bd58e60808f01358f01614ae9565b9750614be360a08e01614b09565b9650614bf160c08e01614b2b565b95508060e08e01351115614c0457600080fd5b614c148e60e08f01358f01614ae9565b94506101008d01359350614c2b6101208e01614824565b9250806101408e01351115614c3f57600080fd5b50614c518d6101408e01358e01614b36565b90509295989b509295989b9093969950565b600082601f830112614c7457600080fd5b81356020614c846149a28361492f565b82815260059290921b84018101918181019086841115614ca357600080fd5b8286015b84811015614ce25780356001600160401b03811115614cc65760008081fd5b614cd48986838b0101614ae9565b845250918301918301614ca7565b509695505050505050565b60ff8116811461061457600080fd5b8035612f1c81614ced565b600060208284031215614d1957600080fd5b6001600160401b0382351115614d2e57600080fd5b60808235830184031215614d4157600080fd5b614d49614893565b8235830180358252614d5e906020013561480f565b602083358401013560208201526001600160401b0360408435850101351115614d8657600080fd5b614d998484358501604081013501614c63565b60408201526001600160401b0360608435850101351115614db957600080fd5b82358301606081013501601f81018513614dd257600080fd5b614ddf6149a2823561492f565b81358082526020808301929160051b840101871015614dfd57600080fd5b602083015b6020843560051b850101811015614fba576001600160401b0381351115614e2857600080fd5b6040813585018903601f19011215614e3f57600080fd5b614e476148bb565b81358501602081013582526001600160401b036040909101351115614e6b57600080fd5b81358501604081013501603f81018a13614e8457600080fd5b614e946149a2602083013561492f565b602082810135808352908201919060051b83016040018c1015614eb657600080fd5b604083015b6040602085013560051b850101811015614fa1576001600160401b0381351115614ee457600080fd5b60e0813585018e03603f19011215614efb57600080fd5b614f036148dd565b614f1260408335870101614cfc565b8152813585016060810135602083015260808101356040830152614f389060a001614cfc565b60608201526001600160401b0360c08335870101351115614f5857600080fd5b614f6e8e8335870160c081013501604001614c63565b60808201528135850160e081013560a0830152614f8e9061010001614b2b565b60c0820152835260209283019201614ebb565b5060208481019190915292865250509283019201614e02565b5060608401525090949350505050565b600060208284031215614fdc57600080fd5b8135610d048161480f565b60008060008060808587031215614ffd57600080fd5b84356150088161480f565b935060208501356150188161480f565b93969395505050506040820135916060013590565b600081518084526020808501808196508360051b8101915082860160005b858110156150755782840389526150638483516147b7565b9885019893509084019060010161504b565b5091979650505050505050565b60006040808401835185526020808501518382880152828151808552606094508489019150848160051b8a0101848401935060005b8281101561513357605f198b8303018452845160e060ff80835116855288830151898601528a8301518b860152808a840151168a8601525060808083015182828701526151068387018261502d565b60a0858101519088015260c0948501511515949096019390935250505093850193928501926001016150b7565b509998505050505050505050565b8e81526001600160a01b038e1660208201528c60408201528b60608201526101c0608082015260006151776101c083018d6147b7565b63ffffffff8c1660a08401526001600160a01b038b1660c084015282810360e08401526151a4818b6147b7565b90508281036101008401526151b9818a6147b7565b88151561012085015290508281036101408401526151d78188615082565b9150506151f06101608301866001600160a01b03169052565b6101808201939093526101a001529c9b505050505050505050505050565b60008060006060848603121561522357600080fd5b833592506020840135614a5c8161480f565b6000806040838503121561524857600080fd5b82356152538161480f565b91506020830135614a2181614b1d565b60008060006060848603121561527857600080fd5b83356001600160401b038082111561528f57600080fd5b61529b87838801614ae9565b945060208601359150808211156152b157600080fd5b6152bd87838801614ae9565b935060408601359150808211156152d357600080fd5b506152e086828701614ae9565b9150509250925092565b600080600080600060a0868803121561530257600080fd5b8535945060208601359350604086013561531b8161480f565b925060608601356001600160401b038082111561533757600080fd5b61534389838a01614ae9565b9350608088013591508082111561535957600080fd5b5061536688828901614ae9565b9150509295509295909350565b60008060006060848603121561538857600080fd5b83356153938161480f565b95602085013595506040909401359392505050565b600080600080608085870312156153be57600080fd5b84356153c98161480f565b935060208501356153d98161480f565b92506040850135915060608501356001600160401b038111156153fb57600080fd5b8501601f8101871361540c57600080fd5b61541b87823560208401614a92565b91505092959194509250565b600080600080600060a0868803121561543f57600080fd5b85356001600160401b038082111561545657600080fd5b61546289838a01614ae9565b9650602088013591508082111561547857600080fd5b61548489838a01614ae9565b9550604088013591508082111561549a57600080fd5b506154a788828901614ae9565b93505060608601356154b88161480f565b915060808601356154c88161480f565b809150509295509295909350565b600181811c908216806154ea57607f821691505b60208210811415614b4857634e487b7160e01b600052602260045260246000fd5b634e487b7160e01b600052603260045260246000fd5b634e487b7160e01b600052601160045260246000fd5b600060001982141561554b5761554b615521565b5060010190565b6020808252602e908201527f4552433732313a2063616c6c6572206973206e6f7420746f6b656e206f776e6560408201526d1c881b9bdc88185c1c1c9bdd995960921b606082015260800190565b60008160001904831182151516156155ba576155ba615521565b500290565b634e487b7160e01b600052601260045260246000fd5b6000826155e4576155e46155bf565b500490565b6020808252601f908201527f5265656e7472616e637947756172643a207265656e7472616e742063616c6c00604082015260600190565b60006020828403121561563257600080fd5b5051919050565b60006020828403121561564b57600080fd5b8151610d048161480f565b60006020828403121561566857600080fd5b8151610d0481614b1d565b6000808335601e1984360301811261568a57600080fd5b8301803591506001600160401b038211156156a457600080fd5b6020019150600581901b36038213156156bc57600080fd5b9250929050565b6000823560de198336030181126156d957600080fd5b9190910192915050565b5b8181101561174c57600081556001016156e4565b805460008083558115610cca5782815260208082208381015b80821015612d6d5761572382546154d6565b801561576a57601f8082116001811461573e57868555615767565b84875285872061575883850160051c8201600183016156e3565b50600085815260208120818755555b50505b50600182019150615711565b601f821115610cca57806000526020600020601f840160051c8101602085101561579d5750805b6157af601f850160051c8301826156e3565b5050505050565b6001600160401b038311156157cd576157cd61487d565b6157e1836157db83546154d6565b83615776565b6000601f84116001811461581557600085156157fd5750838201355b600019600387901b1c1916600186901b1783556157af565b600083815260209020601f19861690835b828110156158465786850135825560209485019460019092019101615826565b50868210156158635760001960f88860031b161c19848701351681555b505060018560011b0183555050505050565b60008135610af581614b1d565b813561588d81614ced565b815460ff191660ff8216178255506001602080840135828401556040840135600284015560608401356158bf81614ced565b60038401805460ff191660ff831617905550600483016158e26080860186615673565b600160401b8111156158f6576158f661487d565b82548184558082101561597b5760008481528581208381019083015b808210156159775761592482546154d6565b801561596d57601f8082116001811461593f5785855561596a565b60008581526020902061595b83850160051c82018e83016156e3565b50600085815260208120818755555b50505b5090880190615912565b5050505b508160008481528581209450805b838110156159ea578235601e198636030181126159a4578283fd5b850180356001600160401b038111156159bb578384fd5b88820191508036038213156159ce578384fd5b6159d981838a6157b6565b505094870194918601918701615989565b505050505050505060a0820135600582015561174c615a0b60c08401615875565b6006830160ff1981541660ff8315151681178255505050565b8135815560018082016020615a3b81860186615673565b600160401b811115615a4f57615a4f61487d565b835481855580821015615afc577f2492492492492492492492492492492492492492492492492492492492492492808211871615615a8f57615a8f615521565b6007818411881615615aa357615aa3615521565b6000878152868120909250848202810190828502015b80821015615af757838255838a830155836002830155836003830155615ae1600483016156f8565b8360058301558360068301558282019150615ab9565b505050505b506000938452602084209382905b82811015615b3757615b25615b1f83866156c3565b87615882565b60079590950194908401908601615b0a565b505050505050505050565b60a081526000808754615b54816154d6565b8060a086015260c0600180841660008114615b765760018114615b8a57615bbb565b60ff1985168884015260e088019550615bbb565b8c60005260208060002060005b86811015615bb25781548b8201870152908401908201615b97565b8a018501975050505b50505050508281036020840152615bd281886147b7565b915050615bea60408301866001600160a01b03169052565b6001600160a01b03939093166060820152608001529392505050565b6001600160a01b038416815260208082018490526060604083018190528351908301819052600091848101916080850190845b81811015615c5557845183529383019391830191600101615c39565b509098975050505050505050565b60008219821115615c7657615c76615521565b500190565b600082821015615c8d57615c8d615521565b500390565b6001600160a01b03858116825284166020820152608060408201819052600090615cbe908301856147b7565b8281036060840152615cd08185615082565b979650505050505050565b6001600160a01b03838116825260406020808401829052845182850152848101519092166060840152830151608080840152600091615d1d60c085018361502d565b6060860151858203603f190160a0870152805180835291935082019082840190600581901b8501840160005b8281101561513357601f19878303018452615d65828651615082565b94860194938601939150600101615d49565b6020808252602e908201527f496e697469616c697a61626c653a20636f6e747261637420697320616c72656160408201526d191e481a5b9a5d1a585b1a5e995960921b606082015260800190565b60008351615dd781846020880161478b565b835190830190615deb81836020880161478b565b01949350505050565b6020808252602b908201527f496e697469616c697a61626c653a20636f6e7472616374206973206e6f74206960408201526a6e697469616c697a696e6760a81b606082015260800190565b60208082526032908201527f4552433732313a207472616e7366657220746f206e6f6e20455243373231526560408201527131b2b4bb32b91034b6b83632b6b2b73a32b960711b606082015260800190565b600082615ea057615ea06155bf565b500690565b7f416363657373436f6e74726f6c3a206163636f756e7420000000000000000000815260008351615edd81601785016020880161478b565b7001034b99036b4b9b9b4b733903937b6329607d1b6017918401918201528351615f0e81602884016020880161478b565b01602801949350505050565b6001600160a01b0385811682528416602082015260408101839052608060608201819052600090615f4d908301846147b7565b9695505050505050565b600060208284031215615f6957600080fd5b8151610d0481614758565b600081615f8357615f83615521565b506000190190565b634e487b7160e01b600052603160045260246000fdfea26469706673582212204f8d9cae720df467460183602498704939033d7f1fc3bf570afe3f32ef1e8d9464736f6c634300080c0033",
  "linkReferences": {},
  "deployedLinkReferences": {}
}