{
  "_format": "hh-sol-artifact-1",
  "contractName": "GenerativeBoilerplateNFT",
  "sourceName": "contracts/nft/GenerativeBoilerplateNFT.sol",
  "abi": [
    {
      "anonymous": false,
      "inputs": [
        {
          "indexed": true,
          "internalType": "address",
          "name": "owner",
          "type": "address"
        },
        {
          "indexed": true,
          "internalType": "address",
          "name": "approved",
          "type": "address"
        },
        {
          "indexed": true,
          "internalType": "uint256",
          "name": "tokenId",
          "type": "uint256"
        }
      ],
      "name": "Approval",
      "type": "event"
    },
    {
      "anonymous": false,
      "inputs": [
        {
          "indexed": true,
          "internalType": "address",
          "name": "owner",
          "type": "address"
        },
        {
          "indexed": true,
          "internalType": "address",
          "name": "operator",
          "type": "address"
        },
        {
          "indexed": false,
          "internalType": "bool",
          "name": "approved",
          "type": "bool"
        }
      ],
      "name": "ApprovalForAll",
      "type": "event"
    },
    {
      "anonymous": false,
      "inputs": [
        {
          "indexed": false,
          "internalType": "address",
          "name": "sender",
          "type": "address"
        },
        {
          "indexed": false,
          "internalType": "uint256",
          "name": "projectId",
          "type": "uint256"
        },
        {
          "indexed": false,
          "internalType": "bytes32[]",
          "name": "seeds",
          "type": "bytes32[]"
        }
      ],
      "name": "GenerateSeeds",
      "type": "event"
    },
    {
      "anonymous": false,
      "inputs": [
        {
          "indexed": false,
          "internalType": "uint8",
          "name": "version",
          "type": "uint8"
        }
      ],
      "name": "Initialized",
      "type": "event"
    },
    {
      "anonymous": false,
      "inputs": [
        {
          "indexed": false,
          "internalType": "address",
          "name": "sender",
          "type": "address"
        },
        {
          "components": [
            {
              "internalType": "uint256",
              "name": "_fromProjectId",
              "type": "uint256"
            },
            {
              "internalType": "address",
              "name": "_mintTo",
              "type": "address"
            },
            {
              "internalType": "string[]",
              "name": "_uriBatch",
              "type": "string[]"
            },
            {
              "components": [
                {
                  "internalType": "bytes32",
                  "name": "_seed",
                  "type": "bytes32"
                },
                {
                  "components": [
                    {
                      "internalType": "uint8",
                      "name": "_typeValue",
                      "type": "uint8"
                    },
                    {
                      "internalType": "uint256",
                      "name": "_max",
                      "type": "uint256"
                    },
                    {
                      "internalType": "uint256",
                      "name": "_min",
                      "type": "uint256"
                    },
                    {
                      "internalType": "uint8",
                      "name": "_decimal",
                      "type": "uint8"
                    },
                    {
                      "internalType": "string[]",
                      "name": "_availableValues",
                      "type": "string[]"
                    },
                    {
                      "internalType": "uint256",
                      "name": "_value",
                      "type": "uint256"
                    },
                    {
                      "internalType": "bool",
                      "name": "_editable",
                      "type": "bool"
                    }
                  ],
                  "internalType": "struct BoilerplateParam.ParamTemplate[]",
                  "name": "_params",
                  "type": "tuple[]"
                }
              ],
              "internalType": "struct BoilerplateParam.ParamsOfProject[]",
              "name": "_paramsBatch",
              "type": "tuple[]"
            }
          ],
          "indexed": false,
          "internalType": "struct IGenerativeBoilerplateNFT.MintRequest",
          "name": "request",
          "type": "tuple"
        }
      ],
      "name": "MintBatchNFT",
      "type": "event"
    },
    {
      "anonymous": false,
      "inputs": [
        {
          "indexed": false,
          "internalType": "address",
          "name": "account",
          "type": "address"
        }
      ],
      "name": "Paused",
      "type": "event"
    },
    {
      "anonymous": false,
      "inputs": [
        {
          "indexed": true,
          "internalType": "bytes32",
          "name": "role",
          "type": "bytes32"
        },
        {
          "indexed": true,
          "internalType": "bytes32",
          "name": "previousAdminRole",
          "type": "bytes32"
        },
        {
          "indexed": true,
          "internalType": "bytes32",
          "name": "newAdminRole",
          "type": "bytes32"
        }
      ],
      "name": "RoleAdminChanged",
      "type": "event"
    },
    {
      "anonymous": false,
      "inputs": [
        {
          "indexed": true,
          "internalType": "bytes32",
          "name": "role",
          "type": "bytes32"
        },
        {
          "indexed": true,
          "internalType": "address",
          "name": "account",
          "type": "address"
        },
        {
          "indexed": true,
          "internalType": "address",
          "name": "sender",
          "type": "address"
        }
      ],
      "name": "RoleGranted",
      "type": "event"
    },
    {
      "anonymous": false,
      "inputs": [
        {
          "indexed": true,
          "internalType": "bytes32",
          "name": "role",
          "type": "bytes32"
        },
        {
          "indexed": true,
          "internalType": "address",
          "name": "account",
          "type": "address"
        },
        {
          "indexed": true,
          "internalType": "address",
          "name": "sender",
          "type": "address"
        }
      ],
      "name": "RoleRevoked",
      "type": "event"
    },
    {
      "anonymous": false,
      "inputs": [
        {
          "indexed": true,
          "internalType": "address",
          "name": "from",
          "type": "address"
        },
        {
          "indexed": true,
          "internalType": "address",
          "name": "to",
          "type": "address"
        },
        {
          "indexed": true,
          "internalType": "uint256",
          "name": "tokenId",
          "type": "uint256"
        }
      ],
      "name": "Transfer",
      "type": "event"
    },
    {
      "anonymous": false,
      "inputs": [
        {
          "indexed": false,
          "internalType": "address",
          "name": "account",
          "type": "address"
        }
      ],
      "name": "Unpaused",
      "type": "event"
    },
    {
      "inputs": [],
      "name": "DEFAULT_ADMIN_ROLE",
      "outputs": [
        {
          "internalType": "bytes32",
          "name": "",
          "type": "bytes32"
        }
      ],
      "stateMutability": "view",
      "type": "function"
    },
    {
      "inputs": [],
      "name": "MINTER_ROLE",
      "outputs": [
        {
          "internalType": "bytes32",
          "name": "",
          "type": "bytes32"
        }
      ],
      "stateMutability": "view",
      "type": "function"
    },
    {
      "inputs": [],
      "name": "PAUSER_ROLE",
      "outputs": [
        {
          "internalType": "bytes32",
          "name": "",
          "type": "bytes32"
        }
      ],
      "stateMutability": "view",
      "type": "function"
    },
    {
      "inputs": [],
      "name": "_admin",
      "outputs": [
        {
          "internalType": "address",
          "name": "",
          "type": "address"
        }
      ],
      "stateMutability": "view",
      "type": "function"
    },
    {
      "inputs": [
        {
          "internalType": "address",
          "name": "",
          "type": "address"
        },
        {
          "internalType": "address",
          "name": "",
          "type": "address"
        }
      ],
      "name": "_approvalForAllSeeds",
      "outputs": [
        {
          "internalType": "uint256",
          "name": "",
          "type": "uint256"
        }
      ],
      "stateMutability": "view",
      "type": "function"
    },
    {
      "inputs": [],
      "name": "_paramsAddress",
      "outputs": [
        {
          "internalType": "address",
          "name": "",
          "type": "address"
        }
      ],
      "stateMutability": "view",
      "type": "function"
    },
    {
      "inputs": [
        {
          "internalType": "uint256",
          "name": "",
          "type": "uint256"
        }
      ],
      "name": "_projects",
      "outputs": [
        {
          "internalType": "uint256",
          "name": "_fee",
          "type": "uint256"
        },
        {
          "internalType": "address",
          "name": "_feeToken",
          "type": "address"
        },
        {
          "internalType": "uint256",
          "name": "_mintMaxSupply",
          "type": "uint256"
        },
        {
          "internalType": "uint256",
          "name": "_mintTotalSupply",
          "type": "uint256"
        },
        {
          "internalType": "string",
          "name": "_script",
          "type": "string"
        },
        {
          "internalType": "uint32",
          "name": "_scriptType",
          "type": "uint32"
        },
        {
          "internalType": "address",
          "name": "_creator",
          "type": "address"
        },
        {
          "internalType": "string",
          "name": "_customUri",
          "type": "string"
        },
        {
          "internalType": "string",
          "name": "_projectName",
          "type": "string"
        },
        {
          "internalType": "bool",
          "name": "_clientSeed",
          "type": "bool"
        },
        {
          "components": [
            {
              "internalType": "bytes32",
              "name": "_seed",
              "type": "bytes32"
            },
            {
              "components": [
                {
                  "internalType": "uint8",
                  "name": "_typeValue",
                  "type": "uint8"
                },
                {
                  "internalType": "uint256",
                  "name": "_max",
                  "type": "uint256"
                },
                {
                  "internalType": "uint256",
                  "name": "_min",
                  "type": "uint256"
                },
                {
                  "internalType": "uint8",
                  "name": "_decimal",
                  "type": "uint8"
                },
                {
                  "internalType": "string[]",
                  "name": "_availableValues",
                  "type": "string[]"
                },
                {
                  "internalType": "uint256",
                  "name": "_value",
                  "type": "uint256"
                },
                {
                  "internalType": "bool",
                  "name": "_editable",
                  "type": "bool"
                }
              ],
              "internalType": "struct BoilerplateParam.ParamTemplate[]",
              "name": "_params",
              "type": "tuple[]"
            }
          ],
          "internalType": "struct BoilerplateParam.ParamsOfProject",
          "name": "_paramsTemplate",
          "type": "tuple"
        },
        {
          "internalType": "address",
          "name": "_minterNFTInfo",
          "type": "address"
        }
      ],
      "stateMutability": "view",
      "type": "function"
    },
    {
      "inputs": [
        {
          "internalType": "address",
          "name": "to",
          "type": "address"
        },
        {
          "internalType": "uint256",
          "name": "tokenId",
          "type": "uint256"
        }
      ],
      "name": "approve",
      "outputs": [],
      "stateMutability": "nonpayable",
      "type": "function"
    },
    {
      "inputs": [
        {
          "internalType": "address",
          "name": "operator",
          "type": "address"
        },
        {
          "internalType": "uint256",
          "name": "projectId",
          "type": "uint256"
        }
      ],
      "name": "approveForAllSeeds",
      "outputs": [],
      "stateMutability": "nonpayable",
      "type": "function"
    },
    {
      "inputs": [
        {
          "internalType": "address",
          "name": "owner",
          "type": "address"
        }
      ],
      "name": "balanceOf",
      "outputs": [
        {
          "internalType": "uint256",
          "name": "",
          "type": "uint256"
        }
      ],
      "stateMutability": "view",
      "type": "function"
    },
    {
      "inputs": [],
      "name": "baseTokenURI",
      "outputs": [
        {
          "internalType": "string",
          "name": "",
          "type": "string"
        }
      ],
      "stateMutability": "view",
      "type": "function"
    },
    {
      "inputs": [
        {
          "internalType": "uint256",
          "name": "tokenId",
          "type": "uint256"
        }
      ],
      "name": "burn",
      "outputs": [],
      "stateMutability": "nonpayable",
      "type": "function"
    },
    {
      "inputs": [
        {
          "internalType": "address",
          "name": "newAdm",
          "type": "address"
        }
      ],
      "name": "changeAdmin",
      "outputs": [],
      "stateMutability": "nonpayable",
      "type": "function"
    },
    {
      "inputs": [
        {
          "internalType": "uint256",
          "name": "_id",
          "type": "uint256"
        }
      ],
      "name": "exists",
      "outputs": [
        {
          "internalType": "bool",
          "name": "",
          "type": "bool"
        }
      ],
      "stateMutability": "view",
      "type": "function"
    },
    {
      "inputs": [
        {
          "internalType": "uint256",
          "name": "projectId",
          "type": "uint256"
        },
        {
          "internalType": "uint256",
          "name": "amount",
          "type": "uint256"
        }
      ],
      "name": "generateSeeds",
      "outputs": [],
      "stateMutability": "nonpayable",
      "type": "function"
    },
    {
      "inputs": [
        {
          "internalType": "uint256",
          "name": "tokenId",
          "type": "uint256"
        }
      ],
      "name": "getApproved",
      "outputs": [
        {
          "internalType": "address",
          "name": "",
          "type": "address"
        }
      ],
      "stateMutability": "view",
      "type": "function"
    },
    {
      "inputs": [
        {
          "internalType": "bytes32",
          "name": "role",
          "type": "bytes32"
        }
      ],
      "name": "getRoleAdmin",
      "outputs": [
        {
          "internalType": "bytes32",
          "name": "",
          "type": "bytes32"
        }
      ],
      "stateMutability": "view",
      "type": "function"
    },
    {
      "inputs": [
        {
          "internalType": "bytes32",
          "name": "role",
          "type": "bytes32"
        },
        {
          "internalType": "uint256",
          "name": "index",
          "type": "uint256"
        }
      ],
      "name": "getRoleMember",
      "outputs": [
        {
          "internalType": "address",
          "name": "",
          "type": "address"
        }
      ],
      "stateMutability": "view",
      "type": "function"
    },
    {
      "inputs": [
        {
          "internalType": "bytes32",
          "name": "role",
          "type": "bytes32"
        }
      ],
      "name": "getRoleMemberCount",
      "outputs": [
        {
          "internalType": "uint256",
          "name": "",
          "type": "uint256"
        }
      ],
      "stateMutability": "view",
      "type": "function"
    },
    {
      "inputs": [
        {
          "internalType": "bytes32",
          "name": "role",
          "type": "bytes32"
        },
        {
          "internalType": "address",
          "name": "account",
          "type": "address"
        }
      ],
      "name": "grantRole",
      "outputs": [],
      "stateMutability": "nonpayable",
      "type": "function"
    },
    {
      "inputs": [
        {
          "internalType": "bytes32",
          "name": "role",
          "type": "bytes32"
        },
        {
          "internalType": "address",
          "name": "account",
          "type": "address"
        }
      ],
      "name": "hasRole",
      "outputs": [
        {
          "internalType": "bool",
          "name": "",
          "type": "bool"
        }
      ],
      "stateMutability": "view",
      "type": "function"
    },
    {
      "inputs": [
        {
          "internalType": "string",
          "name": "name",
          "type": "string"
        },
        {
          "internalType": "string",
          "name": "symbol",
          "type": "string"
        },
        {
          "internalType": "string",
          "name": "baseTokenURI",
          "type": "string"
        }
      ],
      "name": "initialize",
      "outputs": [],
      "stateMutability": "nonpayable",
      "type": "function"
    },
    {
      "inputs": [
        {
          "internalType": "string",
          "name": "name",
          "type": "string"
        },
        {
          "internalType": "string",
          "name": "symbol",
          "type": "string"
        },
        {
          "internalType": "string",
          "name": "baseUri",
          "type": "string"
        },
        {
          "internalType": "address",
          "name": "admin",
          "type": "address"
        },
        {
          "internalType": "address",
          "name": "paramsAddress",
          "type": "address"
        }
      ],
      "name": "initialize",
      "outputs": [],
      "stateMutability": "nonpayable",
      "type": "function"
    },
    {
      "inputs": [
        {
          "internalType": "address",
          "name": "owner",
          "type": "address"
        },
        {
          "internalType": "address",
          "name": "operator",
          "type": "address"
        }
      ],
      "name": "isApprovedForAll",
      "outputs": [
        {
          "internalType": "bool",
          "name": "",
          "type": "bool"
        }
      ],
      "stateMutability": "view",
      "type": "function"
    },
    {
      "inputs": [
        {
          "internalType": "address",
          "name": "operator",
          "type": "address"
        },
        {
          "internalType": "bytes32",
          "name": "seed",
          "type": "bytes32"
        },
        {
          "internalType": "uint256",
          "name": "projectId",
          "type": "uint256"
        }
      ],
      "name": "isApprovedOrOwnerForSeed",
      "outputs": [
        {
          "internalType": "bool",
          "name": "",
          "type": "bool"
        }
      ],
      "stateMutability": "view",
      "type": "function"
    },
    {
      "inputs": [
        {
          "internalType": "address",
          "name": "to",
          "type": "address"
        }
      ],
      "name": "mint",
      "outputs": [],
      "stateMutability": "nonpayable",
      "type": "function"
    },
    {
      "inputs": [
        {
          "components": [
            {
              "internalType": "uint256",
              "name": "_fromProjectId",
              "type": "uint256"
            },
            {
              "internalType": "address",
              "name": "_mintTo",
              "type": "address"
            },
            {
              "internalType": "string[]",
              "name": "_uriBatch",
              "type": "string[]"
            },
            {
              "components": [
                {
                  "internalType": "bytes32",
                  "name": "_seed",
                  "type": "bytes32"
                },
                {
                  "components": [
                    {
                      "internalType": "uint8",
                      "name": "_typeValue",
                      "type": "uint8"
                    },
                    {
                      "internalType": "uint256",
                      "name": "_max",
                      "type": "uint256"
                    },
                    {
                      "internalType": "uint256",
                      "name": "_min",
                      "type": "uint256"
                    },
                    {
                      "internalType": "uint8",
                      "name": "_decimal",
                      "type": "uint8"
                    },
                    {
                      "internalType": "string[]",
                      "name": "_availableValues",
                      "type": "string[]"
                    },
                    {
                      "internalType": "uint256",
                      "name": "_value",
                      "type": "uint256"
                    },
                    {
                      "internalType": "bool",
                      "name": "_editable",
                      "type": "bool"
                    }
                  ],
                  "internalType": "struct BoilerplateParam.ParamTemplate[]",
                  "name": "_params",
                  "type": "tuple[]"
                }
              ],
              "internalType": "struct BoilerplateParam.ParamsOfProject[]",
              "name": "_paramsBatch",
              "type": "tuple[]"
            }
          ],
          "internalType": "struct IGenerativeBoilerplateNFT.MintRequest",
          "name": "mintBatch",
          "type": "tuple"
        }
      ],
      "name": "mintBatchUniqueNFT",
      "outputs": [],
      "stateMutability": "payable",
      "type": "function"
    },
    {
      "inputs": [
        {
          "internalType": "uint256",
          "name": "_tokenID",
          "type": "uint256"
        }
      ],
      "name": "mintMaxSupply",
      "outputs": [
        {
          "internalType": "uint256",
          "name": "",
          "type": "uint256"
        }
      ],
      "stateMutability": "view",
      "type": "function"
    },
    {
      "inputs": [
        {
          "internalType": "address",
          "name": "to",
          "type": "address"
        },
        {
          "internalType": "string",
          "name": "projectName",
          "type": "string"
        },
        {
          "internalType": "uint256",
          "name": "maxSupply",
          "type": "uint256"
        },
        {
          "internalType": "string",
          "name": "script",
          "type": "string"
        },
        {
          "internalType": "uint32",
          "name": "scriptType",
          "type": "uint32"
        },
        {
          "internalType": "bool",
          "name": "clientSeed",
          "type": "bool"
        },
        {
          "internalType": "string",
          "name": "uri",
          "type": "string"
        },
        {
          "internalType": "uint256",
          "name": "fee",
          "type": "uint256"
        },
        {
          "internalType": "address",
          "name": "feeAdd",
          "type": "address"
        },
        {
          "components": [
            {
              "internalType": "bytes32",
              "name": "_seed",
              "type": "bytes32"
            },
            {
              "components": [
                {
                  "internalType": "uint8",
                  "name": "_typeValue",
                  "type": "uint8"
                },
                {
                  "internalType": "uint256",
                  "name": "_max",
                  "type": "uint256"
                },
                {
                  "internalType": "uint256",
                  "name": "_min",
                  "type": "uint256"
                },
                {
                  "internalType": "uint8",
                  "name": "_decimal",
                  "type": "uint8"
                },
                {
                  "internalType": "string[]",
                  "name": "_availableValues",
                  "type": "string[]"
                },
                {
                  "internalType": "uint256",
                  "name": "_value",
                  "type": "uint256"
                },
                {
                  "internalType": "bool",
                  "name": "_editable",
                  "type": "bool"
                }
              ],
              "internalType": "struct BoilerplateParam.ParamTemplate[]",
              "name": "_params",
              "type": "tuple[]"
            }
          ],
          "internalType": "struct BoilerplateParam.ParamsOfProject",
          "name": "paramsTemplate",
          "type": "tuple"
        }
      ],
      "name": "mintProject",
      "outputs": [
        {
          "internalType": "uint256",
          "name": "",
          "type": "uint256"
        }
      ],
      "stateMutability": "payable",
      "type": "function"
    },
    {
      "inputs": [
        {
          "internalType": "uint256",
          "name": "_tokenID",
          "type": "uint256"
        }
      ],
      "name": "mintTotalSupply",
      "outputs": [
        {
          "internalType": "uint256",
          "name": "",
          "type": "uint256"
        }
      ],
      "stateMutability": "view",
      "type": "function"
    },
    {
      "inputs": [],
      "name": "name",
      "outputs": [
        {
          "internalType": "string",
          "name": "",
          "type": "string"
        }
      ],
      "stateMutability": "view",
      "type": "function"
    },
    {
      "inputs": [
        {
          "internalType": "uint256",
          "name": "tokenId",
          "type": "uint256"
        }
      ],
      "name": "ownerOf",
      "outputs": [
        {
          "internalType": "address",
          "name": "",
          "type": "address"
        }
      ],
      "stateMutability": "view",
      "type": "function"
    },
    {
      "inputs": [
        {
          "internalType": "bytes32",
          "name": "seed",
          "type": "bytes32"
        },
        {
          "internalType": "uint256",
          "name": "projectId",
          "type": "uint256"
        }
      ],
      "name": "ownerOfSeed",
      "outputs": [
        {
          "internalType": "address",
          "name": "",
          "type": "address"
        }
      ],
      "stateMutability": "view",
      "type": "function"
    },
    {
      "inputs": [],
      "name": "pause",
      "outputs": [],
      "stateMutability": "nonpayable",
      "type": "function"
    },
    {
      "inputs": [],
      "name": "paused",
      "outputs": [
        {
          "internalType": "bool",
          "name": "",
          "type": "bool"
        }
      ],
      "stateMutability": "view",
      "type": "function"
    },
    {
      "inputs": [
        {
          "internalType": "uint256",
          "name": "projectId",
          "type": "uint256"
        },
        {
          "internalType": "bytes32[]",
          "name": "seeds",
          "type": "bytes32[]"
        }
      ],
      "name": "registerSeeds",
      "outputs": [],
      "stateMutability": "nonpayable",
      "type": "function"
    },
    {
      "inputs": [
        {
          "internalType": "bytes32",
          "name": "role",
          "type": "bytes32"
        },
        {
          "internalType": "address",
          "name": "account",
          "type": "address"
        }
      ],
      "name": "renounceRole",
      "outputs": [],
      "stateMutability": "nonpayable",
      "type": "function"
    },
    {
      "inputs": [
        {
          "internalType": "bytes32",
          "name": "role",
          "type": "bytes32"
        },
        {
          "internalType": "address",
          "name": "account",
          "type": "address"
        }
      ],
      "name": "revokeRole",
      "outputs": [],
      "stateMutability": "nonpayable",
      "type": "function"
    },
    {
      "inputs": [
        {
          "internalType": "uint256",
          "name": "",
          "type": "uint256"
        }
      ],
      "name": "royalties",
      "outputs": [
        {
          "internalType": "address",
          "name": "recipient",
          "type": "address"
        },
        {
          "internalType": "uint24",
          "name": "amount",
          "type": "uint24"
        },
        {
          "internalType": "bool",
          "name": "isValue",
          "type": "bool"
        }
      ],
      "stateMutability": "view",
      "type": "function"
    },
    {
      "inputs": [
        {
          "internalType": "uint256",
          "name": "_tokenId",
          "type": "uint256"
        },
        {
          "internalType": "uint256",
          "name": "_salePrice",
          "type": "uint256"
        }
      ],
      "name": "royaltyInfo",
      "outputs": [
        {
          "internalType": "address",
          "name": "receiver",
          "type": "address"
        },
        {
          "internalType": "uint256",
          "name": "royaltyAmount",
          "type": "uint256"
        }
      ],
      "stateMutability": "view",
      "type": "function"
    },
    {
      "inputs": [
        {
          "internalType": "address",
          "name": "from",
          "type": "address"
        },
        {
          "internalType": "address",
          "name": "to",
          "type": "address"
        },
        {
          "internalType": "uint256",
          "name": "tokenId",
          "type": "uint256"
        }
      ],
      "name": "safeTransferFrom",
      "outputs": [],
      "stateMutability": "nonpayable",
      "type": "function"
    },
    {
      "inputs": [
        {
          "internalType": "address",
          "name": "from",
          "type": "address"
        },
        {
          "internalType": "address",
          "name": "to",
          "type": "address"
        },
        {
          "internalType": "uint256",
          "name": "tokenId",
          "type": "uint256"
        },
        {
          "internalType": "bytes",
          "name": "data",
          "type": "bytes"
        }
      ],
      "name": "safeTransferFrom",
      "outputs": [],
      "stateMutability": "nonpayable",
      "type": "function"
    },
    {
      "inputs": [
        {
          "internalType": "address",
          "name": "operator",
          "type": "address"
        },
        {
          "internalType": "bool",
          "name": "approved",
          "type": "bool"
        }
      ],
      "name": "setApprovalForAll",
      "outputs": [],
      "stateMutability": "nonpayable",
      "type": "function"
    },
    {
      "inputs": [
        {
          "internalType": "address",
          "name": "_to",
          "type": "address"
        },
        {
          "internalType": "uint256[]",
          "name": "_ids",
          "type": "uint256[]"
        }
      ],
      "name": "setCreator",
      "outputs": [],
      "stateMutability": "nonpayable",
      "type": "function"
    },
    {
      "inputs": [
        {
          "internalType": "uint256",
          "name": "_id",
          "type": "uint256"
        },
        {
          "internalType": "string",
          "name": "_newURI",
          "type": "string"
        }
      ],
      "name": "setCustomURI",
      "outputs": [],
      "stateMutability": "nonpayable",
      "type": "function"
    },
    {
      "inputs": [
        {
          "internalType": "uint256",
          "name": "_tokenId",
          "type": "uint256"
        },
        {
          "internalType": "address",
          "name": "_recipient",
          "type": "address"
        },
        {
          "internalType": "uint256",
          "name": "_value",
          "type": "uint256"
        }
      ],
      "name": "setTokenRoyalty",
      "outputs": [],
      "stateMutability": "nonpayable",
      "type": "function"
    },
    {
      "inputs": [
        {
          "internalType": "bytes4",
          "name": "interfaceId",
          "type": "bytes4"
        }
      ],
      "name": "supportsInterface",
      "outputs": [
        {
          "internalType": "bool",
          "name": "",
          "type": "bool"
        }
      ],
      "stateMutability": "view",
      "type": "function"
    },
    {
      "inputs": [],
      "name": "symbol",
      "outputs": [
        {
          "internalType": "string",
          "name": "",
          "type": "string"
        }
      ],
      "stateMutability": "view",
      "type": "function"
    },
    {
      "inputs": [
        {
          "internalType": "uint256",
          "name": "index",
          "type": "uint256"
        }
      ],
      "name": "tokenByIndex",
      "outputs": [
        {
          "internalType": "uint256",
          "name": "",
          "type": "uint256"
        }
      ],
      "stateMutability": "view",
      "type": "function"
    },
    {
      "inputs": [
        {
          "internalType": "address",
          "name": "owner",
          "type": "address"
        },
        {
          "internalType": "uint256",
          "name": "index",
          "type": "uint256"
        }
      ],
      "name": "tokenOfOwnerByIndex",
      "outputs": [
        {
          "internalType": "uint256",
          "name": "",
          "type": "uint256"
        }
      ],
      "stateMutability": "view",
      "type": "function"
    },
    {
      "inputs": [
        {
          "internalType": "uint256",
          "name": "_tokenId",
          "type": "uint256"
        }
      ],
      "name": "tokenURI",
      "outputs": [
        {
          "internalType": "string",
          "name": "",
          "type": "string"
        }
      ],
      "stateMutability": "view",
      "type": "function"
    },
    {
      "inputs": [],
      "name": "totalSupply",
      "outputs": [
        {
          "internalType": "uint256",
          "name": "",
          "type": "uint256"
        }
      ],
      "stateMutability": "view",
      "type": "function"
    },
    {
      "inputs": [
        {
          "internalType": "address",
          "name": "from",
          "type": "address"
        },
        {
          "internalType": "address",
          "name": "to",
          "type": "address"
        },
        {
          "internalType": "uint256",
          "name": "tokenId",
          "type": "uint256"
        }
      ],
      "name": "transferFrom",
      "outputs": [],
      "stateMutability": "nonpayable",
      "type": "function"
    },
    {
      "inputs": [
        {
          "internalType": "address",
          "name": "from",
          "type": "address"
        },
        {
          "internalType": "address",
          "name": "to",
          "type": "address"
        },
        {
          "internalType": "bytes32",
          "name": "seed",
          "type": "bytes32"
        },
        {
          "internalType": "uint256",
          "name": "projectId",
          "type": "uint256"
        }
      ],
      "name": "transferSeed",
      "outputs": [],
      "stateMutability": "nonpayable",
      "type": "function"
    },
    {
      "inputs": [],
      "name": "unpause",
      "outputs": [],
      "stateMutability": "nonpayable",
      "type": "function"
    },
    {
      "inputs": [
        {
          "internalType": "address",
          "name": "receiver",
          "type": "address"
        },
        {
          "internalType": "address",
          "name": "erc20Addr",
          "type": "address"
        },
        {
          "internalType": "uint256",
          "name": "amount",
          "type": "uint256"
        }
      ],
      "name": "withdraw",
      "outputs": [],
      "stateMutability": "nonpayable",
      "type": "function"
    }
  ],
  "bytecode": "0x608060405234801561001057600080fd5b50615fa480620000216000396000f3fe60806040526004361061036b5760003560e01c80636a627842116101c6578063a6487c53116100f7578063d539139311610095578063d6d0faee1161006f578063d6d0faee14610ac3578063d9caed1214610ae3578063e63ab1e914610b03578063e985e9c514610b3757600080fd5b8063d539139314610a5a578063d547741f14610a8e578063d547cfb714610aae57600080fd5b8063b88d4fde116100d1578063b88d4fde146109da578063c87b56dd146109fa578063ca15c87314610a1a578063d2a6b51a14610a3a57600080fd5b8063a6487c5314610979578063adfc7dae14610999578063b0f4cf93146109ba57600080fd5b80638f2839701161016457806395d89b411161013e57806395d89b411461090f5780639713c80714610924578063a217fddf14610944578063a22cb4651461095957600080fd5b80638f283970146108af5780639010d07c146108cf57806391d14854146108ef57600080fd5b8063716013fe116101a0578063716013fe146107e95780637f77f574146107fc578063821f9dc9146108775780638456cb591461061e57600080fd5b80636a6278421461078e5780636e4d0fe6146107a957806370a08231146107c957600080fd5b806336568abe116102a0578063463981391161023e5780635c975abb116102185780635c975abb146106fc5780636006e9ef1461071557806362fe4e4a146107285780636352211e1461076e57600080fd5b8063463981391461069c5780634f558e79146106bc5780634f6ccce7146106dc57600080fd5b80633f4ba83a1161027a5780633f4ba83a1461061e5780633fbdb0c21461062d57806342842e0e1461065e57806342966c681461067e57600080fd5b806336568abe146105a557806336bd9e63146105c55780633adf80b4146105fe57600080fd5b806318160ddd1161030d578063248a9ca3116102e7578063248a9ca3146104f65780632a55205a146105265780632f2ff15d146105655780632f745c591461058557600080fd5b806318160ddd146104a1578063189c168d146104b657806323b872dd146104d657600080fd5b806306fdde031161034957806306fdde031461041d578063081812fc1461043f578063095ea7b31461045f5780631697eccf1461048157600080fd5b806301bc45c91461037057806301ffc9a7146103ae578063030595d7146103de575b600080fd5b34801561037c57600080fd5b5061022754610391906001600160a01b031681565b6040516001600160a01b0390911681526020015b60405180910390f35b3480156103ba57600080fd5b506103ce6103c9366004614762565b610b80565b60405190151581526020016103a5565b3480156103ea57600080fd5b5061040f6103f936600461477f565b600090815261022a602052604090206002015490565b6040519081526020016103a5565b34801561042957600080fd5b50610432610b91565b6040516103a591906147f0565b34801561044b57600080fd5b5061039161045a36600461477f565b610c23565b34801561046b57600080fd5b5061047f61047a366004614823565b610c4a565b005b34801561048d57600080fd5b5061039161049c36600461484f565b610d65565b3480156104ad57600080fd5b5061040f610da1565b3480156104c257600080fd5b5061047f6104d1366004614946565b610dbe565b3480156104e257600080fd5b5061047f6104f13660046149e7565b610ecc565b34801561050257600080fd5b5061040f61051136600461477f565b60009081526065602052604090206001015490565b34801561053257600080fd5b5061054661054136600461484f565b610efd565b604080516001600160a01b0390931683526020830191909152016103a5565b34801561057157600080fd5b5061047f610580366004614a28565b610fcb565b34801561059157600080fd5b5061040f6105a0366004614823565b610ff0565b3480156105b157600080fd5b5061047f6105c0366004614a28565b611086565b3480156105d157600080fd5b5061040f6105e0366004614a58565b61022c60209081526000928352604080842090915290825290205481565b34801561060a57600080fd5b5061047f610619366004614afd565b611104565b34801561062a57600080fd5b50005b34801561063957600080fd5b5061040f61064836600461477f565b600090815261022a602052604090206003015490565b34801561066a57600080fd5b5061047f6106793660046149e7565b61118b565b34801561068a57600080fd5b5061047f61069936600461477f565b50565b3480156106a857600080fd5b5061047f6106b736600461484f565b6111a6565b3480156106c857600080fd5b506103ce6106d736600461477f565b611303565b3480156106e857600080fd5b5061040f6106f736600461477f565b61130e565b34801561070857600080fd5b5061015f5460ff166103ce565b61047f610723366004614bf6565b6113a1565b34801561073457600080fd5b5061047f610743366004614823565b33600090815261022c602090815260408083206001600160a01b039590951683529390529190912055565b34801561077a57600080fd5b5061039161078936600461477f565b611e69565b34801561079a57600080fd5b5061047f610699366004614eb9565b3480156107b557600080fd5b5061047f6107c4366004614ed6565b611ec9565b3480156107d557600080fd5b5061040f6107e4366004614eb9565b611f77565b61040f6107f7366004614f48565b611ffd565b34801561080857600080fd5b5061084c61081736600461477f565b61022e602052600090815260409020546001600160a01b03811690600160a01b810462ffffff1690600160b81b900460ff1683565b604080516001600160a01b03909416845262ffffff90921660208401521515908201526060016103a5565b34801561088357600080fd5b5061089761089236600461477f565b6125e3565b6040516103a59c9b9a99989796959493929190615160565b3480156108bb57600080fd5b5061047f6108ca366004614eb9565b612999565b3480156108db57600080fd5b506103916108ea36600461484f565b612a6b565b3480156108fb57600080fd5b506103ce61090a366004614a28565b612a83565b34801561091b57600080fd5b50610432612aae565b34801561093057600080fd5b5061047f61093f366004615220565b612abd565b34801561095057600080fd5b5061040f600081565b34801561096557600080fd5b5061047f610974366004615247565b612c0e565b34801561098557600080fd5b5061047f610994366004615275565b612c19565b3480156109a557600080fd5b5061022854610391906001600160a01b031681565b3480156109c657600080fd5b506103ce6109d53660046152fc565b612ce5565b3480156109e657600080fd5b5061047f6109f5366004615331565b612d56565b348015610a0657600080fd5b50610432610a1536600461477f565b612d88565b348015610a2657600080fd5b5061040f610a3536600461477f565b612e91565b348015610a4657600080fd5b5061047f610a553660046153b0565b612ea8565b348015610a6657600080fd5b5061040f7f9f2df0fed2c77648de5860a4cc508cd0818c85b8b8a1ab4ceeef8d981c8956a681565b348015610a9a57600080fd5b5061047f610aa9366004614a28565b612f2b565b348015610aba57600080fd5b50610432612f50565b348015610acf57600080fd5b5061047f610ade3660046153ea565b612f5a565b348015610aef57600080fd5b5061047f610afe3660046149e7565b6130f7565b348015610b0f57600080fd5b5061040f7f65d7a28e3265b37a6474929f336521b332c1681b933f6cb9f3376673440d862a81565b348015610b4357600080fd5b506103ce610b52366004614a58565b6001600160a01b03918216600090815260ce6020908152604080832093909416825291909152205460ff1690565b6000610b8b826132c7565b92915050565b606060c98054610ba090615499565b80601f0160208091040260200160405190810160405280929190818152602001828054610bcc90615499565b8015610c195780601f10610bee57610100808354040283529160200191610c19565b820191906000526020600020905b815481529060010190602001808311610bfc57829003601f168201915b5050505050905090565b6000610c2e826132ec565b50600090815260cd60205260409020546001600160a01b031690565b6000610c5582611e69565b9050806001600160a01b0316836001600160a01b03161415610cc85760405162461bcd60e51b815260206004820152602160248201527f4552433732313a20617070726f76616c20746f2063757272656e74206f776e656044820152603960f91b60648201526084015b60405180910390fd5b336001600160a01b0382161480610ce45750610ce48133610b52565b610d565760405162461bcd60e51b815260206004820152603e60248201527f4552433732313a20617070726f76652063616c6c6572206973206e6f7420746f60448201527f6b656e206f776e6572206e6f7220617070726f76656420666f7220616c6c00006064820152608401610cbf565b610d60838361333c565b505050565b600082815261022b602090815260408083208484529091528120546001600160a01b031680610d9a578360601c915050610b8b565b9392505050565b60006001610daf6102295490565b610db991906154e4565b905090565b600082815261022a602052604090206008015460ff168015610de45750610de4826133aa565b610ded57600080fd5b60005b8151811015610d605760006001600160a01b031661022b6000848481518110610e1b57610e1b6154fb565b602090810291909101810151825281810192909252604090810160009081208782529092529020546001600160a01b031614610e5657600080fd5b3361022b6000848481518110610e6e57610e6e6154fb565b60200260200101518152602001908152602001600020600085815260200190815260200160002060006101000a8154816001600160a01b0302191690836001600160a01b031602179055508080610ec490615511565b915050610df0565b610ed633826133c7565b610ef25760405162461bcd60e51b8152600401610cbf9061552c565b610d60838383613446565b600082815261022e60209081526040808320815160608101835290546001600160a01b0381168252600160a01b810462ffffff1693820193909352600160b81b90920460ff1615801591830191909152829190610f82578051602082015190935061271090610f719062ffffff168661557a565b610f7b91906155af565b9150610fc3565b600085815261022a6020526040902060050154600160201b90046001600160a01b03169250612710610fb6856101f461557a565b610fc091906155af565b91505b509250929050565b600082815260656020526040902060010154610fe6816135ed565b610d6083836135f7565b6000610ffb83611f77565b821061105d5760405162461bcd60e51b815260206004820152602b60248201527f455243373231456e756d657261626c653a206f776e657220696e646578206f7560448201526a74206f6620626f756e647360a81b6064820152608401610cbf565b506001600160a01b0391909116600090815260fb60209081526040808320938352929052205490565b6001600160a01b03811633146110f65760405162461bcd60e51b815260206004820152602f60248201527f416363657373436f6e74726f6c3a2063616e206f6e6c792072656e6f756e636560448201526e103937b632b9903337b91039b2b63360891b6064820152608401610cbf565b6111008282613619565b5050565b600082815261022a6020908152604091829020600501548251808401909352600383526218981960e91b91830191909152600160201b90046001600160a01b031633146111645760405162461bcd60e51b8152600401610cbf91906147f0565b50600082815261022a602090815260409091208251610d60926006909201918401906146b3565b610d6083838360405180602001604052806000815250612d56565b600082815261022a602052604090206008015460ff161580156111cd57506111cd826133aa565b6111d657600080fd5b600080826001600160401b038111156111f1576111f1614871565b60405190808252806020026020018201604052801561121a578160200160208202803683370190505b50905060005b838110156112c15761123333868361363b565b600081815261022b602090815260408083208984529091529020549093506001600160a01b03161561126457600080fd5b600083815261022b60209081526040808320888452909152902080546001600160a01b03191633179055815183908390839081106112a4576112a46154fb565b6020908102919091010152806112b981615511565b915050611220565b507feac055ed8b84f6ed7b96c917e1a500965c90467998c41630ebabcc5bc99b306b3385836040516112f5939291906155c3565b60405180910390a150505050565b6000610b8b826133aa565b600061131960fd5490565b821061137c5760405162461bcd60e51b815260206004820152602c60248201527f455243373231456e756d657261626c653a20676c6f62616c20696e646578206f60448201526b7574206f6620626f756e647360a01b6064820152608401610cbf565b60fd828154811061138f5761138f6154fb565b90600052602060002001549050919050565b60026101f55414156113c55760405162461bcd60e51b8152600401610cbf90615620565b60026101f58190558151600090815261022a602090815260408083208151610180810183528154815260018201546001600160a01b0316938101939093529384015490820152600383015460608201526004830180549293919260808401919061142e90615499565b80601f016020809104026020016040519081016040528092919081815260200182805461145a90615499565b80156114a75780601f1061147c576101008083540402835291602001916114a7565b820191906000526020600020905b81548152906001019060200180831161148a57829003601f168201915b5050509183525050600582015463ffffffff81166020830152600160201b90046001600160a01b031660408201526006820180546060909201916114ea90615499565b80601f016020809104026020016040519081016040528092919081815260200182805461151690615499565b80156115635780601f1061153857610100808354040283529160200191611563565b820191906000526020600020905b81548152906001019060200180831161154657829003601f168201915b5050505050815260200160078201805461157c90615499565b80601f01602080910402602001604051908101604052809291908181526020018280546115a890615499565b80156115f55780601f106115ca576101008083540402835291602001916115f5565b820191906000526020600020905b8154815290600101906020018083116115d857829003601f168201915b5050509183525050600882015460ff1615156020808301919091526040805180820182526009850180548252600a86018054845181870281018701865281815294909601959294919385830193909260009084015b8282101561179957600084815260208082206040805160e08101825260078702909201805460ff9081168452600182015484860152600282015484840152600382015416606084015260048101805483518187028101870190945280845293959194608087019491929084015b828210156117635783829060005260206000200180546116d690615499565b80601f016020809104026020016040519081016040528092919081815260200182805461170290615499565b801561174f5780601f106117245761010080835404028352916020019161174f565b820191906000526020600020905b81548152906001019060200180831161173257829003601f168201915b5050505050815260200190600101906116b7565b50505090825250600582015460208083019190915260069092015460ff161515604090910152908252600192909201910161164a565b505050915250508152600b91909101546001600160a01b0316602090910152604083015151909150158015906117d85750816060015151826040015151145b604051806040016040528060038152602001620c8c0d60ea1b815250906118125760405162461bcd60e51b8152600401610cbf91906147f0565b506040810151158061183c5750806040015182604001515182606001516118399190615657565b11155b6040518060400160405280600381526020016232303360e81b815250906118765760405162461bcd60e51b8152600401610cbf91906147f0565b506102285481516001600160a01b03909116906000908015611b29576040850151516118a2908261557a565b604080518082018252600c81526b4d494e545f4e46545f46454560a01b60208201529051636d12dce160e01b81529192506000916001600160a01b03861691636d12dce1916118f491906004016147f0565b602060405180830381865afa158015611911573d6000803e3d6000fd5b505050506040513d601f19601f82011682018060405250810190611935919061566f565b90508061194157506101f45b60208501516001600160a01b03166119eb578134101561196057600080fd5b855161196b90611e69565b6001600160a01b0316612710611981838561557a565b61198b91906155af565b61199590846154e4565b604051600081818185875af1925050503d80600081146119d1576040519150601f19603f3d011682016040523d82523d6000602084013e6119d6565b606091505b505080935050826119e657600080fd5b611b27565b60208501516040516323b872dd60e01b8152336004820152306024820152604481018490526001600160a01b038216906323b872dd906064016020604051808303816000875af1158015611a43573d6000803e3d6000fd5b505050506040513d601f19601f82011682018060405250810190611a679190615688565b611a7057600080fd5b806001600160a01b031663a9059cbb611a8c8960000151611e69565b612710611a99868861557a565b611aa391906155af565b611aad90876154e4565b6040516001600160e01b031960e085901b1681526001600160a01b03909216600483015260248201526044016020604051808303816000875af1158015611af8573d6000803e3d6000fd5b505050506040513d601f19601f82011682018060405250810190611b1c9190615688565b611b2557600080fd5b505b505b8451600090815261022a60205260408120600b01546001600160a01b0316905b866060015151811015611e215786606001518181518110611b6c57611b6c6154fb565b602090810291909101810151810151518851600090815261022a8352604090819020600a0154815180830190925260038252620c8c0d60ea1b938201939093529114611bcb5760405162461bcd60e51b8152600401610cbf91906147f0565b50600087606001518281518110611be457611be46154fb565b60209081029190910181015151600081815261022d835260408082208c518352845290819020548151808301909252600382526232303560e81b938201939093529092509015611c475760405162461bcd60e51b8152600401610cbf91906147f0565b508751600090815261022a602052604090206008015460ff16611cbd5787513390611c73908390610d65565b6001600160a01b0316146040518060400160405280600381526020016232303560e81b81525090611cb75760405162461bcd60e51b8152600401610cbf91906147f0565b50611d18565b600081815261022b602090815260408083208b5184529091529020546001600160a01b031615611cec57600080fd5b600081815261022b602090815260408083208b518452909152902080546001600160a01b031916331790555b826001600160a01b03166381aa79298960200151338b604001518681518110611d4357611d436154fb565b60200260200101518c606001518781518110611d6157611d616154fb565b60200260200101518c61012001516040518663ffffffff1660e01b8152600401611d8f9594939291906156a5565b600060405180830381600087803b158015611da957600080fd5b505af1158015611dbd573d6000803e3d6000fd5b50505050600187606001818151611dd49190615657565b9052506060870180518951600090815261022a6020908152604080832060030193909355925193815261022d83528181208b51825290925290205580611e1981615511565b915050611b49565b507f67175103d209cf669be17e253aba378479477b5a1ef3b1e9eaedce52f0ebab543387604051611e539291906156f8565b60405180910390a1505060016101f55550505050565b600081815260cb60205260408120546001600160a01b031680610b8b5760405162461bcd60e51b8152602060048201526018602482015277115490cdcc8c4e881a5b9d985b1a59081d1bdad95b88125160421b6044820152606401610cbf565b600082815261022d6020908152604080832084845290915290205415801590611ef85750611ef8338383612ce5565b8015611f1f5750836001600160a01b0316611f138383610d65565b6001600160a01b031614155b8015611f3357506001600160a01b03831615155b611f3c57600080fd5b600091825261022b60209081526040808420928452919052902080546001600160a01b0319166001600160a01b039290921691909117905550565b60006001600160a01b038216611fe15760405162461bcd60e51b815260206004820152602960248201527f4552433732313a2061646472657373207a65726f206973206e6f7420612076616044820152683634b21037bbb732b960b91b6064820152608401610cbf565b506001600160a01b0316600090815260cc602052604090205490565b600060026101f55414156120235760405162461bcd60e51b8152600401610cbf90615620565b60026101f55589516040805180820190915260038082526203230360ec1b60208301529091116120665760405162461bcd60e51b8152600401610cbf91906147f0565b5061207661022980546001019055565b60006120826102295490565b905061208d816133aa565b156040518060400160405280600381526020016219181960e91b815250906120c85760405162461bcd60e51b8152600401610cbf91906147f0565b506102285460408051808201825260128152714352454154455f50524f4a4543545f46454560701b60208201529051636d12dce160e01b81526001600160a01b03909216916000918391636d12dce191612124916004016147f0565b602060405180830381865afa158015612141573d6000803e3d6000fd5b505050506040513d601f19601f82011682018060405250810190612165919061566f565b905080156122a15760408051808201825260098152682322a2afaa27a5a2a760b91b6020820152905163bf40fac160e01b81526000916001600160a01b0385169163bf40fac1916121b8916004016147f0565b602060405180830381865afa1580156121d5573d6000803e3d6000fd5b505050506040513d601f19601f820116820180604052508101906121f99190615794565b90506001600160a01b03811615612292576040516323b872dd60e01b81523360048201523060248201526044810183905281906001600160a01b038216906323b872dd906064016020604051808303816000875af115801561225f573d6000803e3d6000fd5b505050506040513d601f19601f820116820180604052508101906122839190615688565b61228c57600080fd5b5061229f565b8134101561229f57600080fd5b505b8751156122d057600083815261022a6020908152604090912089516122ce926006909201918b01906146b3565b505b8c61022a600085815260200190815260200160002060070190805190602001906122fb9291906146b3565b50600083815261022a60205260409020600581018054640100000000600160c01b03191633600160201b02179055600281018d90558781556001810180546001600160a01b0319166001600160a01b038916179055859060090161235f8282615b62565b5050600083815261022a602090815260409091208c51612387926004909201918e01906146b3565b50600083815261022a6020526040902060058101805463ffffffff191663ffffffff8d16179055600801805460ff19168a15151790556123c78e8461369b565b604080518082018252601781527f47454e455241544956455f4e46545f54454d504c4154450000000000000000006020820152905163bf40fac160e01b8152600091612471916001600160a01b0386169163bf40fac19161242b91906004016147f0565b602060405180830381865afa158015612448573d6000803e3d6000fd5b505050506040513d601f19601f8201168201806040525081019061246c9190615794565b6136b5565b600085815261022a60205260409020600701805491925082916001600160a01b0383169163ae3dd095916125339060019060039084906124b090615499565b80601f01602080910402602001604051908101604052809291908181526020018280546124dc90615499565b80156125295780601f106124fe57610100808354040283529160200191612529565b820191906000526020600020905b81548152906001019060200180831161250c57829003601f168201915b505050505061374d565b610227546040516001600160e01b031960e086901b1681526125679392916001600160a01b03169030908c90600401615c80565b600060405180830381600087803b15801561258157600080fd5b505af1158015612595573d6000803e3d6000fd5b505050600086815261022a60205260409020600b0180546001600160a01b0319166001600160a01b039490941693909317909255505060016101f55550909c9b505050505050505050505050565b61022a602052600090815260409020805460018201546002830154600384015460048501805494956001600160a01b03909416949293919261262490615499565b80601f016020809104026020016040519081016040528092919081815260200182805461265090615499565b801561269d5780601f106126725761010080835404028352916020019161269d565b820191906000526020600020905b81548152906001019060200180831161268057829003601f168201915b505050506005830154600684018054939463ffffffff831694600160201b9093046001600160a01b03169350916126d390615499565b80601f01602080910402602001604051908101604052809291908181526020018280546126ff90615499565b801561274c5780601f106127215761010080835404028352916020019161274c565b820191906000526020600020905b81548152906001019060200180831161272f57829003601f168201915b50505050509080600701805461276190615499565b80601f016020809104026020016040519081016040528092919081815260200182805461278d90615499565b80156127da5780601f106127af576101008083540402835291602001916127da565b820191906000526020600020905b8154815290600101906020018083116127bd57829003601f168201915b5050505050908060080160009054906101000a900460ff1690806009016040518060400160405290816000820154815260200160018201805480602002602001604051908101604052809291908181526020016000905b8282101561298057600084815260208082206040805160e08101825260078702909201805460ff9081168452600182015484860152600282015484840152600382015416606084015260048101805483518187028101870190945280845293959194608087019491929084015b8282101561294a5783829060005260206000200180546128bd90615499565b80601f01602080910402602001604051908101604052809291908181526020018280546128e990615499565b80156129365780601f1061290b57610100808354040283529160200191612936565b820191906000526020600020905b81548152906001019060200180831161291957829003601f168201915b50505050508152602001906001019061289e565b50505090825250600582015460208083019190915260069092015460ff1615156040909101529082526001929092019101612831565b50505091525050600b909101546001600160a01b03168c565b610227546001600160a01b0316336001600160a01b0316146040518060400160405280600381526020016231303160e81b815250906129eb5760405162461bcd60e51b8152600401610cbf91906147f0565b506129f7600033612a83565b6040518060400160405280600381526020016231303160e81b81525090612a315760405162461bcd60e51b8152600401610cbf91906147f0565b5061022780546001600160a01b038381166001600160a01b0319831681179093551690612a6090600090610fcb565b611100600082612f2b565b6000828152609760205260408120610d9a9083613833565b60009182526065602090815260408084206001600160a01b0393909316845291905290205460ff1690565b606060ca8054610ba090615499565b610227546001600160a01b0316336001600160a01b0316146040518060400160405280600381526020016231303160e81b81525090612b0f5760405162461bcd60e51b8152600401610cbf91906147f0565b50612b1b600033612a83565b6040518060400160405280600381526020016231303160e81b81525090612b555760405162461bcd60e51b8152600401610cbf91906147f0565b5060408051808201909152600381526232303360e81b6020820152612710821115612b935760405162461bcd60e51b8152600401610cbf91906147f0565b50604080516060810182526001600160a01b03938416815262ffffff92831660208083019182526001838501908152600097885261022e90915292909520905181549551925194166001600160b81b031990951694909417600160a01b91909216021760ff60b81b1916600160b81b91151591909102179055565b61110033838361383f565b600054610100900460ff1615808015612c395750600054600160ff909116105b80612c535750303b158015612c53575060005460ff166001145b612c6f5760405162461bcd60e51b8152600401610cbf90615d44565b6000805460ff191660011790558015612c92576000805461ff0019166101001790555b612c9d84848461390e565b8015612cdf576000805461ff0019169055604051600181527f7f26b83ff96e1f2b6a682f133852f6798a09c465da95921460cefb3847402498906020016112f5565b50505050565b6000836001600160a01b0316612cfb8484610d65565b6001600160a01b03161415612d1257506001610d9a565b8161022c6000612d228686610d65565b6001600160a01b03908116825260208083019390935260409182016000908120918916815292529020541490509392505050565b612d6033836133c7565b612d7c5760405162461bcd60e51b8152600401610cbf9061552c565b612cdf84848484613952565b600081815261022a6020526040812060060180546060929190612daa90615499565b90501115612e5457600082815261022a602052604090206006018054612dcf90615499565b80601f0160208091040260200160405190810160405280929190818152602001828054612dfb90615499565b8015612e485780601f10612e1d57610100808354040283529160200191612e48565b820191906000526020600020905b815481529060010190602001808311612e2b57829003601f168201915b50505050509050919050565b612e5c612f50565b612e6583613985565b604051602001612e76929190615d92565b6040516020818303038152906040529050919050565b919050565b6000818152609760205260408120610b8b90613a82565b60408051808201909152600381526203130360ec1b60208201526001600160a01b038316612ee95760405162461bcd60e51b8152600401610cbf91906147f0565b5060005b8151811015610d6057612f1983838381518110612f0c57612f0c6154fb565b6020026020010151613a8c565b80612f2381615511565b915050612eed565b600082815260656020526040902060010154612f46816135ed565b610d608383613619565b6060610db9613b2a565b600054610100900460ff1615808015612f7a5750600054600160ff909116105b80612f945750303b158015612f94575060005460ff166001145b612fb05760405162461bcd60e51b8152600401610cbf90615d44565b6000805460ff191660011790558015612fd3576000805461ff0019166101001790555b60408051808201909152600381526203130360ec1b60208201526001600160a01b0384166130145760405162461bcd60e51b8152600401610cbf91906147f0565b5060408051808201909152600381526203130360ec1b60208201526001600160a01b0383166130565760405162461bcd60e51b8152600401610cbf91906147f0565b5061306286868661390e565b61022880546001600160a01b038085166001600160a01b0319928316179092556102278054928616929091168217905561309e90600090610fcb565b6130a9600033612f2b565b80156130ef576000805461ff0019169055604051600181527f7f26b83ff96e1f2b6a682f133852f6798a09c465da95921460cefb38474024989060200160405180910390a15b505050505050565b60026101f554141561311b5760405162461bcd60e51b8152600401610cbf90615620565b60026101f555610227546001600160a01b0316336001600160a01b0316146040518060400160405280600381526020016231303160e81b815250906131735760405162461bcd60e51b8152600401610cbf91906147f0565b5061317f600033612a83565b6040518060400160405280600381526020016231303160e81b815250906131b95760405162461bcd60e51b8152600401610cbf91906147f0565b5060006001600160a01b03831661323a57814710156131d757600080fd5b6040516001600160a01b038516908390600081818185875af1925050503d8060008114613220576040519150601f19603f3d011682016040523d82523d6000602084013e613225565b606091505b5050809150508061323557600080fd5b6132bb565b60405163a9059cbb60e01b81526001600160a01b0385811660048301526024820184905284919082169063a9059cbb906044016020604051808303816000875af115801561328c573d6000803e3d6000fd5b505050506040513d601f19601f820116820180604052508101906132b09190615688565b6132b957600080fd5b505b505060016101f5555050565b60006001600160e01b0319821663780e9d6360e01b1480610b8b5750610b8b82613b3a565b6132f5816133aa565b6106995760405162461bcd60e51b8152602060048201526018602482015277115490cdcc8c4e881a5b9d985b1a59081d1bdad95b88125160421b6044820152606401610cbf565b600081815260cd6020526040902080546001600160a01b0319166001600160a01b038416908117909155819061337182611e69565b6001600160a01b03167f8c5be1e5ebec7d5bd14f71427d1e84f3dd0314c0f7b2291e5b200ac8c7c3b92560405160405180910390a45050565b600090815260cb60205260409020546001600160a01b0316151590565b6000806133d383611e69565b9050806001600160a01b0316846001600160a01b0316148061341a57506001600160a01b03808216600090815260ce602090815260408083209388168352929052205460ff165b8061343e5750836001600160a01b031661343384610c23565b6001600160a01b0316145b949350505050565b826001600160a01b031661345982611e69565b6001600160a01b0316146134bd5760405162461bcd60e51b815260206004820152602560248201527f4552433732313a207472616e736665722066726f6d20696e636f72726563742060448201526437bbb732b960d91b6064820152608401610cbf565b6001600160a01b03821661351f5760405162461bcd60e51b8152602060048201526024808201527f4552433732313a207472616e7366657220746f20746865207a65726f206164646044820152637265737360e01b6064820152608401610cbf565b61352a838383613b7a565b61353560008261333c565b6001600160a01b038316600090815260cc6020526040812080546001929061355e9084906154e4565b90915550506001600160a01b038216600090815260cc6020526040812080546001929061358c908490615657565b9091555050600081815260cb602052604080822080546001600160a01b0319166001600160a01b0386811691821790925591518493918716917fddf252ad1be2c89b69c2b068fc378daa952ba7f163c4a11628f55a4df523b3ef91a4505050565b6106998133613b85565b6136018282613be9565b6000828152609760205260409020610d609082613c6f565b6136238282613c84565b6000828152609760205260409020610d609082613ceb565b60006136486001436154e4565b60408051914060208301526bffffffffffffffffffffffff19606087901b169082015260548101849052607481018390526094016040516020818303038152906040528051906020012090509392505050565b611100828260405180602001604052806000815250613d00565b6000604051733d602d80600a3d3981f3363d3d373d3d3d363d7360601b81528260601b60148201526e5af43d82803e903d91602b57fd5bf360881b60288201526037816000f09150506001600160a01b038116612e8c5760405162461bcd60e51b8152602060048201526016602482015275115490cc4c4d8dce8818dc99585d194819985a5b195960521b6044820152606401610cbf565b6060600061375b85856154e4565b613766906001615657565b6001600160401b0381111561377d5761377d614871565b6040519080825280601f01601f1916602001820160405280156137a7576020820181803683370190505b50905060005b6137b786866154e4565b811161382a578360016137ca8884615657565b6137d491906154e4565b815181106137e4576137e46154fb565b602001015160f81c60f81b828281518110613801576138016154fb565b60200101906001600160f81b031916908160001a9053508061382281615511565b9150506137ad565b50949350505050565b6000610d9a8383613d33565b816001600160a01b0316836001600160a01b031614156138a15760405162461bcd60e51b815260206004820152601960248201527f4552433732313a20617070726f766520746f2063616c6c6572000000000000006044820152606401610cbf565b6001600160a01b03838116600081815260ce6020908152604080832094871680845294825291829020805460ff191686151590811790915591519182527f17307eab39ab6107e8899845ad3d59bd9653f200f220920489ca2b5937696c31910160405180910390a3505050565b600054610100900460ff166139355760405162461bcd60e51b8152600401610cbf90615dc1565b61393f8383613d5d565b613947613dab565b610d60838383613ddf565b61395d848484613446565b61396984848484613e7a565b612cdf5760405162461bcd60e51b8152600401610cbf90615e0c565b6060816139a95750506040805180820190915260018152600360fc1b602082015290565b8160005b81156139d357806139bd81615511565b91506139cc9050600a836155af565b91506139ad565b6000816001600160401b038111156139ed576139ed614871565b6040519080825280601f01601f191660200182016040528015613a17576020820181803683370190505b5090505b841561343e57613a2c6001836154e4565b9150613a39600a86615e5e565b613a44906030615657565b60f81b818381518110613a5957613a596154fb565b60200101906001600160f81b031916908160001a905350613a7b600a866155af565b9450613a1b565b6000610b8b825490565b600081815261022a6020908152604091829020600501548251808401909352600383526218981960e91b91830191909152600160201b90046001600160a01b03163314613aec5760405162461bcd60e51b8152600401610cbf91906147f0565b50600090815261022a6020526040902060050180546001600160a01b03909216600160201b02640100000000600160c01b0319909216919091179055565b60606101c48054610ba090615499565b60006001600160e01b031982166380ac58cd60e01b1480613b6b57506001600160e01b03198216635b5e139f60e01b145b80610b8b5750610b8b82613f78565b610d60838383613f9d565b613b8f8282612a83565b61110057613ba7816001600160a01b03166014614010565b613bb2836020614010565b604051602001613bc3929190615e72565b60408051601f198184030181529082905262461bcd60e51b8252610cbf916004016147f0565b613bf38282612a83565b6111005760008281526065602090815260408083206001600160a01b03851684529091529020805460ff19166001179055613c2b3390565b6001600160a01b0316816001600160a01b0316837f2f8788117e7eff1d82e926ec794901d17c78024a50270940304540a733656f0d60405160405180910390a45050565b6000610d9a836001600160a01b0384166141ab565b613c8e8282612a83565b156111005760008281526065602090815260408083206001600160a01b0385168085529252808320805460ff1916905551339285917ff6391f5c32d9c69d2a47ea670b442974b53935d1edc7fd64eb21e047a839171b9190a45050565b6000610d9a836001600160a01b0384166141fa565b613d0a83836142ed565b613d176000848484613e7a565b610d605760405162461bcd60e51b8152600401610cbf90615e0c565b6000826000018281548110613d4a57613d4a6154fb565b9060005260206000200154905092915050565b600054610100900460ff16613d845760405162461bcd60e51b8152600401610cbf90615dc1565b8151613d979060c99060208501906146b3565b508051610d609060ca9060208401906146b3565b600054610100900460ff16613dd25760405162461bcd60e51b8152600401610cbf90615dc1565b61015f805460ff19169055565b600054610100900460ff16613e065760405162461bcd60e51b8152600401610cbf90615dc1565b8051613e1a906101c49060208401906146b3565b50613e2660003361442c565b613e507f9f2df0fed2c77648de5860a4cc508cd0818c85b8b8a1ab4ceeef8d981c8956a63361442c565b610d607f65d7a28e3265b37a6474929f336521b332c1681b933f6cb9f3376673440d862a3361442c565b60006001600160a01b0384163b15613f6d57604051630a85bd0160e11b81526001600160a01b0385169063150b7a0290613ebe903390899088908890600401615ee7565b6020604051808303816000875af1925050508015613ef9575060408051601f3d908101601f19168201909252613ef691810190615f24565b60015b613f53573d808015613f27576040519150601f19603f3d011682016040523d82523d6000602084013e613f2c565b606091505b508051613f4b5760405162461bcd60e51b8152600401610cbf90615e0c565b805181602001fd5b6001600160e01b031916630a85bd0160e11b14905061343e565b506001949350505050565b60006001600160e01b03198216635a05180f60e01b1480610b8b5750610b8b82614436565b613fa883838361446b565b61015f5460ff1615610d605760405162461bcd60e51b815260206004820152602b60248201527f4552433732315061757361626c653a20746f6b656e207472616e73666572207760448201526a1a1a5b19481c185d5cd95960aa1b6064820152608401610cbf565b6060600061401f83600261557a565b61402a906002615657565b6001600160401b0381111561404157614041614871565b6040519080825280601f01601f19166020018201604052801561406b576020820181803683370190505b509050600360fc1b81600081518110614086576140866154fb565b60200101906001600160f81b031916908160001a905350600f60fb1b816001815181106140b5576140b56154fb565b60200101906001600160f81b031916908160001a90535060006140d984600261557a565b6140e4906001615657565b90505b600181111561415c576f181899199a1a9b1b9c1cb0b131b232b360811b85600f1660108110614118576141186154fb565b1a60f81b82828151811061412e5761412e6154fb565b60200101906001600160f81b031916908160001a90535060049490941c9361415581615f41565b90506140e7565b508315610d9a5760405162461bcd60e51b815260206004820181905260248201527f537472696e67733a20686578206c656e67746820696e73756666696369656e746044820152606401610cbf565b60008181526001830160205260408120546141f257508154600181810184556000848152602080822090930184905584548482528286019093526040902091909155610b8b565b506000610b8b565b600081815260018301602052604081205480156142e357600061421e6001836154e4565b8554909150600090614232906001906154e4565b9050818114614297576000866000018281548110614252576142526154fb565b9060005260206000200154905080876000018481548110614275576142756154fb565b6000918252602080832090910192909255918252600188019052604090208390555b85548690806142a8576142a8615f58565b600190038181906000526020600020016000905590558560010160008681526020019081526020016000206000905560019350505050610b8b565b6000915050610b8b565b6001600160a01b0382166143435760405162461bcd60e51b815260206004820181905260248201527f4552433732313a206d696e7420746f20746865207a65726f20616464726573736044820152606401610cbf565b61434c816133aa565b156143995760405162461bcd60e51b815260206004820152601c60248201527f4552433732313a20746f6b656e20616c7265616479206d696e746564000000006044820152606401610cbf565b6143a560008383613b7a565b6001600160a01b038216600090815260cc602052604081208054600192906143ce908490615657565b9091555050600081815260cb602052604080822080546001600160a01b0319166001600160a01b03861690811790915590518392907fddf252ad1be2c89b69c2b068fc378daa952ba7f163c4a11628f55a4df523b3ef908290a45050565b61110082826135f7565b60006001600160e01b03198216637965db0b60e01b1480610b8b57506301ffc9a760e01b6001600160e01b0319831614610b8b565b6001600160a01b0383166144c6576144c18160fd8054600083815260fe60205260408120829055600182018355919091527f9346ac6dd7de6b96975fec380d4d994c4c12e6a8897544f22915316cc6cca2800155565b6144e9565b816001600160a01b0316836001600160a01b0316146144e9576144e98382614523565b6001600160a01b03821661450057610d60816145c0565b826001600160a01b0316826001600160a01b031614610d6057610d60828261466f565b6000600161453084611f77565b61453a91906154e4565b600083815260fc602052604090205490915080821461458d576001600160a01b038416600090815260fb60209081526040808320858452825280832054848452818420819055835260fc90915290208190555b50600091825260fc602090815260408084208490556001600160a01b03909416835260fb81528383209183525290812055565b60fd546000906145d2906001906154e4565b600083815260fe602052604081205460fd80549394509092849081106145fa576145fa6154fb565b906000526020600020015490508060fd838154811061461b5761461b6154fb565b600091825260208083209091019290925582815260fe909152604080822084905585825281205560fd80548061465357614653615f58565b6001900381819060005260206000200160009055905550505050565b600061467a83611f77565b6001600160a01b03909316600090815260fb60209081526040808320868452825280832085905593825260fc9052919091209190915550565b8280546146bf90615499565b90600052602060002090601f0160209004810192826146e15760008555614727565b82601f106146fa57805160ff1916838001178555614727565b82800160010185558215614727579182015b8281111561472757825182559160200191906001019061470c565b50614733929150614737565b5090565b5b808211156147335760008155600101614738565b6001600160e01b03198116811461069957600080fd5b60006020828403121561477457600080fd5b8135610d9a8161474c565b60006020828403121561479157600080fd5b5035919050565b60005b838110156147b357818101518382015260200161479b565b83811115612cdf5750506000910152565b600081518084526147dc816020860160208601614798565b601f01601f19169290920160200192915050565b602081526000610d9a60208301846147c4565b6001600160a01b038116811461069957600080fd5b8035612e8c81614803565b6000806040838503121561483657600080fd5b823561484181614803565b946020939093013593505050565b6000806040838503121561486257600080fd5b50508035926020909101359150565b634e487b7160e01b600052604160045260246000fd5b604051608081016001600160401b03811182821017156148a9576148a9614871565b60405290565b604080519081016001600160401b03811182821017156148a9576148a9614871565b60405160e081016001600160401b03811182821017156148a9576148a9614871565b604051601f8201601f191681016001600160401b038111828210171561491b5761491b614871565b604052919050565b60006001600160401b0382111561493c5761493c614871565b5060051b60200190565b6000806040838503121561495957600080fd5b823591506020808401356001600160401b0381111561497757600080fd5b8401601f8101861361498857600080fd5b803561499b61499682614923565b6148f3565b81815260059190911b820183019083810190888311156149ba57600080fd5b928401925b828410156149d8578335825292840192908401906149bf565b80955050505050509250929050565b6000806000606084860312156149fc57600080fd5b8335614a0781614803565b92506020840135614a1781614803565b929592945050506040919091013590565b60008060408385031215614a3b57600080fd5b823591506020830135614a4d81614803565b809150509250929050565b60008060408385031215614a6b57600080fd5b8235614a7681614803565b91506020830135614a4d81614803565b60006001600160401b03831115614a9f57614a9f614871565b614ab2601f8401601f19166020016148f3565b9050828152838383011115614ac657600080fd5b828260208301376000602084830101529392505050565b600082601f830112614aee57600080fd5b610d9a83833560208501614a86565b60008060408385031215614b1057600080fd5b8235915060208301356001600160401b03811115614b2d57600080fd5b610fc085828601614add565b600082601f830112614b4a57600080fd5b81356020614b5a61499683614923565b82815260059290921b84018101918181019086841115614b7957600080fd5b8286015b84811015614bb85780356001600160401b03811115614b9c5760008081fd5b614baa8986838b0101614add565b845250918301918301614b7d565b509695505050505050565b60ff8116811461069957600080fd5b8035612e8c81614bc3565b801515811461069957600080fd5b8035612e8c81614bdd565b600060208284031215614c0857600080fd5b6001600160401b0382351115614c1d57600080fd5b60808235830184031215614c3057600080fd5b614c38614887565b8235830180358252614c4d9060200135614803565b602083358401013560208201526001600160401b0360408435850101351115614c7557600080fd5b614c888484358501604081013501614b39565b60408201526001600160401b0360608435850101351115614ca857600080fd5b82358301606081013501601f81018513614cc157600080fd5b614cce6149968235614923565b81358082526020808301929160051b840101871015614cec57600080fd5b602083015b6020843560051b850101811015614ea9576001600160401b0381351115614d1757600080fd5b6040813585018903601f19011215614d2e57600080fd5b614d366148af565b81358501602081013582526001600160401b036040909101351115614d5a57600080fd5b81358501604081013501603f81018a13614d7357600080fd5b614d836149966020830135614923565b602082810135808352908201919060051b83016040018c1015614da557600080fd5b604083015b6040602085013560051b850101811015614e90576001600160401b0381351115614dd357600080fd5b60e0813585018e03603f19011215614dea57600080fd5b614df26148d1565b614e0160408335870101614bd2565b8152813585016060810135602083015260808101356040830152614e279060a001614bd2565b60608201526001600160401b0360c08335870101351115614e4757600080fd5b614e5d8e8335870160c081013501604001614b39565b60808201528135850160e081013560a0830152614e7d9061010001614beb565b60c0820152835260209283019201614daa565b5060208481019190915292865250509283019201614cf1565b5060608401525090949350505050565b600060208284031215614ecb57600080fd5b8135610d9a81614803565b60008060008060808587031215614eec57600080fd5b8435614ef781614803565b93506020850135614f0781614803565b93969395505050506040820135916060013590565b803563ffffffff81168114612e8c57600080fd5b600060408284031215614f4257600080fd5b50919050565b6000806000806000806000806000806101408b8d031215614f6857600080fd5b614f718b614818565b995060208b01356001600160401b0380821115614f8d57600080fd5b614f998e838f01614add565b9a5060408d0135995060608d0135915080821115614fb657600080fd5b614fc28e838f01614add565b9850614fd060808e01614f1c565b9750614fde60a08e01614beb565b965060c08d0135915080821115614ff457600080fd5b6150008e838f01614add565b955060e08d013594506150166101008e01614818565b93506101208d013591508082111561502d57600080fd5b5061503a8d828e01614f30565b9150509295989b9194979a5092959850565b600081518084526020808501808196508360051b8101915082860160005b858110156150945782840389526150828483516147c4565b9885019893509084019060010161506a565b5091979650505050505050565b60006040808401835185526020808501518382880152828151808552606094508489019150848160051b8a0101848401935060005b8281101561515257605f198b8303018452845160e060ff80835116855288830151898601528a8301518b860152808a840151168a8601525060808083015182828701526151258387018261504c565b60a0858101519088015260c0948501511515949096019390935250505093850193928501926001016150d6565b509998505050505050505050565b60006101808e835260018060a01b038e1660208401528c60408401528b60608401528060808401526151948184018c6147c4565b63ffffffff8b1660a08501526001600160a01b038a1660c0850152905082810360e08401526151c381896147c4565b90508281036101008401526151d881886147c4565b86151561012085015290508281036101408401526151f681866150a1565b91505061520f6101608301846001600160a01b03169052565b9d9c50505050505050505050505050565b60008060006060848603121561523557600080fd5b833592506020840135614a1781614803565b6000806040838503121561525a57600080fd5b823561526581614803565b91506020830135614a4d81614bdd565b60008060006060848603121561528a57600080fd5b83356001600160401b03808211156152a157600080fd5b6152ad87838801614add565b945060208601359150808211156152c357600080fd5b6152cf87838801614add565b935060408601359150808211156152e557600080fd5b506152f286828701614add565b9150509250925092565b60008060006060848603121561531157600080fd5b833561531c81614803565b95602085013595506040909401359392505050565b6000806000806080858703121561534757600080fd5b843561535281614803565b9350602085013561536281614803565b92506040850135915060608501356001600160401b0381111561538457600080fd5b8501601f8101871361539557600080fd5b6153a487823560208401614a86565b91505092959194509250565b600080604083850312156153c357600080fd5b82356153ce81614803565b91506020838101356001600160401b0381111561497757600080fd5b600080600080600060a0868803121561540257600080fd5b85356001600160401b038082111561541957600080fd5b61542589838a01614add565b9650602088013591508082111561543b57600080fd5b61544789838a01614add565b9550604088013591508082111561545d57600080fd5b5061546a88828901614add565b935050606086013561547b81614803565b9150608086013561548b81614803565b809150509295509295909350565b600181811c908216806154ad57607f821691505b60208210811415614f4257634e487b7160e01b600052602260045260246000fd5b634e487b7160e01b600052601160045260246000fd5b6000828210156154f6576154f66154ce565b500390565b634e487b7160e01b600052603260045260246000fd5b6000600019821415615525576155256154ce565b5060010190565b6020808252602e908201527f4552433732313a2063616c6c6572206973206e6f7420746f6b656e206f776e6560408201526d1c881b9bdc88185c1c1c9bdd995960921b606082015260800190565b6000816000190483118215151615615594576155946154ce565b500290565b634e487b7160e01b600052601260045260246000fd5b6000826155be576155be615599565b500490565b6001600160a01b038416815260208082018490526060604083018190528351908301819052600091848101916080850190845b81811015615612578451835293830193918301916001016155f6565b509098975050505050505050565b6020808252601f908201527f5265656e7472616e637947756172643a207265656e7472616e742063616c6c00604082015260600190565b6000821982111561566a5761566a6154ce565b500190565b60006020828403121561568157600080fd5b5051919050565b60006020828403121561569a57600080fd5b8151610d9a81614bdd565b6001600160a01b0386811682528516602082015260a0604082018190526000906156d1908301866147c4565b82810360608401526156e381866150a1565b91505082151560808301529695505050505050565b6001600160a01b0383811682526040602080840182905284518285015284810151909216606084015283015160808084015260009161573a60c085018361504c565b6060860151858203603f190160a0870152805180835291935082019082840190600581901b8501840160005b8281101561515257601f198783030184526157828286516150a1565b94860194938601939150600101615766565b6000602082840312156157a657600080fd5b8151610d9a81614803565b6000808335601e198436030181126157c857600080fd5b8301803591506001600160401b038211156157e257600080fd5b6020019150600581901b36038213156157fa57600080fd5b9250929050565b6000823560de1983360301811261581757600080fd5b9190910192915050565b5b818110156111005760008155600101615822565b805460008083558115610d605782815260208082208381015b808210156130ef576158618254615499565b80156158a857601f8082116001811461587c578685556158a5565b84875285872061589683850160051c820160018301615821565b50600085815260208120818755555b50505b5060018201915061584f565b601f821115610d6057806000526020600020601f840160051c810160208510156158db5750805b6158ed601f850160051c830182615821565b5050505050565b6001600160401b0383111561590b5761590b614871565b61591f836159198354615499565b836158b4565b6000601f841160018114615953576000851561593b5750838201355b600019600387901b1c1916600186901b1783556158ed565b600083815260209020601f19861690835b828110156159845786850135825560209485019460019092019101615964565b50868210156159a15760001960f88860031b161c19848701351681555b505060018560011b0183555050505050565b60008135610b8b81614bdd565b81356159cb81614bc3565b815460ff191660ff8216178255506001602080840135828401556040840135600284015560608401356159fd81614bc3565b60038401805460ff191660ff83161790555060048301615a2060808601866157b1565b600160401b811115615a3457615a34614871565b825481845580821015615ab95760008481528581208381019083015b80821015615ab557615a628254615499565b8015615aab57601f80821160018114615a7d57858555615aa8565b600085815260209020615a9983850160051c82018e8301615821565b50600085815260208120818755555b50505b5090880190615a50565b5050505b508160008481528581209450805b83811015615b28578235601e19863603018112615ae2578283fd5b850180356001600160401b03811115615af9578384fd5b8882019150803603821315615b0c578384fd5b615b1781838a6158f4565b505094870194918601918701615ac7565b505050505050505060a08201356005820155611100615b4960c084016159b3565b6006830160ff1981541660ff8315151681178255505050565b8135815560018082016020615b79818601866157b1565b600160401b811115615b8d57615b8d614871565b835481855580821015615c3a577f2492492492492492492492492492492492492492492492492492492492492492808211871615615bcd57615bcd6154ce565b6007818411881615615be157615be16154ce565b6000878152868120909250848202810190828502015b80821015615c3557838255838a830155836002830155836003830155615c1f60048301615836565b8360058301558360068301558282019150615bf7565b505050505b506000938452602084209382905b82811015615c7557615c63615c5d8386615801565b876159c0565b60079590950194908401908601615c48565b505050505050505050565b60a081526000808754615c9281615499565b8060a086015260c0600180841660008114615cb45760018114615cc857615cf9565b60ff1985168884015260e088019550615cf9565b8c60005260208060002060005b86811015615cf05781548b8201870152908401908201615cd5565b8a018501975050505b50505050508281036020840152615d1081886147c4565b915050615d2860408301866001600160a01b03169052565b6001600160a01b03939093166060820152608001529392505050565b6020808252602e908201527f496e697469616c697a61626c653a20636f6e747261637420697320616c72656160408201526d191e481a5b9a5d1a585b1a5e995960921b606082015260800190565b60008351615da4818460208801614798565b835190830190615db8818360208801614798565b01949350505050565b6020808252602b908201527f496e697469616c697a61626c653a20636f6e7472616374206973206e6f74206960408201526a6e697469616c697a696e6760a81b606082015260800190565b60208082526032908201527f4552433732313a207472616e7366657220746f206e6f6e20455243373231526560408201527131b2b4bb32b91034b6b83632b6b2b73a32b960711b606082015260800190565b600082615e6d57615e6d615599565b500690565b7f416363657373436f6e74726f6c3a206163636f756e7420000000000000000000815260008351615eaa816017850160208801614798565b7001034b99036b4b9b9b4b733903937b6329607d1b6017918401918201528351615edb816028840160208801614798565b01602801949350505050565b6001600160a01b0385811682528416602082015260408101839052608060608201819052600090615f1a908301846147c4565b9695505050505050565b600060208284031215615f3657600080fd5b8151610d9a8161474c565b600081615f5057615f506154ce565b506000190190565b634e487b7160e01b600052603160045260246000fdfea26469706673582212202c815844a1131d7b46e8e67b1ded2c378c29de409be7e9eedc8dabc7f95c598764736f6c634300080c0033",
  "linkReferences": {},
  "deployedLinkReferences": {}
}