{
  "_format": "hh-sol-artifact-1",
  "contractName": "GenerativeBoilerplateNFT",
  "sourceName": "contracts/nft/GenerativeBoilerplateNFT.sol",
  "abi": [
    {
      "anonymous": false,
      "inputs": [
        {
          "indexed": true,
          "internalType": "address",
          "name": "owner",
          "type": "address"
        },
        {
          "indexed": true,
          "internalType": "address",
          "name": "approved",
          "type": "address"
        },
        {
          "indexed": true,
          "internalType": "uint256",
          "name": "tokenId",
          "type": "uint256"
        }
      ],
      "name": "Approval",
      "type": "event"
    },
    {
      "anonymous": false,
      "inputs": [
        {
          "indexed": true,
          "internalType": "address",
          "name": "owner",
          "type": "address"
        },
        {
          "indexed": true,
          "internalType": "address",
          "name": "operator",
          "type": "address"
        },
        {
          "indexed": false,
          "internalType": "bool",
          "name": "approved",
          "type": "bool"
        }
      ],
      "name": "ApprovalForAll",
      "type": "event"
    },
    {
      "anonymous": false,
      "inputs": [
        {
          "indexed": false,
          "internalType": "address",
          "name": "sender",
          "type": "address"
        },
        {
          "indexed": false,
          "internalType": "uint256",
          "name": "projectId",
          "type": "uint256"
        },
        {
          "indexed": false,
          "internalType": "bytes32[]",
          "name": "seeds",
          "type": "bytes32[]"
        }
      ],
      "name": "GenerateSeeds",
      "type": "event"
    },
    {
      "anonymous": false,
      "inputs": [
        {
          "indexed": false,
          "internalType": "uint8",
          "name": "version",
          "type": "uint8"
        }
      ],
      "name": "Initialized",
      "type": "event"
    },
    {
      "anonymous": false,
      "inputs": [
        {
          "indexed": false,
          "internalType": "address",
          "name": "sender",
          "type": "address"
        },
        {
          "components": [
            {
              "internalType": "uint256",
              "name": "_fromProjectId",
              "type": "uint256"
            },
            {
              "internalType": "address",
              "name": "_mintTo",
              "type": "address"
            },
            {
              "internalType": "string[]",
              "name": "_uriBatch",
              "type": "string[]"
            },
            {
              "components": [
                {
                  "internalType": "bytes32",
                  "name": "_seed",
                  "type": "bytes32"
                },
                {
                  "components": [
                    {
                      "internalType": "uint8",
                      "name": "_typeValue",
                      "type": "uint8"
                    },
                    {
                      "internalType": "uint256",
                      "name": "_max",
                      "type": "uint256"
                    },
                    {
                      "internalType": "uint256",
                      "name": "_min",
                      "type": "uint256"
                    },
                    {
                      "internalType": "uint8",
                      "name": "_decimal",
                      "type": "uint8"
                    },
                    {
                      "internalType": "string[]",
                      "name": "_availableValues",
                      "type": "string[]"
                    },
                    {
                      "internalType": "uint256",
                      "name": "_value",
                      "type": "uint256"
                    },
                    {
                      "internalType": "bool",
                      "name": "_editable",
                      "type": "bool"
                    }
                  ],
                  "internalType": "struct BoilerplateParam.ParamTemplate[]",
                  "name": "_params",
                  "type": "tuple[]"
                }
              ],
              "internalType": "struct BoilerplateParam.ParamsOfProject[]",
              "name": "_paramsBatch",
              "type": "tuple[]"
            }
          ],
          "indexed": false,
          "internalType": "struct IGenerativeBoilerplateNFT.MintRequest",
          "name": "request",
          "type": "tuple"
        }
      ],
      "name": "MintBatchNFT",
      "type": "event"
    },
    {
      "anonymous": false,
      "inputs": [
        {
          "indexed": false,
          "internalType": "address",
          "name": "account",
          "type": "address"
        }
      ],
      "name": "Paused",
      "type": "event"
    },
    {
      "anonymous": false,
      "inputs": [
        {
          "indexed": true,
          "internalType": "bytes32",
          "name": "role",
          "type": "bytes32"
        },
        {
          "indexed": true,
          "internalType": "bytes32",
          "name": "previousAdminRole",
          "type": "bytes32"
        },
        {
          "indexed": true,
          "internalType": "bytes32",
          "name": "newAdminRole",
          "type": "bytes32"
        }
      ],
      "name": "RoleAdminChanged",
      "type": "event"
    },
    {
      "anonymous": false,
      "inputs": [
        {
          "indexed": true,
          "internalType": "bytes32",
          "name": "role",
          "type": "bytes32"
        },
        {
          "indexed": true,
          "internalType": "address",
          "name": "account",
          "type": "address"
        },
        {
          "indexed": true,
          "internalType": "address",
          "name": "sender",
          "type": "address"
        }
      ],
      "name": "RoleGranted",
      "type": "event"
    },
    {
      "anonymous": false,
      "inputs": [
        {
          "indexed": true,
          "internalType": "bytes32",
          "name": "role",
          "type": "bytes32"
        },
        {
          "indexed": true,
          "internalType": "address",
          "name": "account",
          "type": "address"
        },
        {
          "indexed": true,
          "internalType": "address",
          "name": "sender",
          "type": "address"
        }
      ],
      "name": "RoleRevoked",
      "type": "event"
    },
    {
      "anonymous": false,
      "inputs": [
        {
          "indexed": true,
          "internalType": "address",
          "name": "from",
          "type": "address"
        },
        {
          "indexed": true,
          "internalType": "address",
          "name": "to",
          "type": "address"
        },
        {
          "indexed": true,
          "internalType": "uint256",
          "name": "tokenId",
          "type": "uint256"
        }
      ],
      "name": "Transfer",
      "type": "event"
    },
    {
      "anonymous": false,
      "inputs": [
        {
          "indexed": false,
          "internalType": "address",
          "name": "account",
          "type": "address"
        }
      ],
      "name": "Unpaused",
      "type": "event"
    },
    {
      "inputs": [],
      "name": "DEFAULT_ADMIN_ROLE",
      "outputs": [
        {
          "internalType": "bytes32",
          "name": "",
          "type": "bytes32"
        }
      ],
      "stateMutability": "view",
      "type": "function"
    },
    {
      "inputs": [],
      "name": "MINTER_ROLE",
      "outputs": [
        {
          "internalType": "bytes32",
          "name": "",
          "type": "bytes32"
        }
      ],
      "stateMutability": "view",
      "type": "function"
    },
    {
      "inputs": [],
      "name": "PAUSER_ROLE",
      "outputs": [
        {
          "internalType": "bytes32",
          "name": "",
          "type": "bytes32"
        }
      ],
      "stateMutability": "view",
      "type": "function"
    },
    {
      "inputs": [],
      "name": "_admin",
      "outputs": [
        {
          "internalType": "address",
          "name": "",
          "type": "address"
        }
      ],
      "stateMutability": "view",
      "type": "function"
    },
    {
      "inputs": [
        {
          "internalType": "address",
          "name": "",
          "type": "address"
        },
        {
          "internalType": "address",
          "name": "",
          "type": "address"
        }
      ],
      "name": "_approvalForAllSeeds",
      "outputs": [
        {
          "internalType": "uint256",
          "name": "",
          "type": "uint256"
        }
      ],
      "stateMutability": "view",
      "type": "function"
    },
    {
      "inputs": [
        {
          "internalType": "uint256",
          "name": "",
          "type": "uint256"
        }
      ],
      "name": "_minterNFTInfos",
      "outputs": [
        {
          "internalType": "address",
          "name": "",
          "type": "address"
        }
      ],
      "stateMutability": "view",
      "type": "function"
    },
    {
      "inputs": [],
      "name": "_paramsAddress",
      "outputs": [
        {
          "internalType": "address",
          "name": "",
          "type": "address"
        }
      ],
      "stateMutability": "view",
      "type": "function"
    },
    {
      "inputs": [
        {
          "internalType": "uint256",
          "name": "",
          "type": "uint256"
        }
      ],
      "name": "_projects",
      "outputs": [
        {
          "internalType": "uint256",
          "name": "_fee",
          "type": "uint256"
        },
        {
          "internalType": "address",
          "name": "_feeToken",
          "type": "address"
        },
        {
          "internalType": "uint256",
          "name": "_mintMaxSupply",
          "type": "uint256"
        },
        {
          "internalType": "uint256",
          "name": "_mintTotalSupply",
          "type": "uint256"
        },
        {
          "internalType": "string",
          "name": "_script",
          "type": "string"
        },
        {
          "internalType": "uint32",
          "name": "_scriptType",
          "type": "uint32"
        },
        {
          "internalType": "address",
          "name": "_creator",
          "type": "address"
        },
        {
          "internalType": "string",
          "name": "_customUri",
          "type": "string"
        },
        {
          "internalType": "string",
          "name": "_projectName",
          "type": "string"
        },
        {
          "internalType": "bool",
          "name": "_clientSeed",
          "type": "bool"
        },
        {
          "components": [
            {
              "internalType": "bytes32",
              "name": "_seed",
              "type": "bytes32"
            },
            {
              "components": [
                {
                  "internalType": "uint8",
                  "name": "_typeValue",
                  "type": "uint8"
                },
                {
                  "internalType": "uint256",
                  "name": "_max",
                  "type": "uint256"
                },
                {
                  "internalType": "uint256",
                  "name": "_min",
                  "type": "uint256"
                },
                {
                  "internalType": "uint8",
                  "name": "_decimal",
                  "type": "uint8"
                },
                {
                  "internalType": "string[]",
                  "name": "_availableValues",
                  "type": "string[]"
                },
                {
                  "internalType": "uint256",
                  "name": "_value",
                  "type": "uint256"
                },
                {
                  "internalType": "bool",
                  "name": "_editable",
                  "type": "bool"
                }
              ],
              "internalType": "struct BoilerplateParam.ParamTemplate[]",
              "name": "_params",
              "type": "tuple[]"
            }
          ],
          "internalType": "struct BoilerplateParam.ParamsOfProject",
          "name": "_paramsTemplate",
          "type": "tuple"
        }
      ],
      "stateMutability": "view",
      "type": "function"
    },
    {
      "inputs": [
        {
          "internalType": "address",
          "name": "to",
          "type": "address"
        },
        {
          "internalType": "uint256",
          "name": "tokenId",
          "type": "uint256"
        }
      ],
      "name": "approve",
      "outputs": [],
      "stateMutability": "nonpayable",
      "type": "function"
    },
    {
      "inputs": [
        {
          "internalType": "address",
          "name": "operator",
          "type": "address"
        },
        {
          "internalType": "uint256",
          "name": "projectId",
          "type": "uint256"
        }
      ],
      "name": "approveForAllSeeds",
      "outputs": [],
      "stateMutability": "nonpayable",
      "type": "function"
    },
    {
      "inputs": [
        {
          "internalType": "address",
          "name": "owner",
          "type": "address"
        }
      ],
      "name": "balanceOf",
      "outputs": [
        {
          "internalType": "uint256",
          "name": "",
          "type": "uint256"
        }
      ],
      "stateMutability": "view",
      "type": "function"
    },
    {
      "inputs": [],
      "name": "baseTokenURI",
      "outputs": [
        {
          "internalType": "string",
          "name": "",
          "type": "string"
        }
      ],
      "stateMutability": "view",
      "type": "function"
    },
    {
      "inputs": [
        {
          "internalType": "uint256",
          "name": "tokenId",
          "type": "uint256"
        }
      ],
      "name": "burn",
      "outputs": [],
      "stateMutability": "nonpayable",
      "type": "function"
    },
    {
      "inputs": [
        {
          "internalType": "address",
          "name": "newAdm",
          "type": "address"
        }
      ],
      "name": "changeAdmin",
      "outputs": [],
      "stateMutability": "nonpayable",
      "type": "function"
    },
    {
      "inputs": [
        {
          "internalType": "uint256",
          "name": "_id",
          "type": "uint256"
        }
      ],
      "name": "exists",
      "outputs": [
        {
          "internalType": "bool",
          "name": "",
          "type": "bool"
        }
      ],
      "stateMutability": "view",
      "type": "function"
    },
    {
      "inputs": [
        {
          "internalType": "uint256",
          "name": "projectId",
          "type": "uint256"
        },
        {
          "internalType": "uint256",
          "name": "amount",
          "type": "uint256"
        }
      ],
      "name": "generateSeeds",
      "outputs": [],
      "stateMutability": "nonpayable",
      "type": "function"
    },
    {
      "inputs": [
        {
          "internalType": "uint256",
          "name": "tokenId",
          "type": "uint256"
        }
      ],
      "name": "getApproved",
      "outputs": [
        {
          "internalType": "address",
          "name": "",
          "type": "address"
        }
      ],
      "stateMutability": "view",
      "type": "function"
    },
    {
      "inputs": [
        {
          "internalType": "bytes32",
          "name": "role",
          "type": "bytes32"
        }
      ],
      "name": "getRoleAdmin",
      "outputs": [
        {
          "internalType": "bytes32",
          "name": "",
          "type": "bytes32"
        }
      ],
      "stateMutability": "view",
      "type": "function"
    },
    {
      "inputs": [
        {
          "internalType": "bytes32",
          "name": "role",
          "type": "bytes32"
        },
        {
          "internalType": "uint256",
          "name": "index",
          "type": "uint256"
        }
      ],
      "name": "getRoleMember",
      "outputs": [
        {
          "internalType": "address",
          "name": "",
          "type": "address"
        }
      ],
      "stateMutability": "view",
      "type": "function"
    },
    {
      "inputs": [
        {
          "internalType": "bytes32",
          "name": "role",
          "type": "bytes32"
        }
      ],
      "name": "getRoleMemberCount",
      "outputs": [
        {
          "internalType": "uint256",
          "name": "",
          "type": "uint256"
        }
      ],
      "stateMutability": "view",
      "type": "function"
    },
    {
      "inputs": [
        {
          "internalType": "bytes32",
          "name": "role",
          "type": "bytes32"
        },
        {
          "internalType": "address",
          "name": "account",
          "type": "address"
        }
      ],
      "name": "grantRole",
      "outputs": [],
      "stateMutability": "nonpayable",
      "type": "function"
    },
    {
      "inputs": [
        {
          "internalType": "bytes32",
          "name": "role",
          "type": "bytes32"
        },
        {
          "internalType": "address",
          "name": "account",
          "type": "address"
        }
      ],
      "name": "hasRole",
      "outputs": [
        {
          "internalType": "bool",
          "name": "",
          "type": "bool"
        }
      ],
      "stateMutability": "view",
      "type": "function"
    },
    {
      "inputs": [
        {
          "internalType": "string",
          "name": "name",
          "type": "string"
        },
        {
          "internalType": "string",
          "name": "symbol",
          "type": "string"
        },
        {
          "internalType": "string",
          "name": "baseTokenURI",
          "type": "string"
        }
      ],
      "name": "initialize",
      "outputs": [],
      "stateMutability": "nonpayable",
      "type": "function"
    },
    {
      "inputs": [
        {
          "internalType": "string",
          "name": "name",
          "type": "string"
        },
        {
          "internalType": "string",
          "name": "symbol",
          "type": "string"
        },
        {
          "internalType": "string",
          "name": "baseUri",
          "type": "string"
        },
        {
          "internalType": "address",
          "name": "admin",
          "type": "address"
        },
        {
          "internalType": "address",
          "name": "paramsAddress",
          "type": "address"
        }
      ],
      "name": "initialize",
      "outputs": [],
      "stateMutability": "nonpayable",
      "type": "function"
    },
    {
      "inputs": [
        {
          "internalType": "address",
          "name": "owner",
          "type": "address"
        },
        {
          "internalType": "address",
          "name": "operator",
          "type": "address"
        }
      ],
      "name": "isApprovedForAll",
      "outputs": [
        {
          "internalType": "bool",
          "name": "",
          "type": "bool"
        }
      ],
      "stateMutability": "view",
      "type": "function"
    },
    {
      "inputs": [
        {
          "internalType": "address",
          "name": "operator",
          "type": "address"
        },
        {
          "internalType": "bytes32",
          "name": "seed",
          "type": "bytes32"
        },
        {
          "internalType": "uint256",
          "name": "projectId",
          "type": "uint256"
        }
      ],
      "name": "isApprovedOrOwnerForSeed",
      "outputs": [
        {
          "internalType": "bool",
          "name": "",
          "type": "bool"
        }
      ],
      "stateMutability": "view",
      "type": "function"
    },
    {
      "inputs": [
        {
          "internalType": "address",
          "name": "to",
          "type": "address"
        }
      ],
      "name": "mint",
      "outputs": [],
      "stateMutability": "nonpayable",
      "type": "function"
    },
    {
      "inputs": [
        {
          "components": [
            {
              "internalType": "uint256",
              "name": "_fromProjectId",
              "type": "uint256"
            },
            {
              "internalType": "address",
              "name": "_mintTo",
              "type": "address"
            },
            {
              "internalType": "string[]",
              "name": "_uriBatch",
              "type": "string[]"
            },
            {
              "components": [
                {
                  "internalType": "bytes32",
                  "name": "_seed",
                  "type": "bytes32"
                },
                {
                  "components": [
                    {
                      "internalType": "uint8",
                      "name": "_typeValue",
                      "type": "uint8"
                    },
                    {
                      "internalType": "uint256",
                      "name": "_max",
                      "type": "uint256"
                    },
                    {
                      "internalType": "uint256",
                      "name": "_min",
                      "type": "uint256"
                    },
                    {
                      "internalType": "uint8",
                      "name": "_decimal",
                      "type": "uint8"
                    },
                    {
                      "internalType": "string[]",
                      "name": "_availableValues",
                      "type": "string[]"
                    },
                    {
                      "internalType": "uint256",
                      "name": "_value",
                      "type": "uint256"
                    },
                    {
                      "internalType": "bool",
                      "name": "_editable",
                      "type": "bool"
                    }
                  ],
                  "internalType": "struct BoilerplateParam.ParamTemplate[]",
                  "name": "_params",
                  "type": "tuple[]"
                }
              ],
              "internalType": "struct BoilerplateParam.ParamsOfProject[]",
              "name": "_paramsBatch",
              "type": "tuple[]"
            }
          ],
          "internalType": "struct IGenerativeBoilerplateNFT.MintRequest",
          "name": "mintBatch",
          "type": "tuple"
        }
      ],
      "name": "mintBatchUniqueNFT",
      "outputs": [],
      "stateMutability": "payable",
      "type": "function"
    },
    {
      "inputs": [
        {
          "internalType": "uint256",
          "name": "_tokenID",
          "type": "uint256"
        }
      ],
      "name": "mintMaxSupply",
      "outputs": [
        {
          "internalType": "uint256",
          "name": "",
          "type": "uint256"
        }
      ],
      "stateMutability": "view",
      "type": "function"
    },
    {
      "inputs": [
        {
          "internalType": "address",
          "name": "to",
          "type": "address"
        },
        {
          "internalType": "string",
          "name": "projectName",
          "type": "string"
        },
        {
          "internalType": "uint256",
          "name": "maxSupply",
          "type": "uint256"
        },
        {
          "internalType": "string",
          "name": "script",
          "type": "string"
        },
        {
          "internalType": "uint32",
          "name": "scriptType",
          "type": "uint32"
        },
        {
          "internalType": "bool",
          "name": "clientSeed",
          "type": "bool"
        },
        {
          "internalType": "string",
          "name": "uri",
          "type": "string"
        },
        {
          "internalType": "uint256",
          "name": "fee",
          "type": "uint256"
        },
        {
          "internalType": "address",
          "name": "feeAdd",
          "type": "address"
        },
        {
          "components": [
            {
              "internalType": "bytes32",
              "name": "_seed",
              "type": "bytes32"
            },
            {
              "components": [
                {
                  "internalType": "uint8",
                  "name": "_typeValue",
                  "type": "uint8"
                },
                {
                  "internalType": "uint256",
                  "name": "_max",
                  "type": "uint256"
                },
                {
                  "internalType": "uint256",
                  "name": "_min",
                  "type": "uint256"
                },
                {
                  "internalType": "uint8",
                  "name": "_decimal",
                  "type": "uint8"
                },
                {
                  "internalType": "string[]",
                  "name": "_availableValues",
                  "type": "string[]"
                },
                {
                  "internalType": "uint256",
                  "name": "_value",
                  "type": "uint256"
                },
                {
                  "internalType": "bool",
                  "name": "_editable",
                  "type": "bool"
                }
              ],
              "internalType": "struct BoilerplateParam.ParamTemplate[]",
              "name": "_params",
              "type": "tuple[]"
            }
          ],
          "internalType": "struct BoilerplateParam.ParamsOfProject",
          "name": "paramsTemplate",
          "type": "tuple"
        }
      ],
      "name": "mintProject",
      "outputs": [
        {
          "internalType": "uint256",
          "name": "",
          "type": "uint256"
        }
      ],
      "stateMutability": "payable",
      "type": "function"
    },
    {
      "inputs": [
        {
          "internalType": "uint256",
          "name": "_tokenID",
          "type": "uint256"
        }
      ],
      "name": "mintTotalSupply",
      "outputs": [
        {
          "internalType": "uint256",
          "name": "",
          "type": "uint256"
        }
      ],
      "stateMutability": "view",
      "type": "function"
    },
    {
      "inputs": [],
      "name": "name",
      "outputs": [
        {
          "internalType": "string",
          "name": "",
          "type": "string"
        }
      ],
      "stateMutability": "view",
      "type": "function"
    },
    {
      "inputs": [
        {
          "internalType": "uint256",
          "name": "tokenId",
          "type": "uint256"
        }
      ],
      "name": "ownerOf",
      "outputs": [
        {
          "internalType": "address",
          "name": "",
          "type": "address"
        }
      ],
      "stateMutability": "view",
      "type": "function"
    },
    {
      "inputs": [
        {
          "internalType": "bytes32",
          "name": "seed",
          "type": "bytes32"
        },
        {
          "internalType": "uint256",
          "name": "projectId",
          "type": "uint256"
        }
      ],
      "name": "ownerOfSeed",
      "outputs": [
        {
          "internalType": "address",
          "name": "",
          "type": "address"
        }
      ],
      "stateMutability": "view",
      "type": "function"
    },
    {
      "inputs": [],
      "name": "pause",
      "outputs": [],
      "stateMutability": "nonpayable",
      "type": "function"
    },
    {
      "inputs": [],
      "name": "paused",
      "outputs": [
        {
          "internalType": "bool",
          "name": "",
          "type": "bool"
        }
      ],
      "stateMutability": "view",
      "type": "function"
    },
    {
      "inputs": [
        {
          "internalType": "uint256",
          "name": "projectId",
          "type": "uint256"
        },
        {
          "internalType": "bytes32[]",
          "name": "seeds",
          "type": "bytes32[]"
        }
      ],
      "name": "registerSeeds",
      "outputs": [],
      "stateMutability": "nonpayable",
      "type": "function"
    },
    {
      "inputs": [
        {
          "internalType": "bytes32",
          "name": "role",
          "type": "bytes32"
        },
        {
          "internalType": "address",
          "name": "account",
          "type": "address"
        }
      ],
      "name": "renounceRole",
      "outputs": [],
      "stateMutability": "nonpayable",
      "type": "function"
    },
    {
      "inputs": [
        {
          "internalType": "bytes32",
          "name": "role",
          "type": "bytes32"
        },
        {
          "internalType": "address",
          "name": "account",
          "type": "address"
        }
      ],
      "name": "revokeRole",
      "outputs": [],
      "stateMutability": "nonpayable",
      "type": "function"
    },
    {
      "inputs": [
        {
          "internalType": "uint256",
          "name": "",
          "type": "uint256"
        }
      ],
      "name": "royalties",
      "outputs": [
        {
          "internalType": "address",
          "name": "recipient",
          "type": "address"
        },
        {
          "internalType": "uint24",
          "name": "amount",
          "type": "uint24"
        },
        {
          "internalType": "bool",
          "name": "isValue",
          "type": "bool"
        }
      ],
      "stateMutability": "view",
      "type": "function"
    },
    {
      "inputs": [
        {
          "internalType": "uint256",
          "name": "_tokenId",
          "type": "uint256"
        },
        {
          "internalType": "uint256",
          "name": "_salePrice",
          "type": "uint256"
        }
      ],
      "name": "royaltyInfo",
      "outputs": [
        {
          "internalType": "address",
          "name": "receiver",
          "type": "address"
        },
        {
          "internalType": "uint256",
          "name": "royaltyAmount",
          "type": "uint256"
        }
      ],
      "stateMutability": "view",
      "type": "function"
    },
    {
      "inputs": [
        {
          "internalType": "address",
          "name": "from",
          "type": "address"
        },
        {
          "internalType": "address",
          "name": "to",
          "type": "address"
        },
        {
          "internalType": "uint256",
          "name": "tokenId",
          "type": "uint256"
        }
      ],
      "name": "safeTransferFrom",
      "outputs": [],
      "stateMutability": "nonpayable",
      "type": "function"
    },
    {
      "inputs": [
        {
          "internalType": "address",
          "name": "from",
          "type": "address"
        },
        {
          "internalType": "address",
          "name": "to",
          "type": "address"
        },
        {
          "internalType": "uint256",
          "name": "tokenId",
          "type": "uint256"
        },
        {
          "internalType": "bytes",
          "name": "data",
          "type": "bytes"
        }
      ],
      "name": "safeTransferFrom",
      "outputs": [],
      "stateMutability": "nonpayable",
      "type": "function"
    },
    {
      "inputs": [
        {
          "internalType": "address",
          "name": "operator",
          "type": "address"
        },
        {
          "internalType": "bool",
          "name": "approved",
          "type": "bool"
        }
      ],
      "name": "setApprovalForAll",
      "outputs": [],
      "stateMutability": "nonpayable",
      "type": "function"
    },
    {
      "inputs": [
        {
          "internalType": "address",
          "name": "_to",
          "type": "address"
        },
        {
          "internalType": "uint256[]",
          "name": "_ids",
          "type": "uint256[]"
        }
      ],
      "name": "setCreator",
      "outputs": [],
      "stateMutability": "nonpayable",
      "type": "function"
    },
    {
      "inputs": [
        {
          "internalType": "uint256",
          "name": "_id",
          "type": "uint256"
        },
        {
          "internalType": "string",
          "name": "_newURI",
          "type": "string"
        }
      ],
      "name": "setCustomURI",
      "outputs": [],
      "stateMutability": "nonpayable",
      "type": "function"
    },
    {
      "inputs": [
        {
          "internalType": "uint256",
          "name": "_tokenId",
          "type": "uint256"
        },
        {
          "internalType": "address",
          "name": "_recipient",
          "type": "address"
        },
        {
          "internalType": "uint256",
          "name": "_value",
          "type": "uint256"
        }
      ],
      "name": "setTokenRoyalty",
      "outputs": [],
      "stateMutability": "nonpayable",
      "type": "function"
    },
    {
      "inputs": [
        {
          "internalType": "bytes4",
          "name": "interfaceId",
          "type": "bytes4"
        }
      ],
      "name": "supportsInterface",
      "outputs": [
        {
          "internalType": "bool",
          "name": "",
          "type": "bool"
        }
      ],
      "stateMutability": "view",
      "type": "function"
    },
    {
      "inputs": [],
      "name": "symbol",
      "outputs": [
        {
          "internalType": "string",
          "name": "",
          "type": "string"
        }
      ],
      "stateMutability": "view",
      "type": "function"
    },
    {
      "inputs": [
        {
          "internalType": "uint256",
          "name": "index",
          "type": "uint256"
        }
      ],
      "name": "tokenByIndex",
      "outputs": [
        {
          "internalType": "uint256",
          "name": "",
          "type": "uint256"
        }
      ],
      "stateMutability": "view",
      "type": "function"
    },
    {
      "inputs": [
        {
          "internalType": "address",
          "name": "owner",
          "type": "address"
        },
        {
          "internalType": "uint256",
          "name": "index",
          "type": "uint256"
        }
      ],
      "name": "tokenOfOwnerByIndex",
      "outputs": [
        {
          "internalType": "uint256",
          "name": "",
          "type": "uint256"
        }
      ],
      "stateMutability": "view",
      "type": "function"
    },
    {
      "inputs": [
        {
          "internalType": "uint256",
          "name": "_tokenId",
          "type": "uint256"
        }
      ],
      "name": "tokenURI",
      "outputs": [
        {
          "internalType": "string",
          "name": "",
          "type": "string"
        }
      ],
      "stateMutability": "view",
      "type": "function"
    },
    {
      "inputs": [],
      "name": "totalSupply",
      "outputs": [
        {
          "internalType": "uint256",
          "name": "",
          "type": "uint256"
        }
      ],
      "stateMutability": "view",
      "type": "function"
    },
    {
      "inputs": [
        {
          "internalType": "address",
          "name": "from",
          "type": "address"
        },
        {
          "internalType": "address",
          "name": "to",
          "type": "address"
        },
        {
          "internalType": "uint256",
          "name": "tokenId",
          "type": "uint256"
        }
      ],
      "name": "transferFrom",
      "outputs": [],
      "stateMutability": "nonpayable",
      "type": "function"
    },
    {
      "inputs": [
        {
          "internalType": "address",
          "name": "from",
          "type": "address"
        },
        {
          "internalType": "address",
          "name": "to",
          "type": "address"
        },
        {
          "internalType": "bytes32",
          "name": "seed",
          "type": "bytes32"
        },
        {
          "internalType": "uint256",
          "name": "projectId",
          "type": "uint256"
        }
      ],
      "name": "transferSeed",
      "outputs": [],
      "stateMutability": "nonpayable",
      "type": "function"
    },
    {
      "inputs": [],
      "name": "unpause",
      "outputs": [],
      "stateMutability": "nonpayable",
      "type": "function"
    },
    {
      "inputs": [
        {
          "internalType": "address",
          "name": "receiver",
          "type": "address"
        },
        {
          "internalType": "address",
          "name": "erc20Addr",
          "type": "address"
        },
        {
          "internalType": "uint256",
          "name": "amount",
          "type": "uint256"
        }
      ],
      "name": "withdraw",
      "outputs": [],
      "stateMutability": "nonpayable",
      "type": "function"
    }
  ],
  "bytecode": "0x608060405234801561001057600080fd5b50615daa80620000216000396000f3fe6080604052600436106103765760003560e01c80636a627842116101d1578063a22cb46511610102578063d2a6b51a116100a0578063d6d0faee1161006f578063d6d0faee14610b04578063d9caed1214610b24578063e63ab1e914610b44578063e985e9c514610b7857600080fd5b8063d2a6b51a14610a7b578063d539139314610a9b578063d547741f14610acf578063d547cfb714610aef57600080fd5b8063b0f4cf93116100dc578063b0f4cf93146109fb578063b88d4fde14610a1b578063c87b56dd14610a3b578063ca15c87314610a5b57600080fd5b8063a22cb4651461099a578063a6487c53146109ba578063adfc7dae146109da57600080fd5b80638f1637d71161016f57806391d148541161014957806391d148541461093057806395d89b41146109505780639713c80714610965578063a217fddf1461098557600080fd5b80638f1637d7146108b95780638f283970146108f05780639010d07c1461091057600080fd5b8063716013fe116101ab578063716013fe146107f45780637f77f57414610807578063821f9dc9146108825780638456cb591461062957600080fd5b80636a627842146107995780636e4d0fe6146107b457806370a08231146107d457600080fd5b806336568abe116102ab57806346398139116102495780635c975abb116102235780635c975abb146107075780636006e9ef1461072057806362fe4e4a146107335780636352211e1461077957600080fd5b806346398139146106a75780634f558e79146106c75780634f6ccce7146106e757600080fd5b80633f4ba83a116102855780633f4ba83a146106295780633fbdb0c21461063857806342842e0e1461066957806342966c681461068957600080fd5b806336568abe146105b057806336bd9e63146105d05780633adf80b41461060957600080fd5b806318160ddd11610318578063248a9ca3116102f2578063248a9ca3146105015780632a55205a146105315780632f2ff15d146105705780632f745c591461059057600080fd5b806318160ddd146104ac578063189c168d146104c157806323b872dd146104e157600080fd5b806306fdde031161035457806306fdde0314610428578063081812fc1461044a578063095ea7b31461046a5780631697eccf1461048c57600080fd5b806301bc45c91461037b57806301ffc9a7146103b9578063030595d7146103e9575b600080fd5b34801561038757600080fd5b506102275461039c906001600160a01b031681565b6040516001600160a01b0390911681526020015b60405180910390f35b3480156103c557600080fd5b506103d96103d4366004614600565b610bc1565b60405190151581526020016103b0565b3480156103f557600080fd5b5061041a61040436600461461d565b600090815261022a602052604090206002015490565b6040519081526020016103b0565b34801561043457600080fd5b5061043d610bd2565b6040516103b0919061468e565b34801561045657600080fd5b5061039c61046536600461461d565b610c64565b34801561047657600080fd5b5061048a6104853660046146c1565b610c8b565b005b34801561049857600080fd5b5061039c6104a73660046146ed565b610da6565b3480156104b857600080fd5b5061041a610de2565b3480156104cd57600080fd5b5061048a6104dc3660046147e4565b610dff565b3480156104ed57600080fd5b5061048a6104fc366004614885565b610f0d565b34801561050d57600080fd5b5061041a61051c36600461461d565b60009081526065602052604090206001015490565b34801561053d57600080fd5b5061055161054c3660046146ed565b610f3e565b604080516001600160a01b0390931683526020830191909152016103b0565b34801561057c57600080fd5b5061048a61058b3660046148c6565b61100c565b34801561059c57600080fd5b5061041a6105ab3660046146c1565b611031565b3480156105bc57600080fd5b5061048a6105cb3660046148c6565b6110c7565b3480156105dc57600080fd5b5061041a6105eb3660046148f6565b61022d60209081526000928352604080842090915290825290205481565b34801561061557600080fd5b5061048a61062436600461499b565b611145565b34801561063557600080fd5b50005b34801561064457600080fd5b5061041a61065336600461461d565b600090815261022a602052604090206003015490565b34801561067557600080fd5b5061048a610684366004614885565b6111cc565b34801561069557600080fd5b5061048a6106a436600461461d565b50565b3480156106b357600080fd5b5061048a6106c23660046146ed565b6111e7565b3480156106d357600080fd5b506103d96106e236600461461d565b611344565b3480156106f357600080fd5b5061041a61070236600461461d565b61134f565b34801561071357600080fd5b5061015f5460ff166103d9565b61048a61072e366004614a94565b6113e2565b34801561073f57600080fd5b5061048a61074e3660046146c1565b33600090815261022d602090815260408083206001600160a01b039590951683529390529190912055565b34801561078557600080fd5b5061039c61079436600461461d565b611ee9565b3480156107a557600080fd5b5061048a6106a4366004614d57565b3480156107c057600080fd5b5061048a6107cf366004614d74565b611f49565b3480156107e057600080fd5b5061041a6107ef366004614d57565b611ff7565b61041a610802366004614de6565b61207d565b34801561081357600080fd5b5061085761082236600461461d565b61022f602052600090815260409020546001600160a01b03811690600160a01b810462ffffff1690600160b81b900460ff1683565b604080516001600160a01b03909416845262ffffff90921660208401521515908201526060016103b0565b34801561088e57600080fd5b506108a261089d36600461461d565b61248d565b6040516103b09b9a99989796959493929190614ffe565b3480156108c557600080fd5b5061039c6108d436600461461d565b61022b602052600090815260409020546001600160a01b031681565b3480156108fc57600080fd5b5061048a61090b366004614d57565b612837565b34801561091c57600080fd5b5061039c61092b3660046146ed565b612909565b34801561093c57600080fd5b506103d961094b3660046148c6565b612921565b34801561095c57600080fd5b5061043d61294c565b34801561097157600080fd5b5061048a6109803660046150a0565b61295b565b34801561099157600080fd5b5061041a600081565b3480156109a657600080fd5b5061048a6109b53660046150c7565b612aac565b3480156109c657600080fd5b5061048a6109d53660046150f5565b612ab7565b3480156109e657600080fd5b506102285461039c906001600160a01b031681565b348015610a0757600080fd5b506103d9610a1636600461517c565b612b83565b348015610a2757600080fd5b5061048a610a363660046151b1565b612bf4565b348015610a4757600080fd5b5061043d610a5636600461461d565b612c26565b348015610a6757600080fd5b5061041a610a7636600461461d565b612d2f565b348015610a8757600080fd5b5061048a610a96366004615230565b612d46565b348015610aa757600080fd5b5061041a7f9f2df0fed2c77648de5860a4cc508cd0818c85b8b8a1ab4ceeef8d981c8956a681565b348015610adb57600080fd5b5061048a610aea3660046148c6565b612dc9565b348015610afb57600080fd5b5061043d612dee565b348015610b1057600080fd5b5061048a610b1f36600461526a565b612df8565b348015610b3057600080fd5b5061048a610b3f366004614885565b612f95565b348015610b5057600080fd5b5061041a7f65d7a28e3265b37a6474929f336521b332c1681b933f6cb9f3376673440d862a81565b348015610b8457600080fd5b506103d9610b933660046148f6565b6001600160a01b03918216600090815260ce6020908152604080832093909416825291909152205460ff1690565b6000610bcc82613165565b92915050565b606060c98054610be190615319565b80601f0160208091040260200160405190810160405280929190818152602001828054610c0d90615319565b8015610c5a5780601f10610c2f57610100808354040283529160200191610c5a565b820191906000526020600020905b815481529060010190602001808311610c3d57829003601f168201915b5050505050905090565b6000610c6f8261318a565b50600090815260cd60205260409020546001600160a01b031690565b6000610c9682611ee9565b9050806001600160a01b0316836001600160a01b03161415610d095760405162461bcd60e51b815260206004820152602160248201527f4552433732313a20617070726f76616c20746f2063757272656e74206f776e656044820152603960f91b60648201526084015b60405180910390fd5b336001600160a01b0382161480610d255750610d258133610b93565b610d975760405162461bcd60e51b815260206004820152603e60248201527f4552433732313a20617070726f76652063616c6c6572206973206e6f7420746f60448201527f6b656e206f776e6572206e6f7220617070726f76656420666f7220616c6c00006064820152608401610d00565b610da183836131da565b505050565b600082815261022c602090815260408083208484529091528120546001600160a01b031680610ddb578360601c915050610bcc565b9392505050565b60006001610df06102295490565b610dfa9190615364565b905090565b600082815261022a602052604090206008015460ff168015610e255750610e2582613248565b610e2e57600080fd5b60005b8151811015610da15760006001600160a01b031661022c6000848481518110610e5c57610e5c61537b565b602090810291909101810151825281810192909252604090810160009081208782529092529020546001600160a01b031614610e9757600080fd5b3361022c6000848481518110610eaf57610eaf61537b565b60200260200101518152602001908152602001600020600085815260200190815260200160002060006101000a8154816001600160a01b0302191690836001600160a01b031602179055508080610f0590615391565b915050610e31565b610f173382613265565b610f335760405162461bcd60e51b8152600401610d00906153ac565b610da18383836132e4565b600082815261022f60209081526040808320815160608101835290546001600160a01b0381168252600160a01b810462ffffff1693820193909352600160b81b90920460ff1615801591830191909152829190610fc3578051602082015190935061271090610fb29062ffffff16866153fa565b610fbc919061542f565b9150611004565b600085815261022a6020526040902060050154600160201b90046001600160a01b03169250612710610ff7856101f46153fa565b611001919061542f565b91505b509250929050565b6000828152606560205260409020600101546110278161348b565b610da18383613495565b600061103c83611ff7565b821061109e5760405162461bcd60e51b815260206004820152602b60248201527f455243373231456e756d657261626c653a206f776e657220696e646578206f7560448201526a74206f6620626f756e647360a81b6064820152608401610d00565b506001600160a01b0391909116600090815260fb60209081526040808320938352929052205490565b6001600160a01b03811633146111375760405162461bcd60e51b815260206004820152602f60248201527f416363657373436f6e74726f6c3a2063616e206f6e6c792072656e6f756e636560448201526e103937b632b9903337b91039b2b63360891b6064820152608401610d00565b61114182826134b7565b5050565b600082815261022a6020908152604091829020600501548251808401909352600383526218981960e91b91830191909152600160201b90046001600160a01b031633146111a55760405162461bcd60e51b8152600401610d00919061468e565b50600082815261022a602090815260409091208251610da192600690920191840190614551565b610da183838360405180602001604052806000815250612bf4565b600082815261022a602052604090206008015460ff1615801561120e575061120e82613248565b61121757600080fd5b600080826001600160401b038111156112325761123261470f565b60405190808252806020026020018201604052801561125b578160200160208202803683370190505b50905060005b83811015611302576112743386836134d9565b600081815261022c602090815260408083208984529091529020549093506001600160a01b0316156112a557600080fd5b600083815261022c60209081526040808320888452909152902080546001600160a01b03191633179055815183908390839081106112e5576112e561537b565b6020908102919091010152806112fa81615391565b915050611261565b507feac055ed8b84f6ed7b96c917e1a500965c90467998c41630ebabcc5bc99b306b33858360405161133693929190615443565b60405180910390a150505050565b6000610bcc82613248565b600061135a60fd5490565b82106113bd5760405162461bcd60e51b815260206004820152602c60248201527f455243373231456e756d657261626c653a20676c6f62616c20696e646578206f60448201526b7574206f6620626f756e647360a01b6064820152608401610d00565b60fd82815481106113d0576113d061537b565b90600052602060002001549050919050565b60026101f55414156114065760405162461bcd60e51b8152600401610d00906154a0565b60026101f58190558151600090815261022a602090815260408083208151610160810183528154815260018201546001600160a01b0316938101939093529384015490820152600383015460608201526004830180549293919260808401919061146f90615319565b80601f016020809104026020016040519081016040528092919081815260200182805461149b90615319565b80156114e85780601f106114bd576101008083540402835291602001916114e8565b820191906000526020600020905b8154815290600101906020018083116114cb57829003601f168201915b5050509183525050600582015463ffffffff81166020830152600160201b90046001600160a01b0316604082015260068201805460609092019161152b90615319565b80601f016020809104026020016040519081016040528092919081815260200182805461155790615319565b80156115a45780601f10611579576101008083540402835291602001916115a4565b820191906000526020600020905b81548152906001019060200180831161158757829003601f168201915b505050505081526020016007820180546115bd90615319565b80601f01602080910402602001604051908101604052809291908181526020018280546115e990615319565b80156116365780601f1061160b57610100808354040283529160200191611636565b820191906000526020600020905b81548152906001019060200180831161161957829003601f168201915b5050509183525050600882015460ff1615156020808301919091526040805180820182526009850180548252600a86018054845181870281018701865281815294909601959294919385830193909260009084015b828210156117da57600084815260208082206040805160e08101825260078702909201805460ff9081168452600182015484860152600282015484840152600382015416606084015260048101805483518187028101870190945280845293959194608087019491929084015b828210156117a457838290600052602060002001805461171790615319565b80601f016020809104026020016040519081016040528092919081815260200182805461174390615319565b80156117905780601f1061176557610100808354040283529160200191611790565b820191906000526020600020905b81548152906001019060200180831161177357829003601f168201915b5050505050815260200190600101906116f8565b50505090825250600582015460208083019190915260069092015460ff161515604090910152908252600192909201910161168b565b50505091525050905250604083015151909150158015906118045750816060015151826040015151145b604051806040016040528060038152602001620c8c0d60ea1b8152509061183e5760405162461bcd60e51b8152600401610d00919061468e565b506040810151158061186857508060400151826040015151826060015161186591906154d7565b11155b6040518060400160405280600381526020016232303360e81b815250906118a25760405162461bcd60e51b8152600401610d00919061468e565b506102285481516001600160a01b03909116906000908015611b55576040850151516118ce90826153fa565b604080518082018252600c81526b4d494e545f4e46545f46454560a01b60208201529051636d12dce160e01b81529192506000916001600160a01b03861691636d12dce191611920919060040161468e565b602060405180830381865afa15801561193d573d6000803e3d6000fd5b505050506040513d601f19601f8201168201806040525081019061196191906154ef565b90508061196d57506101f45b60208501516001600160a01b0316611a17578134101561198c57600080fd5b855161199790611ee9565b6001600160a01b03166127106119ad83856153fa565b6119b7919061542f565b6119c19084615364565b604051600081818185875af1925050503d80600081146119fd576040519150601f19603f3d011682016040523d82523d6000602084013e611a02565b606091505b50508093505082611a1257600080fd5b611b53565b60208501516040516323b872dd60e01b8152336004820152306024820152604481018490526001600160a01b038216906323b872dd906064016020604051808303816000875af1158015611a6f573d6000803e3d6000fd5b505050506040513d601f19601f82011682018060405250810190611a939190615508565b611a9c57600080fd5b806001600160a01b031663a9059cbb611ab88960000151611ee9565b612710611ac586886153fa565b611acf919061542f565b611ad99087615364565b6040516001600160e01b031960e085901b1681526001600160a01b03909216600483015260248201526044016020604051808303816000875af1158015611b24573d6000803e3d6000fd5b505050506040513d601f19601f82011682018060405250810190611b489190615508565b611b5157600080fd5b505b505b8451600090815261022b60205260408120546001600160a01b0316905b866060015151811015611ea157600087606001518281518110611b9757611b9761537b565b6020026020010151600001519050336001600160a01b0316611bbd828a60000151610da6565b6001600160a01b0316148015611bec5750600081815261022e602090815260408083208b518452909152902054155b6040518060400160405280600381526020016232303560e81b81525090611c265760405162461bcd60e51b8152600401610d00919061468e565b5060006001600160a01b038416611d9457604080518082018252601781527f47454e455241544956455f4e46545f54454d504c4154450000000000000000006020820152905163bf40fac160e01b8152611cdd916001600160a01b038a169163bf40fac191611c979160040161468e565b602060405180830381865afa158015611cb4573d6000803e3d6000fd5b505050506040513d601f19601f82011682018060405250810190611cd89190615525565b613539565b8951600090815261022b6020526040812080546001600160a01b0319166001600160a01b0384169081179091556101008b01519296508693509163ae3dd09591611d29906002836135d1565b610227548d516040516001600160e01b031960e087901b168152611d5d9493926001600160a01b0316913091600401615542565b600060405180830381600087803b158015611d7757600080fd5b505af1158015611d8b573d6000803e3d6000fd5b50505050611d97565b50825b806001600160a01b03166381aa79298a60200151338c604001518781518110611dc257611dc261537b565b60200260200101518d606001518881518110611de057611de061537b565b60200260200101518d61012001516040518663ffffffff1660e01b8152600401611e0e95949392919061558c565b600060405180830381600087803b158015611e2857600080fd5b505af1158015611e3c573d6000803e3d6000fd5b50505050600188606001818151611e5391906154d7565b905250506060870180518951600090815261022a6020908152604080832060030193909355925193815261022e83528181208b51825290925290205580611e9981615391565b915050611b72565b507f67175103d209cf669be17e253aba378479477b5a1ef3b1e9eaedce52f0ebab543387604051611ed39291906155df565b60405180910390a1505060016101f55550505050565b600081815260cb60205260408120546001600160a01b031680610bcc5760405162461bcd60e51b8152602060048201526018602482015277115490cdcc8c4e881a5b9d985b1a59081d1bdad95b88125160421b6044820152606401610d00565b600082815261022e6020908152604080832084845290915290205415801590611f785750611f78338383612b83565b8015611f9f5750836001600160a01b0316611f938383610da6565b6001600160a01b031614155b8015611fb357506001600160a01b03831615155b611fbc57600080fd5b600091825261022c60209081526040808420928452919052902080546001600160a01b0319166001600160a01b039290921691909117905550565b60006001600160a01b0382166120615760405162461bcd60e51b815260206004820152602960248201527f4552433732313a2061646472657373207a65726f206973206e6f7420612076616044820152683634b21037bbb732b960b91b6064820152608401610d00565b506001600160a01b0316600090815260cc602052604090205490565b600060026101f55414156120a35760405162461bcd60e51b8152600401610d00906154a0565b60026101f555895160408051808201909152600381526203230360ec1b6020820152906120e35760405162461bcd60e51b8152600401610d00919061468e565b506120f361022980546001019055565b60006120ff6102295490565b905061210a81613248565b156040518060400160405280600381526020016219181960e91b815250906121455760405162461bcd60e51b8152600401610d00919061468e565b506102285460408051808201825260128152714352454154455f50524f4a4543545f46454560701b60208201529051636d12dce160e01b81526001600160a01b03909216916000918391636d12dce1916121a19160040161468e565b602060405180830381865afa1580156121be573d6000803e3d6000fd5b505050506040513d601f19601f820116820180604052508101906121e291906154ef565b9050801561231e5760408051808201825260098152682322a2afaa27a5a2a760b91b6020820152905163bf40fac160e01b81526000916001600160a01b0385169163bf40fac1916122359160040161468e565b602060405180830381865afa158015612252573d6000803e3d6000fd5b505050506040513d601f19601f820116820180604052508101906122769190615525565b90506001600160a01b0381161561230f576040516323b872dd60e01b81523360048201523060248201526044810183905281906001600160a01b038216906323b872dd906064016020604051808303816000875af11580156122dc573d6000803e3d6000fd5b505050506040513d601f19601f820116820180604052508101906123009190615508565b61230957600080fd5b5061231c565b8134101561231c57600080fd5b505b87511561234d57600083815261022a60209081526040909120895161234b926006909201918b0190614551565b505b8c5115612381578c61022a6000858152602001908152602001600020600701908051906020019061237f929190614551565b505b600083815261022a6020908152604091829020600581018054640100000000600160c01b03191633600160201b021790556002018e90558151808301909252600382526232303160e81b9082015250600083815261022a602052604090208781556001810180546001600160a01b0319166001600160a01b038916179055859060090161240e8282615a2c565b5050600083815261022a602090815260409091208c51612436926004909201918e0190614551565b50600083815261022a6020526040902060058101805463ffffffff191663ffffffff8d16179055600801805460ff19168a15151790556124768e846136b7565b505060016101f5559b9a5050505050505050505050565b61022a602052600090815260409020805460018201546002830154600384015460048501805494956001600160a01b0390941694929391926124ce90615319565b80601f01602080910402602001604051908101604052809291908181526020018280546124fa90615319565b80156125475780601f1061251c57610100808354040283529160200191612547565b820191906000526020600020905b81548152906001019060200180831161252a57829003601f168201915b505050506005830154600684018054939463ffffffff831694600160201b9093046001600160a01b031693509161257d90615319565b80601f01602080910402602001604051908101604052809291908181526020018280546125a990615319565b80156125f65780601f106125cb576101008083540402835291602001916125f6565b820191906000526020600020905b8154815290600101906020018083116125d957829003601f168201915b50505050509080600701805461260b90615319565b80601f016020809104026020016040519081016040528092919081815260200182805461263790615319565b80156126845780601f1061265957610100808354040283529160200191612684565b820191906000526020600020905b81548152906001019060200180831161266757829003601f168201915b5050505050908060080160009054906101000a900460ff1690806009016040518060400160405290816000820154815260200160018201805480602002602001604051908101604052809291908181526020016000905b8282101561282a57600084815260208082206040805160e08101825260078702909201805460ff9081168452600182015484860152600282015484840152600382015416606084015260048101805483518187028101870190945280845293959194608087019491929084015b828210156127f457838290600052602060002001805461276790615319565b80601f016020809104026020016040519081016040528092919081815260200182805461279390615319565b80156127e05780601f106127b5576101008083540402835291602001916127e0565b820191906000526020600020905b8154815290600101906020018083116127c357829003601f168201915b505050505081526020019060010190612748565b50505090825250600582015460208083019190915260069092015460ff16151560409091015290825260019290920191016126db565b505050508152505090508b565b610227546001600160a01b0316336001600160a01b0316146040518060400160405280600381526020016231303160e81b815250906128895760405162461bcd60e51b8152600401610d00919061468e565b50612895600033612921565b6040518060400160405280600381526020016231303160e81b815250906128cf5760405162461bcd60e51b8152600401610d00919061468e565b5061022780546001600160a01b038381166001600160a01b03198316811790935516906128fe9060009061100c565b611141600082612dc9565b6000828152609760205260408120610ddb90836136d1565b60009182526065602090815260408084206001600160a01b0393909316845291905290205460ff1690565b606060ca8054610be190615319565b610227546001600160a01b0316336001600160a01b0316146040518060400160405280600381526020016231303160e81b815250906129ad5760405162461bcd60e51b8152600401610d00919061468e565b506129b9600033612921565b6040518060400160405280600381526020016231303160e81b815250906129f35760405162461bcd60e51b8152600401610d00919061468e565b5060408051808201909152600381526232303360e81b6020820152612710821115612a315760405162461bcd60e51b8152600401610d00919061468e565b50604080516060810182526001600160a01b03938416815262ffffff92831660208083019182526001838501908152600097885261022f90915292909520905181549551925194166001600160b81b031990951694909417600160a01b91909216021760ff60b81b1916600160b81b91151591909102179055565b6111413383836136dd565b600054610100900460ff1615808015612ad75750600054600160ff909116105b80612af15750303b158015612af1575060005460ff166001145b612b0d5760405162461bcd60e51b8152600401610d0090615b4a565b6000805460ff191660011790558015612b30576000805461ff0019166101001790555b612b3b8484846137ac565b8015612b7d576000805461ff0019169055604051600181527f7f26b83ff96e1f2b6a682f133852f6798a09c465da95921460cefb384740249890602001611336565b50505050565b6000836001600160a01b0316612b998484610da6565b6001600160a01b03161415612bb057506001610ddb565b8161022d6000612bc08686610da6565b6001600160a01b03908116825260208083019390935260409182016000908120918916815292529020541490509392505050565b612bfe3383613265565b612c1a5760405162461bcd60e51b8152600401610d00906153ac565b612b7d848484846137f0565b600081815261022a6020526040812060060180546060929190612c4890615319565b90501115612cf257600082815261022a602052604090206006018054612c6d90615319565b80601f0160208091040260200160405190810160405280929190818152602001828054612c9990615319565b8015612ce65780601f10612cbb57610100808354040283529160200191612ce6565b820191906000526020600020905b815481529060010190602001808311612cc957829003601f168201915b50505050509050919050565b612cfa612dee565b612d0383613823565b604051602001612d14929190615b98565b6040516020818303038152906040529050919050565b919050565b6000818152609760205260408120610bcc90613920565b60408051808201909152600381526203130360ec1b60208201526001600160a01b038316612d875760405162461bcd60e51b8152600401610d00919061468e565b5060005b8151811015610da157612db783838381518110612daa57612daa61537b565b602002602001015161392a565b80612dc181615391565b915050612d8b565b600082815260656020526040902060010154612de48161348b565b610da183836134b7565b6060610dfa6139c8565b600054610100900460ff1615808015612e185750600054600160ff909116105b80612e325750303b158015612e32575060005460ff166001145b612e4e5760405162461bcd60e51b8152600401610d0090615b4a565b6000805460ff191660011790558015612e71576000805461ff0019166101001790555b60408051808201909152600381526203130360ec1b60208201526001600160a01b038416612eb25760405162461bcd60e51b8152600401610d00919061468e565b5060408051808201909152600381526203130360ec1b60208201526001600160a01b038316612ef45760405162461bcd60e51b8152600401610d00919061468e565b50612f008686866137ac565b61022880546001600160a01b038085166001600160a01b03199283161790925561022780549286169290911682179055612f3c9060009061100c565b612f47600033612dc9565b8015612f8d576000805461ff0019169055604051600181527f7f26b83ff96e1f2b6a682f133852f6798a09c465da95921460cefb38474024989060200160405180910390a15b505050505050565b60026101f5541415612fb95760405162461bcd60e51b8152600401610d00906154a0565b60026101f555610227546001600160a01b0316336001600160a01b0316146040518060400160405280600381526020016231303160e81b815250906130115760405162461bcd60e51b8152600401610d00919061468e565b5061301d600033612921565b6040518060400160405280600381526020016231303160e81b815250906130575760405162461bcd60e51b8152600401610d00919061468e565b5060006001600160a01b0383166130d8578147101561307557600080fd5b6040516001600160a01b038516908390600081818185875af1925050503d80600081146130be576040519150601f19603f3d011682016040523d82523d6000602084013e6130c3565b606091505b505080915050806130d357600080fd5b613159565b60405163a9059cbb60e01b81526001600160a01b0385811660048301526024820184905284919082169063a9059cbb906044016020604051808303816000875af115801561312a573d6000803e3d6000fd5b505050506040513d601f19601f8201168201806040525081019061314e9190615508565b61315757600080fd5b505b505060016101f5555050565b60006001600160e01b0319821663780e9d6360e01b1480610bcc5750610bcc826139d8565b61319381613248565b6106a45760405162461bcd60e51b8152602060048201526018602482015277115490cdcc8c4e881a5b9d985b1a59081d1bdad95b88125160421b6044820152606401610d00565b600081815260cd6020526040902080546001600160a01b0319166001600160a01b038416908117909155819061320f82611ee9565b6001600160a01b03167f8c5be1e5ebec7d5bd14f71427d1e84f3dd0314c0f7b2291e5b200ac8c7c3b92560405160405180910390a45050565b600090815260cb60205260409020546001600160a01b0316151590565b60008061327183611ee9565b9050806001600160a01b0316846001600160a01b031614806132b857506001600160a01b03808216600090815260ce602090815260408083209388168352929052205460ff165b806132dc5750836001600160a01b03166132d184610c64565b6001600160a01b0316145b949350505050565b826001600160a01b03166132f782611ee9565b6001600160a01b03161461335b5760405162461bcd60e51b815260206004820152602560248201527f4552433732313a207472616e736665722066726f6d20696e636f72726563742060448201526437bbb732b960d91b6064820152608401610d00565b6001600160a01b0382166133bd5760405162461bcd60e51b8152602060048201526024808201527f4552433732313a207472616e7366657220746f20746865207a65726f206164646044820152637265737360e01b6064820152608401610d00565b6133c8838383613a18565b6133d36000826131da565b6001600160a01b038316600090815260cc602052604081208054600192906133fc908490615364565b90915550506001600160a01b038216600090815260cc6020526040812080546001929061342a9084906154d7565b9091555050600081815260cb602052604080822080546001600160a01b0319166001600160a01b0386811691821790925591518493918716917fddf252ad1be2c89b69c2b068fc378daa952ba7f163c4a11628f55a4df523b3ef91a4505050565b6106a48133613a23565b61349f8282613a87565b6000828152609760205260409020610da19082613b0d565b6134c18282613b22565b6000828152609760205260409020610da19082613b89565b60006134e6600143615364565b60408051914060208301526bffffffffffffffffffffffff19606087901b169082015260548101849052607481018390526094016040516020818303038152906040528051906020012090509392505050565b6000604051733d602d80600a3d3981f3363d3d373d3d3d363d7360601b81528260601b60148201526e5af43d82803e903d91602b57fd5bf360881b60288201526037816000f09150506001600160a01b038116612d2a5760405162461bcd60e51b8152602060048201526016602482015275115490cc4c4d8dce8818dc99585d194819985a5b195960521b6044820152606401610d00565b606060006135df8585615364565b6135ea9060016154d7565b6001600160401b038111156136015761360161470f565b6040519080825280601f01601f19166020018201604052801561362b576020820181803683370190505b50905060005b61363b8686615364565b81116136ae5783600161364e88846154d7565b6136589190615364565b815181106136685761366861537b565b602001015160f81c60f81b8282815181106136855761368561537b565b60200101906001600160f81b031916908160001a905350806136a681615391565b915050613631565b50949350505050565b611141828260405180602001604052806000815250613b9e565b6000610ddb8383613bd1565b816001600160a01b0316836001600160a01b0316141561373f5760405162461bcd60e51b815260206004820152601960248201527f4552433732313a20617070726f766520746f2063616c6c6572000000000000006044820152606401610d00565b6001600160a01b03838116600081815260ce6020908152604080832094871680845294825291829020805460ff191686151590811790915591519182527f17307eab39ab6107e8899845ad3d59bd9653f200f220920489ca2b5937696c31910160405180910390a3505050565b600054610100900460ff166137d35760405162461bcd60e51b8152600401610d0090615bc7565b6137dd8383613bfb565b6137e5613c49565b610da1838383613c7d565b6137fb8484846132e4565b61380784848484613d18565b612b7d5760405162461bcd60e51b8152600401610d0090615c12565b6060816138475750506040805180820190915260018152600360fc1b602082015290565b8160005b8115613871578061385b81615391565b915061386a9050600a8361542f565b915061384b565b6000816001600160401b0381111561388b5761388b61470f565b6040519080825280601f01601f1916602001820160405280156138b5576020820181803683370190505b5090505b84156132dc576138ca600183615364565b91506138d7600a86615c64565b6138e29060306154d7565b60f81b8183815181106138f7576138f761537b565b60200101906001600160f81b031916908160001a905350613919600a8661542f565b94506138b9565b6000610bcc825490565b600081815261022a6020908152604091829020600501548251808401909352600383526218981960e91b91830191909152600160201b90046001600160a01b0316331461398a5760405162461bcd60e51b8152600401610d00919061468e565b50600090815261022a6020526040902060050180546001600160a01b03909216600160201b02640100000000600160c01b0319909216919091179055565b60606101c48054610be190615319565b60006001600160e01b031982166380ac58cd60e01b1480613a0957506001600160e01b03198216635b5e139f60e01b145b80610bcc5750610bcc82613e16565b610da1838383613e3b565b613a2d8282612921565b61114157613a45816001600160a01b03166014613eae565b613a50836020613eae565b604051602001613a61929190615c78565b60408051601f198184030181529082905262461bcd60e51b8252610d009160040161468e565b613a918282612921565b6111415760008281526065602090815260408083206001600160a01b03851684529091529020805460ff19166001179055613ac93390565b6001600160a01b0316816001600160a01b0316837f2f8788117e7eff1d82e926ec794901d17c78024a50270940304540a733656f0d60405160405180910390a45050565b6000610ddb836001600160a01b038416614049565b613b2c8282612921565b156111415760008281526065602090815260408083206001600160a01b0385168085529252808320805460ff1916905551339285917ff6391f5c32d9c69d2a47ea670b442974b53935d1edc7fd64eb21e047a839171b9190a45050565b6000610ddb836001600160a01b038416614098565b613ba8838361418b565b613bb56000848484613d18565b610da15760405162461bcd60e51b8152600401610d0090615c12565b6000826000018281548110613be857613be861537b565b9060005260206000200154905092915050565b600054610100900460ff16613c225760405162461bcd60e51b8152600401610d0090615bc7565b8151613c359060c9906020850190614551565b508051610da19060ca906020840190614551565b600054610100900460ff16613c705760405162461bcd60e51b8152600401610d0090615bc7565b61015f805460ff19169055565b600054610100900460ff16613ca45760405162461bcd60e51b8152600401610d0090615bc7565b8051613cb8906101c4906020840190614551565b50613cc46000336142ca565b613cee7f9f2df0fed2c77648de5860a4cc508cd0818c85b8b8a1ab4ceeef8d981c8956a6336142ca565b610da17f65d7a28e3265b37a6474929f336521b332c1681b933f6cb9f3376673440d862a336142ca565b60006001600160a01b0384163b15613e0b57604051630a85bd0160e11b81526001600160a01b0385169063150b7a0290613d5c903390899088908890600401615ced565b6020604051808303816000875af1925050508015613d97575060408051601f3d908101601f19168201909252613d9491810190615d2a565b60015b613df1573d808015613dc5576040519150601f19603f3d011682016040523d82523d6000602084013e613dca565b606091505b508051613de95760405162461bcd60e51b8152600401610d0090615c12565b805181602001fd5b6001600160e01b031916630a85bd0160e11b1490506132dc565b506001949350505050565b60006001600160e01b03198216635a05180f60e01b1480610bcc5750610bcc826142d4565b613e46838383614309565b61015f5460ff1615610da15760405162461bcd60e51b815260206004820152602b60248201527f4552433732315061757361626c653a20746f6b656e207472616e73666572207760448201526a1a1a5b19481c185d5cd95960aa1b6064820152608401610d00565b60606000613ebd8360026153fa565b613ec89060026154d7565b6001600160401b03811115613edf57613edf61470f565b6040519080825280601f01601f191660200182016040528015613f09576020820181803683370190505b509050600360fc1b81600081518110613f2457613f2461537b565b60200101906001600160f81b031916908160001a905350600f60fb1b81600181518110613f5357613f5361537b565b60200101906001600160f81b031916908160001a9053506000613f778460026153fa565b613f829060016154d7565b90505b6001811115613ffa576f181899199a1a9b1b9c1cb0b131b232b360811b85600f1660108110613fb657613fb661537b565b1a60f81b828281518110613fcc57613fcc61537b565b60200101906001600160f81b031916908160001a90535060049490941c93613ff381615d47565b9050613f85565b508315610ddb5760405162461bcd60e51b815260206004820181905260248201527f537472696e67733a20686578206c656e67746820696e73756666696369656e746044820152606401610d00565b600081815260018301602052604081205461409057508154600181810184556000848152602080822090930184905584548482528286019093526040902091909155610bcc565b506000610bcc565b600081815260018301602052604081205480156141815760006140bc600183615364565b85549091506000906140d090600190615364565b90508181146141355760008660000182815481106140f0576140f061537b565b90600052602060002001549050808760000184815481106141135761411361537b565b6000918252602080832090910192909255918252600188019052604090208390555b855486908061414657614146615d5e565b600190038181906000526020600020016000905590558560010160008681526020019081526020016000206000905560019350505050610bcc565b6000915050610bcc565b6001600160a01b0382166141e15760405162461bcd60e51b815260206004820181905260248201527f4552433732313a206d696e7420746f20746865207a65726f20616464726573736044820152606401610d00565b6141ea81613248565b156142375760405162461bcd60e51b815260206004820152601c60248201527f4552433732313a20746f6b656e20616c7265616479206d696e746564000000006044820152606401610d00565b61424360008383613a18565b6001600160a01b038216600090815260cc6020526040812080546001929061426c9084906154d7565b9091555050600081815260cb602052604080822080546001600160a01b0319166001600160a01b03861690811790915590518392907fddf252ad1be2c89b69c2b068fc378daa952ba7f163c4a11628f55a4df523b3ef908290a45050565b6111418282613495565b60006001600160e01b03198216637965db0b60e01b1480610bcc57506301ffc9a760e01b6001600160e01b0319831614610bcc565b6001600160a01b0383166143645761435f8160fd8054600083815260fe60205260408120829055600182018355919091527f9346ac6dd7de6b96975fec380d4d994c4c12e6a8897544f22915316cc6cca2800155565b614387565b816001600160a01b0316836001600160a01b0316146143875761438783826143c1565b6001600160a01b03821661439e57610da18161445e565b826001600160a01b0316826001600160a01b031614610da157610da1828261450d565b600060016143ce84611ff7565b6143d89190615364565b600083815260fc602052604090205490915080821461442b576001600160a01b038416600090815260fb60209081526040808320858452825280832054848452818420819055835260fc90915290208190555b50600091825260fc602090815260408084208490556001600160a01b03909416835260fb81528383209183525290812055565b60fd5460009061447090600190615364565b600083815260fe602052604081205460fd80549394509092849081106144985761449861537b565b906000526020600020015490508060fd83815481106144b9576144b961537b565b600091825260208083209091019290925582815260fe909152604080822084905585825281205560fd8054806144f1576144f1615d5e565b6001900381819060005260206000200160009055905550505050565b600061451883611ff7565b6001600160a01b03909316600090815260fb60209081526040808320868452825280832085905593825260fc9052919091209190915550565b82805461455d90615319565b90600052602060002090601f01602090048101928261457f57600085556145c5565b82601f1061459857805160ff19168380011785556145c5565b828001600101855582156145c5579182015b828111156145c55782518255916020019190600101906145aa565b506145d19291506145d5565b5090565b5b808211156145d157600081556001016145d6565b6001600160e01b0319811681146106a457600080fd5b60006020828403121561461257600080fd5b8135610ddb816145ea565b60006020828403121561462f57600080fd5b5035919050565b60005b83811015614651578181015183820152602001614639565b83811115612b7d5750506000910152565b6000815180845261467a816020860160208601614636565b601f01601f19169290920160200192915050565b602081526000610ddb6020830184614662565b6001600160a01b03811681146106a457600080fd5b8035612d2a816146a1565b600080604083850312156146d457600080fd5b82356146df816146a1565b946020939093013593505050565b6000806040838503121561470057600080fd5b50508035926020909101359150565b634e487b7160e01b600052604160045260246000fd5b604051608081016001600160401b03811182821017156147475761474761470f565b60405290565b604080519081016001600160401b03811182821017156147475761474761470f565b60405160e081016001600160401b03811182821017156147475761474761470f565b604051601f8201601f191681016001600160401b03811182821017156147b9576147b961470f565b604052919050565b60006001600160401b038211156147da576147da61470f565b5060051b60200190565b600080604083850312156147f757600080fd5b823591506020808401356001600160401b0381111561481557600080fd5b8401601f8101861361482657600080fd5b8035614839614834826147c1565b614791565b81815260059190911b8201830190838101908883111561485857600080fd5b928401925b828410156148765783358252928401929084019061485d565b80955050505050509250929050565b60008060006060848603121561489a57600080fd5b83356148a5816146a1565b925060208401356148b5816146a1565b929592945050506040919091013590565b600080604083850312156148d957600080fd5b8235915060208301356148eb816146a1565b809150509250929050565b6000806040838503121561490957600080fd5b8235614914816146a1565b915060208301356148eb816146a1565b60006001600160401b0383111561493d5761493d61470f565b614950601f8401601f1916602001614791565b905082815283838301111561496457600080fd5b828260208301376000602084830101529392505050565b600082601f83011261498c57600080fd5b610ddb83833560208501614924565b600080604083850312156149ae57600080fd5b8235915060208301356001600160401b038111156149cb57600080fd5b6110018582860161497b565b600082601f8301126149e857600080fd5b813560206149f8614834836147c1565b82815260059290921b84018101918181019086841115614a1757600080fd5b8286015b84811015614a565780356001600160401b03811115614a3a5760008081fd5b614a488986838b010161497b565b845250918301918301614a1b565b509695505050505050565b60ff811681146106a457600080fd5b8035612d2a81614a61565b80151581146106a457600080fd5b8035612d2a81614a7b565b600060208284031215614aa657600080fd5b6001600160401b0382351115614abb57600080fd5b60808235830184031215614ace57600080fd5b614ad6614725565b8235830180358252614aeb90602001356146a1565b602083358401013560208201526001600160401b0360408435850101351115614b1357600080fd5b614b2684843585016040810135016149d7565b60408201526001600160401b0360608435850101351115614b4657600080fd5b82358301606081013501601f81018513614b5f57600080fd5b614b6c61483482356147c1565b81358082526020808301929160051b840101871015614b8a57600080fd5b602083015b6020843560051b850101811015614d47576001600160401b0381351115614bb557600080fd5b6040813585018903601f19011215614bcc57600080fd5b614bd461474d565b81358501602081013582526001600160401b036040909101351115614bf857600080fd5b81358501604081013501603f81018a13614c1157600080fd5b614c2161483460208301356147c1565b602082810135808352908201919060051b83016040018c1015614c4357600080fd5b604083015b6040602085013560051b850101811015614d2e576001600160401b0381351115614c7157600080fd5b60e0813585018e03603f19011215614c8857600080fd5b614c9061476f565b614c9f60408335870101614a70565b8152813585016060810135602083015260808101356040830152614cc59060a001614a70565b60608201526001600160401b0360c08335870101351115614ce557600080fd5b614cfb8e8335870160c0810135016040016149d7565b60808201528135850160e081013560a0830152614d1b9061010001614a89565b60c0820152835260209283019201614c48565b5060208481019190915292865250509283019201614b8f565b5060608401525090949350505050565b600060208284031215614d6957600080fd5b8135610ddb816146a1565b60008060008060808587031215614d8a57600080fd5b8435614d95816146a1565b93506020850135614da5816146a1565b93969395505050506040820135916060013590565b803563ffffffff81168114612d2a57600080fd5b600060408284031215614de057600080fd5b50919050565b6000806000806000806000806000806101408b8d031215614e0657600080fd5b614e0f8b6146b6565b995060208b01356001600160401b0380821115614e2b57600080fd5b614e378e838f0161497b565b9a5060408d0135995060608d0135915080821115614e5457600080fd5b614e608e838f0161497b565b9850614e6e60808e01614dba565b9750614e7c60a08e01614a89565b965060c08d0135915080821115614e9257600080fd5b614e9e8e838f0161497b565b955060e08d01359450614eb46101008e016146b6565b93506101208d0135915080821115614ecb57600080fd5b50614ed88d828e01614dce565b9150509295989b9194979a5092959850565b600081518084526020808501808196508360051b8101915082860160005b85811015614f32578284038952614f20848351614662565b98850198935090840190600101614f08565b5091979650505050505050565b60006040808401835185526020808501518382880152828151808552606094508489019150848160051b8a0101848401935060005b82811015614ff057605f198b8303018452845160e060ff80835116855288830151898601528a8301518b860152808a840151168a860152506080808301518282870152614fc383870182614eea565b60a0858101519088015260c094850151151594909601939093525050509385019392850192600101614f74565b509998505050505050505050565b60006101608d835260018060a01b03808e1660208501528c60408501528b60608501528160808501526150338285018c614662565b63ffffffff8b1660a086015290891660c085015283810360e0850152905061505b8188614662565b90508281036101008401526150708187614662565b905084151561012084015282810361014084015261508e8185614f3f565b9e9d5050505050505050505050505050565b6000806000606084860312156150b557600080fd5b8335925060208401356148b5816146a1565b600080604083850312156150da57600080fd5b82356150e5816146a1565b915060208301356148eb81614a7b565b60008060006060848603121561510a57600080fd5b83356001600160401b038082111561512157600080fd5b61512d8783880161497b565b9450602086013591508082111561514357600080fd5b61514f8783880161497b565b9350604086013591508082111561516557600080fd5b506151728682870161497b565b9150509250925092565b60008060006060848603121561519157600080fd5b833561519c816146a1565b95602085013595506040909401359392505050565b600080600080608085870312156151c757600080fd5b84356151d2816146a1565b935060208501356151e2816146a1565b92506040850135915060608501356001600160401b0381111561520457600080fd5b8501601f8101871361521557600080fd5b61522487823560208401614924565b91505092959194509250565b6000806040838503121561524357600080fd5b823561524e816146a1565b91506020838101356001600160401b0381111561481557600080fd5b600080600080600060a0868803121561528257600080fd5b85356001600160401b038082111561529957600080fd5b6152a589838a0161497b565b965060208801359150808211156152bb57600080fd5b6152c789838a0161497b565b955060408801359150808211156152dd57600080fd5b506152ea8882890161497b565b93505060608601356152fb816146a1565b9150608086013561530b816146a1565b809150509295509295909350565b600181811c9082168061532d57607f821691505b60208210811415614de057634e487b7160e01b600052602260045260246000fd5b634e487b7160e01b600052601160045260246000fd5b6000828210156153765761537661534e565b500390565b634e487b7160e01b600052603260045260246000fd5b60006000198214156153a5576153a561534e565b5060010190565b6020808252602e908201527f4552433732313a2063616c6c6572206973206e6f7420746f6b656e206f776e6560408201526d1c881b9bdc88185c1c1c9bdd995960921b606082015260800190565b60008160001904831182151516156154145761541461534e565b500290565b634e487b7160e01b600052601260045260246000fd5b60008261543e5761543e615419565b500490565b6001600160a01b038416815260208082018490526060604083018190528351908301819052600091848101916080850190845b8181101561549257845183529383019391830191600101615476565b509098975050505050505050565b6020808252601f908201527f5265656e7472616e637947756172643a207265656e7472616e742063616c6c00604082015260600190565b600082198211156154ea576154ea61534e565b500190565b60006020828403121561550157600080fd5b5051919050565b60006020828403121561551a57600080fd5b8151610ddb81614a7b565b60006020828403121561553757600080fd5b8151610ddb816146a1565b60a08152600061555560a0830188614662565b82810360208401526155678188614662565b6001600160a01b03968716604085015294909516606083015250608001529392505050565b6001600160a01b0386811682528516602082015260a0604082018190526000906155b890830186614662565b82810360608401526155ca8186614f3f565b91505082151560808301529695505050505050565b6001600160a01b0383811682526040602080840182905284518285015284810151909216606084015283015160808084015260009161562160c0850183614eea565b6060860151858203603f190160a0870152805180835291935082019082840190600581901b8501840160005b82811015614ff057601f19878303018452615669828651614f3f565b9486019493860193915060010161564d565b6000808335601e1984360301811261569257600080fd5b8301803591506001600160401b038211156156ac57600080fd5b6020019150600581901b36038213156156c457600080fd5b9250929050565b6000823560de198336030181126156e157600080fd5b9190910192915050565b5b8181101561114157600081556001016156ec565b805460008083558115610da15782815260208082208381015b80821015612f8d5761572b8254615319565b801561577257601f808211600181146157465786855561576f565b84875285872061576083850160051c8201600183016156eb565b50600085815260208120818755555b50505b50600182019150615719565b601f821115610da157806000526020600020601f840160051c810160208510156157a55750805b6157b7601f850160051c8301826156eb565b5050505050565b6001600160401b038311156157d5576157d561470f565b6157e9836157e38354615319565b8361577e565b6000601f84116001811461581d57600085156158055750838201355b600019600387901b1c1916600186901b1783556157b7565b600083815260209020601f19861690835b8281101561584e578685013582556020948501946001909201910161582e565b508682101561586b5760001960f88860031b161c19848701351681555b505060018560011b0183555050505050565b60008135610bcc81614a7b565b813561589581614a61565b815460ff191660ff8216178255506001602080840135828401556040840135600284015560608401356158c781614a61565b60038401805460ff191660ff831617905550600483016158ea608086018661567b565b600160401b8111156158fe576158fe61470f565b8254818455808210156159835760008481528581208381019083015b8082101561597f5761592c8254615319565b801561597557601f8082116001811461594757858555615972565b60008581526020902061596383850160051c82018e83016156eb565b50600085815260208120818755555b50505b509088019061591a565b5050505b508160008481528581209450805b838110156159f2578235601e198636030181126159ac578283fd5b850180356001600160401b038111156159c3578384fd5b88820191508036038213156159d6578384fd5b6159e181838a6157be565b505094870194918601918701615991565b505050505050505060a08201356005820155611141615a1360c0840161587d565b6006830160ff1981541660ff8315151681178255505050565b8135815560018082016020615a438186018661567b565b600160401b811115615a5757615a5761470f565b835481855580821015615b04577f2492492492492492492492492492492492492492492492492492492492492492808211871615615a9757615a9761534e565b6007818411881615615aab57615aab61534e565b6000878152868120909250848202810190828502015b80821015615aff57838255838a830155836002830155836003830155615ae960048301615700565b8360058301558360068301558282019150615ac1565b505050505b506000938452602084209382905b82811015615b3f57615b2d615b2783866156cb565b8761588a565b60079590950194908401908601615b12565b505050505050505050565b6020808252602e908201527f496e697469616c697a61626c653a20636f6e747261637420697320616c72656160408201526d191e481a5b9a5d1a585b1a5e995960921b606082015260800190565b60008351615baa818460208801614636565b835190830190615bbe818360208801614636565b01949350505050565b6020808252602b908201527f496e697469616c697a61626c653a20636f6e7472616374206973206e6f74206960408201526a6e697469616c697a696e6760a81b606082015260800190565b60208082526032908201527f4552433732313a207472616e7366657220746f206e6f6e20455243373231526560408201527131b2b4bb32b91034b6b83632b6b2b73a32b960711b606082015260800190565b600082615c7357615c73615419565b500690565b7f416363657373436f6e74726f6c3a206163636f756e7420000000000000000000815260008351615cb0816017850160208801614636565b7001034b99036b4b9b9b4b733903937b6329607d1b6017918401918201528351615ce1816028840160208801614636565b01602801949350505050565b6001600160a01b0385811682528416602082015260408101839052608060608201819052600090615d2090830184614662565b9695505050505050565b600060208284031215615d3c57600080fd5b8151610ddb816145ea565b600081615d5657615d5661534e565b506000190190565b634e487b7160e01b600052603160045260246000fdfea2646970667358221220134b2228ed912621f5e36d3393a0e8f3c4c7e6f0f9ee567355f468a08ea5dc6f64736f6c634300080c0033",
  "linkReferences": {},
  "deployedLinkReferences": {}
}