{
  "_format": "hh-sol-artifact-1",
  "contractName": "GenerativeBoilerplateNFT",
  "sourceName": "contracts/nft/GenerativeBoilerplateNFT.sol",
  "abi": [
    {
      "anonymous": false,
      "inputs": [
        {
          "indexed": true,
          "internalType": "address",
          "name": "owner",
          "type": "address"
        },
        {
          "indexed": true,
          "internalType": "address",
          "name": "approved",
          "type": "address"
        },
        {
          "indexed": true,
          "internalType": "uint256",
          "name": "tokenId",
          "type": "uint256"
        }
      ],
      "name": "Approval",
      "type": "event"
    },
    {
      "anonymous": false,
      "inputs": [
        {
          "indexed": true,
          "internalType": "address",
          "name": "owner",
          "type": "address"
        },
        {
          "indexed": true,
          "internalType": "address",
          "name": "operator",
          "type": "address"
        },
        {
          "indexed": false,
          "internalType": "bool",
          "name": "approved",
          "type": "bool"
        }
      ],
      "name": "ApprovalForAll",
      "type": "event"
    },
    {
      "anonymous": false,
      "inputs": [
        {
          "indexed": false,
          "internalType": "uint8",
          "name": "version",
          "type": "uint8"
        }
      ],
      "name": "Initialized",
      "type": "event"
    },
    {
      "anonymous": false,
      "inputs": [
        {
          "indexed": false,
          "internalType": "address",
          "name": "account",
          "type": "address"
        }
      ],
      "name": "Paused",
      "type": "event"
    },
    {
      "anonymous": false,
      "inputs": [
        {
          "indexed": true,
          "internalType": "address",
          "name": "from",
          "type": "address"
        },
        {
          "indexed": true,
          "internalType": "address",
          "name": "to",
          "type": "address"
        },
        {
          "indexed": true,
          "internalType": "uint256",
          "name": "tokenId",
          "type": "uint256"
        }
      ],
      "name": "Transfer",
      "type": "event"
    },
    {
      "anonymous": false,
      "inputs": [
        {
          "indexed": false,
          "internalType": "address",
          "name": "account",
          "type": "address"
        }
      ],
      "name": "Unpaused",
      "type": "event"
    },
    {
      "inputs": [],
      "name": "_admin",
      "outputs": [
        {
          "internalType": "address",
          "name": "",
          "type": "address"
        }
      ],
      "stateMutability": "view",
      "type": "function"
    },
    {
      "inputs": [],
      "name": "_paramsAddress",
      "outputs": [
        {
          "internalType": "address",
          "name": "",
          "type": "address"
        }
      ],
      "stateMutability": "view",
      "type": "function"
    },
    {
      "inputs": [
        {
          "internalType": "uint256",
          "name": "",
          "type": "uint256"
        }
      ],
      "name": "_projects",
      "outputs": [
        {
          "internalType": "uint256",
          "name": "_fee",
          "type": "uint256"
        },
        {
          "internalType": "address",
          "name": "_feeToken",
          "type": "address"
        },
        {
          "internalType": "string",
          "name": "_script",
          "type": "string"
        },
        {
          "internalType": "uint32",
          "name": "_scriptType",
          "type": "uint32"
        },
        {
          "internalType": "address",
          "name": "_creator",
          "type": "address"
        },
        {
          "internalType": "string",
          "name": "_customUri",
          "type": "string"
        },
        {
          "internalType": "string",
          "name": "_projectName",
          "type": "string"
        },
        {
          "internalType": "bool",
          "name": "_clientSeed",
          "type": "bool"
        },
        {
          "internalType": "address",
          "name": "_minterNFTInfo",
          "type": "address"
        }
      ],
      "stateMutability": "view",
      "type": "function"
    },
    {
      "inputs": [
        {
          "internalType": "address",
          "name": "to",
          "type": "address"
        },
        {
          "internalType": "uint256",
          "name": "tokenId",
          "type": "uint256"
        }
      ],
      "name": "approve",
      "outputs": [],
      "stateMutability": "nonpayable",
      "type": "function"
    },
    {
      "inputs": [
        {
          "internalType": "address",
          "name": "owner",
          "type": "address"
        }
      ],
      "name": "balanceOf",
      "outputs": [
        {
          "internalType": "uint256",
          "name": "",
          "type": "uint256"
        }
      ],
      "stateMutability": "view",
      "type": "function"
    },
    {
      "inputs": [
        {
          "internalType": "address",
          "name": "newAdm",
          "type": "address"
        },
        {
          "internalType": "address",
          "name": "newParam",
          "type": "address"
        }
      ],
      "name": "changeAdmin",
      "outputs": [],
      "stateMutability": "nonpayable",
      "type": "function"
    },
    {
      "inputs": [
        {
          "internalType": "uint256",
          "name": "tokenId",
          "type": "uint256"
        }
      ],
      "name": "getApproved",
      "outputs": [
        {
          "internalType": "address",
          "name": "",
          "type": "address"
        }
      ],
      "stateMutability": "view",
      "type": "function"
    },
    {
      "inputs": [
        {
          "internalType": "uint256",
          "name": "id",
          "type": "uint256"
        }
      ],
      "name": "getParamsTemplate",
      "outputs": [
        {
          "components": [
            {
              "internalType": "uint8",
              "name": "_typeValue",
              "type": "uint8"
            },
            {
              "internalType": "uint256",
              "name": "_max",
              "type": "uint256"
            },
            {
              "internalType": "uint256",
              "name": "_min",
              "type": "uint256"
            },
            {
              "internalType": "uint8",
              "name": "_decimal",
              "type": "uint8"
            },
            {
              "internalType": "string[]",
              "name": "_availableValues",
              "type": "string[]"
            },
            {
              "internalType": "uint256",
              "name": "_value",
              "type": "uint256"
            },
            {
              "internalType": "bool",
              "name": "_editable",
              "type": "bool"
            }
          ],
          "internalType": "struct BoilerplateParam.ParamTemplate[]",
          "name": "",
          "type": "tuple[]"
        }
      ],
      "stateMutability": "view",
      "type": "function"
    },
    {
      "inputs": [
        {
          "internalType": "string",
          "name": "name",
          "type": "string"
        },
        {
          "internalType": "string",
          "name": "symbol",
          "type": "string"
        },
        {
          "internalType": "address",
          "name": "admin",
          "type": "address"
        },
        {
          "internalType": "address",
          "name": "paramsAddress",
          "type": "address"
        }
      ],
      "name": "initialize",
      "outputs": [],
      "stateMutability": "nonpayable",
      "type": "function"
    },
    {
      "inputs": [
        {
          "internalType": "address",
          "name": "owner",
          "type": "address"
        },
        {
          "internalType": "address",
          "name": "operator",
          "type": "address"
        }
      ],
      "name": "isApprovedForAll",
      "outputs": [
        {
          "internalType": "bool",
          "name": "",
          "type": "bool"
        }
      ],
      "stateMutability": "view",
      "type": "function"
    },
    {
      "inputs": [
        {
          "internalType": "uint256",
          "name": "_fromProjectId",
          "type": "uint256"
        },
        {
          "components": [
            {
              "internalType": "bytes32",
              "name": "_seed",
              "type": "bytes32"
            },
            {
              "internalType": "uint256[]",
              "name": "_value",
              "type": "uint256[]"
            }
          ],
          "internalType": "struct BoilerplateParam.ParamsOfNFT",
          "name": "paramValue",
          "type": "tuple"
        }
      ],
      "name": "mintNFT",
      "outputs": [],
      "stateMutability": "payable",
      "type": "function"
    },
    {
      "inputs": [
        {
          "internalType": "address",
          "name": "to",
          "type": "address"
        },
        {
          "internalType": "string",
          "name": "projectName",
          "type": "string"
        },
        {
          "internalType": "uint256",
          "name": "maxSupply",
          "type": "uint256"
        },
        {
          "internalType": "uint256",
          "name": "limit",
          "type": "uint256"
        },
        {
          "internalType": "uint32",
          "name": "scriptType",
          "type": "uint32"
        },
        {
          "internalType": "bool",
          "name": "clientSeed",
          "type": "bool"
        },
        {
          "internalType": "string",
          "name": "uri",
          "type": "string"
        },
        {
          "internalType": "uint256",
          "name": "fee",
          "type": "uint256"
        },
        {
          "internalType": "address",
          "name": "feeAdd",
          "type": "address"
        },
        {
          "components": [
            {
              "internalType": "uint8",
              "name": "_typeValue",
              "type": "uint8"
            },
            {
              "internalType": "uint256",
              "name": "_max",
              "type": "uint256"
            },
            {
              "internalType": "uint256",
              "name": "_min",
              "type": "uint256"
            },
            {
              "internalType": "uint8",
              "name": "_decimal",
              "type": "uint8"
            },
            {
              "internalType": "string[]",
              "name": "_availableValues",
              "type": "string[]"
            },
            {
              "internalType": "uint256",
              "name": "_value",
              "type": "uint256"
            },
            {
              "internalType": "bool",
              "name": "_editable",
              "type": "bool"
            }
          ],
          "internalType": "struct BoilerplateParam.ParamTemplate[]",
          "name": "paramsTemplate",
          "type": "tuple[]"
        }
      ],
      "name": "mintProject",
      "outputs": [
        {
          "internalType": "uint256",
          "name": "",
          "type": "uint256"
        }
      ],
      "stateMutability": "payable",
      "type": "function"
    },
    {
      "inputs": [],
      "name": "name",
      "outputs": [
        {
          "internalType": "string",
          "name": "",
          "type": "string"
        }
      ],
      "stateMutability": "view",
      "type": "function"
    },
    {
      "inputs": [
        {
          "internalType": "uint256",
          "name": "_fromProjectId",
          "type": "uint256"
        },
        {
          "internalType": "uint256",
          "name": "tokenId",
          "type": "uint256"
        },
        {
          "components": [
            {
              "internalType": "bytes32",
              "name": "_seed",
              "type": "bytes32"
            },
            {
              "internalType": "uint256[]",
              "name": "_value",
              "type": "uint256[]"
            }
          ],
          "internalType": "struct BoilerplateParam.ParamsOfNFT",
          "name": "paramValue",
          "type": "tuple"
        }
      ],
      "name": "ownerMintNFT",
      "outputs": [],
      "stateMutability": "payable",
      "type": "function"
    },
    {
      "inputs": [
        {
          "internalType": "uint256",
          "name": "tokenId",
          "type": "uint256"
        }
      ],
      "name": "ownerOf",
      "outputs": [
        {
          "internalType": "address",
          "name": "",
          "type": "address"
        }
      ],
      "stateMutability": "view",
      "type": "function"
    },
    {
      "inputs": [],
      "name": "pause",
      "outputs": [],
      "stateMutability": "nonpayable",
      "type": "function"
    },
    {
      "inputs": [],
      "name": "paused",
      "outputs": [
        {
          "internalType": "bool",
          "name": "",
          "type": "bool"
        }
      ],
      "stateMutability": "view",
      "type": "function"
    },
    {
      "inputs": [
        {
          "internalType": "uint256",
          "name": "projectId",
          "type": "uint256"
        },
        {
          "internalType": "bytes32",
          "name": "seed",
          "type": "bytes32"
        }
      ],
      "name": "registerSeed",
      "outputs": [],
      "stateMutability": "nonpayable",
      "type": "function"
    },
    {
      "inputs": [
        {
          "internalType": "uint256",
          "name": "_tokenId",
          "type": "uint256"
        },
        {
          "internalType": "uint256",
          "name": "_salePrice",
          "type": "uint256"
        }
      ],
      "name": "royaltyInfo",
      "outputs": [
        {
          "internalType": "address",
          "name": "receiver",
          "type": "address"
        },
        {
          "internalType": "uint256",
          "name": "royaltyAmount",
          "type": "uint256"
        }
      ],
      "stateMutability": "view",
      "type": "function"
    },
    {
      "inputs": [
        {
          "internalType": "address",
          "name": "from",
          "type": "address"
        },
        {
          "internalType": "address",
          "name": "to",
          "type": "address"
        },
        {
          "internalType": "uint256",
          "name": "tokenId",
          "type": "uint256"
        }
      ],
      "name": "safeTransferFrom",
      "outputs": [],
      "stateMutability": "nonpayable",
      "type": "function"
    },
    {
      "inputs": [
        {
          "internalType": "address",
          "name": "from",
          "type": "address"
        },
        {
          "internalType": "address",
          "name": "to",
          "type": "address"
        },
        {
          "internalType": "uint256",
          "name": "tokenId",
          "type": "uint256"
        },
        {
          "internalType": "bytes",
          "name": "data",
          "type": "bytes"
        }
      ],
      "name": "safeTransferFrom",
      "outputs": [],
      "stateMutability": "nonpayable",
      "type": "function"
    },
    {
      "inputs": [
        {
          "internalType": "address",
          "name": "operator",
          "type": "address"
        },
        {
          "internalType": "bool",
          "name": "approved",
          "type": "bool"
        }
      ],
      "name": "setApprovalForAll",
      "outputs": [],
      "stateMutability": "nonpayable",
      "type": "function"
    },
    {
      "inputs": [
        {
          "internalType": "address",
          "name": "_to",
          "type": "address"
        },
        {
          "internalType": "uint256",
          "name": "_id",
          "type": "uint256"
        }
      ],
      "name": "setCreator",
      "outputs": [],
      "stateMutability": "nonpayable",
      "type": "function"
    },
    {
      "inputs": [
        {
          "internalType": "uint256",
          "name": "projectId",
          "type": "uint256"
        },
        {
          "internalType": "string",
          "name": "script",
          "type": "string"
        }
      ],
      "name": "setScript",
      "outputs": [],
      "stateMutability": "nonpayable",
      "type": "function"
    },
    {
      "inputs": [
        {
          "internalType": "string",
          "name": "_uri",
          "type": "string"
        },
        {
          "internalType": "uint256",
          "name": "_id",
          "type": "uint256"
        }
      ],
      "name": "setTokenURI",
      "outputs": [],
      "stateMutability": "nonpayable",
      "type": "function"
    },
    {
      "inputs": [
        {
          "internalType": "bytes4",
          "name": "interfaceId",
          "type": "bytes4"
        }
      ],
      "name": "supportsInterface",
      "outputs": [
        {
          "internalType": "bool",
          "name": "",
          "type": "bool"
        }
      ],
      "stateMutability": "view",
      "type": "function"
    },
    {
      "inputs": [],
      "name": "symbol",
      "outputs": [
        {
          "internalType": "string",
          "name": "",
          "type": "string"
        }
      ],
      "stateMutability": "view",
      "type": "function"
    },
    {
      "inputs": [
        {
          "internalType": "uint256",
          "name": "_tokenId",
          "type": "uint256"
        }
      ],
      "name": "tokenURI",
      "outputs": [
        {
          "internalType": "string",
          "name": "",
          "type": "string"
        }
      ],
      "stateMutability": "view",
      "type": "function"
    },
    {
      "inputs": [
        {
          "internalType": "address",
          "name": "from",
          "type": "address"
        },
        {
          "internalType": "address",
          "name": "to",
          "type": "address"
        },
        {
          "internalType": "uint256",
          "name": "tokenId",
          "type": "uint256"
        }
      ],
      "name": "transferFrom",
      "outputs": [],
      "stateMutability": "nonpayable",
      "type": "function"
    },
    {
      "inputs": [],
      "name": "unpause",
      "outputs": [],
      "stateMutability": "nonpayable",
      "type": "function"
    },
    {
      "inputs": [
        {
          "internalType": "address",
          "name": "receiver",
          "type": "address"
        },
        {
          "internalType": "address",
          "name": "erc20Addr",
          "type": "address"
        },
        {
          "internalType": "uint256",
          "name": "amount",
          "type": "uint256"
        }
      ],
      "name": "withdraw",
      "outputs": [],
      "stateMutability": "nonpayable",
      "type": "function"
    }
  ],
  "bytecode": "0x608060405234801561001057600080fd5b5061450a806100206000396000f3fe6080604052600436106101d85760003560e01c806371199d3011610102578063b88d4fde11610095578063cc97e11011610064578063cc97e1101461057c578063d9caed121461059c578063e985e9c5146105bc578063eb12ae931461060557600080fd5b8063b88d4fde14610509578063c2ebaf6314610529578063c87b56dd1461053c578063c8cb8a751461055c57600080fd5b80638f15b414116100d15780638f15b4141461049357806395d89b41146104b3578063a22cb465146104c8578063adfc7dae146104e857600080fd5b806371199d3014610416578063821f9dc9146104365780638456cb591461046b5780638cc87c841461048057600080fd5b806323b872dd1161017a5780634e26a2ac116101495780634e26a2ac146103835780635c975abb146103b05780636352211e146103c857806370a08231146103e857600080fd5b806323b872dd146102ef5780632a55205a1461030f5780633f4ba83a1461034e57806342842e0e1461036357600080fd5b8063081812fc116101b6578063081812fc1461026d578063095ea7b31461028d57806309a3beef146102af5780631acfd02a146102cf57600080fd5b806301bc45c9146101dd57806301ffc9a71461021b57806306fdde031461024b575b600080fd5b3480156101e957600080fd5b5061012d546101fe906001600160a01b031681565b6040516001600160a01b0390911681526020015b60405180910390f35b34801561022757600080fd5b5061023b610236366004613639565b610618565b6040519015158152602001610212565b34801561025757600080fd5b5061026061066a565b60405161021291906136b5565b34801561027957600080fd5b506101fe6102883660046136c8565b6106fc565b34801561029957600080fd5b506102ad6102a8366004613701565b610723565b005b3480156102bb57600080fd5b506102ad6102ca366004613842565b61083e565b3480156102db57600080fd5b506102ad6102ea366004613886565b6108c6565b3480156102fb57600080fd5b506102ad61030a3660046138bf565b6109a1565b34801561031b57600080fd5b5061032f61032a366004613900565b6109d2565b604080516001600160a01b039093168352602083019190915201610212565b34801561035a57600080fd5b506102ad610a03565b34801561036f57600080fd5b506102ad61037e3660046138bf565b610a55565b34801561038f57600080fd5b506103a361039e3660046136c8565b610a70565b6040516102129190613922565b3480156103bc57600080fd5b5060975460ff1661023b565b3480156103d457600080fd5b506101fe6103e33660046136c8565b610c03565b3480156103f457600080fd5b50610408610403366004613a18565b610c63565b604051908152602001610212565b34801561042257600080fd5b506102ad610431366004613a35565b610ce9565b34801561044257600080fd5b506104566104513660046136c8565b610d3d565b60405161021299989796959493929190613a7b565b34801561047757600080fd5b506102ad610f49565b61040861048e366004613d01565b610f99565b34801561049f57600080fd5b506102ad6104ae366004613dea565b61178d565b3480156104bf57600080fd5b5061026061195a565b3480156104d457600080fd5b506102ad6104e3366004613e72565b611969565b3480156104f457600080fd5b5061012e546101fe906001600160a01b031681565b34801561051557600080fd5b506102ad610524366004613ea0565b611974565b6102ad610537366004613fc5565b6119ac565b34801561054857600080fd5b506102606105573660046136c8565b611e6d565b34801561056857600080fd5b506102ad610577366004613701565b611f13565b34801561058857600080fd5b506102ad610597366004613900565b611fb2565b3480156105a857600080fd5b506102ad6105b73660046138bf565b61204c565b3480156105c857600080fd5b5061023b6105d7366004613886565b6001600160a01b039182166000908152606a6020908152604080832093909416825291909152205460ff1690565b6102ad610613366004614001565b6121d3565b60006001600160e01b031982166380ac58cd60e01b148061064957506001600160e01b03198216635b5e139f60e01b145b8061066457506301ffc9a760e01b6001600160e01b03198316145b92915050565b60606065805461067990614050565b80601f01602080910402602001604051908101604052809291908181526020018280546106a590614050565b80156106f25780601f106106c7576101008083540402835291602001916106f2565b820191906000526020600020905b8154815290600101906020018083116106d557829003601f168201915b5050505050905090565b6000610707826126b9565b506000908152606960205260409020546001600160a01b031690565b600061072e82610c03565b9050806001600160a01b0316836001600160a01b031614156107a15760405162461bcd60e51b815260206004820152602160248201527f4552433732313a20617070726f76616c20746f2063757272656e74206f776e656044820152603960f91b60648201526084015b60405180910390fd5b336001600160a01b03821614806107bd57506107bd81336105d7565b61082f5760405162461bcd60e51b815260206004820152603e60248201527f4552433732313a20617070726f76652063616c6c6572206973206e6f7420746f60448201527f6b656e206f776e6572206e6f7220617070726f76656420666f7220616c6c00006064820152608401610798565b610839838361271b565b505050565b6000818152610130602090815260409182902060039081015483518085019094529083526218981960e91b91830191909152600160201b90046001600160a01b0316331461089f5760405162461bcd60e51b815260040161079891906136b5565b506000818152610130602090815260409091208351610839926004909201918501906134da565b61012d546001600160a01b0316331480156108e957506001600160a01b03821615155b6040518060400160405280600381526020016231303160e81b815250906109235760405162461bcd60e51b815260040161079891906136b5565b5061012d546001600160a01b038381169116146109575761012d80546001600160a01b0319166001600160a01b0384161790555b6001600160a01b03811661096a57600080fd5b61012e546001600160a01b0382811691161461099d5761012e80546001600160a01b0319166001600160a01b0383161790555b5050565b6109ab3382612789565b6109c75760405162461bcd60e51b81526004016107989061408b565b610839838383612808565b61012d546001600160a01b031660006127106109f0846101f46140ef565b6109fa919061410e565b90509250929050565b61012d5460408051808201909152600381526231303160e81b6020820152906001600160a01b03163314610a4a5760405162461bcd60e51b815260040161079891906136b5565b50610a536129af565b565b61083983838360405180602001604052806000815250611974565b60606101306000838152602001908152602001600020600701805480602002602001604051908101604052809291908181526020016000905b82821015610bf857600084815260208082206040805160e08101825260078702909201805460ff9081168452600182015484860152600282015484840152600382015416606084015260048101805483518187028101870190945280845293959194608087019491929084015b82821015610bc2578382906000526020600020018054610b3590614050565b80601f0160208091040260200160405190810160405280929190818152602001828054610b6190614050565b8015610bae5780601f10610b8357610100808354040283529160200191610bae565b820191906000526020600020905b815481529060010190602001808311610b9157829003601f168201915b505050505081526020019060010190610b16565b50505090825250600582015460208083019190915260069092015460ff1615156040909101529082526001929092019101610aa9565b505050509050919050565b6000818152606760205260408120546001600160a01b0316806106645760405162461bcd60e51b8152602060048201526018602482015277115490cdcc8c4e881a5b9d985b1a59081d1bdad95b88125160421b6044820152606401610798565b60006001600160a01b038216610ccd5760405162461bcd60e51b815260206004820152602960248201527f4552433732313a2061646472657373207a65726f206973206e6f7420612076616044820152683634b21037bbb732b960b91b6064820152608401610798565b506001600160a01b031660009081526068602052604090205490565b60008281526101306020526040902060030154600160201b90046001600160a01b03163314610d1757600080fd5b6000828152610130602090815260409091208251610839926002909201918401906134da565b6101306020526000908152604090208054600182015460028301805492936001600160a01b0390921692610d7090614050565b80601f0160208091040260200160405190810160405280929190818152602001828054610d9c90614050565b8015610de95780601f10610dbe57610100808354040283529160200191610de9565b820191906000526020600020905b815481529060010190602001808311610dcc57829003601f168201915b505050506003830154600484018054939463ffffffff831694600160201b9093046001600160a01b0316935091610e1f90614050565b80601f0160208091040260200160405190810160405280929190818152602001828054610e4b90614050565b8015610e985780601f10610e6d57610100808354040283529160200191610e98565b820191906000526020600020905b815481529060010190602001808311610e7b57829003601f168201915b505050505090806005018054610ead90614050565b80601f0160208091040260200160405190810160405280929190818152602001828054610ed990614050565b8015610f265780601f10610efb57610100808354040283529160200191610f26565b820191906000526020600020905b815481529060010190602001808311610f0957829003601f168201915b505050506006830154600890930154919260ff16916001600160a01b0316905089565b61012d5460408051808201909152600381526231303160e81b6020820152906001600160a01b03163314610f905760405162461bcd60e51b815260040161079891906136b5565b50610a53612a01565b6000600260fb541415610fbe5760405162461bcd60e51b815260040161079890614130565b600260fb5589516040805180820190915260038082526203230360ec1b60208301529091116110005760405162461bcd60e51b815260040161079891906136b5565b5061012f805490600061101283614167565b909155505061012e5461012d546001600160a01b03918216911633146112055760408051808201825260128152714352454154455f50524f4a4543545f46454560701b60208201529051636d12dce160e01b81526000916001600160a01b03841691636d12dce191611086916004016136b5565b602060405180830381865afa1580156110a3573d6000803e3d6000fd5b505050506040513d601f19601f820116820180604052508101906110c79190614182565b905080156112035760408051808201825260098152682322a2afaa27a5a2a760b91b6020820152905163bf40fac160e01b81526000916001600160a01b0385169163bf40fac19161111a916004016136b5565b602060405180830381865afa158015611137573d6000803e3d6000fd5b505050506040513d601f19601f8201168201806040525081019061115b919061419b565b90506001600160a01b038116156111f4576040516323b872dd60e01b81523360048201523060248201526044810183905281906001600160a01b038216906323b872dd906064016020604051808303816000875af11580156111c1573d6000803e3d6000fd5b505050506040513d601f19601f820116820180604052508101906111e591906141b8565b6111ee57600080fd5b50611201565b8134101561120157600080fd5b505b505b61012f54600090815261013060209081526040909120875161122f926004909201918901906134da565b5061012f546000908152610130602090815260409091208c5161125a926005909201918e01906134da565b5061012f8054600090815261013060205260408082206003018054640100000000600160c01b03191633600160201b02179055825482528082208890559154815290812060010180546001600160a01b0319166001600160a01b0387161790555b83518160ff1610156113ab57610130600061012f548152602001908152602001600020600701848260ff16815181106112f6576112f66141d5565b6020908102919091018101518254600181810185556000948552938390208251600790920201805460ff92831660ff199182161782558385015195820195909555604083015160028201556060830151600382018054919093169516949094179055608081015180519193926113749260048501929091019061355e565b5060a0820151600582015560c0909101516006909101805460ff1916911515919091179055806113a3816141eb565b9150506112bb565b5061012f805460009081526101306020526040808220600301805463ffffffff191663ffffffff8d16179055825482529020600601805460ff1916891515179055546113f8908d90612a3e565b604080518082018252601781527f47454e455241544956455f4e46545f54454d504c4154450000000000000000006020820152905163bf40fac160e01b81526000916114a2916001600160a01b0385169163bf40fac19161145c91906004016136b5565b602060405180830381865afa158015611479573d6000803e3d6000fd5b505050506040513d601f19601f8201168201806040525081019061149d919061419b565b612a58565b90506000819050806001600160a01b0316632bbcd3ce6040518060e00160405280610130600061012f54815260200190815260200160002060050180546114e890614050565b80601f016020809104026020016040519081016040528092919081815260200182805461151490614050565b80156115615780601f1061153657610100808354040283529160200191611561565b820191906000526020600020905b81548152906001019060200180831161154457829003601f168201915b5050505050815260200161161a60016003610130600061012f548152602001908152602001600020600501805461159790614050565b80601f01602080910402602001604051908101604052809291908181526020018280546115c390614050565b80156116105780601f106115e557610100808354040283529160200191611610565b820191906000526020600020905b8154815290600101906020018083116115f357829003601f168201915b5050505050612af5565b8152602001866001600160a01b031663693ec85e6040518060400160405280600c81526020016b4e46545f424153455f55524960a01b8152506040518263ffffffff1660e01b815260040161166f91906136b5565b600060405180830381865afa15801561168c573d6000803e3d6000fd5b505050506040513d6000823e601f3d908101601f191682016040526116b4919081019061420b565b815260200161012d60009054906101000a90046001600160a01b03166001600160a01b031681526020018f81526020018e815260200161012f548152506040518263ffffffff1660e01b815260040161170d9190614281565b600060405180830381600087803b15801561172757600080fd5b505af115801561173b573d6000803e3d6000fd5b505061012f805460009081526101306020526040902060080180546001600160a01b0319166001600160a01b03969096169590951790945550509054600160fb559d9c50505050505050505050505050565b600054610100900460ff16158080156117ad5750600054600160ff909116105b806117c75750303b1580156117c7575060005460ff166001145b61182a5760405162461bcd60e51b815260206004820152602e60248201527f496e697469616c697a61626c653a20636f6e747261637420697320616c72656160448201526d191e481a5b9a5d1a585b1a5e995960921b6064820152608401610798565b6000805460ff19166001179055801561184d576000805461ff0019166101001790555b60408051808201909152600381526203130360ec1b60208201526001600160a01b03841661188e5760405162461bcd60e51b815260040161079891906136b5565b5060408051808201909152600381526203130360ec1b60208201526001600160a01b0383166118d05760405162461bcd60e51b815260040161079891906136b5565b506118db8585612bdb565b61012e80546001600160a01b038085166001600160a01b03199283161790925561012d8054928616929091169190911790558015611953576000805461ff0019169055604051600181527f7f26b83ff96e1f2b6a682f133852f6798a09c465da95921460cefb38474024989060200160405180910390a15b5050505050565b60606066805461067990614050565b61099d338383612c0c565b61197e3383612789565b61199a5760405162461bcd60e51b81526004016107989061408b565b6119a684848484612cdb565b50505050565b600260fb5414156119cf5760405162461bcd60e51b815260040161079890614130565b600260fb8190556000838152610130602090815260408083208151610140810183528154815260018201546001600160a01b03169381019390935293840180549394929391840191611a2090614050565b80601f0160208091040260200160405190810160405280929190818152602001828054611a4c90614050565b8015611a995780601f10611a6e57610100808354040283529160200191611a99565b820191906000526020600020905b815481529060010190602001808311611a7c57829003601f168201915b5050509183525050600382015463ffffffff81166020830152600160201b90046001600160a01b03166040820152600482018054606090920191611adc90614050565b80601f0160208091040260200160405190810160405280929190818152602001828054611b0890614050565b8015611b555780601f10611b2a57610100808354040283529160200191611b55565b820191906000526020600020905b815481529060010190602001808311611b3857829003601f168201915b50505050508152602001600582018054611b6e90614050565b80601f0160208091040260200160405190810160405280929190818152602001828054611b9a90614050565b8015611be75780601f10611bbc57610100808354040283529160200191611be7565b820191906000526020600020905b815481529060010190602001808311611bca57829003601f168201915b5050509183525050600682015460ff161515602080830191909152600783018054604080518285028101850182528281529401939260009084015b82821015611d7157600084815260208082206040805160e08101825260078702909201805460ff9081168452600182015484860152600282015484840152600382015416606084015260048101805483518187028101870190945280845293959194608087019491929084015b82821015611d3b578382906000526020600020018054611cae90614050565b80601f0160208091040260200160405190810160405280929190818152602001828054611cda90614050565b8015611d275780601f10611cfc57610100808354040283529160200191611d27565b820191906000526020600020905b815481529060010190602001808311611d0a57829003601f168201915b505050505081526020019060010190611c8f565b50505090825250600582015460208083019190915260069092015460ff1615156040909101529082526001929092019101611c22565b50505090825250600891909101546001600160a01b03166020918201528381015151610100830151516040805180820190915260038152620c8c0d60ea1b93810193909352929350909114611dd95760405162461bcd60e51b815260040161079891906136b5565b5080518015611ded57611ded848383612d0e565b610120820151611dfe858486612faf565b60405163214863cb60e01b81529094506001600160a01b0382169063214863cb90611e2f9033908890600401614363565b600060405180830381600087803b158015611e4957600080fd5b505af1158015611e5d573d6000803e3d6000fd5b5050600160fb5550505050505050565b600081815261013060205260409020600401805460609190611e8e90614050565b80601f0160208091040260200160405190810160405280929190818152602001828054611eba90614050565b8015611f075780601f10611edc57610100808354040283529160200191611f07565b820191906000526020600020905b815481529060010190602001808311611eea57829003601f168201915b50505050509050919050565b6000818152610130602090815260409182902060039081015483518085019094529083526218981960e91b91830191909152600160201b90046001600160a01b03163314611f745760405162461bcd60e51b815260040161079891906136b5565b5060009081526101306020526040902060030180546001600160a01b03909216600160201b02640100000000600160c01b0319909216919091179055565b6000828152610130602052604090206006015460ff168015611fea57506000828152606760205260409020546001600160a01b031615155b611ff357600080fd5b6000818152610131602090815260408083208584529091529020546001600160a01b03161561202157600080fd5b6000908152610131602090815260408083209383529290522080546001600160a01b03191633179055565b600260fb54141561206f5760405162461bcd60e51b815260040161079890614130565b600260fb5561012d546001600160a01b0316336001600160a01b0316146040518060400160405280600381526020016231303160e81b815250906120c65760405162461bcd60e51b815260040161079891906136b5565b5060006001600160a01b03831661214757814710156120e457600080fd5b6040516001600160a01b038516908390600081818185875af1925050503d806000811461212d576040519150601f19603f3d011682016040523d82523d6000602084013e612132565b606091505b5050809150508061214257600080fd5b6121c8565b60405163a9059cbb60e01b81526001600160a01b0385811660048301526024820184905284919082169063a9059cbb906044016020604051808303816000875af1158015612199573d6000803e3d6000fd5b505050506040513d601f19601f820116820180604052508101906121bd91906141b8565b6121c657600080fd5b505b5050600160fb555050565b600260fb5414156121f65760405162461bcd60e51b815260040161079890614130565b600260fb8190556000848152610130602090815260408083208151610140810183528154815260018201546001600160a01b0316938101939093529384018054939492939184019161224790614050565b80601f016020809104026020016040519081016040528092919081815260200182805461227390614050565b80156122c05780601f10612295576101008083540402835291602001916122c0565b820191906000526020600020905b8154815290600101906020018083116122a357829003601f168201915b5050509183525050600382015463ffffffff81166020830152600160201b90046001600160a01b0316604082015260048201805460609092019161230390614050565b80601f016020809104026020016040519081016040528092919081815260200182805461232f90614050565b801561237c5780601f106123515761010080835404028352916020019161237c565b820191906000526020600020905b81548152906001019060200180831161235f57829003601f168201915b5050505050815260200160058201805461239590614050565b80601f01602080910402602001604051908101604052809291908181526020018280546123c190614050565b801561240e5780601f106123e35761010080835404028352916020019161240e565b820191906000526020600020905b8154815290600101906020018083116123f157829003601f168201915b5050509183525050600682015460ff161515602080830191909152600783018054604080518285028101850182528281529401939260009084015b8282101561259857600084815260208082206040805160e08101825260078702909201805460ff9081168452600182015484860152600282015484840152600382015416606084015260048101805483518187028101870190945280845293959194608087019491929084015b828210156125625783829060005260206000200180546124d590614050565b80601f016020809104026020016040519081016040528092919081815260200182805461250190614050565b801561254e5780601f106125235761010080835404028352916020019161254e565b820191906000526020600020905b81548152906001019060200180831161253157829003601f168201915b5050505050815260200190600101906124b6565b50505090825250600582015460208083019190915260069092015460ff1615156040909101529082526001929092019101612449565b50505090825250600891909101546001600160a01b03166020918201528381015151610100830151516040805180820190915260038152620c8c0d60ea1b938101939093529293509091146126005760405162461bcd60e51b815260040161079891906136b5565b5080608001516001600160a01b0316336001600160a01b03161461262357600080fd5b8051801561263657612636858383612d0e565b610120820151612647868486612faf565b604051631ef4aaab60e11b81529094506001600160a01b03821690633de955569061267a90339089908990600401614387565b600060405180830381600087803b15801561269457600080fd5b505af11580156126a8573d6000803e3d6000fd5b5050600160fb555050505050505050565b6000818152606760205260409020546001600160a01b03166127185760405162461bcd60e51b8152602060048201526018602482015277115490cdcc8c4e881a5b9d985b1a59081d1bdad95b88125160421b6044820152606401610798565b50565b600081815260696020526040902080546001600160a01b0319166001600160a01b038416908117909155819061275082610c03565b6001600160a01b03167f8c5be1e5ebec7d5bd14f71427d1e84f3dd0314c0f7b2291e5b200ac8c7c3b92560405160405180910390a45050565b60008061279583610c03565b9050806001600160a01b0316846001600160a01b031614806127dc57506001600160a01b038082166000908152606a602090815260408083209388168352929052205460ff165b806128005750836001600160a01b03166127f5846106fc565b6001600160a01b0316145b949350505050565b826001600160a01b031661281b82610c03565b6001600160a01b03161461287f5760405162461bcd60e51b815260206004820152602560248201527f4552433732313a207472616e736665722066726f6d20696e636f72726563742060448201526437bbb732b960d91b6064820152608401610798565b6001600160a01b0382166128e15760405162461bcd60e51b8152602060048201526024808201527f4552433732313a207472616e7366657220746f20746865207a65726f206164646044820152637265737360e01b6064820152608401610798565b6128ec8383836130bf565b6128f760008261271b565b6001600160a01b03831660009081526068602052604081208054600192906129209084906143ae565b90915550506001600160a01b038216600090815260686020526040812080546001929061294e9084906143c5565b909155505060008181526067602052604080822080546001600160a01b0319166001600160a01b0386811691821790925591518493918716917fddf252ad1be2c89b69c2b068fc378daa952ba7f163c4a11628f55a4df523b3ef91a4505050565b6129b7613126565b6097805460ff191690557f5db9ee0a495bf2e6ff9c91a7834c1ba4fdd244a5e8aa4e537bd38aeae4b073aa335b6040516001600160a01b03909116815260200160405180910390a1565b612a0961316f565b6097805460ff191660011790557f62e78cea01bee320cd4e420270b5ea74000d11b0c9f74754ebdbfc544b05a2586129e43390565b61099d8282604051806020016040528060008152506131b5565b6000604051733d602d80600a3d3981f3363d3d373d3d3d363d7360601b81528260601b60148201526e5af43d82803e903d91602b57fd5bf360881b60288201526037816000f09150506001600160a01b038116612af05760405162461bcd60e51b8152602060048201526016602482015275115490cc4c4d8dce8818dc99585d194819985a5b195960521b6044820152606401610798565b919050565b60606000612b0385856143ae565b612b0e9060016143c5565b6001600160401b03811115612b2557612b2561372d565b6040519080825280601f01601f191660200182016040528015612b4f576020820181803683370190505b50905060005b612b5f86866143ae565b8111612bd257836001612b7288846143c5565b612b7c91906143ae565b81518110612b8c57612b8c6141d5565b602001015160f81c60f81b828281518110612ba957612ba96141d5565b60200101906001600160f81b031916908160001a90535080612bca81614167565b915050612b55565b50949350505050565b600054610100900460ff16612c025760405162461bcd60e51b8152600401610798906143dd565b61099d82826131e8565b816001600160a01b0316836001600160a01b03161415612c6e5760405162461bcd60e51b815260206004820152601960248201527f4552433732313a20617070726f766520746f2063616c6c6572000000000000006044820152606401610798565b6001600160a01b038381166000818152606a6020908152604080832094871680845294825291829020805460ff191686151590811790915591519182527f17307eab39ab6107e8899845ad3d59bd9653f200f220920489ca2b5937696c31910160405180910390a3505050565b612ce6848484612808565b612cf284848484613236565b6119a65760405162461bcd60e51b815260040161079890614428565b33612d1884610c03565b6001600160a01b0316146108395761012e54604080518082018252600c81526b4d494e545f4e46545f46454560a01b60208201529051636d12dce160e01b81526001600160a01b03909216916000918391636d12dce191612d7b916004016136b5565b602060405180830381865afa158015612d98573d6000803e3d6000fd5b505050506040513d601f19601f82011682018060405250810190612dbc9190614182565b905080612dc857506101f45b60208401516001600160a01b0316612e715782341015612de757600080fd5b6000612df286610c03565b6001600160a01b0316612710612e0884876140ef565b612e12919061410e565b612e1c90866143ae565b604051600081818185875af1925050503d8060008114612e58576040519150601f19603f3d011682016040523d82523d6000602084013e612e5d565b606091505b5050905080612e6b57600080fd5b50611953565b60208401516040516323b872dd60e01b8152336004820152306024820152604481018590526001600160a01b038216906323b872dd906064016020604051808303816000875af1158015612ec9573d6000803e3d6000fd5b505050506040513d601f19601f82011682018060405250810190612eed91906141b8565b612ef657600080fd5b806001600160a01b031663a9059cbb612f0e88610c03565b612710612f1b86896140ef565b612f25919061410e565b612f2f90886143ae565b6040516001600160e01b031960e085901b1681526001600160a01b03909216600483015260248201526044016020604051808303816000875af1158015612f7a573d6000803e3d6000fd5b505050506040513d601f19601f82011682018060405250810190612f9e91906141b8565b612fa757600080fd5b505050505050565b6040805180820190915260008152606060208201528260e0015161300957612fd73385613334565b808352600090815261013160209081526040808320878452909152902080546001600160a01b031916331790556130b8565b81516000908152610131602090815260408083208784529091529020546001600160a01b03161561303957600080fd5b8151600090815261013260209081526040808320878452825291829020548251808401909352600383526232303560e81b9183019190915260ff16156130925760405162461bcd60e51b815260040161079891906136b5565b5081516000908152610132602090815260408083208784529091529020805460ff191690555b5092915050565b60975460ff16156108395760405162461bcd60e51b815260206004820152602b60248201527f4552433732315061757361626c653a20746f6b656e207472616e73666572207760448201526a1a1a5b19481c185d5cd95960aa1b6064820152608401610798565b60975460ff16610a535760405162461bcd60e51b815260206004820152601460248201527314185d5cd8589b194e881b9bdd081c185d5cd95960621b6044820152606401610798565b60975460ff1615610a535760405162461bcd60e51b815260206004820152601060248201526f14185d5cd8589b194e881c185d5cd95960821b6044820152606401610798565b6131bf838361338c565b6131cc6000848484613236565b6108395760405162461bcd60e51b815260040161079890614428565b600054610100900460ff1661320f5760405162461bcd60e51b8152600401610798906143dd565b81516132229060659060208501906134da565b5080516108399060669060208401906134da565b60006001600160a01b0384163b1561332957604051630a85bd0160e11b81526001600160a01b0385169063150b7a029061327a90339089908890889060040161447a565b6020604051808303816000875af19250505080156132b5575060408051601f3d908101601f191682019092526132b2918101906144b7565b60015b61330f573d8080156132e3576040519150601f19603f3d011682016040523d82523d6000602084013e6132e8565b606091505b5080516133075760405162461bcd60e51b815260040161079890614428565b805181602001fd5b6001600160e01b031916630a85bd0160e11b149050612800565b506001949350505050565b60006133416001436143ae565b60408051914060208301526bffffffffffffffffffffffff19606086901b16908201526054810183905260740160405160208183030381529060405280519060200120905092915050565b6001600160a01b0382166133e25760405162461bcd60e51b815260206004820181905260248201527f4552433732313a206d696e7420746f20746865207a65726f20616464726573736044820152606401610798565b6000818152606760205260409020546001600160a01b0316156134475760405162461bcd60e51b815260206004820152601c60248201527f4552433732313a20746f6b656e20616c7265616479206d696e746564000000006044820152606401610798565b613453600083836130bf565b6001600160a01b038216600090815260686020526040812080546001929061347c9084906143c5565b909155505060008181526067602052604080822080546001600160a01b0319166001600160a01b03861690811790915590518392907fddf252ad1be2c89b69c2b068fc378daa952ba7f163c4a11628f55a4df523b3ef908290a45050565b8280546134e690614050565b90600052602060002090601f016020900481019282613508576000855561354e565b82601f1061352157805160ff191683800117855561354e565b8280016001018555821561354e579182015b8281111561354e578251825591602001919060010190613533565b5061355a9291506135b7565b5090565b8280548282559060005260206000209081019282156135ab579160200282015b828111156135ab578251805161359b9184916020909101906134da565b509160200191906001019061357e565b5061355a9291506135cc565b5b8082111561355a57600081556001016135b8565b8082111561355a5760006135e082826135e9565b506001016135cc565b5080546135f590614050565b6000825580601f10613605575050565b601f01602090049060005260206000209081019061271891906135b7565b6001600160e01b03198116811461271857600080fd5b60006020828403121561364b57600080fd5b813561365681613623565b9392505050565b60005b83811015613678578181015183820152602001613660565b838111156119a65750506000910152565b600081518084526136a181602086016020860161365d565b601f01601f19169290920160200192915050565b6020815260006136566020830184613689565b6000602082840312156136da57600080fd5b5035919050565b6001600160a01b038116811461271857600080fd5b8035612af0816136e1565b6000806040838503121561371457600080fd5b823561371f816136e1565b946020939093013593505050565b634e487b7160e01b600052604160045260246000fd5b60405160e081016001600160401b03811182821017156137655761376561372d565b60405290565b604080519081016001600160401b03811182821017156137655761376561372d565b604051601f8201601f191681016001600160401b03811182821017156137b5576137b561372d565b604052919050565b60006001600160401b038211156137d6576137d661372d565b50601f01601f191660200190565b60006137f76137f2846137bd565b61378d565b905082815283838301111561380b57600080fd5b828260208301376000602084830101529392505050565b600082601f83011261383357600080fd5b613656838335602085016137e4565b6000806040838503121561385557600080fd5b82356001600160401b0381111561386b57600080fd5b61387785828601613822565b95602094909401359450505050565b6000806040838503121561389957600080fd5b82356138a4816136e1565b915060208301356138b4816136e1565b809150509250929050565b6000806000606084860312156138d457600080fd5b83356138df816136e1565b925060208401356138ef816136e1565b929592945050506040919091013590565b6000806040838503121561391357600080fd5b50508035926020909101359150565b602080825282518282018190526000919060409081850190600581811b8701840188860187805b85811015613a08578a8403603f190187528251805160ff90811686528a8201518b870152898201518a8701526060808301519091169086015260808082015160e0918701829052805191870182905261010080880192808a1b8901909101918d01865b828110156139da5760ff198a85030185526139c8848351613689565b948f01949350908e01906001016139ac565b50505060a0838101519088015260c09283015115159290960191909152509588019591880191600101613949565b50919a9950505050505050505050565b600060208284031215613a2a57600080fd5b8135613656816136e1565b60008060408385031215613a4857600080fd5b8235915060208301356001600160401b03811115613a6557600080fd5b613a7185828601613822565b9150509250929050565b8981526001600160a01b03898116602083015261012060408301819052600091613aa78483018c613689565b915063ffffffff8a166060850152808916608085015283820360a0850152613acf8289613689565b915083820360c0850152613ae38288613689565b925085151560e085015280851661010085015250509a9950505050505050505050565b803563ffffffff81168114612af057600080fd5b801515811461271857600080fd5b8035612af081613b1a565b60006001600160401b03821115613b4c57613b4c61372d565b5060051b60200190565b803560ff81168114612af057600080fd5b600082601f830112613b7857600080fd5b81356020613b886137f283613b33565b82815260059290921b84018101918181019086841115613ba757600080fd5b8286015b84811015613be65780356001600160401b03811115613bca5760008081fd5b613bd88986838b0101613822565b845250918301918301613bab565b509695505050505050565b600082601f830112613c0257600080fd5b81356020613c126137f283613b33565b82815260059290921b84018101918181019086841115613c3157600080fd5b8286015b84811015613be65780356001600160401b0380821115613c555760008081fd5b9088019060e0828b03601f1901811315613c6f5760008081fd5b613c77613743565b613c82888501613b56565b8152604080850135898301526060808601358284015260809150613ca7828701613b56565b9083015260a08581013585811115613cbf5760008081fd5b613ccd8f8c838a0101613b67565b838501525060c0945084860135818401525050613ceb828501613b28565b9281019290925250845250918301918301613c35565b6000806000806000806000806000806101408b8d031215613d2157600080fd5b613d2a8b6136f6565b995060208b01356001600160401b0380821115613d4657600080fd5b613d528e838f01613822565b9a5060408d0135995060608d01359850613d6e60808e01613b06565b9750613d7c60a08e01613b28565b965060c08d0135915080821115613d9257600080fd5b613d9e8e838f01613822565b955060e08d01359450613db46101008e016136f6565b93506101208d0135915080821115613dcb57600080fd5b50613dd88d828e01613bf1565b9150509295989b9194979a5092959850565b60008060008060808587031215613e0057600080fd5b84356001600160401b0380821115613e1757600080fd5b613e2388838901613822565b95506020870135915080821115613e3957600080fd5b50613e4687828801613822565b9350506040850135613e57816136e1565b91506060850135613e67816136e1565b939692955090935050565b60008060408385031215613e8557600080fd5b8235613e90816136e1565b915060208301356138b481613b1a565b60008060008060808587031215613eb657600080fd5b8435613ec1816136e1565b93506020850135613ed1816136e1565b92506040850135915060608501356001600160401b03811115613ef357600080fd5b8501601f81018713613f0457600080fd5b613f13878235602084016137e4565b91505092959194509250565b600060408284031215613f3157600080fd5b613f3961376b565b9050813581526020808301356001600160401b03811115613f5957600080fd5b8301601f81018513613f6a57600080fd5b8035613f786137f282613b33565b81815260059190911b82018301908381019087831115613f9757600080fd5b928401925b82841015613fb557833582529284019290840190613f9c565b8085870152505050505092915050565b60008060408385031215613fd857600080fd5b8235915060208301356001600160401b03811115613ff557600080fd5b613a7185828601613f1f565b60008060006060848603121561401657600080fd5b833592506020840135915060408401356001600160401b0381111561403a57600080fd5b61404686828701613f1f565b9150509250925092565b600181811c9082168061406457607f821691505b6020821081141561408557634e487b7160e01b600052602260045260246000fd5b50919050565b6020808252602e908201527f4552433732313a2063616c6c6572206973206e6f7420746f6b656e206f776e6560408201526d1c881b9bdc88185c1c1c9bdd995960921b606082015260800190565b634e487b7160e01b600052601160045260246000fd5b6000816000190483118215151615614109576141096140d9565b500290565b60008261412b57634e487b7160e01b600052601260045260246000fd5b500490565b6020808252601f908201527f5265656e7472616e637947756172643a207265656e7472616e742063616c6c00604082015260600190565b600060001982141561417b5761417b6140d9565b5060010190565b60006020828403121561419457600080fd5b5051919050565b6000602082840312156141ad57600080fd5b8151613656816136e1565b6000602082840312156141ca57600080fd5b815161365681613b1a565b634e487b7160e01b600052603260045260246000fd5b600060ff821660ff811415614202576142026140d9565b60010192915050565b60006020828403121561421d57600080fd5b81516001600160401b0381111561423357600080fd5b8201601f8101841361424457600080fd5b80516142526137f2826137bd565b81815285602083850101111561426757600080fd5b61427882602083016020860161365d565b95945050505050565b602081526000825160e0602084015261429e610100840182613689565b90506020840151601f19808584030160408601526142bc8383613689565b92506040860151915080858403016060860152506142da8282613689565b91505060018060a01b036060850151166080840152608084015160a084015260a084015160c084015260c084015160e08401528091505092915050565b600060408301825184526020808401516040828701528281518085526060880191508383019450600092505b80831015613be65784518252938301936001929092019190830190614343565b6001600160a01b038316815260406020820181905260009061280090830184614317565b60018060a01b03841681528260208201526060604082015260006142786060830184614317565b6000828210156143c0576143c06140d9565b500390565b600082198211156143d8576143d86140d9565b500190565b6020808252602b908201527f496e697469616c697a61626c653a20636f6e7472616374206973206e6f74206960408201526a6e697469616c697a696e6760a81b606082015260800190565b60208082526032908201527f4552433732313a207472616e7366657220746f206e6f6e20455243373231526560408201527131b2b4bb32b91034b6b83632b6b2b73a32b960711b606082015260800190565b6001600160a01b03858116825284166020820152604081018390526080606082018190526000906144ad90830184613689565b9695505050505050565b6000602082840312156144c957600080fd5b81516136568161362356fea264697066735822122097d813556cb7a4be5dde58abf1c6dc57cb696cc401bca084d0a8c4ce9da2645864736f6c634300080c0033",
  "linkReferences": {},
  "deployedLinkReferences": {}
}