{
  "_format": "hh-sol-artifact-1",
  "contractName": "GenerativeBoilerplateNFT",
  "sourceName": "contracts/nft/GenerativeBoilerplateNFT.sol",
  "abi": [
    {
      "anonymous": false,
      "inputs": [
        {
          "indexed": true,
          "internalType": "address",
          "name": "owner",
          "type": "address"
        },
        {
          "indexed": true,
          "internalType": "address",
          "name": "approved",
          "type": "address"
        },
        {
          "indexed": true,
          "internalType": "uint256",
          "name": "tokenId",
          "type": "uint256"
        }
      ],
      "name": "Approval",
      "type": "event"
    },
    {
      "anonymous": false,
      "inputs": [
        {
          "indexed": true,
          "internalType": "address",
          "name": "owner",
          "type": "address"
        },
        {
          "indexed": true,
          "internalType": "address",
          "name": "operator",
          "type": "address"
        },
        {
          "indexed": false,
          "internalType": "bool",
          "name": "approved",
          "type": "bool"
        }
      ],
      "name": "ApprovalForAll",
      "type": "event"
    },
    {
      "anonymous": false,
      "inputs": [
        {
          "indexed": false,
          "internalType": "uint8",
          "name": "version",
          "type": "uint8"
        }
      ],
      "name": "Initialized",
      "type": "event"
    },
    {
      "anonymous": false,
      "inputs": [
        {
          "indexed": false,
          "internalType": "address",
          "name": "account",
          "type": "address"
        }
      ],
      "name": "Paused",
      "type": "event"
    },
    {
      "anonymous": false,
      "inputs": [
        {
          "indexed": true,
          "internalType": "bytes32",
          "name": "role",
          "type": "bytes32"
        },
        {
          "indexed": true,
          "internalType": "bytes32",
          "name": "previousAdminRole",
          "type": "bytes32"
        },
        {
          "indexed": true,
          "internalType": "bytes32",
          "name": "newAdminRole",
          "type": "bytes32"
        }
      ],
      "name": "RoleAdminChanged",
      "type": "event"
    },
    {
      "anonymous": false,
      "inputs": [
        {
          "indexed": true,
          "internalType": "bytes32",
          "name": "role",
          "type": "bytes32"
        },
        {
          "indexed": true,
          "internalType": "address",
          "name": "account",
          "type": "address"
        },
        {
          "indexed": true,
          "internalType": "address",
          "name": "sender",
          "type": "address"
        }
      ],
      "name": "RoleGranted",
      "type": "event"
    },
    {
      "anonymous": false,
      "inputs": [
        {
          "indexed": true,
          "internalType": "bytes32",
          "name": "role",
          "type": "bytes32"
        },
        {
          "indexed": true,
          "internalType": "address",
          "name": "account",
          "type": "address"
        },
        {
          "indexed": true,
          "internalType": "address",
          "name": "sender",
          "type": "address"
        }
      ],
      "name": "RoleRevoked",
      "type": "event"
    },
    {
      "anonymous": false,
      "inputs": [
        {
          "indexed": true,
          "internalType": "address",
          "name": "from",
          "type": "address"
        },
        {
          "indexed": true,
          "internalType": "address",
          "name": "to",
          "type": "address"
        },
        {
          "indexed": true,
          "internalType": "uint256",
          "name": "tokenId",
          "type": "uint256"
        }
      ],
      "name": "Transfer",
      "type": "event"
    },
    {
      "anonymous": false,
      "inputs": [
        {
          "indexed": false,
          "internalType": "address",
          "name": "account",
          "type": "address"
        }
      ],
      "name": "Unpaused",
      "type": "event"
    },
    {
      "inputs": [],
      "name": "DEFAULT_ADMIN_ROLE",
      "outputs": [
        {
          "internalType": "bytes32",
          "name": "",
          "type": "bytes32"
        }
      ],
      "stateMutability": "view",
      "type": "function"
    },
    {
      "inputs": [],
      "name": "MINTER_ROLE",
      "outputs": [
        {
          "internalType": "bytes32",
          "name": "",
          "type": "bytes32"
        }
      ],
      "stateMutability": "view",
      "type": "function"
    },
    {
      "inputs": [],
      "name": "PAUSER_ROLE",
      "outputs": [
        {
          "internalType": "bytes32",
          "name": "",
          "type": "bytes32"
        }
      ],
      "stateMutability": "view",
      "type": "function"
    },
    {
      "inputs": [],
      "name": "_admin",
      "outputs": [
        {
          "internalType": "address",
          "name": "",
          "type": "address"
        }
      ],
      "stateMutability": "view",
      "type": "function"
    },
    {
      "inputs": [
        {
          "internalType": "address",
          "name": "",
          "type": "address"
        },
        {
          "internalType": "address",
          "name": "",
          "type": "address"
        }
      ],
      "name": "_approvalForAllSeeds",
      "outputs": [
        {
          "internalType": "uint256",
          "name": "",
          "type": "uint256"
        }
      ],
      "stateMutability": "view",
      "type": "function"
    },
    {
      "inputs": [],
      "name": "_paramsAddress",
      "outputs": [
        {
          "internalType": "address",
          "name": "",
          "type": "address"
        }
      ],
      "stateMutability": "view",
      "type": "function"
    },
    {
      "inputs": [
        {
          "internalType": "uint256",
          "name": "",
          "type": "uint256"
        }
      ],
      "name": "_projects",
      "outputs": [
        {
          "internalType": "uint256",
          "name": "_fee",
          "type": "uint256"
        },
        {
          "internalType": "address",
          "name": "_feeToken",
          "type": "address"
        },
        {
          "internalType": "uint256",
          "name": "_mintMaxSupply",
          "type": "uint256"
        },
        {
          "internalType": "uint256",
          "name": "_mintTotalSupply",
          "type": "uint256"
        },
        {
          "internalType": "string",
          "name": "_script",
          "type": "string"
        },
        {
          "internalType": "uint32",
          "name": "_scriptType",
          "type": "uint32"
        },
        {
          "internalType": "address",
          "name": "_creator",
          "type": "address"
        },
        {
          "internalType": "string",
          "name": "_customUri",
          "type": "string"
        },
        {
          "internalType": "string",
          "name": "_projectName",
          "type": "string"
        },
        {
          "internalType": "bool",
          "name": "_clientSeed",
          "type": "bool"
        },
        {
          "components": [
            {
              "internalType": "bytes32",
              "name": "_seed",
              "type": "bytes32"
            },
            {
              "components": [
                {
                  "internalType": "uint8",
                  "name": "_typeValue",
                  "type": "uint8"
                },
                {
                  "internalType": "uint256",
                  "name": "_max",
                  "type": "uint256"
                },
                {
                  "internalType": "uint256",
                  "name": "_min",
                  "type": "uint256"
                },
                {
                  "internalType": "uint8",
                  "name": "_decimal",
                  "type": "uint8"
                },
                {
                  "internalType": "string[]",
                  "name": "_availableValues",
                  "type": "string[]"
                },
                {
                  "internalType": "uint256",
                  "name": "_value",
                  "type": "uint256"
                },
                {
                  "internalType": "bool",
                  "name": "_editable",
                  "type": "bool"
                }
              ],
              "internalType": "struct BoilerplateParam.ParamTemplate[]",
              "name": "_params",
              "type": "tuple[]"
            }
          ],
          "internalType": "struct BoilerplateParam.ParamsOfProject",
          "name": "_paramsTemplate",
          "type": "tuple"
        },
        {
          "internalType": "address",
          "name": "_minterNFTInfo",
          "type": "address"
        },
        {
          "internalType": "uint256",
          "name": "_mintNotOwnerProjectMaxSupply",
          "type": "uint256"
        },
        {
          "internalType": "uint256",
          "name": "_mintNotOnwerProjectTotalSupply",
          "type": "uint256"
        }
      ],
      "stateMutability": "view",
      "type": "function"
    },
    {
      "inputs": [
        {
          "internalType": "address",
          "name": "to",
          "type": "address"
        },
        {
          "internalType": "uint256",
          "name": "tokenId",
          "type": "uint256"
        }
      ],
      "name": "approve",
      "outputs": [],
      "stateMutability": "nonpayable",
      "type": "function"
    },
    {
      "inputs": [
        {
          "internalType": "address",
          "name": "owner",
          "type": "address"
        }
      ],
      "name": "balanceOf",
      "outputs": [
        {
          "internalType": "uint256",
          "name": "",
          "type": "uint256"
        }
      ],
      "stateMutability": "view",
      "type": "function"
    },
    {
      "inputs": [],
      "name": "baseTokenURI",
      "outputs": [
        {
          "internalType": "string",
          "name": "",
          "type": "string"
        }
      ],
      "stateMutability": "view",
      "type": "function"
    },
    {
      "inputs": [
        {
          "internalType": "uint256",
          "name": "tokenId",
          "type": "uint256"
        }
      ],
      "name": "burn",
      "outputs": [],
      "stateMutability": "nonpayable",
      "type": "function"
    },
    {
      "inputs": [
        {
          "internalType": "address",
          "name": "newAdm",
          "type": "address"
        },
        {
          "internalType": "address",
          "name": "newParam",
          "type": "address"
        }
      ],
      "name": "changeAdmin",
      "outputs": [],
      "stateMutability": "nonpayable",
      "type": "function"
    },
    {
      "inputs": [
        {
          "internalType": "uint256",
          "name": "_id",
          "type": "uint256"
        }
      ],
      "name": "exists",
      "outputs": [
        {
          "internalType": "bool",
          "name": "",
          "type": "bool"
        }
      ],
      "stateMutability": "view",
      "type": "function"
    },
    {
      "inputs": [
        {
          "internalType": "uint256",
          "name": "tokenId",
          "type": "uint256"
        }
      ],
      "name": "getApproved",
      "outputs": [
        {
          "internalType": "address",
          "name": "",
          "type": "address"
        }
      ],
      "stateMutability": "view",
      "type": "function"
    },
    {
      "inputs": [
        {
          "internalType": "uint256",
          "name": "id",
          "type": "uint256"
        }
      ],
      "name": "getParamsTemplate",
      "outputs": [
        {
          "components": [
            {
              "internalType": "bytes32",
              "name": "_seed",
              "type": "bytes32"
            },
            {
              "components": [
                {
                  "internalType": "uint8",
                  "name": "_typeValue",
                  "type": "uint8"
                },
                {
                  "internalType": "uint256",
                  "name": "_max",
                  "type": "uint256"
                },
                {
                  "internalType": "uint256",
                  "name": "_min",
                  "type": "uint256"
                },
                {
                  "internalType": "uint8",
                  "name": "_decimal",
                  "type": "uint8"
                },
                {
                  "internalType": "string[]",
                  "name": "_availableValues",
                  "type": "string[]"
                },
                {
                  "internalType": "uint256",
                  "name": "_value",
                  "type": "uint256"
                },
                {
                  "internalType": "bool",
                  "name": "_editable",
                  "type": "bool"
                }
              ],
              "internalType": "struct BoilerplateParam.ParamTemplate[]",
              "name": "_params",
              "type": "tuple[]"
            }
          ],
          "internalType": "struct BoilerplateParam.ParamsOfProject",
          "name": "",
          "type": "tuple"
        }
      ],
      "stateMutability": "view",
      "type": "function"
    },
    {
      "inputs": [
        {
          "internalType": "bytes32",
          "name": "role",
          "type": "bytes32"
        }
      ],
      "name": "getRoleAdmin",
      "outputs": [
        {
          "internalType": "bytes32",
          "name": "",
          "type": "bytes32"
        }
      ],
      "stateMutability": "view",
      "type": "function"
    },
    {
      "inputs": [
        {
          "internalType": "bytes32",
          "name": "role",
          "type": "bytes32"
        },
        {
          "internalType": "uint256",
          "name": "index",
          "type": "uint256"
        }
      ],
      "name": "getRoleMember",
      "outputs": [
        {
          "internalType": "address",
          "name": "",
          "type": "address"
        }
      ],
      "stateMutability": "view",
      "type": "function"
    },
    {
      "inputs": [
        {
          "internalType": "bytes32",
          "name": "role",
          "type": "bytes32"
        }
      ],
      "name": "getRoleMemberCount",
      "outputs": [
        {
          "internalType": "uint256",
          "name": "",
          "type": "uint256"
        }
      ],
      "stateMutability": "view",
      "type": "function"
    },
    {
      "inputs": [
        {
          "internalType": "bytes32",
          "name": "role",
          "type": "bytes32"
        },
        {
          "internalType": "address",
          "name": "account",
          "type": "address"
        }
      ],
      "name": "grantRole",
      "outputs": [],
      "stateMutability": "nonpayable",
      "type": "function"
    },
    {
      "inputs": [
        {
          "internalType": "bytes32",
          "name": "role",
          "type": "bytes32"
        },
        {
          "internalType": "address",
          "name": "account",
          "type": "address"
        }
      ],
      "name": "hasRole",
      "outputs": [
        {
          "internalType": "bool",
          "name": "",
          "type": "bool"
        }
      ],
      "stateMutability": "view",
      "type": "function"
    },
    {
      "inputs": [
        {
          "internalType": "string",
          "name": "name",
          "type": "string"
        },
        {
          "internalType": "string",
          "name": "symbol",
          "type": "string"
        },
        {
          "internalType": "string",
          "name": "baseTokenURI",
          "type": "string"
        }
      ],
      "name": "initialize",
      "outputs": [],
      "stateMutability": "nonpayable",
      "type": "function"
    },
    {
      "inputs": [
        {
          "internalType": "string",
          "name": "name",
          "type": "string"
        },
        {
          "internalType": "string",
          "name": "symbol",
          "type": "string"
        },
        {
          "internalType": "string",
          "name": "baseUri",
          "type": "string"
        },
        {
          "internalType": "address",
          "name": "admin",
          "type": "address"
        },
        {
          "internalType": "address",
          "name": "paramsAddress",
          "type": "address"
        }
      ],
      "name": "initialize",
      "outputs": [],
      "stateMutability": "nonpayable",
      "type": "function"
    },
    {
      "inputs": [
        {
          "internalType": "address",
          "name": "owner",
          "type": "address"
        },
        {
          "internalType": "address",
          "name": "operator",
          "type": "address"
        }
      ],
      "name": "isApprovedForAll",
      "outputs": [
        {
          "internalType": "bool",
          "name": "",
          "type": "bool"
        }
      ],
      "stateMutability": "view",
      "type": "function"
    },
    {
      "inputs": [
        {
          "internalType": "address",
          "name": "to",
          "type": "address"
        }
      ],
      "name": "mint",
      "outputs": [],
      "stateMutability": "nonpayable",
      "type": "function"
    },
    {
      "inputs": [
        {
          "components": [
            {
              "internalType": "uint256",
              "name": "_fromProjectId",
              "type": "uint256"
            },
            {
              "internalType": "address",
              "name": "_mintTo",
              "type": "address"
            },
            {
              "internalType": "string[]",
              "name": "_uriBatch",
              "type": "string[]"
            },
            {
              "components": [
                {
                  "internalType": "bytes32",
                  "name": "_seed",
                  "type": "bytes32"
                },
                {
                  "internalType": "uint256[]",
                  "name": "_value",
                  "type": "uint256[]"
                }
              ],
              "internalType": "struct BoilerplateParam.ParamsOfNFT[]",
              "name": "_paramsBatch",
              "type": "tuple[]"
            }
          ],
          "internalType": "struct IGenerativeBoilerplateNFT.MintRequest",
          "name": "mintBatch",
          "type": "tuple"
        }
      ],
      "name": "mintBatchUniqueNFT",
      "outputs": [],
      "stateMutability": "payable",
      "type": "function"
    },
    {
      "inputs": [
        {
          "internalType": "address",
          "name": "to",
          "type": "address"
        },
        {
          "internalType": "string",
          "name": "projectName",
          "type": "string"
        },
        {
          "internalType": "uint256",
          "name": "maxSupply",
          "type": "uint256"
        },
        {
          "internalType": "uint256",
          "name": "maxNotOwner",
          "type": "uint256"
        },
        {
          "internalType": "string",
          "name": "script",
          "type": "string"
        },
        {
          "internalType": "uint32",
          "name": "scriptType",
          "type": "uint32"
        },
        {
          "internalType": "bool",
          "name": "clientSeed",
          "type": "bool"
        },
        {
          "internalType": "string",
          "name": "uri",
          "type": "string"
        },
        {
          "internalType": "uint256",
          "name": "fee",
          "type": "uint256"
        },
        {
          "internalType": "address",
          "name": "feeAdd",
          "type": "address"
        },
        {
          "components": [
            {
              "internalType": "bytes32",
              "name": "_seed",
              "type": "bytes32"
            },
            {
              "components": [
                {
                  "internalType": "uint8",
                  "name": "_typeValue",
                  "type": "uint8"
                },
                {
                  "internalType": "uint256",
                  "name": "_max",
                  "type": "uint256"
                },
                {
                  "internalType": "uint256",
                  "name": "_min",
                  "type": "uint256"
                },
                {
                  "internalType": "uint8",
                  "name": "_decimal",
                  "type": "uint8"
                },
                {
                  "internalType": "string[]",
                  "name": "_availableValues",
                  "type": "string[]"
                },
                {
                  "internalType": "uint256",
                  "name": "_value",
                  "type": "uint256"
                },
                {
                  "internalType": "bool",
                  "name": "_editable",
                  "type": "bool"
                }
              ],
              "internalType": "struct BoilerplateParam.ParamTemplate[]",
              "name": "_params",
              "type": "tuple[]"
            }
          ],
          "internalType": "struct BoilerplateParam.ParamsOfProject",
          "name": "paramsTemplate",
          "type": "tuple"
        }
      ],
      "name": "mintProject",
      "outputs": [
        {
          "internalType": "uint256",
          "name": "",
          "type": "uint256"
        }
      ],
      "stateMutability": "payable",
      "type": "function"
    },
    {
      "inputs": [],
      "name": "name",
      "outputs": [
        {
          "internalType": "string",
          "name": "",
          "type": "string"
        }
      ],
      "stateMutability": "view",
      "type": "function"
    },
    {
      "inputs": [
        {
          "internalType": "uint256",
          "name": "tokenId",
          "type": "uint256"
        }
      ],
      "name": "ownerOf",
      "outputs": [
        {
          "internalType": "address",
          "name": "",
          "type": "address"
        }
      ],
      "stateMutability": "view",
      "type": "function"
    },
    {
      "inputs": [],
      "name": "pause",
      "outputs": [],
      "stateMutability": "nonpayable",
      "type": "function"
    },
    {
      "inputs": [],
      "name": "paused",
      "outputs": [
        {
          "internalType": "bool",
          "name": "",
          "type": "bool"
        }
      ],
      "stateMutability": "view",
      "type": "function"
    },
    {
      "inputs": [
        {
          "internalType": "bytes32",
          "name": "role",
          "type": "bytes32"
        },
        {
          "internalType": "address",
          "name": "account",
          "type": "address"
        }
      ],
      "name": "renounceRole",
      "outputs": [],
      "stateMutability": "nonpayable",
      "type": "function"
    },
    {
      "inputs": [
        {
          "internalType": "bytes32",
          "name": "role",
          "type": "bytes32"
        },
        {
          "internalType": "address",
          "name": "account",
          "type": "address"
        }
      ],
      "name": "revokeRole",
      "outputs": [],
      "stateMutability": "nonpayable",
      "type": "function"
    },
    {
      "inputs": [
        {
          "internalType": "uint256",
          "name": "",
          "type": "uint256"
        }
      ],
      "name": "royalties",
      "outputs": [
        {
          "internalType": "address",
          "name": "recipient",
          "type": "address"
        },
        {
          "internalType": "uint24",
          "name": "amount",
          "type": "uint24"
        },
        {
          "internalType": "bool",
          "name": "isValue",
          "type": "bool"
        }
      ],
      "stateMutability": "view",
      "type": "function"
    },
    {
      "inputs": [
        {
          "internalType": "uint256",
          "name": "_tokenId",
          "type": "uint256"
        },
        {
          "internalType": "uint256",
          "name": "_salePrice",
          "type": "uint256"
        }
      ],
      "name": "royaltyInfo",
      "outputs": [
        {
          "internalType": "address",
          "name": "receiver",
          "type": "address"
        },
        {
          "internalType": "uint256",
          "name": "royaltyAmount",
          "type": "uint256"
        }
      ],
      "stateMutability": "view",
      "type": "function"
    },
    {
      "inputs": [
        {
          "internalType": "address",
          "name": "from",
          "type": "address"
        },
        {
          "internalType": "address",
          "name": "to",
          "type": "address"
        },
        {
          "internalType": "uint256",
          "name": "tokenId",
          "type": "uint256"
        }
      ],
      "name": "safeTransferFrom",
      "outputs": [],
      "stateMutability": "nonpayable",
      "type": "function"
    },
    {
      "inputs": [
        {
          "internalType": "address",
          "name": "from",
          "type": "address"
        },
        {
          "internalType": "address",
          "name": "to",
          "type": "address"
        },
        {
          "internalType": "uint256",
          "name": "tokenId",
          "type": "uint256"
        },
        {
          "internalType": "bytes",
          "name": "data",
          "type": "bytes"
        }
      ],
      "name": "safeTransferFrom",
      "outputs": [],
      "stateMutability": "nonpayable",
      "type": "function"
    },
    {
      "inputs": [
        {
          "internalType": "address",
          "name": "operator",
          "type": "address"
        },
        {
          "internalType": "bool",
          "name": "approved",
          "type": "bool"
        }
      ],
      "name": "setApprovalForAll",
      "outputs": [],
      "stateMutability": "nonpayable",
      "type": "function"
    },
    {
      "inputs": [
        {
          "internalType": "address",
          "name": "_to",
          "type": "address"
        },
        {
          "internalType": "uint256",
          "name": "_id",
          "type": "uint256"
        }
      ],
      "name": "setCreator",
      "outputs": [],
      "stateMutability": "nonpayable",
      "type": "function"
    },
    {
      "inputs": [
        {
          "internalType": "uint256",
          "name": "_tokenId",
          "type": "uint256"
        },
        {
          "internalType": "address",
          "name": "_recipient",
          "type": "address"
        },
        {
          "internalType": "uint256",
          "name": "_value",
          "type": "uint256"
        }
      ],
      "name": "setTokenRoyalty",
      "outputs": [],
      "stateMutability": "nonpayable",
      "type": "function"
    },
    {
      "inputs": [
        {
          "internalType": "bytes4",
          "name": "interfaceId",
          "type": "bytes4"
        }
      ],
      "name": "supportsInterface",
      "outputs": [
        {
          "internalType": "bool",
          "name": "",
          "type": "bool"
        }
      ],
      "stateMutability": "view",
      "type": "function"
    },
    {
      "inputs": [],
      "name": "symbol",
      "outputs": [
        {
          "internalType": "string",
          "name": "",
          "type": "string"
        }
      ],
      "stateMutability": "view",
      "type": "function"
    },
    {
      "inputs": [
        {
          "internalType": "uint256",
          "name": "index",
          "type": "uint256"
        }
      ],
      "name": "tokenByIndex",
      "outputs": [
        {
          "internalType": "uint256",
          "name": "",
          "type": "uint256"
        }
      ],
      "stateMutability": "view",
      "type": "function"
    },
    {
      "inputs": [
        {
          "internalType": "address",
          "name": "owner",
          "type": "address"
        },
        {
          "internalType": "uint256",
          "name": "index",
          "type": "uint256"
        }
      ],
      "name": "tokenOfOwnerByIndex",
      "outputs": [
        {
          "internalType": "uint256",
          "name": "",
          "type": "uint256"
        }
      ],
      "stateMutability": "view",
      "type": "function"
    },
    {
      "inputs": [
        {
          "internalType": "uint256",
          "name": "_tokenId",
          "type": "uint256"
        }
      ],
      "name": "tokenURI",
      "outputs": [
        {
          "internalType": "string",
          "name": "",
          "type": "string"
        }
      ],
      "stateMutability": "view",
      "type": "function"
    },
    {
      "inputs": [],
      "name": "totalSupply",
      "outputs": [
        {
          "internalType": "uint256",
          "name": "",
          "type": "uint256"
        }
      ],
      "stateMutability": "view",
      "type": "function"
    },
    {
      "inputs": [
        {
          "internalType": "address",
          "name": "from",
          "type": "address"
        },
        {
          "internalType": "address",
          "name": "to",
          "type": "address"
        },
        {
          "internalType": "uint256",
          "name": "tokenId",
          "type": "uint256"
        }
      ],
      "name": "transferFrom",
      "outputs": [],
      "stateMutability": "nonpayable",
      "type": "function"
    },
    {
      "inputs": [],
      "name": "unpause",
      "outputs": [],
      "stateMutability": "nonpayable",
      "type": "function"
    },
    {
      "inputs": [
        {
          "internalType": "uint256",
          "name": "projectId",
          "type": "uint256"
        },
        {
          "internalType": "uint256",
          "name": "newFee",
          "type": "uint256"
        },
        {
          "internalType": "address",
          "name": "newFeeAddr",
          "type": "address"
        },
        {
          "internalType": "string",
          "name": "newURI",
          "type": "string"
        },
        {
          "internalType": "string",
          "name": "newScript",
          "type": "string"
        },
        {
          "internalType": "address",
          "name": "newMinterNFTInfo",
          "type": "address"
        },
        {
          "internalType": "uint256",
          "name": "maxSupply",
          "type": "uint256"
        },
        {
          "internalType": "uint256",
          "name": "totalSupply",
          "type": "uint256"
        },
        {
          "internalType": "uint256",
          "name": "notOwnerMaxSupply",
          "type": "uint256"
        },
        {
          "internalType": "uint256",
          "name": "notOwnerTotalSupply",
          "type": "uint256"
        }
      ],
      "name": "updateProject",
      "outputs": [],
      "stateMutability": "nonpayable",
      "type": "function"
    },
    {
      "inputs": [
        {
          "internalType": "address",
          "name": "receiver",
          "type": "address"
        },
        {
          "internalType": "address",
          "name": "erc20Addr",
          "type": "address"
        },
        {
          "internalType": "uint256",
          "name": "amount",
          "type": "uint256"
        }
      ],
      "name": "withdraw",
      "outputs": [],
      "stateMutability": "nonpayable",
      "type": "function"
    }
  ],
  "bytecode": "0x608060405234801561001057600080fd5b50615dba80620000216000396000f3fe6080604052600436106102ae5760003560e01c806370a0823111610175578063a6487c53116100dc578063d539139311610095578063d6d0faee1161006f578063d6d0faee146108f2578063d9caed1214610912578063e63ab1e914610932578063e985e9c51461096657600080fd5b8063d539139314610889578063d547741f146108bd578063d547cfb7146108dd57600080fd5b8063a6487c53146107c8578063adfc7dae146107e8578063b88d4fde14610809578063c87b56dd14610829578063c8cb8a7514610849578063ca15c8731461086957600080fd5b80639010d07c1161012e5780639010d07c1461071e57806391d148541461073e57806395d89b411461075e5780639713c80714610773578063a217fddf14610793578063a22cb465146107a857600080fd5b806370a08231146106165780637f77f57414610636578063821f9dc9146106b157806382215922146106eb5780638456cb591461050357806385aa29b5146106fe57600080fd5b806335055e90116102195780634e26a2ac116101d25780634e26a2ac146105525780634f558e791461057f5780634f6ccce71461059f5780635c975abb146105bf5780636352211e146105d85780636a627842146105f857600080fd5b806335055e901461049757806336568abe146104aa57806336bd9e63146104ca5780633f4ba83a1461050357806342842e0e1461051257806342966c681461053257600080fd5b80631acfd02a1161026b5780631acfd02a146103a857806323b872dd146103c8578063248a9ca3146103e85780632a55205a146104185780632f2ff15d146104575780632f745c591461047757600080fd5b806301bc45c9146102b357806301ffc9a7146102f157806306fdde0314610321578063081812fc14610343578063095ea7b31461036357806318160ddd14610385575b600080fd5b3480156102bf57600080fd5b50610227546102d4906001600160a01b031681565b6040516001600160a01b0390911681526020015b60405180910390f35b3480156102fd57600080fd5b5061031161030c36600461470c565b6109af565b60405190151581526020016102e8565b34801561032d57600080fd5b506103366109c0565b6040516102e89190614781565b34801561034f57600080fd5b506102d461035e366004614794565b610a52565b34801561036f57600080fd5b5061038361037e3660046147cd565b610a79565b005b34801561039157600080fd5b5061039a610b94565b6040519081526020016102e8565b3480156103b457600080fd5b506103836103c33660046147f9565b610ba5565b3480156103d457600080fd5b506103836103e3366004614832565b610cb0565b3480156103f457600080fd5b5061039a610403366004614794565b60009081526065602052604090206001015490565b34801561042457600080fd5b50610438610433366004614873565b610ce2565b604080516001600160a01b0390931683526020830191909152016102e8565b34801561046357600080fd5b50610383610472366004614895565b610db0565b34801561048357600080fd5b5061039a6104923660046147cd565b610dd5565b61039a6104a5366004614a14565b610e6b565b3480156104b657600080fd5b506103836104c5366004614895565b61148a565b3480156104d657600080fd5b5061039a6104e53660046147f9565b61022c60209081526000928352604080842090915290825290205481565b34801561050f57600080fd5b50005b34801561051e57600080fd5b5061038361052d366004614832565b611504565b34801561053e57600080fd5b5061038361054d366004614794565b61151f565b34801561055e57600080fd5b5061057261056d366004614794565b61154a565b6040516102e89190614c2c565b34801561058b57600080fd5b5061031161059a366004614794565b61170d565b3480156105ab57600080fd5b5061039a6105ba366004614794565b61172c565b3480156105cb57600080fd5b5061015f5460ff16610311565b3480156105e457600080fd5b506102d46105f3366004614794565b6117bf565b34801561060457600080fd5b50610383610613366004614c3f565b50565b34801561062257600080fd5b5061039a610631366004614c3f565b61181f565b34801561064257600080fd5b50610686610651366004614794565b61022e602052600090815260409020546001600160a01b03811690600160a01b810462ffffff1690600160b81b900460ff1683565b604080516001600160a01b03909416845262ffffff90921660208401521515908201526060016102e8565b3480156106bd57600080fd5b506106d16106cc366004614794565b6118a5565b6040516102e89e9d9c9b9a99989796959493929190614c5c565b6103836106f9366004614e71565b611c6a565b34801561070a57600080fd5b50610383610719366004614f8c565b6128e9565b34801561072a57600080fd5b506102d4610739366004614873565b612a28565b34801561074a57600080fd5b50610311610759366004614895565b612a47565b34801561076a57600080fd5b50610336612a72565b34801561077f57600080fd5b5061038361078e36600461504c565b612a81565b34801561079f57600080fd5b5061039a600081565b3480156107b457600080fd5b506103836107c3366004615073565b612bd2565b3480156107d457600080fd5b506103836107e33660046150a1565b612bdd565b3480156107f457600080fd5b50610228546102d4906001600160a01b031681565b34801561081557600080fd5b50610383610824366004615128565b612cad565b34801561083557600080fd5b50610336610844366004614794565b612cdf565b34801561085557600080fd5b506103836108643660046147cd565b612de8565b34801561087557600080fd5b5061039a610884366004614794565b612e86565b34801561089557600080fd5b5061039a7f9f2df0fed2c77648de5860a4cc508cd0818c85b8b8a1ab4ceeef8d981c8956a681565b3480156108c957600080fd5b506103836108d8366004614895565b612e9d565b3480156108e957600080fd5b50610336612ec2565b3480156108fe57600080fd5b5061038361090d3660046151a7565b612ecc565b34801561091e57600080fd5b5061038361092d366004614832565b613069565b34801561093e57600080fd5b5061039a7f65d7a28e3265b37a6474929f336521b332c1681b933f6cb9f3376673440d862a81565b34801561097257600080fd5b506103116109813660046147f9565b6001600160a01b03918216600090815260ce6020908152604080832093909416825291909152205460ff1690565b60006109ba82613239565b92915050565b606060c980546109cf90615256565b80601f01602080910402602001604051908101604052809291908181526020018280546109fb90615256565b8015610a485780601f10610a1d57610100808354040283529160200191610a48565b820191906000526020600020905b815481529060010190602001808311610a2b57829003601f168201915b5050505050905090565b6000610a5d8261325e565b50600090815260cd60205260409020546001600160a01b031690565b6000610a84826117bf565b9050806001600160a01b0316836001600160a01b03161415610af75760405162461bcd60e51b815260206004820152602160248201527f4552433732313a20617070726f76616c20746f2063757272656e74206f776e656044820152603960f91b60648201526084015b60405180910390fd5b336001600160a01b0382161480610b135750610b138133610981565b610b855760405162461bcd60e51b815260206004820152603e60248201527f4552433732313a20617070726f76652063616c6c6572206973206e6f7420746f60448201527f6b656e206f776e6572206e6f7220617070726f76656420666f7220616c6c00006064820152608401610aee565b610b8f83836132bd565b505050565b6000610ba06102295490565b905090565b610227546001600160a01b031633148015610bc65750610bc6600033612a47565b8015610bda57506001600160a01b03821615155b6040518060400160405280600381526020016231303160e81b81525090610c145760405162461bcd60e51b8152600401610aee9190614781565b50610227546001600160a01b03838116911614610c665761022780546001600160a01b038481166001600160a01b0319831681179093551690610c5990600090610db0565b610c64600082612e9d565b505b6001600160a01b038116610c7957600080fd5b610228546001600160a01b03828116911614610cac5761022880546001600160a01b0319166001600160a01b0383161790555b5050565b610cbb335b8261332b565b610cd75760405162461bcd60e51b8152600401610aee9061528b565b610b8f8383836133aa565b600082815261022e60209081526040808320815160608101835290546001600160a01b0381168252600160a01b810462ffffff1693820193909352600160b81b90920460ff1615801591830191909152829190610d67578051602082015190935061271090610d569062ffffff16866152ef565b610d609190615324565b9150610da8565b600085815261022a6020526040902060050154600160201b90046001600160a01b03169250612710610d9b856101f46152ef565b610da59190615324565b91505b509250929050565b600082815260656020526040902060010154610dcb81613551565b610b8f838361355b565b6000610de08361181f565b8210610e425760405162461bcd60e51b815260206004820152602b60248201527f455243373231456e756d657261626c653a206f776e657220696e646578206f7560448201526a74206f6620626f756e647360a81b6064820152608401610aee565b506001600160a01b0391909116600090815260fb60209081526040808320938352929052205490565b600060026101f5541415610e915760405162461bcd60e51b8152600401610aee90615338565b60026101f5558a516040805180820190915260038082526203230360ec1b6020830152909111610ed45760405162461bcd60e51b8152600401610aee9190614781565b50610ee461022980546001019055565b6000610ef06102295490565b600081815260cb60205260409020549091506001600160a01b03161515156040518060400160405280600381526020016219181960e91b81525090610f485760405162461bcd60e51b8152600401610aee9190614781565b5061022854610227546001600160a01b03918216911633146111375760408051808201825260128152714352454154455f50524f4a4543545f46454560701b60208201529051636d12dce160e01b81526000916001600160a01b03841691636d12dce191610fb891600401614781565b602060405180830381865afa158015610fd5573d6000803e3d6000fd5b505050506040513d601f19601f82011682018060405250810190610ff9919061536f565b905080156111355760408051808201825260098152682322a2afaa27a5a2a760b91b6020820152905163bf40fac160e01b81526000916001600160a01b0385169163bf40fac19161104c91600401614781565b602060405180830381865afa158015611069573d6000803e3d6000fd5b505050506040513d601f19601f8201168201806040525081019061108d9190615388565b90506001600160a01b03811615611126576040516323b872dd60e01b81523360048201523060248201526044810183905281906001600160a01b038216906323b872dd906064016020604051808303816000875af11580156110f3573d6000803e3d6000fd5b505050506040513d601f19601f8201168201806040525081019061111791906153a5565b61112057600080fd5b50611133565b8134101561113357600080fd5b505b505b86511561116657600082815261022a602090815260409091208851611164926006909201918a019061465d565b505b8c61022a6000848152602001908152602001600020600701908051906020019061119192919061465d565b5061022754600083815261022a60205260409020600581018054640100000000600160c01b0319166001600160a01b03938416600160201b02179055600281018e9055600c81018d90558781556001810180546001600160a01b0319169288169290921790915584906009016112078282615797565b5050600082815261022a602090815260409091208b5161122f926004909201918d019061465d565b50600082815261022a6020526040902060058101805463ffffffff191663ffffffff8c16179055600801805460ff191689151517905561126f8e8361357d565b604080518082018252601781527f47454e455241544956455f4e46545f54454d504c4154450000000000000000006020820152905163bf40fac160e01b8152600091611319916001600160a01b0385169163bf40fac1916112d39190600401614781565b602060405180830381865afa1580156112f0573d6000803e3d6000fd5b505050506040513d601f19601f820116820180604052508101906113149190615388565b613597565b600084815261022a60205260409020600701805491925082916001600160a01b0383169163ae3dd095916113db90600190600390849061135890615256565b80601f016020809104026020016040519081016040528092919081815260200182805461138490615256565b80156113d15780601f106113a6576101008083540402835291602001916113d1565b820191906000526020600020905b8154815290600101906020018083116113b457829003601f168201915b505050505061362f565b610227546040516001600160e01b031960e086901b16815261140f9392916001600160a01b03169030908b906004016158b5565b600060405180830381600087803b15801561142957600080fd5b505af115801561143d573d6000803e3d6000fd5b505050600085815261022a60205260409020600b0180546001600160a01b0319166001600160a01b039490941693909317909255505060016101f555509c9b505050505050505050505050565b6001600160a01b03811633146114fa5760405162461bcd60e51b815260206004820152602f60248201527f416363657373436f6e74726f6c3a2063616e206f6e6c792072656e6f756e636560448201526e103937b632b9903337b91039b2b63360891b6064820152608401610aee565b610cac8282613715565b610b8f83838360405180602001604052806000815250612cad565b61152881613737565b600090815261022a60205260409020600b0180546001600160a01b0319169055565b60408051808201909152600081526060602082015261022a60008381526020019081526020016000206009016040518060400160405290816000820154815260200160018201805480602002602001604051908101604052809291908181526020016000905b828210156116ff57600084815260208082206040805160e08101825260078702909201805460ff9081168452600182015484860152600282015484840152600382015416606084015260048101805483518187028101870190945280845293959194608087019491929084015b828210156116c957838290600052602060002001805461163c90615256565b80601f016020809104026020016040519081016040528092919081815260200182805461166890615256565b80156116b55780601f1061168a576101008083540402835291602001916116b5565b820191906000526020600020905b81548152906001019060200180831161169857829003601f168201915b50505050508152602001906001019061161d565b50505090825250600582015460208083019190915260069092015460ff16151560409091015290825260019290920191016115b0565b505050915250909392505050565b600081815260cb60205260408120546001600160a01b031615156109ba565b600061173760fd5490565b821061179a5760405162461bcd60e51b815260206004820152602c60248201527f455243373231456e756d657261626c653a20676c6f62616c20696e646578206f60448201526b7574206f6620626f756e647360a01b6064820152608401610aee565b60fd82815481106117ad576117ad615979565b90600052602060002001549050919050565b600081815260cb60205260408120546001600160a01b0316806109ba5760405162461bcd60e51b8152602060048201526018602482015277115490cdcc8c4e881a5b9d985b1a59081d1bdad95b88125160421b6044820152606401610aee565b60006001600160a01b0382166118895760405162461bcd60e51b815260206004820152602960248201527f4552433732313a2061646472657373207a65726f206973206e6f7420612076616044820152683634b21037bbb732b960b91b6064820152608401610aee565b506001600160a01b0316600090815260cc602052604090205490565b61022a602052600090815260409020805460018201546002830154600384015460048501805494956001600160a01b0390941694929391926118e690615256565b80601f016020809104026020016040519081016040528092919081815260200182805461191290615256565b801561195f5780601f106119345761010080835404028352916020019161195f565b820191906000526020600020905b81548152906001019060200180831161194257829003601f168201915b505050506005830154600684018054939463ffffffff831694600160201b9093046001600160a01b031693509161199590615256565b80601f01602080910402602001604051908101604052809291908181526020018280546119c190615256565b8015611a0e5780601f106119e357610100808354040283529160200191611a0e565b820191906000526020600020905b8154815290600101906020018083116119f157829003601f168201915b505050505090806007018054611a2390615256565b80601f0160208091040260200160405190810160405280929190818152602001828054611a4f90615256565b8015611a9c5780601f10611a7157610100808354040283529160200191611a9c565b820191906000526020600020905b815481529060010190602001808311611a7f57829003601f168201915b5050505050908060080160009054906101000a900460ff1690806009016040518060400160405290816000820154815260200160018201805480602002602001604051908101604052809291908181526020016000905b82821015611c4257600084815260208082206040805160e08101825260078702909201805460ff9081168452600182015484860152600282015484840152600382015416606084015260048101805483518187028101870190945280845293959194608087019491929084015b82821015611c0c578382906000526020600020018054611b7f90615256565b80601f0160208091040260200160405190810160405280929190818152602001828054611bab90615256565b8015611bf85780601f10611bcd57610100808354040283529160200191611bf8565b820191906000526020600020905b815481529060010190602001808311611bdb57829003601f168201915b505050505081526020019060010190611b60565b50505090825250600582015460208083019190915260069092015460ff1615156040909101529082526001929092019101611af3565b50505091525050600b820154600c830154600d9093015491926001600160a01b03909116918e565b60026101f5541415611c8e5760405162461bcd60e51b8152600401610aee90615338565b60026101f58190558151600090815261022a6020908152604080832081516101c0810183528154815260018201546001600160a01b03169381019390935293840154908201526003830154606082015260048301805492939192608084019190611cf790615256565b80601f0160208091040260200160405190810160405280929190818152602001828054611d2390615256565b8015611d705780601f10611d4557610100808354040283529160200191611d70565b820191906000526020600020905b815481529060010190602001808311611d5357829003601f168201915b5050509183525050600582015463ffffffff81166020830152600160201b90046001600160a01b03166040820152600682018054606090920191611db390615256565b80601f0160208091040260200160405190810160405280929190818152602001828054611ddf90615256565b8015611e2c5780601f10611e0157610100808354040283529160200191611e2c565b820191906000526020600020905b815481529060010190602001808311611e0f57829003601f168201915b50505050508152602001600782018054611e4590615256565b80601f0160208091040260200160405190810160405280929190818152602001828054611e7190615256565b8015611ebe5780601f10611e9357610100808354040283529160200191611ebe565b820191906000526020600020905b815481529060010190602001808311611ea157829003601f168201915b5050509183525050600882015460ff1615156020808301919091526040805180820182526009850180548252600a86018054845181870281018701865281815294909601959294919385830193909260009084015b8282101561206257600084815260208082206040805160e08101825260078702909201805460ff9081168452600182015484860152600282015484840152600382015416606084015260048101805483518187028101870190945280845293959194608087019491929084015b8282101561202c578382906000526020600020018054611f9f90615256565b80601f0160208091040260200160405190810160405280929190818152602001828054611fcb90615256565b80156120185780601f10611fed57610100808354040283529160200191612018565b820191906000526020600020905b815481529060010190602001808311611ffb57829003601f168201915b505050505081526020019060010190611f80565b50505090825250600582015460208083019190915260069092015460ff1615156040909101529082526001929092019101611f13565b50505050815250508152602001600b820160009054906101000a90046001600160a01b03166001600160a01b03166001600160a01b03168152602001600c8201548152602001600d82015481525050905060006001600160a01b03168161016001516001600160a01b031614156040518060400160405280600381526020016203130360ec1b815250906121095760405162461bcd60e51b8152600401610aee9190614781565b5060008260600151511180156121285750816060015151826040015151145b604051806040016040528060038152602001620c8c0d60ea1b815250906121625760405162461bcd60e51b8152600401610aee9190614781565b506040810151158061218c575080604001518260600151518260600151612189919061598f565b11155b6040518060400160405280600381526020016232303360e81b815250906121c65760405162461bcd60e51b8152600401610aee9190614781565b506101808101511561224a5781516121dd906117bf565b6001600160a01b0316336001600160a01b03161461224a576060820151518251600090815261022a60205260408120600d01805490919061221f90849061598f565b90915550506101808101518251600090815261022a60205260409020600d0154111561224a57600080fd5b8051610228546001600160a01b03168115612514578351339061226c906117bf565b6001600160a01b0316146125145760608401515161228a90836152ef565b604080518082018252600c81526b4d494e545f4e46545f46454560a01b60208201529051636d12dce160e01b81529193506000916001600160a01b03841691636d12dce1916122dc9190600401614781565b602060405180830381865afa1580156122f9573d6000803e3d6000fd5b505050506040513d601f19601f8201168201806040525081019061231d919061536f565b90508061232957506101f45b60208401516001600160a01b03166123d6578234101561234857600080fd5b600061235786600001516117bf565b6001600160a01b031661271061236d84876152ef565b6123779190615324565b61238190866159a7565b604051600081818185875af1925050503d80600081146123bd576040519150601f19603f3d011682016040523d82523d6000602084013e6123c2565b606091505b50509050806123d057600080fd5b50612512565b60208401516040516323b872dd60e01b8152336004820152306024820152604481018590526001600160a01b038216906323b872dd906064016020604051808303816000875af115801561242e573d6000803e3d6000fd5b505050506040513d601f19601f8201168201806040525081019061245291906153a5565b61245b57600080fd5b806001600160a01b031663a9059cbb61247788600001516117bf565b61271061248486896152ef565b61248e9190615324565b61249890886159a7565b6040516001600160e01b031960e085901b1681526001600160a01b03909216600483015260248201526044016020604051808303816000875af11580156124e3573d6000803e3d6000fd5b505050506040513d601f19601f8201168201806040525081019061250791906153a5565b61251057600080fd5b505b505b8351600090815261022a60205260408120600b01546001600160a01b0316905b8560600151518110156128db578560600151818151811061255757612557615979565b602090810291909101810151810151518751600090815261022a8352604090819020600a0154815180830190925260038252620c8c0d60ea1b9382019390935291146125b65760405162461bcd60e51b8152600401610aee9190614781565b508551600090815261022a602052604081206008015460ff1661263c57865160608701516125f09133916125eb90600161598f565b613765565b8760600151838151811061260657612606615979565b602090810291909101015152606087015180518390811061262957612629615979565b6020026020010151600001519050612661565b8660600151828151811061265257612652615979565b60200260200101516000015190505b600081815261022d602090815260408083208a518452825291829020548251808401909352600383526232303560e81b91830191909152156126b65760405162461bcd60e51b8152600401610aee9190614781565b506000876040015183815181106126cf576126cf615979565b602002602001015190508051600014156127fc57604080518082018252600c81526b4e46545f424153455f55524960a01b6020820152905163349f642f60e11b81526001600160a01b0387169163693ec85e9161272f9190600401614781565b600060405180830381865afa15801561274c573d6000803e3d6000fd5b505050506040513d6000823e601f3d908101601f1916820160405261277491908101906159be565b61277f3060146137c5565b6040805180820190915260018152602f60f81b60208201528a516127a290613960565b604051806040016040528060018152602001602f60f81b8152506127d58c6060015160016127d0919061598f565b613960565b6040516020016127ea96959493929190615a34565b60405160208183030381529060405290505b836001600160a01b0316632f19212f896020015161022760009054906101000a90046001600160a01b0316848c60600151888151811061283e5761283e615979565b60200260200101516040518563ffffffff1660e01b81526004016128659493929190615ab3565b600060405180830381600087803b15801561287f57600080fd5b505af1158015612893573d6000803e3d6000fd5b505050506001876060018181516128aa919061598f565b905250505060608501518651600090815261022a6020526040902060030155806128d381615b3f565b915050612534565b505060016101f55550505050565b60008a815261022a6020908152604091829020600501548251808401909352600383526218981960e91b91830191909152600160201b90046001600160a01b031633146129495760405162461bcd60e51b8152600401610aee9190614781565b5060008a815261022a6020526040902089815560010180546001600160a01b0319166001600160a01b038a161790558651156129a75760008a815261022a6020908152604090912088516129a5926006909201918a019061465d565b505b8551156129d65760008a815261022a6020908152604090912087516129d49260049092019189019061465d565b505b6000998a5261022a6020526040909920600b810180546001600160a01b0319166001600160a01b03969096169590951790945560028401929092556003830155600c820155600d019490945550505050565b6000828152609760205260408120612a409083613a5d565b9392505050565b60009182526065602090815260408084206001600160a01b0393909316845291905290205460ff1690565b606060ca80546109cf90615256565b610227546001600160a01b0316336001600160a01b0316146040518060400160405280600381526020016231303160e81b81525090612ad35760405162461bcd60e51b8152600401610aee9190614781565b50612adf600033612a47565b6040518060400160405280600381526020016231303160e81b81525090612b195760405162461bcd60e51b8152600401610aee9190614781565b5060408051808201909152600381526232303360e81b6020820152612710821115612b575760405162461bcd60e51b8152600401610aee9190614781565b50604080516060810182526001600160a01b03938416815262ffffff92831660208083019182526001838501908152600097885261022e90915292909520905181549551925194166001600160b81b031990951694909417600160a01b91909216021760ff60b81b1916600160b81b91151591909102179055565b610cac338383613a69565b600054610100900460ff1615808015612bfd5750600054600160ff909116105b80612c175750303b158015612c17575060005460ff166001145b612c335760405162461bcd60e51b8152600401610aee90615b5a565b6000805460ff191660011790558015612c56576000805461ff0019166101001790555b612c61848484613b38565b8015612ca7576000805461ff0019169055604051600181527f7f26b83ff96e1f2b6a682f133852f6798a09c465da95921460cefb38474024989060200160405180910390a15b50505050565b612cb7338361332b565b612cd35760405162461bcd60e51b8152600401610aee9061528b565b612ca784848484613b7c565b600081815261022a6020526040812060060180546060929190612d0190615256565b90501115612dab57600082815261022a602052604090206006018054612d2690615256565b80601f0160208091040260200160405190810160405280929190818152602001828054612d5290615256565b8015612d9f5780601f10612d7457610100808354040283529160200191612d9f565b820191906000526020600020905b815481529060010190602001808311612d8257829003601f168201915b50505050509050919050565b612db3612ec2565b612dbc83613960565b604051602001612dcd929190615ba8565b6040516020818303038152906040529050919050565b919050565b600081815261022a6020908152604091829020600501548251808401909352600383526218981960e91b91830191909152600160201b90046001600160a01b03163314612e485760405162461bcd60e51b8152600401610aee9190614781565b50600090815261022a6020526040902060050180546001600160a01b03909216600160201b02640100000000600160c01b0319909216919091179055565b60008181526097602052604081206109ba90613baf565b600082815260656020526040902060010154612eb881613551565b610b8f8383613715565b6060610ba0613bb9565b600054610100900460ff1615808015612eec5750600054600160ff909116105b80612f065750303b158015612f06575060005460ff166001145b612f225760405162461bcd60e51b8152600401610aee90615b5a565b6000805460ff191660011790558015612f45576000805461ff0019166101001790555b60408051808201909152600381526203130360ec1b60208201526001600160a01b038416612f865760405162461bcd60e51b8152600401610aee9190614781565b5060408051808201909152600381526203130360ec1b60208201526001600160a01b038316612fc85760405162461bcd60e51b8152600401610aee9190614781565b50612fd4868686613b38565b61022880546001600160a01b038085166001600160a01b0319928316179092556102278054928616929091168217905561301090600090610db0565b61301b600033612e9d565b8015613061576000805461ff0019169055604051600181527f7f26b83ff96e1f2b6a682f133852f6798a09c465da95921460cefb38474024989060200160405180910390a15b505050505050565b60026101f554141561308d5760405162461bcd60e51b8152600401610aee90615338565b60026101f555610227546001600160a01b0316336001600160a01b0316146040518060400160405280600381526020016231303160e81b815250906130e55760405162461bcd60e51b8152600401610aee9190614781565b506130f1600033612a47565b6040518060400160405280600381526020016231303160e81b8152509061312b5760405162461bcd60e51b8152600401610aee9190614781565b5060006001600160a01b0383166131ac578147101561314957600080fd5b6040516001600160a01b038516908390600081818185875af1925050503d8060008114613192576040519150601f19603f3d011682016040523d82523d6000602084013e613197565b606091505b505080915050806131a757600080fd5b61322d565b60405163a9059cbb60e01b81526001600160a01b0385811660048301526024820184905284919082169063a9059cbb906044016020604051808303816000875af11580156131fe573d6000803e3d6000fd5b505050506040513d601f19601f8201168201806040525081019061322291906153a5565b61322b57600080fd5b505b505060016101f5555050565b60006001600160e01b0319821663780e9d6360e01b14806109ba57506109ba82613bc9565b600081815260cb60205260409020546001600160a01b03166106135760405162461bcd60e51b8152602060048201526018602482015277115490cdcc8c4e881a5b9d985b1a59081d1bdad95b88125160421b6044820152606401610aee565b600081815260cd6020526040902080546001600160a01b0319166001600160a01b03841690811790915581906132f2826117bf565b6001600160a01b03167f8c5be1e5ebec7d5bd14f71427d1e84f3dd0314c0f7b2291e5b200ac8c7c3b92560405160405180910390a45050565b600080613337836117bf565b9050806001600160a01b0316846001600160a01b0316148061337e57506001600160a01b03808216600090815260ce602090815260408083209388168352929052205460ff165b806133a25750836001600160a01b031661339784610a52565b6001600160a01b0316145b949350505050565b826001600160a01b03166133bd826117bf565b6001600160a01b0316146134215760405162461bcd60e51b815260206004820152602560248201527f4552433732313a207472616e736665722066726f6d20696e636f72726563742060448201526437bbb732b960d91b6064820152608401610aee565b6001600160a01b0382166134835760405162461bcd60e51b8152602060048201526024808201527f4552433732313a207472616e7366657220746f20746865207a65726f206164646044820152637265737360e01b6064820152608401610aee565b61348e838383613c09565b6134996000826132bd565b6001600160a01b038316600090815260cc602052604081208054600192906134c29084906159a7565b90915550506001600160a01b038216600090815260cc602052604081208054600192906134f090849061598f565b9091555050600081815260cb602052604080822080546001600160a01b0319166001600160a01b0386811691821790925591518493918716917fddf252ad1be2c89b69c2b068fc378daa952ba7f163c4a11628f55a4df523b3ef91a4505050565b6106138133613c14565b6135658282613c78565b6000828152609760205260409020610b8f9082613cfe565b610cac828260405180602001604052806000815250613d13565b6000604051733d602d80600a3d3981f3363d3d373d3d3d363d7360601b81528260601b60148201526e5af43d82803e903d91602b57fd5bf360881b60288201526037816000f09150506001600160a01b038116612de35760405162461bcd60e51b8152602060048201526016602482015275115490cc4c4d8dce8818dc99585d194819985a5b195960521b6044820152606401610aee565b6060600061363d85856159a7565b61364890600161598f565b6001600160401b0381111561365f5761365f6148ba565b6040519080825280601f01601f191660200182016040528015613689576020820181803683370190505b50905060005b61369986866159a7565b811161370c578360016136ac888461598f565b6136b691906159a7565b815181106136c6576136c6615979565b602001015160f81c60f81b8282815181106136e3576136e3615979565b60200101906001600160f81b031916908160001a9053508061370481615b3f565b91505061368f565b50949350505050565b61371f8282613d46565b6000828152609760205260409020610b8f9082613dad565b61374033610cb5565b61375c5760405162461bcd60e51b8152600401610aee9061528b565b61061381613dc2565b60006137726001436159a7565b60408051914060208301526bffffffffffffffffffffffff19606087901b169082015260548101849052607481018390526094016040516020818303038152906040528051906020012090509392505050565b606060006137d48360026152ef565b6137df90600261598f565b6001600160401b038111156137f6576137f66148ba565b6040519080825280601f01601f191660200182016040528015613820576020820181803683370190505b509050600360fc1b8160008151811061383b5761383b615979565b60200101906001600160f81b031916908160001a905350600f60fb1b8160018151811061386a5761386a615979565b60200101906001600160f81b031916908160001a905350600061388e8460026152ef565b61389990600161598f565b90505b6001811115613911576f181899199a1a9b1b9c1cb0b131b232b360811b85600f16601081106138cd576138cd615979565b1a60f81b8282815181106138e3576138e3615979565b60200101906001600160f81b031916908160001a90535060049490941c9361390a81615bd7565b905061389c565b508315612a405760405162461bcd60e51b815260206004820181905260248201527f537472696e67733a20686578206c656e67746820696e73756666696369656e746044820152606401610aee565b6060816139845750506040805180820190915260018152600360fc1b602082015290565b8160005b81156139ae578061399881615b3f565b91506139a79050600a83615324565b9150613988565b6000816001600160401b038111156139c8576139c86148ba565b6040519080825280601f01601f1916602001820160405280156139f2576020820181803683370190505b5090505b84156133a257613a076001836159a7565b9150613a14600a86615bee565b613a1f90603061598f565b60f81b818381518110613a3457613a34615979565b60200101906001600160f81b031916908160001a905350613a56600a86615324565b94506139f6565b6000612a408383613e69565b816001600160a01b0316836001600160a01b03161415613acb5760405162461bcd60e51b815260206004820152601960248201527f4552433732313a20617070726f766520746f2063616c6c6572000000000000006044820152606401610aee565b6001600160a01b03838116600081815260ce6020908152604080832094871680845294825291829020805460ff191686151590811790915591519182527f17307eab39ab6107e8899845ad3d59bd9653f200f220920489ca2b5937696c31910160405180910390a3505050565b600054610100900460ff16613b5f5760405162461bcd60e51b8152600401610aee90615c02565b613b698383613e93565b613b71613ee1565b610b8f838383613f15565b613b878484846133aa565b613b9384848484613fb0565b612ca75760405162461bcd60e51b8152600401610aee90615c4d565b60006109ba825490565b60606101c480546109cf90615256565b60006001600160e01b031982166380ac58cd60e01b1480613bfa57506001600160e01b03198216635b5e139f60e01b145b806109ba57506109ba826140ae565b610b8f8383836140d3565b613c1e8282612a47565b610cac57613c36816001600160a01b031660146137c5565b613c418360206137c5565b604051602001613c52929190615c9f565b60408051601f198184030181529082905262461bcd60e51b8252610aee91600401614781565b613c828282612a47565b610cac5760008281526065602090815260408083206001600160a01b03851684529091529020805460ff19166001179055613cba3390565b6001600160a01b0316816001600160a01b0316837f2f8788117e7eff1d82e926ec794901d17c78024a50270940304540a733656f0d60405160405180910390a45050565b6000612a40836001600160a01b038416614146565b613d1d8383614195565b613d2a6000848484613fb0565b610b8f5760405162461bcd60e51b8152600401610aee90615c4d565b613d508282612a47565b15610cac5760008281526065602090815260408083206001600160a01b0385168085529252808320805460ff1916905551339285917ff6391f5c32d9c69d2a47ea670b442974b53935d1edc7fd64eb21e047a839171b9190a45050565b6000612a40836001600160a01b0384166142e3565b6000613dcd826117bf565b9050613ddb81600084613c09565b613de66000836132bd565b6001600160a01b038116600090815260cc60205260408120805460019290613e0f9084906159a7565b9091555050600082815260cb602052604080822080546001600160a01b0319169055518391906001600160a01b038416907fddf252ad1be2c89b69c2b068fc378daa952ba7f163c4a11628f55a4df523b3ef908390a45050565b6000826000018281548110613e8057613e80615979565b9060005260206000200154905092915050565b600054610100900460ff16613eba5760405162461bcd60e51b8152600401610aee90615c02565b8151613ecd9060c990602085019061465d565b508051610b8f9060ca90602084019061465d565b600054610100900460ff16613f085760405162461bcd60e51b8152600401610aee90615c02565b61015f805460ff19169055565b600054610100900460ff16613f3c5760405162461bcd60e51b8152600401610aee90615c02565b8051613f50906101c490602084019061465d565b50613f5c6000336143d6565b613f867f9f2df0fed2c77648de5860a4cc508cd0818c85b8b8a1ab4ceeef8d981c8956a6336143d6565b610b8f7f65d7a28e3265b37a6474929f336521b332c1681b933f6cb9f3376673440d862a336143d6565b60006001600160a01b0384163b156140a357604051630a85bd0160e11b81526001600160a01b0385169063150b7a0290613ff4903390899088908890600401615d14565b6020604051808303816000875af192505050801561402f575060408051601f3d908101601f1916820190925261402c91810190615d51565b60015b614089573d80801561405d576040519150601f19603f3d011682016040523d82523d6000602084013e614062565b606091505b5080516140815760405162461bcd60e51b8152600401610aee90615c4d565b805181602001fd5b6001600160e01b031916630a85bd0160e11b1490506133a2565b506001949350505050565b60006001600160e01b03198216635a05180f60e01b14806109ba57506109ba826143e0565b6140de838383614415565b61015f5460ff1615610b8f5760405162461bcd60e51b815260206004820152602b60248201527f4552433732315061757361626c653a20746f6b656e207472616e73666572207760448201526a1a1a5b19481c185d5cd95960aa1b6064820152608401610aee565b600081815260018301602052604081205461418d575081546001818101845560008481526020808220909301849055845484825282860190935260409020919091556109ba565b5060006109ba565b6001600160a01b0382166141eb5760405162461bcd60e51b815260206004820181905260248201527f4552433732313a206d696e7420746f20746865207a65726f20616464726573736044820152606401610aee565b600081815260cb60205260409020546001600160a01b0316156142505760405162461bcd60e51b815260206004820152601c60248201527f4552433732313a20746f6b656e20616c7265616479206d696e746564000000006044820152606401610aee565b61425c60008383613c09565b6001600160a01b038216600090815260cc6020526040812080546001929061428590849061598f565b9091555050600081815260cb602052604080822080546001600160a01b0319166001600160a01b03861690811790915590518392907fddf252ad1be2c89b69c2b068fc378daa952ba7f163c4a11628f55a4df523b3ef908290a45050565b600081815260018301602052604081205480156143cc5760006143076001836159a7565b855490915060009061431b906001906159a7565b905081811461438057600086600001828154811061433b5761433b615979565b906000526020600020015490508087600001848154811061435e5761435e615979565b6000918252602080832090910192909255918252600188019052604090208390555b855486908061439157614391615d6e565b6001900381819060005260206000200160009055905585600101600086815260200190815260200160002060009055600193505050506109ba565b60009150506109ba565b610cac828261355b565b60006001600160e01b03198216637965db0b60e01b14806109ba57506301ffc9a760e01b6001600160e01b03198316146109ba565b6001600160a01b0383166144705761446b8160fd8054600083815260fe60205260408120829055600182018355919091527f9346ac6dd7de6b96975fec380d4d994c4c12e6a8897544f22915316cc6cca2800155565b614493565b816001600160a01b0316836001600160a01b0316146144935761449383826144cd565b6001600160a01b0382166144aa57610b8f8161456a565b826001600160a01b0316826001600160a01b031614610b8f57610b8f8282614619565b600060016144da8461181f565b6144e491906159a7565b600083815260fc6020526040902054909150808214614537576001600160a01b038416600090815260fb60209081526040808320858452825280832054848452818420819055835260fc90915290208190555b50600091825260fc602090815260408084208490556001600160a01b03909416835260fb81528383209183525290812055565b60fd5460009061457c906001906159a7565b600083815260fe602052604081205460fd80549394509092849081106145a4576145a4615979565b906000526020600020015490508060fd83815481106145c5576145c5615979565b600091825260208083209091019290925582815260fe909152604080822084905585825281205560fd8054806145fd576145fd615d6e565b6001900381819060005260206000200160009055905550505050565b60006146248361181f565b6001600160a01b03909316600090815260fb60209081526040808320868452825280832085905593825260fc9052919091209190915550565b82805461466990615256565b90600052602060002090601f01602090048101928261468b57600085556146d1565b82601f106146a457805160ff19168380011785556146d1565b828001600101855582156146d1579182015b828111156146d15782518255916020019190600101906146b6565b506146dd9291506146e1565b5090565b5b808211156146dd57600081556001016146e2565b6001600160e01b03198116811461061357600080fd5b60006020828403121561471e57600080fd5b8135612a40816146f6565b60005b8381101561474457818101518382015260200161472c565b83811115612ca75750506000910152565b6000815180845261476d816020860160208601614729565b601f01601f19169290920160200192915050565b602081526000612a406020830184614755565b6000602082840312156147a657600080fd5b5035919050565b6001600160a01b038116811461061357600080fd5b8035612de3816147ad565b600080604083850312156147e057600080fd5b82356147eb816147ad565b946020939093013593505050565b6000806040838503121561480c57600080fd5b8235614817816147ad565b91506020830135614827816147ad565b809150509250929050565b60008060006060848603121561484757600080fd5b8335614852816147ad565b92506020840135614862816147ad565b929592945050506040919091013590565b6000806040838503121561488657600080fd5b50508035926020909101359150565b600080604083850312156148a857600080fd5b823591506020830135614827816147ad565b634e487b7160e01b600052604160045260246000fd5b604080519081016001600160401b03811182821017156148f2576148f26148ba565b60405290565b604051608081016001600160401b03811182821017156148f2576148f26148ba565b604051601f8201601f191681016001600160401b0381118282101715614942576149426148ba565b604052919050565b60006001600160401b03821115614963576149636148ba565b50601f01601f191660200190565b600061498461497f8461494a565b61491a565b905082815283838301111561499857600080fd5b828260208301376000602084830101529392505050565b600082601f8301126149c057600080fd5b612a4083833560208501614971565b803563ffffffff81168114612de357600080fd5b801515811461061357600080fd5b8035612de3816149e3565b600060408284031215614a0e57600080fd5b50919050565b60008060008060008060008060008060006101608c8e031215614a3657600080fd5b614a3f8c6147c2565b9a506001600160401b038060208e01351115614a5a57600080fd5b614a6a8e60208f01358f016149af565b9a5060408d0135995060608d013598508060808e01351115614a8b57600080fd5b614a9b8e60808f01358f016149af565b9750614aa960a08e016149cf565b9650614ab760c08e016149f1565b95508060e08e01351115614aca57600080fd5b614ada8e60e08f01358f016149af565b94506101008d01359350614af16101208e016147c2565b9250806101408e01351115614b0557600080fd5b50614b178d6101408e01358e016149fc565b90509295989b509295989b9093969950565b6000604080840183518552602080850151838288015282815180855260609450848901915060058582821b8b010185850194506000805b84811015614c1b578c8303605f190186528651805160ff9081168552898201518a8601528b8201518c8601528a820151168a85015260808082015160e091860182905280519186018290526101008087019280891b8801909101918c01865b82811015614bed5760ff19898503018552614bdb848351614755565b948e01949350908d0190600101614bbf565b50505060a0838101519087015260c09283015115159290950191909152509587019594870194600101614b60565b50909b9a5050505050505050505050565b602081526000612a406020830184614b29565b600060208284031215614c5157600080fd5b8135612a40816147ad565b8e81526001600160a01b038e1660208201528c60408201528b60608201526101c060808201526000614c926101c083018d614755565b63ffffffff8c1660a08401526001600160a01b038b1660c084015282810360e0840152614cbf818b614755565b9050828103610100840152614cd4818a614755565b8815156101208501529050828103610140840152614cf28188614b29565b915050614d0b6101608301866001600160a01b03169052565b6101808201939093526101a001529c9b505050505050505050505050565b60006001600160401b03821115614d4257614d426148ba565b5060051b60200190565b600082601f830112614d5d57600080fd5b81356020614d6d61497f83614d29565b828152600592831b8501820192828201919087851115614d8c57600080fd5b8387015b85811015614e645780356001600160401b0380821115614db05760008081fd5b908901906040828c03601f1901811315614dca5760008081fd5b614dd26148d0565b8884013581528184013583811115614dea5760008081fd5b8085019450508c603f850112614e0257600092508283fd5b888401359250614e1461497f84614d29565b83815292861b8401820192898101908e851115614e315760008081fd5b948301945b84861015614e4f5785358252948a0194908a0190614e36565b828b0152508752505050928401928401614d90565b5090979650505050505050565b60006020808385031215614e8457600080fd5b82356001600160401b0380821115614e9b57600080fd5b9084019060808287031215614eaf57600080fd5b614eb76148f8565b8235815283830135614ec8816147ad565b81850152604083013582811115614ede57600080fd5b8301601f81018813614eef57600080fd5b8035614efd61497f82614d29565b81815260059190911b8201860190868101908a831115614f1c57600080fd5b8784015b83811015614f5457803587811115614f385760008081fd5b614f468d8b838901016149af565b845250918801918801614f20565b5060408501525050506060830135935081841115614f7157600080fd5b614f7d87858501614d4c565b60608201529695505050505050565b6000806000806000806000806000806101408b8d031215614fac57600080fd5b8a35995060208b01359850614fc360408c016147c2565b975060608b01356001600160401b0380821115614fdf57600080fd5b614feb8e838f016149af565b985060808d013591508082111561500157600080fd5b5061500e8d828e016149af565b96505061501d60a08c016147c2565b945060c08b0135935060e08b013592506101008b013591506101208b013590509295989b9194979a5092959850565b60008060006060848603121561506157600080fd5b833592506020840135614862816147ad565b6000806040838503121561508657600080fd5b8235615091816147ad565b91506020830135614827816149e3565b6000806000606084860312156150b657600080fd5b83356001600160401b03808211156150cd57600080fd5b6150d9878388016149af565b945060208601359150808211156150ef57600080fd5b6150fb878388016149af565b9350604086013591508082111561511157600080fd5b5061511e868287016149af565b9150509250925092565b6000806000806080858703121561513e57600080fd5b8435615149816147ad565b93506020850135615159816147ad565b92506040850135915060608501356001600160401b0381111561517b57600080fd5b8501601f8101871361518c57600080fd5b61519b87823560208401614971565b91505092959194509250565b600080600080600060a086880312156151bf57600080fd5b85356001600160401b03808211156151d657600080fd5b6151e289838a016149af565b965060208801359150808211156151f857600080fd5b61520489838a016149af565b9550604088013591508082111561521a57600080fd5b50615227888289016149af565b9350506060860135615238816147ad565b91506080860135615248816147ad565b809150509295509295909350565b600181811c9082168061526a57607f821691505b60208210811415614a0e57634e487b7160e01b600052602260045260246000fd5b6020808252602e908201527f4552433732313a2063616c6c6572206973206e6f7420746f6b656e206f776e6560408201526d1c881b9bdc88185c1c1c9bdd995960921b606082015260800190565b634e487b7160e01b600052601160045260246000fd5b6000816000190483118215151615615309576153096152d9565b500290565b634e487b7160e01b600052601260045260246000fd5b6000826153335761533361530e565b500490565b6020808252601f908201527f5265656e7472616e637947756172643a207265656e7472616e742063616c6c00604082015260600190565b60006020828403121561538157600080fd5b5051919050565b60006020828403121561539a57600080fd5b8151612a40816147ad565b6000602082840312156153b757600080fd5b8151612a40816149e3565b6000808335601e198436030181126153d957600080fd5b8301803591506001600160401b038211156153f357600080fd5b6020019150600581901b360382131561540b57600080fd5b9250929050565b6000823560de1983360301811261542857600080fd5b9190910192915050565b5b81811015610cac5760008155600101615433565b805460008083558115610b8f5782815260208082208381015b80821015613061576154728254615256565b80156154b957601f8082116001811461548d578685556154b6565b8487528587206154a783850160051c820160018301615432565b50600085815260208120818755555b50505b50600182019150615460565b600160401b8211156154d9576154d96148ba565b805482825580831015610b8f576000828152602081208481019083015b80821015613061576155088254615256565b801561555257601f808211600181146155235785855561554f565b60008581526020902061554083850160051c820160018301615432565b50600085815260208120818755555b50505b506001820191506154f6565b6000813560ff811681146109ba57600080fd5b601f821115610b8f57806000526020600020601f840160051c810160208510156155985750805b6155aa601f850160051c830182615432565b5050505050565b6001600160401b038311156155c8576155c86148ba565b6155dc836155d68354615256565b83615571565b6000601f84116001811461561057600085156155f85750838201355b600019600387901b1c1916600186901b1783556155aa565b600083815260209020601f19861690835b828110156156415786850135825560209485019460019092019101615621565b508682101561565e5760001960f88860031b161c19848701351681555b505060018560011b0183555050505050565b600081356109ba816149e3565b61569a6156898361555e565b825460ff191660ff91909116178255565b600160208084013582840155604084013560028401556156d46156bf6060860161555e565b6003850160ff821660ff198254161781555050565b600483016156e560808601866153c2565b6156ef81846154c5565b8160008481528581209450805b8381101561575d578235601e19863603018112615717578283fd5b850180356001600160401b0381111561572e578384fd5b8882019150803603821315615741578384fd5b61574c81838a6155b1565b5050948701949186019187016156fc565b505050505050505060a08201356005820155610cac61577e60c08401615670565b6006830160ff1981541660ff8315151681178255505050565b81358155600180820160206157ae818601866153c2565b600160401b8111156157c2576157c26148ba565b83548185558082101561586f577f2492492492492492492492492492492492492492492492492492492492492492808211871615615802576158026152d9565b6007818411881615615816576158166152d9565b6000878152868120909250848202810190828502015b8082101561586a57838255838a83015583600283015583600383015561585460048301615447565b836005830155836006830155828201915061582c565b505050505b506000938452602084209382905b828110156158aa576158986158928386615412565b8761567d565b6007959095019490840190860161587d565b505050505050505050565b60a0815260008087546158c781615256565b8060a086015260c06001808416600081146158e957600181146158fd5761592e565b60ff1985168884015260e08801955061592e565b8c60005260208060002060005b868110156159255781548b820187015290840190820161590a565b8a018501975050505b505050505082810360208401526159458188614755565b91505061595d60408301866001600160a01b03169052565b6001600160a01b03939093166060820152608001529392505050565b634e487b7160e01b600052603260045260246000fd5b600082198211156159a2576159a26152d9565b500190565b6000828210156159b9576159b96152d9565b500390565b6000602082840312156159d057600080fd5b81516001600160401b038111156159e657600080fd5b8201601f810184136159f757600080fd5b8051615a0561497f8261494a565b818152856020838501011115615a1a57600080fd5b615a2b826020830160208601614729565b95945050505050565b600087516020615a478285838d01614729565b885191840191615a5a8184848d01614729565b8851920191615a6c8184848c01614729565b8751920191615a7e8184848b01614729565b8651920191615a908184848a01614729565b8551920191615aa28184848901614729565b919091019998505050505050505050565b600060018060a01b03808716835260208187168185015260806040850152615ade6080850187614755565b915083820360608501526040820185518352818601516040838501528181518084526060860191508483019550600093505b80841015615b305785518252948401946001939093019290840190615b10565b509a9950505050505050505050565b6000600019821415615b5357615b536152d9565b5060010190565b6020808252602e908201527f496e697469616c697a61626c653a20636f6e747261637420697320616c72656160408201526d191e481a5b9a5d1a585b1a5e995960921b606082015260800190565b60008351615bba818460208801614729565b835190830190615bce818360208801614729565b01949350505050565b600081615be657615be66152d9565b506000190190565b600082615bfd57615bfd61530e565b500690565b6020808252602b908201527f496e697469616c697a61626c653a20636f6e7472616374206973206e6f74206960408201526a6e697469616c697a696e6760a81b606082015260800190565b60208082526032908201527f4552433732313a207472616e7366657220746f206e6f6e20455243373231526560408201527131b2b4bb32b91034b6b83632b6b2b73a32b960711b606082015260800190565b7f416363657373436f6e74726f6c3a206163636f756e7420000000000000000000815260008351615cd7816017850160208801614729565b7001034b99036b4b9b9b4b733903937b6329607d1b6017918401918201528351615d08816028840160208801614729565b01602801949350505050565b6001600160a01b0385811682528416602082015260408101839052608060608201819052600090615d4790830184614755565b9695505050505050565b600060208284031215615d6357600080fd5b8151612a40816146f6565b634e487b7160e01b600052603160045260246000fdfea2646970667358221220ec9dba9f903f3d2da753522a0b9fefa7e3052470a28deb8ce60fc98d5fc7140b64736f6c634300080c0033",
  "linkReferences": {},
  "deployedLinkReferences": {}
}