{
  "_format": "hh-sol-artifact-1",
  "contractName": "GenerativeBoilerplateNFT",
  "sourceName": "contracts/nft/GenerativeBoilerplateNFT.sol",
  "abi": [
    {
      "anonymous": false,
      "inputs": [
        {
          "indexed": true,
          "internalType": "address",
          "name": "owner",
          "type": "address"
        },
        {
          "indexed": true,
          "internalType": "address",
          "name": "approved",
          "type": "address"
        },
        {
          "indexed": true,
          "internalType": "uint256",
          "name": "tokenId",
          "type": "uint256"
        }
      ],
      "name": "Approval",
      "type": "event"
    },
    {
      "anonymous": false,
      "inputs": [
        {
          "indexed": true,
          "internalType": "address",
          "name": "owner",
          "type": "address"
        },
        {
          "indexed": true,
          "internalType": "address",
          "name": "operator",
          "type": "address"
        },
        {
          "indexed": false,
          "internalType": "bool",
          "name": "approved",
          "type": "bool"
        }
      ],
      "name": "ApprovalForAll",
      "type": "event"
    },
    {
      "anonymous": false,
      "inputs": [
        {
          "indexed": false,
          "internalType": "address",
          "name": "sender",
          "type": "address"
        },
        {
          "indexed": false,
          "internalType": "uint256",
          "name": "projectId",
          "type": "uint256"
        },
        {
          "indexed": false,
          "internalType": "bytes32[]",
          "name": "seeds",
          "type": "bytes32[]"
        }
      ],
      "name": "GenerateSeeds",
      "type": "event"
    },
    {
      "anonymous": false,
      "inputs": [
        {
          "indexed": false,
          "internalType": "uint8",
          "name": "version",
          "type": "uint8"
        }
      ],
      "name": "Initialized",
      "type": "event"
    },
    {
      "anonymous": false,
      "inputs": [
        {
          "indexed": false,
          "internalType": "address",
          "name": "sender",
          "type": "address"
        },
        {
          "components": [
            {
              "internalType": "uint256",
              "name": "_fromProjectId",
              "type": "uint256"
            },
            {
              "internalType": "address",
              "name": "_mintTo",
              "type": "address"
            },
            {
              "internalType": "string[]",
              "name": "_uriBatch",
              "type": "string[]"
            },
            {
              "components": [
                {
                  "internalType": "bytes32",
                  "name": "_seed",
                  "type": "bytes32"
                },
                {
                  "components": [
                    {
                      "internalType": "uint8",
                      "name": "_typeValue",
                      "type": "uint8"
                    },
                    {
                      "internalType": "uint256",
                      "name": "_max",
                      "type": "uint256"
                    },
                    {
                      "internalType": "uint256",
                      "name": "_min",
                      "type": "uint256"
                    },
                    {
                      "internalType": "uint8",
                      "name": "_decimal",
                      "type": "uint8"
                    },
                    {
                      "internalType": "string[]",
                      "name": "_availableValues",
                      "type": "string[]"
                    },
                    {
                      "internalType": "uint256",
                      "name": "_value",
                      "type": "uint256"
                    },
                    {
                      "internalType": "bool",
                      "name": "_editable",
                      "type": "bool"
                    }
                  ],
                  "internalType": "struct BoilerplateParam.ParamTemplate[]",
                  "name": "_params",
                  "type": "tuple[]"
                }
              ],
              "internalType": "struct BoilerplateParam.ParamsOfProject[]",
              "name": "_paramsBatch",
              "type": "tuple[]"
            }
          ],
          "indexed": false,
          "internalType": "struct IGenerativeBoilerplateNFT.MintRequest",
          "name": "request",
          "type": "tuple"
        }
      ],
      "name": "MintBatchNFT",
      "type": "event"
    },
    {
      "anonymous": false,
      "inputs": [
        {
          "indexed": false,
          "internalType": "address",
          "name": "account",
          "type": "address"
        }
      ],
      "name": "Paused",
      "type": "event"
    },
    {
      "anonymous": false,
      "inputs": [
        {
          "indexed": true,
          "internalType": "bytes32",
          "name": "role",
          "type": "bytes32"
        },
        {
          "indexed": true,
          "internalType": "bytes32",
          "name": "previousAdminRole",
          "type": "bytes32"
        },
        {
          "indexed": true,
          "internalType": "bytes32",
          "name": "newAdminRole",
          "type": "bytes32"
        }
      ],
      "name": "RoleAdminChanged",
      "type": "event"
    },
    {
      "anonymous": false,
      "inputs": [
        {
          "indexed": true,
          "internalType": "bytes32",
          "name": "role",
          "type": "bytes32"
        },
        {
          "indexed": true,
          "internalType": "address",
          "name": "account",
          "type": "address"
        },
        {
          "indexed": true,
          "internalType": "address",
          "name": "sender",
          "type": "address"
        }
      ],
      "name": "RoleGranted",
      "type": "event"
    },
    {
      "anonymous": false,
      "inputs": [
        {
          "indexed": true,
          "internalType": "bytes32",
          "name": "role",
          "type": "bytes32"
        },
        {
          "indexed": true,
          "internalType": "address",
          "name": "account",
          "type": "address"
        },
        {
          "indexed": true,
          "internalType": "address",
          "name": "sender",
          "type": "address"
        }
      ],
      "name": "RoleRevoked",
      "type": "event"
    },
    {
      "anonymous": false,
      "inputs": [
        {
          "indexed": true,
          "internalType": "address",
          "name": "from",
          "type": "address"
        },
        {
          "indexed": true,
          "internalType": "address",
          "name": "to",
          "type": "address"
        },
        {
          "indexed": true,
          "internalType": "uint256",
          "name": "tokenId",
          "type": "uint256"
        }
      ],
      "name": "Transfer",
      "type": "event"
    },
    {
      "anonymous": false,
      "inputs": [
        {
          "indexed": false,
          "internalType": "address",
          "name": "account",
          "type": "address"
        }
      ],
      "name": "Unpaused",
      "type": "event"
    },
    {
      "inputs": [],
      "name": "DEFAULT_ADMIN_ROLE",
      "outputs": [
        {
          "internalType": "bytes32",
          "name": "",
          "type": "bytes32"
        }
      ],
      "stateMutability": "view",
      "type": "function"
    },
    {
      "inputs": [],
      "name": "MINTER_ROLE",
      "outputs": [
        {
          "internalType": "bytes32",
          "name": "",
          "type": "bytes32"
        }
      ],
      "stateMutability": "view",
      "type": "function"
    },
    {
      "inputs": [],
      "name": "PAUSER_ROLE",
      "outputs": [
        {
          "internalType": "bytes32",
          "name": "",
          "type": "bytes32"
        }
      ],
      "stateMutability": "view",
      "type": "function"
    },
    {
      "inputs": [],
      "name": "_admin",
      "outputs": [
        {
          "internalType": "address",
          "name": "",
          "type": "address"
        }
      ],
      "stateMutability": "view",
      "type": "function"
    },
    {
      "inputs": [
        {
          "internalType": "address",
          "name": "",
          "type": "address"
        },
        {
          "internalType": "address",
          "name": "",
          "type": "address"
        }
      ],
      "name": "_approvalForAllSeeds",
      "outputs": [
        {
          "internalType": "uint256",
          "name": "",
          "type": "uint256"
        }
      ],
      "stateMutability": "view",
      "type": "function"
    },
    {
      "inputs": [],
      "name": "_paramsAddress",
      "outputs": [
        {
          "internalType": "address",
          "name": "",
          "type": "address"
        }
      ],
      "stateMutability": "view",
      "type": "function"
    },
    {
      "inputs": [
        {
          "internalType": "uint256",
          "name": "",
          "type": "uint256"
        }
      ],
      "name": "_projects",
      "outputs": [
        {
          "internalType": "uint256",
          "name": "_fee",
          "type": "uint256"
        },
        {
          "internalType": "address",
          "name": "_feeToken",
          "type": "address"
        },
        {
          "internalType": "uint256",
          "name": "_mintMaxSupply",
          "type": "uint256"
        },
        {
          "internalType": "uint256",
          "name": "_mintTotalSupply",
          "type": "uint256"
        },
        {
          "internalType": "string",
          "name": "_script",
          "type": "string"
        },
        {
          "internalType": "uint32",
          "name": "_scriptType",
          "type": "uint32"
        },
        {
          "internalType": "address",
          "name": "_creator",
          "type": "address"
        },
        {
          "internalType": "string",
          "name": "_customUri",
          "type": "string"
        },
        {
          "internalType": "string",
          "name": "_projectName",
          "type": "string"
        },
        {
          "internalType": "bool",
          "name": "_clientSeed",
          "type": "bool"
        },
        {
          "components": [
            {
              "internalType": "bytes32",
              "name": "_seed",
              "type": "bytes32"
            },
            {
              "components": [
                {
                  "internalType": "uint8",
                  "name": "_typeValue",
                  "type": "uint8"
                },
                {
                  "internalType": "uint256",
                  "name": "_max",
                  "type": "uint256"
                },
                {
                  "internalType": "uint256",
                  "name": "_min",
                  "type": "uint256"
                },
                {
                  "internalType": "uint8",
                  "name": "_decimal",
                  "type": "uint8"
                },
                {
                  "internalType": "string[]",
                  "name": "_availableValues",
                  "type": "string[]"
                },
                {
                  "internalType": "uint256",
                  "name": "_value",
                  "type": "uint256"
                },
                {
                  "internalType": "bool",
                  "name": "_editable",
                  "type": "bool"
                }
              ],
              "internalType": "struct BoilerplateParam.ParamTemplate[]",
              "name": "_params",
              "type": "tuple[]"
            }
          ],
          "internalType": "struct BoilerplateParam.ParamsOfProject",
          "name": "_paramsTemplate",
          "type": "tuple"
        },
        {
          "internalType": "address",
          "name": "_minterNFTInfo",
          "type": "address"
        },
        {
          "internalType": "uint256",
          "name": "_mintNotOwnerProjectMaxSupply",
          "type": "uint256"
        },
        {
          "internalType": "uint256",
          "name": "_mintNotOnwerProjectTotalSupply",
          "type": "uint256"
        }
      ],
      "stateMutability": "view",
      "type": "function"
    },
    {
      "inputs": [
        {
          "internalType": "address",
          "name": "to",
          "type": "address"
        },
        {
          "internalType": "uint256",
          "name": "tokenId",
          "type": "uint256"
        }
      ],
      "name": "approve",
      "outputs": [],
      "stateMutability": "nonpayable",
      "type": "function"
    },
    {
      "inputs": [
        {
          "internalType": "address",
          "name": "operator",
          "type": "address"
        },
        {
          "internalType": "uint256",
          "name": "projectId",
          "type": "uint256"
        }
      ],
      "name": "approveForAllSeeds",
      "outputs": [],
      "stateMutability": "nonpayable",
      "type": "function"
    },
    {
      "inputs": [
        {
          "internalType": "address",
          "name": "owner",
          "type": "address"
        }
      ],
      "name": "balanceOf",
      "outputs": [
        {
          "internalType": "uint256",
          "name": "",
          "type": "uint256"
        }
      ],
      "stateMutability": "view",
      "type": "function"
    },
    {
      "inputs": [],
      "name": "baseTokenURI",
      "outputs": [
        {
          "internalType": "string",
          "name": "",
          "type": "string"
        }
      ],
      "stateMutability": "view",
      "type": "function"
    },
    {
      "inputs": [
        {
          "internalType": "uint256",
          "name": "tokenId",
          "type": "uint256"
        }
      ],
      "name": "burn",
      "outputs": [],
      "stateMutability": "nonpayable",
      "type": "function"
    },
    {
      "inputs": [
        {
          "internalType": "address",
          "name": "newAdm",
          "type": "address"
        }
      ],
      "name": "changeAdmin",
      "outputs": [],
      "stateMutability": "nonpayable",
      "type": "function"
    },
    {
      "inputs": [
        {
          "internalType": "uint256",
          "name": "_id",
          "type": "uint256"
        }
      ],
      "name": "exists",
      "outputs": [
        {
          "internalType": "bool",
          "name": "",
          "type": "bool"
        }
      ],
      "stateMutability": "view",
      "type": "function"
    },
    {
      "inputs": [
        {
          "internalType": "uint256",
          "name": "projectId",
          "type": "uint256"
        },
        {
          "internalType": "uint256",
          "name": "amount",
          "type": "uint256"
        }
      ],
      "name": "generateSeeds",
      "outputs": [],
      "stateMutability": "nonpayable",
      "type": "function"
    },
    {
      "inputs": [
        {
          "internalType": "uint256",
          "name": "tokenId",
          "type": "uint256"
        }
      ],
      "name": "getApproved",
      "outputs": [
        {
          "internalType": "address",
          "name": "",
          "type": "address"
        }
      ],
      "stateMutability": "view",
      "type": "function"
    },
    {
      "inputs": [
        {
          "internalType": "bytes32",
          "name": "role",
          "type": "bytes32"
        }
      ],
      "name": "getRoleAdmin",
      "outputs": [
        {
          "internalType": "bytes32",
          "name": "",
          "type": "bytes32"
        }
      ],
      "stateMutability": "view",
      "type": "function"
    },
    {
      "inputs": [
        {
          "internalType": "bytes32",
          "name": "role",
          "type": "bytes32"
        },
        {
          "internalType": "uint256",
          "name": "index",
          "type": "uint256"
        }
      ],
      "name": "getRoleMember",
      "outputs": [
        {
          "internalType": "address",
          "name": "",
          "type": "address"
        }
      ],
      "stateMutability": "view",
      "type": "function"
    },
    {
      "inputs": [
        {
          "internalType": "bytes32",
          "name": "role",
          "type": "bytes32"
        }
      ],
      "name": "getRoleMemberCount",
      "outputs": [
        {
          "internalType": "uint256",
          "name": "",
          "type": "uint256"
        }
      ],
      "stateMutability": "view",
      "type": "function"
    },
    {
      "inputs": [
        {
          "internalType": "bytes32",
          "name": "role",
          "type": "bytes32"
        },
        {
          "internalType": "address",
          "name": "account",
          "type": "address"
        }
      ],
      "name": "grantRole",
      "outputs": [],
      "stateMutability": "nonpayable",
      "type": "function"
    },
    {
      "inputs": [
        {
          "internalType": "bytes32",
          "name": "role",
          "type": "bytes32"
        },
        {
          "internalType": "address",
          "name": "account",
          "type": "address"
        }
      ],
      "name": "hasRole",
      "outputs": [
        {
          "internalType": "bool",
          "name": "",
          "type": "bool"
        }
      ],
      "stateMutability": "view",
      "type": "function"
    },
    {
      "inputs": [
        {
          "internalType": "string",
          "name": "name",
          "type": "string"
        },
        {
          "internalType": "string",
          "name": "symbol",
          "type": "string"
        },
        {
          "internalType": "string",
          "name": "baseTokenURI",
          "type": "string"
        }
      ],
      "name": "initialize",
      "outputs": [],
      "stateMutability": "nonpayable",
      "type": "function"
    },
    {
      "inputs": [
        {
          "internalType": "string",
          "name": "name",
          "type": "string"
        },
        {
          "internalType": "string",
          "name": "symbol",
          "type": "string"
        },
        {
          "internalType": "string",
          "name": "baseUri",
          "type": "string"
        },
        {
          "internalType": "address",
          "name": "admin",
          "type": "address"
        },
        {
          "internalType": "address",
          "name": "paramsAddress",
          "type": "address"
        }
      ],
      "name": "initialize",
      "outputs": [],
      "stateMutability": "nonpayable",
      "type": "function"
    },
    {
      "inputs": [
        {
          "internalType": "address",
          "name": "owner",
          "type": "address"
        },
        {
          "internalType": "address",
          "name": "operator",
          "type": "address"
        }
      ],
      "name": "isApprovedForAll",
      "outputs": [
        {
          "internalType": "bool",
          "name": "",
          "type": "bool"
        }
      ],
      "stateMutability": "view",
      "type": "function"
    },
    {
      "inputs": [
        {
          "internalType": "address",
          "name": "operator",
          "type": "address"
        },
        {
          "internalType": "bytes32",
          "name": "seed",
          "type": "bytes32"
        },
        {
          "internalType": "uint256",
          "name": "projectId",
          "type": "uint256"
        }
      ],
      "name": "isApprovedOrOwnerForSeed",
      "outputs": [
        {
          "internalType": "bool",
          "name": "",
          "type": "bool"
        }
      ],
      "stateMutability": "view",
      "type": "function"
    },
    {
      "inputs": [
        {
          "internalType": "address",
          "name": "to",
          "type": "address"
        }
      ],
      "name": "mint",
      "outputs": [],
      "stateMutability": "nonpayable",
      "type": "function"
    },
    {
      "inputs": [
        {
          "components": [
            {
              "internalType": "uint256",
              "name": "_fromProjectId",
              "type": "uint256"
            },
            {
              "internalType": "address",
              "name": "_mintTo",
              "type": "address"
            },
            {
              "internalType": "string[]",
              "name": "_uriBatch",
              "type": "string[]"
            },
            {
              "components": [
                {
                  "internalType": "bytes32",
                  "name": "_seed",
                  "type": "bytes32"
                },
                {
                  "components": [
                    {
                      "internalType": "uint8",
                      "name": "_typeValue",
                      "type": "uint8"
                    },
                    {
                      "internalType": "uint256",
                      "name": "_max",
                      "type": "uint256"
                    },
                    {
                      "internalType": "uint256",
                      "name": "_min",
                      "type": "uint256"
                    },
                    {
                      "internalType": "uint8",
                      "name": "_decimal",
                      "type": "uint8"
                    },
                    {
                      "internalType": "string[]",
                      "name": "_availableValues",
                      "type": "string[]"
                    },
                    {
                      "internalType": "uint256",
                      "name": "_value",
                      "type": "uint256"
                    },
                    {
                      "internalType": "bool",
                      "name": "_editable",
                      "type": "bool"
                    }
                  ],
                  "internalType": "struct BoilerplateParam.ParamTemplate[]",
                  "name": "_params",
                  "type": "tuple[]"
                }
              ],
              "internalType": "struct BoilerplateParam.ParamsOfProject[]",
              "name": "_paramsBatch",
              "type": "tuple[]"
            }
          ],
          "internalType": "struct IGenerativeBoilerplateNFT.MintRequest",
          "name": "mintBatch",
          "type": "tuple"
        }
      ],
      "name": "mintBatchUniqueNFT",
      "outputs": [],
      "stateMutability": "payable",
      "type": "function"
    },
    {
      "inputs": [
        {
          "internalType": "address",
          "name": "to",
          "type": "address"
        },
        {
          "internalType": "string",
          "name": "projectName",
          "type": "string"
        },
        {
          "internalType": "uint256",
          "name": "maxSupply",
          "type": "uint256"
        },
        {
          "internalType": "string",
          "name": "script",
          "type": "string"
        },
        {
          "internalType": "uint32",
          "name": "scriptType",
          "type": "uint32"
        },
        {
          "internalType": "bool",
          "name": "clientSeed",
          "type": "bool"
        },
        {
          "internalType": "string",
          "name": "uri",
          "type": "string"
        },
        {
          "internalType": "uint256",
          "name": "fee",
          "type": "uint256"
        },
        {
          "internalType": "address",
          "name": "feeAdd",
          "type": "address"
        },
        {
          "components": [
            {
              "internalType": "bytes32",
              "name": "_seed",
              "type": "bytes32"
            },
            {
              "components": [
                {
                  "internalType": "uint8",
                  "name": "_typeValue",
                  "type": "uint8"
                },
                {
                  "internalType": "uint256",
                  "name": "_max",
                  "type": "uint256"
                },
                {
                  "internalType": "uint256",
                  "name": "_min",
                  "type": "uint256"
                },
                {
                  "internalType": "uint8",
                  "name": "_decimal",
                  "type": "uint8"
                },
                {
                  "internalType": "string[]",
                  "name": "_availableValues",
                  "type": "string[]"
                },
                {
                  "internalType": "uint256",
                  "name": "_value",
                  "type": "uint256"
                },
                {
                  "internalType": "bool",
                  "name": "_editable",
                  "type": "bool"
                }
              ],
              "internalType": "struct BoilerplateParam.ParamTemplate[]",
              "name": "_params",
              "type": "tuple[]"
            }
          ],
          "internalType": "struct BoilerplateParam.ParamsOfProject",
          "name": "paramsTemplate",
          "type": "tuple"
        }
      ],
      "name": "mintProject",
      "outputs": [
        {
          "internalType": "uint256",
          "name": "",
          "type": "uint256"
        }
      ],
      "stateMutability": "payable",
      "type": "function"
    },
    {
      "inputs": [],
      "name": "name",
      "outputs": [
        {
          "internalType": "string",
          "name": "",
          "type": "string"
        }
      ],
      "stateMutability": "view",
      "type": "function"
    },
    {
      "inputs": [
        {
          "internalType": "uint256",
          "name": "tokenId",
          "type": "uint256"
        }
      ],
      "name": "ownerOf",
      "outputs": [
        {
          "internalType": "address",
          "name": "",
          "type": "address"
        }
      ],
      "stateMutability": "view",
      "type": "function"
    },
    {
      "inputs": [
        {
          "internalType": "bytes32",
          "name": "seed",
          "type": "bytes32"
        },
        {
          "internalType": "uint256",
          "name": "projectId",
          "type": "uint256"
        }
      ],
      "name": "ownerOfSeed",
      "outputs": [
        {
          "internalType": "address",
          "name": "",
          "type": "address"
        }
      ],
      "stateMutability": "view",
      "type": "function"
    },
    {
      "inputs": [],
      "name": "pause",
      "outputs": [],
      "stateMutability": "nonpayable",
      "type": "function"
    },
    {
      "inputs": [],
      "name": "paused",
      "outputs": [
        {
          "internalType": "bool",
          "name": "",
          "type": "bool"
        }
      ],
      "stateMutability": "view",
      "type": "function"
    },
    {
      "inputs": [
        {
          "internalType": "uint256",
          "name": "projectId",
          "type": "uint256"
        },
        {
          "internalType": "bytes32[]",
          "name": "seeds",
          "type": "bytes32[]"
        }
      ],
      "name": "registerSeeds",
      "outputs": [],
      "stateMutability": "nonpayable",
      "type": "function"
    },
    {
      "inputs": [
        {
          "internalType": "bytes32",
          "name": "role",
          "type": "bytes32"
        },
        {
          "internalType": "address",
          "name": "account",
          "type": "address"
        }
      ],
      "name": "renounceRole",
      "outputs": [],
      "stateMutability": "nonpayable",
      "type": "function"
    },
    {
      "inputs": [
        {
          "internalType": "bytes32",
          "name": "role",
          "type": "bytes32"
        },
        {
          "internalType": "address",
          "name": "account",
          "type": "address"
        }
      ],
      "name": "revokeRole",
      "outputs": [],
      "stateMutability": "nonpayable",
      "type": "function"
    },
    {
      "inputs": [
        {
          "internalType": "uint256",
          "name": "",
          "type": "uint256"
        }
      ],
      "name": "royalties",
      "outputs": [
        {
          "internalType": "address",
          "name": "recipient",
          "type": "address"
        },
        {
          "internalType": "uint24",
          "name": "amount",
          "type": "uint24"
        },
        {
          "internalType": "bool",
          "name": "isValue",
          "type": "bool"
        }
      ],
      "stateMutability": "view",
      "type": "function"
    },
    {
      "inputs": [
        {
          "internalType": "uint256",
          "name": "_tokenId",
          "type": "uint256"
        },
        {
          "internalType": "uint256",
          "name": "_salePrice",
          "type": "uint256"
        }
      ],
      "name": "royaltyInfo",
      "outputs": [
        {
          "internalType": "address",
          "name": "receiver",
          "type": "address"
        },
        {
          "internalType": "uint256",
          "name": "royaltyAmount",
          "type": "uint256"
        }
      ],
      "stateMutability": "view",
      "type": "function"
    },
    {
      "inputs": [
        {
          "internalType": "address",
          "name": "from",
          "type": "address"
        },
        {
          "internalType": "address",
          "name": "to",
          "type": "address"
        },
        {
          "internalType": "uint256",
          "name": "tokenId",
          "type": "uint256"
        }
      ],
      "name": "safeTransferFrom",
      "outputs": [],
      "stateMutability": "nonpayable",
      "type": "function"
    },
    {
      "inputs": [
        {
          "internalType": "address",
          "name": "from",
          "type": "address"
        },
        {
          "internalType": "address",
          "name": "to",
          "type": "address"
        },
        {
          "internalType": "uint256",
          "name": "tokenId",
          "type": "uint256"
        },
        {
          "internalType": "bytes",
          "name": "data",
          "type": "bytes"
        }
      ],
      "name": "safeTransferFrom",
      "outputs": [],
      "stateMutability": "nonpayable",
      "type": "function"
    },
    {
      "inputs": [
        {
          "internalType": "address",
          "name": "operator",
          "type": "address"
        },
        {
          "internalType": "bool",
          "name": "approved",
          "type": "bool"
        }
      ],
      "name": "setApprovalForAll",
      "outputs": [],
      "stateMutability": "nonpayable",
      "type": "function"
    },
    {
      "inputs": [
        {
          "internalType": "address",
          "name": "_to",
          "type": "address"
        },
        {
          "internalType": "uint256[]",
          "name": "_ids",
          "type": "uint256[]"
        }
      ],
      "name": "setCreator",
      "outputs": [],
      "stateMutability": "nonpayable",
      "type": "function"
    },
    {
      "inputs": [
        {
          "internalType": "uint256",
          "name": "_id",
          "type": "uint256"
        },
        {
          "internalType": "string",
          "name": "_newURI",
          "type": "string"
        }
      ],
      "name": "setCustomURI",
      "outputs": [],
      "stateMutability": "nonpayable",
      "type": "function"
    },
    {
      "inputs": [
        {
          "internalType": "uint256",
          "name": "_tokenId",
          "type": "uint256"
        },
        {
          "internalType": "address",
          "name": "_recipient",
          "type": "address"
        },
        {
          "internalType": "uint256",
          "name": "_value",
          "type": "uint256"
        }
      ],
      "name": "setTokenRoyalty",
      "outputs": [],
      "stateMutability": "nonpayable",
      "type": "function"
    },
    {
      "inputs": [
        {
          "internalType": "bytes4",
          "name": "interfaceId",
          "type": "bytes4"
        }
      ],
      "name": "supportsInterface",
      "outputs": [
        {
          "internalType": "bool",
          "name": "",
          "type": "bool"
        }
      ],
      "stateMutability": "view",
      "type": "function"
    },
    {
      "inputs": [],
      "name": "symbol",
      "outputs": [
        {
          "internalType": "string",
          "name": "",
          "type": "string"
        }
      ],
      "stateMutability": "view",
      "type": "function"
    },
    {
      "inputs": [
        {
          "internalType": "uint256",
          "name": "index",
          "type": "uint256"
        }
      ],
      "name": "tokenByIndex",
      "outputs": [
        {
          "internalType": "uint256",
          "name": "",
          "type": "uint256"
        }
      ],
      "stateMutability": "view",
      "type": "function"
    },
    {
      "inputs": [
        {
          "internalType": "address",
          "name": "owner",
          "type": "address"
        },
        {
          "internalType": "uint256",
          "name": "index",
          "type": "uint256"
        }
      ],
      "name": "tokenOfOwnerByIndex",
      "outputs": [
        {
          "internalType": "uint256",
          "name": "",
          "type": "uint256"
        }
      ],
      "stateMutability": "view",
      "type": "function"
    },
    {
      "inputs": [
        {
          "internalType": "uint256",
          "name": "_tokenId",
          "type": "uint256"
        }
      ],
      "name": "tokenURI",
      "outputs": [
        {
          "internalType": "string",
          "name": "",
          "type": "string"
        }
      ],
      "stateMutability": "view",
      "type": "function"
    },
    {
      "inputs": [],
      "name": "totalSupply",
      "outputs": [
        {
          "internalType": "uint256",
          "name": "",
          "type": "uint256"
        }
      ],
      "stateMutability": "view",
      "type": "function"
    },
    {
      "inputs": [
        {
          "internalType": "address",
          "name": "from",
          "type": "address"
        },
        {
          "internalType": "address",
          "name": "to",
          "type": "address"
        },
        {
          "internalType": "uint256",
          "name": "tokenId",
          "type": "uint256"
        }
      ],
      "name": "transferFrom",
      "outputs": [],
      "stateMutability": "nonpayable",
      "type": "function"
    },
    {
      "inputs": [
        {
          "internalType": "address",
          "name": "from",
          "type": "address"
        },
        {
          "internalType": "address",
          "name": "to",
          "type": "address"
        },
        {
          "internalType": "bytes32",
          "name": "seed",
          "type": "bytes32"
        },
        {
          "internalType": "uint256",
          "name": "projectId",
          "type": "uint256"
        }
      ],
      "name": "transferSeed",
      "outputs": [],
      "stateMutability": "nonpayable",
      "type": "function"
    },
    {
      "inputs": [],
      "name": "unpause",
      "outputs": [],
      "stateMutability": "nonpayable",
      "type": "function"
    },
    {
      "inputs": [
        {
          "internalType": "address",
          "name": "receiver",
          "type": "address"
        },
        {
          "internalType": "address",
          "name": "erc20Addr",
          "type": "address"
        },
        {
          "internalType": "uint256",
          "name": "amount",
          "type": "uint256"
        }
      ],
      "name": "withdraw",
      "outputs": [],
      "stateMutability": "nonpayable",
      "type": "function"
    }
  ],
  "bytecode": "0x608060405234801561001057600080fd5b50615fdd80620000216000396000f3fe6080604052600436106103355760003560e01c80636e4d0fe6116101ab578063a6487c53116100f7578063d539139311610095578063d6d0faee1161006f578063d6d0faee14610a2d578063d9caed1214610a4d578063e63ab1e914610a6d578063e985e9c514610aa157600080fd5b8063d5391393146109c4578063d547741f146109f8578063d547cfb714610a1857600080fd5b8063b88d4fde116100d1578063b88d4fde14610944578063c87b56dd14610964578063ca15c87314610984578063d2a6b51a146109a457600080fd5b8063a6487c53146108e3578063adfc7dae14610903578063b0f4cf931461092457600080fd5b80638f2839701161016457806395d89b411161013e57806395d89b41146108795780639713c8071461088e578063a217fddf146108ae578063a22cb465146108c357600080fd5b80638f283970146108195780639010d07c1461083957806391d148541461085957600080fd5b80636e4d0fe61461071157806370a0823114610731578063716013fe146107515780637f77f57414610764578063821f9dc9146107df5780638456cb59146105b757600080fd5b806336568abe116102855780634f558e79116102235780636006e9ef116101fd5780636006e9ef1461067d57806362fe4e4a146106905780636352211e146106d65780636a627842146106f657600080fd5b80634f558e79146106245780634f6ccce7146106445780635c975abb1461066457600080fd5b80633f4ba83a1161025f5780633f4ba83a146105b757806342842e0e146105c657806342966c68146105e6578063463981391461060457600080fd5b806336568abe1461053e57806336bd9e631461055e5780633adf80b41461059757600080fd5b806318160ddd116102f2578063248a9ca3116102cc578063248a9ca31461048f5780632a55205a146104bf5780632f2ff15d146104fe5780632f745c591461051e57600080fd5b806318160ddd1461042c578063189c168d1461044f57806323b872dd1461046f57600080fd5b806301bc45c91461033a57806301ffc9a71461037857806306fdde03146103a8578063081812fc146103ca578063095ea7b3146103ea5780631697eccf1461040c575b600080fd5b34801561034657600080fd5b506102275461035b906001600160a01b031681565b6040516001600160a01b0390911681526020015b60405180910390f35b34801561038457600080fd5b5061039861039336600461478e565b610aea565b604051901515815260200161036f565b3480156103b457600080fd5b506103bd610afb565b60405161036f9190614803565b3480156103d657600080fd5b5061035b6103e5366004614816565b610b8d565b3480156103f657600080fd5b5061040a61040536600461484f565b610bb4565b005b34801561041857600080fd5b5061035b61042736600461487b565b610ccf565b34801561043857600080fd5b50610441610d0b565b60405190815260200161036f565b34801561045b57600080fd5b5061040a61046a366004614972565b610d1c565b34801561047b57600080fd5b5061040a61048a366004614a13565b610e2a565b34801561049b57600080fd5b506104416104aa366004614816565b60009081526065602052604090206001015490565b3480156104cb57600080fd5b506104df6104da36600461487b565b610e5b565b604080516001600160a01b03909316835260208301919091520161036f565b34801561050a57600080fd5b5061040a610519366004614a54565b610f29565b34801561052a57600080fd5b5061044161053936600461484f565b610f4e565b34801561054a57600080fd5b5061040a610559366004614a54565b610fe4565b34801561056a57600080fd5b50610441610579366004614a84565b61022c60209081526000928352604080842090915290825290205481565b3480156105a357600080fd5b5061040a6105b2366004614b29565b611062565b3480156105c357600080fd5b50005b3480156105d257600080fd5b5061040a6105e1366004614a13565b6110e9565b3480156105f257600080fd5b5061040a610601366004614816565b50565b34801561061057600080fd5b5061040a61061f36600461487b565b611104565b34801561063057600080fd5b5061039861063f366004614816565b611261565b34801561065057600080fd5b5061044161065f366004614816565b61126c565b34801561067057600080fd5b5061015f5460ff16610398565b61040a61068b366004614c22565b6112ff565b34801561069c57600080fd5b5061040a6106ab36600461484f565b33600090815261022c602090815260408083206001600160a01b039590951683529390529190912055565b3480156106e257600080fd5b5061035b6106f1366004614816565b611e6c565b34801561070257600080fd5b5061040a610601366004614ee5565b34801561071d57600080fd5b5061040a61072c366004614f02565b611ecc565b34801561073d57600080fd5b5061044161074c366004614ee5565b611f7a565b61044161075f366004614f74565b612000565b34801561077057600080fd5b506107b461077f366004614816565b61022e602052600090815260409020546001600160a01b03811690600160a01b810462ffffff1690600160b81b900460ff1683565b604080516001600160a01b03909416845262ffffff909216602084015215159082015260600161036f565b3480156107eb57600080fd5b506107ff6107fa366004614816565b612600565b60405161036f9e9d9c9b9a9998979695949392919061518c565b34801561082557600080fd5b5061040a610834366004614ee5565b6129c5565b34801561084557600080fd5b5061035b61085436600461487b565b612a97565b34801561086557600080fd5b50610398610874366004614a54565b612aaf565b34801561088557600080fd5b506103bd612ada565b34801561089a57600080fd5b5061040a6108a9366004615259565b612ae9565b3480156108ba57600080fd5b50610441600081565b3480156108cf57600080fd5b5061040a6108de366004615280565b612c3a565b3480156108ef57600080fd5b5061040a6108fe3660046152ae565b612c45565b34801561090f57600080fd5b506102285461035b906001600160a01b031681565b34801561093057600080fd5b5061039861093f366004615335565b612d11565b34801561095057600080fd5b5061040a61095f36600461536a565b612d82565b34801561097057600080fd5b506103bd61097f366004614816565b612db4565b34801561099057600080fd5b5061044161099f366004614816565b612ebd565b3480156109b057600080fd5b5061040a6109bf3660046153e9565b612ed4565b3480156109d057600080fd5b506104417f9f2df0fed2c77648de5860a4cc508cd0818c85b8b8a1ab4ceeef8d981c8956a681565b348015610a0457600080fd5b5061040a610a13366004614a54565b612f57565b348015610a2457600080fd5b506103bd612f7c565b348015610a3957600080fd5b5061040a610a48366004615423565b612f86565b348015610a5957600080fd5b5061040a610a68366004614a13565b613123565b348015610a7957600080fd5b506104417f65d7a28e3265b37a6474929f336521b332c1681b933f6cb9f3376673440d862a81565b348015610aad57600080fd5b50610398610abc366004614a84565b6001600160a01b03918216600090815260ce6020908152604080832093909416825291909152205460ff1690565b6000610af5826132f3565b92915050565b606060c98054610b0a906154d2565b80601f0160208091040260200160405190810160405280929190818152602001828054610b36906154d2565b8015610b835780601f10610b5857610100808354040283529160200191610b83565b820191906000526020600020905b815481529060010190602001808311610b6657829003601f168201915b5050505050905090565b6000610b9882613318565b50600090815260cd60205260409020546001600160a01b031690565b6000610bbf82611e6c565b9050806001600160a01b0316836001600160a01b03161415610c325760405162461bcd60e51b815260206004820152602160248201527f4552433732313a20617070726f76616c20746f2063757272656e74206f776e656044820152603960f91b60648201526084015b60405180910390fd5b336001600160a01b0382161480610c4e5750610c4e8133610abc565b610cc05760405162461bcd60e51b815260206004820152603e60248201527f4552433732313a20617070726f76652063616c6c6572206973206e6f7420746f60448201527f6b656e206f776e6572206e6f7220617070726f76656420666f7220616c6c00006064820152608401610c29565b610cca8383613368565b505050565b600082815261022b602090815260408083208484529091528120546001600160a01b031680610d04578360601c915050610af5565b9392505050565b6000610d176102295490565b905090565b600082815261022a602052604090206008015460ff168015610d425750610d42826133d6565b610d4b57600080fd5b60005b8151811015610cca5760006001600160a01b031661022b6000848481518110610d7957610d79615507565b602090810291909101810151825281810192909252604090810160009081208782529092529020546001600160a01b031614610db457600080fd5b3361022b6000848481518110610dcc57610dcc615507565b60200260200101518152602001908152602001600020600085815260200190815260200160002060006101000a8154816001600160a01b0302191690836001600160a01b031602179055508080610e2290615533565b915050610d4e565b610e3433826133f3565b610e505760405162461bcd60e51b8152600401610c299061554e565b610cca838383613472565b600082815261022e60209081526040808320815160608101835290546001600160a01b0381168252600160a01b810462ffffff1693820193909352600160b81b90920460ff1615801591830191909152829190610ee0578051602082015190935061271090610ecf9062ffffff168661559c565b610ed991906155d1565b9150610f21565b600085815261022a6020526040902060050154600160201b90046001600160a01b03169250612710610f14856101f461559c565b610f1e91906155d1565b91505b509250929050565b600082815260656020526040902060010154610f4481613619565b610cca8383613623565b6000610f5983611f7a565b8210610fbb5760405162461bcd60e51b815260206004820152602b60248201527f455243373231456e756d657261626c653a206f776e657220696e646578206f7560448201526a74206f6620626f756e647360a81b6064820152608401610c29565b506001600160a01b0391909116600090815260fb60209081526040808320938352929052205490565b6001600160a01b03811633146110545760405162461bcd60e51b815260206004820152602f60248201527f416363657373436f6e74726f6c3a2063616e206f6e6c792072656e6f756e636560448201526e103937b632b9903337b91039b2b63360891b6064820152608401610c29565b61105e8282613645565b5050565b600082815261022a6020908152604091829020600501548251808401909352600383526218981960e91b91830191909152600160201b90046001600160a01b031633146110c25760405162461bcd60e51b8152600401610c299190614803565b50600082815261022a602090815260409091208251610cca926006909201918401906146df565b610cca83838360405180602001604052806000815250612d82565b600082815261022a602052604090206008015460ff1615801561112b575061112b826133d6565b61113457600080fd5b600080826001600160401b0381111561114f5761114f61489d565b604051908082528060200260200182016040528015611178578160200160208202803683370190505b50905060005b8381101561121f57611191338683613667565b600081815261022b602090815260408083208984529091529020549093506001600160a01b0316156111c257600080fd5b600083815261022b60209081526040808320888452909152902080546001600160a01b031916331790558151839083908390811061120257611202615507565b60209081029190910101528061121781615533565b91505061117e565b507feac055ed8b84f6ed7b96c917e1a500965c90467998c41630ebabcc5bc99b306b338583604051611253939291906155e5565b60405180910390a150505050565b6000610af5826133d6565b600061127760fd5490565b82106112da5760405162461bcd60e51b815260206004820152602c60248201527f455243373231456e756d657261626c653a20676c6f62616c20696e646578206f60448201526b7574206f6620626f756e647360a01b6064820152608401610c29565b60fd82815481106112ed576112ed615507565b90600052602060002001549050919050565b60026101f55414156113235760405162461bcd60e51b8152600401610c2990615642565b60026101f58190558151600090815261022a6020908152604080832081516101c0810183528154815260018201546001600160a01b0316938101939093529384015490820152600383015460608201526004830180549293919260808401919061138c906154d2565b80601f01602080910402602001604051908101604052809291908181526020018280546113b8906154d2565b80156114055780601f106113da57610100808354040283529160200191611405565b820191906000526020600020905b8154815290600101906020018083116113e857829003601f168201915b5050509183525050600582015463ffffffff81166020830152600160201b90046001600160a01b03166040820152600682018054606090920191611448906154d2565b80601f0160208091040260200160405190810160405280929190818152602001828054611474906154d2565b80156114c15780601f10611496576101008083540402835291602001916114c1565b820191906000526020600020905b8154815290600101906020018083116114a457829003601f168201915b505050505081526020016007820180546114da906154d2565b80601f0160208091040260200160405190810160405280929190818152602001828054611506906154d2565b80156115535780601f1061152857610100808354040283529160200191611553565b820191906000526020600020905b81548152906001019060200180831161153657829003601f168201915b5050509183525050600882015460ff1615156020808301919091526040805180820182526009850180548252600a86018054845181870281018701865281815294909601959294919385830193909260009084015b828210156116f757600084815260208082206040805160e08101825260078702909201805460ff9081168452600182015484860152600282015484840152600382015416606084015260048101805483518187028101870190945280845293959194608087019491929084015b828210156116c1578382906000526020600020018054611634906154d2565b80601f0160208091040260200160405190810160405280929190818152602001828054611660906154d2565b80156116ad5780601f10611682576101008083540402835291602001916116ad565b820191906000526020600020905b81548152906001019060200180831161169057829003601f168201915b505050505081526020019060010190611615565b50505090825250600582015460208083019190915260069092015460ff16151560409091015290825260019290920191016115a8565b505050915250508152600b8201546001600160a01b03166020820152600c820154604080830191909152600d90920154606090910152830151519091501580159061174b5750816060015151826040015151145b604051806040016040528060038152602001620c8c0d60ea1b815250906117855760405162461bcd60e51b8152600401610c299190614803565b50604081015115806117af5750806040015182604001515182606001516117ac9190615679565b11155b6040518060400160405280600381526020016232303360e81b815250906117e95760405162461bcd60e51b8152600401610c299190614803565b506101808101511561184a57815161180090611e6c565b6001600160a01b0316336001600160a01b03161461184a57816040015151816101a0018181516118309190615679565b9052506101808101516101a0820151111561184a57600080fd5b80518015611b18578251339061185f90611e6c565b6001600160a01b031614611b1857610228546040840151516001600160a01b039091169061188d908361559c565b604080518082018252600c81526b4d494e545f4e46545f46454560a01b60208201529051636d12dce160e01b81529193506000916001600160a01b03841691636d12dce1916118df9190600401614803565b602060405180830381865afa1580156118fc573d6000803e3d6000fd5b505050506040513d601f19601f820116820180604052508101906119209190615691565b90508061192c57506101f45b60208401516001600160a01b03166119d9578234101561194b57600080fd5b600061195a8660000151611e6c565b6001600160a01b0316612710611970848761559c565b61197a91906155d1565b61198490866156aa565b604051600081818185875af1925050503d80600081146119c0576040519150601f19603f3d011682016040523d82523d6000602084013e6119c5565b606091505b50509050806119d357600080fd5b50611b15565b60208401516040516323b872dd60e01b8152336004820152306024820152604481018590526001600160a01b038216906323b872dd906064016020604051808303816000875af1158015611a31573d6000803e3d6000fd5b505050506040513d601f19601f82011682018060405250810190611a5591906156c1565b611a5e57600080fd5b806001600160a01b031663a9059cbb611a7a8860000151611e6c565b612710611a87868961559c565b611a9191906155d1565b611a9b90886156aa565b6040516001600160e01b031960e085901b1681526001600160a01b03909216600483015260248201526044016020604051808303816000875af1158015611ae6573d6000803e3d6000fd5b505050506040513d601f19601f82011682018060405250810190611b0a91906156c1565b611b1357600080fd5b505b50505b8251600090815261022a60205260408120600b01546001600160a01b0316905b846060015151811015611e265784606001518181518110611b5b57611b5b615507565b602090810291909101810151810151518651600090815261022a8352604090819020600a0154815180830190925260038252620c8c0d60ea1b938201939093529114611bba5760405162461bcd60e51b8152600401610c299190614803565b50600085606001518281518110611bd357611bd3615507565b60209081029190910181015151600081815261022d835260408082208a518352845290819020548151808301909252600382526232303560e81b938201939093529092509015611c365760405162461bcd60e51b8152600401610c299190614803565b508551600090815261022a602052604090206008015460ff16611cac5785513390611c62908390610ccf565b6001600160a01b0316146040518060400160405280600381526020016232303560e81b81525090611ca65760405162461bcd60e51b8152600401610c299190614803565b50611d07565b600081815261022b60209081526040808320895184529091529020546001600160a01b031615611cdb57600080fd5b600081815261022b6020908152604080832089518452909152902080546001600160a01b031916331790555b826001600160a01b03166381aa7929876020015161022760009054906101000a90046001600160a01b031689604001518681518110611d4857611d48615507565b60200260200101518a606001518781518110611d6657611d66615507565b60200260200101518a61012001516040518663ffffffff1660e01b8152600401611d949594939291906156de565b600060405180830381600087803b158015611dae57600080fd5b505af1158015611dc2573d6000803e3d6000fd5b50505050600185606001818151611dd99190615679565b9052506060850180518751600090815261022a6020908152604080832060030193909355925193815261022d83528181208951825290925290205580611e1e81615533565b915050611b38565b507f67175103d209cf669be17e253aba378479477b5a1ef3b1e9eaedce52f0ebab543385604051611e58929190615731565b60405180910390a1505060016101f5555050565b600081815260cb60205260408120546001600160a01b031680610af55760405162461bcd60e51b8152602060048201526018602482015277115490cdcc8c4e881a5b9d985b1a59081d1bdad95b88125160421b6044820152606401610c29565b600082815261022d6020908152604080832084845290915290205415801590611efb5750611efb338383612d11565b8015611f225750836001600160a01b0316611f168383610ccf565b6001600160a01b031614155b8015611f3657506001600160a01b03831615155b611f3f57600080fd5b600091825261022b60209081526040808420928452919052902080546001600160a01b0319166001600160a01b039290921691909117905550565b60006001600160a01b038216611fe45760405162461bcd60e51b815260206004820152602960248201527f4552433732313a2061646472657373207a65726f206973206e6f7420612076616044820152683634b21037bbb732b960b91b6064820152608401610c29565b506001600160a01b0316600090815260cc602052604090205490565b600060026101f55414156120265760405162461bcd60e51b8152600401610c2990615642565b60026101f55589516040805180820190915260038082526203230360ec1b60208301529091116120695760405162461bcd60e51b8152600401610c299190614803565b5061207961022980546001019055565b60006120856102295490565b9050612090816133d6565b156040518060400160405280600381526020016219181960e91b815250906120cb5760405162461bcd60e51b8152600401610c299190614803565b5061022854610227546001600160a01b03918216911633146122ba5760408051808201825260128152714352454154455f50524f4a4543545f46454560701b60208201529051636d12dce160e01b81526000916001600160a01b03841691636d12dce19161213b91600401614803565b602060405180830381865afa158015612158573d6000803e3d6000fd5b505050506040513d601f19601f8201168201806040525081019061217c9190615691565b905080156122b85760408051808201825260098152682322a2afaa27a5a2a760b91b6020820152905163bf40fac160e01b81526000916001600160a01b0385169163bf40fac1916121cf91600401614803565b602060405180830381865afa1580156121ec573d6000803e3d6000fd5b505050506040513d601f19601f8201168201806040525081019061221091906157cd565b90506001600160a01b038116156122a9576040516323b872dd60e01b81523360048201523060248201526044810183905281906001600160a01b038216906323b872dd906064016020604051808303816000875af1158015612276573d6000803e3d6000fd5b505050506040513d601f19601f8201168201806040525081019061229a91906156c1565b6122a357600080fd5b506122b6565b813410156122b657600080fd5b505b505b8651156122e957600082815261022a6020908152604090912088516122e7926006909201918a01906146df565b505b600082815261022a602090815260409091208d5161230f926007909201918f01906146df565b5061022754600083815261022a60205260409020600581018054640100000000600160c01b0319166001600160a01b03938416600160201b02179055600281018d90558781556001810180546001600160a01b03191692881692909217909155849060090161237e8282615b9b565b5050600082815261022a602090815260409091208b516123a6926004909201918d01906146df565b50600082815261022a6020526040902060058101805463ffffffff191663ffffffff8c16179055600801805460ff19168915151790556123e68d836136c7565b604080518082018252601781527f47454e455241544956455f4e46545f54454d504c4154450000000000000000006020820152905163bf40fac160e01b8152600091612490916001600160a01b0385169163bf40fac19161244a9190600401614803565b602060405180830381865afa158015612467573d6000803e3d6000fd5b505050506040513d601f19601f8201168201806040525081019061248b91906157cd565b6136e1565b600084815261022a60205260409020600701805491925082916001600160a01b0383169163ae3dd095916125529060019060039084906124cf906154d2565b80601f01602080910402602001604051908101604052809291908181526020018280546124fb906154d2565b80156125485780601f1061251d57610100808354040283529160200191612548565b820191906000526020600020905b81548152906001019060200180831161252b57829003601f168201915b5050505050613779565b610227546040516001600160e01b031960e086901b1681526125869392916001600160a01b03169030908b90600401615cb9565b600060405180830381600087803b1580156125a057600080fd5b505af11580156125b4573d6000803e3d6000fd5b505050600085815261022a60205260409020600b0180546001600160a01b0319166001600160a01b039490941693909317909255505060016101f555509b9a5050505050505050505050565b61022a602052600090815260409020805460018201546002830154600384015460048501805494956001600160a01b039094169492939192612641906154d2565b80601f016020809104026020016040519081016040528092919081815260200182805461266d906154d2565b80156126ba5780601f1061268f576101008083540402835291602001916126ba565b820191906000526020600020905b81548152906001019060200180831161269d57829003601f168201915b505050506005830154600684018054939463ffffffff831694600160201b9093046001600160a01b03169350916126f0906154d2565b80601f016020809104026020016040519081016040528092919081815260200182805461271c906154d2565b80156127695780601f1061273e57610100808354040283529160200191612769565b820191906000526020600020905b81548152906001019060200180831161274c57829003601f168201915b50505050509080600701805461277e906154d2565b80601f01602080910402602001604051908101604052809291908181526020018280546127aa906154d2565b80156127f75780601f106127cc576101008083540402835291602001916127f7565b820191906000526020600020905b8154815290600101906020018083116127da57829003601f168201915b5050505050908060080160009054906101000a900460ff1690806009016040518060400160405290816000820154815260200160018201805480602002602001604051908101604052809291908181526020016000905b8282101561299d57600084815260208082206040805160e08101825260078702909201805460ff9081168452600182015484860152600282015484840152600382015416606084015260048101805483518187028101870190945280845293959194608087019491929084015b828210156129675783829060005260206000200180546128da906154d2565b80601f0160208091040260200160405190810160405280929190818152602001828054612906906154d2565b80156129535780601f1061292857610100808354040283529160200191612953565b820191906000526020600020905b81548152906001019060200180831161293657829003601f168201915b5050505050815260200190600101906128bb565b50505090825250600582015460208083019190915260069092015460ff161515604090910152908252600192909201910161284e565b50505091525050600b820154600c830154600d9093015491926001600160a01b03909116918e565b610227546001600160a01b0316336001600160a01b0316146040518060400160405280600381526020016231303160e81b81525090612a175760405162461bcd60e51b8152600401610c299190614803565b50612a23600033612aaf565b6040518060400160405280600381526020016231303160e81b81525090612a5d5760405162461bcd60e51b8152600401610c299190614803565b5061022780546001600160a01b038381166001600160a01b0319831681179093551690612a8c90600090610f29565b61105e600082612f57565b6000828152609760205260408120610d04908361385f565b60009182526065602090815260408084206001600160a01b0393909316845291905290205460ff1690565b606060ca8054610b0a906154d2565b610227546001600160a01b0316336001600160a01b0316146040518060400160405280600381526020016231303160e81b81525090612b3b5760405162461bcd60e51b8152600401610c299190614803565b50612b47600033612aaf565b6040518060400160405280600381526020016231303160e81b81525090612b815760405162461bcd60e51b8152600401610c299190614803565b5060408051808201909152600381526232303360e81b6020820152612710821115612bbf5760405162461bcd60e51b8152600401610c299190614803565b50604080516060810182526001600160a01b03938416815262ffffff92831660208083019182526001838501908152600097885261022e90915292909520905181549551925194166001600160b81b031990951694909417600160a01b91909216021760ff60b81b1916600160b81b91151591909102179055565b61105e33838361386b565b600054610100900460ff1615808015612c655750600054600160ff909116105b80612c7f5750303b158015612c7f575060005460ff166001145b612c9b5760405162461bcd60e51b8152600401610c2990615d7d565b6000805460ff191660011790558015612cbe576000805461ff0019166101001790555b612cc984848461393a565b8015612d0b576000805461ff0019169055604051600181527f7f26b83ff96e1f2b6a682f133852f6798a09c465da95921460cefb384740249890602001611253565b50505050565b6000836001600160a01b0316612d278484610ccf565b6001600160a01b03161415612d3e57506001610d04565b8161022c6000612d4e8686610ccf565b6001600160a01b03908116825260208083019390935260409182016000908120918916815292529020541490509392505050565b612d8c33836133f3565b612da85760405162461bcd60e51b8152600401610c299061554e565b612d0b8484848461397e565b600081815261022a6020526040812060060180546060929190612dd6906154d2565b90501115612e8057600082815261022a602052604090206006018054612dfb906154d2565b80601f0160208091040260200160405190810160405280929190818152602001828054612e27906154d2565b8015612e745780601f10612e4957610100808354040283529160200191612e74565b820191906000526020600020905b815481529060010190602001808311612e5757829003601f168201915b50505050509050919050565b612e88612f7c565b612e91836139b1565b604051602001612ea2929190615dcb565b6040516020818303038152906040529050919050565b919050565b6000818152609760205260408120610af590613aae565b60408051808201909152600381526203130360ec1b60208201526001600160a01b038316612f155760405162461bcd60e51b8152600401610c299190614803565b5060005b8151811015610cca57612f4583838381518110612f3857612f38615507565b6020026020010151613ab8565b80612f4f81615533565b915050612f19565b600082815260656020526040902060010154612f7281613619565b610cca8383613645565b6060610d17613b56565b600054610100900460ff1615808015612fa65750600054600160ff909116105b80612fc05750303b158015612fc0575060005460ff166001145b612fdc5760405162461bcd60e51b8152600401610c2990615d7d565b6000805460ff191660011790558015612fff576000805461ff0019166101001790555b60408051808201909152600381526203130360ec1b60208201526001600160a01b0384166130405760405162461bcd60e51b8152600401610c299190614803565b5060408051808201909152600381526203130360ec1b60208201526001600160a01b0383166130825760405162461bcd60e51b8152600401610c299190614803565b5061308e86868661393a565b61022880546001600160a01b038085166001600160a01b031992831617909255610227805492861692909116821790556130ca90600090610f29565b6130d5600033612f57565b801561311b576000805461ff0019169055604051600181527f7f26b83ff96e1f2b6a682f133852f6798a09c465da95921460cefb38474024989060200160405180910390a15b505050505050565b60026101f55414156131475760405162461bcd60e51b8152600401610c2990615642565b60026101f555610227546001600160a01b0316336001600160a01b0316146040518060400160405280600381526020016231303160e81b8152509061319f5760405162461bcd60e51b8152600401610c299190614803565b506131ab600033612aaf565b6040518060400160405280600381526020016231303160e81b815250906131e55760405162461bcd60e51b8152600401610c299190614803565b5060006001600160a01b038316613266578147101561320357600080fd5b6040516001600160a01b038516908390600081818185875af1925050503d806000811461324c576040519150601f19603f3d011682016040523d82523d6000602084013e613251565b606091505b5050809150508061326157600080fd5b6132e7565b60405163a9059cbb60e01b81526001600160a01b0385811660048301526024820184905284919082169063a9059cbb906044016020604051808303816000875af11580156132b8573d6000803e3d6000fd5b505050506040513d601f19601f820116820180604052508101906132dc91906156c1565b6132e557600080fd5b505b505060016101f5555050565b60006001600160e01b0319821663780e9d6360e01b1480610af55750610af582613b66565b613321816133d6565b6106015760405162461bcd60e51b8152602060048201526018602482015277115490cdcc8c4e881a5b9d985b1a59081d1bdad95b88125160421b6044820152606401610c29565b600081815260cd6020526040902080546001600160a01b0319166001600160a01b038416908117909155819061339d82611e6c565b6001600160a01b03167f8c5be1e5ebec7d5bd14f71427d1e84f3dd0314c0f7b2291e5b200ac8c7c3b92560405160405180910390a45050565b600090815260cb60205260409020546001600160a01b0316151590565b6000806133ff83611e6c565b9050806001600160a01b0316846001600160a01b0316148061344657506001600160a01b03808216600090815260ce602090815260408083209388168352929052205460ff165b8061346a5750836001600160a01b031661345f84610b8d565b6001600160a01b0316145b949350505050565b826001600160a01b031661348582611e6c565b6001600160a01b0316146134e95760405162461bcd60e51b815260206004820152602560248201527f4552433732313a207472616e736665722066726f6d20696e636f72726563742060448201526437bbb732b960d91b6064820152608401610c29565b6001600160a01b03821661354b5760405162461bcd60e51b8152602060048201526024808201527f4552433732313a207472616e7366657220746f20746865207a65726f206164646044820152637265737360e01b6064820152608401610c29565b613556838383613ba6565b613561600082613368565b6001600160a01b038316600090815260cc6020526040812080546001929061358a9084906156aa565b90915550506001600160a01b038216600090815260cc602052604081208054600192906135b8908490615679565b9091555050600081815260cb602052604080822080546001600160a01b0319166001600160a01b0386811691821790925591518493918716917fddf252ad1be2c89b69c2b068fc378daa952ba7f163c4a11628f55a4df523b3ef91a4505050565b6106018133613bb1565b61362d8282613c15565b6000828152609760205260409020610cca9082613c9b565b61364f8282613cb0565b6000828152609760205260409020610cca9082613d17565b60006136746001436156aa565b60408051914060208301526bffffffffffffffffffffffff19606087901b169082015260548101849052607481018390526094016040516020818303038152906040528051906020012090509392505050565b61105e828260405180602001604052806000815250613d2c565b6000604051733d602d80600a3d3981f3363d3d373d3d3d363d7360601b81528260601b60148201526e5af43d82803e903d91602b57fd5bf360881b60288201526037816000f09150506001600160a01b038116612eb85760405162461bcd60e51b8152602060048201526016602482015275115490cc4c4d8dce8818dc99585d194819985a5b195960521b6044820152606401610c29565b6060600061378785856156aa565b613792906001615679565b6001600160401b038111156137a9576137a961489d565b6040519080825280601f01601f1916602001820160405280156137d3576020820181803683370190505b50905060005b6137e386866156aa565b8111613856578360016137f68884615679565b61380091906156aa565b8151811061381057613810615507565b602001015160f81c60f81b82828151811061382d5761382d615507565b60200101906001600160f81b031916908160001a9053508061384e81615533565b9150506137d9565b50949350505050565b6000610d048383613d5f565b816001600160a01b0316836001600160a01b031614156138cd5760405162461bcd60e51b815260206004820152601960248201527f4552433732313a20617070726f766520746f2063616c6c6572000000000000006044820152606401610c29565b6001600160a01b03838116600081815260ce6020908152604080832094871680845294825291829020805460ff191686151590811790915591519182527f17307eab39ab6107e8899845ad3d59bd9653f200f220920489ca2b5937696c31910160405180910390a3505050565b600054610100900460ff166139615760405162461bcd60e51b8152600401610c2990615dfa565b61396b8383613d89565b613973613dd7565b610cca838383613e0b565b613989848484613472565b61399584848484613ea6565b612d0b5760405162461bcd60e51b8152600401610c2990615e45565b6060816139d55750506040805180820190915260018152600360fc1b602082015290565b8160005b81156139ff57806139e981615533565b91506139f89050600a836155d1565b91506139d9565b6000816001600160401b03811115613a1957613a1961489d565b6040519080825280601f01601f191660200182016040528015613a43576020820181803683370190505b5090505b841561346a57613a586001836156aa565b9150613a65600a86615e97565b613a70906030615679565b60f81b818381518110613a8557613a85615507565b60200101906001600160f81b031916908160001a905350613aa7600a866155d1565b9450613a47565b6000610af5825490565b600081815261022a6020908152604091829020600501548251808401909352600383526218981960e91b91830191909152600160201b90046001600160a01b03163314613b185760405162461bcd60e51b8152600401610c299190614803565b50600090815261022a6020526040902060050180546001600160a01b03909216600160201b02640100000000600160c01b0319909216919091179055565b60606101c48054610b0a906154d2565b60006001600160e01b031982166380ac58cd60e01b1480613b9757506001600160e01b03198216635b5e139f60e01b145b80610af55750610af582613fa4565b610cca838383613fc9565b613bbb8282612aaf565b61105e57613bd3816001600160a01b0316601461403c565b613bde83602061403c565b604051602001613bef929190615eab565b60408051601f198184030181529082905262461bcd60e51b8252610c2991600401614803565b613c1f8282612aaf565b61105e5760008281526065602090815260408083206001600160a01b03851684529091529020805460ff19166001179055613c573390565b6001600160a01b0316816001600160a01b0316837f2f8788117e7eff1d82e926ec794901d17c78024a50270940304540a733656f0d60405160405180910390a45050565b6000610d04836001600160a01b0384166141d7565b613cba8282612aaf565b1561105e5760008281526065602090815260408083206001600160a01b0385168085529252808320805460ff1916905551339285917ff6391f5c32d9c69d2a47ea670b442974b53935d1edc7fd64eb21e047a839171b9190a45050565b6000610d04836001600160a01b038416614226565b613d368383614319565b613d436000848484613ea6565b610cca5760405162461bcd60e51b8152600401610c2990615e45565b6000826000018281548110613d7657613d76615507565b9060005260206000200154905092915050565b600054610100900460ff16613db05760405162461bcd60e51b8152600401610c2990615dfa565b8151613dc39060c99060208501906146df565b508051610cca9060ca9060208401906146df565b600054610100900460ff16613dfe5760405162461bcd60e51b8152600401610c2990615dfa565b61015f805460ff19169055565b600054610100900460ff16613e325760405162461bcd60e51b8152600401610c2990615dfa565b8051613e46906101c49060208401906146df565b50613e52600033614458565b613e7c7f9f2df0fed2c77648de5860a4cc508cd0818c85b8b8a1ab4ceeef8d981c8956a633614458565b610cca7f65d7a28e3265b37a6474929f336521b332c1681b933f6cb9f3376673440d862a33614458565b60006001600160a01b0384163b15613f9957604051630a85bd0160e11b81526001600160a01b0385169063150b7a0290613eea903390899088908890600401615f20565b6020604051808303816000875af1925050508015613f25575060408051601f3d908101601f19168201909252613f2291810190615f5d565b60015b613f7f573d808015613f53576040519150601f19603f3d011682016040523d82523d6000602084013e613f58565b606091505b508051613f775760405162461bcd60e51b8152600401610c2990615e45565b805181602001fd5b6001600160e01b031916630a85bd0160e11b14905061346a565b506001949350505050565b60006001600160e01b03198216635a05180f60e01b1480610af55750610af582614462565b613fd4838383614497565b61015f5460ff1615610cca5760405162461bcd60e51b815260206004820152602b60248201527f4552433732315061757361626c653a20746f6b656e207472616e73666572207760448201526a1a1a5b19481c185d5cd95960aa1b6064820152608401610c29565b6060600061404b83600261559c565b614056906002615679565b6001600160401b0381111561406d5761406d61489d565b6040519080825280601f01601f191660200182016040528015614097576020820181803683370190505b509050600360fc1b816000815181106140b2576140b2615507565b60200101906001600160f81b031916908160001a905350600f60fb1b816001815181106140e1576140e1615507565b60200101906001600160f81b031916908160001a905350600061410584600261559c565b614110906001615679565b90505b6001811115614188576f181899199a1a9b1b9c1cb0b131b232b360811b85600f166010811061414457614144615507565b1a60f81b82828151811061415a5761415a615507565b60200101906001600160f81b031916908160001a90535060049490941c9361418181615f7a565b9050614113565b508315610d045760405162461bcd60e51b815260206004820181905260248201527f537472696e67733a20686578206c656e67746820696e73756666696369656e746044820152606401610c29565b600081815260018301602052604081205461421e57508154600181810184556000848152602080822090930184905584548482528286019093526040902091909155610af5565b506000610af5565b6000818152600183016020526040812054801561430f57600061424a6001836156aa565b855490915060009061425e906001906156aa565b90508181146142c357600086600001828154811061427e5761427e615507565b90600052602060002001549050808760000184815481106142a1576142a1615507565b6000918252602080832090910192909255918252600188019052604090208390555b85548690806142d4576142d4615f91565b600190038181906000526020600020016000905590558560010160008681526020019081526020016000206000905560019350505050610af5565b6000915050610af5565b6001600160a01b03821661436f5760405162461bcd60e51b815260206004820181905260248201527f4552433732313a206d696e7420746f20746865207a65726f20616464726573736044820152606401610c29565b614378816133d6565b156143c55760405162461bcd60e51b815260206004820152601c60248201527f4552433732313a20746f6b656e20616c7265616479206d696e746564000000006044820152606401610c29565b6143d160008383613ba6565b6001600160a01b038216600090815260cc602052604081208054600192906143fa908490615679565b9091555050600081815260cb602052604080822080546001600160a01b0319166001600160a01b03861690811790915590518392907fddf252ad1be2c89b69c2b068fc378daa952ba7f163c4a11628f55a4df523b3ef908290a45050565b61105e8282613623565b60006001600160e01b03198216637965db0b60e01b1480610af557506301ffc9a760e01b6001600160e01b0319831614610af5565b6001600160a01b0383166144f2576144ed8160fd8054600083815260fe60205260408120829055600182018355919091527f9346ac6dd7de6b96975fec380d4d994c4c12e6a8897544f22915316cc6cca2800155565b614515565b816001600160a01b0316836001600160a01b03161461451557614515838261454f565b6001600160a01b03821661452c57610cca816145ec565b826001600160a01b0316826001600160a01b031614610cca57610cca828261469b565b6000600161455c84611f7a565b61456691906156aa565b600083815260fc60205260409020549091508082146145b9576001600160a01b038416600090815260fb60209081526040808320858452825280832054848452818420819055835260fc90915290208190555b50600091825260fc602090815260408084208490556001600160a01b03909416835260fb81528383209183525290812055565b60fd546000906145fe906001906156aa565b600083815260fe602052604081205460fd805493945090928490811061462657614626615507565b906000526020600020015490508060fd838154811061464757614647615507565b600091825260208083209091019290925582815260fe909152604080822084905585825281205560fd80548061467f5761467f615f91565b6001900381819060005260206000200160009055905550505050565b60006146a683611f7a565b6001600160a01b03909316600090815260fb60209081526040808320868452825280832085905593825260fc9052919091209190915550565b8280546146eb906154d2565b90600052602060002090601f01602090048101928261470d5760008555614753565b82601f1061472657805160ff1916838001178555614753565b82800160010185558215614753579182015b82811115614753578251825591602001919060010190614738565b5061475f929150614763565b5090565b5b8082111561475f5760008155600101614764565b6001600160e01b03198116811461060157600080fd5b6000602082840312156147a057600080fd5b8135610d0481614778565b60005b838110156147c65781810151838201526020016147ae565b83811115612d0b5750506000910152565b600081518084526147ef8160208601602086016147ab565b601f01601f19169290920160200192915050565b602081526000610d0460208301846147d7565b60006020828403121561482857600080fd5b5035919050565b6001600160a01b038116811461060157600080fd5b8035612eb88161482f565b6000806040838503121561486257600080fd5b823561486d8161482f565b946020939093013593505050565b6000806040838503121561488e57600080fd5b50508035926020909101359150565b634e487b7160e01b600052604160045260246000fd5b604051608081016001600160401b03811182821017156148d5576148d561489d565b60405290565b604080519081016001600160401b03811182821017156148d5576148d561489d565b60405160e081016001600160401b03811182821017156148d5576148d561489d565b604051601f8201601f191681016001600160401b03811182821017156149475761494761489d565b604052919050565b60006001600160401b038211156149685761496861489d565b5060051b60200190565b6000806040838503121561498557600080fd5b823591506020808401356001600160401b038111156149a357600080fd5b8401601f810186136149b457600080fd5b80356149c76149c28261494f565b61491f565b81815260059190911b820183019083810190888311156149e657600080fd5b928401925b82841015614a04578335825292840192908401906149eb565b80955050505050509250929050565b600080600060608486031215614a2857600080fd5b8335614a338161482f565b92506020840135614a438161482f565b929592945050506040919091013590565b60008060408385031215614a6757600080fd5b823591506020830135614a798161482f565b809150509250929050565b60008060408385031215614a9757600080fd5b8235614aa28161482f565b91506020830135614a798161482f565b60006001600160401b03831115614acb57614acb61489d565b614ade601f8401601f191660200161491f565b9050828152838383011115614af257600080fd5b828260208301376000602084830101529392505050565b600082601f830112614b1a57600080fd5b610d0483833560208501614ab2565b60008060408385031215614b3c57600080fd5b8235915060208301356001600160401b03811115614b5957600080fd5b610f1e85828601614b09565b600082601f830112614b7657600080fd5b81356020614b866149c28361494f565b82815260059290921b84018101918181019086841115614ba557600080fd5b8286015b84811015614be45780356001600160401b03811115614bc85760008081fd5b614bd68986838b0101614b09565b845250918301918301614ba9565b509695505050505050565b60ff8116811461060157600080fd5b8035612eb881614bef565b801515811461060157600080fd5b8035612eb881614c09565b600060208284031215614c3457600080fd5b6001600160401b0382351115614c4957600080fd5b60808235830184031215614c5c57600080fd5b614c646148b3565b8235830180358252614c79906020013561482f565b602083358401013560208201526001600160401b0360408435850101351115614ca157600080fd5b614cb48484358501604081013501614b65565b60408201526001600160401b0360608435850101351115614cd457600080fd5b82358301606081013501601f81018513614ced57600080fd5b614cfa6149c2823561494f565b81358082526020808301929160051b840101871015614d1857600080fd5b602083015b6020843560051b850101811015614ed5576001600160401b0381351115614d4357600080fd5b6040813585018903601f19011215614d5a57600080fd5b614d626148db565b81358501602081013582526001600160401b036040909101351115614d8657600080fd5b81358501604081013501603f81018a13614d9f57600080fd5b614daf6149c2602083013561494f565b602082810135808352908201919060051b83016040018c1015614dd157600080fd5b604083015b6040602085013560051b850101811015614ebc576001600160401b0381351115614dff57600080fd5b60e0813585018e03603f19011215614e1657600080fd5b614e1e6148fd565b614e2d60408335870101614bfe565b8152813585016060810135602083015260808101356040830152614e539060a001614bfe565b60608201526001600160401b0360c08335870101351115614e7357600080fd5b614e898e8335870160c081013501604001614b65565b60808201528135850160e081013560a0830152614ea99061010001614c17565b60c0820152835260209283019201614dd6565b5060208481019190915292865250509283019201614d1d565b5060608401525090949350505050565b600060208284031215614ef757600080fd5b8135610d048161482f565b60008060008060808587031215614f1857600080fd5b8435614f238161482f565b93506020850135614f338161482f565b93969395505050506040820135916060013590565b803563ffffffff81168114612eb857600080fd5b600060408284031215614f6e57600080fd5b50919050565b6000806000806000806000806000806101408b8d031215614f9457600080fd5b614f9d8b614844565b995060208b01356001600160401b0380821115614fb957600080fd5b614fc58e838f01614b09565b9a5060408d0135995060608d0135915080821115614fe257600080fd5b614fee8e838f01614b09565b9850614ffc60808e01614f48565b975061500a60a08e01614c17565b965060c08d013591508082111561502057600080fd5b61502c8e838f01614b09565b955060e08d013594506150426101008e01614844565b93506101208d013591508082111561505957600080fd5b506150668d828e01614f5c565b9150509295989b9194979a5092959850565b600081518084526020808501808196508360051b8101915082860160005b858110156150c05782840389526150ae8483516147d7565b98850198935090840190600101615096565b5091979650505050505050565b60006040808401835185526020808501518382880152828151808552606094508489019150848160051b8a0101848401935060005b8281101561517e57605f198b8303018452845160e060ff80835116855288830151898601528a8301518b860152808a840151168a86015250608080830151828287015261515183870182615078565b60a0858101519088015260c094850151151594909601939093525050509385019392850192600101615102565b509998505050505050505050565b8e81526001600160a01b038e1660208201528c60408201528b60608201526101c0608082015260006151c26101c083018d6147d7565b63ffffffff8c1660a08401526001600160a01b038b1660c084015282810360e08401526151ef818b6147d7565b9050828103610100840152615204818a6147d7565b881515610120850152905082810361014084015261522281886150cd565b91505061523b6101608301866001600160a01b03169052565b6101808201939093526101a001529c9b505050505050505050505050565b60008060006060848603121561526e57600080fd5b833592506020840135614a438161482f565b6000806040838503121561529357600080fd5b823561529e8161482f565b91506020830135614a7981614c09565b6000806000606084860312156152c357600080fd5b83356001600160401b03808211156152da57600080fd5b6152e687838801614b09565b945060208601359150808211156152fc57600080fd5b61530887838801614b09565b9350604086013591508082111561531e57600080fd5b5061532b86828701614b09565b9150509250925092565b60008060006060848603121561534a57600080fd5b83356153558161482f565b95602085013595506040909401359392505050565b6000806000806080858703121561538057600080fd5b843561538b8161482f565b9350602085013561539b8161482f565b92506040850135915060608501356001600160401b038111156153bd57600080fd5b8501601f810187136153ce57600080fd5b6153dd87823560208401614ab2565b91505092959194509250565b600080604083850312156153fc57600080fd5b82356154078161482f565b91506020838101356001600160401b038111156149a357600080fd5b600080600080600060a0868803121561543b57600080fd5b85356001600160401b038082111561545257600080fd5b61545e89838a01614b09565b9650602088013591508082111561547457600080fd5b61548089838a01614b09565b9550604088013591508082111561549657600080fd5b506154a388828901614b09565b93505060608601356154b48161482f565b915060808601356154c48161482f565b809150509295509295909350565b600181811c908216806154e657607f821691505b60208210811415614f6e57634e487b7160e01b600052602260045260246000fd5b634e487b7160e01b600052603260045260246000fd5b634e487b7160e01b600052601160045260246000fd5b60006000198214156155475761554761551d565b5060010190565b6020808252602e908201527f4552433732313a2063616c6c6572206973206e6f7420746f6b656e206f776e6560408201526d1c881b9bdc88185c1c1c9bdd995960921b606082015260800190565b60008160001904831182151516156155b6576155b661551d565b500290565b634e487b7160e01b600052601260045260246000fd5b6000826155e0576155e06155bb565b500490565b6001600160a01b038416815260208082018490526060604083018190528351908301819052600091848101916080850190845b8181101561563457845183529383019391830191600101615618565b509098975050505050505050565b6020808252601f908201527f5265656e7472616e637947756172643a207265656e7472616e742063616c6c00604082015260600190565b6000821982111561568c5761568c61551d565b500190565b6000602082840312156156a357600080fd5b5051919050565b6000828210156156bc576156bc61551d565b500390565b6000602082840312156156d357600080fd5b8151610d0481614c09565b6001600160a01b0386811682528516602082015260a06040820181905260009061570a908301866147d7565b828103606084015261571c81866150cd565b91505082151560808301529695505050505050565b6001600160a01b0383811682526040602080840182905284518285015284810151909216606084015283015160808084015260009161577360c0850183615078565b6060860151858203603f190160a0870152805180835291935082019082840190600581901b8501840160005b8281101561517e57601f198783030184526157bb8286516150cd565b9486019493860193915060010161579f565b6000602082840312156157df57600080fd5b8151610d048161482f565b6000808335601e1984360301811261580157600080fd5b8301803591506001600160401b0382111561581b57600080fd5b6020019150600581901b360382131561583357600080fd5b9250929050565b6000823560de1983360301811261585057600080fd5b9190910192915050565b5b8181101561105e576000815560010161585b565b805460008083558115610cca5782815260208082208381015b8082101561311b5761589a82546154d2565b80156158e157601f808211600181146158b5578685556158de565b8487528587206158cf83850160051c82016001830161585a565b50600085815260208120818755555b50505b50600182019150615888565b601f821115610cca57806000526020600020601f840160051c810160208510156159145750805b615926601f850160051c83018261585a565b5050505050565b6001600160401b038311156159445761594461489d565b6159588361595283546154d2565b836158ed565b6000601f84116001811461598c57600085156159745750838201355b600019600387901b1c1916600186901b178355615926565b600083815260209020601f19861690835b828110156159bd578685013582556020948501946001909201910161599d565b50868210156159da5760001960f88860031b161c19848701351681555b505060018560011b0183555050505050565b60008135610af581614c09565b8135615a0481614bef565b815460ff191660ff821617825550600160208084013582840155604084013560028401556060840135615a3681614bef565b60038401805460ff191660ff83161790555060048301615a5960808601866157ea565b600160401b811115615a6d57615a6d61489d565b825481845580821015615af25760008481528581208381019083015b80821015615aee57615a9b82546154d2565b8015615ae457601f80821160018114615ab657858555615ae1565b600085815260209020615ad283850160051c82018e830161585a565b50600085815260208120818755555b50505b5090880190615a89565b5050505b508160008481528581209450805b83811015615b61578235601e19863603018112615b1b578283fd5b850180356001600160401b03811115615b32578384fd5b8882019150803603821315615b45578384fd5b615b5081838a61592d565b505094870194918601918701615b00565b505050505050505060a0820135600582015561105e615b8260c084016159ec565b6006830160ff1981541660ff8315151681178255505050565b8135815560018082016020615bb2818601866157ea565b600160401b811115615bc657615bc661489d565b835481855580821015615c73577f2492492492492492492492492492492492492492492492492492492492492492808211871615615c0657615c0661551d565b6007818411881615615c1a57615c1a61551d565b6000878152868120909250848202810190828502015b80821015615c6e57838255838a830155836002830155836003830155615c586004830161586f565b8360058301558360068301558282019150615c30565b505050505b506000938452602084209382905b82811015615cae57615c9c615c96838661583a565b876159f9565b60079590950194908401908601615c81565b505050505050505050565b60a081526000808754615ccb816154d2565b8060a086015260c0600180841660008114615ced5760018114615d0157615d32565b60ff1985168884015260e088019550615d32565b8c60005260208060002060005b86811015615d295781548b8201870152908401908201615d0e565b8a018501975050505b50505050508281036020840152615d4981886147d7565b915050615d6160408301866001600160a01b03169052565b6001600160a01b03939093166060820152608001529392505050565b6020808252602e908201527f496e697469616c697a61626c653a20636f6e747261637420697320616c72656160408201526d191e481a5b9a5d1a585b1a5e995960921b606082015260800190565b60008351615ddd8184602088016147ab565b835190830190615df18183602088016147ab565b01949350505050565b6020808252602b908201527f496e697469616c697a61626c653a20636f6e7472616374206973206e6f74206960408201526a6e697469616c697a696e6760a81b606082015260800190565b60208082526032908201527f4552433732313a207472616e7366657220746f206e6f6e20455243373231526560408201527131b2b4bb32b91034b6b83632b6b2b73a32b960711b606082015260800190565b600082615ea657615ea66155bb565b500690565b7f416363657373436f6e74726f6c3a206163636f756e7420000000000000000000815260008351615ee38160178501602088016147ab565b7001034b99036b4b9b9b4b733903937b6329607d1b6017918401918201528351615f148160288401602088016147ab565b01602801949350505050565b6001600160a01b0385811682528416602082015260408101839052608060608201819052600090615f53908301846147d7565b9695505050505050565b600060208284031215615f6f57600080fd5b8151610d0481614778565b600081615f8957615f8961551d565b506000190190565b634e487b7160e01b600052603160045260246000fdfea264697066735822122071fd4f7efb83646a5ac7af4c79e5b2b5a03990f6deeca7f2b29843d2dc7cc65364736f6c634300080c0033",
  "linkReferences": {},
  "deployedLinkReferences": {}
}