{
  "_format": "hh-sol-artifact-1",
  "contractName": "GenerativeBoilerplateNFT",
  "sourceName": "contracts/nft/GenerativeBoilerplateNFT.sol",
  "abi": [
    {
      "anonymous": false,
      "inputs": [
        {
          "indexed": true,
          "internalType": "address",
          "name": "owner",
          "type": "address"
        },
        {
          "indexed": true,
          "internalType": "address",
          "name": "approved",
          "type": "address"
        },
        {
          "indexed": true,
          "internalType": "uint256",
          "name": "tokenId",
          "type": "uint256"
        }
      ],
      "name": "Approval",
      "type": "event"
    },
    {
      "anonymous": false,
      "inputs": [
        {
          "indexed": true,
          "internalType": "address",
          "name": "owner",
          "type": "address"
        },
        {
          "indexed": true,
          "internalType": "address",
          "name": "operator",
          "type": "address"
        },
        {
          "indexed": false,
          "internalType": "bool",
          "name": "approved",
          "type": "bool"
        }
      ],
      "name": "ApprovalForAll",
      "type": "event"
    },
    {
      "anonymous": false,
      "inputs": [
        {
          "indexed": false,
          "internalType": "uint8",
          "name": "version",
          "type": "uint8"
        }
      ],
      "name": "Initialized",
      "type": "event"
    },
    {
      "anonymous": false,
      "inputs": [
        {
          "indexed": false,
          "internalType": "address",
          "name": "account",
          "type": "address"
        }
      ],
      "name": "Paused",
      "type": "event"
    },
    {
      "anonymous": false,
      "inputs": [
        {
          "indexed": true,
          "internalType": "address",
          "name": "from",
          "type": "address"
        },
        {
          "indexed": true,
          "internalType": "address",
          "name": "to",
          "type": "address"
        },
        {
          "indexed": true,
          "internalType": "uint256",
          "name": "tokenId",
          "type": "uint256"
        }
      ],
      "name": "Transfer",
      "type": "event"
    },
    {
      "anonymous": false,
      "inputs": [
        {
          "indexed": false,
          "internalType": "address",
          "name": "account",
          "type": "address"
        }
      ],
      "name": "Unpaused",
      "type": "event"
    },
    {
      "inputs": [],
      "name": "_admin",
      "outputs": [
        {
          "internalType": "address",
          "name": "",
          "type": "address"
        }
      ],
      "stateMutability": "view",
      "type": "function"
    },
    {
      "inputs": [],
      "name": "_paramsAddress",
      "outputs": [
        {
          "internalType": "address",
          "name": "",
          "type": "address"
        }
      ],
      "stateMutability": "view",
      "type": "function"
    },
    {
      "inputs": [
        {
          "internalType": "uint256",
          "name": "",
          "type": "uint256"
        }
      ],
      "name": "_projects",
      "outputs": [
        {
          "internalType": "uint256",
          "name": "_fee",
          "type": "uint256"
        },
        {
          "internalType": "address",
          "name": "_feeToken",
          "type": "address"
        },
        {
          "internalType": "string",
          "name": "_script",
          "type": "string"
        },
        {
          "internalType": "uint32",
          "name": "_scriptType",
          "type": "uint32"
        },
        {
          "internalType": "address",
          "name": "_creator",
          "type": "address"
        },
        {
          "internalType": "string",
          "name": "_customUri",
          "type": "string"
        },
        {
          "internalType": "string",
          "name": "_projectName",
          "type": "string"
        },
        {
          "internalType": "bool",
          "name": "_clientSeed",
          "type": "bool"
        },
        {
          "internalType": "address",
          "name": "_minterNFTInfo",
          "type": "address"
        },
        {
          "internalType": "bool",
          "name": "_editable",
          "type": "bool"
        }
      ],
      "stateMutability": "view",
      "type": "function"
    },
    {
      "inputs": [
        {
          "internalType": "address",
          "name": "to",
          "type": "address"
        },
        {
          "internalType": "uint256",
          "name": "tokenId",
          "type": "uint256"
        }
      ],
      "name": "approve",
      "outputs": [],
      "stateMutability": "nonpayable",
      "type": "function"
    },
    {
      "inputs": [
        {
          "internalType": "address",
          "name": "owner",
          "type": "address"
        }
      ],
      "name": "balanceOf",
      "outputs": [
        {
          "internalType": "uint256",
          "name": "",
          "type": "uint256"
        }
      ],
      "stateMutability": "view",
      "type": "function"
    },
    {
      "inputs": [
        {
          "internalType": "address",
          "name": "newAdm",
          "type": "address"
        },
        {
          "internalType": "address",
          "name": "newParam",
          "type": "address"
        }
      ],
      "name": "changeAdmin",
      "outputs": [],
      "stateMutability": "nonpayable",
      "type": "function"
    },
    {
      "inputs": [
        {
          "internalType": "uint256",
          "name": "tokenId",
          "type": "uint256"
        }
      ],
      "name": "getApproved",
      "outputs": [
        {
          "internalType": "address",
          "name": "",
          "type": "address"
        }
      ],
      "stateMutability": "view",
      "type": "function"
    },
    {
      "inputs": [
        {
          "internalType": "uint256",
          "name": "id",
          "type": "uint256"
        }
      ],
      "name": "getParamsTemplate",
      "outputs": [
        {
          "components": [
            {
              "internalType": "uint8",
              "name": "_typeValue",
              "type": "uint8"
            },
            {
              "internalType": "uint256",
              "name": "_max",
              "type": "uint256"
            },
            {
              "internalType": "uint256",
              "name": "_min",
              "type": "uint256"
            },
            {
              "internalType": "uint8",
              "name": "_decimal",
              "type": "uint8"
            },
            {
              "internalType": "string[]",
              "name": "_availableValues",
              "type": "string[]"
            },
            {
              "internalType": "uint256",
              "name": "_value",
              "type": "uint256"
            },
            {
              "internalType": "bool",
              "name": "_editable",
              "type": "bool"
            }
          ],
          "internalType": "struct BoilerplateParam.ParamTemplate[]",
          "name": "",
          "type": "tuple[]"
        }
      ],
      "stateMutability": "view",
      "type": "function"
    },
    {
      "inputs": [
        {
          "internalType": "string",
          "name": "name",
          "type": "string"
        },
        {
          "internalType": "string",
          "name": "symbol",
          "type": "string"
        },
        {
          "internalType": "address",
          "name": "admin",
          "type": "address"
        },
        {
          "internalType": "address",
          "name": "paramsAddress",
          "type": "address"
        }
      ],
      "name": "initialize",
      "outputs": [],
      "stateMutability": "nonpayable",
      "type": "function"
    },
    {
      "inputs": [
        {
          "internalType": "address",
          "name": "owner",
          "type": "address"
        },
        {
          "internalType": "address",
          "name": "operator",
          "type": "address"
        }
      ],
      "name": "isApprovedForAll",
      "outputs": [
        {
          "internalType": "bool",
          "name": "",
          "type": "bool"
        }
      ],
      "stateMutability": "view",
      "type": "function"
    },
    {
      "inputs": [
        {
          "internalType": "uint256",
          "name": "_fromProjectId",
          "type": "uint256"
        },
        {
          "components": [
            {
              "internalType": "bytes32",
              "name": "_seed",
              "type": "bytes32"
            },
            {
              "internalType": "uint256[]",
              "name": "_value",
              "type": "uint256[]"
            }
          ],
          "internalType": "struct BoilerplateParam.ParamsOfNFT",
          "name": "paramValue",
          "type": "tuple"
        }
      ],
      "name": "mintNFT",
      "outputs": [],
      "stateMutability": "payable",
      "type": "function"
    },
    {
      "inputs": [
        {
          "internalType": "address",
          "name": "to",
          "type": "address"
        },
        {
          "internalType": "string",
          "name": "projectName",
          "type": "string"
        },
        {
          "internalType": "uint256",
          "name": "maxSupply",
          "type": "uint256"
        },
        {
          "internalType": "uint256",
          "name": "limit",
          "type": "uint256"
        },
        {
          "internalType": "uint32",
          "name": "scriptType",
          "type": "uint32"
        },
        {
          "internalType": "bool",
          "name": "clientSeed",
          "type": "bool"
        },
        {
          "internalType": "string",
          "name": "uri",
          "type": "string"
        },
        {
          "internalType": "uint256",
          "name": "fee",
          "type": "uint256"
        },
        {
          "internalType": "address",
          "name": "feeAdd",
          "type": "address"
        },
        {
          "components": [
            {
              "internalType": "uint8",
              "name": "_typeValue",
              "type": "uint8"
            },
            {
              "internalType": "uint256",
              "name": "_max",
              "type": "uint256"
            },
            {
              "internalType": "uint256",
              "name": "_min",
              "type": "uint256"
            },
            {
              "internalType": "uint8",
              "name": "_decimal",
              "type": "uint8"
            },
            {
              "internalType": "string[]",
              "name": "_availableValues",
              "type": "string[]"
            },
            {
              "internalType": "uint256",
              "name": "_value",
              "type": "uint256"
            },
            {
              "internalType": "bool",
              "name": "_editable",
              "type": "bool"
            }
          ],
          "internalType": "struct BoilerplateParam.ParamTemplate[]",
          "name": "paramsTemplate",
          "type": "tuple[]"
        }
      ],
      "name": "mintProject",
      "outputs": [
        {
          "internalType": "uint256",
          "name": "",
          "type": "uint256"
        }
      ],
      "stateMutability": "payable",
      "type": "function"
    },
    {
      "inputs": [],
      "name": "name",
      "outputs": [
        {
          "internalType": "string",
          "name": "",
          "type": "string"
        }
      ],
      "stateMutability": "view",
      "type": "function"
    },
    {
      "inputs": [
        {
          "internalType": "uint256",
          "name": "_fromProjectId",
          "type": "uint256"
        },
        {
          "internalType": "uint256",
          "name": "tokenId",
          "type": "uint256"
        },
        {
          "components": [
            {
              "internalType": "bytes32",
              "name": "_seed",
              "type": "bytes32"
            },
            {
              "internalType": "uint256[]",
              "name": "_value",
              "type": "uint256[]"
            }
          ],
          "internalType": "struct BoilerplateParam.ParamsOfNFT",
          "name": "paramValue",
          "type": "tuple"
        }
      ],
      "name": "ownerMintNFT",
      "outputs": [],
      "stateMutability": "payable",
      "type": "function"
    },
    {
      "inputs": [
        {
          "internalType": "uint256",
          "name": "tokenId",
          "type": "uint256"
        }
      ],
      "name": "ownerOf",
      "outputs": [
        {
          "internalType": "address",
          "name": "",
          "type": "address"
        }
      ],
      "stateMutability": "view",
      "type": "function"
    },
    {
      "inputs": [],
      "name": "pause",
      "outputs": [],
      "stateMutability": "nonpayable",
      "type": "function"
    },
    {
      "inputs": [],
      "name": "paused",
      "outputs": [
        {
          "internalType": "bool",
          "name": "",
          "type": "bool"
        }
      ],
      "stateMutability": "view",
      "type": "function"
    },
    {
      "inputs": [
        {
          "internalType": "uint256",
          "name": "projectId",
          "type": "uint256"
        },
        {
          "internalType": "bytes32",
          "name": "seed",
          "type": "bytes32"
        }
      ],
      "name": "registerSeed",
      "outputs": [],
      "stateMutability": "nonpayable",
      "type": "function"
    },
    {
      "inputs": [
        {
          "internalType": "uint256",
          "name": "_tokenId",
          "type": "uint256"
        },
        {
          "internalType": "uint256",
          "name": "_salePrice",
          "type": "uint256"
        }
      ],
      "name": "royaltyInfo",
      "outputs": [
        {
          "internalType": "address",
          "name": "receiver",
          "type": "address"
        },
        {
          "internalType": "uint256",
          "name": "royaltyAmount",
          "type": "uint256"
        }
      ],
      "stateMutability": "view",
      "type": "function"
    },
    {
      "inputs": [
        {
          "internalType": "address",
          "name": "from",
          "type": "address"
        },
        {
          "internalType": "address",
          "name": "to",
          "type": "address"
        },
        {
          "internalType": "uint256",
          "name": "tokenId",
          "type": "uint256"
        }
      ],
      "name": "safeTransferFrom",
      "outputs": [],
      "stateMutability": "nonpayable",
      "type": "function"
    },
    {
      "inputs": [
        {
          "internalType": "address",
          "name": "from",
          "type": "address"
        },
        {
          "internalType": "address",
          "name": "to",
          "type": "address"
        },
        {
          "internalType": "uint256",
          "name": "tokenId",
          "type": "uint256"
        },
        {
          "internalType": "bytes",
          "name": "data",
          "type": "bytes"
        }
      ],
      "name": "safeTransferFrom",
      "outputs": [],
      "stateMutability": "nonpayable",
      "type": "function"
    },
    {
      "inputs": [
        {
          "internalType": "address",
          "name": "operator",
          "type": "address"
        },
        {
          "internalType": "bool",
          "name": "approved",
          "type": "bool"
        }
      ],
      "name": "setApprovalForAll",
      "outputs": [],
      "stateMutability": "nonpayable",
      "type": "function"
    },
    {
      "inputs": [
        {
          "internalType": "address",
          "name": "_to",
          "type": "address"
        },
        {
          "internalType": "uint256",
          "name": "_id",
          "type": "uint256"
        }
      ],
      "name": "setCreator",
      "outputs": [],
      "stateMutability": "nonpayable",
      "type": "function"
    },
    {
      "inputs": [
        {
          "internalType": "uint256",
          "name": "projectId",
          "type": "uint256"
        },
        {
          "internalType": "string",
          "name": "script",
          "type": "string"
        }
      ],
      "name": "setScript",
      "outputs": [],
      "stateMutability": "nonpayable",
      "type": "function"
    },
    {
      "inputs": [
        {
          "internalType": "string",
          "name": "_uri",
          "type": "string"
        },
        {
          "internalType": "uint256",
          "name": "_id",
          "type": "uint256"
        }
      ],
      "name": "setTokenURI",
      "outputs": [],
      "stateMutability": "nonpayable",
      "type": "function"
    },
    {
      "inputs": [
        {
          "internalType": "bytes4",
          "name": "interfaceId",
          "type": "bytes4"
        }
      ],
      "name": "supportsInterface",
      "outputs": [
        {
          "internalType": "bool",
          "name": "",
          "type": "bool"
        }
      ],
      "stateMutability": "view",
      "type": "function"
    },
    {
      "inputs": [],
      "name": "symbol",
      "outputs": [
        {
          "internalType": "string",
          "name": "",
          "type": "string"
        }
      ],
      "stateMutability": "view",
      "type": "function"
    },
    {
      "inputs": [
        {
          "internalType": "uint256",
          "name": "_tokenId",
          "type": "uint256"
        }
      ],
      "name": "tokenURI",
      "outputs": [
        {
          "internalType": "string",
          "name": "",
          "type": "string"
        }
      ],
      "stateMutability": "view",
      "type": "function"
    },
    {
      "inputs": [
        {
          "internalType": "address",
          "name": "from",
          "type": "address"
        },
        {
          "internalType": "address",
          "name": "to",
          "type": "address"
        },
        {
          "internalType": "uint256",
          "name": "tokenId",
          "type": "uint256"
        }
      ],
      "name": "transferFrom",
      "outputs": [],
      "stateMutability": "nonpayable",
      "type": "function"
    },
    {
      "inputs": [],
      "name": "unpause",
      "outputs": [],
      "stateMutability": "nonpayable",
      "type": "function"
    },
    {
      "inputs": [
        {
          "internalType": "address",
          "name": "receiver",
          "type": "address"
        },
        {
          "internalType": "address",
          "name": "erc20Addr",
          "type": "address"
        },
        {
          "internalType": "uint256",
          "name": "amount",
          "type": "uint256"
        }
      ],
      "name": "withdraw",
      "outputs": [],
      "stateMutability": "nonpayable",
      "type": "function"
    }
  ],
  "bytecode": "0x608060405234801561001057600080fd5b5061460d806100206000396000f3fe6080604052600436106101d85760003560e01c806371199d3011610102578063b88d4fde11610095578063cc97e11011610064578063cc97e1101461057d578063d9caed121461059d578063e985e9c5146105bd578063eb12ae931461060657600080fd5b8063b88d4fde1461050a578063c2ebaf631461052a578063c87b56dd1461053d578063c8cb8a751461055d57600080fd5b80638f15b414116100d15780638f15b4141461049457806395d89b41146104b4578063a22cb465146104c9578063adfc7dae146104e957600080fd5b806371199d3014610416578063821f9dc9146104365780638456cb591461046c5780638cc87c841461048157600080fd5b806323b872dd1161017a5780634e26a2ac116101495780634e26a2ac146103835780635c975abb146103b05780636352211e146103c857806370a08231146103e857600080fd5b806323b872dd146102ef5780632a55205a1461030f5780633f4ba83a1461034e57806342842e0e1461036357600080fd5b8063081812fc116101b6578063081812fc1461026d578063095ea7b31461028d57806309a3beef146102af5780631acfd02a146102cf57600080fd5b806301bc45c9146101dd57806301ffc9a71461021b57806306fdde031461024b575b600080fd5b3480156101e957600080fd5b5061012d546101fe906001600160a01b031681565b6040516001600160a01b0390911681526020015b60405180910390f35b34801561022757600080fd5b5061023b610236366004613736565b610619565b6040519015158152602001610212565b34801561025757600080fd5b5061026061066b565b60405161021291906137b2565b34801561027957600080fd5b506101fe6102883660046137c5565b6106fd565b34801561029957600080fd5b506102ad6102a83660046137fe565b610724565b005b3480156102bb57600080fd5b506102ad6102ca36600461393f565b61083f565b3480156102db57600080fd5b506102ad6102ea366004613983565b6108c7565b3480156102fb57600080fd5b506102ad61030a3660046139bc565b6109a2565b34801561031b57600080fd5b5061032f61032a3660046139fd565b6109d3565b604080516001600160a01b039093168352602083019190915201610212565b34801561035a57600080fd5b506102ad610a04565b34801561036f57600080fd5b506102ad61037e3660046139bc565b610a56565b34801561038f57600080fd5b506103a361039e3660046137c5565b610a71565b6040516102129190613a1f565b3480156103bc57600080fd5b5060975460ff1661023b565b3480156103d457600080fd5b506101fe6103e33660046137c5565b610c04565b3480156103f457600080fd5b50610408610403366004613b15565b610c64565b604051908152602001610212565b34801561042257600080fd5b506102ad610431366004613b32565b610cea565b34801561044257600080fd5b506104566104513660046137c5565b610d3e565b6040516102129a99989796959493929190613b78565b34801561047857600080fd5b506102ad610f55565b61040861048f366004613e04565b610fa5565b3480156104a057600080fd5b506102ad6104af366004613eed565b61183e565b3480156104c057600080fd5b50610260611a0b565b3480156104d557600080fd5b506102ad6104e4366004613f75565b611a1a565b3480156104f557600080fd5b5061012e546101fe906001600160a01b031681565b34801561051657600080fd5b506102ad610525366004613fa3565b611a25565b6102ad6105383660046140c8565b611a5d565b34801561054957600080fd5b506102606105583660046137c5565b611f44565b34801561056957600080fd5b506102ad6105783660046137fe565b611fea565b34801561058957600080fd5b506102ad6105983660046139fd565b612089565b3480156105a957600080fd5b506102ad6105b83660046139bc565b612123565b3480156105c957600080fd5b5061023b6105d8366004613983565b6001600160a01b039182166000908152606a6020908152604080832093909416825291909152205460ff1690565b6102ad610614366004614104565b6122aa565b60006001600160e01b031982166380ac58cd60e01b148061064a57506001600160e01b03198216635b5e139f60e01b145b8061066557506301ffc9a760e01b6001600160e01b03198316145b92915050565b60606065805461067a90614153565b80601f01602080910402602001604051908101604052809291908181526020018280546106a690614153565b80156106f35780601f106106c8576101008083540402835291602001916106f3565b820191906000526020600020905b8154815290600101906020018083116106d657829003601f168201915b5050505050905090565b6000610708826127b6565b506000908152606960205260409020546001600160a01b031690565b600061072f82610c04565b9050806001600160a01b0316836001600160a01b031614156107a25760405162461bcd60e51b815260206004820152602160248201527f4552433732313a20617070726f76616c20746f2063757272656e74206f776e656044820152603960f91b60648201526084015b60405180910390fd5b336001600160a01b03821614806107be57506107be81336105d8565b6108305760405162461bcd60e51b815260206004820152603e60248201527f4552433732313a20617070726f76652063616c6c6572206973206e6f7420746f60448201527f6b656e206f776e6572206e6f7220617070726f76656420666f7220616c6c00006064820152608401610799565b61083a8383612818565b505050565b6000818152610130602090815260409182902060039081015483518085019094529083526218981960e91b91830191909152600160201b90046001600160a01b031633146108a05760405162461bcd60e51b815260040161079991906137b2565b50600081815261013060209081526040909120835161083a926004909201918501906135d7565b61012d546001600160a01b0316331480156108ea57506001600160a01b03821615155b6040518060400160405280600381526020016231303160e81b815250906109245760405162461bcd60e51b815260040161079991906137b2565b5061012d546001600160a01b038381169116146109585761012d80546001600160a01b0319166001600160a01b0384161790555b6001600160a01b03811661096b57600080fd5b61012e546001600160a01b0382811691161461099e5761012e80546001600160a01b0319166001600160a01b0383161790555b5050565b6109ac3382612886565b6109c85760405162461bcd60e51b81526004016107999061418e565b61083a838383612905565b61012d546001600160a01b031660006127106109f1846101f46141f2565b6109fb9190614211565b90509250929050565b61012d5460408051808201909152600381526231303160e81b6020820152906001600160a01b03163314610a4b5760405162461bcd60e51b815260040161079991906137b2565b50610a54612aac565b565b61083a83838360405180602001604052806000815250611a25565b60606101306000838152602001908152602001600020600701805480602002602001604051908101604052809291908181526020016000905b82821015610bf957600084815260208082206040805160e08101825260078702909201805460ff9081168452600182015484860152600282015484840152600382015416606084015260048101805483518187028101870190945280845293959194608087019491929084015b82821015610bc3578382906000526020600020018054610b3690614153565b80601f0160208091040260200160405190810160405280929190818152602001828054610b6290614153565b8015610baf5780601f10610b8457610100808354040283529160200191610baf565b820191906000526020600020905b815481529060010190602001808311610b9257829003601f168201915b505050505081526020019060010190610b17565b50505090825250600582015460208083019190915260069092015460ff1615156040909101529082526001929092019101610aaa565b505050509050919050565b6000818152606760205260408120546001600160a01b0316806106655760405162461bcd60e51b8152602060048201526018602482015277115490cdcc8c4e881a5b9d985b1a59081d1bdad95b88125160421b6044820152606401610799565b60006001600160a01b038216610cce5760405162461bcd60e51b815260206004820152602960248201527f4552433732313a2061646472657373207a65726f206973206e6f7420612076616044820152683634b21037bbb732b960b91b6064820152608401610799565b506001600160a01b031660009081526068602052604090205490565b60008281526101306020526040902060030154600160201b90046001600160a01b03163314610d1857600080fd5b600082815261013060209081526040909120825161083a926002909201918401906135d7565b6101306020526000908152604090208054600182015460028301805492936001600160a01b0390921692610d7190614153565b80601f0160208091040260200160405190810160405280929190818152602001828054610d9d90614153565b8015610dea5780601f10610dbf57610100808354040283529160200191610dea565b820191906000526020600020905b815481529060010190602001808311610dcd57829003601f168201915b505050506003830154600484018054939463ffffffff831694600160201b9093046001600160a01b0316935091610e2090614153565b80601f0160208091040260200160405190810160405280929190818152602001828054610e4c90614153565b8015610e995780601f10610e6e57610100808354040283529160200191610e99565b820191906000526020600020905b815481529060010190602001808311610e7c57829003601f168201915b505050505090806005018054610eae90614153565b80601f0160208091040260200160405190810160405280929190818152602001828054610eda90614153565b8015610f275780601f10610efc57610100808354040283529160200191610f27565b820191906000526020600020905b815481529060010190602001808311610f0a57829003601f168201915b505050506006830154600890930154919260ff908116926001600160a01b0381169250600160a01b9004168a565b61012d5460408051808201909152600381526231303160e81b6020820152906001600160a01b03163314610f9c5760405162461bcd60e51b815260040161079991906137b2565b50610a54612afe565b6000600260fb541415610fca5760405162461bcd60e51b815260040161079990614233565b600260fb5589516040805180820190915260038082526203230360ec1b602083015290911161100c5760405162461bcd60e51b815260040161079991906137b2565b5061012f805490600061101e8361426a565b909155505061012e5461012d546001600160a01b03918216911633146112115760408051808201825260128152714352454154455f50524f4a4543545f46454560701b60208201529051636d12dce160e01b81526000916001600160a01b03841691636d12dce191611092916004016137b2565b602060405180830381865afa1580156110af573d6000803e3d6000fd5b505050506040513d601f19601f820116820180604052508101906110d39190614285565b9050801561120f5760408051808201825260098152682322a2afaa27a5a2a760b91b6020820152905163bf40fac160e01b81526000916001600160a01b0385169163bf40fac191611126916004016137b2565b602060405180830381865afa158015611143573d6000803e3d6000fd5b505050506040513d601f19601f82011682018060405250810190611167919061429e565b90506001600160a01b03811615611200576040516323b872dd60e01b81523360048201523060248201526044810183905281906001600160a01b038216906323b872dd906064016020604051808303816000875af11580156111cd573d6000803e3d6000fd5b505050506040513d601f19601f820116820180604052508101906111f191906142bb565b6111fa57600080fd5b5061120d565b8134101561120d57600080fd5b505b505b61012f54600090815261013060209081526040909120875161123b926004909201918901906135d7565b5061012f546000908152610130602090815260409091208c51611266926005909201918e01906135d7565b5061012f8054600090815261013060205260408082206003018054640100000000600160c01b03191633600160201b02179055825482528082208890559154815290812060010180546001600160a01b0319166001600160a01b0387161790555b83518160ff16101561145c57610130600061012f548152602001908152602001600020600701848260ff1681518110611302576113026142d8565b6020908102919091018101518254600181810185556000948552938390208251600790920201805460ff92831660ff199182161782558385015195820195909555604083015160028201556060830151600382018054919093169516949094179055608081015180519193926113809260048501929091019061365b565b5060a0820151600582015560c0909101516006909101805460ff19169115159190911790558351849060ff83169081106113bc576113bc6142d8565b602002602001015160c0015180156113f2575061012f5460009081526101306020526040902060080154600160a01b900460ff16155b1561144a57838160ff168151811061140c5761140c6142d8565b602002602001015160c00151610130600061012f54815260200190815260200160002060080160146101000a81548160ff0219169083151502179055505b80611454816142ee565b9150506112c7565b5061012f805460009081526101306020526040808220600301805463ffffffff191663ffffffff8d16179055825482529020600601805460ff1916891515179055546114a9908d90612b3b565b604080518082018252601781527f47454e455241544956455f4e46545f54454d504c4154450000000000000000006020820152905163bf40fac160e01b8152600091611553916001600160a01b0385169163bf40fac19161150d91906004016137b2565b602060405180830381865afa15801561152a573d6000803e3d6000fd5b505050506040513d601f19601f8201168201806040525081019061154e919061429e565b612b55565b90506000819050806001600160a01b0316632bbcd3ce6040518060e00160405280610130600061012f548152602001908152602001600020600501805461159990614153565b80601f01602080910402602001604051908101604052809291908181526020018280546115c590614153565b80156116125780601f106115e757610100808354040283529160200191611612565b820191906000526020600020905b8154815290600101906020018083116115f557829003601f168201915b505050505081526020016116cb60016003610130600061012f548152602001908152602001600020600501805461164890614153565b80601f016020809104026020016040519081016040528092919081815260200182805461167490614153565b80156116c15780601f10611696576101008083540402835291602001916116c1565b820191906000526020600020905b8154815290600101906020018083116116a457829003601f168201915b5050505050612bf2565b8152602001866001600160a01b031663693ec85e6040518060400160405280600c81526020016b4e46545f424153455f55524960a01b8152506040518263ffffffff1660e01b815260040161172091906137b2565b600060405180830381865afa15801561173d573d6000803e3d6000fd5b505050506040513d6000823e601f3d908101601f19168201604052611765919081019061430e565b815260200161012d60009054906101000a90046001600160a01b03166001600160a01b031681526020018f81526020018e815260200161012f548152506040518263ffffffff1660e01b81526004016117be9190614384565b600060405180830381600087803b1580156117d857600080fd5b505af11580156117ec573d6000803e3d6000fd5b505061012f805460009081526101306020526040902060080180546001600160a01b0319166001600160a01b03969096169590951790945550509054600160fb559d9c50505050505050505050505050565b600054610100900460ff161580801561185e5750600054600160ff909116105b806118785750303b158015611878575060005460ff166001145b6118db5760405162461bcd60e51b815260206004820152602e60248201527f496e697469616c697a61626c653a20636f6e747261637420697320616c72656160448201526d191e481a5b9a5d1a585b1a5e995960921b6064820152608401610799565b6000805460ff1916600117905580156118fe576000805461ff0019166101001790555b60408051808201909152600381526203130360ec1b60208201526001600160a01b03841661193f5760405162461bcd60e51b815260040161079991906137b2565b5060408051808201909152600381526203130360ec1b60208201526001600160a01b0383166119815760405162461bcd60e51b815260040161079991906137b2565b5061198c8585612cd8565b61012e80546001600160a01b038085166001600160a01b03199283161790925561012d8054928616929091169190911790558015611a04576000805461ff0019169055604051600181527f7f26b83ff96e1f2b6a682f133852f6798a09c465da95921460cefb38474024989060200160405180910390a15b5050505050565b60606066805461067a90614153565b61099e338383612d09565b611a2f3383612886565b611a4b5760405162461bcd60e51b81526004016107999061418e565b611a5784848484612dd8565b50505050565b600260fb541415611a805760405162461bcd60e51b815260040161079990614233565b600260fb8190556000838152610130602090815260408083208151610160810183528154815260018201546001600160a01b03169381019390935293840180549394929391840191611ad190614153565b80601f0160208091040260200160405190810160405280929190818152602001828054611afd90614153565b8015611b4a5780601f10611b1f57610100808354040283529160200191611b4a565b820191906000526020600020905b815481529060010190602001808311611b2d57829003601f168201915b5050509183525050600382015463ffffffff81166020830152600160201b90046001600160a01b03166040820152600482018054606090920191611b8d90614153565b80601f0160208091040260200160405190810160405280929190818152602001828054611bb990614153565b8015611c065780601f10611bdb57610100808354040283529160200191611c06565b820191906000526020600020905b815481529060010190602001808311611be957829003601f168201915b50505050508152602001600582018054611c1f90614153565b80601f0160208091040260200160405190810160405280929190818152602001828054611c4b90614153565b8015611c985780601f10611c6d57610100808354040283529160200191611c98565b820191906000526020600020905b815481529060010190602001808311611c7b57829003601f168201915b5050509183525050600682015460ff161515602080830191909152600783018054604080518285028101850182528281529401939260009084015b82821015611e2257600084815260208082206040805160e08101825260078702909201805460ff9081168452600182015484860152600282015484840152600382015416606084015260048101805483518187028101870190945280845293959194608087019491929084015b82821015611dec578382906000526020600020018054611d5f90614153565b80601f0160208091040260200160405190810160405280929190818152602001828054611d8b90614153565b8015611dd85780601f10611dad57610100808354040283529160200191611dd8565b820191906000526020600020905b815481529060010190602001808311611dbb57829003601f168201915b505050505081526020019060010190611d40565b50505090825250600582015460208083019190915260069092015460ff1615156040909101529082526001929092019101611cd3565b50505090825250600891909101546001600160a01b038116602080840191909152600160a01b90910460ff16151560409092019190915283015151610100820151519192501480611e765750806101400151155b604051806040016040528060038152602001620c8c0d60ea1b81525090611eb05760405162461bcd60e51b815260040161079991906137b2565b5080518015611ec457611ec4848383612e0b565b610120820151611ed58584866130ac565b60405163214863cb60e01b81529094506001600160a01b0382169063214863cb90611f069033908890600401614466565b600060405180830381600087803b158015611f2057600080fd5b505af1158015611f34573d6000803e3d6000fd5b5050600160fb5550505050505050565b600081815261013060205260409020600401805460609190611f6590614153565b80601f0160208091040260200160405190810160405280929190818152602001828054611f9190614153565b8015611fde5780601f10611fb357610100808354040283529160200191611fde565b820191906000526020600020905b815481529060010190602001808311611fc157829003601f168201915b50505050509050919050565b6000818152610130602090815260409182902060039081015483518085019094529083526218981960e91b91830191909152600160201b90046001600160a01b0316331461204b5760405162461bcd60e51b815260040161079991906137b2565b5060009081526101306020526040902060030180546001600160a01b03909216600160201b02640100000000600160c01b0319909216919091179055565b6000828152610130602052604090206006015460ff1680156120c157506000828152606760205260409020546001600160a01b031615155b6120ca57600080fd5b6000818152610131602090815260408083208584529091529020546001600160a01b0316156120f857600080fd5b6000908152610131602090815260408083209383529290522080546001600160a01b03191633179055565b600260fb5414156121465760405162461bcd60e51b815260040161079990614233565b600260fb5561012d546001600160a01b0316336001600160a01b0316146040518060400160405280600381526020016231303160e81b8152509061219d5760405162461bcd60e51b815260040161079991906137b2565b5060006001600160a01b03831661221e57814710156121bb57600080fd5b6040516001600160a01b038516908390600081818185875af1925050503d8060008114612204576040519150601f19603f3d011682016040523d82523d6000602084013e612209565b606091505b5050809150508061221957600080fd5b61229f565b60405163a9059cbb60e01b81526001600160a01b0385811660048301526024820184905284919082169063a9059cbb906044016020604051808303816000875af1158015612270573d6000803e3d6000fd5b505050506040513d601f19601f8201168201806040525081019061229491906142bb565b61229d57600080fd5b505b5050600160fb555050565b600260fb5414156122cd5760405162461bcd60e51b815260040161079990614233565b600260fb8190556000848152610130602090815260408083208151610160810183528154815260018201546001600160a01b0316938101939093529384018054939492939184019161231e90614153565b80601f016020809104026020016040519081016040528092919081815260200182805461234a90614153565b80156123975780601f1061236c57610100808354040283529160200191612397565b820191906000526020600020905b81548152906001019060200180831161237a57829003601f168201915b5050509183525050600382015463ffffffff81166020830152600160201b90046001600160a01b031660408201526004820180546060909201916123da90614153565b80601f016020809104026020016040519081016040528092919081815260200182805461240690614153565b80156124535780601f1061242857610100808354040283529160200191612453565b820191906000526020600020905b81548152906001019060200180831161243657829003601f168201915b5050505050815260200160058201805461246c90614153565b80601f016020809104026020016040519081016040528092919081815260200182805461249890614153565b80156124e55780601f106124ba576101008083540402835291602001916124e5565b820191906000526020600020905b8154815290600101906020018083116124c857829003601f168201915b5050509183525050600682015460ff161515602080830191909152600783018054604080518285028101850182528281529401939260009084015b8282101561266f57600084815260208082206040805160e08101825260078702909201805460ff9081168452600182015484860152600282015484840152600382015416606084015260048101805483518187028101870190945280845293959194608087019491929084015b828210156126395783829060005260206000200180546125ac90614153565b80601f01602080910402602001604051908101604052809291908181526020018280546125d890614153565b80156126255780601f106125fa57610100808354040283529160200191612625565b820191906000526020600020905b81548152906001019060200180831161260857829003601f168201915b50505050508152602001906001019061258d565b50505090825250600582015460208083019190915260069092015460ff1615156040909101529082526001929092019101612520565b50505090825250600891909101546001600160a01b038116602080840191909152600160a01b90910460ff161515604090920191909152830151516101008201515191925014806126c35750806101400151155b604051806040016040528060038152602001620c8c0d60ea1b815250906126fd5760405162461bcd60e51b815260040161079991906137b2565b5080608001516001600160a01b0316336001600160a01b03161461272057600080fd5b8051801561273357612733858383612e0b565b6101208201516127448684866130ac565b604051631ef4aaab60e11b81529094506001600160a01b03821690633de95556906127779033908990899060040161448a565b600060405180830381600087803b15801561279157600080fd5b505af11580156127a5573d6000803e3d6000fd5b5050600160fb555050505050505050565b6000818152606760205260409020546001600160a01b03166128155760405162461bcd60e51b8152602060048201526018602482015277115490cdcc8c4e881a5b9d985b1a59081d1bdad95b88125160421b6044820152606401610799565b50565b600081815260696020526040902080546001600160a01b0319166001600160a01b038416908117909155819061284d82610c04565b6001600160a01b03167f8c5be1e5ebec7d5bd14f71427d1e84f3dd0314c0f7b2291e5b200ac8c7c3b92560405160405180910390a45050565b60008061289283610c04565b9050806001600160a01b0316846001600160a01b031614806128d957506001600160a01b038082166000908152606a602090815260408083209388168352929052205460ff165b806128fd5750836001600160a01b03166128f2846106fd565b6001600160a01b0316145b949350505050565b826001600160a01b031661291882610c04565b6001600160a01b03161461297c5760405162461bcd60e51b815260206004820152602560248201527f4552433732313a207472616e736665722066726f6d20696e636f72726563742060448201526437bbb732b960d91b6064820152608401610799565b6001600160a01b0382166129de5760405162461bcd60e51b8152602060048201526024808201527f4552433732313a207472616e7366657220746f20746865207a65726f206164646044820152637265737360e01b6064820152608401610799565b6129e98383836131bc565b6129f4600082612818565b6001600160a01b0383166000908152606860205260408120805460019290612a1d9084906144b1565b90915550506001600160a01b0382166000908152606860205260408120805460019290612a4b9084906144c8565b909155505060008181526067602052604080822080546001600160a01b0319166001600160a01b0386811691821790925591518493918716917fddf252ad1be2c89b69c2b068fc378daa952ba7f163c4a11628f55a4df523b3ef91a4505050565b612ab4613223565b6097805460ff191690557f5db9ee0a495bf2e6ff9c91a7834c1ba4fdd244a5e8aa4e537bd38aeae4b073aa335b6040516001600160a01b03909116815260200160405180910390a1565b612b0661326c565b6097805460ff191660011790557f62e78cea01bee320cd4e420270b5ea74000d11b0c9f74754ebdbfc544b05a258612ae13390565b61099e8282604051806020016040528060008152506132b2565b6000604051733d602d80600a3d3981f3363d3d373d3d3d363d7360601b81528260601b60148201526e5af43d82803e903d91602b57fd5bf360881b60288201526037816000f09150506001600160a01b038116612bed5760405162461bcd60e51b8152602060048201526016602482015275115490cc4c4d8dce8818dc99585d194819985a5b195960521b6044820152606401610799565b919050565b60606000612c0085856144b1565b612c0b9060016144c8565b6001600160401b03811115612c2257612c2261382a565b6040519080825280601f01601f191660200182016040528015612c4c576020820181803683370190505b50905060005b612c5c86866144b1565b8111612ccf57836001612c6f88846144c8565b612c7991906144b1565b81518110612c8957612c896142d8565b602001015160f81c60f81b828281518110612ca657612ca66142d8565b60200101906001600160f81b031916908160001a90535080612cc78161426a565b915050612c52565b50949350505050565b600054610100900460ff16612cff5760405162461bcd60e51b8152600401610799906144e0565b61099e82826132e5565b816001600160a01b0316836001600160a01b03161415612d6b5760405162461bcd60e51b815260206004820152601960248201527f4552433732313a20617070726f766520746f2063616c6c6572000000000000006044820152606401610799565b6001600160a01b038381166000818152606a6020908152604080832094871680845294825291829020805460ff191686151590811790915591519182527f17307eab39ab6107e8899845ad3d59bd9653f200f220920489ca2b5937696c31910160405180910390a3505050565b612de3848484612905565b612def84848484613333565b611a575760405162461bcd60e51b81526004016107999061452b565b33612e1584610c04565b6001600160a01b03161461083a5761012e54604080518082018252600c81526b4d494e545f4e46545f46454560a01b60208201529051636d12dce160e01b81526001600160a01b03909216916000918391636d12dce191612e78916004016137b2565b602060405180830381865afa158015612e95573d6000803e3d6000fd5b505050506040513d601f19601f82011682018060405250810190612eb99190614285565b905080612ec557506101f45b60208401516001600160a01b0316612f6e5782341015612ee457600080fd5b6000612eef86610c04565b6001600160a01b0316612710612f0584876141f2565b612f0f9190614211565b612f1990866144b1565b604051600081818185875af1925050503d8060008114612f55576040519150601f19603f3d011682016040523d82523d6000602084013e612f5a565b606091505b5050905080612f6857600080fd5b50611a04565b60208401516040516323b872dd60e01b8152336004820152306024820152604481018590526001600160a01b038216906323b872dd906064016020604051808303816000875af1158015612fc6573d6000803e3d6000fd5b505050506040513d601f19601f82011682018060405250810190612fea91906142bb565b612ff357600080fd5b806001600160a01b031663a9059cbb61300b88610c04565b61271061301886896141f2565b6130229190614211565b61302c90886144b1565b6040516001600160e01b031960e085901b1681526001600160a01b03909216600483015260248201526044016020604051808303816000875af1158015613077573d6000803e3d6000fd5b505050506040513d601f19601f8201168201806040525081019061309b91906142bb565b6130a457600080fd5b505050505050565b6040805180820190915260008152606060208201528260e00151613106576130d43385613431565b808352600090815261013160209081526040808320878452909152902080546001600160a01b031916331790556131b5565b81516000908152610131602090815260408083208784529091529020546001600160a01b03161561313657600080fd5b8151600090815261013260209081526040808320878452825291829020548251808401909352600383526232303560e81b9183019190915260ff161561318f5760405162461bcd60e51b815260040161079991906137b2565b5081516000908152610132602090815260408083208784529091529020805460ff191690555b5092915050565b60975460ff161561083a5760405162461bcd60e51b815260206004820152602b60248201527f4552433732315061757361626c653a20746f6b656e207472616e73666572207760448201526a1a1a5b19481c185d5cd95960aa1b6064820152608401610799565b60975460ff16610a545760405162461bcd60e51b815260206004820152601460248201527314185d5cd8589b194e881b9bdd081c185d5cd95960621b6044820152606401610799565b60975460ff1615610a545760405162461bcd60e51b815260206004820152601060248201526f14185d5cd8589b194e881c185d5cd95960821b6044820152606401610799565b6132bc8383613489565b6132c96000848484613333565b61083a5760405162461bcd60e51b81526004016107999061452b565b600054610100900460ff1661330c5760405162461bcd60e51b8152600401610799906144e0565b815161331f9060659060208501906135d7565b50805161083a9060669060208401906135d7565b60006001600160a01b0384163b1561342657604051630a85bd0160e11b81526001600160a01b0385169063150b7a029061337790339089908890889060040161457d565b6020604051808303816000875af19250505080156133b2575060408051601f3d908101601f191682019092526133af918101906145ba565b60015b61340c573d8080156133e0576040519150601f19603f3d011682016040523d82523d6000602084013e6133e5565b606091505b5080516134045760405162461bcd60e51b81526004016107999061452b565b805181602001fd5b6001600160e01b031916630a85bd0160e11b1490506128fd565b506001949350505050565b600061343e6001436144b1565b60408051914060208301526bffffffffffffffffffffffff19606086901b16908201526054810183905260740160405160208183030381529060405280519060200120905092915050565b6001600160a01b0382166134df5760405162461bcd60e51b815260206004820181905260248201527f4552433732313a206d696e7420746f20746865207a65726f20616464726573736044820152606401610799565b6000818152606760205260409020546001600160a01b0316156135445760405162461bcd60e51b815260206004820152601c60248201527f4552433732313a20746f6b656e20616c7265616479206d696e746564000000006044820152606401610799565b613550600083836131bc565b6001600160a01b03821660009081526068602052604081208054600192906135799084906144c8565b909155505060008181526067602052604080822080546001600160a01b0319166001600160a01b03861690811790915590518392907fddf252ad1be2c89b69c2b068fc378daa952ba7f163c4a11628f55a4df523b3ef908290a45050565b8280546135e390614153565b90600052602060002090601f016020900481019282613605576000855561364b565b82601f1061361e57805160ff191683800117855561364b565b8280016001018555821561364b579182015b8281111561364b578251825591602001919060010190613630565b506136579291506136b4565b5090565b8280548282559060005260206000209081019282156136a8579160200282015b828111156136a857825180516136989184916020909101906135d7565b509160200191906001019061367b565b506136579291506136c9565b5b8082111561365757600081556001016136b5565b808211156136575760006136dd82826136e6565b506001016136c9565b5080546136f290614153565b6000825580601f10613702575050565b601f01602090049060005260206000209081019061281591906136b4565b6001600160e01b03198116811461281557600080fd5b60006020828403121561374857600080fd5b813561375381613720565b9392505050565b60005b8381101561377557818101518382015260200161375d565b83811115611a575750506000910152565b6000815180845261379e81602086016020860161375a565b601f01601f19169290920160200192915050565b6020815260006137536020830184613786565b6000602082840312156137d757600080fd5b5035919050565b6001600160a01b038116811461281557600080fd5b8035612bed816137de565b6000806040838503121561381157600080fd5b823561381c816137de565b946020939093013593505050565b634e487b7160e01b600052604160045260246000fd5b60405160e081016001600160401b03811182821017156138625761386261382a565b60405290565b604080519081016001600160401b03811182821017156138625761386261382a565b604051601f8201601f191681016001600160401b03811182821017156138b2576138b261382a565b604052919050565b60006001600160401b038211156138d3576138d361382a565b50601f01601f191660200190565b60006138f46138ef846138ba565b61388a565b905082815283838301111561390857600080fd5b828260208301376000602084830101529392505050565b600082601f83011261393057600080fd5b613753838335602085016138e1565b6000806040838503121561395257600080fd5b82356001600160401b0381111561396857600080fd5b6139748582860161391f565b95602094909401359450505050565b6000806040838503121561399657600080fd5b82356139a1816137de565b915060208301356139b1816137de565b809150509250929050565b6000806000606084860312156139d157600080fd5b83356139dc816137de565b925060208401356139ec816137de565b929592945050506040919091013590565b60008060408385031215613a1057600080fd5b50508035926020909101359150565b602080825282518282018190526000919060409081850190600581811b8701840188860187805b85811015613b05578a8403603f190187528251805160ff90811686528a8201518b870152898201518a8701526060808301519091169086015260808082015160e0918701829052805191870182905261010080880192808a1b8901909101918d01865b82811015613ad75760ff198a8503018552613ac5848351613786565b948f01949350908e0190600101613aa9565b50505060a0838101519088015260c09283015115159290960191909152509588019591880191600101613a46565b50919a9950505050505050505050565b600060208284031215613b2757600080fd5b8135613753816137de565b60008060408385031215613b4557600080fd5b8235915060208301356001600160401b03811115613b6257600080fd5b613b6e8582860161391f565b9150509250929050565b8a81526001600160a01b038a8116602083015261014060408301819052600091613ba48483018d613786565b915063ffffffff8b166060850152808a16608085015283820360a0850152613bcc828a613786565b915083820360c0850152613be08289613786565b96151560e085015294909416610100830152509015156101209091015250979650505050505050565b803563ffffffff81168114612bed57600080fd5b801515811461281557600080fd5b8035612bed81613c1d565b60006001600160401b03821115613c4f57613c4f61382a565b5060051b60200190565b803560ff81168114612bed57600080fd5b600082601f830112613c7b57600080fd5b81356020613c8b6138ef83613c36565b82815260059290921b84018101918181019086841115613caa57600080fd5b8286015b84811015613ce95780356001600160401b03811115613ccd5760008081fd5b613cdb8986838b010161391f565b845250918301918301613cae565b509695505050505050565b600082601f830112613d0557600080fd5b81356020613d156138ef83613c36565b82815260059290921b84018101918181019086841115613d3457600080fd5b8286015b84811015613ce95780356001600160401b0380821115613d585760008081fd5b9088019060e0828b03601f1901811315613d725760008081fd5b613d7a613840565b613d85888501613c59565b8152604080850135898301526060808601358284015260809150613daa828701613c59565b9083015260a08581013585811115613dc25760008081fd5b613dd08f8c838a0101613c6a565b838501525060c0945084860135818401525050613dee828501613c2b565b9281019290925250845250918301918301613d38565b6000806000806000806000806000806101408b8d031215613e2457600080fd5b613e2d8b6137f3565b995060208b01356001600160401b0380821115613e4957600080fd5b613e558e838f0161391f565b9a5060408d0135995060608d01359850613e7160808e01613c09565b9750613e7f60a08e01613c2b565b965060c08d0135915080821115613e9557600080fd5b613ea18e838f0161391f565b955060e08d01359450613eb76101008e016137f3565b93506101208d0135915080821115613ece57600080fd5b50613edb8d828e01613cf4565b9150509295989b9194979a5092959850565b60008060008060808587031215613f0357600080fd5b84356001600160401b0380821115613f1a57600080fd5b613f268883890161391f565b95506020870135915080821115613f3c57600080fd5b50613f498782880161391f565b9350506040850135613f5a816137de565b91506060850135613f6a816137de565b939692955090935050565b60008060408385031215613f8857600080fd5b8235613f93816137de565b915060208301356139b181613c1d565b60008060008060808587031215613fb957600080fd5b8435613fc4816137de565b93506020850135613fd4816137de565b92506040850135915060608501356001600160401b03811115613ff657600080fd5b8501601f8101871361400757600080fd5b614016878235602084016138e1565b91505092959194509250565b60006040828403121561403457600080fd5b61403c613868565b9050813581526020808301356001600160401b0381111561405c57600080fd5b8301601f8101851361406d57600080fd5b803561407b6138ef82613c36565b81815260059190911b8201830190838101908783111561409a57600080fd5b928401925b828410156140b85783358252928401929084019061409f565b8085870152505050505092915050565b600080604083850312156140db57600080fd5b8235915060208301356001600160401b038111156140f857600080fd5b613b6e85828601614022565b60008060006060848603121561411957600080fd5b833592506020840135915060408401356001600160401b0381111561413d57600080fd5b61414986828701614022565b9150509250925092565b600181811c9082168061416757607f821691505b6020821081141561418857634e487b7160e01b600052602260045260246000fd5b50919050565b6020808252602e908201527f4552433732313a2063616c6c6572206973206e6f7420746f6b656e206f776e6560408201526d1c881b9bdc88185c1c1c9bdd995960921b606082015260800190565b634e487b7160e01b600052601160045260246000fd5b600081600019048311821515161561420c5761420c6141dc565b500290565b60008261422e57634e487b7160e01b600052601260045260246000fd5b500490565b6020808252601f908201527f5265656e7472616e637947756172643a207265656e7472616e742063616c6c00604082015260600190565b600060001982141561427e5761427e6141dc565b5060010190565b60006020828403121561429757600080fd5b5051919050565b6000602082840312156142b057600080fd5b8151613753816137de565b6000602082840312156142cd57600080fd5b815161375381613c1d565b634e487b7160e01b600052603260045260246000fd5b600060ff821660ff811415614305576143056141dc565b60010192915050565b60006020828403121561432057600080fd5b81516001600160401b0381111561433657600080fd5b8201601f8101841361434757600080fd5b80516143556138ef826138ba565b81815285602083850101111561436a57600080fd5b61437b82602083016020860161375a565b95945050505050565b602081526000825160e060208401526143a1610100840182613786565b90506020840151601f19808584030160408601526143bf8383613786565b92506040860151915080858403016060860152506143dd8282613786565b91505060018060a01b036060850151166080840152608084015160a084015260a084015160c084015260c084015160e08401528091505092915050565b600060408301825184526020808401516040828701528281518085526060880191508383019450600092505b80831015613ce95784518252938301936001929092019190830190614446565b6001600160a01b03831681526040602082018190526000906128fd9083018461441a565b60018060a01b038416815282602082015260606040820152600061437b606083018461441a565b6000828210156144c3576144c36141dc565b500390565b600082198211156144db576144db6141dc565b500190565b6020808252602b908201527f496e697469616c697a61626c653a20636f6e7472616374206973206e6f74206960408201526a6e697469616c697a696e6760a81b606082015260800190565b60208082526032908201527f4552433732313a207472616e7366657220746f206e6f6e20455243373231526560408201527131b2b4bb32b91034b6b83632b6b2b73a32b960711b606082015260800190565b6001600160a01b03858116825284166020820152604081018390526080606082018190526000906145b090830184613786565b9695505050505050565b6000602082840312156145cc57600080fd5b81516137538161372056fea2646970667358221220284a37314c966aa10bf9f994b5900596f89dd6db31eab47f1afc652d308393e064736f6c634300080c0033",
  "linkReferences": {},
  "deployedLinkReferences": {}
}