{
  "_format": "hh-sol-artifact-1",
  "contractName": "GenerativeBoilerplateNFT",
  "sourceName": "contracts/nft/GenerativeBoilerplateNFT.sol",
  "abi": [
    {
      "anonymous": false,
      "inputs": [
        {
          "indexed": true,
          "internalType": "address",
          "name": "owner",
          "type": "address"
        },
        {
          "indexed": true,
          "internalType": "address",
          "name": "approved",
          "type": "address"
        },
        {
          "indexed": true,
          "internalType": "uint256",
          "name": "tokenId",
          "type": "uint256"
        }
      ],
      "name": "Approval",
      "type": "event"
    },
    {
      "anonymous": false,
      "inputs": [
        {
          "indexed": true,
          "internalType": "address",
          "name": "owner",
          "type": "address"
        },
        {
          "indexed": true,
          "internalType": "address",
          "name": "operator",
          "type": "address"
        },
        {
          "indexed": false,
          "internalType": "bool",
          "name": "approved",
          "type": "bool"
        }
      ],
      "name": "ApprovalForAll",
      "type": "event"
    },
    {
      "anonymous": false,
      "inputs": [
        {
          "indexed": false,
          "internalType": "address",
          "name": "sender",
          "type": "address"
        },
        {
          "indexed": false,
          "internalType": "uint256",
          "name": "projectId",
          "type": "uint256"
        },
        {
          "indexed": false,
          "internalType": "bytes32[]",
          "name": "seeds",
          "type": "bytes32[]"
        }
      ],
      "name": "GenerateSeeds",
      "type": "event"
    },
    {
      "anonymous": false,
      "inputs": [
        {
          "indexed": false,
          "internalType": "uint8",
          "name": "version",
          "type": "uint8"
        }
      ],
      "name": "Initialized",
      "type": "event"
    },
    {
      "anonymous": false,
      "inputs": [
        {
          "indexed": false,
          "internalType": "address",
          "name": "sender",
          "type": "address"
        },
        {
          "components": [
            {
              "internalType": "uint256",
              "name": "_fromProjectId",
              "type": "uint256"
            },
            {
              "internalType": "address",
              "name": "_mintTo",
              "type": "address"
            },
            {
              "internalType": "string[]",
              "name": "_uriBatch",
              "type": "string[]"
            },
            {
              "components": [
                {
                  "internalType": "bytes32",
                  "name": "_seed",
                  "type": "bytes32"
                },
                {
                  "components": [
                    {
                      "internalType": "uint8",
                      "name": "_typeValue",
                      "type": "uint8"
                    },
                    {
                      "internalType": "uint256",
                      "name": "_max",
                      "type": "uint256"
                    },
                    {
                      "internalType": "uint256",
                      "name": "_min",
                      "type": "uint256"
                    },
                    {
                      "internalType": "uint8",
                      "name": "_decimal",
                      "type": "uint8"
                    },
                    {
                      "internalType": "string[]",
                      "name": "_availableValues",
                      "type": "string[]"
                    },
                    {
                      "internalType": "uint256",
                      "name": "_value",
                      "type": "uint256"
                    },
                    {
                      "internalType": "bool",
                      "name": "_editable",
                      "type": "bool"
                    }
                  ],
                  "internalType": "struct BoilerplateParam.ParamTemplate[]",
                  "name": "_params",
                  "type": "tuple[]"
                }
              ],
              "internalType": "struct BoilerplateParam.ParamsOfProject[]",
              "name": "_paramsBatch",
              "type": "tuple[]"
            }
          ],
          "indexed": false,
          "internalType": "struct IGenerativeBoilerplateNFT.MintRequest",
          "name": "request",
          "type": "tuple"
        }
      ],
      "name": "MintBatchNFT",
      "type": "event"
    },
    {
      "anonymous": false,
      "inputs": [
        {
          "indexed": false,
          "internalType": "address",
          "name": "account",
          "type": "address"
        }
      ],
      "name": "Paused",
      "type": "event"
    },
    {
      "anonymous": false,
      "inputs": [
        {
          "indexed": true,
          "internalType": "bytes32",
          "name": "role",
          "type": "bytes32"
        },
        {
          "indexed": true,
          "internalType": "bytes32",
          "name": "previousAdminRole",
          "type": "bytes32"
        },
        {
          "indexed": true,
          "internalType": "bytes32",
          "name": "newAdminRole",
          "type": "bytes32"
        }
      ],
      "name": "RoleAdminChanged",
      "type": "event"
    },
    {
      "anonymous": false,
      "inputs": [
        {
          "indexed": true,
          "internalType": "bytes32",
          "name": "role",
          "type": "bytes32"
        },
        {
          "indexed": true,
          "internalType": "address",
          "name": "account",
          "type": "address"
        },
        {
          "indexed": true,
          "internalType": "address",
          "name": "sender",
          "type": "address"
        }
      ],
      "name": "RoleGranted",
      "type": "event"
    },
    {
      "anonymous": false,
      "inputs": [
        {
          "indexed": true,
          "internalType": "bytes32",
          "name": "role",
          "type": "bytes32"
        },
        {
          "indexed": true,
          "internalType": "address",
          "name": "account",
          "type": "address"
        },
        {
          "indexed": true,
          "internalType": "address",
          "name": "sender",
          "type": "address"
        }
      ],
      "name": "RoleRevoked",
      "type": "event"
    },
    {
      "anonymous": false,
      "inputs": [
        {
          "indexed": true,
          "internalType": "address",
          "name": "from",
          "type": "address"
        },
        {
          "indexed": true,
          "internalType": "address",
          "name": "to",
          "type": "address"
        },
        {
          "indexed": true,
          "internalType": "uint256",
          "name": "tokenId",
          "type": "uint256"
        }
      ],
      "name": "Transfer",
      "type": "event"
    },
    {
      "anonymous": false,
      "inputs": [
        {
          "indexed": false,
          "internalType": "address",
          "name": "account",
          "type": "address"
        }
      ],
      "name": "Unpaused",
      "type": "event"
    },
    {
      "inputs": [],
      "name": "DEFAULT_ADMIN_ROLE",
      "outputs": [
        {
          "internalType": "bytes32",
          "name": "",
          "type": "bytes32"
        }
      ],
      "stateMutability": "view",
      "type": "function"
    },
    {
      "inputs": [],
      "name": "MINTER_ROLE",
      "outputs": [
        {
          "internalType": "bytes32",
          "name": "",
          "type": "bytes32"
        }
      ],
      "stateMutability": "view",
      "type": "function"
    },
    {
      "inputs": [],
      "name": "PAUSER_ROLE",
      "outputs": [
        {
          "internalType": "bytes32",
          "name": "",
          "type": "bytes32"
        }
      ],
      "stateMutability": "view",
      "type": "function"
    },
    {
      "inputs": [],
      "name": "_admin",
      "outputs": [
        {
          "internalType": "address",
          "name": "",
          "type": "address"
        }
      ],
      "stateMutability": "view",
      "type": "function"
    },
    {
      "inputs": [
        {
          "internalType": "address",
          "name": "",
          "type": "address"
        },
        {
          "internalType": "address",
          "name": "",
          "type": "address"
        }
      ],
      "name": "_approvalForAllSeeds",
      "outputs": [
        {
          "internalType": "uint256",
          "name": "",
          "type": "uint256"
        }
      ],
      "stateMutability": "view",
      "type": "function"
    },
    {
      "inputs": [],
      "name": "_paramsAddress",
      "outputs": [
        {
          "internalType": "address",
          "name": "",
          "type": "address"
        }
      ],
      "stateMutability": "view",
      "type": "function"
    },
    {
      "inputs": [
        {
          "internalType": "uint256",
          "name": "",
          "type": "uint256"
        }
      ],
      "name": "_projects",
      "outputs": [
        {
          "internalType": "uint256",
          "name": "_fee",
          "type": "uint256"
        },
        {
          "internalType": "address",
          "name": "_feeToken",
          "type": "address"
        },
        {
          "internalType": "uint256",
          "name": "_mintMaxSupply",
          "type": "uint256"
        },
        {
          "internalType": "uint256",
          "name": "_mintTotalSupply",
          "type": "uint256"
        },
        {
          "internalType": "string",
          "name": "_script",
          "type": "string"
        },
        {
          "internalType": "uint32",
          "name": "_scriptType",
          "type": "uint32"
        },
        {
          "internalType": "address",
          "name": "_creator",
          "type": "address"
        },
        {
          "internalType": "string",
          "name": "_customUri",
          "type": "string"
        },
        {
          "internalType": "string",
          "name": "_projectName",
          "type": "string"
        },
        {
          "internalType": "bool",
          "name": "_clientSeed",
          "type": "bool"
        },
        {
          "components": [
            {
              "internalType": "bytes32",
              "name": "_seed",
              "type": "bytes32"
            },
            {
              "components": [
                {
                  "internalType": "uint8",
                  "name": "_typeValue",
                  "type": "uint8"
                },
                {
                  "internalType": "uint256",
                  "name": "_max",
                  "type": "uint256"
                },
                {
                  "internalType": "uint256",
                  "name": "_min",
                  "type": "uint256"
                },
                {
                  "internalType": "uint8",
                  "name": "_decimal",
                  "type": "uint8"
                },
                {
                  "internalType": "string[]",
                  "name": "_availableValues",
                  "type": "string[]"
                },
                {
                  "internalType": "uint256",
                  "name": "_value",
                  "type": "uint256"
                },
                {
                  "internalType": "bool",
                  "name": "_editable",
                  "type": "bool"
                }
              ],
              "internalType": "struct BoilerplateParam.ParamTemplate[]",
              "name": "_params",
              "type": "tuple[]"
            }
          ],
          "internalType": "struct BoilerplateParam.ParamsOfProject",
          "name": "_paramsTemplate",
          "type": "tuple"
        },
        {
          "internalType": "address",
          "name": "_minterNFTInfo",
          "type": "address"
        },
        {
          "internalType": "uint256",
          "name": "_mintNotOwnerProjectMaxSupply",
          "type": "uint256"
        },
        {
          "internalType": "uint256",
          "name": "_mintNotOnwerProjectTotalSupply",
          "type": "uint256"
        }
      ],
      "stateMutability": "view",
      "type": "function"
    },
    {
      "inputs": [
        {
          "internalType": "address",
          "name": "to",
          "type": "address"
        },
        {
          "internalType": "uint256",
          "name": "tokenId",
          "type": "uint256"
        }
      ],
      "name": "approve",
      "outputs": [],
      "stateMutability": "nonpayable",
      "type": "function"
    },
    {
      "inputs": [
        {
          "internalType": "address",
          "name": "operator",
          "type": "address"
        },
        {
          "internalType": "uint256",
          "name": "projectId",
          "type": "uint256"
        }
      ],
      "name": "approveForAllSeeds",
      "outputs": [],
      "stateMutability": "nonpayable",
      "type": "function"
    },
    {
      "inputs": [
        {
          "internalType": "address",
          "name": "owner",
          "type": "address"
        }
      ],
      "name": "balanceOf",
      "outputs": [
        {
          "internalType": "uint256",
          "name": "",
          "type": "uint256"
        }
      ],
      "stateMutability": "view",
      "type": "function"
    },
    {
      "inputs": [],
      "name": "baseTokenURI",
      "outputs": [
        {
          "internalType": "string",
          "name": "",
          "type": "string"
        }
      ],
      "stateMutability": "view",
      "type": "function"
    },
    {
      "inputs": [
        {
          "internalType": "uint256",
          "name": "tokenId",
          "type": "uint256"
        }
      ],
      "name": "burn",
      "outputs": [],
      "stateMutability": "nonpayable",
      "type": "function"
    },
    {
      "inputs": [
        {
          "internalType": "address",
          "name": "newAdm",
          "type": "address"
        }
      ],
      "name": "changeAdmin",
      "outputs": [],
      "stateMutability": "nonpayable",
      "type": "function"
    },
    {
      "inputs": [
        {
          "internalType": "uint256",
          "name": "_id",
          "type": "uint256"
        }
      ],
      "name": "exists",
      "outputs": [
        {
          "internalType": "bool",
          "name": "",
          "type": "bool"
        }
      ],
      "stateMutability": "view",
      "type": "function"
    },
    {
      "inputs": [
        {
          "internalType": "uint256",
          "name": "projectId",
          "type": "uint256"
        },
        {
          "internalType": "uint256",
          "name": "amount",
          "type": "uint256"
        }
      ],
      "name": "generateSeeds",
      "outputs": [],
      "stateMutability": "nonpayable",
      "type": "function"
    },
    {
      "inputs": [
        {
          "internalType": "uint256",
          "name": "tokenId",
          "type": "uint256"
        }
      ],
      "name": "getApproved",
      "outputs": [
        {
          "internalType": "address",
          "name": "",
          "type": "address"
        }
      ],
      "stateMutability": "view",
      "type": "function"
    },
    {
      "inputs": [
        {
          "internalType": "bytes32",
          "name": "role",
          "type": "bytes32"
        }
      ],
      "name": "getRoleAdmin",
      "outputs": [
        {
          "internalType": "bytes32",
          "name": "",
          "type": "bytes32"
        }
      ],
      "stateMutability": "view",
      "type": "function"
    },
    {
      "inputs": [
        {
          "internalType": "bytes32",
          "name": "role",
          "type": "bytes32"
        },
        {
          "internalType": "uint256",
          "name": "index",
          "type": "uint256"
        }
      ],
      "name": "getRoleMember",
      "outputs": [
        {
          "internalType": "address",
          "name": "",
          "type": "address"
        }
      ],
      "stateMutability": "view",
      "type": "function"
    },
    {
      "inputs": [
        {
          "internalType": "bytes32",
          "name": "role",
          "type": "bytes32"
        }
      ],
      "name": "getRoleMemberCount",
      "outputs": [
        {
          "internalType": "uint256",
          "name": "",
          "type": "uint256"
        }
      ],
      "stateMutability": "view",
      "type": "function"
    },
    {
      "inputs": [
        {
          "internalType": "bytes32",
          "name": "role",
          "type": "bytes32"
        },
        {
          "internalType": "address",
          "name": "account",
          "type": "address"
        }
      ],
      "name": "grantRole",
      "outputs": [],
      "stateMutability": "nonpayable",
      "type": "function"
    },
    {
      "inputs": [
        {
          "internalType": "bytes32",
          "name": "role",
          "type": "bytes32"
        },
        {
          "internalType": "address",
          "name": "account",
          "type": "address"
        }
      ],
      "name": "hasRole",
      "outputs": [
        {
          "internalType": "bool",
          "name": "",
          "type": "bool"
        }
      ],
      "stateMutability": "view",
      "type": "function"
    },
    {
      "inputs": [
        {
          "internalType": "string",
          "name": "name",
          "type": "string"
        },
        {
          "internalType": "string",
          "name": "symbol",
          "type": "string"
        },
        {
          "internalType": "string",
          "name": "baseTokenURI",
          "type": "string"
        }
      ],
      "name": "initialize",
      "outputs": [],
      "stateMutability": "nonpayable",
      "type": "function"
    },
    {
      "inputs": [
        {
          "internalType": "string",
          "name": "name",
          "type": "string"
        },
        {
          "internalType": "string",
          "name": "symbol",
          "type": "string"
        },
        {
          "internalType": "string",
          "name": "baseUri",
          "type": "string"
        },
        {
          "internalType": "address",
          "name": "admin",
          "type": "address"
        },
        {
          "internalType": "address",
          "name": "paramsAddress",
          "type": "address"
        }
      ],
      "name": "initialize",
      "outputs": [],
      "stateMutability": "nonpayable",
      "type": "function"
    },
    {
      "inputs": [
        {
          "internalType": "address",
          "name": "owner",
          "type": "address"
        },
        {
          "internalType": "address",
          "name": "operator",
          "type": "address"
        }
      ],
      "name": "isApprovedForAll",
      "outputs": [
        {
          "internalType": "bool",
          "name": "",
          "type": "bool"
        }
      ],
      "stateMutability": "view",
      "type": "function"
    },
    {
      "inputs": [
        {
          "internalType": "address",
          "name": "operator",
          "type": "address"
        },
        {
          "internalType": "bytes32",
          "name": "seed",
          "type": "bytes32"
        },
        {
          "internalType": "uint256",
          "name": "projectId",
          "type": "uint256"
        }
      ],
      "name": "isApprovedOrOwnerForSeed",
      "outputs": [
        {
          "internalType": "bool",
          "name": "",
          "type": "bool"
        }
      ],
      "stateMutability": "view",
      "type": "function"
    },
    {
      "inputs": [
        {
          "internalType": "address",
          "name": "to",
          "type": "address"
        }
      ],
      "name": "mint",
      "outputs": [],
      "stateMutability": "nonpayable",
      "type": "function"
    },
    {
      "inputs": [
        {
          "components": [
            {
              "internalType": "uint256",
              "name": "_fromProjectId",
              "type": "uint256"
            },
            {
              "internalType": "address",
              "name": "_mintTo",
              "type": "address"
            },
            {
              "internalType": "string[]",
              "name": "_uriBatch",
              "type": "string[]"
            },
            {
              "components": [
                {
                  "internalType": "bytes32",
                  "name": "_seed",
                  "type": "bytes32"
                },
                {
                  "components": [
                    {
                      "internalType": "uint8",
                      "name": "_typeValue",
                      "type": "uint8"
                    },
                    {
                      "internalType": "uint256",
                      "name": "_max",
                      "type": "uint256"
                    },
                    {
                      "internalType": "uint256",
                      "name": "_min",
                      "type": "uint256"
                    },
                    {
                      "internalType": "uint8",
                      "name": "_decimal",
                      "type": "uint8"
                    },
                    {
                      "internalType": "string[]",
                      "name": "_availableValues",
                      "type": "string[]"
                    },
                    {
                      "internalType": "uint256",
                      "name": "_value",
                      "type": "uint256"
                    },
                    {
                      "internalType": "bool",
                      "name": "_editable",
                      "type": "bool"
                    }
                  ],
                  "internalType": "struct BoilerplateParam.ParamTemplate[]",
                  "name": "_params",
                  "type": "tuple[]"
                }
              ],
              "internalType": "struct BoilerplateParam.ParamsOfProject[]",
              "name": "_paramsBatch",
              "type": "tuple[]"
            }
          ],
          "internalType": "struct IGenerativeBoilerplateNFT.MintRequest",
          "name": "mintBatch",
          "type": "tuple"
        }
      ],
      "name": "mintBatchUniqueNFT",
      "outputs": [],
      "stateMutability": "payable",
      "type": "function"
    },
    {
      "inputs": [
        {
          "internalType": "address",
          "name": "to",
          "type": "address"
        },
        {
          "internalType": "string",
          "name": "projectName",
          "type": "string"
        },
        {
          "internalType": "uint256",
          "name": "maxSupply",
          "type": "uint256"
        },
        {
          "internalType": "uint256",
          "name": "maxNotOwner",
          "type": "uint256"
        },
        {
          "internalType": "string",
          "name": "script",
          "type": "string"
        },
        {
          "internalType": "uint32",
          "name": "scriptType",
          "type": "uint32"
        },
        {
          "internalType": "bool",
          "name": "clientSeed",
          "type": "bool"
        },
        {
          "internalType": "string",
          "name": "uri",
          "type": "string"
        },
        {
          "internalType": "uint256",
          "name": "fee",
          "type": "uint256"
        },
        {
          "internalType": "address",
          "name": "feeAdd",
          "type": "address"
        },
        {
          "components": [
            {
              "internalType": "bytes32",
              "name": "_seed",
              "type": "bytes32"
            },
            {
              "components": [
                {
                  "internalType": "uint8",
                  "name": "_typeValue",
                  "type": "uint8"
                },
                {
                  "internalType": "uint256",
                  "name": "_max",
                  "type": "uint256"
                },
                {
                  "internalType": "uint256",
                  "name": "_min",
                  "type": "uint256"
                },
                {
                  "internalType": "uint8",
                  "name": "_decimal",
                  "type": "uint8"
                },
                {
                  "internalType": "string[]",
                  "name": "_availableValues",
                  "type": "string[]"
                },
                {
                  "internalType": "uint256",
                  "name": "_value",
                  "type": "uint256"
                },
                {
                  "internalType": "bool",
                  "name": "_editable",
                  "type": "bool"
                }
              ],
              "internalType": "struct BoilerplateParam.ParamTemplate[]",
              "name": "_params",
              "type": "tuple[]"
            }
          ],
          "internalType": "struct BoilerplateParam.ParamsOfProject",
          "name": "paramsTemplate",
          "type": "tuple"
        }
      ],
      "name": "mintProject",
      "outputs": [
        {
          "internalType": "uint256",
          "name": "",
          "type": "uint256"
        }
      ],
      "stateMutability": "payable",
      "type": "function"
    },
    {
      "inputs": [],
      "name": "name",
      "outputs": [
        {
          "internalType": "string",
          "name": "",
          "type": "string"
        }
      ],
      "stateMutability": "view",
      "type": "function"
    },
    {
      "inputs": [
        {
          "internalType": "uint256",
          "name": "tokenId",
          "type": "uint256"
        }
      ],
      "name": "ownerOf",
      "outputs": [
        {
          "internalType": "address",
          "name": "",
          "type": "address"
        }
      ],
      "stateMutability": "view",
      "type": "function"
    },
    {
      "inputs": [
        {
          "internalType": "bytes32",
          "name": "seed",
          "type": "bytes32"
        },
        {
          "internalType": "uint256",
          "name": "projectId",
          "type": "uint256"
        }
      ],
      "name": "ownerOfSeed",
      "outputs": [
        {
          "internalType": "address",
          "name": "",
          "type": "address"
        }
      ],
      "stateMutability": "view",
      "type": "function"
    },
    {
      "inputs": [],
      "name": "pause",
      "outputs": [],
      "stateMutability": "nonpayable",
      "type": "function"
    },
    {
      "inputs": [],
      "name": "paused",
      "outputs": [
        {
          "internalType": "bool",
          "name": "",
          "type": "bool"
        }
      ],
      "stateMutability": "view",
      "type": "function"
    },
    {
      "inputs": [
        {
          "internalType": "uint256",
          "name": "projectId",
          "type": "uint256"
        },
        {
          "internalType": "bytes32[]",
          "name": "seeds",
          "type": "bytes32[]"
        }
      ],
      "name": "registerSeeds",
      "outputs": [],
      "stateMutability": "nonpayable",
      "type": "function"
    },
    {
      "inputs": [
        {
          "internalType": "bytes32",
          "name": "role",
          "type": "bytes32"
        },
        {
          "internalType": "address",
          "name": "account",
          "type": "address"
        }
      ],
      "name": "renounceRole",
      "outputs": [],
      "stateMutability": "nonpayable",
      "type": "function"
    },
    {
      "inputs": [
        {
          "internalType": "bytes32",
          "name": "role",
          "type": "bytes32"
        },
        {
          "internalType": "address",
          "name": "account",
          "type": "address"
        }
      ],
      "name": "revokeRole",
      "outputs": [],
      "stateMutability": "nonpayable",
      "type": "function"
    },
    {
      "inputs": [
        {
          "internalType": "uint256",
          "name": "",
          "type": "uint256"
        }
      ],
      "name": "royalties",
      "outputs": [
        {
          "internalType": "address",
          "name": "recipient",
          "type": "address"
        },
        {
          "internalType": "uint24",
          "name": "amount",
          "type": "uint24"
        },
        {
          "internalType": "bool",
          "name": "isValue",
          "type": "bool"
        }
      ],
      "stateMutability": "view",
      "type": "function"
    },
    {
      "inputs": [
        {
          "internalType": "uint256",
          "name": "_tokenId",
          "type": "uint256"
        },
        {
          "internalType": "uint256",
          "name": "_salePrice",
          "type": "uint256"
        }
      ],
      "name": "royaltyInfo",
      "outputs": [
        {
          "internalType": "address",
          "name": "receiver",
          "type": "address"
        },
        {
          "internalType": "uint256",
          "name": "royaltyAmount",
          "type": "uint256"
        }
      ],
      "stateMutability": "view",
      "type": "function"
    },
    {
      "inputs": [
        {
          "internalType": "address",
          "name": "from",
          "type": "address"
        },
        {
          "internalType": "address",
          "name": "to",
          "type": "address"
        },
        {
          "internalType": "uint256",
          "name": "tokenId",
          "type": "uint256"
        }
      ],
      "name": "safeTransferFrom",
      "outputs": [],
      "stateMutability": "nonpayable",
      "type": "function"
    },
    {
      "inputs": [
        {
          "internalType": "address",
          "name": "from",
          "type": "address"
        },
        {
          "internalType": "address",
          "name": "to",
          "type": "address"
        },
        {
          "internalType": "uint256",
          "name": "tokenId",
          "type": "uint256"
        },
        {
          "internalType": "bytes",
          "name": "data",
          "type": "bytes"
        }
      ],
      "name": "safeTransferFrom",
      "outputs": [],
      "stateMutability": "nonpayable",
      "type": "function"
    },
    {
      "inputs": [
        {
          "internalType": "address",
          "name": "operator",
          "type": "address"
        },
        {
          "internalType": "bool",
          "name": "approved",
          "type": "bool"
        }
      ],
      "name": "setApprovalForAll",
      "outputs": [],
      "stateMutability": "nonpayable",
      "type": "function"
    },
    {
      "inputs": [
        {
          "internalType": "address",
          "name": "_to",
          "type": "address"
        },
        {
          "internalType": "uint256",
          "name": "_id",
          "type": "uint256"
        }
      ],
      "name": "setCreator",
      "outputs": [],
      "stateMutability": "nonpayable",
      "type": "function"
    },
    {
      "inputs": [
        {
          "internalType": "uint256",
          "name": "_tokenId",
          "type": "uint256"
        },
        {
          "internalType": "address",
          "name": "_recipient",
          "type": "address"
        },
        {
          "internalType": "uint256",
          "name": "_value",
          "type": "uint256"
        }
      ],
      "name": "setTokenRoyalty",
      "outputs": [],
      "stateMutability": "nonpayable",
      "type": "function"
    },
    {
      "inputs": [
        {
          "internalType": "bytes4",
          "name": "interfaceId",
          "type": "bytes4"
        }
      ],
      "name": "supportsInterface",
      "outputs": [
        {
          "internalType": "bool",
          "name": "",
          "type": "bool"
        }
      ],
      "stateMutability": "view",
      "type": "function"
    },
    {
      "inputs": [],
      "name": "symbol",
      "outputs": [
        {
          "internalType": "string",
          "name": "",
          "type": "string"
        }
      ],
      "stateMutability": "view",
      "type": "function"
    },
    {
      "inputs": [
        {
          "internalType": "uint256",
          "name": "index",
          "type": "uint256"
        }
      ],
      "name": "tokenByIndex",
      "outputs": [
        {
          "internalType": "uint256",
          "name": "",
          "type": "uint256"
        }
      ],
      "stateMutability": "view",
      "type": "function"
    },
    {
      "inputs": [
        {
          "internalType": "address",
          "name": "owner",
          "type": "address"
        },
        {
          "internalType": "uint256",
          "name": "index",
          "type": "uint256"
        }
      ],
      "name": "tokenOfOwnerByIndex",
      "outputs": [
        {
          "internalType": "uint256",
          "name": "",
          "type": "uint256"
        }
      ],
      "stateMutability": "view",
      "type": "function"
    },
    {
      "inputs": [
        {
          "internalType": "uint256",
          "name": "_tokenId",
          "type": "uint256"
        }
      ],
      "name": "tokenURI",
      "outputs": [
        {
          "internalType": "string",
          "name": "",
          "type": "string"
        }
      ],
      "stateMutability": "view",
      "type": "function"
    },
    {
      "inputs": [],
      "name": "totalSupply",
      "outputs": [
        {
          "internalType": "uint256",
          "name": "",
          "type": "uint256"
        }
      ],
      "stateMutability": "view",
      "type": "function"
    },
    {
      "inputs": [
        {
          "internalType": "address",
          "name": "from",
          "type": "address"
        },
        {
          "internalType": "address",
          "name": "to",
          "type": "address"
        },
        {
          "internalType": "uint256",
          "name": "tokenId",
          "type": "uint256"
        }
      ],
      "name": "transferFrom",
      "outputs": [],
      "stateMutability": "nonpayable",
      "type": "function"
    },
    {
      "inputs": [
        {
          "internalType": "address",
          "name": "from",
          "type": "address"
        },
        {
          "internalType": "address",
          "name": "to",
          "type": "address"
        },
        {
          "internalType": "bytes32",
          "name": "seed",
          "type": "bytes32"
        },
        {
          "internalType": "uint256",
          "name": "projectId",
          "type": "uint256"
        }
      ],
      "name": "transferSeed",
      "outputs": [],
      "stateMutability": "nonpayable",
      "type": "function"
    },
    {
      "inputs": [],
      "name": "unpause",
      "outputs": [],
      "stateMutability": "nonpayable",
      "type": "function"
    },
    {
      "inputs": [
        {
          "internalType": "uint256",
          "name": "projectId",
          "type": "uint256"
        },
        {
          "internalType": "uint256",
          "name": "newFee",
          "type": "uint256"
        },
        {
          "internalType": "address",
          "name": "newFeeAddr",
          "type": "address"
        },
        {
          "internalType": "string",
          "name": "newURI",
          "type": "string"
        },
        {
          "internalType": "string",
          "name": "script",
          "type": "string"
        }
      ],
      "name": "updateProject",
      "outputs": [],
      "stateMutability": "nonpayable",
      "type": "function"
    },
    {
      "inputs": [
        {
          "internalType": "address",
          "name": "receiver",
          "type": "address"
        },
        {
          "internalType": "address",
          "name": "erc20Addr",
          "type": "address"
        },
        {
          "internalType": "uint256",
          "name": "amount",
          "type": "uint256"
        }
      ],
      "name": "withdraw",
      "outputs": [],
      "stateMutability": "nonpayable",
      "type": "function"
    }
  ],
  "bytecode": "0x608060405234801561001057600080fd5b50615fd980620000216000396000f3fe6080604052600436106103355760003560e01c80636e4d0fe6116101ab578063adfc7dae116100f7578063d539139311610095578063d6d0faee1161006f578063d6d0faee14610a2d578063d9caed1214610a4d578063e63ab1e914610a6d578063e985e9c514610aa157600080fd5b8063d5391393146109c4578063d547741f146109f8578063d547cfb714610a1857600080fd5b8063b88d4fde116100d1578063b88d4fde14610944578063c87b56dd14610964578063c8cb8a7514610984578063ca15c873146109a457600080fd5b8063adfc7dae146108e3578063afdc94db14610904578063b0f4cf931461092457600080fd5b80639010d07c116101645780639713c8071161013e5780639713c8071461086e578063a217fddf1461088e578063a22cb465146108a3578063a6487c53146108c357600080fd5b80639010d07c1461081957806391d148541461083957806395d89b411461085957600080fd5b80636e4d0fe61461070457806370a08231146107245780637f77f57414610744578063821f9dc9146107bf5780638456cb59146105aa5780638f283970146107f957600080fd5b806335055e90116102855780634f558e79116102235780636006e9ef116101fd5780636006e9ef1461067057806362fe4e4a146106835780636352211e146106c95780636a627842146106e957600080fd5b80634f558e79146106175780634f6ccce7146106375780635c975abb1461065757600080fd5b80633f4ba83a1161025f5780633f4ba83a146105aa57806342842e0e146105b957806342966c68146105d957806346398139146105f757600080fd5b806335055e901461053e57806336568abe1461055157806336bd9e631461057157600080fd5b806318160ddd116102f2578063248a9ca3116102cc578063248a9ca31461048f5780632a55205a146104bf5780632f2ff15d146104fe5780632f745c591461051e57600080fd5b806318160ddd1461042c578063189c168d1461044f57806323b872dd1461046f57600080fd5b806301bc45c91461033a57806301ffc9a71461037857806306fdde03146103a8578063081812fc146103ca578063095ea7b3146103ea5780631697eccf1461040c575b600080fd5b34801561034657600080fd5b506102275461035b906001600160a01b031681565b6040516001600160a01b0390911681526020015b60405180910390f35b34801561038457600080fd5b50610398610393366004614766565b610aea565b604051901515815260200161036f565b3480156103b457600080fd5b506103bd610afb565b60405161036f91906147db565b3480156103d657600080fd5b5061035b6103e53660046147ee565b610b8d565b3480156103f657600080fd5b5061040a610405366004614827565b610bb4565b005b34801561041857600080fd5b5061035b610427366004614853565b610ccf565b34801561043857600080fd5b50610441610d0b565b60405190815260200161036f565b34801561045b57600080fd5b5061040a61046a36600461494a565b610d1c565b34801561047b57600080fd5b5061040a61048a3660046149eb565b610e2a565b34801561049b57600080fd5b506104416104aa3660046147ee565b60009081526065602052604090206001015490565b3480156104cb57600080fd5b506104df6104da366004614853565b610e5b565b604080516001600160a01b03909316835260208301919091520161036f565b34801561050a57600080fd5b5061040a610519366004614a2c565b610f29565b34801561052a57600080fd5b50610441610539366004614827565b610f4e565b61044161054c366004614b18565b610fe4565b34801561055d57600080fd5b5061040a61056c366004614a2c565b6115f1565b34801561057d57600080fd5b5061044161058c366004614c2d565b61022c60209081526000928352604080842090915290825290205481565b3480156105b657600080fd5b50005b3480156105c557600080fd5b5061040a6105d43660046149eb565b61166f565b3480156105e557600080fd5b5061040a6105f43660046147ee565b50565b34801561060357600080fd5b5061040a610612366004614853565b61168a565b34801561062357600080fd5b506103986106323660046147ee565b6117e7565b34801561064357600080fd5b506104416106523660046147ee565b6117f2565b34801561066357600080fd5b5061015f5460ff16610398565b61040a61067e366004614cff565b611885565b34801561068f57600080fd5b5061040a61069e366004614827565b33600090815261022c602090815260408083206001600160a01b039590951683529390529190912055565b3480156106d557600080fd5b5061035b6106e43660046147ee565b6123f2565b3480156106f557600080fd5b5061040a6105f4366004614fc2565b34801561071057600080fd5b5061040a61071f366004614fdf565b612452565b34801561073057600080fd5b5061044161073f366004614fc2565b612500565b34801561075057600080fd5b5061079461075f3660046147ee565b61022e602052600090815260409020546001600160a01b03811690600160a01b810462ffffff1690600160b81b900460ff1683565b604080516001600160a01b03909416845262ffffff909216602084015215159082015260600161036f565b3480156107cb57600080fd5b506107df6107da3660046147ee565b612586565b60405161036f9e9d9c9b9a99989796959493929190615139565b34801561080557600080fd5b5061040a610814366004614fc2565b61294b565b34801561082557600080fd5b5061035b610834366004614853565b612a1d565b34801561084557600080fd5b50610398610854366004614a2c565b612a35565b34801561086557600080fd5b506103bd612a60565b34801561087a57600080fd5b5061040a610889366004615206565b612a6f565b34801561089a57600080fd5b50610441600081565b3480156108af57600080fd5b5061040a6108be36600461522d565b612bc0565b3480156108cf57600080fd5b5061040a6108de36600461525b565b612bcb565b3480156108ef57600080fd5b506102285461035b906001600160a01b031681565b34801561091057600080fd5b5061040a61091f3660046152e2565b612c97565b34801561093057600080fd5b5061039861093f36600461536b565b612d6d565b34801561095057600080fd5b5061040a61095f3660046153a0565b612dde565b34801561097057600080fd5b506103bd61097f3660046147ee565b612e10565b34801561099057600080fd5b5061040a61099f366004614827565b612f19565b3480156109b057600080fd5b506104416109bf3660046147ee565b612fb7565b3480156109d057600080fd5b506104417f9f2df0fed2c77648de5860a4cc508cd0818c85b8b8a1ab4ceeef8d981c8956a681565b348015610a0457600080fd5b5061040a610a13366004614a2c565b612fce565b348015610a2457600080fd5b506103bd612ff3565b348015610a3957600080fd5b5061040a610a4836600461541f565b612ffd565b348015610a5957600080fd5b5061040a610a683660046149eb565b613199565b348015610a7957600080fd5b506104417f65d7a28e3265b37a6474929f336521b332c1681b933f6cb9f3376673440d862a81565b348015610aad57600080fd5b50610398610abc366004614c2d565b6001600160a01b03918216600090815260ce6020908152604080832093909416825291909152205460ff1690565b6000610af582613369565b92915050565b606060c98054610b0a906154ce565b80601f0160208091040260200160405190810160405280929190818152602001828054610b36906154ce565b8015610b835780601f10610b5857610100808354040283529160200191610b83565b820191906000526020600020905b815481529060010190602001808311610b6657829003601f168201915b5050505050905090565b6000610b988261338e565b50600090815260cd60205260409020546001600160a01b031690565b6000610bbf826123f2565b9050806001600160a01b0316836001600160a01b03161415610c325760405162461bcd60e51b815260206004820152602160248201527f4552433732313a20617070726f76616c20746f2063757272656e74206f776e656044820152603960f91b60648201526084015b60405180910390fd5b336001600160a01b0382161480610c4e5750610c4e8133610abc565b610cc05760405162461bcd60e51b815260206004820152603e60248201527f4552433732313a20617070726f76652063616c6c6572206973206e6f7420746f60448201527f6b656e206f776e6572206e6f7220617070726f76656420666f7220616c6c00006064820152608401610c29565b610cca83836133de565b505050565b600082815261022b602090815260408083208484529091528120546001600160a01b031680610d04578360601c915050610af5565b9392505050565b6000610d176102295490565b905090565b600082815261022a602052604090206008015460ff168015610d425750610d428261344c565b610d4b57600080fd5b60005b8151811015610cca5760006001600160a01b031661022b6000848481518110610d7957610d79615503565b602090810291909101810151825281810192909252604090810160009081208782529092529020546001600160a01b031614610db457600080fd5b3361022b6000848481518110610dcc57610dcc615503565b60200260200101518152602001908152602001600020600085815260200190815260200160002060006101000a8154816001600160a01b0302191690836001600160a01b031602179055508080610e229061552f565b915050610d4e565b610e343382613469565b610e505760405162461bcd60e51b8152600401610c299061554a565b610cca8383836134e8565b600082815261022e60209081526040808320815160608101835290546001600160a01b0381168252600160a01b810462ffffff1693820193909352600160b81b90920460ff1615801591830191909152829190610ee0578051602082015190935061271090610ecf9062ffffff1686615598565b610ed991906155cd565b9150610f21565b600085815261022a6020526040902060050154600160201b90046001600160a01b03169250612710610f14856101f4615598565b610f1e91906155cd565b91505b509250929050565b600082815260656020526040902060010154610f448161368f565b610cca8383613699565b6000610f5983612500565b8210610fbb5760405162461bcd60e51b815260206004820152602b60248201527f455243373231456e756d657261626c653a206f776e657220696e646578206f7560448201526a74206f6620626f756e647360a81b6064820152608401610c29565b506001600160a01b0391909116600090815260fb60209081526040808320938352929052205490565b600060026101f554141561100a5760405162461bcd60e51b8152600401610c29906155e1565b60026101f5558a516040805180820190915260038082526203230360ec1b602083015290911161104d5760405162461bcd60e51b8152600401610c2991906147db565b5061105d61022980546001019055565b60006110696102295490565b90506110748161344c565b156040518060400160405280600381526020016219181960e91b815250906110af5760405162461bcd60e51b8152600401610c2991906147db565b5061022854610227546001600160a01b039182169116331461129e5760408051808201825260128152714352454154455f50524f4a4543545f46454560701b60208201529051636d12dce160e01b81526000916001600160a01b03841691636d12dce19161111f916004016147db565b602060405180830381865afa15801561113c573d6000803e3d6000fd5b505050506040513d601f19601f820116820180604052508101906111609190615618565b9050801561129c5760408051808201825260098152682322a2afaa27a5a2a760b91b6020820152905163bf40fac160e01b81526000916001600160a01b0385169163bf40fac1916111b3916004016147db565b602060405180830381865afa1580156111d0573d6000803e3d6000fd5b505050506040513d601f19601f820116820180604052508101906111f49190615631565b90506001600160a01b0381161561128d576040516323b872dd60e01b81523360048201523060248201526044810183905281906001600160a01b038216906323b872dd906064016020604051808303816000875af115801561125a573d6000803e3d6000fd5b505050506040513d601f19601f8201168201806040525081019061127e919061564e565b61128757600080fd5b5061129a565b8134101561129a57600080fd5b505b505b8651156112cd57600082815261022a6020908152604090912088516112cb926006909201918a01906146b7565b505b8c61022a600084815260200190815260200160002060070190805190602001906112f89291906146b7565b5061022754600083815261022a60205260409020600581018054640100000000600160c01b0319166001600160a01b03938416600160201b02179055600281018e9055600c81018d90558781556001810180546001600160a01b03191692881692909217909155849060090161136e8282615a1c565b5050600082815261022a602090815260409091208b51611396926004909201918d01906146b7565b50600082815261022a6020526040902060058101805463ffffffff191663ffffffff8c16179055600801805460ff19168915151790556113d68e836136bb565b604080518082018252601781527f47454e455241544956455f4e46545f54454d504c4154450000000000000000006020820152905163bf40fac160e01b8152600091611480916001600160a01b0385169163bf40fac19161143a91906004016147db565b602060405180830381865afa158015611457573d6000803e3d6000fd5b505050506040513d601f19601f8201168201806040525081019061147b9190615631565b6136d5565b600084815261022a60205260409020600701805491925082916001600160a01b0383169163ae3dd095916115429060019060039084906114bf906154ce565b80601f01602080910402602001604051908101604052809291908181526020018280546114eb906154ce565b80156115385780601f1061150d57610100808354040283529160200191611538565b820191906000526020600020905b81548152906001019060200180831161151b57829003601f168201915b505050505061376d565b610227546040516001600160e01b031960e086901b1681526115769392916001600160a01b03169030908b90600401615b3a565b600060405180830381600087803b15801561159057600080fd5b505af11580156115a4573d6000803e3d6000fd5b505050600085815261022a60205260409020600b0180546001600160a01b0319166001600160a01b039490941693909317909255505060016101f555509c9b505050505050505050505050565b6001600160a01b03811633146116615760405162461bcd60e51b815260206004820152602f60248201527f416363657373436f6e74726f6c3a2063616e206f6e6c792072656e6f756e636560448201526e103937b632b9903337b91039b2b63360891b6064820152608401610c29565b61166b8282613853565b5050565b610cca83838360405180602001604052806000815250612dde565b600082815261022a602052604090206008015460ff161580156116b157506116b18261344c565b6116ba57600080fd5b600080826001600160401b038111156116d5576116d5614875565b6040519080825280602002602001820160405280156116fe578160200160208202803683370190505b50905060005b838110156117a557611717338683613875565b600081815261022b602090815260408083208984529091529020549093506001600160a01b03161561174857600080fd5b600083815261022b60209081526040808320888452909152902080546001600160a01b031916331790558151839083908390811061178857611788615503565b60209081029190910101528061179d8161552f565b915050611704565b507feac055ed8b84f6ed7b96c917e1a500965c90467998c41630ebabcc5bc99b306b3385836040516117d993929190615bfe565b60405180910390a150505050565b6000610af58261344c565b60006117fd60fd5490565b82106118605760405162461bcd60e51b815260206004820152602c60248201527f455243373231456e756d657261626c653a20676c6f62616c20696e646578206f60448201526b7574206f6620626f756e647360a01b6064820152608401610c29565b60fd828154811061187357611873615503565b90600052602060002001549050919050565b60026101f55414156118a95760405162461bcd60e51b8152600401610c29906155e1565b60026101f58190558151600090815261022a6020908152604080832081516101c0810183528154815260018201546001600160a01b03169381019390935293840154908201526003830154606082015260048301805492939192608084019190611912906154ce565b80601f016020809104026020016040519081016040528092919081815260200182805461193e906154ce565b801561198b5780601f106119605761010080835404028352916020019161198b565b820191906000526020600020905b81548152906001019060200180831161196e57829003601f168201915b5050509183525050600582015463ffffffff81166020830152600160201b90046001600160a01b031660408201526006820180546060909201916119ce906154ce565b80601f01602080910402602001604051908101604052809291908181526020018280546119fa906154ce565b8015611a475780601f10611a1c57610100808354040283529160200191611a47565b820191906000526020600020905b815481529060010190602001808311611a2a57829003601f168201915b50505050508152602001600782018054611a60906154ce565b80601f0160208091040260200160405190810160405280929190818152602001828054611a8c906154ce565b8015611ad95780601f10611aae57610100808354040283529160200191611ad9565b820191906000526020600020905b815481529060010190602001808311611abc57829003601f168201915b5050509183525050600882015460ff1615156020808301919091526040805180820182526009850180548252600a86018054845181870281018701865281815294909601959294919385830193909260009084015b82821015611c7d57600084815260208082206040805160e08101825260078702909201805460ff9081168452600182015484860152600282015484840152600382015416606084015260048101805483518187028101870190945280845293959194608087019491929084015b82821015611c47578382906000526020600020018054611bba906154ce565b80601f0160208091040260200160405190810160405280929190818152602001828054611be6906154ce565b8015611c335780601f10611c0857610100808354040283529160200191611c33565b820191906000526020600020905b815481529060010190602001808311611c1657829003601f168201915b505050505081526020019060010190611b9b565b50505090825250600582015460208083019190915260069092015460ff1615156040909101529082526001929092019101611b2e565b505050915250508152600b8201546001600160a01b03166020820152600c820154604080830191909152600d909201546060909101528301515190915015801590611cd15750816060015151826040015151145b604051806040016040528060038152602001620c8c0d60ea1b81525090611d0b5760405162461bcd60e51b8152600401610c2991906147db565b5060408101511580611d35575080604001518260400151518260600151611d329190615c5b565b11155b6040518060400160405280600381526020016232303360e81b81525090611d6f5760405162461bcd60e51b8152600401610c2991906147db565b5061018081015115611dd0578151611d86906123f2565b6001600160a01b0316336001600160a01b031614611dd057816040015151816101a001818151611db69190615c5b565b9052506101808101516101a08201511115611dd057600080fd5b8051801561209e5782513390611de5906123f2565b6001600160a01b03161461209e57610228546040840151516001600160a01b0390911690611e139083615598565b604080518082018252600c81526b4d494e545f4e46545f46454560a01b60208201529051636d12dce160e01b81529193506000916001600160a01b03841691636d12dce191611e6591906004016147db565b602060405180830381865afa158015611e82573d6000803e3d6000fd5b505050506040513d601f19601f82011682018060405250810190611ea69190615618565b905080611eb257506101f45b60208401516001600160a01b0316611f5f5782341015611ed157600080fd5b6000611ee086600001516123f2565b6001600160a01b0316612710611ef68487615598565b611f0091906155cd565b611f0a9086615c73565b604051600081818185875af1925050503d8060008114611f46576040519150601f19603f3d011682016040523d82523d6000602084013e611f4b565b606091505b5050905080611f5957600080fd5b5061209b565b60208401516040516323b872dd60e01b8152336004820152306024820152604481018590526001600160a01b038216906323b872dd906064016020604051808303816000875af1158015611fb7573d6000803e3d6000fd5b505050506040513d601f19601f82011682018060405250810190611fdb919061564e565b611fe457600080fd5b806001600160a01b031663a9059cbb61200088600001516123f2565b61271061200d8689615598565b61201791906155cd565b6120219088615c73565b6040516001600160e01b031960e085901b1681526001600160a01b03909216600483015260248201526044016020604051808303816000875af115801561206c573d6000803e3d6000fd5b505050506040513d601f19601f82011682018060405250810190612090919061564e565b61209957600080fd5b505b50505b8251600090815261022a60205260408120600b01546001600160a01b0316905b8460600151518110156123ac57846060015181815181106120e1576120e1615503565b602090810291909101810151810151518651600090815261022a8352604090819020600a0154815180830190925260038252620c8c0d60ea1b9382019390935291146121405760405162461bcd60e51b8152600401610c2991906147db565b5060008560600151828151811061215957612159615503565b60209081029190910181015151600081815261022d835260408082208a518352845290819020548151808301909252600382526232303560e81b9382019390935290925090156121bc5760405162461bcd60e51b8152600401610c2991906147db565b508551600090815261022a602052604090206008015460ff1661223257855133906121e8908390610ccf565b6001600160a01b0316146040518060400160405280600381526020016232303560e81b8152509061222c5760405162461bcd60e51b8152600401610c2991906147db565b5061228d565b600081815261022b60209081526040808320895184529091529020546001600160a01b03161561226157600080fd5b600081815261022b6020908152604080832089518452909152902080546001600160a01b031916331790555b826001600160a01b03166381aa7929876020015161022760009054906101000a90046001600160a01b0316896040015186815181106122ce576122ce615503565b60200260200101518a6060015187815181106122ec576122ec615503565b60200260200101518a61012001516040518663ffffffff1660e01b815260040161231a959493929190615c8a565b600060405180830381600087803b15801561233457600080fd5b505af1158015612348573d6000803e3d6000fd5b5050505060018560600181815161235f9190615c5b565b9052506060850180518751600090815261022a6020908152604080832060030193909355925193815261022d835281812089518252909252902055806123a48161552f565b9150506120be565b507f67175103d209cf669be17e253aba378479477b5a1ef3b1e9eaedce52f0ebab5433856040516123de929190615cdd565b60405180910390a1505060016101f5555050565b600081815260cb60205260408120546001600160a01b031680610af55760405162461bcd60e51b8152602060048201526018602482015277115490cdcc8c4e881a5b9d985b1a59081d1bdad95b88125160421b6044820152606401610c29565b600082815261022d60209081526040808320848452909152902054158015906124815750612481338383612d6d565b80156124a85750836001600160a01b031661249c8383610ccf565b6001600160a01b031614155b80156124bc57506001600160a01b03831615155b6124c557600080fd5b600091825261022b60209081526040808420928452919052902080546001600160a01b0319166001600160a01b039290921691909117905550565b60006001600160a01b03821661256a5760405162461bcd60e51b815260206004820152602960248201527f4552433732313a2061646472657373207a65726f206973206e6f7420612076616044820152683634b21037bbb732b960b91b6064820152608401610c29565b506001600160a01b0316600090815260cc602052604090205490565b61022a602052600090815260409020805460018201546002830154600384015460048501805494956001600160a01b0390941694929391926125c7906154ce565b80601f01602080910402602001604051908101604052809291908181526020018280546125f3906154ce565b80156126405780601f1061261557610100808354040283529160200191612640565b820191906000526020600020905b81548152906001019060200180831161262357829003601f168201915b505050506005830154600684018054939463ffffffff831694600160201b9093046001600160a01b0316935091612676906154ce565b80601f01602080910402602001604051908101604052809291908181526020018280546126a2906154ce565b80156126ef5780601f106126c4576101008083540402835291602001916126ef565b820191906000526020600020905b8154815290600101906020018083116126d257829003601f168201915b505050505090806007018054612704906154ce565b80601f0160208091040260200160405190810160405280929190818152602001828054612730906154ce565b801561277d5780601f106127525761010080835404028352916020019161277d565b820191906000526020600020905b81548152906001019060200180831161276057829003601f168201915b5050505050908060080160009054906101000a900460ff1690806009016040518060400160405290816000820154815260200160018201805480602002602001604051908101604052809291908181526020016000905b8282101561292357600084815260208082206040805160e08101825260078702909201805460ff9081168452600182015484860152600282015484840152600382015416606084015260048101805483518187028101870190945280845293959194608087019491929084015b828210156128ed578382906000526020600020018054612860906154ce565b80601f016020809104026020016040519081016040528092919081815260200182805461288c906154ce565b80156128d95780601f106128ae576101008083540402835291602001916128d9565b820191906000526020600020905b8154815290600101906020018083116128bc57829003601f168201915b505050505081526020019060010190612841565b50505090825250600582015460208083019190915260069092015460ff16151560409091015290825260019290920191016127d4565b50505091525050600b820154600c830154600d9093015491926001600160a01b03909116918e565b610227546001600160a01b0316336001600160a01b0316146040518060400160405280600381526020016231303160e81b8152509061299d5760405162461bcd60e51b8152600401610c2991906147db565b506129a9600033612a35565b6040518060400160405280600381526020016231303160e81b815250906129e35760405162461bcd60e51b8152600401610c2991906147db565b5061022780546001600160a01b038381166001600160a01b0319831681179093551690612a1290600090610f29565b61166b600082612fce565b6000828152609760205260408120610d0490836138d5565b60009182526065602090815260408084206001600160a01b0393909316845291905290205460ff1690565b606060ca8054610b0a906154ce565b610227546001600160a01b0316336001600160a01b0316146040518060400160405280600381526020016231303160e81b81525090612ac15760405162461bcd60e51b8152600401610c2991906147db565b50612acd600033612a35565b6040518060400160405280600381526020016231303160e81b81525090612b075760405162461bcd60e51b8152600401610c2991906147db565b5060408051808201909152600381526232303360e81b6020820152612710821115612b455760405162461bcd60e51b8152600401610c2991906147db565b50604080516060810182526001600160a01b03938416815262ffffff92831660208083019182526001838501908152600097885261022e90915292909520905181549551925194166001600160b81b031990951694909417600160a01b91909216021760ff60b81b1916600160b81b91151591909102179055565b61166b3383836138e1565b600054610100900460ff1615808015612beb5750600054600160ff909116105b80612c055750303b158015612c05575060005460ff166001145b612c215760405162461bcd60e51b8152600401610c2990615d79565b6000805460ff191660011790558015612c44576000805461ff0019166101001790555b612c4f8484846139b0565b8015612c91576000805461ff0019169055604051600181527f7f26b83ff96e1f2b6a682f133852f6798a09c465da95921460cefb3847402498906020016117d9565b50505050565b600085815261022a6020908152604091829020600501548251808401909352600383526218981960e91b91830191909152600160201b90046001600160a01b03163314612cf75760405162461bcd60e51b8152600401610c2991906147db565b50600085815261022a602090815260409091208581556001810180546001600160a01b0319166001600160a01b0387161790558351612d3e926006909201918501906146b7565b50600085815261022a602090815260409091208251612d65926004909201918401906146b7565b505050505050565b6000836001600160a01b0316612d838484610ccf565b6001600160a01b03161415612d9a57506001610d04565b8161022c6000612daa8686610ccf565b6001600160a01b03908116825260208083019390935260409182016000908120918916815292529020541490509392505050565b612de83383613469565b612e045760405162461bcd60e51b8152600401610c299061554a565b612c91848484846139f4565b600081815261022a6020526040812060060180546060929190612e32906154ce565b90501115612edc57600082815261022a602052604090206006018054612e57906154ce565b80601f0160208091040260200160405190810160405280929190818152602001828054612e83906154ce565b8015612ed05780601f10612ea557610100808354040283529160200191612ed0565b820191906000526020600020905b815481529060010190602001808311612eb357829003601f168201915b50505050509050919050565b612ee4612ff3565b612eed83613a27565b604051602001612efe929190615dc7565b6040516020818303038152906040529050919050565b919050565b600081815261022a6020908152604091829020600501548251808401909352600383526218981960e91b91830191909152600160201b90046001600160a01b03163314612f795760405162461bcd60e51b8152600401610c2991906147db565b50600090815261022a6020526040902060050180546001600160a01b03909216600160201b02640100000000600160c01b0319909216919091179055565b6000818152609760205260408120610af590613b24565b600082815260656020526040902060010154612fe98161368f565b610cca8383613853565b6060610d17613b2e565b600054610100900460ff161580801561301d5750600054600160ff909116105b806130375750303b158015613037575060005460ff166001145b6130535760405162461bcd60e51b8152600401610c2990615d79565b6000805460ff191660011790558015613076576000805461ff0019166101001790555b60408051808201909152600381526203130360ec1b60208201526001600160a01b0384166130b75760405162461bcd60e51b8152600401610c2991906147db565b5060408051808201909152600381526203130360ec1b60208201526001600160a01b0383166130f95760405162461bcd60e51b8152600401610c2991906147db565b506131058686866139b0565b61022880546001600160a01b038085166001600160a01b0319928316179092556102278054928616929091168217905561314190600090610f29565b61314c600033612fce565b8015612d65576000805461ff0019169055604051600181527f7f26b83ff96e1f2b6a682f133852f6798a09c465da95921460cefb38474024989060200160405180910390a1505050505050565b60026101f55414156131bd5760405162461bcd60e51b8152600401610c29906155e1565b60026101f555610227546001600160a01b0316336001600160a01b0316146040518060400160405280600381526020016231303160e81b815250906132155760405162461bcd60e51b8152600401610c2991906147db565b50613221600033612a35565b6040518060400160405280600381526020016231303160e81b8152509061325b5760405162461bcd60e51b8152600401610c2991906147db565b5060006001600160a01b0383166132dc578147101561327957600080fd5b6040516001600160a01b038516908390600081818185875af1925050503d80600081146132c2576040519150601f19603f3d011682016040523d82523d6000602084013e6132c7565b606091505b505080915050806132d757600080fd5b61335d565b60405163a9059cbb60e01b81526001600160a01b0385811660048301526024820184905284919082169063a9059cbb906044016020604051808303816000875af115801561332e573d6000803e3d6000fd5b505050506040513d601f19601f82011682018060405250810190613352919061564e565b61335b57600080fd5b505b505060016101f5555050565b60006001600160e01b0319821663780e9d6360e01b1480610af55750610af582613b3e565b6133978161344c565b6105f45760405162461bcd60e51b8152602060048201526018602482015277115490cdcc8c4e881a5b9d985b1a59081d1bdad95b88125160421b6044820152606401610c29565b600081815260cd6020526040902080546001600160a01b0319166001600160a01b0384169081179091558190613413826123f2565b6001600160a01b03167f8c5be1e5ebec7d5bd14f71427d1e84f3dd0314c0f7b2291e5b200ac8c7c3b92560405160405180910390a45050565b600090815260cb60205260409020546001600160a01b0316151590565b600080613475836123f2565b9050806001600160a01b0316846001600160a01b031614806134bc57506001600160a01b03808216600090815260ce602090815260408083209388168352929052205460ff165b806134e05750836001600160a01b03166134d584610b8d565b6001600160a01b0316145b949350505050565b826001600160a01b03166134fb826123f2565b6001600160a01b03161461355f5760405162461bcd60e51b815260206004820152602560248201527f4552433732313a207472616e736665722066726f6d20696e636f72726563742060448201526437bbb732b960d91b6064820152608401610c29565b6001600160a01b0382166135c15760405162461bcd60e51b8152602060048201526024808201527f4552433732313a207472616e7366657220746f20746865207a65726f206164646044820152637265737360e01b6064820152608401610c29565b6135cc838383613b7e565b6135d76000826133de565b6001600160a01b038316600090815260cc60205260408120805460019290613600908490615c73565b90915550506001600160a01b038216600090815260cc6020526040812080546001929061362e908490615c5b565b9091555050600081815260cb602052604080822080546001600160a01b0319166001600160a01b0386811691821790925591518493918716917fddf252ad1be2c89b69c2b068fc378daa952ba7f163c4a11628f55a4df523b3ef91a4505050565b6105f48133613b89565b6136a38282613bed565b6000828152609760205260409020610cca9082613c73565b61166b828260405180602001604052806000815250613c88565b6000604051733d602d80600a3d3981f3363d3d373d3d3d363d7360601b81528260601b60148201526e5af43d82803e903d91602b57fd5bf360881b60288201526037816000f09150506001600160a01b038116612f145760405162461bcd60e51b8152602060048201526016602482015275115490cc4c4d8dce8818dc99585d194819985a5b195960521b6044820152606401610c29565b6060600061377b8585615c73565b613786906001615c5b565b6001600160401b0381111561379d5761379d614875565b6040519080825280601f01601f1916602001820160405280156137c7576020820181803683370190505b50905060005b6137d78686615c73565b811161384a578360016137ea8884615c5b565b6137f49190615c73565b8151811061380457613804615503565b602001015160f81c60f81b82828151811061382157613821615503565b60200101906001600160f81b031916908160001a905350806138428161552f565b9150506137cd565b50949350505050565b61385d8282613cbb565b6000828152609760205260409020610cca9082613d22565b6000613882600143615c73565b60408051914060208301526bffffffffffffffffffffffff19606087901b169082015260548101849052607481018390526094016040516020818303038152906040528051906020012090509392505050565b6000610d048383613d37565b816001600160a01b0316836001600160a01b031614156139435760405162461bcd60e51b815260206004820152601960248201527f4552433732313a20617070726f766520746f2063616c6c6572000000000000006044820152606401610c29565b6001600160a01b03838116600081815260ce6020908152604080832094871680845294825291829020805460ff191686151590811790915591519182527f17307eab39ab6107e8899845ad3d59bd9653f200f220920489ca2b5937696c31910160405180910390a3505050565b600054610100900460ff166139d75760405162461bcd60e51b8152600401610c2990615df6565b6139e18383613d61565b6139e9613daf565b610cca838383613de3565b6139ff8484846134e8565b613a0b84848484613e7e565b612c915760405162461bcd60e51b8152600401610c2990615e41565b606081613a4b5750506040805180820190915260018152600360fc1b602082015290565b8160005b8115613a755780613a5f8161552f565b9150613a6e9050600a836155cd565b9150613a4f565b6000816001600160401b03811115613a8f57613a8f614875565b6040519080825280601f01601f191660200182016040528015613ab9576020820181803683370190505b5090505b84156134e057613ace600183615c73565b9150613adb600a86615e93565b613ae6906030615c5b565b60f81b818381518110613afb57613afb615503565b60200101906001600160f81b031916908160001a905350613b1d600a866155cd565b9450613abd565b6000610af5825490565b60606101c48054610b0a906154ce565b60006001600160e01b031982166380ac58cd60e01b1480613b6f57506001600160e01b03198216635b5e139f60e01b145b80610af55750610af582613f7c565b610cca838383613fa1565b613b938282612a35565b61166b57613bab816001600160a01b03166014614014565b613bb6836020614014565b604051602001613bc7929190615ea7565b60408051601f198184030181529082905262461bcd60e51b8252610c29916004016147db565b613bf78282612a35565b61166b5760008281526065602090815260408083206001600160a01b03851684529091529020805460ff19166001179055613c2f3390565b6001600160a01b0316816001600160a01b0316837f2f8788117e7eff1d82e926ec794901d17c78024a50270940304540a733656f0d60405160405180910390a45050565b6000610d04836001600160a01b0384166141af565b613c9283836141fe565b613c9f6000848484613e7e565b610cca5760405162461bcd60e51b8152600401610c2990615e41565b613cc58282612a35565b1561166b5760008281526065602090815260408083206001600160a01b0385168085529252808320805460ff1916905551339285917ff6391f5c32d9c69d2a47ea670b442974b53935d1edc7fd64eb21e047a839171b9190a45050565b6000610d04836001600160a01b03841661433d565b6000826000018281548110613d4e57613d4e615503565b9060005260206000200154905092915050565b600054610100900460ff16613d885760405162461bcd60e51b8152600401610c2990615df6565b8151613d9b9060c99060208501906146b7565b508051610cca9060ca9060208401906146b7565b600054610100900460ff16613dd65760405162461bcd60e51b8152600401610c2990615df6565b61015f805460ff19169055565b600054610100900460ff16613e0a5760405162461bcd60e51b8152600401610c2990615df6565b8051613e1e906101c49060208401906146b7565b50613e2a600033614430565b613e547f9f2df0fed2c77648de5860a4cc508cd0818c85b8b8a1ab4ceeef8d981c8956a633614430565b610cca7f65d7a28e3265b37a6474929f336521b332c1681b933f6cb9f3376673440d862a33614430565b60006001600160a01b0384163b15613f7157604051630a85bd0160e11b81526001600160a01b0385169063150b7a0290613ec2903390899088908890600401615f1c565b6020604051808303816000875af1925050508015613efd575060408051601f3d908101601f19168201909252613efa91810190615f59565b60015b613f57573d808015613f2b576040519150601f19603f3d011682016040523d82523d6000602084013e613f30565b606091505b508051613f4f5760405162461bcd60e51b8152600401610c2990615e41565b805181602001fd5b6001600160e01b031916630a85bd0160e11b1490506134e0565b506001949350505050565b60006001600160e01b03198216635a05180f60e01b1480610af55750610af58261443a565b613fac83838361446f565b61015f5460ff1615610cca5760405162461bcd60e51b815260206004820152602b60248201527f4552433732315061757361626c653a20746f6b656e207472616e73666572207760448201526a1a1a5b19481c185d5cd95960aa1b6064820152608401610c29565b60606000614023836002615598565b61402e906002615c5b565b6001600160401b0381111561404557614045614875565b6040519080825280601f01601f19166020018201604052801561406f576020820181803683370190505b509050600360fc1b8160008151811061408a5761408a615503565b60200101906001600160f81b031916908160001a905350600f60fb1b816001815181106140b9576140b9615503565b60200101906001600160f81b031916908160001a90535060006140dd846002615598565b6140e8906001615c5b565b90505b6001811115614160576f181899199a1a9b1b9c1cb0b131b232b360811b85600f166010811061411c5761411c615503565b1a60f81b82828151811061413257614132615503565b60200101906001600160f81b031916908160001a90535060049490941c9361415981615f76565b90506140eb565b508315610d045760405162461bcd60e51b815260206004820181905260248201527f537472696e67733a20686578206c656e67746820696e73756666696369656e746044820152606401610c29565b60008181526001830160205260408120546141f657508154600181810184556000848152602080822090930184905584548482528286019093526040902091909155610af5565b506000610af5565b6001600160a01b0382166142545760405162461bcd60e51b815260206004820181905260248201527f4552433732313a206d696e7420746f20746865207a65726f20616464726573736044820152606401610c29565b61425d8161344c565b156142aa5760405162461bcd60e51b815260206004820152601c60248201527f4552433732313a20746f6b656e20616c7265616479206d696e746564000000006044820152606401610c29565b6142b660008383613b7e565b6001600160a01b038216600090815260cc602052604081208054600192906142df908490615c5b565b9091555050600081815260cb602052604080822080546001600160a01b0319166001600160a01b03861690811790915590518392907fddf252ad1be2c89b69c2b068fc378daa952ba7f163c4a11628f55a4df523b3ef908290a45050565b60008181526001830160205260408120548015614426576000614361600183615c73565b855490915060009061437590600190615c73565b90508181146143da57600086600001828154811061439557614395615503565b90600052602060002001549050808760000184815481106143b8576143b8615503565b6000918252602080832090910192909255918252600188019052604090208390555b85548690806143eb576143eb615f8d565b600190038181906000526020600020016000905590558560010160008681526020019081526020016000206000905560019350505050610af5565b6000915050610af5565b61166b8282613699565b60006001600160e01b03198216637965db0b60e01b1480610af557506301ffc9a760e01b6001600160e01b0319831614610af5565b6001600160a01b0383166144ca576144c58160fd8054600083815260fe60205260408120829055600182018355919091527f9346ac6dd7de6b96975fec380d4d994c4c12e6a8897544f22915316cc6cca2800155565b6144ed565b816001600160a01b0316836001600160a01b0316146144ed576144ed8382614527565b6001600160a01b03821661450457610cca816145c4565b826001600160a01b0316826001600160a01b031614610cca57610cca8282614673565b6000600161453484612500565b61453e9190615c73565b600083815260fc6020526040902054909150808214614591576001600160a01b038416600090815260fb60209081526040808320858452825280832054848452818420819055835260fc90915290208190555b50600091825260fc602090815260408084208490556001600160a01b03909416835260fb81528383209183525290812055565b60fd546000906145d690600190615c73565b600083815260fe602052604081205460fd80549394509092849081106145fe576145fe615503565b906000526020600020015490508060fd838154811061461f5761461f615503565b600091825260208083209091019290925582815260fe909152604080822084905585825281205560fd80548061465757614657615f8d565b6001900381819060005260206000200160009055905550505050565b600061467e83612500565b6001600160a01b03909316600090815260fb60209081526040808320868452825280832085905593825260fc9052919091209190915550565b8280546146c3906154ce565b90600052602060002090601f0160209004810192826146e5576000855561472b565b82601f106146fe57805160ff191683800117855561472b565b8280016001018555821561472b579182015b8281111561472b578251825591602001919060010190614710565b5061473792915061473b565b5090565b5b80821115614737576000815560010161473c565b6001600160e01b0319811681146105f457600080fd5b60006020828403121561477857600080fd5b8135610d0481614750565b60005b8381101561479e578181015183820152602001614786565b83811115612c915750506000910152565b600081518084526147c7816020860160208601614783565b601f01601f19169290920160200192915050565b602081526000610d0460208301846147af565b60006020828403121561480057600080fd5b5035919050565b6001600160a01b03811681146105f457600080fd5b8035612f1481614807565b6000806040838503121561483a57600080fd5b823561484581614807565b946020939093013593505050565b6000806040838503121561486657600080fd5b50508035926020909101359150565b634e487b7160e01b600052604160045260246000fd5b604051608081016001600160401b03811182821017156148ad576148ad614875565b60405290565b604080519081016001600160401b03811182821017156148ad576148ad614875565b60405160e081016001600160401b03811182821017156148ad576148ad614875565b604051601f8201601f191681016001600160401b038111828210171561491f5761491f614875565b604052919050565b60006001600160401b0382111561494057614940614875565b5060051b60200190565b6000806040838503121561495d57600080fd5b823591506020808401356001600160401b0381111561497b57600080fd5b8401601f8101861361498c57600080fd5b803561499f61499a82614927565b6148f7565b81815260059190911b820183019083810190888311156149be57600080fd5b928401925b828410156149dc578335825292840192908401906149c3565b80955050505050509250929050565b600080600060608486031215614a0057600080fd5b8335614a0b81614807565b92506020840135614a1b81614807565b929592945050506040919091013590565b60008060408385031215614a3f57600080fd5b823591506020830135614a5181614807565b809150509250929050565b60006001600160401b03831115614a7557614a75614875565b614a88601f8401601f19166020016148f7565b9050828152838383011115614a9c57600080fd5b828260208301376000602084830101529392505050565b600082601f830112614ac457600080fd5b610d0483833560208501614a5c565b803563ffffffff81168114612f1457600080fd5b80151581146105f457600080fd5b8035612f1481614ae7565b600060408284031215614b1257600080fd5b50919050565b60008060008060008060008060008060006101608c8e031215614b3a57600080fd5b614b438c61481c565b9a506001600160401b038060208e01351115614b5e57600080fd5b614b6e8e60208f01358f01614ab3565b9a5060408d0135995060608d013598508060808e01351115614b8f57600080fd5b614b9f8e60808f01358f01614ab3565b9750614bad60a08e01614ad3565b9650614bbb60c08e01614af5565b95508060e08e01351115614bce57600080fd5b614bde8e60e08f01358f01614ab3565b94506101008d01359350614bf56101208e0161481c565b9250806101408e01351115614c0957600080fd5b50614c1b8d6101408e01358e01614b00565b90509295989b509295989b9093969950565b60008060408385031215614c4057600080fd5b8235614c4b81614807565b91506020830135614a5181614807565b600082601f830112614c6c57600080fd5b81356020614c7c61499a83614927565b82815260059290921b84018101918181019086841115614c9b57600080fd5b8286015b84811015614cda5780356001600160401b03811115614cbe5760008081fd5b614ccc8986838b0101614ab3565b845250918301918301614c9f565b509695505050505050565b60ff811681146105f457600080fd5b8035612f1481614ce5565b600060208284031215614d1157600080fd5b6001600160401b0382351115614d2657600080fd5b60808235830184031215614d3957600080fd5b614d4161488b565b8235830180358252614d569060200135614807565b602083358401013560208201526001600160401b0360408435850101351115614d7e57600080fd5b614d918484358501604081013501614c5b565b60408201526001600160401b0360608435850101351115614db157600080fd5b82358301606081013501601f81018513614dca57600080fd5b614dd761499a8235614927565b81358082526020808301929160051b840101871015614df557600080fd5b602083015b6020843560051b850101811015614fb2576001600160401b0381351115614e2057600080fd5b6040813585018903601f19011215614e3757600080fd5b614e3f6148b3565b81358501602081013582526001600160401b036040909101351115614e6357600080fd5b81358501604081013501603f81018a13614e7c57600080fd5b614e8c61499a6020830135614927565b602082810135808352908201919060051b83016040018c1015614eae57600080fd5b604083015b6040602085013560051b850101811015614f99576001600160401b0381351115614edc57600080fd5b60e0813585018e03603f19011215614ef357600080fd5b614efb6148d5565b614f0a60408335870101614cf4565b8152813585016060810135602083015260808101356040830152614f309060a001614cf4565b60608201526001600160401b0360c08335870101351115614f5057600080fd5b614f668e8335870160c081013501604001614c5b565b60808201528135850160e081013560a0830152614f869061010001614af5565b60c0820152835260209283019201614eb3565b5060208481019190915292865250509283019201614dfa565b5060608401525090949350505050565b600060208284031215614fd457600080fd5b8135610d0481614807565b60008060008060808587031215614ff557600080fd5b843561500081614807565b9350602085013561501081614807565b93969395505050506040820135916060013590565b600081518084526020808501808196508360051b8101915082860160005b8581101561506d57828403895261505b8483516147af565b98850198935090840190600101615043565b5091979650505050505050565b60006040808401835185526020808501518382880152828151808552606094508489019150848160051b8a0101848401935060005b8281101561512b57605f198b8303018452845160e060ff80835116855288830151898601528a8301518b860152808a840151168a8601525060808083015182828701526150fe83870182615025565b60a0858101519088015260c0948501511515949096019390935250505093850193928501926001016150af565b509998505050505050505050565b8e81526001600160a01b038e1660208201528c60408201528b60608201526101c06080820152600061516f6101c083018d6147af565b63ffffffff8c1660a08401526001600160a01b038b1660c084015282810360e084015261519c818b6147af565b90508281036101008401526151b1818a6147af565b88151561012085015290508281036101408401526151cf818861507a565b9150506151e86101608301866001600160a01b03169052565b6101808201939093526101a001529c9b505050505050505050505050565b60008060006060848603121561521b57600080fd5b833592506020840135614a1b81614807565b6000806040838503121561524057600080fd5b823561524b81614807565b91506020830135614a5181614ae7565b60008060006060848603121561527057600080fd5b83356001600160401b038082111561528757600080fd5b61529387838801614ab3565b945060208601359150808211156152a957600080fd5b6152b587838801614ab3565b935060408601359150808211156152cb57600080fd5b506152d886828701614ab3565b9150509250925092565b600080600080600060a086880312156152fa57600080fd5b8535945060208601359350604086013561531381614807565b925060608601356001600160401b038082111561532f57600080fd5b61533b89838a01614ab3565b9350608088013591508082111561535157600080fd5b5061535e88828901614ab3565b9150509295509295909350565b60008060006060848603121561538057600080fd5b833561538b81614807565b95602085013595506040909401359392505050565b600080600080608085870312156153b657600080fd5b84356153c181614807565b935060208501356153d181614807565b92506040850135915060608501356001600160401b038111156153f357600080fd5b8501601f8101871361540457600080fd5b61541387823560208401614a5c565b91505092959194509250565b600080600080600060a0868803121561543757600080fd5b85356001600160401b038082111561544e57600080fd5b61545a89838a01614ab3565b9650602088013591508082111561547057600080fd5b61547c89838a01614ab3565b9550604088013591508082111561549257600080fd5b5061549f88828901614ab3565b93505060608601356154b081614807565b915060808601356154c081614807565b809150509295509295909350565b600181811c908216806154e257607f821691505b60208210811415614b1257634e487b7160e01b600052602260045260246000fd5b634e487b7160e01b600052603260045260246000fd5b634e487b7160e01b600052601160045260246000fd5b600060001982141561554357615543615519565b5060010190565b6020808252602e908201527f4552433732313a2063616c6c6572206973206e6f7420746f6b656e206f776e6560408201526d1c881b9bdc88185c1c1c9bdd995960921b606082015260800190565b60008160001904831182151516156155b2576155b2615519565b500290565b634e487b7160e01b600052601260045260246000fd5b6000826155dc576155dc6155b7565b500490565b6020808252601f908201527f5265656e7472616e637947756172643a207265656e7472616e742063616c6c00604082015260600190565b60006020828403121561562a57600080fd5b5051919050565b60006020828403121561564357600080fd5b8151610d0481614807565b60006020828403121561566057600080fd5b8151610d0481614ae7565b6000808335601e1984360301811261568257600080fd5b8301803591506001600160401b0382111561569c57600080fd5b6020019150600581901b36038213156156b457600080fd5b9250929050565b6000823560de198336030181126156d157600080fd5b9190910192915050565b5b8181101561166b57600081556001016156dc565b805460008083558115610cca5782815260208082208381015b80821015612d655761571b82546154ce565b801561576257601f808211600181146157365786855561575f565b84875285872061575083850160051c8201600183016156db565b50600085815260208120818755555b50505b50600182019150615709565b601f821115610cca57806000526020600020601f840160051c810160208510156157955750805b6157a7601f850160051c8301826156db565b5050505050565b6001600160401b038311156157c5576157c5614875565b6157d9836157d383546154ce565b8361576e565b6000601f84116001811461580d57600085156157f55750838201355b600019600387901b1c1916600186901b1783556157a7565b600083815260209020601f19861690835b8281101561583e578685013582556020948501946001909201910161581e565b508682101561585b5760001960f88860031b161c19848701351681555b505060018560011b0183555050505050565b60008135610af581614ae7565b813561588581614ce5565b815460ff191660ff8216178255506001602080840135828401556040840135600284015560608401356158b781614ce5565b60038401805460ff191660ff831617905550600483016158da608086018661566b565b600160401b8111156158ee576158ee614875565b8254818455808210156159735760008481528581208381019083015b8082101561596f5761591c82546154ce565b801561596557601f8082116001811461593757858555615962565b60008581526020902061595383850160051c82018e83016156db565b50600085815260208120818755555b50505b509088019061590a565b5050505b508160008481528581209450805b838110156159e2578235601e1986360301811261599c578283fd5b850180356001600160401b038111156159b3578384fd5b88820191508036038213156159c6578384fd5b6159d181838a6157ae565b505094870194918601918701615981565b505050505050505060a0820135600582015561166b615a0360c0840161586d565b6006830160ff1981541660ff8315151681178255505050565b8135815560018082016020615a338186018661566b565b600160401b811115615a4757615a47614875565b835481855580821015615af4577f2492492492492492492492492492492492492492492492492492492492492492808211871615615a8757615a87615519565b6007818411881615615a9b57615a9b615519565b6000878152868120909250848202810190828502015b80821015615aef57838255838a830155836002830155836003830155615ad9600483016156f0565b8360058301558360068301558282019150615ab1565b505050505b506000938452602084209382905b82811015615b2f57615b1d615b1783866156bb565b8761587a565b60079590950194908401908601615b02565b505050505050505050565b60a081526000808754615b4c816154ce565b8060a086015260c0600180841660008114615b6e5760018114615b8257615bb3565b60ff1985168884015260e088019550615bb3565b8c60005260208060002060005b86811015615baa5781548b8201870152908401908201615b8f565b8a018501975050505b50505050508281036020840152615bca81886147af565b915050615be260408301866001600160a01b03169052565b6001600160a01b03939093166060820152608001529392505050565b6001600160a01b038416815260208082018490526060604083018190528351908301819052600091848101916080850190845b81811015615c4d57845183529383019391830191600101615c31565b509098975050505050505050565b60008219821115615c6e57615c6e615519565b500190565b600082821015615c8557615c85615519565b500390565b6001600160a01b0386811682528516602082015260a060408201819052600090615cb6908301866147af565b8281036060840152615cc8818661507a565b91505082151560808301529695505050505050565b6001600160a01b03838116825260406020808401829052845182850152848101519092166060840152830151608080840152600091615d1f60c0850183615025565b6060860151858203603f190160a0870152805180835291935082019082840190600581901b8501840160005b8281101561512b57601f19878303018452615d6782865161507a565b94860194938601939150600101615d4b565b6020808252602e908201527f496e697469616c697a61626c653a20636f6e747261637420697320616c72656160408201526d191e481a5b9a5d1a585b1a5e995960921b606082015260800190565b60008351615dd9818460208801614783565b835190830190615ded818360208801614783565b01949350505050565b6020808252602b908201527f496e697469616c697a61626c653a20636f6e7472616374206973206e6f74206960408201526a6e697469616c697a696e6760a81b606082015260800190565b60208082526032908201527f4552433732313a207472616e7366657220746f206e6f6e20455243373231526560408201527131b2b4bb32b91034b6b83632b6b2b73a32b960711b606082015260800190565b600082615ea257615ea26155b7565b500690565b7f416363657373436f6e74726f6c3a206163636f756e7420000000000000000000815260008351615edf816017850160208801614783565b7001034b99036b4b9b9b4b733903937b6329607d1b6017918401918201528351615f10816028840160208801614783565b01602801949350505050565b6001600160a01b0385811682528416602082015260408101839052608060608201819052600090615f4f908301846147af565b9695505050505050565b600060208284031215615f6b57600080fd5b8151610d0481614750565b600081615f8557615f85615519565b506000190190565b634e487b7160e01b600052603160045260246000fdfea2646970667358221220caac4280b5465329fa8d87fd64b7ce56b73507ff969396171bd273b6af7f590364736f6c634300080c0033",
  "linkReferences": {},
  "deployedLinkReferences": {}
}