{
  "_format": "hh-sol-artifact-1",
  "contractName": "GenerativeBoilerplateNFT",
  "sourceName": "contracts/nft/GenerativeBoilerplateNFT.sol",
  "abi": [
    {
      "anonymous": false,
      "inputs": [
        {
          "indexed": true,
          "internalType": "address",
          "name": "owner",
          "type": "address"
        },
        {
          "indexed": true,
          "internalType": "address",
          "name": "approved",
          "type": "address"
        },
        {
          "indexed": true,
          "internalType": "uint256",
          "name": "tokenId",
          "type": "uint256"
        }
      ],
      "name": "Approval",
      "type": "event"
    },
    {
      "anonymous": false,
      "inputs": [
        {
          "indexed": true,
          "internalType": "address",
          "name": "owner",
          "type": "address"
        },
        {
          "indexed": true,
          "internalType": "address",
          "name": "operator",
          "type": "address"
        },
        {
          "indexed": false,
          "internalType": "bool",
          "name": "approved",
          "type": "bool"
        }
      ],
      "name": "ApprovalForAll",
      "type": "event"
    },
    {
      "anonymous": false,
      "inputs": [
        {
          "indexed": false,
          "internalType": "uint8",
          "name": "version",
          "type": "uint8"
        }
      ],
      "name": "Initialized",
      "type": "event"
    },
    {
      "anonymous": false,
      "inputs": [
        {
          "indexed": false,
          "internalType": "address",
          "name": "account",
          "type": "address"
        }
      ],
      "name": "Paused",
      "type": "event"
    },
    {
      "anonymous": false,
      "inputs": [
        {
          "indexed": true,
          "internalType": "address",
          "name": "from",
          "type": "address"
        },
        {
          "indexed": true,
          "internalType": "address",
          "name": "to",
          "type": "address"
        },
        {
          "indexed": true,
          "internalType": "uint256",
          "name": "tokenId",
          "type": "uint256"
        }
      ],
      "name": "Transfer",
      "type": "event"
    },
    {
      "anonymous": false,
      "inputs": [
        {
          "indexed": false,
          "internalType": "address",
          "name": "account",
          "type": "address"
        }
      ],
      "name": "Unpaused",
      "type": "event"
    },
    {
      "inputs": [],
      "name": "_admin",
      "outputs": [
        {
          "internalType": "address",
          "name": "",
          "type": "address"
        }
      ],
      "stateMutability": "view",
      "type": "function"
    },
    {
      "inputs": [],
      "name": "_paramsAddress",
      "outputs": [
        {
          "internalType": "address",
          "name": "",
          "type": "address"
        }
      ],
      "stateMutability": "view",
      "type": "function"
    },
    {
      "inputs": [
        {
          "internalType": "uint256",
          "name": "",
          "type": "uint256"
        }
      ],
      "name": "_projects",
      "outputs": [
        {
          "internalType": "uint256",
          "name": "_fee",
          "type": "uint256"
        },
        {
          "internalType": "address",
          "name": "_feeToken",
          "type": "address"
        },
        {
          "internalType": "string",
          "name": "_script",
          "type": "string"
        },
        {
          "internalType": "uint32",
          "name": "_scriptType",
          "type": "uint32"
        },
        {
          "internalType": "address",
          "name": "_creator",
          "type": "address"
        },
        {
          "internalType": "string",
          "name": "_customUri",
          "type": "string"
        },
        {
          "internalType": "string",
          "name": "_projectName",
          "type": "string"
        },
        {
          "internalType": "bool",
          "name": "_clientSeed",
          "type": "bool"
        },
        {
          "internalType": "address",
          "name": "_minterNFTInfo",
          "type": "address"
        },
        {
          "internalType": "bool",
          "name": "_editable",
          "type": "bool"
        }
      ],
      "stateMutability": "view",
      "type": "function"
    },
    {
      "inputs": [
        {
          "internalType": "address",
          "name": "to",
          "type": "address"
        },
        {
          "internalType": "uint256",
          "name": "tokenId",
          "type": "uint256"
        }
      ],
      "name": "approve",
      "outputs": [],
      "stateMutability": "nonpayable",
      "type": "function"
    },
    {
      "inputs": [
        {
          "internalType": "address",
          "name": "owner",
          "type": "address"
        }
      ],
      "name": "balanceOf",
      "outputs": [
        {
          "internalType": "uint256",
          "name": "",
          "type": "uint256"
        }
      ],
      "stateMutability": "view",
      "type": "function"
    },
    {
      "inputs": [
        {
          "internalType": "address",
          "name": "newAdm",
          "type": "address"
        },
        {
          "internalType": "address",
          "name": "newParam",
          "type": "address"
        }
      ],
      "name": "changeAdmin",
      "outputs": [],
      "stateMutability": "nonpayable",
      "type": "function"
    },
    {
      "inputs": [
        {
          "internalType": "uint256",
          "name": "tokenId",
          "type": "uint256"
        }
      ],
      "name": "getApproved",
      "outputs": [
        {
          "internalType": "address",
          "name": "",
          "type": "address"
        }
      ],
      "stateMutability": "view",
      "type": "function"
    },
    {
      "inputs": [
        {
          "internalType": "uint256",
          "name": "id",
          "type": "uint256"
        }
      ],
      "name": "getParamsTemplate",
      "outputs": [
        {
          "components": [
            {
              "internalType": "uint8",
              "name": "_typeValue",
              "type": "uint8"
            },
            {
              "internalType": "uint256",
              "name": "_max",
              "type": "uint256"
            },
            {
              "internalType": "uint256",
              "name": "_min",
              "type": "uint256"
            },
            {
              "internalType": "uint8",
              "name": "_decimal",
              "type": "uint8"
            },
            {
              "internalType": "string[]",
              "name": "_availableValues",
              "type": "string[]"
            },
            {
              "internalType": "uint256",
              "name": "_value",
              "type": "uint256"
            },
            {
              "internalType": "bool",
              "name": "_editable",
              "type": "bool"
            }
          ],
          "internalType": "struct BoilerplateParam.ParamTemplate[]",
          "name": "",
          "type": "tuple[]"
        }
      ],
      "stateMutability": "view",
      "type": "function"
    },
    {
      "inputs": [
        {
          "internalType": "string",
          "name": "name",
          "type": "string"
        },
        {
          "internalType": "string",
          "name": "symbol",
          "type": "string"
        },
        {
          "internalType": "address",
          "name": "admin",
          "type": "address"
        },
        {
          "internalType": "address",
          "name": "paramsAddress",
          "type": "address"
        }
      ],
      "name": "initialize",
      "outputs": [],
      "stateMutability": "nonpayable",
      "type": "function"
    },
    {
      "inputs": [
        {
          "internalType": "address",
          "name": "owner",
          "type": "address"
        },
        {
          "internalType": "address",
          "name": "operator",
          "type": "address"
        }
      ],
      "name": "isApprovedForAll",
      "outputs": [
        {
          "internalType": "bool",
          "name": "",
          "type": "bool"
        }
      ],
      "stateMutability": "view",
      "type": "function"
    },
    {
      "inputs": [
        {
          "internalType": "uint256",
          "name": "_fromProjectId",
          "type": "uint256"
        },
        {
          "components": [
            {
              "internalType": "bytes32",
              "name": "_seed",
              "type": "bytes32"
            },
            {
              "internalType": "uint256[]",
              "name": "_value",
              "type": "uint256[]"
            }
          ],
          "internalType": "struct BoilerplateParam.ParamsOfNFT",
          "name": "paramValue",
          "type": "tuple"
        }
      ],
      "name": "mintNFT",
      "outputs": [],
      "stateMutability": "payable",
      "type": "function"
    },
    {
      "inputs": [
        {
          "internalType": "address",
          "name": "to",
          "type": "address"
        },
        {
          "internalType": "string",
          "name": "projectName",
          "type": "string"
        },
        {
          "internalType": "uint256",
          "name": "maxSupply",
          "type": "uint256"
        },
        {
          "internalType": "uint256",
          "name": "limit",
          "type": "uint256"
        },
        {
          "internalType": "uint32",
          "name": "scriptType",
          "type": "uint32"
        },
        {
          "internalType": "bool",
          "name": "clientSeed",
          "type": "bool"
        },
        {
          "internalType": "string",
          "name": "uri",
          "type": "string"
        },
        {
          "internalType": "uint256",
          "name": "fee",
          "type": "uint256"
        },
        {
          "internalType": "address",
          "name": "feeAdd",
          "type": "address"
        },
        {
          "components": [
            {
              "internalType": "uint8",
              "name": "_typeValue",
              "type": "uint8"
            },
            {
              "internalType": "uint256",
              "name": "_max",
              "type": "uint256"
            },
            {
              "internalType": "uint256",
              "name": "_min",
              "type": "uint256"
            },
            {
              "internalType": "uint8",
              "name": "_decimal",
              "type": "uint8"
            },
            {
              "internalType": "string[]",
              "name": "_availableValues",
              "type": "string[]"
            },
            {
              "internalType": "uint256",
              "name": "_value",
              "type": "uint256"
            },
            {
              "internalType": "bool",
              "name": "_editable",
              "type": "bool"
            }
          ],
          "internalType": "struct BoilerplateParam.ParamTemplate[]",
          "name": "paramsTemplate",
          "type": "tuple[]"
        }
      ],
      "name": "mintProject",
      "outputs": [
        {
          "internalType": "uint256",
          "name": "",
          "type": "uint256"
        }
      ],
      "stateMutability": "payable",
      "type": "function"
    },
    {
      "inputs": [
        {
          "internalType": "address",
          "name": "to",
          "type": "address"
        },
        {
          "internalType": "string",
          "name": "projectName",
          "type": "string"
        },
        {
          "internalType": "uint256",
          "name": "maxSupply",
          "type": "uint256"
        },
        {
          "internalType": "uint256",
          "name": "limit",
          "type": "uint256"
        },
        {
          "internalType": "uint32",
          "name": "scriptType",
          "type": "uint32"
        },
        {
          "internalType": "bool",
          "name": "clientSeed",
          "type": "bool"
        },
        {
          "internalType": "string",
          "name": "uri",
          "type": "string"
        },
        {
          "internalType": "uint256",
          "name": "fee",
          "type": "uint256"
        },
        {
          "internalType": "address",
          "name": "feeAdd",
          "type": "address"
        },
        {
          "components": [
            {
              "internalType": "uint8",
              "name": "_typeValue",
              "type": "uint8"
            },
            {
              "internalType": "uint256",
              "name": "_max",
              "type": "uint256"
            },
            {
              "internalType": "uint256",
              "name": "_min",
              "type": "uint256"
            },
            {
              "internalType": "uint8",
              "name": "_decimal",
              "type": "uint8"
            },
            {
              "internalType": "string[]",
              "name": "_availableValues",
              "type": "string[]"
            },
            {
              "internalType": "uint256",
              "name": "_value",
              "type": "uint256"
            },
            {
              "internalType": "bool",
              "name": "_editable",
              "type": "bool"
            }
          ],
          "internalType": "struct BoilerplateParam.ParamTemplate[]",
          "name": "paramsTemplate",
          "type": "tuple[]"
        }
      ],
      "name": "mintProject2",
      "outputs": [
        {
          "internalType": "uint256",
          "name": "",
          "type": "uint256"
        }
      ],
      "stateMutability": "payable",
      "type": "function"
    },
    {
      "inputs": [],
      "name": "name",
      "outputs": [
        {
          "internalType": "string",
          "name": "",
          "type": "string"
        }
      ],
      "stateMutability": "view",
      "type": "function"
    },
    {
      "inputs": [
        {
          "internalType": "uint256",
          "name": "_fromProjectId",
          "type": "uint256"
        },
        {
          "internalType": "uint256",
          "name": "tokenId",
          "type": "uint256"
        },
        {
          "components": [
            {
              "internalType": "bytes32",
              "name": "_seed",
              "type": "bytes32"
            },
            {
              "internalType": "uint256[]",
              "name": "_value",
              "type": "uint256[]"
            }
          ],
          "internalType": "struct BoilerplateParam.ParamsOfNFT",
          "name": "paramValue",
          "type": "tuple"
        }
      ],
      "name": "ownerMintNFT",
      "outputs": [],
      "stateMutability": "payable",
      "type": "function"
    },
    {
      "inputs": [
        {
          "internalType": "uint256",
          "name": "tokenId",
          "type": "uint256"
        }
      ],
      "name": "ownerOf",
      "outputs": [
        {
          "internalType": "address",
          "name": "",
          "type": "address"
        }
      ],
      "stateMutability": "view",
      "type": "function"
    },
    {
      "inputs": [],
      "name": "pause",
      "outputs": [],
      "stateMutability": "nonpayable",
      "type": "function"
    },
    {
      "inputs": [],
      "name": "paused",
      "outputs": [
        {
          "internalType": "bool",
          "name": "",
          "type": "bool"
        }
      ],
      "stateMutability": "view",
      "type": "function"
    },
    {
      "inputs": [
        {
          "internalType": "uint256",
          "name": "projectId",
          "type": "uint256"
        },
        {
          "internalType": "bytes32",
          "name": "seed",
          "type": "bytes32"
        }
      ],
      "name": "registerSeed",
      "outputs": [],
      "stateMutability": "nonpayable",
      "type": "function"
    },
    {
      "inputs": [
        {
          "internalType": "uint256",
          "name": "_tokenId",
          "type": "uint256"
        },
        {
          "internalType": "uint256",
          "name": "_salePrice",
          "type": "uint256"
        }
      ],
      "name": "royaltyInfo",
      "outputs": [
        {
          "internalType": "address",
          "name": "receiver",
          "type": "address"
        },
        {
          "internalType": "uint256",
          "name": "royaltyAmount",
          "type": "uint256"
        }
      ],
      "stateMutability": "view",
      "type": "function"
    },
    {
      "inputs": [
        {
          "internalType": "address",
          "name": "from",
          "type": "address"
        },
        {
          "internalType": "address",
          "name": "to",
          "type": "address"
        },
        {
          "internalType": "uint256",
          "name": "tokenId",
          "type": "uint256"
        }
      ],
      "name": "safeTransferFrom",
      "outputs": [],
      "stateMutability": "nonpayable",
      "type": "function"
    },
    {
      "inputs": [
        {
          "internalType": "address",
          "name": "from",
          "type": "address"
        },
        {
          "internalType": "address",
          "name": "to",
          "type": "address"
        },
        {
          "internalType": "uint256",
          "name": "tokenId",
          "type": "uint256"
        },
        {
          "internalType": "bytes",
          "name": "data",
          "type": "bytes"
        }
      ],
      "name": "safeTransferFrom",
      "outputs": [],
      "stateMutability": "nonpayable",
      "type": "function"
    },
    {
      "inputs": [
        {
          "internalType": "address",
          "name": "operator",
          "type": "address"
        },
        {
          "internalType": "bool",
          "name": "approved",
          "type": "bool"
        }
      ],
      "name": "setApprovalForAll",
      "outputs": [],
      "stateMutability": "nonpayable",
      "type": "function"
    },
    {
      "inputs": [
        {
          "internalType": "address",
          "name": "_to",
          "type": "address"
        },
        {
          "internalType": "uint256",
          "name": "_id",
          "type": "uint256"
        }
      ],
      "name": "setCreator",
      "outputs": [],
      "stateMutability": "nonpayable",
      "type": "function"
    },
    {
      "inputs": [
        {
          "internalType": "uint256",
          "name": "projectId",
          "type": "uint256"
        },
        {
          "internalType": "string",
          "name": "script",
          "type": "string"
        }
      ],
      "name": "setScript",
      "outputs": [],
      "stateMutability": "nonpayable",
      "type": "function"
    },
    {
      "inputs": [
        {
          "internalType": "string",
          "name": "_uri",
          "type": "string"
        },
        {
          "internalType": "uint256",
          "name": "_id",
          "type": "uint256"
        }
      ],
      "name": "setTokenURI",
      "outputs": [],
      "stateMutability": "nonpayable",
      "type": "function"
    },
    {
      "inputs": [
        {
          "internalType": "bytes4",
          "name": "interfaceId",
          "type": "bytes4"
        }
      ],
      "name": "supportsInterface",
      "outputs": [
        {
          "internalType": "bool",
          "name": "",
          "type": "bool"
        }
      ],
      "stateMutability": "view",
      "type": "function"
    },
    {
      "inputs": [],
      "name": "symbol",
      "outputs": [
        {
          "internalType": "string",
          "name": "",
          "type": "string"
        }
      ],
      "stateMutability": "view",
      "type": "function"
    },
    {
      "inputs": [
        {
          "internalType": "uint256",
          "name": "_tokenId",
          "type": "uint256"
        }
      ],
      "name": "tokenURI",
      "outputs": [
        {
          "internalType": "string",
          "name": "",
          "type": "string"
        }
      ],
      "stateMutability": "view",
      "type": "function"
    },
    {
      "inputs": [
        {
          "internalType": "address",
          "name": "from",
          "type": "address"
        },
        {
          "internalType": "address",
          "name": "to",
          "type": "address"
        },
        {
          "internalType": "uint256",
          "name": "tokenId",
          "type": "uint256"
        }
      ],
      "name": "transferFrom",
      "outputs": [],
      "stateMutability": "nonpayable",
      "type": "function"
    },
    {
      "inputs": [],
      "name": "unpause",
      "outputs": [],
      "stateMutability": "nonpayable",
      "type": "function"
    },
    {
      "inputs": [
        {
          "internalType": "address",
          "name": "receiver",
          "type": "address"
        },
        {
          "internalType": "address",
          "name": "erc20Addr",
          "type": "address"
        },
        {
          "internalType": "uint256",
          "name": "amount",
          "type": "uint256"
        }
      ],
      "name": "withdraw",
      "outputs": [],
      "stateMutability": "nonpayable",
      "type": "function"
    }
  ],
  "bytecode": "0x608060405234801561001057600080fd5b50614a28806100206000396000f3fe6080604052600436106101e35760003560e01c80637775a4aa11610102578063b88d4fde11610095578063cc97e11011610064578063cc97e1101461059b578063d9caed12146105bb578063e985e9c5146105db578063eb12ae931461062457600080fd5b8063b88d4fde14610528578063c2ebaf6314610548578063c87b56dd1461055b578063c8cb8a751461057b57600080fd5b80638f15b414116100d15780638f15b414146104b257806395d89b41146104d2578063a22cb465146104e7578063adfc7dae1461050757600080fd5b80637775a4aa14610441578063821f9dc9146104545780638456cb591461048a5780638cc87c841461049f57600080fd5b80632a55205a1161017a5780635c975abb116101495780635c975abb146103bb5780636352211e146103d357806370a08231146103f357806371199d301461042157600080fd5b80632a55205a1461031a5780633f4ba83a1461035957806342842e0e1461036e5780634e26a2ac1461038e57600080fd5b8063095ea7b3116101b6578063095ea7b31461029857806309a3beef146102ba5780631acfd02a146102da57806323b872dd146102fa57600080fd5b806301bc45c9146101e857806301ffc9a71461022657806306fdde0314610256578063081812fc14610278575b600080fd5b3480156101f457600080fd5b5061012d54610209906001600160a01b031681565b6040516001600160a01b0390911681526020015b60405180910390f35b34801561023257600080fd5b50610246610241366004613af0565b610637565b604051901515815260200161021d565b34801561026257600080fd5b5061026b610689565b60405161021d9190613b6c565b34801561028457600080fd5b50610209610293366004613b7f565b61071b565b3480156102a457600080fd5b506102b86102b3366004613bb8565b610742565b005b3480156102c657600080fd5b506102b86102d5366004613cf9565b61085d565b3480156102e657600080fd5b506102b86102f5366004613d3d565b6108e5565b34801561030657600080fd5b506102b8610315366004613d76565b6109c0565b34801561032657600080fd5b5061033a610335366004613db7565b6109f1565b604080516001600160a01b03909316835260208301919091520161021d565b34801561036557600080fd5b506102b8610a22565b34801561037a57600080fd5b506102b8610389366004613d76565b610a74565b34801561039a57600080fd5b506103ae6103a9366004613b7f565b610a8f565b60405161021d9190613dd9565b3480156103c757600080fd5b5060975460ff16610246565b3480156103df57600080fd5b506102096103ee366004613b7f565b610c22565b3480156103ff57600080fd5b5061041361040e366004613ecf565b610c82565b60405190815260200161021d565b34801561042d57600080fd5b506102b861043c366004613eec565b610d08565b61041361044f36600461412d565b610d5c565b34801561046057600080fd5b5061047461046f366004613b7f565b611417565b60405161021d9a99989796959493929190614216565b34801561049657600080fd5b506102b861162e565b6104136104ad36600461412d565b61167e565b3480156104be57600080fd5b506102b86104cd3660046142a7565b611a0d565b3480156104de57600080fd5b5061026b611bda565b3480156104f357600080fd5b506102b861050236600461432f565b611be9565b34801561051357600080fd5b5061012e54610209906001600160a01b031681565b34801561053457600080fd5b506102b861054336600461435d565b611bf4565b6102b8610556366004614482565b611c2c565b34801561056757600080fd5b5061026b610576366004613b7f565b612112565b34801561058757600080fd5b506102b8610596366004613bb8565b6121b8565b3480156105a757600080fd5b506102b86105b6366004613db7565b612257565b3480156105c757600080fd5b506102b86105d6366004613d76565b6122f1565b3480156105e757600080fd5b506102466105f6366004613d3d565b6001600160a01b039182166000908152606a6020908152604080832093909416825291909152205460ff1690565b6102b86106323660046144be565b612478565b60006001600160e01b031982166380ac58cd60e01b148061066857506001600160e01b03198216635b5e139f60e01b145b8061068357506301ffc9a760e01b6001600160e01b03198316145b92915050565b6060606580546106989061450d565b80601f01602080910402602001604051908101604052809291908181526020018280546106c49061450d565b80156107115780601f106106e657610100808354040283529160200191610711565b820191906000526020600020905b8154815290600101906020018083116106f457829003601f168201915b5050505050905090565b600061072682612983565b506000908152606960205260409020546001600160a01b031690565b600061074d82610c22565b9050806001600160a01b0316836001600160a01b031614156107c05760405162461bcd60e51b815260206004820152602160248201527f4552433732313a20617070726f76616c20746f2063757272656e74206f776e656044820152603960f91b60648201526084015b60405180910390fd5b336001600160a01b03821614806107dc57506107dc81336105f6565b61084e5760405162461bcd60e51b815260206004820152603e60248201527f4552433732313a20617070726f76652063616c6c6572206973206e6f7420746f60448201527f6b656e206f776e6572206e6f7220617070726f76656420666f7220616c6c000060648201526084016107b7565b61085883836129e5565b505050565b6000818152610130602090815260409182902060039081015483518085019094529083526218981960e91b91830191909152600160201b90046001600160a01b031633146108be5760405162461bcd60e51b81526004016107b79190613b6c565b50600081815261013060209081526040909120835161085892600490920191850190613991565b61012d546001600160a01b03163314801561090857506001600160a01b03821615155b6040518060400160405280600381526020016231303160e81b815250906109425760405162461bcd60e51b81526004016107b79190613b6c565b5061012d546001600160a01b038381169116146109765761012d80546001600160a01b0319166001600160a01b0384161790555b6001600160a01b03811661098957600080fd5b61012e546001600160a01b038281169116146109bc5761012e80546001600160a01b0319166001600160a01b0383161790555b5050565b6109ca3382612a53565b6109e65760405162461bcd60e51b81526004016107b790614548565b610858838383612ad2565b61012d546001600160a01b03166000612710610a0f846101f46145ac565b610a1991906145cb565b90509250929050565b61012d5460408051808201909152600381526231303160e81b6020820152906001600160a01b03163314610a695760405162461bcd60e51b81526004016107b79190613b6c565b50610a72612c79565b565b61085883838360405180602001604052806000815250611bf4565b60606101306000838152602001908152602001600020600701805480602002602001604051908101604052809291908181526020016000905b82821015610c1757600084815260208082206040805160e08101825260078702909201805460ff9081168452600182015484860152600282015484840152600382015416606084015260048101805483518187028101870190945280845293959194608087019491929084015b82821015610be1578382906000526020600020018054610b549061450d565b80601f0160208091040260200160405190810160405280929190818152602001828054610b809061450d565b8015610bcd5780601f10610ba257610100808354040283529160200191610bcd565b820191906000526020600020905b815481529060010190602001808311610bb057829003601f168201915b505050505081526020019060010190610b35565b50505090825250600582015460208083019190915260069092015460ff1615156040909101529082526001929092019101610ac8565b505050509050919050565b6000818152606760205260408120546001600160a01b0316806106835760405162461bcd60e51b8152602060048201526018602482015277115490cdcc8c4e881a5b9d985b1a59081d1bdad95b88125160421b60448201526064016107b7565b60006001600160a01b038216610cec5760405162461bcd60e51b815260206004820152602960248201527f4552433732313a2061646472657373207a65726f206973206e6f7420612076616044820152683634b21037bbb732b960b91b60648201526084016107b7565b506001600160a01b031660009081526068602052604090205490565b60008281526101306020526040902060030154600160201b90046001600160a01b03163314610d3657600080fd5b600082815261013060209081526040909120825161085892600290920191840190613991565b6000600260fb541415610d815760405162461bcd60e51b81526004016107b7906145ed565b600260fb5589516040805180820190915260038082526203230360ec1b6020830152909111610dc35760405162461bcd60e51b81526004016107b79190613b6c565b5061012f8054906000610dd583614624565b909155505061012e546001600160a01b0316610def612ccb565b61012f546000908152610130602090815260409091208751610e1992600490920191890190613991565b5061012f546000908152610130602090815260409091208c51610e44926005909201918e0190613991565b5061012f8054600090815261013060205260408082206003018054640100000000600160c01b03191633600160201b02179055825482528082208890559154815290812060010180546001600160a01b0319166001600160a01b0387161790555b83518160ff161015610fc257610130600061012f548152602001908152602001600020600701848260ff1681518110610ee057610ee061463f565b6020908102919091018101518254600181810185556000948552938390208251600790920201805460ff92831660ff19918216178255838501519582019590955560408301516002820155606083015160038201805491909316951694909417905560808101518051919392610f5e92600485019290910190613a15565b5060a0820151600582015560c0909101516006909101805460ff19169115159190911790558351849060ff8316908110610f9a57610f9a61463f565b602002602001015160c0015115610fb057600080fd5b80610fba81614655565b915050610ea5565b5061012f805460009081526101306020526040808220600301805463ffffffff191663ffffffff8d16179055825482529020600601805460ff191690555461100b908d90612eae565b604080518082018252601881527f47454e455241544956455f4e46545f54454d504c4154453200000000000000006020820152905163bf40fac160e01b81526000916110b5916001600160a01b0385169163bf40fac19161106f9190600401613b6c565b602060405180830381865afa15801561108c573d6000803e3d6000fd5b505050506040513d601f19601f820116820180604052508101906110b09190614675565b612ec8565b90506000819050806001600160a01b031663ab1ca979604051806101600160405280610130600061012f54815260200190815260200160002060050180546110fc9061450d565b80601f01602080910402602001604051908101604052809291908181526020018280546111289061450d565b80156111755780601f1061114a57610100808354040283529160200191611175565b820191906000526020600020905b81548152906001019060200180831161115857829003601f168201915b5050505050815260200161122e60016003610130600061012f54815260200190815260200160002060050180546111ab9061450d565b80601f01602080910402602001604051908101604052809291908181526020018280546111d79061450d565b80156112245780601f106111f957610100808354040283529160200191611224565b820191906000526020600020905b81548152906001019060200180831161120757829003601f168201915b5050505050612f65565b8152602001866001600160a01b031663693ec85e6040518060400160405280600c81526020016b4e46545f424153455f55524960a01b8152506040518263ffffffff1660e01b81526004016112839190613b6c565b600060405180830381865afa1580156112a0573d6000803e3d6000fd5b505050506040513d6000823e601f3d908101601f191682016040526112c89190810190614692565b815260200161012d60009054906101000a90046001600160a01b03166001600160a01b031681526020018f81526020018e815260200161012f5481526020018a8152602001896001600160a01b03168152602001610130600061012f54815260200190815260200160002060030160049054906101000a90046001600160a01b03166001600160a01b0316815260200161012e60009054906101000a90046001600160a01b03166001600160a01b03168152506040518263ffffffff1660e01b81526004016113979190614708565b600060405180830381600087803b1580156113b157600080fd5b505af11580156113c5573d6000803e3d6000fd5b505061012f805460009081526101306020526040902060080180546001600160a01b0319166001600160a01b03969096169590951790945550509054600160fb559d9c50505050505050505050505050565b6101306020526000908152604090208054600182015460028301805492936001600160a01b039092169261144a9061450d565b80601f01602080910402602001604051908101604052809291908181526020018280546114769061450d565b80156114c35780601f10611498576101008083540402835291602001916114c3565b820191906000526020600020905b8154815290600101906020018083116114a657829003601f168201915b505050506003830154600484018054939463ffffffff831694600160201b9093046001600160a01b03169350916114f99061450d565b80601f01602080910402602001604051908101604052809291908181526020018280546115259061450d565b80156115725780601f1061154757610100808354040283529160200191611572565b820191906000526020600020905b81548152906001019060200180831161155557829003601f168201915b5050505050908060050180546115879061450d565b80601f01602080910402602001604051908101604052809291908181526020018280546115b39061450d565b80156116005780601f106115d557610100808354040283529160200191611600565b820191906000526020600020905b8154815290600101906020018083116115e357829003601f168201915b505050506006830154600890930154919260ff908116926001600160a01b0381169250600160a01b9004168a565b61012d5460408051808201909152600381526231303160e81b6020820152906001600160a01b031633146116755760405162461bcd60e51b81526004016107b79190613b6c565b50610a7261304b565b6000600260fb5414156116a35760405162461bcd60e51b81526004016107b7906145ed565b600260fb5589516040805180820190915260038082526203230360ec1b60208301529091116116e55760405162461bcd60e51b81526004016107b79190613b6c565b5061012f80549060006116f783614624565b909155505061012e546001600160a01b0316611711612ccb565b61012f54600090815261013060209081526040909120875161173b92600490920191890190613991565b5061012f546000908152610130602090815260409091208c51611766926005909201918e0190613991565b5061012f8054600090815261013060205260408082206003018054640100000000600160c01b03191633600160201b02179055825482528082208890559154815290812060010180546001600160a01b0319166001600160a01b0387161790555b83518160ff16101561195c57610130600061012f548152602001908152602001600020600701848260ff16815181106118025761180261463f565b6020908102919091018101518254600181810185556000948552938390208251600790920201805460ff92831660ff1991821617825583850151958201959095556040830151600282015560608301516003820180549190931695169490941790556080810151805191939261188092600485019290910190613a15565b5060a0820151600582015560c0909101516006909101805460ff19169115159190911790558351849060ff83169081106118bc576118bc61463f565b602002602001015160c0015180156118f2575061012f5460009081526101306020526040902060080154600160a01b900460ff16155b1561194a57838160ff168151811061190c5761190c61463f565b602002602001015160c00151610130600061012f54815260200190815260200160002060080160146101000a81548160ff0219169083151502179055505b8061195481614655565b9150506117c7565b5061012f805460009081526101306020526040808220600301805463ffffffff191663ffffffff8d16179055825482529020600601805460ff1916891515179055546119a9908d90612eae565b604080518082018252601781527f47454e455241544956455f4e46545f54454d504c4154450000000000000000006020820152905163bf40fac160e01b81526000916110b5916001600160a01b0385169163bf40fac19161106f9190600401613b6c565b600054610100900460ff1615808015611a2d5750600054600160ff909116105b80611a475750303b158015611a47575060005460ff166001145b611aaa5760405162461bcd60e51b815260206004820152602e60248201527f496e697469616c697a61626c653a20636f6e747261637420697320616c72656160448201526d191e481a5b9a5d1a585b1a5e995960921b60648201526084016107b7565b6000805460ff191660011790558015611acd576000805461ff0019166101001790555b60408051808201909152600381526203130360ec1b60208201526001600160a01b038416611b0e5760405162461bcd60e51b81526004016107b79190613b6c565b5060408051808201909152600381526203130360ec1b60208201526001600160a01b038316611b505760405162461bcd60e51b81526004016107b79190613b6c565b50611b5b8585613088565b61012e80546001600160a01b038085166001600160a01b03199283161790925561012d8054928616929091169190911790558015611bd3576000805461ff0019169055604051600181527f7f26b83ff96e1f2b6a682f133852f6798a09c465da95921460cefb38474024989060200160405180910390a15b5050505050565b6060606680546106989061450d565b6109bc3383836130b9565b611bfe3383612a53565b611c1a5760405162461bcd60e51b81526004016107b790614548565b611c2684848484613188565b50505050565b600260fb541415611c4f5760405162461bcd60e51b81526004016107b7906145ed565b600260fb8190556000838152610130602090815260408083208151610160810183528154815260018201546001600160a01b03169381019390935293840180549394929391840191611ca09061450d565b80601f0160208091040260200160405190810160405280929190818152602001828054611ccc9061450d565b8015611d195780601f10611cee57610100808354040283529160200191611d19565b820191906000526020600020905b815481529060010190602001808311611cfc57829003601f168201915b5050509183525050600382015463ffffffff81166020830152600160201b90046001600160a01b03166040820152600482018054606090920191611d5c9061450d565b80601f0160208091040260200160405190810160405280929190818152602001828054611d889061450d565b8015611dd55780601f10611daa57610100808354040283529160200191611dd5565b820191906000526020600020905b815481529060010190602001808311611db857829003601f168201915b50505050508152602001600582018054611dee9061450d565b80601f0160208091040260200160405190810160405280929190818152602001828054611e1a9061450d565b8015611e675780601f10611e3c57610100808354040283529160200191611e67565b820191906000526020600020905b815481529060010190602001808311611e4a57829003601f168201915b5050509183525050600682015460ff161515602080830191909152600783018054604080518285028101850182528281529401939260009084015b82821015611ff157600084815260208082206040805160e08101825260078702909201805460ff9081168452600182015484860152600282015484840152600382015416606084015260048101805483518187028101870190945280845293959194608087019491929084015b82821015611fbb578382906000526020600020018054611f2e9061450d565b80601f0160208091040260200160405190810160405280929190818152602001828054611f5a9061450d565b8015611fa75780601f10611f7c57610100808354040283529160200191611fa7565b820191906000526020600020905b815481529060010190602001808311611f8a57829003601f168201915b505050505081526020019060010190611f0f565b50505090825250600582015460208083019190915260069092015460ff1615156040909101529082526001929092019101611ea2565b50505090825250600891909101546001600160a01b038116602080840191909152600160a01b90910460ff161515604090920191909152830151516101008201515191925014806120455750806101400151155b604051806040016040528060038152602001620c8c0d60ea1b8152509061207f5760405162461bcd60e51b81526004016107b79190613b6c565b50805180156120925761209284836131bb565b6101208201516120a3858486613466565b60405163214863cb60e01b81529094506001600160a01b0382169063214863cb906120d4903390889060040161484b565b600060405180830381600087803b1580156120ee57600080fd5b505af1158015612102573d6000803e3d6000fd5b5050600160fb5550505050505050565b6000818152610130602052604090206004018054606091906121339061450d565b80601f016020809104026020016040519081016040528092919081815260200182805461215f9061450d565b80156121ac5780601f10612181576101008083540402835291602001916121ac565b820191906000526020600020905b81548152906001019060200180831161218f57829003601f168201915b50505050509050919050565b6000818152610130602090815260409182902060039081015483518085019094529083526218981960e91b91830191909152600160201b90046001600160a01b031633146122195760405162461bcd60e51b81526004016107b79190613b6c565b5060009081526101306020526040902060030180546001600160a01b03909216600160201b02640100000000600160c01b0319909216919091179055565b6000828152610130602052604090206006015460ff16801561228f57506000828152606760205260409020546001600160a01b031615155b61229857600080fd5b6000818152610131602090815260408083208584529091529020546001600160a01b0316156122c657600080fd5b6000908152610131602090815260408083209383529290522080546001600160a01b03191633179055565b600260fb5414156123145760405162461bcd60e51b81526004016107b7906145ed565b600260fb5561012d546001600160a01b0316336001600160a01b0316146040518060400160405280600381526020016231303160e81b8152509061236b5760405162461bcd60e51b81526004016107b79190613b6c565b5060006001600160a01b0383166123ec578147101561238957600080fd5b6040516001600160a01b038516908390600081818185875af1925050503d80600081146123d2576040519150601f19603f3d011682016040523d82523d6000602084013e6123d7565b606091505b505080915050806123e757600080fd5b61246d565b60405163a9059cbb60e01b81526001600160a01b0385811660048301526024820184905284919082169063a9059cbb906044016020604051808303816000875af115801561243e573d6000803e3d6000fd5b505050506040513d601f19601f82011682018060405250810190612462919061486f565b61246b57600080fd5b505b5050600160fb555050565b600260fb54141561249b5760405162461bcd60e51b81526004016107b7906145ed565b600260fb8190556000848152610130602090815260408083208151610160810183528154815260018201546001600160a01b031693810193909352938401805493949293918401916124ec9061450d565b80601f01602080910402602001604051908101604052809291908181526020018280546125189061450d565b80156125655780601f1061253a57610100808354040283529160200191612565565b820191906000526020600020905b81548152906001019060200180831161254857829003601f168201915b5050509183525050600382015463ffffffff81166020830152600160201b90046001600160a01b031660408201526004820180546060909201916125a89061450d565b80601f01602080910402602001604051908101604052809291908181526020018280546125d49061450d565b80156126215780601f106125f657610100808354040283529160200191612621565b820191906000526020600020905b81548152906001019060200180831161260457829003601f168201915b5050505050815260200160058201805461263a9061450d565b80601f01602080910402602001604051908101604052809291908181526020018280546126669061450d565b80156126b35780601f10612688576101008083540402835291602001916126b3565b820191906000526020600020905b81548152906001019060200180831161269657829003601f168201915b5050509183525050600682015460ff161515602080830191909152600783018054604080518285028101850182528281529401939260009084015b8282101561283d57600084815260208082206040805160e08101825260078702909201805460ff9081168452600182015484860152600282015484840152600382015416606084015260048101805483518187028101870190945280845293959194608087019491929084015b8282101561280757838290600052602060002001805461277a9061450d565b80601f01602080910402602001604051908101604052809291908181526020018280546127a69061450d565b80156127f35780601f106127c8576101008083540402835291602001916127f3565b820191906000526020600020905b8154815290600101906020018083116127d657829003601f168201915b50505050508152602001906001019061275b565b50505090825250600582015460208083019190915260069092015460ff16151560409091015290825260019290920191016126ee565b50505090825250600891909101546001600160a01b038116602080840191909152600160a01b90910460ff161515604090920191909152830151516101008201515191925014806128915750806101400151155b604051806040016040528060038152602001620c8c0d60ea1b815250906128cb5760405162461bcd60e51b81526004016107b79190613b6c565b5080608001516001600160a01b0316336001600160a01b0316146128ee57600080fd5b805180156129005761290085836131bb565b610120820151612911868486613466565b604051631ef4aaab60e11b81529094506001600160a01b03821690633de95556906129449033908990899060040161488c565b600060405180830381600087803b15801561295e57600080fd5b505af1158015612972573d6000803e3d6000fd5b5050600160fb555050505050505050565b6000818152606760205260409020546001600160a01b03166129e25760405162461bcd60e51b8152602060048201526018602482015277115490cdcc8c4e881a5b9d985b1a59081d1bdad95b88125160421b60448201526064016107b7565b50565b600081815260696020526040902080546001600160a01b0319166001600160a01b0384169081179091558190612a1a82610c22565b6001600160a01b03167f8c5be1e5ebec7d5bd14f71427d1e84f3dd0314c0f7b2291e5b200ac8c7c3b92560405160405180910390a45050565b600080612a5f83610c22565b9050806001600160a01b0316846001600160a01b03161480612aa657506001600160a01b038082166000908152606a602090815260408083209388168352929052205460ff165b80612aca5750836001600160a01b0316612abf8461071b565b6001600160a01b0316145b949350505050565b826001600160a01b0316612ae582610c22565b6001600160a01b031614612b495760405162461bcd60e51b815260206004820152602560248201527f4552433732313a207472616e736665722066726f6d20696e636f72726563742060448201526437bbb732b960d91b60648201526084016107b7565b6001600160a01b038216612bab5760405162461bcd60e51b8152602060048201526024808201527f4552433732313a207472616e7366657220746f20746865207a65726f206164646044820152637265737360e01b60648201526084016107b7565b612bb6838383613576565b612bc16000826129e5565b6001600160a01b0383166000908152606860205260408120805460019290612bea9084906148b3565b90915550506001600160a01b0382166000908152606860205260408120805460019290612c189084906148ca565b909155505060008181526067602052604080822080546001600160a01b0319166001600160a01b0386811691821790925591518493918716917fddf252ad1be2c89b69c2b068fc378daa952ba7f163c4a11628f55a4df523b3ef91a4505050565b612c816135dd565b6097805460ff191690557f5db9ee0a495bf2e6ff9c91a7834c1ba4fdd244a5e8aa4e537bd38aeae4b073aa335b6040516001600160a01b03909116815260200160405180910390a1565b61012d546001600160a01b03163314610a725761012e5460408051808201825260128152714352454154455f50524f4a4543545f46454560701b60208201529051636d12dce160e01b81526001600160a01b03909216916000918391636d12dce191612d3991600401613b6c565b602060405180830381865afa158015612d56573d6000803e3d6000fd5b505050506040513d601f19601f82011682018060405250810190612d7a91906148e2565b905080156109bc5760408051808201825260098152682322a2afaa27a5a2a760b91b6020820152905163bf40fac160e01b81526000916001600160a01b0385169163bf40fac191612dcd91600401613b6c565b602060405180830381865afa158015612dea573d6000803e3d6000fd5b505050506040513d601f19601f82011682018060405250810190612e0e9190614675565b90506001600160a01b03811615612ea1576040516323b872dd60e01b81523360048201523060248201526044810183905281906001600160a01b038216906323b872dd906064016020604051808303816000875af1158015612e74573d6000803e3d6000fd5b505050506040513d601f19601f82011682018060405250810190612e98919061486f565b611c2657600080fd5b8134101561085857600080fd5b6109bc828260405180602001604052806000815250613626565b6000604051733d602d80600a3d3981f3363d3d373d3d3d363d7360601b81528260601b60148201526e5af43d82803e903d91602b57fd5bf360881b60288201526037816000f09150506001600160a01b038116612f605760405162461bcd60e51b8152602060048201526016602482015275115490cc4c4d8dce8818dc99585d194819985a5b195960521b60448201526064016107b7565b919050565b60606000612f7385856148b3565b612f7e9060016148ca565b6001600160401b03811115612f9557612f95613be4565b6040519080825280601f01601f191660200182016040528015612fbf576020820181803683370190505b50905060005b612fcf86866148b3565b811161304257836001612fe288846148ca565b612fec91906148b3565b81518110612ffc57612ffc61463f565b602001015160f81c60f81b8282815181106130195761301961463f565b60200101906001600160f81b031916908160001a9053508061303a81614624565b915050612fc5565b50949350505050565b613053613659565b6097805460ff191660011790557f62e78cea01bee320cd4e420270b5ea74000d11b0c9f74754ebdbfc544b05a258612cae3390565b600054610100900460ff166130af5760405162461bcd60e51b81526004016107b7906148fb565b6109bc828261369f565b816001600160a01b0316836001600160a01b0316141561311b5760405162461bcd60e51b815260206004820152601960248201527f4552433732313a20617070726f766520746f2063616c6c65720000000000000060448201526064016107b7565b6001600160a01b038381166000818152606a6020908152604080832094871680845294825291829020805460ff191686151590811790915591519182527f17307eab39ab6107e8899845ad3d59bd9653f200f220920489ca2b5937696c31910160405180910390a3505050565b613193848484612ad2565b61319f848484846136ed565b611c265760405162461bcd60e51b81526004016107b790614946565b336131c583610c22565b6001600160a01b0316146109bc5761012e54604080518082018252600c81526b4d494e545f4e46545f46454560a01b60208201529051636d12dce160e01b81526001600160a01b03909216916000918391636d12dce19161322891600401613b6c565b602060405180830381865afa158015613245573d6000803e3d6000fd5b505050506040513d601f19601f8201168201806040525081019061326991906148e2565b90508061327557506101f45b60208301516001600160a01b031661332757825134101561329557600080fd5b60006132a085610c22565b6001600160a01b03166127108386600001516132bc91906145ac565b6132c691906145cb565b85516132d291906148b3565b604051600081818185875af1925050503d806000811461330e576040519150601f19603f3d011682016040523d82523d6000602084013e613313565b606091505b505090508061332157600080fd5b50611c26565b602083015183516040516323b872dd60e01b815233600482015230602482015260448101919091526001600160a01b038216906323b872dd906064016020604051808303816000875af1158015613382573d6000803e3d6000fd5b505050506040513d601f19601f820116820180604052508101906133a6919061486f565b6133af57600080fd5b806001600160a01b031663a9059cbb6133c787610c22565b8651612710906133d89087906145ac565b6133e291906145cb565b87516133ee91906148b3565b6040516001600160e01b031960e085901b1681526001600160a01b03909216600483015260248201526044016020604051808303816000875af1158015613439573d6000803e3d6000fd5b505050506040513d601f19601f8201168201806040525081019061345d919061486f565b611bd357600080fd5b6040805180820190915260008152606060208201528260e001516134c05761348e33856137eb565b808352600090815261013160209081526040808320878452909152902080546001600160a01b0319163317905561356f565b81516000908152610131602090815260408083208784529091529020546001600160a01b0316156134f057600080fd5b8151600090815261013260209081526040808320878452825291829020548251808401909352600383526232303560e81b9183019190915260ff16156135495760405162461bcd60e51b81526004016107b79190613b6c565b5081516000908152610132602090815260408083208784529091529020805460ff191690555b5092915050565b60975460ff16156108585760405162461bcd60e51b815260206004820152602b60248201527f4552433732315061757361626c653a20746f6b656e207472616e73666572207760448201526a1a1a5b19481c185d5cd95960aa1b60648201526084016107b7565b60975460ff16610a725760405162461bcd60e51b815260206004820152601460248201527314185d5cd8589b194e881b9bdd081c185d5cd95960621b60448201526064016107b7565b6136308383613843565b61363d60008484846136ed565b6108585760405162461bcd60e51b81526004016107b790614946565b60975460ff1615610a725760405162461bcd60e51b815260206004820152601060248201526f14185d5cd8589b194e881c185d5cd95960821b60448201526064016107b7565b600054610100900460ff166136c65760405162461bcd60e51b81526004016107b7906148fb565b81516136d9906065906020850190613991565b508051610858906066906020840190613991565b60006001600160a01b0384163b156137e057604051630a85bd0160e11b81526001600160a01b0385169063150b7a0290613731903390899088908890600401614998565b6020604051808303816000875af192505050801561376c575060408051601f3d908101601f19168201909252613769918101906149d5565b60015b6137c6573d80801561379a576040519150601f19603f3d011682016040523d82523d6000602084013e61379f565b606091505b5080516137be5760405162461bcd60e51b81526004016107b790614946565b805181602001fd5b6001600160e01b031916630a85bd0160e11b149050612aca565b506001949350505050565b60006137f86001436148b3565b60408051914060208301526bffffffffffffffffffffffff19606086901b16908201526054810183905260740160405160208183030381529060405280519060200120905092915050565b6001600160a01b0382166138995760405162461bcd60e51b815260206004820181905260248201527f4552433732313a206d696e7420746f20746865207a65726f206164647265737360448201526064016107b7565b6000818152606760205260409020546001600160a01b0316156138fe5760405162461bcd60e51b815260206004820152601c60248201527f4552433732313a20746f6b656e20616c7265616479206d696e7465640000000060448201526064016107b7565b61390a60008383613576565b6001600160a01b03821660009081526068602052604081208054600192906139339084906148ca565b909155505060008181526067602052604080822080546001600160a01b0319166001600160a01b03861690811790915590518392907fddf252ad1be2c89b69c2b068fc378daa952ba7f163c4a11628f55a4df523b3ef908290a45050565b82805461399d9061450d565b90600052602060002090601f0160209004810192826139bf5760008555613a05565b82601f106139d857805160ff1916838001178555613a05565b82800160010185558215613a05579182015b82811115613a055782518255916020019190600101906139ea565b50613a11929150613a6e565b5090565b828054828255906000526020600020908101928215613a62579160200282015b82811115613a625782518051613a52918491602090910190613991565b5091602001919060010190613a35565b50613a11929150613a83565b5b80821115613a115760008155600101613a6f565b80821115613a11576000613a978282613aa0565b50600101613a83565b508054613aac9061450d565b6000825580601f10613abc575050565b601f0160209004906000526020600020908101906129e29190613a6e565b6001600160e01b0319811681146129e257600080fd5b600060208284031215613b0257600080fd5b8135613b0d81613ada565b9392505050565b60005b83811015613b2f578181015183820152602001613b17565b83811115611c265750506000910152565b60008151808452613b58816020860160208601613b14565b601f01601f19169290920160200192915050565b602081526000613b0d6020830184613b40565b600060208284031215613b9157600080fd5b5035919050565b6001600160a01b03811681146129e257600080fd5b8035612f6081613b98565b60008060408385031215613bcb57600080fd5b8235613bd681613b98565b946020939093013593505050565b634e487b7160e01b600052604160045260246000fd5b60405160e081016001600160401b0381118282101715613c1c57613c1c613be4565b60405290565b604080519081016001600160401b0381118282101715613c1c57613c1c613be4565b604051601f8201601f191681016001600160401b0381118282101715613c6c57613c6c613be4565b604052919050565b60006001600160401b03821115613c8d57613c8d613be4565b50601f01601f191660200190565b6000613cae613ca984613c74565b613c44565b9050828152838383011115613cc257600080fd5b828260208301376000602084830101529392505050565b600082601f830112613cea57600080fd5b613b0d83833560208501613c9b565b60008060408385031215613d0c57600080fd5b82356001600160401b03811115613d2257600080fd5b613d2e85828601613cd9565b95602094909401359450505050565b60008060408385031215613d5057600080fd5b8235613d5b81613b98565b91506020830135613d6b81613b98565b809150509250929050565b600080600060608486031215613d8b57600080fd5b8335613d9681613b98565b92506020840135613da681613b98565b929592945050506040919091013590565b60008060408385031215613dca57600080fd5b50508035926020909101359150565b602080825282518282018190526000919060409081850190600581811b8701840188860187805b85811015613ebf578a8403603f190187528251805160ff90811686528a8201518b870152898201518a8701526060808301519091169086015260808082015160e0918701829052805191870182905261010080880192808a1b8901909101918d01865b82811015613e915760ff198a8503018552613e7f848351613b40565b948f01949350908e0190600101613e63565b50505060a0838101519088015260c09283015115159290960191909152509588019591880191600101613e00565b50919a9950505050505050505050565b600060208284031215613ee157600080fd5b8135613b0d81613b98565b60008060408385031215613eff57600080fd5b8235915060208301356001600160401b03811115613f1c57600080fd5b613f2885828601613cd9565b9150509250929050565b803563ffffffff81168114612f6057600080fd5b80151581146129e257600080fd5b8035612f6081613f46565b60006001600160401b03821115613f7857613f78613be4565b5060051b60200190565b803560ff81168114612f6057600080fd5b600082601f830112613fa457600080fd5b81356020613fb4613ca983613f5f565b82815260059290921b84018101918181019086841115613fd357600080fd5b8286015b848110156140125780356001600160401b03811115613ff65760008081fd5b6140048986838b0101613cd9565b845250918301918301613fd7565b509695505050505050565b600082601f83011261402e57600080fd5b8135602061403e613ca983613f5f565b82815260059290921b8401810191818101908684111561405d57600080fd5b8286015b848110156140125780356001600160401b03808211156140815760008081fd5b9088019060e0828b03601f190181131561409b5760008081fd5b6140a3613bfa565b6140ae888501613f82565b81526040808501358983015260608086013582840152608091506140d3828701613f82565b9083015260a085810135858111156140eb5760008081fd5b6140f98f8c838a0101613f93565b838501525060c0945084860135818401525050614117828501613f54565b9281019290925250845250918301918301614061565b6000806000806000806000806000806101408b8d03121561414d57600080fd5b6141568b613bad565b995060208b01356001600160401b038082111561417257600080fd5b61417e8e838f01613cd9565b9a5060408d0135995060608d0135985061419a60808e01613f32565b97506141a860a08e01613f54565b965060c08d01359150808211156141be57600080fd5b6141ca8e838f01613cd9565b955060e08d013594506141e06101008e01613bad565b93506101208d01359150808211156141f757600080fd5b506142048d828e0161401d565b9150509295989b9194979a5092959850565b8a81526001600160a01b038a81166020830152610140604083018190526000916142428483018d613b40565b915063ffffffff8b166060850152808a16608085015283820360a085015261426a828a613b40565b915083820360c085015261427e8289613b40565b96151560e085015294909416610100830152509015156101209091015250979650505050505050565b600080600080608085870312156142bd57600080fd5b84356001600160401b03808211156142d457600080fd5b6142e088838901613cd9565b955060208701359150808211156142f657600080fd5b5061430387828801613cd9565b935050604085013561431481613b98565b9150606085013561432481613b98565b939692955090935050565b6000806040838503121561434257600080fd5b823561434d81613b98565b91506020830135613d6b81613f46565b6000806000806080858703121561437357600080fd5b843561437e81613b98565b9350602085013561438e81613b98565b92506040850135915060608501356001600160401b038111156143b057600080fd5b8501601f810187136143c157600080fd5b6143d087823560208401613c9b565b91505092959194509250565b6000604082840312156143ee57600080fd5b6143f6613c22565b9050813581526020808301356001600160401b0381111561441657600080fd5b8301601f8101851361442757600080fd5b8035614435613ca982613f5f565b81815260059190911b8201830190838101908783111561445457600080fd5b928401925b8284101561447257833582529284019290840190614459565b8085870152505050505092915050565b6000806040838503121561449557600080fd5b8235915060208301356001600160401b038111156144b257600080fd5b613f28858286016143dc565b6000806000606084860312156144d357600080fd5b833592506020840135915060408401356001600160401b038111156144f757600080fd5b614503868287016143dc565b9150509250925092565b600181811c9082168061452157607f821691505b6020821081141561454257634e487b7160e01b600052602260045260246000fd5b50919050565b6020808252602e908201527f4552433732313a2063616c6c6572206973206e6f7420746f6b656e206f776e6560408201526d1c881b9bdc88185c1c1c9bdd995960921b606082015260800190565b634e487b7160e01b600052601160045260246000fd5b60008160001904831182151516156145c6576145c6614596565b500290565b6000826145e857634e487b7160e01b600052601260045260246000fd5b500490565b6020808252601f908201527f5265656e7472616e637947756172643a207265656e7472616e742063616c6c00604082015260600190565b600060001982141561463857614638614596565b5060010190565b634e487b7160e01b600052603260045260246000fd5b600060ff821660ff81141561466c5761466c614596565b60010192915050565b60006020828403121561468757600080fd5b8151613b0d81613b98565b6000602082840312156146a457600080fd5b81516001600160401b038111156146ba57600080fd5b8201601f810184136146cb57600080fd5b80516146d9613ca982613c74565b8181528560208385010111156146ee57600080fd5b6146ff826020830160208601613b14565b95945050505050565b6020815260008251610160806020850152614727610180850183613b40565b91506020850151601f19808685030160408701526147458483613b40565b93506040870151915080868503016060870152506147638382613b40565b925050606085015161478060808601826001600160a01b03169052565b50608085015160a085015260a085015160c085015260c085015160e085015260e08501516101008181870152808701519150506101206147ca818701836001600160a01b03169052565b86015190506101406147e6868201836001600160a01b03169052565b909501516001600160a01b031693019290925250919050565b600060408301825184526020808401516040828701528281518085526060880191508383019450600092505b80831015614012578451825293830193600192909201919083019061482b565b6001600160a01b0383168152604060208201819052600090612aca908301846147ff565b60006020828403121561488157600080fd5b8151613b0d81613f46565b60018060a01b03841681528260208201526060604082015260006146ff60608301846147ff565b6000828210156148c5576148c5614596565b500390565b600082198211156148dd576148dd614596565b500190565b6000602082840312156148f457600080fd5b5051919050565b6020808252602b908201527f496e697469616c697a61626c653a20636f6e7472616374206973206e6f74206960408201526a6e697469616c697a696e6760a81b606082015260800190565b60208082526032908201527f4552433732313a207472616e7366657220746f206e6f6e20455243373231526560408201527131b2b4bb32b91034b6b83632b6b2b73a32b960711b606082015260800190565b6001600160a01b03858116825284166020820152604081018390526080606082018190526000906149cb90830184613b40565b9695505050505050565b6000602082840312156149e757600080fd5b8151613b0d81613ada56fea2646970667358221220b7ff662af27ad59d5e05a541a9ab92f3820bab4531e0739fefd2034eeffd729664736f6c634300080c0033",
  "linkReferences": {},
  "deployedLinkReferences": {}
}