{
  "_format": "hh-sol-artifact-1",
  "contractName": "GenerativeBoilerplateNFT",
  "sourceName": "contracts/nft/GenerativeBoilerplateNFT.sol",
  "abi": [
    {
      "anonymous": false,
      "inputs": [
        {
          "indexed": true,
          "internalType": "address",
          "name": "owner",
          "type": "address"
        },
        {
          "indexed": true,
          "internalType": "address",
          "name": "approved",
          "type": "address"
        },
        {
          "indexed": true,
          "internalType": "uint256",
          "name": "tokenId",
          "type": "uint256"
        }
      ],
      "name": "Approval",
      "type": "event"
    },
    {
      "anonymous": false,
      "inputs": [
        {
          "indexed": true,
          "internalType": "address",
          "name": "owner",
          "type": "address"
        },
        {
          "indexed": true,
          "internalType": "address",
          "name": "operator",
          "type": "address"
        },
        {
          "indexed": false,
          "internalType": "bool",
          "name": "approved",
          "type": "bool"
        }
      ],
      "name": "ApprovalForAll",
      "type": "event"
    },
    {
      "anonymous": false,
      "inputs": [
        {
          "indexed": false,
          "internalType": "address",
          "name": "sender",
          "type": "address"
        },
        {
          "indexed": false,
          "internalType": "uint256",
          "name": "projectId",
          "type": "uint256"
        },
        {
          "indexed": false,
          "internalType": "bytes32[]",
          "name": "seeds",
          "type": "bytes32[]"
        }
      ],
      "name": "GenerateSeeds",
      "type": "event"
    },
    {
      "anonymous": false,
      "inputs": [
        {
          "indexed": false,
          "internalType": "uint8",
          "name": "version",
          "type": "uint8"
        }
      ],
      "name": "Initialized",
      "type": "event"
    },
    {
      "anonymous": false,
      "inputs": [
        {
          "indexed": false,
          "internalType": "address",
          "name": "sender",
          "type": "address"
        },
        {
          "components": [
            {
              "internalType": "uint256",
              "name": "_fromProjectId",
              "type": "uint256"
            },
            {
              "internalType": "address",
              "name": "_mintTo",
              "type": "address"
            },
            {
              "internalType": "string[]",
              "name": "_uriBatch",
              "type": "string[]"
            },
            {
              "components": [
                {
                  "internalType": "bytes32",
                  "name": "_seed",
                  "type": "bytes32"
                },
                {
                  "components": [
                    {
                      "internalType": "uint8",
                      "name": "_typeValue",
                      "type": "uint8"
                    },
                    {
                      "internalType": "uint256",
                      "name": "_max",
                      "type": "uint256"
                    },
                    {
                      "internalType": "uint256",
                      "name": "_min",
                      "type": "uint256"
                    },
                    {
                      "internalType": "uint8",
                      "name": "_decimal",
                      "type": "uint8"
                    },
                    {
                      "internalType": "string[]",
                      "name": "_availableValues",
                      "type": "string[]"
                    },
                    {
                      "internalType": "uint256",
                      "name": "_value",
                      "type": "uint256"
                    },
                    {
                      "internalType": "bool",
                      "name": "_editable",
                      "type": "bool"
                    }
                  ],
                  "internalType": "struct BoilerplateParam.ParamTemplate[]",
                  "name": "_params",
                  "type": "tuple[]"
                }
              ],
              "internalType": "struct BoilerplateParam.ParamsOfProject[]",
              "name": "_paramsBatch",
              "type": "tuple[]"
            }
          ],
          "indexed": false,
          "internalType": "struct IGenerativeBoilerplateNFT.MintRequest",
          "name": "request",
          "type": "tuple"
        }
      ],
      "name": "MintBatchNFT",
      "type": "event"
    },
    {
      "anonymous": false,
      "inputs": [
        {
          "indexed": false,
          "internalType": "address",
          "name": "account",
          "type": "address"
        }
      ],
      "name": "Paused",
      "type": "event"
    },
    {
      "anonymous": false,
      "inputs": [
        {
          "indexed": true,
          "internalType": "bytes32",
          "name": "role",
          "type": "bytes32"
        },
        {
          "indexed": true,
          "internalType": "bytes32",
          "name": "previousAdminRole",
          "type": "bytes32"
        },
        {
          "indexed": true,
          "internalType": "bytes32",
          "name": "newAdminRole",
          "type": "bytes32"
        }
      ],
      "name": "RoleAdminChanged",
      "type": "event"
    },
    {
      "anonymous": false,
      "inputs": [
        {
          "indexed": true,
          "internalType": "bytes32",
          "name": "role",
          "type": "bytes32"
        },
        {
          "indexed": true,
          "internalType": "address",
          "name": "account",
          "type": "address"
        },
        {
          "indexed": true,
          "internalType": "address",
          "name": "sender",
          "type": "address"
        }
      ],
      "name": "RoleGranted",
      "type": "event"
    },
    {
      "anonymous": false,
      "inputs": [
        {
          "indexed": true,
          "internalType": "bytes32",
          "name": "role",
          "type": "bytes32"
        },
        {
          "indexed": true,
          "internalType": "address",
          "name": "account",
          "type": "address"
        },
        {
          "indexed": true,
          "internalType": "address",
          "name": "sender",
          "type": "address"
        }
      ],
      "name": "RoleRevoked",
      "type": "event"
    },
    {
      "anonymous": false,
      "inputs": [
        {
          "indexed": true,
          "internalType": "address",
          "name": "from",
          "type": "address"
        },
        {
          "indexed": true,
          "internalType": "address",
          "name": "to",
          "type": "address"
        },
        {
          "indexed": true,
          "internalType": "uint256",
          "name": "tokenId",
          "type": "uint256"
        }
      ],
      "name": "Transfer",
      "type": "event"
    },
    {
      "anonymous": false,
      "inputs": [
        {
          "indexed": false,
          "internalType": "address",
          "name": "account",
          "type": "address"
        }
      ],
      "name": "Unpaused",
      "type": "event"
    },
    {
      "inputs": [],
      "name": "DEFAULT_ADMIN_ROLE",
      "outputs": [
        {
          "internalType": "bytes32",
          "name": "",
          "type": "bytes32"
        }
      ],
      "stateMutability": "view",
      "type": "function"
    },
    {
      "inputs": [],
      "name": "MINTER_ROLE",
      "outputs": [
        {
          "internalType": "bytes32",
          "name": "",
          "type": "bytes32"
        }
      ],
      "stateMutability": "view",
      "type": "function"
    },
    {
      "inputs": [],
      "name": "PAUSER_ROLE",
      "outputs": [
        {
          "internalType": "bytes32",
          "name": "",
          "type": "bytes32"
        }
      ],
      "stateMutability": "view",
      "type": "function"
    },
    {
      "inputs": [],
      "name": "_admin",
      "outputs": [
        {
          "internalType": "address",
          "name": "",
          "type": "address"
        }
      ],
      "stateMutability": "view",
      "type": "function"
    },
    {
      "inputs": [
        {
          "internalType": "address",
          "name": "",
          "type": "address"
        },
        {
          "internalType": "address",
          "name": "",
          "type": "address"
        }
      ],
      "name": "_approvalForAllSeeds",
      "outputs": [
        {
          "internalType": "uint256",
          "name": "",
          "type": "uint256"
        }
      ],
      "stateMutability": "view",
      "type": "function"
    },
    {
      "inputs": [],
      "name": "_paramsAddress",
      "outputs": [
        {
          "internalType": "address",
          "name": "",
          "type": "address"
        }
      ],
      "stateMutability": "view",
      "type": "function"
    },
    {
      "inputs": [
        {
          "internalType": "uint256",
          "name": "",
          "type": "uint256"
        }
      ],
      "name": "_projects",
      "outputs": [
        {
          "internalType": "uint256",
          "name": "_fee",
          "type": "uint256"
        },
        {
          "internalType": "address",
          "name": "_feeToken",
          "type": "address"
        },
        {
          "internalType": "uint256",
          "name": "_mintMaxSupply",
          "type": "uint256"
        },
        {
          "internalType": "uint256",
          "name": "_mintTotalSupply",
          "type": "uint256"
        },
        {
          "internalType": "string",
          "name": "_script",
          "type": "string"
        },
        {
          "internalType": "uint32",
          "name": "_scriptType",
          "type": "uint32"
        },
        {
          "internalType": "address",
          "name": "_creator",
          "type": "address"
        },
        {
          "internalType": "string",
          "name": "_customUri",
          "type": "string"
        },
        {
          "internalType": "string",
          "name": "_projectName",
          "type": "string"
        },
        {
          "internalType": "bool",
          "name": "_clientSeed",
          "type": "bool"
        },
        {
          "components": [
            {
              "internalType": "bytes32",
              "name": "_seed",
              "type": "bytes32"
            },
            {
              "components": [
                {
                  "internalType": "uint8",
                  "name": "_typeValue",
                  "type": "uint8"
                },
                {
                  "internalType": "uint256",
                  "name": "_max",
                  "type": "uint256"
                },
                {
                  "internalType": "uint256",
                  "name": "_min",
                  "type": "uint256"
                },
                {
                  "internalType": "uint8",
                  "name": "_decimal",
                  "type": "uint8"
                },
                {
                  "internalType": "string[]",
                  "name": "_availableValues",
                  "type": "string[]"
                },
                {
                  "internalType": "uint256",
                  "name": "_value",
                  "type": "uint256"
                },
                {
                  "internalType": "bool",
                  "name": "_editable",
                  "type": "bool"
                }
              ],
              "internalType": "struct BoilerplateParam.ParamTemplate[]",
              "name": "_params",
              "type": "tuple[]"
            }
          ],
          "internalType": "struct BoilerplateParam.ParamsOfProject",
          "name": "_paramsTemplate",
          "type": "tuple"
        },
        {
          "internalType": "address",
          "name": "_minterNFTInfo",
          "type": "address"
        },
        {
          "internalType": "uint256",
          "name": "_mintNotOwnerProjectMaxSupply",
          "type": "uint256"
        },
        {
          "internalType": "uint256",
          "name": "_mintNotOnwerProjectTotalSupply",
          "type": "uint256"
        }
      ],
      "stateMutability": "view",
      "type": "function"
    },
    {
      "inputs": [
        {
          "internalType": "address",
          "name": "to",
          "type": "address"
        },
        {
          "internalType": "uint256",
          "name": "tokenId",
          "type": "uint256"
        }
      ],
      "name": "approve",
      "outputs": [],
      "stateMutability": "nonpayable",
      "type": "function"
    },
    {
      "inputs": [
        {
          "internalType": "address",
          "name": "operator",
          "type": "address"
        },
        {
          "internalType": "uint256",
          "name": "projectId",
          "type": "uint256"
        }
      ],
      "name": "approveForAllSeeds",
      "outputs": [],
      "stateMutability": "nonpayable",
      "type": "function"
    },
    {
      "inputs": [
        {
          "internalType": "address",
          "name": "owner",
          "type": "address"
        }
      ],
      "name": "balanceOf",
      "outputs": [
        {
          "internalType": "uint256",
          "name": "",
          "type": "uint256"
        }
      ],
      "stateMutability": "view",
      "type": "function"
    },
    {
      "inputs": [],
      "name": "baseTokenURI",
      "outputs": [
        {
          "internalType": "string",
          "name": "",
          "type": "string"
        }
      ],
      "stateMutability": "view",
      "type": "function"
    },
    {
      "inputs": [
        {
          "internalType": "uint256",
          "name": "tokenId",
          "type": "uint256"
        }
      ],
      "name": "burn",
      "outputs": [],
      "stateMutability": "nonpayable",
      "type": "function"
    },
    {
      "inputs": [
        {
          "internalType": "address",
          "name": "newAdm",
          "type": "address"
        },
        {
          "internalType": "address",
          "name": "newParam",
          "type": "address"
        }
      ],
      "name": "changeAdmin",
      "outputs": [],
      "stateMutability": "nonpayable",
      "type": "function"
    },
    {
      "inputs": [
        {
          "internalType": "uint256",
          "name": "_id",
          "type": "uint256"
        }
      ],
      "name": "exists",
      "outputs": [
        {
          "internalType": "bool",
          "name": "",
          "type": "bool"
        }
      ],
      "stateMutability": "view",
      "type": "function"
    },
    {
      "inputs": [
        {
          "internalType": "uint256",
          "name": "projectId",
          "type": "uint256"
        },
        {
          "internalType": "uint256",
          "name": "amount",
          "type": "uint256"
        }
      ],
      "name": "generateSeeds",
      "outputs": [],
      "stateMutability": "nonpayable",
      "type": "function"
    },
    {
      "inputs": [
        {
          "internalType": "uint256",
          "name": "tokenId",
          "type": "uint256"
        }
      ],
      "name": "getApproved",
      "outputs": [
        {
          "internalType": "address",
          "name": "",
          "type": "address"
        }
      ],
      "stateMutability": "view",
      "type": "function"
    },
    {
      "inputs": [
        {
          "internalType": "bytes32",
          "name": "role",
          "type": "bytes32"
        }
      ],
      "name": "getRoleAdmin",
      "outputs": [
        {
          "internalType": "bytes32",
          "name": "",
          "type": "bytes32"
        }
      ],
      "stateMutability": "view",
      "type": "function"
    },
    {
      "inputs": [
        {
          "internalType": "bytes32",
          "name": "role",
          "type": "bytes32"
        },
        {
          "internalType": "uint256",
          "name": "index",
          "type": "uint256"
        }
      ],
      "name": "getRoleMember",
      "outputs": [
        {
          "internalType": "address",
          "name": "",
          "type": "address"
        }
      ],
      "stateMutability": "view",
      "type": "function"
    },
    {
      "inputs": [
        {
          "internalType": "bytes32",
          "name": "role",
          "type": "bytes32"
        }
      ],
      "name": "getRoleMemberCount",
      "outputs": [
        {
          "internalType": "uint256",
          "name": "",
          "type": "uint256"
        }
      ],
      "stateMutability": "view",
      "type": "function"
    },
    {
      "inputs": [
        {
          "internalType": "bytes32",
          "name": "role",
          "type": "bytes32"
        },
        {
          "internalType": "address",
          "name": "account",
          "type": "address"
        }
      ],
      "name": "grantRole",
      "outputs": [],
      "stateMutability": "nonpayable",
      "type": "function"
    },
    {
      "inputs": [
        {
          "internalType": "bytes32",
          "name": "role",
          "type": "bytes32"
        },
        {
          "internalType": "address",
          "name": "account",
          "type": "address"
        }
      ],
      "name": "hasRole",
      "outputs": [
        {
          "internalType": "bool",
          "name": "",
          "type": "bool"
        }
      ],
      "stateMutability": "view",
      "type": "function"
    },
    {
      "inputs": [
        {
          "internalType": "string",
          "name": "name",
          "type": "string"
        },
        {
          "internalType": "string",
          "name": "symbol",
          "type": "string"
        },
        {
          "internalType": "string",
          "name": "baseTokenURI",
          "type": "string"
        }
      ],
      "name": "initialize",
      "outputs": [],
      "stateMutability": "nonpayable",
      "type": "function"
    },
    {
      "inputs": [
        {
          "internalType": "string",
          "name": "name",
          "type": "string"
        },
        {
          "internalType": "string",
          "name": "symbol",
          "type": "string"
        },
        {
          "internalType": "string",
          "name": "baseUri",
          "type": "string"
        },
        {
          "internalType": "address",
          "name": "admin",
          "type": "address"
        },
        {
          "internalType": "address",
          "name": "paramsAddress",
          "type": "address"
        }
      ],
      "name": "initialize",
      "outputs": [],
      "stateMutability": "nonpayable",
      "type": "function"
    },
    {
      "inputs": [
        {
          "internalType": "address",
          "name": "owner",
          "type": "address"
        },
        {
          "internalType": "address",
          "name": "operator",
          "type": "address"
        }
      ],
      "name": "isApprovedForAll",
      "outputs": [
        {
          "internalType": "bool",
          "name": "",
          "type": "bool"
        }
      ],
      "stateMutability": "view",
      "type": "function"
    },
    {
      "inputs": [
        {
          "internalType": "address",
          "name": "operator",
          "type": "address"
        },
        {
          "internalType": "bytes32",
          "name": "seed",
          "type": "bytes32"
        },
        {
          "internalType": "uint256",
          "name": "projectId",
          "type": "uint256"
        }
      ],
      "name": "isApprovedOrOwnerForSeed",
      "outputs": [
        {
          "internalType": "bool",
          "name": "",
          "type": "bool"
        }
      ],
      "stateMutability": "view",
      "type": "function"
    },
    {
      "inputs": [
        {
          "internalType": "address",
          "name": "to",
          "type": "address"
        }
      ],
      "name": "mint",
      "outputs": [],
      "stateMutability": "nonpayable",
      "type": "function"
    },
    {
      "inputs": [
        {
          "components": [
            {
              "internalType": "uint256",
              "name": "_fromProjectId",
              "type": "uint256"
            },
            {
              "internalType": "address",
              "name": "_mintTo",
              "type": "address"
            },
            {
              "internalType": "string[]",
              "name": "_uriBatch",
              "type": "string[]"
            },
            {
              "components": [
                {
                  "internalType": "bytes32",
                  "name": "_seed",
                  "type": "bytes32"
                },
                {
                  "components": [
                    {
                      "internalType": "uint8",
                      "name": "_typeValue",
                      "type": "uint8"
                    },
                    {
                      "internalType": "uint256",
                      "name": "_max",
                      "type": "uint256"
                    },
                    {
                      "internalType": "uint256",
                      "name": "_min",
                      "type": "uint256"
                    },
                    {
                      "internalType": "uint8",
                      "name": "_decimal",
                      "type": "uint8"
                    },
                    {
                      "internalType": "string[]",
                      "name": "_availableValues",
                      "type": "string[]"
                    },
                    {
                      "internalType": "uint256",
                      "name": "_value",
                      "type": "uint256"
                    },
                    {
                      "internalType": "bool",
                      "name": "_editable",
                      "type": "bool"
                    }
                  ],
                  "internalType": "struct BoilerplateParam.ParamTemplate[]",
                  "name": "_params",
                  "type": "tuple[]"
                }
              ],
              "internalType": "struct BoilerplateParam.ParamsOfProject[]",
              "name": "_paramsBatch",
              "type": "tuple[]"
            }
          ],
          "internalType": "struct IGenerativeBoilerplateNFT.MintRequest",
          "name": "mintBatch",
          "type": "tuple"
        }
      ],
      "name": "mintBatchUniqueNFT",
      "outputs": [],
      "stateMutability": "payable",
      "type": "function"
    },
    {
      "inputs": [
        {
          "internalType": "address",
          "name": "to",
          "type": "address"
        },
        {
          "internalType": "string",
          "name": "projectName",
          "type": "string"
        },
        {
          "internalType": "uint256",
          "name": "maxSupply",
          "type": "uint256"
        },
        {
          "internalType": "uint256",
          "name": "maxNotOwner",
          "type": "uint256"
        },
        {
          "internalType": "string",
          "name": "script",
          "type": "string"
        },
        {
          "internalType": "uint32",
          "name": "scriptType",
          "type": "uint32"
        },
        {
          "internalType": "bool",
          "name": "clientSeed",
          "type": "bool"
        },
        {
          "internalType": "string",
          "name": "uri",
          "type": "string"
        },
        {
          "internalType": "uint256",
          "name": "fee",
          "type": "uint256"
        },
        {
          "internalType": "address",
          "name": "feeAdd",
          "type": "address"
        },
        {
          "components": [
            {
              "internalType": "bytes32",
              "name": "_seed",
              "type": "bytes32"
            },
            {
              "components": [
                {
                  "internalType": "uint8",
                  "name": "_typeValue",
                  "type": "uint8"
                },
                {
                  "internalType": "uint256",
                  "name": "_max",
                  "type": "uint256"
                },
                {
                  "internalType": "uint256",
                  "name": "_min",
                  "type": "uint256"
                },
                {
                  "internalType": "uint8",
                  "name": "_decimal",
                  "type": "uint8"
                },
                {
                  "internalType": "string[]",
                  "name": "_availableValues",
                  "type": "string[]"
                },
                {
                  "internalType": "uint256",
                  "name": "_value",
                  "type": "uint256"
                },
                {
                  "internalType": "bool",
                  "name": "_editable",
                  "type": "bool"
                }
              ],
              "internalType": "struct BoilerplateParam.ParamTemplate[]",
              "name": "_params",
              "type": "tuple[]"
            }
          ],
          "internalType": "struct BoilerplateParam.ParamsOfProject",
          "name": "paramsTemplate",
          "type": "tuple"
        }
      ],
      "name": "mintProject",
      "outputs": [
        {
          "internalType": "uint256",
          "name": "",
          "type": "uint256"
        }
      ],
      "stateMutability": "payable",
      "type": "function"
    },
    {
      "inputs": [],
      "name": "name",
      "outputs": [
        {
          "internalType": "string",
          "name": "",
          "type": "string"
        }
      ],
      "stateMutability": "view",
      "type": "function"
    },
    {
      "inputs": [
        {
          "internalType": "uint256",
          "name": "tokenId",
          "type": "uint256"
        }
      ],
      "name": "ownerOf",
      "outputs": [
        {
          "internalType": "address",
          "name": "",
          "type": "address"
        }
      ],
      "stateMutability": "view",
      "type": "function"
    },
    {
      "inputs": [
        {
          "internalType": "bytes32",
          "name": "seed",
          "type": "bytes32"
        },
        {
          "internalType": "uint256",
          "name": "projectId",
          "type": "uint256"
        }
      ],
      "name": "ownerOfSeed",
      "outputs": [
        {
          "internalType": "address",
          "name": "",
          "type": "address"
        }
      ],
      "stateMutability": "view",
      "type": "function"
    },
    {
      "inputs": [],
      "name": "pause",
      "outputs": [],
      "stateMutability": "nonpayable",
      "type": "function"
    },
    {
      "inputs": [],
      "name": "paused",
      "outputs": [
        {
          "internalType": "bool",
          "name": "",
          "type": "bool"
        }
      ],
      "stateMutability": "view",
      "type": "function"
    },
    {
      "inputs": [
        {
          "internalType": "uint256",
          "name": "projectId",
          "type": "uint256"
        },
        {
          "internalType": "bytes32[]",
          "name": "seeds",
          "type": "bytes32[]"
        }
      ],
      "name": "registerSeeds",
      "outputs": [],
      "stateMutability": "nonpayable",
      "type": "function"
    },
    {
      "inputs": [
        {
          "internalType": "bytes32",
          "name": "role",
          "type": "bytes32"
        },
        {
          "internalType": "address",
          "name": "account",
          "type": "address"
        }
      ],
      "name": "renounceRole",
      "outputs": [],
      "stateMutability": "nonpayable",
      "type": "function"
    },
    {
      "inputs": [
        {
          "internalType": "bytes32",
          "name": "role",
          "type": "bytes32"
        },
        {
          "internalType": "address",
          "name": "account",
          "type": "address"
        }
      ],
      "name": "revokeRole",
      "outputs": [],
      "stateMutability": "nonpayable",
      "type": "function"
    },
    {
      "inputs": [
        {
          "internalType": "uint256",
          "name": "",
          "type": "uint256"
        }
      ],
      "name": "royalties",
      "outputs": [
        {
          "internalType": "address",
          "name": "recipient",
          "type": "address"
        },
        {
          "internalType": "uint24",
          "name": "amount",
          "type": "uint24"
        },
        {
          "internalType": "bool",
          "name": "isValue",
          "type": "bool"
        }
      ],
      "stateMutability": "view",
      "type": "function"
    },
    {
      "inputs": [
        {
          "internalType": "uint256",
          "name": "_tokenId",
          "type": "uint256"
        },
        {
          "internalType": "uint256",
          "name": "_salePrice",
          "type": "uint256"
        }
      ],
      "name": "royaltyInfo",
      "outputs": [
        {
          "internalType": "address",
          "name": "receiver",
          "type": "address"
        },
        {
          "internalType": "uint256",
          "name": "royaltyAmount",
          "type": "uint256"
        }
      ],
      "stateMutability": "view",
      "type": "function"
    },
    {
      "inputs": [
        {
          "internalType": "address",
          "name": "from",
          "type": "address"
        },
        {
          "internalType": "address",
          "name": "to",
          "type": "address"
        },
        {
          "internalType": "uint256",
          "name": "tokenId",
          "type": "uint256"
        }
      ],
      "name": "safeTransferFrom",
      "outputs": [],
      "stateMutability": "nonpayable",
      "type": "function"
    },
    {
      "inputs": [
        {
          "internalType": "address",
          "name": "from",
          "type": "address"
        },
        {
          "internalType": "address",
          "name": "to",
          "type": "address"
        },
        {
          "internalType": "uint256",
          "name": "tokenId",
          "type": "uint256"
        },
        {
          "internalType": "bytes",
          "name": "data",
          "type": "bytes"
        }
      ],
      "name": "safeTransferFrom",
      "outputs": [],
      "stateMutability": "nonpayable",
      "type": "function"
    },
    {
      "inputs": [
        {
          "internalType": "address",
          "name": "operator",
          "type": "address"
        },
        {
          "internalType": "bool",
          "name": "approved",
          "type": "bool"
        }
      ],
      "name": "setApprovalForAll",
      "outputs": [],
      "stateMutability": "nonpayable",
      "type": "function"
    },
    {
      "inputs": [
        {
          "internalType": "address",
          "name": "_to",
          "type": "address"
        },
        {
          "internalType": "uint256",
          "name": "_id",
          "type": "uint256"
        }
      ],
      "name": "setCreator",
      "outputs": [],
      "stateMutability": "nonpayable",
      "type": "function"
    },
    {
      "inputs": [
        {
          "internalType": "uint256",
          "name": "_tokenId",
          "type": "uint256"
        },
        {
          "internalType": "address",
          "name": "_recipient",
          "type": "address"
        },
        {
          "internalType": "uint256",
          "name": "_value",
          "type": "uint256"
        }
      ],
      "name": "setTokenRoyalty",
      "outputs": [],
      "stateMutability": "nonpayable",
      "type": "function"
    },
    {
      "inputs": [
        {
          "internalType": "bytes4",
          "name": "interfaceId",
          "type": "bytes4"
        }
      ],
      "name": "supportsInterface",
      "outputs": [
        {
          "internalType": "bool",
          "name": "",
          "type": "bool"
        }
      ],
      "stateMutability": "view",
      "type": "function"
    },
    {
      "inputs": [],
      "name": "symbol",
      "outputs": [
        {
          "internalType": "string",
          "name": "",
          "type": "string"
        }
      ],
      "stateMutability": "view",
      "type": "function"
    },
    {
      "inputs": [
        {
          "internalType": "uint256",
          "name": "index",
          "type": "uint256"
        }
      ],
      "name": "tokenByIndex",
      "outputs": [
        {
          "internalType": "uint256",
          "name": "",
          "type": "uint256"
        }
      ],
      "stateMutability": "view",
      "type": "function"
    },
    {
      "inputs": [
        {
          "internalType": "address",
          "name": "owner",
          "type": "address"
        },
        {
          "internalType": "uint256",
          "name": "index",
          "type": "uint256"
        }
      ],
      "name": "tokenOfOwnerByIndex",
      "outputs": [
        {
          "internalType": "uint256",
          "name": "",
          "type": "uint256"
        }
      ],
      "stateMutability": "view",
      "type": "function"
    },
    {
      "inputs": [
        {
          "internalType": "uint256",
          "name": "_tokenId",
          "type": "uint256"
        }
      ],
      "name": "tokenURI",
      "outputs": [
        {
          "internalType": "string",
          "name": "",
          "type": "string"
        }
      ],
      "stateMutability": "view",
      "type": "function"
    },
    {
      "inputs": [],
      "name": "totalSupply",
      "outputs": [
        {
          "internalType": "uint256",
          "name": "",
          "type": "uint256"
        }
      ],
      "stateMutability": "view",
      "type": "function"
    },
    {
      "inputs": [
        {
          "internalType": "address",
          "name": "from",
          "type": "address"
        },
        {
          "internalType": "address",
          "name": "to",
          "type": "address"
        },
        {
          "internalType": "uint256",
          "name": "tokenId",
          "type": "uint256"
        }
      ],
      "name": "transferFrom",
      "outputs": [],
      "stateMutability": "nonpayable",
      "type": "function"
    },
    {
      "inputs": [
        {
          "internalType": "address",
          "name": "from",
          "type": "address"
        },
        {
          "internalType": "address",
          "name": "to",
          "type": "address"
        },
        {
          "internalType": "bytes32",
          "name": "seed",
          "type": "bytes32"
        },
        {
          "internalType": "uint256",
          "name": "projectId",
          "type": "uint256"
        }
      ],
      "name": "transferSeed",
      "outputs": [],
      "stateMutability": "nonpayable",
      "type": "function"
    },
    {
      "inputs": [],
      "name": "unpause",
      "outputs": [],
      "stateMutability": "nonpayable",
      "type": "function"
    },
    {
      "inputs": [
        {
          "internalType": "uint256",
          "name": "projectId",
          "type": "uint256"
        },
        {
          "internalType": "uint256",
          "name": "newFee",
          "type": "uint256"
        },
        {
          "internalType": "address",
          "name": "newFeeAddr",
          "type": "address"
        },
        {
          "internalType": "string",
          "name": "newURI",
          "type": "string"
        },
        {
          "internalType": "string",
          "name": "script",
          "type": "string"
        }
      ],
      "name": "updateProject",
      "outputs": [],
      "stateMutability": "nonpayable",
      "type": "function"
    },
    {
      "inputs": [
        {
          "internalType": "address",
          "name": "receiver",
          "type": "address"
        },
        {
          "internalType": "address",
          "name": "erc20Addr",
          "type": "address"
        },
        {
          "internalType": "uint256",
          "name": "amount",
          "type": "uint256"
        }
      ],
      "name": "withdraw",
      "outputs": [],
      "stateMutability": "nonpayable",
      "type": "function"
    }
  ],
  "bytecode": "0x608060405234801561001057600080fd5b50615ffd80620000216000396000f3fe6080604052600436106103355760003560e01c80636a627842116101ab578063adfc7dae116100f7578063d539139311610095578063d6d0faee1161006f578063d6d0faee14610a2d578063d9caed1214610a4d578063e63ab1e914610a6d578063e985e9c514610aa157600080fd5b8063d5391393146109c4578063d547741f146109f8578063d547cfb714610a1857600080fd5b8063b88d4fde116100d1578063b88d4fde14610944578063c87b56dd14610964578063c8cb8a7514610984578063ca15c873146109a457600080fd5b8063adfc7dae146108e3578063afdc94db14610904578063b0f4cf931461092457600080fd5b80639010d07c116101645780639713c8071161013e5780639713c8071461086e578063a217fddf1461088e578063a22cb465146108a3578063a6487c53146108c357600080fd5b80639010d07c1461081957806391d148541461083957806395d89b411461085957600080fd5b80636a627842146107095780636e4d0fe61461072457806370a08231146107445780637f77f57414610764578063821f9dc9146107df5780638456cb59146105ca57600080fd5b80632f745c591161028557806346398139116102235780635c975abb116101fd5780635c975abb146106775780636006e9ef1461069057806362fe4e4a146106a35780636352211e146106e957600080fd5b806346398139146106175780634f558e79146106375780634f6ccce71461065757600080fd5b806336bd9e631161025f57806336bd9e63146105915780633f4ba83a146105ca57806342842e0e146105d957806342966c68146105f957600080fd5b80632f745c591461053e57806335055e901461055e57806336568abe1461057157600080fd5b806318160ddd116102f257806323b872dd116102cc57806323b872dd1461048f578063248a9ca3146104af5780632a55205a146104df5780632f2ff15d1461051e57600080fd5b806318160ddd1461042c578063189c168d1461044f5780631acfd02a1461046f57600080fd5b806301bc45c91461033a57806301ffc9a71461037857806306fdde03146103a8578063081812fc146103ca578063095ea7b3146103ea5780631697eccf1461040c575b600080fd5b34801561034657600080fd5b506102275461035b906001600160a01b031681565b6040516001600160a01b0390911681526020015b60405180910390f35b34801561038457600080fd5b50610398610393366004614794565b610aea565b604051901515815260200161036f565b3480156103b457600080fd5b506103bd610afb565b60405161036f9190614809565b3480156103d657600080fd5b5061035b6103e536600461481c565b610b8d565b3480156103f657600080fd5b5061040a610405366004614855565b610bb4565b005b34801561041857600080fd5b5061035b610427366004614881565b610ccf565b34801561043857600080fd5b50610441610d0b565b60405190815260200161036f565b34801561045b57600080fd5b5061040a61046a366004614978565b610d1c565b34801561047b57600080fd5b5061040a61048a366004614a19565b610e2a565b34801561049b57600080fd5b5061040a6104aa366004614a52565b610f35565b3480156104bb57600080fd5b506104416104ca36600461481c565b60009081526065602052604090206001015490565b3480156104eb57600080fd5b506104ff6104fa366004614881565b610f66565b604080516001600160a01b03909316835260208301919091520161036f565b34801561052a57600080fd5b5061040a610539366004614a93565b611034565b34801561054a57600080fd5b50610441610559366004614855565b611059565b61044161056c366004614b74565b6110ef565b34801561057d57600080fd5b5061040a61058c366004614a93565b6116fc565b34801561059d57600080fd5b506104416105ac366004614a19565b61022c60209081526000928352604080842090915290825290205481565b3480156105d657600080fd5b50005b3480156105e557600080fd5b5061040a6105f4366004614a52565b611776565b34801561060557600080fd5b5061040a61061436600461481c565b50565b34801561062357600080fd5b5061040a610632366004614881565b611791565b34801561064357600080fd5b5061039861065236600461481c565b6118ee565b34801561066357600080fd5b5061044161067236600461481c565b6118f9565b34801561068357600080fd5b5061015f5460ff16610398565b61040a61069e366004614d2d565b61198c565b3480156106af57600080fd5b5061040a6106be366004614855565b33600090815261022c602090815260408083206001600160a01b039590951683529390529190912055565b3480156106f557600080fd5b5061035b61070436600461481c565b6124f2565b34801561071557600080fd5b5061040a610614366004614ff0565b34801561073057600080fd5b5061040a61073f36600461500d565b612552565b34801561075057600080fd5b5061044161075f366004614ff0565b612600565b34801561077057600080fd5b506107b461077f36600461481c565b61022e602052600090815260409020546001600160a01b03811690600160a01b810462ffffff1690600160b81b900460ff1683565b604080516001600160a01b03909416845262ffffff909216602084015215159082015260600161036f565b3480156107eb57600080fd5b506107ff6107fa36600461481c565b612686565b60405161036f9e9d9c9b9a99989796959493929190615167565b34801561082557600080fd5b5061035b610834366004614881565b612a4b565b34801561084557600080fd5b50610398610854366004614a93565b612a63565b34801561086557600080fd5b506103bd612a8e565b34801561087a57600080fd5b5061040a610889366004615234565b612a9d565b34801561089a57600080fd5b50610441600081565b3480156108af57600080fd5b5061040a6108be36600461525b565b612bee565b3480156108cf57600080fd5b5061040a6108de366004615289565b612bf9565b3480156108ef57600080fd5b506102285461035b906001600160a01b031681565b34801561091057600080fd5b5061040a61091f366004615310565b612cc5565b34801561093057600080fd5b5061039861093f366004615399565b612d9b565b34801561095057600080fd5b5061040a61095f3660046153ce565b612e0c565b34801561097057600080fd5b506103bd61097f36600461481c565b612e3e565b34801561099057600080fd5b5061040a61099f366004614855565b612f47565b3480156109b057600080fd5b506104416109bf36600461481c565b612fe5565b3480156109d057600080fd5b506104417f9f2df0fed2c77648de5860a4cc508cd0818c85b8b8a1ab4ceeef8d981c8956a681565b348015610a0457600080fd5b5061040a610a13366004614a93565b612ffc565b348015610a2457600080fd5b506103bd613021565b348015610a3957600080fd5b5061040a610a4836600461544d565b61302b565b348015610a5957600080fd5b5061040a610a68366004614a52565b6131c7565b348015610a7957600080fd5b506104417f65d7a28e3265b37a6474929f336521b332c1681b933f6cb9f3376673440d862a81565b348015610aad57600080fd5b50610398610abc366004614a19565b6001600160a01b03918216600090815260ce6020908152604080832093909416825291909152205460ff1690565b6000610af582613397565b92915050565b606060c98054610b0a906154fc565b80601f0160208091040260200160405190810160405280929190818152602001828054610b36906154fc565b8015610b835780601f10610b5857610100808354040283529160200191610b83565b820191906000526020600020905b815481529060010190602001808311610b6657829003601f168201915b5050505050905090565b6000610b98826133bc565b50600090815260cd60205260409020546001600160a01b031690565b6000610bbf826124f2565b9050806001600160a01b0316836001600160a01b03161415610c325760405162461bcd60e51b815260206004820152602160248201527f4552433732313a20617070726f76616c20746f2063757272656e74206f776e656044820152603960f91b60648201526084015b60405180910390fd5b336001600160a01b0382161480610c4e5750610c4e8133610abc565b610cc05760405162461bcd60e51b815260206004820152603e60248201527f4552433732313a20617070726f76652063616c6c6572206973206e6f7420746f60448201527f6b656e206f776e6572206e6f7220617070726f76656420666f7220616c6c00006064820152608401610c29565b610cca838361340c565b505050565b600082815261022b602090815260408083208484529091528120546001600160a01b031680610d04578360601c915050610af5565b9392505050565b6000610d176102295490565b905090565b600082815261022a602052604090206008015460ff168015610d425750610d428261347a565b610d4b57600080fd5b60005b8151811015610cca5760006001600160a01b031661022b6000848481518110610d7957610d79615531565b602090810291909101810151825281810192909252604090810160009081208782529092529020546001600160a01b031614610db457600080fd5b3361022b6000848481518110610dcc57610dcc615531565b60200260200101518152602001908152602001600020600085815260200190815260200160002060006101000a8154816001600160a01b0302191690836001600160a01b031602179055508080610e229061555d565b915050610d4e565b610227546001600160a01b031633148015610e4b5750610e4b600033612a63565b8015610e5f57506001600160a01b03821615155b6040518060400160405280600381526020016231303160e81b81525090610e995760405162461bcd60e51b8152600401610c299190614809565b50610227546001600160a01b03838116911614610eeb5761022780546001600160a01b038481166001600160a01b0319831681179093551690610ede90600090611034565b610ee9600082612ffc565b505b6001600160a01b038116610efe57600080fd5b610228546001600160a01b03828116911614610f315761022880546001600160a01b0319166001600160a01b0383161790555b5050565b610f3f3382613497565b610f5b5760405162461bcd60e51b8152600401610c2990615578565b610cca838383613516565b600082815261022e60209081526040808320815160608101835290546001600160a01b0381168252600160a01b810462ffffff1693820193909352600160b81b90920460ff1615801591830191909152829190610feb578051602082015190935061271090610fda9062ffffff16866155c6565b610fe491906155fb565b915061102c565b600085815261022a6020526040902060050154600160201b90046001600160a01b0316925061271061101f856101f46155c6565b61102991906155fb565b91505b509250929050565b60008281526065602052604090206001015461104f816136bd565b610cca83836136c7565b600061106483612600565b82106110c65760405162461bcd60e51b815260206004820152602b60248201527f455243373231456e756d657261626c653a206f776e657220696e646578206f7560448201526a74206f6620626f756e647360a81b6064820152608401610c29565b506001600160a01b0391909116600090815260fb60209081526040808320938352929052205490565b600060026101f55414156111155760405162461bcd60e51b8152600401610c299061560f565b60026101f5558a516040805180820190915260038082526203230360ec1b60208301529091116111585760405162461bcd60e51b8152600401610c299190614809565b5061116861022980546001019055565b60006111746102295490565b905061117f8161347a565b156040518060400160405280600381526020016219181960e91b815250906111ba5760405162461bcd60e51b8152600401610c299190614809565b5061022854610227546001600160a01b03918216911633146113a95760408051808201825260128152714352454154455f50524f4a4543545f46454560701b60208201529051636d12dce160e01b81526000916001600160a01b03841691636d12dce19161122a91600401614809565b602060405180830381865afa158015611247573d6000803e3d6000fd5b505050506040513d601f19601f8201168201806040525081019061126b9190615646565b905080156113a75760408051808201825260098152682322a2afaa27a5a2a760b91b6020820152905163bf40fac160e01b81526000916001600160a01b0385169163bf40fac1916112be91600401614809565b602060405180830381865afa1580156112db573d6000803e3d6000fd5b505050506040513d601f19601f820116820180604052508101906112ff919061565f565b90506001600160a01b03811615611398576040516323b872dd60e01b81523360048201523060248201526044810183905281906001600160a01b038216906323b872dd906064016020604051808303816000875af1158015611365573d6000803e3d6000fd5b505050506040513d601f19601f82011682018060405250810190611389919061567c565b61139257600080fd5b506113a5565b813410156113a557600080fd5b505b505b8651156113d857600082815261022a6020908152604090912088516113d6926006909201918a01906146e5565b505b8c61022a600084815260200190815260200160002060070190805190602001906114039291906146e5565b5061022754600083815261022a60205260409020600581018054640100000000600160c01b0319166001600160a01b03938416600160201b02179055600281018e9055600c81018d90558781556001810180546001600160a01b0319169288169290921790915584906009016114798282615a4a565b5050600082815261022a602090815260409091208b516114a1926004909201918d01906146e5565b50600082815261022a6020526040902060058101805463ffffffff191663ffffffff8c16179055600801805460ff19168915151790556114e18e836136e9565b604080518082018252601781527f47454e455241544956455f4e46545f54454d504c4154450000000000000000006020820152905163bf40fac160e01b815260009161158b916001600160a01b0385169163bf40fac1916115459190600401614809565b602060405180830381865afa158015611562573d6000803e3d6000fd5b505050506040513d601f19601f82011682018060405250810190611586919061565f565b613703565b600084815261022a60205260409020600701805491925082916001600160a01b0383169163ae3dd0959161164d9060019060039084906115ca906154fc565b80601f01602080910402602001604051908101604052809291908181526020018280546115f6906154fc565b80156116435780601f1061161857610100808354040283529160200191611643565b820191906000526020600020905b81548152906001019060200180831161162657829003601f168201915b505050505061379b565b610227546040516001600160e01b031960e086901b1681526116819392916001600160a01b03169030908b90600401615b68565b600060405180830381600087803b15801561169b57600080fd5b505af11580156116af573d6000803e3d6000fd5b505050600085815261022a60205260409020600b0180546001600160a01b0319166001600160a01b039490941693909317909255505060016101f555509c9b505050505050505050505050565b6001600160a01b038116331461176c5760405162461bcd60e51b815260206004820152602f60248201527f416363657373436f6e74726f6c3a2063616e206f6e6c792072656e6f756e636560448201526e103937b632b9903337b91039b2b63360891b6064820152608401610c29565b610f318282613881565b610cca83838360405180602001604052806000815250612e0c565b600082815261022a602052604090206008015460ff161580156117b857506117b88261347a565b6117c157600080fd5b600080826001600160401b038111156117dc576117dc6148a3565b604051908082528060200260200182016040528015611805578160200160208202803683370190505b50905060005b838110156118ac5761181e3386836138a3565b600081815261022b602090815260408083208984529091529020549093506001600160a01b03161561184f57600080fd5b600083815261022b60209081526040808320888452909152902080546001600160a01b031916331790558151839083908390811061188f5761188f615531565b6020908102919091010152806118a48161555d565b91505061180b565b507feac055ed8b84f6ed7b96c917e1a500965c90467998c41630ebabcc5bc99b306b3385836040516118e093929190615c2c565b60405180910390a150505050565b6000610af58261347a565b600061190460fd5490565b82106119675760405162461bcd60e51b815260206004820152602c60248201527f455243373231456e756d657261626c653a20676c6f62616c20696e646578206f60448201526b7574206f6620626f756e647360a01b6064820152608401610c29565b60fd828154811061197a5761197a615531565b90600052602060002001549050919050565b60026101f55414156119b05760405162461bcd60e51b8152600401610c299061560f565b60026101f58190558151600090815261022a6020908152604080832081516101c0810183528154815260018201546001600160a01b03169381019390935293840154908201526003830154606082015260048301805492939192608084019190611a19906154fc565b80601f0160208091040260200160405190810160405280929190818152602001828054611a45906154fc565b8015611a925780601f10611a6757610100808354040283529160200191611a92565b820191906000526020600020905b815481529060010190602001808311611a7557829003601f168201915b5050509183525050600582015463ffffffff81166020830152600160201b90046001600160a01b03166040820152600682018054606090920191611ad5906154fc565b80601f0160208091040260200160405190810160405280929190818152602001828054611b01906154fc565b8015611b4e5780601f10611b2357610100808354040283529160200191611b4e565b820191906000526020600020905b815481529060010190602001808311611b3157829003601f168201915b50505050508152602001600782018054611b67906154fc565b80601f0160208091040260200160405190810160405280929190818152602001828054611b93906154fc565b8015611be05780601f10611bb557610100808354040283529160200191611be0565b820191906000526020600020905b815481529060010190602001808311611bc357829003601f168201915b5050509183525050600882015460ff1615156020808301919091526040805180820182526009850180548252600a86018054845181870281018701865281815294909601959294919385830193909260009084015b82821015611d8457600084815260208082206040805160e08101825260078702909201805460ff9081168452600182015484860152600282015484840152600382015416606084015260048101805483518187028101870190945280845293959194608087019491929084015b82821015611d4e578382906000526020600020018054611cc1906154fc565b80601f0160208091040260200160405190810160405280929190818152602001828054611ced906154fc565b8015611d3a5780601f10611d0f57610100808354040283529160200191611d3a565b820191906000526020600020905b815481529060010190602001808311611d1d57829003601f168201915b505050505081526020019060010190611ca2565b50505090825250600582015460208083019190915260069092015460ff1615156040909101529082526001929092019101611c35565b505050915250508152600b8201546001600160a01b03166020820152600c820154604080830191909152600d909201546060909101528301515190915015801590611dd85750816060015151826040015151145b604051806040016040528060038152602001620c8c0d60ea1b81525090611e125760405162461bcd60e51b8152600401610c299190614809565b5060408101511580611e3c575080604001518260400151518260600151611e399190615c89565b11155b6040518060400160405280600381526020016232303360e81b81525090611e765760405162461bcd60e51b8152600401610c299190614809565b5061018081015115611ed7578151611e8d906124f2565b6001600160a01b0316336001600160a01b031614611ed757816040015151816101a001818151611ebd9190615c89565b9052506101808101516101a08201511115611ed757600080fd5b805180156121a55782513390611eec906124f2565b6001600160a01b0316146121a557610228546040840151516001600160a01b0390911690611f1a90836155c6565b604080518082018252600c81526b4d494e545f4e46545f46454560a01b60208201529051636d12dce160e01b81529193506000916001600160a01b03841691636d12dce191611f6c9190600401614809565b602060405180830381865afa158015611f89573d6000803e3d6000fd5b505050506040513d601f19601f82011682018060405250810190611fad9190615646565b905080611fb957506101f45b60208401516001600160a01b03166120665782341015611fd857600080fd5b6000611fe786600001516124f2565b6001600160a01b0316612710611ffd84876155c6565b61200791906155fb565b6120119086615ca1565b604051600081818185875af1925050503d806000811461204d576040519150601f19603f3d011682016040523d82523d6000602084013e612052565b606091505b505090508061206057600080fd5b506121a2565b60208401516040516323b872dd60e01b8152336004820152306024820152604481018590526001600160a01b038216906323b872dd906064016020604051808303816000875af11580156120be573d6000803e3d6000fd5b505050506040513d601f19601f820116820180604052508101906120e2919061567c565b6120eb57600080fd5b806001600160a01b031663a9059cbb61210788600001516124f2565b61271061211486896155c6565b61211e91906155fb565b6121289088615ca1565b6040516001600160e01b031960e085901b1681526001600160a01b03909216600483015260248201526044016020604051808303816000875af1158015612173573d6000803e3d6000fd5b505050506040513d601f19601f82011682018060405250810190612197919061567c565b6121a057600080fd5b505b50505b8251600090815261022a60205260408120600b01546001600160a01b0316905b8460600151518110156124ac57846060015181815181106121e8576121e8615531565b602090810291909101810151810151518651600090815261022a8352604090819020600a0154815180830190925260038252620c8c0d60ea1b9382019390935291146122475760405162461bcd60e51b8152600401610c299190614809565b5060008560600151828151811061226057612260615531565b60209081029190910181015151600081815261022d835260408082208a518352845290819020548151808301909252600382526232303560e81b9382019390935290925090156122c35760405162461bcd60e51b8152600401610c299190614809565b508551600090815261022a602052604090206008015460ff1661233957855133906122ef908390610ccf565b6001600160a01b0316146040518060400160405280600381526020016232303560e81b815250906123335760405162461bcd60e51b8152600401610c299190614809565b50612394565b600081815261022b60209081526040808320895184529091529020546001600160a01b03161561236857600080fd5b600081815261022b6020908152604080832089518452909152902080546001600160a01b031916331790555b826001600160a01b0316637d763613876020015161022760009054906101000a90046001600160a01b0316896040015186815181106123d5576123d5615531565b60200260200101518a6060015187815181106123f3576123f3615531565b60200260200101516040518563ffffffff1660e01b815260040161241a9493929190615cb8565b600060405180830381600087803b15801561243457600080fd5b505af1158015612448573d6000803e3d6000fd5b5050505060018560600181815161245f9190615c89565b9052506060850180518751600090815261022a6020908152604080832060030193909355925193815261022d835281812089518252909252902055806124a48161555d565b9150506121c5565b507f67175103d209cf669be17e253aba378479477b5a1ef3b1e9eaedce52f0ebab5433856040516124de929190615d01565b60405180910390a1505060016101f5555050565b600081815260cb60205260408120546001600160a01b031680610af55760405162461bcd60e51b8152602060048201526018602482015277115490cdcc8c4e881a5b9d985b1a59081d1bdad95b88125160421b6044820152606401610c29565b600082815261022d60209081526040808320848452909152902054158015906125815750612581338383612d9b565b80156125a85750836001600160a01b031661259c8383610ccf565b6001600160a01b031614155b80156125bc57506001600160a01b03831615155b6125c557600080fd5b600091825261022b60209081526040808420928452919052902080546001600160a01b0319166001600160a01b039290921691909117905550565b60006001600160a01b03821661266a5760405162461bcd60e51b815260206004820152602960248201527f4552433732313a2061646472657373207a65726f206973206e6f7420612076616044820152683634b21037bbb732b960b91b6064820152608401610c29565b506001600160a01b0316600090815260cc602052604090205490565b61022a602052600090815260409020805460018201546002830154600384015460048501805494956001600160a01b0390941694929391926126c7906154fc565b80601f01602080910402602001604051908101604052809291908181526020018280546126f3906154fc565b80156127405780601f1061271557610100808354040283529160200191612740565b820191906000526020600020905b81548152906001019060200180831161272357829003601f168201915b505050506005830154600684018054939463ffffffff831694600160201b9093046001600160a01b0316935091612776906154fc565b80601f01602080910402602001604051908101604052809291908181526020018280546127a2906154fc565b80156127ef5780601f106127c4576101008083540402835291602001916127ef565b820191906000526020600020905b8154815290600101906020018083116127d257829003601f168201915b505050505090806007018054612804906154fc565b80601f0160208091040260200160405190810160405280929190818152602001828054612830906154fc565b801561287d5780601f106128525761010080835404028352916020019161287d565b820191906000526020600020905b81548152906001019060200180831161286057829003601f168201915b5050505050908060080160009054906101000a900460ff1690806009016040518060400160405290816000820154815260200160018201805480602002602001604051908101604052809291908181526020016000905b82821015612a2357600084815260208082206040805160e08101825260078702909201805460ff9081168452600182015484860152600282015484840152600382015416606084015260048101805483518187028101870190945280845293959194608087019491929084015b828210156129ed578382906000526020600020018054612960906154fc565b80601f016020809104026020016040519081016040528092919081815260200182805461298c906154fc565b80156129d95780601f106129ae576101008083540402835291602001916129d9565b820191906000526020600020905b8154815290600101906020018083116129bc57829003601f168201915b505050505081526020019060010190612941565b50505090825250600582015460208083019190915260069092015460ff16151560409091015290825260019290920191016128d4565b50505091525050600b820154600c830154600d9093015491926001600160a01b03909116918e565b6000828152609760205260408120610d049083613903565b60009182526065602090815260408084206001600160a01b0393909316845291905290205460ff1690565b606060ca8054610b0a906154fc565b610227546001600160a01b0316336001600160a01b0316146040518060400160405280600381526020016231303160e81b81525090612aef5760405162461bcd60e51b8152600401610c299190614809565b50612afb600033612a63565b6040518060400160405280600381526020016231303160e81b81525090612b355760405162461bcd60e51b8152600401610c299190614809565b5060408051808201909152600381526232303360e81b6020820152612710821115612b735760405162461bcd60e51b8152600401610c299190614809565b50604080516060810182526001600160a01b03938416815262ffffff92831660208083019182526001838501908152600097885261022e90915292909520905181549551925194166001600160b81b031990951694909417600160a01b91909216021760ff60b81b1916600160b81b91151591909102179055565b610f3133838361390f565b600054610100900460ff1615808015612c195750600054600160ff909116105b80612c335750303b158015612c33575060005460ff166001145b612c4f5760405162461bcd60e51b8152600401610c2990615d9d565b6000805460ff191660011790558015612c72576000805461ff0019166101001790555b612c7d8484846139de565b8015612cbf576000805461ff0019169055604051600181527f7f26b83ff96e1f2b6a682f133852f6798a09c465da95921460cefb3847402498906020016118e0565b50505050565b600085815261022a6020908152604091829020600501548251808401909352600383526218981960e91b91830191909152600160201b90046001600160a01b03163314612d255760405162461bcd60e51b8152600401610c299190614809565b50600085815261022a602090815260409091208581556001810180546001600160a01b0319166001600160a01b0387161790558351612d6c926006909201918501906146e5565b50600085815261022a602090815260409091208251612d93926004909201918401906146e5565b505050505050565b6000836001600160a01b0316612db18484610ccf565b6001600160a01b03161415612dc857506001610d04565b8161022c6000612dd88686610ccf565b6001600160a01b03908116825260208083019390935260409182016000908120918916815292529020541490509392505050565b612e163383613497565b612e325760405162461bcd60e51b8152600401610c2990615578565b612cbf84848484613a22565b600081815261022a6020526040812060060180546060929190612e60906154fc565b90501115612f0a57600082815261022a602052604090206006018054612e85906154fc565b80601f0160208091040260200160405190810160405280929190818152602001828054612eb1906154fc565b8015612efe5780601f10612ed357610100808354040283529160200191612efe565b820191906000526020600020905b815481529060010190602001808311612ee157829003601f168201915b50505050509050919050565b612f12613021565b612f1b83613a55565b604051602001612f2c929190615deb565b6040516020818303038152906040529050919050565b919050565b600081815261022a6020908152604091829020600501548251808401909352600383526218981960e91b91830191909152600160201b90046001600160a01b03163314612fa75760405162461bcd60e51b8152600401610c299190614809565b50600090815261022a6020526040902060050180546001600160a01b03909216600160201b02640100000000600160c01b0319909216919091179055565b6000818152609760205260408120610af590613b52565b600082815260656020526040902060010154613017816136bd565b610cca8383613881565b6060610d17613b5c565b600054610100900460ff161580801561304b5750600054600160ff909116105b806130655750303b158015613065575060005460ff166001145b6130815760405162461bcd60e51b8152600401610c2990615d9d565b6000805460ff1916600117905580156130a4576000805461ff0019166101001790555b60408051808201909152600381526203130360ec1b60208201526001600160a01b0384166130e55760405162461bcd60e51b8152600401610c299190614809565b5060408051808201909152600381526203130360ec1b60208201526001600160a01b0383166131275760405162461bcd60e51b8152600401610c299190614809565b506131338686866139de565b61022880546001600160a01b038085166001600160a01b0319928316179092556102278054928616929091168217905561316f90600090611034565b61317a600033612ffc565b8015612d93576000805461ff0019169055604051600181527f7f26b83ff96e1f2b6a682f133852f6798a09c465da95921460cefb38474024989060200160405180910390a1505050505050565b60026101f55414156131eb5760405162461bcd60e51b8152600401610c299061560f565b60026101f555610227546001600160a01b0316336001600160a01b0316146040518060400160405280600381526020016231303160e81b815250906132435760405162461bcd60e51b8152600401610c299190614809565b5061324f600033612a63565b6040518060400160405280600381526020016231303160e81b815250906132895760405162461bcd60e51b8152600401610c299190614809565b5060006001600160a01b03831661330a57814710156132a757600080fd5b6040516001600160a01b038516908390600081818185875af1925050503d80600081146132f0576040519150601f19603f3d011682016040523d82523d6000602084013e6132f5565b606091505b5050809150508061330557600080fd5b61338b565b60405163a9059cbb60e01b81526001600160a01b0385811660048301526024820184905284919082169063a9059cbb906044016020604051808303816000875af115801561335c573d6000803e3d6000fd5b505050506040513d601f19601f82011682018060405250810190613380919061567c565b61338957600080fd5b505b505060016101f5555050565b60006001600160e01b0319821663780e9d6360e01b1480610af55750610af582613b6c565b6133c58161347a565b6106145760405162461bcd60e51b8152602060048201526018602482015277115490cdcc8c4e881a5b9d985b1a59081d1bdad95b88125160421b6044820152606401610c29565b600081815260cd6020526040902080546001600160a01b0319166001600160a01b0384169081179091558190613441826124f2565b6001600160a01b03167f8c5be1e5ebec7d5bd14f71427d1e84f3dd0314c0f7b2291e5b200ac8c7c3b92560405160405180910390a45050565b600090815260cb60205260409020546001600160a01b0316151590565b6000806134a3836124f2565b9050806001600160a01b0316846001600160a01b031614806134ea57506001600160a01b03808216600090815260ce602090815260408083209388168352929052205460ff165b8061350e5750836001600160a01b031661350384610b8d565b6001600160a01b0316145b949350505050565b826001600160a01b0316613529826124f2565b6001600160a01b03161461358d5760405162461bcd60e51b815260206004820152602560248201527f4552433732313a207472616e736665722066726f6d20696e636f72726563742060448201526437bbb732b960d91b6064820152608401610c29565b6001600160a01b0382166135ef5760405162461bcd60e51b8152602060048201526024808201527f4552433732313a207472616e7366657220746f20746865207a65726f206164646044820152637265737360e01b6064820152608401610c29565b6135fa838383613bac565b61360560008261340c565b6001600160a01b038316600090815260cc6020526040812080546001929061362e908490615ca1565b90915550506001600160a01b038216600090815260cc6020526040812080546001929061365c908490615c89565b9091555050600081815260cb602052604080822080546001600160a01b0319166001600160a01b0386811691821790925591518493918716917fddf252ad1be2c89b69c2b068fc378daa952ba7f163c4a11628f55a4df523b3ef91a4505050565b6106148133613bb7565b6136d18282613c1b565b6000828152609760205260409020610cca9082613ca1565b610f31828260405180602001604052806000815250613cb6565b6000604051733d602d80600a3d3981f3363d3d373d3d3d363d7360601b81528260601b60148201526e5af43d82803e903d91602b57fd5bf360881b60288201526037816000f09150506001600160a01b038116612f425760405162461bcd60e51b8152602060048201526016602482015275115490cc4c4d8dce8818dc99585d194819985a5b195960521b6044820152606401610c29565b606060006137a98585615ca1565b6137b4906001615c89565b6001600160401b038111156137cb576137cb6148a3565b6040519080825280601f01601f1916602001820160405280156137f5576020820181803683370190505b50905060005b6138058686615ca1565b8111613878578360016138188884615c89565b6138229190615ca1565b8151811061383257613832615531565b602001015160f81c60f81b82828151811061384f5761384f615531565b60200101906001600160f81b031916908160001a905350806138708161555d565b9150506137fb565b50949350505050565b61388b8282613ce9565b6000828152609760205260409020610cca9082613d50565b60006138b0600143615ca1565b60408051914060208301526bffffffffffffffffffffffff19606087901b169082015260548101849052607481018390526094016040516020818303038152906040528051906020012090509392505050565b6000610d048383613d65565b816001600160a01b0316836001600160a01b031614156139715760405162461bcd60e51b815260206004820152601960248201527f4552433732313a20617070726f766520746f2063616c6c6572000000000000006044820152606401610c29565b6001600160a01b03838116600081815260ce6020908152604080832094871680845294825291829020805460ff191686151590811790915591519182527f17307eab39ab6107e8899845ad3d59bd9653f200f220920489ca2b5937696c31910160405180910390a3505050565b600054610100900460ff16613a055760405162461bcd60e51b8152600401610c2990615e1a565b613a0f8383613d8f565b613a17613ddd565b610cca838383613e11565b613a2d848484613516565b613a3984848484613eac565b612cbf5760405162461bcd60e51b8152600401610c2990615e65565b606081613a795750506040805180820190915260018152600360fc1b602082015290565b8160005b8115613aa35780613a8d8161555d565b9150613a9c9050600a836155fb565b9150613a7d565b6000816001600160401b03811115613abd57613abd6148a3565b6040519080825280601f01601f191660200182016040528015613ae7576020820181803683370190505b5090505b841561350e57613afc600183615ca1565b9150613b09600a86615eb7565b613b14906030615c89565b60f81b818381518110613b2957613b29615531565b60200101906001600160f81b031916908160001a905350613b4b600a866155fb565b9450613aeb565b6000610af5825490565b60606101c48054610b0a906154fc565b60006001600160e01b031982166380ac58cd60e01b1480613b9d57506001600160e01b03198216635b5e139f60e01b145b80610af55750610af582613faa565b610cca838383613fcf565b613bc18282612a63565b610f3157613bd9816001600160a01b03166014614042565b613be4836020614042565b604051602001613bf5929190615ecb565b60408051601f198184030181529082905262461bcd60e51b8252610c2991600401614809565b613c258282612a63565b610f315760008281526065602090815260408083206001600160a01b03851684529091529020805460ff19166001179055613c5d3390565b6001600160a01b0316816001600160a01b0316837f2f8788117e7eff1d82e926ec794901d17c78024a50270940304540a733656f0d60405160405180910390a45050565b6000610d04836001600160a01b0384166141dd565b613cc0838361422c565b613ccd6000848484613eac565b610cca5760405162461bcd60e51b8152600401610c2990615e65565b613cf38282612a63565b15610f315760008281526065602090815260408083206001600160a01b0385168085529252808320805460ff1916905551339285917ff6391f5c32d9c69d2a47ea670b442974b53935d1edc7fd64eb21e047a839171b9190a45050565b6000610d04836001600160a01b03841661436b565b6000826000018281548110613d7c57613d7c615531565b9060005260206000200154905092915050565b600054610100900460ff16613db65760405162461bcd60e51b8152600401610c2990615e1a565b8151613dc99060c99060208501906146e5565b508051610cca9060ca9060208401906146e5565b600054610100900460ff16613e045760405162461bcd60e51b8152600401610c2990615e1a565b61015f805460ff19169055565b600054610100900460ff16613e385760405162461bcd60e51b8152600401610c2990615e1a565b8051613e4c906101c49060208401906146e5565b50613e5860003361445e565b613e827f9f2df0fed2c77648de5860a4cc508cd0818c85b8b8a1ab4ceeef8d981c8956a63361445e565b610cca7f65d7a28e3265b37a6474929f336521b332c1681b933f6cb9f3376673440d862a3361445e565b60006001600160a01b0384163b15613f9f57604051630a85bd0160e11b81526001600160a01b0385169063150b7a0290613ef0903390899088908890600401615f40565b6020604051808303816000875af1925050508015613f2b575060408051601f3d908101601f19168201909252613f2891810190615f7d565b60015b613f85573d808015613f59576040519150601f19603f3d011682016040523d82523d6000602084013e613f5e565b606091505b508051613f7d5760405162461bcd60e51b8152600401610c2990615e65565b805181602001fd5b6001600160e01b031916630a85bd0160e11b14905061350e565b506001949350505050565b60006001600160e01b03198216635a05180f60e01b1480610af55750610af582614468565b613fda83838361449d565b61015f5460ff1615610cca5760405162461bcd60e51b815260206004820152602b60248201527f4552433732315061757361626c653a20746f6b656e207472616e73666572207760448201526a1a1a5b19481c185d5cd95960aa1b6064820152608401610c29565b606060006140518360026155c6565b61405c906002615c89565b6001600160401b03811115614073576140736148a3565b6040519080825280601f01601f19166020018201604052801561409d576020820181803683370190505b509050600360fc1b816000815181106140b8576140b8615531565b60200101906001600160f81b031916908160001a905350600f60fb1b816001815181106140e7576140e7615531565b60200101906001600160f81b031916908160001a905350600061410b8460026155c6565b614116906001615c89565b90505b600181111561418e576f181899199a1a9b1b9c1cb0b131b232b360811b85600f166010811061414a5761414a615531565b1a60f81b82828151811061416057614160615531565b60200101906001600160f81b031916908160001a90535060049490941c9361418781615f9a565b9050614119565b508315610d045760405162461bcd60e51b815260206004820181905260248201527f537472696e67733a20686578206c656e67746820696e73756666696369656e746044820152606401610c29565b600081815260018301602052604081205461422457508154600181810184556000848152602080822090930184905584548482528286019093526040902091909155610af5565b506000610af5565b6001600160a01b0382166142825760405162461bcd60e51b815260206004820181905260248201527f4552433732313a206d696e7420746f20746865207a65726f20616464726573736044820152606401610c29565b61428b8161347a565b156142d85760405162461bcd60e51b815260206004820152601c60248201527f4552433732313a20746f6b656e20616c7265616479206d696e746564000000006044820152606401610c29565b6142e460008383613bac565b6001600160a01b038216600090815260cc6020526040812080546001929061430d908490615c89565b9091555050600081815260cb602052604080822080546001600160a01b0319166001600160a01b03861690811790915590518392907fddf252ad1be2c89b69c2b068fc378daa952ba7f163c4a11628f55a4df523b3ef908290a45050565b6000818152600183016020526040812054801561445457600061438f600183615ca1565b85549091506000906143a390600190615ca1565b90508181146144085760008660000182815481106143c3576143c3615531565b90600052602060002001549050808760000184815481106143e6576143e6615531565b6000918252602080832090910192909255918252600188019052604090208390555b855486908061441957614419615fb1565b600190038181906000526020600020016000905590558560010160008681526020019081526020016000206000905560019350505050610af5565b6000915050610af5565b610f3182826136c7565b60006001600160e01b03198216637965db0b60e01b1480610af557506301ffc9a760e01b6001600160e01b0319831614610af5565b6001600160a01b0383166144f8576144f38160fd8054600083815260fe60205260408120829055600182018355919091527f9346ac6dd7de6b96975fec380d4d994c4c12e6a8897544f22915316cc6cca2800155565b61451b565b816001600160a01b0316836001600160a01b03161461451b5761451b8382614555565b6001600160a01b03821661453257610cca816145f2565b826001600160a01b0316826001600160a01b031614610cca57610cca82826146a1565b6000600161456284612600565b61456c9190615ca1565b600083815260fc60205260409020549091508082146145bf576001600160a01b038416600090815260fb60209081526040808320858452825280832054848452818420819055835260fc90915290208190555b50600091825260fc602090815260408084208490556001600160a01b03909416835260fb81528383209183525290812055565b60fd5460009061460490600190615ca1565b600083815260fe602052604081205460fd805493945090928490811061462c5761462c615531565b906000526020600020015490508060fd838154811061464d5761464d615531565b600091825260208083209091019290925582815260fe909152604080822084905585825281205560fd80548061468557614685615fb1565b6001900381819060005260206000200160009055905550505050565b60006146ac83612600565b6001600160a01b03909316600090815260fb60209081526040808320868452825280832085905593825260fc9052919091209190915550565b8280546146f1906154fc565b90600052602060002090601f0160209004810192826147135760008555614759565b82601f1061472c57805160ff1916838001178555614759565b82800160010185558215614759579182015b8281111561475957825182559160200191906001019061473e565b50614765929150614769565b5090565b5b80821115614765576000815560010161476a565b6001600160e01b03198116811461061457600080fd5b6000602082840312156147a657600080fd5b8135610d048161477e565b60005b838110156147cc5781810151838201526020016147b4565b83811115612cbf5750506000910152565b600081518084526147f58160208601602086016147b1565b601f01601f19169290920160200192915050565b602081526000610d0460208301846147dd565b60006020828403121561482e57600080fd5b5035919050565b6001600160a01b038116811461061457600080fd5b8035612f4281614835565b6000806040838503121561486857600080fd5b823561487381614835565b946020939093013593505050565b6000806040838503121561489457600080fd5b50508035926020909101359150565b634e487b7160e01b600052604160045260246000fd5b604051608081016001600160401b03811182821017156148db576148db6148a3565b60405290565b604080519081016001600160401b03811182821017156148db576148db6148a3565b60405160e081016001600160401b03811182821017156148db576148db6148a3565b604051601f8201601f191681016001600160401b038111828210171561494d5761494d6148a3565b604052919050565b60006001600160401b0382111561496e5761496e6148a3565b5060051b60200190565b6000806040838503121561498b57600080fd5b823591506020808401356001600160401b038111156149a957600080fd5b8401601f810186136149ba57600080fd5b80356149cd6149c882614955565b614925565b81815260059190911b820183019083810190888311156149ec57600080fd5b928401925b82841015614a0a578335825292840192908401906149f1565b80955050505050509250929050565b60008060408385031215614a2c57600080fd5b8235614a3781614835565b91506020830135614a4781614835565b809150509250929050565b600080600060608486031215614a6757600080fd5b8335614a7281614835565b92506020840135614a8281614835565b929592945050506040919091013590565b60008060408385031215614aa657600080fd5b823591506020830135614a4781614835565b60006001600160401b03831115614ad157614ad16148a3565b614ae4601f8401601f1916602001614925565b9050828152838383011115614af857600080fd5b828260208301376000602084830101529392505050565b600082601f830112614b2057600080fd5b610d0483833560208501614ab8565b803563ffffffff81168114612f4257600080fd5b801515811461061457600080fd5b8035612f4281614b43565b600060408284031215614b6e57600080fd5b50919050565b60008060008060008060008060008060006101608c8e031215614b9657600080fd5b614b9f8c61484a565b9a506001600160401b038060208e01351115614bba57600080fd5b614bca8e60208f01358f01614b0f565b9a5060408d0135995060608d013598508060808e01351115614beb57600080fd5b614bfb8e60808f01358f01614b0f565b9750614c0960a08e01614b2f565b9650614c1760c08e01614b51565b95508060e08e01351115614c2a57600080fd5b614c3a8e60e08f01358f01614b0f565b94506101008d01359350614c516101208e0161484a565b9250806101408e01351115614c6557600080fd5b50614c778d6101408e01358e01614b5c565b90509295989b509295989b9093969950565b600082601f830112614c9a57600080fd5b81356020614caa6149c883614955565b82815260059290921b84018101918181019086841115614cc957600080fd5b8286015b84811015614d085780356001600160401b03811115614cec5760008081fd5b614cfa8986838b0101614b0f565b845250918301918301614ccd565b509695505050505050565b60ff8116811461061457600080fd5b8035612f4281614d13565b600060208284031215614d3f57600080fd5b6001600160401b0382351115614d5457600080fd5b60808235830184031215614d6757600080fd5b614d6f6148b9565b8235830180358252614d849060200135614835565b602083358401013560208201526001600160401b0360408435850101351115614dac57600080fd5b614dbf8484358501604081013501614c89565b60408201526001600160401b0360608435850101351115614ddf57600080fd5b82358301606081013501601f81018513614df857600080fd5b614e056149c88235614955565b81358082526020808301929160051b840101871015614e2357600080fd5b602083015b6020843560051b850101811015614fe0576001600160401b0381351115614e4e57600080fd5b6040813585018903601f19011215614e6557600080fd5b614e6d6148e1565b81358501602081013582526001600160401b036040909101351115614e9157600080fd5b81358501604081013501603f81018a13614eaa57600080fd5b614eba6149c86020830135614955565b602082810135808352908201919060051b83016040018c1015614edc57600080fd5b604083015b6040602085013560051b850101811015614fc7576001600160401b0381351115614f0a57600080fd5b60e0813585018e03603f19011215614f2157600080fd5b614f29614903565b614f3860408335870101614d22565b8152813585016060810135602083015260808101356040830152614f5e9060a001614d22565b60608201526001600160401b0360c08335870101351115614f7e57600080fd5b614f948e8335870160c081013501604001614c89565b60808201528135850160e081013560a0830152614fb49061010001614b51565b60c0820152835260209283019201614ee1565b5060208481019190915292865250509283019201614e28565b5060608401525090949350505050565b60006020828403121561500257600080fd5b8135610d0481614835565b6000806000806080858703121561502357600080fd5b843561502e81614835565b9350602085013561503e81614835565b93969395505050506040820135916060013590565b600081518084526020808501808196508360051b8101915082860160005b8581101561509b5782840389526150898483516147dd565b98850198935090840190600101615071565b5091979650505050505050565b60006040808401835185526020808501518382880152828151808552606094508489019150848160051b8a0101848401935060005b8281101561515957605f198b8303018452845160e060ff80835116855288830151898601528a8301518b860152808a840151168a86015250608080830151828287015261512c83870182615053565b60a0858101519088015260c0948501511515949096019390935250505093850193928501926001016150dd565b509998505050505050505050565b8e81526001600160a01b038e1660208201528c60408201528b60608201526101c06080820152600061519d6101c083018d6147dd565b63ffffffff8c1660a08401526001600160a01b038b1660c084015282810360e08401526151ca818b6147dd565b90508281036101008401526151df818a6147dd565b88151561012085015290508281036101408401526151fd81886150a8565b9150506152166101608301866001600160a01b03169052565b6101808201939093526101a001529c9b505050505050505050505050565b60008060006060848603121561524957600080fd5b833592506020840135614a8281614835565b6000806040838503121561526e57600080fd5b823561527981614835565b91506020830135614a4781614b43565b60008060006060848603121561529e57600080fd5b83356001600160401b03808211156152b557600080fd5b6152c187838801614b0f565b945060208601359150808211156152d757600080fd5b6152e387838801614b0f565b935060408601359150808211156152f957600080fd5b5061530686828701614b0f565b9150509250925092565b600080600080600060a0868803121561532857600080fd5b8535945060208601359350604086013561534181614835565b925060608601356001600160401b038082111561535d57600080fd5b61536989838a01614b0f565b9350608088013591508082111561537f57600080fd5b5061538c88828901614b0f565b9150509295509295909350565b6000806000606084860312156153ae57600080fd5b83356153b981614835565b95602085013595506040909401359392505050565b600080600080608085870312156153e457600080fd5b84356153ef81614835565b935060208501356153ff81614835565b92506040850135915060608501356001600160401b0381111561542157600080fd5b8501601f8101871361543257600080fd5b61544187823560208401614ab8565b91505092959194509250565b600080600080600060a0868803121561546557600080fd5b85356001600160401b038082111561547c57600080fd5b61548889838a01614b0f565b9650602088013591508082111561549e57600080fd5b6154aa89838a01614b0f565b955060408801359150808211156154c057600080fd5b506154cd88828901614b0f565b93505060608601356154de81614835565b915060808601356154ee81614835565b809150509295509295909350565b600181811c9082168061551057607f821691505b60208210811415614b6e57634e487b7160e01b600052602260045260246000fd5b634e487b7160e01b600052603260045260246000fd5b634e487b7160e01b600052601160045260246000fd5b600060001982141561557157615571615547565b5060010190565b6020808252602e908201527f4552433732313a2063616c6c6572206973206e6f7420746f6b656e206f776e6560408201526d1c881b9bdc88185c1c1c9bdd995960921b606082015260800190565b60008160001904831182151516156155e0576155e0615547565b500290565b634e487b7160e01b600052601260045260246000fd5b60008261560a5761560a6155e5565b500490565b6020808252601f908201527f5265656e7472616e637947756172643a207265656e7472616e742063616c6c00604082015260600190565b60006020828403121561565857600080fd5b5051919050565b60006020828403121561567157600080fd5b8151610d0481614835565b60006020828403121561568e57600080fd5b8151610d0481614b43565b6000808335601e198436030181126156b057600080fd5b8301803591506001600160401b038211156156ca57600080fd5b6020019150600581901b36038213156156e257600080fd5b9250929050565b6000823560de198336030181126156ff57600080fd5b9190910192915050565b5b81811015610f31576000815560010161570a565b805460008083558115610cca5782815260208082208381015b80821015612d935761574982546154fc565b801561579057601f808211600181146157645786855561578d565b84875285872061577e83850160051c820160018301615709565b50600085815260208120818755555b50505b50600182019150615737565b601f821115610cca57806000526020600020601f840160051c810160208510156157c35750805b6157d5601f850160051c830182615709565b5050505050565b6001600160401b038311156157f3576157f36148a3565b6158078361580183546154fc565b8361579c565b6000601f84116001811461583b57600085156158235750838201355b600019600387901b1c1916600186901b1783556157d5565b600083815260209020601f19861690835b8281101561586c578685013582556020948501946001909201910161584c565b50868210156158895760001960f88860031b161c19848701351681555b505060018560011b0183555050505050565b60008135610af581614b43565b81356158b381614d13565b815460ff191660ff8216178255506001602080840135828401556040840135600284015560608401356158e581614d13565b60038401805460ff191660ff831617905550600483016159086080860186615699565b600160401b81111561591c5761591c6148a3565b8254818455808210156159a15760008481528581208381019083015b8082101561599d5761594a82546154fc565b801561599357601f8082116001811461596557858555615990565b60008581526020902061598183850160051c82018e8301615709565b50600085815260208120818755555b50505b5090880190615938565b5050505b508160008481528581209450805b83811015615a10578235601e198636030181126159ca578283fd5b850180356001600160401b038111156159e1578384fd5b88820191508036038213156159f4578384fd5b6159ff81838a6157dc565b5050948701949186019187016159af565b505050505050505060a08201356005820155610f31615a3160c0840161589b565b6006830160ff1981541660ff8315151681178255505050565b8135815560018082016020615a6181860186615699565b600160401b811115615a7557615a756148a3565b835481855580821015615b22577f2492492492492492492492492492492492492492492492492492492492492492808211871615615ab557615ab5615547565b6007818411881615615ac957615ac9615547565b6000878152868120909250848202810190828502015b80821015615b1d57838255838a830155836002830155836003830155615b076004830161571e565b8360058301558360068301558282019150615adf565b505050505b506000938452602084209382905b82811015615b5d57615b4b615b4583866156e9565b876158a8565b60079590950194908401908601615b30565b505050505050505050565b60a081526000808754615b7a816154fc565b8060a086015260c0600180841660008114615b9c5760018114615bb057615be1565b60ff1985168884015260e088019550615be1565b8c60005260208060002060005b86811015615bd85781548b8201870152908401908201615bbd565b8a018501975050505b50505050508281036020840152615bf881886147dd565b915050615c1060408301866001600160a01b03169052565b6001600160a01b03939093166060820152608001529392505050565b6001600160a01b038416815260208082018490526060604083018190528351908301819052600091848101916080850190845b81811015615c7b57845183529383019391830191600101615c5f565b509098975050505050505050565b60008219821115615c9c57615c9c615547565b500190565b600082821015615cb357615cb3615547565b500390565b6001600160a01b03858116825284166020820152608060408201819052600090615ce4908301856147dd565b8281036060840152615cf681856150a8565b979650505050505050565b6001600160a01b03838116825260406020808401829052845182850152848101519092166060840152830151608080840152600091615d4360c0850183615053565b6060860151858203603f190160a0870152805180835291935082019082840190600581901b8501840160005b8281101561515957601f19878303018452615d8b8286516150a8565b94860194938601939150600101615d6f565b6020808252602e908201527f496e697469616c697a61626c653a20636f6e747261637420697320616c72656160408201526d191e481a5b9a5d1a585b1a5e995960921b606082015260800190565b60008351615dfd8184602088016147b1565b835190830190615e118183602088016147b1565b01949350505050565b6020808252602b908201527f496e697469616c697a61626c653a20636f6e7472616374206973206e6f74206960408201526a6e697469616c697a696e6760a81b606082015260800190565b60208082526032908201527f4552433732313a207472616e7366657220746f206e6f6e20455243373231526560408201527131b2b4bb32b91034b6b83632b6b2b73a32b960711b606082015260800190565b600082615ec657615ec66155e5565b500690565b7f416363657373436f6e74726f6c3a206163636f756e7420000000000000000000815260008351615f038160178501602088016147b1565b7001034b99036b4b9b9b4b733903937b6329607d1b6017918401918201528351615f348160288401602088016147b1565b01602801949350505050565b6001600160a01b0385811682528416602082015260408101839052608060608201819052600090615f73908301846147dd565b9695505050505050565b600060208284031215615f8f57600080fd5b8151610d048161477e565b600081615fa957615fa9615547565b506000190190565b634e487b7160e01b600052603160045260246000fdfea2646970667358221220869bf2713337cc130c672ddb29202d77eea0c9174579dabaae269efcb883beea64736f6c634300080c0033",
  "linkReferences": {},
  "deployedLinkReferences": {}
}