{
  "_format": "hh-sol-artifact-1",
  "contractName": "GenerativeBoilerplateNFT",
  "sourceName": "contracts/nft/GenerativeBoilerplateNFT.sol",
  "abi": [
    {
      "anonymous": false,
      "inputs": [
        {
          "indexed": true,
          "internalType": "address",
          "name": "owner",
          "type": "address"
        },
        {
          "indexed": true,
          "internalType": "address",
          "name": "approved",
          "type": "address"
        },
        {
          "indexed": true,
          "internalType": "uint256",
          "name": "tokenId",
          "type": "uint256"
        }
      ],
      "name": "Approval",
      "type": "event"
    },
    {
      "anonymous": false,
      "inputs": [
        {
          "indexed": true,
          "internalType": "address",
          "name": "owner",
          "type": "address"
        },
        {
          "indexed": true,
          "internalType": "address",
          "name": "operator",
          "type": "address"
        },
        {
          "indexed": false,
          "internalType": "bool",
          "name": "approved",
          "type": "bool"
        }
      ],
      "name": "ApprovalForAll",
      "type": "event"
    },
    {
      "anonymous": false,
      "inputs": [
        {
          "indexed": false,
          "internalType": "address",
          "name": "sender",
          "type": "address"
        },
        {
          "indexed": false,
          "internalType": "uint256",
          "name": "projectId",
          "type": "uint256"
        },
        {
          "indexed": false,
          "internalType": "bytes32[]",
          "name": "seeds",
          "type": "bytes32[]"
        }
      ],
      "name": "GenerateSeeds",
      "type": "event"
    },
    {
      "anonymous": false,
      "inputs": [
        {
          "indexed": false,
          "internalType": "uint8",
          "name": "version",
          "type": "uint8"
        }
      ],
      "name": "Initialized",
      "type": "event"
    },
    {
      "anonymous": false,
      "inputs": [
        {
          "indexed": false,
          "internalType": "address",
          "name": "sender",
          "type": "address"
        },
        {
          "components": [
            {
              "internalType": "uint256",
              "name": "_fromProjectId",
              "type": "uint256"
            },
            {
              "internalType": "address",
              "name": "_mintTo",
              "type": "address"
            },
            {
              "internalType": "string[]",
              "name": "_uriBatch",
              "type": "string[]"
            },
            {
              "components": [
                {
                  "internalType": "bytes32",
                  "name": "_seed",
                  "type": "bytes32"
                },
                {
                  "components": [
                    {
                      "internalType": "uint8",
                      "name": "_typeValue",
                      "type": "uint8"
                    },
                    {
                      "internalType": "uint256",
                      "name": "_max",
                      "type": "uint256"
                    },
                    {
                      "internalType": "uint256",
                      "name": "_min",
                      "type": "uint256"
                    },
                    {
                      "internalType": "uint8",
                      "name": "_decimal",
                      "type": "uint8"
                    },
                    {
                      "internalType": "string[]",
                      "name": "_availableValues",
                      "type": "string[]"
                    },
                    {
                      "internalType": "uint256",
                      "name": "_value",
                      "type": "uint256"
                    },
                    {
                      "internalType": "bool",
                      "name": "_editable",
                      "type": "bool"
                    }
                  ],
                  "internalType": "struct BoilerplateParam.ParamTemplate[]",
                  "name": "_params",
                  "type": "tuple[]"
                }
              ],
              "internalType": "struct BoilerplateParam.ParamsOfProject[]",
              "name": "_paramsBatch",
              "type": "tuple[]"
            }
          ],
          "indexed": false,
          "internalType": "struct IGenerativeBoilerplateNFT.MintRequest",
          "name": "request",
          "type": "tuple"
        }
      ],
      "name": "MintBatchNFT",
      "type": "event"
    },
    {
      "anonymous": false,
      "inputs": [
        {
          "indexed": false,
          "internalType": "address",
          "name": "account",
          "type": "address"
        }
      ],
      "name": "Paused",
      "type": "event"
    },
    {
      "anonymous": false,
      "inputs": [
        {
          "indexed": true,
          "internalType": "bytes32",
          "name": "role",
          "type": "bytes32"
        },
        {
          "indexed": true,
          "internalType": "bytes32",
          "name": "previousAdminRole",
          "type": "bytes32"
        },
        {
          "indexed": true,
          "internalType": "bytes32",
          "name": "newAdminRole",
          "type": "bytes32"
        }
      ],
      "name": "RoleAdminChanged",
      "type": "event"
    },
    {
      "anonymous": false,
      "inputs": [
        {
          "indexed": true,
          "internalType": "bytes32",
          "name": "role",
          "type": "bytes32"
        },
        {
          "indexed": true,
          "internalType": "address",
          "name": "account",
          "type": "address"
        },
        {
          "indexed": true,
          "internalType": "address",
          "name": "sender",
          "type": "address"
        }
      ],
      "name": "RoleGranted",
      "type": "event"
    },
    {
      "anonymous": false,
      "inputs": [
        {
          "indexed": true,
          "internalType": "bytes32",
          "name": "role",
          "type": "bytes32"
        },
        {
          "indexed": true,
          "internalType": "address",
          "name": "account",
          "type": "address"
        },
        {
          "indexed": true,
          "internalType": "address",
          "name": "sender",
          "type": "address"
        }
      ],
      "name": "RoleRevoked",
      "type": "event"
    },
    {
      "anonymous": false,
      "inputs": [
        {
          "indexed": true,
          "internalType": "address",
          "name": "from",
          "type": "address"
        },
        {
          "indexed": true,
          "internalType": "address",
          "name": "to",
          "type": "address"
        },
        {
          "indexed": true,
          "internalType": "uint256",
          "name": "tokenId",
          "type": "uint256"
        }
      ],
      "name": "Transfer",
      "type": "event"
    },
    {
      "anonymous": false,
      "inputs": [
        {
          "indexed": false,
          "internalType": "address",
          "name": "account",
          "type": "address"
        }
      ],
      "name": "Unpaused",
      "type": "event"
    },
    {
      "inputs": [],
      "name": "DEFAULT_ADMIN_ROLE",
      "outputs": [
        {
          "internalType": "bytes32",
          "name": "",
          "type": "bytes32"
        }
      ],
      "stateMutability": "view",
      "type": "function"
    },
    {
      "inputs": [],
      "name": "MINTER_ROLE",
      "outputs": [
        {
          "internalType": "bytes32",
          "name": "",
          "type": "bytes32"
        }
      ],
      "stateMutability": "view",
      "type": "function"
    },
    {
      "inputs": [],
      "name": "PAUSER_ROLE",
      "outputs": [
        {
          "internalType": "bytes32",
          "name": "",
          "type": "bytes32"
        }
      ],
      "stateMutability": "view",
      "type": "function"
    },
    {
      "inputs": [],
      "name": "_admin",
      "outputs": [
        {
          "internalType": "address",
          "name": "",
          "type": "address"
        }
      ],
      "stateMutability": "view",
      "type": "function"
    },
    {
      "inputs": [
        {
          "internalType": "address",
          "name": "",
          "type": "address"
        },
        {
          "internalType": "address",
          "name": "",
          "type": "address"
        }
      ],
      "name": "_approvalForAllSeeds",
      "outputs": [
        {
          "internalType": "uint256",
          "name": "",
          "type": "uint256"
        }
      ],
      "stateMutability": "view",
      "type": "function"
    },
    {
      "inputs": [],
      "name": "_paramsAddress",
      "outputs": [
        {
          "internalType": "address",
          "name": "",
          "type": "address"
        }
      ],
      "stateMutability": "view",
      "type": "function"
    },
    {
      "inputs": [
        {
          "internalType": "uint256",
          "name": "",
          "type": "uint256"
        }
      ],
      "name": "_projects",
      "outputs": [
        {
          "internalType": "uint256",
          "name": "_fee",
          "type": "uint256"
        },
        {
          "internalType": "address",
          "name": "_feeToken",
          "type": "address"
        },
        {
          "internalType": "uint256",
          "name": "_mintMaxSupply",
          "type": "uint256"
        },
        {
          "internalType": "uint256",
          "name": "_mintTotalSupply",
          "type": "uint256"
        },
        {
          "internalType": "string",
          "name": "_script",
          "type": "string"
        },
        {
          "internalType": "uint32",
          "name": "_scriptType",
          "type": "uint32"
        },
        {
          "internalType": "address",
          "name": "_creator",
          "type": "address"
        },
        {
          "internalType": "string",
          "name": "_customUri",
          "type": "string"
        },
        {
          "internalType": "string",
          "name": "_projectName",
          "type": "string"
        },
        {
          "internalType": "bool",
          "name": "_clientSeed",
          "type": "bool"
        },
        {
          "components": [
            {
              "internalType": "bytes32",
              "name": "_seed",
              "type": "bytes32"
            },
            {
              "components": [
                {
                  "internalType": "uint8",
                  "name": "_typeValue",
                  "type": "uint8"
                },
                {
                  "internalType": "uint256",
                  "name": "_max",
                  "type": "uint256"
                },
                {
                  "internalType": "uint256",
                  "name": "_min",
                  "type": "uint256"
                },
                {
                  "internalType": "uint8",
                  "name": "_decimal",
                  "type": "uint8"
                },
                {
                  "internalType": "string[]",
                  "name": "_availableValues",
                  "type": "string[]"
                },
                {
                  "internalType": "uint256",
                  "name": "_value",
                  "type": "uint256"
                },
                {
                  "internalType": "bool",
                  "name": "_editable",
                  "type": "bool"
                }
              ],
              "internalType": "struct BoilerplateParam.ParamTemplate[]",
              "name": "_params",
              "type": "tuple[]"
            }
          ],
          "internalType": "struct BoilerplateParam.ParamsOfProject",
          "name": "_paramsTemplate",
          "type": "tuple"
        },
        {
          "internalType": "address",
          "name": "_minterNFTInfo",
          "type": "address"
        },
        {
          "internalType": "uint256",
          "name": "_mintNotOwnerProjectMaxSupply",
          "type": "uint256"
        },
        {
          "internalType": "uint256",
          "name": "_mintNotOnwerProjectTotalSupply",
          "type": "uint256"
        }
      ],
      "stateMutability": "view",
      "type": "function"
    },
    {
      "inputs": [
        {
          "internalType": "address",
          "name": "to",
          "type": "address"
        },
        {
          "internalType": "uint256",
          "name": "tokenId",
          "type": "uint256"
        }
      ],
      "name": "approve",
      "outputs": [],
      "stateMutability": "nonpayable",
      "type": "function"
    },
    {
      "inputs": [
        {
          "internalType": "address",
          "name": "operator",
          "type": "address"
        },
        {
          "internalType": "uint256",
          "name": "projectId",
          "type": "uint256"
        }
      ],
      "name": "approveForAllSeeds",
      "outputs": [],
      "stateMutability": "nonpayable",
      "type": "function"
    },
    {
      "inputs": [
        {
          "internalType": "address",
          "name": "owner",
          "type": "address"
        }
      ],
      "name": "balanceOf",
      "outputs": [
        {
          "internalType": "uint256",
          "name": "",
          "type": "uint256"
        }
      ],
      "stateMutability": "view",
      "type": "function"
    },
    {
      "inputs": [],
      "name": "baseTokenURI",
      "outputs": [
        {
          "internalType": "string",
          "name": "",
          "type": "string"
        }
      ],
      "stateMutability": "view",
      "type": "function"
    },
    {
      "inputs": [
        {
          "internalType": "uint256",
          "name": "tokenId",
          "type": "uint256"
        }
      ],
      "name": "burn",
      "outputs": [],
      "stateMutability": "nonpayable",
      "type": "function"
    },
    {
      "inputs": [
        {
          "internalType": "address",
          "name": "newAdm",
          "type": "address"
        }
      ],
      "name": "changeAdmin",
      "outputs": [],
      "stateMutability": "nonpayable",
      "type": "function"
    },
    {
      "inputs": [
        {
          "internalType": "uint256",
          "name": "_id",
          "type": "uint256"
        }
      ],
      "name": "exists",
      "outputs": [
        {
          "internalType": "bool",
          "name": "",
          "type": "bool"
        }
      ],
      "stateMutability": "view",
      "type": "function"
    },
    {
      "inputs": [
        {
          "internalType": "uint256",
          "name": "projectId",
          "type": "uint256"
        },
        {
          "internalType": "uint256",
          "name": "amount",
          "type": "uint256"
        }
      ],
      "name": "generateSeeds",
      "outputs": [],
      "stateMutability": "nonpayable",
      "type": "function"
    },
    {
      "inputs": [
        {
          "internalType": "uint256",
          "name": "tokenId",
          "type": "uint256"
        }
      ],
      "name": "getApproved",
      "outputs": [
        {
          "internalType": "address",
          "name": "",
          "type": "address"
        }
      ],
      "stateMutability": "view",
      "type": "function"
    },
    {
      "inputs": [
        {
          "internalType": "bytes32",
          "name": "role",
          "type": "bytes32"
        }
      ],
      "name": "getRoleAdmin",
      "outputs": [
        {
          "internalType": "bytes32",
          "name": "",
          "type": "bytes32"
        }
      ],
      "stateMutability": "view",
      "type": "function"
    },
    {
      "inputs": [
        {
          "internalType": "bytes32",
          "name": "role",
          "type": "bytes32"
        },
        {
          "internalType": "uint256",
          "name": "index",
          "type": "uint256"
        }
      ],
      "name": "getRoleMember",
      "outputs": [
        {
          "internalType": "address",
          "name": "",
          "type": "address"
        }
      ],
      "stateMutability": "view",
      "type": "function"
    },
    {
      "inputs": [
        {
          "internalType": "bytes32",
          "name": "role",
          "type": "bytes32"
        }
      ],
      "name": "getRoleMemberCount",
      "outputs": [
        {
          "internalType": "uint256",
          "name": "",
          "type": "uint256"
        }
      ],
      "stateMutability": "view",
      "type": "function"
    },
    {
      "inputs": [
        {
          "internalType": "bytes32",
          "name": "role",
          "type": "bytes32"
        },
        {
          "internalType": "address",
          "name": "account",
          "type": "address"
        }
      ],
      "name": "grantRole",
      "outputs": [],
      "stateMutability": "nonpayable",
      "type": "function"
    },
    {
      "inputs": [
        {
          "internalType": "bytes32",
          "name": "role",
          "type": "bytes32"
        },
        {
          "internalType": "address",
          "name": "account",
          "type": "address"
        }
      ],
      "name": "hasRole",
      "outputs": [
        {
          "internalType": "bool",
          "name": "",
          "type": "bool"
        }
      ],
      "stateMutability": "view",
      "type": "function"
    },
    {
      "inputs": [
        {
          "internalType": "string",
          "name": "name",
          "type": "string"
        },
        {
          "internalType": "string",
          "name": "symbol",
          "type": "string"
        },
        {
          "internalType": "string",
          "name": "baseTokenURI",
          "type": "string"
        }
      ],
      "name": "initialize",
      "outputs": [],
      "stateMutability": "nonpayable",
      "type": "function"
    },
    {
      "inputs": [
        {
          "internalType": "string",
          "name": "name",
          "type": "string"
        },
        {
          "internalType": "string",
          "name": "symbol",
          "type": "string"
        },
        {
          "internalType": "string",
          "name": "baseUri",
          "type": "string"
        },
        {
          "internalType": "address",
          "name": "admin",
          "type": "address"
        },
        {
          "internalType": "address",
          "name": "paramsAddress",
          "type": "address"
        }
      ],
      "name": "initialize",
      "outputs": [],
      "stateMutability": "nonpayable",
      "type": "function"
    },
    {
      "inputs": [
        {
          "internalType": "address",
          "name": "owner",
          "type": "address"
        },
        {
          "internalType": "address",
          "name": "operator",
          "type": "address"
        }
      ],
      "name": "isApprovedForAll",
      "outputs": [
        {
          "internalType": "bool",
          "name": "",
          "type": "bool"
        }
      ],
      "stateMutability": "view",
      "type": "function"
    },
    {
      "inputs": [
        {
          "internalType": "address",
          "name": "operator",
          "type": "address"
        },
        {
          "internalType": "bytes32",
          "name": "seed",
          "type": "bytes32"
        },
        {
          "internalType": "uint256",
          "name": "projectId",
          "type": "uint256"
        }
      ],
      "name": "isApprovedOrOwnerForSeed",
      "outputs": [
        {
          "internalType": "bool",
          "name": "",
          "type": "bool"
        }
      ],
      "stateMutability": "view",
      "type": "function"
    },
    {
      "inputs": [
        {
          "internalType": "address",
          "name": "to",
          "type": "address"
        }
      ],
      "name": "mint",
      "outputs": [],
      "stateMutability": "nonpayable",
      "type": "function"
    },
    {
      "inputs": [
        {
          "components": [
            {
              "internalType": "uint256",
              "name": "_fromProjectId",
              "type": "uint256"
            },
            {
              "internalType": "address",
              "name": "_mintTo",
              "type": "address"
            },
            {
              "internalType": "string[]",
              "name": "_uriBatch",
              "type": "string[]"
            },
            {
              "components": [
                {
                  "internalType": "bytes32",
                  "name": "_seed",
                  "type": "bytes32"
                },
                {
                  "components": [
                    {
                      "internalType": "uint8",
                      "name": "_typeValue",
                      "type": "uint8"
                    },
                    {
                      "internalType": "uint256",
                      "name": "_max",
                      "type": "uint256"
                    },
                    {
                      "internalType": "uint256",
                      "name": "_min",
                      "type": "uint256"
                    },
                    {
                      "internalType": "uint8",
                      "name": "_decimal",
                      "type": "uint8"
                    },
                    {
                      "internalType": "string[]",
                      "name": "_availableValues",
                      "type": "string[]"
                    },
                    {
                      "internalType": "uint256",
                      "name": "_value",
                      "type": "uint256"
                    },
                    {
                      "internalType": "bool",
                      "name": "_editable",
                      "type": "bool"
                    }
                  ],
                  "internalType": "struct BoilerplateParam.ParamTemplate[]",
                  "name": "_params",
                  "type": "tuple[]"
                }
              ],
              "internalType": "struct BoilerplateParam.ParamsOfProject[]",
              "name": "_paramsBatch",
              "type": "tuple[]"
            }
          ],
          "internalType": "struct IGenerativeBoilerplateNFT.MintRequest",
          "name": "mintBatch",
          "type": "tuple"
        }
      ],
      "name": "mintBatchUniqueNFT",
      "outputs": [],
      "stateMutability": "payable",
      "type": "function"
    },
    {
      "inputs": [
        {
          "internalType": "address",
          "name": "to",
          "type": "address"
        },
        {
          "internalType": "string",
          "name": "projectName",
          "type": "string"
        },
        {
          "internalType": "uint256",
          "name": "maxSupply",
          "type": "uint256"
        },
        {
          "internalType": "uint256",
          "name": "maxNotOwner",
          "type": "uint256"
        },
        {
          "internalType": "string",
          "name": "script",
          "type": "string"
        },
        {
          "internalType": "uint32",
          "name": "scriptType",
          "type": "uint32"
        },
        {
          "internalType": "bool",
          "name": "clientSeed",
          "type": "bool"
        },
        {
          "internalType": "string",
          "name": "uri",
          "type": "string"
        },
        {
          "internalType": "uint256",
          "name": "fee",
          "type": "uint256"
        },
        {
          "internalType": "address",
          "name": "feeAdd",
          "type": "address"
        },
        {
          "components": [
            {
              "internalType": "bytes32",
              "name": "_seed",
              "type": "bytes32"
            },
            {
              "components": [
                {
                  "internalType": "uint8",
                  "name": "_typeValue",
                  "type": "uint8"
                },
                {
                  "internalType": "uint256",
                  "name": "_max",
                  "type": "uint256"
                },
                {
                  "internalType": "uint256",
                  "name": "_min",
                  "type": "uint256"
                },
                {
                  "internalType": "uint8",
                  "name": "_decimal",
                  "type": "uint8"
                },
                {
                  "internalType": "string[]",
                  "name": "_availableValues",
                  "type": "string[]"
                },
                {
                  "internalType": "uint256",
                  "name": "_value",
                  "type": "uint256"
                },
                {
                  "internalType": "bool",
                  "name": "_editable",
                  "type": "bool"
                }
              ],
              "internalType": "struct BoilerplateParam.ParamTemplate[]",
              "name": "_params",
              "type": "tuple[]"
            }
          ],
          "internalType": "struct BoilerplateParam.ParamsOfProject",
          "name": "paramsTemplate",
          "type": "tuple"
        }
      ],
      "name": "mintProject",
      "outputs": [
        {
          "internalType": "uint256",
          "name": "",
          "type": "uint256"
        }
      ],
      "stateMutability": "payable",
      "type": "function"
    },
    {
      "inputs": [],
      "name": "name",
      "outputs": [
        {
          "internalType": "string",
          "name": "",
          "type": "string"
        }
      ],
      "stateMutability": "view",
      "type": "function"
    },
    {
      "inputs": [
        {
          "internalType": "uint256",
          "name": "tokenId",
          "type": "uint256"
        }
      ],
      "name": "ownerOf",
      "outputs": [
        {
          "internalType": "address",
          "name": "",
          "type": "address"
        }
      ],
      "stateMutability": "view",
      "type": "function"
    },
    {
      "inputs": [
        {
          "internalType": "bytes32",
          "name": "seed",
          "type": "bytes32"
        },
        {
          "internalType": "uint256",
          "name": "projectId",
          "type": "uint256"
        }
      ],
      "name": "ownerOfSeed",
      "outputs": [
        {
          "internalType": "address",
          "name": "",
          "type": "address"
        }
      ],
      "stateMutability": "view",
      "type": "function"
    },
    {
      "inputs": [],
      "name": "pause",
      "outputs": [],
      "stateMutability": "nonpayable",
      "type": "function"
    },
    {
      "inputs": [],
      "name": "paused",
      "outputs": [
        {
          "internalType": "bool",
          "name": "",
          "type": "bool"
        }
      ],
      "stateMutability": "view",
      "type": "function"
    },
    {
      "inputs": [
        {
          "internalType": "uint256",
          "name": "projectId",
          "type": "uint256"
        },
        {
          "internalType": "bytes32[]",
          "name": "seeds",
          "type": "bytes32[]"
        }
      ],
      "name": "registerSeeds",
      "outputs": [],
      "stateMutability": "nonpayable",
      "type": "function"
    },
    {
      "inputs": [
        {
          "internalType": "bytes32",
          "name": "role",
          "type": "bytes32"
        },
        {
          "internalType": "address",
          "name": "account",
          "type": "address"
        }
      ],
      "name": "renounceRole",
      "outputs": [],
      "stateMutability": "nonpayable",
      "type": "function"
    },
    {
      "inputs": [
        {
          "internalType": "bytes32",
          "name": "role",
          "type": "bytes32"
        },
        {
          "internalType": "address",
          "name": "account",
          "type": "address"
        }
      ],
      "name": "revokeRole",
      "outputs": [],
      "stateMutability": "nonpayable",
      "type": "function"
    },
    {
      "inputs": [
        {
          "internalType": "uint256",
          "name": "",
          "type": "uint256"
        }
      ],
      "name": "royalties",
      "outputs": [
        {
          "internalType": "address",
          "name": "recipient",
          "type": "address"
        },
        {
          "internalType": "uint24",
          "name": "amount",
          "type": "uint24"
        },
        {
          "internalType": "bool",
          "name": "isValue",
          "type": "bool"
        }
      ],
      "stateMutability": "view",
      "type": "function"
    },
    {
      "inputs": [
        {
          "internalType": "uint256",
          "name": "_tokenId",
          "type": "uint256"
        },
        {
          "internalType": "uint256",
          "name": "_salePrice",
          "type": "uint256"
        }
      ],
      "name": "royaltyInfo",
      "outputs": [
        {
          "internalType": "address",
          "name": "receiver",
          "type": "address"
        },
        {
          "internalType": "uint256",
          "name": "royaltyAmount",
          "type": "uint256"
        }
      ],
      "stateMutability": "view",
      "type": "function"
    },
    {
      "inputs": [
        {
          "internalType": "address",
          "name": "from",
          "type": "address"
        },
        {
          "internalType": "address",
          "name": "to",
          "type": "address"
        },
        {
          "internalType": "uint256",
          "name": "tokenId",
          "type": "uint256"
        }
      ],
      "name": "safeTransferFrom",
      "outputs": [],
      "stateMutability": "nonpayable",
      "type": "function"
    },
    {
      "inputs": [
        {
          "internalType": "address",
          "name": "from",
          "type": "address"
        },
        {
          "internalType": "address",
          "name": "to",
          "type": "address"
        },
        {
          "internalType": "uint256",
          "name": "tokenId",
          "type": "uint256"
        },
        {
          "internalType": "bytes",
          "name": "data",
          "type": "bytes"
        }
      ],
      "name": "safeTransferFrom",
      "outputs": [],
      "stateMutability": "nonpayable",
      "type": "function"
    },
    {
      "inputs": [
        {
          "internalType": "address",
          "name": "operator",
          "type": "address"
        },
        {
          "internalType": "bool",
          "name": "approved",
          "type": "bool"
        }
      ],
      "name": "setApprovalForAll",
      "outputs": [],
      "stateMutability": "nonpayable",
      "type": "function"
    },
    {
      "inputs": [
        {
          "internalType": "address",
          "name": "_to",
          "type": "address"
        },
        {
          "internalType": "uint256[]",
          "name": "_ids",
          "type": "uint256[]"
        }
      ],
      "name": "setCreator",
      "outputs": [],
      "stateMutability": "nonpayable",
      "type": "function"
    },
    {
      "inputs": [
        {
          "internalType": "uint256",
          "name": "_id",
          "type": "uint256"
        },
        {
          "internalType": "string",
          "name": "_newURI",
          "type": "string"
        }
      ],
      "name": "setCustomURI",
      "outputs": [],
      "stateMutability": "nonpayable",
      "type": "function"
    },
    {
      "inputs": [
        {
          "internalType": "uint256",
          "name": "_tokenId",
          "type": "uint256"
        },
        {
          "internalType": "address",
          "name": "_recipient",
          "type": "address"
        },
        {
          "internalType": "uint256",
          "name": "_value",
          "type": "uint256"
        }
      ],
      "name": "setTokenRoyalty",
      "outputs": [],
      "stateMutability": "nonpayable",
      "type": "function"
    },
    {
      "inputs": [
        {
          "internalType": "bytes4",
          "name": "interfaceId",
          "type": "bytes4"
        }
      ],
      "name": "supportsInterface",
      "outputs": [
        {
          "internalType": "bool",
          "name": "",
          "type": "bool"
        }
      ],
      "stateMutability": "view",
      "type": "function"
    },
    {
      "inputs": [],
      "name": "symbol",
      "outputs": [
        {
          "internalType": "string",
          "name": "",
          "type": "string"
        }
      ],
      "stateMutability": "view",
      "type": "function"
    },
    {
      "inputs": [
        {
          "internalType": "uint256",
          "name": "index",
          "type": "uint256"
        }
      ],
      "name": "tokenByIndex",
      "outputs": [
        {
          "internalType": "uint256",
          "name": "",
          "type": "uint256"
        }
      ],
      "stateMutability": "view",
      "type": "function"
    },
    {
      "inputs": [
        {
          "internalType": "address",
          "name": "owner",
          "type": "address"
        },
        {
          "internalType": "uint256",
          "name": "index",
          "type": "uint256"
        }
      ],
      "name": "tokenOfOwnerByIndex",
      "outputs": [
        {
          "internalType": "uint256",
          "name": "",
          "type": "uint256"
        }
      ],
      "stateMutability": "view",
      "type": "function"
    },
    {
      "inputs": [
        {
          "internalType": "uint256",
          "name": "_tokenId",
          "type": "uint256"
        }
      ],
      "name": "tokenURI",
      "outputs": [
        {
          "internalType": "string",
          "name": "",
          "type": "string"
        }
      ],
      "stateMutability": "view",
      "type": "function"
    },
    {
      "inputs": [],
      "name": "totalSupply",
      "outputs": [
        {
          "internalType": "uint256",
          "name": "",
          "type": "uint256"
        }
      ],
      "stateMutability": "view",
      "type": "function"
    },
    {
      "inputs": [
        {
          "internalType": "address",
          "name": "from",
          "type": "address"
        },
        {
          "internalType": "address",
          "name": "to",
          "type": "address"
        },
        {
          "internalType": "uint256",
          "name": "tokenId",
          "type": "uint256"
        }
      ],
      "name": "transferFrom",
      "outputs": [],
      "stateMutability": "nonpayable",
      "type": "function"
    },
    {
      "inputs": [
        {
          "internalType": "address",
          "name": "from",
          "type": "address"
        },
        {
          "internalType": "address",
          "name": "to",
          "type": "address"
        },
        {
          "internalType": "bytes32",
          "name": "seed",
          "type": "bytes32"
        },
        {
          "internalType": "uint256",
          "name": "projectId",
          "type": "uint256"
        }
      ],
      "name": "transferSeed",
      "outputs": [],
      "stateMutability": "nonpayable",
      "type": "function"
    },
    {
      "inputs": [],
      "name": "unpause",
      "outputs": [],
      "stateMutability": "nonpayable",
      "type": "function"
    },
    {
      "inputs": [
        {
          "internalType": "address",
          "name": "receiver",
          "type": "address"
        },
        {
          "internalType": "address",
          "name": "erc20Addr",
          "type": "address"
        },
        {
          "internalType": "uint256",
          "name": "amount",
          "type": "uint256"
        }
      ],
      "name": "withdraw",
      "outputs": [],
      "stateMutability": "nonpayable",
      "type": "function"
    }
  ],
  "bytecode": "0x608060405234801561001057600080fd5b50615ffb80620000216000396000f3fe6080604052600436106103355760003560e01c80636a627842116101ab578063a6487c53116100f7578063d539139311610095578063d6d0faee1161006f578063d6d0faee14610a2d578063d9caed1214610a4d578063e63ab1e914610a6d578063e985e9c514610aa157600080fd5b8063d5391393146109c4578063d547741f146109f8578063d547cfb714610a1857600080fd5b8063b88d4fde116100d1578063b88d4fde14610944578063c87b56dd14610964578063ca15c87314610984578063d2a6b51a146109a457600080fd5b8063a6487c53146108e3578063adfc7dae14610903578063b0f4cf931461092457600080fd5b80638f2839701161016457806395d89b411161013e57806395d89b41146108795780639713c8071461088e578063a217fddf146108ae578063a22cb465146108c357600080fd5b80638f283970146108195780639010d07c1461083957806391d148541461085957600080fd5b80636a627842146107095780636e4d0fe61461072457806370a08231146107445780637f77f57414610764578063821f9dc9146107df5780638456cb59146105ca57600080fd5b806335055e901161028557806346398139116102235780635c975abb116101fd5780635c975abb146106775780636006e9ef1461069057806362fe4e4a146106a35780636352211e146106e957600080fd5b806346398139146106175780634f558e79146106375780634f6ccce71461065757600080fd5b80633adf80b41161025f5780633adf80b4146105aa5780633f4ba83a146105ca57806342842e0e146105d957806342966c68146105f957600080fd5b806335055e901461053e57806336568abe1461055157806336bd9e631461057157600080fd5b806318160ddd116102f2578063248a9ca3116102cc578063248a9ca31461048f5780632a55205a146104bf5780632f2ff15d146104fe5780632f745c591461051e57600080fd5b806318160ddd1461042c578063189c168d1461044f57806323b872dd1461046f57600080fd5b806301bc45c91461033a57806301ffc9a71461037857806306fdde03146103a8578063081812fc146103ca578063095ea7b3146103ea5780631697eccf1461040c575b600080fd5b34801561034657600080fd5b506102275461035b906001600160a01b031681565b6040516001600160a01b0390911681526020015b60405180910390f35b34801561038457600080fd5b5061039861039336600461479b565b610aea565b604051901515815260200161036f565b3480156103b457600080fd5b506103bd610afb565b60405161036f9190614810565b3480156103d657600080fd5b5061035b6103e5366004614823565b610b8d565b3480156103f657600080fd5b5061040a61040536600461485c565b610bb4565b005b34801561041857600080fd5b5061035b610427366004614888565b610ccf565b34801561043857600080fd5b50610441610d0b565b60405190815260200161036f565b34801561045b57600080fd5b5061040a61046a36600461497f565b610d1c565b34801561047b57600080fd5b5061040a61048a366004614a20565b610e2a565b34801561049b57600080fd5b506104416104aa366004614823565b60009081526065602052604090206001015490565b3480156104cb57600080fd5b506104df6104da366004614888565b610e5b565b604080516001600160a01b03909316835260208301919091520161036f565b34801561050a57600080fd5b5061040a610519366004614a61565b610f29565b34801561052a57600080fd5b5061044161053936600461485c565b610f4e565b61044161054c366004614b4d565b610fe4565b34801561055d57600080fd5b5061040a61056c366004614a61565b6115f1565b34801561057d57600080fd5b5061044161058c366004614c62565b61022c60209081526000928352604080842090915290825290205481565b3480156105b657600080fd5b5061040a6105c5366004614c90565b61166f565b3480156105d657600080fd5b50005b3480156105e557600080fd5b5061040a6105f4366004614a20565b6116f6565b34801561060557600080fd5b5061040a610614366004614823565b50565b34801561062357600080fd5b5061040a610632366004614888565b611711565b34801561064357600080fd5b50610398610652366004614823565b61186e565b34801561066357600080fd5b50610441610672366004614823565b611879565b34801561068357600080fd5b5061015f5460ff16610398565b61040a61069e366004614d70565b61190c565b3480156106af57600080fd5b5061040a6106be36600461485c565b33600090815261022c602090815260408083206001600160a01b039590951683529390529190912055565b3480156106f557600080fd5b5061035b610704366004614823565b612479565b34801561071557600080fd5b5061040a610614366004615033565b34801561073057600080fd5b5061040a61073f366004615050565b6124d9565b34801561075057600080fd5b5061044161075f366004615033565b612587565b34801561077057600080fd5b506107b461077f366004614823565b61022e602052600090815260409020546001600160a01b03811690600160a01b810462ffffff1690600160b81b900460ff1683565b604080516001600160a01b03909416845262ffffff909216602084015215159082015260600161036f565b3480156107eb57600080fd5b506107ff6107fa366004614823565b61260d565b60405161036f9e9d9c9b9a999897969594939291906151aa565b34801561082557600080fd5b5061040a610834366004615033565b6129d2565b34801561084557600080fd5b5061035b610854366004614888565b612aa4565b34801561086557600080fd5b50610398610874366004614a61565b612abc565b34801561088557600080fd5b506103bd612ae7565b34801561089a57600080fd5b5061040a6108a9366004615277565b612af6565b3480156108ba57600080fd5b50610441600081565b3480156108cf57600080fd5b5061040a6108de36600461529e565b612c47565b3480156108ef57600080fd5b5061040a6108fe3660046152cc565b612c52565b34801561090f57600080fd5b506102285461035b906001600160a01b031681565b34801561093057600080fd5b5061039861093f366004615353565b612d1e565b34801561095057600080fd5b5061040a61095f366004615388565b612d8f565b34801561097057600080fd5b506103bd61097f366004614823565b612dc1565b34801561099057600080fd5b5061044161099f366004614823565b612eca565b3480156109b057600080fd5b5061040a6109bf366004615407565b612ee1565b3480156109d057600080fd5b506104417f9f2df0fed2c77648de5860a4cc508cd0818c85b8b8a1ab4ceeef8d981c8956a681565b348015610a0457600080fd5b5061040a610a13366004614a61565b612f64565b348015610a2457600080fd5b506103bd612f89565b348015610a3957600080fd5b5061040a610a48366004615441565b612f93565b348015610a5957600080fd5b5061040a610a68366004614a20565b613130565b348015610a7957600080fd5b506104417f65d7a28e3265b37a6474929f336521b332c1681b933f6cb9f3376673440d862a81565b348015610aad57600080fd5b50610398610abc366004614c62565b6001600160a01b03918216600090815260ce6020908152604080832093909416825291909152205460ff1690565b6000610af582613300565b92915050565b606060c98054610b0a906154f0565b80601f0160208091040260200160405190810160405280929190818152602001828054610b36906154f0565b8015610b835780601f10610b5857610100808354040283529160200191610b83565b820191906000526020600020905b815481529060010190602001808311610b6657829003601f168201915b5050505050905090565b6000610b9882613325565b50600090815260cd60205260409020546001600160a01b031690565b6000610bbf82612479565b9050806001600160a01b0316836001600160a01b03161415610c325760405162461bcd60e51b815260206004820152602160248201527f4552433732313a20617070726f76616c20746f2063757272656e74206f776e656044820152603960f91b60648201526084015b60405180910390fd5b336001600160a01b0382161480610c4e5750610c4e8133610abc565b610cc05760405162461bcd60e51b815260206004820152603e60248201527f4552433732313a20617070726f76652063616c6c6572206973206e6f7420746f60448201527f6b656e206f776e6572206e6f7220617070726f76656420666f7220616c6c00006064820152608401610c29565b610cca8383613375565b505050565b600082815261022b602090815260408083208484529091528120546001600160a01b031680610d04578360601c915050610af5565b9392505050565b6000610d176102295490565b905090565b600082815261022a602052604090206008015460ff168015610d425750610d42826133e3565b610d4b57600080fd5b60005b8151811015610cca5760006001600160a01b031661022b6000848481518110610d7957610d79615525565b602090810291909101810151825281810192909252604090810160009081208782529092529020546001600160a01b031614610db457600080fd5b3361022b6000848481518110610dcc57610dcc615525565b60200260200101518152602001908152602001600020600085815260200190815260200160002060006101000a8154816001600160a01b0302191690836001600160a01b031602179055508080610e2290615551565b915050610d4e565b610e343382613400565b610e505760405162461bcd60e51b8152600401610c299061556c565b610cca83838361347f565b600082815261022e60209081526040808320815160608101835290546001600160a01b0381168252600160a01b810462ffffff1693820193909352600160b81b90920460ff1615801591830191909152829190610ee0578051602082015190935061271090610ecf9062ffffff16866155ba565b610ed991906155ef565b9150610f21565b600085815261022a6020526040902060050154600160201b90046001600160a01b03169250612710610f14856101f46155ba565b610f1e91906155ef565b91505b509250929050565b600082815260656020526040902060010154610f4481613626565b610cca8383613630565b6000610f5983612587565b8210610fbb5760405162461bcd60e51b815260206004820152602b60248201527f455243373231456e756d657261626c653a206f776e657220696e646578206f7560448201526a74206f6620626f756e647360a81b6064820152608401610c29565b506001600160a01b0391909116600090815260fb60209081526040808320938352929052205490565b600060026101f554141561100a5760405162461bcd60e51b8152600401610c2990615603565b60026101f5558a516040805180820190915260038082526203230360ec1b602083015290911161104d5760405162461bcd60e51b8152600401610c299190614810565b5061105d61022980546001019055565b60006110696102295490565b9050611074816133e3565b156040518060400160405280600381526020016219181960e91b815250906110af5760405162461bcd60e51b8152600401610c299190614810565b5061022854610227546001600160a01b039182169116331461129e5760408051808201825260128152714352454154455f50524f4a4543545f46454560701b60208201529051636d12dce160e01b81526000916001600160a01b03841691636d12dce19161111f91600401614810565b602060405180830381865afa15801561113c573d6000803e3d6000fd5b505050506040513d601f19601f82011682018060405250810190611160919061563a565b9050801561129c5760408051808201825260098152682322a2afaa27a5a2a760b91b6020820152905163bf40fac160e01b81526000916001600160a01b0385169163bf40fac1916111b391600401614810565b602060405180830381865afa1580156111d0573d6000803e3d6000fd5b505050506040513d601f19601f820116820180604052508101906111f49190615653565b90506001600160a01b0381161561128d576040516323b872dd60e01b81523360048201523060248201526044810183905281906001600160a01b038216906323b872dd906064016020604051808303816000875af115801561125a573d6000803e3d6000fd5b505050506040513d601f19601f8201168201806040525081019061127e9190615670565b61128757600080fd5b5061129a565b8134101561129a57600080fd5b505b505b8651156112cd57600082815261022a6020908152604090912088516112cb926006909201918a01906146ec565b505b8c61022a600084815260200190815260200160002060070190805190602001906112f89291906146ec565b5061022754600083815261022a60205260409020600581018054640100000000600160c01b0319166001600160a01b03938416600160201b02179055600281018e9055600c81018d90558781556001810180546001600160a01b03191692881692909217909155849060090161136e8282615a3e565b5050600082815261022a602090815260409091208b51611396926004909201918d01906146ec565b50600082815261022a6020526040902060058101805463ffffffff191663ffffffff8c16179055600801805460ff19168915151790556113d68e83613652565b604080518082018252601781527f47454e455241544956455f4e46545f54454d504c4154450000000000000000006020820152905163bf40fac160e01b8152600091611480916001600160a01b0385169163bf40fac19161143a9190600401614810565b602060405180830381865afa158015611457573d6000803e3d6000fd5b505050506040513d601f19601f8201168201806040525081019061147b9190615653565b61366c565b600084815261022a60205260409020600701805491925082916001600160a01b0383169163ae3dd095916115429060019060039084906114bf906154f0565b80601f01602080910402602001604051908101604052809291908181526020018280546114eb906154f0565b80156115385780601f1061150d57610100808354040283529160200191611538565b820191906000526020600020905b81548152906001019060200180831161151b57829003601f168201915b5050505050613704565b610227546040516001600160e01b031960e086901b1681526115769392916001600160a01b03169030908b90600401615b5c565b600060405180830381600087803b15801561159057600080fd5b505af11580156115a4573d6000803e3d6000fd5b505050600085815261022a60205260409020600b0180546001600160a01b0319166001600160a01b039490941693909317909255505060016101f555509c9b505050505050505050505050565b6001600160a01b03811633146116615760405162461bcd60e51b815260206004820152602f60248201527f416363657373436f6e74726f6c3a2063616e206f6e6c792072656e6f756e636560448201526e103937b632b9903337b91039b2b63360891b6064820152608401610c29565b61166b82826137ea565b5050565b600082815261022a6020908152604091829020600501548251808401909352600383526218981960e91b91830191909152600160201b90046001600160a01b031633146116cf5760405162461bcd60e51b8152600401610c299190614810565b50600082815261022a602090815260409091208251610cca926006909201918401906146ec565b610cca83838360405180602001604052806000815250612d8f565b600082815261022a602052604090206008015460ff161580156117385750611738826133e3565b61174157600080fd5b600080826001600160401b0381111561175c5761175c6148aa565b604051908082528060200260200182016040528015611785578160200160208202803683370190505b50905060005b8381101561182c5761179e33868361380c565b600081815261022b602090815260408083208984529091529020549093506001600160a01b0316156117cf57600080fd5b600083815261022b60209081526040808320888452909152902080546001600160a01b031916331790558151839083908390811061180f5761180f615525565b60209081029190910101528061182481615551565b91505061178b565b507feac055ed8b84f6ed7b96c917e1a500965c90467998c41630ebabcc5bc99b306b33858360405161186093929190615c20565b60405180910390a150505050565b6000610af5826133e3565b600061188460fd5490565b82106118e75760405162461bcd60e51b815260206004820152602c60248201527f455243373231456e756d657261626c653a20676c6f62616c20696e646578206f60448201526b7574206f6620626f756e647360a01b6064820152608401610c29565b60fd82815481106118fa576118fa615525565b90600052602060002001549050919050565b60026101f55414156119305760405162461bcd60e51b8152600401610c2990615603565b60026101f58190558151600090815261022a6020908152604080832081516101c0810183528154815260018201546001600160a01b03169381019390935293840154908201526003830154606082015260048301805492939192608084019190611999906154f0565b80601f01602080910402602001604051908101604052809291908181526020018280546119c5906154f0565b8015611a125780601f106119e757610100808354040283529160200191611a12565b820191906000526020600020905b8154815290600101906020018083116119f557829003601f168201915b5050509183525050600582015463ffffffff81166020830152600160201b90046001600160a01b03166040820152600682018054606090920191611a55906154f0565b80601f0160208091040260200160405190810160405280929190818152602001828054611a81906154f0565b8015611ace5780601f10611aa357610100808354040283529160200191611ace565b820191906000526020600020905b815481529060010190602001808311611ab157829003601f168201915b50505050508152602001600782018054611ae7906154f0565b80601f0160208091040260200160405190810160405280929190818152602001828054611b13906154f0565b8015611b605780601f10611b3557610100808354040283529160200191611b60565b820191906000526020600020905b815481529060010190602001808311611b4357829003601f168201915b5050509183525050600882015460ff1615156020808301919091526040805180820182526009850180548252600a86018054845181870281018701865281815294909601959294919385830193909260009084015b82821015611d0457600084815260208082206040805160e08101825260078702909201805460ff9081168452600182015484860152600282015484840152600382015416606084015260048101805483518187028101870190945280845293959194608087019491929084015b82821015611cce578382906000526020600020018054611c41906154f0565b80601f0160208091040260200160405190810160405280929190818152602001828054611c6d906154f0565b8015611cba5780601f10611c8f57610100808354040283529160200191611cba565b820191906000526020600020905b815481529060010190602001808311611c9d57829003601f168201915b505050505081526020019060010190611c22565b50505090825250600582015460208083019190915260069092015460ff1615156040909101529082526001929092019101611bb5565b505050915250508152600b8201546001600160a01b03166020820152600c820154604080830191909152600d909201546060909101528301515190915015801590611d585750816060015151826040015151145b604051806040016040528060038152602001620c8c0d60ea1b81525090611d925760405162461bcd60e51b8152600401610c299190614810565b5060408101511580611dbc575080604001518260400151518260600151611db99190615c7d565b11155b6040518060400160405280600381526020016232303360e81b81525090611df65760405162461bcd60e51b8152600401610c299190614810565b5061018081015115611e57578151611e0d90612479565b6001600160a01b0316336001600160a01b031614611e5757816040015151816101a001818151611e3d9190615c7d565b9052506101808101516101a08201511115611e5757600080fd5b805180156121255782513390611e6c90612479565b6001600160a01b03161461212557610228546040840151516001600160a01b0390911690611e9a90836155ba565b604080518082018252600c81526b4d494e545f4e46545f46454560a01b60208201529051636d12dce160e01b81529193506000916001600160a01b03841691636d12dce191611eec9190600401614810565b602060405180830381865afa158015611f09573d6000803e3d6000fd5b505050506040513d601f19601f82011682018060405250810190611f2d919061563a565b905080611f3957506101f45b60208401516001600160a01b0316611fe65782341015611f5857600080fd5b6000611f678660000151612479565b6001600160a01b0316612710611f7d84876155ba565b611f8791906155ef565b611f919086615c95565b604051600081818185875af1925050503d8060008114611fcd576040519150601f19603f3d011682016040523d82523d6000602084013e611fd2565b606091505b5050905080611fe057600080fd5b50612122565b60208401516040516323b872dd60e01b8152336004820152306024820152604481018590526001600160a01b038216906323b872dd906064016020604051808303816000875af115801561203e573d6000803e3d6000fd5b505050506040513d601f19601f820116820180604052508101906120629190615670565b61206b57600080fd5b806001600160a01b031663a9059cbb6120878860000151612479565b61271061209486896155ba565b61209e91906155ef565b6120a89088615c95565b6040516001600160e01b031960e085901b1681526001600160a01b03909216600483015260248201526044016020604051808303816000875af11580156120f3573d6000803e3d6000fd5b505050506040513d601f19601f820116820180604052508101906121179190615670565b61212057600080fd5b505b50505b8251600090815261022a60205260408120600b01546001600160a01b0316905b846060015151811015612433578460600151818151811061216857612168615525565b602090810291909101810151810151518651600090815261022a8352604090819020600a0154815180830190925260038252620c8c0d60ea1b9382019390935291146121c75760405162461bcd60e51b8152600401610c299190614810565b506000856060015182815181106121e0576121e0615525565b60209081029190910181015151600081815261022d835260408082208a518352845290819020548151808301909252600382526232303560e81b9382019390935290925090156122435760405162461bcd60e51b8152600401610c299190614810565b508551600090815261022a602052604090206008015460ff166122b9578551339061226f908390610ccf565b6001600160a01b0316146040518060400160405280600381526020016232303560e81b815250906122b35760405162461bcd60e51b8152600401610c299190614810565b50612314565b600081815261022b60209081526040808320895184529091529020546001600160a01b0316156122e857600080fd5b600081815261022b6020908152604080832089518452909152902080546001600160a01b031916331790555b826001600160a01b03166381aa7929876020015161022760009054906101000a90046001600160a01b03168960400151868151811061235557612355615525565b60200260200101518a60600151878151811061237357612373615525565b60200260200101518a61012001516040518663ffffffff1660e01b81526004016123a1959493929190615cac565b600060405180830381600087803b1580156123bb57600080fd5b505af11580156123cf573d6000803e3d6000fd5b505050506001856060018181516123e69190615c7d565b9052506060850180518751600090815261022a6020908152604080832060030193909355925193815261022d8352818120895182529092529020558061242b81615551565b915050612145565b507f67175103d209cf669be17e253aba378479477b5a1ef3b1e9eaedce52f0ebab543385604051612465929190615cff565b60405180910390a1505060016101f5555050565b600081815260cb60205260408120546001600160a01b031680610af55760405162461bcd60e51b8152602060048201526018602482015277115490cdcc8c4e881a5b9d985b1a59081d1bdad95b88125160421b6044820152606401610c29565b600082815261022d60209081526040808320848452909152902054158015906125085750612508338383612d1e565b801561252f5750836001600160a01b03166125238383610ccf565b6001600160a01b031614155b801561254357506001600160a01b03831615155b61254c57600080fd5b600091825261022b60209081526040808420928452919052902080546001600160a01b0319166001600160a01b039290921691909117905550565b60006001600160a01b0382166125f15760405162461bcd60e51b815260206004820152602960248201527f4552433732313a2061646472657373207a65726f206973206e6f7420612076616044820152683634b21037bbb732b960b91b6064820152608401610c29565b506001600160a01b0316600090815260cc602052604090205490565b61022a602052600090815260409020805460018201546002830154600384015460048501805494956001600160a01b03909416949293919261264e906154f0565b80601f016020809104026020016040519081016040528092919081815260200182805461267a906154f0565b80156126c75780601f1061269c576101008083540402835291602001916126c7565b820191906000526020600020905b8154815290600101906020018083116126aa57829003601f168201915b505050506005830154600684018054939463ffffffff831694600160201b9093046001600160a01b03169350916126fd906154f0565b80601f0160208091040260200160405190810160405280929190818152602001828054612729906154f0565b80156127765780601f1061274b57610100808354040283529160200191612776565b820191906000526020600020905b81548152906001019060200180831161275957829003601f168201915b50505050509080600701805461278b906154f0565b80601f01602080910402602001604051908101604052809291908181526020018280546127b7906154f0565b80156128045780601f106127d957610100808354040283529160200191612804565b820191906000526020600020905b8154815290600101906020018083116127e757829003601f168201915b5050505050908060080160009054906101000a900460ff1690806009016040518060400160405290816000820154815260200160018201805480602002602001604051908101604052809291908181526020016000905b828210156129aa57600084815260208082206040805160e08101825260078702909201805460ff9081168452600182015484860152600282015484840152600382015416606084015260048101805483518187028101870190945280845293959194608087019491929084015b828210156129745783829060005260206000200180546128e7906154f0565b80601f0160208091040260200160405190810160405280929190818152602001828054612913906154f0565b80156129605780601f1061293557610100808354040283529160200191612960565b820191906000526020600020905b81548152906001019060200180831161294357829003601f168201915b5050505050815260200190600101906128c8565b50505090825250600582015460208083019190915260069092015460ff161515604090910152908252600192909201910161285b565b50505091525050600b820154600c830154600d9093015491926001600160a01b03909116918e565b610227546001600160a01b0316336001600160a01b0316146040518060400160405280600381526020016231303160e81b81525090612a245760405162461bcd60e51b8152600401610c299190614810565b50612a30600033612abc565b6040518060400160405280600381526020016231303160e81b81525090612a6a5760405162461bcd60e51b8152600401610c299190614810565b5061022780546001600160a01b038381166001600160a01b0319831681179093551690612a9990600090610f29565b61166b600082612f64565b6000828152609760205260408120610d04908361386c565b60009182526065602090815260408084206001600160a01b0393909316845291905290205460ff1690565b606060ca8054610b0a906154f0565b610227546001600160a01b0316336001600160a01b0316146040518060400160405280600381526020016231303160e81b81525090612b485760405162461bcd60e51b8152600401610c299190614810565b50612b54600033612abc565b6040518060400160405280600381526020016231303160e81b81525090612b8e5760405162461bcd60e51b8152600401610c299190614810565b5060408051808201909152600381526232303360e81b6020820152612710821115612bcc5760405162461bcd60e51b8152600401610c299190614810565b50604080516060810182526001600160a01b03938416815262ffffff92831660208083019182526001838501908152600097885261022e90915292909520905181549551925194166001600160b81b031990951694909417600160a01b91909216021760ff60b81b1916600160b81b91151591909102179055565b61166b338383613878565b600054610100900460ff1615808015612c725750600054600160ff909116105b80612c8c5750303b158015612c8c575060005460ff166001145b612ca85760405162461bcd60e51b8152600401610c2990615d9b565b6000805460ff191660011790558015612ccb576000805461ff0019166101001790555b612cd6848484613947565b8015612d18576000805461ff0019169055604051600181527f7f26b83ff96e1f2b6a682f133852f6798a09c465da95921460cefb384740249890602001611860565b50505050565b6000836001600160a01b0316612d348484610ccf565b6001600160a01b03161415612d4b57506001610d04565b8161022c6000612d5b8686610ccf565b6001600160a01b03908116825260208083019390935260409182016000908120918916815292529020541490509392505050565b612d993383613400565b612db55760405162461bcd60e51b8152600401610c299061556c565b612d188484848461398b565b600081815261022a6020526040812060060180546060929190612de3906154f0565b90501115612e8d57600082815261022a602052604090206006018054612e08906154f0565b80601f0160208091040260200160405190810160405280929190818152602001828054612e34906154f0565b8015612e815780601f10612e5657610100808354040283529160200191612e81565b820191906000526020600020905b815481529060010190602001808311612e6457829003601f168201915b50505050509050919050565b612e95612f89565b612e9e836139be565b604051602001612eaf929190615de9565b6040516020818303038152906040529050919050565b919050565b6000818152609760205260408120610af590613abb565b60408051808201909152600381526203130360ec1b60208201526001600160a01b038316612f225760405162461bcd60e51b8152600401610c299190614810565b5060005b8151811015610cca57612f5283838381518110612f4557612f45615525565b6020026020010151613ac5565b80612f5c81615551565b915050612f26565b600082815260656020526040902060010154612f7f81613626565b610cca83836137ea565b6060610d17613b63565b600054610100900460ff1615808015612fb35750600054600160ff909116105b80612fcd5750303b158015612fcd575060005460ff166001145b612fe95760405162461bcd60e51b8152600401610c2990615d9b565b6000805460ff19166001179055801561300c576000805461ff0019166101001790555b60408051808201909152600381526203130360ec1b60208201526001600160a01b03841661304d5760405162461bcd60e51b8152600401610c299190614810565b5060408051808201909152600381526203130360ec1b60208201526001600160a01b03831661308f5760405162461bcd60e51b8152600401610c299190614810565b5061309b868686613947565b61022880546001600160a01b038085166001600160a01b031992831617909255610227805492861692909116821790556130d790600090610f29565b6130e2600033612f64565b8015613128576000805461ff0019169055604051600181527f7f26b83ff96e1f2b6a682f133852f6798a09c465da95921460cefb38474024989060200160405180910390a15b505050505050565b60026101f55414156131545760405162461bcd60e51b8152600401610c2990615603565b60026101f555610227546001600160a01b0316336001600160a01b0316146040518060400160405280600381526020016231303160e81b815250906131ac5760405162461bcd60e51b8152600401610c299190614810565b506131b8600033612abc565b6040518060400160405280600381526020016231303160e81b815250906131f25760405162461bcd60e51b8152600401610c299190614810565b5060006001600160a01b038316613273578147101561321057600080fd5b6040516001600160a01b038516908390600081818185875af1925050503d8060008114613259576040519150601f19603f3d011682016040523d82523d6000602084013e61325e565b606091505b5050809150508061326e57600080fd5b6132f4565b60405163a9059cbb60e01b81526001600160a01b0385811660048301526024820184905284919082169063a9059cbb906044016020604051808303816000875af11580156132c5573d6000803e3d6000fd5b505050506040513d601f19601f820116820180604052508101906132e99190615670565b6132f257600080fd5b505b505060016101f5555050565b60006001600160e01b0319821663780e9d6360e01b1480610af55750610af582613b73565b61332e816133e3565b6106145760405162461bcd60e51b8152602060048201526018602482015277115490cdcc8c4e881a5b9d985b1a59081d1bdad95b88125160421b6044820152606401610c29565b600081815260cd6020526040902080546001600160a01b0319166001600160a01b03841690811790915581906133aa82612479565b6001600160a01b03167f8c5be1e5ebec7d5bd14f71427d1e84f3dd0314c0f7b2291e5b200ac8c7c3b92560405160405180910390a45050565b600090815260cb60205260409020546001600160a01b0316151590565b60008061340c83612479565b9050806001600160a01b0316846001600160a01b0316148061345357506001600160a01b03808216600090815260ce602090815260408083209388168352929052205460ff165b806134775750836001600160a01b031661346c84610b8d565b6001600160a01b0316145b949350505050565b826001600160a01b031661349282612479565b6001600160a01b0316146134f65760405162461bcd60e51b815260206004820152602560248201527f4552433732313a207472616e736665722066726f6d20696e636f72726563742060448201526437bbb732b960d91b6064820152608401610c29565b6001600160a01b0382166135585760405162461bcd60e51b8152602060048201526024808201527f4552433732313a207472616e7366657220746f20746865207a65726f206164646044820152637265737360e01b6064820152608401610c29565b613563838383613bb3565b61356e600082613375565b6001600160a01b038316600090815260cc60205260408120805460019290613597908490615c95565b90915550506001600160a01b038216600090815260cc602052604081208054600192906135c5908490615c7d565b9091555050600081815260cb602052604080822080546001600160a01b0319166001600160a01b0386811691821790925591518493918716917fddf252ad1be2c89b69c2b068fc378daa952ba7f163c4a11628f55a4df523b3ef91a4505050565b6106148133613bbe565b61363a8282613c22565b6000828152609760205260409020610cca9082613ca8565b61166b828260405180602001604052806000815250613cbd565b6000604051733d602d80600a3d3981f3363d3d373d3d3d363d7360601b81528260601b60148201526e5af43d82803e903d91602b57fd5bf360881b60288201526037816000f09150506001600160a01b038116612ec55760405162461bcd60e51b8152602060048201526016602482015275115490cc4c4d8dce8818dc99585d194819985a5b195960521b6044820152606401610c29565b606060006137128585615c95565b61371d906001615c7d565b6001600160401b03811115613734576137346148aa565b6040519080825280601f01601f19166020018201604052801561375e576020820181803683370190505b50905060005b61376e8686615c95565b81116137e1578360016137818884615c7d565b61378b9190615c95565b8151811061379b5761379b615525565b602001015160f81c60f81b8282815181106137b8576137b8615525565b60200101906001600160f81b031916908160001a905350806137d981615551565b915050613764565b50949350505050565b6137f48282613cf0565b6000828152609760205260409020610cca9082613d57565b6000613819600143615c95565b60408051914060208301526bffffffffffffffffffffffff19606087901b169082015260548101849052607481018390526094016040516020818303038152906040528051906020012090509392505050565b6000610d048383613d6c565b816001600160a01b0316836001600160a01b031614156138da5760405162461bcd60e51b815260206004820152601960248201527f4552433732313a20617070726f766520746f2063616c6c6572000000000000006044820152606401610c29565b6001600160a01b03838116600081815260ce6020908152604080832094871680845294825291829020805460ff191686151590811790915591519182527f17307eab39ab6107e8899845ad3d59bd9653f200f220920489ca2b5937696c31910160405180910390a3505050565b600054610100900460ff1661396e5760405162461bcd60e51b8152600401610c2990615e18565b6139788383613d96565b613980613de4565b610cca838383613e18565b61399684848461347f565b6139a284848484613eb3565b612d185760405162461bcd60e51b8152600401610c2990615e63565b6060816139e25750506040805180820190915260018152600360fc1b602082015290565b8160005b8115613a0c57806139f681615551565b9150613a059050600a836155ef565b91506139e6565b6000816001600160401b03811115613a2657613a266148aa565b6040519080825280601f01601f191660200182016040528015613a50576020820181803683370190505b5090505b841561347757613a65600183615c95565b9150613a72600a86615eb5565b613a7d906030615c7d565b60f81b818381518110613a9257613a92615525565b60200101906001600160f81b031916908160001a905350613ab4600a866155ef565b9450613a54565b6000610af5825490565b600081815261022a6020908152604091829020600501548251808401909352600383526218981960e91b91830191909152600160201b90046001600160a01b03163314613b255760405162461bcd60e51b8152600401610c299190614810565b50600090815261022a6020526040902060050180546001600160a01b03909216600160201b02640100000000600160c01b0319909216919091179055565b60606101c48054610b0a906154f0565b60006001600160e01b031982166380ac58cd60e01b1480613ba457506001600160e01b03198216635b5e139f60e01b145b80610af55750610af582613fb1565b610cca838383613fd6565b613bc88282612abc565b61166b57613be0816001600160a01b03166014614049565b613beb836020614049565b604051602001613bfc929190615ec9565b60408051601f198184030181529082905262461bcd60e51b8252610c2991600401614810565b613c2c8282612abc565b61166b5760008281526065602090815260408083206001600160a01b03851684529091529020805460ff19166001179055613c643390565b6001600160a01b0316816001600160a01b0316837f2f8788117e7eff1d82e926ec794901d17c78024a50270940304540a733656f0d60405160405180910390a45050565b6000610d04836001600160a01b0384166141e4565b613cc78383614233565b613cd46000848484613eb3565b610cca5760405162461bcd60e51b8152600401610c2990615e63565b613cfa8282612abc565b1561166b5760008281526065602090815260408083206001600160a01b0385168085529252808320805460ff1916905551339285917ff6391f5c32d9c69d2a47ea670b442974b53935d1edc7fd64eb21e047a839171b9190a45050565b6000610d04836001600160a01b038416614372565b6000826000018281548110613d8357613d83615525565b9060005260206000200154905092915050565b600054610100900460ff16613dbd5760405162461bcd60e51b8152600401610c2990615e18565b8151613dd09060c99060208501906146ec565b508051610cca9060ca9060208401906146ec565b600054610100900460ff16613e0b5760405162461bcd60e51b8152600401610c2990615e18565b61015f805460ff19169055565b600054610100900460ff16613e3f5760405162461bcd60e51b8152600401610c2990615e18565b8051613e53906101c49060208401906146ec565b50613e5f600033614465565b613e897f9f2df0fed2c77648de5860a4cc508cd0818c85b8b8a1ab4ceeef8d981c8956a633614465565b610cca7f65d7a28e3265b37a6474929f336521b332c1681b933f6cb9f3376673440d862a33614465565b60006001600160a01b0384163b15613fa657604051630a85bd0160e11b81526001600160a01b0385169063150b7a0290613ef7903390899088908890600401615f3e565b6020604051808303816000875af1925050508015613f32575060408051601f3d908101601f19168201909252613f2f91810190615f7b565b60015b613f8c573d808015613f60576040519150601f19603f3d011682016040523d82523d6000602084013e613f65565b606091505b508051613f845760405162461bcd60e51b8152600401610c2990615e63565b805181602001fd5b6001600160e01b031916630a85bd0160e11b149050613477565b506001949350505050565b60006001600160e01b03198216635a05180f60e01b1480610af55750610af58261446f565b613fe18383836144a4565b61015f5460ff1615610cca5760405162461bcd60e51b815260206004820152602b60248201527f4552433732315061757361626c653a20746f6b656e207472616e73666572207760448201526a1a1a5b19481c185d5cd95960aa1b6064820152608401610c29565b606060006140588360026155ba565b614063906002615c7d565b6001600160401b0381111561407a5761407a6148aa565b6040519080825280601f01601f1916602001820160405280156140a4576020820181803683370190505b509050600360fc1b816000815181106140bf576140bf615525565b60200101906001600160f81b031916908160001a905350600f60fb1b816001815181106140ee576140ee615525565b60200101906001600160f81b031916908160001a90535060006141128460026155ba565b61411d906001615c7d565b90505b6001811115614195576f181899199a1a9b1b9c1cb0b131b232b360811b85600f166010811061415157614151615525565b1a60f81b82828151811061416757614167615525565b60200101906001600160f81b031916908160001a90535060049490941c9361418e81615f98565b9050614120565b508315610d045760405162461bcd60e51b815260206004820181905260248201527f537472696e67733a20686578206c656e67746820696e73756666696369656e746044820152606401610c29565b600081815260018301602052604081205461422b57508154600181810184556000848152602080822090930184905584548482528286019093526040902091909155610af5565b506000610af5565b6001600160a01b0382166142895760405162461bcd60e51b815260206004820181905260248201527f4552433732313a206d696e7420746f20746865207a65726f20616464726573736044820152606401610c29565b614292816133e3565b156142df5760405162461bcd60e51b815260206004820152601c60248201527f4552433732313a20746f6b656e20616c7265616479206d696e746564000000006044820152606401610c29565b6142eb60008383613bb3565b6001600160a01b038216600090815260cc60205260408120805460019290614314908490615c7d565b9091555050600081815260cb602052604080822080546001600160a01b0319166001600160a01b03861690811790915590518392907fddf252ad1be2c89b69c2b068fc378daa952ba7f163c4a11628f55a4df523b3ef908290a45050565b6000818152600183016020526040812054801561445b576000614396600183615c95565b85549091506000906143aa90600190615c95565b905081811461440f5760008660000182815481106143ca576143ca615525565b90600052602060002001549050808760000184815481106143ed576143ed615525565b6000918252602080832090910192909255918252600188019052604090208390555b855486908061442057614420615faf565b600190038181906000526020600020016000905590558560010160008681526020019081526020016000206000905560019350505050610af5565b6000915050610af5565b61166b8282613630565b60006001600160e01b03198216637965db0b60e01b1480610af557506301ffc9a760e01b6001600160e01b0319831614610af5565b6001600160a01b0383166144ff576144fa8160fd8054600083815260fe60205260408120829055600182018355919091527f9346ac6dd7de6b96975fec380d4d994c4c12e6a8897544f22915316cc6cca2800155565b614522565b816001600160a01b0316836001600160a01b03161461452257614522838261455c565b6001600160a01b03821661453957610cca816145f9565b826001600160a01b0316826001600160a01b031614610cca57610cca82826146a8565b6000600161456984612587565b6145739190615c95565b600083815260fc60205260409020549091508082146145c6576001600160a01b038416600090815260fb60209081526040808320858452825280832054848452818420819055835260fc90915290208190555b50600091825260fc602090815260408084208490556001600160a01b03909416835260fb81528383209183525290812055565b60fd5460009061460b90600190615c95565b600083815260fe602052604081205460fd805493945090928490811061463357614633615525565b906000526020600020015490508060fd838154811061465457614654615525565b600091825260208083209091019290925582815260fe909152604080822084905585825281205560fd80548061468c5761468c615faf565b6001900381819060005260206000200160009055905550505050565b60006146b383612587565b6001600160a01b03909316600090815260fb60209081526040808320868452825280832085905593825260fc9052919091209190915550565b8280546146f8906154f0565b90600052602060002090601f01602090048101928261471a5760008555614760565b82601f1061473357805160ff1916838001178555614760565b82800160010185558215614760579182015b82811115614760578251825591602001919060010190614745565b5061476c929150614770565b5090565b5b8082111561476c5760008155600101614771565b6001600160e01b03198116811461061457600080fd5b6000602082840312156147ad57600080fd5b8135610d0481614785565b60005b838110156147d35781810151838201526020016147bb565b83811115612d185750506000910152565b600081518084526147fc8160208601602086016147b8565b601f01601f19169290920160200192915050565b602081526000610d0460208301846147e4565b60006020828403121561483557600080fd5b5035919050565b6001600160a01b038116811461061457600080fd5b8035612ec58161483c565b6000806040838503121561486f57600080fd5b823561487a8161483c565b946020939093013593505050565b6000806040838503121561489b57600080fd5b50508035926020909101359150565b634e487b7160e01b600052604160045260246000fd5b604051608081016001600160401b03811182821017156148e2576148e26148aa565b60405290565b604080519081016001600160401b03811182821017156148e2576148e26148aa565b60405160e081016001600160401b03811182821017156148e2576148e26148aa565b604051601f8201601f191681016001600160401b0381118282101715614954576149546148aa565b604052919050565b60006001600160401b03821115614975576149756148aa565b5060051b60200190565b6000806040838503121561499257600080fd5b823591506020808401356001600160401b038111156149b057600080fd5b8401601f810186136149c157600080fd5b80356149d46149cf8261495c565b61492c565b81815260059190911b820183019083810190888311156149f357600080fd5b928401925b82841015614a11578335825292840192908401906149f8565b80955050505050509250929050565b600080600060608486031215614a3557600080fd5b8335614a408161483c565b92506020840135614a508161483c565b929592945050506040919091013590565b60008060408385031215614a7457600080fd5b823591506020830135614a868161483c565b809150509250929050565b60006001600160401b03831115614aaa57614aaa6148aa565b614abd601f8401601f191660200161492c565b9050828152838383011115614ad157600080fd5b828260208301376000602084830101529392505050565b600082601f830112614af957600080fd5b610d0483833560208501614a91565b803563ffffffff81168114612ec557600080fd5b801515811461061457600080fd5b8035612ec581614b1c565b600060408284031215614b4757600080fd5b50919050565b60008060008060008060008060008060006101608c8e031215614b6f57600080fd5b614b788c614851565b9a506001600160401b038060208e01351115614b9357600080fd5b614ba38e60208f01358f01614ae8565b9a5060408d0135995060608d013598508060808e01351115614bc457600080fd5b614bd48e60808f01358f01614ae8565b9750614be260a08e01614b08565b9650614bf060c08e01614b2a565b95508060e08e01351115614c0357600080fd5b614c138e60e08f01358f01614ae8565b94506101008d01359350614c2a6101208e01614851565b9250806101408e01351115614c3e57600080fd5b50614c508d6101408e01358e01614b35565b90509295989b509295989b9093969950565b60008060408385031215614c7557600080fd5b8235614c808161483c565b91506020830135614a868161483c565b60008060408385031215614ca357600080fd5b8235915060208301356001600160401b03811115614cc057600080fd5b610f1e85828601614ae8565b600082601f830112614cdd57600080fd5b81356020614ced6149cf8361495c565b82815260059290921b84018101918181019086841115614d0c57600080fd5b8286015b84811015614d4b5780356001600160401b03811115614d2f5760008081fd5b614d3d8986838b0101614ae8565b845250918301918301614d10565b509695505050505050565b60ff8116811461061457600080fd5b8035612ec581614d56565b600060208284031215614d8257600080fd5b6001600160401b0382351115614d9757600080fd5b60808235830184031215614daa57600080fd5b614db26148c0565b8235830180358252614dc7906020013561483c565b602083358401013560208201526001600160401b0360408435850101351115614def57600080fd5b614e028484358501604081013501614ccc565b60408201526001600160401b0360608435850101351115614e2257600080fd5b82358301606081013501601f81018513614e3b57600080fd5b614e486149cf823561495c565b81358082526020808301929160051b840101871015614e6657600080fd5b602083015b6020843560051b850101811015615023576001600160401b0381351115614e9157600080fd5b6040813585018903601f19011215614ea857600080fd5b614eb06148e8565b81358501602081013582526001600160401b036040909101351115614ed457600080fd5b81358501604081013501603f81018a13614eed57600080fd5b614efd6149cf602083013561495c565b602082810135808352908201919060051b83016040018c1015614f1f57600080fd5b604083015b6040602085013560051b85010181101561500a576001600160401b0381351115614f4d57600080fd5b60e0813585018e03603f19011215614f6457600080fd5b614f6c61490a565b614f7b60408335870101614d65565b8152813585016060810135602083015260808101356040830152614fa19060a001614d65565b60608201526001600160401b0360c08335870101351115614fc157600080fd5b614fd78e8335870160c081013501604001614ccc565b60808201528135850160e081013560a0830152614ff79061010001614b2a565b60c0820152835260209283019201614f24565b5060208481019190915292865250509283019201614e6b565b5060608401525090949350505050565b60006020828403121561504557600080fd5b8135610d048161483c565b6000806000806080858703121561506657600080fd5b84356150718161483c565b935060208501356150818161483c565b93969395505050506040820135916060013590565b600081518084526020808501808196508360051b8101915082860160005b858110156150de5782840389526150cc8483516147e4565b988501989350908401906001016150b4565b5091979650505050505050565b60006040808401835185526020808501518382880152828151808552606094508489019150848160051b8a0101848401935060005b8281101561519c57605f198b8303018452845160e060ff80835116855288830151898601528a8301518b860152808a840151168a86015250608080830151828287015261516f83870182615096565b60a0858101519088015260c094850151151594909601939093525050509385019392850192600101615120565b509998505050505050505050565b8e81526001600160a01b038e1660208201528c60408201528b60608201526101c0608082015260006151e06101c083018d6147e4565b63ffffffff8c1660a08401526001600160a01b038b1660c084015282810360e084015261520d818b6147e4565b9050828103610100840152615222818a6147e4565b881515610120850152905082810361014084015261524081886150eb565b9150506152596101608301866001600160a01b03169052565b6101808201939093526101a001529c9b505050505050505050505050565b60008060006060848603121561528c57600080fd5b833592506020840135614a508161483c565b600080604083850312156152b157600080fd5b82356152bc8161483c565b91506020830135614a8681614b1c565b6000806000606084860312156152e157600080fd5b83356001600160401b03808211156152f857600080fd5b61530487838801614ae8565b9450602086013591508082111561531a57600080fd5b61532687838801614ae8565b9350604086013591508082111561533c57600080fd5b5061534986828701614ae8565b9150509250925092565b60008060006060848603121561536857600080fd5b83356153738161483c565b95602085013595506040909401359392505050565b6000806000806080858703121561539e57600080fd5b84356153a98161483c565b935060208501356153b98161483c565b92506040850135915060608501356001600160401b038111156153db57600080fd5b8501601f810187136153ec57600080fd5b6153fb87823560208401614a91565b91505092959194509250565b6000806040838503121561541a57600080fd5b82356154258161483c565b91506020838101356001600160401b038111156149b057600080fd5b600080600080600060a0868803121561545957600080fd5b85356001600160401b038082111561547057600080fd5b61547c89838a01614ae8565b9650602088013591508082111561549257600080fd5b61549e89838a01614ae8565b955060408801359150808211156154b457600080fd5b506154c188828901614ae8565b93505060608601356154d28161483c565b915060808601356154e28161483c565b809150509295509295909350565b600181811c9082168061550457607f821691505b60208210811415614b4757634e487b7160e01b600052602260045260246000fd5b634e487b7160e01b600052603260045260246000fd5b634e487b7160e01b600052601160045260246000fd5b60006000198214156155655761556561553b565b5060010190565b6020808252602e908201527f4552433732313a2063616c6c6572206973206e6f7420746f6b656e206f776e6560408201526d1c881b9bdc88185c1c1c9bdd995960921b606082015260800190565b60008160001904831182151516156155d4576155d461553b565b500290565b634e487b7160e01b600052601260045260246000fd5b6000826155fe576155fe6155d9565b500490565b6020808252601f908201527f5265656e7472616e637947756172643a207265656e7472616e742063616c6c00604082015260600190565b60006020828403121561564c57600080fd5b5051919050565b60006020828403121561566557600080fd5b8151610d048161483c565b60006020828403121561568257600080fd5b8151610d0481614b1c565b6000808335601e198436030181126156a457600080fd5b8301803591506001600160401b038211156156be57600080fd5b6020019150600581901b36038213156156d657600080fd5b9250929050565b6000823560de198336030181126156f357600080fd5b9190910192915050565b5b8181101561166b57600081556001016156fe565b805460008083558115610cca5782815260208082208381015b808210156131285761573d82546154f0565b801561578457601f8082116001811461575857868555615781565b84875285872061577283850160051c8201600183016156fd565b50600085815260208120818755555b50505b5060018201915061572b565b601f821115610cca57806000526020600020601f840160051c810160208510156157b75750805b6157c9601f850160051c8301826156fd565b5050505050565b6001600160401b038311156157e7576157e76148aa565b6157fb836157f583546154f0565b83615790565b6000601f84116001811461582f57600085156158175750838201355b600019600387901b1c1916600186901b1783556157c9565b600083815260209020601f19861690835b828110156158605786850135825560209485019460019092019101615840565b508682101561587d5760001960f88860031b161c19848701351681555b505060018560011b0183555050505050565b60008135610af581614b1c565b81356158a781614d56565b815460ff191660ff8216178255506001602080840135828401556040840135600284015560608401356158d981614d56565b60038401805460ff191660ff831617905550600483016158fc608086018661568d565b600160401b811115615910576159106148aa565b8254818455808210156159955760008481528581208381019083015b808210156159915761593e82546154f0565b801561598757601f8082116001811461595957858555615984565b60008581526020902061597583850160051c82018e83016156fd565b50600085815260208120818755555b50505b509088019061592c565b5050505b508160008481528581209450805b83811015615a04578235601e198636030181126159be578283fd5b850180356001600160401b038111156159d5578384fd5b88820191508036038213156159e8578384fd5b6159f381838a6157d0565b5050948701949186019187016159a3565b505050505050505060a0820135600582015561166b615a2560c0840161588f565b6006830160ff1981541660ff8315151681178255505050565b8135815560018082016020615a558186018661568d565b600160401b811115615a6957615a696148aa565b835481855580821015615b16577f2492492492492492492492492492492492492492492492492492492492492492808211871615615aa957615aa961553b565b6007818411881615615abd57615abd61553b565b6000878152868120909250848202810190828502015b80821015615b1157838255838a830155836002830155836003830155615afb60048301615712565b8360058301558360068301558282019150615ad3565b505050505b506000938452602084209382905b82811015615b5157615b3f615b3983866156dd565b8761589c565b60079590950194908401908601615b24565b505050505050505050565b60a081526000808754615b6e816154f0565b8060a086015260c0600180841660008114615b905760018114615ba457615bd5565b60ff1985168884015260e088019550615bd5565b8c60005260208060002060005b86811015615bcc5781548b8201870152908401908201615bb1565b8a018501975050505b50505050508281036020840152615bec81886147e4565b915050615c0460408301866001600160a01b03169052565b6001600160a01b03939093166060820152608001529392505050565b6001600160a01b038416815260208082018490526060604083018190528351908301819052600091848101916080850190845b81811015615c6f57845183529383019391830191600101615c53565b509098975050505050505050565b60008219821115615c9057615c9061553b565b500190565b600082821015615ca757615ca761553b565b500390565b6001600160a01b0386811682528516602082015260a060408201819052600090615cd8908301866147e4565b8281036060840152615cea81866150eb565b91505082151560808301529695505050505050565b6001600160a01b03838116825260406020808401829052845182850152848101519092166060840152830151608080840152600091615d4160c0850183615096565b6060860151858203603f190160a0870152805180835291935082019082840190600581901b8501840160005b8281101561519c57601f19878303018452615d898286516150eb565b94860194938601939150600101615d6d565b6020808252602e908201527f496e697469616c697a61626c653a20636f6e747261637420697320616c72656160408201526d191e481a5b9a5d1a585b1a5e995960921b606082015260800190565b60008351615dfb8184602088016147b8565b835190830190615e0f8183602088016147b8565b01949350505050565b6020808252602b908201527f496e697469616c697a61626c653a20636f6e7472616374206973206e6f74206960408201526a6e697469616c697a696e6760a81b606082015260800190565b60208082526032908201527f4552433732313a207472616e7366657220746f206e6f6e20455243373231526560408201527131b2b4bb32b91034b6b83632b6b2b73a32b960711b606082015260800190565b600082615ec457615ec46155d9565b500690565b7f416363657373436f6e74726f6c3a206163636f756e7420000000000000000000815260008351615f018160178501602088016147b8565b7001034b99036b4b9b9b4b733903937b6329607d1b6017918401918201528351615f328160288401602088016147b8565b01602801949350505050565b6001600160a01b0385811682528416602082015260408101839052608060608201819052600090615f71908301846147e4565b9695505050505050565b600060208284031215615f8d57600080fd5b8151610d0481614785565b600081615fa757615fa761553b565b506000190190565b634e487b7160e01b600052603160045260246000fdfea264697066735822122051e0908b04db9e1f8482796510de4d5a6ce807b5b01f98770be7a1b727d730a364736f6c634300080c0033",
  "linkReferences": {},
  "deployedLinkReferences": {}
}