{
  "_format": "hh-sol-artifact-1",
  "contractName": "SWEETS",
  "sourceName": "contracts/nft/SWEETS.sol",
  "abi": [
    {
      "inputs": [],
      "stateMutability": "nonpayable",
      "type": "constructor"
    },
    {
      "anonymous": false,
      "inputs": [
        {
          "indexed": true,
          "internalType": "address",
          "name": "owner",
          "type": "address"
        },
        {
          "indexed": true,
          "internalType": "address",
          "name": "approved",
          "type": "address"
        },
        {
          "indexed": true,
          "internalType": "uint256",
          "name": "tokenId",
          "type": "uint256"
        }
      ],
      "name": "Approval",
      "type": "event"
    },
    {
      "anonymous": false,
      "inputs": [
        {
          "indexed": true,
          "internalType": "address",
          "name": "owner",
          "type": "address"
        },
        {
          "indexed": true,
          "internalType": "address",
          "name": "operator",
          "type": "address"
        },
        {
          "indexed": false,
          "internalType": "bool",
          "name": "approved",
          "type": "bool"
        }
      ],
      "name": "ApprovalForAll",
      "type": "event"
    },
    {
      "anonymous": false,
      "inputs": [
        {
          "indexed": true,
          "internalType": "address",
          "name": "previousOwner",
          "type": "address"
        },
        {
          "indexed": true,
          "internalType": "address",
          "name": "newOwner",
          "type": "address"
        }
      ],
      "name": "OwnershipTransferred",
      "type": "event"
    },
    {
      "anonymous": false,
      "inputs": [
        {
          "indexed": true,
          "internalType": "address",
          "name": "from",
          "type": "address"
        },
        {
          "indexed": true,
          "internalType": "address",
          "name": "to",
          "type": "address"
        },
        {
          "indexed": true,
          "internalType": "uint256",
          "name": "tokenId",
          "type": "uint256"
        }
      ],
      "name": "Transfer",
      "type": "event"
    },
    {
      "inputs": [],
      "name": "algorithm",
      "outputs": [
        {
          "internalType": "string",
          "name": "",
          "type": "string"
        }
      ],
      "stateMutability": "view",
      "type": "function"
    },
    {
      "inputs": [
        {
          "internalType": "address",
          "name": "to",
          "type": "address"
        },
        {
          "internalType": "uint256",
          "name": "tokenId",
          "type": "uint256"
        }
      ],
      "name": "approve",
      "outputs": [],
      "stateMutability": "nonpayable",
      "type": "function"
    },
    {
      "inputs": [
        {
          "internalType": "address",
          "name": "owner",
          "type": "address"
        }
      ],
      "name": "balanceOf",
      "outputs": [
        {
          "internalType": "uint256",
          "name": "",
          "type": "uint256"
        }
      ],
      "stateMutability": "view",
      "type": "function"
    },
    {
      "inputs": [
        {
          "internalType": "uint256",
          "name": "tokenId",
          "type": "uint256"
        }
      ],
      "name": "getApproved",
      "outputs": [
        {
          "internalType": "address",
          "name": "",
          "type": "address"
        }
      ],
      "stateMutability": "view",
      "type": "function"
    },
    {
      "inputs": [
        {
          "internalType": "uint256",
          "name": "id",
          "type": "uint256"
        }
      ],
      "name": "getPalette",
      "outputs": [
        {
          "internalType": "string[4]",
          "name": "",
          "type": "string[4]"
        }
      ],
      "stateMutability": "view",
      "type": "function"
    },
    {
      "inputs": [
        {
          "internalType": "uint256",
          "name": "tokenId",
          "type": "uint256"
        }
      ],
      "name": "getParamValues",
      "outputs": [
        {
          "internalType": "string[4]",
          "name": "",
          "type": "string[4]"
        },
        {
          "internalType": "string",
          "name": "shape",
          "type": "string"
        },
        {
          "internalType": "string",
          "name": "size",
          "type": "string"
        },
        {
          "internalType": "string",
          "name": "surface",
          "type": "string"
        }
      ],
      "stateMutability": "view",
      "type": "function"
    },
    {
      "inputs": [
        {
          "internalType": "uint256",
          "name": "id",
          "type": "uint256"
        }
      ],
      "name": "getShape",
      "outputs": [
        {
          "internalType": "string",
          "name": "",
          "type": "string"
        }
      ],
      "stateMutability": "view",
      "type": "function"
    },
    {
      "inputs": [
        {
          "internalType": "uint256",
          "name": "id",
          "type": "uint256"
        }
      ],
      "name": "getSize",
      "outputs": [
        {
          "internalType": "string",
          "name": "",
          "type": "string"
        }
      ],
      "stateMutability": "view",
      "type": "function"
    },
    {
      "inputs": [
        {
          "internalType": "uint256",
          "name": "id",
          "type": "uint256"
        }
      ],
      "name": "getSurface",
      "outputs": [
        {
          "internalType": "string",
          "name": "",
          "type": "string"
        }
      ],
      "stateMutability": "view",
      "type": "function"
    },
    {
      "inputs": [
        {
          "internalType": "address",
          "name": "owner",
          "type": "address"
        },
        {
          "internalType": "address",
          "name": "operator",
          "type": "address"
        }
      ],
      "name": "isApprovedForAll",
      "outputs": [
        {
          "internalType": "bool",
          "name": "",
          "type": "bool"
        }
      ],
      "stateMutability": "view",
      "type": "function"
    },
    {
      "inputs": [],
      "name": "mint",
      "outputs": [],
      "stateMutability": "nonpayable",
      "type": "function"
    },
    {
      "inputs": [],
      "name": "name",
      "outputs": [
        {
          "internalType": "string",
          "name": "",
          "type": "string"
        }
      ],
      "stateMutability": "view",
      "type": "function"
    },
    {
      "inputs": [],
      "name": "owner",
      "outputs": [
        {
          "internalType": "address",
          "name": "",
          "type": "address"
        }
      ],
      "stateMutability": "view",
      "type": "function"
    },
    {
      "inputs": [
        {
          "internalType": "uint256",
          "name": "id",
          "type": "uint256"
        }
      ],
      "name": "ownerMint",
      "outputs": [],
      "stateMutability": "nonpayable",
      "type": "function"
    },
    {
      "inputs": [
        {
          "internalType": "uint256",
          "name": "tokenId",
          "type": "uint256"
        }
      ],
      "name": "ownerOf",
      "outputs": [
        {
          "internalType": "address",
          "name": "",
          "type": "address"
        }
      ],
      "stateMutability": "view",
      "type": "function"
    },
    {
      "inputs": [],
      "name": "renounceOwnership",
      "outputs": [],
      "stateMutability": "nonpayable",
      "type": "function"
    },
    {
      "inputs": [
        {
          "internalType": "address",
          "name": "from",
          "type": "address"
        },
        {
          "internalType": "address",
          "name": "to",
          "type": "address"
        },
        {
          "internalType": "uint256",
          "name": "tokenId",
          "type": "uint256"
        }
      ],
      "name": "safeTransferFrom",
      "outputs": [],
      "stateMutability": "nonpayable",
      "type": "function"
    },
    {
      "inputs": [
        {
          "internalType": "address",
          "name": "from",
          "type": "address"
        },
        {
          "internalType": "address",
          "name": "to",
          "type": "address"
        },
        {
          "internalType": "uint256",
          "name": "tokenId",
          "type": "uint256"
        },
        {
          "internalType": "bytes",
          "name": "data",
          "type": "bytes"
        }
      ],
      "name": "safeTransferFrom",
      "outputs": [],
      "stateMutability": "nonpayable",
      "type": "function"
    },
    {
      "inputs": [
        {
          "internalType": "string",
          "name": "algo",
          "type": "string"
        }
      ],
      "name": "setAlgo",
      "outputs": [],
      "stateMutability": "nonpayable",
      "type": "function"
    },
    {
      "inputs": [
        {
          "internalType": "address",
          "name": "operator",
          "type": "address"
        },
        {
          "internalType": "bool",
          "name": "approved",
          "type": "bool"
        }
      ],
      "name": "setApprovalForAll",
      "outputs": [],
      "stateMutability": "nonpayable",
      "type": "function"
    },
    {
      "inputs": [
        {
          "internalType": "bytes4",
          "name": "interfaceId",
          "type": "bytes4"
        }
      ],
      "name": "supportsInterface",
      "outputs": [
        {
          "internalType": "bool",
          "name": "",
          "type": "bool"
        }
      ],
      "stateMutability": "view",
      "type": "function"
    },
    {
      "inputs": [],
      "name": "symbol",
      "outputs": [
        {
          "internalType": "string",
          "name": "",
          "type": "string"
        }
      ],
      "stateMutability": "view",
      "type": "function"
    },
    {
      "inputs": [
        {
          "internalType": "uint256",
          "name": "tokenId",
          "type": "uint256"
        }
      ],
      "name": "tokenURI",
      "outputs": [
        {
          "internalType": "string",
          "name": "",
          "type": "string"
        }
      ],
      "stateMutability": "view",
      "type": "function"
    },
    {
      "inputs": [
        {
          "internalType": "address",
          "name": "from",
          "type": "address"
        },
        {
          "internalType": "address",
          "name": "to",
          "type": "address"
        },
        {
          "internalType": "uint256",
          "name": "tokenId",
          "type": "uint256"
        }
      ],
      "name": "transferFrom",
      "outputs": [],
      "stateMutability": "nonpayable",
      "type": "function"
    },
    {
      "inputs": [
        {
          "internalType": "address",
          "name": "newOwner",
          "type": "address"
        }
      ],
      "name": "transferOwnership",
      "outputs": [],
      "stateMutability": "nonpayable",
      "type": "function"
    }
  ],
  "bytecode": "0x600861016081815267141a5b1b1a19585960c21b61018052608090815260066101a09081526529b6b4b632b960d11b6101c05260a0526101e08281526714dc195add1c985b60c21b6102005260c052600561022081815264090cad8d2f60db1b6102405260e05260096102609081526815195cdcd95c9858dd60ba1b61028052610100526102a090815264546f72757360d81b6102c0526101205261032060405260076102e0818152664f62656c69736b60c81b6103005261014052620000c8929190620004b8565b506040805160a081018252600660608201818152654e6962626c6560d01b608084015282528251808401845260048152634269746560e01b6020828101919091528084019190915283518085018552918252652232bb37bab960d11b90820152918101919091526200013f9060099060036200051c565b50604051806060016040528060405180604001604052806005815260200164487964726f60d81b815250815260200160405180604001604052806006815260200165141b185d195960d21b81525081526020016040518060400160405280600781526020016654616374696c6560c81b815250815250600a906003620001c79291906200051c565b506040805161024081018252600761020082018181526611a29b9a199a2360c91b6102208401528252825180840184528181526608d14dce4dccd160ca1b6020828101919091528084019190915283518085018552828152662345374443344560c81b8183015283850152835180850185528281526608cd50d14dcd5160ca1b81830152606084015283518085018552828152662332393831453760c81b81830152608084015283518085018552828152662335443231453760c81b8183015260a0840152835180850185528281526608d14dcdcdd14d60ca1b8183015260c084015283518085018552828152662345374537453760c81b8183015260e0840152835180850185528281526608cccc4c8d8c8d60ca1b81830152610100840152835180850185528281526611a29b9c9b1ca360c91b8183015261012084015283518085018552828152662345374232373760c81b81830152610140840152835180850185528281526611a29ba2221c2360c91b8183015261016084015283518085018552828152662338434537433360c81b8183015261018084015283518085018552828152662338374232453760c81b818301526101a084015283518085018552828152662341303832453760c81b818301526101c08401528351808501909452908352662345344237453760c81b908301526101e0810191909152620003d490600b9060106200056e565b50348015620003e257600080fd5b5060408051808201825260068082526553574545545360d01b6020808401828152855180870190965292855284015281519192916200042491600091620005c0565b5080516200043a906001906020840190620005c0565b50505062000457620004516200046260201b60201c565b62000466565b600160075562000702565b3390565b600680546001600160a01b038381166001600160a01b0319831681179093556040519116919082907f8be0079c531659141344cd1fd0a4f28419497f9722a3daafe3b4186f6b6457e090600090a35050565b8280548282559060005260206000209081019282156200050a579160200282015b828111156200050a5782518051620004f9918491602090910190620005c0565b5091602001919060010190620004d9565b50620005189291506200064b565b5090565b8280548282559060005260206000209081019282156200050a579160200282015b828111156200050a57825180516200055d918491602090910190620005c0565b50916020019190600101906200053d565b8280548282559060005260206000209081019282156200050a579160200282015b828111156200050a5782518051620005af918491602090910190620005c0565b50916020019190600101906200058f565b828054620005ce90620006c5565b90600052602060002090601f016020900481019282620005f257600085556200063d565b82601f106200060d57805160ff19168380011785556200063d565b828001600101855582156200063d579182015b828111156200063d57825182559160200191906001019062000620565b50620005189291506200066c565b808211156200051857600062000662828262000683565b506001016200064b565b5b808211156200051857600081556001016200066d565b5080546200069190620006c5565b6000825580601f10620006a2575050565b601f016020900490600052602060002090810190620006c291906200066c565b50565b600181811c90821680620006da57607f821691505b60208210811415620006fc57634e487b7160e01b600052602260045260246000fd5b50919050565b6121d380620007126000396000f3fe608060405234801561001057600080fd5b50600436106101735760003560e01c8063505e570a116100de578063a22cb46511610097578063c87b56dd11610071578063c87b56dd14610335578063e985e9c514610348578063f19e75d414610384578063f2fde38b1461039757600080fd5b8063a22cb465146102ec578063b88d4fde146102ff578063c0dca2391461031257600080fd5b8063505e570a146102775780636352211e1461029757806370a08231146102aa578063715018a6146102cb5780638da5cb5b146102d357806395d89b41146102e457600080fd5b806311ad80471161013057806311ad80471461021b5780631249c58b1461022e57806322ced7211461023657806323b872dd146102495780632e58ca461461025c57806342842e0e1461026457600080fd5b806301ffc9a714610178578063023c23db146101a057806306fdde03146101c05780630764da1d146101c8578063081812fc146101dd578063095ea7b314610208575b600080fd5b61018b610186366004611ba2565b6103aa565b60405190151581526020015b60405180910390f35b6101b36101ae366004611bbf565b6103fc565b6040516101979190611c30565b6101b36104f6565b6101db6101d6366004611ccf565b610588565b005b6101f06101eb366004611bbf565b6105a7565b6040516001600160a01b039091168152602001610197565b6101db610216366004611d34565b6105ce565b6101b3610229366004611bbf565b6106e9565b6101db6107dd565b6101b3610244366004611bbf565b61086d565b6101db610257366004611d5e565b61095f565b6101b3610990565b6101db610272366004611d5e565b610a1e565b61028a610285366004611bbf565b610a39565b6040516101979190611ddf565b6101f06102a5366004611bbf565b610e29565b6102bd6102b8366004611df2565b610e89565b604051908152602001610197565b6101db610f0f565b6006546001600160a01b03166101f0565b6101b3610f23565b6101db6102fa366004611e0d565b610f32565b6101db61030d366004611e49565b610f3d565b610325610320366004611bbf565b610f75565b6040516101979493929190611ec5565b6101b3610343366004611bbf565b610fb5565b61018b610356366004611f1d565b6001600160a01b03918216600090815260056020908152604080832093909416825291909152205460ff1690565b6101db610392366004611bbf565b61101c565b6101db6103a5366004611df2565b6110aa565b60006001600160e01b031982166380ac58cd60e01b14806103db57506001600160e01b03198216635b5e139f60e01b145b806103f657506301ffc9a760e01b6001600160e01b03198316145b92915050565b60606103f6826040518060400160405280600481526020016373697a6560e01b8152506009805480602002602001604051908101604052809291908181526020016000905b828210156104ed57838290600052602060002001805461046090611f50565b80601f016020809104026020016040519081016040528092919081815260200182805461048c90611f50565b80156104d95780601f106104ae576101008083540402835291602001916104d9565b820191906000526020600020905b8154815290600101906020018083116104bc57829003601f168201915b505050505081526020019060010190610441565b50505050611123565b60606000805461050590611f50565b80601f016020809104026020016040519081016040528092919081815260200182805461053190611f50565b801561057e5780601f106105535761010080835404028352916020019161057e565b820191906000526020600020905b81548152906001019060200180831161056157829003601f168201915b5050505050905090565b61059061118d565b80516105a390600c906020840190611acc565b5050565b60006105b2826111e7565b506000908152600460205260409020546001600160a01b031690565b60006105d982610e29565b9050806001600160a01b0316836001600160a01b0316141561064c5760405162461bcd60e51b815260206004820152602160248201527f4552433732313a20617070726f76616c20746f2063757272656e74206f776e656044820152603960f91b60648201526084015b60405180910390fd5b336001600160a01b038216148061066857506106688133610356565b6106da5760405162461bcd60e51b815260206004820152603e60248201527f4552433732313a20617070726f76652063616c6c6572206973206e6f7420746f60448201527f6b656e206f776e6572206e6f7220617070726f76656420666f7220616c6c00006064820152608401610643565b6106e48383611246565b505050565b60606103f682604051806040016040528060078152602001667375726661636560c81b815250600a805480602002602001604051908101604052809291908181526020016000905b828210156104ed57838290600052602060002001805461075090611f50565b80601f016020809104026020016040519081016040528092919081815260200182805461077c90611f50565b80156107c95780601f1061079e576101008083540402835291602001916107c9565b820191906000526020600020905b8154815290600101906020018083116107ac57829003601f168201915b505050505081526020019060010190610731565b600260075414156108305760405162461bcd60e51b815260206004820152601f60248201527f5265656e7472616e637947756172643a207265656e7472616e742063616c6c006044820152606401610643565b6002600755600d546111941161084557600080fd5b600d805490600061085583611fa1565b919050555061086633600d546112b4565b6001600755565b60606103f68260405180604001604052806005815260200164736861706560d81b8152506008805480602002602001604051908101604052809291908181526020016000905b828210156104ed5783829060005260206000200180546108d290611f50565b80601f01602080910402602001604051908101604052809291908181526020018280546108fe90611f50565b801561094b5780601f106109205761010080835404028352916020019161094b565b820191906000526020600020905b81548152906001019060200180831161092e57829003601f168201915b5050505050815260200190600101906108b3565b61096933826112ce565b6109855760405162461bcd60e51b815260040161064390611fbc565b6106e483838361134d565b600c805461099d90611f50565b80601f01602080910402602001604051908101604052809291908181526020018280546109c990611f50565b8015610a165780601f106109eb57610100808354040283529160200191610a16565b820191906000526020600020905b8154815290600101906020018083116109f957829003601f168201915b505050505081565b6106e483838360405180602001604052806000815250610f3d565b610a41611b50565b610a49611b50565b610b3b83604051806040016040528060078152602001660636f6c6f7220360cc1b815250600b805480602002602001604051908101604052809291908181526020016000905b828210156104ed578382906000526020600020018054610aae90611f50565b80601f0160208091040260200160405190810160405280929190818152602001828054610ada90611f50565b8015610b275780601f10610afc57610100808354040283529160200191610b27565b820191906000526020600020905b815481529060010190602001808311610b0a57829003601f168201915b505050505081526020019060010190610a8f565b81526040805180820182526007815266636f6c6f72203160c81b602082810191909152600b8054845181840281018401909552808552610c2e948894939092919060009084015b828210156104ed578382906000526020600020018054610ba190611f50565b80601f0160208091040260200160405190810160405280929190818152602001828054610bcd90611f50565b8015610c1a5780601f10610bef57610100808354040283529160200191610c1a565b820191906000526020600020905b815481529060010190602001808311610bfd57829003601f168201915b505050505081526020019060010190610b82565b602080830191909152604080518082018252600781526631b7b637b9101960c91b81840152600b8054835181860281018601909452808452610d2194889492919060009084015b828210156104ed578382906000526020600020018054610c9490611f50565b80601f0160208091040260200160405190810160405280929190818152602001828054610cc090611f50565b8015610d0d5780601f10610ce257610100808354040283529160200191610d0d565b820191906000526020600020905b815481529060010190602001808311610cf057829003601f168201915b505050505081526020019060010190610c75565b8160026020020181905250610e1e8360405180604001604052806007815260200166636f6c6f72203360c81b815250600b805480602002602001604051908101604052809291908181526020016000905b828210156104ed578382906000526020600020018054610d9190611f50565b80601f0160208091040260200160405190810160405280929190818152602001828054610dbd90611f50565b8015610e0a5780601f10610ddf57610100808354040283529160200191610e0a565b820191906000526020600020905b815481529060010190602001808311610ded57829003601f168201915b505050505081526020019060010190610d72565b606082015292915050565b6000818152600260205260408120546001600160a01b0316806103f65760405162461bcd60e51b8152602060048201526018602482015277115490cdcc8c4e881a5b9d985b1a59081d1bdad95b88125160421b6044820152606401610643565b60006001600160a01b038216610ef35760405162461bcd60e51b815260206004820152602960248201527f4552433732313a2061646472657373207a65726f206973206e6f7420612076616044820152683634b21037bbb732b960b91b6064820152608401610643565b506001600160a01b031660009081526003602052604090205490565b610f1761118d565b610f2160006114e9565b565b60606001805461050590611f50565b6105a333838361153b565b610f4733836112ce565b610f635760405162461bcd60e51b815260040161064390611fbc565b610f6f8484848461160a565b50505050565b610f7d611b50565b6060806060610f8b85610a39565b610f948661086d565b610f9d876103fc565b610fa6886106e9565b93509350935093509193509193565b6060610fc0826111e7565b6000610fca61163d565b90506000815111610fea5760405180602001604052806000815250611015565b80610ff48461165d565b604051602001611005929190612020565b6040516020818303038152906040525b9392505050565b6002600754141561106f5760405162461bcd60e51b815260206004820152601f60248201527f5265656e7472616e637947756172643a207265656e7472616e742063616c6c006044820152606401610643565b600260075561107c61118d565b6111948111801561108f57506113888111155b61109857600080fd5b6110a233826112b4565b506001600755565b6110b261118d565b6001600160a01b0381166111175760405162461bcd60e51b815260206004820152602660248201527f4f776e61626c653a206e6577206f776e657220697320746865207a65726f206160448201526564647265737360d01b6064820152608401610643565b611120816114e9565b50565b60606000836111318661175b565b604051602001611142929190612020565b6040516020818303038152906040528051906020012060001c90508283518261116b9190612065565b8151811061117b5761117b61200a565b60200260200101519150509392505050565b6006546001600160a01b03163314610f215760405162461bcd60e51b815260206004820181905260248201527f4f776e61626c653a2063616c6c6572206973206e6f7420746865206f776e65726044820152606401610643565b6000818152600260205260409020546001600160a01b03166111205760405162461bcd60e51b8152602060048201526018602482015277115490cdcc8c4e881a5b9d985b1a59081d1bdad95b88125160421b6044820152606401610643565b600081815260046020526040902080546001600160a01b0319166001600160a01b038416908117909155819061127b82610e29565b6001600160a01b03167f8c5be1e5ebec7d5bd14f71427d1e84f3dd0314c0f7b2291e5b200ac8c7c3b92560405160405180910390a45050565b6105a3828260405180602001604052806000815250611859565b6000806112da83610e29565b9050806001600160a01b0316846001600160a01b0316148061132157506001600160a01b0380821660009081526005602090815260408083209388168352929052205460ff165b806113455750836001600160a01b031661133a846105a7565b6001600160a01b0316145b949350505050565b826001600160a01b031661136082610e29565b6001600160a01b0316146113c45760405162461bcd60e51b815260206004820152602560248201527f4552433732313a207472616e736665722066726f6d20696e636f72726563742060448201526437bbb732b960d91b6064820152608401610643565b6001600160a01b0382166114265760405162461bcd60e51b8152602060048201526024808201527f4552433732313a207472616e7366657220746f20746865207a65726f206164646044820152637265737360e01b6064820152608401610643565b611431600082611246565b6001600160a01b038316600090815260036020526040812080546001929061145a908490612079565b90915550506001600160a01b0382166000908152600360205260408120805460019290611488908490612090565b909155505060008181526002602052604080822080546001600160a01b0319166001600160a01b0386811691821790925591518493918716917fddf252ad1be2c89b69c2b068fc378daa952ba7f163c4a11628f55a4df523b3ef91a4505050565b600680546001600160a01b038381166001600160a01b0319831681179093556040519116919082907f8be0079c531659141344cd1fd0a4f28419497f9722a3daafe3b4186f6b6457e090600090a35050565b816001600160a01b0316836001600160a01b0316141561159d5760405162461bcd60e51b815260206004820152601960248201527f4552433732313a20617070726f766520746f2063616c6c6572000000000000006044820152606401610643565b6001600160a01b03838116600081815260056020908152604080832094871680845294825291829020805460ff191686151590811790915591519182527f17307eab39ab6107e8899845ad3d59bd9653f200f220920489ca2b5937696c31910160405180910390a3505050565b61161584848461134d565b6116218484848461188c565b610f6f5760405162461bcd60e51b8152600401610643906120a8565b606060405180606001604052806035815260200161216960359139905090565b6060816116815750506040805180820190915260018152600360fc1b602082015290565b8160005b81156116ab578061169581611fa1565b91506116a49050600a836120fa565b9150611685565b60008167ffffffffffffffff8111156116c6576116c6611c43565b6040519080825280601f01601f1916602001820160405280156116f0576020820181803683370190505b5090505b841561134557611705600183612079565b9150611712600a86612065565b61171d906030612090565b60f81b8183815181106117325761173261200a565b60200101906001600160f81b031916908160001a905350611754600a866120fa565b94506116f4565b60608161177f5750506040805180820190915260018152600360fc1b602082015290565b8160005b81156117a9578061179381611fa1565b91506117a29050600a836120fa565b9150611783565b60008167ffffffffffffffff8111156117c4576117c4611c43565b6040519080825280601f01601f1916602001820160405280156117ee576020820181803683370190505b5090505b841561134557611803600183612079565b9150611810600a86612065565b61181b906030612090565b60f81b8183815181106118305761183061200a565b60200101906001600160f81b031916908160001a905350611852600a866120fa565b94506117f2565b611863838361198a565b611870600084848461188c565b6106e45760405162461bcd60e51b8152600401610643906120a8565b60006001600160a01b0384163b1561197f57604051630a85bd0160e11b81526001600160a01b0385169063150b7a02906118d090339089908890889060040161210e565b6020604051808303816000875af192505050801561190b575060408051601f3d908101601f191682019092526119089181019061214b565b60015b611965573d808015611939576040519150601f19603f3d011682016040523d82523d6000602084013e61193e565b606091505b50805161195d5760405162461bcd60e51b8152600401610643906120a8565b805181602001fd5b6001600160e01b031916630a85bd0160e11b149050611345565b506001949350505050565b6001600160a01b0382166119e05760405162461bcd60e51b815260206004820181905260248201527f4552433732313a206d696e7420746f20746865207a65726f20616464726573736044820152606401610643565b6000818152600260205260409020546001600160a01b031615611a455760405162461bcd60e51b815260206004820152601c60248201527f4552433732313a20746f6b656e20616c7265616479206d696e746564000000006044820152606401610643565b6001600160a01b0382166000908152600360205260408120805460019290611a6e908490612090565b909155505060008181526002602052604080822080546001600160a01b0319166001600160a01b03861690811790915590518392907fddf252ad1be2c89b69c2b068fc378daa952ba7f163c4a11628f55a4df523b3ef908290a45050565b828054611ad890611f50565b90600052602060002090601f016020900481019282611afa5760008555611b40565b82601f10611b1357805160ff1916838001178555611b40565b82800160010185558215611b40579182015b82811115611b40578251825591602001919060010190611b25565b50611b4c929150611b77565b5090565b60405180608001604052806004905b6060815260200190600190039081611b5f5790505090565b5b80821115611b4c5760008155600101611b78565b6001600160e01b03198116811461112057600080fd5b600060208284031215611bb457600080fd5b813561101581611b8c565b600060208284031215611bd157600080fd5b5035919050565b60005b83811015611bf3578181015183820152602001611bdb565b83811115610f6f5750506000910152565b60008151808452611c1c816020860160208601611bd8565b601f01601f19169290920160200192915050565b6020815260006110156020830184611c04565b634e487b7160e01b600052604160045260246000fd5b600067ffffffffffffffff80841115611c7457611c74611c43565b604051601f8501601f19908116603f01168101908282118183101715611c9c57611c9c611c43565b81604052809350858152868686011115611cb557600080fd5b858560208301376000602087830101525050509392505050565b600060208284031215611ce157600080fd5b813567ffffffffffffffff811115611cf857600080fd5b8201601f81018413611d0957600080fd5b61134584823560208401611c59565b80356001600160a01b0381168114611d2f57600080fd5b919050565b60008060408385031215611d4757600080fd5b611d5083611d18565b946020939093013593505050565b600080600060608486031215611d7357600080fd5b611d7c84611d18565b9250611d8a60208501611d18565b9150604084013590509250925092565b600082608081018360005b6004811015611dd4578383038752611dbe838351611c04565b6020978801979093509190910190600101611da5565b509095945050505050565b6020815260006110156020830184611d9a565b600060208284031215611e0457600080fd5b61101582611d18565b60008060408385031215611e2057600080fd5b611e2983611d18565b915060208301358015158114611e3e57600080fd5b809150509250929050565b60008060008060808587031215611e5f57600080fd5b611e6885611d18565b9350611e7660208601611d18565b925060408501359150606085013567ffffffffffffffff811115611e9957600080fd5b8501601f81018713611eaa57600080fd5b611eb987823560208401611c59565b91505092959194509250565b608081526000611ed86080830187611d9a565b8281036020840152611eea8187611c04565b90508281036040840152611efe8186611c04565b90508281036060840152611f128185611c04565b979650505050505050565b60008060408385031215611f3057600080fd5b611f3983611d18565b9150611f4760208401611d18565b90509250929050565b600181811c90821680611f6457607f821691505b60208210811415611f8557634e487b7160e01b600052602260045260246000fd5b50919050565b634e487b7160e01b600052601160045260246000fd5b6000600019821415611fb557611fb5611f8b565b5060010190565b6020808252602e908201527f4552433732313a2063616c6c6572206973206e6f7420746f6b656e206f776e6560408201526d1c881b9bdc88185c1c1c9bdd995960921b606082015260800190565b634e487b7160e01b600052603260045260246000fd5b60008351612032818460208801611bd8565b835190830190612046818360208801611bd8565b01949350505050565b634e487b7160e01b600052601260045260246000fd5b6000826120745761207461204f565b500690565b60008282101561208b5761208b611f8b565b500390565b600082198211156120a3576120a3611f8b565b500190565b60208082526032908201527f4552433732313a207472616e7366657220746f206e6f6e20455243373231526560408201527131b2b4bb32b91034b6b83632b6b2b73a32b960711b606082015260800190565b6000826121095761210961204f565b500490565b6001600160a01b038581168252841660208201526040810183905260806060820181905260009061214190830184611c04565b9695505050505050565b60006020828403121561215d57600080fd5b815161101581611b8c56fe68747470733a2f2f72656e646572696e672e726f76652e746f2f76312f72656e64657265642d6e66742f312f6d657461646174612fa26469706673582212204d92c9b8cbe5ee05fcd0db5f7cb76b9188306ab0cebfed01cc134f4fe2c79a6064736f6c634300080c0033",
  "linkReferences": {},
  "deployedLinkReferences": {}
}