{
  "contractName": "FunctionFactory",
  "abi": [
    {
      "inputs": [],
      "stateMutability": "nonpayable",
      "type": "constructor"
    },
    {
      "anonymous": false,
      "inputs": [
        {
          "indexed": true,
          "internalType": "address",
          "name": "owner",
          "type": "address"
        },
        {
          "indexed": true,
          "internalType": "address",
          "name": "approved",
          "type": "address"
        },
        {
          "indexed": true,
          "internalType": "uint256",
          "name": "tokenId",
          "type": "uint256"
        }
      ],
      "name": "Approval",
      "type": "event"
    },
    {
      "anonymous": false,
      "inputs": [
        {
          "indexed": true,
          "internalType": "address",
          "name": "owner",
          "type": "address"
        },
        {
          "indexed": true,
          "internalType": "address",
          "name": "operator",
          "type": "address"
        },
        {
          "indexed": false,
          "internalType": "bool",
          "name": "approved",
          "type": "bool"
        }
      ],
      "name": "ApprovalForAll",
      "type": "event"
    },
    {
      "anonymous": false,
      "inputs": [
        {
          "indexed": true,
          "internalType": "address",
          "name": "previousOwner",
          "type": "address"
        },
        {
          "indexed": true,
          "internalType": "address",
          "name": "newOwner",
          "type": "address"
        }
      ],
      "name": "OwnershipTransferred",
      "type": "event"
    },
    {
      "anonymous": false,
      "inputs": [
        {
          "indexed": true,
          "internalType": "address",
          "name": "from",
          "type": "address"
        },
        {
          "indexed": true,
          "internalType": "address",
          "name": "to",
          "type": "address"
        },
        {
          "indexed": true,
          "internalType": "uint256",
          "name": "tokenId",
          "type": "uint256"
        }
      ],
      "name": "Transfer",
      "type": "event"
    },
    {
      "inputs": [
        {
          "internalType": "address",
          "name": "to",
          "type": "address"
        },
        {
          "internalType": "uint256",
          "name": "tokenId",
          "type": "uint256"
        }
      ],
      "name": "approve",
      "outputs": [],
      "stateMutability": "nonpayable",
      "type": "function"
    },
    {
      "inputs": [
        {
          "internalType": "address",
          "name": "owner",
          "type": "address"
        }
      ],
      "name": "balanceOf",
      "outputs": [
        {
          "internalType": "uint256",
          "name": "",
          "type": "uint256"
        }
      ],
      "stateMutability": "view",
      "type": "function"
    },
    {
      "inputs": [
        {
          "internalType": "uint256",
          "name": "tokenId",
          "type": "uint256"
        }
      ],
      "name": "getApproved",
      "outputs": [
        {
          "internalType": "address",
          "name": "",
          "type": "address"
        }
      ],
      "stateMutability": "view",
      "type": "function"
    },
    {
      "inputs": [
        {
          "internalType": "address",
          "name": "owner",
          "type": "address"
        },
        {
          "internalType": "address",
          "name": "operator",
          "type": "address"
        }
      ],
      "name": "isApprovedForAll",
      "outputs": [
        {
          "internalType": "bool",
          "name": "",
          "type": "bool"
        }
      ],
      "stateMutability": "view",
      "type": "function"
    },
    {
      "inputs": [],
      "name": "name",
      "outputs": [
        {
          "internalType": "string",
          "name": "",
          "type": "string"
        }
      ],
      "stateMutability": "view",
      "type": "function"
    },
    {
      "inputs": [],
      "name": "owner",
      "outputs": [
        {
          "internalType": "address",
          "name": "",
          "type": "address"
        }
      ],
      "stateMutability": "view",
      "type": "function"
    },
    {
      "inputs": [
        {
          "internalType": "uint256",
          "name": "tokenId",
          "type": "uint256"
        }
      ],
      "name": "ownerOf",
      "outputs": [
        {
          "internalType": "address",
          "name": "",
          "type": "address"
        }
      ],
      "stateMutability": "view",
      "type": "function"
    },
    {
      "inputs": [],
      "name": "renounceOwnership",
      "outputs": [],
      "stateMutability": "nonpayable",
      "type": "function"
    },
    {
      "inputs": [
        {
          "internalType": "address",
          "name": "from",
          "type": "address"
        },
        {
          "internalType": "address",
          "name": "to",
          "type": "address"
        },
        {
          "internalType": "uint256",
          "name": "tokenId",
          "type": "uint256"
        }
      ],
      "name": "safeTransferFrom",
      "outputs": [],
      "stateMutability": "nonpayable",
      "type": "function"
    },
    {
      "inputs": [
        {
          "internalType": "address",
          "name": "from",
          "type": "address"
        },
        {
          "internalType": "address",
          "name": "to",
          "type": "address"
        },
        {
          "internalType": "uint256",
          "name": "tokenId",
          "type": "uint256"
        },
        {
          "internalType": "bytes",
          "name": "data",
          "type": "bytes"
        }
      ],
      "name": "safeTransferFrom",
      "outputs": [],
      "stateMutability": "nonpayable",
      "type": "function"
    },
    {
      "inputs": [
        {
          "internalType": "address",
          "name": "operator",
          "type": "address"
        },
        {
          "internalType": "bool",
          "name": "approved",
          "type": "bool"
        }
      ],
      "name": "setApprovalForAll",
      "outputs": [],
      "stateMutability": "nonpayable",
      "type": "function"
    },
    {
      "inputs": [
        {
          "internalType": "bytes4",
          "name": "interfaceId",
          "type": "bytes4"
        }
      ],
      "name": "supportsInterface",
      "outputs": [
        {
          "internalType": "bool",
          "name": "",
          "type": "bool"
        }
      ],
      "stateMutability": "view",
      "type": "function"
    },
    {
      "inputs": [],
      "name": "symbol",
      "outputs": [
        {
          "internalType": "string",
          "name": "",
          "type": "string"
        }
      ],
      "stateMutability": "view",
      "type": "function"
    },
    {
      "inputs": [
        {
          "internalType": "uint256",
          "name": "tokenId",
          "type": "uint256"
        }
      ],
      "name": "tokenURI",
      "outputs": [
        {
          "internalType": "string",
          "name": "",
          "type": "string"
        }
      ],
      "stateMutability": "view",
      "type": "function"
    },
    {
      "inputs": [
        {
          "internalType": "address",
          "name": "from",
          "type": "address"
        },
        {
          "internalType": "address",
          "name": "to",
          "type": "address"
        },
        {
          "internalType": "uint256",
          "name": "tokenId",
          "type": "uint256"
        }
      ],
      "name": "transferFrom",
      "outputs": [],
      "stateMutability": "nonpayable",
      "type": "function"
    },
    {
      "inputs": [
        {
          "internalType": "address",
          "name": "newOwner",
          "type": "address"
        }
      ],
      "name": "transferOwnership",
      "outputs": [],
      "stateMutability": "nonpayable",
      "type": "function"
    },
    {
      "inputs": [
        {
          "internalType": "string",
          "name": "func",
          "type": "string"
        },
        {
          "internalType": "string",
          "name": "code",
          "type": "string"
        }
      ],
      "name": "setCode",
      "outputs": [],
      "stateMutability": "nonpayable",
      "type": "function"
    },
    {
      "inputs": [
        {
          "internalType": "string",
          "name": "func",
          "type": "string"
        }
      ],
      "name": "getCode",
      "outputs": [
        {
          "internalType": "string",
          "name": "",
          "type": "string"
        }
      ],
      "stateMutability": "view",
      "type": "function"
    },
    {
      "inputs": [
        {
          "internalType": "string",
          "name": "func",
          "type": "string"
        },
        {
          "internalType": "string[]",
          "name": "params",
          "type": "string[]"
        }
      ],
      "name": "setParams",
      "outputs": [],
      "stateMutability": "nonpayable",
      "type": "function"
    },
    {
      "inputs": [
        {
          "internalType": "string",
          "name": "func",
          "type": "string"
        },
        {
          "internalType": "string",
          "name": "param",
          "type": "string"
        },
        {
          "internalType": "string[]",
          "name": "values",
          "type": "string[]"
        }
      ],
      "name": "setValues",
      "outputs": [],
      "stateMutability": "nonpayable",
      "type": "function"
    },
    {
      "inputs": [
        {
          "internalType": "string",
          "name": "func",
          "type": "string"
        }
      ],
      "name": "mint",
      "outputs": [
        {
          "internalType": "uint256",
          "name": "",
          "type": "uint256"
        }
      ],
      "stateMutability": "nonpayable",
      "type": "function"
    }
  ],
  "bytecode": "0x60806040523480156200001157600080fd5b506040518060400160405280600f81526020017f46756e6374696f6e466163746f727900000000000000000000000000000000008152506040518060400160405280600281526020017f4646000000000000000000000000000000000000000000000000000000000000815250816000908051906020019062000096929190620001ae565b508060019080519060200190620000af929190620001ae565b5050506001600781905550620000da620000ce620000e060201b60201c565b620000e860201b60201c565b620002c3565b600033905090565b6000600860009054906101000a900473ffffffffffffffffffffffffffffffffffffffff16905081600860006101000a81548173ffffffffffffffffffffffffffffffffffffffff021916908373ffffffffffffffffffffffffffffffffffffffff1602179055508173ffffffffffffffffffffffffffffffffffffffff168173ffffffffffffffffffffffffffffffffffffffff167f8be0079c531659141344cd1fd0a4f28419497f9722a3daafe3b4186f6b6457e060405160405180910390a35050565b828054620001bc906200025e565b90600052602060002090601f016020900481019282620001e057600085556200022c565b82601f10620001fb57805160ff19168380011785556200022c565b828001600101855582156200022c579182015b828111156200022b5782518255916020019190600101906200020e565b5b5090506200023b91906200023f565b5090565b5b808211156200025a57600081600090555060010162000240565b5090565b600060028204905060018216806200027757607f821691505b602082108114156200028e576200028d62000294565b5b50919050565b7f4e487b7100000000000000000000000000000000000000000000000000000000600052602260045260246000fd5b6134e780620002d36000396000f3fe608060405234801561001057600080fd5b50600436106101375760003560e01c8063715018a6116100b8578063a22cb4651161007c578063a22cb46514610338578063b88d4fde14610354578063c87b56dd14610370578063d85d3d27146103a0578063e985e9c5146103d0578063f2fde38b1461040057610137565b8063715018a6146102a657806381fb022e146102b05780638d1cc925146102cc5780638da5cb5b146102fc57806395d89b411461031a57610137565b806323b872dd116100ff57806323b872dd146101f257806342842e0e1461020e578063615f8b781461022a5780636352211e1461024657806370a082311461027657610137565b806301ffc9a71461013c57806304951d9f1461016c57806306fdde0314610188578063081812fc146101a6578063095ea7b3146101d6575b600080fd5b610156600480360381019061015191906122d4565b61041c565b60405161016391906129d0565b60405180910390f35b61018660048036038101906101819190612467565b6104fe565b005b61019061055a565b60405161019d91906129eb565b60405180910390f35b6101c060048036038101906101bb919061250e565b6105ec565b6040516101cd9190612969565b60405180910390f35b6101f060048036038101906101eb9190612294565b610632565b005b61020c6004803603810190610207919061217e565b61074a565b005b6102286004803603810190610223919061217e565b6107aa565b005b610244600480360381019061023f9190612377565b6107ca565b005b610260600480360381019061025b919061250e565b610809565b60405161026d9190612969565b60405180910390f35b610290600480360381019061028b9190612111565b6108bb565b60405161029d9190612c0f565b60405180910390f35b6102ae610973565b005b6102ca60048036038101906102c591906123ef565b610987565b005b6102e660048036038101906102e1919061232e565b6109be565b6040516102f391906129eb565b60405180910390f35b610304610a6e565b6040516103119190612969565b60405180910390f35b610322610a98565b60405161032f91906129eb565b60405180910390f35b610352600480360381019061034d9190612254565b610b2a565b005b61036e600480360381019061036991906121d1565b610b40565b005b61038a6004803603810190610385919061250e565b610ba2565b60405161039791906129eb565b60405180910390f35b6103ba60048036038101906103b5919061232e565b610cb5565b6040516103c79190612c0f565b60405180910390f35b6103ea60048036038101906103e5919061213e565b610e8c565b6040516103f791906129d0565b60405180910390f35b61041a60048036038101906104159190612111565b610f20565b005b60007f80ac58cd000000000000000000000000000000000000000000000000000000007bffffffffffffffffffffffffffffffffffffffffffffffffffffffff1916827bffffffffffffffffffffffffffffffffffffffffffffffffffffffff191614806104e757507f5b5e139f000000000000000000000000000000000000000000000000000000007bffffffffffffffffffffffffffffffffffffffffffffffffffffffff1916827bffffffffffffffffffffffffffffffffffffffffffffffffffffffff1916145b806104f757506104f682610fa4565b5b9050919050565b61050661100e565b80600c846040516105179190612917565b9081526020016040518091039020836040516105339190612917565b90815260200160405180910390209080519060200190610554929190611da5565b50505050565b60606000805461056990612ea6565b80601f016020809104026020016040519081016040528092919081815260200182805461059590612ea6565b80156105e25780601f106105b7576101008083540402835291602001916105e2565b820191906000526020600020905b8154815290600101906020018083116105c557829003601f168201915b5050505050905090565b60006105f78261108c565b6004600083815260200190815260200160002060009054906101000a900473ffffffffffffffffffffffffffffffffffffffff169050919050565b600061063d82610809565b90508073ffffffffffffffffffffffffffffffffffffffff168373ffffffffffffffffffffffffffffffffffffffff1614156106ae576040517f08c379a00000000000000000000000000000000000000000000000000000000081526004016106a590612baf565b60405180910390fd5b8073ffffffffffffffffffffffffffffffffffffffff166106cd6110d7565b73ffffffffffffffffffffffffffffffffffffffff1614806106fc57506106fb816106f66110d7565b610e8c565b5b61073b576040517f08c379a000000000000000000000000000000000000000000000000000000000815260040161073290612b2f565b60405180910390fd5b61074583836110df565b505050565b61075b6107556110d7565b82611198565b61079a576040517f08c379a000000000000000000000000000000000000000000000000000000000815260040161079190612bcf565b60405180910390fd5b6107a583838361122d565b505050565b6107c583838360405180602001604052806000815250610b40565b505050565b6107d261100e565b80600b836040516107e39190612917565b90815260200160405180910390209080519060200190610804929190611da5565b505050565b6000806002600084815260200190815260200160002060009054906101000a900473ffffffffffffffffffffffffffffffffffffffff169050600073ffffffffffffffffffffffffffffffffffffffff168173ffffffffffffffffffffffffffffffffffffffff1614156108b2576040517f08c379a00000000000000000000000000000000000000000000000000000000081526004016108a990612b8f565b60405180910390fd5b80915050919050565b60008073ffffffffffffffffffffffffffffffffffffffff168273ffffffffffffffffffffffffffffffffffffffff16141561092c576040517f08c379a000000000000000000000000000000000000000000000000000000000815260040161092390612aef565b60405180910390fd5b600360008373ffffffffffffffffffffffffffffffffffffffff1673ffffffffffffffffffffffffffffffffffffffff168152602001908152602001600020549050919050565b61097b61100e565b6109856000611494565b565b80600a836040516109989190612917565b908152602001604051809103902090805190602001906109b9929190611e05565b505050565b6060600a826040516109d09190612917565b908152602001604051809103902080546109e990612ea6565b80601f0160208091040260200160405190810160405280929190818152602001828054610a1590612ea6565b8015610a625780601f10610a3757610100808354040283529160200191610a62565b820191906000526020600020905b815481529060010190602001808311610a4557829003601f168201915b50505050509050919050565b6000600860009054906101000a900473ffffffffffffffffffffffffffffffffffffffff16905090565b606060018054610aa790612ea6565b80601f0160208091040260200160405190810160405280929190818152602001828054610ad390612ea6565b8015610b205780601f10610af557610100808354040283529160200191610b20565b820191906000526020600020905b815481529060010190602001808311610b0357829003601f168201915b5050505050905090565b610b3c610b356110d7565b838361155a565b5050565b610b51610b4b6110d7565b83611198565b610b90576040517f08c379a0000000000000000000000000000000000000000000000000000000008152600401610b8790612bcf565b60405180910390fd5b610b9c848484846116c7565b50505050565b6060610bad8261108c565b6000600660008481526020019081526020016000208054610bcd90612ea6565b80601f0160208091040260200160405190810160405280929190818152602001828054610bf990612ea6565b8015610c465780601f10610c1b57610100808354040283529160200191610c46565b820191906000526020600020905b815481529060010190602001808311610c2957829003601f168201915b505050505090506000610c57611723565b9050600081511415610c6d578192505050610cb0565b600082511115610ca2578082604051602001610c8a92919061292e565b60405160208183030381529060405292505050610cb0565b610cab8461173a565b925050505b919050565b600060026007541415610cfd576040517f08c379a0000000000000000000000000000000000000000000000000000000008152600401610cf490612bef565b60405180910390fd5b6002600781905550610d0d61100e565b6000600a83604051610d1f9190612917565b9081526020016040518091039020604051602001610d3d9190612a0d565b604051602081830303815290604052805190602001201415610d5e57600080fd5b6000600b83604051610d709190612917565b90815260200160405180910390208054905011610d8c57600080fd5b60005b600b83604051610d9f9190612917565b908152602001604051809103902080549050811015610e4e576000600c84604051610dca9190612917565b9081526020016040518091039020600b85604051610de89190612917565b90815260200160405180910390208381548110610e0857610e07613010565b5b90600052602060002001604051610e1f9190612952565b90815260200160405180910390208054905011610e3b57600080fd5b8080610e4690612f09565b915050610d8f565b506000610e5b60096117a2565b9050610e6733826117b0565b610e71818461198a565b610e7b60096119fe565b809150506001600781905550919050565b6000600560008473ffffffffffffffffffffffffffffffffffffffff1673ffffffffffffffffffffffffffffffffffffffff16815260200190815260200160002060008373ffffffffffffffffffffffffffffffffffffffff1673ffffffffffffffffffffffffffffffffffffffff16815260200190815260200160002060009054906101000a900460ff16905092915050565b610f2861100e565b600073ffffffffffffffffffffffffffffffffffffffff168173ffffffffffffffffffffffffffffffffffffffff161415610f98576040517f08c379a0000000000000000000000000000000000000000000000000000000008152600401610f8f90612a4f565b60405180910390fd5b610fa181611494565b50565b60007f01ffc9a7000000000000000000000000000000000000000000000000000000007bffffffffffffffffffffffffffffffffffffffffffffffffffffffff1916827bffffffffffffffffffffffffffffffffffffffffffffffffffffffff1916149050919050565b6110166110d7565b73ffffffffffffffffffffffffffffffffffffffff16611034610a6e565b73ffffffffffffffffffffffffffffffffffffffff161461108a576040517f08c379a000000000000000000000000000000000000000000000000000000000815260040161108190612b6f565b60405180910390fd5b565b61109581611a14565b6110d4576040517f08c379a00000000000000000000000000000000000000000000000000000000081526004016110cb90612b8f565b60405180910390fd5b50565b600033905090565b816004600083815260200190815260200160002060006101000a81548173ffffffffffffffffffffffffffffffffffffffff021916908373ffffffffffffffffffffffffffffffffffffffff160217905550808273ffffffffffffffffffffffffffffffffffffffff1661115283610809565b73ffffffffffffffffffffffffffffffffffffffff167f8c5be1e5ebec7d5bd14f71427d1e84f3dd0314c0f7b2291e5b200ac8c7c3b92560405160405180910390a45050565b6000806111a483610809565b90508073ffffffffffffffffffffffffffffffffffffffff168473ffffffffffffffffffffffffffffffffffffffff1614806111e657506111e58185610e8c565b5b8061122457508373ffffffffffffffffffffffffffffffffffffffff1661120c846105ec565b73ffffffffffffffffffffffffffffffffffffffff16145b91505092915050565b8273ffffffffffffffffffffffffffffffffffffffff1661124d82610809565b73ffffffffffffffffffffffffffffffffffffffff16146112a3576040517f08c379a000000000000000000000000000000000000000000000000000000000815260040161129a90612a6f565b60405180910390fd5b600073ffffffffffffffffffffffffffffffffffffffff168273ffffffffffffffffffffffffffffffffffffffff161415611313576040517f08c379a000000000000000000000000000000000000000000000000000000000815260040161130a90612aaf565b60405180910390fd5b61131e838383611a80565b6113296000826110df565b6001600360008573ffffffffffffffffffffffffffffffffffffffff1673ffffffffffffffffffffffffffffffffffffffff16815260200190815260200160002060008282546113799190612dbc565b925050819055506001600360008473ffffffffffffffffffffffffffffffffffffffff1673ffffffffffffffffffffffffffffffffffffffff16815260200190815260200160002060008282546113d09190612d35565b92505081905550816002600083815260200190815260200160002060006101000a81548173ffffffffffffffffffffffffffffffffffffffff021916908373ffffffffffffffffffffffffffffffffffffffff160217905550808273ffffffffffffffffffffffffffffffffffffffff168473ffffffffffffffffffffffffffffffffffffffff167fddf252ad1be2c89b69c2b068fc378daa952ba7f163c4a11628f55a4df523b3ef60405160405180910390a461148f838383611a85565b505050565b6000600860009054906101000a900473ffffffffffffffffffffffffffffffffffffffff16905081600860006101000a81548173ffffffffffffffffffffffffffffffffffffffff021916908373ffffffffffffffffffffffffffffffffffffffff1602179055508173ffffffffffffffffffffffffffffffffffffffff168173ffffffffffffffffffffffffffffffffffffffff167f8be0079c531659141344cd1fd0a4f28419497f9722a3daafe3b4186f6b6457e060405160405180910390a35050565b8173ffffffffffffffffffffffffffffffffffffffff168373ffffffffffffffffffffffffffffffffffffffff1614156115c9576040517f08c379a00000000000000000000000000000000000000000000000000000000081526004016115c090612acf565b60405180910390fd5b80600560008573ffffffffffffffffffffffffffffffffffffffff1673ffffffffffffffffffffffffffffffffffffffff16815260200190815260200160002060008473ffffffffffffffffffffffffffffffffffffffff1673ffffffffffffffffffffffffffffffffffffffff16815260200190815260200160002060006101000a81548160ff0219169083151502179055508173ffffffffffffffffffffffffffffffffffffffff168373ffffffffffffffffffffffffffffffffffffffff167f17307eab39ab6107e8899845ad3d59bd9653f200f220920489ca2b5937696c31836040516116ba91906129d0565b60405180910390a3505050565b6116d284848461122d565b6116de84848484611a8a565b61171d576040517f08c379a000000000000000000000000000000000000000000000000000000000815260040161171490612a2f565b60405180910390fd5b50505050565b606060405180602001604052806000815250905090565b60606117458261108c565b600061174f611723565b9050600081511161176f576040518060200160405280600081525061179a565b8061177984611c21565b60405160200161178a92919061292e565b6040516020818303038152906040525b915050919050565b600081600001549050919050565b600073ffffffffffffffffffffffffffffffffffffffff168273ffffffffffffffffffffffffffffffffffffffff161415611820576040517f08c379a000000000000000000000000000000000000000000000000000000000815260040161181790612b4f565b60405180910390fd5b61182981611a14565b15611869576040517f08c379a000000000000000000000000000000000000000000000000000000000815260040161186090612a8f565b60405180910390fd5b61187560008383611a80565b6001600360008473ffffffffffffffffffffffffffffffffffffffff1673ffffffffffffffffffffffffffffffffffffffff16815260200190815260200160002060008282546118c59190612d35565b92505081905550816002600083815260200190815260200160002060006101000a81548173ffffffffffffffffffffffffffffffffffffffff021916908373ffffffffffffffffffffffffffffffffffffffff160217905550808273ffffffffffffffffffffffffffffffffffffffff16600073ffffffffffffffffffffffffffffffffffffffff167fddf252ad1be2c89b69c2b068fc378daa952ba7f163c4a11628f55a4df523b3ef60405160405180910390a461198660008383611a85565b5050565b61199382611a14565b6119d2576040517f08c379a00000000000000000000000000000000000000000000000000000000081526004016119c990612b0f565b60405180910390fd5b806006600084815260200190815260200160002090805190602001906119f9929190611e05565b505050565b6001816000016000828254019250508190555050565b60008073ffffffffffffffffffffffffffffffffffffffff166002600084815260200190815260200160002060009054906101000a900473ffffffffffffffffffffffffffffffffffffffff1673ffffffffffffffffffffffffffffffffffffffff1614159050919050565b505050565b505050565b6000611aab8473ffffffffffffffffffffffffffffffffffffffff16611d82565b15611c14578373ffffffffffffffffffffffffffffffffffffffff1663150b7a02611ad46110d7565b8786866040518563ffffffff1660e01b8152600401611af69493929190612984565b602060405180830381600087803b158015611b1057600080fd5b505af1925050508015611b4157506040513d601f19601f82011682018060405250810190611b3e9190612301565b60015b611bc4573d8060008114611b71576040519150601f19603f3d011682016040523d82523d6000602084013e611b76565b606091505b50600081511415611bbc576040517f08c379a0000000000000000000000000000000000000000000000000000000008152600401611bb390612a2f565b60405180910390fd5b805181602001fd5b63150b7a0260e01b7bffffffffffffffffffffffffffffffffffffffffffffffffffffffff1916817bffffffffffffffffffffffffffffffffffffffffffffffffffffffff191614915050611c19565b600190505b949350505050565b60606000821415611c69576040518060400160405280600181526020017f30000000000000000000000000000000000000000000000000000000000000008152509050611d7d565b600082905060005b60008214611c9b578080611c8490612f09565b915050600a82611c949190612d8b565b9150611c71565b60008167ffffffffffffffff811115611cb757611cb661303f565b5b6040519080825280601f01601f191660200182016040528015611ce95781602001600182028036833780820191505090505b5090505b60008514611d7657600182611d029190612dbc565b9150600a85611d119190612f52565b6030611d1d9190612d35565b60f81b818381518110611d3357611d32613010565b5b60200101907effffffffffffffffffffffffffffffffffffffffffffffffffffffffffffff1916908160001a905350600a85611d6f9190612d8b565b9450611ced565b8093505050505b919050565b6000808273ffffffffffffffffffffffffffffffffffffffff163b119050919050565b828054828255906000526020600020908101928215611df4579160200282015b82811115611df3578251829080519060200190611de3929190611e05565b5091602001919060010190611dc5565b5b509050611e019190611e8b565b5090565b828054611e1190612ea6565b90600052602060002090601f016020900481019282611e335760008555611e7a565b82601f10611e4c57805160ff1916838001178555611e7a565b82800160010185558215611e7a579182015b82811115611e79578251825591602001919060010190611e5e565b5b509050611e879190611eaf565b5090565b5b80821115611eab5760008181611ea29190611ecc565b50600101611e8c565b5090565b5b80821115611ec8576000816000905550600101611eb0565b5090565b508054611ed890612ea6565b6000825580601f10611eea5750611f09565b601f016020900490600052602060002090810190611f089190611eaf565b5b50565b6000611f1f611f1a84612c4f565b612c2a565b90508083825260208201905082856020860282011115611f4257611f41613073565b5b60005b85811015611f9057813567ffffffffffffffff811115611f6857611f6761306e565b5b808601611f7589826120ce565b85526020850194506020840193505050600181019050611f45565b5050509392505050565b6000611fad611fa884612c7b565b612c2a565b905082815260208101848484011115611fc957611fc8613078565b5b611fd4848285612e64565b509392505050565b6000611fef611fea84612cac565b612c2a565b90508281526020810184848401111561200b5761200a613078565b5b612016848285612e64565b509392505050565b60008135905061202d81613455565b92915050565b600082601f8301126120485761204761306e565b5b8135612058848260208601611f0c565b91505092915050565b6000813590506120708161346c565b92915050565b60008135905061208581613483565b92915050565b60008151905061209a81613483565b92915050565b600082601f8301126120b5576120b461306e565b5b81356120c5848260208601611f9a565b91505092915050565b600082601f8301126120e3576120e261306e565b5b81356120f3848260208601611fdc565b91505092915050565b60008135905061210b8161349a565b92915050565b60006020828403121561212757612126613082565b5b60006121358482850161201e565b91505092915050565b6000806040838503121561215557612154613082565b5b60006121638582860161201e565b92505060206121748582860161201e565b9150509250929050565b60008060006060848603121561219757612196613082565b5b60006121a58682870161201e565b93505060206121b68682870161201e565b92505060406121c7868287016120fc565b9150509250925092565b600080600080608085870312156121eb576121ea613082565b5b60006121f98782880161201e565b945050602061220a8782880161201e565b935050604061221b878288016120fc565b925050606085013567ffffffffffffffff81111561223c5761223b61307d565b5b612248878288016120a0565b91505092959194509250565b6000806040838503121561226b5761226a613082565b5b60006122798582860161201e565b925050602061228a85828601612061565b9150509250929050565b600080604083850312156122ab576122aa613082565b5b60006122b98582860161201e565b92505060206122ca858286016120fc565b9150509250929050565b6000602082840312156122ea576122e9613082565b5b60006122f884828501612076565b91505092915050565b60006020828403121561231757612316613082565b5b60006123258482850161208b565b91505092915050565b60006020828403121561234457612343613082565b5b600082013567ffffffffffffffff8111156123625761236161307d565b5b61236e848285016120ce565b91505092915050565b6000806040838503121561238e5761238d613082565b5b600083013567ffffffffffffffff8111156123ac576123ab61307d565b5b6123b8858286016120ce565b925050602083013567ffffffffffffffff8111156123d9576123d861307d565b5b6123e585828601612033565b9150509250929050565b6000806040838503121561240657612405613082565b5b600083013567ffffffffffffffff8111156124245761242361307d565b5b612430858286016120ce565b925050602083013567ffffffffffffffff8111156124515761245061307d565b5b61245d858286016120ce565b9150509250929050565b6000806000606084860312156124805761247f613082565b5b600084013567ffffffffffffffff81111561249e5761249d61307d565b5b6124aa868287016120ce565b935050602084013567ffffffffffffffff8111156124cb576124ca61307d565b5b6124d7868287016120ce565b925050604084013567ffffffffffffffff8111156124f8576124f761307d565b5b61250486828701612033565b9150509250925092565b60006020828403121561252457612523613082565b5b6000612532848285016120fc565b91505092915050565b61254481612df0565b82525050565b61255381612e02565b82525050565b600061256482612cf2565b61256e8185612d08565b935061257e818560208601612e73565b61258781613087565b840191505092915050565b600061259d82612cfd565b6125a78185612d19565b93506125b7818560208601612e73565b6125c081613087565b840191505092915050565b60006125d682612cfd565b6125e08185612d2a565b93506125f0818560208601612e73565b80840191505092915050565b6000815461260981612ea6565b6126138186612d19565b9450600182166000811461262e576001811461264057612673565b60ff1983168652602086019350612673565b61264985612cdd565b60005b8381101561266b5781548189015260018201915060208101905061264c565b808801955050505b50505092915050565b6000815461268981612ea6565b6126938186612d2a565b945060018216600081146126ae57600181146126bf576126f2565b60ff198316865281860193506126f2565b6126c885612cdd565b60005b838110156126ea578154818901526001820191506020810190506126cb565b838801955050505b50505092915050565b6000612708603283612d19565b915061271382613098565b604082019050919050565b600061272b602683612d19565b9150612736826130e7565b604082019050919050565b600061274e602583612d19565b915061275982613136565b604082019050919050565b6000612771601c83612d19565b915061277c82613185565b602082019050919050565b6000612794602483612d19565b915061279f826131ae565b604082019050919050565b60006127b7601983612d19565b91506127c2826131fd565b602082019050919050565b60006127da602983612d19565b91506127e582613226565b604082019050919050565b60006127fd602e83612d19565b915061280882613275565b604082019050919050565b6000612820603e83612d19565b915061282b826132c4565b604082019050919050565b6000612843602083612d19565b915061284e82613313565b602082019050919050565b6000612866602083612d19565b91506128718261333c565b602082019050919050565b6000612889601883612d19565b915061289482613365565b602082019050919050565b60006128ac602183612d19565b91506128b78261338e565b604082019050919050565b60006128cf602e83612d19565b91506128da826133dd565b604082019050919050565b60006128f2601f83612d19565b91506128fd8261342c565b602082019050919050565b61291181612e5a565b82525050565b600061292382846125cb565b915081905092915050565b600061293a82856125cb565b915061294682846125cb565b91508190509392505050565b600061295e828461267c565b915081905092915050565b600060208201905061297e600083018461253b565b92915050565b6000608082019050612999600083018761253b565b6129a6602083018661253b565b6129b36040830185612908565b81810360608301526129c58184612559565b905095945050505050565b60006020820190506129e5600083018461254a565b92915050565b60006020820190508181036000830152612a058184612592565b905092915050565b60006020820190508181036000830152612a2781846125fc565b905092915050565b60006020820190508181036000830152612a48816126fb565b9050919050565b60006020820190508181036000830152612a688161271e565b9050919050565b60006020820190508181036000830152612a8881612741565b9050919050565b60006020820190508181036000830152612aa881612764565b9050919050565b60006020820190508181036000830152612ac881612787565b9050919050565b60006020820190508181036000830152612ae8816127aa565b9050919050565b60006020820190508181036000830152612b08816127cd565b9050919050565b60006020820190508181036000830152612b28816127f0565b9050919050565b60006020820190508181036000830152612b4881612813565b9050919050565b60006020820190508181036000830152612b6881612836565b9050919050565b60006020820190508181036000830152612b8881612859565b9050919050565b60006020820190508181036000830152612ba88161287c565b9050919050565b60006020820190508181036000830152612bc88161289f565b9050919050565b60006020820190508181036000830152612be8816128c2565b9050919050565b60006020820190508181036000830152612c08816128e5565b9050919050565b6000602082019050612c246000830184612908565b92915050565b6000612c34612c45565b9050612c408282612ed8565b919050565b6000604051905090565b600067ffffffffffffffff821115612c6a57612c6961303f565b5b602082029050602081019050919050565b600067ffffffffffffffff821115612c9657612c9561303f565b5b612c9f82613087565b9050602081019050919050565b600067ffffffffffffffff821115612cc757612cc661303f565b5b612cd082613087565b9050602081019050919050565b60008190508160005260206000209050919050565b600081519050919050565b600081519050919050565b600082825260208201905092915050565b600082825260208201905092915050565b600081905092915050565b6000612d4082612e5a565b9150612d4b83612e5a565b9250827fffffffffffffffffffffffffffffffffffffffffffffffffffffffffffffffff03821115612d8057612d7f612f83565b5b828201905092915050565b6000612d9682612e5a565b9150612da183612e5a565b925082612db157612db0612fb2565b5b828204905092915050565b6000612dc782612e5a565b9150612dd283612e5a565b925082821015612de557612de4612f83565b5b828203905092915050565b6000612dfb82612e3a565b9050919050565b60008115159050919050565b60007fffffffff0000000000000000000000000000000000000000000000000000000082169050919050565b600073ffffffffffffffffffffffffffffffffffffffff82169050919050565b6000819050919050565b82818337600083830152505050565b60005b83811015612e91578082015181840152602081019050612e76565b83811115612ea0576000848401525b50505050565b60006002820490506001821680612ebe57607f821691505b60208210811415612ed257612ed1612fe1565b5b50919050565b612ee182613087565b810181811067ffffffffffffffff82111715612f0057612eff61303f565b5b80604052505050565b6000612f1482612e5a565b91507fffffffffffffffffffffffffffffffffffffffffffffffffffffffffffffffff821415612f4757612f46612f83565b5b600182019050919050565b6000612f5d82612e5a565b9150612f6883612e5a565b925082612f7857612f77612fb2565b5b828206905092915050565b7f4e487b7100000000000000000000000000000000000000000000000000000000600052601160045260246000fd5b7f4e487b7100000000000000000000000000000000000000000000000000000000600052601260045260246000fd5b7f4e487b7100000000000000000000000000000000000000000000000000000000600052602260045260246000fd5b7f4e487b7100000000000000000000000000000000000000000000000000000000600052603260045260246000fd5b7f4e487b7100000000000000000000000000000000000000000000000000000000600052604160045260246000fd5b600080fd5b600080fd5b600080fd5b600080fd5b600080fd5b6000601f19601f8301169050919050565b7f4552433732313a207472616e7366657220746f206e6f6e20455243373231526560008201527f63656976657220696d706c656d656e7465720000000000000000000000000000602082015250565b7f4f776e61626c653a206e6577206f776e657220697320746865207a65726f206160008201527f6464726573730000000000000000000000000000000000000000000000000000602082015250565b7f4552433732313a207472616e736665722066726f6d20696e636f72726563742060008201527f6f776e6572000000000000000000000000000000000000000000000000000000602082015250565b7f4552433732313a20746f6b656e20616c7265616479206d696e74656400000000600082015250565b7f4552433732313a207472616e7366657220746f20746865207a65726f2061646460008201527f7265737300000000000000000000000000000000000000000000000000000000602082015250565b7f4552433732313a20617070726f766520746f2063616c6c657200000000000000600082015250565b7f4552433732313a2061646472657373207a65726f206973206e6f74206120766160008201527f6c6964206f776e65720000000000000000000000000000000000000000000000602082015250565b7f45524337323155524953746f726167653a2055524920736574206f66206e6f6e60008201527f6578697374656e7420746f6b656e000000000000000000000000000000000000602082015250565b7f4552433732313a20617070726f76652063616c6c6572206973206e6f7420746f60008201527f6b656e206f776e6572206e6f7220617070726f76656420666f7220616c6c0000602082015250565b7f4552433732313a206d696e7420746f20746865207a65726f2061646472657373600082015250565b7f4f776e61626c653a2063616c6c6572206973206e6f7420746865206f776e6572600082015250565b7f4552433732313a20696e76616c696420746f6b656e2049440000000000000000600082015250565b7f4552433732313a20617070726f76616c20746f2063757272656e74206f776e6560008201527f7200000000000000000000000000000000000000000000000000000000000000602082015250565b7f4552433732313a2063616c6c6572206973206e6f7420746f6b656e206f776e6560008201527f72206e6f7220617070726f766564000000000000000000000000000000000000602082015250565b7f5265656e7472616e637947756172643a207265656e7472616e742063616c6c00600082015250565b61345e81612df0565b811461346957600080fd5b50565b61347581612e02565b811461348057600080fd5b50565b61348c81612e0e565b811461349757600080fd5b50565b6134a381612e5a565b81146134ae57600080fd5b5056fea2646970667358221220b1a6ba5636804e2aca31608b287938cdfe453febd48c1d4722351dd65a6858a664736f6c63430008060033",
  "immutableReferences": {},
  "source": "// SPDX-License-Identifier: MIT\npragma solidity ^0.8.6;\n\nimport \"@openzeppelin/contracts/token/ERC721/extensions/ERC721URIStorage.sol\";\nimport \"@openzeppelin/contracts/utils/Counters.sol\";\nimport \"@openzeppelin/contracts/security/ReentrancyGuard.sol\";\nimport \"@openzeppelin/contracts/access/Ownable.sol\";\n\ncontract FunctionFactory is ERC721URIStorage, ReentrancyGuard, Ownable {\n\n        // token id\n        using Counters for Counters.Counter;\n        Counters.Counter private _counter;\n\n        // function => code\n        mapping(string => string) private _codes;\n\n        // function => attribute names\n        mapping(string => string[]) private _params;\n\n        // function => attribute => possible values\n        mapping(string => mapping(string => string[])) _values;\n\n        constructor() ERC721(\"FunctionFactory\", \"FF\") {}\n\n        function setCode(string memory func, string memory code) public {\n                _codes[func] = code;\n        }\n\n        function getCode(string memory func) public view returns (string memory) {\n                return _codes[func];\n        }\n\n        function setParams(string memory func, string[] memory params) public onlyOwner {\n                _params[func] = params;\n        }\n\n        function setValues(string memory func, string memory param, string[] memory values) public onlyOwner {\n                _values[func][param] = values;\n        }\n\n        function mint(string memory func) public nonReentrant onlyOwner returns (uint256) {\n\n                // make sure it's all set up\n                require(keccak256(abi.encode(_codes[func])) != \"\");\n                require(_params[func].length > 0);\n                for (uint256 i = 0; i < _params[func].length; i++) {\n                        require(_values[func][_params[func][i]].length >0);\n                }\n\n                // mint a new Functional NFT\n                // TODO\n\n\n                // mint\n                uint256 id = _counter.current();\n                _mint(msg.sender, id);\n                _setTokenURI(id, func);\n                _counter.increment();\n                return id;\n        }\n\n}\n",
  "sourcePath": "/Users/autonomous/code/rove/3df/contracts/Factory.sol",
  "compiler": {
    "name": "solc",
    "version": "0.8.6+commit.11564f7e.Emscripten.clang"
  },
  "schemaVersion": "3.4.4",
  "updatedAt": "2022-09-20T03:30:17.230Z",
  "devdoc": {
    "kind": "dev",
    "methods": {
      "approve(address,uint256)": {
        "details": "See {IERC721-approve}."
      },
      "balanceOf(address)": {
        "details": "See {IERC721-balanceOf}."
      },
      "getApproved(uint256)": {
        "details": "See {IERC721-getApproved}."
      },
      "isApprovedForAll(address,address)": {
        "details": "See {IERC721-isApprovedForAll}."
      },
      "name()": {
        "details": "See {IERC721Metadata-name}."
      },
      "owner()": {
        "details": "Returns the address of the current owner."
      },
      "ownerOf(uint256)": {
        "details": "See {IERC721-ownerOf}."
      },
      "renounceOwnership()": {
        "details": "Leaves the contract without owner. It will not be possible to call `onlyOwner` functions anymore. Can only be called by the current owner. NOTE: Renouncing ownership will leave the contract without an owner, thereby removing any functionality that is only available to the owner."
      },
      "safeTransferFrom(address,address,uint256)": {
        "details": "See {IERC721-safeTransferFrom}."
      },
      "safeTransferFrom(address,address,uint256,bytes)": {
        "details": "See {IERC721-safeTransferFrom}."
      },
      "setApprovalForAll(address,bool)": {
        "details": "See {IERC721-setApprovalForAll}."
      },
      "supportsInterface(bytes4)": {
        "details": "See {IERC165-supportsInterface}."
      },
      "symbol()": {
        "details": "See {IERC721Metadata-symbol}."
      },
      "tokenURI(uint256)": {
        "details": "See {IERC721Metadata-tokenURI}."
      },
      "transferFrom(address,address,uint256)": {
        "details": "See {IERC721-transferFrom}."
      },
      "transferOwnership(address)": {
        "details": "Transfers ownership of the contract to a new account (`newOwner`). Can only be called by the current owner."
      }
    },
    "version": 1
  },
  "userdoc": {
    "kind": "user",
    "methods": {},
    "version": 1
  }
}