{
  "contractName": "Function",
  "abi": [
    {
      "inputs": [
        {
          "internalType": "string",
          "name": "name",
          "type": "string"
        },
        {
          "internalType": "string",
          "name": "symbol",
          "type": "string"
        },
        {
          "internalType": "string",
          "name": "code",
          "type": "string"
        }
      ],
      "stateMutability": "nonpayable",
      "type": "constructor"
    },
    {
      "anonymous": false,
      "inputs": [
        {
          "indexed": true,
          "internalType": "address",
          "name": "owner",
          "type": "address"
        },
        {
          "indexed": true,
          "internalType": "address",
          "name": "approved",
          "type": "address"
        },
        {
          "indexed": true,
          "internalType": "uint256",
          "name": "tokenId",
          "type": "uint256"
        }
      ],
      "name": "Approval",
      "type": "event"
    },
    {
      "anonymous": false,
      "inputs": [
        {
          "indexed": true,
          "internalType": "address",
          "name": "owner",
          "type": "address"
        },
        {
          "indexed": true,
          "internalType": "address",
          "name": "operator",
          "type": "address"
        },
        {
          "indexed": false,
          "internalType": "bool",
          "name": "approved",
          "type": "bool"
        }
      ],
      "name": "ApprovalForAll",
      "type": "event"
    },
    {
      "anonymous": false,
      "inputs": [
        {
          "indexed": true,
          "internalType": "address",
          "name": "previousOwner",
          "type": "address"
        },
        {
          "indexed": true,
          "internalType": "address",
          "name": "newOwner",
          "type": "address"
        }
      ],
      "name": "OwnershipTransferred",
      "type": "event"
    },
    {
      "anonymous": false,
      "inputs": [
        {
          "indexed": true,
          "internalType": "address",
          "name": "from",
          "type": "address"
        },
        {
          "indexed": true,
          "internalType": "address",
          "name": "to",
          "type": "address"
        },
        {
          "indexed": true,
          "internalType": "uint256",
          "name": "tokenId",
          "type": "uint256"
        }
      ],
      "name": "Transfer",
      "type": "event"
    },
    {
      "inputs": [
        {
          "internalType": "address",
          "name": "to",
          "type": "address"
        },
        {
          "internalType": "uint256",
          "name": "tokenId",
          "type": "uint256"
        }
      ],
      "name": "approve",
      "outputs": [],
      "stateMutability": "nonpayable",
      "type": "function"
    },
    {
      "inputs": [
        {
          "internalType": "address",
          "name": "owner",
          "type": "address"
        }
      ],
      "name": "balanceOf",
      "outputs": [
        {
          "internalType": "uint256",
          "name": "",
          "type": "uint256"
        }
      ],
      "stateMutability": "view",
      "type": "function"
    },
    {
      "inputs": [
        {
          "internalType": "uint256",
          "name": "tokenId",
          "type": "uint256"
        }
      ],
      "name": "getApproved",
      "outputs": [
        {
          "internalType": "address",
          "name": "",
          "type": "address"
        }
      ],
      "stateMutability": "view",
      "type": "function"
    },
    {
      "inputs": [
        {
          "internalType": "address",
          "name": "owner",
          "type": "address"
        },
        {
          "internalType": "address",
          "name": "operator",
          "type": "address"
        }
      ],
      "name": "isApprovedForAll",
      "outputs": [
        {
          "internalType": "bool",
          "name": "",
          "type": "bool"
        }
      ],
      "stateMutability": "view",
      "type": "function"
    },
    {
      "inputs": [],
      "name": "name",
      "outputs": [
        {
          "internalType": "string",
          "name": "",
          "type": "string"
        }
      ],
      "stateMutability": "view",
      "type": "function"
    },
    {
      "inputs": [],
      "name": "owner",
      "outputs": [
        {
          "internalType": "address",
          "name": "",
          "type": "address"
        }
      ],
      "stateMutability": "view",
      "type": "function"
    },
    {
      "inputs": [
        {
          "internalType": "uint256",
          "name": "tokenId",
          "type": "uint256"
        }
      ],
      "name": "ownerOf",
      "outputs": [
        {
          "internalType": "address",
          "name": "",
          "type": "address"
        }
      ],
      "stateMutability": "view",
      "type": "function"
    },
    {
      "inputs": [],
      "name": "renounceOwnership",
      "outputs": [],
      "stateMutability": "nonpayable",
      "type": "function"
    },
    {
      "inputs": [
        {
          "internalType": "address",
          "name": "from",
          "type": "address"
        },
        {
          "internalType": "address",
          "name": "to",
          "type": "address"
        },
        {
          "internalType": "uint256",
          "name": "tokenId",
          "type": "uint256"
        }
      ],
      "name": "safeTransferFrom",
      "outputs": [],
      "stateMutability": "nonpayable",
      "type": "function"
    },
    {
      "inputs": [
        {
          "internalType": "address",
          "name": "from",
          "type": "address"
        },
        {
          "internalType": "address",
          "name": "to",
          "type": "address"
        },
        {
          "internalType": "uint256",
          "name": "tokenId",
          "type": "uint256"
        },
        {
          "internalType": "bytes",
          "name": "data",
          "type": "bytes"
        }
      ],
      "name": "safeTransferFrom",
      "outputs": [],
      "stateMutability": "nonpayable",
      "type": "function"
    },
    {
      "inputs": [
        {
          "internalType": "address",
          "name": "operator",
          "type": "address"
        },
        {
          "internalType": "bool",
          "name": "approved",
          "type": "bool"
        }
      ],
      "name": "setApprovalForAll",
      "outputs": [],
      "stateMutability": "nonpayable",
      "type": "function"
    },
    {
      "inputs": [
        {
          "internalType": "bytes4",
          "name": "interfaceId",
          "type": "bytes4"
        }
      ],
      "name": "supportsInterface",
      "outputs": [
        {
          "internalType": "bool",
          "name": "",
          "type": "bool"
        }
      ],
      "stateMutability": "view",
      "type": "function"
    },
    {
      "inputs": [],
      "name": "symbol",
      "outputs": [
        {
          "internalType": "string",
          "name": "",
          "type": "string"
        }
      ],
      "stateMutability": "view",
      "type": "function"
    },
    {
      "inputs": [
        {
          "internalType": "uint256",
          "name": "tokenId",
          "type": "uint256"
        }
      ],
      "name": "tokenURI",
      "outputs": [
        {
          "internalType": "string",
          "name": "",
          "type": "string"
        }
      ],
      "stateMutability": "view",
      "type": "function"
    },
    {
      "inputs": [
        {
          "internalType": "address",
          "name": "from",
          "type": "address"
        },
        {
          "internalType": "address",
          "name": "to",
          "type": "address"
        },
        {
          "internalType": "uint256",
          "name": "tokenId",
          "type": "uint256"
        }
      ],
      "name": "transferFrom",
      "outputs": [],
      "stateMutability": "nonpayable",
      "type": "function"
    },
    {
      "inputs": [
        {
          "internalType": "address",
          "name": "newOwner",
          "type": "address"
        }
      ],
      "name": "transferOwnership",
      "outputs": [],
      "stateMutability": "nonpayable",
      "type": "function"
    },
    {
      "inputs": [],
      "name": "getCode",
      "outputs": [
        {
          "internalType": "string",
          "name": "",
          "type": "string"
        }
      ],
      "stateMutability": "view",
      "type": "function"
    },
    {
      "inputs": [
        {
          "internalType": "string",
          "name": "attr",
          "type": "string"
        },
        {
          "internalType": "string[]",
          "name": "values",
          "type": "string[]"
        }
      ],
      "name": "setValues",
      "outputs": [],
      "stateMutability": "nonpayable",
      "type": "function"
    },
    {
      "inputs": [
        {
          "internalType": "uint256",
          "name": "id",
          "type": "uint256"
        },
        {
          "internalType": "string",
          "name": "attribute",
          "type": "string"
        }
      ],
      "name": "getAttribute",
      "outputs": [
        {
          "internalType": "string",
          "name": "",
          "type": "string"
        }
      ],
      "stateMutability": "view",
      "type": "function"
    },
    {
      "inputs": [],
      "name": "mint",
      "outputs": [
        {
          "internalType": "uint256",
          "name": "",
          "type": "uint256"
        }
      ],
      "stateMutability": "nonpayable",
      "type": "function"
    }
  ],
  "bytecode": "0x60806040523480156200001157600080fd5b5060405162003a0238038062003a028339818101604052810190620000379190620002b3565b828281600090805190602001906200005192919062000185565b5080600190805190602001906200006a92919062000185565b50505060016007819055506200009562000089620000b760201b60201c565b620000bf60201b60201c565b80600a9080519060200190620000ad92919062000185565b50505050620004f0565b600033905090565b6000600860009054906101000a900473ffffffffffffffffffffffffffffffffffffffff16905081600860006101000a81548173ffffffffffffffffffffffffffffffffffffffff021916908373ffffffffffffffffffffffffffffffffffffffff1602179055508173ffffffffffffffffffffffffffffffffffffffff168173ffffffffffffffffffffffffffffffffffffffff167f8be0079c531659141344cd1fd0a4f28419497f9722a3daafe3b4186f6b6457e060405160405180910390a35050565b828054620001939062000401565b90600052602060002090601f016020900481019282620001b7576000855562000203565b82601f10620001d257805160ff191683800117855562000203565b8280016001018555821562000203579182015b8281111562000202578251825591602001919060010190620001e5565b5b50905062000212919062000216565b5090565b5b808211156200023157600081600090555060010162000217565b5090565b60006200024c620002468462000395565b6200036c565b9050828152602081018484840111156200026b576200026a620004d0565b5b62000278848285620003cb565b509392505050565b600082601f830112620002985762000297620004cb565b5b8151620002aa84826020860162000235565b91505092915050565b600080600060608486031215620002cf57620002ce620004da565b5b600084015167ffffffffffffffff811115620002f057620002ef620004d5565b5b620002fe8682870162000280565b935050602084015167ffffffffffffffff811115620003225762000321620004d5565b5b620003308682870162000280565b925050604084015167ffffffffffffffff811115620003545762000353620004d5565b5b620003628682870162000280565b9150509250925092565b6000620003786200038b565b905062000386828262000437565b919050565b6000604051905090565b600067ffffffffffffffff821115620003b357620003b26200049c565b5b620003be82620004df565b9050602081019050919050565b60005b83811015620003eb578082015181840152602081019050620003ce565b83811115620003fb576000848401525b50505050565b600060028204905060018216806200041a57607f821691505b602082108114156200043157620004306200046d565b5b50919050565b6200044282620004df565b810181811067ffffffffffffffff821117156200046457620004636200049c565b5b80604052505050565b7f4e487b7100000000000000000000000000000000000000000000000000000000600052602260045260246000fd5b7f4e487b7100000000000000000000000000000000000000000000000000000000600052604160045260246000fd5b600080fd5b600080fd5b600080fd5b600080fd5b6000601f19601f8301169050919050565b61350280620005006000396000f3fe608060405234801561001057600080fd5b506004361061012c5760003560e01c80638da5cb5b116100ad578063e985e9c511610071578063e985e9c51461032f578063ea8796341461035f578063eaf1c6d31461037d578063f2fde38b146103ad578063ffd7e643146103c95761012c565b80638da5cb5b1461028b57806395d89b41146102a9578063a22cb465146102c7578063b88d4fde146102e3578063c87b56dd146102ff5761012c565b806323b872dd116100f457806323b872dd146101e957806342842e0e146102055780636352211e1461022157806370a0823114610251578063715018a6146102815761012c565b806301ffc9a71461013157806306fdde0314610161578063081812fc1461017f578063095ea7b3146101af5780631249c58b146101cb575b600080fd5b61014b600480360381019061014691906123f7565b6103e5565b60405161015891906129d2565b60405180910390f35b6101696104c7565b60405161017691906129ed565b60405180910390f35b610199600480360381019061019491906124c9565b610559565b6040516101a6919061296b565b60405180910390f35b6101c960048036038101906101c491906123b7565b61059f565b005b6101d36106b7565b6040516101e09190612bef565b60405180910390f35b61020360048036038101906101fe91906122a1565b61074a565b005b61021f600480360381019061021a91906122a1565b6107aa565b005b61023b600480360381019061023691906124c9565b6107ca565b604051610248919061296b565b60405180910390f35b61026b60048036038101906102669190612234565b61087c565b6040516102789190612bef565b60405180910390f35b610289610934565b005b610293610948565b6040516102a0919061296b565b60405180910390f35b6102b1610972565b6040516102be91906129ed565b60405180910390f35b6102e160048036038101906102dc9190612377565b610a04565b005b6102fd60048036038101906102f891906122f4565b610a1a565b005b610319600480360381019061031491906124c9565b610a7c565b60405161032691906129ed565b60405180910390f35b61034960048036038101906103449190612261565b610b8f565b60405161035691906129d2565b60405180910390f35b610367610c23565b60405161037491906129ed565b60405180910390f35b610397600480360381019061039291906124f6565b610cb5565b6040516103a491906129ed565b60405180910390f35b6103c760048036038101906103c29190612234565b610d77565b005b6103e360048036038101906103de9190612451565b610dfb565b005b60007f80ac58cd000000000000000000000000000000000000000000000000000000007bffffffffffffffffffffffffffffffffffffffffffffffffffffffff1916827bffffffffffffffffffffffffffffffffffffffffffffffffffffffff191614806104b057507f5b5e139f000000000000000000000000000000000000000000000000000000007bffffffffffffffffffffffffffffffffffffffffffffffffffffffff1916827bffffffffffffffffffffffffffffffffffffffffffffffffffffffff1916145b806104c057506104bf82610e3a565b5b9050919050565b6060600080546104d690612e86565b80601f016020809104026020016040519081016040528092919081815260200182805461050290612e86565b801561054f5780601f106105245761010080835404028352916020019161054f565b820191906000526020600020905b81548152906001019060200180831161053257829003601f168201915b5050505050905090565b600061056482610ea4565b6004600083815260200190815260200160002060009054906101000a900473ffffffffffffffffffffffffffffffffffffffff169050919050565b60006105aa826107ca565b90508073ffffffffffffffffffffffffffffffffffffffff168373ffffffffffffffffffffffffffffffffffffffff16141561061b576040517f08c379a000000000000000000000000000000000000000000000000000000000815260040161061290612b8f565b60405180910390fd5b8073ffffffffffffffffffffffffffffffffffffffff1661063a610eef565b73ffffffffffffffffffffffffffffffffffffffff161480610669575061066881610663610eef565b610b8f565b5b6106a8576040517f08c379a000000000000000000000000000000000000000000000000000000000815260040161069f90612b0f565b60405180910390fd5b6106b28383610ef7565b505050565b6000600260075414156106ff576040517f08c379a00000000000000000000000000000000000000000000000000000000081526004016106f690612bcf565b60405180910390fd5b600260078190555060006107136009610fb0565b905061071f3382610fbe565b6107318161072c83611198565b61139a565b61073b600961140e565b80915050600160078190555090565b61075b610755610eef565b82611424565b61079a576040517f08c379a000000000000000000000000000000000000000000000000000000000815260040161079190612baf565b60405180910390fd5b6107a58383836114b9565b505050565b6107c583838360405180602001604052806000815250610a1a565b505050565b6000806002600084815260200190815260200160002060009054906101000a900473ffffffffffffffffffffffffffffffffffffffff169050600073ffffffffffffffffffffffffffffffffffffffff168173ffffffffffffffffffffffffffffffffffffffff161415610873576040517f08c379a000000000000000000000000000000000000000000000000000000000815260040161086a90612b6f565b60405180910390fd5b80915050919050565b60008073ffffffffffffffffffffffffffffffffffffffff168273ffffffffffffffffffffffffffffffffffffffff1614156108ed576040517f08c379a00000000000000000000000000000000000000000000000000000000081526004016108e490612acf565b60405180910390fd5b600360008373ffffffffffffffffffffffffffffffffffffffff1673ffffffffffffffffffffffffffffffffffffffff168152602001908152602001600020549050919050565b61093c611720565b610946600061179e565b565b6000600860009054906101000a900473ffffffffffffffffffffffffffffffffffffffff16905090565b60606001805461098190612e86565b80601f01602080910402602001604051908101604052809291908181526020018280546109ad90612e86565b80156109fa5780601f106109cf576101008083540402835291602001916109fa565b820191906000526020600020905b8154815290600101906020018083116109dd57829003601f168201915b5050505050905090565b610a16610a0f610eef565b8383611864565b5050565b610a2b610a25610eef565b83611424565b610a6a576040517f08c379a0000000000000000000000000000000000000000000000000000000008152600401610a6190612baf565b60405180910390fd5b610a76848484846119d1565b50505050565b6060610a8782610ea4565b6000600660008481526020019081526020016000208054610aa790612e86565b80601f0160208091040260200160405190810160405280929190818152602001828054610ad390612e86565b8015610b205780601f10610af557610100808354040283529160200191610b20565b820191906000526020600020905b815481529060010190602001808311610b0357829003601f168201915b505050505090506000610b31611a2d565b9050600081511415610b47578192505050610b8a565b600082511115610b7c578082604051602001610b649291906128f3565b60405160208183030381529060405292505050610b8a565b610b8584611a44565b925050505b919050565b6000600560008473ffffffffffffffffffffffffffffffffffffffff1673ffffffffffffffffffffffffffffffffffffffff16815260200190815260200160002060008373ffffffffffffffffffffffffffffffffffffffff1673ffffffffffffffffffffffffffffffffffffffff16815260200190815260200160002060009054906101000a900460ff16905092915050565b6060600a8054610c3290612e86565b80601f0160208091040260200160405190810160405280929190818152602001828054610c5e90612e86565b8015610cab5780601f10610c8057610100808354040283529160200191610cab565b820191906000526020600020905b815481529060010190602001808311610c8e57829003601f168201915b5050505050905090565b6060600d600084815260200190815260200160002082604051610cd891906128dc565b90815260200160405180910390208054610cf190612e86565b80601f0160208091040260200160405190810160405280929190818152602001828054610d1d90612e86565b8015610d6a5780601f10610d3f57610100808354040283529160200191610d6a565b820191906000526020600020905b815481529060010190602001808311610d4d57829003601f168201915b5050505050905092915050565b610d7f611720565b600073ffffffffffffffffffffffffffffffffffffffff168173ffffffffffffffffffffffffffffffffffffffff161415610def576040517f08c379a0000000000000000000000000000000000000000000000000000000008152600401610de690612a2f565b60405180910390fd5b610df88161179e565b50565b610e03611720565b80600c83604051610e1491906128dc565b90815260200160405180910390209080519060200190610e35929190611ec8565b505050565b60007f01ffc9a7000000000000000000000000000000000000000000000000000000007bffffffffffffffffffffffffffffffffffffffffffffffffffffffff1916827bffffffffffffffffffffffffffffffffffffffffffffffffffffffff1916149050919050565b610ead81611aac565b610eec576040517f08c379a0000000000000000000000000000000000000000000000000000000008152600401610ee390612b6f565b60405180910390fd5b50565b600033905090565b816004600083815260200190815260200160002060006101000a81548173ffffffffffffffffffffffffffffffffffffffff021916908373ffffffffffffffffffffffffffffffffffffffff160217905550808273ffffffffffffffffffffffffffffffffffffffff16610f6a836107ca565b73ffffffffffffffffffffffffffffffffffffffff167f8c5be1e5ebec7d5bd14f71427d1e84f3dd0314c0f7b2291e5b200ac8c7c3b92560405160405180910390a45050565b600081600001549050919050565b600073ffffffffffffffffffffffffffffffffffffffff168273ffffffffffffffffffffffffffffffffffffffff16141561102e576040517f08c379a000000000000000000000000000000000000000000000000000000000815260040161102590612b2f565b60405180910390fd5b61103781611aac565b15611077576040517f08c379a000000000000000000000000000000000000000000000000000000000815260040161106e90612a6f565b60405180910390fd5b61108360008383611b18565b6001600360008473ffffffffffffffffffffffffffffffffffffffff1673ffffffffffffffffffffffffffffffffffffffff16815260200190815260200160002060008282546110d39190612d15565b92505081905550816002600083815260200190815260200160002060006101000a81548173ffffffffffffffffffffffffffffffffffffffff021916908373ffffffffffffffffffffffffffffffffffffffff160217905550808273ffffffffffffffffffffffffffffffffffffffff16600073ffffffffffffffffffffffffffffffffffffffff167fddf252ad1be2c89b69c2b068fc378daa952ba7f163c4a11628f55a4df523b3ef60405160405180910390a461119460008383611b1d565b5050565b60608060005b600b80549050811015611390576000600b82815481106111c1576111c061301e565b5b90600052602060002001905060006111f9600c836040516111e29190612917565b908152602001604051809103902080549050611b22565b90506000600c8360405161120d9190612917565b9081526020016040518091039020828154811061122d5761122c61301e565b5b90600052602060002001805461124290612e86565b80601f016020809104026020016040519081016040528092919081815260200182805461126e90612e86565b80156112bb5780601f10611290576101008083540402835291602001916112bb565b820191906000526020600020905b81548152906001019060200180831161129e57829003601f168201915b50505050509050611356878480546112d290612e86565b80601f01602080910402602001604051908101604052809291908181526020018280546112fe90612e86565b801561134b5780601f106113205761010080835404028352916020019161134b565b820191906000526020600020905b81548152906001019060200180831161132e57829003601f168201915b505050505083611b64565b84816040516020016113699291906128f3565b6040516020818303038152906040529450505050808061138890612ee9565b91505061119e565b5080915050919050565b6113a382611aac565b6113e2576040517f08c379a00000000000000000000000000000000000000000000000000000000081526004016113d990612aef565b60405180910390fd5b80600660008481526020019081526020016000209080519060200190611409929190611f28565b505050565b6001816000016000828254019250508190555050565b600080611430836107ca565b90508073ffffffffffffffffffffffffffffffffffffffff168473ffffffffffffffffffffffffffffffffffffffff16148061147257506114718185610b8f565b5b806114b057508373ffffffffffffffffffffffffffffffffffffffff1661149884610559565b73ffffffffffffffffffffffffffffffffffffffff16145b91505092915050565b8273ffffffffffffffffffffffffffffffffffffffff166114d9826107ca565b73ffffffffffffffffffffffffffffffffffffffff161461152f576040517f08c379a000000000000000000000000000000000000000000000000000000000815260040161152690612a4f565b60405180910390fd5b600073ffffffffffffffffffffffffffffffffffffffff168273ffffffffffffffffffffffffffffffffffffffff16141561159f576040517f08c379a000000000000000000000000000000000000000000000000000000000815260040161159690612a8f565b60405180910390fd5b6115aa838383611b18565b6115b5600082610ef7565b6001600360008573ffffffffffffffffffffffffffffffffffffffff1673ffffffffffffffffffffffffffffffffffffffff16815260200190815260200160002060008282546116059190612d9c565b925050819055506001600360008473ffffffffffffffffffffffffffffffffffffffff1673ffffffffffffffffffffffffffffffffffffffff168152602001908152602001600020600082825461165c9190612d15565b92505081905550816002600083815260200190815260200160002060006101000a81548173ffffffffffffffffffffffffffffffffffffffff021916908373ffffffffffffffffffffffffffffffffffffffff160217905550808273ffffffffffffffffffffffffffffffffffffffff168473ffffffffffffffffffffffffffffffffffffffff167fddf252ad1be2c89b69c2b068fc378daa952ba7f163c4a11628f55a4df523b3ef60405160405180910390a461171b838383611b1d565b505050565b611728610eef565b73ffffffffffffffffffffffffffffffffffffffff16611746610948565b73ffffffffffffffffffffffffffffffffffffffff161461179c576040517f08c379a000000000000000000000000000000000000000000000000000000000815260040161179390612b4f565b60405180910390fd5b565b6000600860009054906101000a900473ffffffffffffffffffffffffffffffffffffffff16905081600860006101000a81548173ffffffffffffffffffffffffffffffffffffffff021916908373ffffffffffffffffffffffffffffffffffffffff1602179055508173ffffffffffffffffffffffffffffffffffffffff168173ffffffffffffffffffffffffffffffffffffffff167f8be0079c531659141344cd1fd0a4f28419497f9722a3daafe3b4186f6b6457e060405160405180910390a35050565b8173ffffffffffffffffffffffffffffffffffffffff168373ffffffffffffffffffffffffffffffffffffffff1614156118d3576040517f08c379a00000000000000000000000000000000000000000000000000000000081526004016118ca90612aaf565b60405180910390fd5b80600560008573ffffffffffffffffffffffffffffffffffffffff1673ffffffffffffffffffffffffffffffffffffffff16815260200190815260200160002060008473ffffffffffffffffffffffffffffffffffffffff1673ffffffffffffffffffffffffffffffffffffffff16815260200190815260200160002060006101000a81548160ff0219169083151502179055508173ffffffffffffffffffffffffffffffffffffffff168373ffffffffffffffffffffffffffffffffffffffff167f17307eab39ab6107e8899845ad3d59bd9653f200f220920489ca2b5937696c31836040516119c491906129d2565b60405180910390a3505050565b6119dc8484846114b9565b6119e884848484611bad565b611a27576040517f08c379a0000000000000000000000000000000000000000000000000000000008152600401611a1e90612a0f565b60405180910390fd5b50505050565b606060405180602001604052806000815250905090565b6060611a4f82610ea4565b6000611a59611a2d565b90506000815111611a795760405180602001604052806000815250611aa4565b80611a8384611d44565b604051602001611a949291906128f3565b6040516020818303038152906040525b915050919050565b60008073ffffffffffffffffffffffffffffffffffffffff166002600084815260200190815260200160002060009054906101000a900473ffffffffffffffffffffffffffffffffffffffff1673ffffffffffffffffffffffffffffffffffffffff1614159050919050565b505050565b505050565b600081443342604051602001611b3a9392919061292e565b6040516020818303038152906040528051906020012060001c611b5d9190612f60565b9050919050565b80600d600085815260200190815260200160002083604051611b8691906128dc565b90815260200160405180910390209080519060200190611ba7929190611f28565b50505050565b6000611bce8473ffffffffffffffffffffffffffffffffffffffff16611ea5565b15611d37578373ffffffffffffffffffffffffffffffffffffffff1663150b7a02611bf7610eef565b8786866040518563ffffffff1660e01b8152600401611c199493929190612986565b602060405180830381600087803b158015611c3357600080fd5b505af1925050508015611c6457506040513d601f19601f82011682018060405250810190611c619190612424565b60015b611ce7573d8060008114611c94576040519150601f19603f3d011682016040523d82523d6000602084013e611c99565b606091505b50600081511415611cdf576040517f08c379a0000000000000000000000000000000000000000000000000000000008152600401611cd690612a0f565b60405180910390fd5b805181602001fd5b63150b7a0260e01b7bffffffffffffffffffffffffffffffffffffffffffffffffffffffff1916817bffffffffffffffffffffffffffffffffffffffffffffffffffffffff191614915050611d3c565b600190505b949350505050565b60606000821415611d8c576040518060400160405280600181526020017f30000000000000000000000000000000000000000000000000000000000000008152509050611ea0565b600082905060005b60008214611dbe578080611da790612ee9565b915050600a82611db79190612d6b565b9150611d94565b60008167ffffffffffffffff811115611dda57611dd961304d565b5b6040519080825280601f01601f191660200182016040528015611e0c5781602001600182028036833780820191505090505b5090505b60008514611e9957600182611e259190612d9c565b9150600a85611e349190612f60565b6030611e409190612d15565b60f81b818381518110611e5657611e5561301e565b5b60200101907effffffffffffffffffffffffffffffffffffffffffffffffffffffffffffff1916908160001a905350600a85611e929190612d6b565b9450611e10565b8093505050505b919050565b6000808273ffffffffffffffffffffffffffffffffffffffff163b119050919050565b828054828255906000526020600020908101928215611f17579160200282015b82811115611f16578251829080519060200190611f06929190611f28565b5091602001919060010190611ee8565b5b509050611f249190611fae565b5090565b828054611f3490612e86565b90600052602060002090601f016020900481019282611f565760008555611f9d565b82601f10611f6f57805160ff1916838001178555611f9d565b82800160010185558215611f9d579182015b82811115611f9c578251825591602001919060010190611f81565b5b509050611faa9190611fd2565b5090565b5b80821115611fce5760008181611fc59190611fef565b50600101611faf565b5090565b5b80821115611feb576000816000905550600101611fd3565b5090565b508054611ffb90612e86565b6000825580601f1061200d575061202c565b601f01602090049060005260206000209081019061202b9190611fd2565b5b50565b600061204261203d84612c2f565b612c0a565b9050808382526020820190508285602086028201111561206557612064613081565b5b60005b858110156120b357813567ffffffffffffffff81111561208b5761208a61307c565b5b80860161209889826121f1565b85526020850194506020840193505050600181019050612068565b5050509392505050565b60006120d06120cb84612c5b565b612c0a565b9050828152602081018484840111156120ec576120eb613086565b5b6120f7848285612e44565b509392505050565b600061211261210d84612c8c565b612c0a565b90508281526020810184848401111561212e5761212d613086565b5b612139848285612e44565b509392505050565b60008135905061215081613470565b92915050565b600082601f83011261216b5761216a61307c565b5b813561217b84826020860161202f565b91505092915050565b60008135905061219381613487565b92915050565b6000813590506121a88161349e565b92915050565b6000815190506121bd8161349e565b92915050565b600082601f8301126121d8576121d761307c565b5b81356121e88482602086016120bd565b91505092915050565b600082601f8301126122065761220561307c565b5b81356122168482602086016120ff565b91505092915050565b60008135905061222e816134b5565b92915050565b60006020828403121561224a57612249613090565b5b600061225884828501612141565b91505092915050565b6000806040838503121561227857612277613090565b5b600061228685828601612141565b925050602061229785828601612141565b9150509250929050565b6000806000606084860312156122ba576122b9613090565b5b60006122c886828701612141565b93505060206122d986828701612141565b92505060406122ea8682870161221f565b9150509250925092565b6000806000806080858703121561230e5761230d613090565b5b600061231c87828801612141565b945050602061232d87828801612141565b935050604061233e8782880161221f565b925050606085013567ffffffffffffffff81111561235f5761235e61308b565b5b61236b878288016121c3565b91505092959194509250565b6000806040838503121561238e5761238d613090565b5b600061239c85828601612141565b92505060206123ad85828601612184565b9150509250929050565b600080604083850312156123ce576123cd613090565b5b60006123dc85828601612141565b92505060206123ed8582860161221f565b9150509250929050565b60006020828403121561240d5761240c613090565b5b600061241b84828501612199565b91505092915050565b60006020828403121561243a57612439613090565b5b6000612448848285016121ae565b91505092915050565b6000806040838503121561246857612467613090565b5b600083013567ffffffffffffffff8111156124865761248561308b565b5b612492858286016121f1565b925050602083013567ffffffffffffffff8111156124b3576124b261308b565b5b6124bf85828601612156565b9150509250929050565b6000602082840312156124df576124de613090565b5b60006124ed8482850161221f565b91505092915050565b6000806040838503121561250d5761250c613090565b5b600061251b8582860161221f565b925050602083013567ffffffffffffffff81111561253c5761253b61308b565b5b612548858286016121f1565b9150509250929050565b61255b81612dd0565b82525050565b61257261256d82612dd0565b612f32565b82525050565b61258181612de2565b82525050565b600061259282612cd2565b61259c8185612ce8565b93506125ac818560208601612e53565b6125b581613095565b840191505092915050565b60006125cb82612cdd565b6125d58185612cf9565b93506125e5818560208601612e53565b6125ee81613095565b840191505092915050565b600061260482612cdd565b61260e8185612d0a565b935061261e818560208601612e53565b80840191505092915050565b6000815461263781612e86565b6126418186612d0a565b9450600182166000811461265c576001811461266d576126a0565b60ff198316865281860193506126a0565b61267685612cbd565b60005b8381101561269857815481890152600182019150602081019050612679565b838801955050505b50505092915050565b60006126b6603283612cf9565b91506126c1826130b3565b604082019050919050565b60006126d9602683612cf9565b91506126e482613102565b604082019050919050565b60006126fc602583612cf9565b915061270782613151565b604082019050919050565b600061271f601c83612cf9565b915061272a826131a0565b602082019050919050565b6000612742602483612cf9565b915061274d826131c9565b604082019050919050565b6000612765601983612cf9565b915061277082613218565b602082019050919050565b6000612788602983612cf9565b915061279382613241565b604082019050919050565b60006127ab602e83612cf9565b91506127b682613290565b604082019050919050565b60006127ce603e83612cf9565b91506127d9826132df565b604082019050919050565b60006127f1602083612cf9565b91506127fc8261332e565b602082019050919050565b6000612814602083612cf9565b915061281f82613357565b602082019050919050565b6000612837601883612cf9565b915061284282613380565b602082019050919050565b600061285a602183612cf9565b9150612865826133a9565b604082019050919050565b600061287d602e83612cf9565b9150612888826133f8565b604082019050919050565b60006128a0601f83612cf9565b91506128ab82613447565b602082019050919050565b6128bf81612e3a565b82525050565b6128d66128d182612e3a565b612f56565b82525050565b60006128e882846125f9565b915081905092915050565b60006128ff82856125f9565b915061290b82846125f9565b91508190509392505050565b6000612923828461262a565b915081905092915050565b600061293a82866128c5565b60208201915061294a8285612561565b60148201915061295a82846128c5565b602082019150819050949350505050565b60006020820190506129806000830184612552565b92915050565b600060808201905061299b6000830187612552565b6129a86020830186612552565b6129b560408301856128b6565b81810360608301526129c78184612587565b905095945050505050565b60006020820190506129e76000830184612578565b92915050565b60006020820190508181036000830152612a0781846125c0565b905092915050565b60006020820190508181036000830152612a28816126a9565b9050919050565b60006020820190508181036000830152612a48816126cc565b9050919050565b60006020820190508181036000830152612a68816126ef565b9050919050565b60006020820190508181036000830152612a8881612712565b9050919050565b60006020820190508181036000830152612aa881612735565b9050919050565b60006020820190508181036000830152612ac881612758565b9050919050565b60006020820190508181036000830152612ae88161277b565b9050919050565b60006020820190508181036000830152612b088161279e565b9050919050565b60006020820190508181036000830152612b28816127c1565b9050919050565b60006020820190508181036000830152612b48816127e4565b9050919050565b60006020820190508181036000830152612b6881612807565b9050919050565b60006020820190508181036000830152612b888161282a565b9050919050565b60006020820190508181036000830152612ba88161284d565b9050919050565b60006020820190508181036000830152612bc881612870565b9050919050565b60006020820190508181036000830152612be881612893565b9050919050565b6000602082019050612c0460008301846128b6565b92915050565b6000612c14612c25565b9050612c208282612eb8565b919050565b6000604051905090565b600067ffffffffffffffff821115612c4a57612c4961304d565b5b602082029050602081019050919050565b600067ffffffffffffffff821115612c7657612c7561304d565b5b612c7f82613095565b9050602081019050919050565b600067ffffffffffffffff821115612ca757612ca661304d565b5b612cb082613095565b9050602081019050919050565b60008190508160005260206000209050919050565b600081519050919050565b600081519050919050565b600082825260208201905092915050565b600082825260208201905092915050565b600081905092915050565b6000612d2082612e3a565b9150612d2b83612e3a565b9250827fffffffffffffffffffffffffffffffffffffffffffffffffffffffffffffffff03821115612d6057612d5f612f91565b5b828201905092915050565b6000612d7682612e3a565b9150612d8183612e3a565b925082612d9157612d90612fc0565b5b828204905092915050565b6000612da782612e3a565b9150612db283612e3a565b925082821015612dc557612dc4612f91565b5b828203905092915050565b6000612ddb82612e1a565b9050919050565b60008115159050919050565b60007fffffffff0000000000000000000000000000000000000000000000000000000082169050919050565b600073ffffffffffffffffffffffffffffffffffffffff82169050919050565b6000819050919050565b82818337600083830152505050565b60005b83811015612e71578082015181840152602081019050612e56565b83811115612e80576000848401525b50505050565b60006002820490506001821680612e9e57607f821691505b60208210811415612eb257612eb1612fef565b5b50919050565b612ec182613095565b810181811067ffffffffffffffff82111715612ee057612edf61304d565b5b80604052505050565b6000612ef482612e3a565b91507fffffffffffffffffffffffffffffffffffffffffffffffffffffffffffffffff821415612f2757612f26612f91565b5b600182019050919050565b6000612f3d82612f44565b9050919050565b6000612f4f826130a6565b9050919050565b6000819050919050565b6000612f6b82612e3a565b9150612f7683612e3a565b925082612f8657612f85612fc0565b5b828206905092915050565b7f4e487b7100000000000000000000000000000000000000000000000000000000600052601160045260246000fd5b7f4e487b7100000000000000000000000000000000000000000000000000000000600052601260045260246000fd5b7f4e487b7100000000000000000000000000000000000000000000000000000000600052602260045260246000fd5b7f4e487b7100000000000000000000000000000000000000000000000000000000600052603260045260246000fd5b7f4e487b7100000000000000000000000000000000000000000000000000000000600052604160045260246000fd5b600080fd5b600080fd5b600080fd5b600080fd5b600080fd5b6000601f19601f8301169050919050565b60008160601b9050919050565b7f4552433732313a207472616e7366657220746f206e6f6e20455243373231526560008201527f63656976657220696d706c656d656e7465720000000000000000000000000000602082015250565b7f4f776e61626c653a206e6577206f776e657220697320746865207a65726f206160008201527f6464726573730000000000000000000000000000000000000000000000000000602082015250565b7f4552433732313a207472616e736665722066726f6d20696e636f72726563742060008201527f6f776e6572000000000000000000000000000000000000000000000000000000602082015250565b7f4552433732313a20746f6b656e20616c7265616479206d696e74656400000000600082015250565b7f4552433732313a207472616e7366657220746f20746865207a65726f2061646460008201527f7265737300000000000000000000000000000000000000000000000000000000602082015250565b7f4552433732313a20617070726f766520746f2063616c6c657200000000000000600082015250565b7f4552433732313a2061646472657373207a65726f206973206e6f74206120766160008201527f6c6964206f776e65720000000000000000000000000000000000000000000000602082015250565b7f45524337323155524953746f726167653a2055524920736574206f66206e6f6e60008201527f6578697374656e7420746f6b656e000000000000000000000000000000000000602082015250565b7f4552433732313a20617070726f76652063616c6c6572206973206e6f7420746f60008201527f6b656e206f776e6572206e6f7220617070726f76656420666f7220616c6c0000602082015250565b7f4552433732313a206d696e7420746f20746865207a65726f2061646472657373600082015250565b7f4f776e61626c653a2063616c6c6572206973206e6f7420746865206f776e6572600082015250565b7f4552433732313a20696e76616c696420746f6b656e2049440000000000000000600082015250565b7f4552433732313a20617070726f76616c20746f2063757272656e74206f776e6560008201527f7200000000000000000000000000000000000000000000000000000000000000602082015250565b7f4552433732313a2063616c6c6572206973206e6f7420746f6b656e206f776e6560008201527f72206e6f7220617070726f766564000000000000000000000000000000000000602082015250565b7f5265656e7472616e637947756172643a207265656e7472616e742063616c6c00600082015250565b61347981612dd0565b811461348457600080fd5b50565b61349081612de2565b811461349b57600080fd5b50565b6134a781612dee565b81146134b257600080fd5b50565b6134be81612e3a565b81146134c957600080fd5b5056fea26469706673582212205fb755481dd43d12b3c413583c2fdc7d90a7fe2433a169715b9b9f7fae11a3a064736f6c63430008060033",
  "immutableReferences": {},
  "source": "// SPDX-License-Identifier: MIT\npragma solidity ^0.8.6;\n\nimport \"@openzeppelin/contracts/token/ERC721/extensions/ERC721URIStorage.sol\";\nimport \"@openzeppelin/contracts/utils/Counters.sol\";\nimport \"@openzeppelin/contracts/security/ReentrancyGuard.sol\";\nimport \"@openzeppelin/contracts/access/Ownable.sol\";\n\ncontract Function is ERC721URIStorage, ReentrancyGuard, Ownable {\n\n        // token id\n        using Counters for Counters.Counter;\n        Counters.Counter private _counter;\n\n        // the function source code\n        string private _code;\n\n        // attribute names\n        string[] private _params;\n\n        // attribute => possible values\n        mapping(string => string[]) _values;\n\n        // token id => attribute => value\n        mapping(uint256 => mapping(string => string)) private _attributes;\n\n        constructor(string memory name, string memory symbol, string memory code) ERC721(name, symbol) {\n                _code = code;\n        }\n\n        function getCode() public view returns (string memory) {\n                return _code;\n        }\n\n        function setValues(string memory attr, string[] memory values) public onlyOwner {\n                _values[attr] = values;\n        }\n\n        function _setAttribute(uint256 id, string memory attribute, string memory value) internal {\n                _attributes[id][attribute] = value;\n        }\n\n        function getAttribute(uint256 id, string memory attribute) public view returns (string memory) {\n                return _attributes[id][attribute];\n        }\n\n        function mint() public nonReentrant returns (uint256) {\n                uint256 i = _counter.current();\n                _mint(msg.sender, i);\n                _setTokenURI(i, _randomAttributes(i));\n                _counter.increment();\n                return i;\n        }\n\n        function _randomAttributes(uint256 tokenId) internal returns (string memory) {\n                string memory content;\n\n                for (uint256 i = 0; i < _params.length; i++) {\n                        string storage attr = _params[i];\n                        uint256 k = _randomNumber(_values[attr].length);\n                        string memory value = _values[attr][k];\n                        _setAttribute(tokenId, attr, value);\n                        content = string(abi.encodePacked(content, value));\n                }\n\n                return content;\n        }\n\n        function _randomNumber(uint256 n) internal view returns (uint256) {\n                return uint(keccak256(abi.encodePacked(block.difficulty, msg.sender, block.timestamp))) % n;\n        }\n}\n",
  "sourcePath": "/Users/autonomous/code/rove/3df/contracts/Function.sol",
  "compiler": {
    "name": "solc",
    "version": "0.8.6+commit.11564f7e.Emscripten.clang"
  },
  "schemaVersion": "3.4.4",
  "updatedAt": "2022-09-20T03:30:17.240Z",
  "devdoc": {
    "kind": "dev",
    "methods": {
      "approve(address,uint256)": {
        "details": "See {IERC721-approve}."
      },
      "balanceOf(address)": {
        "details": "See {IERC721-balanceOf}."
      },
      "getApproved(uint256)": {
        "details": "See {IERC721-getApproved}."
      },
      "isApprovedForAll(address,address)": {
        "details": "See {IERC721-isApprovedForAll}."
      },
      "name()": {
        "details": "See {IERC721Metadata-name}."
      },
      "owner()": {
        "details": "Returns the address of the current owner."
      },
      "ownerOf(uint256)": {
        "details": "See {IERC721-ownerOf}."
      },
      "renounceOwnership()": {
        "details": "Leaves the contract without owner. It will not be possible to call `onlyOwner` functions anymore. Can only be called by the current owner. NOTE: Renouncing ownership will leave the contract without an owner, thereby removing any functionality that is only available to the owner."
      },
      "safeTransferFrom(address,address,uint256)": {
        "details": "See {IERC721-safeTransferFrom}."
      },
      "safeTransferFrom(address,address,uint256,bytes)": {
        "details": "See {IERC721-safeTransferFrom}."
      },
      "setApprovalForAll(address,bool)": {
        "details": "See {IERC721-setApprovalForAll}."
      },
      "supportsInterface(bytes4)": {
        "details": "See {IERC165-supportsInterface}."
      },
      "symbol()": {
        "details": "See {IERC721Metadata-symbol}."
      },
      "tokenURI(uint256)": {
        "details": "See {IERC721Metadata-tokenURI}."
      },
      "transferFrom(address,address,uint256)": {
        "details": "See {IERC721-transferFrom}."
      },
      "transferOwnership(address)": {
        "details": "Transfers ownership of the contract to a new account (`newOwner`). Can only be called by the current owner."
      }
    },
    "version": 1
  },
  "userdoc": {
    "kind": "user",
    "methods": {},
    "version": 1
  }
}