{
  "contractName": "FunctionalNFT",
  "abi": [
    {
      "inputs": [
        {
          "internalType": "string",
          "name": "name",
          "type": "string"
        },
        {
          "internalType": "string",
          "name": "symbol",
          "type": "string"
        },
        {
          "internalType": "uint256",
          "name": "fee",
          "type": "uint256"
        }
      ],
      "stateMutability": "nonpayable",
      "type": "constructor"
    },
    {
      "anonymous": false,
      "inputs": [
        {
          "indexed": true,
          "internalType": "address",
          "name": "owner",
          "type": "address"
        },
        {
          "indexed": true,
          "internalType": "address",
          "name": "approved",
          "type": "address"
        },
        {
          "indexed": true,
          "internalType": "uint256",
          "name": "tokenId",
          "type": "uint256"
        }
      ],
      "name": "Approval",
      "type": "event"
    },
    {
      "anonymous": false,
      "inputs": [
        {
          "indexed": true,
          "internalType": "address",
          "name": "owner",
          "type": "address"
        },
        {
          "indexed": true,
          "internalType": "address",
          "name": "operator",
          "type": "address"
        },
        {
          "indexed": false,
          "internalType": "bool",
          "name": "approved",
          "type": "bool"
        }
      ],
      "name": "ApprovalForAll",
      "type": "event"
    },
    {
      "anonymous": false,
      "inputs": [
        {
          "indexed": true,
          "internalType": "address",
          "name": "previousOwner",
          "type": "address"
        },
        {
          "indexed": true,
          "internalType": "address",
          "name": "newOwner",
          "type": "address"
        }
      ],
      "name": "OwnershipTransferred",
      "type": "event"
    },
    {
      "anonymous": false,
      "inputs": [
        {
          "indexed": true,
          "internalType": "address",
          "name": "from",
          "type": "address"
        },
        {
          "indexed": true,
          "internalType": "address",
          "name": "to",
          "type": "address"
        },
        {
          "indexed": true,
          "internalType": "uint256",
          "name": "tokenId",
          "type": "uint256"
        }
      ],
      "name": "Transfer",
      "type": "event"
    },
    {
      "inputs": [
        {
          "internalType": "address",
          "name": "to",
          "type": "address"
        },
        {
          "internalType": "uint256",
          "name": "tokenId",
          "type": "uint256"
        }
      ],
      "name": "approve",
      "outputs": [],
      "stateMutability": "nonpayable",
      "type": "function"
    },
    {
      "inputs": [
        {
          "internalType": "address",
          "name": "owner",
          "type": "address"
        }
      ],
      "name": "balanceOf",
      "outputs": [
        {
          "internalType": "uint256",
          "name": "",
          "type": "uint256"
        }
      ],
      "stateMutability": "view",
      "type": "function"
    },
    {
      "inputs": [
        {
          "internalType": "uint256",
          "name": "tokenId",
          "type": "uint256"
        }
      ],
      "name": "getApproved",
      "outputs": [
        {
          "internalType": "address",
          "name": "",
          "type": "address"
        }
      ],
      "stateMutability": "view",
      "type": "function"
    },
    {
      "inputs": [
        {
          "internalType": "address",
          "name": "owner",
          "type": "address"
        },
        {
          "internalType": "address",
          "name": "operator",
          "type": "address"
        }
      ],
      "name": "isApprovedForAll",
      "outputs": [
        {
          "internalType": "bool",
          "name": "",
          "type": "bool"
        }
      ],
      "stateMutability": "view",
      "type": "function"
    },
    {
      "inputs": [],
      "name": "name",
      "outputs": [
        {
          "internalType": "string",
          "name": "",
          "type": "string"
        }
      ],
      "stateMutability": "view",
      "type": "function"
    },
    {
      "inputs": [],
      "name": "owner",
      "outputs": [
        {
          "internalType": "address",
          "name": "",
          "type": "address"
        }
      ],
      "stateMutability": "view",
      "type": "function"
    },
    {
      "inputs": [
        {
          "internalType": "uint256",
          "name": "tokenId",
          "type": "uint256"
        }
      ],
      "name": "ownerOf",
      "outputs": [
        {
          "internalType": "address",
          "name": "",
          "type": "address"
        }
      ],
      "stateMutability": "view",
      "type": "function"
    },
    {
      "inputs": [],
      "name": "renounceOwnership",
      "outputs": [],
      "stateMutability": "nonpayable",
      "type": "function"
    },
    {
      "inputs": [
        {
          "internalType": "address",
          "name": "from",
          "type": "address"
        },
        {
          "internalType": "address",
          "name": "to",
          "type": "address"
        },
        {
          "internalType": "uint256",
          "name": "tokenId",
          "type": "uint256"
        }
      ],
      "name": "safeTransferFrom",
      "outputs": [],
      "stateMutability": "nonpayable",
      "type": "function"
    },
    {
      "inputs": [
        {
          "internalType": "address",
          "name": "from",
          "type": "address"
        },
        {
          "internalType": "address",
          "name": "to",
          "type": "address"
        },
        {
          "internalType": "uint256",
          "name": "tokenId",
          "type": "uint256"
        },
        {
          "internalType": "bytes",
          "name": "data",
          "type": "bytes"
        }
      ],
      "name": "safeTransferFrom",
      "outputs": [],
      "stateMutability": "nonpayable",
      "type": "function"
    },
    {
      "inputs": [
        {
          "internalType": "address",
          "name": "operator",
          "type": "address"
        },
        {
          "internalType": "bool",
          "name": "approved",
          "type": "bool"
        }
      ],
      "name": "setApprovalForAll",
      "outputs": [],
      "stateMutability": "nonpayable",
      "type": "function"
    },
    {
      "inputs": [
        {
          "internalType": "bytes4",
          "name": "interfaceId",
          "type": "bytes4"
        }
      ],
      "name": "supportsInterface",
      "outputs": [
        {
          "internalType": "bool",
          "name": "",
          "type": "bool"
        }
      ],
      "stateMutability": "view",
      "type": "function"
    },
    {
      "inputs": [],
      "name": "symbol",
      "outputs": [
        {
          "internalType": "string",
          "name": "",
          "type": "string"
        }
      ],
      "stateMutability": "view",
      "type": "function"
    },
    {
      "inputs": [
        {
          "internalType": "uint256",
          "name": "tokenId",
          "type": "uint256"
        }
      ],
      "name": "tokenURI",
      "outputs": [
        {
          "internalType": "string",
          "name": "",
          "type": "string"
        }
      ],
      "stateMutability": "view",
      "type": "function"
    },
    {
      "inputs": [
        {
          "internalType": "address",
          "name": "from",
          "type": "address"
        },
        {
          "internalType": "address",
          "name": "to",
          "type": "address"
        },
        {
          "internalType": "uint256",
          "name": "tokenId",
          "type": "uint256"
        }
      ],
      "name": "transferFrom",
      "outputs": [],
      "stateMutability": "nonpayable",
      "type": "function"
    },
    {
      "inputs": [
        {
          "internalType": "address",
          "name": "newOwner",
          "type": "address"
        }
      ],
      "name": "transferOwnership",
      "outputs": [],
      "stateMutability": "nonpayable",
      "type": "function"
    },
    {
      "inputs": [
        {
          "internalType": "string",
          "name": "code",
          "type": "string"
        }
      ],
      "name": "setCode",
      "outputs": [],
      "stateMutability": "nonpayable",
      "type": "function"
    },
    {
      "inputs": [
        {
          "internalType": "string",
          "name": "param",
          "type": "string"
        },
        {
          "internalType": "string[]",
          "name": "range",
          "type": "string[]"
        }
      ],
      "name": "setRange",
      "outputs": [],
      "stateMutability": "nonpayable",
      "type": "function"
    },
    {
      "inputs": [],
      "name": "getCode",
      "outputs": [
        {
          "internalType": "string",
          "name": "",
          "type": "string"
        }
      ],
      "stateMutability": "view",
      "type": "function"
    },
    {
      "inputs": [],
      "name": "mint",
      "outputs": [
        {
          "internalType": "uint256",
          "name": "",
          "type": "uint256"
        }
      ],
      "stateMutability": "payable",
      "type": "function"
    },
    {
      "inputs": [],
      "name": "withdraw",
      "outputs": [],
      "stateMutability": "nonpayable",
      "type": "function"
    }
  ],
  "bytecode": "0x60806040523480156200001157600080fd5b5060405162003ae838038062003ae88339818101604052810190620000379190620002b8565b828281600090805190602001906200005192919062000173565b5080600190805190602001906200006a92919062000173565b50505060016007819055506200009562000089620000a560201b60201c565b620000ad60201b60201c565b80600e81905550505050620004fa565b600033905090565b6000600860009054906101000a900473ffffffffffffffffffffffffffffffffffffffff16905081600860006101000a81548173ffffffffffffffffffffffffffffffffffffffff021916908373ffffffffffffffffffffffffffffffffffffffff1602179055508173ffffffffffffffffffffffffffffffffffffffff168173ffffffffffffffffffffffffffffffffffffffff167f8be0079c531659141344cd1fd0a4f28419497f9722a3daafe3b4186f6b6457e060405160405180910390a35050565b8280546200018190620003f1565b90600052602060002090601f016020900481019282620001a55760008555620001f1565b82601f10620001c057805160ff1916838001178555620001f1565b82800160010185558215620001f1579182015b82811115620001f0578251825591602001919060010190620001d3565b5b50905062000200919062000204565b5090565b5b808211156200021f57600081600090555060010162000205565b5090565b60006200023a62000234846200037b565b62000352565b905082815260208101848484011115620002595762000258620004c0565b5b62000266848285620003bb565b509392505050565b600082601f830112620002865762000285620004bb565b5b81516200029884826020860162000223565b91505092915050565b600081519050620002b281620004e0565b92915050565b600080600060608486031215620002d457620002d3620004ca565b5b600084015167ffffffffffffffff811115620002f557620002f4620004c5565b5b62000303868287016200026e565b935050602084015167ffffffffffffffff811115620003275762000326620004c5565b5b62000335868287016200026e565b92505060406200034886828701620002a1565b9150509250925092565b60006200035e62000371565b90506200036c828262000427565b919050565b6000604051905090565b600067ffffffffffffffff8211156200039957620003986200048c565b5b620003a482620004cf565b9050602081019050919050565b6000819050919050565b60005b83811015620003db578082015181840152602081019050620003be565b83811115620003eb576000848401525b50505050565b600060028204905060018216806200040a57607f821691505b602082108114156200042157620004206200045d565b5b50919050565b6200043282620004cf565b810181811067ffffffffffffffff821117156200045457620004536200048c565b5b80604052505050565b7f4e487b7100000000000000000000000000000000000000000000000000000000600052602260045260246000fd5b7f4e487b7100000000000000000000000000000000000000000000000000000000600052604160045260246000fd5b600080fd5b600080fd5b600080fd5b600080fd5b6000601f19601f8301169050919050565b620004eb81620003b1565b8114620004f757600080fd5b50565b6135de806200050a6000396000f3fe60806040526004361061012a5760003560e01c8063715018a6116100ab578063b88d4fde1161006f578063b88d4fde146103bd578063c87b56dd146103e6578063e403f1a714610423578063e985e9c51461044c578063ea87963414610489578063f2fde38b146104b45761012a565b8063715018a6146102fe5780638da5cb5b1461031557806395d89b4114610340578063998486f21461036b578063a22cb465146103945761012a565b806323b872dd116100f257806323b872dd1461021b5780633ccfd60b1461024457806342842e0e1461025b5780636352211e1461028457806370a08231146102c15761012a565b806301ffc9a71461012f57806306fdde031461016c578063081812fc14610197578063095ea7b3146101d45780631249c58b146101fd575b600080fd5b34801561013b57600080fd5b50610156600480360381019061015191906124e6565b6104dd565b6040516101639190612aae565b60405180910390f35b34801561017857600080fd5b506101816105bf565b60405161018e9190612ac9565b60405180910390f35b3480156101a357600080fd5b506101be60048036038101906101b99190612601565b610651565b6040516101cb9190612a47565b60405180910390f35b3480156101e057600080fd5b506101fb60048036038101906101f691906124a6565b610697565b005b6102056107af565b6040516102129190612ccb565b60405180910390f35b34801561022757600080fd5b50610242600480360381019061023d9190612390565b610888565b005b34801561025057600080fd5b506102596108e8565b005b34801561026757600080fd5b50610282600480360381019061027d9190612390565b610939565b005b34801561029057600080fd5b506102ab60048036038101906102a69190612601565b610959565b6040516102b89190612a47565b60405180910390f35b3480156102cd57600080fd5b506102e860048036038101906102e39190612323565b610a0b565b6040516102f59190612ccb565b60405180910390f35b34801561030a57600080fd5b50610313610ac3565b005b34801561032157600080fd5b5061032a610ad7565b6040516103379190612a47565b60405180910390f35b34801561034c57600080fd5b50610355610b01565b6040516103629190612ac9565b60405180910390f35b34801561037757600080fd5b50610392600480360381019061038d9190612589565b610b93565b005b3480156103a057600080fd5b506103bb60048036038101906103b69190612466565b610bd2565b005b3480156103c957600080fd5b506103e460048036038101906103df91906123e3565b610be8565b005b3480156103f257600080fd5b5061040d60048036038101906104089190612601565b610c4a565b60405161041a9190612ac9565b60405180910390f35b34801561042f57600080fd5b5061044a60048036038101906104459190612540565b610d5d565b005b34801561045857600080fd5b50610473600480360381019061046e9190612350565b610d7f565b6040516104809190612aae565b60405180910390f35b34801561049557600080fd5b5061049e610e13565b6040516104ab9190612ac9565b60405180910390f35b3480156104c057600080fd5b506104db60048036038101906104d69190612323565b610ea5565b005b60007f80ac58cd000000000000000000000000000000000000000000000000000000007bffffffffffffffffffffffffffffffffffffffffffffffffffffffff1916827bffffffffffffffffffffffffffffffffffffffffffffffffffffffff191614806105a857507f5b5e139f000000000000000000000000000000000000000000000000000000007bffffffffffffffffffffffffffffffffffffffffffffffffffffffff1916827bffffffffffffffffffffffffffffffffffffffffffffffffffffffff1916145b806105b857506105b782610f29565b5b9050919050565b6060600080546105ce90612f62565b80601f01602080910402602001604051908101604052809291908181526020018280546105fa90612f62565b80156106475780601f1061061c57610100808354040283529160200191610647565b820191906000526020600020905b81548152906001019060200180831161062a57829003601f168201915b5050505050905090565b600061065c82610f93565b6004600083815260200190815260200160002060009054906101000a900473ffffffffffffffffffffffffffffffffffffffff169050919050565b60006106a282610959565b90508073ffffffffffffffffffffffffffffffffffffffff168373ffffffffffffffffffffffffffffffffffffffff161415610713576040517f08c379a000000000000000000000000000000000000000000000000000000000815260040161070a90612c6b565b60405180910390fd5b8073ffffffffffffffffffffffffffffffffffffffff16610732610fde565b73ffffffffffffffffffffffffffffffffffffffff16148061076157506107608161075b610fde565b610d7f565b5b6107a0576040517f08c379a000000000000000000000000000000000000000000000000000000000815260040161079790612beb565b60405180910390fd5b6107aa8383610fe6565b505050565b6000600260075414156107f7576040517f08c379a00000000000000000000000000000000000000000000000000000000081526004016107ee90612cab565b60405180910390fd5b6002600781905550600e5434101561080e57600080fd5b600061081a600961109f565b9050610825816110ad565b50610865816040518060400160405280600481526020017f544f444f000000000000000000000000000000000000000000000000000000008152506112af565b61086f3382611323565b61087960096114fd565b80915050600160078190555090565b610899610893610fde565b82611513565b6108d8576040517f08c379a00000000000000000000000000000000000000000000000000000000081526004016108cf90612c8b565b60405180910390fd5b6108e38383836115a8565b505050565b6108f061180f565b3373ffffffffffffffffffffffffffffffffffffffff166108fc479081150290604051600060405180830381858888f19350505050158015610936573d6000803e3d6000fd5b50565b61095483838360405180602001604052806000815250610be8565b505050565b6000806002600084815260200190815260200160002060009054906101000a900473ffffffffffffffffffffffffffffffffffffffff169050600073ffffffffffffffffffffffffffffffffffffffff168173ffffffffffffffffffffffffffffffffffffffff161415610a02576040517f08c379a00000000000000000000000000000000000000000000000000000000081526004016109f990612c4b565b60405180910390fd5b80915050919050565b60008073ffffffffffffffffffffffffffffffffffffffff168273ffffffffffffffffffffffffffffffffffffffff161415610a7c576040517f08c379a0000000000000000000000000000000000000000000000000000000008152600401610a7390612bab565b60405180910390fd5b600360008373ffffffffffffffffffffffffffffffffffffffff1673ffffffffffffffffffffffffffffffffffffffff168152602001908152602001600020549050919050565b610acb61180f565b610ad5600061188d565b565b6000600860009054906101000a900473ffffffffffffffffffffffffffffffffffffffff16905090565b606060018054610b1090612f62565b80601f0160208091040260200160405190810160405280929190818152602001828054610b3c90612f62565b8015610b895780601f10610b5e57610100808354040283529160200191610b89565b820191906000526020600020905b815481529060010190602001808311610b6c57829003601f168201915b5050505050905090565b610b9b61180f565b80600c83604051610bac91906129b8565b90815260200160405180910390209080519060200190610bcd929190611fb7565b505050565b610be4610bdd610fde565b8383611953565b5050565b610bf9610bf3610fde565b83611513565b610c38576040517f08c379a0000000000000000000000000000000000000000000000000000000008152600401610c2f90612c8b565b60405180910390fd5b610c4484848484611ac0565b50505050565b6060610c5582610f93565b6000600660008481526020019081526020016000208054610c7590612f62565b80601f0160208091040260200160405190810160405280929190818152602001828054610ca190612f62565b8015610cee5780601f10610cc357610100808354040283529160200191610cee565b820191906000526020600020905b815481529060010190602001808311610cd157829003601f168201915b505050505090506000610cff611b1c565b9050600081511415610d15578192505050610d58565b600082511115610d4a578082604051602001610d329291906129cf565b60405160208183030381529060405292505050610d58565b610d5384611b33565b925050505b919050565b610d6561180f565b80600a9080519060200190610d7b929190612017565b5050565b6000600560008473ffffffffffffffffffffffffffffffffffffffff1673ffffffffffffffffffffffffffffffffffffffff16815260200190815260200160002060008373ffffffffffffffffffffffffffffffffffffffff1673ffffffffffffffffffffffffffffffffffffffff16815260200190815260200160002060009054906101000a900460ff16905092915050565b6060600a8054610e2290612f62565b80601f0160208091040260200160405190810160405280929190818152602001828054610e4e90612f62565b8015610e9b5780601f10610e7057610100808354040283529160200191610e9b565b820191906000526020600020905b815481529060010190602001808311610e7e57829003601f168201915b5050505050905090565b610ead61180f565b600073ffffffffffffffffffffffffffffffffffffffff168173ffffffffffffffffffffffffffffffffffffffff161415610f1d576040517f08c379a0000000000000000000000000000000000000000000000000000000008152600401610f1490612b0b565b60405180910390fd5b610f268161188d565b50565b60007f01ffc9a7000000000000000000000000000000000000000000000000000000007bffffffffffffffffffffffffffffffffffffffffffffffffffffffff1916827bffffffffffffffffffffffffffffffffffffffffffffffffffffffff1916149050919050565b610f9c81611b9b565b610fdb576040517f08c379a0000000000000000000000000000000000000000000000000000000008152600401610fd290612c4b565b60405180910390fd5b50565b600033905090565b816004600083815260200190815260200160002060006101000a81548173ffffffffffffffffffffffffffffffffffffffff021916908373ffffffffffffffffffffffffffffffffffffffff160217905550808273ffffffffffffffffffffffffffffffffffffffff1661105983610959565b73ffffffffffffffffffffffffffffffffffffffff167f8c5be1e5ebec7d5bd14f71427d1e84f3dd0314c0f7b2291e5b200ac8c7c3b92560405160405180910390a45050565b600081600001549050919050565b60608060005b600b805490508110156112a5576000600b82815481106110d6576110d56130fa565b5b906000526020600020019050600061110e600c836040516110f791906129f3565b908152602001604051809103902080549050611c07565b90506000600c8360405161112291906129f3565b90815260200160405180910390208281548110611142576111416130fa565b5b90600052602060002001805461115790612f62565b80601f016020809104026020016040519081016040528092919081815260200182805461118390612f62565b80156111d05780601f106111a5576101008083540402835291602001916111d0565b820191906000526020600020905b8154815290600101906020018083116111b357829003601f168201915b5050505050905061126b878480546111e790612f62565b80601f016020809104026020016040519081016040528092919081815260200182805461121390612f62565b80156112605780601f1061123557610100808354040283529160200191611260565b820191906000526020600020905b81548152906001019060200180831161124357829003601f168201915b505050505083611c49565b848160405160200161127e9291906129cf565b6040516020818303038152906040529450505050808061129d90612fc5565b9150506110b3565b5080915050919050565b6112b882611b9b565b6112f7576040517f08c379a00000000000000000000000000000000000000000000000000000000081526004016112ee90612bcb565b60405180910390fd5b8060066000848152602001908152602001600020908051906020019061131e929190612017565b505050565b600073ffffffffffffffffffffffffffffffffffffffff168273ffffffffffffffffffffffffffffffffffffffff161415611393576040517f08c379a000000000000000000000000000000000000000000000000000000000815260040161138a90612c0b565b60405180910390fd5b61139c81611b9b565b156113dc576040517f08c379a00000000000000000000000000000000000000000000000000000000081526004016113d390612b4b565b60405180910390fd5b6113e860008383611c92565b6001600360008473ffffffffffffffffffffffffffffffffffffffff1673ffffffffffffffffffffffffffffffffffffffff16815260200190815260200160002060008282546114389190612df1565b92505081905550816002600083815260200190815260200160002060006101000a81548173ffffffffffffffffffffffffffffffffffffffff021916908373ffffffffffffffffffffffffffffffffffffffff160217905550808273ffffffffffffffffffffffffffffffffffffffff16600073ffffffffffffffffffffffffffffffffffffffff167fddf252ad1be2c89b69c2b068fc378daa952ba7f163c4a11628f55a4df523b3ef60405160405180910390a46114f960008383611c97565b5050565b6001816000016000828254019250508190555050565b60008061151f83610959565b90508073ffffffffffffffffffffffffffffffffffffffff168473ffffffffffffffffffffffffffffffffffffffff16148061156157506115608185610d7f565b5b8061159f57508373ffffffffffffffffffffffffffffffffffffffff1661158784610651565b73ffffffffffffffffffffffffffffffffffffffff16145b91505092915050565b8273ffffffffffffffffffffffffffffffffffffffff166115c882610959565b73ffffffffffffffffffffffffffffffffffffffff161461161e576040517f08c379a000000000000000000000000000000000000000000000000000000000815260040161161590612b2b565b60405180910390fd5b600073ffffffffffffffffffffffffffffffffffffffff168273ffffffffffffffffffffffffffffffffffffffff16141561168e576040517f08c379a000000000000000000000000000000000000000000000000000000000815260040161168590612b6b565b60405180910390fd5b611699838383611c92565b6116a4600082610fe6565b6001600360008573ffffffffffffffffffffffffffffffffffffffff1673ffffffffffffffffffffffffffffffffffffffff16815260200190815260200160002060008282546116f49190612e78565b925050819055506001600360008473ffffffffffffffffffffffffffffffffffffffff1673ffffffffffffffffffffffffffffffffffffffff168152602001908152602001600020600082825461174b9190612df1565b92505081905550816002600083815260200190815260200160002060006101000a81548173ffffffffffffffffffffffffffffffffffffffff021916908373ffffffffffffffffffffffffffffffffffffffff160217905550808273ffffffffffffffffffffffffffffffffffffffff168473ffffffffffffffffffffffffffffffffffffffff167fddf252ad1be2c89b69c2b068fc378daa952ba7f163c4a11628f55a4df523b3ef60405160405180910390a461180a838383611c97565b505050565b611817610fde565b73ffffffffffffffffffffffffffffffffffffffff16611835610ad7565b73ffffffffffffffffffffffffffffffffffffffff161461188b576040517f08c379a000000000000000000000000000000000000000000000000000000000815260040161188290612c2b565b60405180910390fd5b565b6000600860009054906101000a900473ffffffffffffffffffffffffffffffffffffffff16905081600860006101000a81548173ffffffffffffffffffffffffffffffffffffffff021916908373ffffffffffffffffffffffffffffffffffffffff1602179055508173ffffffffffffffffffffffffffffffffffffffff168173ffffffffffffffffffffffffffffffffffffffff167f8be0079c531659141344cd1fd0a4f28419497f9722a3daafe3b4186f6b6457e060405160405180910390a35050565b8173ffffffffffffffffffffffffffffffffffffffff168373ffffffffffffffffffffffffffffffffffffffff1614156119c2576040517f08c379a00000000000000000000000000000000000000000000000000000000081526004016119b990612b8b565b60405180910390fd5b80600560008573ffffffffffffffffffffffffffffffffffffffff1673ffffffffffffffffffffffffffffffffffffffff16815260200190815260200160002060008473ffffffffffffffffffffffffffffffffffffffff1673ffffffffffffffffffffffffffffffffffffffff16815260200190815260200160002060006101000a81548160ff0219169083151502179055508173ffffffffffffffffffffffffffffffffffffffff168373ffffffffffffffffffffffffffffffffffffffff167f17307eab39ab6107e8899845ad3d59bd9653f200f220920489ca2b5937696c3183604051611ab39190612aae565b60405180910390a3505050565b611acb8484846115a8565b611ad784848484611c9c565b611b16576040517f08c379a0000000000000000000000000000000000000000000000000000000008152600401611b0d90612aeb565b60405180910390fd5b50505050565b606060405180602001604052806000815250905090565b6060611b3e82610f93565b6000611b48611b1c565b90506000815111611b685760405180602001604052806000815250611b93565b80611b7284611e33565b604051602001611b839291906129cf565b6040516020818303038152906040525b915050919050565b60008073ffffffffffffffffffffffffffffffffffffffff166002600084815260200190815260200160002060009054906101000a900473ffffffffffffffffffffffffffffffffffffffff1673ffffffffffffffffffffffffffffffffffffffff1614159050919050565b600081443342604051602001611c1f93929190612a0a565b6040516020818303038152906040528051906020012060001c611c42919061303c565b9050919050565b80600d600085815260200190815260200160002083604051611c6b91906129b8565b90815260200160405180910390209080519060200190611c8c929190612017565b50505050565b505050565b505050565b6000611cbd8473ffffffffffffffffffffffffffffffffffffffff16611f94565b15611e26578373ffffffffffffffffffffffffffffffffffffffff1663150b7a02611ce6610fde565b8786866040518563ffffffff1660e01b8152600401611d089493929190612a62565b602060405180830381600087803b158015611d2257600080fd5b505af1925050508015611d5357506040513d601f19601f82011682018060405250810190611d509190612513565b60015b611dd6573d8060008114611d83576040519150601f19603f3d011682016040523d82523d6000602084013e611d88565b606091505b50600081511415611dce576040517f08c379a0000000000000000000000000000000000000000000000000000000008152600401611dc590612aeb565b60405180910390fd5b805181602001fd5b63150b7a0260e01b7bffffffffffffffffffffffffffffffffffffffffffffffffffffffff1916817bffffffffffffffffffffffffffffffffffffffffffffffffffffffff191614915050611e2b565b600190505b949350505050565b60606000821415611e7b576040518060400160405280600181526020017f30000000000000000000000000000000000000000000000000000000000000008152509050611f8f565b600082905060005b60008214611ead578080611e9690612fc5565b915050600a82611ea69190612e47565b9150611e83565b60008167ffffffffffffffff811115611ec957611ec8613129565b5b6040519080825280601f01601f191660200182016040528015611efb5781602001600182028036833780820191505090505b5090505b60008514611f8857600182611f149190612e78565b9150600a85611f23919061303c565b6030611f2f9190612df1565b60f81b818381518110611f4557611f446130fa565b5b60200101907effffffffffffffffffffffffffffffffffffffffffffffffffffffffffffff1916908160001a905350600a85611f819190612e47565b9450611eff565b8093505050505b919050565b6000808273ffffffffffffffffffffffffffffffffffffffff163b119050919050565b828054828255906000526020600020908101928215612006579160200282015b82811115612005578251829080519060200190611ff5929190612017565b5091602001919060010190611fd7565b5b509050612013919061209d565b5090565b82805461202390612f62565b90600052602060002090601f016020900481019282612045576000855561208c565b82601f1061205e57805160ff191683800117855561208c565b8280016001018555821561208c579182015b8281111561208b578251825591602001919060010190612070565b5b50905061209991906120c1565b5090565b5b808211156120bd57600081816120b491906120de565b5060010161209e565b5090565b5b808211156120da5760008160009055506001016120c2565b5090565b5080546120ea90612f62565b6000825580601f106120fc575061211b565b601f01602090049060005260206000209081019061211a91906120c1565b5b50565b600061213161212c84612d0b565b612ce6565b905080838252602082019050828560208602820111156121545761215361315d565b5b60005b858110156121a257813567ffffffffffffffff81111561217a57612179613158565b5b80860161218789826122e0565b85526020850194506020840193505050600181019050612157565b5050509392505050565b60006121bf6121ba84612d37565b612ce6565b9050828152602081018484840111156121db576121da613162565b5b6121e6848285612f20565b509392505050565b60006122016121fc84612d68565b612ce6565b90508281526020810184848401111561221d5761221c613162565b5b612228848285612f20565b509392505050565b60008135905061223f8161354c565b92915050565b600082601f83011261225a57612259613158565b5b813561226a84826020860161211e565b91505092915050565b60008135905061228281613563565b92915050565b6000813590506122978161357a565b92915050565b6000815190506122ac8161357a565b92915050565b600082601f8301126122c7576122c6613158565b5b81356122d78482602086016121ac565b91505092915050565b600082601f8301126122f5576122f4613158565b5b81356123058482602086016121ee565b91505092915050565b60008135905061231d81613591565b92915050565b6000602082840312156123395761233861316c565b5b600061234784828501612230565b91505092915050565b600080604083850312156123675761236661316c565b5b600061237585828601612230565b925050602061238685828601612230565b9150509250929050565b6000806000606084860312156123a9576123a861316c565b5b60006123b786828701612230565b93505060206123c886828701612230565b92505060406123d98682870161230e565b9150509250925092565b600080600080608085870312156123fd576123fc61316c565b5b600061240b87828801612230565b945050602061241c87828801612230565b935050604061242d8782880161230e565b925050606085013567ffffffffffffffff81111561244e5761244d613167565b5b61245a878288016122b2565b91505092959194509250565b6000806040838503121561247d5761247c61316c565b5b600061248b85828601612230565b925050602061249c85828601612273565b9150509250929050565b600080604083850312156124bd576124bc61316c565b5b60006124cb85828601612230565b92505060206124dc8582860161230e565b9150509250929050565b6000602082840312156124fc576124fb61316c565b5b600061250a84828501612288565b91505092915050565b6000602082840312156125295761252861316c565b5b60006125378482850161229d565b91505092915050565b6000602082840312156125565761255561316c565b5b600082013567ffffffffffffffff81111561257457612573613167565b5b612580848285016122e0565b91505092915050565b600080604083850312156125a05761259f61316c565b5b600083013567ffffffffffffffff8111156125be576125bd613167565b5b6125ca858286016122e0565b925050602083013567ffffffffffffffff8111156125eb576125ea613167565b5b6125f785828601612245565b9150509250929050565b6000602082840312156126175761261661316c565b5b60006126258482850161230e565b91505092915050565b61263781612eac565b82525050565b61264e61264982612eac565b61300e565b82525050565b61265d81612ebe565b82525050565b600061266e82612dae565b6126788185612dc4565b9350612688818560208601612f2f565b61269181613171565b840191505092915050565b60006126a782612db9565b6126b18185612dd5565b93506126c1818560208601612f2f565b6126ca81613171565b840191505092915050565b60006126e082612db9565b6126ea8185612de6565b93506126fa818560208601612f2f565b80840191505092915050565b6000815461271381612f62565b61271d8186612de6565b9450600182166000811461273857600181146127495761277c565b60ff1983168652818601935061277c565b61275285612d99565b60005b8381101561277457815481890152600182019150602081019050612755565b838801955050505b50505092915050565b6000612792603283612dd5565b915061279d8261318f565b604082019050919050565b60006127b5602683612dd5565b91506127c0826131de565b604082019050919050565b60006127d8602583612dd5565b91506127e38261322d565b604082019050919050565b60006127fb601c83612dd5565b91506128068261327c565b602082019050919050565b600061281e602483612dd5565b9150612829826132a5565b604082019050919050565b6000612841601983612dd5565b915061284c826132f4565b602082019050919050565b6000612864602983612dd5565b915061286f8261331d565b604082019050919050565b6000612887602e83612dd5565b91506128928261336c565b604082019050919050565b60006128aa603e83612dd5565b91506128b5826133bb565b604082019050919050565b60006128cd602083612dd5565b91506128d88261340a565b602082019050919050565b60006128f0602083612dd5565b91506128fb82613433565b602082019050919050565b6000612913601883612dd5565b915061291e8261345c565b602082019050919050565b6000612936602183612dd5565b915061294182613485565b604082019050919050565b6000612959602e83612dd5565b9150612964826134d4565b604082019050919050565b600061297c601f83612dd5565b915061298782613523565b602082019050919050565b61299b81612f16565b82525050565b6129b26129ad82612f16565b613032565b82525050565b60006129c482846126d5565b915081905092915050565b60006129db82856126d5565b91506129e782846126d5565b91508190509392505050565b60006129ff8284612706565b915081905092915050565b6000612a1682866129a1565b602082019150612a26828561263d565b601482019150612a3682846129a1565b602082019150819050949350505050565b6000602082019050612a5c600083018461262e565b92915050565b6000608082019050612a77600083018761262e565b612a84602083018661262e565b612a916040830185612992565b8181036060830152612aa38184612663565b905095945050505050565b6000602082019050612ac36000830184612654565b92915050565b60006020820190508181036000830152612ae3818461269c565b905092915050565b60006020820190508181036000830152612b0481612785565b9050919050565b60006020820190508181036000830152612b24816127a8565b9050919050565b60006020820190508181036000830152612b44816127cb565b9050919050565b60006020820190508181036000830152612b64816127ee565b9050919050565b60006020820190508181036000830152612b8481612811565b9050919050565b60006020820190508181036000830152612ba481612834565b9050919050565b60006020820190508181036000830152612bc481612857565b9050919050565b60006020820190508181036000830152612be48161287a565b9050919050565b60006020820190508181036000830152612c048161289d565b9050919050565b60006020820190508181036000830152612c24816128c0565b9050919050565b60006020820190508181036000830152612c44816128e3565b9050919050565b60006020820190508181036000830152612c6481612906565b9050919050565b60006020820190508181036000830152612c8481612929565b9050919050565b60006020820190508181036000830152612ca48161294c565b9050919050565b60006020820190508181036000830152612cc48161296f565b9050919050565b6000602082019050612ce06000830184612992565b92915050565b6000612cf0612d01565b9050612cfc8282612f94565b919050565b6000604051905090565b600067ffffffffffffffff821115612d2657612d25613129565b5b602082029050602081019050919050565b600067ffffffffffffffff821115612d5257612d51613129565b5b612d5b82613171565b9050602081019050919050565b600067ffffffffffffffff821115612d8357612d82613129565b5b612d8c82613171565b9050602081019050919050565b60008190508160005260206000209050919050565b600081519050919050565b600081519050919050565b600082825260208201905092915050565b600082825260208201905092915050565b600081905092915050565b6000612dfc82612f16565b9150612e0783612f16565b9250827fffffffffffffffffffffffffffffffffffffffffffffffffffffffffffffffff03821115612e3c57612e3b61306d565b5b828201905092915050565b6000612e5282612f16565b9150612e5d83612f16565b925082612e6d57612e6c61309c565b5b828204905092915050565b6000612e8382612f16565b9150612e8e83612f16565b925082821015612ea157612ea061306d565b5b828203905092915050565b6000612eb782612ef6565b9050919050565b60008115159050919050565b60007fffffffff0000000000000000000000000000000000000000000000000000000082169050919050565b600073ffffffffffffffffffffffffffffffffffffffff82169050919050565b6000819050919050565b82818337600083830152505050565b60005b83811015612f4d578082015181840152602081019050612f32565b83811115612f5c576000848401525b50505050565b60006002820490506001821680612f7a57607f821691505b60208210811415612f8e57612f8d6130cb565b5b50919050565b612f9d82613171565b810181811067ffffffffffffffff82111715612fbc57612fbb613129565b5b80604052505050565b6000612fd082612f16565b91507fffffffffffffffffffffffffffffffffffffffffffffffffffffffffffffffff8214156130035761300261306d565b5b600182019050919050565b600061301982613020565b9050919050565b600061302b82613182565b9050919050565b6000819050919050565b600061304782612f16565b915061305283612f16565b9250826130625761306161309c565b5b828206905092915050565b7f4e487b7100000000000000000000000000000000000000000000000000000000600052601160045260246000fd5b7f4e487b7100000000000000000000000000000000000000000000000000000000600052601260045260246000fd5b7f4e487b7100000000000000000000000000000000000000000000000000000000600052602260045260246000fd5b7f4e487b7100000000000000000000000000000000000000000000000000000000600052603260045260246000fd5b7f4e487b7100000000000000000000000000000000000000000000000000000000600052604160045260246000fd5b600080fd5b600080fd5b600080fd5b600080fd5b600080fd5b6000601f19601f8301169050919050565b60008160601b9050919050565b7f4552433732313a207472616e7366657220746f206e6f6e20455243373231526560008201527f63656976657220696d706c656d656e7465720000000000000000000000000000602082015250565b7f4f776e61626c653a206e6577206f776e657220697320746865207a65726f206160008201527f6464726573730000000000000000000000000000000000000000000000000000602082015250565b7f4552433732313a207472616e736665722066726f6d20696e636f72726563742060008201527f6f776e6572000000000000000000000000000000000000000000000000000000602082015250565b7f4552433732313a20746f6b656e20616c7265616479206d696e74656400000000600082015250565b7f4552433732313a207472616e7366657220746f20746865207a65726f2061646460008201527f7265737300000000000000000000000000000000000000000000000000000000602082015250565b7f4552433732313a20617070726f766520746f2063616c6c657200000000000000600082015250565b7f4552433732313a2061646472657373207a65726f206973206e6f74206120766160008201527f6c6964206f776e65720000000000000000000000000000000000000000000000602082015250565b7f45524337323155524953746f726167653a2055524920736574206f66206e6f6e60008201527f6578697374656e7420746f6b656e000000000000000000000000000000000000602082015250565b7f4552433732313a20617070726f76652063616c6c6572206973206e6f7420746f60008201527f6b656e206f776e6572206e6f7220617070726f76656420666f7220616c6c0000602082015250565b7f4552433732313a206d696e7420746f20746865207a65726f2061646472657373600082015250565b7f4f776e61626c653a2063616c6c6572206973206e6f7420746865206f776e6572600082015250565b7f4552433732313a20696e76616c696420746f6b656e2049440000000000000000600082015250565b7f4552433732313a20617070726f76616c20746f2063757272656e74206f776e6560008201527f7200000000000000000000000000000000000000000000000000000000000000602082015250565b7f4552433732313a2063616c6c6572206973206e6f7420746f6b656e206f776e6560008201527f72206e6f7220617070726f766564000000000000000000000000000000000000602082015250565b7f5265656e7472616e637947756172643a207265656e7472616e742063616c6c00600082015250565b61355581612eac565b811461356057600080fd5b50565b61356c81612ebe565b811461357757600080fd5b50565b61358381612eca565b811461358e57600080fd5b50565b61359a81612f16565b81146135a557600080fd5b5056fea2646970667358221220098c326ef35308f27f9c0046afbc91da2b0512cfdea3331e83466df8c92295ef64736f6c63430008060033",
  "immutableReferences": {},
  "source": "// SPDX-License-Identifier: MIT\npragma solidity ^0.8.6;\n\nimport \"@openzeppelin/contracts/token/ERC721/extensions/ERC721URIStorage.sol\";\nimport \"@openzeppelin/contracts/utils/Counters.sol\";\nimport \"@openzeppelin/contracts/utils/Strings.sol\";\nimport \"@openzeppelin/contracts/security/ReentrancyGuard.sol\";\nimport \"@openzeppelin/contracts/access/Ownable.sol\";\n\ncontract FunctionalNFT is ERC721URIStorage, ReentrancyGuard, Ownable {\n\n        // token id\n        using Counters for Counters.Counter;\n        Counters.Counter private _counter;\n\n        // the function source code\n        string private _code;\n\n        // the function parameters\n        string[] private _params;\n\n        // the possible values of a param\n        mapping(string => string[]) private _ranges;\n\n        // the specific value of a param (attribute) of an NFT\n        mapping(uint256 => mapping(string => string)) private _values;\n\n        // minting fee, if any\n        uint256 private _fee;\n\n        constructor(string memory name, string memory symbol, uint256 fee) ERC721(name, symbol) {\n                _fee = fee;\n        }\n\n        function setCode(string memory code) public onlyOwner {\n                _code = code;\n        }\n\n        function setRange(string memory param, string[] memory range) public onlyOwner {\n                _ranges[param] = range;\n        }\n\n        function _setValue(uint256 id, string memory param, string memory value) internal {\n                _values[id][param] = value;\n        }\n\n        // for code gen execution\n        function getCode() public view returns (string memory) {\n                return _code;\n        }\n\n        function mint() public nonReentrant payable returns (uint256) {\n\n                require(msg.value >= _fee);\n\n                uint256 id = _counter.current();\n\n                _randomize(id);\n                _setTokenURI(id, \"TODO\"); // TODO: link to the metadata that opensea can uderstand\n\n                _mint(msg.sender, id);\n\n                _counter.increment();\n                return id;\n        }\n\n        function _randomize(uint256 id) internal returns (string memory) {\n                string memory content;\n\n                for (uint256 i = 0; i < _params.length; i++) {\n                        string storage param = _params[i];\n                        uint256 k = _randomNumber(_ranges[param].length);\n                        string memory value = _ranges[param][k];\n                        _setValue(id, param, value);\n                        content = string(abi.encodePacked(content, value));\n                }\n\n                return content;\n        }\n\n        function _randomNumber(uint256 n) internal view returns (uint256) {\n                return uint(keccak256(abi.encodePacked(block.difficulty, msg.sender, block.timestamp))) % n;\n        }\n\n        // TODO: test this one carefully\n        function withdraw() public onlyOwner {\n                payable(msg.sender).transfer(address(this).balance);\n        }\n}\n",
  "sourcePath": "/Users/autonomous/code/rove/3df/contracts/FunctionNFT.sol",
  "compiler": {
    "name": "solc",
    "version": "0.8.6+commit.11564f7e.Emscripten.clang"
  },
  "schemaVersion": "3.4.4",
  "updatedAt": "2022-09-20T04:14:12.677Z",
  "devdoc": {
    "kind": "dev",
    "methods": {
      "approve(address,uint256)": {
        "details": "See {IERC721-approve}."
      },
      "balanceOf(address)": {
        "details": "See {IERC721-balanceOf}."
      },
      "getApproved(uint256)": {
        "details": "See {IERC721-getApproved}."
      },
      "isApprovedForAll(address,address)": {
        "details": "See {IERC721-isApprovedForAll}."
      },
      "name()": {
        "details": "See {IERC721Metadata-name}."
      },
      "owner()": {
        "details": "Returns the address of the current owner."
      },
      "ownerOf(uint256)": {
        "details": "See {IERC721-ownerOf}."
      },
      "renounceOwnership()": {
        "details": "Leaves the contract without owner. It will not be possible to call `onlyOwner` functions anymore. Can only be called by the current owner. NOTE: Renouncing ownership will leave the contract without an owner, thereby removing any functionality that is only available to the owner."
      },
      "safeTransferFrom(address,address,uint256)": {
        "details": "See {IERC721-safeTransferFrom}."
      },
      "safeTransferFrom(address,address,uint256,bytes)": {
        "details": "See {IERC721-safeTransferFrom}."
      },
      "setApprovalForAll(address,bool)": {
        "details": "See {IERC721-setApprovalForAll}."
      },
      "supportsInterface(bytes4)": {
        "details": "See {IERC165-supportsInterface}."
      },
      "symbol()": {
        "details": "See {IERC721Metadata-symbol}."
      },
      "tokenURI(uint256)": {
        "details": "See {IERC721Metadata-tokenURI}."
      },
      "transferFrom(address,address,uint256)": {
        "details": "See {IERC721-transferFrom}."
      },
      "transferOwnership(address)": {
        "details": "Transfers ownership of the contract to a new account (`newOwner`). Can only be called by the current owner."
      }
    },
    "version": 1
  },
  "userdoc": {
    "kind": "user",
    "methods": {},
    "version": 1
  }
}