{
  "contractName": "FunctionalNFT",
  "abi": [
    {
      "inputs": [
        {
          "internalType": "string",
          "name": "name",
          "type": "string"
        },
        {
          "internalType": "string",
          "name": "symbol",
          "type": "string"
        }
      ],
      "stateMutability": "nonpayable",
      "type": "constructor"
    },
    {
      "anonymous": false,
      "inputs": [
        {
          "indexed": true,
          "internalType": "address",
          "name": "owner",
          "type": "address"
        },
        {
          "indexed": true,
          "internalType": "address",
          "name": "approved",
          "type": "address"
        },
        {
          "indexed": true,
          "internalType": "uint256",
          "name": "tokenId",
          "type": "uint256"
        }
      ],
      "name": "Approval",
      "type": "event"
    },
    {
      "anonymous": false,
      "inputs": [
        {
          "indexed": true,
          "internalType": "address",
          "name": "owner",
          "type": "address"
        },
        {
          "indexed": true,
          "internalType": "address",
          "name": "operator",
          "type": "address"
        },
        {
          "indexed": false,
          "internalType": "bool",
          "name": "approved",
          "type": "bool"
        }
      ],
      "name": "ApprovalForAll",
      "type": "event"
    },
    {
      "anonymous": false,
      "inputs": [
        {
          "indexed": true,
          "internalType": "address",
          "name": "previousOwner",
          "type": "address"
        },
        {
          "indexed": true,
          "internalType": "address",
          "name": "newOwner",
          "type": "address"
        }
      ],
      "name": "OwnershipTransferred",
      "type": "event"
    },
    {
      "anonymous": false,
      "inputs": [
        {
          "indexed": true,
          "internalType": "address",
          "name": "from",
          "type": "address"
        },
        {
          "indexed": true,
          "internalType": "address",
          "name": "to",
          "type": "address"
        },
        {
          "indexed": true,
          "internalType": "uint256",
          "name": "tokenId",
          "type": "uint256"
        }
      ],
      "name": "Transfer",
      "type": "event"
    },
    {
      "inputs": [
        {
          "internalType": "address",
          "name": "to",
          "type": "address"
        },
        {
          "internalType": "uint256",
          "name": "tokenId",
          "type": "uint256"
        }
      ],
      "name": "approve",
      "outputs": [],
      "stateMutability": "nonpayable",
      "type": "function"
    },
    {
      "inputs": [
        {
          "internalType": "address",
          "name": "owner",
          "type": "address"
        }
      ],
      "name": "balanceOf",
      "outputs": [
        {
          "internalType": "uint256",
          "name": "",
          "type": "uint256"
        }
      ],
      "stateMutability": "view",
      "type": "function"
    },
    {
      "inputs": [
        {
          "internalType": "uint256",
          "name": "tokenId",
          "type": "uint256"
        }
      ],
      "name": "getApproved",
      "outputs": [
        {
          "internalType": "address",
          "name": "",
          "type": "address"
        }
      ],
      "stateMutability": "view",
      "type": "function"
    },
    {
      "inputs": [
        {
          "internalType": "address",
          "name": "owner",
          "type": "address"
        },
        {
          "internalType": "address",
          "name": "operator",
          "type": "address"
        }
      ],
      "name": "isApprovedForAll",
      "outputs": [
        {
          "internalType": "bool",
          "name": "",
          "type": "bool"
        }
      ],
      "stateMutability": "view",
      "type": "function"
    },
    {
      "inputs": [],
      "name": "name",
      "outputs": [
        {
          "internalType": "string",
          "name": "",
          "type": "string"
        }
      ],
      "stateMutability": "view",
      "type": "function"
    },
    {
      "inputs": [],
      "name": "owner",
      "outputs": [
        {
          "internalType": "address",
          "name": "",
          "type": "address"
        }
      ],
      "stateMutability": "view",
      "type": "function"
    },
    {
      "inputs": [
        {
          "internalType": "uint256",
          "name": "tokenId",
          "type": "uint256"
        }
      ],
      "name": "ownerOf",
      "outputs": [
        {
          "internalType": "address",
          "name": "",
          "type": "address"
        }
      ],
      "stateMutability": "view",
      "type": "function"
    },
    {
      "inputs": [],
      "name": "renounceOwnership",
      "outputs": [],
      "stateMutability": "nonpayable",
      "type": "function"
    },
    {
      "inputs": [
        {
          "internalType": "address",
          "name": "from",
          "type": "address"
        },
        {
          "internalType": "address",
          "name": "to",
          "type": "address"
        },
        {
          "internalType": "uint256",
          "name": "tokenId",
          "type": "uint256"
        }
      ],
      "name": "safeTransferFrom",
      "outputs": [],
      "stateMutability": "nonpayable",
      "type": "function"
    },
    {
      "inputs": [
        {
          "internalType": "address",
          "name": "from",
          "type": "address"
        },
        {
          "internalType": "address",
          "name": "to",
          "type": "address"
        },
        {
          "internalType": "uint256",
          "name": "tokenId",
          "type": "uint256"
        },
        {
          "internalType": "bytes",
          "name": "data",
          "type": "bytes"
        }
      ],
      "name": "safeTransferFrom",
      "outputs": [],
      "stateMutability": "nonpayable",
      "type": "function"
    },
    {
      "inputs": [
        {
          "internalType": "address",
          "name": "operator",
          "type": "address"
        },
        {
          "internalType": "bool",
          "name": "approved",
          "type": "bool"
        }
      ],
      "name": "setApprovalForAll",
      "outputs": [],
      "stateMutability": "nonpayable",
      "type": "function"
    },
    {
      "inputs": [
        {
          "internalType": "bytes4",
          "name": "interfaceId",
          "type": "bytes4"
        }
      ],
      "name": "supportsInterface",
      "outputs": [
        {
          "internalType": "bool",
          "name": "",
          "type": "bool"
        }
      ],
      "stateMutability": "view",
      "type": "function"
    },
    {
      "inputs": [],
      "name": "symbol",
      "outputs": [
        {
          "internalType": "string",
          "name": "",
          "type": "string"
        }
      ],
      "stateMutability": "view",
      "type": "function"
    },
    {
      "inputs": [
        {
          "internalType": "uint256",
          "name": "tokenId",
          "type": "uint256"
        }
      ],
      "name": "tokenURI",
      "outputs": [
        {
          "internalType": "string",
          "name": "",
          "type": "string"
        }
      ],
      "stateMutability": "view",
      "type": "function"
    },
    {
      "inputs": [
        {
          "internalType": "address",
          "name": "from",
          "type": "address"
        },
        {
          "internalType": "address",
          "name": "to",
          "type": "address"
        },
        {
          "internalType": "uint256",
          "name": "tokenId",
          "type": "uint256"
        }
      ],
      "name": "transferFrom",
      "outputs": [],
      "stateMutability": "nonpayable",
      "type": "function"
    },
    {
      "inputs": [
        {
          "internalType": "address",
          "name": "newOwner",
          "type": "address"
        }
      ],
      "name": "transferOwnership",
      "outputs": [],
      "stateMutability": "nonpayable",
      "type": "function"
    },
    {
      "inputs": [
        {
          "internalType": "string",
          "name": "code",
          "type": "string"
        }
      ],
      "name": "setCode",
      "outputs": [],
      "stateMutability": "nonpayable",
      "type": "function"
    },
    {
      "inputs": [
        {
          "internalType": "string",
          "name": "param",
          "type": "string"
        },
        {
          "internalType": "string[]",
          "name": "range",
          "type": "string[]"
        }
      ],
      "name": "setRange",
      "outputs": [],
      "stateMutability": "nonpayable",
      "type": "function"
    },
    {
      "inputs": [],
      "name": "getCode",
      "outputs": [
        {
          "internalType": "string",
          "name": "",
          "type": "string"
        }
      ],
      "stateMutability": "view",
      "type": "function"
    },
    {
      "inputs": [
        {
          "internalType": "uint256",
          "name": "id",
          "type": "uint256"
        },
        {
          "internalType": "string",
          "name": "param",
          "type": "string"
        }
      ],
      "name": "getValue",
      "outputs": [
        {
          "internalType": "string",
          "name": "",
          "type": "string"
        }
      ],
      "stateMutability": "view",
      "type": "function"
    },
    {
      "inputs": [],
      "name": "mint",
      "outputs": [
        {
          "internalType": "uint256",
          "name": "",
          "type": "uint256"
        }
      ],
      "stateMutability": "nonpayable",
      "type": "function"
    }
  ],
  "bytecode": "0x60806040523480156200001157600080fd5b5060405162003a4638038062003a46833981810160405281019062000037919062000299565b81818160009080519060200190620000519291906200016b565b5080600190805190602001906200006a9291906200016b565b505050600160078190555062000095620000896200009d60201b60201c565b620000a560201b60201c565b5050620004a2565b600033905090565b6000600860009054906101000a900473ffffffffffffffffffffffffffffffffffffffff16905081600860006101000a81548173ffffffffffffffffffffffffffffffffffffffff021916908373ffffffffffffffffffffffffffffffffffffffff1602179055508173ffffffffffffffffffffffffffffffffffffffff168173ffffffffffffffffffffffffffffffffffffffff167f8be0079c531659141344cd1fd0a4f28419497f9722a3daafe3b4186f6b6457e060405160405180910390a35050565b8280546200017990620003b3565b90600052602060002090601f0160209004810192826200019d5760008555620001e9565b82601f10620001b857805160ff1916838001178555620001e9565b82800160010185558215620001e9579182015b82811115620001e8578251825591602001919060010190620001cb565b5b509050620001f89190620001fc565b5090565b5b8082111562000217576000816000905550600101620001fd565b5090565b6000620002326200022c8462000347565b6200031e565b90508281526020810184848401111562000251576200025062000482565b5b6200025e8482856200037d565b509392505050565b600082601f8301126200027e576200027d6200047d565b5b8151620002908482602086016200021b565b91505092915050565b60008060408385031215620002b357620002b26200048c565b5b600083015167ffffffffffffffff811115620002d457620002d362000487565b5b620002e28582860162000266565b925050602083015167ffffffffffffffff81111562000306576200030562000487565b5b620003148582860162000266565b9150509250929050565b60006200032a6200033d565b9050620003388282620003e9565b919050565b6000604051905090565b600067ffffffffffffffff8211156200036557620003646200044e565b5b620003708262000491565b9050602081019050919050565b60005b838110156200039d57808201518184015260208101905062000380565b83811115620003ad576000848401525b50505050565b60006002820490506001821680620003cc57607f821691505b60208210811415620003e357620003e26200041f565b5b50919050565b620003f48262000491565b810181811067ffffffffffffffff821117156200041657620004156200044e565b5b80604052505050565b7f4e487b7100000000000000000000000000000000000000000000000000000000600052602260045260246000fd5b7f4e487b7100000000000000000000000000000000000000000000000000000000600052604160045260246000fd5b600080fd5b600080fd5b600080fd5b600080fd5b6000601f19601f8301169050919050565b61359480620004b26000396000f3fe608060405234801561001057600080fd5b50600436106101375760003560e01c806389bca4af116100b8578063b88d4fde1161007c578063b88d4fde1461033a578063c87b56dd14610356578063e403f1a714610386578063e985e9c5146103a2578063ea879634146103d2578063f2fde38b146103f057610137565b806389bca4af146102965780638da5cb5b146102c657806395d89b41146102e4578063998486f214610302578063a22cb4651461031e57610137565b806323b872dd116100ff57806323b872dd146101f457806342842e0e146102105780636352211e1461022c57806370a082311461025c578063715018a61461028c57610137565b806301ffc9a71461013c57806306fdde031461016c578063081812fc1461018a578063095ea7b3146101ba5780631249c58b146101d6575b600080fd5b61015660048036038101906101519190612440565b61040c565b6040516101639190612a64565b60405180910390f35b6101746104ee565b6040516101819190612a7f565b60405180910390f35b6101a4600480360381019061019f919061255b565b610580565b6040516101b191906129fd565b60405180910390f35b6101d460048036038101906101cf9190612400565b6105c6565b005b6101de6106de565b6040516101eb9190612c81565b60405180910390f35b61020e600480360381019061020991906122ea565b610771565b005b61022a600480360381019061022591906122ea565b6107d1565b005b6102466004803603810190610241919061255b565b6107f1565b60405161025391906129fd565b60405180910390f35b6102766004803603810190610271919061227d565b6108a3565b6040516102839190612c81565b60405180910390f35b61029461095b565b005b6102b060048036038101906102ab9190612588565b61096f565b6040516102bd9190612a7f565b60405180910390f35b6102ce610a31565b6040516102db91906129fd565b60405180910390f35b6102ec610a5b565b6040516102f99190612a7f565b60405180910390f35b61031c600480360381019061031791906124e3565b610aed565b005b610338600480360381019061033391906123c0565b610b2c565b005b610354600480360381019061034f919061233d565b610b42565b005b610370600480360381019061036b919061255b565b610ba4565b60405161037d9190612a7f565b60405180910390f35b6103a0600480360381019061039b919061249a565b610cb7565b005b6103bc60048036038101906103b791906122aa565b610cd9565b6040516103c99190612a64565b60405180910390f35b6103da610d6d565b6040516103e79190612a7f565b60405180910390f35b61040a6004803603810190610405919061227d565b610dff565b005b60007f80ac58cd000000000000000000000000000000000000000000000000000000007bffffffffffffffffffffffffffffffffffffffffffffffffffffffff1916827bffffffffffffffffffffffffffffffffffffffffffffffffffffffff191614806104d757507f5b5e139f000000000000000000000000000000000000000000000000000000007bffffffffffffffffffffffffffffffffffffffffffffffffffffffff1916827bffffffffffffffffffffffffffffffffffffffffffffffffffffffff1916145b806104e757506104e682610e83565b5b9050919050565b6060600080546104fd90612f18565b80601f016020809104026020016040519081016040528092919081815260200182805461052990612f18565b80156105765780601f1061054b57610100808354040283529160200191610576565b820191906000526020600020905b81548152906001019060200180831161055957829003601f168201915b5050505050905090565b600061058b82610eed565b6004600083815260200190815260200160002060009054906101000a900473ffffffffffffffffffffffffffffffffffffffff169050919050565b60006105d1826107f1565b90508073ffffffffffffffffffffffffffffffffffffffff168373ffffffffffffffffffffffffffffffffffffffff161415610642576040517f08c379a000000000000000000000000000000000000000000000000000000000815260040161063990612c21565b60405180910390fd5b8073ffffffffffffffffffffffffffffffffffffffff16610661610f38565b73ffffffffffffffffffffffffffffffffffffffff161480610690575061068f8161068a610f38565b610cd9565b5b6106cf576040517f08c379a00000000000000000000000000000000000000000000000000000000081526004016106c690612ba1565b60405180910390fd5b6106d98383610f40565b505050565b600060026007541415610726576040517f08c379a000000000000000000000000000000000000000000000000000000000815260040161071d90612c61565b60405180910390fd5b6002600781905550600061073a6009610ff9565b90506107463382611007565b61075881610753836111e1565b6113e3565b6107626009611457565b80915050600160078190555090565b61078261077c610f38565b8261146d565b6107c1576040517f08c379a00000000000000000000000000000000000000000000000000000000081526004016107b890612c41565b60405180910390fd5b6107cc838383611502565b505050565b6107ec83838360405180602001604052806000815250610b42565b505050565b6000806002600084815260200190815260200160002060009054906101000a900473ffffffffffffffffffffffffffffffffffffffff169050600073ffffffffffffffffffffffffffffffffffffffff168173ffffffffffffffffffffffffffffffffffffffff16141561089a576040517f08c379a000000000000000000000000000000000000000000000000000000000815260040161089190612c01565b60405180910390fd5b80915050919050565b60008073ffffffffffffffffffffffffffffffffffffffff168273ffffffffffffffffffffffffffffffffffffffff161415610914576040517f08c379a000000000000000000000000000000000000000000000000000000000815260040161090b90612b61565b60405180910390fd5b600360008373ffffffffffffffffffffffffffffffffffffffff1673ffffffffffffffffffffffffffffffffffffffff168152602001908152602001600020549050919050565b610963611769565b61096d60006117e7565b565b6060600d600084815260200190815260200160002082604051610992919061296e565b908152602001604051809103902080546109ab90612f18565b80601f01602080910402602001604051908101604052809291908181526020018280546109d790612f18565b8015610a245780601f106109f957610100808354040283529160200191610a24565b820191906000526020600020905b815481529060010190602001808311610a0757829003601f168201915b5050505050905092915050565b6000600860009054906101000a900473ffffffffffffffffffffffffffffffffffffffff16905090565b606060018054610a6a90612f18565b80601f0160208091040260200160405190810160405280929190818152602001828054610a9690612f18565b8015610ae35780601f10610ab857610100808354040283529160200191610ae3565b820191906000526020600020905b815481529060010190602001808311610ac657829003601f168201915b5050505050905090565b610af5611769565b80600c83604051610b06919061296e565b90815260200160405180910390209080519060200190610b27929190611f11565b505050565b610b3e610b37610f38565b83836118ad565b5050565b610b53610b4d610f38565b8361146d565b610b92576040517f08c379a0000000000000000000000000000000000000000000000000000000008152600401610b8990612c41565b60405180910390fd5b610b9e84848484611a1a565b50505050565b6060610baf82610eed565b6000600660008481526020019081526020016000208054610bcf90612f18565b80601f0160208091040260200160405190810160405280929190818152602001828054610bfb90612f18565b8015610c485780601f10610c1d57610100808354040283529160200191610c48565b820191906000526020600020905b815481529060010190602001808311610c2b57829003601f168201915b505050505090506000610c59611a76565b9050600081511415610c6f578192505050610cb2565b600082511115610ca4578082604051602001610c8c929190612985565b60405160208183030381529060405292505050610cb2565b610cad84611a8d565b925050505b919050565b610cbf611769565b80600a9080519060200190610cd5929190611f71565b5050565b6000600560008473ffffffffffffffffffffffffffffffffffffffff1673ffffffffffffffffffffffffffffffffffffffff16815260200190815260200160002060008373ffffffffffffffffffffffffffffffffffffffff1673ffffffffffffffffffffffffffffffffffffffff16815260200190815260200160002060009054906101000a900460ff16905092915050565b6060600a8054610d7c90612f18565b80601f0160208091040260200160405190810160405280929190818152602001828054610da890612f18565b8015610df55780601f10610dca57610100808354040283529160200191610df5565b820191906000526020600020905b815481529060010190602001808311610dd857829003601f168201915b5050505050905090565b610e07611769565b600073ffffffffffffffffffffffffffffffffffffffff168173ffffffffffffffffffffffffffffffffffffffff161415610e77576040517f08c379a0000000000000000000000000000000000000000000000000000000008152600401610e6e90612ac1565b60405180910390fd5b610e80816117e7565b50565b60007f01ffc9a7000000000000000000000000000000000000000000000000000000007bffffffffffffffffffffffffffffffffffffffffffffffffffffffff1916827bffffffffffffffffffffffffffffffffffffffffffffffffffffffff1916149050919050565b610ef681611af5565b610f35576040517f08c379a0000000000000000000000000000000000000000000000000000000008152600401610f2c90612c01565b60405180910390fd5b50565b600033905090565b816004600083815260200190815260200160002060006101000a81548173ffffffffffffffffffffffffffffffffffffffff021916908373ffffffffffffffffffffffffffffffffffffffff160217905550808273ffffffffffffffffffffffffffffffffffffffff16610fb3836107f1565b73ffffffffffffffffffffffffffffffffffffffff167f8c5be1e5ebec7d5bd14f71427d1e84f3dd0314c0f7b2291e5b200ac8c7c3b92560405160405180910390a45050565b600081600001549050919050565b600073ffffffffffffffffffffffffffffffffffffffff168273ffffffffffffffffffffffffffffffffffffffff161415611077576040517f08c379a000000000000000000000000000000000000000000000000000000000815260040161106e90612bc1565b60405180910390fd5b61108081611af5565b156110c0576040517f08c379a00000000000000000000000000000000000000000000000000000000081526004016110b790612b01565b60405180910390fd5b6110cc60008383611b61565b6001600360008473ffffffffffffffffffffffffffffffffffffffff1673ffffffffffffffffffffffffffffffffffffffff168152602001908152602001600020600082825461111c9190612da7565b92505081905550816002600083815260200190815260200160002060006101000a81548173ffffffffffffffffffffffffffffffffffffffff021916908373ffffffffffffffffffffffffffffffffffffffff160217905550808273ffffffffffffffffffffffffffffffffffffffff16600073ffffffffffffffffffffffffffffffffffffffff167fddf252ad1be2c89b69c2b068fc378daa952ba7f163c4a11628f55a4df523b3ef60405160405180910390a46111dd60008383611b66565b5050565b60608060005b600b805490508110156113d9576000600b828154811061120a576112096130b0565b5b9060005260206000200190506000611242600c8360405161122b91906129a9565b908152602001604051809103902080549050611b6b565b90506000600c8360405161125691906129a9565b90815260200160405180910390208281548110611276576112756130b0565b5b90600052602060002001805461128b90612f18565b80601f01602080910402602001604051908101604052809291908181526020018280546112b790612f18565b80156113045780601f106112d957610100808354040283529160200191611304565b820191906000526020600020905b8154815290600101906020018083116112e757829003601f168201915b5050505050905061139f8784805461131b90612f18565b80601f016020809104026020016040519081016040528092919081815260200182805461134790612f18565b80156113945780601f1061136957610100808354040283529160200191611394565b820191906000526020600020905b81548152906001019060200180831161137757829003601f168201915b505050505083611bad565b84816040516020016113b2929190612985565b604051602081830303815290604052945050505080806113d190612f7b565b9150506111e7565b5080915050919050565b6113ec82611af5565b61142b576040517f08c379a000000000000000000000000000000000000000000000000000000000815260040161142290612b81565b60405180910390fd5b80600660008481526020019081526020016000209080519060200190611452929190611f71565b505050565b6001816000016000828254019250508190555050565b600080611479836107f1565b90508073ffffffffffffffffffffffffffffffffffffffff168473ffffffffffffffffffffffffffffffffffffffff1614806114bb57506114ba8185610cd9565b5b806114f957508373ffffffffffffffffffffffffffffffffffffffff166114e184610580565b73ffffffffffffffffffffffffffffffffffffffff16145b91505092915050565b8273ffffffffffffffffffffffffffffffffffffffff16611522826107f1565b73ffffffffffffffffffffffffffffffffffffffff1614611578576040517f08c379a000000000000000000000000000000000000000000000000000000000815260040161156f90612ae1565b60405180910390fd5b600073ffffffffffffffffffffffffffffffffffffffff168273ffffffffffffffffffffffffffffffffffffffff1614156115e8576040517f08c379a00000000000000000000000000000000000000000000000000000000081526004016115df90612b21565b60405180910390fd5b6115f3838383611b61565b6115fe600082610f40565b6001600360008573ffffffffffffffffffffffffffffffffffffffff1673ffffffffffffffffffffffffffffffffffffffff168152602001908152602001600020600082825461164e9190612e2e565b925050819055506001600360008473ffffffffffffffffffffffffffffffffffffffff1673ffffffffffffffffffffffffffffffffffffffff16815260200190815260200160002060008282546116a59190612da7565b92505081905550816002600083815260200190815260200160002060006101000a81548173ffffffffffffffffffffffffffffffffffffffff021916908373ffffffffffffffffffffffffffffffffffffffff160217905550808273ffffffffffffffffffffffffffffffffffffffff168473ffffffffffffffffffffffffffffffffffffffff167fddf252ad1be2c89b69c2b068fc378daa952ba7f163c4a11628f55a4df523b3ef60405160405180910390a4611764838383611b66565b505050565b611771610f38565b73ffffffffffffffffffffffffffffffffffffffff1661178f610a31565b73ffffffffffffffffffffffffffffffffffffffff16146117e5576040517f08c379a00000000000000000000000000000000000000000000000000000000081526004016117dc90612be1565b60405180910390fd5b565b6000600860009054906101000a900473ffffffffffffffffffffffffffffffffffffffff16905081600860006101000a81548173ffffffffffffffffffffffffffffffffffffffff021916908373ffffffffffffffffffffffffffffffffffffffff1602179055508173ffffffffffffffffffffffffffffffffffffffff168173ffffffffffffffffffffffffffffffffffffffff167f8be0079c531659141344cd1fd0a4f28419497f9722a3daafe3b4186f6b6457e060405160405180910390a35050565b8173ffffffffffffffffffffffffffffffffffffffff168373ffffffffffffffffffffffffffffffffffffffff16141561191c576040517f08c379a000000000000000000000000000000000000000000000000000000000815260040161191390612b41565b60405180910390fd5b80600560008573ffffffffffffffffffffffffffffffffffffffff1673ffffffffffffffffffffffffffffffffffffffff16815260200190815260200160002060008473ffffffffffffffffffffffffffffffffffffffff1673ffffffffffffffffffffffffffffffffffffffff16815260200190815260200160002060006101000a81548160ff0219169083151502179055508173ffffffffffffffffffffffffffffffffffffffff168373ffffffffffffffffffffffffffffffffffffffff167f17307eab39ab6107e8899845ad3d59bd9653f200f220920489ca2b5937696c3183604051611a0d9190612a64565b60405180910390a3505050565b611a25848484611502565b611a3184848484611bf6565b611a70576040517f08c379a0000000000000000000000000000000000000000000000000000000008152600401611a6790612aa1565b60405180910390fd5b50505050565b606060405180602001604052806000815250905090565b6060611a9882610eed565b6000611aa2611a76565b90506000815111611ac25760405180602001604052806000815250611aed565b80611acc84611d8d565b604051602001611add929190612985565b6040516020818303038152906040525b915050919050565b60008073ffffffffffffffffffffffffffffffffffffffff166002600084815260200190815260200160002060009054906101000a900473ffffffffffffffffffffffffffffffffffffffff1673ffffffffffffffffffffffffffffffffffffffff1614159050919050565b505050565b505050565b600081443342604051602001611b83939291906129c0565b6040516020818303038152906040528051906020012060001c611ba69190612ff2565b9050919050565b80600d600085815260200190815260200160002083604051611bcf919061296e565b90815260200160405180910390209080519060200190611bf0929190611f71565b50505050565b6000611c178473ffffffffffffffffffffffffffffffffffffffff16611eee565b15611d80578373ffffffffffffffffffffffffffffffffffffffff1663150b7a02611c40610f38565b8786866040518563ffffffff1660e01b8152600401611c629493929190612a18565b602060405180830381600087803b158015611c7c57600080fd5b505af1925050508015611cad57506040513d601f19601f82011682018060405250810190611caa919061246d565b60015b611d30573d8060008114611cdd576040519150601f19603f3d011682016040523d82523d6000602084013e611ce2565b606091505b50600081511415611d28576040517f08c379a0000000000000000000000000000000000000000000000000000000008152600401611d1f90612aa1565b60405180910390fd5b805181602001fd5b63150b7a0260e01b7bffffffffffffffffffffffffffffffffffffffffffffffffffffffff1916817bffffffffffffffffffffffffffffffffffffffffffffffffffffffff191614915050611d85565b600190505b949350505050565b60606000821415611dd5576040518060400160405280600181526020017f30000000000000000000000000000000000000000000000000000000000000008152509050611ee9565b600082905060005b60008214611e07578080611df090612f7b565b915050600a82611e009190612dfd565b9150611ddd565b60008167ffffffffffffffff811115611e2357611e226130df565b5b6040519080825280601f01601f191660200182016040528015611e555781602001600182028036833780820191505090505b5090505b60008514611ee257600182611e6e9190612e2e565b9150600a85611e7d9190612ff2565b6030611e899190612da7565b60f81b818381518110611e9f57611e9e6130b0565b5b60200101907effffffffffffffffffffffffffffffffffffffffffffffffffffffffffffff1916908160001a905350600a85611edb9190612dfd565b9450611e59565b8093505050505b919050565b6000808273ffffffffffffffffffffffffffffffffffffffff163b119050919050565b828054828255906000526020600020908101928215611f60579160200282015b82811115611f5f578251829080519060200190611f4f929190611f71565b5091602001919060010190611f31565b5b509050611f6d9190611ff7565b5090565b828054611f7d90612f18565b90600052602060002090601f016020900481019282611f9f5760008555611fe6565b82601f10611fb857805160ff1916838001178555611fe6565b82800160010185558215611fe6579182015b82811115611fe5578251825591602001919060010190611fca565b5b509050611ff3919061201b565b5090565b5b80821115612017576000818161200e9190612038565b50600101611ff8565b5090565b5b8082111561203457600081600090555060010161201c565b5090565b50805461204490612f18565b6000825580601f106120565750612075565b601f016020900490600052602060002090810190612074919061201b565b5b50565b600061208b61208684612cc1565b612c9c565b905080838252602082019050828560208602820111156120ae576120ad613113565b5b60005b858110156120fc57813567ffffffffffffffff8111156120d4576120d361310e565b5b8086016120e1898261223a565b855260208501945060208401935050506001810190506120b1565b5050509392505050565b600061211961211484612ced565b612c9c565b90508281526020810184848401111561213557612134613118565b5b612140848285612ed6565b509392505050565b600061215b61215684612d1e565b612c9c565b90508281526020810184848401111561217757612176613118565b5b612182848285612ed6565b509392505050565b60008135905061219981613502565b92915050565b600082601f8301126121b4576121b361310e565b5b81356121c4848260208601612078565b91505092915050565b6000813590506121dc81613519565b92915050565b6000813590506121f181613530565b92915050565b60008151905061220681613530565b92915050565b600082601f8301126122215761222061310e565b5b8135612231848260208601612106565b91505092915050565b600082601f83011261224f5761224e61310e565b5b813561225f848260208601612148565b91505092915050565b60008135905061227781613547565b92915050565b60006020828403121561229357612292613122565b5b60006122a18482850161218a565b91505092915050565b600080604083850312156122c1576122c0613122565b5b60006122cf8582860161218a565b92505060206122e08582860161218a565b9150509250929050565b60008060006060848603121561230357612302613122565b5b60006123118682870161218a565b93505060206123228682870161218a565b925050604061233386828701612268565b9150509250925092565b6000806000806080858703121561235757612356613122565b5b60006123658782880161218a565b94505060206123768782880161218a565b935050604061238787828801612268565b925050606085013567ffffffffffffffff8111156123a8576123a761311d565b5b6123b48782880161220c565b91505092959194509250565b600080604083850312156123d7576123d6613122565b5b60006123e58582860161218a565b92505060206123f6858286016121cd565b9150509250929050565b6000806040838503121561241757612416613122565b5b60006124258582860161218a565b925050602061243685828601612268565b9150509250929050565b60006020828403121561245657612455613122565b5b6000612464848285016121e2565b91505092915050565b60006020828403121561248357612482613122565b5b6000612491848285016121f7565b91505092915050565b6000602082840312156124b0576124af613122565b5b600082013567ffffffffffffffff8111156124ce576124cd61311d565b5b6124da8482850161223a565b91505092915050565b600080604083850312156124fa576124f9613122565b5b600083013567ffffffffffffffff8111156125185761251761311d565b5b6125248582860161223a565b925050602083013567ffffffffffffffff8111156125455761254461311d565b5b6125518582860161219f565b9150509250929050565b60006020828403121561257157612570613122565b5b600061257f84828501612268565b91505092915050565b6000806040838503121561259f5761259e613122565b5b60006125ad85828601612268565b925050602083013567ffffffffffffffff8111156125ce576125cd61311d565b5b6125da8582860161223a565b9150509250929050565b6125ed81612e62565b82525050565b6126046125ff82612e62565b612fc4565b82525050565b61261381612e74565b82525050565b600061262482612d64565b61262e8185612d7a565b935061263e818560208601612ee5565b61264781613127565b840191505092915050565b600061265d82612d6f565b6126678185612d8b565b9350612677818560208601612ee5565b61268081613127565b840191505092915050565b600061269682612d6f565b6126a08185612d9c565b93506126b0818560208601612ee5565b80840191505092915050565b600081546126c981612f18565b6126d38186612d9c565b945060018216600081146126ee57600181146126ff57612732565b60ff19831686528186019350612732565b61270885612d4f565b60005b8381101561272a5781548189015260018201915060208101905061270b565b838801955050505b50505092915050565b6000612748603283612d8b565b915061275382613145565b604082019050919050565b600061276b602683612d8b565b915061277682613194565b604082019050919050565b600061278e602583612d8b565b9150612799826131e3565b604082019050919050565b60006127b1601c83612d8b565b91506127bc82613232565b602082019050919050565b60006127d4602483612d8b565b91506127df8261325b565b604082019050919050565b60006127f7601983612d8b565b9150612802826132aa565b602082019050919050565b600061281a602983612d8b565b9150612825826132d3565b604082019050919050565b600061283d602e83612d8b565b915061284882613322565b604082019050919050565b6000612860603e83612d8b565b915061286b82613371565b604082019050919050565b6000612883602083612d8b565b915061288e826133c0565b602082019050919050565b60006128a6602083612d8b565b91506128b1826133e9565b602082019050919050565b60006128c9601883612d8b565b91506128d482613412565b602082019050919050565b60006128ec602183612d8b565b91506128f78261343b565b604082019050919050565b600061290f602e83612d8b565b915061291a8261348a565b604082019050919050565b6000612932601f83612d8b565b915061293d826134d9565b602082019050919050565b61295181612ecc565b82525050565b61296861296382612ecc565b612fe8565b82525050565b600061297a828461268b565b915081905092915050565b6000612991828561268b565b915061299d828461268b565b91508190509392505050565b60006129b582846126bc565b915081905092915050565b60006129cc8286612957565b6020820191506129dc82856125f3565b6014820191506129ec8284612957565b602082019150819050949350505050565b6000602082019050612a1260008301846125e4565b92915050565b6000608082019050612a2d60008301876125e4565b612a3a60208301866125e4565b612a476040830185612948565b8181036060830152612a598184612619565b905095945050505050565b6000602082019050612a79600083018461260a565b92915050565b60006020820190508181036000830152612a998184612652565b905092915050565b60006020820190508181036000830152612aba8161273b565b9050919050565b60006020820190508181036000830152612ada8161275e565b9050919050565b60006020820190508181036000830152612afa81612781565b9050919050565b60006020820190508181036000830152612b1a816127a4565b9050919050565b60006020820190508181036000830152612b3a816127c7565b9050919050565b60006020820190508181036000830152612b5a816127ea565b9050919050565b60006020820190508181036000830152612b7a8161280d565b9050919050565b60006020820190508181036000830152612b9a81612830565b9050919050565b60006020820190508181036000830152612bba81612853565b9050919050565b60006020820190508181036000830152612bda81612876565b9050919050565b60006020820190508181036000830152612bfa81612899565b9050919050565b60006020820190508181036000830152612c1a816128bc565b9050919050565b60006020820190508181036000830152612c3a816128df565b9050919050565b60006020820190508181036000830152612c5a81612902565b9050919050565b60006020820190508181036000830152612c7a81612925565b9050919050565b6000602082019050612c966000830184612948565b92915050565b6000612ca6612cb7565b9050612cb28282612f4a565b919050565b6000604051905090565b600067ffffffffffffffff821115612cdc57612cdb6130df565b5b602082029050602081019050919050565b600067ffffffffffffffff821115612d0857612d076130df565b5b612d1182613127565b9050602081019050919050565b600067ffffffffffffffff821115612d3957612d386130df565b5b612d4282613127565b9050602081019050919050565b60008190508160005260206000209050919050565b600081519050919050565b600081519050919050565b600082825260208201905092915050565b600082825260208201905092915050565b600081905092915050565b6000612db282612ecc565b9150612dbd83612ecc565b9250827fffffffffffffffffffffffffffffffffffffffffffffffffffffffffffffffff03821115612df257612df1613023565b5b828201905092915050565b6000612e0882612ecc565b9150612e1383612ecc565b925082612e2357612e22613052565b5b828204905092915050565b6000612e3982612ecc565b9150612e4483612ecc565b925082821015612e5757612e56613023565b5b828203905092915050565b6000612e6d82612eac565b9050919050565b60008115159050919050565b60007fffffffff0000000000000000000000000000000000000000000000000000000082169050919050565b600073ffffffffffffffffffffffffffffffffffffffff82169050919050565b6000819050919050565b82818337600083830152505050565b60005b83811015612f03578082015181840152602081019050612ee8565b83811115612f12576000848401525b50505050565b60006002820490506001821680612f3057607f821691505b60208210811415612f4457612f43613081565b5b50919050565b612f5382613127565b810181811067ffffffffffffffff82111715612f7257612f716130df565b5b80604052505050565b6000612f8682612ecc565b91507fffffffffffffffffffffffffffffffffffffffffffffffffffffffffffffffff821415612fb957612fb8613023565b5b600182019050919050565b6000612fcf82612fd6565b9050919050565b6000612fe182613138565b9050919050565b6000819050919050565b6000612ffd82612ecc565b915061300883612ecc565b92508261301857613017613052565b5b828206905092915050565b7f4e487b7100000000000000000000000000000000000000000000000000000000600052601160045260246000fd5b7f4e487b7100000000000000000000000000000000000000000000000000000000600052601260045260246000fd5b7f4e487b7100000000000000000000000000000000000000000000000000000000600052602260045260246000fd5b7f4e487b7100000000000000000000000000000000000000000000000000000000600052603260045260246000fd5b7f4e487b7100000000000000000000000000000000000000000000000000000000600052604160045260246000fd5b600080fd5b600080fd5b600080fd5b600080fd5b600080fd5b6000601f19601f8301169050919050565b60008160601b9050919050565b7f4552433732313a207472616e7366657220746f206e6f6e20455243373231526560008201527f63656976657220696d706c656d656e7465720000000000000000000000000000602082015250565b7f4f776e61626c653a206e6577206f776e657220697320746865207a65726f206160008201527f6464726573730000000000000000000000000000000000000000000000000000602082015250565b7f4552433732313a207472616e736665722066726f6d20696e636f72726563742060008201527f6f776e6572000000000000000000000000000000000000000000000000000000602082015250565b7f4552433732313a20746f6b656e20616c7265616479206d696e74656400000000600082015250565b7f4552433732313a207472616e7366657220746f20746865207a65726f2061646460008201527f7265737300000000000000000000000000000000000000000000000000000000602082015250565b7f4552433732313a20617070726f766520746f2063616c6c657200000000000000600082015250565b7f4552433732313a2061646472657373207a65726f206973206e6f74206120766160008201527f6c6964206f776e65720000000000000000000000000000000000000000000000602082015250565b7f45524337323155524953746f726167653a2055524920736574206f66206e6f6e60008201527f6578697374656e7420746f6b656e000000000000000000000000000000000000602082015250565b7f4552433732313a20617070726f76652063616c6c6572206973206e6f7420746f60008201527f6b656e206f776e6572206e6f7220617070726f76656420666f7220616c6c0000602082015250565b7f4552433732313a206d696e7420746f20746865207a65726f2061646472657373600082015250565b7f4f776e61626c653a2063616c6c6572206973206e6f7420746865206f776e6572600082015250565b7f4552433732313a20696e76616c696420746f6b656e2049440000000000000000600082015250565b7f4552433732313a20617070726f76616c20746f2063757272656e74206f776e6560008201527f7200000000000000000000000000000000000000000000000000000000000000602082015250565b7f4552433732313a2063616c6c6572206973206e6f7420746f6b656e206f776e6560008201527f72206e6f7220617070726f766564000000000000000000000000000000000000602082015250565b7f5265656e7472616e637947756172643a207265656e7472616e742063616c6c00600082015250565b61350b81612e62565b811461351657600080fd5b50565b61352281612e74565b811461352d57600080fd5b50565b61353981612e80565b811461354457600080fd5b50565b61355081612ecc565b811461355b57600080fd5b5056fea26469706673582212205455bab7c041f77277040ee3588753e6e8b6e53c0f60c24d229ef30e056efe4364736f6c63430008060033",
  "immutableReferences": {},
  "source": "// SPDX-License-Identifier: MIT\npragma solidity ^0.8.6;\n\nimport \"@openzeppelin/contracts/token/ERC721/extensions/ERC721URIStorage.sol\";\nimport \"@openzeppelin/contracts/utils/Counters.sol\";\nimport \"@openzeppelin/contracts/security/ReentrancyGuard.sol\";\nimport \"@openzeppelin/contracts/access/Ownable.sol\";\n\ncontract FunctionalNFT is ERC721URIStorage, ReentrancyGuard, Ownable {\n\n        // token id\n        using Counters for Counters.Counter;\n        Counters.Counter private _counter;\n\n        // the function source code\n        string private _code;\n\n        // the function parameters\n        string[] private _params;\n\n        // the possible values of a param\n        mapping(string => string[]) private _ranges;\n\n        // the specific value of a param (attribute) of an NFT\n        mapping(uint256 => mapping(string => string)) private _values;\n\n        constructor(string memory name, string memory symbol) ERC721(name, symbol) {}\n\n        function setCode(string memory code) public onlyOwner {\n                _code = code;\n        }\n\n\n        function setRange(string memory param, string[] memory range) public onlyOwner {\n                _ranges[param] = range;\n        }\n\n        function _setValue(uint256 id, string memory param, string memory value) internal {\n                _values[id][param] = value;\n        }\n\n        // for code gen execution\n        function getCode() public view returns (string memory) {\n                return _code;\n        }\n\n        // TODO: look at common format so it can be displayed on opensea etc\n        function getValue(uint256 id, string memory param) public view returns (string memory) {\n                return _values[id][param];\n        }\n\n        function mint() public nonReentrant returns (uint256) {\n                uint256 id = _counter.current();\n                _mint(msg.sender, id);\n                _setTokenURI(id, _randomAttributes(id));\n                _counter.increment();\n                return id;\n        }\n\n        function _randomAttributes(uint256 id) internal returns (string memory) {\n                string memory content;\n\n                for (uint256 i = 0; i < _params.length; i++) {\n                        string storage param = _params[i];\n                        uint256 k = _randomNumber(_ranges[param].length);\n                        string memory value = _ranges[param][k];\n                        _setValue(id, param, value);\n                        content = string(abi.encodePacked(content, value));\n                }\n\n                return content;\n        }\n\n        function _randomNumber(uint256 n) internal view returns (uint256) {\n                return uint(keccak256(abi.encodePacked(block.difficulty, msg.sender, block.timestamp))) % n;\n        }\n}\n",
  "sourcePath": "/Users/autonomous/code/rove/3df/contracts/FunctionNFT.sol",
  "compiler": {
    "name": "solc",
    "version": "0.8.6+commit.11564f7e.Emscripten.clang"
  },
  "schemaVersion": "3.4.4",
  "updatedAt": "2022-09-20T03:43:52.747Z",
  "devdoc": {
    "kind": "dev",
    "methods": {
      "approve(address,uint256)": {
        "details": "See {IERC721-approve}."
      },
      "balanceOf(address)": {
        "details": "See {IERC721-balanceOf}."
      },
      "getApproved(uint256)": {
        "details": "See {IERC721-getApproved}."
      },
      "isApprovedForAll(address,address)": {
        "details": "See {IERC721-isApprovedForAll}."
      },
      "name()": {
        "details": "See {IERC721Metadata-name}."
      },
      "owner()": {
        "details": "Returns the address of the current owner."
      },
      "ownerOf(uint256)": {
        "details": "See {IERC721-ownerOf}."
      },
      "renounceOwnership()": {
        "details": "Leaves the contract without owner. It will not be possible to call `onlyOwner` functions anymore. Can only be called by the current owner. NOTE: Renouncing ownership will leave the contract without an owner, thereby removing any functionality that is only available to the owner."
      },
      "safeTransferFrom(address,address,uint256)": {
        "details": "See {IERC721-safeTransferFrom}."
      },
      "safeTransferFrom(address,address,uint256,bytes)": {
        "details": "See {IERC721-safeTransferFrom}."
      },
      "setApprovalForAll(address,bool)": {
        "details": "See {IERC721-setApprovalForAll}."
      },
      "supportsInterface(bytes4)": {
        "details": "See {IERC165-supportsInterface}."
      },
      "symbol()": {
        "details": "See {IERC721Metadata-symbol}."
      },
      "tokenURI(uint256)": {
        "details": "See {IERC721Metadata-tokenURI}."
      },
      "transferFrom(address,address,uint256)": {
        "details": "See {IERC721-transferFrom}."
      },
      "transferOwnership(address)": {
        "details": "Transfers ownership of the contract to a new account (`newOwner`). Can only be called by the current owner."
      }
    },
    "version": 1
  },
  "userdoc": {
    "kind": "user",
    "methods": {},
    "version": 1
  }
}