{
  "contractName": "FunctionalNFT",
  "abi": [
    {
      "inputs": [
        {
          "internalType": "string",
          "name": "name",
          "type": "string"
        },
        {
          "internalType": "string",
          "name": "symbol",
          "type": "string"
        },
        {
          "internalType": "uint256",
          "name": "fee",
          "type": "uint256"
        },
        {
          "internalType": "uint256",
          "name": "supply",
          "type": "uint256"
        }
      ],
      "stateMutability": "nonpayable",
      "type": "constructor"
    },
    {
      "anonymous": false,
      "inputs": [
        {
          "indexed": true,
          "internalType": "address",
          "name": "owner",
          "type": "address"
        },
        {
          "indexed": true,
          "internalType": "address",
          "name": "approved",
          "type": "address"
        },
        {
          "indexed": true,
          "internalType": "uint256",
          "name": "tokenId",
          "type": "uint256"
        }
      ],
      "name": "Approval",
      "type": "event"
    },
    {
      "anonymous": false,
      "inputs": [
        {
          "indexed": true,
          "internalType": "address",
          "name": "owner",
          "type": "address"
        },
        {
          "indexed": true,
          "internalType": "address",
          "name": "operator",
          "type": "address"
        },
        {
          "indexed": false,
          "internalType": "bool",
          "name": "approved",
          "type": "bool"
        }
      ],
      "name": "ApprovalForAll",
      "type": "event"
    },
    {
      "anonymous": false,
      "inputs": [
        {
          "indexed": true,
          "internalType": "address",
          "name": "previousOwner",
          "type": "address"
        },
        {
          "indexed": true,
          "internalType": "address",
          "name": "newOwner",
          "type": "address"
        }
      ],
      "name": "OwnershipTransferred",
      "type": "event"
    },
    {
      "anonymous": false,
      "inputs": [
        {
          "indexed": true,
          "internalType": "address",
          "name": "from",
          "type": "address"
        },
        {
          "indexed": true,
          "internalType": "address",
          "name": "to",
          "type": "address"
        },
        {
          "indexed": true,
          "internalType": "uint256",
          "name": "tokenId",
          "type": "uint256"
        }
      ],
      "name": "Transfer",
      "type": "event"
    },
    {
      "inputs": [
        {
          "internalType": "address",
          "name": "to",
          "type": "address"
        },
        {
          "internalType": "uint256",
          "name": "tokenId",
          "type": "uint256"
        }
      ],
      "name": "approve",
      "outputs": [],
      "stateMutability": "nonpayable",
      "type": "function"
    },
    {
      "inputs": [
        {
          "internalType": "address",
          "name": "owner",
          "type": "address"
        }
      ],
      "name": "balanceOf",
      "outputs": [
        {
          "internalType": "uint256",
          "name": "",
          "type": "uint256"
        }
      ],
      "stateMutability": "view",
      "type": "function"
    },
    {
      "inputs": [
        {
          "internalType": "uint256",
          "name": "tokenId",
          "type": "uint256"
        }
      ],
      "name": "getApproved",
      "outputs": [
        {
          "internalType": "address",
          "name": "",
          "type": "address"
        }
      ],
      "stateMutability": "view",
      "type": "function"
    },
    {
      "inputs": [
        {
          "internalType": "address",
          "name": "owner",
          "type": "address"
        },
        {
          "internalType": "address",
          "name": "operator",
          "type": "address"
        }
      ],
      "name": "isApprovedForAll",
      "outputs": [
        {
          "internalType": "bool",
          "name": "",
          "type": "bool"
        }
      ],
      "stateMutability": "view",
      "type": "function"
    },
    {
      "inputs": [],
      "name": "name",
      "outputs": [
        {
          "internalType": "string",
          "name": "",
          "type": "string"
        }
      ],
      "stateMutability": "view",
      "type": "function"
    },
    {
      "inputs": [],
      "name": "owner",
      "outputs": [
        {
          "internalType": "address",
          "name": "",
          "type": "address"
        }
      ],
      "stateMutability": "view",
      "type": "function"
    },
    {
      "inputs": [
        {
          "internalType": "uint256",
          "name": "tokenId",
          "type": "uint256"
        }
      ],
      "name": "ownerOf",
      "outputs": [
        {
          "internalType": "address",
          "name": "",
          "type": "address"
        }
      ],
      "stateMutability": "view",
      "type": "function"
    },
    {
      "inputs": [],
      "name": "renounceOwnership",
      "outputs": [],
      "stateMutability": "nonpayable",
      "type": "function"
    },
    {
      "inputs": [
        {
          "internalType": "address",
          "name": "from",
          "type": "address"
        },
        {
          "internalType": "address",
          "name": "to",
          "type": "address"
        },
        {
          "internalType": "uint256",
          "name": "tokenId",
          "type": "uint256"
        }
      ],
      "name": "safeTransferFrom",
      "outputs": [],
      "stateMutability": "nonpayable",
      "type": "function"
    },
    {
      "inputs": [
        {
          "internalType": "address",
          "name": "from",
          "type": "address"
        },
        {
          "internalType": "address",
          "name": "to",
          "type": "address"
        },
        {
          "internalType": "uint256",
          "name": "tokenId",
          "type": "uint256"
        },
        {
          "internalType": "bytes",
          "name": "data",
          "type": "bytes"
        }
      ],
      "name": "safeTransferFrom",
      "outputs": [],
      "stateMutability": "nonpayable",
      "type": "function"
    },
    {
      "inputs": [
        {
          "internalType": "address",
          "name": "operator",
          "type": "address"
        },
        {
          "internalType": "bool",
          "name": "approved",
          "type": "bool"
        }
      ],
      "name": "setApprovalForAll",
      "outputs": [],
      "stateMutability": "nonpayable",
      "type": "function"
    },
    {
      "inputs": [
        {
          "internalType": "bytes4",
          "name": "interfaceId",
          "type": "bytes4"
        }
      ],
      "name": "supportsInterface",
      "outputs": [
        {
          "internalType": "bool",
          "name": "",
          "type": "bool"
        }
      ],
      "stateMutability": "view",
      "type": "function"
    },
    {
      "inputs": [],
      "name": "symbol",
      "outputs": [
        {
          "internalType": "string",
          "name": "",
          "type": "string"
        }
      ],
      "stateMutability": "view",
      "type": "function"
    },
    {
      "inputs": [
        {
          "internalType": "uint256",
          "name": "tokenId",
          "type": "uint256"
        }
      ],
      "name": "tokenURI",
      "outputs": [
        {
          "internalType": "string",
          "name": "",
          "type": "string"
        }
      ],
      "stateMutability": "view",
      "type": "function"
    },
    {
      "inputs": [
        {
          "internalType": "address",
          "name": "from",
          "type": "address"
        },
        {
          "internalType": "address",
          "name": "to",
          "type": "address"
        },
        {
          "internalType": "uint256",
          "name": "tokenId",
          "type": "uint256"
        }
      ],
      "name": "transferFrom",
      "outputs": [],
      "stateMutability": "nonpayable",
      "type": "function"
    },
    {
      "inputs": [
        {
          "internalType": "address",
          "name": "newOwner",
          "type": "address"
        }
      ],
      "name": "transferOwnership",
      "outputs": [],
      "stateMutability": "nonpayable",
      "type": "function"
    },
    {
      "inputs": [
        {
          "internalType": "string",
          "name": "code",
          "type": "string"
        }
      ],
      "name": "setCode",
      "outputs": [],
      "stateMutability": "nonpayable",
      "type": "function"
    },
    {
      "inputs": [
        {
          "internalType": "string",
          "name": "param",
          "type": "string"
        },
        {
          "internalType": "string[]",
          "name": "range",
          "type": "string[]"
        }
      ],
      "name": "setRange",
      "outputs": [],
      "stateMutability": "nonpayable",
      "type": "function"
    },
    {
      "inputs": [],
      "name": "getCode",
      "outputs": [
        {
          "internalType": "string",
          "name": "",
          "type": "string"
        }
      ],
      "stateMutability": "view",
      "type": "function"
    },
    {
      "inputs": [],
      "name": "mint",
      "outputs": [
        {
          "internalType": "uint256",
          "name": "",
          "type": "uint256"
        }
      ],
      "stateMutability": "payable",
      "type": "function"
    },
    {
      "inputs": [],
      "name": "withdraw",
      "outputs": [],
      "stateMutability": "nonpayable",
      "type": "function"
    }
  ],
  "bytecode": "0x60806040523480156200001157600080fd5b5060405162003b1438038062003b148339818101604052810190620000379190620002c0565b83838160009080519060200190620000519291906200017b565b5080600190805190602001906200006a9291906200017b565b50505060016007819055506200009562000089620000ad60201b60201c565b620000b560201b60201c565b81600e8190555080600f819055505050505062000518565b600033905090565b6000600860009054906101000a900473ffffffffffffffffffffffffffffffffffffffff16905081600860006101000a81548173ffffffffffffffffffffffffffffffffffffffff021916908373ffffffffffffffffffffffffffffffffffffffff1602179055508173ffffffffffffffffffffffffffffffffffffffff168173ffffffffffffffffffffffffffffffffffffffff167f8be0079c531659141344cd1fd0a4f28419497f9722a3daafe3b4186f6b6457e060405160405180910390a35050565b82805462000189906200040f565b90600052602060002090601f016020900481019282620001ad5760008555620001f9565b82601f10620001c857805160ff1916838001178555620001f9565b82800160010185558215620001f9579182015b82811115620001f8578251825591602001919060010190620001db565b5b5090506200020891906200020c565b5090565b5b80821115620002275760008160009055506001016200020d565b5090565b6000620002426200023c8462000399565b62000370565b905082815260208101848484011115620002615762000260620004de565b5b6200026e848285620003d9565b509392505050565b600082601f8301126200028e576200028d620004d9565b5b8151620002a08482602086016200022b565b91505092915050565b600081519050620002ba81620004fe565b92915050565b60008060008060808587031215620002dd57620002dc620004e8565b5b600085015167ffffffffffffffff811115620002fe57620002fd620004e3565b5b6200030c8782880162000276565b945050602085015167ffffffffffffffff81111562000330576200032f620004e3565b5b6200033e8782880162000276565b93505060406200035187828801620002a9565b92505060606200036487828801620002a9565b91505092959194509250565b60006200037c6200038f565b90506200038a828262000445565b919050565b6000604051905090565b600067ffffffffffffffff821115620003b757620003b6620004aa565b5b620003c282620004ed565b9050602081019050919050565b6000819050919050565b60005b83811015620003f9578082015181840152602081019050620003dc565b8381111562000409576000848401525b50505050565b600060028204905060018216806200042857607f821691505b602082108114156200043f576200043e6200047b565b5b50919050565b6200045082620004ed565b810181811067ffffffffffffffff82111715620004725762000471620004aa565b5b80604052505050565b7f4e487b7100000000000000000000000000000000000000000000000000000000600052602260045260246000fd5b7f4e487b7100000000000000000000000000000000000000000000000000000000600052604160045260246000fd5b600080fd5b600080fd5b600080fd5b600080fd5b6000601f19601f8301169050919050565b6200050981620003cf565b81146200051557600080fd5b50565b6135ec80620005286000396000f3fe60806040526004361061012a5760003560e01c8063715018a6116100ab578063b88d4fde1161006f578063b88d4fde146103bd578063c87b56dd146103e6578063e403f1a714610423578063e985e9c51461044c578063ea87963414610489578063f2fde38b146104b45761012a565b8063715018a6146102fe5780638da5cb5b1461031557806395d89b4114610340578063998486f21461036b578063a22cb465146103945761012a565b806323b872dd116100f257806323b872dd1461021b5780633ccfd60b1461024457806342842e0e1461025b5780636352211e1461028457806370a08231146102c15761012a565b806301ffc9a71461012f57806306fdde031461016c578063081812fc14610197578063095ea7b3146101d45780631249c58b146101fd575b600080fd5b34801561013b57600080fd5b50610156600480360381019061015191906124f4565b6104dd565b6040516101639190612abc565b60405180910390f35b34801561017857600080fd5b506101816105bf565b60405161018e9190612ad7565b60405180910390f35b3480156101a357600080fd5b506101be60048036038101906101b9919061260f565b610651565b6040516101cb9190612a55565b60405180910390f35b3480156101e057600080fd5b506101fb60048036038101906101f691906124b4565b610697565b005b6102056107af565b6040516102129190612cd9565b60405180910390f35b34801561022757600080fd5b50610242600480360381019061023d919061239e565b610896565b005b34801561025057600080fd5b506102596108f6565b005b34801561026757600080fd5b50610282600480360381019061027d919061239e565b610947565b005b34801561029057600080fd5b506102ab60048036038101906102a6919061260f565b610967565b6040516102b89190612a55565b60405180910390f35b3480156102cd57600080fd5b506102e860048036038101906102e39190612331565b610a19565b6040516102f59190612cd9565b60405180910390f35b34801561030a57600080fd5b50610313610ad1565b005b34801561032157600080fd5b5061032a610ae5565b6040516103379190612a55565b60405180910390f35b34801561034c57600080fd5b50610355610b0f565b6040516103629190612ad7565b60405180910390f35b34801561037757600080fd5b50610392600480360381019061038d9190612597565b610ba1565b005b3480156103a057600080fd5b506103bb60048036038101906103b69190612474565b610be0565b005b3480156103c957600080fd5b506103e460048036038101906103df91906123f1565b610bf6565b005b3480156103f257600080fd5b5061040d6004803603810190610408919061260f565b610c58565b60405161041a9190612ad7565b60405180910390f35b34801561042f57600080fd5b5061044a6004803603810190610445919061254e565b610d6b565b005b34801561045857600080fd5b50610473600480360381019061046e919061235e565b610d8d565b6040516104809190612abc565b60405180910390f35b34801561049557600080fd5b5061049e610e21565b6040516104ab9190612ad7565b60405180910390f35b3480156104c057600080fd5b506104db60048036038101906104d69190612331565b610eb3565b005b60007f80ac58cd000000000000000000000000000000000000000000000000000000007bffffffffffffffffffffffffffffffffffffffffffffffffffffffff1916827bffffffffffffffffffffffffffffffffffffffffffffffffffffffff191614806105a857507f5b5e139f000000000000000000000000000000000000000000000000000000007bffffffffffffffffffffffffffffffffffffffffffffffffffffffff1916827bffffffffffffffffffffffffffffffffffffffffffffffffffffffff1916145b806105b857506105b782610f37565b5b9050919050565b6060600080546105ce90612f70565b80601f01602080910402602001604051908101604052809291908181526020018280546105fa90612f70565b80156106475780601f1061061c57610100808354040283529160200191610647565b820191906000526020600020905b81548152906001019060200180831161062a57829003601f168201915b5050505050905090565b600061065c82610fa1565b6004600083815260200190815260200160002060009054906101000a900473ffffffffffffffffffffffffffffffffffffffff169050919050565b60006106a282610967565b90508073ffffffffffffffffffffffffffffffffffffffff168373ffffffffffffffffffffffffffffffffffffffff161415610713576040517f08c379a000000000000000000000000000000000000000000000000000000000815260040161070a90612c79565b60405180910390fd5b8073ffffffffffffffffffffffffffffffffffffffff16610732610fec565b73ffffffffffffffffffffffffffffffffffffffff16148061076157506107608161075b610fec565b610d8d565b5b6107a0576040517f08c379a000000000000000000000000000000000000000000000000000000000815260040161079790612bf9565b60405180910390fd5b6107aa8383610ff4565b505050565b6000600260075414156107f7576040517f08c379a00000000000000000000000000000000000000000000000000000000081526004016107ee90612cb9565b60405180910390fd5b6002600781905550600e5434101561080e57600080fd5b600061081a60096110ad565b9050600f54811061082a57600080fd5b610833816110bb565b50610873816040518060400160405280600481526020017f544f444f000000000000000000000000000000000000000000000000000000008152506112bd565b61087d3382611331565b610887600961150b565b80915050600160078190555090565b6108a76108a1610fec565b82611521565b6108e6576040517f08c379a00000000000000000000000000000000000000000000000000000000081526004016108dd90612c99565b60405180910390fd5b6108f18383836115b6565b505050565b6108fe61181d565b3373ffffffffffffffffffffffffffffffffffffffff166108fc479081150290604051600060405180830381858888f19350505050158015610944573d6000803e3d6000fd5b50565b61096283838360405180602001604052806000815250610bf6565b505050565b6000806002600084815260200190815260200160002060009054906101000a900473ffffffffffffffffffffffffffffffffffffffff169050600073ffffffffffffffffffffffffffffffffffffffff168173ffffffffffffffffffffffffffffffffffffffff161415610a10576040517f08c379a0000000000000000000000000000000000000000000000000000000008152600401610a0790612c59565b60405180910390fd5b80915050919050565b60008073ffffffffffffffffffffffffffffffffffffffff168273ffffffffffffffffffffffffffffffffffffffff161415610a8a576040517f08c379a0000000000000000000000000000000000000000000000000000000008152600401610a8190612bb9565b60405180910390fd5b600360008373ffffffffffffffffffffffffffffffffffffffff1673ffffffffffffffffffffffffffffffffffffffff168152602001908152602001600020549050919050565b610ad961181d565b610ae3600061189b565b565b6000600860009054906101000a900473ffffffffffffffffffffffffffffffffffffffff16905090565b606060018054610b1e90612f70565b80601f0160208091040260200160405190810160405280929190818152602001828054610b4a90612f70565b8015610b975780601f10610b6c57610100808354040283529160200191610b97565b820191906000526020600020905b815481529060010190602001808311610b7a57829003601f168201915b5050505050905090565b610ba961181d565b80600c83604051610bba91906129c6565b90815260200160405180910390209080519060200190610bdb929190611fc5565b505050565b610bf2610beb610fec565b8383611961565b5050565b610c07610c01610fec565b83611521565b610c46576040517f08c379a0000000000000000000000000000000000000000000000000000000008152600401610c3d90612c99565b60405180910390fd5b610c5284848484611ace565b50505050565b6060610c6382610fa1565b6000600660008481526020019081526020016000208054610c8390612f70565b80601f0160208091040260200160405190810160405280929190818152602001828054610caf90612f70565b8015610cfc5780601f10610cd157610100808354040283529160200191610cfc565b820191906000526020600020905b815481529060010190602001808311610cdf57829003601f168201915b505050505090506000610d0d611b2a565b9050600081511415610d23578192505050610d66565b600082511115610d58578082604051602001610d409291906129dd565b60405160208183030381529060405292505050610d66565b610d6184611b41565b925050505b919050565b610d7361181d565b80600a9080519060200190610d89929190612025565b5050565b6000600560008473ffffffffffffffffffffffffffffffffffffffff1673ffffffffffffffffffffffffffffffffffffffff16815260200190815260200160002060008373ffffffffffffffffffffffffffffffffffffffff1673ffffffffffffffffffffffffffffffffffffffff16815260200190815260200160002060009054906101000a900460ff16905092915050565b6060600a8054610e3090612f70565b80601f0160208091040260200160405190810160405280929190818152602001828054610e5c90612f70565b8015610ea95780601f10610e7e57610100808354040283529160200191610ea9565b820191906000526020600020905b815481529060010190602001808311610e8c57829003601f168201915b5050505050905090565b610ebb61181d565b600073ffffffffffffffffffffffffffffffffffffffff168173ffffffffffffffffffffffffffffffffffffffff161415610f2b576040517f08c379a0000000000000000000000000000000000000000000000000000000008152600401610f2290612b19565b60405180910390fd5b610f348161189b565b50565b60007f01ffc9a7000000000000000000000000000000000000000000000000000000007bffffffffffffffffffffffffffffffffffffffffffffffffffffffff1916827bffffffffffffffffffffffffffffffffffffffffffffffffffffffff1916149050919050565b610faa81611ba9565b610fe9576040517f08c379a0000000000000000000000000000000000000000000000000000000008152600401610fe090612c59565b60405180910390fd5b50565b600033905090565b816004600083815260200190815260200160002060006101000a81548173ffffffffffffffffffffffffffffffffffffffff021916908373ffffffffffffffffffffffffffffffffffffffff160217905550808273ffffffffffffffffffffffffffffffffffffffff1661106783610967565b73ffffffffffffffffffffffffffffffffffffffff167f8c5be1e5ebec7d5bd14f71427d1e84f3dd0314c0f7b2291e5b200ac8c7c3b92560405160405180910390a45050565b600081600001549050919050565b60608060005b600b805490508110156112b3576000600b82815481106110e4576110e3613108565b5b906000526020600020019050600061111c600c836040516111059190612a01565b908152602001604051809103902080549050611c15565b90506000600c836040516111309190612a01565b908152602001604051809103902082815481106111505761114f613108565b5b90600052602060002001805461116590612f70565b80601f016020809104026020016040519081016040528092919081815260200182805461119190612f70565b80156111de5780601f106111b3576101008083540402835291602001916111de565b820191906000526020600020905b8154815290600101906020018083116111c157829003601f168201915b50505050509050611279878480546111f590612f70565b80601f016020809104026020016040519081016040528092919081815260200182805461122190612f70565b801561126e5780601f106112435761010080835404028352916020019161126e565b820191906000526020600020905b81548152906001019060200180831161125157829003601f168201915b505050505083611c57565b848160405160200161128c9291906129dd565b604051602081830303815290604052945050505080806112ab90612fd3565b9150506110c1565b5080915050919050565b6112c682611ba9565b611305576040517f08c379a00000000000000000000000000000000000000000000000000000000081526004016112fc90612bd9565b60405180910390fd5b8060066000848152602001908152602001600020908051906020019061132c929190612025565b505050565b600073ffffffffffffffffffffffffffffffffffffffff168273ffffffffffffffffffffffffffffffffffffffff1614156113a1576040517f08c379a000000000000000000000000000000000000000000000000000000000815260040161139890612c19565b60405180910390fd5b6113aa81611ba9565b156113ea576040517f08c379a00000000000000000000000000000000000000000000000000000000081526004016113e190612b59565b60405180910390fd5b6113f660008383611ca0565b6001600360008473ffffffffffffffffffffffffffffffffffffffff1673ffffffffffffffffffffffffffffffffffffffff16815260200190815260200160002060008282546114469190612dff565b92505081905550816002600083815260200190815260200160002060006101000a81548173ffffffffffffffffffffffffffffffffffffffff021916908373ffffffffffffffffffffffffffffffffffffffff160217905550808273ffffffffffffffffffffffffffffffffffffffff16600073ffffffffffffffffffffffffffffffffffffffff167fddf252ad1be2c89b69c2b068fc378daa952ba7f163c4a11628f55a4df523b3ef60405160405180910390a461150760008383611ca5565b5050565b6001816000016000828254019250508190555050565b60008061152d83610967565b90508073ffffffffffffffffffffffffffffffffffffffff168473ffffffffffffffffffffffffffffffffffffffff16148061156f575061156e8185610d8d565b5b806115ad57508373ffffffffffffffffffffffffffffffffffffffff1661159584610651565b73ffffffffffffffffffffffffffffffffffffffff16145b91505092915050565b8273ffffffffffffffffffffffffffffffffffffffff166115d682610967565b73ffffffffffffffffffffffffffffffffffffffff161461162c576040517f08c379a000000000000000000000000000000000000000000000000000000000815260040161162390612b39565b60405180910390fd5b600073ffffffffffffffffffffffffffffffffffffffff168273ffffffffffffffffffffffffffffffffffffffff16141561169c576040517f08c379a000000000000000000000000000000000000000000000000000000000815260040161169390612b79565b60405180910390fd5b6116a7838383611ca0565b6116b2600082610ff4565b6001600360008573ffffffffffffffffffffffffffffffffffffffff1673ffffffffffffffffffffffffffffffffffffffff16815260200190815260200160002060008282546117029190612e86565b925050819055506001600360008473ffffffffffffffffffffffffffffffffffffffff1673ffffffffffffffffffffffffffffffffffffffff16815260200190815260200160002060008282546117599190612dff565b92505081905550816002600083815260200190815260200160002060006101000a81548173ffffffffffffffffffffffffffffffffffffffff021916908373ffffffffffffffffffffffffffffffffffffffff160217905550808273ffffffffffffffffffffffffffffffffffffffff168473ffffffffffffffffffffffffffffffffffffffff167fddf252ad1be2c89b69c2b068fc378daa952ba7f163c4a11628f55a4df523b3ef60405160405180910390a4611818838383611ca5565b505050565b611825610fec565b73ffffffffffffffffffffffffffffffffffffffff16611843610ae5565b73ffffffffffffffffffffffffffffffffffffffff1614611899576040517f08c379a000000000000000000000000000000000000000000000000000000000815260040161189090612c39565b60405180910390fd5b565b6000600860009054906101000a900473ffffffffffffffffffffffffffffffffffffffff16905081600860006101000a81548173ffffffffffffffffffffffffffffffffffffffff021916908373ffffffffffffffffffffffffffffffffffffffff1602179055508173ffffffffffffffffffffffffffffffffffffffff168173ffffffffffffffffffffffffffffffffffffffff167f8be0079c531659141344cd1fd0a4f28419497f9722a3daafe3b4186f6b6457e060405160405180910390a35050565b8173ffffffffffffffffffffffffffffffffffffffff168373ffffffffffffffffffffffffffffffffffffffff1614156119d0576040517f08c379a00000000000000000000000000000000000000000000000000000000081526004016119c790612b99565b60405180910390fd5b80600560008573ffffffffffffffffffffffffffffffffffffffff1673ffffffffffffffffffffffffffffffffffffffff16815260200190815260200160002060008473ffffffffffffffffffffffffffffffffffffffff1673ffffffffffffffffffffffffffffffffffffffff16815260200190815260200160002060006101000a81548160ff0219169083151502179055508173ffffffffffffffffffffffffffffffffffffffff168373ffffffffffffffffffffffffffffffffffffffff167f17307eab39ab6107e8899845ad3d59bd9653f200f220920489ca2b5937696c3183604051611ac19190612abc565b60405180910390a3505050565b611ad98484846115b6565b611ae584848484611caa565b611b24576040517f08c379a0000000000000000000000000000000000000000000000000000000008152600401611b1b90612af9565b60405180910390fd5b50505050565b606060405180602001604052806000815250905090565b6060611b4c82610fa1565b6000611b56611b2a565b90506000815111611b765760405180602001604052806000815250611ba1565b80611b8084611e41565b604051602001611b919291906129dd565b6040516020818303038152906040525b915050919050565b60008073ffffffffffffffffffffffffffffffffffffffff166002600084815260200190815260200160002060009054906101000a900473ffffffffffffffffffffffffffffffffffffffff1673ffffffffffffffffffffffffffffffffffffffff1614159050919050565b600081443342604051602001611c2d93929190612a18565b6040516020818303038152906040528051906020012060001c611c50919061304a565b9050919050565b80600d600085815260200190815260200160002083604051611c7991906129c6565b90815260200160405180910390209080519060200190611c9a929190612025565b50505050565b505050565b505050565b6000611ccb8473ffffffffffffffffffffffffffffffffffffffff16611fa2565b15611e34578373ffffffffffffffffffffffffffffffffffffffff1663150b7a02611cf4610fec565b8786866040518563ffffffff1660e01b8152600401611d169493929190612a70565b602060405180830381600087803b158015611d3057600080fd5b505af1925050508015611d6157506040513d601f19601f82011682018060405250810190611d5e9190612521565b60015b611de4573d8060008114611d91576040519150601f19603f3d011682016040523d82523d6000602084013e611d96565b606091505b50600081511415611ddc576040517f08c379a0000000000000000000000000000000000000000000000000000000008152600401611dd390612af9565b60405180910390fd5b805181602001fd5b63150b7a0260e01b7bffffffffffffffffffffffffffffffffffffffffffffffffffffffff1916817bffffffffffffffffffffffffffffffffffffffffffffffffffffffff191614915050611e39565b600190505b949350505050565b60606000821415611e89576040518060400160405280600181526020017f30000000000000000000000000000000000000000000000000000000000000008152509050611f9d565b600082905060005b60008214611ebb578080611ea490612fd3565b915050600a82611eb49190612e55565b9150611e91565b60008167ffffffffffffffff811115611ed757611ed6613137565b5b6040519080825280601f01601f191660200182016040528015611f095781602001600182028036833780820191505090505b5090505b60008514611f9657600182611f229190612e86565b9150600a85611f31919061304a565b6030611f3d9190612dff565b60f81b818381518110611f5357611f52613108565b5b60200101907effffffffffffffffffffffffffffffffffffffffffffffffffffffffffffff1916908160001a905350600a85611f8f9190612e55565b9450611f0d565b8093505050505b919050565b6000808273ffffffffffffffffffffffffffffffffffffffff163b119050919050565b828054828255906000526020600020908101928215612014579160200282015b82811115612013578251829080519060200190612003929190612025565b5091602001919060010190611fe5565b5b50905061202191906120ab565b5090565b82805461203190612f70565b90600052602060002090601f016020900481019282612053576000855561209a565b82601f1061206c57805160ff191683800117855561209a565b8280016001018555821561209a579182015b8281111561209957825182559160200191906001019061207e565b5b5090506120a791906120cf565b5090565b5b808211156120cb57600081816120c291906120ec565b506001016120ac565b5090565b5b808211156120e85760008160009055506001016120d0565b5090565b5080546120f890612f70565b6000825580601f1061210a5750612129565b601f01602090049060005260206000209081019061212891906120cf565b5b50565b600061213f61213a84612d19565b612cf4565b905080838252602082019050828560208602820111156121625761216161316b565b5b60005b858110156121b057813567ffffffffffffffff81111561218857612187613166565b5b80860161219589826122ee565b85526020850194506020840193505050600181019050612165565b5050509392505050565b60006121cd6121c884612d45565b612cf4565b9050828152602081018484840111156121e9576121e8613170565b5b6121f4848285612f2e565b509392505050565b600061220f61220a84612d76565b612cf4565b90508281526020810184848401111561222b5761222a613170565b5b612236848285612f2e565b509392505050565b60008135905061224d8161355a565b92915050565b600082601f83011261226857612267613166565b5b813561227884826020860161212c565b91505092915050565b60008135905061229081613571565b92915050565b6000813590506122a581613588565b92915050565b6000815190506122ba81613588565b92915050565b600082601f8301126122d5576122d4613166565b5b81356122e58482602086016121ba565b91505092915050565b600082601f83011261230357612302613166565b5b81356123138482602086016121fc565b91505092915050565b60008135905061232b8161359f565b92915050565b6000602082840312156123475761234661317a565b5b60006123558482850161223e565b91505092915050565b600080604083850312156123755761237461317a565b5b60006123838582860161223e565b92505060206123948582860161223e565b9150509250929050565b6000806000606084860312156123b7576123b661317a565b5b60006123c58682870161223e565b93505060206123d68682870161223e565b92505060406123e78682870161231c565b9150509250925092565b6000806000806080858703121561240b5761240a61317a565b5b60006124198782880161223e565b945050602061242a8782880161223e565b935050604061243b8782880161231c565b925050606085013567ffffffffffffffff81111561245c5761245b613175565b5b612468878288016122c0565b91505092959194509250565b6000806040838503121561248b5761248a61317a565b5b60006124998582860161223e565b92505060206124aa85828601612281565b9150509250929050565b600080604083850312156124cb576124ca61317a565b5b60006124d98582860161223e565b92505060206124ea8582860161231c565b9150509250929050565b60006020828403121561250a5761250961317a565b5b600061251884828501612296565b91505092915050565b6000602082840312156125375761253661317a565b5b6000612545848285016122ab565b91505092915050565b6000602082840312156125645761256361317a565b5b600082013567ffffffffffffffff81111561258257612581613175565b5b61258e848285016122ee565b91505092915050565b600080604083850312156125ae576125ad61317a565b5b600083013567ffffffffffffffff8111156125cc576125cb613175565b5b6125d8858286016122ee565b925050602083013567ffffffffffffffff8111156125f9576125f8613175565b5b61260585828601612253565b9150509250929050565b6000602082840312156126255761262461317a565b5b60006126338482850161231c565b91505092915050565b61264581612eba565b82525050565b61265c61265782612eba565b61301c565b82525050565b61266b81612ecc565b82525050565b600061267c82612dbc565b6126868185612dd2565b9350612696818560208601612f3d565b61269f8161317f565b840191505092915050565b60006126b582612dc7565b6126bf8185612de3565b93506126cf818560208601612f3d565b6126d88161317f565b840191505092915050565b60006126ee82612dc7565b6126f88185612df4565b9350612708818560208601612f3d565b80840191505092915050565b6000815461272181612f70565b61272b8186612df4565b9450600182166000811461274657600181146127575761278a565b60ff1983168652818601935061278a565b61276085612da7565b60005b8381101561278257815481890152600182019150602081019050612763565b838801955050505b50505092915050565b60006127a0603283612de3565b91506127ab8261319d565b604082019050919050565b60006127c3602683612de3565b91506127ce826131ec565b604082019050919050565b60006127e6602583612de3565b91506127f18261323b565b604082019050919050565b6000612809601c83612de3565b91506128148261328a565b602082019050919050565b600061282c602483612de3565b9150612837826132b3565b604082019050919050565b600061284f601983612de3565b915061285a82613302565b602082019050919050565b6000612872602983612de3565b915061287d8261332b565b604082019050919050565b6000612895602e83612de3565b91506128a08261337a565b604082019050919050565b60006128b8603e83612de3565b91506128c3826133c9565b604082019050919050565b60006128db602083612de3565b91506128e682613418565b602082019050919050565b60006128fe602083612de3565b915061290982613441565b602082019050919050565b6000612921601883612de3565b915061292c8261346a565b602082019050919050565b6000612944602183612de3565b915061294f82613493565b604082019050919050565b6000612967602e83612de3565b9150612972826134e2565b604082019050919050565b600061298a601f83612de3565b915061299582613531565b602082019050919050565b6129a981612f24565b82525050565b6129c06129bb82612f24565b613040565b82525050565b60006129d282846126e3565b915081905092915050565b60006129e982856126e3565b91506129f582846126e3565b91508190509392505050565b6000612a0d8284612714565b915081905092915050565b6000612a2482866129af565b602082019150612a34828561264b565b601482019150612a4482846129af565b602082019150819050949350505050565b6000602082019050612a6a600083018461263c565b92915050565b6000608082019050612a85600083018761263c565b612a92602083018661263c565b612a9f60408301856129a0565b8181036060830152612ab18184612671565b905095945050505050565b6000602082019050612ad16000830184612662565b92915050565b60006020820190508181036000830152612af181846126aa565b905092915050565b60006020820190508181036000830152612b1281612793565b9050919050565b60006020820190508181036000830152612b32816127b6565b9050919050565b60006020820190508181036000830152612b52816127d9565b9050919050565b60006020820190508181036000830152612b72816127fc565b9050919050565b60006020820190508181036000830152612b928161281f565b9050919050565b60006020820190508181036000830152612bb281612842565b9050919050565b60006020820190508181036000830152612bd281612865565b9050919050565b60006020820190508181036000830152612bf281612888565b9050919050565b60006020820190508181036000830152612c12816128ab565b9050919050565b60006020820190508181036000830152612c32816128ce565b9050919050565b60006020820190508181036000830152612c52816128f1565b9050919050565b60006020820190508181036000830152612c7281612914565b9050919050565b60006020820190508181036000830152612c9281612937565b9050919050565b60006020820190508181036000830152612cb28161295a565b9050919050565b60006020820190508181036000830152612cd28161297d565b9050919050565b6000602082019050612cee60008301846129a0565b92915050565b6000612cfe612d0f565b9050612d0a8282612fa2565b919050565b6000604051905090565b600067ffffffffffffffff821115612d3457612d33613137565b5b602082029050602081019050919050565b600067ffffffffffffffff821115612d6057612d5f613137565b5b612d698261317f565b9050602081019050919050565b600067ffffffffffffffff821115612d9157612d90613137565b5b612d9a8261317f565b9050602081019050919050565b60008190508160005260206000209050919050565b600081519050919050565b600081519050919050565b600082825260208201905092915050565b600082825260208201905092915050565b600081905092915050565b6000612e0a82612f24565b9150612e1583612f24565b9250827fffffffffffffffffffffffffffffffffffffffffffffffffffffffffffffffff03821115612e4a57612e4961307b565b5b828201905092915050565b6000612e6082612f24565b9150612e6b83612f24565b925082612e7b57612e7a6130aa565b5b828204905092915050565b6000612e9182612f24565b9150612e9c83612f24565b925082821015612eaf57612eae61307b565b5b828203905092915050565b6000612ec582612f04565b9050919050565b60008115159050919050565b60007fffffffff0000000000000000000000000000000000000000000000000000000082169050919050565b600073ffffffffffffffffffffffffffffffffffffffff82169050919050565b6000819050919050565b82818337600083830152505050565b60005b83811015612f5b578082015181840152602081019050612f40565b83811115612f6a576000848401525b50505050565b60006002820490506001821680612f8857607f821691505b60208210811415612f9c57612f9b6130d9565b5b50919050565b612fab8261317f565b810181811067ffffffffffffffff82111715612fca57612fc9613137565b5b80604052505050565b6000612fde82612f24565b91507fffffffffffffffffffffffffffffffffffffffffffffffffffffffffffffffff8214156130115761301061307b565b5b600182019050919050565b60006130278261302e565b9050919050565b600061303982613190565b9050919050565b6000819050919050565b600061305582612f24565b915061306083612f24565b9250826130705761306f6130aa565b5b828206905092915050565b7f4e487b7100000000000000000000000000000000000000000000000000000000600052601160045260246000fd5b7f4e487b7100000000000000000000000000000000000000000000000000000000600052601260045260246000fd5b7f4e487b7100000000000000000000000000000000000000000000000000000000600052602260045260246000fd5b7f4e487b7100000000000000000000000000000000000000000000000000000000600052603260045260246000fd5b7f4e487b7100000000000000000000000000000000000000000000000000000000600052604160045260246000fd5b600080fd5b600080fd5b600080fd5b600080fd5b600080fd5b6000601f19601f8301169050919050565b60008160601b9050919050565b7f4552433732313a207472616e7366657220746f206e6f6e20455243373231526560008201527f63656976657220696d706c656d656e7465720000000000000000000000000000602082015250565b7f4f776e61626c653a206e6577206f776e657220697320746865207a65726f206160008201527f6464726573730000000000000000000000000000000000000000000000000000602082015250565b7f4552433732313a207472616e736665722066726f6d20696e636f72726563742060008201527f6f776e6572000000000000000000000000000000000000000000000000000000602082015250565b7f4552433732313a20746f6b656e20616c7265616479206d696e74656400000000600082015250565b7f4552433732313a207472616e7366657220746f20746865207a65726f2061646460008201527f7265737300000000000000000000000000000000000000000000000000000000602082015250565b7f4552433732313a20617070726f766520746f2063616c6c657200000000000000600082015250565b7f4552433732313a2061646472657373207a65726f206973206e6f74206120766160008201527f6c6964206f776e65720000000000000000000000000000000000000000000000602082015250565b7f45524337323155524953746f726167653a2055524920736574206f66206e6f6e60008201527f6578697374656e7420746f6b656e000000000000000000000000000000000000602082015250565b7f4552433732313a20617070726f76652063616c6c6572206973206e6f7420746f60008201527f6b656e206f776e6572206e6f7220617070726f76656420666f7220616c6c0000602082015250565b7f4552433732313a206d696e7420746f20746865207a65726f2061646472657373600082015250565b7f4f776e61626c653a2063616c6c6572206973206e6f7420746865206f776e6572600082015250565b7f4552433732313a20696e76616c696420746f6b656e2049440000000000000000600082015250565b7f4552433732313a20617070726f76616c20746f2063757272656e74206f776e6560008201527f7200000000000000000000000000000000000000000000000000000000000000602082015250565b7f4552433732313a2063616c6c6572206973206e6f7420746f6b656e206f776e6560008201527f72206e6f7220617070726f766564000000000000000000000000000000000000602082015250565b7f5265656e7472616e637947756172643a207265656e7472616e742063616c6c00600082015250565b61356381612eba565b811461356e57600080fd5b50565b61357a81612ecc565b811461358557600080fd5b50565b61359181612ed8565b811461359c57600080fd5b50565b6135a881612f24565b81146135b357600080fd5b5056fea2646970667358221220e96a689933ffdf47df89ffb7ac3f6dd4a9d1df4528af2952e97abc6a5a9acfe364736f6c63430008060033",
  "immutableReferences": {},
  "source": "// SPDX-License-Identifier: MIT\npragma solidity ^0.8.6;\n\nimport \"@openzeppelin/contracts/token/ERC721/extensions/ERC721URIStorage.sol\";\nimport \"@openzeppelin/contracts/utils/Counters.sol\";\nimport \"@openzeppelin/contracts/utils/Strings.sol\";\nimport \"@openzeppelin/contracts/security/ReentrancyGuard.sol\";\nimport \"@openzeppelin/contracts/access/Ownable.sol\";\n\ncontract FunctionalNFT is ERC721URIStorage, ReentrancyGuard, Ownable {\n\n        // token id\n        using Counters for Counters.Counter;\n        Counters.Counter private _counter;\n\n        // the function source code\n        string private _code;\n\n        // the function parameters\n        string[] private _params;\n\n        // the possible values of a param\n        mapping(string => string[]) private _ranges;\n\n        // the specific value of a param (attribute) of an NFT\n        mapping(uint256 => mapping(string => string)) private _values;\n\n        // minting fee, if any\n        uint256 private _fee;\n\n        // max supply\n        uint256 private _supply;\n\n        constructor(string memory name, string memory symbol, uint256 fee, uint256 supply) ERC721(name, symbol) {\n                _fee = fee;\n                _supply = supply;\n        }\n\n        function setCode(string memory code) public onlyOwner {\n                _code = code;\n        }\n\n        function setRange(string memory param, string[] memory range) public onlyOwner {\n                _ranges[param] = range;\n        }\n\n        function _setValue(uint256 id, string memory param, string memory value) internal {\n                _values[id][param] = value;\n        }\n\n        // for code gen execution\n        function getCode() public view returns (string memory) {\n                return _code;\n        }\n\n        function mint() public nonReentrant payable returns (uint256) {\n\n                require(msg.value >= _fee);\n\n                uint256 id = _counter.current();\n\n                require(id < _supply);\n\n                _randomize(id);\n\n                // TODO: link to metadata https://docs.opensea.io/docs/metadata-standards\n                _setTokenURI(id, \"TODO\"); \n\n                _mint(msg.sender, id);\n\n                _counter.increment();\n                return id;\n        }\n\n        function _randomize(uint256 id) internal returns (string memory) {\n                string memory content;\n\n                for (uint256 i = 0; i < _params.length; i++) {\n                        string storage param = _params[i];\n                        uint256 k = _randomNumber(_ranges[param].length);\n                        string memory value = _ranges[param][k];\n                        _setValue(id, param, value);\n                        content = string(abi.encodePacked(content, value));\n                }\n\n                return content;\n        }\n\n        function _randomNumber(uint256 n) internal view returns (uint256) {\n                return uint(keccak256(abi.encodePacked(block.difficulty, msg.sender, block.timestamp))) % n;\n        }\n\n        // TODO: test this one carefully\n        function withdraw() public onlyOwner {\n                payable(msg.sender).transfer(address(this).balance);\n        }\n}\n",
  "sourcePath": "/Users/autonomous/code/rove/3df/contracts/FunctionNFT.sol",
  "compiler": {
    "name": "solc",
    "version": "0.8.6+commit.11564f7e.Emscripten.clang"
  },
  "schemaVersion": "3.4.4",
  "updatedAt": "2022-09-20T04:29:14.189Z",
  "devdoc": {
    "kind": "dev",
    "methods": {
      "approve(address,uint256)": {
        "details": "See {IERC721-approve}."
      },
      "balanceOf(address)": {
        "details": "See {IERC721-balanceOf}."
      },
      "getApproved(uint256)": {
        "details": "See {IERC721-getApproved}."
      },
      "isApprovedForAll(address,address)": {
        "details": "See {IERC721-isApprovedForAll}."
      },
      "name()": {
        "details": "See {IERC721Metadata-name}."
      },
      "owner()": {
        "details": "Returns the address of the current owner."
      },
      "ownerOf(uint256)": {
        "details": "See {IERC721-ownerOf}."
      },
      "renounceOwnership()": {
        "details": "Leaves the contract without owner. It will not be possible to call `onlyOwner` functions anymore. Can only be called by the current owner. NOTE: Renouncing ownership will leave the contract without an owner, thereby removing any functionality that is only available to the owner."
      },
      "safeTransferFrom(address,address,uint256)": {
        "details": "See {IERC721-safeTransferFrom}."
      },
      "safeTransferFrom(address,address,uint256,bytes)": {
        "details": "See {IERC721-safeTransferFrom}."
      },
      "setApprovalForAll(address,bool)": {
        "details": "See {IERC721-setApprovalForAll}."
      },
      "supportsInterface(bytes4)": {
        "details": "See {IERC165-supportsInterface}."
      },
      "symbol()": {
        "details": "See {IERC721Metadata-symbol}."
      },
      "tokenURI(uint256)": {
        "details": "See {IERC721Metadata-tokenURI}."
      },
      "transferFrom(address,address,uint256)": {
        "details": "See {IERC721-transferFrom}."
      },
      "transferOwnership(address)": {
        "details": "Transfers ownership of the contract to a new account (`newOwner`). Can only be called by the current owner."
      }
    },
    "version": 1
  },
  "userdoc": {
    "kind": "user",
    "methods": {},
    "version": 1
  }
}