{
  "contractName": "FunctionFactory",
  "abi": [
    {
      "inputs": [],
      "stateMutability": "nonpayable",
      "type": "constructor"
    },
    {
      "anonymous": false,
      "inputs": [
        {
          "indexed": true,
          "internalType": "address",
          "name": "owner",
          "type": "address"
        },
        {
          "indexed": true,
          "internalType": "address",
          "name": "approved",
          "type": "address"
        },
        {
          "indexed": true,
          "internalType": "uint256",
          "name": "tokenId",
          "type": "uint256"
        }
      ],
      "name": "Approval",
      "type": "event"
    },
    {
      "anonymous": false,
      "inputs": [
        {
          "indexed": true,
          "internalType": "address",
          "name": "owner",
          "type": "address"
        },
        {
          "indexed": true,
          "internalType": "address",
          "name": "operator",
          "type": "address"
        },
        {
          "indexed": false,
          "internalType": "bool",
          "name": "approved",
          "type": "bool"
        }
      ],
      "name": "ApprovalForAll",
      "type": "event"
    },
    {
      "anonymous": false,
      "inputs": [
        {
          "indexed": true,
          "internalType": "address",
          "name": "from",
          "type": "address"
        },
        {
          "indexed": true,
          "internalType": "address",
          "name": "to",
          "type": "address"
        },
        {
          "indexed": true,
          "internalType": "uint256",
          "name": "tokenId",
          "type": "uint256"
        }
      ],
      "name": "Transfer",
      "type": "event"
    },
    {
      "inputs": [
        {
          "internalType": "address",
          "name": "to",
          "type": "address"
        },
        {
          "internalType": "uint256",
          "name": "tokenId",
          "type": "uint256"
        }
      ],
      "name": "approve",
      "outputs": [],
      "stateMutability": "nonpayable",
      "type": "function"
    },
    {
      "inputs": [
        {
          "internalType": "address",
          "name": "owner",
          "type": "address"
        }
      ],
      "name": "balanceOf",
      "outputs": [
        {
          "internalType": "uint256",
          "name": "",
          "type": "uint256"
        }
      ],
      "stateMutability": "view",
      "type": "function"
    },
    {
      "inputs": [
        {
          "internalType": "uint256",
          "name": "tokenId",
          "type": "uint256"
        }
      ],
      "name": "getApproved",
      "outputs": [
        {
          "internalType": "address",
          "name": "",
          "type": "address"
        }
      ],
      "stateMutability": "view",
      "type": "function"
    },
    {
      "inputs": [
        {
          "internalType": "address",
          "name": "owner",
          "type": "address"
        },
        {
          "internalType": "address",
          "name": "operator",
          "type": "address"
        }
      ],
      "name": "isApprovedForAll",
      "outputs": [
        {
          "internalType": "bool",
          "name": "",
          "type": "bool"
        }
      ],
      "stateMutability": "view",
      "type": "function"
    },
    {
      "inputs": [],
      "name": "name",
      "outputs": [
        {
          "internalType": "string",
          "name": "",
          "type": "string"
        }
      ],
      "stateMutability": "view",
      "type": "function"
    },
    {
      "inputs": [
        {
          "internalType": "uint256",
          "name": "tokenId",
          "type": "uint256"
        }
      ],
      "name": "ownerOf",
      "outputs": [
        {
          "internalType": "address",
          "name": "",
          "type": "address"
        }
      ],
      "stateMutability": "view",
      "type": "function"
    },
    {
      "inputs": [
        {
          "internalType": "address",
          "name": "from",
          "type": "address"
        },
        {
          "internalType": "address",
          "name": "to",
          "type": "address"
        },
        {
          "internalType": "uint256",
          "name": "tokenId",
          "type": "uint256"
        }
      ],
      "name": "safeTransferFrom",
      "outputs": [],
      "stateMutability": "nonpayable",
      "type": "function"
    },
    {
      "inputs": [
        {
          "internalType": "address",
          "name": "from",
          "type": "address"
        },
        {
          "internalType": "address",
          "name": "to",
          "type": "address"
        },
        {
          "internalType": "uint256",
          "name": "tokenId",
          "type": "uint256"
        },
        {
          "internalType": "bytes",
          "name": "data",
          "type": "bytes"
        }
      ],
      "name": "safeTransferFrom",
      "outputs": [],
      "stateMutability": "nonpayable",
      "type": "function"
    },
    {
      "inputs": [
        {
          "internalType": "address",
          "name": "operator",
          "type": "address"
        },
        {
          "internalType": "bool",
          "name": "approved",
          "type": "bool"
        }
      ],
      "name": "setApprovalForAll",
      "outputs": [],
      "stateMutability": "nonpayable",
      "type": "function"
    },
    {
      "inputs": [
        {
          "internalType": "bytes4",
          "name": "interfaceId",
          "type": "bytes4"
        }
      ],
      "name": "supportsInterface",
      "outputs": [
        {
          "internalType": "bool",
          "name": "",
          "type": "bool"
        }
      ],
      "stateMutability": "view",
      "type": "function"
    },
    {
      "inputs": [],
      "name": "symbol",
      "outputs": [
        {
          "internalType": "string",
          "name": "",
          "type": "string"
        }
      ],
      "stateMutability": "view",
      "type": "function"
    },
    {
      "inputs": [
        {
          "internalType": "uint256",
          "name": "tokenId",
          "type": "uint256"
        }
      ],
      "name": "tokenURI",
      "outputs": [
        {
          "internalType": "string",
          "name": "",
          "type": "string"
        }
      ],
      "stateMutability": "view",
      "type": "function"
    },
    {
      "inputs": [
        {
          "internalType": "address",
          "name": "from",
          "type": "address"
        },
        {
          "internalType": "address",
          "name": "to",
          "type": "address"
        },
        {
          "internalType": "uint256",
          "name": "tokenId",
          "type": "uint256"
        }
      ],
      "name": "transferFrom",
      "outputs": [],
      "stateMutability": "nonpayable",
      "type": "function"
    },
    {
      "inputs": [
        {
          "internalType": "string",
          "name": "name",
          "type": "string"
        },
        {
          "internalType": "string",
          "name": "code",
          "type": "string"
        }
      ],
      "name": "setFunction",
      "outputs": [],
      "stateMutability": "nonpayable",
      "type": "function"
    },
    {
      "inputs": [
        {
          "internalType": "string",
          "name": "name",
          "type": "string"
        }
      ],
      "name": "getFunction",
      "outputs": [
        {
          "internalType": "string",
          "name": "",
          "type": "string"
        }
      ],
      "stateMutability": "view",
      "type": "function"
    },
    {
      "inputs": [
        {
          "internalType": "string",
          "name": "func",
          "type": "string"
        },
        {
          "internalType": "string",
          "name": "attr",
          "type": "string"
        },
        {
          "internalType": "string[]",
          "name": "values",
          "type": "string[]"
        }
      ],
      "name": "setValues",
      "outputs": [],
      "stateMutability": "nonpayable",
      "type": "function"
    },
    {
      "inputs": [
        {
          "internalType": "string",
          "name": "id",
          "type": "string"
        },
        {
          "internalType": "string",
          "name": "attribute",
          "type": "string"
        },
        {
          "internalType": "string",
          "name": "value",
          "type": "string"
        }
      ],
      "name": "setAttribute",
      "outputs": [],
      "stateMutability": "nonpayable",
      "type": "function"
    },
    {
      "inputs": [
        {
          "internalType": "string",
          "name": "id",
          "type": "string"
        },
        {
          "internalType": "string",
          "name": "attribute",
          "type": "string"
        }
      ],
      "name": "getAttribute",
      "outputs": [
        {
          "internalType": "string",
          "name": "",
          "type": "string"
        }
      ],
      "stateMutability": "view",
      "type": "function"
    },
    {
      "inputs": [
        {
          "internalType": "string",
          "name": "func",
          "type": "string"
        }
      ],
      "name": "mintObject",
      "outputs": [
        {
          "internalType": "uint256",
          "name": "",
          "type": "uint256"
        }
      ],
      "stateMutability": "nonpayable",
      "type": "function"
    }
  ],
  "bytecode": "0x60806040523480156200001157600080fd5b506040518060400160405280600f81526020017f46756e6374696f6e466163746f727900000000000000000000000000000000008152506040518060400160405280600281526020017f4646000000000000000000000000000000000000000000000000000000000000815250816000908051906020019062000096929190620000b8565b508060019080519060200190620000af929190620000b8565b505050620001cd565b828054620000c69062000168565b90600052602060002090601f016020900481019282620000ea576000855562000136565b82601f106200010557805160ff191683800117855562000136565b8280016001018555821562000136579182015b828111156200013557825182559160200191906001019062000118565b5b50905062000145919062000149565b5090565b5b80821115620001645760008160009055506001016200014a565b5090565b600060028204905060018216806200018157607f821691505b602082108114156200019857620001976200019e565b5b50919050565b7f4e487b7100000000000000000000000000000000000000000000000000000000600052602260045260246000fd5b6132e180620001dd6000396000f3fe608060405234801561001057600080fd5b50600436106101215760003560e01c80636352211e116100ad578063b88d4fde11610071578063b88d4fde14610316578063bd2ea3f914610332578063bf2d0daf14610362578063c87b56dd14610392578063e985e9c5146103c257610121565b80636352211e1461024c57806370a082311461027c57806394495ebf146102ac57806395d89b41146102dc578063a22cb465146102fa57610121565b8063095ea7b3116100f4578063095ea7b3146101c057806323b872dd146101dc57806336958f89146101f857806342842e0e146102145780634bac02b81461023057610121565b806301ffc9a71461012657806304951d9f1461015657806306fdde0314610172578063081812fc14610190575b600080fd5b610140600480360381019061013b9190612205565b6103f2565b60405161014d91906128b2565b60405180910390f35b610170600480360381019061016b9190612320565b6104d4565b005b61017a610528565b60405161018791906128cd565b60405180910390f35b6101aa60048036038101906101a5919061246e565b6105ba565b6040516101b7919061284b565b60405180910390f35b6101da60048036038101906101d591906121c5565b610600565b005b6101f660048036038101906101f191906120af565b610718565b005b610212600480360381019061020d91906123c7565b610778565b005b61022e600480360381019061022991906120af565b6107cc565b005b61024a600480360381019061024591906122a8565b6107ec565b005b6102666004803603810190610261919061246e565b610823565b604051610273919061284b565b60405180910390f35b61029660048036038101906102919190612042565b6108d5565b6040516102a39190612a6f565b60405180910390f35b6102c660048036038101906102c1919061225f565b61098d565b6040516102d39190612a6f565b60405180910390f35b6102e46109cb565b6040516102f191906128cd565b60405180910390f35b610314600480360381019061030f9190612185565b610a5d565b005b610330600480360381019061032b9190612102565b610a73565b005b61034c6004803603810190610347919061225f565b610ad5565b60405161035991906128cd565b60405180910390f35b61037c600480360381019061037791906122a8565b610b85565b60405161038991906128cd565b60405180910390f35b6103ac60048036038101906103a7919061246e565b610c52565b6040516103b991906128cd565b60405180910390f35b6103dc60048036038101906103d7919061206f565b610d65565b6040516103e991906128b2565b60405180910390f35b60007f80ac58cd000000000000000000000000000000000000000000000000000000007bffffffffffffffffffffffffffffffffffffffffffffffffffffffff1916827bffffffffffffffffffffffffffffffffffffffffffffffffffffffff191614806104bd57507f5b5e139f000000000000000000000000000000000000000000000000000000007bffffffffffffffffffffffffffffffffffffffffffffffffffffffff1916827bffffffffffffffffffffffffffffffffffffffffffffffffffffffff1916145b806104cd57506104cc82610df9565b5b9050919050565b806009846040516104e591906127bc565b90815260200160405180910390208360405161050191906127bc565b90815260200160405180910390209080519060200190610522929190611cd6565b50505050565b60606000805461053790612d06565b80601f016020809104026020016040519081016040528092919081815260200182805461056390612d06565b80156105b05780601f10610585576101008083540402835291602001916105b0565b820191906000526020600020905b81548152906001019060200180831161059357829003601f168201915b5050505050905090565b60006105c582610e63565b6004600083815260200190815260200160002060009054906101000a900473ffffffffffffffffffffffffffffffffffffffff169050919050565b600061060b82610823565b90508073ffffffffffffffffffffffffffffffffffffffff168373ffffffffffffffffffffffffffffffffffffffff16141561067c576040517f08c379a000000000000000000000000000000000000000000000000000000000815260040161067390612a2f565b60405180910390fd5b8073ffffffffffffffffffffffffffffffffffffffff1661069b610eae565b73ffffffffffffffffffffffffffffffffffffffff1614806106ca57506106c9816106c4610eae565b610d65565b5b610709576040517f08c379a0000000000000000000000000000000000000000000000000000000008152600401610700906129cf565b60405180910390fd5b6107138383610eb6565b505050565b610729610723610eae565b82610f6f565b610768576040517f08c379a000000000000000000000000000000000000000000000000000000000815260040161075f90612a4f565b60405180910390fd5b610773838383611004565b505050565b80600a8460405161078991906127bc565b9081526020016040518091039020836040516107a591906127bc565b908152602001604051809103902090805190602001906107c6929190611d36565b50505050565b6107e783838360405180602001604052806000815250610a73565b505050565b806008836040516107fd91906127bc565b9081526020016040518091039020908051906020019061081e929190611d36565b505050565b6000806002600084815260200190815260200160002060009054906101000a900473ffffffffffffffffffffffffffffffffffffffff169050600073ffffffffffffffffffffffffffffffffffffffff168173ffffffffffffffffffffffffffffffffffffffff1614156108cc576040517f08c379a00000000000000000000000000000000000000000000000000000000081526004016108c390612a0f565b60405180910390fd5b80915050919050565b60008073ffffffffffffffffffffffffffffffffffffffff168273ffffffffffffffffffffffffffffffffffffffff161415610946576040517f08c379a000000000000000000000000000000000000000000000000000000000815260040161093d9061298f565b60405180910390fd5b600360008373ffffffffffffffffffffffffffffffffffffffff1673ffffffffffffffffffffffffffffffffffffffff168152602001908152602001600020549050919050565b60008061099a600761126b565b90506109a63382611279565b6109b8816109b385611453565b611631565b6109c260076116a5565b80915050919050565b6060600180546109da90612d06565b80601f0160208091040260200160405190810160405280929190818152602001828054610a0690612d06565b8015610a535780601f10610a2857610100808354040283529160200191610a53565b820191906000526020600020905b815481529060010190602001808311610a3657829003601f168201915b5050505050905090565b610a6f610a68610eae565b83836116bb565b5050565b610a84610a7e610eae565b83610f6f565b610ac3576040517f08c379a0000000000000000000000000000000000000000000000000000000008152600401610aba90612a4f565b60405180910390fd5b610acf84848484611828565b50505050565b6060600882604051610ae791906127bc565b90815260200160405180910390208054610b0090612d06565b80601f0160208091040260200160405190810160405280929190818152602001828054610b2c90612d06565b8015610b795780601f10610b4e57610100808354040283529160200191610b79565b820191906000526020600020905b815481529060010190602001808311610b5c57829003601f168201915b50505050509050919050565b6060600a83604051610b9791906127bc565b908152602001604051809103902082604051610bb391906127bc565b90815260200160405180910390208054610bcc90612d06565b80601f0160208091040260200160405190810160405280929190818152602001828054610bf890612d06565b8015610c455780601f10610c1a57610100808354040283529160200191610c45565b820191906000526020600020905b815481529060010190602001808311610c2857829003601f168201915b5050505050905092915050565b6060610c5d82610e63565b6000600660008481526020019081526020016000208054610c7d90612d06565b80601f0160208091040260200160405190810160405280929190818152602001828054610ca990612d06565b8015610cf65780601f10610ccb57610100808354040283529160200191610cf6565b820191906000526020600020905b815481529060010190602001808311610cd957829003601f168201915b505050505090506000610d07611884565b9050600081511415610d1d578192505050610d60565b600082511115610d52578082604051602001610d3a9291906127d3565b60405160208183030381529060405292505050610d60565b610d5b8461189b565b925050505b919050565b6000600560008473ffffffffffffffffffffffffffffffffffffffff1673ffffffffffffffffffffffffffffffffffffffff16815260200190815260200160002060008373ffffffffffffffffffffffffffffffffffffffff1673ffffffffffffffffffffffffffffffffffffffff16815260200190815260200160002060009054906101000a900460ff16905092915050565b60007f01ffc9a7000000000000000000000000000000000000000000000000000000007bffffffffffffffffffffffffffffffffffffffffffffffffffffffff1916827bffffffffffffffffffffffffffffffffffffffffffffffffffffffff1916149050919050565b610e6c81611903565b610eab576040517f08c379a0000000000000000000000000000000000000000000000000000000008152600401610ea290612a0f565b60405180910390fd5b50565b600033905090565b816004600083815260200190815260200160002060006101000a81548173ffffffffffffffffffffffffffffffffffffffff021916908373ffffffffffffffffffffffffffffffffffffffff160217905550808273ffffffffffffffffffffffffffffffffffffffff16610f2983610823565b73ffffffffffffffffffffffffffffffffffffffff167f8c5be1e5ebec7d5bd14f71427d1e84f3dd0314c0f7b2291e5b200ac8c7c3b92560405160405180910390a45050565b600080610f7b83610823565b90508073ffffffffffffffffffffffffffffffffffffffff168473ffffffffffffffffffffffffffffffffffffffff161480610fbd5750610fbc8185610d65565b5b80610ffb57508373ffffffffffffffffffffffffffffffffffffffff16610fe3846105ba565b73ffffffffffffffffffffffffffffffffffffffff16145b91505092915050565b8273ffffffffffffffffffffffffffffffffffffffff1661102482610823565b73ffffffffffffffffffffffffffffffffffffffff161461107a576040517f08c379a00000000000000000000000000000000000000000000000000000000081526004016110719061290f565b60405180910390fd5b600073ffffffffffffffffffffffffffffffffffffffff168273ffffffffffffffffffffffffffffffffffffffff1614156110ea576040517f08c379a00000000000000000000000000000000000000000000000000000000081526004016110e19061294f565b60405180910390fd5b6110f583838361196f565b611100600082610eb6565b6001600360008573ffffffffffffffffffffffffffffffffffffffff1673ffffffffffffffffffffffffffffffffffffffff16815260200190815260200160002060008282546111509190612c1c565b925050819055506001600360008473ffffffffffffffffffffffffffffffffffffffff1673ffffffffffffffffffffffffffffffffffffffff16815260200190815260200160002060008282546111a79190612b95565b92505081905550816002600083815260200190815260200160002060006101000a81548173ffffffffffffffffffffffffffffffffffffffff021916908373ffffffffffffffffffffffffffffffffffffffff160217905550808273ffffffffffffffffffffffffffffffffffffffff168473ffffffffffffffffffffffffffffffffffffffff167fddf252ad1be2c89b69c2b068fc378daa952ba7f163c4a11628f55a4df523b3ef60405160405180910390a4611266838383611974565b505050565b600081600001549050919050565b600073ffffffffffffffffffffffffffffffffffffffff168273ffffffffffffffffffffffffffffffffffffffff1614156112e9576040517f08c379a00000000000000000000000000000000000000000000000000000000081526004016112e0906129ef565b60405180910390fd5b6112f281611903565b15611332576040517f08c379a00000000000000000000000000000000000000000000000000000000081526004016113299061292f565b60405180910390fd5b61133e6000838361196f565b6001600360008473ffffffffffffffffffffffffffffffffffffffff1673ffffffffffffffffffffffffffffffffffffffff168152602001908152602001600020600082825461138e9190612b95565b92505081905550816002600083815260200190815260200160002060006101000a81548173ffffffffffffffffffffffffffffffffffffffff021916908373ffffffffffffffffffffffffffffffffffffffff160217905550808273ffffffffffffffffffffffffffffffffffffffff16600073ffffffffffffffffffffffffffffffffffffffff167fddf252ad1be2c89b69c2b068fc378daa952ba7f163c4a11628f55a4df523b3ef60405160405180910390a461144f60008383611974565b5050565b60608060005b600b8460405161146991906127bc565b908152602001604051809103902080549050811015611627576000600b8560405161149491906127bc565b908152602001604051809103902082815481106114b4576114b3612e9e565b5b90600052602060002001905060006115086009876040516114d591906127bc565b9081526020016040518091039020836040516114f191906127f7565b908152602001604051809103902080549050611979565b9050600060098760405161151c91906127bc565b90815260200160405180910390208360405161153891906127f7565b9081526020016040518091039020828154811061155857611557612e9e565b5b90600052602060002001805461156d90612d06565b80601f016020809104026020016040519081016040528092919081815260200182805461159990612d06565b80156115e65780601f106115bb576101008083540402835291602001916115e6565b820191906000526020600020905b8154815290600101906020018083116115c957829003601f168201915b5050505050905084816040516020016116009291906127d3565b6040516020818303038152906040529450505050808061161f90612d69565b915050611459565b5080915050919050565b61163a82611903565b611679576040517f08c379a0000000000000000000000000000000000000000000000000000000008152600401611670906129af565b60405180910390fd5b806006600084815260200190815260200160002090805190602001906116a0929190611d36565b505050565b6001816000016000828254019250508190555050565b8173ffffffffffffffffffffffffffffffffffffffff168373ffffffffffffffffffffffffffffffffffffffff16141561172a576040517f08c379a00000000000000000000000000000000000000000000000000000000081526004016117219061296f565b60405180910390fd5b80600560008573ffffffffffffffffffffffffffffffffffffffff1673ffffffffffffffffffffffffffffffffffffffff16815260200190815260200160002060008473ffffffffffffffffffffffffffffffffffffffff1673ffffffffffffffffffffffffffffffffffffffff16815260200190815260200160002060006101000a81548160ff0219169083151502179055508173ffffffffffffffffffffffffffffffffffffffff168373ffffffffffffffffffffffffffffffffffffffff167f17307eab39ab6107e8899845ad3d59bd9653f200f220920489ca2b5937696c318360405161181b91906128b2565b60405180910390a3505050565b611833848484611004565b61183f848484846119bb565b61187e576040517f08c379a0000000000000000000000000000000000000000000000000000000008152600401611875906128ef565b60405180910390fd5b50505050565b606060405180602001604052806000815250905090565b60606118a682610e63565b60006118b0611884565b905060008151116118d057604051806020016040528060008152506118fb565b806118da84611b52565b6040516020016118eb9291906127d3565b6040516020818303038152906040525b915050919050565b60008073ffffffffffffffffffffffffffffffffffffffff166002600084815260200190815260200160002060009054906101000a900473ffffffffffffffffffffffffffffffffffffffff1673ffffffffffffffffffffffffffffffffffffffff1614159050919050565b505050565b505050565b6000814433426040516020016119919392919061280e565b6040516020818303038152906040528051906020012060001c6119b49190612de0565b9050919050565b60006119dc8473ffffffffffffffffffffffffffffffffffffffff16611cb3565b15611b45578373ffffffffffffffffffffffffffffffffffffffff1663150b7a02611a05610eae565b8786866040518563ffffffff1660e01b8152600401611a279493929190612866565b602060405180830381600087803b158015611a4157600080fd5b505af1925050508015611a7257506040513d601f19601f82011682018060405250810190611a6f9190612232565b60015b611af5573d8060008114611aa2576040519150601f19603f3d011682016040523d82523d6000602084013e611aa7565b606091505b50600081511415611aed576040517f08c379a0000000000000000000000000000000000000000000000000000000008152600401611ae4906128ef565b60405180910390fd5b805181602001fd5b63150b7a0260e01b7bffffffffffffffffffffffffffffffffffffffffffffffffffffffff1916817bffffffffffffffffffffffffffffffffffffffffffffffffffffffff191614915050611b4a565b600190505b949350505050565b60606000821415611b9a576040518060400160405280600181526020017f30000000000000000000000000000000000000000000000000000000000000008152509050611cae565b600082905060005b60008214611bcc578080611bb590612d69565b915050600a82611bc59190612beb565b9150611ba2565b60008167ffffffffffffffff811115611be857611be7612ecd565b5b6040519080825280601f01601f191660200182016040528015611c1a5781602001600182028036833780820191505090505b5090505b60008514611ca757600182611c339190612c1c565b9150600a85611c429190612de0565b6030611c4e9190612b95565b60f81b818381518110611c6457611c63612e9e565b5b60200101907effffffffffffffffffffffffffffffffffffffffffffffffffffffffffffff1916908160001a905350600a85611ca09190612beb565b9450611c1e565b8093505050505b919050565b6000808273ffffffffffffffffffffffffffffffffffffffff163b119050919050565b828054828255906000526020600020908101928215611d25579160200282015b82811115611d24578251829080519060200190611d14929190611d36565b5091602001919060010190611cf6565b5b509050611d329190611dbc565b5090565b828054611d4290612d06565b90600052602060002090601f016020900481019282611d645760008555611dab565b82601f10611d7d57805160ff1916838001178555611dab565b82800160010185558215611dab579182015b82811115611daa578251825591602001919060010190611d8f565b5b509050611db89190611de0565b5090565b5b80821115611ddc5760008181611dd39190611dfd565b50600101611dbd565b5090565b5b80821115611df9576000816000905550600101611de1565b5090565b508054611e0990612d06565b6000825580601f10611e1b5750611e3a565b601f016020900490600052602060002090810190611e399190611de0565b5b50565b6000611e50611e4b84612aaf565b612a8a565b90508083825260208201905082856020860282011115611e7357611e72612f01565b5b60005b85811015611ec157813567ffffffffffffffff811115611e9957611e98612efc565b5b808601611ea68982611fff565b85526020850194506020840193505050600181019050611e76565b5050509392505050565b6000611ede611ed984612adb565b612a8a565b905082815260208101848484011115611efa57611ef9612f06565b5b611f05848285612cc4565b509392505050565b6000611f20611f1b84612b0c565b612a8a565b905082815260208101848484011115611f3c57611f3b612f06565b5b611f47848285612cc4565b509392505050565b600081359050611f5e8161324f565b92915050565b600082601f830112611f7957611f78612efc565b5b8135611f89848260208601611e3d565b91505092915050565b600081359050611fa181613266565b92915050565b600081359050611fb68161327d565b92915050565b600081519050611fcb8161327d565b92915050565b600082601f830112611fe657611fe5612efc565b5b8135611ff6848260208601611ecb565b91505092915050565b600082601f83011261201457612013612efc565b5b8135612024848260208601611f0d565b91505092915050565b60008135905061203c81613294565b92915050565b60006020828403121561205857612057612f10565b5b600061206684828501611f4f565b91505092915050565b6000806040838503121561208657612085612f10565b5b600061209485828601611f4f565b92505060206120a585828601611f4f565b9150509250929050565b6000806000606084860312156120c8576120c7612f10565b5b60006120d686828701611f4f565b93505060206120e786828701611f4f565b92505060406120f88682870161202d565b9150509250925092565b6000806000806080858703121561211c5761211b612f10565b5b600061212a87828801611f4f565b945050602061213b87828801611f4f565b935050604061214c8782880161202d565b925050606085013567ffffffffffffffff81111561216d5761216c612f0b565b5b61217987828801611fd1565b91505092959194509250565b6000806040838503121561219c5761219b612f10565b5b60006121aa85828601611f4f565b92505060206121bb85828601611f92565b9150509250929050565b600080604083850312156121dc576121db612f10565b5b60006121ea85828601611f4f565b92505060206121fb8582860161202d565b9150509250929050565b60006020828403121561221b5761221a612f10565b5b600061222984828501611fa7565b91505092915050565b60006020828403121561224857612247612f10565b5b600061225684828501611fbc565b91505092915050565b60006020828403121561227557612274612f10565b5b600082013567ffffffffffffffff81111561229357612292612f0b565b5b61229f84828501611fff565b91505092915050565b600080604083850312156122bf576122be612f10565b5b600083013567ffffffffffffffff8111156122dd576122dc612f0b565b5b6122e985828601611fff565b925050602083013567ffffffffffffffff81111561230a57612309612f0b565b5b61231685828601611fff565b9150509250929050565b60008060006060848603121561233957612338612f10565b5b600084013567ffffffffffffffff81111561235757612356612f0b565b5b61236386828701611fff565b935050602084013567ffffffffffffffff81111561238457612383612f0b565b5b61239086828701611fff565b925050604084013567ffffffffffffffff8111156123b1576123b0612f0b565b5b6123bd86828701611f64565b9150509250925092565b6000806000606084860312156123e0576123df612f10565b5b600084013567ffffffffffffffff8111156123fe576123fd612f0b565b5b61240a86828701611fff565b935050602084013567ffffffffffffffff81111561242b5761242a612f0b565b5b61243786828701611fff565b925050604084013567ffffffffffffffff81111561245857612457612f0b565b5b61246486828701611fff565b9150509250925092565b60006020828403121561248457612483612f10565b5b60006124928482850161202d565b91505092915050565b6124a481612c50565b82525050565b6124bb6124b682612c50565b612db2565b82525050565b6124ca81612c62565b82525050565b60006124db82612b52565b6124e58185612b68565b93506124f5818560208601612cd3565b6124fe81612f15565b840191505092915050565b600061251482612b5d565b61251e8185612b79565b935061252e818560208601612cd3565b61253781612f15565b840191505092915050565b600061254d82612b5d565b6125578185612b8a565b9350612567818560208601612cd3565b80840191505092915050565b6000815461258081612d06565b61258a8186612b8a565b945060018216600081146125a557600181146125b6576125e9565b60ff198316865281860193506125e9565b6125bf85612b3d565b60005b838110156125e1578154818901526001820191506020810190506125c2565b838801955050505b50505092915050565b60006125ff603283612b79565b915061260a82612f33565b604082019050919050565b6000612622602583612b79565b915061262d82612f82565b604082019050919050565b6000612645601c83612b79565b915061265082612fd1565b602082019050919050565b6000612668602483612b79565b915061267382612ffa565b604082019050919050565b600061268b601983612b79565b915061269682613049565b602082019050919050565b60006126ae602983612b79565b91506126b982613072565b604082019050919050565b60006126d1602e83612b79565b91506126dc826130c1565b604082019050919050565b60006126f4603e83612b79565b91506126ff82613110565b604082019050919050565b6000612717602083612b79565b91506127228261315f565b602082019050919050565b600061273a601883612b79565b915061274582613188565b602082019050919050565b600061275d602183612b79565b9150612768826131b1565b604082019050919050565b6000612780602e83612b79565b915061278b82613200565b604082019050919050565b61279f81612cba565b82525050565b6127b66127b182612cba565b612dd6565b82525050565b60006127c88284612542565b915081905092915050565b60006127df8285612542565b91506127eb8284612542565b91508190509392505050565b60006128038284612573565b915081905092915050565b600061281a82866127a5565b60208201915061282a82856124aa565b60148201915061283a82846127a5565b602082019150819050949350505050565b6000602082019050612860600083018461249b565b92915050565b600060808201905061287b600083018761249b565b612888602083018661249b565b6128956040830185612796565b81810360608301526128a781846124d0565b905095945050505050565b60006020820190506128c760008301846124c1565b92915050565b600060208201905081810360008301526128e78184612509565b905092915050565b60006020820190508181036000830152612908816125f2565b9050919050565b6000602082019050818103600083015261292881612615565b9050919050565b6000602082019050818103600083015261294881612638565b9050919050565b600060208201905081810360008301526129688161265b565b9050919050565b600060208201905081810360008301526129888161267e565b9050919050565b600060208201905081810360008301526129a8816126a1565b9050919050565b600060208201905081810360008301526129c8816126c4565b9050919050565b600060208201905081810360008301526129e8816126e7565b9050919050565b60006020820190508181036000830152612a088161270a565b9050919050565b60006020820190508181036000830152612a288161272d565b9050919050565b60006020820190508181036000830152612a4881612750565b9050919050565b60006020820190508181036000830152612a6881612773565b9050919050565b6000602082019050612a846000830184612796565b92915050565b6000612a94612aa5565b9050612aa08282612d38565b919050565b6000604051905090565b600067ffffffffffffffff821115612aca57612ac9612ecd565b5b602082029050602081019050919050565b600067ffffffffffffffff821115612af657612af5612ecd565b5b612aff82612f15565b9050602081019050919050565b600067ffffffffffffffff821115612b2757612b26612ecd565b5b612b3082612f15565b9050602081019050919050565b60008190508160005260206000209050919050565b600081519050919050565b600081519050919050565b600082825260208201905092915050565b600082825260208201905092915050565b600081905092915050565b6000612ba082612cba565b9150612bab83612cba565b9250827fffffffffffffffffffffffffffffffffffffffffffffffffffffffffffffffff03821115612be057612bdf612e11565b5b828201905092915050565b6000612bf682612cba565b9150612c0183612cba565b925082612c1157612c10612e40565b5b828204905092915050565b6000612c2782612cba565b9150612c3283612cba565b925082821015612c4557612c44612e11565b5b828203905092915050565b6000612c5b82612c9a565b9050919050565b60008115159050919050565b60007fffffffff0000000000000000000000000000000000000000000000000000000082169050919050565b600073ffffffffffffffffffffffffffffffffffffffff82169050919050565b6000819050919050565b82818337600083830152505050565b60005b83811015612cf1578082015181840152602081019050612cd6565b83811115612d00576000848401525b50505050565b60006002820490506001821680612d1e57607f821691505b60208210811415612d3257612d31612e6f565b5b50919050565b612d4182612f15565b810181811067ffffffffffffffff82111715612d6057612d5f612ecd565b5b80604052505050565b6000612d7482612cba565b91507fffffffffffffffffffffffffffffffffffffffffffffffffffffffffffffffff821415612da757612da6612e11565b5b600182019050919050565b6000612dbd82612dc4565b9050919050565b6000612dcf82612f26565b9050919050565b6000819050919050565b6000612deb82612cba565b9150612df683612cba565b925082612e0657612e05612e40565b5b828206905092915050565b7f4e487b7100000000000000000000000000000000000000000000000000000000600052601160045260246000fd5b7f4e487b7100000000000000000000000000000000000000000000000000000000600052601260045260246000fd5b7f4e487b7100000000000000000000000000000000000000000000000000000000600052602260045260246000fd5b7f4e487b7100000000000000000000000000000000000000000000000000000000600052603260045260246000fd5b7f4e487b7100000000000000000000000000000000000000000000000000000000600052604160045260246000fd5b600080fd5b600080fd5b600080fd5b600080fd5b600080fd5b6000601f19601f8301169050919050565b60008160601b9050919050565b7f4552433732313a207472616e7366657220746f206e6f6e20455243373231526560008201527f63656976657220696d706c656d656e7465720000000000000000000000000000602082015250565b7f4552433732313a207472616e736665722066726f6d20696e636f72726563742060008201527f6f776e6572000000000000000000000000000000000000000000000000000000602082015250565b7f4552433732313a20746f6b656e20616c7265616479206d696e74656400000000600082015250565b7f4552433732313a207472616e7366657220746f20746865207a65726f2061646460008201527f7265737300000000000000000000000000000000000000000000000000000000602082015250565b7f4552433732313a20617070726f766520746f2063616c6c657200000000000000600082015250565b7f4552433732313a2061646472657373207a65726f206973206e6f74206120766160008201527f6c6964206f776e65720000000000000000000000000000000000000000000000602082015250565b7f45524337323155524953746f726167653a2055524920736574206f66206e6f6e60008201527f6578697374656e7420746f6b656e000000000000000000000000000000000000602082015250565b7f4552433732313a20617070726f76652063616c6c6572206973206e6f7420746f60008201527f6b656e206f776e6572206e6f7220617070726f76656420666f7220616c6c0000602082015250565b7f4552433732313a206d696e7420746f20746865207a65726f2061646472657373600082015250565b7f4552433732313a20696e76616c696420746f6b656e2049440000000000000000600082015250565b7f4552433732313a20617070726f76616c20746f2063757272656e74206f776e6560008201527f7200000000000000000000000000000000000000000000000000000000000000602082015250565b7f4552433732313a2063616c6c6572206973206e6f7420746f6b656e206f776e6560008201527f72206e6f7220617070726f766564000000000000000000000000000000000000602082015250565b61325881612c50565b811461326357600080fd5b50565b61326f81612c62565b811461327a57600080fd5b50565b61328681612c6e565b811461329157600080fd5b50565b61329d81612cba565b81146132a857600080fd5b5056fea2646970667358221220fbfd8630eac472b38a377af8ffdbc334cb4ec24c9c20a1fad71513a1cc3e4b0464736f6c63430008060033",
  "immutableReferences": {},
  "source": "// SPDX-License-Identifier: MIT\npragma solidity ^0.8.6;\n\nimport \"@openzeppelin/contracts/token/ERC721/extensions/ERC721URIStorage.sol\";\nimport \"@openzeppelin/contracts/utils/Counters.sol\";\n\ncontract FunctionFactory is ERC721URIStorage {\n\n        // token id\n        using Counters for Counters.Counter;\n        Counters.Counter private counter;\n\n        // function => code\n        mapping(string => string) private _functions;\n\n        // function => attribute => possible values\n        mapping(string => mapping(string => string[])) _values;\n\n        // token id => attribute => value\n        mapping(string => mapping(string => string)) private _attributes;\n\n        // function => attribute names\n        mapping(string => string[]) private _attributeNames;\n\n        constructor() ERC721(\"FunctionFactory\", \"FF\") {}\n\n        function setFunction(string memory name, string memory code) public {\n                _functions[name] = code;\n        }\n\n        function getFunction(string memory name) public view returns (string memory) {\n                return _functions[name];\n        }\n\n        function setValues(string memory func, string memory attr, string[] memory values) public {\n                _values[func][attr] = values;\n        }\n\n        function setAttribute(string memory id, string memory attribute, string memory value) public {\n                _attributes[id][attribute] = value;\n        }\n\n        function getAttribute(string memory id, string memory attribute) public view returns (string memory) {\n                return _attributes[id][attribute];\n        }\n\n        function mintObject(string memory func) public returns (uint256) {\n                uint256 i = counter.current();\n                _mint(msg.sender, i);\n                _setTokenURI(i, _randomAttributes(func));\n                counter.increment();\n                return i;\n        }\n\n        function _randomAttributes(string memory func) internal returns (string memory) {\n\n                string memory content;\n\n                for (uint256 i = 0; i < _attributeNames[func].length; i++) {\n                        string storage attr = _attributeNames[func][i];\n                        uint256 k = _randomNumber(_values[func][attr].length);\n                        string memory value = _values[func][attr][k];\n                        content = string(abi.encodePacked(content, value));\n                }\n\n                return content;\n        }\n\n        function _randomNumber(uint256 n) internal returns (uint256) {\n                return uint(keccak256(abi.encodePacked(block.difficulty, msg.sender, block.timestamp))) % n;\n        }\n\n}\n",
  "sourcePath": "/Users/d/code/rove/3df/contracts/FunctionFactory.sol",
  "compiler": {
    "name": "solc",
    "version": "0.8.6+commit.11564f7e.Emscripten.clang"
  },
  "schemaVersion": "3.4.10",
  "updatedAt": "2022-09-19T17:49:17.401Z",
  "devdoc": {
    "kind": "dev",
    "methods": {
      "approve(address,uint256)": {
        "details": "See {IERC721-approve}."
      },
      "balanceOf(address)": {
        "details": "See {IERC721-balanceOf}."
      },
      "getApproved(uint256)": {
        "details": "See {IERC721-getApproved}."
      },
      "isApprovedForAll(address,address)": {
        "details": "See {IERC721-isApprovedForAll}."
      },
      "name()": {
        "details": "See {IERC721Metadata-name}."
      },
      "ownerOf(uint256)": {
        "details": "See {IERC721-ownerOf}."
      },
      "safeTransferFrom(address,address,uint256)": {
        "details": "See {IERC721-safeTransferFrom}."
      },
      "safeTransferFrom(address,address,uint256,bytes)": {
        "details": "See {IERC721-safeTransferFrom}."
      },
      "setApprovalForAll(address,bool)": {
        "details": "See {IERC721-setApprovalForAll}."
      },
      "supportsInterface(bytes4)": {
        "details": "See {IERC165-supportsInterface}."
      },
      "symbol()": {
        "details": "See {IERC721Metadata-symbol}."
      },
      "tokenURI(uint256)": {
        "details": "See {IERC721Metadata-tokenURI}."
      },
      "transferFrom(address,address,uint256)": {
        "details": "See {IERC721-transferFrom}."
      }
    },
    "version": 1
  },
  "userdoc": {
    "kind": "user",
    "methods": {},
    "version": 1
  }
}