{
  "contractName": "Hello",
  "abi": [
    {
      "inputs": [
        {
          "internalType": "string",
          "name": "name",
          "type": "string"
        },
        {
          "internalType": "string",
          "name": "code",
          "type": "string"
        }
      ],
      "name": "setFunction",
      "outputs": [],
      "stateMutability": "nonpayable",
      "type": "function"
    },
    {
      "inputs": [
        {
          "internalType": "string",
          "name": "name",
          "type": "string"
        }
      ],
      "name": "getFunction",
      "outputs": [
        {
          "internalType": "string",
          "name": "",
          "type": "string"
        }
      ],
      "stateMutability": "view",
      "type": "function"
    }
  ],
  "bytecode": "0x608060405234801561001057600080fd5b506105c0806100206000396000f3fe608060405234801561001057600080fd5b50600436106100365760003560e01c80634bac02b81461003b578063bd2ea3f914610057575b600080fd5b610055600480360381019061005091906102ca565b610087565b005b610071600480360381019061006c9190610281565b6100be565b60405161007e91906103c3565b60405180910390f35b8060008360405161009891906103ac565b908152602001604051809103902090805190602001906100b992919061016e565b505050565b60606000826040516100d091906103ac565b908152602001604051809103902080546100e9906104a4565b80601f0160208091040260200160405190810160405280929190818152602001828054610115906104a4565b80156101625780601f1061013757610100808354040283529160200191610162565b820191906000526020600020905b81548152906001019060200180831161014557829003601f168201915b50505050509050919050565b82805461017a906104a4565b90600052602060002090601f01602090048101928261019c57600085556101e3565b82601f106101b557805160ff19168380011785556101e3565b828001600101855582156101e3579182015b828111156101e25782518255916020019190600101906101c7565b5b5090506101f091906101f4565b5090565b5b8082111561020d5760008160009055506001016101f5565b5090565b600061022461021f8461040a565b6103e5565b9050828152602081018484840111156102405761023f61056a565b5b61024b848285610462565b509392505050565b600082601f83011261026857610267610565565b5b8135610278848260208601610211565b91505092915050565b60006020828403121561029757610296610574565b5b600082013567ffffffffffffffff8111156102b5576102b461056f565b5b6102c184828501610253565b91505092915050565b600080604083850312156102e1576102e0610574565b5b600083013567ffffffffffffffff8111156102ff576102fe61056f565b5b61030b85828601610253565b925050602083013567ffffffffffffffff81111561032c5761032b61056f565b5b61033885828601610253565b9150509250929050565b600061034d8261043b565b6103578185610446565b9350610367818560208601610471565b61037081610579565b840191505092915050565b60006103868261043b565b6103908185610457565b93506103a0818560208601610471565b80840191505092915050565b60006103b8828461037b565b915081905092915050565b600060208201905081810360008301526103dd8184610342565b905092915050565b60006103ef610400565b90506103fb82826104d6565b919050565b6000604051905090565b600067ffffffffffffffff82111561042557610424610536565b5b61042e82610579565b9050602081019050919050565b600081519050919050565b600082825260208201905092915050565b600081905092915050565b82818337600083830152505050565b60005b8381101561048f578082015181840152602081019050610474565b8381111561049e576000848401525b50505050565b600060028204905060018216806104bc57607f821691505b602082108114156104d0576104cf610507565b5b50919050565b6104df82610579565b810181811067ffffffffffffffff821117156104fe576104fd610536565b5b80604052505050565b7f4e487b7100000000000000000000000000000000000000000000000000000000600052602260045260246000fd5b7f4e487b7100000000000000000000000000000000000000000000000000000000600052604160045260246000fd5b600080fd5b600080fd5b600080fd5b600080fd5b6000601f19601f830116905091905056fea264697066735822122027dfa86454903dd46f08bd8afae0dce81129209b4c4708bda8e452e7e0b42c4164736f6c63430008060033",
  "immutableReferences": {},
  "source": "// SPDX-License-Identifier: MIT\npragma solidity ^0.8.6;\n\ncontract Hello {\n\n        // function => code\n        mapping(string => string) functions;\n\n        function setFunction(string memory name, string memory code) public {\n                functions[name] = code;\n        }\n\n        function getFunction(string memory name) public view returns (string memory) {\n                return functions[name];\n        }\n}\n",
  "sourcePath": "/Users/d/code/rove/3df/contracts/Hello.sol",
  "compiler": {
    "name": "solc",
    "version": "0.8.6+commit.11564f7e.Emscripten.clang"
  },
  "schemaVersion": "3.4.10",
  "updatedAt": "2022-09-19T15:22:06.307Z",
  "devdoc": {
    "kind": "dev",
    "methods": {},
    "version": 1
  },
  "userdoc": {
    "kind": "user",
    "methods": {},
    "version": 1
  }
}